:020000040800F2
:1000000000E40020F9010008216700109B65001042
:10001000196700106B6400107D7D00100000000067
:10002000000000000000000000000000B96D00109A
:100030000965001000000000D16C0010896E0010EE
:10004000A3650010A565001000000000C573001036
:1000500079740010D5740010B36D0010B56D0010E8
:10006000996500108F650010D36C0010897D001019
:100070001165001007650010736400109165001091
:10008000936500109565001097650010636400107B
:1000900000000000BB6D0010996E00100972001086
:1000A000497200108972001000000000AD6D001050
:1000B000E76C0010E96C0010EB6C0010AF6D0010E5
:1000C000B16D00106D660010A7650010A9650010E5
:1000D000AB650010456500104765001049650010CC
:1000E000B76D0010396500103B6500103D650010CC
:1000F0003F65001041650010436500100B6500105E
:1001000065660010016500100365001005650010AC
:100110007564001065640010676400106964001065
:10012000FF640010857D0010C97200100573001077
:1001300045730010857300100D650010DFF810D0B6
:1001400000F008F800480047ED010008AFF3008018
:1001500000E40020064C074D06E0E06840F0010393
:1001600094E8070098471034AC42F6D3FFF7EAFF53
:1001700098060008D806000870B58C1810F8015BC6
:1001800015F0070301D110F8013B2A1106D110F830
:10019000012B03E010F8016B01F8016B5B1EF9D134
:1001A0002B0705D40023521E0DD401F8013BFAE7BA
:1001B00010F8013BCB1A921C03E013F8015B01F825
:1001C000015B521EF9D5A142D8D3002070BD4DF27B
:1001D000410CC1F2000C60474BF2BD6CC1F2000C47
:1001E000604746F2871CC1F2000C604710B5FFF76C
:1001F000EEFFFFF7F1FF10BDFFF7A0FF00BFFEE726
:100200000FB4054B10B503A9044A029800F018F882
:1002100010BC5DF814FB0000E58C00104C030020BE
:1002200002E008C8121F08C1002AFAD170477047BF
:10023000002001E001C1121F002AFBD1704700001D
:100240002DE9FF4F8DB00F460546002606E0252814
:100250000BD0DDE90F1290476D1C761C2878002822
:10026000F5D111B03046BDE8F08F0024A246A1467A
:100270000122E94900E0044315F8013F203B02FA5E
:1002800003F00842F7D128782A2810D06FF02F0207
:100290002878A0F13001092914D80AEB8A0102EB71
:1002A000410144F0020400EB010A6D1CF0E701CFAC
:1002B0005FEA000A03D544F40054CAF1000A44F08E
:1002C00002046D1C28782E2817D115F8010F44F070
:1002D00004042A280ED06FF02F022878A0F13001F4
:1002E00009290AD809EB890102EB410100EB010958
:1002F0006D1CF2E757F8049B6D1C28786C280FD012
:1003000006DC4C2817D068280DD06A2814D104E0E8
:10031000742810D07A280FD10DE044F400140AE0BC
:1003200044F4801401E044F440146978814202D11D
:1003300004F580146D1C6D1C28786E281ED00CDC12
:10034000632830D004DC00288BD0582811D19FE0DE
:10035000642867D069280CD164E073282DD004DCB0
:100360006F2872D0702804D194E075286ED0782858
:100370006DD0DDE90F129047761C4BE1C4F30250BB
:10038000022806D0032809D0042801CF09D006602E
:1003900040E101CFF117C0E900613BE101CF0680E8
:1003A00038E1067036E117F8040B8DF800000020E4
:1003B0008DF80100EB46012003E057F804BB4FF035
:1003C000FF3061074FF0000102D40DE008F1010198
:1003D000884649450FDA8045F8DB1BF808100029EC
:1003E000F4D108E008F1010188468142FADB1BF8EC
:1003F00008100029F6D1DDE90F23AAEB0800814699
:10040000214600F031F9304400EB080604E0DDE954
:100410000F121BF8010B9047B8F10108F7D22146E3
:100420004846F2E00A21C4F302524FF0000B089153
:10043000022A04D001CFC117032A09D00AE0FF1D08
:1004400027F00707F7E8020108E02CE01EE01FE0B4
:1004500000B2C117042A01D140B2C117021E71F1C6
:10046000000206DA0023D0EB030063EB01012D222A
:1004700002E0220504D52B228DF82420012203E07E
:10048000E20701D02022F7E7904653E00A210BE073
:10049000102109E010214FF0000B44F004044FF04C
:1004A0000809089103E008214FF0000B0891C4F3FC
:1004B0000252022A04D001CF0021032A06D006E00E
:1004C000FF1D27F00707F7E8020103E080B2042AC6
:1004D00000D1C0B24FF0000822072BD52A78702A2D
:1004E00007D0DDF820C08CF0100C5CEA0B0C05D0B6
:1004F0000EE040228DF82420012208E050EA01039A
:1005000006D030238DF824308DF825200222904625
:10051000089B83F0080353EA0B030BD150EA010256
:1005200001D1620706D530228DF824204FF0010852
:10053000A9F101092A78582A04D038A20B9208AAF6
:100540000A920BE03AA2F9E75B46089AFFF749FEE8
:100550000B9B9B5C0A9A521E0A92137050EA01028E
:10056000F2D10A98ADEB000000F1200B600702D534
:1005700024F4803401E04FF00109D94502DDA9EBF4
:100580000B0000E0002000EB0B0141440890AAEBB7
:10059000010AE00306D4DDE90F232146504600F0AE
:1005A00063F806444FF0000908E009A911F80900B2
:1005B000DDE90F12904709F10109761CC145F4DB12
:1005C000E0030CD5DDE90F232146504600F04CF83E
:1005D000064404E0DDE90F1230209047761C0899AC
:1005E000481E08900029F5DC08E00A980A9900786E
:1005F000491C0A91DDE90F129047761CBBF10001FE
:10060000ABF1010BF1DC21465046DDE90F2300F090
:1006100019F806446D1C21E60928010030313233F7
:10062000343536373839616263646566000000002E
:100630003031323334353637383941424344454618
:10064000000000002DE9F041044600251E46174633
:10065000880404D405E039462020B0476D1C641E90
:10066000F9D52846BDE8F0812DE9F0410446002582
:100670001E469046C80301D5302700E02027880495
:1006800004D505E041463846B0476D1C641EF9D5D7
:100690002846BDE8F0810000D80600080060001080
:1006A0008001000078010008DC060008806100106D
:1006B000287A0000200200080481000800000020C1
:1006C0007803000078010008C08200087803002049
:1006D000885C00003002000801FF0181401EFDD24D
:1006E00070472DE9F05F0546002092469B468846FC
:1006F0000646814640241BE028464146474622469E
:1007000000F0EBF853465A46C01A914110D31146F7
:100710001846224600F0D2F82D1A67EB01084F4622
:1007200022460120002100F0C9F817EB00094E41D4
:10073000201EA4F10104DFDC484631462A46434628
:10074000BDE8F09F40EA01039B0703D009E008C918
:10075000121F08C0042AFAD203E011F8013B00F886
:10076000013B521EF9D27047D2B201E000F8012BD2
:10077000491EFBD270470022F6E710B513460A4621
:1007800004461946FFF7F0FF204610BD2DE9FE4F45
:1007900081EA030404F0004421F0004100944FF08A
:1007A000000B23F0004350EA01045ED052EA030438
:1007B0005BD0C3F30A54C1F30A552C44A4F2F334BA
:1007C0000194A0FB0254C1F3130141F48011C3F35F
:1007D000130343F4801301FB024400FB034E840A1D
:1007E000970A44EA815447EA8357A4FB07680295B5
:1007F0008D0A05FB07854FEA932C04FB0C54270553
:10080000029D4FEA065847EA1637B5EB08056EEB2E
:10081000070C870E920E47EA811742EA8312A7FB64
:100820000201B6EB0B0164EB00042B0D43EA0C3321
:100830005E1844EB1C50DA465146E7FB0201C5F353
:1008400013044FEA0B3343EA14534FEA0432019C7A
:1008500043EA0603A4F10C040294009CCDE900B421
:1008600000F05AF803B0BDE8F08F00200146F9E728
:100870000EB540F2334102910021CDE900110A4644
:100880000B4600F049F803B000BDC1F30A5210B5A1
:10089000C1F3130140F2FF3341F480119A4201DAAF
:1008A000002010BD40F233439A42A2F2334203DCEF
:1008B000524200F012F810BD904010BD202A04DB17
:1008C000203A00FA02F1002070479140C2F1200363
:1008D00020FA03F3194390407047202A04DB203AA2
:1008E00021FA02F00021704721FA02F3D040C2F150
:1008F0002002914008431946704710B5141E73F149
:10090000000408DA401C41F1000192185B411A43CF
:1009100001D120F0010010BD2DE9F04D92469B461B
:1009200011B1B1FA81F202E0B0FA80F220329046C1
:10093000FFF7C4FF04460F4640EA0A0041EA0B01F4
:1009400053465A46084313D0114653EA010019D0C2
:10095000C8F140025046FFF7C0FF05460E4650461C
:1009600059464246FFF7AAFF084305D0012004E09C
:1009700020463946BDE8F08D0020054346EAE07682
:100980002C4337430A986305E40AA0EB08000022D1
:10099000FD0A44EA47540A3002D500200146E9E73F
:1009A000010510196941DDE9084500196941BDE8F3
:1009B000F04DA2E740F2012CC0F6000C60477047F2
:1009C00070477047704702F0D7F800BFFEE77047E6
:1009D00070472DE9F0410746884615460421052059
:1009E00000F02DF80021012001F08AFC80210A206E
:1009F00000F0EAFC002405E0395D092001F080FCEC
:100A0000601CC4B24445F7DB0321012001F078FCEF
:100A1000FF2400BF052000F017FC0646601EC4B28C
:100A20001CB106F004000028F4D0222000F00CFCD9
:100A30002870212000F008FC6870BDE8F08170B5D6
:100A400005460C460026284600F0FEFB064626EA30
:100A50000401284601F054FC70BD70477047704790
:100A600070477047704770477047000008494969F0
:100A700088B20749C96889B249B140B100BF044989
:100A8000496941EA0041024A516100BF00BF704715
:100A90000070034070477047704770477047704759
:100AA0007047704770472DE9F04107460E461446DF
:100AB0004FF00008002500BF09E0705D611E491B72
:100AC000715C7155611E491B7054681C85B204EB42
:100AD000D471B5EB610FF0DB224631463846FFF7A3
:100AE00031FEA0464046BDE8F08170477047704730
:100AF00070477047704702F03FF800BFFEE770474D
:100B0000704770477047704710B5044601210A4886
:100B100004F049FBF82000F02BF804F0F00000F09E
:100B200027F8F02101EA041000F022F80121024820
:100B300004F033FB10BD00000050024010B5044625
:100B400001210A4804F02FFBFA2000F011F804F00C
:100B5000F00000F00DF8F02101EA041000F008F8B0
:100B60000121024804F019FB10BD000000500240B2
:100B700070B5044600251EE00421104804F00DFB6A
:100B800004F0800020B102210C4804F00CFB03E0CB
:100B900002210A4804F001FB6006040E0421074804
:100BA00004F001FB022001F027FE0421034804F0B9
:100BB000F4FA681CC5B2082DDEDB70BD005002409F
:100BC00001F0DAFF00BFFEE77047002100E0491C9A
:100BD00000EB400252008A42F9D870473EE006F02E
:100BE0000FFB1F48007A032805D11D480078032811
:100BF00001D101F02FFC1B4800791B4908701948EE
:100C0000C07848701748807888701548408A17491E
:100C100008801348C08A8880154880694FF47A712B
:100C2000B0FBF1F0114908810D48008A0A2190FBC0
:100C3000F1F00E4948800E4840684FF47A71B0FBDD
:100C4000F1F00A49C8800848807809490988C1EB51
:100C5000011100EB81000549C1F80A00BFE700005F
:100C6000140B0020D00C0020AB0000209D000020C1
:100C7000240C002001F080FF00BFFEE701F07CFFA4
:100C800000BFFEE770B5002100230722C4782CB313
:100C9000184C246804F4E064C4F5E064210A0329D4
:100CA00002D34478610109E0C1F10303CA404478EA
:100CB00004FA03F184781440214349010E4C06786C
:100CC000A155047804F01F050124AC4005786D118E
:100CD000AD0005F1E025C5F8004109E0047804F015
:100CE0001F050124AC40054D0678761145F82640D5
:100CF00070BD00000CED00E000E400E080E100E0E9
:100D000010B5142000F0A0FA044604F0030018B94E
:100D10000321142000F058FB10BD2DE9704193B061
:100D20000646002508210846FFF789FE00210D2010
:100D300001F0E6FA80210E20FFF781FE93208DF866
:100D4000080020208DF8090012A802AB022202A997
:100D500000900C2000F086F88046B8F1000F42D1D8
:100D60003878442814D1787890B9002407E002A894
:100D7000005D305502A8005D4540601CC4B2082CDF
:100D8000F5DB02A8005DA8422DD04FF002082AE052
:100D90003878442815D17878032812D1002407E048
:100DA00002A8005D305502A8005D4540601CC4B239
:100DB000082CF5DB02A8005DA84214D04FF0020811
:100DC00011E0002407E002A8005D305502A8005D94
:100DD0004540601CC4B2082CF5DB02A8005DA842A7
:100DE00001D04FF0020880210E2000F0EDFA4046BD
:100DF00013B0BDE870812DE9F04393B006460F466D
:100E0000904699468DF808608DF80970002406E038
:100E100018F8041002AAA01C1154601CC4B2062CBD
:100E2000F6DB002407E019F8041002AA04F1080018
:100E30001154601CC4B2062CF5DB12A802AB0C22C4
:100E400002A900900E2000F00DF805462DB90820EB
:100E500000F0FAF900F0080000B90225284613B0A6
:100E6000BDE8F0832DE9FE4F0646884691469A4636
:100E7000DDF830B0022002900020019000900C2E8E
:100E800006D00E2E09D1122001901020009005E00E
:100E9000772001903020009000E000BF00BF019853
:100EA00040F08001022001F02BFA80210420FFF79E
:100EB000C6FD0021012001F023FA80210A2000F064
:100EC00083FA002505E018F80510092001F018FA4A
:100ED0006D1C4D45F7D33146012001F011FA0C2E5F
:100EE00003D180210D2000F06FFA4FF4FA6500BFA6
:100EF000042000F0A9F904466D1E35B104F001008C
:100F000018B9009820400028F2D080210D20FFF76A
:100F100096FD95B3062000F097F900F01B0068BB22
:100F2000002002900198204000F0010008B101204B
:100F300002900C2E24D10A2000F086F904460C20E1
:100F400000F082F900F007072FB1601E07EBC00028
:100F5000CBF8000002E0E000CBF8000004B9012467
:100F6000402C00DD4024002505E0092000F06CF94C
:100F70000AF805006D1CA542F7D301E0022002909B
:100F800080210C2000F020FA0021012001F0B8F9A6
:100F90000298BDE8FE8FF0B593B005460E463020AE
:100FA0008DF808008DF809500DF10A02022102A8FF
:100FB000FFF70FFD12A802AB042202A900900C203B
:100FC000FFF750FF074667B91298902809D100240F
:100FD00004E002A8005D3055601CC4B2102CF8DBA0
:100FE00000E00227384613B0F0BD70B592B0064657
:100FF0000C460F21012001F083F900BF272000F0EB
:1010000023F98828FAD108210846FFF718FD07219F
:101010000D2001F075F90321142000F0D5F98DF8A9
:1010200004604FF47A7000F003F911A801AB0122BB
:1010300001A900900C20FFF715FF05464DB9119846
:10104000102806D19DF8040020709DF805006070FE
:1010500000E00225284612B070BD70B5012006F0F0
:10106000E3F94FF4FA70FFF7B0FD002006F0DCF969
:10107000C820FFF7AAFD012006F0D6F94FF4FA7058
:10108000FFF7A3FD0F21012001F03AF9C820FFF777
:101090009CFD00BF272000F0D7F88828FAD108214E
:1010A0000846FFF7CCFC80210220FFF7C8FC3D2159
:1010B000112001F025F98821172001F021F94021A4
:1010C000152001F01DF90021122001F019F900216D
:1010D000132001F015F9372000F0B6F8054600217D
:1010E000372001F00DF9372000F0AEF80446112C3E
:1010F0001CD15E21372001F003F94821262001F0A0
:10110000FFF88821172001F0FBF86B21382001F04F
:10111000F7F823213A2001F0F3F81221292001F0F9
:10112000EFF8A5213B2001F0EBF840E0122C1CD198
:101130005E21372001F0E4F88821172001F0E0F863
:101140001221292001F0DCF8ED21352001F0D8F83A
:10115000A5213B2001F0D4F8AE21372001F0D0F8D2
:1011600072213B2001F0CCF821E0122C1FDD5E2122
:10117000372001F0C5F84821262001F0C1F8882168
:10118000172001F0BDF81221292001F0B9F8ED2156
:10119000352001F0B5F8A5213B2001F0B1F8AE21D2
:1011A000372001F0ADF872213B2001F0A9F8294663
:1011B000372001F0A5F8002070BD70B592B005464B
:1011C00093208DF8040070208DF8050000208DF824
:1011D0000A0000240BE0295D01AAA01C11549DF80F
:1011E0000A00295D48408DF80A00601CC4B2042C36
:1011F000F1DB0DF10B02072101A8FFF7EAFB082143
:101200000846FFF71CFC11A801AB092201A90090B8
:101210000C20FFF727FE064626B91198182801D1A1
:10122000002600E00226304612B070BD70477047BD
:10123000002100E0491C00EB400252008A42F9D82C
:1012400070477047704770472DE9F041064600250A
:10125000002202212B4804F052F8002201212948E3
:1012600004F04DF87E2000EA460040F08007082494
:101270001CE007F08000802805D1012204212148CC
:1012800004F03DF804E0002204211E4804F037F881
:10129000012202211B4804F032F87806070E0022D2
:1012A0000221184804F02BF8601EC4B2002CE0DCC8
:1012B000082418E001220221124804F020F86806F0
:1012C000050E082000210F4A126802400AB10121D0
:1012D00000E0002100BF0D4300220221094804F074
:1012E0000EF8601EC4B2002CE4DC01221146054851
:1012F00004F005F801220221024804F000F8284613
:10130000BDE8F08100200240704770477047704789
:1013100070477047704770472DE9F041C0B00646EE
:101320000F4614464FF0000868208DF80000201D7D
:10133000C0B28DF801002048008D00128DF8020027
:101340001D4890F828008DF8030000208DF8040057
:101350008DF80560012505E0795D681D0DF8001028
:10136000681C85B2601C8542F6DB201DC1B20DF100
:10137000020001F0EBF9804608F0FF01A01D0DF816
:1013800000104FEA2821E01D0DF80010401C82B229
:1013900069460A48FFF787FB04F108000749FF394F
:1013A000A1F80202012006494870064804F010FC2A
:1013B00040B0BDE8F0810000140B0020AB07002016
:1013C0000B0000200030004070B505460C4600269A
:1013D0002846FFF739FF064646EA0401284600F092
:1013E0008FFF70BD02480068401C014908607047CB
:1013F0006003002010B5D248006800F400500028B7
:101400007ED0CF48006800F400400028F8D0CC48D7
:1014100003F083FF06F0A8FACA480068401CC949D7
:10142000086008460068B0F5FA6F03D9002008602C
:1014300004F048FDC4480088401CC34908800846A1
:101440000088B0F5C87F03DD0020088004F0CCFEE2
:101450000421BE4803F04AFF78B9BD4890F839002E
:10146000C82806DABA4890F83900401CB84981F813
:1014700039000020B64981F83A000421B34803F04E
:1014800035FF01280BD1B24890F83A00C82806DA97
:10149000AF4890F83A00401CAD4981F83A00AC489A
:1014A00090F83A00C82803DB0020A94981F83900E8
:1014B0000821A64803F01AFF78B9A54890F836002D
:1014C000C82806DAA24890F83600401CA04981F8E6
:1014D000360000209E4981F8370008219B4803F020
:1014E00005FF01280BD19A4890F83700C82806DA82
:1014F000974890F83700401C954981F8370000E084
:101500000FE1934890F83700C82803DB002090498A
:1015100081F8360010218D4803F0E8FE78B98C4838
:1015200090F83300C82806DA894890F83300401C48
:10153000874981F833000020854981F83400102163
:10154000824803F0D3FE01280BD1814890F8340083
:10155000C82806DA7E4890F83400401C7C4981F89F
:1015600034007B4890F83400C82803DB0020784919
:1015700081F83300764890F83300C8280CDB7448B3
:1015800090F83600C82807DB714890F83900C82861
:1015900002DB00206E4988726D4890F83900C82837
:1015A00007DB6B4890F83400C82802DB012068494B
:1015B00088722021654803F099FE012833D16448E0
:1015C000808F41F27071884205DA6148808F401C3B
:1015D0005F49888702E000205D4988875C48808FEA
:1015E00064281DD15A48007A03280FD101F0FEFD6E
:1015F0007220584981F89E00352000F077FA0320C8
:101600005549087005205249087202E001205049EE
:10161000087210205149087001204D4981F83B00A3
:1016200000204B49C8872021484803F05FFEE8B9F5
:101630004748C08FC82804DA4548C08F401C444939
:10164000C8874348C08F64280DD14448007800F013
:101650001000002807DD02203D490872002081F8B3
:101660003B003E49087000203949888710213C48DA
:1016700003F03CFEC0BB3648B0F8400041F2707148
:10168000884207DA3248B0F84000401C3049A1F8DF
:10169000400003E000202E49A1F840002C48B0F89B
:1016A000400064281CD12A48007A032812D101F096
:1016B0009DFD7520274981F89E00352000F016FA1F
:1016C000032025490870052021490872C82001F02F
:1016D0007DF802E001201E49087204201F490870AD
:1016E00000201B49A1F8420010211D4803F0FEFD17
:1016F000012816D11648B0F84200C82806DA144866
:10170000B0F84200401C1249A1F842001048B0F85D
:101710004200642805D102200D49087200200F49BB
:1017200008700748006800F4805038B10448006829
:1017300000F4804010B1024803F0EAFD10BD000043
:1017400000500140280000205600002000400240C8
:10175000140B0020240C00203E0000209C000020E0
:101760000070024010B50E48006900F4005040B10E
:101770000B48006900F4004018B10948103003F02C
:10178000CCFD0748006900F4805040B1044800696E
:1017900000F4804018B10248103003F0B9FD10BDCC
:1017A0000050014010B50E48006A00F4005040B1EE
:1017B0000B48006A00F4004018B10948203003F0DB
:1017C000ACFD0748006A00F4805040B10448006A4C
:1017D00000F4804018B10248203003F099FD10BD9C
:1017E0000050014010B50E48006B00F4005040B1AD
:1017F0000B48006B00F4004018B10948303003F08A
:101800008CFD0748006B00F4805040B10448006B29
:1018100000F4804018B10248303003F079FD10BD6B
:101820000050014010B50D48006800F4005038B178
:101830000A48006800F4004010B1084803F06DFD4C
:101840000648006800F4805038B10448006800F48D
:10185000804010B1014803F05BFD10BD00D0004096
:1018600010B50E48006900F4005040B10B48006903
:1018700000F4004018B10948103003F04EFD07484D
:10188000006900F4805040B10448006900F48040D1
:1018900018B10248103003F03BFD10BD00D00040ED
:1018A00010B50E48006A00F4005040B10B48006AC1
:1018B00000F4004018B10948203003F02EFD07481D
:1018C000006A00F4805040B10448006A00F480408F
:1018D00018B10248203003F01BFD10BD00D00040BD
:1018E00010B50E48006B00F4005040B10B48006B7F
:1018F00000F4004018B10948303003F00EFD0748ED
:10190000006B00F4805040B10448006B00F480404C
:1019100018B10248303003F0FBFC10BD00D000408D
:1019200010B52A48806800F00F042848406800F08D
:10193000010020B304F0040008B324490968C8B2C8
:101940000121234A82F8FE111146B1F800125054C9
:101950001146B1F80012491CA2F800120A21C2F87F
:101960000C1211464978091DB2F80022914205D1A6
:101970000021174A82F8FE11C2F80C1200BF13486A
:10198000406800F0040028B104F0060010B10F48D0
:1019900004F0E6F80D48406800F0020020B104F0C1
:1019A000020008B105F008FD04F0070010B1074877
:1019B00004F0D0F80548406800F0080020B100208D
:1019C00010B1024804F0C9F810BD0000003000401A
:1019D000AC06002010B54FF04020806800F00F04E6
:1019E0004FF0402040684FF04020406800F0040075
:1019F00030B104F0060018B14FF0402004F0B0F808
:101A00004FF04020406804F0070018B14FF040202C
:101A100004F0A0F84FF04020406800F0080028B122
:101A2000002018B14FF0402004F097F810BD0000DE
:101A300010B52B48806800F00F04062C33D006DC6C
:101A4000002C41D0022C37D0042C46D104E0072CC6
:101A500035D00C2C41D136E02148406800F001001F
:101A600000B319E01E4800681E491F4A12888854B6
:101A70001D480088401C1C4908801A4800785528D9
:101A800001D00020088018480088162804DD04F0E2
:101A900045FB0020144908801148406900F001000E
:101AA0000028DFD11AE00E48406800F0040010B1B1
:101AB0000B4804F055F811E0094840680EE008486A
:101AC00004F048F80AE009E00548406800F0080022
:101AD00010B1034804F041F800E000BF00BF10BDA2
:101AE00000500040A00300200600002010B504466E
:101AF000192C74D00CDC052C76D004DC012C27D0FA
:101B0000032C6ED157E0092C6CD0132CF9D189E04D
:101B10003B2C68D004DC332C72D0352CF1D14AE157
:101B2000552C6ED0E32CECD1002005E0F7490A5C7F
:101B3000F74B411C5A54C8B20728F7DBF348401E44
:101B40000078F34908720822E320FFF7E5FBB7E3CA
:101B5000002005E0ED490A5CED4B411C5A54C8B227
:101B60000728F7DB0120EA49087248720F208872C3
:101B7000002008E0E54929310A5CE54B00F10B0142
:101B80005A54411CC8B20728F4DB0120E049C8744C
:101B9000002006E00122DE4B00F114015A54411CE2
:101BA000C8B20A28F6DB0420D94988771E22012012
:101BB000FFF7B2FB84E3002005E0D4490A5CD44B74
:101BC000411C5A54C8B20728F7DB0120D0490872DB
:101BD000002048721E220320FFF79EFB70E302E103
:101BE00002E06CE35BE34AE1002005E0C7490A5CE0
:101BF000C74B411C5A54C8B20728F7DB002009E044
:101C0000ACE02AE3C1490A5CC14B00F108015A5417
:101C1000411CC8B20228F5DB1E22BD490520FFF792
:101C20007BFB4DE3002005E0BA490A5CB84B411C40
:101C30005A54C8B21028F7DB002007E0B3490A5C09
:101C4000B34B00F111015A54411CC8B20728F5DB0F
:101C50000120AF490876AD48401E007A4876022040
:101C60008876AA48401E807AC876A848401E007C24
:101C70000877A648401E008A00124877A348401EF5
:101C8000807C8877A148401E408A0012C8779F4810
:101C9000401E007F81F82000002006E000229C4BBF
:101CA00000F121015A54411CC8B20828F6DB00207B
:101CB000974981F8290081F82A0096488E380078E3
:101CC00081F82B0093488E380088001281F82C0090
:101CD000002081F82D0081F82E0000BF0BE08D4917
:101CE0008E394968C200D140CAB2894B00F12F0138
:101CF0005A54411CC8B20428F1DB00200BE085498E
:101D00008E398968C200D140CAB2814B00F13301DB
:101D10005A54411CC8B20428F1DB00200BE07D4975
:101D20008E398969C200D140CAB2794B00F13701BE
:101D30005A54411CC8B20428F1DB7448401E007B91
:101D4000734981F83B007148401E8089001281F878
:101D50003C003C221320FFF7DFFAB1E2002005E04F
:101D60006C490A5C6A4B411C5A54C8B21028F7DB14
:101D7000002007E065490A5C654B00F111015A54E7
:101D8000411CC8B20728F5DB0120614908765F488D
:101D9000401E807A012803D148760020887604E02E
:101DA00000205B494876052088761A22584933205E
:101DB000FFF7B2FA84E2002005E054490A5C544B74
:101DC000411C5A54C8B20728F7DB01205049087259
:101DD0004872002088720A223520FFF79DFA0320FE
:101DE0004D4908706CE2002005E04A490A5C484B06
:101DF000411C5A54C8B21028F7DB002007E04349C1
:101E00000A5C434B00F111015A54411CC8B2072827
:101E1000F5DB01203E490876002006E000223C4B1D
:101E200000F119015A54411CC8B20728F6DB3948A1
:101E30008E380078364981F8200036488E38008880
:101E4000001281F8210033488E38007981F8220091
:101E500030488E388088000A81F82300002006E090
:101E600000222B4B00F124015A54411CC8B2032814
:101E7000F6DB272226491920FFF74EFA20E22748F1
:101E8000007824498E3981F887002448008801129F
:101E900020488E3880F888102048C1781D488E3838
:101EA00080F889101D4801791A488E3880F88A1008
:101EB0001A48417917488E3880F88B101748817975
:101EC00014488E3880F88C101448C17911488E3827
:101ED00080F88D10002005E00E490A5C0C4B411C77
:101EE0005A54C8B21028F7DB002007E007490A5C03
:101EF000074B00F111015A54411CC8B20728F5DB09
:101F0000012003490876002012E00000150B002094
:101F1000E8090020B20C00203E000020D00C002078
:101F2000E8490A5CE84B00F119015A54411CC8B257
:101F30000728F5DB002008E0E249C91D0A5CE24BF6
:101F400000F120015A54411CC8B20728F4DB0020DC
:101F50000DE0DE49C96801EB81014900C200D140B2
:101F6000CAB2D94B00F127015A54411CC8B2042807
:101F7000EFDB00200BE0D3498039096AC200D14071
:101F8000CAB2D14B00F12B015A54411CC8B20428EB
:101F9000F1DB00200BE0CB498039C96AC200D14097
:101FA000CAB2C94B00F12F015A54411CC8B20428CF
:101FB000F1DB00200BE0C3498039096BC200D1403E
:101FC000CAB2C14B00F133015A54411CC8B20428B3
:101FD000F1DB00200DE0BD49896901EB8101490079
:101FE000C200D140CAB2B84B00F137015A54411C6B
:101FF000C8B20428EFDB00200BE0B2498039896BBE
:10200000C200D140CAB2B04B00F13B015A54411C4E
:10201000C8B20428F1DB00200BE0AA498039496CE2
:10202000C200D140CAB2A84B00F13F015A54411C32
:10203000C8B20428F1DB00200BE0A2498039896C8A
:10204000C200D140CAB2A04B00F143015A54411C16
:10205000C8B20428F1DB00200DE09C49496A01EB7D
:1020600081014900C200D140CAB2974B00F147013B
:102070005A54411CC8B20428EFDB00200BE0914900
:102080008039096DC200D140CAB28F4B00F14B01BB
:102090005A54411CC8B20428F1DB00200BE08949E6
:1020A0008039C96DC200D140CAB2874B00F14F01DF
:1020B0005A54411CC8B20428F1DB00200BE08149CE
:1020C0008039096EC200D140CAB27F4B00F1530182
:1020D0005A54411CC8B20428F1DB00200DE07B49B2
:1020E000096B01EB81014900C200D140CAB2764BB5
:1020F00000F157015A54411CC8B20428EFDB0020FC
:102100000BE070498039896EC200D140CAB26E4B73
:1021100000F15B015A54411CC8B20428F1DB0020D5
:102120000BE068498039496FC200D140CAB2664BA2
:1021300000F15F015A54411CC8B20428F1DB0020B1
:102140000BE060498039896FC200D140CAB25E4B52
:1021500000F163015A54411CC8B20428F1DB00208D
:1021600008E0584974390A5C574B00F167015A542A
:10217000411CC8B20528F4DB002008E051496F3942
:102180000A5C514B00F16C015A54411CC8B205283D
:10219000F4DB00200BE04B4980394968C200D14094
:1021A000CAB2494B00F171015A54411CC8B204280B
:1021B000F1DB00200BE0434980398968C200D1403F
:1021C000CAB2414B00F175015A54411CC8B20428EF
:1021D000F1DB00200BE03B4980398969C200D14026
:1021E000CAB2394B00F179015A54411CC8B20428D3
:1021F000F1DB002006E00022334B00F17D015A5450
:10220000411CC8B21128F6DB01202F4981F88E004D
:10221000002008E02B49C91D0A5C2B4B00F18F01FF
:102220005A54411CC8B20728F4DB2648803890F87D
:102230009E00254981F89600002006E00022224BEE
:1022400000F197015A54411CC8B20828F6DB9E22BF
:102250001D493B20FFF760F832E0002005E01C49F3
:102260000A5C194B411C5A54C8B20728F7DB1948BD
:102270008078154948721748C078887215480079E7
:10228000C87214484079087312488079487311481D
:10229000C07988730E225520FFF73EF810E0002029
:1022A00005E00B490A5C084B411C5A54C8B2072888
:1022B000F7DB072204490920FFF72EF800E000BFF2
:1022C00000BF10BDA40C0020E80900205C0B00201A
:1022D000150B0020D00C002000F04EFC00BFFEE7E4
:1022E0007047000000BF0548406940F00100034905
:1022F000486100BF00F040FC00BFFEE70030014035
:102300002DE9F04106460D46002202212C4802F03C
:10231000F6FF002201212A4802F0F1FF7E2000EAA8
:10232000460708241CE007F08000802805D1012220
:102330000421234802F0E3FF04E0002204212048A6
:1023400002F0DDFF012202211D4802F0D8FF7806CD
:10235000070E002202211A4802F0D1FF601EC4B20B
:10236000002CE0DC08241CE005F08000802805D16A
:1023700001220421124802F0C2FF04E000220421DD
:102380000F4802F0BCFF012202210D4802F0B7FF06
:102390006806050E00220221094802F0B0FF601E07
:1023A000C4B2002CE0DC01221146054802F0A7FF70
:1023B00001220221024802F0A2FF0120BDE8F081C3
:1023C00000200240EFF310807047EFF31080704759
:1023D00070B513460022047845782C4454340C70B0
:1023E0008478C5782C4441344C70047845782C436B
:1023F00085782C43C5782C4349348C700478457813
:102400002C4085782C40C5782C405734CC7004780B
:1024100045782C448578C67835442C4345340C7176
:10242000047845782C408578C67835402C4449346A
:102430004C7100BF08E08C5C1444054E951D755D21
:102440002C409C54541CE2B2062AF4DB70BD000000
:102450003B03002010B57D48C0781E2807DD7B486F
:102460000079012101EB40007849087205E07748C6
:1024700000794006000E754908727448017A744864
:10248000405C30B1012829D002284DD0032871D1F9
:1024900071E07048406B50B96F4880696D4948637E
:1024A0000020C8644866C8670846006A48626A48EF
:1024B00080696849496B401A6649496A0844654918
:1024C00008620846006A62493439C968484342F2E2
:1024D0001071B0FBF1F05F49086372E05D48C06CB9
:1024E00058B900205B4948635B488069C864002094
:1024F0004866C8670846806BC86357488069554975
:10250000C96C401A5349C96B08445249886308464C
:10251000806B4F4934398969484342F21071B0FBEE
:10252000F1F04C4988644CE04A48406E58B90020AC
:1025300048494863C8644848806948660020C867BD
:102540000846006D4865444880694249496E401A12
:102550004049496D08443F4908650846006D3C49BB
:102560003439496A484342F21071B0FBF1F03949FD
:10257000086626E024E03748C06F50B9002035498E
:102580004863C864486634488069C8670846806EF6
:10259000C866314880692F49C96F401A2D49C96EF4
:1025A00008442C4988660846806E29493439096BED
:1025B000484342F21071B0FBF1F02649886700E011
:1025C00000BF00BF2348006A2249896B08442149A3
:1025D000096D08441F49896E08441E494860084631
:1025E000006B896C08441B49096E08441949896FBE
:1025F0000844184988611848007E48741648008BC2
:10260000010A1448817414488069010C1148C1748E
:1026100011488069010E0F48017580696421B0FB83
:10262000F1F032300B49C96988420ED300F0DEFD6B
:102630006E20084981F89E003520FFF757FA0520E3
:102640000549087203200549087010BDD00C002010
:10265000900B0020240C0020140B00203E000020D2
:1026600010B500F047F800F029F80120FEF74CFA09
:10267000022000F0ABF810230BA20121084600F065
:1026800025FA102308A20121022000F01FFA1023CE
:1026900005A20121032000F019FA102302A2012152
:1026A000042000F013FA10BD20202020202020203C
:1026B00020202020202020200000000070B52420B1
:1026C000FEF722FA002412E004F18001C8B2FEF7FE
:1026D0001BFA8020FEF718FA002504E00020FEF720
:1026E0002DFA681CC5B2202DF8DB601CC4B2202C6A
:1026F000EADB70BD10B52420FEF706FA2020FEF7B5
:102700001DFA8020FEF71AFA002404E02020FEF7CC
:1027100015FA601CC4B2402CF8DB10BD00200EE09E
:10272000084931F81010CAB207490A54054A811DF8
:1027300032F81110CAB20449891D0A54401C0628F7
:10274000EEDB7047780300209E150020F0B50246AE
:102750000C46FF21FF2509E012F8016B86EA010310
:10276000094EF65C86EA0501084EF55C261EA4F1CA
:102770000107FCB2F0D108464FF6FF7606EA0020CA
:102780004619B0B2F0BD0000BD000020BD01002020
:102790000A490870022803D109490A4A11600BE06E
:1027A000032804D14FF04021064A116004E00428B8
:1027B00002D10549034A1160704700005803002008
:1027C000003000405C0300200050004070B504461B
:1027D00001F0FAFB05466CB14FF47A70B5FBF0F0EE
:1027E000604308380321B0FBF1F0A0F12D0630461C
:1027F000FDF774FF70BD000070B504466CB107486A
:1028000060430749B0FBF1F008380321B0FBF1F059
:10281000A0F10D052846FDF761FF70BDA0D9EA04BF
:1028200040420F0010B50246002000BF0EE0072313
:1028300090FBF3F403FB1403D35CDB430B540B5CFE
:10284000044C245C23440B54431CD8B21028EEDB08
:1028500010BD00003B0300202DE9F04781460C46E7
:102860009046B9F1010F09D0B9F1020F0BD0B9F1BF
:10287000030F0DD0B9F1040F14D10EE004F17F0065
:10288000C5B2802610E004F18F00C5B290260BE09F
:1028900004F18700C5B2802606E004F19700C5B2B6
:1028A000902601E0BDE8F08700BF2420FEF72CF958
:1028B000002716E0F119C8B2FEF726F92846FEF700
:1028C00023F94FF0000A07E018F8010BFEF736F97C
:1028D0000AF1010000F0FF0ABAF1020FF4DB781CE4
:1028E000C7B2102FE6DB3620FEF70EF900BFD9E79E
:1028F0002DE9F0470746884615464FF00009012F9D
:1029000004D0022F07D0032F0FD109E008F17F0078
:1029100000F0FF090BE008F18F0000F0FF0906E06E
:1029200008F1870000F0FF0901E0BDE8F08700BF73
:102930002420FEF7E9F8012F01D0032F17D100243E
:1029400013E004F18001C8B2FEF7DEF84846FEF756
:10295000DBF8002605E015F8010BFEF7EFF8701C18
:10296000C6B2022EF7DB601CC4B2202CE9DB022FBA
:1029700031D1002413E004F19001C8B2FEF7C4F88D
:102980004846FEF7C1F8002605E015F8010BFEF7F2
:10299000D5F8701CC6B2022EF7DB601CC4B2102C36
:1029A000E9DB002415E004F18001C8B2FEF7ACF8C1
:1029B000A9F10801C8B2FEF7A7F8002605E015F84E
:1029C000010BFEF7BBF8701CC6B2022EF7DB601CD1
:1029D000C4B2102CE7DB3620FEF796F800BFA4E760
:1029E0002DE9F04107460D46002400262420FEF77D
:1029F0008BF817B1012F62D130E0002413E004F10D
:102A00008001C8B2FEF780F88020FEF77DF800262E
:102A100005E015F8010BFEF791F8701CC6B2082E00
:102A2000F7DB601CC4B2202CE9DB002413E004F1C6
:102A30008001C8B2FEF768F88820FEF765F8002626
:102A400005E015F8010BFEF779F8701CC6B2082EE8
:102A5000F7DB601CC4B2202CE9DB31E0002413E07A
:102A600004F18001C8B2FEF74FF88020FEF74CF861
:102A7000082605E015F8010BFEF760F8701CC6B2D9
:102A8000102EF7DB601CC4B2202CE9DB002413E01D
:102A900004F18001C8B2FEF737F88820FEF734F859
:102AA000082605E015F8010BFEF748F8701CC6B2C1
:102AB000102EF7DB601CC4B2202CE9DB00E000BF65
:102AC00000BF3620FEF720F8BDE8F0812DE9F04781
:102AD00080460C4616461F464FF000090025AA46C0
:102AE000B8F1010F09D0B8F1020F0FD0B8F1030F00
:102AF00015D0B8F1040F24D11AE004F17F00C5B25B
:102B0000C5F1880040064FEA106A1AE004F18F0010
:102B1000C5B2C5F1980040064FEA106A11E004F111
:102B20008700C5B2C5F1900040064FEA106A08E080
:102B300004F19700C5B2C5F1A00040064FEA106A43
:102B400000BF00BF2020FDF7DFFF2846FDF7DCFFB8
:102B50000CE016F8010BFDF7F1FF781EC7B209F182
:102B6000010000F0FF09D14500DD01E0002FF0D1A8
:102B700000BFBDE8F087000070B504F094FC644825
:102B80000668634820300468001D0068050C61A0D9
:102B9000FDF710FF61A0FDF70DFF06F4800008B1FE
:102BA00060A000E060A0014661A0FDF703FFC6F34E
:102BB000083167A0FDF7FEFEC6F308016CA0FDF723
:102BC000F9FE73A0FDF7F6FE5148143000780109B4
:102BD00072A0FDF7EFFE4E48001F407E010974A071
:102BE000FDF7E8FE4A48001F807E010975A0FDF749
:102BF000E1FE4748001FC07F010978A0FDF7DAFE1B
:102C000043481430007A010978A0FDF7D3FE40480C
:102C10001430807A01097BA0FDF7CCFE3C481430CB
:102C2000C07A01097BA0FDF7C5FE7FA0FDF7C2FEBB
:102C3000C4F380417FA0FDF7BDFEC4F3404184A0F2
:102C4000FDF7B8FEC4F3004187A0FDF7B3FE3FA037
:102C5000FDF7B0FEC4F3C03189A0FDF7ABFEC4F3AD
:102C600080318DA0FDF7A6FEC4F3403190A0FDF7A2
:102C7000A1FEC4F3003194A0FDF79CFE33A0FDF744
:102C800099FEC4F3C02197A0FDF794FEC4F3802100
:102C90009AA0FDF78FFEC4F300219EA0FDF78AFEE7
:102CA000C4F3C011A1A0FDF785FEC4F3C001A5A027
:102CB000FDF780FEC4F34001A9A0FDF77BFE04F000
:102CC0000101ADA0FDF776FEB1A0FDF773FEC5F3DF
:102CD0004021B1A0FDF76EFEC5F30021B4A0FDF7C1
:102CE00069FEC5F3C001B9A0FDF764FEC5F380011C
:102CF000BCA0FDF75FFEC5F34001C0A0FDF75AFE82
:102D000005F00101CAA0FDF755FE00BE70BD000030
:102D100004ED00E05E5F5E27270D0A004943535231
:102D20003A0D0A006973000069736E277400000091
:102D30000920746865726520257320696E74657258
:102D4000727570742070656E64696E670D0A00009C
:102D5000092070656E64696E6720657863657074BC
:102D6000696F6E206E756D6265723A25750D0A0089
:102D7000092061637469766520657863657074699C
:102D80006F6E206E756D6265723A25750D0A0000D2
:102D900053485052783A0D0A0000000009204D6552
:102DA0006D204D616E6167653A256868640D0A00A3
:102DB0000920427573204661756C743A2568686411
:102DC0000D0A000009205573616765204661756C26
:102DD000743A256868640D0A000000000920535603
:102DE000433A256868640D0A000000000920446524
:102DF000627567204D6F6E69746F723A25686864FA
:102E00000D0A0000092050656E6453563A25686823
:102E1000640D0A0009205379735469636B3A25687D
:102E200068640D0A0000000053484353523A0D0AEB
:102E30000000000009205573616765204661756CCC
:102E40007420656E61626C653A25750D0A0000009C
:102E50000920427573204661756C7420656E61624D
:102E60006C653A25750D0A0009204D656D20466197
:102E7000756C7420656E61626C653A25750D0A008B
:102E80000920535643616C6C2070656E6465643A2A
:102E900025750D0A00000000092042757320466167
:102EA000756C742070656E6465643A25750D0A0052
:102EB00009204D656D204661756C742070656E64E7
:102EC00065643A25750D0A00092055736167652010
:102ED0004661756C742070656E6465643A25750D85
:102EE0000A00000009205379735469636B20616301
:102EF000746976653A25750D0A0000000920506551
:102F00006E645356206163746976653A25750D0ABF
:102F10000000000009204D6F6E69746F72206163BC
:102F2000746976653A25750D0A000000092053562C
:102F300043616C6C206163746976653A25750D0A8E
:102F40000000000009205573616765204661756CBB
:102F500074206163746976653A25750D0A00000076
:102F60000920427573204661756C74206163746931
:102F700076653A25750D0A0009204D656D2046617C
:102F8000756C74206163746976653A25750D0A0065
:102F9000554653523A0D0A00092044697669646522
:102FA000206279207A65726F3A2025640D0A00004C
:102FB0000920556E616C69676E65642061636365A5
:102FC00073733A2025640D0A0000000009204E6F3B
:102FD00020636F70726F636573736F723A2025643C
:102FE0000D0A00000920496E7661696C6420504327
:102FF000206C6F61643A2025640D0A000920496E37
:103000007661696C64207374617465286174746599
:103010006D707420746F20656E7472792041524D0A
:10302000207374617465293A2025640D0A0000003C
:103030000920556E646566696E656420696E7374F7
:1030400072756374696F6E3A2025640D0A00000082
:1030500070B503461C46114800EB4220104D286015
:103060000020104D286012E00E48006854F820003F
:103070000B4D2D680B4E366855F82650A84201D0EE
:10308000012070BD07480068401C064D28600548B7
:1030900000688842E8D30020F3E7000000E0010860
:1030A0001C0000201400002030B503460C4C04EB3B
:1030B00042240C4D2C6000240B4D2C600BE0094C7D
:1030C0002468094D2D6854F8254010C3064C246827
:1030D000641C054D2C60044C24688C42EFD330BD39
:1030E00000E001081C000020140000202DE9F04140
:1030F00004460D4616462746104800EB4620104968
:10310000086000200F49086011E00E48006857F879
:1031100020200B4800680B4B1B6800EB83010A481A
:1031200001F0FCF907480068401C064908600548A2
:103130000068A842E9D3BDE8F081000000E0010882
:1031400018000020140000200010034010B580215A
:103150001A48FDF710FB0020184908704870042138
:10316000164881720021C17142F6D86101820021A6
:103170004182C1720121017200201049087141F29F
:103180006C710E4841834FF47A718183002101757F
:103190004175C1750176022180F82B10012180F85C
:1031A0002910022180F82510012180F8211000202B
:1031B00002490870024801F0FDF910BD2C060020FC
:1031C0000080034008B5002000900E200090694662
:1031D000014801F0A3FE08BD0080034010B50121A5
:1031E000014801F011FF10BD0080034010B502231B
:1031F00001221146014801F057FF10BD0080034035
:1032000000B5002314E00C49C95C081100F06CF80B
:103210000A4901F813000849C95C01F00F0000F0E9
:1032200063F8012101EB430204498854581CC3B2DE
:10323000072BE8DB00BD0000150B0020AF000020CD
:1032400010B50B461649097801290BDD154CC2B2A1
:10325000216800BF00BFCC6F04F00204002CFAD03C
:103260000A601BE00E490978012917D101460E4A70
:10327000126802F001027AB10B4A803A126802F039
:1032800001024AB100E000BF4FF060421268002A1C
:10329000F9D04FF06044217000BF00BF10BD0000A6
:1032A000580300205C030020800E00E030B5024689
:1032B0000B461146002405E00878682800D103E099
:1032C000491C641C9C42F7D300BF0878682801D0D1
:1032D000002030BD4878051DD018401AA84201D002
:1032E0000020F6E70846F4E70146002905DB092936
:1032F00003DC01F13002D0B206E00A2904DB0F2919
:1033000002DC01F13702D0B2704710B504F076FA52
:1033100010BD10B504F01CFA04F064FAC820FFF7E1
:1033200055FA04F035FA10BD704700002DE9FF5F33
:1033300006460C460027BA460020009001900290F5
:1033400003908146012E04D0022E7DD0032E7CD125
:10335000EFE2A046FE480078B04261D0FC4806701B
:10336000FFF77EF9002706E008F10400C05D0DF8C4
:103370000700781CC7B20E2FF6DB0A23F5A2012145
:103380000846FFF7A3FB0223F5A201210420FFF763
:103390009DFB0E236A4602210420FFF797FBF148AC
:1033A000007803283CD1F04A04210220FFF7A0FA5C
:1033B000EE4800780A2190FBF1F0ED4901EB801B0B
:1033C0005A4602210846FFF793FAE84800780A2196
:1033D00090FBF1F201FB1200E54901EB801B5A461C
:1033E00003210220FFF784FAE24800780A2190FBCB
:1033F000F1F0DF4901EB801B5A4605210220FFF75F
:1034000077FADC4800780A2190FBF1F201FB120008
:10341000D74901EB801B5A4606210220FFF768FAC4
:10342000D048007803286BD198F80000CF4909787C
:10343000884222D098F80000CC49087008460078ED
:103440000A2190FBF1F001E09AE029E3C84901EB81
:10345000801B5A4602210846FFF74AFAC348007803
:103460000A2190FBF1F201FB1200C14901EB801B24
:103470005A4603210220FFF73BFA98F80100BD49A4
:10348000097888421FD098F80100BA4908700846A8
:1034900000780A2190FBF1F0B54901EB801B5A46F8
:1034A00005210220FFF724FAB24800780A2190FB98
:1034B000F1F201FB1200AE4901EB801B5A460621D6
:1034C0000220FFF715FA98F802000A2190FBF1F0AC
:1034D0003030C0B28DF8000098F8020090FBF1F295
:1034E00001FB12003030C0B28DF8010000208DF8D1
:1034F000020002236A4607210320FFF7E7FA0BE0E8
:103500000C239DA202210846FFF7E0FA0C239EA29D
:1035100002210320FFF7DAFA9248007A022805D147
:1035200006239DA219460120FFF7D0FA8D48807A24
:10353000012804D106239AA21946FFF7C7FA9A4830
:10354000007848B987480078032805D1062397A258
:1035500019460120FFF7BAFA8248007A012804D1FF
:10356000062394A21946FFF7B1FA7E48007A032891
:1035700005D1062391A219460120FFF7A7FA90E290
:1035800025462C4628880A2190FBF1F201FB120007
:1035900030308C49C87028880A2190FBF1F090FBEC
:1035A000F1F201FB1200874948702888642190FBE2
:1035B000F1F08449087068880A2190FBF1F201FB60
:1035C000120030308049C87068880A2190FBF1F001
:1035D00090FBF1F201FB120030307B498870688863
:1035E000642190FBF1F0303077494870A8880A21B7
:1035F00090FBF1F201FB120030307449C870A888CA
:103600000A2190FBF1F090FBF1F201FB1200303047
:103610006E498870A888642190FBF1F00A2190FB24
:10362000F1F201FB1200303068494870A8884FF46D
:103630007A7190FBF1F0303064490870E8880A2113
:1036400090FBF1F201FB1200303061490871E8880B
:103650000A2190FBF1F090FBF1F201FB12003030F7
:103660005B498870E888642190FBF1F00A2190FBA7
:10367000F1F201FB1200303055494870E8884FF4F0
:103680007A7190FBF1F030305149087028890A2195
:1036900090FBF1F201FB120030304E49487128894D
:1036A0000A2190FBF1F090FBF1F201FB12003030A7
:1036B0004849C8702889642190FBF1F00A2190FBE9
:1036C000F1F201FB120030304249887028894FF432
:1036D0007A7190FBF1F030303E494870D5F80A001D
:1036E0000A21B0FBF1F201FB120030303A49C871F7
:1036F000D5F80A000A21B0FBF1F00621B0FBF1F287
:1037000001FB1200303034498871D5F80A003C21A1
:10371000B0FBF1F90A20B9FBF0F100FB1190303059
:103720002D4908710A20B9FBF0F00621B0FBF1F237
:1037300001FB120030302849C870D5F80A004FF458
:103740006161B0FBF1F90A20B9FBF0F146E000003D
:1037500001030020D4CBD0D0D7B4CCAC3A200000A9
:10376000534E0000140B002018DB00100D03002046
:1037700058D800100C030020315FB2E5C8EBB3E469
:10378000B5E7C7B900000000325FCBA2BFA8BFC930
:10379000B3E4B5E7000000002020BFD5CFD0000083
:1037A000D2D1B2E5C7B90000460000202020C0EB0E
:1037B000CFDF00002020B9CAD5CF00002020B3E41D
:1037C000B5E70000BE020020C2020020C6020020B1
:1037D000CA020020CF020020D502002000FB119079
:1037E0003030B14948700A20B9FBF0F03030087031
:1037F000AE480078B04252D0FEF732FF0823ACA2A8
:1038000005210120FFF762F90623ACA21946032027
:10381000FFF75CF90623A9A219460220FFF756F923
:103820000623A6A219460320FFF750F9A54A08214E
:103830000120FFF75DF80223A3A203210120FFF777
:1038400045F90223A1A203211846FFF73FF90423FB
:103850009FA203210846FFF739F99F480078032803
:1038600009D19E4A0621FEF7F7FF9C4A2032072124
:103870000320FEF7F1FF9A4800789A4901EB801285
:1038800005210120FFF734F895484078954901EB70
:10389000801206210120FFF72BF884480670288843
:1038A0000A2190FBF1F090490988884217D02888B6
:1038B0000A2190FBF1F08C490880894800788949F9
:1038C00001EB801205210120FFF712F884484078AF
:1038D000844901EB801206210120FFF709F8022339
:1038E0007F4A921C07211846FFF7F0F804237F4A0D
:1038F00001210846FFF7EAF804237D4A012102204E
:10390000FFF7E4F805237B4A01210320FFF7DEF8E7
:103910000823654A01210420FFF7D8F86E48007893
:10392000032805D10623744A19460420FFF7CEF870
:10393000B7E05E480078B04237D0FEF791FE06232C
:103940005EA219460420FFF7C1F8082358A20121FE
:103950000846FFF7BBF8082355A201210220FFF714
:10396000B5F8082352A201210320FFF7AFF808237E
:103970004FA201210420FFF7A9F806234FA2194600
:103980000220FFF7A3F806234CA219460320FFF7F5
:103990009DF8082359A205210120FFF797F8434815
:1039A000067059490020FFF71BF82078574909781D
:1039B000884245D02078554908705548002101605B
:1039C00081804FF0010A002738E0207800EA0A00E1
:1039D00070B3BAF1080F1DD009DCBAF1010F0DD098
:1039E000BAF1020F0ED0BAF1040F1FD10EE0BAF1F6
:1039F000100F13D0BAF1200F18D113E00120444961
:103A0000087014E001204249487010E0012040494C
:103A100088700CE001203E49C87008E001203C4954
:103A2000087104E001203A49487100E000BF00BF7E
:103A30004FEA4A604FEA106A781CC7B2062FC4DB0F
:103A4000002729E0324833490978405CB8B1314851
:103A5000007800EB4000304901EB40020623194694
:103A60000320FFF733F82B480078401C29490870E1
:103A700008460078052801DD002008700EE0254882
:103A80000078401C2349087008460078052801DDAD
:103A900000200870781CC7B2062FD3DB00BF00E0FF
:103AA00000BF00BFBDE8FF9FD5020020010300203A
:103AB0002020202020202020000000002020202086
:103AC00020200000D8DA0010205600002057000007
:103AD000206B776800000000140B002058DB0010FA
:103AE000BE02002058D800100A030020C2020020A5
:103AF000C6020020CA020020CF020020B9CAD5CFDA
:103B0000D0C5CFA20000000058D600100903002045
:103B10000203002008030020DD02002010B53E480B
:103B2000007A032810D14FF480613C4801F038FB43
:103B30003B480078401C3A49087008460078032842
:103B400013D10020087010E04FF48061334801F079
:103B500021FB1021314801F01DFB20212F4801F0ED
:103B600019FB40212D4801F015FB2B48007A022853
:103B700004D10102294801F013FB04E04FF4007165
:103B8000264801F007FB2748007848B94FF4007138
:103B9000224801F005FB4FF48061204801F000FB52
:103BA0001D48007A03280ED11D48007858B910210D
:103BB0001A4801F0F5FA2021184801F0EBFA4021EB
:103BC000164801F0E7FA1448007A03280FD1144888
:103BD000007801280BD12021104801F0E1FA1021D2
:103BE0000E4801F0DDFA40210C4801F0D3FA0A48F2
:103BF000007A03280FD10A48007802280BD140210F
:103C0000064801F0CDFA1021044801F0C9FA20213C
:103C1000024801F0C5FA10BD140B0020005002400C
:103C200001000020460000202DE9FC5F0646884682
:103C300000200190401E0090002716E08D4850F8AB
:103C40002700B04205D28B4850F82700A6EB000AA7
:103C500004E0884850F82700A0EB060A0098824547
:103C600002D2CDF800A001977F1C042FE6D3B8F153
:103C7000000F03D0B8F1010F06D102E0DFF8F89190
:103C800005E0DFF8F89102E0DFF8F49100BF00BF33
:103C90000020800340EA96414FEA863B4A460023D3
:103CA0005846FCF71EFD04460D467648C06BC0F32F
:103CB0004131019881423FD173484068210C41EA6B
:103CC00005412B0C4840184336D16F4880680023CB
:103CD000A1B205EA03024840534018432CD1694879
:103CE000C06B00F4805038B366480068C0F3C13040
:103CF000404521D1B8F1000F03D0B8F1010F19D11F
:103D00000CE06048C06B00F0806030B95D48006C2A
:103D100000F0010008B1BDE8FC9F0CE05948C06B01
:103D200000F0806028B15748006C00F4803000B18A
:103D3000F1E700E000BF00BFB8F1000F03D0B8F119
:103D4000010F57D127E000BFFEF73CFB08B9012067
:103D500000E000208346BBF1000F00D072B64B4854
:103D60004849886500BF4748006820F4C03045498D
:103D700008600846C06B20F08060C8630846006C8D
:103D800040F00100086400208865BBF1000F00D0FE
:103D900062B600BF2FE000BFFEF714FB08B9012098
:103DA00000E000208346BBF1000F00D072B6374818
:103DB0003449886500BF3348006C40F48030314995
:103DC00008640846006820F4C030086008460068AF
:103DD00040F4004008600846C06B40F08060C86353
:103DE00000208865BBF1000F00D062B600BFDFF88D
:103DF0008C9000E000BF00BF00BFFEF7E3FA08B9F7
:103E0000012000E000208346BBF1000F00D072B615
:103E10001E481C49886500BF1A48C06B20F4C0408A
:103E20001849C8630846C16B019800F0030041EAD5
:103E300040301449C863200C40EA054012494860EC
:103E4000A0B288600020C8600860012008600D48AA
:103E5000C06B40F480500B49C86300208865BBF1FB
:103E6000000F00D062B600BF962000F09DF800BFA2
:103E700051E7000098DB001080BA8C0100127A0034
:103E800040420F000060024000D00140E487AC3F98
:103E900070B5044600BFFEF795FA08B9012000E0AE
:103EA0000020064606B172B61E481F49886500BF4D
:103EB0001D48456800201C49886506B162B600BFF0
:103EC00005F07F456078FF2801D1FE2000E0607892
:103ED000C1B22078FF2801D1FE2000E0207861F3F4
:103EE0001F20A178FF2901D1FE2100E06178C9B22D
:103EF00040EA0140054300BFFEF764FA08B901201B
:103F000000E00020064606B172B6064806498865FC
:103F100000BF0548456000200349886506B162B6C8
:103F200000BF70BDE487AC3F0060024070B504463E
:103F3000092C19D100BFFEF748FA08B9012000E0AA
:103F40000020054605B172B615481649886500BFC0
:103F5000144840690121A1400843124948610020EA
:103F6000886505B162B619E000BFFEF72EFA08B900
:103F7000012000E00020054605B172B60848094955
:103F8000886500BF074800690121A1400843054931
:103F900008610020886505B162B600BF70BD0000F1
:103FA000E487AC3F0060024008B508E01A210091A8
:103FB00002E00099491E009100990029F9D1011EE3
:103FC000A0F10100F2D108BDF0B516480068C0F3B9
:103FD000C12010B1012804D101E0134903E01349C5
:103FE00001E0002100BF00BF114883680024406841
:103FF00000252D0445EA104543EA00432C430020E8
:104000001D46A5FB017C04FB01C603FB00604504C3
:1040100045EAD7320348806800F00F00401CB2FB2D
:10402000F0F0F0BD0060024080BA8C0100127A000E
:1040300000C001402DE9F04F87B0064688460020B9
:104040000390401E0290002736E0AE4850F827004B
:104050004008B0FBF6FAAB4850F827004008B0FB28
:10406000F6F106FB11000490BAF10F0F09D94FF0D9
:104070000F0AA44850F827000F2101FB16000490F6
:104080000BE0BAF10F0F08D20498B0EB560F04D929
:104090000498301A04900AF1010A0299049888429F
:1040A00009D2049802900397AAF1010005900AFB37
:1040B00006F04FEA400B7F1C042FC6D3B8F1000F67
:1040C00003D0B8F1010F06D102E0DFF83C9205E021
:1040D000DFF8389202E0DFF8389200BF00BF00201E
:1040E000800340EA9B404FEA8B314A460023CDE9EA
:1040F000001008460199FCF7F4FA04460D4685487D
:10410000C06BC0F34101039881424DD182484068A1
:10411000210C41EA05412B0C4840184344D17E480C
:1041200080680022A1B205EA020348405A401043C9
:104130003AD17848006800F00300022834D175486D
:10414000806800F00F01059881422DD17148C06B45
:1041500000F0010040B36F480068C0F3C120404543
:1041600022D1B8F1000F03D0B8F1010F1AD10DE040
:104170006848006C00F0010038B16648C06B00F080
:10418000807010B907B0BDE8F08F0CE06148C06BDB
:1041900000F0807028B15F48006C00F4803000B1FE
:1041A000F0E700E000BF00BFB8F1000F03D0B8F1A6
:1041B000010F51D125E000BFFEF704F908B9012035
:1041C00000E000200190019800B172B653485149B7
:1041D000886500BF4F48006820F4C0504D49086012
:1041E0000846C06B20F08070C8630846006C40F041
:1041F0000100086400208865019800B162B600BF24
:104200002BE000BFFEF7DEF808B9012000E0002037
:104210000190019800B172B640483E49886500BFE0
:104220003C48006C40F480303A4908640846006815
:1042300020F4C05008600846006840F40060086040
:104240000846C06B40F08070C86300208865019804
:1042500000B162B600BF00E000BF00BF00BFFEF7C4
:10426000B1F808B9012000E000200190019800B1E8
:1042700072B62A482749886500BF2648006820F0A2
:104280000300244908600846C06B20F00600C8639C
:104290000846C16B039800F0030041EA40001D4945
:1042A000C8630846806820F00F0088600846806870
:1042B000059901F00F01084316498860200C40EA77
:1042C000054015494860A0B288600020C8600860B9
:1042D000012008600F48C06B40F001000D49C86321
:1042E0000120FFF761FE0B48006820F00300801CEE
:1042F0000849086000208865019800B162B600BFD7
:1043000000BF3FE798DB001080BA8C0100127A00F2
:1043100040420F000060024000C00140E487AC3F13
:1043200070B505460C461E48854200D103E0632166
:104330001CA003F06BFA2A496068884201D2002071
:1043400008E027496068B0FBF1F01C301D21B0FB8C
:10435000F1F0401E064606F00F0040F48C5040F489
:1043600080302863207B08B1802000E0002040F4EA
:104370004030617A09B1202100E00021084340F07B
:104380001000217A09B1082100E000210843E17AF8
:1043900009B1012100E000210843286070BD000040
:1043A000001003402E2E5C2E2E5C2E2E5C2E2E5CDA
:1043B0004C69627261726965735C44726976657298
:1043C0005C736F757263655C4C4C5C74785F70688D
:1043D000655F6C6C5F65666C6173682E63000000DE
:1043E00040420F0070B504460D460F48844200D18C
:1043F00003E09E210DA003F009FAFF2D00DC03E08D
:104400009F210AA003F002FA00BFA06800F001009B
:104410000028FAD00021204600F078F8C5F3080003
:1044200040F08040206270BD001003402E2E5C2EB4
:104430002E5C2E2E5C2E2E5C4C6962726172696558
:10444000735C4472697665725C736F757263655CE8
:104450004C4C5C74785F7068655F6C6C5F65666C13
:104460006173682E630000002DE9F04104460F4699
:104470001448844200D103E0482113A003F0C6F998
:104480000120FFF753FD072500BF00BFFDF79DFF8B
:1044900008B9012000E00020064606B172B61948AE
:1044A0001949886500BF1848006A0121A9400843DE
:1044B000154908620020886506B162B600BF00BFDA
:1044C000BDE8F081001003402E2E5C2E2E5C2E2EB7
:1044D0005C2E2E5C4C69627261726965735C447219
:1044E000697665725C736F757263655C4C4C5C7465
:1044F000785F7068655F6C6C5F65666C6173682E71
:1045000063000000E487AC3F0060024009B1002274
:1045100000E0014A426570473002172070B504463A
:104520000D4616460F48844200D103E0B1210EA08B
:1045300003F06CF905F0030000B903E0B2210AA012
:1045400003F064F900BFA06800F040000028FAD032
:1045500000212046FFF7DAFF05F100602061A66127
:1045600070BD0000001003402E2E5C2E2E5C2E2EFF
:104570005C2E2E5C4C69627261726965735C447278
:10458000697665725C736F757263655C4C4C5C74C4
:10459000785F7068655F6C6C5F65666C6173682ED0
:1045A0006300000000BF816801F001010029FAD01A
:1045B000704700002DE9F04F89B005460C460020F9
:1045C00008908346079006900590804604900390DB
:1045D0000290019081460027824600260090FE4806
:1045E000854200D103E08D21FCA003F00FF9E08E9D
:1045F000B0F5806F00DA03E08E21F8A003F006F931
:10460000208FB0F5806F00DA03E08F21F3A003F074
:10461000FDF8B4F86200B0F5805F00DA03E09021A5
:10462000EEA003F0F3F82078072800DA03E09121E8
:10463000EAA003F0EBF802F089FFF648F649886536
:10464000607830B1012836D0022850D003286BD1D1
:1046500069E02078032816DAEF48406C21781922A7
:1046600002EB4102012191400843EB4948640846AE
:10467000406C21781A2202EB41020121914008434B
:10468000E549486416E0E448816C2078C01E182291
:1046900002EB4002012090400143DF488164816CBD
:1046A0002078C01E192202EB4002012090400143F5
:1046B000D948816439E0207803280BDAD648406C69
:1046C0002178192202EB4102012191400843D2498D
:1046D00048640BE0D048816C2078C01E182202EBA1
:1046E0004002012090400143CB4881641DE02078C6
:1046F00003280BDAC848406C21781A2202EB4102E9
:10470000012191400843C44948640BE0C248816CD0
:104710002078C01E192202EB400201209040014384
:10472000BD48816401E000E000BF00BF0020BA493D
:10473000886502F01FFFA07810B14FF4806000E0A0
:104740000020089908430890207910B14FF4806048
:1047500000E0002040EA0B0B607910B14FF480704C
:1047600000E0002040EA0B0BA07A00F007004BEAC3
:10477000401BA07908B1102000E0002040EA0B0B9C
:10478000E07908B1082000E0002040EA0B0BE07A55
:1047900000F003004BEA400B207A08B1012000E052
:1047A000002040EA0B0B207B00F00701079840EA4D
:1047B00041500790607B10B14FF4801000E0002062
:1047C000079908430790A07B00F00701079840EA8B
:1047D00041400790E07B10B14FF4803000E00020B2
:1047E000079908430790208A079908430790607A41
:1047F00010B14FF4803000E0002006990843069085
:10480000608A069908430690207D08B1102000E0D8
:104810000020059908430590E07D00F0030005990C
:1048200008430590607D08B1202000E00020059934
:1048300008430590207E00F00301059840EA8100BE
:104840000590A07D10B14FF4806000E00020059934
:1048500008430590607E00F00301059840EA0120BE
:1048600005902020005D00F0030048EA806894F87D
:10487000210000F0030048EA006894F8220000F0EC
:10488000030048EA805894F8230000F0030048EA47
:10489000005894F8240000F0030048EA804894F897
:1048A000250000F0030048EA004894F8260000F0D4
:1048B000030048EA802894F8270000F0030048EA43
:1048C000002894F8280000F0030048EA801894F8C3
:1048D000290000F0030048EA001894F82A0000F0CC
:1048E000030048EA800894F82B0000F0030040EA37
:1048F000080894F82C0008B1202000E0002004995A
:104900000843049094F82D0000F00301049840EA55
:10491000C100049094F82E0008B1042000E00020AB
:1049200004990843049094F82F0000F003000499C0
:104930000843049094F8300000F00301039840EA23
:104940008100039094F8310000F0030003990843BC
:10495000039094F8320008B1402000E00020029952
:104960000843029094F8330000F00301029840EAF3
:104970000110029094F8340000F00301029840EA1C
:104980008100029094F8350000F00300029908437A
:104990000290E08EC0F30901019840EA01400190C5
:1049A000208FC0F3090001990843019094F83A0060
:1049B00010B14FF0804000E0002040EA090994F86F
:1049C0003B0000F00F0049EA806994F83C0010B108
:1049D0004FF0007023E021E0008003402E2E5C2E7B
:1049E0002E5C2E2E5C2E2E5C4C69627261726965A3
:1049F000735C4472697665725C736F757263655C33
:104A00004C4C5C74785F7068655F6C6C5F65707748
:104A10006D2E6300E487AC3F00600240002040EA56
:104A2000090994F83D0000F00F0049EA405994F854
:104A30003E0010B14FF4801000E0002040EA090968
:104A400094F83F0000F00F0049EA004994F8400054
:104A500000F0030049EA003994F8410000F0030037
:104A600049EA002994F8420000F0030040EA0909ED
:104A700094F8460010B14FF4002000E000200743F6
:104A800094F8470010B14FF4802000E00020074365
:104A900094F8440010B14FF4003000E000200743C8
:104AA00094F8450010B14FF4803000E00020074337
:104AB00094F8480010B14FF4004000E00020074394
:104AC00094F8490010B14FF4804000E00020074303
:104AD00094F84C0010B14FF4005000E00020074360
:104AE00094F84D0010B14FF4805000E000200743CF
:104AF00094F84A0010B14FF4006000E00020074332
:104B000094F84B0010B14FF4806000E000200743A0
:104B100094F84E0010B14FF4007000E000200743FD
:104B200094F84F0010B14FF4807000E0002007436C
:104B300094F8500000F0030047EA801794F8510001
:104B400008B1202000E00020074394F8520008B18B
:104B5000102000E00020074394F8530000F0030009
:104B600047EA800794F8540008B1022000E00020D2
:104B7000074394F8550008B1012000E000200743E6
:104B800094F8560000F007004AEA406A94F857008B
:104B900000F007004AEA805A94F8580000F0070035
:104BA0004AEAC04A94F8590000F007004AEA004A6D
:104BB00094F85A0000F00F004AEA003A94F85B00BB
:104BC00000F00F004AEA002A94F85C0000F00F00A1
:104BD0004AEA001A94F85D0000F00F0040EA0A0A61
:104BE00094F8640010B14FF0004000E0002006434C
:104BF00094F8650010B14FF0804000E000200643BB
:104C000094F8660010B14FF0005000E00020064319
:104C100094F8670010B14FF0805000E00020064388
:104C200094F8680010B14FF0006000E000200643E7
:104C300094F8690010B14FF0806000E00020064356
:104C400094F86A0010B14FF0007000E000200643B5
:104C500094F86B0010B14FF0807000E00020064324
:104C600094F86C0010B14FF4000000E000200643FF
:104C700094F86D0010B14FF4800000E0002006436E
:104C800094F86E0010B14FF4001000E000200643CD
:104C900094F86F0010B14FF4801000E0002006433C
:104CA00094F8700010B14FF4002000E0002006439B
:104CB00094F8710010B14FF4802000E0002006430A
:104CC00094F8720010B14FF4003000E00020064369
:104CD00094F8730010B14FF4803000E000200643D8
:104CE00094F87A0000F0030046EA802694F87C00ED
:104CF00000F0030046EA002694F87B0000F0030071
:104D000046EA801694F87D0000F0030046EA00169B
:104D100094F87E0000F0030046EA800694F87F00D5
:104D200000F00300064394F8740010B14FF0804087
:104D300000E0002000990843009094F8750010B13D
:104D40004FF0005000E0002000990843009094F8D4
:104D5000760010B14FF0805000E000200099084329
:104D6000009094F8770010B14FF0006000E0002050
:104D700000990843009094F8780010B14FF08060DB
:104D800000E0002000990843009094F8790010B1E9
:104D90004FF0007000E00020009908430090D5F823
:104DA0004C0208990843C5F84C022078C0EBC000BB
:104DB00000EB400045F820B02178C1EBC10101EBC8
:104DC000410105EB8101079848602178C1EBC101E1
:104DD00001EB410105EB8101069888602178C1EB68
:104DE000C10101EB410105EB81010598C860608BB1
:104DF0002178C1EBC10101EB410105EB81010861A3
:104E0000A08B2178C1EBC10101EB410105EB8101D0
:104E10004861E08B2178C1EBC10101EB410105EB59
:104E2000810188612078C0EBC00000EB400005EBF9
:104E30008000C0F81C802178C1EBC10101EB410169
:104E400005EB8101049808622178C1EBC10101EBF7
:104E5000410105EB8101039848622178C1EBC10152
:104E600001EB410105EB8101029888622178C1EBD9
:104E7000C10101EB410105EB81010198C862207875
:104E8000C0EBC00000EB400005EB8000C0F83090A4
:104E90002078C0EBC00000EB400005EB800087638A
:104EA0002078C0EBC00000EB400005EB8000C0F8AC
:104EB0003CA0B4F85E002178C1EBC10101EB4101D7
:104EC00005EB81010864B4F860002178C1EBC101F1
:104ED00001EB410105EB81014864B4F86200C0F3C5
:104EE0000B002178C1EBC10101EB410105EB810110
:104EF00088642078C0EBC00000EB400005EB800028
:104F0000C6642178C1EBC10101EB410105EB8101D0
:104F10000098086509B0BDE8F08F000070B505463F
:104F20000C462648854200D103E0542124A002F01B
:104F30006DFC20780F2800DA03E0562120A002F053
:104F400065FC00212C48FEF76FFE00BF00BFEFF3A9
:104F5000108109B9012100E00021084600B172B6B4
:104F60002649274A916500BF2549096841F4C07167
:104F7000234A116022782249896862F30F31204A5E
:104F800091600021916500B162B600BF00BF00BF13
:104F9000EFF3108109B9012100E00021084600B1BA
:104FA00072B61649164A916500BF1649144A5165F2
:104FB0000021916500B162B600BF70BD0080034062
:104FC0002E2E5C2E2E5C2E2E5C2E2E5C4C69627278
:104FD00061726965735C4472697665725C736F7542
:104FE0007263655C4C4C5C74785F7068655F6C6C78
:104FF0005F6570776D2E6300002A7515E487AC3FFE
:105000000060024053A357002DE9F04104460E46CC
:105010001648844200D104E04FF4DE7114A002F07F
:10502000F5FB0025374600BF15E007F0010078B119
:10503000C5EBC50000EB400004EB8000006D40F4C0
:105040008020C5EBC50101EB410104EB810108653E
:105050007F08681CC5B2072DE7DBD4F84C0206F0C8
:105060007F010843C4F84C02BDE8F0810080034092
:105070002E2E5C2E2E5C2E2E5C2E2E5C4C696272C7
:1050800061726965735C4472697665725C736F7591
:105090007263655C4C4C5C74785F7068655F6C6CC7
:1050A0005F6570776D2E63002DE9F04704460E466C
:1050B000914698462848844200D104E040F2D91134
:1050C00026A002F0A3FB0025374600BF39E007F019
:1050D000010098B3C5EBC50000EB400004EB800075
:1050E000C06C20F00F00C5EBC50101EB410104EBE2
:1050F0008101C864C5EBC50000EB400004EB8000F3
:10510000C06C08F00302494662F39F010843C5EBF7
:10511000C50101EB410104EB8101C864C5EBC50089
:1051200000EB400004EB8000006D40F48060C5EBB4
:10513000C50101EB410104EB810108657F08681C92
:10514000C5B2072DC3DBD4F84C0206F07F018843BB
:10515000C4F84C02BDE8F087008003402E2E5C2E80
:105160002E5C2E2E5C2E2E5C4C696272617269651B
:10517000735C4472697665725C736F757263655CAB
:105180004C4C5C74785F7068655F6C6C5F657077C1
:105190006D2E63008AB2826370478AB28263704761
:1051A0000A04826370470A048263704770B504463C
:1051B0000D4616460D48844208D00D48844205D05D
:1051C0000C48844202D00C48844200D103E04E21B6
:1051D0000AA002F01BFB1EB96068A843606004E0EF
:1051E000012E02D160682843606070BD002002403B
:1051F0000040024000500240007002402E2E5C2E03
:105200002E5C2E2E5C2E2E5C4C696272617269657A
:10521000735C4472697665725C736F757263655C0A
:105220004C4C5C74785F7068655F6C6C5F6770692C
:105230006F2E630070B504460D4616461948844229
:1052400008D01948844205D01848844202D0184832
:10525000844200D103E0622116A002F0D7FA06F0E2
:10526000800018B1E06A2843E06202E0E06AA843E7
:10527000E06206F0010030B1E068A843E060A06998
:10528000A843A0610CE006F0020018B1E0682843D2
:10529000E06005E006F0040010B1A0692843A061B9
:1052A00070BD00000020024000400240005002405B
:1052B000007002402E2E5C2E2E5C2E2E5C2E2E5C5C
:1052C0004C69627261726965735C44726976657279
:1052D0005C736F757263655C4C4C5C74785F70686E
:1052E000655F6C6C5F6770696F2E6300024600201B
:1052F00013680B400BB1012000E00020704710B58F
:10530000134602680BB10A4300E08A43026010BDF5
:10531000016841F4804101607047016841F4004137
:105320000160704770B504460D4626681F488442E8
:105330001AD01E481030844216D01C4820308442B7
:1053400012D01A48303084420ED0194884420BD013
:1053500017481030844207D015482030844203D0CB
:1053600013483030844200D104E040F2911111A082
:1053700002F04CFA2946204600F084F846F44046F4
:10538000A87900F0070046EA0026E87900F003005B
:1053900046EA8016687A00F0070006436888A06035
:1053A00028886060A888E060266070BD00500140D9
:1053B00000D000402E2E5C2E2E5C2E2E5C2E2E5CFD
:1053C0004C69627261726965735C44726976657278
:1053D0005C736F757263655C4C4C5C74785F70686D
:1053E000655F6C6C5F74696D65722E630000000010
:1053F00070B504460D46124884421AD01048103049
:10540000844216D00E482030844212D00C483030EE
:1054100084420ED00B4884420BD00A48103084429C
:1054200007D008482030844203D0064830308442F8
:1054300000D103E0782104A002F0E8F970BD00007B
:105440000050014000D000402E2E5C2E2E5C2E2EEF
:105450005C2E2E5C4C69627261726965735C447289
:10546000697665725C736F757263655C4C4C5C74D5
:10547000785F7068655F6C6C5F74696D65722E63D0
:105480000000000070B504460E460025CC4884425A
:105490001AD0CB481030844216D0C94820308442FC
:1054A00012D0C748303084420ED0C64884420BD058
:1054B000C4481030844207D0C2482030844203D010
:1054C000C0483030844200D103E0DD21BEA002F0AC
:1054D0009DF9BC4884420BD0BA481030844207D0B2
:1054E000B8482030844203D0B6483030844207D1D7
:1054F000B07A022800DA03E0EA21B3A002F086F9CC
:1055000002F024F8BF48C0498865AD48844201D103
:10551000002527E0AA481030844201D1012521E06E
:10552000A7482030844201D102251BE0A448303036
:10553000844201D1032515E0A248844201D100250F
:1055400010E0A0481030844201D101250AE09D48B6
:105550002030844201D1022504E09A483030844250
:1055600000D10325964884420BD0954810308442E0
:1055700007D093482030844203D091483030844291
:105580007ED16900012088406900491C01228A40BF
:1055900010436900083101228A4010436900093133
:1055A00001228A4010439849896C8143964881645E
:1055B000307A02281BD1B07A00F0010040B1924845
:1055C000806C6900083101228A4010438E4988644A
:1055D000B07A00F00200002808D08B48806C690087
:1055E000093101228A40104387498864E1E0307A1A
:1055F000012802D0307A0328F8D1B07A00F00100F7
:10560000E8B18148806C6A000121914008437E49DD
:1056100088640846006820F4003008600846006886
:1056200040F4802008600846C06820F0FF00C86091
:105630000846406A0121A940084373494862B07A8C
:1056400000F002000028D1D06F48806C6900491C2E
:1056500001228A4010436C498864022D1ADA0846F8
:10566000006820F4000008600846006840F0807080
:1056700008600846C06820F07F40C860084600E027
:1056800022E0816A05F114000122824011435E4844
:1056900081628EE05C48006820F400105A4908607E
:1056A0000846006840F4800008600846C06820F49E
:1056B0007F00C8600846806AC5F1110101228A4056
:1056C00010435149886274E03E4884420BD03D4803
:1056D0001030844207D03B482030844203D0394800
:1056E0003030844265D105F11000012101FA00F04B
:1056F00005F1140101228A4010434349896C81431A
:1057000041488164307A02280DD1B07A00F001005E
:10571000A8B33D48806C05F1140101228A40104372
:105720003949886445E0307A012802D0307A03286C
:105730003FD1B07A00F0010008B33348806C05F126
:10574000100101228A4010432F498864022D17DA84
:105750000846006820F4003008600846006840F4FD
:10576000802008600846C06820F0FF00C860084636
:10577000406A291D01228A4010432349486218E0EB
:105780002148006820F400101F490860084600689E
:1057900040F4800008600846C06820F47F00C860BC
:1057A0000846806AC5F10F0101228A40104316495C
:1057B000886200201449886501F0DCFE70BD00009D
:1057C0000050014000D000402E2E5C2E2E5C2E2E6C
:1057D0005C2E2E5C4C69627261726965735C447206
:1057E000697665725C736F757263655C4C4C5C7452
:1057F000785F7068655F6C6C5F74696D65722E634D
:1058000000000000E487AC3F0060024002461068E0
:105810000B7813B140F4005301E020F40053184614
:105820004B7813B140F4805301E020F480531846C4
:105830001060704770B504460D46154884421AD072
:1058400013481030844216D011482030844212D0C0
:105850000F48303084420ED00E4884420BD00D48A1
:105860001030844207D00B482030844203D00948CE
:105870003030844200D104E04FF4DF7106A001F023
:10588000C5FF206805F0030140EA0110206070BDEB
:105890000050014000D000402E2E5C2E2E5C2E2E9B
:1058A0005C2E2E5C4C69627261726965735C447235
:1058B000697665725C736F757263655C4C4C5C7481
:1058C000785F7068655F6C6C5F74696D65722E637C
:1058D0000000000010B50446144884421AD0134852
:1058E0001030844216D011482030844212D00F4824
:1058F000303084420ED00E4884420BD00C48103019
:10590000844207D00A482030844203D0084830300F
:10591000844200D104E04FF4E87106A001F076FF64
:10592000206820F03000206010BD000000500140D1
:1059300000D000402E2E5C2E2E5C2E2E5C2E2E5C77
:105940004C69627261726965735C447269766572F2
:105950005C736F757263655C4C4C5C74785F7068E7
:10596000655F6C6C5F74696D65722E63000000008A
:105970002DE9F04104460D461F48844205D0B4F19C
:10598000402F02D01D48844200D103E0DE211CA03C
:1059900001F03CFF002700262946204600F04EF883
:1059A000687800F003000743287808B1042000E07D
:1059B00000200743A87800F0030047EAC00746F03C
:1059C0000706287900F0030046EA0016E87800F0A0
:1059D000030046EA8016002020618020E060A8795C
:1059E0002060E888000A6060E06820F08000E060E5
:1059F000E760A660BDE8F081003000400050004044
:105A00002E2E5C2E2E5C2E2E5C2E2E5C4C6962722D
:105A100061726965735C4472697665725C736F75F7
:105A20007263655C4C4C5C74785F7068655F6C6C2D
:105A30005F75736172742E630000000070B50446D8
:105A40000D463048844205D0B4F1402F02D02E4894
:105A5000844200D103E088212CA001F0D7FE294820
:105A6000844202D0B4F1402F07D1287A022800DA0C
:105A700003E08C2125A001F0C9FE01F067FD32484A
:105A8000324988651F4884420AD10846406C20F498
:105A9000804048640846406C40F0100048642BE0A9
:105AA000B4F1402F0BD12948406C20F40040274925
:105AB00048640846406C40F0200048641CE01248EE
:105AC000844219D12148406C214908401F4948644B
:105AD000287A00F0010028B10846406C40F04000F0
:105AE000486409E0287A00F0020028B11748406CA9
:105AF00040F080701549486400201449886501F021
:105B000039FD70BD00300040005000402E2E5C2E4C
:105B10002E5C2E2E5C2E2E5C4C6962726172696561
:105B2000735C4472697665725C736F757263655CF1
:105B30004C4C5C74785F7068655F6C6C5F7573610A
:105B400072742E6300000000E487AC3F00600240E6
:105B5000BFFFFEFEC16FC1677047816981617047F9
:105B6000416941617047000070B504460D46074821
:105B7000844205D0B4F1402F02D00548844200D1C0
:105B800003E04F2103A001F041FE70BD0030004052
:105B9000005000402E2E5C2E2E5C2E2E5C2E2E5C95
:105BA0004C69627261726965735C44726976657290
:105BB0005C736F757263655C4C4C5C74785F706885
:105BC000655F6C6C5F75736172742E63000000001A
:105BD000024600200B790BB1802300E0002318431C
:105BE000CB780BB1082300E0002318438B780BB16E
:105BF000042300E0002318434B780BB1022300E09C
:105C0000002318430B780BB1012300E00023184355
:105C1000C3B253607047000010B562B60122022182
:105C2000A248FFF7C3FA01220221A048FFF702FBB6
:105C300002219E48FFF7AEFA012204219B48FFF79C
:105C4000B5FA012204219948FFF7F4FA0421974894
:105C5000FFF7A6FA012210219548FFF7A7FA0122C3
:105C600010219348FFF7E6FA9248406B40F040005D
:105C700090494863012240218E48FFF797FA01229C
:105C800040218C48FFF7D6FA8948406B40F0080065
:105C900087494863012208218548FFF787FA0122D6
:105CA00008218348FFF7C6FA8148406B40F0100096
:105CB0007F494863012210217D48FFF777FA0122CE
:105CC00010217B48FFF7B6FA7948406B40F020007E
:105CD00077494863012220217548FFF767FA0122BE
:105CE00020217348FFF7A6FA7148406B40F040004E
:105CF0006F494863012240216D48FFF757FA01229E
:105D000040216B48FFF796FA6948406B40F08000ED
:105D100067494863012280216548FFF747FA01225D
:105D200080216348FFF786FA6148406B40F4807039
:105D30005F494863012289155D48FFF737FA012260
:105D400011025B48FFF776FA5948406B40F4007047
:105D500057494863012249155548FFF727FA0122A0
:105D600051025348FFF766FA5148406B40F4806097
:105D70004F494863012209154D48FFF717FA0122E0
:105D800091024B48FFF756FA4948406B40F0070034
:105D900047494863012207214548FFF707FA0222D5
:105DA00007214348FFF746FA4248406B40F0100095
:105DB00040494863002210213E48FFF7F7F90122CD
:105DC00010213C48FFF736FA3A48406B40F020007B
:105DD00038494863002220213648FFF7E7F90122BD
:105DE00020213448FFF726FA3348406B40F010007A
:105DF00031494863002210212F48FFF7D7F90122CB
:105E000010212D48FFF716FA40212A48FFF7C8F95C
:105E100010212748FFF7BEF920212548FFF7BAF9DE
:105E200040212348FFF7B6F980212148FFF7B2F956
:105E30004FF480711E48FFF7ADF94FF400711C4814
:105E4000FFF7A8F94FF480611948FFF7A3F9012083
:105E50001A49087000F0C0FB01F06CFD01F042FD32
:105E600001F088FA01F05CFA01F098FD01F0B0FC55
:105E700001F06EFCFDF749FAFDF7A4F9FDF766F9AC
:105E8000FDF7B4F901F016FD01F0E2FCFDF7B8F9F9
:105E90000B480078032805DA00F0F2FA0848401CA5
:105EA00001F0B8FAFAF79AFE002010BD0020024077
:105EB0000050024000400240007002408C00002070
:105EC000140B002010B500BF76208149C86000BFC8
:105ED00080480078002809DD08217F48FFF760F935
:105EE0007C480078401E7B49087003E008217A480E
:105EF000FFF750F979480078401C7849087001F0A4
:105F00007FF900F071FDFDF70FFA01F06FFBFDF76F
:105F100005FE7348007A04280CD1FDF75FF90320D1
:105F20006F4908721320FBF7E1FD00F085FC0020AB
:105F30006C4908806A48007A052812D168480078C0
:105F400003280EDAFDF7E1F9002067490870674879
:105F5000007818B101206249087202E0022060490D
:105F600008725F48007A032812D15D48807A78B9B8
:105F7000FDF73CF96B205E4981F89E003520FBF768
:105F8000B5FD03205849087005205549087205E001
:105F900053480078032801D100F05AF95548008889
:105FA000401C5449088054480088401C52490880CD
:105FB00052480088401C5149088051480088401CC4
:105FC0004F4908804F480088401C4E49088045488A
:105FD0000088401C434908804B480078401C4A49CF
:105FE00008700846007800F0010020B940214748B9
:105FF000FFF7D0F803E040214448FFF7D1F84148CB
:106000000088032802DD00203E4908803448007AD9
:10601000022803D13E490120FDF788F93048007A73
:10602000032803D13B490220FDF780F92F4800786F
:10603000002803DD2D490320FDF778F92848007872
:10604000032803DA00F024FA334908703248007854
:10605000012813D12248007A02280FD12048807AE3
:1060600001280BD11E480078032807DAFDF751F903
:1060700004201B4908721E20164908702648007823
:10608000012812D11648007A03280ED1144800784E
:1060900003280ADAFDF7AAF80520114908721E2024
:1060A0000C4908700320104908700D48C07A50B997
:1060B0000B48807A012806D11E200649087001206D
:1060C0000749C87203E00648807A0549C87210BDC6
:1060D000003001405000002000500240000000202D
:1060E000140B00203C0000203E0000209C000020FB
:1060F000240C00202C00002034000020320000205E
:10610000300000202E00002045000020004002400A
:10611000AB0000209D0000204F0000202DE9F0473B
:10612000002006E02D49095C494401F0FF09411CAB
:10613000C8B21628F6DB89F0FF09284800785528F0
:106140004AD126484178807801EB00212348C07865
:1061500001EB004445F2F500B4FBF0F02049488221
:106160001E480179407901EB00211C48807901EB40
:1061700000444FF4BD60B4FBF0F0194908821748A1
:10618000817AC07A01EB00211448007B01EB0044C6
:10619000B4F57F0F03D900201149C88205E04FF400
:1061A000F570B4FBF0F00E49C8820C48417B807B4F
:1061B00001EB00210948C07B01EB00442046FAF7BF
:1061C00057FB07464FF03332064BFAF7DFFA054626
:1061D000FAF75BFB02498861BDE8F087A003002065
:1061E000140B0020333303400EB5002016490880FD
:1061F00000BF00BF00BF1548C06F00F004000028BA
:10620000F9D000BF1148406900F040000028F9D0E3
:1062100000BF58208DF80000AA208DF80100002151
:1062200008460EE01DF8001000BF00BF074AD26FFD
:1062300002F00202002AF9D0044A116000BF411C9A
:1062400008460228EEDB0EBD06000020005000408C
:1062500010B57B480088002819DD7A48008803289B
:1062600003D079480088032811D175480088012897
:1062700002D15120FBF73AFC71480088401C70495C
:10628000088008460088AF2801DD012008806F489B
:1062900000881E2802DD00206C4908806C480088B8
:1062A00009281EDD00206A4908806A480078042811
:1062B00013D10320FBF71AFC67480078401C66499D
:1062C00008700846007805280BDD00206149087039
:1062D000624908706049087003E080216048FEF759
:1062E00059FF604800880E2810DD00205D490880B5
:1062F0006420FCF76BFA57480078042806D15A4806
:10630000007A032802D11320FBF7F0FB57480088DE
:10631000B0F5967F0FDD00205449088000F08CFA1C
:106320004C480078042806D14F48007A022802D150
:106330001320FBF7DBFB4748007880B94C48007816
:1063400010B90120FBF7D2FB49480078401C4849AE
:10635000087008460078052801DD002008703D48D7
:106360000078012802D10520FBF7C0FB39480078EE
:10637000022802D10920FBF7B9FB3E48007800282B
:1063800034DD3C480078401E3A4908700120364907
:1063900081F8440037480078022804D13B20FBF7FD
:1063A000A5FBFCF7B2FF33480078012846D13248FC
:1063B0000078002803DD01202B49087202E002204A
:1063C0002949087223480078042807D100F0C6F84C
:1063D00000F032FA0020244981F844001320FBF732
:1063E00085FB4FF491702149088027E01E48007A10
:1063F000012803D01C48007A022805D11A48007AE7
:106400001949497A88420BD11B4800781B49097801
:10641000884205D11448C07A1349897A884205D048
:106420006420FCF7D3F91320FBF760FB0E48007AD9
:106430000D494872104800781049087010BD0000DE
:106440003A00002086000020880000203400002050
:1064500030000020460000204900002048000020B5
:106460000050024032000020140B00203C000020AD
:10647000470000203E0000209C0000209B000020E0
:1064800010B500F0C1FEFAF7E8FDFAF739FC10BDCF
:10649000F8B50025002669465220FAF7A6FD60B13E
:1064A00069465220FAF7A1FD18B10020264908706C
:1064B00006E001202449087002E00120224908700A
:1064C0002148007800283AD01F484078002834D16D
:1064D0001D4800781C494870081DFAF71EFC1A4830
:1064E000001DFAF76AFE194AA2F10A011648001DBA
:1064F000FBF76EFF144B1B1D144A04216120FAF7B1
:106500007AFC13490420FAF746FDA8B9114912484C
:10651000FCF788F9002409E00D48005D0D49095D8C
:10652000884200D100E003E0601CC4B2102CF3DB11
:1065300000BF102C00D1012500BF2846F8BD002067
:10654000014948702846F9E7AA15002018030020E1
:10655000C6150020B61500202E030020002004E000
:1065600000221B490A54411CC8B21028F8DB002045
:1065700005E0002216490E390A54411CC8B207280A
:10658000F7DB002005E000221149C91F0A54411C15
:10659000C8B20728F7DB00200D498E3908804880F3
:1065A00008620863486288638864C863086508668F
:1065B000486588668867C8664863C8644866C8676F
:1065C0000449886102498E3988614860704700003B
:1065D000B20C0020140B002010B5002008E0FF21B1
:1065E0008E4A22F810101346811D23F81100401C1A
:1065F0000628F4DBFCF792F83220894948804C20C9
:1066000008814FF4BE70088042F2D00048814FF4F8
:10661000E160C88040F6C41088803220814948700B
:106620000121804881700621C17029210171522108
:106630004171362181711421C1710220794908729A
:106640000870562081F82A003421764880F82B10F3
:106650002E2180F82C10312180F82D102E2180F869
:106660002E10352180F82F10302180F830100021B5
:1066700080F83110C8216C4800F004FE6A48008898
:106680004AF2A55188427DD1002007E0664A411CAC
:1066900012F811206349491C0A54401C0728F5DBF5
:1066A0006148007C5F4908705F48C08A5C49488047
:1066B0005D48008B08815C48408B08805A48808B7D
:1066C00048815948C08BC8805748008C88805648FC
:1066D000008D5528D7D1002008E000F11501524A5D
:1066E00012F8112051490A54411CC8B21028F4DB99
:1066F000002009E000F125014B4A12F811204B4916
:106700000E390A54411CC8B20728F3DB002009E007
:1067100000F12C01444A12F811204449C91F0A54BF
:10672000411CC8B20728F3DB3F48D0F866003F4958
:106730008E3908623C48D0F86A0008633A48D0F8BD
:106740006E0088633848D0F8720088643648D0F804
:10675000760008653448D0F87A0008663248D0F8E8
:106760007E0088663048D0F8820088672E48D0F8CE
:10677000860088612C48D0F88A0048602A4890F842
:106780008E0000E048E00873274890F890102748F2
:106790008E384173244890F8921024488E388173C3
:1067A000214890F8941021488E38C1731E4890F803
:1067B00096001E498E3948741B4890F898101B4863
:1067C0008E388174184890F89A1018488E38C17421
:1067D000154890F89C1015488E3801751248D0F86D
:1067E000A200134908631048D0F8A60048620E487A
:1067F000D0F8AA0088610C48D0F8AE00C8608320A9
:106800000A498E3981F89E0003200A490870012048
:1068100006498E3981F89F0010BD000078030020E2
:10682000C40C0020140B0020E8100020B20C002043
:106830005C0B00203E00002010B54AF2A5506549CF
:10684000088065484088C882634800890883624898
:10685000008848836048408988835F48C088C8832F
:106860005D4880880884002006E05C490A5C594B3A
:10687000411C23F81120401C0728F6DB5748401E16
:106880000078544908825548401E007A03287DD17B
:1068900055200885002008E051490A5C00F11501E7
:1068A0004C4B23F81120411CC8B21028F4DB002007
:1068B00009E04B490E390A5C00F12501454B23F8EC
:1068C0001120411CC8B20728F3DB002009E044492D
:1068D000C91F0A5C00F12C013E4B23F81120411C1A
:1068E000C8B20728F3DB3E488E38006A3949C1F840
:1068F00066003B488E38006BC1F86A0038488E3815
:10690000806BC1F86E0036488E38806CC1F872001A
:1069100033488E38006DC1F8760031488E38006EED
:10692000C1F87A002E488E38806EC1F87E002C485F
:106930008E38806FC1F8820029488E388069C1F88E
:10694000860027488E384068C1F88A0024488E386F
:10695000007BA1F88E0022488E38407BA1F8900081
:106960001F488E38807BA1F892001D488E38C07B6E
:10697000A1F894001A488E38407CA1F89600184877
:106980008E38807CA1F89800154800E019E08E3818
:10699000C07CA1F89A0012488E38007DA1F89C00B6
:1069A0001048006BC1F8A2000E48406AC1F8A6006A
:1069B0000C488069C1F8AA000A48C068C1F8AE0056
:1069C00002E0002003490885C821024800F06AFC63
:1069D00010BD0000E8100020C40C0020150B0020A2
:1069E000B20C00205C0B002010B5984800780028FD
:1069F00004DD9748807B401C954988739448807BD0
:106A00000A280BDD002092498873022008720020BA
:106A10008E490870FCF7EAFBFCF777FC8C48008A8B
:106A20008C4908808C4880880988884215DA8B4810
:106A3000008803280BDD00208849088088480088EA
:106A400070B90120864908808049087008E08348B1
:106A50000088401C8149088002E000207F490880AE
:106A60007D48C0887B490988884216DD7D480088BA
:106A700003280CDD00207B4908807B48008810B982
:106A800001207949088008207049087008E075489D
:106A90000088401C7349088002E00020714908808A
:106AA0006D48C08832306B490988884219DA6A48D3
:106AB0008088323867490988884212DD6848008832
:106AC000032803D06848008803280AD100206449BD
:106AD00008806549088061490880624908806349E7
:106AE00008805F480088012810D161480088401C58
:106AF0005F49088008460088022807DD00200880DA
:106B000003205749088001205849088054480088CC
:106B1000032815D101204D4908704D48007A0328FB
:106B20000ED1FCF763FB6F20524981F89E0035209F
:106B3000FAF7DCFF05204649087203204E49087029
:106B400049480088032815D108204049087040486A
:106B5000007A03280ED1FCF749FB6F20454981F8E4
:106B60009E003520FAF7C2FF05203949087203203C
:106B7000414908703C480088012810D13C480088F1
:106B8000401C3B49088008460088022807DD002099
:106B900008800320344908800120344908802C48AB
:106BA000408A2D490988884205DD2948407D401CDE
:106BB0002749487502E00020254948752448407D52
:106BC000022818DD01202249888102201F4908700F
:106BD0001F48007A03280ED1FCF708FB6F202549D7
:106BE00081F89E003520FAF781FF052018490872C8
:106BF0000320214908701648007A03280BD1144855
:106C0000408A15494988884205DA1C480078401CAA
:106C10001A49087002E000201849087017480078E7
:106C2000502811DD02200A490872FCF7DFFA4120E2
:106C3000104981F89E003520FAF758FF05200449D5
:106C4000087203200C49087010BD00009C00002051
:106C5000140B00207E000020C40C002080000020C7
:106C60008600002082000020880000203A000020DA
:106C700084000020240C00203E0000207C00002026
:106C800070B50025FD4EFE4890F8FE0100287DD12C
:106C9000FB48B0F80002002878DDF948D0F80C0273
:106CA0000028F4D1F648B0F80052B0F800220146AE
:106CB0003046F9F747FD0020F149A1F800022946C6
:106CC0003046FCF7F3FA0446FF21ED48F9F753FD8F
:106CD0000020EB49A1F8000204B970BD60793628A4
:106CE0007ED00CDC06281CD004DC022810D004283E
:106CF00077D11AE00A2875D03428F9D11EE0562839
:106D000071D0582870D0E1286FD0E228F0D16BE222
:106D1000607B28B9DB48007810B90120D949087098
:106D200067E20220D749087063E2A07B10B9002017
:106D3000D54908700020D54908705AE2002005E0C6
:106D4000A11D0A5CD2490A54411CC8B21028F7DBC5
:106D500094F82E1094F82F0001EB002194F83000E5
:106D600001EB004194F8310001EB0060C8498E3915
:106D7000C861C848807A012810D1FCF7CAFA0320FC
:106D8000C44908723320FAF7B1FE00E032E2042071
:106D9000C04908721E20C04908700DE03320FAF780
:106DA000A5FE6420FBF712FD4B20B9498E3981F80E
:106DB0009E003B20FAF79AFEB8480078B4498E3915
:106DC00081F88000B54800880112B1488E3880F8FB
:106DD0008110B248C178AE488E3880F8821005E044
:106DE00039E005E267E04AE025E1ECE1AB480179F2
:106DF000A7488E3880F88310A8484179A4488E3877
:106E000080F88410A5488179A1488E3880F88510D3
:106E1000A248C1799E488E3880F886109D48007E31
:106E20009B498E3908739B48008B010A98488E381D
:106E3000417398488069010C95488E388173954854
:106E40008069010E92488E38C17364229449954836
:106E5000F9F778FCCDE102208E490872FCF7C6F9FB
:106E600040208B498E3981F89E003520FAF73EFE8E
:106E700005208849087203208B490870B9E1617BBD
:106E8000A07B01EB002085490880084600884FF46C
:106E90007A7190FBF1F081498870E07BC870207CAA
:106EA0000871607C4871A07C8871E07CC8715520B5
:106EB000FAF71CFE9DE1E17B207C01EB0021607C68
:106EC00001EB0041A07C01EB00600A2190FBF1F096
:106ED00073494860E17C207D01EB0021607D01EB7E
:106EE0000041A07D01EB00600A2190FBF1F06C49AC
:106EF0008860E17D207E01EB0021607E01EB004196
:106F0000A07E01EB00600A2190FBF1F0644908616A
:106F1000E17E207F01EB0021607F01EB0041A07F3B
:106F200001EB00600A2190FBF1F05D494861E17FCF
:106F30002020005D01EB00212120005D01EB0041DC
:106F40002220005D01EB00600A2190FBF1F0544922
:106F5000C8612320015D2420005D01EB0021252074
:106F6000005D01EB004194F8260001EB00600A216E
:106F700090FBF1F04A49086294F8271094F8280031
:106F800001EB002194F8290001EB004194F82A005C
:106F900001EB00600A2190FBF1F04149886294F80E
:106FA0002B1094F82C0001EB002194F82D0001EB3C
:106FB000004194F82E0001EB00600A2190FBF1F0F3
:106FC0003749C8620846806AC96A08443449086378
:106FD0000846C069096A08443149486208460069A0
:106FE000496908442E498861084640688968084410
:106FF0002B49C860002008E000F12A01A21D525C64
:10700000274934310A54411CC8B23028F4DB04202B
:107010001C4908701F4890F84400012802D1032041
:10702000214908702048007810B91320FAF75EFD56
:10703000FFF702FCDDE0E17B207C01EB0021607CBE
:1070400001EB0041A07C01EB00600A2190FBF1F014
:1070500013494860E17C207D01EB0021607D01EB5C
:107060000041A07D01EB00600A2190FBF1F00C498A
:107070008860E17D207E01EB002117E0DE08002022
:10708000AC060020460000204800002049000020F7
:10709000B20C0020140B002050000020D00C002067
:1070A000C00B00205C0B00203E000020607E01EB46
:1070B0000041A07E01EB00600A2190FBF1F04E49F7
:1070C0000861E17E207F01EB0021607F01EB004140
:1070D000A07F01EB00600A2190FBF1F04649486176
:1070E000E17F2020005D01EB00212120005D01EB0C
:1070F00000412220005D01EB00600A2190FBF1F0CD
:107100003D49C8612320015D2420005D01EB002181
:107110002520005D01EB004194F8260001EB0060A2
:107120000A2190FBF1F03449086294F8271094F892
:10713000280001EB002194F8290001EB004194F8AC
:107140002A0001EB00600A2190FBF1F02A498862D5
:1071500094F82B1094F82C0001EB002194F82D00EA
:1071600001EB004194F82E0001EB00600A2190FB36
:10717000F1F02149C8620846806AC96A08441E497C
:1071800008630846C069096A08441B494862084602
:107190000069496908441849886108464068896857
:1071A00008441549C860002008E000F12A01A21D2A
:1071B000525C114934310A54411CC8B23028F4DB06
:1071C000FFF73AFB15E0002005E0A11D0A5C0B4922
:1071D0000A54411CC8B20728F7DB607B0749491EE7
:1071E0000870FFF729FB04E0E320FAF77FFC00E0DA
:1071F00000BF00BF00BF70E5C00B0020150B0020D2
:1072000010B5FFF73DFD10BD10B5012211461B481A
:10721000FDF7CCFF012202211848FDF7C7FF01222C
:1072200004211648FDF7C2FF002208211348FDF78C
:10723000BDFF1348406B40F40040114948630122F0
:10724000D1030F48FDF7B2FF022201210B48FDF7E1
:10725000F1FF022211460948FDF7ECFF022204214A
:107260000648FDF7E7FF022208210448FDF7E2FF88
:10727000022291030248FDF7DDFF10BD002002400D
:107280000040024030B504460D46034802782946C6
:107290002046FBF709FF30BD1000002010B500F0BC
:1072A00001F910BD2DE9F04104460D4600260027E6
:1072B0001448027829462046FBF7CAFE0646012EEE
:1072C0001CD110480078052802DD00200D49087007
:1072D0000C480178F0310C48FDF784F80A48FDF7B6
:1072E00061F90848027829462046FBF7FFFE054869
:1072F000027829462046FBF7ABFE07463846BDE834
:10730000F0810000100000200010034010B54FF481
:1073100004710248F9F72FFA10BD0000AC060020F6
:1073200010B5FFF7F3FF10480021016041600181B3
:107330000E480160017101200C490871087000209D
:1073400048700B48FEF744FC2C200749C8800320F6
:107350004870002088700870C87008710120087299
:107360000348FEF705FB10BDBC0800200B00002001
:10737000003000401CB503208DF8000005208DF87A
:10738000010000208DF8020001208DF803006846FE
:10739000F9F778FC0020019001A90248FEF7E4FB10
:1073A0001CBD00000030004000BFC26F02F00202AE
:1073B000002AFAD00160704710B51248B0F80202F6
:1073C00040B90020104948701048FEF701FC002029
:1073D0000F4908700B48B0F80202002810DD094878
:1073E000B0F80202401E074AFF32115C0748FFF75F
:1073F000DBFF0448B0F80202401E0249A1F8020275
:1074000010BD0000AC0600200B0000200030004042
:107410008A000020034902680A6082888A80827993
:107420008A7170472E030020014631B14FF40040AD
:107430000204054B9A6300BF05E04FF40040024A86
:10744000906300BF00BF7047004002401FB500209E
:1074500000900190029003908DF80B0003208DF8AE
:1074600000000948019000208DF809008DF80A00FD
:1074700001208DF8080000208DF80C0069460348B3
:10748000FCF74EFF1FBD0000A0D9EA040010034026
:1074900008B50020009069460148FCF7E5FF08BDEB
:1074A000001003407047704700BF00BFEFF310812A
:1074B00009B9012100E00021084600B172B609496E
:1074C000094A916500BF094949686FF30B01074AF2
:1074D00051600749044A51650021916500B162B6C7
:1074E00000BF7047E487AC3F0060024000400240AC
:1074F00053A3570010B5FFF7CBFFFFF7A7FF00BF5F
:1075000000BFEFF3108008B9012000E0002004461E
:1075100004B172B60B480C49886500BF00200A49C7
:10752000C861FF2008620120FBF766F91F200649A9
:10753000C8614FF0FF3008620020886504B162B670
:1075400000BF10BDE487AC3F0060024000BFEFF316
:107550001081C8B272B60549096809B904490870B2
:1075600002490968491C014A116070476403002000
:10757000680300200748006858B106480068401EAC
:10758000044908600846006818B90348007800B943
:1075900062B67047640300206803002008B5FFF757
:1075A000A9FF00210D48FCF745FD00208DF80000E3
:1075B0008DF801008DF802006846FCF769FCFFF7C2
:1075C00073FFFFF76BFE4FF4C07205490548F9F7EA
:1075D000B9F804480449086008BD0000A0D9EA04CD
:1075E000000000080060001008ED00E055498978AF
:1075F000491C544A9170114689783C290EDB0021C0
:1076000091701146C978491CD1704F49097A0329F4
:1076100004D14E490988491C4C4A11804949C9780E
:107620003C2906DB0021474AD17011460979491CE3
:10763000117144490979182906DB0021414A117169
:1076400011464979491C51713E498979012917D060
:107650003C498979032913D03A49897905290FD002
:107660003849897907290BD036498979082907D003
:10767000344989790A2903D0324989790C290BD1F7
:10768000304949791F2907DD00212E4A51711146E1
:107690008979491C917170472A49897904290BD04D
:1076A00028498979062907D026498979092903D0EB
:1076B000244989790A290BD1224949791E2907DDF4
:1076C0000021204A517111468979491C9171E2E7E4
:1076D0001C49C97901F5FA60C21700EB9272921049
:1076E000A0EB82022AB9642290FBF2F302FB1302A0
:1076F00032B14FF4C87290FBF2F302FB13027AB975
:10770000104A9279022A0BD10E4949791D2917DDB9
:1077100000210C4A517111468979491C9171BAE7CF
:10772000084949791C290BDD06498979022907D1C5
:107730000021044A517111468979491C9171AAE7C7
:1077400000BFA8E7D00C0020140B0020240C002060
:1077500010B50D48002101604160816002200A4996
:107760000872042048720020887145F29100088058
:107770000020488045F290008880022088720348EB
:10778000FDF7D0FD10BD0000D208002010500140D0
:1077900010B50D48002101604160816002200A4956
:1077A0000872042048720020887145F29100088018
:1077B0000020488042F648008880022088720348F2
:1077C000FDF7B0FD10BD0000D208002010500140B0
:1077D00008B50020009069460148FDF709FE08BD84
:1077E0001050014010B50348017A0348FEF722F813
:1077F00010BD0000D20800201050014010B5024812
:10780000FEF768F810BD00001050014070B5044646
:107810000D462A46214602A0F9F7CCF870BD0000BB
:1078200057726F6E6720706172616D6574657273F7
:107830002076616C75653A2066696C652025732039
:107840006F6E206C696E652025640D0A00000000D3
:1078500000B585B000200290039004900090019044
:1078600001208DF804008DF800008DF801006946B4
:107870000F48FEF7ADF940F21920ADF80E000320D5
:107880008DF8090000208DF80A008DF808008DF8A9
:107890000B008DF80C0001208DF8100002A904489F
:1078A000FEF766F80420FAF773FF05B000BD00008C
:1078B000005000401CB505208DF8000000208DF818
:1078C00001008DF8020001208DF803006846F9F7E9
:1078D000D9F90020019001A90148FEF745F91CBD26
:1078E0000050004008B511480021016041608160EE
:1078F0000020009001208DF8000000208DF801008C
:1079000069460B48FDF782FF0120084908720420F0
:1079100048720520887140F2095008800020488094
:10792000888088720248FDF7FDFC08BDC60800206B
:10793000005001401CB516208DF8000004208DF881
:10794000010000208DF8020001208DF80300684638
:10795000F9F798F90020019001A90248FDF748FDC8
:107960001CBD0000005001400B4890F8FE0188B19A
:107970000948D0F80C0238B10748D0F80C02401E74
:107980000549C1F80C0205E00020034981F8FE0119
:10799000C1F80C0270470000AC06002010B5034887
:1079A000017A0348FDF746FF10BD0000C60800201D
:1079B0000050014000000000000000000000000036
:1079C000000000003FF380E1207B9FF83FF380E15F
:1079D000207B9FF830103F70F27710183790439E4D
:1079E000100C13D83790439E100C13D837921B0EEF
:1079F000220C13D837905FE83C4493D8301040FEF7
:107A0000D3C49018301040FED3C490183FF25B6985
:107A10002DB49FF8000043900DCF800000004390EC
:107A20000DCF800006F27F91FFB861183E6E237F74
:107A3000CDB4F1D83E6E237FCDB4F1D8071DC7F782
:107A4000F38010D837821F913004E22038F27FEEA5
:107A5000E278911838F27FEEE27891183E0204182D
:107A60002C7370F8001207F9CC788C38001207F9E3
:107A7000CC788C380EEE7C8EE23F733809F2277694
:107A8000C27B9C2009F22776C27B9C203161BF0E0D
:107A9000CFBCFC3830901FF1018462F809EE077FFB
:107AA000DFFF8C1809EE077FDFFF8C1800FC1861E0
:107AB0001D8792183701E3EED24C7FF83701E3EED1
:107AC000D24C7FF80F7018882C3B01F839003C76B7
:107AD0003E7CEE2038F3C3701E3F70F838F3C3705D
:107AE0001E3F70F8398243702FB09C0007119F8EA3
:107AF000FE0C12D807119F8EFE0C12D80183C016FF
:107B0000E3CCEE003F7DA4FE0E4BF1203F7DA4FEB2
:107B10000E4BF12000E05CFFC24F10F836F2031666
:107B2000D384EC38090E631811CB1C00090E6318BE
:107B300011CB1C0030F3A7FF1C03FE0000025CFE0B
:107B4000E033823800025CFEE03382383FF027E603
:107B5000003B93F83013B8963FB082183013B896B4
:107B60003FB0821837920706CC40FF183791A00922
:107B7000F383630037924719027B8ED837924719F7
:107B8000027B8ED830119B062D88ED203FF07F7749
:107B9000D1C89FF83FF07F77D1C89FF80000000060
:107BA00000000000000000000000000000000000D5
:107BB00000000000000000000000000000000000C5
:107BC000000000000000000FF00000000000003F77
:107BD000FC0000000000007FFE000000000000FF2D
:107BE000FF000000000001FFFF800000000003FF15
:107BF000FF800000000003FE7FC00000000007F8C7
:107C00001FE00000000007F00FE0000000000FE0A0
:107C10000FF0000000000FE007F0000000001FC0A0
:107C200003F8000000001FC003F8000000003F80C0
:107C300001FC000000007F8001FC000000007F00CC
:107C400000FE00000000FF0000FF00000000FE0733
:107C5000E07F00000001FC0FF07F80000001FC0FBE
:107C6000F03F80000003F81FF03FC0000003F81F42
:107C7000F81FC0000007F01FF80FE0000007F00F2A
:107C8000F00FE000000FE00FF007F000001FE00F22
:107C9000F007F000001FC007E003F800003FC00736
:107CA000E003FC00003F8007C001FC00007F0003F0
:107CB000C001FE00007F0003C000FE0000FE0001C6
:107CC00080007F0000FE000180007F0001FC0001B9
:107CD00080003F8003FC000000003F8003F80000AC
:107CE00000001FC007F8000000001FE007F00000C0
:107CF00000000FE00FF00003C0000FF00FE00007DE
:107D0000E00007F01FC0000FF00007F81FC0000FD1
:107D1000F00003F83F80000FF00001FC3F80000FEF
:107D2000F00001FC3F000007E00000FC3F00000302
:107D3000C00000FC7F000000000000FC7F0000008D
:107D4000000000FC7F000000000000FC3F0000007D
:107D5000000000FC3F800000000001FC3FC000006C
:107D6000000003FC1FFFFFFFFFFFFFF81FFFFFFFE7
:107D7000FFFFFFF80FFFFFFFFFFFFFF007FFFFFF11
:107D8000FFFFFFE003FFFFFFFFFFFFC001FFFFFF5B
:107D9000FFFFFF80003FFFFFFFFFFC00000000002F
:107DA00000000000000000000000000000000000D3
:107DB0000000000000003FFC5FFA6FF6700E700ECE
:107DC000700E700E700E700E700E700E700E6006DB
:107DD0004002000040026006700E700E700E700EC1
:107DE000700E700E700E700E700E6FF65FFA3FFC24
:107DF0000000000000000020006000E000E000E063
:107E000000E000E000E000E000E000E000600020B2
:107E100000000020006000E000E000E000E000E082
:107E200000E000E000E000E000E000600020000072
:107E30000000000000003FFC1FFA0FF6000E000ECD
:107E4000000E000E000E000E000E000E000E0006CA
:107E50001FFA3FFC5FF86000700070007000700057
:107E6000700070007000700070006FF85FFC3FFEE3
:107E70000000000000003FFC1FFA0FF6000E000E8D
:107E8000000E000E000E000E000E000E000E00068A
:107E90001FFA3FFC1FFA0006000E000E000E000E37
:107EA000000E000E000E000E000E0FF61FFA3FFC33
:107EB00000000000000040026006700E700E700EA0
:107EC000700E700E700E700E700E700E700E6006DA
:107ED0005FFA3FFC1FFA0006000E000E000E000EB7
:107EE000000E000E000E000E000E000E0006000236
:107EF0000000000000003FFC5FF86FF070007000B1
:107F00007000700070007000700070007000600001
:107F10005FF83FFC1FFA0006000E000E000E000E78
:107F2000000E000E000E000E000E0FF61FFA3FFCB2
:107F30000000000000003FFC5FF86FF07000700070
:107F400070007000700070007000700070006000C1
:107F50005FF83FFC5FFA6006700E700E700E700ED8
:107F6000700E700E700E700E700E6FF65FFA3FFCA2
:107F70000000000000003FFC1FFA0FF6000E000E8C
:107F8000000E000E000E000E000E000E000E000689
:107F90000002000000020006000E000E000E000E9F
:107FA000000E000E000E000E000E00060002000083
:107FB0000000000000003FFC5FFA6FF6700E700ECC
:107FC000700E700E700E700E700E700E700E6006D9
:107FD0005FFA3FFC5FFA6006700E700E700E700E56
:107FE000700E700E700E700E700E6FF65FFA3FFC22
:107FF0000000000000003FFC5FFA6FF6700E700E8C
:10800000700E700E700E700E700E700E700E600698
:108010005FFA3FFC1FFA0006000E000E000E000E75
:10802000000E000E000E000E000E1FF63FFA7FFC41
:108030000000000000000000000000000000000040
:1080400000000000000001C001E001E001E003E0E9
:1080500003F0037007300738073806180E1C0FFCB2
:108060000FFC1FFC1C0E1C0E380E38073807380793
:108070000000000000000000000000000000000000
:1080800007E007E007E007E007E007E00000000086
:1080900000000000000000000000000007E007E012
:1080A00007E007E007E007E0000000000000000034
:1080B000000000000000700E381C1C380E7007E035
:1080C00003C00FF00FF001803FFC3FFC01800180F6
:1080D000018003C00000000000000000000000005C
:1080E00030003000000000000000300030000000D0
:1080F0000000000000BE9812007B9A178098C61BF3
:108100000092FE1E81023B0102576482256B0F27FD
:10811000A6100F3332303130363030323033303019
:10812000312808C1814001C0804104690C2908E957
:1081300018A91C091A30091638093660092E700969
:108140002F6000FF00C0C101C30302C2C60607C7FB
:1081500005C5C404CC0C0DCD0FCFCE0E0ACACB0B77
:10816000C90908C8D81819D91BDBDA1A1EDEDF1FA7
:10817000DD1D1CDC14D4D515D71716D6D21213D397
:1081800011D1D010F03031F133F3F23236F6F73747
:10819000F53534F43CFCFD3DFF3F3EFEFA3A3BFB37
:1081A00039F9F83828E8E929EB2B2AEAEE2E2FEFE7
:1081B0002DEDEC2CE42425E527E7E62622E2E32357
:1081C000E12120E0A06061A163A3A26266A6A76787
:1081D000A56564A46CACAD6DAF6F6EAEAA6A6BABF7
:1081E00069A9A86878B8B979BB7B7ABABE7E7FBF27
:1081F0007DBDBC7CB47475B577B7B67672B2B37317
:10820000B17170B0509091519353529296565797C6
:10821000559594549C5C5D9D5F9F9E5E5A9A9B5BB6
:1082200099595898884849894B8B8A4A4E8E8F4F66
:108230008D4D4C8C448485458747468682424383D6
:108240004181801240283431362E3020323330378D
:108250003538343132332E34203939392E383031F3
:108260003A30303A3031B9FDD1B92120B9FDC1F7EA
:108270002120C2A9B5E72120C7B712D00DBCB1CDCE
:10828000A32120CEB4B2E5C7B93AFF014CF87780FC
:10829000092808FF54414957454910490A4808121E
:1082A0003456789ABCDE1D4F5A4855484149190545
:1082B00012214023241230D24023D60122E0327012
:1082C000FFFFFFFFFFFFFFFFFFFFFFFFFFFFFFFFBE
:1082D000FFFFFFFFFFFFFFFFFFFFFFFFFFFFFFFFAE
:1082E000FFFFFFFFFFFFFFFFFFFFFFFFFFFFFFFF9E
:1082F000FFFFFFFFFFFFFFFFFFFFFFFFFFFFFFFF8E
:020000040801F1
:10EFF000FFFFFFFFFFFFFFFFFFFFFFFF09E6228686
:10F00000FFFFFFFFFFFFFFFFFFFFFFFFFFFFFFFF10
:10F01000FFFFFFFFFFFFFFFFFFFFFFFFFFFFFFFF00
:10F02000FFFFFFFFFFFFFFFFFFFFFFFFFFFFFFFFF0
:10F03000FFFFFFFFFFFFFFFFFFFFFFFFFFFFFFFFE0
:10FF80000250000000000000FFFFFFFFFFFFFFFF27
:10FF9000FFFFFFFFFFFFFFFFFFFFFFFF519B11A3CD
:10FFA0000000000801C0F7FFFFFFFFFF53CA0D2349
:10FFB0000000000801C0F7FFFFFFFFFF53CA0D2339
:10FFC000F8FFFFFFFFFFFFFFFFC2FF7F20FFFFFFE4
:10FFD00013EFFFFF007C00800A1C9871FFFFFFFFFA
:10FFE000FFFFFFFFFFFFFFFFFFFFFFFFFFFFFFFF21
:10FFF000FFFFFFFFFFFFFFFFFFFFFFFFFFFFFFFF11
:00000001FF
