:020000040000FA
:1000000060DBFF1F71030000810300008303000019
:100010008503000087030000890300000000000042
:100020000000000000000000000000008B03000042
:100030008D030000000000008F030000910300000A
:1000400055520000695200007D520000915200009C
:10005000A5520000B9520000CD520000E15200004C
:10006000F5520000095300001D53000031530000F9
:1000700045530000595300006D53000081530000A8
:100080009303000093030000930300009303000018
:100090009303000093030000930300009303000008
:1000A00093030000930300009303000093030000F8
:1000B00093030000930300009303000093030000E8
:1000C00093030000930300009303000093030000D8
:1000D00093030000930300009303000093030000C8
:1000E00093030000930300009303000093030000B8
:1000F00093030000AD04000093030000930300008D
:100100009303000093030000930300009303000097
:100110009303000093030000930300009303000087
:100120009303000093030000930300009303000077
:100130009303000093030000930300009303000067
:100140009303000093030000930300009303000057
:100150009303000093030000930300009303000047
:100160009303000093030000930300009303000037
:100170009303000093030000930300009303000027
:100180009303000093030000930300009303000017
:100190009303000093030000930300009303000007
:1001A00093030000930300009303000093030000F7
:1001B00093030000930300009303000093030000E7
:1001C00093030000930300009303000093030000D7
:1001D00093030000930300009303000093030000C7
:1001E00093030000930300009303000093030000B7
:1001F00093030000930300009303000093030000A7
:100200009303000093030000930300009303000096
:100210009303000093030000930300009303000086
:100220009303000093030000930300009303000076
:100230009303000093030000930300009303000066
:100240009303000093030000930300009303000056
:100250009303000093030000930300009303000046
:100260009303000093030000930300009303000036
:100270009303000093030000930300009303000026
:10028000930300009303000000F002F800F060F810
:100290000AA090E8000C82448344AAF10107DA45E1
:1002A00001D100F055F8AFF2090EBAE80F0013F0D3
:1002B000010F18BFFB1A43F0010318474CCF010090
:1002C0006CCF010010F8013B0A4413F0030408BF8F
:1002D00010F8014B1D1108BF10F8015B641E05D01A
:1002E00010F8016B641E01F8016BF9D1002D15D0D7
:1002F00010F8014B03F00C030C2BA1EB04040ABF14
:1003000010F8013BA4EB8314A4EB032405F10103D3
:1003100014F8016B5B1E01F8016BF9D5914238BFEF
:1003200010F8013BD1D3704700230024002500269C
:10033000103A28BF78C1FBD8520728BF30C148BF48
:100340000B6070471FB506F090FF1FBD10B510BDC4
:1003500000F086F81146FFF7F5FF05F0ABFF00F05F
:1003600030F803B4FFF7F2FF03BC00F037F80000E9
:100370000B484FF4FC7101600A4880470A48004767
:10038000FEE7FEE7FEE7FEE7FEE7FEE7FEE7FEE745
:10039000FEE7FEE705480649064A074B704700009E
:1003A000100805400D5E00008902000060CBFF1FB1
:1003B00060DBFF1F60CFFF1F60CFFF1F70477047DC
:1003C000704710B50446AFF300802046BDE81040EA
:1003D000FFF7C7BF00487047F8CAFF1F0149182040
:1003E000ABBEFEE726000200704710B505F0F4F83A
:1003F00005F05AF8BDE8104004F0CCBFFEE700005D
:10040000BFFFDFFFFFFFFFFFFFFFFFFFFFFFEDFF6E
:10041000FFFFFFFFFFFFFFFFFFFFFFFFFFFFFFFFEC
:10042000FFFFFFFFFFFFFFFFFFFFFFFFFFFFFFFFDC
:10043000FFFFFFFFFFFFFFFFFFFFFFFFFFFFFFFFCC
:10044000FFFFFFFFFFFFFFFFFFFFFFFFFFFFFFFFBC
:10045000FFFFFFFFFFFFFFFFFFFFFFFFFFFFFFFFAC
:100460007546FFF7B7FFAE4605006946534620F0D4
:100470000700854618B020B5FFF78CFFBDE8204087
:100480004FF000064FF000074FF000084FF0000B50
:1004900021F00701AC46ACE8C009ACE8C009ACE803
:1004A000C009ACE8C0098D467047000070B55748D8
:1004B0002DED088B016821F001010160861454487C
:1004C00006805448008854490988554B08445349CC
:1004D00040080880B3F85410B3F85620DFF848C13C
:1004E0001144504A49081180DCF80020A2EB920226
:1004F0001044CCF80000DFF834C1DCF80020A2EB97
:100500009202114482084A48CCF800100280880800
:1005100048490880484800884849098808444849AB
:100520000988484A128811440844850846480580CD
:1005300033F8500F5988084444494008B0F5006F1B
:1005400008808CBFA0F50060C0F50060088000EE58
:10055000105A3F4CB8EE40BA84ED05BA206906F057
:1005600013FE94ED0A0B53EC102B06F025FC41EC26
:10057000190BE06806F008FE94ED088B53EC182B7D
:1005800006F01AFC94ED000AD4ED06BAD4ED010A87
:100590002BEE000A94ED021A41EC1A0B0BEEE00A66
:1005A000D4ED070A00EE810A10EE100A06F0ECFD09
:1005B00053EC1A2B06F02AFB53EC192B06F0FAFC2D
:1005C00041EC100B84ED0C0BC4ED07BA84ED06BAB8
:1005D00084ED0A8B84ED080B06F0C0FB1D490880F2
:1005E0004FF453201C496843000C08801B490868DD
:1005F000A0EB5020284408601949400A088000F008
:100600001FF918480680BDEC088B70BD14440240E9
:10061000083805405C0404405E040440CCC0FF1F61
:1006200000000440CEC0FF1FC4C0FF1FC8C0FF1F92
:1006300026C0FF1F28C0FF1F500804405208044076
:10064000540804405608044024C0FF1F00C1FF1F87
:10065000B0CAFF1FDAC0FF1FD4C0FF1FBCC0FF1FFE
:10066000C0C0FF1F0A3805405F495E48B1F900105D
:1006700090ED020A00EE901AF8EEE00A30EEC01A91
:1006800080ED031AD0ED060AD0ED041AF0EE602AD0
:1006900051EE812AD0ED081A9FED543A544921EECB
:1006A000832AF0EE401A42EE221A42EE000ABEEE13
:1006B000002AC0ED051AC0ED070A20EE810AC0ED40
:1006C000021AC0ED060A81ED000A4A4920EE031A1B
:1006D00091ED000A01EE020A81ED000A9FED461A33
:1006E00046494A4A30EE010A81ED000A80ED080AC7
:1006F000434890ED000A434821EE800A90ED001A2D
:10070000414800EE810A80ED040AD0ED050A20EE92
:10071000801A80ED071AD0ED080AD0ED061A41EED6
:10072000800AC0ED080A71EE200A10EE901AC0EDA2
:10073000090A914208DBDFED360AC0ED090A70EEC6
:10074000C10AC0ED080A0CE010EE901A314A91423D
:1007500007D3DFED310AC0ED090A70EEC10AC0ED22
:10076000080AD0ED090A9FED2D1ADFED2D1A2D4A4A
:1007700030EE811A80ED0C1AD0ED0D0A41EE210AFF
:1007800010EE901AC0ED0D0A9142A4BF9FED261AFB
:1007900070EEC10A07DAF5EEC00AF1EE10FA38BFC2
:1007A000DFED220A01D2C0ED0D0A10EE100A204B37
:1007B000204A2149984211DA10EE100A1F4B984244
:1007C0000CD2B1F9000042F20F739842C3BF01206E
:1007D000108042F21070401C088070470020088092
:1007E000108070470CC1FF1F7EC1FF1FD5E8D537B1
:1007F0006CC1FF1F70C1FF1F63149D4374C1FF1FB5
:1008000008C1FF1F04C1FF1F30C1FF1F9A9971412A
:100810009A9971419A9971C19A9971C1000048429F
:100820000F012839DB0FC940DB0FC9400000000071
:10083000000020416AC1FF1F68C1FF1F000020C1E6
:100840002DE9F04FFB48FD4BDFF8F4C30188FA486F
:10085000FC4F01260088002400F11E050A1A83B00F
:10086000A9420DD990B21C703880F12894BF8CF841
:1008700000408CF8006078283CBFF348067015E013
:1008800001F11E05A8429CBF1C708CF800400DD9D8
:10089000401A80B28CF800403880F12888BF1E7062
:1008A00004D81C7078283CBFE74804703988852933
:1008B00034BFE648E648058845F020050580E64D4A
:1008C0009CF800C0DFF88C932888BCF1000F4FF42F
:1008D000706C04BFDFF88483C8F800C00AD0DFF86A
:1008E0008083D329C8F800C032BF1228DFF86CC358
:1008F000CCF800901B7863B1DFF860C34FF47063ED
:10090000D329CCF8003032BF1228D548C0F8009067
:1009100003E0D3484FF47061016010B200EE100A9A
:10092000D049B8EEC00A0880DFEDCF0ACF4920EEEB
:10093000200ABDEEC00A10EE100A0880FFF794FEF0
:10094000DFF82C8398ED0D0A05F0CCF9DFF824933D
:1009500089ED000A98ED0D0A01F0CEFEC64880ED43
:10096000000AD9ED000AF5EEC00AF1EE10FAD8BF80
:10097000F1EE600AC148C24BC349C0ED000AD8F885
:100980003420C0489A42C14A12787DDD002A14BF43
:1009900090ED001A91ED001A21EE000ABC4880ED9E
:1009A000000ABC49B7F800C0BC4A0868A0EB103088
:1009B00060440860B849C0F30F3008801168A1EBAB
:1009C00011110844B649106000090860B54840F2AA
:1009D00089320CFB00F0010CB3484AF6EC1301809D
:1009E000B248C0885043800900EE100AB04AB8EE01
:1009F000400A106020EE200ABCEEC00A10EE100A79
:100A000082B2AC480280AC4807889F4288BF03800E
:100A1000008802F59673DFEDA91A984298BF00236B
:100A200010D9831A00EE103AB8EEC01A00EE100A80
:100A3000B8EE402A81EE020A20EE210ABCEEC00A7E
:100A400010EE103A9E4F3B60C3EBC30303EB43032E
:100A50001F099C4B1F604AF228039A4228BF0023BB
:100A600011D200EE102AB8EE401A9FED972A81EEBF
:100A7000020AB7EE001A31EE400A20EE210ABCEE5F
:100A8000C00A10EE103A00E00AE0904A1360904A63
:100A90001288C32A18BFC22A0ED0CC2A12D01EE058
:100AA000002A14BF90ED001A91ED001A21EE400AC1
:100AB000774880ED000A74E707EB87031F09834B33
:100AC0001F600CE000EE103A804FB8EE400A9FED38
:100AD000811A20EE010ABDEEC00A87ED000A01F579
:100AE0009673984298BFB7EE000A0AD9431A00EEEF
:100AF000103AB8EEC01A00EE101AB8EE402A82EE94
:100B0000010A01EE101A744B7749B8EE412A01EE42
:100B1000100A7248DFF8D891F8EE412A82EE221AC4
:100B200083ED000A80ED001A21EE211A6C48BCEE1C
:100B3000C11A11EE107A07606A48D0F8008001EE01
:100B4000108AB8EE411A20EE011ABCEEC11A11EE5D
:100B5000100A08606549804408F605480B6801EEF4
:100B6000103AB8EE411A20EE010ABCEEC00A10EEAF
:100B7000101A00EE108AC9F800101944B8EE401A95
:100B800001F60541DFF86C8181EE210A01EE101AB1
:100B90005949B8EE412A82EE211A88ED000A81ED0A
:100BA000001A56490988564B1B881944554B490869
:100BB000B1F5006F19808CBFA1F50061C1F500612E
:100BC00089B2504BB842198024BF4F490C701AD2D9
:100BD0004D4B1E704D4B1F8801EE907AF8EE611A56
:100BE00021EE800ABCEEC00A10EE107A00EE101A58
:100BF0001F80444BB8EE400A20EE010ABCEEC00A4A
:100C000010EE101A19802F88142F07D23F490B8835
:100C100023330B803B490B8823330B803C490B88E3
:100C20003C49098801F27B1843457AD93A490E704C
:100C30003A497DE026C0FF1F28C0FF1F2AC0FF1FC2
:100C40002BC0FF1F20C0FF1FD2C0FF1F0838054068
:100C50000A380540E20E070098C0FF1FE0C0FF1FE2
:100C6000E4C0FF1F7CC1FF1FF0A32A3E7EC1FF1F0F
:100C700030C1FF1F04C1FF1F08C1FF1F78C1FF1F44
:100C8000DB0F494030C2FF1F34C2FF1F4CC0FF1FA3
:100C9000ACC1FF1F54C0FF1F58C0FF1F78C0FF1F0B
:100CA00074C0FF1F00AA1000D6C0FF1F90CAFF1F0C
:100CB00000C2FF1F04C2FF1FD4C0FF1F00CDBB47EF
:100CC0007CC0FF1F84C0FF1F00102447ECC0FF1F23
:100CD0002EC0FF1FA470013FC8C1FF1FCCC1FF1F62
:100CE000DCC1FF1FE4C1FF1FE0C1FF1FECC1FF1FFC
:100CF000E8C1FF1FD0C1FF1FD4C1FF1F580404402B
:100D00005A04044002C1FF1FD8C1FF1F00C1FF1FCA
:100D100024C0FF1F42C0FF1F17C0FF1F16C0FF1FC8
:100D2000FFE701F20918434504D9FD490E70FD495A
:100D30000E7006E098318B4203D2F9490C70FA49E3
:100D40000C70DFF8E883FA4DDFF8E8B3D8F800104C
:100D500001EB0C03791C89B2C8F80030298040F2FD
:100D6000BC45F54FA94206D1DFF8D09389F8004081
:100D70008BF8004002E0BCF1970F29D2DFF8B0A356
:100D8000502932D9DFF8B49399F800E0BEF1000F92
:100D90002BD1A94238BF8BF80060B3FBF1F3E84DCB
:100DA000DFF8A0B39BB22B80DBF80050A5EBD50594
:100DB0002B44E54DCBF80030DB082B80E34B3C8027
:100DC0001980C8F80040AAF8004089F800600CE0DB
:100DD000BCF1D30F09D9D9490C703988491C89B2A3
:100DE0003980BE2984BFBE213980D94B1988B1F51D
:100DF000BE6F3CBF4FF4BE61198004D340F672450C
:100E00008D4238BF1D80D349DFF84C83D34F09781A
:100E1000D34DD44B002900F08284D349DFF850A38E
:100E2000B1F80090D149A9EB0C0CBCF1000F098876
:100E3000A9EB0101CAF80010D8BF4FF0000CDFF891
:100E400034930029A9F800C0B4BFC1F1000C8C464E
:100E50001FFA8CFCDFF82093BCF5987FA9F800C03E
:100E600084BF4FF4987CA9F800C01FFA8CFC0CFBDF
:100E700001FC4FEAEC1901EBC101DFF800A309EB1B
:100E8000E109CE46CAF80090DFF8F492D9F800A044
:100E90000AEBEC1C0CEBE101DFF8E8A2C9F800104A
:100EA0005145C8BFC9F800A003DC0029B8BFC9F884
:100EB0000040B549DFF8D4B240F2363C096801FB86
:100EC0000CFCCBF800C04FEA811BC908C1EB4111F3
:100ED00001EB81010BEB4101DFF8B4B2D445CBF853
:100EE000001084BFDFF8A4C2CCF800A0DFF8A4C2D1
:100EF000614588BFCBF800C08949DFF89CA209781A
:100F0000C9B1DFF888C2D9F80010DCF800C061452B
:100F100094BF4FF4C051A1EB0C01C9F80010DAF8EE
:100F20000010DBF800C061458CBFA1EB0C014FF451
:100F30004071CAF800107C490978009151B1974975
:100F4000C9F8001042F21661CAF8001094490C600A
:100F500094490C60D9F80010DFF84CC28912CCF823
:100F60000010DFF848C27144CCF80010DAF800C075
:100F7000ACEBEC1C1CEB0101CAF8001044BFCAF832
:100F80000040DAF80010C911DFF824A2DFF824C20B
:100F9000CAF800109CF800C001FB0CF9DFF818C279
:100FA0004FEAA911CCF80010DFF810C29CF800C07D
:100FB000BCF1000F14BF4FEA69198946CAF80090C6
:100FC000B9F5787FC8BF4FF4787905DCB9F1060F21
:100FD000B8BF4FF0060901DACAF8009000EE109A87
:100FE000DFF8DC91B8EEC01A61EE201A99ED001A14
:100FF000B4EEE11AF1EE10FA28BF4FF0000A09D260
:10100000F8EEC01A11EEA01AFCEEC10A10EE909A8A
:101010001FFA89FADFF8AC91B8EEC02AA9F800A04F
:101020009FED691ADFED690ADFF8A4B1F0EE601AEE
:1010300042EE411A11EE909AD945C3BFF8EEC01A9C
:10104000B0EE600A01EEC10A9FED620ADFF88891F6
:10105000DFF888B189ED000A10EE109AD945C4BFB7
:10106000DFF87491C9ED000ADFF87491DFF874B10C
:10107000B9F80090BAEB0909CBF800904CBFC9F160
:10108000000BCB461FFA8BFBDFF85CE1B9F1BA0F1E
:10109000AEF800B0DFF84CE1C8BF4FF0BA0905DC8C
:1010A00019F1BA0FB8BF6FF0B90901DACEF80090A4
:1010B000DEF80090BCF1000F0BFB09FB00EE10BA4C
:1010C000CDF804B0DFF824B1B8EEC00A27D0DBEDCC
:1010D000000ADFF804B1DFF814E160EE200A9BEDAE
:1010E000000A9EED011A60EE800AFDEEE00A10EEA5
:1010F00090BA00EE909AF8EEE00A61EE200A60EEF7
:10110000800AFDEEE00A10EE90EADE44DFF8E0B07F
:10111000CBF800E0DDF804B000EE90BA6AE092E0AF
:1011200016C0FF1F41C2FF1F17C0FF1F94C0FF1F43
:1011300098C0FF1F9AC0FF1FA4C0FF1F9BC0FF1FC6
:1011400022C0FF1F9CC0FF1FA0C0FF1FA2C0FF1F27
:1011500050C0FF1F34C0FF1FDCC0FF1FE8C0FF1FCF
:1011600088C0FF1F8CC0FF1F38C0FF1FDAC0FF1FE1
:101170005CC0FF1F6EC0FF1F6CC0FF1F64C0FF1F5D
:1011800004C0FF1F00041F00FCC0FF1F18C0FF1F8A
:101190001CC0FF1F80E0030048C0FF1F962C010009
:1011A00094C1FF1FA8C1FF1F60C0FF1F68C0FF1FC1
:1011B00070C0FF1F40C2FF1FFCC1FF1F4CC0FF1FBC
:1011C000ACC1FF1F80C1FF1F0D68D33ACDCC8C3F4F
:1011D000CDCC4C3ECDCC4C3E2CC2FF1FCDCC8C3F59
:1011E00000C1FF1F84C1FF1F82C1FF1F0CC2FF1F70
:1011F00090C1FF1FDFF850B8F8EEE00ADFF84CE8C6
:101200009BED021ADEF800E060EE810A60EE800AD3
:10121000FDEEE00A10EE90BA00EE909AF344DFF88B
:1012200028E8F8EEE00A9EED031A61EE200A20EEAF
:10123000800ABDEEC00A10EE109ACB44DFF80C987D
:10124000C9F800B053E0DBED040ADFF804B860EE43
:10125000200A9BED000ADFF8FCB720EE801ADBEDD8
:10126000000ADFF8E4B721EE201A9BED052ADFF82B
:10127000E8B7BDEEC11AF8EEC11A01EE109AB8EE49
:10128000C11A22EE011A41EE001ABDEEE11A8BEDF1
:10129000001ADDF804B001EE10BADFF8ACB7B8EE12
:1012A000C11ADBED061ADFF8A4B721EE211ADBF82C
:1012B00000B021EE001A61EE200AFDEEE00A10EE09
:1012C00090EA00EE909AF344DFF87CE7F8EEE00A4B
:1012D0009EED071A61EE200A20EE800ABDEEC00ADC
:1012E00010EE109ACB44DFF86497C9F800B0DFF82D
:1012F0005CB74AF6C87EDBF80090F145C4BF4AF6F9
:10130000C879CBF8009004DCB9F1000FB8BFCBF876
:101310000040DFF83897DFF844B7D9F800904FEA7B
:101320006909CBF80090DFF830B7DBF800B01BEBB1
:101330000909DFF82CB7CBF8009044BFDFF82097FD
:10134000C9F8004007D4DFF818E745F2E47BD94537
:10135000C8BFCEF800B0DFF80C97DFF80CB7B9F8CB
:101360000090BAEB0909CBF800904CBFC9F1000A14
:10137000CA461FFA8AFADFF8F4E6B9F1BA0FAEF8F6
:1013800000A0C8BF4FF0BA0905DC19F1BA0FB8BF09
:101390006FF0B90901DACBF800900AFB09FB00EE07
:1013A00010BADFF8A4A6CDF808B0B8EEC00ADAED9E
:1013B000040ADFF89CB6DAED051A60EE200A9BED10
:1013C000000ADFF890B620EE801ADBED000A21EE6D
:1013D000201ABDEEC11A11EE10BA01EE109AB8EE45
:1013E000C11A21EE811A21EE001ABDEEC11A11EECA
:1013F00010EAF344DFF878E6CEF800B0CDF804B098
:10140000DDF808B0DAED061A01EE10BADFF864E68E
:10141000B8EEC11ADEF800E021EE211A21EE001A22
:1014200061EE200A9AED071ADFF848A6FDEEE00A01
:1014300010EE90BA00EE909AF344F8EEE00A61EEF6
:10144000200A20EE800ABDEEC00A10EE109AD944A0
:10145000CAF800904AF6C87ACA45BCBFDFF81496AD
:10146000C9F800A006DBDFF80CA6B9F1000FB8BF81
:10147000CAF80040DFF8FC95DFF8FCA5DFF8FCE5D2
:10148000D9F800904FEA6909CAF80090DDF804A085
:101490001AEB0909F246CEF8009048BFCEF800409A
:1014A00006D4D34645F2E47AD145C8BFCBF800A0B4
:1014B000DFF8AC95DFF8C8B5DFF8C8A5B9F800903B
:1014C00006291FFA89F95BF82990CAF80090BEF83E
:1014D00000A0DFF8B4E51FFA8AFAAEF800A05BF8C6
:1014E0002AA0DFF8A8B5CBF800A0CDF804A0DFF85B
:1014F000A0A50CD2DFF89CB59BF800B0BBF1000FA3
:1015000005D0DFF894B58AF800608BF800400F2909
:1015100008D9DFF880B59BF800B0BBF1000F18BF09
:101520008AF800409AF800B0DDF800A04BEA0A0EF5
:10153000DFF868A59AF800A0CDF808A05EEA0A0ACC
:101540000ED1DFF85CA59AF800A00AF0010BDFF8D5
:1015500054A5CDF800B09AF800A05BEA0A0B43D07E
:10156000DFF844A5AAF80040DFF840A5DAF800B09B
:101570004BF0010BCAF800B0DFF834A5DAF800B080
:101580004BF0010BCAF800B0DFF828A5DAF800B07C
:101590004BF0010BCAF800B0DFF8B0A4CAF8004065
:1015A000DFF8D0A4CAF80040DFF8F4A49AF800A04D
:1015B0001AF0010F5DD0DFF800A58AF80040DFF8CF
:1015C000FCA48AF80040DFF8F8A48AF80040DFF8AD
:1015D000F4A4CAF80040DFF8F0A48AF80040DFF86D
:1015E000ECA48AF8004044E0DDF800B04EEA0B0EAF
:1015F000DDF808B04EEA0B0B5BEA0A0A39D1DFF8D6
:10160000B4A4DAF800B02BF0010BCAF800B0BCF1BA
:10161000000F0ED0DFF898A4DAF800B02BF0010B21
:10162000CAF800B0DFF884A4DAF800B04BF0010B80
:101630000DE0DFF878A4DAF800B02BF0010BCAF85F
:1016400000B0DFF86CA4DAF800B02BF0010BCAF898
:1016500000B0DFF854E440F6A17BBEF800A00AF128
:10166000010A1FFA8AFAAEF800A0DA4588BFAEF880
:1016700000B0DFF85CB4BCF1000F0FD0DFF8F4A3CA
:1016800040F6054CC5F800C0CAF800C0DFF844C4F5
:10169000DCF800C0CC44C3F800C00BE0DFF834C471
:1016A000DCF800C0E144C3F80090DDF80490CC44BD
:1016B000C5F800C0DFF804C49CF800C0BCF1000FFE
:1016C00010D0DFF814C4DCF800C0614538BF8BF8D7
:1016D000006007D3DFF804C4DCF800C08C4538BFD5
:1016E0008BF80040FE49D3F800C08C4588BF1960D4
:1016F000D5F800C08C4588BF296040F61C41D3F85E
:1017000000C08C453CBF40F6054CC3F800C0D5F87E
:1017100000C08C453CBF40F60541296007E040F61B
:101720000541196029604900C8F800103960DFF8E8
:10173000B893EC494BF6CD3CC9F80010EB49C1F821
:1017400000C0EB490988192907D2EA4E4FF4706CA2
:10175000C6F800C0E84EC6F800C0132922D21E68A1
:1017600043F6184CB44538BFC3F800C02E68664530
:1017700088BFC5F800C0D3F800C04FF448560CF637
:10178000054CC8F800C0D5F800C00CF6054CC7F8E9
:1017900000C04FF4C84CC9F800C0DFF850C3CCF803
:1017A000006034E0192902D3B1F5BE7F0CD9D3F81B
:1017B00000C00CF6054CC8F800C0D5F800C00CF607
:1017C000054CC7F800C022E0DFF830C39CF800C029
:1017D000BCF1000F04BFDFF828C3C8F800C014D064
:1017E000D3F800C0CCF5CD7606F5BB36361AA6F593
:1017F000C0560CF6054A0A3E564598BF5646C8F8EC
:101800000060D5F800C00CF6054CC7F800C0C32A2C
:1018100018BFC22A04D0A44A1288B2F57A6F08D23F
:101820001A6802F60542C8F800202A6802F6054246
:101830003A60A74A12781AB12A6802F605423A605D
:10184000AE4AB04EDFF8C0A212784BF2494CDAB380
:101850001A6862459ABF02EB500202F6054252082E
:1018600032602A6862458EBF500802EB500000F6D5
:101870000540CAF800000E2904D241F60900306084
:10188000CAF80000A1481023DFF894E20168A048DC
:10189000DFF890C2DFF890B201609E4829680160CD
:1018A0009D489E4900780A1DF8B18EF800409CF8CA
:1018B0000000401CC0B28CF8000010288CBF8CF8CF
:1018C0000030012863D0A9E0FFE718684CF25132DC
:1018D00060458CBF400802EB5000306028686045CE
:1018E0008CBF400802EB5000C3E78CF800409EF824
:1018F0000000401CC0B28EF8000010288CBF8EF88B
:10190000003001287ED18948CBF84402884B18600A
:10191000DBF8040220F44070CBF80402DBF8040288
:1019200040F40070CBF80402DBF8080220F44070A9
:10193000CBF80802DBF8080240F40070CBF808028C
:10194000DBF8040220F44020CBF80402DBF80802A4
:1019500020F44020CBF80802086820F440300860EA
:10196000086840F400300860106820F440301060CF
:10197000106840F400301060086820F440400860AF
:10198000106820F44040106040F2F11044E06948D3
:10199000CBF84402664B1860DBF8040220F4002008
:1019A000CBF80402DBF8040240F40020CBF8040278
:1019B000DBF8080220F40020CBF80802DBF808026C
:1019C00040F40020CBF80802DBF8040220F4407059
:1019D000CBF80402DBF8080220F44070CBF80802D0
:1019E000086820F400400860086840F4004008607F
:1019F000106820F400401060106840F4004010604F
:101A0000086800E00AE020F440300860106820F424
:101A10004030106040F60F6000F000FEDBF8B803C5
:101A2000032131EA00000DD13C20CBF8B803374840
:101A30000068CBF8880000F60540CBF89C00D8F889
:101A4000000079E0A0E000000CC2FF1F94C1FF1F5E
:101A50002CC2FF1F3CC2FF1F90C1FF1F88C1FF1F88
:101A60008CC1FF1F02C1FF1F98C1FF1F82C1FF1F52
:101A7000A4C1FF1FA8C1FF1F9CC1FF1FA0C1FF1F62
:101A800074720000B8C1FF1F90C0FF1FBCC1FF1FD0
:101A9000F0C0FF1F9BC0FF1F42C2FF1FD0C0FF1F2F
:101AA0002CC0FF1FD1C0FF1FF8C1FF1F4886034095
:101AB000088603406886034035C0FF1F36C0FF1FFD
:101AC00034C0FF1F08C0FF1FB4C0FF1FB5C0FF1FF9
:101AD0004CC0FF1FECC0FF1FF4C0FF1FF8C0FF1F6A
:101AE000956B0100C07B0100F0C1FF1FF4C1FF1F17
:101AF00098C0FF1FE0C0FF1FE4C0FF1FD8C1FF1F39
:101B00009A770100B0C1FF1FB4C1FF1F8CC0FF1F37
:101B1000E4C1FF1FECC1FF1FD2C0FF1F04C603407A
:101B20004CCAFF1F4DCAFF1F00C00340C000150074
:101B300044C60340C4001500CBF898002349286828
:101B40000860234900F605400860091F38680860EE
:101B5000D9F80000CBF8CC001E480068CBF8B802DA
:101B60003068CBF8C8001C49DAF8000008601B4850
:101B7000CBF824021A490860DBF8B40340F00300F4
:101B800040F04040CBF8B403DBF8B80310F0100F7E
:101B900004BF03B0BDE8F08F2F20CBF8B803DBF80B
:101BA000B40320F01000CBF8B4030E4801680E48CF
:101BB00040F8881F0D4909680161DBF8B40340F063
:101BC0001000CBF8B40303B0BDE8F08F88C4034025
:101BD0009CC40340F4C1FF1FC8C40340031240006B
:101BE00024C60340E0C0FF1F00D00340E4C0FF1F35
:101BF00070B504460025A0F18040B0F580201FBFDD
:101C00000A488442A4F18040B0F5812004D04FF40A
:101C10001E7107A0FEF7F2FB207801280EBF6FF0BF
:101C2000050501202070284670BD00000004044016
:101C30002E2E5C647269766572735C686333325F02
:101C40006C6C5F6472697665725C7372635C686306
:101C500033325F6C6C5F6164632E630010B584B0D7
:101C60002649274800F010FA01220321052001F03F
:101C70004BFA684600F068FB00248DF802403020E3
:101C80008DF801008DF8004005208DF803006846AE
:101C900000F0DEFA02A800F0DDF98DF808406FF3DD
:101CA000102404F1405000F56C5020F0706000F1F9
:101CB000407020F4700000F5401020F08000039088
:101CC00002A800F0DDF8022000F08AFE4FF4005078
:101CD00001F066FC052000F0DFF9012000F0B8FDFE
:101CE000002000F0B5FD012000F048FE012000F0CA
:101CF000E1FD012000F010FE04B010BD1011010044
:101D0000777707070000000014489FED130ADFED06
:101D1000140A80ED000A9FED130AC0ED010A80ED60
:101D2000020A9FED110AC0ED030A80ED040A9FED3F
:101D30000F1A9FED0F0B80ED051A80ED061A80ED4E
:101D4000071A80ED0C0B80ED080B80ED0A0B80ED7F
:101D50000F1A80ED101A70477AE3723FB0CAFF1F66
:101D600045A1F23F646E723FDE51653F0000000006
:101D7000000000000000000010B5040002D034F0A4
:101D8000290004D040F2FD4104A0FEF737FB0E48C5
:101D900090F83C00204018BF012010BD2E2E5C643E
:101DA0007269766572735C686333325F6C6C5F6412
:101DB00072697665725C7372635C686333325F6C00
:101DC0006C5F636C6B2E63000040054070B50400CF
:101DD0004FF0000518BF012C04D040F2B3411CA005
:101DE000FEF70CFB254EB6F8FE0310F0010F04D1F0
:101DF00040F2B44116A0FEF701FB6CB1D6F8000129
:101E00004FF4805110F0800F12D04FF0010000F01D
:101E1000A7F90546D5B910E096F8260000F00700AE
:101E200005281ABF012086F82A006FF005050DE08D
:101E3000082000F095F90546ECE7002086F82A0016
:101E40004FF48051202000F08BF90546284670BDE4
:101E50002E2E5C647269766572735C686333325FE0
:101E60006C6C5F6472697665725C7372635C6863E4
:101E700033325F6C6C5F636C6B2E63000040054017
:101E8000002804BF6FF0020070472DE9F0410446BE
:101E9000007900F01F00172804D940F287415AA0AA
:101EA000FEF7ACFA6068C0F308201338B0F5E67F9F
:101EB00004D94FF4916154A0FEF7A0FA60684FF086
:101EC000FF3101EB10700E2804D940F289414EA079
:101ED000FEF794FA616811F0800F0EBF554856481E
:101EE000006801F01F02521CB0FBF2F0C1F30821A0
:101EF000491C01FB00F55149A0F57420A0F51070B4
:101F0000884204D940F28E413FA0FEF777FA4C4850
:101F10004C492844884204D940F28F413AA0FEF748
:101F20006DFA6068012101EB1070B5FBF0F0464ED0
:101F3000464F3044B84204D94FF4926132A0FEF7C4
:101F40005DFA6068C0F30360401E0E2804D940F2B9
:101F500091412DA0FEF752FA6068C0F30350401E75
:101F60000E2804D940F2924127A0FEF747FA606894
:101F7000C0F30350401CB5FBF0F03044B84204D924
:101F800040F2934120A0FEF739FA6068C0F3036085
:101F9000401CB5FBF0F03044B84204D940F2944103
:101FA00019A0FEF72BFA2078012818BF002804D0CA
:101FB00040F2964114A0FEF721FA254DB5F8FE0334
:101FC00010F0010F05D1FFE740F297410EA0FEF798
:101FD00015FAD5F80001217920F08000C1F3C01175
:101FE00040EAC110C5F800016068C5F8000120781A
:101FF00020B1BDE8F0410020FFF7E8BEBDE8F041A8
:102000000120FFF7E3BE00002E2E5C647269766546
:1020100072735C686333325F6C6C5F64726976659F
:10202000725C7372635C686333325F6C6C5F636CA9
:102030006B2E630000127A005CCBFF1F00366E012E
:1020400000E4B1F1001C4E0E401E1BFF402C420666
:10205000004005400021002808BF6FF0020111D0A8
:1020600000226FF3102202F1805202F5985222F002
:10207000706202F1807222F4700202F580124260F6
:10208000012202700846704710B503F031FDBDE82B
:10209000104003F06FBE0000F0B52D4E040085B077
:1020A00030684FF00005009070680190B0680290B1
:1020B000F068039018BF012C0CD0022C18BF032C21
:1020C00008D0042C18BF052C04D04FF4E37121482C
:1020D000FEF794F9204FB7F8FE0310F0010F04D17A
:1020E00040F2C7111B48FEF789F997F8260000F067
:1020F0000700052818BF052C13D130694FF00105E2
:1021000010F0010F04D140F2CF111248FEF776F91A
:1021100012483060C0127060B060F0601E2000F0A5
:102120004BFB87F826401E2000F046FB55B1009877
:102130003060019870600298B0600398F0601E20D3
:1021400000F03AFB05B0BDE8F04003F013BE00001C
:10215000008004409C1D0000004005400EFAFFFF77
:102160002DE9F843804600200E4D0E466FF007071C
:1021700000905FEA080402D034F0290004D040F255
:10218000FD410948FEF73AF995F83C00204201D09C
:10219000002704E00098401C0090B042E9D938467E
:1021A000BDE8F883004005409C1D000070B50400A8
:1021B0004FF0000518BF012C04D040F2263118A0C2
:1021C000FEF71CF9214EB6F8FE0310F0010F04D102
:1021D00040F2273112A0FEF711F954B1002086F821
:1021E00032004FF480510820FFF7BAFF0546284619
:1021F00070BD96F8260000F0070003280CD0D6F832
:10220000000110F0800F4FF0010006BF96F82A1071
:10221000002986F83200EAD16FF00505E7E70000F3
:102220002E2E5C647269766572735C686333325F0C
:102230006C6C5F6472697665725C7372635C686310
:1022400033325F6C6C5F636C6B2E63000040054043
:10225000002804BF6FF00200704770B50446007894
:10226000012818BF002804D040F2073129A0FEF74A
:10227000C5F86078002818BF102808D0202818BF9B
:10228000302804D04FF4427122A0FEF7B7F8A078AE
:10229000002818BF082804D040F209311DA0FEF71D
:1022A000ADF8E078012818BF022811D0032818BF24
:1022B00004280DD0052818BF062809D007281CBF00
:1022C0000828092804D040F20A3112A0FEF796F837
:1022D0001B4DB5F8FE0310F0010F05D1FFE740F2EA
:1022E0000B310CA0FEF78AF8E07885F8A200607840
:1022F000A1780843134940F080000870207820B18D
:10230000BDE870400020FFF751BFBDE870400120DC
:10231000FFF74CBF2E2E5C647269766572735C6841
:102320006333325F6C6C5F6472697665725C737282
:10233000635C686333325F6C6C5F636C6B2E63004D
:102340000040054050CC04400021002808BF6FF039
:10235000020106D001220270002282704270052222
:10236000C27008467047000070B50446A0F1804076
:102370000D46B0F561301FBF0E488442A4F1804085
:10238000B0F56C3004D040F2C3110BA0FEF736F864
:1023900055B1012D04BFA07840F0010007D04FF4E3
:1023A000E27105A0FEF72AF8A07800F0FE00A07008
:1023B00070BD0000008503402E2E5C647269766556
:1023C00072735C686333325F6C6C5F6472697665EC
:1023D000725C7372635C686333325F6C6C5F636DF5
:1023E000702E63000C4981B0096A0C4AC1F3026186
:1023F000126822FA01F10A4AB1FBF2F3421E3CBF15
:1024000001B0704700930098411E0091FBD2521E0C
:10241000F8D201B0704700000040054058CBFF1FC4
:102420008096980070B505460C006FF0020008BF5A
:1024300070BDA5F18040B0F561301FBF46488542B0
:10244000A5F18040B0F56C3004D04FF4B87143A0D2
:10245000FDF7D4FFA088002818BF022804D040F25E
:1024600071113EA0FDF7CAFFE088002818BF1028B0
:1024700008D0202818BF302804D04FF4B97137A0F5
:10248000FDF7BCFF2089002818BF01280DD00228C5
:1024900018BF032809D004281CBF0528062804D02B
:1024A00040F273112DA0FDF7A9FF208800281CBF62
:1024B0000128022804D04FF4BA7128A0FDF79EFF2E
:1024C0006088002818BF01280CD0022818BF0428F3
:1024D00008D0082818BF102804D040F275111FA09A
:1024E000FDF78CFF6089002818BF022810D004284F
:1024F00018BF06280CD0082818BF0A2808D00C28B6
:1025000018BF0E2804D04FF4BB7114A0FDF776FF5E
:10251000287800F0FE00287020684FEA304068609C
:102520002878A17A00F0F100C1F3420140EA4100AD
:1025300028700120FFF756FF287840F0010028702E
:102540000120FFF74FFF207AA179084368702079B6
:10255000A870002070BD0000008503402E2E5C6432
:102560007269766572735C686333325F6C6C5F644A
:1025700072697665725C7372635C686333325F6C38
:102580006C5F636D702E630070B50446A0F18040EF
:102590000D46B0F561301FBF0E488442A4F1804063
:1025A000B0F56C3004D040F2D7110BA0FDF726FF38
:1025B00055B1012D04BFA07840F0040007D04FF4BE
:1025C000EC7105A0FDF71AFFA07800F0FB00A070E9
:1025D00070BD0000008503402E2E5C647269766534
:1025E00072735C686333325F6C6C5F6472697665CA
:1025F000725C7372635C686333325F6C6C5F636DD3
:10260000702E63006FF0020130B100210180418023
:102610008180C1800181418108467047014908805D
:1026200070470000001004402DE9F0418AB003F02B
:1026300005FE0121080200F033FD04A800F0FCFFB4
:102640004FF400470121ADF8267004AA084600F0B7
:10265000B5FD6846FFF7D6FF0125ADF80050042010
:10266000ADF8020005200024ADF80800DFF88080F6
:10267000ADF804400626ADF80640ADF80A6069469C
:102680004046FFF7CFFE01214046FFF76DFE0121D6
:102690004046FFF779FF0121480200F001FD04A840
:1026A00000F0CAFFADF8267004AAE902012000F08C
:1026B00085FD6846FFF7A6FFADF800500820ADF88D
:1026C0000200ADF804401020ADF80600ADF8086037
:1026D0000220084CADF80A0069462046FFF7A2FE2A
:1026E00001212046FFF740FE0AB0BDE8F08100005E
:1026F0000085034000B0034010EE100A16498842DE
:10270000C6BFDFED160A70EEC00AF0EE400A10EE0A
:10271000900A13490844B0F5000F3ABF9FED110A23
:1027200030EE600AB0EE600ADFED0F1AB6EE001A66
:102730000E4900EE211ABCEEC10A10EE100A80B25A
:1027400001EB80000A4990ED000A10EE900A8842E1
:10275000A8BFB1EE400A7047DB0F4940DB0FC9400C
:1027600024F036C0DB0F494083F9224348C6FF1FDF
:10277000DB0FC93F81B00E49096A0E4BC1F30261FC
:102780001B6823FA01F142F210731944491EB1FB90
:10279000F3F206E0009200BF00994B1E009300295F
:1027A000FAD1011EA0F10100F4D101B07047000080
:1027B0000040054058CBFF1F81B00D49096A0D4B01
:1027C000C1F302611B6823FA01F10B4B1944491E46
:1027D000B1FBF3F206E0009200BF00994B1E00939C
:1027E0000029FAD1011EA0F10100F4D101B0704717
:1027F0000040054058CBFF1F80969800114840F6D6
:10280000A23240F6ED51C36823F01003C3600E48B6
:10281000038843F4004303800C4802804180818B8D
:10282000C1F30E0141F400418183818841F001012F
:102830008180818841F004018180818841F002011A
:102840008180704700800440103C05400010044027
:1028500010B5040018BF012C04D040F2351108A0B7
:10286000FDF7CCFD11480068012804D04FF49B719E
:1028700003A0FDF7C3FD0E48C0F84C4310BD000097
:102880002E2E5C647269766572735C686333325FA6
:102890006C6C5F6472697665725C7372635C6863AA
:1028A00033325F6C6C5F65666D2E6300000401401F
:1028B0000080204210B5040018BF012C04D040F263
:1028C000511108A0FDF79AFD11480068012804D0B5
:1028D0004FF4A97103A0FDF791FD0E48C0F84443E1
:1028E00010BD00002E2E5C647269766572735C68A0
:1028F0006333325F6C6C5F6472697665725C7372AD
:10290000635C686333325F6C6C5F65666D2E630079
:10291000000401400080204210B5040018BF012CC3
:1029200004D040F25F1108A0FDF768FD114800686F
:10293000012804D04FF4B07103A0FDF75FFD0E48ED
:10294000C0F8404310BD00002E2E5C6472697665AD
:1029500072735C686333325F6C6C5F647269766556
:10296000725C7372635C686333325F6C6C5F656664
:102970006D2E6300000401400080204210B5040069
:1029800018BF012C04D040F2431108A0FDF736FD1A
:1029900011480068012804D04FF4A27103A0FDF78C
:1029A0002DFD0E48C0F8484310BD00002E2E5C647B
:1029B0007269766572735C686333325F6C6C5F64F6
:1029C00072697665725C7372635C686333325F6CE4
:1029D0006C5F65666D2E630000040140008020423C
:1029E00070B505461A4800240068012804D040F25A
:1029F000211118A0FDF702FD0F2D04D94FF491719C
:102A000014A0FDF7FBFC1E48016865F3030101609B
:102A1000016801F00F01A94218D01B49194A44F678
:102A200020630968D2F820C0CCF3026C21FA0CFCB8
:102A3000BCFBF3FC641CA44502D26FF0070070BD20
:102A4000D0F800C00CF00F0CAC45EBD1002070BDED
:102A5000000401402E2E5C647269766572735C68B6
:102A60006333325F6C6C5F6472697665725C73723B
:102A7000635C686333325F6C6C5F65666D2E630008
:102A8000180401400040054058CBFF1F70B50446B4
:102A900015480D4684421CBF1448844218D014487F
:102AA00084421CBF1348844212D0134884421CBF86
:102AB000124884420CD0124884421FBF11488442FD
:102AC0001148844204D040F2833110A0FDF796FCF7
:102AD00015B11948054204D04FF461710BA0FDF700
:102AE0008DFC256170BD00000086034020860340F8
:102AF000408603406086034080860340A0860340F2
:102B0000C0860340E0860340008703402E2E5C64AD
:102B10007269766572735C686333325F6C6C5F6494
:102B200072697665725C7372635C686333325F6C82
:102B30006C5F656D622E6300F1E007F82DE9F041EE
:102B40002A4D40F60401284600F062F8012818BF1B
:102B5000BDE8F0812648016841F001010160254887
:102B6000016841F0010101602348016841F0010161
:102B700001600421284600F04BF801241F4E204F2D
:102B800001280DD11F48042104702846FFF77EFF5D
:102B900004213046FFF77AFF04213846FFF776FF1D
:102BA0004FF40061284600F033F8012818BFBDE853
:102BB000F081154A1078401CC1B21170022903D966
:102BC00003201070114804704FF400612846FFF78D
:102BD0005DFF4FF400613046FFF758FF3846BDE80F
:102BE000F0414FF40061FFF751BF00000086034041
:102BF00048860340088603406886034040860340B9
:102C000060860340D0C0FF1FD9C0FF1FD1C0FF1F87
:102C100070B5044616480D4684421CBF15488442D0
:102C200018D0154884421CBF1448844212D014485E
:102C300084421CBF134884420CD0134884421FBFF7
:102C4000124884421248844204D04FF4657111A0A6
:102C5000FDF7D4FB15B11A48054204D040F2953176
:102C60000CA0FDF7CBFBE068284018BF012070BD29
:102C70000086034020860340408603406086034070
:102C800080860340A0860340C0860340E086034060
:102C9000008703402E2E5C647269766572735C68EF
:102CA0006333325F6C6C5F6472697665725C7372F9
:102CB000635C686333325F6C6C5F656D622E6300CA
:102CC000112000F870B504461D4816460D46844292
:102CD0001CBF1C48844218D01B4884421CBF1B48A0
:102CE000844212D01A4884421CBF1A4884420CD035
:102CF000194884421FBF194884421948844204D0AD
:102D000040F26B3117A0FDF779FB25B125F48770F0
:102D100030F4F05004D04FF45B7112A0FDF76EFB5D
:102D20004EB1012E04BF6069284306D040F26D31D8
:102D30000CA0FDF763FB6069A843606170BD0000F3
:102D4000008603402086034040860340608603409F
:102D500080860340A0860340C0860340E08603408F
:102D6000008703402E2E5C647269766572735C681E
:102D70006333325F6C6C5F6472697665725C737228
:102D8000635C686333325F6C6C5F656D622E6300F9
:102D900070B504461D4816460D4684421CBF1C48AB
:102DA000844218D01B4884421CBF1B48844212D066
:102DB0001A4884421CBF1A4884420CD019488442E5
:102DC0001FBF194884421948844204D040F2BA31E6
:102DD00017A0FDF713FB25B125F4877030F4F050F0
:102DE00004D040F2BB3112A0FDF708FB002E04BF57
:102DF000A069A84308D0012E04D04FF46F710CA035
:102E0000FDF7FCFAA0692843A06170BD008603406D
:102E1000208603404086034060860340808603404E
:102E2000A0860340C0860340E0860340008703403D
:102E30002E2E5C647269766572735C686333325FF0
:102E40006C6C5F6472697665725C7372635C6863F4
:102E500033325F6C6C5F656D622E630010B50121CB
:102E600082B0C80300F0E8F8304C2F4820603049A9
:102E70000A8842F005020A80091D088840F0050210
:102E80000A80012240F604012046FFF71BFF0122C1
:102E900091022046FFF77CFF012208212046FFF720
:102EA00077FF002204212046FFF772FF0022E11481
:102EB0002046FFF76DFF0020ADF80200DC20ADF8E2
:102EC00000001C480190684602F074F9BDF9020048
:102ED000F0210028B8BF00F00F0000F1E020ACBFE7
:102EE00080F8001480F8141DBDF9020001210028AB
:102EF00009DB00F01F0201FA02F24009800000F134
:102F0000E020C0F88022BDF902000028BCBF02B05A
:102F100010BD00F01F0291404009800000F1E02048
:102F2000C0F8001102B010BD14000C8200860340EE
:102F3000023C05403D2B000070B5FFF78FFF0121DB
:102F4000C80300F079F81A4D184C2C600122910248
:102F50002846FFF71DFF012208212846FFF718FF2A
:102F6000002204212846FFF713FF0022E914284617
:102F7000FFF70EFF0121C80300F05EF80D4D2C6035
:102F8000012291022846FFF703FF00220421284670
:102F9000FFF7FEFE012208212846FFF7F9FE002276
:102FA000E9142846BDE87040FFF7F2BE14000C8219
:102FB000408603406086034070B50D46040002D091
:102FC0001048044203D071210FA0FDF717FA002D1D
:102FD00018BF012D04D04FF072010BA0FDF70EFABF
:102FE000144E306910F0010F04D14FF0730106A0A8
:102FF000FDF704FA3068012D0CBFA0432043306078
:1030000070BD0000EEB378FF2E2E5C6472697665A9
:1030100072735C686333325F6C6C5F64726976658F
:10302000725C7372635C686333325F6C6C5F66639F
:10303000672E63000080044070B50D46040002D086
:103040000A48044203D0962109A0FDF7D7F9134E90
:1030500045B1012D04BFB068A04305D0972104A05D
:10306000FDF7CCF9B0682043B06070BD00480FFE9A
:103070002E2E5C647269766572735C686333325FAE
:103080006C6C5F6472697665725C7372635C6863B2
:1030900033325F6C6C5F6663672E630000800440B0
:1030A00070B50D46040002D00A48044203D0A8219E
:1030B00009A0FDF7A3F9134E45B1012D04BFF06837
:1030C000A04305D0A92104A0FDF798F9F06820439A
:1030D000F06070BDC8FC0FFF2E2E5C6472697665CF
:1030E00072735C686333325F6C6C5F6472697665BF
:1030F000725C7372635C686333325F6C6C5F6663CF
:10310000672E63000080044070B505461D481646D2
:103110000C46008810F0010F04D140F2A7211AA03C
:10312000FDF76CF9002D18BF012D09D0022D1CBF31
:10313000032D052D04D04FF42A7113A0FDF75EF97D
:1031400024B940F2A92110A0FDF758F900211A4A2C
:10315000AB0114F0010F0CD003EB81001044012EE1
:10316000B0F800C00CBF4CF4004CCCF30E0CA0F82F
:1031700000C0640808BF70BD481CC1B21029E8D364
:1031800070BD0000FC3B05402E2E5C6472697665C4
:1031900072735C686333325F6C6C5F64726976650E
:1031A000725C7372635C686333325F6C6C5F677010
:1031B000696F2E6300000000003C05402DE9F041DE
:1031C00014000D4606464FF0000708BF6FF00207D7
:1031D00000F0DD806F48008810F0010F04D140F24C
:1031E0000F116DA0FDF70AF9002E18BF012E09D0AE
:1031F000022E1CBF032E052E04D04FF4887166A04A
:10320000FDF7FCF825B940F2111163A0FDF7F6F8BF
:103210002088002818BF012804D04FF489715EA0CF
:10322000FDF7ECF86088002818BF022804D040F2AF
:10323000131159A0FDF7E2F8A088002818BF042850
:1032400004D04FF48A7154A0FDF7D8F8E088002824
:103250001CBF1028202804D040F215114EA0FDF705
:10326000CDF82089002818BFB0F5804F04D04FF466
:103270008B7149A0FDF7C2F86089002818BF40286B
:1032800004D040F2171144A0FDF7B8F8A089002837
:1032900018BF802804D04FF48C713FA0FDF7AEF822
:1032A000E089002818BFB0F5005F04D040F2191182
:1032B00039A0FDF7A3F8208A002818BFB0F5007FD9
:1032C00004D04FF48D7134A0FDF798F8608A00287F
:1032D00018BFB0F5805F04D040F21B112EA0FDF79F
:1032E0008DF8A08A002818BFB0F5806F04D04FF485
:1032F0008E7129A0FDF782F8E08A002818BFB0F58A
:10330000004F04D040F21D1123A0FDF777F80021F3
:10331000B3012D4E4FF2F76C15F0010F31D020881C
:103320006288B4F8068040EA0200A28842EA0802F5
:1033300040EA02006289B4F80E8040EA0200228A64
:1033400040EA0200628A40EA0200228940EA020062
:10335000E28A42EA0000A28942EA080242EA000048
:10336000A28A42EA000203EB81003044B0F80080F8
:1033700002EA0C0228F0F70828F4764848EA02022C
:1033800002806D0803D0481CC1B21029C4D338464E
:10339000BDE8F081FC3B05402E2E5C6472697665C9
:1033A00072735C686333325F6C6C5F6472697665FC
:1033B000725C7372635C686333325F6C6C5F6770FE
:1033C000696F2E6300000000003C054022484AF26D
:1033D00001510180214840F6DF71016020480188D9
:1033E00041F030010180001D018841F03001018071
:1033F000001D018841F030010180001D018841F06D
:10340000300101801748018841F030010180001D22
:10341000018841F030010180001D018841F0300138
:103420000180001D018841F0300101800E480188B3
:1034300041F030010180001D018841F03001018020
:10344000001D018841F030010180001D018841F01C
:103450003001018070470000FC3B0540F03B054017
:10346000983C0540703C0540203C054070B50D4639
:10347000040018BF012C09D0022C1CBF032C052C02
:1034800004D04FF41C7108A0FCF7B8FF25B940F236
:10349000712105A0FCF7B2FF0F4800EB0410018872
:1034A0002943018070BD00002E2E5C647269766530
:1034B00072735C686333325F6C6C5F6472697665EB
:1034C000725C7372635C686333325F6C6C5F6770ED
:1034D000696F2E63000000000A38054070B516467B
:1034E0000C46050018BF012D09D0022D1CBF032D6D
:1034F000052D04D04FF4CA711BA0FCF77FFF24B93F
:1035000040F2951118A0FCF779FF112E81BFA6F1AA
:1035100014000628A6F12000192804D94FF4CB7115
:1035200011A0FCF76BFF1C48008810F0010F04D1BC
:1035300040F297110CA0FCF761FF0021DFF85CC09E
:10354000AA0114F0010F06D002EB81006044038849
:1035500066F305030380640808BF70BD481CC1B250
:103560001029EED370BD00002E2E5C647269766562
:1035700072735C686333325F6C6C5F64726976652A
:10358000725C7372635C686333325F6C6C5F67702C
:10359000696F2E6300000000FC3B0540023C0540C3
:1035A00010B5040018BFB4F5805F16D0B4F5005F05
:1035B00018BFB4F5405F10D0B4F5804F18BFB4F514
:1035C000A04F0AD0B4F5C04F18BFB4F5E04F04D0F7
:1035D0004FF4F9710AA0FCF711FF1548008810F0AC
:1035E000010F04D140F2F31105A0FCF707FF1148C9
:1035F000018804F4E04221F4E0411143018010BD50
:103600002E2E5C647269766572735C686333325F18
:103610006C6C5F6472697665725C7372635C68631C
:1036200033325F6C6C5F6770696F2E63000000005F
:10363000FC3B0540F83B05400022002808BF6FF026
:1036400002020CD0002101804180C180C1828181B1
:10365000C181018141810182418281808182104644
:103660007047000070B586B06846FFF7E5FF022599
:103670000024ADF800402026ADF80250ADF80660F9
:103680006A4629022846FFF799FD6A4680210220F2
:10369000FFF794FD6A46A9020220FFF78FFD4E480E
:1036A000018821F40041018041150220FFF7DEFE70
:1036B0006846FFF7C1FFADF80040ADF80250ADF825
:1036C00006606A4604210020FFF778FD04210020EF
:1036D000FFF7CCFE6846FFF7AFFFADF80040ADF84E
:1036E0000250ADF806606846FFF7A6FFADF800404F
:1036F000ADF80250ADF806606A46A9020220FFF755
:103700005DFD6A46E9020020FFF758FD6A46A902FE
:103710000020FFF753FD3149A8020880304A4100DC
:103720001180911E08806846FFF786FFADF80040C3
:10373000ADF80250ADF806606A4601210320FFF79C
:103740003DFD6846FFF778FFADF80040ADF8025048
:10375000ADF806606A4604210220FFF72FFD684697
:10376000FFF76AFFADF80040ADF80250ADF8066013
:103770006A4620210020FFF721FD6846FFF75CFF25
:10378000ADF80040ADF80250ADF806606846FFF7AE
:1037900053FF8020ADF80040ADF80C000102ADF8F9
:1037A00002406A460020FFF709FD6A468021012099
:1037B000FFF704FD6A4640210120FFF7FFFC6A463F
:1037C00020210120FFF7FAFC6A4610210120FFF7B3
:1037D000F5FC06B070BD0000A43C05402A38054049
:1037E0000A380540234881B0006A2349C0F30260CB
:1037F000224A096821FA00F04FF47A71B0FBF1F027
:103800000090D2F8FC12002021F00101C2F8FC1255
:10381000D2F8FC1221F00201C2F8FC12D2F8FC121C
:1038200021F44071C2F8FC12D2F8FC1241F00101FF
:10383000C2F8FC12D2F8FC1211F4807F10D100996A
:103840004B1E009303D26FF0070001B07047D2F80F
:10385000FC1211F4807FF2D000281CBF01B0704729
:10386000D2F8FC1211F4007F18BF4FF0FF3001B006
:10387000704700000040054058CBFF1F00C00340C8
:1038800010B50446A0F18040B0F570301CBFA4F123
:103890008040B0F5713017D0A4F18040B0F572309F
:1038A0001CBFA4F18040B0F573300DD0A4F180406E
:1038B000B0F574301CBFA4F18040B0F5753003D072
:1038C000B1214AA0FCF79AFD0020C4F84001206015
:1038D0006060524921646164C4F88010C4F88410A7
:1038E000C4F88810C4F88C10C4F89010C4F8941070
:1038F000C4F89810C4F89C10C4F8C010C4F8C410E0
:10390000C4F8C810C4F8CC10C4F80011C4F80411ED
:10391000C4F80811C4F80C11C4F84401C4F84801F3
:10392000C4F84C01C4F85401C4F85801C4F860014B
:103930004906C4F86411C4F86801C4F88001C4F8E9
:103940008801C4F89001C4F89401C4F89801C4F83F
:103950009C01C4F800023249C4F80412C4F80812E9
:10396000C4F81002C4F818024FF48002C4F82022F0
:10397000C4F82422C4F82822C4F82C22C4F8300247
:10398000C4F83402C4F83812C4F83C12C4F8400237
:10399000C4F84402C4F84802C4F84C02C4F8500207
:1039A000C4F85412C4F85812C4F85C12C4F8601277
:1039B000C4F86402C4F86802C4F8A002C4F8A402FF
:1039C0001848C4F8B402C4F8B802C4F8BC02C4F879
:1039D000C002C4F8C402C4F8C802C4F8CC02C4F8D7
:1039E000D002C4F8D402C4F8D80210BD2E2E5C64F4
:1039F0007269766572735C686333325F6C6C5F64A6
:103A000072697665725C7372635C686333325F6C93
:103A10006C5F687270776D2E63000000C0FF3F001E
:103A2000AAAA0A00C0FF7F0070B504460D006FF01F
:103A3000020008BF70BDA4F18040B0F570301CBF1B
:103A4000A4F18040B0F5713017D0A4F18040B0F5FA
:103A500072301CBFA4F18040B0F573300DD0A4F1DA
:103A60008040B0F574301CBFA4F18040B0F57530D3
:103A700003D09C2114A0FCF7C1FC2868002818BFC3
:103A8000042804D04FF09D010FA0FCF7B7FCA868F4
:103A9000002818BFB0F5807F04D04FF09E010AA027
:103AA000FCF7ACFC68681449C138884203D99F21EF
:103AB00005A0FCF7A3FC68682064A968286808438F
:103AC000C4F84001002070BD2E2E5C6472697665DA
:103AD00072735C686333325F6C6C5F6472697665C5
:103AE000725C7372635C686333325F6C6C5F6872C4
:103AF00070776D2E63000000FFFE3F0070B5054635
:103B00000C006FF0020008BF70BDA5F18040B0F559
:103B100071301CBFA5F18040B0F5723012D0A5F114
:103B20008040B0F573301FBFA5F18040B0F5743010
:103B3000A5F18040B0F5753004D040F284611EA03C
:103B4000FCF75CFC2068042804D940F285611AA0C7
:103B5000FCF754FC6068002818BF402804D040F2ED
:103B6000866115A0FCF74AFCA068002818BF8028D1
:103B700004D040F2876110A0FCF740FCE068002808
:103B800018BF202804D04FF4D1610BA0FCF736FCFD
:103B9000D4E901010843216840EA4100C5F8A402C4
:103BA000D5F84402217B20F0200001F020010843D9
:103BB000C5F84402002070BD2E2E5C6472697665E3
:103BC00072735C686333325F6C6C5F6472697665D4
:103BD000725C7372635C686333325F6C6C5F6872D3
:103BE00070776D2E630000006FF0020120B100219C
:103BF000016041608160C160084670476FF002015A
:103C000090B10A490160002141608160C160016199
:103C100041618161C161016241628162C16201638E
:103C200041638163C163016408467047C0FF3F0080
:103C30002DE9F04F99B001214FF47C70FFF7FCF9AA
:103C4000FE4C2046FFF71CFEFD48FFF719FEFD4F16
:103C50003846FFF715FEDFF8F0834046FFF710FE09
:103C6000FA4D2846FFF70CFEDFF8E4934846FFF7CD
:103C700007FEFFF7B7FD00B1FEE7D4F8A00240F061
:103C80000800C4F8A002F3480068F24940F00800B8
:103C90000860F1480068F04940F008000860EF480B
:103CA0000068EE4940F008000860D5F8A002E74936
:103CB00040F00800C1F8A002E9480068E84940F077
:103CC000080008604FF0000BE6486946CDE900B0F7
:103CD000CDF808B02046FFF7A7FE6946D848FFF7A1
:103CE000A3FE69463846FFF79FFE69464046FFF748
:103CF0009BFE6946D548FFF797FE69464846FFF7A1
:103D000093FE03A8FFF77AFFD4F8540120F00300D4
:103D1000C4F85401D4F8540120F00C00C4F8540144
:103D2000D4F8540120F03000C4F85401D4F8540100
:103D300020F0C000C4F85401D4F8540120F44070BD
:103D4000C4F85401D4F8540140F40060C4F854019C
:103D5000D4F8540120F44050C4F85401D4F854016C
:103D600040F48050C4F85401D4F8540140F40040A9
:103D7000C4F85401D4F8580120F00300C4F85801E5
:103D8000D4F8580120F00C00C4F85801D4F85801B8
:103D900020F03000C4F85801D4F8580120F0C000D9
:103DA000C4F85801D4F8580120F44070C4F8580100
:103DB000D4F8580140F40060C4F85801D4F8580110
:103DC00020F44050C4F85801D4F8580140F40040A1
:103DD000C4F85801D4F8380240F40010C4F838028E
:103DE000D4F8380240F40000C4F83802D4F83C0299
:103DF00040F40010C4F83C02D4F83C0240F4000047
:103E0000C4F83C02D4F8040240F40010C4F80402E0
:103E1000D4F8040240F40000C4F80402D4F8080204
:103E200020F44010C4F80802D4F8080220F440003E
:103E3000C4F80802D4F8080240F48000C4F808026C
:103E4000D4F8040240F00060C4F80402D4F804027C
:103E500040F00070C4F80402D4F8380240F000606A
:103E6000C4F83802D4F8380240F00070C4F83802C0
:103E7000D4F8080240F00060C4F80802D4F8080240
:103E800040F00070C4F80802D4F83C0240F0006032
:103E9000C4F83C02D4F83C0240F00070C4F83C0284
:103EA000DFF8C4A1DAF8000020F00300CAF800002F
:103EB000DAF8000020F00C00CAF80000DAF8000080
:103EC00020F03000CAF80000DAF8000020F0C0004E
:103ED000CAF80000DAF8000020F44070CAF80000C8
:103EE000DAF80000514640F400600860086820F4E9
:103EF00040500860086840F480500860086840F44A
:103F000000400860081D006820F003010AF1040069
:103F1000016000680AF1040120F00C0008600868E4
:103F200020F030010AF10400016000680AF1040188
:103F300020F0C0000860086820F440710AF1040015
:103F4000016000680AF1040140F40060086008683C
:103F500020F440510AF10400016000680AF10401F4
:103F600040F4004008604148006840F400113F48B8
:103F7000016000683D4940F400000860081D0068C9
:103F800040F400113A480160006840F400013848EC
:103F900001603849086840F400100860086840F47F
:103FA00000000860081D026822F4401202600268E6
:103FB00022F440020260026842F4800202600A6851
:103FC00042F000620A600A6842F000720A60274903
:103FD0000968264A41F000611160116841F00071E2
:103FE0001160016841F000610160016841F00071F9
:103FF0000160101D0068111D40F000600860086835
:1040000040F0007008601C4800681B4920F0030065
:104010000860086820F00C000860086820F0300094
:104020000860086840F020000860086820F0C000C0
:104030000860086840F0400008601FE000C00340CE
:1040400000C4034000C8034000CC034000D003403C
:1040500000D40340A0C60340A0CA0340A0CE034042
:10406000A0D603409A77010054C5034038C60340E8
:104070003CC6034004C6034054C9034008460068D8
:1040800020F440700860086840F40061FE48016058
:104090000068FD4940F400500860086840F40040A2
:1040A0000860FA48016841F400110160016841F4B8
:1040B00000010160016841F000710160016841F098
:1040C00000610160F248016841F40011016001687B
:1040D00041F400010160016841F000710160016874
:1040E00041F000610160EB4F386820F00300386058
:1040F000386840F002003860386820F00C00386002
:10410000386840F008003860386820F030003860C7
:10411000386840F020003860386820F0C00038600F
:10412000386840F080003860386820F440703860AB
:10413000386840F400703860386840F400603860D7
:10414000386840F400503860386840F40040386007
:10415000D148016841F400110160016841F4000197
:104160000160016841F000710160016841F0006187
:104170000160CA48016841F400110160016841F41E
:1041800000010160016841F000710160016841F0C7
:1041900000610160DFF80893D9F8000020F0030007
:1041A000C9F80000D9F8000020F00C00C9F80000A0
:1041B000D9F8000020F03000C9F80000D9F800005C
:1041C00040F02000C9F80000D9F8000020F0C0003D
:1041D000C9F80000D9F8000040F04000C9F800001C
:1041E000D9F8000020F44070C9F80000D9F80000A8
:1041F00040F40060C9F80000D9F8000040F4005015
:10420000C9F80000D9F8000040F40040C9F80000E7
:10421000A448016841F400110160016841F4000103
:104220000160016841F000710160016841F00061C6
:1042300001609D48016841F400110160016841F48A
:1042400000010160016841F000710160016841F006
:104250000061016009F10408D8F8000020F00300B3
:10426000C8F80000D8F8000040F00200C8F80000CC
:10427000D8F8000020F00C00C8F80000D8F80000C2
:1042800040F00800C8F80000D8F8000020F0300026
:10429000C8F80000D8F8000040F02000C8F800007E
:1042A000D8F8000020F0C000C8F80000D8F80000DE
:1042B00040F04000C8F80000D8F8000020F440703A
:1042C000C8F80000D8F8000040F40070C8F80000FA
:1042D000D8F8000040F40060C8F80000D8F80000EA
:1042E00020F44050C8F80000D8F8000040F4004026
:1042F000C8F800006D48016841F4001101600168D0
:1043000041F400010160016841F000710160016841
:1043100041F0006101606648016841F400110160EC
:10432000016841F400010160016841F00071016021
:10433000016841F000610160D5F8540120F00300EC
:10434000C5F85401D5F8540140F00200C5F85401F5
:10435000D5F8540120F00C00C5F85401D5F85401EB
:1043600040F00800C5F85401D5F8540120F03000A1
:10437000C5F85401D5F8540140F02000C5F85401A7
:10438000D5F8540120F0C000C5F85401D5F8540107
:1043900040F08000C5F85401D5F8540120F4407075
:1043A000C5F85401D5F8540140F40060C5F8540133
:1043B000D5F8540120F44050C5F85401D5F8540103
:1043C00040F48050C5F85401D5F8540140F4004041
:1043D000C5F85401D5F8040240F40010C5F80402F1
:1043E000D5F8040240F40000C5F80402D5F8040230
:1043F00040F00070C5F80402D5F8040240F00060F7
:10440000C5F80402D5F8380240F40010C5F83802A7
:10441000D5F8380240F40000C5F83802D5F8380263
:1044200040F00070C5F83802D5F8380240F000605E
:10443000C5F83802D5F8580120F00300C5F8580136
:10444000D5F8580140F00200C5F85801D5F85801D8
:1044500020F00C00C5F85801D5F8580140F00800CC
:10446000C5F85801D5F8580120F03000C5F85801BA
:10447000D5F8580140F02000C5F85801D5F858018A
:1044800020F0C00016E0000054C9034004CA0340F5
:1044900038CA034058C9034008CA03403CCA034015
:1044A00054CD034004CE034038CE034008CE034031
:1044B0003CCE0340C5F85801D5F8580140F08000C3
:1044C000C5F85801D5F8580120F44070C5F85801D6
:1044D000D5F8580140F40070C5F85801D5F85801D6
:1044E00040F40060C5F85801D5F8580140F4005078
:1044F000C5F85801D5F8580140F40040C5F85801F6
:10450000D5F8080220F44010C5F80802D5F80802D2
:1045100020F44000C5F80802D5F8080240F48000F5
:10452000C5F80802D5F8080240F00070C5F8080286
:10453000D5F8080240F00060C5F80802D5F83C0242
:1045400040F40010C5F83C02D5F83C0240F40000ED
:10455000C5F83C02D5F83C0240F00070C5F83C02BA
:10456000D5F83C0240F00060C5F83C02FE4E3068D1
:1045700020F003003060306820F00C0030603068BC
:1045800020F030003060306840F02000306030684B
:1045900020F0C0003060306840F04000306030688B
:1045A00020F440703060306840F400603060306863
:1045B00040F400503060306840F400403060EB4818
:1045C000016841F400110160016841F400010160DB
:1045D000016841F000710160016841F00061016013
:1045E000E348016841F400110160016841F40001F1
:1045F0000160016841F000710160016841F00061F3
:104600000160301D016821F003010160016821F0A3
:104610000C010160016821F030010160016841F086
:1046200020010160016821F0C0010160016841F0D2
:1046300040010160016821F440710160016841F4AA
:1046400000710160016841F400610160016821F4BA
:1046500040510160016841F400410160C5480168B2
:1046600041F400110160016841F40001016001683A
:1046700041F000710160016841F000610160BE48D5
:10468000016841F400110160016841F4000101601A
:10469000016841F000710160016841F00061016052
:1046A000B6482064606440F60540C4F88000C4F851
:1046B0008800C4F88400C4F88C0040F60872C4F87E
:1046C0009020C4F89820C4F89420C4F89C204FF49B
:1046D0007061C4F8C010C4F8C810A94BC4F8C43045
:1046E000C4F8CC30DFF8A0C2A64BCCF800300CF1F7
:1046F000040CCCF80030A54B1860A54B18601B1FAC
:104700001860A44B18601B1D1A60A34B1A601B1F76
:104710001A60A24B1A60A24A1160A24A1160A24B11
:10472000974A1A60A14B1A60A14B49F23D621A6088
:104730001B1D1A609F4B44F29B321A609E4B1A60FD
:104740001B1F4FF47A521A609C4B1A601B1D4FF4CA
:1047500081421A609A4B1A601B1F9A4A1A609A4B40
:104760001A609A4B44F272721A60994B1A601B1FBE
:1047700045F2BC521A60974B1A60974B43F61842A9
:104780001A601B1D1A60954B41F258621A60944BD7
:104790001A601B1F1A60934B1A601B1D4FF4814255
:1047A0001A60914B1A601B1F864A1A608F4B1A6061
:1047B0008F4B44F272721A608E4B1A601B1F45F2C7
:1047C000BC521A608C4B1A608C4A2A646A64C5F821
:1047D0008010C5F88810C5F88410C5F88C10C5F88D
:1047E0009010C5F89810C5F89410C5F89C1084492D
:1047F000C5F8C010C5F8C810C5F8C410C5F8CC106D
:10480000804A99141160121D11607F49C1F800B0EF
:104810007E49C1F800B0091FC1F800B07C49C1F859
:1048200000B0091DC1F800B07A49C1F800B0091FF5
:10483000C1F800B07849C1F800B07849C1F800B0BB
:104840007749C1F800B0091FC1F800B07549C1F837
:1048500000B0C4F80001C4F8080173490860734946
:1048600008607349086073490860734908607349B8
:104870000860C5F80001C5F8080171490860714970
:104880000860D4F8480140F48070C4F84801D4F8B6
:10489000480140F00100C4F84801D4F8480140F054
:1048A0001000C4F84801D4F8480140F48030C4F83E
:1048B0004801D4F8480140F48010C4F84801D4F805
:1048C000480140F00100C4F84801D4F8480140F024
:1048D0001000C4F84801D4F8480140F48070C4F8CE
:1048E0004801D4F8480140F48030C4F84801D4F8B5
:1048F000480140F48010C4F84801D4F8000240F0A8
:104900000100C4F80002D4F8000240F00200C4F82C
:104910000002D4F8000240F00800C4F80002D4F805
:10492000000240F01000C4F80002D4F8B40340F0D4
:104930000100C4F8B403D4F8440240F48000C4F881
:104940004402D4F8B40340F00040C4F8B4033E4835
:10495000016841F480710160016841F0010101606A
:10496000016841F0100171E054D5034004D60340C2
:1049700038D6034008D603403CD603409A7701005E
:10498000C07B0100299D010040C4034080C4034056
:1049900088C403408CC4034098C403409CC40340B3
:1049A000C0C40340C8C40340C4C40340CCC40340D3
:1049B00040C8034080C8034088C803408CC80340F7
:1049C00098C80340FE8C01009CC80340C0C8034047
:1049D000C8C80340CCC8034040CC034080CC03404F
:1049E00088CC03408CCC034098CC03409CCC034043
:1049F000C0CC0340C8CC0340CCCC0340E20A070043
:104A00000053070040D4034080D4034088D40340BF
:104A10008CD4034098D403409CD40340C0D40340BA
:104A2000C8D40340CCD4034000C5034008C50340AC
:104A300000C9034008C9034000CD034008CD03402E
:104A400000D5034008D5034048C503400160016814
:104A500041F001010160016841F01001016001684D
:104A600041F480710160016841F4803101600168A6
:104A700041F480110160FE480068FD4940F00100EA
:104A80000860086840F002000860086840F008000C
:104A90000860086840F010000860D4F8B40340F0E3
:104AA0000200C4F8B403086840F400100860084627
:104AB000006840F480100860086840F40020086036
:104AC000086840F480200860086840F400300860FE
:104AD000086840F480300860086840F040000860D2
:104AE0000846006840F080000860E2480068E1493C
:104AF00040F400000860E048016841F48071016002
:104B0000016841F001010160016841F0100101609C
:104B1000D4F8B40340F00400C4F8B403D7480068E4
:104B2000D64940F480100860D548016841F480718E
:104B30000160016841F001010160016841F010016C
:104B40000160D4F8B41341F00801C4F8B41301684B
:104B500041F004010160016841F040010160016819
:104B600041F480610160016841F001010160016868
:104B700041F010010160016841F480710160D5F8D5
:104B8000480140F48070C5F84801D5F8480140F06C
:104B90000100C5F84801D5F8480140F01000C5F8FB
:104BA0004801D5F84C0140F01000C5F84C01D5F88B
:104BB0004C0140F02000C5F84C01D5F8480140F008
:104BC0000400C5F84801D5F8480140F04000C5F898
:104BD0004801D5F8480140F48060C5F84801D5F88F
:104BE000480140F00100C5F84801D5F8480140F0FF
:104BF0001000C5F84801D5F8480140F48070C5F8A8
:104C00004801D5F8480140F48000C5F84801D5F8BE
:104C1000480140F48010C5F84801D4F8B40340F0CE
:104C20000200C4F8B403D5F8440240F48010C5F87B
:104C300044029448016841F480710160016841F0C8
:104C400001010160016841F010010160D4F8B41362
:104C500041F00401C4F8B4138B4909688A4A41F44D
:104C600080111160016841F004010160016841F0A8
:104C700040010160016841F480610160016841F018
:104C800001010160016841F010010160016841F417
:104C9000807101607D494BF6CD300860091D0860C8
:104CA00014A8FEF7A1FFCDF850B0CDF854B014A968
:104CB0007748CDF858B0FEF721FF7648006875496F
:104CC00040F001000860D4F8A40240F48070C4F8F9
:104CD000A402D4F8D80320F04070C4F8D803D4F864
:104CE000D80340F08070C4F8D803D4F8B00320F49F
:104CF0004010C4F8B003D4F8DC0320F04070C4F8CE
:104D0000DC03D4F8DC0340F08070C4F8DC03D4F892
:104D1000B00320F04040C4F8B003D4F8D80320F02A
:104D2000C050C4F8D803D4F8DC0320F0C050C4F855
:104D3000DC03D4F8DC0320F08060C4F8DC03D4F892
:104D4000DC0340F08060C4F8DC03D4F8040220F4F3
:104D50004070C4F80402D4F8180240F48000C4F88B
:104D60001802D4F8880140F08000C4F88801D4F813
:104D7000440240F04000C4F84402D4F8440240F039
:104D80008000C4F84402D4F8440240F00400C4F89F
:104D90004402D4F8440240F48020C4F84402D4F819
:104DA000440240F48030C4F84402D4F8200240F4B5
:104DB0008000C4F82002D4F8200241F20321084305
:104DC000C4F82002D4F8240240F48000C4F824027D
:104DD000D4F824020843C4F82402D4F8280240F48A
:104DE0008000C4F82802D4F82C0240F48000C4F8F3
:104DF0002C02D4F828020843C4F82802D4F82C0264
:104E00000843C4F82C02D4F8300240F08040C4F8C3
:104E10003002D4F8300240F08060C4F83002D4F898
:104E2000340240F08060C4F83402D4F8DC0320F48B
:104E30004050C4F8DC03D4F8DC0340F48050C4F8DC
:104E4000DC03D4F8B00320F04060C4F8B003D4F819
:104E5000B00340F08060C4F8B003D4F8DC0320F461
:104E60004020C4F8DC03D4F8DC0340F4802013E0D5
:104E700000C6034044C6034048C9034044CA034037
:104E800048CD034048D5034044D60340B4C2034054
:104E900000C40340A4C60340C4F8DC03D4F8B00344
:104EA00020F04050C4F8B003D4F8B00340F0805074
:104EB000C4F8B003D4F8DC0320F4C030C4F8DC0339
:104EC000D4F8DC0340F48040C4F8DC03D4F8DC03FD
:104ED00020F4C000C4F8DC03B0480068AF4920F4F7
:104EE00040300860AE48016841F04001016001684F
:104EF00041F080010160016841F004010160016836
:104F000041F480310160A748016841F480010160EB
:104F1000016841F2032211430160001D0068A249AB
:104F200010430860081D016841F4800101600168B8
:104F300011430160001D0068114608439B49086049
:104F4000081D016841F080410160011D0A6842F4BA
:104F500080120A60016841F480410160D4F8540174
:104F600020F0E060C4F85401D4F8540120F440006B
:104F7000C4F85401D4F8540140F40000C4F85401BA
:104F8000D4F8540140F40010C4F85401D4F8580186
:104F900020F0E060C4F85801D4F8580120F4400033
:104FA000C4F85801D4F8580140F40000C4F858017E
:104FB000D4F8580140F40010C4F85801DAF80000A1
:104FC00020F0E060CAF80000DAF8000040F000705D
:104FD000CAF80000DAF8000020F44000CAF8000027
:104FE000DAF8000040F40000CAF80000DAF8000027
:104FF00040F40010CAF800000AF10402106820F022
:10500000E0601060106840F000701060106820F4DC
:1050100040001060106840F400001060106840F418
:1050200000101060D5F85401614920F0E060C1F82B
:105030005401D1F8540140F04070C1F85401D1F846
:10504000540140F48000C1F85401D1F8540140F4F7
:105050000010C1F85401D1F8580120F0E060C1F807
:105060005801D1F8580140F04070C1F85801084685
:10507000D0F8580140F48000C1F85801D1F8580127
:1050800040F40010C1F85801D4F8540120F08050C9
:10509000C4F85401D4F8580120F08050C4F85801E5
:1050A000DAF8000020F08050CAF80000106820F004
:1050B000805010603B1F186820F0805018603868DE
:1050C00020F080503860D9F8000020F08050C9F8F6
:1050D0000000D8F8000020F08050C8F80000084612
:1050E000D0F8540120F08050C1F85401D1F8580193
:1050F00020F08050C1F85801306820F080503060B6
:10510000351D286820F08050286040F6DF70C4F814
:10511000A803FEF75BF9D4F8540140F08050C4F8BE
:105120005401D4F8580140F08050C4F85801DAF81E
:10513000000040F08050CAF80000106840F0805035
:105140001060186840F080501860386840F0805057
:105150003860D9F8000040F08050C9F80000D8F855
:10516000000040F08050C8F800001148D0F8540109
:105170000F4940F08050C1F85401D1F8580140F077
:105180008050C1F85801306840F080503060286885
:1051900040F08050286019B0BDE8F08F04C603408D
:1051A00044C6034020C6034024C603402CC6034027
:1051B00000D0034070B504004FF000050BD02088EC
:1051C000B0F5007F03D3C42113A0FBF717F9B4F99E
:1051D00002100F2902DD6FF0020514E01B4800EBFE
:1051E0008100026840F2FF139343194A0DD02388CF
:1051F0000068C0F3080083420CBF60686FF00105CF
:1052000001D142F82100284670BD21880160B4F91F
:1052100002106068F5E700002E2E5C647269766506
:1052200072735C686333325F6C6C5F64726976655D
:10523000725C7372635C686333325F6C6C5F696E5F
:1052400074657272757074732E6300005C10054093
:1052500050CAFF1F034810B500688047BFF34F8F47
:1052600010BD000050CAFF1F034810B540688047BA
:10527000BFF34F8F10BD000050CAFF1F034810B589
:1052800080688047BFF34F8F10BD000050CAFF1FDA
:10529000034810B5C0688047BFF34F8F10BD0000B2
:1052A00050CAFF1F034810B500698047BFF34F8FF6
:1052B00010BD000050CAFF1F034810B54069804769
:1052C000BFF34F8F10BD000050CAFF1F034810B539
:1052D00080698047BFF34F8F10BD000050CAFF1F89
:1052E000034810B5C0698047BFF34F8F10BD000061
:1052F00050CAFF1F034810B5006A8047BFF34F8FA5
:1053000010BD000050CAFF1F034810B5406A804717
:10531000BFF34F8F10BD000050CAFF1F034810B5E8
:10532000806A8047BFF34F8F10BD000050CAFF1F37
:10533000034810B5C06A8047BFF34F8F10BD00000F
:1053400050CAFF1F034810B5006B8047BFF34F8F53
:1053500010BD000050CAFF1F034810B5406B8047C6
:10536000BFF34F8F10BD000050CAFF1F034810B598
:10537000806B8047BFF34F8F10BD000050CAFF1FE6
:10538000034810B5C06B8047BFF34F8F10BD0000BE
:1053900050CAFF1F3D4810B5C16821F00101C1602E
:1053A00001214804FDF708FE39484AF20251A0F8ED
:1053B000FE13018A01824FF42543A0F8FE333548DD
:1053C000002200F8042B30F8021C21F0B00120F874
:1053D000021C30F8021C21F0070120F8021C018891
:1053E00021F004010180C18841F00101C180C18820
:1053F00041F08001C180DFF8A0C0C821CCF80010C6
:10540000816841F01F018160C168C260DFF88CC013
:10541000591CACF8001022490C8844F400440C805C
:1054200020490C8844F400440C80818E21F00F0147
:1054300041F00B018186818E21F0F00141F0B00135
:105440008186818E21F4706141F460618186818E54
:10545000C1F30B0141F460418186C18E21F00F013F
:1054600041F00B01C186017F20210177447F417704
:10547000847F8177C47FC17790F8204080F8201026
:10548000ACF8003080F8412010BD000000800440DE
:10549000004005400000044068080140FC3B054016
:1054A000843C0540903C054070B54048C0683F4989
:1054B00020F00200C8603E494AF20250A1F8FE0303
:1054C000088A08824FF42545A1F8FE53394E00247E
:1054D0003470B01C0088B11C20F0B000088008882F
:1054E00020F007000880881C0088891C20F0040038
:1054F0000880881D0088891D40F001000880088808
:1055000040F08000088001214804FDF755FD2A493C
:10551000D42008602948016841F4F8710160001D39
:1055200001680460264B681C18802648018841F4F5
:10553000004101802448018841F400410180234951
:10554000088820F00F0040F00C000880088820F048
:10555000F00040F0C0000880088840F470600880C7
:105560000888C0F30B0040F470400880881C018854
:1055700021F00F0141F00C010180154A1078202123
:105580001170521C10781170501C02780170401C70
:1055900002780170401C027801701D800D48047073
:1055A0003046BDE87040FCF723BB0000008004409B
:1055B0000040054000040440700801400C04044011
:1055C000FC3B0540943C0540883C05403A040440BF
:1055D0002404044045040440374810B5C0683649E7
:1055E00020F00400C86001214804FDF7E5FC3348C1
:1055F0004AF20251A0F8FE13018A01824FF42542BB
:10560000A0F8FE232E4800230370801C018821F09F
:10561000B0010180018821F007010180801C018810
:1056200021F004010180801D018841F00101018009
:10563000018841F0800101802249642008602248ED
:10564000016841F00F010160001D01680360DFF88F
:105650007CC0501CACF800001D48018841F400419A
:1056600001801C48018821F00F0141F009010180EF
:10567000018821F0F00141F090010180018821F4BE
:10568000706141F4106101800188C1F30B0141F4A4
:10569000104101801049087820200870491C0C78BE
:1056A0000870491C0C780870491C0C780870ACF81C
:1056B00000200A48037010BD0080044000400540EF
:1056C00000080440780801400C080440FC3B0540F9
:1056D000443C054038080440200804404508044084
:1056E00010F0010F06D0184940F223120A6043F26D
:1056F00010220A6010F0020F02D0154A13491161FE
:1057000010F0040F03D0134A4AF201511180124ADB
:1057100010F0100F06D0B2F8FE334AF208511943C8
:10572000A2F8FE1310F0400F06D0B2F8FE334AF292
:1057300003511943A2F8FE1310F0800F08BF704701
:105740007720064908607047000401400100A5A5C4
:1057500000800440FC3B0540004005400C0805402B
:1057600010F0010F02D0194A0021116010F0020F51
:1057700002D01849164A0A6110F0040F03D0164AE5
:105780004FF425411180154910F0100F09D0B1F8E0
:10579000FE2322F4A16222F4204242F42542A1F821
:1057A000FE2310F0400F09D0B1F8FE2322F00302CF
:1057B00022F4254242F42542A1F8FE2310F0800F86
:1057C00008BF704776200649086070470004014012
:1057D0000000A5A500800440FC3B054000400540BA
:1057E0000C080540024908401CBF02490860704788
:1057F0001F0F1F3F1454054010B504460C48B0F865
:10580000FE0310F0080F04D140F2652109A0FAF759
:10581000F5FD022C18BF202C04D040F2662105A013
:10582000FAF7ECFD0E490220A043087010BD0000FD
:10583000004005402E2E5C647269766572735C6868
:105840006333325F6C6C5F6472697665725C73722D
:10585000635C686333325F6C6C5F7077632E6300E8
:10586000C4CC04402DE9F0470C0006464FF0000878
:1058700008BF6FF0020800F0DC806F48B0F8FE034C
:1058800010F0080F04D14FF4CF716CA0FAF7B6FDF9
:10589000002E18BF012E04D040F29F1167A0FAF726
:1058A000ADFD2068202818BF002804D04FF4D07127
:1058B00062A0FAF7A3FDA06800281CBFA0F58071C4
:1058C000B1F1010108D0012818BF032804D040F22B
:1058D000A1115AA0FAF792FD6068042818BF0028A9
:1058E00004D04FF4D17155A0FAF788FDE068002884
:1058F00018BF012804D040F2A31150A0FAF77EFD92
:105900002069042818BF022808D0002818BF0628DC
:1059100004D04FF4D27149A0FAF770FD61690029F3
:1059200018BF012910D0022918BF03290CD004295F
:1059300018BF052908D0062918BF072904D040F24E
:10594000A5113EA0FAF75AFDA06900281CBF022845
:10595000042804D04FF4D37138A0FAF74FFDDFF8D4
:10596000089199F80010B500012000FA05F741EA06
:10597000070089F800003D490A782020B0402378CC
:105980008243B3401840104308700A20FCF714FF0C
:1059900099F800100720A84021EA0002217B237C0F
:1059A0001943A9400140114389F8001009F104018D
:1059B0000A78237D8243AB401840104308702C4A7C
:1059C00011780620A840237E8143AB40184008434D
:1059D0001070A9F104010B780420A84094F804C0C9
:1059E00083430CFA05FC0CEA0000184308700B789E
:1059F0000220A84023EA000C237AAB4003404CEA83
:105A000003030B70137823EA070C23891B0AAB40AE
:105A10003B404CEA03031370121D137823EA000085
:105A20001070087820EA0702207AA8403840104316
:105A300008704046BDE8F087004005402E2E5C64AB
:105A40007269766572735C686333325F6C6C5F6435
:105A500072697665725C7372635C686333325F6C23
:105A60006C5F7077632E63001CCC044014CC044040
:105A7000C0CC04400022002808BF6FF0020209D009
:105A80000021016001234160C0E902130623C0E93F
:105A90000431816110467047144900B5B1F8FE2306
:105AA00087B04AF208501043A1F8FE030220FFF726
:105AB000A3FE2020FFF7A0FE6846FFF7DBFF2020B3
:105AC000009004200021CDE901010590069069466F
:105AD0000020FFF7C7FE6420FCF76EFE0220FFF7F0
:105AE0008BFE2020FFF788FE07B000BD0040054078
:105AF0002DE9F041764F054684B038680C46002603
:105B0000009078680190B8680290F86811F0E06F32
:105B100003901CBF04F0E060B0F1807F12D0B0F1C0
:105B2000007F18BFB0F1407F0CD0B0F1806F1CBF78
:105B3000B0F1A06FB0F1C06F04D040F22E216548E3
:105B4000FAF75CFC14F0700F1CBF04F07000102812
:105B50000DD0202818BF302809D040281CBF50285D
:105B6000602804D040F22F215A48FAF747FC14F479
:105B7000E02F1CBF04F4E021B1F5803F12D0B1F555
:105B8000003F18BFB1F5403F0CD0B1F5802F1CBFCE
:105B9000B1F5A02FB1F5C02F04D04FF40C714D48D2
:105BA000FAF72CFC14F0070F1CBF04F007010129C1
:105BB0000DD0022918BF032909D004291CBF0529CB
:105BC000062904D040F231214248FAF717FC14F4B8
:105BD000E06F1CBF04F4E061B1F5807F12D0B1F535
:105BE000007F18BFB1F5407F0CD0B1F5806F1CBFAE
:105BF000B1F5A06FB1F5C06F04D040F23221354845
:105C0000FAF7FCFB14F4E04F1CBF04F4E041B1F5DB
:105C1000805F12D0B1F5005F18BFB1F5405F0CD0C6
:105C2000B1F5804F1CBFB1F5A04FB1F5C04F04D006
:105C300040F233212748FAF7E1FB2748054204D117
:105C40004FF40D712348FAF7D9FBDFF89080B8F8CC
:105C5000FE0310F0010F04D140F235211D48FAF780
:105C6000CDFB98F8260000F00700052812D138690E
:105C7000012610F0010F04D14FF40F711548FAF707
:105C8000BDFB17483860C0127860B860F8601E200D
:105C9000FCF792FDD8F8200004EA0501A843084368
:105CA000C8F820001E20FCF787FD002E04BF04B0BA
:105CB000BDE8F08100983860019878600298B8607B
:105CC0000398F86004B01E20BDE8F041FCF774BDF5
:105CD000008004409C1D00007777070700400540C6
:105CE0000EFAFFFF10EE100A1B4B9FED1A1A984296
:105CF000C6BFDFED1A0A70EEC00AF0EE400A10EEE1
:105D0000900A17490844B0F5000F3CBFDFED151AA3
:105D100071EEE00A9FED142AF6EE001A134940EEE8
:105D2000821A134AFCEEE10A10EE900A80B201EBEF
:105D30008001FF28D1ED000A98BF91ED011A82ED94
:105D4000001A10EE100A9842ACBFB1EE600AB0EE35
:105D5000600A704700000000DB0F4940DB0FC940BC
:105D600024F036C0DB0F494083F9224344C2FF1FB1
:105D700008C2FF1F1E4810B4006810F0010F1D4834
:105D800014BF1D491D49DFF878C041609CF82610FA
:105D90004FF4004301F007021A49062A24BF10BC41
:105DA0007047DFE802F003040704070A4168016056
:105DB00010BC7047036010BC7047DCF80021C2F3D0
:105DC0000823DCF80021DCF800C1120F0E4C0CF0A7
:105DD0001F0CE469002C18BF41680CF1010CB1FBE9
:105DE000FCF15B1C5943521CB1FBF2F1DFE70000F0
:105DF0008406014058CBFF1F0024F400002D310120
:105E00000040054000127A000020A842054800B575
:105E1000016841F470010160FFF7ACFF0249002006
:105E2000086000BD88ED00E008ED00E070B50446B4
:105E3000A0F1804016460D46B0F510301CBFA4F10D
:105E40008040B0F5113004D040F237210FA0FAF7AE
:105E5000D5FA002D18BF012D04D04FF40E710BA000
:105E6000FAF7CCFA28014FF4005101FA00F54EB1CF
:105E7000012E04BF2069284306D040F2392103A037
:105E8000FAF7BCFA2069A843206170BD2E2E5C642D
:105E90007269766572735C686333325F6C6C5F64E1
:105EA00072697665725C7372635C686333325F6CCF
:105EB0006C5F746D72302E63000000002DE9F041BC
:105EC00014000E4605464FF0000808BF6FF00208A8
:105ED00000F07580A5F18040B0F510301CBFA5F131
:105EE0008040B0F5113003D0F62136A0FAF786FADB
:105EF000002E18BF012E04D04FF0F70131A0FAF7A1
:105F00007DFA2068002818BFB0F5007F0AD0B0F5F0
:105F1000807F18BFB0F5A06F04D04FF0F80129A022
:105F2000FAF76CFA6368002B18BF102B15D0202BE2
:105F300018BF302B11D0402B18BF502B0DD0602B29
:105F400018BF702B09D0802B1CBF902BA02B04D026
:105F50004FF0F9011BA0FAF751FAA06800281CBF06
:105F6000A0F50041B1F1020103D0FA2115A0FAF722
:105F700045FA05EB8607002038603146284600F0D8
:105F8000CDF8A089B8603146284600F0C7F82A69E4
:105F9000300148F2F27101FA00F39A43D4E9003C6F
:105FA00043EA0C03D4F808C043EA0C03194001FA91
:105FB00000F0104328613146284600F0AFF8404613
:105FC000BDE8F0812E2E5C647269766572735C6840
:105FD0006333325F6C6C5F6472697665725C737296
:105FE000635C686333325F6C6C5F746D72302E6318
:105FF0000000000070B50446A0F1804016460D4632
:10600000B0F510301CBFA4F18040B0F5113004D0C1
:1060100040F269210DA0FAF7F1F915B135F00C1035
:1060200004D040F26A2109A0FAF7E8F94EB1012E36
:1060300004BF2069284306D040F26B2103A0FAF781
:10604000DDF92069A843206170BD00002E2E5C643C
:106050007269766572735C686333325F6C6C5F641F
:1060600072697665725C7372635C686333325F6C0D
:106070006C5F746D72302E630000000070B50446D2
:10608000A0F180400D46B0F510301CBFA4F1804057
:10609000B0F5113004D04FF497710CA0FAF7AEF9B7
:1060A000002D18BF012D04D040F22F1107A0FAF7E0
:1060B000A5F920692901012202FA01F108432061B2
:1060C00029462046BDE8704000F028B82E2E5C64BA
:1060D0007269766572735C686333325F6C6C5F649F
:1060E00072697665725C7372635C686333325F6C8D
:1060F0006C5F746D72302E63000000000021002878
:1061000008BF6FF0020106D0002202604260826088
:106110004FF6FF728281084670470000134A10B4A0
:10612000126A134BC2F302624FF0000C1B6823FA91
:1061300002F2D20B02EB8202D202002907BF4FF417
:10614000807319464FF08073194604691C4201D1CF
:1061500008E000BF521E03D043690B42F9D001E0B2
:106160006FF0070C10BC604670470000004005400F
:1061700058CBFF1F30B5012185B00803FCF75CFF49
:1061800001214803FCF758FF6846FFF7B7FF0024DA
:106190004EF66020254DADF80C0000940194029459
:1061A0006A4621462846FFF789FE0120FCF7E2FAFD
:1061B000012200212846FFF739FE0120FCF7DAFA18
:1061C000012204212846FFF715FF6846FFF796FFD6
:1061D00000940194029440F2FA50154CADF80C0072
:1061E0006A4600212046FFF769FE0120FCF7C2FA4B
:1061F000012200212046FFF719FE0120FCF7BAFA20
:10620000012204212046FFF7F5FE0A4A4FF400510F
:10621000C2F880120848202380F800348432D16705
:1062200000212846FFF72AFF05B030BD004002409C
:106230000044024004E000E02DE000E010B5012140
:106240008AB00802FCF72CFF04A8FDF7F5F94FF41B
:106250000040ADF8260004AA80210020FCF7AEFF24
:10626000022240210020FDF739F96846FCF7CAF9FF
:106270000120ADF800000420ADF802000020ADF8C8
:106280000400ADF806000520ADF808000620084C13
:10629000ADF80A0069462046FCF7C4F80121204603
:1062A000FCF762F801212046FCF76EF90AB010BD38
:1062B00000840340C720FFF713FAFBF7CFFCFFF77A
:1062C00059FFFDF7CFF9FFF7E7FBFCF797FAFCF76B
:1062D000ABF9FCF731FEFDF7ABFCFB4E306840F04C
:1062E00001003060F948016841F001010160DFF808
:1062F000E083D8F8000040F00100C8F80000FBF788
:1063000003FDFAF772F8F34D3C21287820F03300B2
:1063100040F020002870F048C0F8F0130321C0F8C6
:10632000F413C0F8FC1300244460EC494BF6CD3064
:106330000860EB48FFF756FA8320FFF711FAE94FA0
:10634000DFF8A4830126E948416911F0010FFAD072
:10635000416921F001014161DFF89493B9F800002F
:10636000C22859D004DCC02805D0C12824D0A6E01A
:10637000C32850D192E0DF49088800281CBF401E86
:10638000088048D1DFF870A3C120A9F80000BAF84E
:10639000FE134AF208500843AAF8FE030220FFF752
:1063A0002BFABAF8FE0320F4A16020F4204040F458
:1063B0002540AAF8FE0382E0C548016821F00101EA
:1063C0000160C148016821F001010160CB48CD4A5C
:1063D00040F672410670CA480088723080B2108060
:1063E000884203D840F27441884200D21180C22012
:1063F000A9F80000C448C549046040F6054008609B
:10640000C34932200880C34888F8006041F609017A
:106410000160C148047052E0C048BE4AB9490068F2
:106420001060088840F67243984203D840F27443E3
:10643000984200D20B8098F8000000283FD0B44961
:10644000088820B1401E0004000C088037D1B448F1
:10645000B44900880860B448B44906704FF47A70B3
:106460000880B3481060B3480670B348007830B372
:10647000B2490878401CC0B2087013281FD90C70AC
:10648000C320A9F800009248016821F001010160D1
:106490008D48016821F00101016010E0A3490888DE
:1064A00020B1401E0004000C088008D19C480188DF
:1064B000A3480160A3480670CC20A9F80000A24BB5
:1064C00040F6B8311888401C80B21880884288BFD6
:1064D000198017D29D4840F209319D4A006800FB9F
:1064E00001F040F6970101EBD0209A4980B210806C
:1064F0000988884288BF1180118840F64230814265
:1065000038BF10808F4802785AB3DFF84CC29049E8
:10651000BCF800000988884208BFACF8001010D20F
:10652000DFF838A29AF8001001F10101C9B28AF827
:106530000010052915D9401CACF800008AF800406D
:106540000FE00ED9DFF814A29AF80010491CC9B266
:106550008AF80010052904D9401EACF800008AF81A
:106560000040B9F80000C12804D0C32818BFC228D1
:1065700005D020E063480188714801601BE0DFF826
:10658000D8B16748BBF800100088814213D2654932
:10659000DFF8ACA10968DAF800C08C4538BF0CF10F
:1065A0000301CAF80010814288BFCAF80000BAF897
:1065B0000000ABF80000DFF87CB19BF8000048B1A8
:1065C00067480088962808D96649042008805A48F8
:1065D000067002E0644904200880534800780028CF
:1065E000624890ED000AF8EEC00A6CD09FED601A88
:1065F0009FED600A604900EEC10A81ED000AB5EE28
:10660000C00AF1EE10FA38BFB1EE400ABCEEC00A83
:10661000DFF868C110EE100AC0B28CF800002A281A
:1066200084BF9FED570A81ED000A192838BFBBEEE1
:10663000090A01D281ED000A4F4890ED000ADFED12
:10664000510A5148514920EE200ADFF844C1DFF8D1
:1066500048A180ED000A0868BCF800C0A0EB10104B
:10666000604408604B49C0F30F1042F28D0C088063
:10667000BCFBF0F101FB10CCDFF820E11FFA8CFC31
:10668000AAF80010AEF800C0BCEB500F84BF481C45
:10669000AAF80000BAF80000FA2884BFFA20AAF885
:1066A00000007DD805283ABF0520AAF80000192867
:1066B00077D23878401CC0B23870642884BF642018
:1066C00038706FD8A0E06EE06886034048860340CB
:1066D0000886034010C0FF1F00C0034004C40340ED
:1066E00004000003B2C0FF1F40C0FF1F0040024073
:1066F0002EC0FF1F32C0FF1F0040054034C0FF1FE7
:10670000C0C0FF1F3AC0FF1F04C0FF1F48C0FF1FCB
:106710003CC0FF1F80C0FF1F30C0FF1FECC0FF1F29
:1067200042C0FF1F0CC0FF1F4CC0FF1F3EC0FF1F19
:106730007B2C0100B4C0FF1FB5C0FF1FB6C0FF1FF8
:1067400008C0FF1F36C0FF1F4EC0FF1FFCC0FF1F49
:1067500050C0FF1F44C0FF1F38C0FF1F5AC0FF1F9B
:10676000A4C0FF1F083805400A38054070C0FF1F4D
:106770008D31C63D1963A4C130C2FF1F38C2FF1F4F
:10678000000028C29A99593F34C2FF1FA8C0FF1FBA
:10679000A2C0FF1FB0C0FF1FACC0FF1FAEC0FF1FD5
:1067A00029E026E033E09FEDE91A9FEDE90AE94987
:1067B00000EEC10A81ED000AB5EEC00AF1EE10FA52
:1067C00038BFB1EE400ABCEEC00ADFF88CC310EE51
:1067D000100AC0B28CF800002D2884BF9FEDDF0A9C
:1067E00081ED000A1E2838BFBBEE0E0ABFF424AFAD
:1067F00020E7232808D93878401EC0B238700A280C
:106800003CBF0A20387007D33878502801D9D448C3
:1068100006703878142801D2D1480470D148006835
:10682000D1494843D149000C0880088800EE100A7D
:10683000B8EE400ADFEDCE0ADFF838C3DFF838A340
:1068400020EE200ABCEEC00A10EE100A80B2ACF8AE
:106850000600CAF80000B0F5256F88BF4FF4256028
:1068600005D8B0F5DC6F38BF4FF4DC6001D2CAF850
:1068700000004FF0DB0A00FB0AFA40F2B11EAEEB5B
:10688000DA2ADFF8F8E200EE100ACEF800A0C0EB3A
:10689000001A0AEBCA0A40F2122EAEEB9A2ADFF86F
:1068A000E0E2F8EE400ACEF800A000EB800A0AEB26
:1068B000401A4FF0220EAEEB1A3ADFF8C8E28EF81B
:1068C00000A09FEDB11AB0EE040AB04800EEC10A74
:1068D00010EE10AA80ED000ABAF17E5FC4BFB7EED9
:1068E000000A80ED000A10EE10AADFF8A4E2F245DB
:1068F000BCBF9FEDA80A80ED000AA7484FF4A83A54
:10690000008800FB0AF0000CACF80E00088840F686
:10691000E21C604504D8088840F2AA5C84451DD971
:10692000DFF878C2BCF80000B0F1010AACF800A0B2
:106930000FD22120ACF80000088840F6C41C844522
:10694000287820F033002CBF40F0200040F01000E9
:1069500028704FF46160DFF848C259E0088840F2BF
:10696000D25C844505D2B1F800C040F6C41084451D
:1069700014D3287810F0330F10D0088840F2DA7161
:1069800088428849888887BF20F0040040F00800CA
:1069900020F0080040F00400888044E0DFF800A206
:1069A000BAF80000B0F1010CAAF800C02DD24FF4E3
:1069B0006160AAF80000088840F6921C844504D360
:1069C000088840F20E6C60450ED2088840F2DA7CEE
:1069D0006045287820F0330086BF40F00100287021
:1069E00040F0020011D80FE0287810F0300F09D1E4
:1069F000B1F800C0BCF5C86F07D9B1F800C0BCF54C
:106A0000166F02D220F033002870DFF890C12120E9
:106A1000ACF80000287810F0330FAED161498888B7
:106A200020F00C00888060482978007801F0300C54
:106A30005CEA000C2ED05D4A88F80040B2F800C035
:106A40004CF0010CA2F800C0594A16701C80594B3A
:106A500004221A80584A136843F001031360574A0E
:106A6000136843F001031360554A136843F00103B0
:106A70001360544A1670544A1368544A1360544BB6
:106A800040F605421A60534B1A60534A8BF8004097
:106A9000147029E0464B88F8006093F800C0BCF100
:106AA000000F21D0C2B9DFF834C14FF4FA72ACF84C
:106AB0000020C022A9F80020494ADFF828C114604C
:106AC00040F60542CCF80020474A1460474A14605B
:106AD000474A1460474A1460344AB2F800C02CF0A8
:106AE000010CA2F800C01C7011F0300F24D0424AF3
:106AF0004FF47A7111804910518040490978084358
:106B000005D03D484FF4FA710180FA2141803C499B
:106B1000394A0888401C80B208801388984288BF90
:106B20000C800FD8518881423CBF4FF4006035493A
:106B3000BFF409AC088006E40128DED02F490978AB
:106B40000129DAD04FF400602F49F3E70821843D92
:106B50001142D8C130C2FF1F38C2FF1F000034C22B
:106B6000B3C0FF1F74C0FF1FA0AA0100BAC0FF1F5F
:106B7000CDCC8C3F90CAFF1FFCC0FF1FF4C0FF1F8D
:106B8000F8C0FF1F40C2FF1F0BBC323A3CC2FF1FC0
:106B90003333333F3333333FC0C0FF1F12C0FF1FB7
:106BA00014C0FF1FA0CAFF1FD0C0FF1F2CC0FF1FB3
:106BB00041C0FF1F0A38054048860340088603404D
:106BC00068860340D8C0FF1F84C0FF1F80C0FF1F1E
:106BD00088C0FF1F8CC0FF1FB5C0FF1F32C0FF1F42
:106BE00004C0FF1F48C0FF1F94C1FF1FA8C1FF1FA3
:106BF000C0C1FF1FC4C1FF1F00C0FF1FD1C0FF1FC6
:106C0000B8C0FF1F2A3805402838054010B591EA62
:106C1000030F48BF83F0004300F1D481841A71EB65
:106C2000030C05D2121943EB0C03001B61EB0C01A2
:106C3000DFF824E14FEA1154A4EB135C1EEA430F82
:106C400018BF9EEA445F73D023EA0E03DCF1200EE6
:106C500021EA045143F4801332D322FA0CFE10EBE4
:106C60000E0023FA0CFE41EB0E01CCF1200E03FACC
:106C70000EFE10EB0E0051F10001B1F5801FCCF1BA
:106C8000200E32D201EB045112FA0EF2BDE8104090
:106C900058BF7047401C38BF5FEA420218BF7047B8
:106CA000002814BF20F0010041F100014FEA410328
:106CB00013F5001F38BF7047A1F1C04100F074B94F
:106CC000012A43EB0302ACF1200CDCF11F0E32BFB2
:106CD0004FF0000E23FA0CF310EB030041EB0451CC
:106CE000B4EB115FD0D0A1EB045101F5801149083C
:106CF0005FEA300001EB04510ED350F1000038BFC1
:106D000012FA0EFE08D1BDE81040C9E7401C38BF9A
:106D10005FEA4202CAD1C3E7BDE810404FEA41032F
:106D200013F5001F38BF7047A1F1C04100F03CB916
:106D30009EEA445F08D011EA5E0FBDE8104004BF30
:106D400001F0004100207047BDE8104070B500F030
:106D5000DDF800BF64FBBE3E0000E0FF4FEA1153C8
:106D6000A3F58063D3F11E03A8BFD3F1200C08DB89
:106D70004FF0004242EAC12252EA505232FA03F086
:106D8000704709420BD4102BC4BF0020704703F595
:106D9000787CBCF1FF3F05D04FF0FF3070474FF0DB
:106DA0000000704770B500F0B1F800BF4992248030
:106DB00000207047F0E70000DFF848C170B51CEA1A
:106DC000111E1EBF1CEA13159EEA0C0F95EA0C0F4C
:106DD00000F06F8081EA030423EA4C134EEAD47E6C
:106DE00021EA4C1141F4801143F48013AE44A1FB1D
:106DF000024CA0FB0365AEF17F7E361955EB0C0506
:106E0000A1FB034C4CF10003A0FB021C16EB0C068B
:106E1000654153F10003094218BF46F0010613F41F
:106E2000007F0BD14FEA03314FEA0530340341EACA
:106E3000155140EA16506FF003020AE04FEAC321F1
:106E40004FEAC520F40241EA555140EA56506FF02E
:106E5000020202EB2E4201EB025585EACE710AD006
:106E60005FEA440C18BF24F0004450F1000041F1E7
:106E7000000120EAD47040F2FE7C624500D270BD71
:106E8000A84214BF4FF080444FF04044002E08BF8A
:106E90000024BEF1806FA8BFA1F1C041BDE87040E1
:106EA00080F282804FF0000001F1C04101F000410A
:106EB00070479EEA0C0F0CEA131518BF95EA0C0FE9
:106EC00006D04FF0000081EA030E0EF0004170BDC5
:106ED00000F01CF88900013E00F007B800F009B886
:106EE0004FEA430C5FEA5C5C08D081EA030100F0E2
:106EF0005BB84FEA410C5FEA5C5CF6D14FF00000F2
:106F0000014970470000FF070000F87F0EF1020EF4
:106F10002EF0030E5EF8046B364205D4012A43EBD3
:106F2000030515F5001F12D8012841EB010C1CF5D3
:106F3000001F0CD80ED14FEAD17C15F5001F0CEBC9
:106F40004C0C0CF1020C08BF4CEBD37C04E04FF06E
:106F5000080C01E04FEAD37C0CEB4C0526FA05F651
:106F600006F00706B6F1040C06D20EEB860CBDE85F
:106F700070404CF0010C6047DFE80CF0090B020296
:106F80004FF000414FF00000A1F5002170BD1946FF
:106F90001046012851EB010418BFD4F5001484BF3A
:106FA000002001F0004170BD0808A0F500114FEA73
:106FB0003101704710B591EA030F48BF83F00043D9
:106FC0003FF52CAE841A71EB030C07D212198CF02A
:106FD000004C43EB0C03001B61EB0C01DFF8A4E158
:106FE0004FEA1154A4EB135C1EEA430F18BF9EEA4C
:106FF000445F00F0B08023EA6E03524221EA04515C
:10700000C3EB6E0338BF5B1EDCF1200E25D322FAE2
:107010000CFE10EB0E0043FA0CFE41EB0E01CCF11E
:10702000200E03FA0EFE10EB0E0051F10001CCF120
:10703000200E29D412FA0EF201EB0451BDE81040E3
:1070400058BF7047401C1CBFB2F1004F704700286A
:107050000CBF491C20F00100704712EB020E43EBFD
:10706000030218BF4FF0010E4EEA4202ACF1200CB1
:10707000DCF11E0E54D943FA0CFE10EB0E0051F158
:10708000FF31CCF11E0ED5D50EF1010E12FA0EFE17
:10709000404141EB010101EB445C5FEA5C5C10D9CB
:1070A00010EBDE7001EB045138BFBEF1004FBDE8BC
:1070B000104018BF704700280CBF491C20F0010089
:1070C000704730D24FEAD42C11F5001124F400643B
:1070D0001BD0B1FA81F20B3AA41AA41ED2F12003FC
:1070E000914030FA03F31943904001EBCC71002C2E
:1070F00001EB0451BDE81040A8BF704701F1C04149
:107100004FF0000001F000417047B0FA80F310FA30
:1071100003F100D110BDE41A173C4805C90AE4E7A1
:1071200001EB045110BD491001EB0451BDE81040C2
:107130004FEA300002E04FF0000170474A0008BFFC
:107140000042F8D0B2F5001F28BF704701F000419F
:107150004FF0000070479EEA445F07D011EA5E0FCF
:10716000BDE8104004BF002100207047BDE810407A
:1071700070B5FFF7CBFE00BF40DFF63E83F0004165
:10718000104670470000E0FF43004FEAD30C4FEA7F
:107190003C0C43401FBF40070CF1605113F0FE4F01
:1071A00070471CF0006F03D100200CF000417047C5
:1071B0000CF0004343EA507010B540EACC0000F0F8
:1071C0000EF800BF000000924FEA0001FFF7ECBE8E
:1071D0004FF000414FF00000A1F5002170470EF183
:1071E000020E2EF0030E5EF8044B244204D44FEA44
:1071F0004102B2F17F4F11D84FEA4003B3F17F4F04
:107200000CD80ED14FEAD07CB2F17F4F0CEB4C0C76
:107210000CF1020C08BF4CEBD17C04E04FF0080CE1
:1072200001E04FEAD17C0CEB4C0324FA03F404F0A8
:107230000704B4F1040C06D20EEB840CBDE8104038
:107240004CF0010C6047DFE80CF0070802024FF039
:107250000040A0F5800010BD0846420018BFD2F1E2
:10726000807288BF00F0004010BD4FF04070E1EE2A
:10727000100A7047050C0000110C00001C0C0000E7
:10728000270C0000320C00003D0C0000480C0000F0
:10729000530C00005E0C0000690C0000740C000030
:1072A0007F0C00008A0C0000950C0000A00C000070
:1072B000AB0C0000B60C0000C10C0000CC0C0000B0
:1072C000D70C0000E20C0000ED0C0000F80C0000F0
:1072D000030D00000E0D0000190D0000240D00002C
:1072E0002F0D00003A0D0000450D0000500D00006C
:1072F0005B0D0000660D0000710D00007C0D0000AC
:10730000870D0000920D00009D0D0000A80D0000EB
:10731000B30D0000BE0D0000C90D0000D40D00002B
:10732000DF0D0000EA0D0000F50D0000000E00006A
:107330000B0E0000160E0000210E00002C0E0000A7
:10734000370E0000420E00004D0E0000580E0000E7
:10735000630E00006E0E0000790E0000840E000027
:107360008F0E00009A0E0000A50E0000B00E000067
:10737000BB0E0000C60E0000D10E0000DC0E0000A7
:10738000E70E0000F20E0000FD0E0000080F0000E6
:10739000130F00001E0F0000290F0000340F000023
:1073A0003F0F00004A0F0000550F0000600F000063
:1073B0006B0F0000760F0000810F00008C0F0000A3
:1073C000970F0000A20F0000AD0F0000B80F0000E3
:1073D000C30F0000CE0F0000D90F0000E40F000023
:1073E000EF0F0000FA0F0000051000001010000061
:1073F0001B10000026100000311000003C1000009F
:1074000047100000521000005D10000068100000DE
:10741000731000007E10000089100000941000001E
:107420009F100000AA100000B5100000C01000005E
:10743000CB100000D6100000E1100000EC1000009E
:10744000F7100000021100000D11000018110000DB
:10745000231100002E11000039110000441100001A
:107460004F1100005A11000065110000701100005A
:107470007B11000086110000911100009C1100009A
:10748000A7110000B2110000BD110000C8110000DA
:10749000D3110000DE110000E9110000F41100001A
:1074A000FF1100000A120000151200002012000057
:1074B0002B12000036120000411200004C12000096
:1074C00057120000621200006D12000078120000D6
:1074D000831200008E12000099120000A412000016
:1074E000AF120000BA120000C5120000D012000056
:1074F000DB120000E6120000F1120000FC12000096
:1075000007130000121300001D13000028130000D1
:10751000331300003E130000491300005413000011
:107520005F1300006A130000751300008013000051
:107530008B13000096130000A1130000AC13000091
:10754000B7130000C2130000CD130000D8130000D1
:10755000E3130000EE130000F91300000414000010
:107560000F1400001A14000025140000301400004D
:107570003B14000046140000511400005C1400008D
:1075800067140000721400007D14000088140000CD
:10759000931400009E140000A9140000B41400000D
:1075A000BF140000CA140000D5140000E01400004D
:1075B000EB140000F6140000011500000C1500008B
:1075C00017150000221500002D15000038150000C9
:1075D000431500004E150000591500006415000009
:1075E0006F1500007A150000851500009015000049
:1075F0009B150000A6150000B1150000BC15000089
:10760000C7150000D2150000DD150000E8150000C8
:10761000F3150000FE150000091600001416000006
:107620001F1600002A160000351600004016000044
:107630004B16000056160000611600006C16000084
:1076400077160000821600008D16000098160000C4
:10765000A3160000AE160000B9160000C416000004
:10766000CF160000DA160000E5160000F016000044
:10767000FB16000006170000111700001C17000081
:1076800027170000321700003D17000048170000C0
:10769000531700005E170000691700007417000000
:1076A0007F1700008A17000095170000A017000040
:1076B000AB170000B6170000C1170000CC17000080
:1076C000D7170000E2170000ED170000F8170000C0
:1076D000031800000E1800001918000024180000FC
:1076E0002F1800003A18000045180000501800003C
:1076F0005B18000066180000711800007C1800007C
:1077000087180000921800009D180000A8180000BB
:10771000B3180000BE180000C9180000D4180000FB
:10772000DF180000EA180000F5180000001900003A
:107730000B19000016190000211900002C19000077
:1077400037190000421900004D19000058190000B7
:10775000631900006E1900007919000084190000F7
:107760008F1900009A190000A5190000B019000037
:10777000BB190000C6190000D1190000DC19000077
:10778000E7190000F2190000FD190000081A0000B6
:10779000131A00001E1A0000291A0000341A0000F3
:1077A0003F1A00004A1A0000551A0000601A000033
:1077B0006B1A0000761A0000811A00008C1A000073
:1077C000971A0000A21A0000AD1A0000B81A0000B3
:1077D000C31A0000CE1A0000D91A0000E41A0000F3
:1077E000EF1A0000FA1A0000051B0000101B000031
:1077F0001B1B0000261B0000311B00003C1B00006F
:10780000471B0000521B00005D1B0000681B0000AE
:10781000731B00007E1B0000891B0000941B0000EE
:107820009F1B0000AA1B0000B51B0000C01B00002E
:10783000CB1B0000D61B0000E11B0000EC1B00006E
:10784000F71B0000021C00000D1C0000181C0000AB
:10785000231C00002E1C0000391C0000441C0000EA
:107860004F1C00005A1C0000651C0000701C00002A
:107870007B1C0000861C0000911C00009C1C00006A
:10788000A71C0000B21C0000BD1C0000C81C0000AA
:10789000D31C0000DE1C0000E91C0000F41C0000EA
:1078A000FF1C00000A1D0000151D0000201D000027
:1078B0002B1D0000361D0000411D00004C1D000066
:1078C000571D0000621D00006D1D0000781D0000A6
:1078D000831D00008E1D0000991D0000A41D0000E6
:1078E000AF1D0000BA1D0000C51D0000D01D000026
:1078F000DB1D0000E61D0000F11D0000FC1D000066
:10790000071E0000121E00001D1E0000281E0000A1
:10791000331E00003E1E0000491E0000541E0000E1
:107920005F1E00006A1E0000751E0000801E000021
:107930008B1E0000961E0000A11E0000AC1E000061
:10794000B71E0000C21E0000CD1E0000D81E0000A1
:10795000E31E0000EE1E0000F91E0000041F0000E0
:107960000F1F00001A1F0000251F0000301F00001D
:107970003B1F0000461F0000511F00005C1F00005D
:10798000671F0000721F00007D1F0000881F00009D
:10799000931F00009E1F0000A91F0000B41F0000DD
:1079A000BF1F0000CA1F0000D51F0000E01F00001D
:1079B000EB1F0000F61F0000012000000C2000005B
:1079C00017200000222000002D2000003820000099
:1079D000432000004E2000005920000064200000D9
:1079E0006F2000007A200000852000009020000019
:1079F0009B200000A6200000B1200000BC20000059
:107A0000C7200000D2200000DD200000E820000098
:107A1000F3200000FE2000000921000014210000D6
:107A20001F2100002A210000352100004021000014
:107A30004B21000056210000612100006C21000054
:107A400077210000822100008D2100009821000094
:107A5000A3210000AE210000B9210000C4210000D4
:107A6000CF210000DA210000E5210000F021000014
:107A7000FB21000006220000112200001C22000051
:107A800027220000322200003D2200004822000090
:107A9000532200005E2200006922000074220000D0
:107AA0007F2200008A22000095220000A022000010
:107AB000AB220000B6220000C1220000CC22000050
:107AC000D7220000E2220000ED220000F822000090
:107AD000032300000E2300001923000024230000CC
:107AE0002F2300003A23000045230000502300000C
:107AF0005B23000066230000712300007C2300004C
:107B000087230000922300009D230000A82300008B
:107B1000B3230000BE230000C9230000D4230000CB
:107B2000DF230000EA230000F5230000002400000A
:107B30000B24000016240000212400002C24000047
:107B400037240000422400004D2400005824000087
:107B5000632400006E2400007924000084240000C7
:107B60008F2400009A240000A5240000B024000007
:107B7000BB240000C6240000D1240000DC24000047
:107B8000E7240000F2240000FD2400000825000086
:107B9000132500001E2500002925000034250000C3
:107BA0003F2500004A250000552500006025000003
:107BB0006B25000076250000812500008C25000043
:107BC00097250000A2250000AD250000B825000083
:107BD000C3250000CE250000D9250000E4250000C3
:107BE000EF250000FA250000052600001026000001
:107BF0001B26000026260000312600003C2600003F
:107C000047260000522600005D260000682600007E
:107C1000732600007E2600008926000094260000BE
:107C20009F260000AA260000B5260000C0260000FE
:107C3000CB260000D6260000E1260000EC2600003E
:107C4000F7260000022700000D270000182700007B
:107C5000232700002E2700003927000044270000BA
:107C60004F2700005A2700006527000070270000FA
:107C70007B27000086270000912700009C2700003A
:107C8000A7270000B2270000BD270000C82700007A
:107C9000D3270000DE270000E9270000F4270000BA
:107CA000FF2700000A2800001528000020280000F7
:107CB0002B28000036280000412800004C28000036
:107CC00057280000622800006D2800007828000076
:107CD000832800008E28000099280000A4280000B6
:107CE000AF280000BA280000C5280000D0280000F6
:107CF000DB280000E6280000F1280000FC28000036
:107D000007290000122900001D2900002829000071
:107D1000332900003E2900004929000054290000B1
:107D20005F2900006A2900007529000080290000F1
:107D30008B29000096290000A1290000AC29000031
:107D4000B7290000C2290000CD290000D829000071
:107D5000E3290000EE290000F9290000042A0000B0
:107D60000F2A00001A2A0000252A0000302A0000ED
:107D70003B2A0000462A0000512A00005C2A00002D
:107D8000672A0000722A00007D2A0000882A00006D
:107D9000932A00009E2A0000A92A0000B42A0000AD
:107DA000BF2A0000CA2A0000D52A0000E02A0000ED
:107DB000EB2A0000F62A0000012B00000C2B00002B
:107DC000172B0000222B00002D2B0000382B000069
:107DD000432B00004E2B0000592B0000642B0000A9
:107DE0006F2B00007A2B0000852B0000902B0000E9
:107DF0009B2B0000A62B0000B12B0000BC2B000029
:107E0000C72B0000D22B0000DD2B0000E82B000068
:107E1000F32B0000FE2B0000092C0000142C0000A6
:107E20001F2C00002A2C0000352C0000402C0000E4
:107E30004B2C0000562C0000612C00006C2C000024
:107E4000772C0000822C00008D2C0000982C000064
:107E5000A32C0000AE2C0000B92C0000C42C0000A4
:107E6000CF2C0000DA2C0000E52C0000F02C0000E4
:107E7000FB2C0000062D0000112D00001C2D000021
:107E8000272D0000322D00003D2D0000482D000060
:107E9000532D00005E2D0000692D0000742D0000A0
:107EA0007F2D00008A2D0000952D0000A02D0000E0
:107EB000AB2D0000B62D0000C12D0000CC2D000020
:107EC000D72D0000E22D0000ED2D0000F82D000060
:107ED000032E00000E2E0000192E0000242E00009C
:107EE0002F2E00003A2E0000452E0000502E0000DC
:107EF0005B2E0000662E0000712E00007C2E00001C
:107F0000872E0000922E00009D2E0000A82E00005B
:107F1000B32E0000BE2E0000C92E0000D42E00009B
:107F2000DF2E0000EA2E0000F52E0000002F0000DA
:107F30000B2F0000162F0000212F00002C2F000017
:107F4000372F0000422F00004D2F0000582F000057
:107F5000632F00006E2F0000792F0000842F000097
:107F60008F2F00009A2F0000A52F0000B02F0000D7
:107F7000BB2F0000C62F0000D12F0000DC2F000017
:107F8000E72F0000F22F0000FD2F00000830000056
:107F9000133000001E300000293000003430000093
:107FA0003F3000004A3000005530000060300000D3
:107FB0006B30000076300000813000008C30000013
:107FC00097300000A2300000AD300000B830000053
:107FD000C3300000CE300000D9300000E430000093
:107FE000EF300000FA3000000531000010310000D1
:107FF0001B31000026310000313100003C3100000F
:1080000047310000523100005D310000683100004E
:10801000733100007E31000089310000943100008E
:108020009F310000AA310000B5310000C0310000CE
:10803000CB310000D6310000E1310000EC3100000E
:10804000F7310000023200000D320000183200004B
:10805000233200002E32000039320000443200008A
:108060004F3200005A3200006532000070320000CA
:108070007B32000086320000913200009C3200000A
:10808000A7320000B2320000BD320000C83200004A
:10809000D3320000DE320000E9320000F43200008A
:1080A000FF3200000A3300001533000020330000C7
:1080B0002B33000036330000413300004C33000006
:1080C00057330000623300006D3300007833000046
:1080D000833300008E33000099330000A433000086
:1080E000AF330000BA330000C5330000D0330000C6
:1080F000DB330000E6330000F1330000FC33000006
:1081000007340000123400001D3400002834000041
:10811000333400003E340000493400005434000081
:108120005F3400006A3400007534000080340000C1
:108130008B34000096340000A1340000AC34000001
:10814000B7340000C2340000CD340000D834000041
:10815000E3340000EE340000F93400000435000080
:108160000F3500001A3500002535000030350000BD
:108170003B35000046350000513500005C350000FD
:1081800067350000723500007D350000883500003D
:10819000933500009E350000A9350000B43500007D
:1081A000BF350000CA350000D5350000E0350000BD
:1081B000EB350000F6350000013600000C360000FB
:1081C00017360000223600002D3600003836000039
:1081D000433600004E360000593600006436000079
:1081E0006F3600007A3600008536000090360000B9
:1081F0009B360000A6360000B1360000BC360000F9
:10820000C7360000D2360000DD360000E836000038
:10821000F3360000FE360000083700001237000079
:108220001C37000026370000303700003A370000C6
:10823000443700004E370000583700006237000016
:108240006C37000076370000803700008A37000066
:10825000943700009E370000A8370000B2370000B6
:10826000BC370000C6370000D0370000DA37000006
:10827000E4370000EE370000F83700000238000055
:108280000C38000016380000203800002A380000A2
:10829000343800003E3800004838000052380000F2
:1082A0005C38000066380000703800007A38000042
:1082B000843800008E38000098380000A238000092
:1082C000AC380000B6380000C0380000CA380000E2
:1082D000D4380000DE380000E8380000F238000032
:1082E000FC38000006390000103900001A3900007F
:1082F000243900002E3900003839000042390000CE
:108300004C39000056390000603900006A3900001D
:10831000743900007E39000088390000923900006D
:108320009C390000A6390000B0390000BA390000BD
:10833000C4390000CE390000D8390000E23900000D
:10834000EC390000F6390000003A00000A3A00005B
:10835000143A00001E3A0000283A0000323A0000A9
:108360003C3A0000463A0000503A00005A3A0000F9
:10837000643A00006E3A0000783A0000823A000049
:108380008C3A0000963A0000A03A0000AA3A000099
:10839000B43A0000BE3A0000C83A0000D23A0000E9
:1083A000DC3A0000E63A0000F03A0000FA3A000039
:1083B000043B00000E3B0000183B0000223B000085
:1083C0002C3B0000363B0000403B00004A3B0000D5
:1083D000543B00005E3B0000683B0000723B000025
:1083E0007C3B0000863B0000903B00009A3B000075
:1083F000A43B0000AE3B0000B83B0000C23B0000C5
:10840000CC3B0000D63B0000E03B0000EA3B000014
:10841000F43B0000FE3B0000083C0000123C000062
:108420001C3C0000263C0000303C00003A3C0000B0
:10843000443C00004E3C0000583C0000623C000000
:108440006C3C0000763C0000803C00008A3C000050
:10845000943C00009E3C0000A83C0000B23C0000A0
:10846000BC3C0000C63C0000D03C0000DA3C0000F0
:10847000E43C0000EE3C0000F83C0000023D00003F
:108480000C3D0000163D0000203D00002A3D00008C
:10849000343D00003E3D0000483D0000523D0000DC
:1084A0005C3D0000663D0000703D00007A3D00002C
:1084B000843D00008E3D0000983D0000A23D00007C
:1084C000AC3D0000B63D0000C03D0000CA3D0000CC
:1084D000D43D0000DE3D0000E83D0000F23D00001C
:1084E000FC3D0000063E0000103E00001A3E000069
:1084F000243E00002E3E0000383E0000423E0000B8
:108500004C3E0000563E0000603E00006A3E000007
:10851000743E00007E3E0000883E0000923E000057
:108520009C3E0000A63E0000B03E0000BA3E0000A7
:10853000C43E0000CE3E0000D83E0000E23E0000F7
:10854000EC3E0000F63E0000003F00000A3F000045
:10855000143F00001E3F0000283F0000323F000093
:108560003C3F0000463F0000503F00005A3F0000E3
:10857000643F00006E3F0000783F0000823F000033
:108580008C3F0000963F0000A03F0000AA3F000083
:10859000B43F0000BE3F0000C83F0000D23F0000D3
:1085A000DC3F0000E63F0000F03F0000FA3F000023
:1085B000044000000E40000018400000224000006F
:1085C0002C40000036400000404000004A400000BF
:1085D000544000005E40000068400000724000000F
:1085E0007C40000086400000904000009A4000005F
:1085F000A4400000AE400000B8400000C2400000AF
:10860000CC400000D6400000E0400000EA400000FE
:10861000F4400000FE40000008410000124100004C
:108620001C41000026410000304100003A4100009A
:10863000444100004E4100005841000062410000EA
:108640006C41000076410000804100008A4100003A
:10865000944100009E410000A8410000B24100008A
:10866000BC410000C6410000D0410000DA410000DA
:10867000E4410000EE410000F84100000242000029
:108680000C42000016420000204200002A42000076
:10869000344200003E4200004842000052420000C6
:1086A0005C42000066420000704200007A42000016
:1086B000844200008E42000098420000A242000066
:1086C000AC420000B6420000C0420000CA420000B6
:1086D000D4420000DE420000E8420000F242000006
:1086E000FC42000006430000104300001A43000053
:1086F000244300002E4300003843000042430000A2
:108700004C43000056430000604300006A430000F1
:10871000744300007E430000884300009243000041
:108720009C430000A6430000B0430000BA43000091
:10873000C4430000CE430000D8430000E2430000E1
:10874000EC430000F6430000004400000A4400002F
:10875000144400001E44000028440000324400007D
:108760003C44000046440000504400005A440000CD
:10877000644400006E44000078440000824400001D
:108780008C44000096440000A0440000AA4400006D
:10879000B4440000BE440000C8440000D2440000BD
:1087A000DC440000E6440000F0440000FA4400000D
:1087B000044500000E450000184500002245000059
:1087C0002C45000036450000404500004A450000A9
:1087D000544500005E4500006845000072450000F9
:1087E0007C45000086450000904500009A45000049
:1087F000A4450000AE450000B8450000C245000099
:10880000CC450000D6450000E0450000EA450000E8
:10881000F4450000FE450000084600001246000036
:108820001C46000026460000304600003A46000084
:10883000444600004E4600005846000062460000D4
:108840006C46000076460000804600008A46000024
:10885000944600009E460000A8460000B246000074
:10886000BC460000C6460000D0460000DA460000C4
:10887000E4460000EE460000F84600000247000013
:108880000C47000016470000204700002A47000060
:10889000344700003E4700004847000052470000B0
:1088A0005C47000066470000704700007A47000000
:1088B000844700008E47000098470000A247000050
:1088C000AC470000B6470000C0470000CA470000A0
:1088D000D4470000DE470000E8470000F2470000F0
:1088E000FC47000006480000104800001A4800003D
:1088F000244800002E48000038480000424800008C
:108900004C48000056480000604800006A480000DB
:10891000744800007E48000088480000924800002B
:108920009C480000A6480000B0480000BA4800007B
:10893000C4480000CE480000D8480000E2480000CB
:10894000EC480000F6480000004900000A49000019
:10895000144900001E490000284900003249000067
:108960003C49000046490000504900005A490000B7
:10897000644900006E490000784900008249000007
:108980008C49000096490000A0490000AA49000057
:10899000B4490000BE490000C8490000D2490000A7
:1089A000DC490000E6490000F0490000FA490000F7
:1089B000044A00000E4A0000184A0000224A000043
:1089C0002C4A0000364A0000404A00004A4A000093
:1089D000544A00005E4A0000684A0000724A0000E3
:1089E0007C4A0000864A0000904A00009A4A000033
:1089F000A44A0000AE4A0000B84A0000C24A000083
:108A0000CC4A0000D64A0000E04A0000EA4A0000D2
:108A1000F44A0000FE4A0000084B0000124B000020
:108A20001C4B0000264B0000304B00003A4B00006E
:108A3000444B00004E4B0000584B0000624B0000BE
:108A40006C4B0000764B0000804B00008A4B00000E
:108A5000944B00009E4B0000A84B0000B24B00005E
:108A6000BC4B0000C64B0000D04B0000DA4B0000AE
:108A7000E44B0000EE4B0000F84B0000024C0000FD
:108A80000C4C0000164C0000204C00002A4C00004A
:108A9000344C00003E4C0000484C0000524C00009A
:108AA0005C4C0000664C0000704C00007A4C0000EA
:108AB000844C00008E4C0000984C0000A24C00003A
:108AC000AC4C0000B64C0000C04C0000CA4C00008A
:108AD000D44C0000DE4C0000E84C0000F24C0000DA
:108AE000FC4C0000064D0000104D00001A4D000027
:108AF000244D00002E4D0000384D0000424D000076
:108B00004C4D0000564D0000604D00006A4D0000C5
:108B1000744D00007E4D0000884D0000924D000015
:108B20009C4D0000A64D0000B04D0000BA4D000065
:108B3000C44D0000CE4D0000D84D0000E24D0000B5
:108B4000EC4D0000F64D0000004E00000A4E000003
:108B5000144E00001E4E0000284E0000324E000051
:108B60003C4E0000464E0000504E00005A4E0000A1
:108B7000644E00006E4E0000784E0000824E0000F1
:108B80008C4E0000964E0000A04E0000AA4E000041
:108B9000B44E0000BE4E0000C84E0000D24E000091
:108BA000DC4E0000E64E0000F04E0000FA4E0000E1
:108BB000044F00000E4F0000184F0000224F00002D
:108BC0002C4F0000364F0000404F00004A4F00007D
:108BD000544F00005E4F0000684F0000724F0000CD
:108BE0007C4F0000864F0000904F00009A4F00001D
:108BF000A44F0000AE4F0000B84F0000C24F00006D
:108C0000CC4F0000D64F0000E04F0000EA4F0000BC
:108C1000F44F0000FE4F000008500000125000000A
:108C20001C50000026500000305000003A50000058
:108C3000445000004E5000005850000062500000A8
:108C40006C50000076500000805000008A500000F8
:108C5000945000009E500000A8500000B250000048
:108C6000BC500000C6500000D0500000DA50000098
:108C7000E4500000EE500000F850000002510000E7
:108C80000C51000016510000205100002A51000034
:108C9000345100003E510000485100005251000084
:108CA0005C51000066510000705100007A510000D4
:108CB000845100008E51000098510000A251000024
:108CC000AC510000B6510000C0510000CA51000074
:108CD000D4510000DE510000E8510000F2510000C4
:108CE000FC51000006520000105200001A52000011
:108CF000245200002E520000385200004252000060
:108D00004C52000056520000605200006A520000AF
:108D1000745200007E5200008852000092520000FF
:108D20009C520000A6520000B0520000BA5200004F
:108D3000C4520000CE520000D8520000E25200009F
:108D4000EC520000F6520000005300000A530000ED
:108D5000145300001E53000028530000325300003B
:108D60003C53000046530000505300005A5300008B
:108D7000645300006E5300007853000082530000DB
:108D80008C53000096530000A0530000AA5300002B
:108D9000B4530000BE530000C8530000D25300007B
:108DA000DC530000E6530000F0530000FA530000CB
:108DB000045400000E540000185400002254000017
:108DC0002C54000036540000405400004A54000067
:108DD000545400005E5400006854000072540000B7
:108DE0007C54000086540000905400009A54000007
:108DF000A4540000AE540000B8540000C254000057
:108E0000CC540000D6540000E0540000EA540000A6
:108E1000F4540000FE5400000855000012550000F4
:108E20001C55000026550000305500003A55000042
:108E3000445500004E550000585500006255000092
:108E40006C55000076550000805500008A550000E2
:108E5000945500009E550000A8550000B255000032
:108E6000BC550000C6550000D0550000DA55000082
:108E7000E4550000EE550000F855000002560000D1
:108E80000C56000016560000205600002A5600001E
:108E9000345600003E56000048560000525600006E
:108EA0005C56000066560000705600007A560000BE
:108EB000845600008E56000098560000A25600000E
:108EC000AC560000B6560000C0560000CA5600005E
:108ED000D4560000DE560000E8560000F2560000AE
:108EE000FC56000006570000105700001A570000FB
:108EF000245700002E57000038570000425700004A
:108F00004C57000056570000605700006A57000099
:108F1000745700007E5700008857000092570000E9
:108F20009C570000A6570000B0570000BA57000039
:108F3000C4570000CE570000D8570000E257000089
:108F4000EC570000F6570000005800000A580000D7
:108F5000145800001E580000285800003258000025
:108F60003C58000046580000505800005A58000075
:108F7000645800006E5800007858000082580000C5
:108F80008C58000096580000A0580000AA58000015
:108F9000B4580000BE580000C8580000D258000065
:108FA000DC580000E6580000F0580000FA580000B5
:108FB000045900000E590000185900002259000001
:108FC0002C59000036590000405900004A59000051
:108FD000545900005E5900006859000072590000A1
:108FE0007C59000086590000905900009A590000F1
:108FF000A4590000AE590000B8590000C259000041
:10900000CC590000D6590000E0590000EA59000090
:10901000F4590000FE590000085A0000125A0000DE
:109020001C5A0000265A0000305A00003A5A00002C
:10903000445A00004E5A0000585A0000625A00007C
:109040006C5A0000765A0000805A00008A5A0000CC
:10905000945A00009E5A0000A85A0000B25A00001C
:10906000BC5A0000C65A0000D05A0000DA5A00006C
:10907000E45A0000EE5A0000F85A0000025B0000BB
:109080000C5B0000165B0000205B00002A5B000008
:10909000345B00003E5B0000485B0000525B000058
:1090A0005C5B0000665B0000705B00007A5B0000A8
:1090B000845B00008E5B0000985B0000A25B0000F8
:1090C000AC5B0000B65B0000C05B0000CA5B000048
:1090D000D45B0000DE5B0000E85B0000F25B000098
:1090E000FC5B0000065C0000105C00001A5C0000E5
:1090F000245C00002E5C0000385C0000425C000034
:109100004C5C0000565C0000605C00006A5C000083
:10911000745C00007E5C0000885C0000925C0000D3
:109120009C5C0000A65C0000B05C0000BA5C000023
:10913000C45C0000CE5C0000D85C0000E25C000073
:10914000EC5C0000F65C0000005D00000A5D0000C1
:10915000145D00001E5D0000285D0000325D00000F
:109160003C5D0000465D0000505D00005A5D00005F
:10917000645D00006E5D0000785D0000825D0000AF
:109180008C5D0000965D0000A05D0000AA5D0000FF
:10919000B45D0000BE5D0000C85D0000D25D00004F
:1091A000DC5D0000E65D0000F05D0000FA5D00009F
:1091B000045E00000E5E0000175E0000205E0000EE
:1091C000295E0000325E00003B5E0000445E00004D
:1091D0004D5E0000565E00005F5E0000685E0000AD
:1091E000715E00007A5E0000835E00008C5E00000D
:1091F000955E00009E5E0000A75E0000B05E00006D
:10920000B95E0000C25E0000CB5E0000D45E0000CC
:10921000DD5E0000E65E0000EF5E0000F85E00002C
:10922000015F00000A5F0000135F00001C5F000088
:10923000255F00002E5F0000375F0000405F0000E8
:10924000495F0000525F00005B5F0000645F000048
:109250006D5F0000765F00007F5F0000885F0000A8
:10926000915F00009A5F0000A35F0000AC5F000008
:10927000B55F0000BE5F0000C75F0000D05F000068
:10928000D95F0000E25F0000EB5F0000F45F0000C8
:10929000FD5F0000066000000F6000001860000025
:1092A000216000002A600000336000003C60000084
:1092B000456000004E6000005760000060600000E4
:1092C00069600000726000007B6000008460000044
:1092D0008D600000966000009F600000A8600000A4
:1092E000B1600000BA600000C3600000CC60000004
:1092F000D5600000DE600000E7600000F060000064
:10930000F9600000026100000B61000014610000C0
:109310001D610000266100002F610000386100001F
:10932000416100004A610000536100005C6100007F
:10933000656100006E6100007761000080610000DF
:1093400089610000926100009B610000A46100003F
:10935000AD610000B6610000BF610000C86100009F
:10936000D1610000DA610000E3610000EC610000FF
:10937000F5610000FE61000007620000106200005D
:1093800019620000226200002B62000034620000BB
:109390003D620000466200004F620000586200001B
:1093A000616200006A620000736200007C6200007B
:1093B000856200008E62000097620000A0620000DB
:1093C000A9620000B2620000BB620000C46200003B
:1093D000CD620000D6620000DF620000E86200009B
:1093E000F1620000FA620000036300000C630000F9
:1093F000156300001E630000276300003063000057
:1094000039630000426300004B63000054630000B6
:109410005D630000666300006F6300007863000016
:10942000816300008A630000936300009C63000076
:10943000A5630000AE630000B7630000C0630000D6
:10944000C9630000D2630000DB630000E463000036
:10945000ED630000F6630000FF6300000864000095
:10946000116400001A640000236400002C640000F2
:10947000356400003E640000476400005064000052
:1094800059640000626400006B64000074640000B2
:109490007D640000866400008F6400009864000012
:1094A000A1640000AA640000B3640000BC64000072
:1094B000C5640000CE640000D7640000E0640000D2
:1094C000E9640000F2640000FB6400000465000031
:1094D0000D650000166500001F650000286500008E
:1094E000316500003A650000436500004C650000EE
:1094F000556500005E65000067650000706500004E
:1095000079650000826500008B65000094650000AD
:109510009D650000A6650000AF650000B86500000D
:10952000C1650000CA650000D3650000DC6500006D
:10953000E5650000EE650000F765000000660000CC
:1095400009660000126600001B6600002466000029
:109550002D660000366600003F6600004866000089
:10956000516600005A660000636600006C660000E9
:10957000756600007E660000876600009066000049
:1095800099660000A2660000AB660000B4660000A9
:10959000BD660000C6660000CF660000D866000009
:1095A000E1660000EA660000F3660000FC66000069
:1095B000056700000E6700001767000020670000C5
:1095C00029670000326700003B6700004467000025
:1095D0004D670000566700005F6700006867000085
:1095E000716700007A670000836700008C670000E5
:1095F000956700009E670000A7670000B067000045
:10960000B9670000C2670000CB670000D4670000A4
:10961000DD670000E6670000EF670000F867000004
:10962000016800000A680000136800001C68000060
:10963000256800002E6800003768000040680000C0
:1096400049680000526800005B6800006468000020
:109650006D680000766800007F6800008868000080
:10966000916800009A680000A3680000AC680000E0
:10967000B5680000BE680000C7680000D068000040
:10968000D9680000E2680000EB680000F4680000A0
:10969000FD680000066900000F69000018690000FD
:1096A000216900002A690000336900003C6900005C
:1096B000456900004E6900005769000060690000BC
:1096C00069690000726900007B690000846900001C
:1096D0008D690000966900009F690000A86900007C
:1096E000B1690000BA690000C3690000CC690000DC
:1096F000D5690000DE690000E7690000F06900003C
:10970000F9690000026A00000B6A0000146A000098
:109710001D6A0000266A00002F6A0000386A0000F7
:10972000416A00004A6A0000536A00005C6A000057
:10973000656A00006E6A0000776A0000806A0000B7
:10974000896A0000926A00009B6A0000A46A000017
:10975000AD6A0000B66A0000BF6A0000C86A000077
:10976000D16A0000DA6A0000E36A0000EC6A0000D7
:10977000F56A0000FE6A0000076B0000106B000035
:10978000196B0000226B00002B6B0000346B000093
:109790003D6B0000466B00004F6B0000586B0000F3
:1097A000616B00006A6B0000736B00007C6B000053
:1097B000856B00008E6B0000976B0000A06B0000B3
:1097C000A96B0000B26B0000BB6B0000C46B000013
:1097D000CD6B0000D66B0000DF6B0000E86B000073
:1097E000F16B0000FA6B0000036C00000C6C0000D1
:1097F000156C00001E6C0000276C0000306C00002F
:10980000396C0000426C00004B6C0000546C00008E
:109810005D6C0000666C00006F6C0000786C0000EE
:10982000816C00008A6C0000936C00009C6C00004E
:10983000A56C0000AE6C0000B76C0000C06C0000AE
:10984000C96C0000D26C0000DB6C0000E46C00000E
:10985000ED6C0000F66C0000FF6C0000086D00006D
:10986000116D00001A6D0000236D00002C6D0000CA
:10987000356D00003E6D0000476D0000506D00002A
:10988000596D0000626D00006B6D0000746D00008A
:109890007D6D0000866D00008F6D0000986D0000EA
:1098A000A16D0000AA6D0000B36D0000BC6D00004A
:1098B000C56D0000CE6D0000D76D0000E06D0000AA
:1098C000E96D0000F26D0000FB6D0000046E000009
:1098D0000D6E0000166E00001F6E0000286E000066
:1098E000316E00003A6E0000436E00004C6E0000C6
:1098F000556E00005E6E0000676E0000706E000026
:10990000796E0000826E00008B6E0000946E000085
:109910009D6E0000A66E0000AF6E0000B86E0000E5
:10992000C16E0000CA6E0000D36E0000DC6E000045
:10993000E56E0000EE6E0000F76E0000006F0000A4
:10994000096F0000126F00001B6F0000246F000001
:109950002D6F0000366F00003F6F0000486F000061
:10996000516F00005A6F0000636F00006C6F0000C1
:10997000756F00007E6F0000876F0000906F000021
:10998000996F0000A26F0000AB6F0000B46F000081
:10999000BD6F0000C66F0000CF6F0000D86F0000E1
:1099A000E16F0000EA6F0000F36F0000FC6F000041
:1099B000057000000E70000017700000207000009D
:1099C00029700000327000003B70000044700000FD
:1099D0004D700000567000005F700000687000005D
:1099E000717000007A700000837000008C700000BD
:1099F000957000009E700000A7700000B07000001D
:109A0000B9700000C2700000CB700000D47000007C
:109A1000DD700000E6700000EF700000F8700000DC
:109A2000017100000A710000137100001C71000038
:109A3000257100002E710000377100004071000098
:109A400049710000527100005B71000064710000F8
:109A50006D710000767100007F7100008871000058
:109A6000917100009A710000A3710000AC710000B8
:109A7000B5710000BE710000C7710000D071000018
:109A8000D9710000E2710000EB710000F471000078
:109A9000FD710000067200000F72000018720000D5
:109AA000217200002A720000337200003C72000034
:109AB000457200004E720000577200006072000094
:109AC00069720000727200007B72000084720000F4
:109AD0008D720000967200009F720000A872000054
:109AE000B1720000BA720000C3720000CC720000B4
:109AF000D5720000DE720000E7720000F072000014
:109B0000F9720000027300000B7300001473000070
:109B10001D730000267300002F73000038730000CF
:109B2000417300004A730000537300005C7300002F
:109B3000657300006E73000077730000807300008F
:109B400089730000927300009B730000A4730000EF
:109B5000AD730000B6730000BF730000C87300004F
:109B6000D1730000DA730000E3730000EC730000AF
:109B7000F5730000FE73000007740000107400000D
:109B800019740000227400002B740000347400006B
:109B90003D740000467400004F74000058740000CB
:109BA000617400006A740000737400007C7400002B
:109BB000857400008E74000097740000A07400008B
:109BC000A9740000B2740000BB740000C4740000EB
:109BD000CD740000D6740000DF740000E87400004B
:109BE000F1740000FA740000037500000C750000A9
:109BF000157500001E750000277500003075000007
:109C000039750000427500004B7500005475000066
:109C10005D750000667500006F75000078750000C6
:109C2000817500008A750000937500009C75000026
:109C3000A5750000AE750000B7750000C075000086
:109C4000C9750000D2750000DB750000E4750000E6
:109C5000ED750000F6750000FF7500000876000045
:109C6000117600001A760000237600002C760000A2
:109C7000357600003E760000477600005076000002
:109C800059760000627600006B7600007476000062
:109C90007D760000867600008F76000098760000C2
:109CA000A1760000AA760000B3760000BC76000022
:109CB000C5760000CE760000D7760000E076000082
:109CC000E9760000F2760000FB76000004770000E1
:109CD0000D770000167700001F770000287700003E
:109CE000317700003A770000437700004C7700009E
:109CF000557700005E7700006777000070770000FE
:109D000079770000827700008B770000947700005D
:109D10009D770000A6770000AF770000B8770000BD
:109D2000C1770000CA770000D3770000DC7700001D
:109D3000E5770000EE770000F7770000007800007C
:109D400009780000127800001B78000024780000D9
:109D50002D780000367800003F7800004878000039
:109D6000517800005A780000637800006C78000099
:109D7000757800007E7800008778000090780000F9
:109D800099780000A2780000AB780000B478000059
:109D9000BD780000C6780000CF780000D8780000B9
:109DA000E1780000EA780000F3780000FC78000019
:109DB000057900000E790000177900002079000075
:109DC00029790000327900003B79000044790000D5
:109DD0004D790000567900005F7900006879000035
:109DE000717900007A790000837900008C79000095
:109DF000957900009E790000A7790000B0790000F5
:109E0000B9790000C2790000CB790000D479000054
:109E1000DD790000E6790000EF790000F8790000B4
:109E2000017A00000A7A0000137A00001C7A000010
:109E3000257A00002E7A0000377A0000407A000070
:109E4000497A0000527A00005B7A0000647A0000D0
:109E50006D7A0000767A00007F7A0000887A000030
:109E6000917A00009A7A0000A37A0000AC7A000090
:109E7000B57A0000BE7A0000C77A0000D07A0000F0
:109E8000D97A0000E27A0000EB7A0000F47A000050
:109E9000FD7A0000067B00000F7B0000187B0000AD
:109EA000217B00002A7B0000337B00003C7B00000C
:109EB000457B00004E7B0000577B0000607B00006C
:109EC000697B0000727B00007B7B0000847B0000CC
:109ED0008D7B0000967B00009F7B0000A87B00002C
:109EE000B17B0000BA7B0000C37B0000CC7B00008C
:109EF000D57B0000DE7B0000E77B0000F07B0000EC
:109F0000F97B0000027C00000B7C0000147C000048
:109F10001D7C0000267C00002F7C0000387C0000A7
:109F2000417C00004A7C0000537C00005C7C000007
:109F3000657C00006E7C0000777C0000807C000067
:109F4000897C0000927C00009B7C0000A47C0000C7
:109F5000AD7C0000B67C0000BF7C0000C87C000027
:109F6000D17C0000DA7C0000E37C0000EC7C000087
:109F7000F57C0000FE7C0000077D0000107D0000E5
:109F8000197D0000227D00002B7D0000347D000043
:109F90003D7D0000467D00004F7D0000587D0000A3
:109FA000617D00006A7D0000737D00007C7D000003
:109FB000857D00008E7D0000977D0000A07D000063
:109FC000A97D0000B27D0000BB7D0000C47D0000C3
:109FD000CD7D0000D67D0000DF7D0000E87D000023
:109FE000F17D0000FA7D0000037E00000C7E000081
:109FF000157E00001E7E0000277E0000307E0000DF
:10A00000397E0000427E00004B7E0000547E00003E
:10A010005D7E0000667E00006F7E0000787E00009E
:10A02000817E00008A7E0000937E00009C7E0000FE
:10A03000A57E0000AE7E0000B77E0000C07E00005E
:10A04000C97E0000D27E0000DB7E0000E47E0000BE
:10A05000ED7E0000F67E0000FF7E0000087F00001D
:10A06000117F00001A7F0000237F00002C7F00007A
:10A07000357F00003E7F0000477F0000507F0000DA
:10A08000597F0000627F00006B7F0000747F00003A
:10A090007D7F0000867F00008F7F0000987F00009A
:10A0A000A17F0000AA7F0000B37F0000BC7F0000FA
:10A0B000C57F0000CE7F0000D77F0000E07F00005A
:10A0C000E97F0000F27F0000FB7F000004800000B9
:10A0D0000D800000168000001F8000002880000016
:10A0E000318000003A800000438000004C80000076
:10A0F000558000005E8000006780000070800000D6
:10A1000079800000828000008B8000009480000035
:10A110009D800000A6800000AF800000B880000095
:10A12000C1800000CA800000D3800000DC800000F5
:10A13000E5800000EE800000F78000000081000054
:10A1400009810000128100001B81000024810000B1
:10A150002D810000368100003E8100004681000014
:10A160004E810000568100005E8100006681000083
:10A170006E810000768100007E81000086810000F3
:10A180008E810000968100009E810000A681000063
:10A19000AE810000B6810000BE810000C6810000D3
:10A1A000CE810000D6810000DE810000E681000043
:10A1B000EE810000F6810000FE81000006820000B2
:10A1C0000E820000168200001E820000268200001F
:10A1D0002E820000368200003E820000468200008F
:10A1E0004E820000568200005E82000066820000FF
:10A1F0006E820000768200007E820000868200006F
:10A200008E820000968200009E820000A6820000DE
:10A21000AE820000B6820000BE820000C68200004E
:10A22000CE820000D6820000DE820000E6820000BE
:10A23000EE820000F6820000FE820000068300002D
:10A240000E830000168300001E830000268300009A
:10A250002E830000368300003E830000468300000A
:10A260004E830000568300005E830000668300007A
:10A270006E830000768300007E83000086830000EA
:10A280008E830000968300009E830000A68300005A
:10A29000AE830000B6830000BE830000C6830000CA
:10A2A000CE830000D6830000DE830000E68300003A
:10A2B000EE830000F6830000FE83000006840000A9
:10A2C0000E840000168400001E8400002684000016
:10A2D0002E840000368400003E8400004684000086
:10A2E0004E840000568400005E84000066840000F6
:10A2F0006E840000768400007E8400008684000066
:10A300008E840000968400009E840000A6840000D5
:10A31000AE840000B6840000BE840000C684000045
:10A32000CE840000D6840000DE840000E6840000B5
:10A33000EE840000F6840000FE8400000685000024
:10A340000E850000168500001E8500002685000091
:10A350002E850000368500003E8500004685000001
:10A360004E850000568500005E8500006685000071
:10A370006E850000768500007E85000086850000E1
:10A380008E850000968500009E850000A685000051
:10A39000AE850000B6850000BE850000C6850000C1
:10A3A000CE850000D6850000DE850000E685000031
:10A3B000EE850000F6850000FE85000006860000A0
:10A3C0000E860000168600001E860000268600000D
:10A3D0002E860000368600003E860000468600007D
:10A3E0004E860000568600005E86000066860000ED
:10A3F0006E860000768600007E860000868600005D
:10A400008E860000968600009E860000A6860000CC
:10A41000AE860000B6860000BE860000C68600003C
:10A42000CE860000D6860000DE860000E6860000AC
:10A43000EE860000F6860000FE860000068700001B
:10A440000E870000168700001E8700002687000088
:10A450002E870000368700003E87000046870000F8
:10A460004E870000568700005E8700006687000068
:10A470006E870000768700007E87000086870000D8
:10A480008E870000968700009E870000A687000048
:10A49000AE870000B6870000BE870000C6870000B8
:10A4A000CE870000D6870000DE870000E687000028
:10A4B000EE870000F6870000FE8700000688000097
:10A4C0000E880000168800001E8800002688000004
:10A4D0002E880000368800003E8800004688000074
:10A4E0004E880000568800005E88000066880000E4
:10A4F0006E880000768800007E8800008688000054
:10A500008E880000968800009E880000A6880000C3
:10A51000AE880000B6880000BE880000C688000033
:10A52000CE880000D6880000DE880000E6880000A3
:10A53000EE880000F6880000FE8800000689000012
:10A540000E890000168900001E890000268900007F
:10A550002E890000368900003E89000046890000EF
:10A560004E890000568900005E890000668900005F
:10A570006E890000768900007E89000086890000CF
:10A580008E890000968900009E890000A68900003F
:10A59000AE890000B6890000BE890000C6890000AF
:10A5A000CE890000D6890000DE890000E68900001F
:10A5B000EE890000F6890000FE890000068A00008E
:10A5C0000E8A0000168A00001E8A0000268A0000FB
:10A5D0002E8A0000368A00003E8A0000468A00006B
:10A5E0004E8A0000568A00005E8A0000668A0000DB
:10A5F0006E8A0000768A00007E8A0000868A00004B
:10A600008E8A0000968A00009E8A0000A68A0000BA
:10A61000AE8A0000B68A0000BE8A0000C68A00002A
:10A62000CE8A0000D68A0000DE8A0000E68A00009A
:10A63000EE8A0000F68A0000FE8A0000068B000009
:10A640000E8B0000168B00001E8B0000268B000076
:10A650002E8B0000368B00003E8B0000468B0000E6
:10A660004E8B0000568B00005E8B0000668B000056
:10A670006E8B0000768B00007E8B0000868B0000C6
:10A680008E8B0000968B00009E8B0000A68B000036
:10A69000AE8B0000B68B0000BE8B0000C68B0000A6
:10A6A000CE8B0000D68B0000DE8B0000E68B000016
:10A6B000EE8B0000F68B0000FE8B0000068C000085
:10A6C0000E8C0000168C00001E8C0000268C0000F2
:10A6D0002E8C0000368C00003E8C0000468C000062
:10A6E0004E8C0000568C00005E8C0000668C0000D2
:10A6F0006E8C0000768C00007E8C0000868C000042
:10A700008E8C0000968C00009E8C0000A68C0000B1
:10A71000AE8C0000B68C0000BE8C0000C68C000021
:10A72000CE8C0000D68C0000DE8C0000E68C000091
:10A73000EE8C0000F68C0000FE8C0000068D000000
:10A740000E8D0000168D00001E8D0000268D00006D
:10A750002E8D0000368D00003E8D0000468D0000DD
:10A760004E8D0000568D00005E8D0000668D00004D
:10A770006E8D0000768D00007E8D0000868D0000BD
:10A780008E8D0000968D00009E8D0000A68D00002D
:10A79000AE8D0000B68D0000BE8D0000C68D00009D
:10A7A000CE8D0000D68D0000DE8D0000E68D00000D
:10A7B000EE8D0000F68D0000FE8D0000068E00007C
:10A7C0000E8E0000168E00001E8E0000268E0000E9
:10A7D0002E8E0000368E00003E8E0000468E000059
:10A7E0004E8E0000568E00005E8E0000668E0000C9
:10A7F0006E8E0000768E00007E8E0000868E000039
:10A800008E8E0000968E00009E8E0000A68E0000A8
:10A81000AE8E0000B68E0000BE8E0000C68E000018
:10A82000CE8E0000D68E0000DE8E0000E68E000088
:10A83000EE8E0000F68E0000FE8E0000068F0000F7
:10A840000E8F0000168F00001E8F0000268F000064
:10A850002E8F0000368F00003E8F0000468F0000D4
:10A860004E8F0000568F00005E8F0000668F000044
:10A870006E8F0000768F00007E8F0000868F0000B4
:10A880008E8F0000968F00009E8F0000A68F000024
:10A89000AE8F0000B68F0000BE8F0000C68F000094
:10A8A000CE8F0000D68F0000DE8F0000E68F000004
:10A8B000EE8F0000F68F0000FE8F00000690000073
:10A8C0000E900000169000001E90000026900000E0
:10A8D0002E900000369000003E9000004690000050
:10A8E0004E900000569000005E90000066900000C0
:10A8F0006E900000769000007E9000008690000030
:10A900008E900000969000009E900000A69000009F
:10A91000AE900000B6900000BE900000C69000000F
:10A92000CE900000D6900000DE900000E69000007F
:10A93000EE900000F6900000FE90000006910000EE
:10A940000E910000169100001E910000269100005B
:10A950002E910000369100003E91000046910000CB
:10A960004E910000569100005E910000669100003B
:10A970006E910000769100007E91000086910000AB
:10A980008E910000969100009E910000A69100001B
:10A99000AE910000B6910000BE910000C69100008B
:10A9A000CE910000D6910000DE910000E6910000FB
:10A9B000EE910000F6910000FE910000069200006A
:10A9C0000E920000169200001E92000026920000D7
:10A9D0002E920000369200003E9200004692000047
:10A9E0004E920000569200005E92000066920000B7
:10A9F0006E920000769200007E9200008692000027
:10AA00008E920000969200009E920000A692000096
:10AA1000AE920000B6920000BE920000C692000006
:10AA2000CE920000D6920000DE920000E692000076
:10AA3000EE920000F6920000FE92000006930000E5
:10AA40000E930000169300001E9300002693000052
:10AA50002E930000369300003E93000046930000C2
:10AA60004E930000569300005E9300006693000032
:10AA70006E930000769300007E93000086930000A2
:10AA80008E930000969300009E930000A693000012
:10AA9000AE930000B6930000BE930000C693000082
:10AAA000CE930000D6930000DE930000E6930000F2
:10AAB000EE930000F6930000FE9300000694000061
:10AAC0000E940000169400001E94000026940000CE
:10AAD0002E940000369400003E940000469400003E
:10AAE0004E940000569400005E94000066940000AE
:10AAF0006E940000769400007E940000869400001E
:10AB00008E940000969400009E940000A69400008D
:10AB1000AE940000B6940000BE940000C6940000FD
:10AB2000CE940000D6940000DE940000E69400006D
:10AB3000EE940000F6940000FE94000006950000DC
:10AB40000E950000169500001E9500002695000049
:10AB50002E950000369500003E95000046950000B9
:10AB60004E950000569500005E9500006695000029
:10AB70006E950000769500007E9500008695000099
:10AB80008E950000969500009E950000A695000009
:10AB9000AE950000B6950000BE950000C695000079
:10ABA000CE950000D6950000DE950000E6950000E9
:10ABB000EE950000F6950000FE9500000696000058
:10ABC0000E960000169600001E96000026960000C5
:10ABD0002E960000369600003E9600004696000035
:10ABE0004E960000569600005E96000066960000A5
:10ABF0006E960000769600007E9600008696000015
:10AC00008E960000969600009E960000A696000084
:10AC1000AE960000B6960000BE960000C6960000F4
:10AC2000CE960000D6960000DE960000E696000064
:10AC3000EE960000F6960000FE96000006970000D3
:10AC40000E970000169700001E9700002697000040
:10AC50002E970000369700003E97000046970000B0
:10AC60004E970000569700005E9700006697000020
:10AC70006E970000769700007E9700008697000090
:10AC80008E970000969700009E970000A697000000
:10AC9000AE970000B6970000BE970000C697000070
:10ACA000CE970000D6970000DE970000E6970000E0
:10ACB000EE970000F6970000FE970000069800004F
:10ACC0000E980000169800001E98000026980000BC
:10ACD0002E980000369800003E980000469800002C
:10ACE0004E980000569800005E980000669800009C
:10ACF0006E980000769800007E980000869800000C
:10AD00008E980000969800009E980000A69800007B
:10AD1000AE980000B6980000BE980000C6980000EB
:10AD2000CE980000D6980000DE980000E69800005B
:10AD3000EE980000F6980000FE98000006990000CA
:10AD40000E990000169900001E9900002699000037
:10AD50002E990000369900003E99000046990000A7
:10AD60004E990000569900005E9900006699000017
:10AD70006E990000769900007E9900008699000087
:10AD80008E990000969900009E990000A6990000F7
:10AD9000AE990000B6990000BE990000C699000067
:10ADA000CE990000D6990000DE990000E6990000D7
:10ADB000EE990000F6990000FE990000069A000046
:10ADC0000E9A0000169A00001E9A0000269A0000B3
:10ADD0002E9A0000369A00003E9A0000469A000023
:10ADE0004E9A0000569A00005E9A0000669A000093
:10ADF0006E9A0000769A00007E9A0000869A000003
:10AE00008E9A0000969A00009E9A0000A69A000072
:10AE1000AE9A0000B69A0000BE9A0000C69A0000E2
:10AE2000CE9A0000D69A0000DE9A0000E69A000052
:10AE3000EE9A0000F69A0000FE9A0000069B0000C1
:10AE40000E9B0000169B00001E9B0000269B00002E
:10AE50002E9B0000369B00003E9B0000469B00009E
:10AE60004E9B0000569B00005E9B0000669B00000E
:10AE70006E9B0000769B00007E9B0000869B00007E
:10AE80008E9B0000969B00009E9B0000A69B0000EE
:10AE9000AE9B0000B69B0000BE9B0000C69B00005E
:10AEA000CE9B0000D69B0000DE9B0000E69B0000CE
:10AEB000EE9B0000F69B0000FE9B0000069C00003D
:10AEC0000E9C0000169C00001E9C0000269C0000AA
:10AED0002E9C0000369C00003E9C0000469C00001A
:10AEE0004E9C0000569C00005E9C0000669C00008A
:10AEF0006E9C0000769C00007E9C0000869C0000FA
:10AF00008E9C0000969C00009E9C0000A69C000069
:10AF1000AE9C0000B69C0000BE9C0000C69C0000D9
:10AF2000CE9C0000D69C0000DE9C0000E69C000049
:10AF3000EE9C0000F69C0000FE9C0000069D0000B8
:10AF40000E9D0000169D00001E9D0000269D000025
:10AF50002E9D0000369D00003E9D0000469D000095
:10AF60004E9D0000569D00005E9D0000669D000005
:10AF70006E9D0000769D00007E9D0000869D000075
:10AF80008E9D0000969D00009E9D0000A69D0000E5
:10AF9000AE9D0000B69D0000BE9D0000C69D000055
:10AFA000CE9D0000D69D0000DE9D0000E69D0000C5
:10AFB000EE9D0000F69D0000FE9D0000069E000034
:10AFC0000E9E0000169E00001E9E0000269E0000A1
:10AFD0002E9E0000369E00003E9E0000469E000011
:10AFE0004E9E0000569E00005E9E0000669E000081
:10AFF0006E9E0000769E00007E9E0000869E0000F1
:10B000008E9E0000969E00009E9E0000A69E000060
:10B01000AE9E0000B69E0000BE9E0000C69E0000D0
:10B02000CE9E0000D69E0000DE9E0000E69E000040
:10B03000EE9E0000F69E0000FE9E0000069F0000AF
:10B040000E9F0000169F00001E9F0000269F00001C
:10B050002E9F0000369F00003E9F0000469F00008C
:10B060004E9F0000569F00005E9F0000669F0000FC
:10B070006E9F0000769F00007E9F0000869F00006C
:10B080008E9F0000969F00009E9F0000A69F0000DC
:10B09000AE9F0000B69F0000BE9F0000C69F00004C
:10B0A000CE9F0000D69F0000DE9F0000E69F0000BC
:10B0B000EE9F0000F69F0000FE9F000006A000002B
:10B0C0000EA0000016A000001EA0000026A0000098
:10B0D0002EA0000036A000003EA0000046A0000008
:10B0E0004EA0000056A000005EA0000066A0000078
:10B0F0006EA0000076A000007DA0000084A00000EB
:10B100008BA0000092A0000099A00000A0A0000069
:10B11000A7A00000AEA00000B5A00000BCA00000E9
:10B12000C3A00000CAA00000D1A00000D8A0000069
:10B13000DFA00000E6A00000EDA00000F4A00000E9
:10B14000FBA0000002A1000009A1000010A1000066
:10B1500017A100001EA1000025A100002CA10000E5
:10B1600033A100003AA1000041A1000048A1000065
:10B170004FA1000056A100005DA1000064A10000E5
:10B180006BA1000072A1000079A1000080A1000065
:10B1900087A100008EA1000095A100009CA10000E5
:10B1A000A3A10000AAA10000B1A10000B8A1000065
:10B1B000BFA10000C6A10000CDA10000D4A10000E5
:10B1C000DBA10000E2A10000E9A10000F0A1000065
:10B1D000F7A10000FEA1000005A200000CA20000E3
:10B1E00013A200001AA2000021A2000028A2000061
:10B1F0002FA2000036A200003DA2000044A20000E1
:10B200004BA2000052A2000059A2000060A2000060
:10B2100067A200006EA2000075A200007CA20000E0
:10B2200083A200008AA2000091A2000098A2000060
:10B230009FA20000A6A20000ADA20000B4A20000E0
:10B24000BBA20000C2A20000C9A20000D0A2000060
:10B25000D7A20000DEA20000E5A20000ECA20000E0
:10B26000F3A20000FAA2000001A3000008A300005E
:10B270000FA3000016A300001DA3000024A30000DC
:10B280002BA3000032A3000039A3000040A300005C
:10B2900047A300004EA3000055A300005CA30000DC
:10B2A00063A300006AA3000071A3000078A300005C
:10B2B0007FA3000086A300008DA3000094A30000DC
:10B2C0009BA30000A2A30000A9A30000B0A300005C
:10B2D000B7A30000BEA30000C5A30000CCA30000DC
:10B2E000D3A30000DAA30000E1A30000E8A300005C
:10B2F000EFA30000F6A30000FDA3000004A40000DB
:10B300000BA4000012A4000019A4000020A4000057
:10B3100027A400002EA4000035A400003CA40000D7
:10B3200043A400004AA4000051A4000058A4000057
:10B330005FA4000066A400006DA4000074A40000D7
:10B340007BA4000082A4000089A4000090A4000057
:10B3500097A400009EA40000A5A40000ACA40000D7
:10B36000B3A40000BAA40000C1A40000C8A4000057
:10B37000CFA40000D6A40000DDA40000E4A40000D7
:10B38000EBA40000F2A40000F9A4000000A5000056
:10B3900007A500000EA5000015A500001CA50000D3
:10B3A00023A500002AA5000031A5000038A5000053
:10B3B0003FA5000046A500004DA5000054A50000D3
:10B3C0005BA5000062A5000069A5000070A5000053
:10B3D00077A500007EA5000085A500008CA50000D3
:10B3E00093A500009AA50000A1A50000A8A5000053
:10B3F000AFA50000B6A50000BDA50000C4A50000D3
:10B40000CBA50000D2A50000D9A50000E0A5000052
:10B41000E7A50000EEA50000F5A50000FCA50000D2
:10B4200003A600000AA6000011A6000018A600004E
:10B430001FA6000026A600002DA6000034A60000CE
:10B440003BA6000042A6000049A6000050A600004E
:10B4500057A600005EA6000065A600006CA60000CE
:10B4600073A600007AA6000081A6000088A600004E
:10B470008FA6000096A600009DA60000A4A60000CE
:10B48000ABA60000B2A60000B9A60000C0A600004E
:10B49000C7A60000CEA60000D5A60000DCA60000CE
:10B4A000E3A60000EAA60000F1A60000F8A600004E
:10B4B000FFA6000006A700000DA7000014A70000CB
:10B4C0001BA7000022A7000029A7000030A700004A
:10B4D00037A700003EA7000045A700004CA70000CA
:10B4E00053A700005AA7000061A7000068A700004A
:10B4F0006FA7000076A700007DA7000084A70000CA
:10B500008BA7000092A7000099A70000A0A7000049
:10B51000A7A70000AEA70000B5A70000BCA70000C9
:10B52000C3A70000CAA70000D1A70000D8A7000049
:10B53000DFA70000E6A70000EDA70000F4A70000C9
:10B54000FBA7000002A8000009A8000010A8000046
:10B5500017A800001EA8000025A800002CA80000C5
:10B5600033A800003AA8000041A8000048A8000045
:10B570004FA8000056A800005DA8000064A80000C5
:10B580006BA8000072A8000079A8000080A8000045
:10B5900087A800008EA8000095A800009CA80000C5
:10B5A000A3A80000AAA80000B1A80000B8A8000045
:10B5B000BFA80000C6A80000CDA80000D4A80000C5
:10B5C000DBA80000E2A80000E9A80000F0A8000045
:10B5D000F7A80000FEA8000005A900000CA90000C3
:10B5E00013A900001AA9000021A9000028A9000041
:10B5F0002FA9000036A900003DA9000044A90000C1
:10B600004BA9000052A9000059A9000060A9000040
:10B6100067A900006EA9000075A900007CA90000C0
:10B6200083A900008AA9000091A9000098A9000040
:10B630009FA90000A6A90000ADA90000B4A90000C0
:10B64000BBA90000C2A90000C9A90000D0A9000040
:10B65000D7A90000DEA90000E5A90000ECA90000C0
:10B66000F3A90000FAA9000001AA000008AA00003E
:10B670000FAA000016AA00001DAA000024AA0000BC
:10B680002BAA000032AA000039AA000040AA00003C
:10B6900047AA00004EAA000055AA00005CAA0000BC
:10B6A00063AA00006AAA000071AA000078AA00003C
:10B6B0007FAA000086AA00008DAA000094AA0000BC
:10B6C0009BAA0000A2AA0000A9AA0000B0AA00003C
:10B6D000B7AA0000BEAA0000C5AA0000CCAA0000BC
:10B6E000D3AA0000DAAA0000E1AA0000E8AA00003C
:10B6F000EFAA0000F6AA0000FDAA000004AB0000BB
:10B700000BAB000012AB000019AB000020AB000037
:10B7100027AB00002EAB000035AB00003CAB0000B7
:10B7200043AB00004AAB000051AB000058AB000037
:10B730005FAB000066AB00006DAB000074AB0000B7
:10B740007BAB000082AB000089AB000090AB000037
:10B7500097AB00009EAB0000A5AB0000ACAB0000B7
:10B76000B3AB0000BAAB0000C1AB0000C8AB000037
:10B77000CFAB0000D6AB0000DDAB0000E4AB0000B7
:10B78000EBAB0000F2AB0000F9AB000000AC000036
:10B7900007AC00000EAC000015AC00001CAC0000B3
:10B7A00023AC00002AAC000031AC000038AC000033
:10B7B0003FAC000046AC00004DAC000054AC0000B3
:10B7C0005BAC000062AC000069AC000070AC000033
:10B7D00077AC00007EAC000085AC00008CAC0000B3
:10B7E00093AC00009AAC0000A1AC0000A8AC000033
:10B7F000AFAC0000B6AC0000BDAC0000C4AC0000B3
:10B80000CBAC0000D2AC0000D9AC0000E0AC000032
:10B81000E7AC0000EEAC0000F5AC0000FCAC0000B2
:10B8200003AD00000AAD000011AD000018AD00002E
:10B830001FAD000026AD00002DAD000034AD0000AE
:10B840003BAD000042AD000049AD000050AD00002E
:10B8500057AD00005EAD000065AD00006CAD0000AE
:10B8600073AD00007AAD000081AD000088AD00002E
:10B870008FAD000096AD00009DAD0000A4AD0000AE
:10B88000ABAD0000B2AD0000B9AD0000C0AD00002E
:10B89000C7AD0000CEAD0000D5AD0000DCAD0000AE
:10B8A000E3AD0000EAAD0000F1AD0000F8AD00002E
:10B8B000FFAD000006AE00000DAE000014AE0000AB
:10B8C0001BAE000022AE000029AE000030AE00002A
:10B8D00037AE00003EAE000045AE00004CAE0000AA
:10B8E00053AE00005AAE000061AE000068AE00002A
:10B8F0006FAE000076AE00007DAE000084AE0000AA
:10B900008BAE000092AE000099AE0000A0AE000029
:10B91000A7AE0000AEAE0000B5AE0000BCAE0000A9
:10B92000C3AE0000CAAE0000D1AE0000D8AE000029
:10B93000DFAE0000E6AE0000EDAE0000F4AE0000A9
:10B94000FBAE000002AF000009AF000010AF000026
:10B9500017AF00001EAF000025AF00002CAF0000A5
:10B9600033AF00003AAF000041AF000048AF000025
:10B970004FAF000056AF00005DAF000064AF0000A5
:10B980006BAF000072AF000079AF000080AF000025
:10B9900087AF00008EAF000095AF00009CAF0000A5
:10B9A000A3AF0000AAAF0000B1AF0000B8AF000025
:10B9B000BFAF0000C6AF0000CDAF0000D4AF0000A5
:10B9C000DBAF0000E2AF0000E9AF0000F0AF000025
:10B9D000F7AF0000FEAF000005B000000CB00000A3
:10B9E00013B000001AB0000021B0000028B0000021
:10B9F0002FB0000036B000003DB0000044B00000A1
:10BA00004BB0000052B0000059B0000060B0000020
:10BA100067B000006EB0000075B000007CB00000A0
:10BA200083B000008AB0000091B0000098B0000020
:10BA30009FB00000A6B00000ADB00000B4B00000A0
:10BA4000BBB00000C2B00000C9B00000D0B0000020
:10BA5000D7B00000DEB00000E5B00000ECB00000A0
:10BA6000F3B00000FAB0000001B1000008B100001E
:10BA70000FB1000016B100001DB1000024B100009C
:10BA80002BB1000032B1000039B1000040B100001C
:10BA900047B100004EB1000055B100005CB100009C
:10BAA00063B100006AB1000071B1000078B100001C
:10BAB0007FB1000086B100008DB1000094B100009C
:10BAC0009BB10000A2B10000A9B10000B0B100001C
:10BAD000B7B10000BEB10000C5B10000CCB100009C
:10BAE000D3B10000DAB10000E1B10000E8B100001C
:10BAF000EFB10000F6B10000FDB1000004B200009B
:10BB00000BB2000012B2000019B2000020B2000017
:10BB100027B200002EB2000035B200003CB2000097
:10BB200043B200004AB2000051B2000058B2000017
:10BB30005FB2000066B200006DB2000074B2000097
:10BB40007BB2000082B2000089B2000090B2000017
:10BB500097B200009EB20000A5B20000ACB2000097
:10BB6000B3B20000BAB20000C1B20000C8B2000017
:10BB7000CFB20000D6B20000DDB20000E4B2000097
:10BB8000EBB20000F2B20000F9B2000000B3000016
:10BB900007B300000EB3000015B300001CB3000093
:10BBA00023B300002AB3000031B3000038B3000013
:10BBB0003FB3000046B300004DB3000054B3000093
:10BBC0005BB3000062B3000069B3000070B3000013
:10BBD00077B300007EB3000085B300008CB3000093
:10BBE00093B300009AB30000A1B30000A8B3000013
:10BBF000AFB30000B6B30000BDB30000C4B3000093
:10BC0000CBB30000D2B30000D9B30000E0B3000012
:10BC1000E7B30000EEB30000F5B30000FCB3000092
:10BC200003B400000AB4000011B4000018B400000E
:10BC30001FB4000026B400002DB4000034B400008E
:10BC40003BB4000042B4000049B4000050B400000E
:10BC500057B400005EB4000065B400006CB400008E
:10BC600073B400007AB4000081B4000088B400000E
:10BC70008FB4000096B400009DB40000A4B400008E
:10BC8000ABB40000B2B40000B9B40000C0B400000E
:10BC9000C7B40000CEB40000D5B40000DCB400008E
:10BCA000E3B40000EAB40000F1B40000F8B400000E
:10BCB000FFB4000006B500000DB5000014B500008B
:10BCC0001BB5000022B5000029B5000030B500000A
:10BCD00037B500003EB5000045B500004CB500008A
:10BCE00053B500005AB5000061B5000068B500000A
:10BCF0006FB5000076B500007DB5000084B500008A
:10BD00008BB5000092B5000099B50000A0B5000009
:10BD1000A7B50000AEB50000B5B50000BCB5000089
:10BD2000C3B50000CAB50000D1B50000D8B5000009
:10BD3000DFB50000E6B50000EDB50000F4B5000089
:10BD4000FBB5000002B6000009B6000010B6000006
:10BD500017B600001EB6000025B600002CB6000085
:10BD600033B600003AB6000041B6000048B6000005
:10BD70004FB6000056B600005DB6000064B6000085
:10BD80006BB6000072B6000079B6000080B6000005
:10BD900087B600008EB6000095B600009CB6000085
:10BDA000A3B60000AAB60000B1B60000B8B6000005
:10BDB000BFB60000C6B60000CDB60000D4B6000085
:10BDC000DBB60000E2B60000E9B60000F0B6000005
:10BDD000F7B60000FEB6000005B700000CB7000083
:10BDE00013B700001AB7000021B7000028B7000001
:10BDF0002FB7000036B700003DB7000044B7000081
:10BE00004BB7000052B7000059B7000060B7000000
:10BE100067B700006EB7000075B700007CB7000080
:10BE200083B700008AB7000091B7000098B7000000
:10BE30009FB70000A6B70000ADB70000B4B7000080
:10BE4000BBB70000C2B70000C9B70000D0B7000000
:10BE5000D7B70000DEB70000E5B70000ECB7000080
:10BE6000F3B70000FAB7000001B8000008B80000FE
:10BE70000FB8000016B800001DB8000024B800007C
:10BE80002BB8000032B8000039B8000040B80000FC
:10BE900047B800004EB8000055B800005CB800007C
:10BEA00063B800006AB8000071B8000078B80000FC
:10BEB0007FB8000086B800008DB8000094B800007C
:10BEC0009BB80000A2B80000A9B80000B0B80000FC
:10BED000B7B80000BEB80000C5B80000CCB800007C
:10BEE000D3B80000DAB80000E1B80000E8B80000FC
:10BEF000EFB80000F6B80000FDB8000004B900007B
:10BF00000BB9000012B9000019B9000020B90000F7
:10BF100027B900002EB9000035B900003CB9000077
:10BF200043B900004AB9000051B9000058B90000F7
:10BF30005FB9000066B900006DB9000074B9000077
:10BF40007BB9000082B9000089B9000090B90000F7
:10BF500097B900009EB90000A5B90000ACB9000077
:10BF6000B3B90000BAB90000C1B90000C8B90000F7
:10BF7000CFB90000D6B90000DDB90000E4B9000077
:10BF8000EBB90000F2B90000F9B9000000BA0000F6
:10BF900007BA00000EBA000015BA00001CBA000073
:10BFA00023BA00002ABA000031BA000038BA0000F3
:10BFB0003FBA000046BA00004DBA000054BA000073
:10BFC0005BBA000062BA000069BA000070BA0000F3
:10BFD00077BA00007EBA000085BA00008CBA000073
:10BFE00093BA00009ABA0000A1BA0000A8BA0000F3
:10BFF000AFBA0000B6BA0000BDBA0000C4BA000073
:10C00000CBBA0000D2BA0000D9BA0000E0BA0000F2
:10C01000E7BA0000EEBA0000F5BA0000FCBA000072
:10C0200003BB00000ABB000011BB000018BB0000EE
:10C030001FBB000026BB00002DBB000034BB00006E
:10C040003BBB000042BB000049BB000050BB0000EE
:10C0500057BB00005EBB000065BB00006CBB00006E
:10C0600073BB00007ABB000081BB000088BB0000EE
:10C070008FBB000096BB00009DBB0000A4BB00006E
:10C08000ABBB0000B2BB0000B9BB0000C0BB0000EE
:10C09000C7BB0000CEBB0000D4BB0000DABB000071
:10C0A000E0BB0000E6BB0000ECBB0000F2BB000000
:10C0B000F8BB0000FEBB000004BC00000ABC00008E
:10C0C00010BC000016BC00001CBC000022BC00001C
:10C0D00028BC00002EBC000034BC00003ABC0000AC
:10C0E00040BC000046BC00004CBC000052BC00003C
:10C0F00058BC00005EBC000064BC00006ABC0000CC
:10C1000070BC000076BC00007CBC000082BC00005B
:10C1100088BC00008EBC000094BC00009ABC0000EB
:10C12000A0BC0000A6BC0000ACBC0000B2BC00007B
:10C13000B8BC0000BEBC0000C4BC0000CABC00000B
:10C14000D0BC0000D6BC0000DCBC0000E2BC00009B
:10C15000E8BC0000EEBC0000F4BC0000FABC00002B
:10C1600000BD000006BD00000CBD000012BD0000B7
:10C1700018BD00001EBD000024BD00002ABD000047
:10C1800030BD000036BD00003CBD000042BD0000D7
:10C1900048BD00004EBD000054BD00005ABD000067
:10C1A00060BD000066BD00006CBD000072BD0000F7
:10C1B00078BD00007EBD000084BD00008ABD000087
:10C1C00090BD000096BD00009CBD0000A2BD000017
:10C1D000A8BD0000AEBD0000B4BD0000BABD0000A7
:10C1E000C0BD0000C6BD0000CCBD0000D2BD000037
:10C1F000D8BD0000DEBD0000E4BD0000EABD0000C7
:10C20000F0BD0000F6BD0000FCBD000002BE000055
:10C2100008BE00000EBE000014BE00001ABE0000E2
:10C2200020BE000026BE00002CBE000032BE000072
:10C2300038BE00003EBE000044BE00004ABE000002
:10C2400050BE000056BE00005CBE000062BE000092
:10C2500068BE00006EBE000074BE00007ABE000022
:10C2600080BE000086BE00008CBE000092BE0000B2
:10C2700098BE00009EBE0000A4BE0000AABE000042
:10C28000B0BE0000B6BE0000BCBE0000C2BE0000D2
:10C29000C8BE0000CEBE0000D4BE0000DABE000062
:10C2A000E0BE0000E6BE0000ECBE0000F2BE0000F2
:10C2B000F8BE0000FEBE000004BF00000ABF000080
:10C2C00010BF000016BF00001CBF000022BF00000E
:10C2D00028BF00002EBF000034BF00003ABF00009E
:10C2E00040BF000046BF00004CBF000052BF00002E
:10C2F00058BF00005EBF000064BF00006ABF0000BE
:10C3000070BF000076BF00007CBF000082BF00004D
:10C3100088BF00008EBF000094BF00009ABF0000DD
:10C32000A0BF0000A6BF0000ACBF0000B2BF00006D
:10C33000B8BF0000BEBF0000C4BF0000CABF0000FD
:10C34000D0BF0000D6BF0000DCBF0000E2BF00008D
:10C35000E8BF0000EEBF0000F4BF0000FABF00001D
:10C3600000C0000006C000000CC0000012C00000A9
:10C3700018C000001EC0000024C000002AC0000039
:10C3800030C0000036C000003CC0000042C00000C9
:10C3900048C000004EC0000054C000005AC0000059
:10C3A00060C0000066C000006CC0000072C00000E9
:10C3B00078C000007EC0000084C000008AC0000079
:10C3C00090C0000096C000009CC00000A2C0000009
:10C3D000A8C00000AEC00000B4C00000BAC0000099
:10C3E000C0C00000C6C00000CCC00000D2C0000029
:10C3F000D8C00000DEC00000E4C00000EAC00000B9
:10C40000F0C00000F6C00000FCC0000002C1000047
:10C4100008C100000EC1000014C100001AC10000D4
:10C4200020C1000026C100002CC1000032C1000064
:10C4300038C100003EC1000044C100004AC10000F4
:10C4400050C1000056C100005CC1000062C1000084
:10C4500068C100006EC1000074C100007AC1000014
:10C4600080C1000086C100008CC1000092C10000A4
:10C4700098C100009EC10000A4C10000AAC1000034
:10C48000B0C10000B6C10000BCC10000C2C10000C4
:10C49000C8C10000CEC10000D4C10000DAC1000054
:10C4A000E0C10000E6C10000ECC10000F2C10000E4
:10C4B000F8C10000FEC1000004C200000AC2000072
:10C4C00010C2000016C200001CC2000022C2000000
:10C4D00028C200002EC2000034C200003AC2000090
:10C4E00040C2000046C200004CC2000052C2000020
:10C4F00058C200005EC2000064C200006AC20000B0
:10C5000070C2000076C200007CC2000082C200003F
:10C5100088C200008EC2000094C200009AC20000CF
:10C52000A0C20000A6C20000ACC20000B2C200005F
:10C53000B8C20000BEC20000C4C20000CAC20000EF
:10C54000D0C20000D6C20000DCC20000E2C200007F
:10C55000E8C20000EEC20000F4C20000FAC200000F
:10C5600000C3000006C300000CC3000012C300009B
:10C5700018C300001EC3000024C300002AC300002B
:10C5800030C3000036C300003CC3000042C30000BB
:10C5900048C300004EC3000054C300005AC300004B
:10C5A00060C3000066C300006CC3000072C30000DB
:10C5B00078C300007EC3000084C300008AC300006B
:10C5C00090C3000096C300009CC30000A2C30000FB
:10C5D000A8C30000AEC30000B4C30000BAC300008B
:10C5E000C0C30000C6C30000CCC30000D2C300001B
:10C5F000D8C30000DEC30000E4C30000EAC30000AB
:10C60000F0C30000F6C30000FCC3000002C4000039
:10C6100008C400000EC4000014C400001AC40000C6
:10C6200020C4000026C400002CC4000032C4000056
:10C6300038C400003EC4000044C400004AC40000E6
:10C6400050C4000056C400005CC4000062C4000076
:10C6500068C400006EC4000074C400007AC4000006
:10C6600080C4000086C400008CC4000092C4000096
:10C6700098C400009EC40000A4C40000AAC4000026
:10C68000B0C40000B6C40000BCC40000C2C40000B6
:10C69000C8C40000CEC40000D4C40000DAC4000046
:10C6A000E0C40000E6C40000ECC40000F2C40000D6
:10C6B000F8C40000FEC4000004C500000AC5000064
:10C6C00010C5000016C500001CC5000022C50000F2
:10C6D00028C500002EC5000034C500003AC5000082
:10C6E00040C5000046C500004CC5000052C5000012
:10C6F00058C500005EC5000064C500006AC50000A2
:10C7000070C5000076C500007CC5000082C5000031
:10C7100088C500008EC5000094C500009AC50000C1
:10C72000A0C50000A6C50000ACC50000B2C5000051
:10C73000B8C50000BEC50000C4C50000CAC50000E1
:10C74000D0C50000D6C50000DCC50000E2C5000071
:10C75000E8C50000EEC50000F4C50000FAC5000001
:10C7600000C6000006C600000CC6000012C600008D
:10C7700018C600001EC6000024C600002AC600001D
:10C7800030C6000036C600003CC6000042C60000AD
:10C7900048C600004EC6000054C600005AC600003D
:10C7A00060C6000066C600006CC6000072C60000CD
:10C7B00078C600007EC6000084C600008AC600005D
:10C7C00090C6000096C600009CC60000A2C60000ED
:10C7D000A8C60000AEC60000B4C60000BAC600007D
:10C7E000C0C60000C6C60000CCC60000D2C600000D
:10C7F000D8C60000DEC60000E4C60000EAC600009D
:10C80000F0C60000F6C60000FCC6000002C700002B
:10C8100008C700000EC7000014C700001AC70000B8
:10C8200020C7000026C700002CC7000032C7000048
:10C8300038C700003EC7000044C700004AC70000D8
:10C8400050C7000056C700005CC7000062C7000068
:10C8500068C700006EC7000074C700007AC70000F8
:10C8600080C7000086C700008CC7000092C7000088
:10C8700098C700009EC70000A4C70000AAC7000018
:10C88000B0C70000B6C70000BCC70000C2C70000A8
:10C89000C8C70000CEC70000D4C70000DAC7000038
:10C8A000E0C70000E6C70000ECC70000F2C70000C8
:10C8B000F8C70000FEC7000004C800000AC8000056
:10C8C00010C8000016C800001CC8000022C80000E4
:10C8D00028C800002EC8000034C800003AC8000074
:10C8E00040C8000046C800004CC8000052C8000004
:10C8F00058C800005EC8000064C800006AC8000094
:10C9000070C8000076C800007CC8000082C8000023
:10C9100088C800008EC8000094C800009AC80000B3
:10C92000A0C80000A6C80000ACC80000B2C8000043
:10C93000B8C80000BEC80000C4C80000CAC80000D3
:10C94000D0C80000D6C80000DCC80000E2C8000063
:10C95000E8C80000EEC80000F4C80000FAC80000F3
:10C9600000C9000006C900000CC9000012C900007F
:10C9700018C900001EC9000024C900002AC900000F
:10C9800030C9000036C900003CC9000042C900009F
:10C9900048C900004EC9000054C900005AC900002F
:10C9A00060C9000066C900006CC9000072C90000BF
:10C9B00078C900007EC9000084C900008AC900004F
:10C9C00090C9000096C900009CC90000A2C90000DF
:10C9D000A8C90000AEC90000B4C90000BAC900006F
:10C9E000C0C90000C6C90000CCC90000D2C90000FF
:10C9F000D8C90000DEC90000E4C90000EAC900008F
:10CA0000F0C90000F6C90000FCC9000002CA00001D
:10CA100008CA00000ECA000014CA00001ACA0000AA
:10CA200020CA000026CA00002CCA000032CA00003A
:10CA300038CA00003ECA000044CA00004ACA0000CA
:10CA400050CA000056CA00005CCA000062CA00005A
:10CA500068CA00006ECA000074CA00007ACA0000EA
:10CA600080CA000086CA00008CCA000092CA00007A
:10CA700098CA00009ECA0000A4CA0000AACA00000A
:10CA8000B0CA0000B6CA0000BCCA0000C2CA00009A
:10CA9000C8CA0000CECA0000D4CA0000DACA00002A
:10CAA000E0CA0000E6CA0000ECCA0000F2CA0000BA
:10CAB000F8CA0000FECA000004CB00000ACB000048
:10CAC00010CB000016CB00001CCB000022CB0000D6
:10CAD00028CB00002ECB000034CB00003ACB000066
:10CAE00040CB000046CB00004CCB000052CB0000F6
:10CAF00058CB00005ECB000064CB00006ACB000086
:10CB000070CB000076CB00007CCB000082CB000015
:10CB100088CB00008ECB000094CB00009ACB0000A5
:10CB2000A0CB0000A6CB0000ACCB0000B2CB000035
:10CB3000B8CB0000BECB0000C4CB0000CACB0000C5
:10CB4000D0CB0000D6CB0000DCCB0000E2CB000055
:10CB5000E8CB0000EECB0000F4CB0000FACB0000E5
:10CB600000CC000006CC00000CCC000012CC000071
:10CB700018CC00001ECC000024CC00002ACC000001
:10CB800030CC000036CC00003CCC000042CC000091
:10CB900048CC00004ECC000054CC00005ACC000021
:10CBA00060CC000066CC00006CCC000072CC0000B1
:10CBB00078CC00007ECC000084CC00008ACC000041
:10CBC00090CC000096CC00009CCC0000A2CC0000D1
:10CBD000A8CC0000AECC0000B4CC0000BACC000061
:10CBE000C0CC0000C6CC0000CCCC0000D2CC0000F1
:10CBF000D8CC0000DECC0000E4CC0000EACC000081
:10CC0000F0CC0000F6CC0000FCCC000002CD00000F
:10CC100008CD00000ECD000014CD00001ACD00009C
:10CC200020CD000026CD00002CCD000032CD00002C
:10CC300038CD00003ECD000044CD00004ACD0000BC
:10CC400050CD000056CD00005CCD000062CD00004C
:10CC500068CD00006ECD000074CD00007ACD0000DC
:10CC600080CD000086CD00008CCD000092CD00006C
:10CC700098CD00009ECD0000A4CD0000AACD0000FC
:10CC8000B0CD0000B6CD0000BCCD0000C2CD00008C
:10CC9000C8CD0000CECD0000D4CD0000DACD00001C
:10CCA000E0CD0000E6CD0000ECCD0000F2CD0000AC
:10CCB000F8CD0000FECD000004CE00000ACE00003A
:10CCC00010CE000016CE00001CCE000022CE0000C8
:10CCD00028CE00002ECE000034CE00003ACE000058
:10CCE00040CE000046CE00004CCE000052CE0000E8
:10CCF00058CE00005ECE000064CE00006ACE000078
:10CD000070CE000076CE00007CCE000082CE000007
:10CD100088CE00008ECE000094CE00009ACE000097
:10CD2000A0CE0000A6CE0000ACCE0000B2CE000027
:10CD3000B8CE0000BECE0000C4CE0000CACE0000B7
:10CD4000D0CE0000D6CE0000DCCE0000E2CE000047
:10CD5000E8CE0000EECE0000F4CE0000FACE0000D7
:10CD600000CF000006CF00000CCF000012CF000063
:10CD700018CF00001ECF000024CF00002ACF0000F3
:10CD800030CF000036CF00003CCF000042CF000083
:10CD900048CF00004ECF000054CF00005ACF000013
:10CDA00060CF000066CF00006CCF000072CF0000A3
:10CDB00078CF00007ECF000084CF00008ACF000033
:10CDC00090CF000096CF00009CCF0000A2CF0000C3
:10CDD000A8CF0000AECF0000B4CF0000BACF000053
:10CDE000C0CF0000C6CF0000CCCF0000D2CF0000E3
:10CDF000D8CF0000DECF0000E4CF0000EACF000073
:10CE0000F0CF0000F6CF0000FCCF000002D0000001
:10CE100008D000000ED0000014D000001AD000008E
:10CE200020D0000026D000002CD0000032D000001E
:10CE300038D000003ED0000044D000004AD00000AE
:10CE400050D0000056D000005CD0000062D000003E
:10CE500068D000006ED0000074D000007AD00000CE
:10CE600080D0000086D000008CD0000092D000005E
:10CE700098D000009ED00000A4D00000AAD00000EE
:10CE8000B0D00000B6D00000BCD00000C2D000007E
:10CE9000C8D00000CED00000D4D00000DAD000000E
:10CEA000E0D00000E6D00000ECD00000F2D000009E
:10CEB000F8D00000FED0000004D100000AD100002C
:10CEC00010D1000016D100001CD1000022D10000BA
:10CED00028D100002ED1000034D100003AD100004A
:10CEE00040D1000046D100004CD1000052D10000DA
:10CEF00058D100005ED1000064D100006AD100006A
:10CF000070D1000076D100007CD1000082D10000F9
:10CF100088D100008ED1000094D100009AD1000089
:10CF2000A0D10000A6D10000ACD10000B2D1000019
:10CF3000B8D10000BED10000C4D10000CAD10000A9
:10CF4000D0D10000D6D10000DCD10000E2D1000039
:10CF5000E8D10000EED10000F4D10000FAD10000C9
:10CF600000D2000006D200000CD2000012D2000055
:10CF700018D200001ED2000024D200002AD20000E5
:10CF800030D2000036D200003CD2000042D2000075
:10CF900048D200004ED2000054D200005AD2000005
:10CFA00060D2000066D200006CD2000072D2000095
:10CFB00078D200007ED2000084D200008AD2000025
:10CFC00090D2000096D200009CD20000A2D20000B5
:10CFD000A8D20000AED20000B4D20000BAD2000045
:10CFE000C0D20000C6D20000CCD20000D2D20000D5
:10CFF000D8D20000DED20000E4D20000EAD2000065
:10D00000F0D20000F6D20000FCD2000002D30000F3
:10D0100008D300000ED3000014D300001AD3000080
:10D0200020D3000026D300002CD3000032D3000010
:10D0300038D300003ED3000043D3000048D30000A3
:10D040004DD3000052D3000057D300005CD3000042
:10D0500061D3000066D300006BD3000070D30000E2
:10D0600075D300007AD300007FD3000084D3000082
:10D0700089D300008ED3000093D3000098D3000022
:10D080009DD30000A2D30000A7D30000ACD30000C2
:10D09000B1D30000B6D30000BBD30000C0D3000062
:10D0A000C5D30000CAD30000CFD30000D4D3000002
:10D0B000D9D30000DED30000E3D30000E8D30000A2
:10D0C000EDD30000F2D30000F7D30000FCD3000042
:10D0D00001D4000006D400000BD4000010D40000DE
:10D0E00015D400001AD400001FD4000024D400007E
:10D0F00029D400002ED4000033D4000038D400001E
:10D100003DD4000042D4000047D400004CD40000BD
:10D1100051D4000056D400005BD4000060D400005D
:10D1200065D400006AD400006FD4000074D40000FD
:10D1300079D400007ED4000083D4000088D400009D
:10D140008DD4000092D4000097D400009CD400003D
:10D15000A1D40000A6D40000ABD40000B0D40000DD
:10D16000B5D40000BAD40000BFD40000C4D400007D
:10D17000C9D40000CED40000D3D40000D8D400001D
:10D18000DDD40000E2D40000E7D40000ECD40000BD
:10D19000F1D40000F6D40000FBD4000000D500005C
:10D1A00005D500000AD500000FD5000014D50000F9
:10D1B00019D500001ED5000023D5000028D5000099
:10D1C0002DD5000032D5000037D500003CD5000039
:10D1D00041D5000046D500004BD5000050D50000D9
:10D1E00055D500005AD500005FD5000064D5000079
:10D1F00069D500006ED5000073D5000078D5000019
:10D200007DD5000082D5000087D500008CD50000B8
:10D2100091D5000096D500009BD50000A0D5000058
:10D22000A5D50000AAD50000AFD50000B4D50000F8
:10D23000B9D50000BED50000C3D50000C8D5000098
:10D24000CDD50000D2D50000D7D50000DCD5000038
:10D25000E1D50000E6D50000EBD50000F0D50000D8
:10D26000F5D50000FAD50000FFD5000004D6000077
:10D2700009D600000ED6000013D6000018D6000014
:10D280001DD6000022D6000027D600002CD60000B4
:10D2900031D6000036D600003BD6000040D6000054
:10D2A00045D600004AD600004FD6000054D60000F4
:10D2B00059D600005ED6000063D6000068D6000094
:10D2C0006DD6000072D6000077D600007CD6000034
:10D2D00081D6000086D600008BD6000090D60000D4
:10D2E00095D600009AD600009FD60000A4D6000074
:10D2F000A9D60000AED60000B3D60000B8D6000014
:10D30000BDD60000C2D60000C7D60000CCD60000B3
:10D31000D1D60000D6D60000DBD60000E0D6000053
:10D32000E5D60000EAD60000EFD60000F4D60000F3
:10D33000F9D60000FED6000003D7000008D7000091
:10D340000DD7000012D7000017D700001CD700002F
:10D3500021D7000026D700002BD7000030D70000CF
:10D3600035D700003AD700003FD7000044D700006F
:10D3700049D700004ED7000053D7000058D700000F
:10D380005DD7000062D7000067D700006CD70000AF
:10D3900071D7000076D700007BD7000080D700004F
:10D3A00085D700008AD700008FD7000094D70000EF
:10D3B00099D700009ED70000A3D70000A8D700008F
:10D3C000ADD70000B2D70000B7D70000BCD700002F
:10D3D000C1D70000C6D70000CBD70000D0D70000CF
:10D3E000D5D70000DAD70000DFD70000E4D700006F
:10D3F000E9D70000EED70000F3D70000F8D700000F
:10D40000FDD7000002D8000007D800000CD80000AB
:10D4100011D8000016D800001BD8000020D800004A
:10D4200025D800002AD800002FD8000034D80000EA
:10D4300039D800003ED8000043D8000048D800008A
:10D440004DD8000052D8000057D800005CD800002A
:10D4500061D8000066D800006BD8000070D80000CA
:10D4600075D800007AD800007FD8000084D800006A
:10D4700089D800008ED8000093D8000098D800000A
:10D480009DD80000A2D80000A7D80000ACD80000AA
:10D49000B1D80000B6D80000BBD80000C0D800004A
:10D4A000C5D80000CAD80000CFD80000D4D80000EA
:10D4B000D9D80000DED80000E3D80000E8D800008A
:10D4C000EDD80000F2D80000F7D80000FCD800002A
:10D4D00001D9000006D900000BD9000010D90000C6
:10D4E00015D900001AD900001FD9000024D9000066
:10D4F00029D900002ED9000033D9000038D9000006
:10D500003DD9000042D9000047D900004CD90000A5
:10D5100051D9000056D900005BD9000060D9000045
:10D5200065D900006AD900006FD9000074D90000E5
:10D5300079D900007ED9000083D9000088D9000085
:10D540008DD9000092D9000097D900009CD9000025
:10D55000A1D90000A6D90000ABD90000B0D90000C5
:10D56000B5D90000BAD90000BFD90000C4D9000065
:10D57000C9D90000CED90000D3D90000D8D9000005
:10D58000DDD90000E2D90000E7D90000ECD90000A5
:10D59000F1D90000F6D90000FBD9000000DA000044
:10D5A00005DA00000ADA00000FDA000014DA0000E1
:10D5B00019DA00001EDA000023DA000028DA000081
:10D5C0002DDA000032DA000037DA00003CDA000021
:10D5D00041DA000046DA00004BDA000050DA0000C1
:10D5E00055DA00005ADA00005FDA000064DA000061
:10D5F00069DA00006EDA000073DA000078DA000001
:10D600007DDA000082DA000087DA00008CDA0000A0
:10D6100091DA000096DA00009BDA0000A0DA000040
:10D62000A5DA0000AADA0000AFDA0000B4DA0000E0
:10D63000B9DA0000BEDA0000C3DA0000C8DA000080
:10D64000CDDA0000D2DA0000D7DA0000DCDA000020
:10D65000E1DA0000E6DA0000EBDA0000F0DA0000C0
:10D66000F5DA0000FADA0000FFDA000004DB00005F
:10D6700009DB00000EDB000013DB000018DB0000FC
:10D680001DDB000022DB000027DB00002CDB00009C
:10D6900031DB000036DB00003BDB000040DB00003C
:10D6A00045DB00004ADB00004FDB000054DB0000DC
:10D6B00059DB00005EDB000063DB000068DB00007C
:10D6C0006DDB000072DB000077DB00007CDB00001C
:10D6D00081DB000086DB00008BDB000090DB0000BC
:10D6E00095DB00009ADB00009FDB0000A4DB00005C
:10D6F000A9DB0000AEDB0000B3DB0000B8DB0000FC
:10D70000BDDB0000C2DB0000C7DB0000CCDB00009B
:10D71000D1DB0000D6DB0000DBDB0000E0DB00003B
:10D72000E5DB0000EADB0000EFDB0000F4DB0000DB
:10D73000F9DB0000FEDB000003DC000008DC000079
:10D740000DDC000012DC000017DC00001CDC000017
:10D7500021DC000026DC00002BDC000030DC0000B7
:10D7600035DC00003ADC00003FDC000044DC000057
:10D7700049DC00004EDC000053DC000058DC0000F7
:10D780005DDC000062DC000067DC00006CDC000097
:10D7900071DC000076DC00007BDC000080DC000037
:10D7A00085DC00008ADC00008FDC000094DC0000D7
:10D7B00099DC00009EDC0000A3DC0000A8DC000077
:10D7C000ADDC0000B2DC0000B7DC0000BCDC000017
:10D7D000C1DC0000C6DC0000CBDC0000D0DC0000B7
:10D7E000D5DC0000DADC0000DFDC0000E4DC000057
:10D7F000E9DC0000EEDC0000F3DC0000F8DC0000F7
:10D80000FDDC000002DD000007DD00000CDD000093
:10D8100011DD000016DD00001BDD000020DD000032
:10D8200025DD00002ADD00002FDD000034DD0000D2
:10D8300039DD00003EDD000043DD000048DD000072
:10D840004DDD000052DD000057DD00005CDD000012
:10D8500061DD000066DD00006BDD000070DD0000B2
:10D8600075DD00007ADD00007FDD000084DD000052
:10D8700089DD00008EDD000093DD000098DD0000F2
:10D880009DDD0000A2DD0000A7DD0000ACDD000092
:10D89000B1DD0000B6DD0000BBDD0000C0DD000032
:10D8A000C5DD0000CADD0000CFDD0000D4DD0000D2
:10D8B000D9DD0000DEDD0000E3DD0000E8DD000072
:10D8C000EDDD0000F2DD0000F7DD0000FCDD000012
:10D8D00001DE000006DE00000BDE000010DE0000AE
:10D8E00015DE00001ADE00001FDE000024DE00004E
:10D8F00029DE00002EDE000033DE000038DE0000EE
:10D900003DDE000042DE000047DE00004CDE00008D
:10D9100051DE000056DE00005BDE000060DE00002D
:10D9200065DE00006ADE00006FDE000074DE0000CD
:10D9300079DE00007EDE000083DE000088DE00006D
:10D940008DDE000092DE000097DE00009CDE00000D
:10D95000A1DE0000A6DE0000ABDE0000B0DE0000AD
:10D96000B5DE0000BADE0000BFDE0000C4DE00004D
:10D97000C9DE0000CEDE0000D3DE0000D8DE0000ED
:10D98000DDDE0000E2DE0000E7DE0000ECDE00008D
:10D99000F1DE0000F6DE0000FBDE000000DF00002C
:10D9A00005DF00000ADF00000FDF000014DF0000C9
:10D9B00019DF00001EDF000023DF000028DF000069
:10D9C0002DDF000032DF000037DF00003CDF000009
:10D9D00041DF000046DF00004BDF000050DF0000A9
:10D9E00055DF00005ADF00005FDF000064DF000049
:10D9F00069DF00006EDF000073DF000078DF0000E9
:10DA00007DDF000082DF000087DF00008CDF000088
:10DA100091DF000096DF00009BDF0000A0DF000028
:10DA2000A5DF0000AADF0000AFDF0000B4DF0000C8
:10DA3000B9DF0000BEDF0000C3DF0000C8DF000068
:10DA4000CDDF0000D2DF0000D7DF0000DCDF000008
:10DA5000E1DF0000E6DF0000EBDF0000F0DF0000A8
:10DA6000F5DF0000FADF0000FFDF000004E0000047
:10DA700009E000000EE0000013E0000018E00000E4
:10DA80001DE0000022E0000027E000002CE0000084
:10DA900031E0000036E000003BE0000040E0000024
:10DAA00045E000004AE000004FE0000054E00000C4
:10DAB00059E000005EE0000063E0000068E0000064
:10DAC0006DE0000072E0000077E000007CE0000004
:10DAD00081E0000086E000008BE0000090E00000A4
:10DAE00095E000009AE000009FE00000A4E0000044
:10DAF000A9E00000AEE00000B3E00000B8E00000E4
:10DB0000BDE00000C2E00000C7E00000CCE0000083
:10DB1000D1E00000D6E00000DBE00000E0E0000023
:10DB2000E5E00000EAE00000EFE00000F4E00000C3
:10DB3000F9E00000FEE0000003E1000008E1000061
:10DB40000DE1000012E1000017E100001CE10000FF
:10DB500021E1000026E100002BE1000030E100009F
:10DB600035E100003AE100003FE1000044E100003F
:10DB700049E100004EE1000053E1000058E10000DF
:10DB80005DE1000062E1000067E100006CE100007F
:10DB900071E1000076E100007BE1000080E100001F
:10DBA00085E100008AE100008FE1000094E10000BF
:10DBB00099E100009EE10000A3E10000A8E100005F
:10DBC000ADE10000B2E10000B7E10000BCE10000FF
:10DBD000C1E10000C6E10000CBE10000D0E100009F
:10DBE000D5E10000DAE10000DFE10000E4E100003F
:10DBF000E9E10000EEE10000F3E10000F8E10000DF
:10DC0000FDE1000002E2000007E200000CE200007B
:10DC100011E2000016E200001BE2000020E200001A
:10DC200025E200002AE200002FE2000034E20000BA
:10DC300039E200003EE2000043E2000048E200005A
:10DC40004DE2000052E2000057E200005CE20000FA
:10DC500061E2000066E200006BE2000070E200009A
:10DC600075E200007AE200007FE2000084E200003A
:10DC700089E200008EE2000093E2000098E20000DA
:10DC80009DE20000A2E20000A7E20000ACE200007A
:10DC9000B1E20000B6E20000BBE20000C0E200001A
:10DCA000C5E20000CAE20000CFE20000D4E20000BA
:10DCB000D9E20000DEE20000E3E20000E8E200005A
:10DCC000EDE20000F2E20000F7E20000FCE20000FA
:10DCD00001E3000006E300000BE3000010E3000096
:10DCE00015E300001AE300001FE3000024E3000036
:10DCF00029E300002EE3000033E3000038E30000D6
:10DD00003DE3000042E3000047E300004CE3000075
:10DD100051E3000056E300005BE3000060E3000015
:10DD200065E300006AE300006FE3000074E30000B5
:10DD300079E300007EE3000083E3000088E3000055
:10DD40008DE3000092E3000097E300009CE30000F5
:10DD5000A1E30000A6E30000ABE30000B0E3000095
:10DD6000B5E30000BAE30000BFE30000C4E3000035
:10DD7000C9E30000CEE30000D3E30000D8E30000D5
:10DD8000DDE30000E2E30000E7E30000ECE3000075
:10DD9000F1E30000F6E30000FBE3000000E4000014
:10DDA00005E400000AE400000FE4000014E40000B1
:10DDB00019E400001EE4000023E4000028E4000051
:10DDC0002DE4000032E4000037E400003CE40000F1
:10DDD00041E4000046E400004BE4000050E4000091
:10DDE00055E400005AE400005FE4000064E4000031
:10DDF00069E400006EE4000073E4000078E40000D1
:10DE00007DE4000082E4000087E400008CE4000070
:10DE100091E4000096E400009BE40000A0E4000010
:10DE2000A5E40000AAE40000AFE40000B4E40000B0
:10DE3000B9E40000BEE40000C3E40000C8E4000050
:10DE4000CDE40000D2E40000D7E40000DCE40000F0
:10DE5000E1E40000E6E40000EBE40000F0E4000090
:10DE6000F5E40000FAE40000FFE4000004E500002F
:10DE700009E500000EE5000013E5000018E50000CC
:10DE80001DE5000022E5000027E500002CE500006C
:10DE900031E5000036E500003BE5000040E500000C
:10DEA00045E500004AE500004FE5000054E50000AC
:10DEB00059E500005EE5000063E5000068E500004C
:10DEC0006DE5000072E5000077E500007CE50000EC
:10DED00081E5000086E500008BE5000090E500008C
:10DEE00095E500009AE500009FE50000A4E500002C
:10DEF000A9E50000AEE50000B3E50000B8E50000CC
:10DF0000BDE50000C2E50000C7E50000CCE500006B
:10DF1000D1E50000D6E50000DBE50000E0E500000B
:10DF2000E5E50000EAE50000EFE50000F4E50000AB
:10DF3000F9E50000FEE5000003E6000008E6000049
:10DF40000DE6000012E6000017E600001CE60000E7
:10DF500021E6000026E600002BE6000030E6000087
:10DF600035E600003AE600003FE6000044E6000027
:10DF700049E600004EE6000053E6000058E60000C7
:10DF80005DE6000062E6000067E600006CE6000067
:10DF900071E6000076E600007BE6000080E6000007
:10DFA00085E600008AE600008FE6000094E60000A7
:10DFB00099E600009EE60000A3E60000A8E6000047
:10DFC000ADE60000B2E60000B7E60000BCE60000E7
:10DFD000C1E60000C6E60000CAE60000CEE600008A
:10DFE000D2E60000D6E60000DAE60000DEE6000039
:10DFF000E2E60000E6E60000EAE60000EEE60000E9
:10E00000F2E60000F6E60000FAE60000FEE6000098
:10E0100002E7000006E700000AE700000EE7000044
:10E0200012E7000016E700001AE700001EE70000F4
:10E0300022E7000026E700002AE700002EE70000A4
:10E0400032E7000036E700003AE700003EE7000054
:10E0500042E7000046E700004AE700004EE7000004
:10E0600052E7000056E700005AE700005EE70000B4
:10E0700062E7000066E700006AE700006EE7000064
:10E0800072E7000076E700007AE700007EE7000014
:10E0900082E7000086E700008AE700008EE70000C4
:10E0A00092E7000096E700009AE700009EE7000074
:10E0B000A2E70000A6E70000AAE70000AEE7000024
:10E0C000B2E70000B6E70000BAE70000BEE70000D4
:10E0D000C2E70000C6E70000CAE70000CEE7000084
:10E0E000D2E70000D6E70000DAE70000DEE7000034
:10E0F000E2E70000E6E70000EAE70000EEE70000E4
:10E10000F2E70000F6E70000FAE70000FEE7000093
:10E1100002E8000006E800000AE800000EE800003F
:10E1200012E8000016E800001AE800001EE80000EF
:10E1300022E8000026E800002AE800002EE800009F
:10E1400032E8000036E800003AE800003EE800004F
:10E1500042E8000046E800004AE800004EE80000FF
:10E1600052E8000056E800005AE800005EE80000AF
:10E1700062E8000066E800006AE800006EE800005F
:10E1800072E8000076E800007AE800007EE800000F
:10E1900082E8000086E800008AE800008EE80000BF
:10E1A00092E8000096E800009AE800009EE800006F
:10E1B000A2E80000A6E80000AAE80000AEE800001F
:10E1C000B2E80000B6E80000BAE80000BEE80000CF
:10E1D000C2E80000C6E80000CAE80000CEE800007F
:10E1E000D2E80000D6E80000DAE80000DEE800002F
:10E1F000E2E80000E6E80000EAE80000EEE80000DF
:10E20000F2E80000F6E80000FAE80000FEE800008E
:10E2100002E9000006E900000AE900000EE900003A
:10E2200012E9000016E900001AE900001EE90000EA
:10E2300022E9000026E900002AE900002EE900009A
:10E2400032E9000036E900003AE900003EE900004A
:10E2500042E9000046E900004AE900004EE90000FA
:10E2600052E9000056E900005AE900005EE90000AA
:10E2700062E9000066E900006AE900006EE900005A
:10E2800072E9000076E900007AE900007EE900000A
:10E2900082E9000086E900008AE900008EE90000BA
:10E2A00092E9000096E900009AE900009EE900006A
:10E2B000A2E90000A6E90000AAE90000AEE900001A
:10E2C000B2E90000B6E90000BAE90000BEE90000CA
:10E2D000C2E90000C6E90000CAE90000CEE900007A
:10E2E000D2E90000D6E90000DAE90000DEE900002A
:10E2F000E2E90000E6E90000EAE90000EEE90000DA
:10E30000F2E90000F6E90000FAE90000FEE9000089
:10E3100002EA000006EA00000AEA00000EEA000035
:10E3200012EA000016EA00001AEA00001EEA0000E5
:10E3300022EA000026EA00002AEA00002EEA000095
:10E3400032EA000036EA00003AEA00003EEA000045
:10E3500042EA000046EA00004AEA00004EEA0000F5
:10E3600052EA000056EA00005AEA00005EEA0000A5
:10E3700062EA000066EA00006AEA00006EEA000055
:10E3800072EA000076EA00007AEA00007EEA000005
:10E3900082EA000086EA00008AEA00008EEA0000B5
:10E3A00092EA000096EA00009AEA00009EEA000065
:10E3B000A2EA0000A6EA0000AAEA0000AEEA000015
:10E3C000B2EA0000B6EA0000BAEA0000BEEA0000C5
:10E3D000C2EA0000C6EA0000CAEA0000CEEA000075
:10E3E000D2EA0000D6EA0000DAEA0000DEEA000025
:10E3F000E2EA0000E6EA0000EAEA0000EEEA0000D5
:10E40000F2EA0000F6EA0000FAEA0000FEEA000084
:10E4100002EB000006EB00000AEB00000EEB000030
:10E4200012EB000016EB00001AEB00001EEB0000E0
:10E4300022EB000026EB00002AEB00002EEB000090
:10E4400032EB000036EB00003AEB00003EEB000040
:10E4500042EB000046EB00004AEB00004EEB0000F0
:10E4600052EB000056EB00005AEB00005EEB0000A0
:10E4700062EB000066EB00006AEB00006EEB000050
:10E4800072EB000076EB00007AEB00007EEB000000
:10E4900082EB000086EB00008AEB00008EEB0000B0
:10E4A00092EB000096EB00009AEB00009EEB000060
:10E4B000A2EB0000A6EB0000AAEB0000AEEB000010
:10E4C000B2EB0000B6EB0000BAEB0000BEEB0000C0
:10E4D000C2EB0000C6EB0000CAEB0000CEEB000070
:10E4E000D2EB0000D6EB0000DAEB0000DEEB000020
:10E4F000E2EB0000E6EB0000EAEB0000EEEB0000D0
:10E50000F2EB0000F6EB0000FAEB0000FEEB00007F
:10E5100002EC000006EC00000AEC00000EEC00002B
:10E5200012EC000016EC00001AEC00001EEC0000DB
:10E5300022EC000026EC00002AEC00002EEC00008B
:10E5400032EC000036EC00003AEC00003EEC00003B
:10E5500042EC000046EC00004AEC00004EEC0000EB
:10E5600052EC000056EC00005AEC00005EEC00009B
:10E5700062EC000066EC00006AEC00006EEC00004B
:10E5800072EC000076EC00007AEC00007EEC0000FB
:10E5900082EC000086EC00008AEC00008EEC0000AB
:10E5A00092EC000096EC00009AEC00009EEC00005B
:10E5B000A2EC0000A6EC0000AAEC0000AEEC00000B
:10E5C000B2EC0000B6EC0000BAEC0000BEEC0000BB
:10E5D000C2EC0000C6EC0000CAEC0000CEEC00006B
:10E5E000D2EC0000D6EC0000DAEC0000DEEC00001B
:10E5F000E2EC0000E6EC0000EAEC0000EEEC0000CB
:10E60000F2EC0000F6EC0000FAEC0000FEEC00007A
:10E6100002ED000006ED00000AED00000EED000026
:10E6200012ED000016ED00001AED00001EED0000D6
:10E6300022ED000026ED00002AED00002EED000086
:10E6400032ED000036ED00003AED00003EED000036
:10E6500042ED000046ED00004AED00004EED0000E6
:10E6600052ED000056ED00005AED00005EED000096
:10E6700062ED000066ED00006AED00006EED000046
:10E6800072ED000076ED00007AED00007EED0000F6
:10E6900082ED000086ED00008AED00008EED0000A6
:10E6A00092ED000096ED00009AED00009EED000056
:10E6B000A2ED0000A6ED0000AAED0000AEED000006
:10E6C000B2ED0000B6ED0000BAED0000BEED0000B6
:10E6D000C2ED0000C6ED0000CAED0000CEED000066
:10E6E000D2ED0000D6ED0000DAED0000DEED000016
:10E6F000E2ED0000E6ED0000EAED0000EEED0000C6
:10E70000F2ED0000F6ED0000FAED0000FEED000075
:10E7100002EE000006EE00000AEE00000EEE000021
:10E7200012EE000016EE00001AEE00001EEE0000D1
:10E7300022EE000026EE00002AEE00002EEE000081
:10E7400032EE000036EE00003AEE00003EEE000031
:10E7500042EE000046EE00004AEE00004EEE0000E1
:10E7600052EE000056EE00005AEE00005EEE000091
:10E7700062EE000066EE00006AEE00006EEE000041
:10E7800072EE000076EE00007AEE00007EEE0000F1
:10E7900082EE000086EE00008AEE00008EEE0000A1
:10E7A00092EE000096EE00009AEE00009EEE000051
:10E7B000A2EE0000A6EE0000AAEE0000AEEE000001
:10E7C000B2EE0000B6EE0000BAEE0000BEEE0000B1
:10E7D000C2EE0000C6EE0000CAEE0000CEEE000061
:10E7E000D2EE0000D6EE0000DAEE0000DEEE000011
:10E7F000E2EE0000E6EE0000EAEE0000EEEE0000C1
:10E80000F2EE0000F6EE0000FAEE0000FEEE000070
:10E8100002EF000006EF00000AEF00000EEF00001C
:10E8200012EF000016EF00001AEF00001EEF0000CC
:10E8300022EF000026EF00002AEF00002EEF00007C
:10E8400032EF000036EF00003AEF00003EEF00002C
:10E8500042EF000046EF00004AEF00004EEF0000DC
:10E8600052EF000056EF00005AEF00005EEF00008C
:10E8700062EF000066EF00006AEF00006EEF00003C
:10E8800072EF000076EF00007AEF00007EEF0000EC
:10E8900082EF000086EF00008AEF00008EEF00009C
:10E8A00092EF000096EF00009AEF00009EEF00004C
:10E8B000A2EF0000A6EF0000AAEF0000AEEF0000FC
:10E8C000B2EF0000B6EF0000BAEF0000BEEF0000AC
:10E8D000C2EF0000C6EF0000CAEF0000CEEF00005C
:10E8E000D2EF0000D6EF0000DAEF0000DEEF00000C
:10E8F000E2EF0000E6EF0000EAEF0000EEEF0000BC
:10E90000F2EF0000F6EF0000FAEF0000FEEF00006B
:10E9100002F0000006F000000AF000000EF0000017
:10E9200012F0000016F000001AF000001EF00000C7
:10E9300022F0000026F000002AF000002EF0000077
:10E9400032F0000036F000003AF000003EF0000027
:10E9500042F0000046F000004AF000004EF00000D7
:10E9600052F0000056F000005AF000005EF0000087
:10E9700062F0000066F000006AF000006EF0000037
:10E9800072F0000076F000007AF000007EF00000E7
:10E9900082F0000086F000008AF000008EF0000097
:10E9A00092F0000096F000009AF000009EF0000047
:10E9B000A2F00000A6F00000AAF00000AEF00000F7
:10E9C000B2F00000B6F00000BAF00000BEF00000A7
:10E9D000C2F00000C6F00000CAF00000CEF0000057
:10E9E000D2F00000D6F00000DAF00000DEF0000007
:10E9F000E2F00000E6F00000EAF00000EEF00000B7
:10EA0000F2F00000F6F00000FAF00000FEF0000066
:10EA100002F1000006F100000AF100000EF1000012
:10EA200012F1000016F100001AF100001EF10000C2
:10EA300022F1000026F100002AF100002EF1000072
:10EA400032F1000036F100003AF100003EF1000022
:10EA500042F1000046F100004AF100004EF10000D2
:10EA600052F1000056F100005AF100005EF1000082
:10EA700062F1000066F100006AF100006EF1000032
:10EA800072F1000076F100007AF100007EF10000E2
:10EA900082F1000086F100008AF100008EF1000092
:10EAA00092F1000096F100009AF100009EF1000042
:10EAB000A2F10000A6F10000AAF10000AEF10000F2
:10EAC000B2F10000B6F10000BAF10000BEF10000A2
:10EAD000C2F10000C6F10000CAF10000CEF1000052
:10EAE000D2F10000D6F10000DAF10000DEF1000002
:10EAF000E2F10000E6F10000EAF10000EEF10000B2
:10EB0000F2F10000F6F10000FAF10000FEF1000061
:10EB100002F2000006F200000AF200000EF200000D
:10EB200012F2000016F200001AF200001EF20000BD
:10EB300022F2000026F200002AF200002EF200006D
:10EB400032F2000036F200003AF200003EF200001D
:10EB500042F2000046F200004AF200004EF20000CD
:10EB600052F2000056F200005AF200005EF200007D
:10EB700062F2000066F200006AF200006EF200002D
:10EB800072F2000076F200007AF200007EF20000DD
:10EB900082F2000086F200008AF200008EF200008D
:10EBA00092F2000096F200009AF200009EF200003D
:10EBB000A2F20000A6F20000AAF20000AEF20000ED
:10EBC000B2F20000B6F20000BAF20000BEF200009D
:10EBD000C2F20000C6F20000CAF20000CEF200004D
:10EBE000D2F20000D6F20000DAF20000DEF20000FD
:10EBF000E2F20000E6F20000EAF20000EEF20000AD
:10EC0000F2F20000F6F20000FAF20000FEF200005C
:10EC100002F3000006F300000AF300000EF3000008
:10EC200012F3000016F300001AF300001EF30000B8
:10EC300022F3000026F300002AF300002EF3000068
:10EC400032F3000036F300003AF300003EF3000018
:10EC500042F3000046F300004AF300004EF30000C8
:10EC600052F3000056F300005AF300005EF3000078
:10EC700062F3000066F300006AF300006EF3000028
:10EC800072F3000076F300007AF300007EF30000D8
:10EC900082F3000086F300008AF300008EF3000088
:10ECA00092F3000096F300009AF300009EF3000038
:10ECB000A2F30000A6F30000AAF30000AEF30000E8
:10ECC000B2F30000B6F30000BAF30000BEF3000098
:10ECD000C2F30000C6F30000CAF30000CEF3000048
:10ECE000D2F30000D6F30000DAF30000DEF30000F8
:10ECF000E2F30000E6F30000EAF30000EEF30000A8
:10ED0000F2F30000F6F30000FAF30000FEF3000057
:10ED100002F4000006F400000AF400000EF4000003
:10ED200012F4000016F400001AF400001EF40000B3
:10ED300022F4000026F400002AF400002EF4000063
:10ED400032F4000036F400003AF400003EF4000013
:10ED500042F4000046F400004AF400004EF40000C3
:10ED600052F4000056F400005AF400005EF4000073
:10ED700062F4000066F400006AF400006EF4000023
:10ED800072F4000076F400007AF400007EF40000D3
:10ED900082F4000086F400008AF400008EF4000083
:10EDA00092F4000096F400009AF400009EF4000033
:10EDB000A2F40000A6F40000AAF40000AEF40000E3
:10EDC000B2F40000B6F40000BAF40000BEF4000093
:10EDD000C2F40000C6F40000CAF40000CEF4000043
:10EDE000D2F40000D6F40000DAF40000DEF40000F3
:10EDF000E2F40000E6F40000EAF40000EEF40000A3
:10EE0000F2F40000F6F40000FAF40000FEF4000052
:10EE100002F5000006F500000AF500000EF50000FE
:10EE200012F5000016F500001AF500001EF50000AE
:10EE300022F5000026F500002AF500002EF500005E
:10EE400032F5000036F500003AF500003EF500000E
:10EE500042F5000046F500004AF500004EF50000BE
:10EE600052F5000056F500005AF500005EF500006E
:10EE700062F5000066F500006AF500006EF500001E
:10EE800072F5000076F500007AF500007EF50000CE
:10EE900082F5000086F500008AF500008EF500007E
:10EEA00092F5000096F500009AF500009EF500002E
:10EEB000A2F50000A6F50000AAF50000AEF50000DE
:10EEC000B2F50000B6F50000BAF50000BEF500008E
:10EED000C2F50000C6F50000CAF50000CEF500003E
:10EEE000D2F50000D6F50000DAF50000DEF50000EE
:10EEF000E2F50000E6F50000EAF50000EEF500009E
:10EF0000F2F50000F6F50000FAF50000FEF500004D
:10EF100002F6000006F600000AF600000EF60000F9
:10EF200012F6000016F600001AF600001EF60000A9
:10EF300022F6000026F600002AF600002EF6000059
:10EF400032F6000036F600003AF600003EF6000009
:10EF500042F6000046F600004AF600004EF60000B9
:10EF600052F6000056F600005AF600005EF6000069
:10EF700062F6000066F6000069F600006CF600001C
:10EF80006FF6000072F6000075F6000078F60000DB
:10EF90007BF600007EF6000081F6000084F600009B
:10EFA00087F600008AF600008DF6000090F600005B
:10EFB00093F6000096F6000099F600009CF600001B
:10EFC0009FF60000A2F60000A5F60000A8F60000DB
:10EFD000ABF60000AEF60000B1F60000B4F600009B
:10EFE000B7F60000BAF60000BDF60000C0F600005B
:10EFF000C3F60000C6F60000C9F60000CCF600001B
:10F00000CFF60000D2F60000D5F60000D8F60000DA
:10F01000DBF60000DEF60000E1F60000E4F600009A
:10F02000E7F60000EAF60000EDF60000F0F600005A
:10F03000F3F60000F6F60000F9F60000FCF600001A
:10F04000FFF6000002F7000005F7000008F70000D7
:10F050000BF700000EF7000011F7000014F7000096
:10F0600017F700001AF700001DF7000020F7000056
:10F0700023F7000026F7000029F700002CF7000016
:10F080002FF7000032F7000035F7000038F70000D6
:10F090003BF700003EF7000041F7000044F7000096
:10F0A00047F700004AF700004DF7000050F7000056
:10F0B00053F7000056F7000059F700005CF7000016
:10F0C0005FF7000062F7000065F7000068F70000D6
:10F0D0006BF700006EF7000071F7000074F7000096
:10F0E00077F700007AF700007DF7000080F7000056
:10F0F00083F7000086F7000089F700008CF7000016
:10F100008FF7000092F7000095F7000098F70000D5
:10F110009BF700009EF70000A1F70000A4F7000095
:10F12000A7F70000AAF70000ADF70000B0F7000055
:10F13000B3F70000B6F70000B9F70000BCF7000015
:10F14000BFF70000C2F70000C5F70000C8F70000D5
:10F15000CBF70000CEF70000D1F70000D4F7000095
:10F16000D7F70000DAF70000DDF70000E0F7000055
:10F17000E3F70000E6F70000E9F70000ECF7000015
:10F18000EFF70000F2F70000F5F70000F8F70000D5
:10F19000FBF70000FEF7000001F8000004F8000093
:10F1A00007F800000AF800000DF8000010F8000051
:10F1B00013F8000016F8000019F800001CF8000011
:10F1C0001FF8000022F8000025F8000028F80000D1
:10F1D0002BF800002EF8000031F8000034F8000091
:10F1E00037F800003AF800003DF8000040F8000051
:10F1F00043F8000046F8000049F800004CF8000011
:10F200004FF8000052F8000055F8000058F80000D0
:10F210005BF800005EF8000061F8000064F8000090
:10F2200067F800006AF800006DF8000070F8000050
:10F2300073F8000076F8000079F800007CF8000010
:10F240007FF8000082F8000085F8000088F80000D0
:10F250008BF800008EF8000091F8000094F8000090
:10F2600097F800009AF800009DF80000A0F8000050
:10F27000A3F80000A6F80000A9F80000ACF8000010
:10F28000AFF80000B2F80000B5F80000B8F80000D0
:10F29000BBF80000BEF80000C1F80000C4F8000090
:10F2A000C7F80000CAF80000CDF80000D0F8000050
:10F2B000D3F80000D6F80000D9F80000DCF8000010
:10F2C000DFF80000E2F80000E5F80000E8F80000D0
:10F2D000EBF80000EEF80000F1F80000F4F8000090
:10F2E000F7F80000FAF80000FDF8000000F900004F
:10F2F00003F9000006F9000009F900000CF900000C
:10F300000FF9000012F9000015F9000018F90000CB
:10F310001BF900001EF9000021F9000024F900008B
:10F3200027F900002AF900002DF9000030F900004B
:10F3300033F9000036F9000039F900003CF900000B
:10F340003FF9000042F9000045F9000048F90000CB
:10F350004BF900004EF9000051F9000054F900008B
:10F3600057F900005AF900005DF9000060F900004B
:10F3700063F9000066F9000069F900006CF900000B
:10F380006FF9000072F9000075F9000078F90000CB
:10F390007BF900007EF9000081F9000084F900008B
:10F3A00087F900008AF900008DF9000090F900004B
:10F3B00093F9000096F9000099F900009CF900000B
:10F3C0009FF90000A2F90000A5F90000A8F90000CB
:10F3D000ABF90000AEF90000B1F90000B4F900008B
:10F3E000B7F90000BAF90000BDF90000C0F900004B
:10F3F000C3F90000C6F90000C9F90000CCF900000B
:10F40000CFF90000D2F90000D5F90000D8F90000CA
:10F41000DBF90000DEF90000E1F90000E4F900008A
:10F42000E7F90000EAF90000EDF90000F0F900004A
:10F43000F3F90000F6F90000F9F90000FCF900000A
:10F44000FFF9000002FA000005FA000008FA0000C7
:10F450000BFA00000EFA000011FA000014FA000086
:10F4600017FA00001AFA00001DFA000020FA000046
:10F4700023FA000026FA000029FA00002CFA000006
:10F480002FFA000032FA000035FA000038FA0000C6
:10F490003BFA00003EFA000041FA000044FA000086
:10F4A00047FA00004AFA00004DFA000050FA000046
:10F4B00053FA000056FA000059FA00005CFA000006
:10F4C0005FFA000062FA000065FA000068FA0000C6
:10F4D0006BFA00006EFA000071FA000074FA000086
:10F4E00077FA00007AFA00007DFA000080FA000046
:10F4F00083FA000086FA000089FA00008CFA000006
:10F500008FFA000092FA000095FA000098FA0000C5
:10F510009BFA00009EFA0000A1FA0000A4FA000085
:10F52000A7FA0000AAFA0000ADFA0000B0FA000045
:10F53000B3FA0000B6FA0000B9FA0000BCFA000005
:10F54000BFFA0000C2FA0000C5FA0000C8FA0000C5
:10F55000CBFA0000CEFA0000D1FA0000D4FA000085
:10F56000D7FA0000DAFA0000DDFA0000E0FA000045
:10F57000E3FA0000E6FA0000E9FA0000ECFA000005
:10F58000EFFA0000F2FA0000F5FA0000F8FA0000C5
:10F59000FBFA0000FEFA000001FB000004FB000083
:10F5A00007FB00000AFB00000DFB000010FB000041
:10F5B00013FB000016FB000019FB00001CFB000001
:10F5C0001FFB000022FB000025FB000028FB0000C1
:10F5D0002BFB00002EFB000031FB000034FB000081
:10F5E00037FB00003AFB00003DFB000040FB000041
:10F5F00043FB000046FB000049FB00004CFB000001
:10F600004FFB000052FB000055FB000058FB0000C0
:10F610005BFB00005EFB000061FB000064FB000080
:10F6200067FB00006AFB00006DFB000070FB000040
:10F6300073FB000076FB000079FB00007CFB000000
:10F640007FFB000082FB000085FB000088FB0000C0
:10F650008BFB00008EFB000091FB000094FB000080
:10F6600097FB00009AFB00009DFB0000A0FB000040
:10F67000A3FB0000A6FB0000A9FB0000ACFB000000
:10F68000AFFB0000B2FB0000B5FB0000B8FB0000C0
:10F69000BBFB0000BEFB0000C1FB0000C4FB000080
:10F6A000C7FB0000CAFB0000CDFB0000D0FB000040
:10F6B000D3FB0000D6FB0000D9FB0000DCFB000000
:10F6C000DFFB0000E2FB0000E5FB0000E8FB0000C0
:10F6D000EBFB0000EEFB0000F1FB0000F4FB000080
:10F6E000F7FB0000FAFB0000FDFB000000FC00003F
:10F6F00003FC000006FC000009FC00000CFC0000FC
:10F700000FFC000012FC000015FC000018FC0000BB
:10F710001BFC00001EFC000021FC000024FC00007B
:10F7200027FC00002AFC00002DFC000030FC00003B
:10F7300033FC000036FC000039FC00003CFC0000FB
:10F740003FFC000042FC000045FC000048FC0000BB
:10F750004BFC00004EFC000051FC000054FC00007B
:10F7600057FC00005AFC00005DFC000060FC00003B
:10F7700063FC000066FC000069FC00006CFC0000FB
:10F780006FFC000072FC000075FC000078FC0000BB
:10F790007BFC00007EFC000081FC000084FC00007B
:10F7A00087FC00008AFC00008DFC000090FC00003B
:10F7B00093FC000096FC000099FC00009CFC0000FB
:10F7C0009FFC0000A2FC0000A5FC0000A8FC0000BB
:10F7D000ABFC0000AEFC0000B1FC0000B4FC00007B
:10F7E000B7FC0000BAFC0000BDFC0000C0FC00003B
:10F7F000C3FC0000C6FC0000C9FC0000CCFC0000FB
:10F80000CFFC0000D2FC0000D5FC0000D8FC0000BA
:10F81000DBFC0000DEFC0000E1FC0000E4FC00007A
:10F82000E7FC0000EAFC0000EDFC0000F0FC00003A
:10F83000F3FC0000F6FC0000F9FC0000FCFC0000FA
:10F84000FFFC000002FD000005FD000008FD0000B7
:10F850000BFD00000EFD000011FD000014FD000076
:10F8600017FD00001AFD00001DFD000020FD000036
:10F8700023FD000026FD000029FD00002CFD0000F6
:10F880002FFD000032FD000035FD000038FD0000B6
:10F890003BFD00003EFD000041FD000044FD000076
:10F8A00047FD00004AFD00004DFD000050FD000036
:10F8B00053FD000056FD000059FD00005CFD0000F6
:10F8C0005FFD000062FD000065FD000068FD0000B6
:10F8D0006BFD00006EFD000071FD000074FD000076
:10F8E00077FD00007AFD00007DFD000080FD000036
:10F8F00083FD000086FD000089FD00008CFD0000F6
:10F900008FFD000092FD000095FD000098FD0000B5
:10F910009BFD00009EFD0000A1FD0000A4FD000075
:10F92000A7FD0000AAFD0000ADFD0000B0FD000035
:10F93000B3FD0000B6FD0000B9FD0000BCFD0000F5
:10F94000BFFD0000C2FD0000C5FD0000C8FD0000B5
:10F95000CBFD0000CEFD0000D1FD0000D4FD000075
:10F96000D7FD0000DAFD0000DDFD0000E0FD000035
:10F97000E3FD0000E6FD0000E9FD0000ECFD0000F5
:10F98000EFFD0000F2FD0000F5FD0000F8FD0000B5
:10F99000FBFD0000FEFD000001FE000004FE000073
:10F9A00007FE00000AFE00000DFE000010FE000031
:10F9B00013FE000016FE000019FE00001CFE0000F1
:10F9C0001FFE000022FE000025FE000028FE0000B1
:10F9D0002BFE00002EFE000031FE000034FE000071
:10F9E00037FE00003AFE00003DFE000040FE000031
:10F9F00043FE000046FE000049FE00004CFE0000F1
:10FA00004FFE000052FE000055FE000058FE0000B0
:10FA10005BFE00005EFE000061FE000064FE000070
:10FA200067FE00006AFE00006DFE000070FE000030
:10FA300073FE000076FE000079FE00007CFE0000F0
:10FA40007FFE000082FE000085FE000088FE0000B0
:10FA50008BFE00008EFE000091FE000094FE000070
:10FA600097FE00009AFE00009DFE0000A0FE000030
:10FA7000A3FE0000A6FE0000A9FE0000ACFE0000F0
:10FA8000AFFE0000B2FE0000B5FE0000B8FE0000B0
:10FA9000BBFE0000BEFE0000C1FE0000C4FE000070
:10FAA000C7FE0000CAFE0000CDFE0000D0FE000030
:10FAB000D3FE0000D6FE0000D9FE0000DCFE0000F0
:10FAC000DFFE0000E2FE0000E5FE0000E8FE0000B0
:10FAD000EBFE0000EEFE0000F1FE0000F4FE000070
:10FAE000F7FE0000FAFE0000FDFE000000FF00002F
:10FAF00003FF000006FF000009FF00000CFF0000EC
:10FB00000FFF000012FF000015FF000018FF0000AB
:10FB10001BFF00001EFF000021FF000024FF00006B
:10FB200027FF00002AFF00002DFF000030FF00002B
:10FB300033FF000036FF000039FF00003CFF0000EB
:10FB40003FFF000042FF000045FF000048FF0000AB
:10FB50004BFF00004EFF000051FF000054FF00006B
:10FB600057FF00005AFF00005DFF000060FF00002B
:10FB700063FF000066FF000069FF00006CFF0000EB
:10FB80006FFF000072FF000075FF000078FF0000AB
:10FB90007BFF00007EFF000081FF000084FF00006B
:10FBA00087FF00008AFF00008DFF000090FF00002B
:10FBB00093FF000096FF000099FF00009CFF0000EB
:10FBC0009FFF0000A2FF0000A5FF0000A8FF0000AB
:10FBD000ABFF0000AEFF0000B1FF0000B4FF00006B
:10FBE000B7FF0000BAFF0000BDFF0000C0FF00002B
:10FBF000C3FF0000C6FF0000C9FF0000CCFF0000EB
:10FC0000CFFF0000D2FF0000D5FF0000D8FF0000AA
:10FC1000DBFF0000DEFF0000E1FF0000E4FF00006A
:10FC2000E7FF0000EAFF0000EDFF0000F0FF00002A
:10FC3000F3FF0000F6FF0000F9FF0000FCFF0000EA
:10FC4000FFFF0000020001000500010008000100A4
:10FC50000B0001000E000100110001001400010062
:10FC6000170001001A0001001D0001002000010022
:10FC70002300010026000100290001002C000100E2
:10FC80002F000100320001003500010038000100A2
:10FC90003B0001003E000100410001004400010062
:10FCA000470001004A0001004D0001005000010022
:10FCB0005300010056000100590001005C000100E2
:10FCC0005F000100620001006500010068000100A2
:10FCD0006B0001006E000100710001007400010062
:10FCE000770001007A0001007D0001008000010022
:10FCF0008300010086000100890001008C000100E2
:10FD00008F000100920001009500010098000100A1
:10FD10009B0001009E000100A1000100A400010061
:10FD2000A7000100AA000100AD000100B000010021
:10FD3000B3000100B6000100B9000100BC000100E1
:10FD4000BF000100C2000100C5000100C8000100A1
:10FD5000CB000100CE000100D1000100D400010061
:10FD6000D7000100DA000100DD000100E000010021
:10FD7000E3000100E6000100E9000100EC000100E1
:10FD8000EF000100F2000100F5000100F8000100A1
:10FD9000FB000100FE00010001010100040101005F
:10FDA000070101000A0101000D010100100101001D
:10FDB0001301010016010100190101001C010100DD
:10FDC0001F0101002201010025010100280101009D
:10FDD0002B0101002E01010031010100340101005D
:10FDE000370101003A0101003D010100400101001D
:10FDF0004301010046010100490101004C010100DD
:10FE00004F0101005201010055010100580101009C
:10FE10005B0101005E01010061010100640101005C
:10FE2000670101006A0101006D010100700101001C
:10FE30007301010076010100790101007C010100DC
:10FE40007F0101008201010085010100880101009C
:10FE50008B0101008E01010091010100940101005C
:10FE6000970101009A0101009D010100A00101001C
:10FE7000A3010100A6010100A9010100AC010100DC
:10FE8000AF010100B2010100B5010100B80101009C
:10FE9000BB010100BE010100C1010100C40101005C
:10FEA000C7010100CA010100CD010100D00101001C
:10FEB000D3010100D6010100D9010100DC010100DC
:10FEC000DF010100E2010100E5010100E80101009C
:10FED000EB010100EE010100F1010100F40101005C
:10FEE000F7010100FA010100FD010100000201001B
:10FEF0000302010006020100090201000C020100D8
:10FF00000F02010012020100150201001802010097
:10FF10001B0201001E02010020020100220201005A
:10FF20002402010026020100280201002A02010029
:10FF30002C0201002E0201003002010032020100F9
:10FF40003402010036020100380201003A020100C9
:10FF50003C0201003E020100400201004202010099
:10FF60004402010046020100480201004A02010069
:10FF70004C0201004E020100500201005202010039
:10FF80005402010056020100580201005A02010009
:10FF90005C0201005E0201006002010062020100D9
:10FFA0006402010066020100680201006A020100A9
:10FFB0006C0201006E020100700201007202010079
:10FFC0007402010076020100780201007A02010049
:10FFD0007C0201007E020100800201008202010019
:10FFE0008402010086020100880201008A020100E9
:10FFF0008C0201008E0201009002010092020100B9
:020000040001F9
:100000009402010096020100980201009A02010088
:100010009C0201009E020100A0020100A202010058
:10002000A4020100A6020100A8020100AA02010028
:10003000AC020100AE020100B0020100B2020100F8
:10004000B4020100B6020100B8020100BA020100C8
:10005000BC020100BE020100C0020100C202010098
:10006000C4020100C6020100C8020100CA02010068
:10007000CC020100CE020100D0020100D202010038
:10008000D4020100D6020100D8020100DA02010008
:10009000DC020100DE020100E0020100E2020100D8
:1000A000E4020100E6020100E8020100EA020100A8
:1000B000EC020100EE020100F0020100F202010078
:1000C000F4020100F6020100F8020100FA02010048
:1000D000FC020100FE020100000301000203010016
:1000E0000403010006030100080301000A030100E4
:1000F0000C0301000E0301001003010012030100B4
:100100001403010016030100180301001A03010083
:100110001C0301001E030100200301002203010053
:100120002403010026030100280301002A03010023
:100130002C0301002E0301003003010032030100F3
:100140003403010036030100380301003A030100C3
:100150003C0301003E030100400301004203010093
:100160004403010046030100480301004A03010063
:100170004C0301004E030100500301005203010033
:100180005403010056030100580301005A03010003
:100190005C0301005E0301006003010062030100D3
:1001A0006403010066030100680301006A030100A3
:1001B0006C0301006E030100700301007203010073
:1001C0007403010076030100780301007A03010043
:1001D0007C0301007E030100800301008203010013
:1001E0008403010086030100880301008A030100E3
:1001F0008C0301008E0301009003010092030100B3
:100200009403010096030100980301009A03010082
:100210009C0301009E030100A0030100A203010052
:10022000A4030100A6030100A8030100AA03010022
:10023000AC030100AE030100B0030100B2030100F2
:10024000B4030100B6030100B8030100BA030100C2
:10025000BC030100BE030100C0030100C203010092
:10026000C4030100C6030100C8030100CA03010062
:10027000CC030100CE030100D0030100D203010032
:10028000D4030100D6030100D8030100DA03010002
:10029000DC030100DE030100E0030100E2030100D2
:1002A000E4030100E6030100E8030100EA030100A2
:1002B000EC030100EE030100F0030100F203010072
:1002C000F4030100F6030100F8030100FA03010042
:1002D000FC030100FE030100000401000204010010
:1002E0000404010006040100080401000A040100DE
:1002F0000C0401000E0401001004010012040100AE
:100300001404010016040100180401001A0401007D
:100310001C0401001E04010020040100220401004D
:100320002404010026040100280401002A0401001D
:100330002C0401002E0401003004010032040100ED
:100340003404010036040100380401003A040100BD
:100350003C0401003E04010040040100420401008D
:100360004404010046040100480401004A0401005D
:100370004C0401004E04010050040100520401002D
:100380005404010056040100580401005A040100FD
:100390005C0401005E0401006004010062040100CD
:1003A0006404010066040100680401006A0401009D
:1003B0006C0401006E04010070040100720401006D
:1003C0007404010076040100780401007A0401003D
:1003D0007C0401007E04010080040100820401000D
:1003E0008404010086040100880401008A040100DD
:1003F0008C0401008E0401009004010092040100AD
:100400009404010096040100980401009A0401007C
:100410009C0401009E040100A0040100A20401004C
:10042000A4040100A6040100A8040100AA0401001C
:10043000AC040100AE040100B0040100B2040100EC
:10044000B4040100B6040100B8040100BA040100BC
:10045000BC040100BE040100C0040100C20401008C
:10046000C4040100C6040100C8040100CA0401005C
:10047000CC040100CE040100D0040100D20401002C
:10048000D4040100D6040100D8040100DA040100FC
:10049000DC040100DE040100E0040100E2040100CC
:1004A000E4040100E6040100E8040100EA0401009C
:1004B000EC040100EE040100F0040100F20401006C
:1004C000F4040100F6040100F8040100FA0401003C
:1004D000FC040100FE04010000050100020501000A
:1004E0000405010006050100080501000A050100D8
:1004F0000C0501000E0501001005010012050100A8
:100500001405010016050100180501001A05010077
:100510001C0501001E050100200501002205010047
:100520002405010026050100280501002A05010017
:100530002C0501002E0501003005010032050100E7
:100540003405010036050100380501003A050100B7
:100550003C0501003E050100400501004205010087
:100560004405010046050100480501004A05010057
:100570004C0501004E050100500501005205010027
:100580005405010056050100580501005A050100F7
:100590005C0501005E0501006005010062050100C7
:1005A0006405010066050100680501006A05010097
:1005B0006C0501006E050100700501007205010067
:1005C0007405010076050100780501007A05010037
:1005D0007C0501007E050100800501008205010007
:1005E0008405010086050100880501008A050100D7
:1005F0008C0501008E0501009005010092050100A7
:100600009405010096050100980501009A05010076
:100610009C0501009E050100A0050100A205010046
:10062000A4050100A6050100A8050100AA05010016
:10063000AC050100AE050100B0050100B2050100E6
:10064000B4050100B6050100B8050100BA050100B6
:10065000BC050100BE050100C0050100C205010086
:10066000C4050100C6050100C8050100CA05010056
:10067000CC050100CE050100D0050100D205010026
:10068000D4050100D6050100D8050100DA050100F6
:10069000DC050100DE050100E0050100E2050100C6
:1006A000E4050100E6050100E8050100EA05010096
:1006B000EC050100EE050100F0050100F205010066
:1006C000F4050100F6050100F8050100FA05010036
:1006D000FC050100FE050100000601000206010004
:1006E0000406010006060100080601000A060100D2
:1006F0000C0601000E0601001006010012060100A2
:100700001406010016060100180601001A06010071
:100710001C0601001E060100200601002206010041
:100720002406010026060100280601002A06010011
:100730002C0601002E0601003006010032060100E1
:100740003406010036060100380601003A060100B1
:100750003C0601003E060100400601004206010081
:100760004406010046060100480601004A06010051
:100770004C0601004E060100500601005206010021
:100780005406010056060100580601005A060100F1
:100790005C0601005E0601006006010062060100C1
:1007A0006406010066060100680601006A06010091
:1007B0006C0601006E060100700601007206010061
:1007C0007406010076060100780601007A06010031
:1007D0007C0601007E060100800601008206010001
:1007E0008406010086060100880601008A060100D1
:1007F0008C0601008E0601009006010092060100A1
:100800009406010096060100980601009A06010070
:100810009C0601009E060100A0060100A206010040
:10082000A4060100A6060100A8060100AA06010010
:10083000AC060100AE060100B0060100B2060100E0
:10084000B4060100B6060100B8060100BA060100B0
:10085000BC060100BE060100C0060100C206010080
:10086000C4060100C6060100C8060100CA06010050
:10087000CC060100CE060100D0060100D206010020
:10088000D4060100D6060100D8060100DA060100F0
:10089000DC060100DE060100E0060100E2060100C0
:1008A000E4060100E6060100E8060100EA06010090
:1008B000EC060100EE060100F0060100F206010060
:1008C000F4060100F6060100F8060100FA06010030
:1008D000FC060100FE0601000007010002070100FE
:1008E0000407010006070100080701000A070100CC
:1008F0000C0701000E07010010070100120701009C
:100900001407010016070100180701001A0701006B
:100910001C0701001E07010020070100220701003B
:100920002407010026070100280701002A0701000B
:100930002C0701002E0701003007010032070100DB
:100940003407010036070100380701003A070100AB
:100950003C0701003E07010040070100420701007B
:100960004407010046070100480701004A0701004B
:100970004C0701004E07010050070100520701001B
:100980005407010056070100580701005A070100EB
:100990005C0701005E0701006007010062070100BB
:1009A0006407010066070100680701006A0701008B
:1009B0006C0701006E07010070070100720701005B
:1009C0007407010076070100780701007A0701002B
:1009D0007C0701007E0701008007010082070100FB
:1009E0008407010086070100880701008A070100CB
:1009F0008C0701008E07010090070100920701009B
:100A00009407010096070100980701009A0701006A
:100A10009C0701009E070100A0070100A20701003A
:100A2000A4070100A6070100A8070100AA0701000A
:100A3000AC070100AE070100B0070100B2070100DA
:100A4000B4070100B6070100B8070100BA070100AA
:100A5000BC070100BE070100C0070100C20701007A
:100A6000C4070100C6070100C8070100CA0701004A
:100A7000CC070100CE070100D0070100D20701001A
:100A8000D4070100D6070100D8070100DA070100EA
:100A9000DC070100DE070100E0070100E2070100BA
:100AA000E4070100E6070100E8070100EA0701008A
:100AB000EC070100EE070100F0070100F20701005A
:100AC000F4070100F6070100F8070100FA0701002A
:100AD000FC070100FE0701000008010002080100F8
:100AE0000408010006080100080801000A080100C6
:100AF0000C0801000E080100100801001208010096
:100B00001408010016080100180801001A08010065
:100B10001C0801001E080100200801002208010035
:100B20002408010026080100280801002A08010005
:100B30002C0801002E0801003008010032080100D5
:100B40003408010036080100380801003A080100A5
:100B50003C0801003E080100400801004208010075
:100B60004408010046080100480801004A08010045
:100B70004C0801004E080100500801005208010015
:100B80005408010056080100580801005A080100E5
:100B90005C0801005E0801006008010062080100B5
:100BA0006408010066080100680801006A08010085
:100BB0006C0801006E080100700801007208010055
:100BC0007408010076080100780801007A08010025
:100BD0007C0801007E0801008008010082080100F5
:100BE0008408010086080100880801008A080100C5
:100BF0008C0801008E080100900801009208010095
:100C00009408010096080100980801009A08010064
:100C10009C0801009E080100A0080100A208010034
:100C2000A4080100A6080100A8080100AA08010004
:100C3000AC080100AE080100B0080100B2080100D4
:100C4000B4080100B6080100B8080100BA080100A4
:100C5000BC080100BE080100C0080100C208010074
:100C6000C4080100C6080100C8080100CA08010044
:100C7000CC080100CE080100D0080100D208010014
:100C8000D4080100D6080100D8080100DA080100E4
:100C9000DC080100DE080100E0080100E2080100B4
:100CA000E4080100E6080100E8080100EA08010084
:100CB000EC080100EE080100F0080100F208010054
:100CC000F4080100F6080100F8080100FA08010024
:100CD000FC080100FE0801000009010002090100F2
:100CE0000409010006090100080901000A090100C0
:100CF0000C0901000E090100100901001209010090
:100D00001409010016090100180901001A0901005F
:100D10001C0901001E09010020090100220901002F
:100D20002409010026090100280901002A090100FF
:100D30002C0901002E0901003009010032090100CF
:100D40003409010036090100380901003A0901009F
:100D50003C0901003E09010040090100420901006F
:100D60004409010046090100480901004A0901003F
:100D70004C0901004E09010050090100520901000F
:100D80005409010056090100580901005A090100DF
:100D90005C0901005E0901006009010062090100AF
:100DA0006409010066090100680901006A0901007F
:100DB0006C0901006E09010070090100720901004F
:100DC0007409010076090100780901007A0901001F
:100DD0007C0901007E0901008009010082090100EF
:100DE0008409010086090100880901008A090100BF
:100DF0008C0901008E09010090090100920901008F
:100E00009409010096090100980901009A0901005E
:100E10009C0901009E090100A0090100A20901002E
:100E2000A4090100A6090100A8090100AA090100FE
:100E3000AC090100AE090100B0090100B2090100CE
:100E4000B4090100B6090100B8090100BA0901009E
:100E5000BC090100BE090100C0090100C20901006E
:100E6000C4090100C6090100C8090100CA0901003E
:100E7000CC090100CE090100D0090100D20901000E
:100E8000D4090100D6090100D8090100DA090100DE
:100E9000DC090100DE090100E0090100E2090100AE
:100EA000E4090100E6090100E8090100EA0901007E
:100EB000EC090100EE090100F0090100F20901004E
:100EC000F4090100F6090100F8090100FA0901001E
:100ED000FC090100FE090100000A0100020A0100EC
:100EE000040A0100060A0100080A01000A0A0100BA
:100EF0000C0A01000E0A0100100A0100120A01008A
:100F0000140A0100160A0100180A01001A0A010059
:100F10001C0A01001E0A0100200A0100220A010029
:100F2000240A0100260A0100280A01002A0A0100F9
:100F30002C0A01002E0A0100300A0100320A0100C9
:100F4000340A0100360A0100380A01003A0A010099
:100F50003C0A01003E0A0100400A0100420A010069
:100F6000440A0100460A0100480A01004A0A010039
:100F70004C0A01004E0A0100500A0100520A010009
:100F8000540A0100560A0100580A01005A0A0100D9
:100F90005C0A01005E0A0100600A0100620A0100A9
:100FA000640A0100660A0100680A01006A0A010079
:100FB0006C0A01006E0A0100700A0100720A010049
:100FC000740A0100760A0100780A01007A0A010019
:100FD0007C0A01007E0A0100800A0100820A0100E9
:100FE000840A0100860A0100880A01008A0A0100B9
:100FF0008C0A01008E0A0100900A0100920A010089
:10100000940A0100960A0100980A01009A0A010058
:101010009C0A01009E0A0100A00A0100A20A010028
:10102000A40A0100A60A0100A80A0100AA0A0100F8
:10103000AC0A0100AE0A0100B00A0100B20A0100C8
:10104000B40A0100B60A0100B80A0100BA0A010098
:10105000BC0A0100BE0A0100C00A0100C20A010068
:10106000C40A0100C60A0100C80A0100CA0A010038
:10107000CC0A0100CE0A0100D00A0100D20A010008
:10108000D40A0100D60A0100D80A0100DA0A0100D8
:10109000DC0A0100DE0A0100E00A0100E20A0100A8
:1010A000E40A0100E60A0100E80A0100EA0A010078
:1010B000EC0A0100EE0A0100F00A0100F20A010048
:1010C000F40A0100F60A0100F80A0100FA0A010018
:1010D000FC0A0100FE0A0100000B0100020B0100E6
:1010E000040B0100060B0100080B01000A0B0100B4
:1010F0000C0B01000E0B0100100B0100120B010084
:10110000140B0100160B0100180B01001A0B010053
:101110001C0B01001E0B0100200B0100220B010023
:10112000240B0100260B0100280B01002A0B0100F3
:101130002C0B01002E0B0100300B0100320B0100C3
:10114000340B0100360B0100380B01003A0B010093
:101150003C0B01003E0B0100400B0100420B010063
:10116000440B0100460B0100480B01004A0B010033
:101170004C0B01004E0B0100500B0100520B010003
:10118000540B0100560B0100580B01005A0B0100D3
:101190005C0B01005E0B0100600B0100620B0100A3
:1011A000640B0100660B0100680B01006A0B010073
:1011B0006C0B01006E0B0100700B0100720B010043
:1011C000740B0100760B0100780B01007A0B010013
:1011D0007C0B01007E0B0100800B0100820B0100E3
:1011E000840B0100860B0100880B01008A0B0100B3
:1011F0008C0B01008E0B0100900B0100920B010083
:10120000940B0100960B0100980B01009A0B010052
:101210009C0B01009E0B0100A00B0100A20B010022
:10122000A40B0100A60B0100A80B0100AA0B0100F2
:10123000AC0B0100AE0B0100B00B0100B20B0100C2
:10124000B40B0100B60B0100B80B0100BA0B010092
:10125000BC0B0100BE0B0100C00B0100C20B010062
:10126000C40B0100C60B0100C80B0100CA0B010032
:10127000CC0B0100CE0B0100D00B0100D20B010002
:10128000D40B0100D60B0100D80B0100DA0B0100D2
:10129000DC0B0100DE0B0100E00B0100E20B0100A2
:1012A000E40B0100E60B0100E80B0100EA0B010072
:1012B000EC0B0100EE0B0100F00B0100F20B010042
:1012C000F40B0100F60B0100F80B0100FA0B010012
:1012D000FC0B0100FE0B0100000C0100020C0100E0
:1012E000040C0100060C0100080C01000A0C0100AE
:1012F0000C0C01000E0C0100100C0100120C01007E
:10130000140C0100160C0100180C01001A0C01004D
:101310001C0C01001E0C0100200C0100220C01001D
:10132000240C0100260C0100280C01002A0C0100ED
:101330002C0C01002E0C0100300C0100320C0100BD
:10134000340C0100360C0100380C01003A0C01008D
:101350003C0C01003E0C0100400C0100420C01005D
:10136000440C0100460C0100480C01004A0C01002D
:101370004C0C01004E0C0100500C0100520C0100FD
:10138000540C0100560C0100580C01005A0C0100CD
:101390005C0C01005E0C0100600C0100620C01009D
:1013A000640C0100660C0100680C01006A0C01006D
:1013B0006C0C01006E0C0100700C0100720C01003D
:1013C000740C0100760C0100780C01007A0C01000D
:1013D0007C0C01007E0C0100800C0100820C0100DD
:1013E000840C0100860C0100880C01008A0C0100AD
:1013F0008C0C01008E0C0100900C0100920C01007D
:10140000940C0100960C0100980C01009A0C01004C
:101410009C0C01009E0C0100A00C0100A20C01001C
:10142000A40C0100A60C0100A80C0100AA0C0100EC
:10143000AC0C0100AE0C0100B00C0100B20C0100BC
:10144000B40C0100B60C0100B80C0100BA0C01008C
:10145000BC0C0100BE0C0100C00C0100C20C01005C
:10146000C40C0100C60C0100C80C0100CA0C01002C
:10147000CC0C0100CE0C0100D00C0100D20C0100FC
:10148000D40C0100D60C0100D80C0100DA0C0100CC
:10149000DC0C0100DE0C0100E00C0100E20C01009C
:1014A000E40C0100E60C0100E80C0100EA0C01006C
:1014B000EC0C0100EE0C0100F00C0100F20C01003C
:1014C000F40C0100F60C0100F80C0100FA0C01000C
:1014D000FC0C0100FE0C0100000D0100020D0100DA
:1014E000040D0100060D0100080D01000A0D0100A8
:1014F0000C0D01000E0D0100100D0100120D010078
:10150000140D0100160D0100180D01001A0D010047
:101510001C0D01001E0D0100200D0100220D010017
:10152000240D0100260D0100280D01002A0D0100E7
:101530002C0D01002E0D0100300D0100320D0100B7
:10154000340D0100360D0100380D01003A0D010087
:101550003C0D01003E0D0100400D0100420D010057
:10156000440D0100460D0100480D01004A0D010027
:101570004C0D01004E0D0100500D0100520D0100F7
:10158000540D0100560D0100580D01005A0D0100C7
:101590005C0D01005E0D0100600D0100620D010097
:1015A000640D0100660D0100680D01006A0D010067
:1015B0006C0D01006E0D0100700D0100720D010037
:1015C000740D0100760D0100780D01007A0D010007
:1015D0007C0D01007E0D0100800D0100820D0100D7
:1015E000840D0100860D0100880D01008A0D0100A7
:1015F0008C0D01008E0D0100900D0100920D010077
:10160000940D0100960D0100980D01009A0D010046
:101610009C0D01009E0D0100A00D0100A20D010016
:10162000A40D0100A60D0100A80D0100AA0D0100E6
:10163000AC0D0100AE0D0100B00D0100B20D0100B6
:10164000B40D0100B60D0100B80D0100BA0D010086
:10165000BC0D0100BE0D0100C00D0100C20D010056
:10166000C40D0100C60D0100C80D0100CA0D010026
:10167000CC0D0100CE0D0100D00D0100D20D0100F6
:10168000D40D0100D60D0100D80D0100DA0D0100C6
:10169000DC0D0100DE0D0100E00D0100E20D010096
:1016A000E40D0100E60D0100E80D0100EA0D010066
:1016B000EC0D0100EE0D0100F00D0100F20D010036
:1016C000F40D0100F60D0100F80D0100FA0D010006
:1016D000FC0D0100FE0D0100000E0100020E0100D4
:1016E000040E0100060E0100080E01000A0E0100A2
:1016F0000C0E01000E0E0100100E0100120E010072
:10170000140E0100160E0100180E01001A0E010041
:101710001C0E01001E0E0100200E0100220E010011
:10172000240E0100260E0100280E01002A0E0100E1
:101730002C0E01002E0E0100300E0100320E0100B1
:10174000340E0100360E0100380E01003A0E010081
:101750003C0E01003E0E0100400E0100420E010051
:10176000440E0100460E0100480E01004A0E010021
:101770004C0E01004E0E0100500E0100520E0100F1
:10178000540E0100560E0100580E01005A0E0100C1
:101790005C0E01005E0E0100600E0100620E010091
:1017A000640E0100660E0100680E01006A0E010061
:1017B0006C0E01006E0E0100700E0100720E010031
:1017C000740E0100760E0100780E01007A0E010001
:1017D0007C0E01007E0E0100800E0100820E0100D1
:1017E000840E0100860E0100880E01008A0E0100A1
:1017F0008C0E01008E0E0100900E0100920E010071
:10180000940E0100960E0100980E01009A0E010040
:101810009C0E01009E0E0100A00E0100A20E010010
:10182000A40E0100A60E0100A80E0100AA0E0100E0
:10183000AC0E0100AE0E0100B00E0100B20E0100B0
:10184000B40E0100B60E0100B80E0100BA0E010080
:10185000BC0E0100BE0E0100C00E0100C20E010050
:10186000C40E0100C60E0100C80E0100CA0E010020
:10187000CC0E0100CE0E0100D00E0100D20E0100F0
:10188000D40E0100D60E0100D80E0100DA0E0100C0
:10189000DC0E0100DE0E0100E00E0100E20E010090
:1018A000E40E0100E60E0100E80E0100EA0E010060
:1018B000EC0E0100EE0E0100F00E0100F20E010030
:1018C000F40E0100F60E0100F80E0100FA0E010000
:1018D000FC0E0100FE0E0100000F0100020F0100CE
:1018E000040F0100060F0100080F01000A0F01009C
:1018F0000C0F01000E0F0100100F0100120F01006C
:10190000140F0100160F0100180F01001A0F01003B
:101910001C0F01001E0F0100200F0100220F01000B
:10192000240F0100260F0100280F01002A0F0100DB
:101930002C0F01002E0F0100300F0100320F0100AB
:10194000340F0100360F0100380F01003A0F01007B
:101950003C0F01003E0F0100400F0100420F01004B
:10196000440F0100460F0100480F01004A0F01001B
:101970004C0F01004E0F0100500F0100520F0100EB
:10198000540F0100560F0100580F01005A0F0100BB
:101990005C0F01005E0F0100600F0100620F01008B
:1019A000640F0100660F0100680F01006A0F01005B
:1019B0006C0F01006E0F0100700F0100720F01002B
:1019C000740F0100760F0100780F01007A0F0100FB
:1019D0007C0F01007E0F0100800F0100820F0100CB
:1019E000840F0100860F0100880F01008A0F01009B
:1019F0008C0F01008E0F0100900F0100920F01006B
:101A0000940F0100960F0100980F01009A0F01003A
:101A10009C0F01009E0F0100A00F0100A20F01000A
:101A2000A40F0100A60F0100A80F0100AA0F0100DA
:101A3000AC0F0100AE0F0100B00F0100B20F0100AA
:101A4000B40F0100B60F0100B80F0100BA0F01007A
:101A5000BC0F0100BE0F0100C00F0100C20F01004A
:101A6000C40F0100C60F0100C80F0100CA0F01001A
:101A7000CC0F0100CE0F0100D00F0100D20F0100EA
:101A8000D40F0100D60F0100D80F0100DA0F0100BA
:101A9000DC0F0100DE0F0100E00F0100E20F01008A
:101AA000E40F0100E60F0100E80F0100EA0F01005A
:101AB000EC0F0100EE0F0100F00F0100F20F01002A
:101AC000F40F0100F60F0100F80F0100FA0F0100FA
:101AD000FC0F0100FE0F01000010010002100100C8
:101AE0000410010006100100081001000A10010096
:101AF0000C1001000E100100101001001210010066
:101B00001410010016100100181001001A10010035
:101B10001C1001001E100100201001002210010005
:101B20002410010026100100281001002A100100D5
:101B30002C1001002E1001003010010032100100A5
:101B40003410010036100100381001003A10010075
:101B50003C1001003E100100401001004210010045
:101B60004410010046100100481001004A10010015
:101B70004C1001004E1001005010010052100100E5
:101B80005410010056100100581001005A100100B5
:101B90005C1001005E100100601001006210010085
:101BA0006410010066100100681001006A10010055
:101BB0006C1001006E100100701001007210010025
:101BC0007410010076100100781001007A100100F5
:101BD0007C1001007E1001008010010082100100C5
:101BE0008410010086100100881001008A10010095
:101BF0008C1001008E100100901001009210010065
