:020000040000FA
:1000000020CFFF1FA1020000A9020000AB020000E8
:10001000AD020000AF020000B102000000000000CD
:10002000000000000000000000000000B30200001B
:10003000B502000000000000B7020000B902000095
:10004000A1720000B5720000C9720000DD720000EC
:10005000F172000005730000197300002D73000099
:100060004173000055730000697300007D73000048
:1000700091730000A5730000B9730000CD730000F8
:10008000513C0000BB020000BB020000813C0000AC
:10009000BB020000BB020000BB020000BB0200006C
:1000A000BB020000B13C0000BB020000BB0200002C
:1000B000BB020000BB020000BB020000BB0200004C
:1000C000BB020000BB020000BB020000BB0200003C
:1000D000BB020000BB020000BB020000BB0200002C
:1000E000BB020000BB020000BB020000BB0200001C
:1000F000BB020000BB020000BB020000BB0200000C
:10010000BB020000BB020000BB020000BB020000FB
:10011000BB02000091820000BB020000BB02000095
:10012000BB020000BB020000BB020000BB020000DB
:10013000BB020000BB020000BB020000BB020000CB
:10014000BB020000BB020000BB020000BB020000BB
:10015000BB020000BB020000BB020000BB020000AB
:10016000BB020000BB020000BB020000BB0200009B
:10017000BB020000BB020000BB020000BB0200008B
:10018000BB020000BB020000BB020000BB0200007B
:10019000BB020000BB020000BB020000BB0200006B
:1001A000BB020000BB020000BB020000BB0200005B
:1001B000BB020000BB020000BB020000BB0200004B
:1001C000BB020000BB020000BB020000BB0200003B
:1001D000BB020000BB020000BB020000BB0200002B
:1001E000BB020000BB020000BB020000BB0200001B
:1001F000BB020000BB020000BB020000BB0200000B
:10020000BB020000BB020000BB020000BB020000FA
:10021000BB020000BB020000BB020000BB020000EA
:10022000BB020000BB020000BB020000BB020000DA
:10023000BB020000BB020000BB020000BB020000CA
:10024000BB020000BB020000BB020000BB020000BA
:10025000BB020000BB020000BB020000BB020000AA
:10026000BB020000BB020000BB020000BB0200009A
:10027000BB020000BB020000BB020000050700003B
:10028000BB020000BB020000DFF810D000F0FCF958
:100290000048004719960000AFF3008020CFFF1FF1
:1002A0000648804706480047FEE7FEE7FEE7FEE710
:1002B000FEE7FEE7FEE7FEE7FEE7FEE73D80000023
:1002C000890200002DE9F05F0546002092469B461A
:1002D00088460646814640241BE02846414647465C
:1002E000224600F02CF953465A46C01A914110D3C9
:1002F00011461846224600F016F82D1A67EB010841
:100300004F4622460120002100F00DF817EB0009AE
:100310004E41201EA4F10104DFDC484631462A4646
:100320004346BDE8F09F202A04DB203A00FA02F1A0
:10033000002070479140C2F1200320FA03F31943D3
:1003400090407047D2B201E000F8012B491EFBD269
:1003500070470022F6E710B513460A4604461946D0
:10036000FFF7F0FF204610BD0EB540F23341029179
:100370000021CDE900110A460B4600F036F903B022
:1003800000BD0EB540F2334202920022CDE90022B8
:10039000134600F02AF903B000BD01F0004330B469
:1003A00021F0004150EA010206D00A0DA2F5607268
:1003B000C1F31301002A02DC30BC00207047440F57
:1003C00044EAC104C100E01830BC00EBC25000F0A8
:1003D000C6B830B50B46014600202022012409E0B2
:1003E00021FA02F59D4205D303FA02F5491B04FAEE
:1003F00002F52844151EA2F10102F1DC30BD704760
:10040000BFFFDFFFFFFFFFFFFFFFFFFFFFFFEDFF6E
:10041000FFFFFFFFFFFFFFFFFFFFFFFFFFFFFFFFEC
:10042000FFFFFFFFFFFFFFFFFFFFFFFFFFFFFFFFDC
:10043000FFFFFFFFFFFFFFFFFFFFFFFFFFFFFFFFCC
:10044000FFFFFFFFFFFFFFFFFFFFFFFFFFFFFFFFBC
:10045000FFFFFFFFFFFFFFFFFFFFFFFFFFFFFFFFAC
:100460002DE9F04D81EA030404F0004B21F0004532
:1004700014464FF0000A23F0004150EA050220D054
:1004800054EA01021DD0C5F30A570246C5F313030F
:10049000C1F31300C1F30A5640F4801543F48013EE
:1004A000A7EB0608101BD64608F2FD3873EB0500D3
:1004B00002D308F1010801E092185B41B8F1000F86
:1004C00003DA00200146BDE8F08D00204FF48011D2
:1004D000064684460EE0171B73EB050705D3121B77
:1004E00063EB050306434CEA010C49084FEA300070
:1004F00092185B4150EA0107EDD152EA030012D095
:1005000082EA040083EA0501084305D0101BAB41D1
:1005100006D20122002306E000224FF0004302E051
:100520006FF0010253101AEB06004CEB085110EB70
:100530000A0041EB0B01BDE8F04D00F047B8202A5E
:1005400004DB203A21FA02F00021704721FA02F37D
:10055000D040C2F12002914008431946704700295B
:10056000A8BF7047401C490008BF20F00100704739
:1005700010B4B0FA80FC00FA0CF050EA010404BF99
:1005800010BC704749B1CCF1200421FA04F411FAEF
:100590000CF118BF012121430843A3EB0C01CB1D33
:1005A0004FEA00614FEA102042BF002010BC7047A4
:1005B00000EBC35010440029A4BF10BC7047401C7E
:1005C000490008BF20F0010010BC704710B5141E90
:1005D00073F1000408DA401C41F1000192185B41FC
:1005E0001A4301D120F0010010BD2DE9F04D9246D3
:1005F0009B4611B1B1FA81F202E0B0FA80F22032EA
:100600009046FFF790FE04460F4640EA0A0041EA92
:100610000B0153465A46084313D0114653EA0100D2
:1006200019D0C8F140025046FFF789FF05460E4633
:10063000504659464246FFF776FE084305D0012052
:1006400004E020463946BDE8F08D0020054346EA27
:10065000E0762C4337430A986305E40AA0EB0800D0
:100660000022FD0A44EA47540A3002D50020014620
:10067000E9E7010510196941DDE9084500196941FB
:10068000BDE8F04DA2E70000064C074D06E0E0682B
:1006900040F0010394E8070098471034AC42F6D3C9
:1006A000FFF7F6FDE49C0000049D000070B58C1877
:1006B00010F8015B15F0070301D110F8013B2A1176
:1006C00006D110F8012B03E010F8016B01F8016B63
:1006D0005B1EF9D12B0705D40023521E0DD401F85F
:1006E000013BFAE710F8013BCB1A921C03E013F828
:1006F000015B01F8015B521EF9D5A142D8D300205D
:1007000070BD00002DE9F84FA44830F8502FA44CDC
:10071000A264438823658188E164C0882080A14861
:100720000588001D6564008860809F48B0F800C09F
:100730009E48C4F854C041F69917066843F6F92854
:100740007E4347F233377D4306EB45052E140660A2
:10075000974D4AF2D90050432A6842F693777A437C
:1007600000EB4200021441F21B40414391482A60D1
:10077000076807FB08F701EB87010914016041F2E4
:100780001B4043438C48076807FB08F703EB8703CC
:100790001B14036041F21B400CFB00F387484746E3
:1007A000D0F800C00CFB07FC03EB8C031B140360A8
:1007B000606FA36F704303EBE020814B1860E06F24
:1007C0005043D4F8802012EBE0207E4A106000F104
:1007D000D38000BFD4F884004843D4F8881001EBDC
:1007E000E0207949086040F23D314843774901EB08
:1007F000400077490012B0F53C5F0860A4BF4FF499
:100800003C50086005DAB0F51A5FD8BF4FF41A50B3
:10081000086006F049FE2868A0656E486E496F4B77
:1008200002685010C4F8E400D1F800A09110C4F898
:10083000D0A0C4E935A11B6801EB030CC4F8DCC0EF
:10084000C4F8E0C0D4F89030C4F8F0300093D4F885
:10085000943000EB0308624BC4F8F480D4F8B4E0A1
:100860001E680EEB0603C4F8E83083427DD800BF53
:1008700008EB0603A2F18005C4F8EC30AB4275D852
:10088000D4F8BC30C4F80031D4F8CCB003EB06097E
:1008900000EB0B07C4F8F890C4F80471814576D8D2
:1008A0003E44C4F8FC60AE4274D84E4DD5F8B863EF
:1008B0004FF03F0939EA060653D1D5F8B86326F060
:1008C0003F06C5F8B8636A64C5F88800C5F8C81063
:1008D000454AC2F88800454E3060454E3060454E6E
:1008E000D4F8F8003060361DD4F8FC003060424E79
:1008F0003360301D0760414ED4F8E8003060361D8B
:10090000D4F8EC0030603E4E00983060301DC0F8E6
:100910000080C5F8B8A2C5F8C0A2C5F8C812C5F8CD
:10092000D0C2C5F8D8C2D4F8B000C5F80801D4F8D0
:10093000C000C5F80C01C2F80831C2F80CB131484A
:10094000C0F800E03049D4F8C40008602F49D4F85A
:10095000B8000860091DD4F8C80008602C48C5F824
:10096000B403D4F89800401C02E009E00BE00EE06C
:10097000C4F89800BDE8F88F124A0020106029E7FB
:10098000C4F8E80074E7C4F8EC5079E702E0C4F872
:10099000F80085E7C4F8FC5087E700000000044039
:1009A00018C0FF1F580404405A040440B0C1FF1F80
:1009B000C4C1FF1F10C2FF1FC8C1FF1FCCC1FF1F52
:1009C000D0C1FF1FD4C1FF1F14C2FF1F8D57D5FF19
:1009D000ACC2FF1F00C2FF1F04C2FF1F08C2FF1FDF
:1009E0000CC2FF1F00C0034000D0034088C4034076
:1009F00088D4034088CC034098CC034088C8034087
:100A000098C8034008C503400CC5034008D50340FF
:100A10003F0000C02DE9F041054614460F461C4931
:100A20001C48A5F180421E46B2F5802204D08D42BA
:100A300005D10F2C0CD906E00F2C09D903E0854213
:100A400001D10B2C04D94FF4AC7113A001F020FE9E
:100A5000002F18BF012F04D040F259110EA001F051
:100A600017FE002E18BF012E04D04FF4AD710AA05E
:100A700001F00EFE05EB87000121A14050F80C2F7C
:100A8000012E0CBF114322EA01010160BDE8F08193
:100A900000040440000804402E2E5C6472697665F0
:100AA00072735C686333325F6C6C5F647269766525
:100AB000725C7372635C686333325F6C6C5F616439
:100AC000632E63002DE9F047274FDFF8A090DFF891
:100AD000A08015460E460446B84202D10F2E1BD9FF
:100AE00013E04C4507D10F2E1BD94FF4397121A0CB
:100AF00001F0CEFD15E0444507D10B2E0FD94FF480
:100B000039711CA001F0C4FD09E04FF4397119A03E
:100B100001F0BEFDBC4202D10F2D13D90DE04C45B2
:100B200004D1042D09D30F2D0CD906E0444504D17E
:100B3000032D84BFA81F052804D940F2E5210DA08C
:100B400001F0A6FDB00804EB4000B107028F090FC9
:100B50000F238B409A4305F00F0303FA01F1114371
:100B60000187BDE8F0870000000004400004044055
:100B7000000804402E2E5C647269766572735C68AE
:100B80006333325F6C6C5F6472697665725C73723A
:100B9000635C686333325F6C6C5F6164632E630017
:100BA00070B50546A0F180400C466FF00206B0F526
:100BB00080201FBF1E488542A5F18040B0F58120EE
:100BC00003D0FC211BA001F063FD002C2DD0218857
:100BD000002918BF01290CD0022918BF032908D009
:100BE000042918BF062904D04FF0FF0111A001F01D
:100BF0004FFD608820281CBF1028002804D04FF427
:100C000080710CA001F044FDA088002818BF802846
:100C100004D040F2011107A001F03AFD208861885C
:100C20000843A188084368800026304670BD000054
:100C3000000404402E2E5C647269766572735C68F1
:100C40006333325F6C6C5F6472697665725C737279
:100C5000635C686333325F6C6C5F6164632E630056
:100C600070B50446A0F1804016460D46B0F58020D0
:100C70001FBF13488442A4F18040B0F5812004D006
:100C80004FF418710FA001F003FD15B135F003000A
:100C900004D040F261210BA001F0FAFC56B1012E04
:100CA00004BF94F84500284307D040F2622105A014
:100CB00001F0EEFC94F84500A84384F8450070BDAF
:100CC000000404402E2E5C647269766572735C6861
:100CD0006333325F6C6C5F6472697665725C7372E9
:100CE000635C686333325F6C6C5F6164632E6300C6
:100CF00070B516460C460546052A04D24FF4CC7151
:100D00000FA001F0C5FC19491948A5F18042B2F5C0
:100D1000802204D08D4205D10F2C0CD906E00F2C77
:100D200009D903E0854201D10B2C04D94FF4CD71D0
:100D300003A001F0ADFC281980F8206070BD000010
:100D40002E2E5C647269766572735C686333325F01
:100D50006C6C5F6472697665725C7372635C686305
:100D600033325F6C6C5F6164632E63000004044087
:100D7000000804406FF0020118B100210180418099
:100D8000818008467047000070B50446A0F180409D
:100D900016460D46B0F580201FBF14488442A4F1CA
:100DA0008040B0F5812004D040F2472110A001F02E
:100DB0006FFC002D18BF012D04D04FF412710CA050
:100DC00001F066FCE800802101FA00F54EB1012E29
:100DD00004BF6089284306D040F2492104A001F0F5
:100DE00057FC6089A843608170BD00000004044086
:100DF0002E2E5C647269766572735C686333325F51
:100E00006C6C5F6472697665725C7372635C686354
:100E100033325F6C6C5F6164632E630070B50546AE
:100E2000A0F1804014460E46B0F580201FBF174841
:100E30008542A5F18040B0F5812004D04FF40C71BB
:100E400013A001F025FC002E18BF012E04D040F2A3
:100E500031210FA001F01CFC002C18BF012C08D080
:100E6000022C18BF032C04D040F2322108A001F05C
:100E70000FFC6989F00003228240914304F00302D1
:100E800002FA00F00843688170BD000000040440CD
:100E90002E2E5C647269766572735C686333325FB0
:100EA0006C6C5F6472697665725C7372635C6863B4
:100EB00033325F6C6C5F6164632E630070B582B027
:100EC0000121072003F01AF80121480402F0A2FFD3
:100ED0006846FFF74FFF0020594CADF80000694607
:100EE0002046FFF75DFE574D69462846FFF758FE3E
:100EF000554E69463046FFF753FE03220021204637
:100F0000FFF7E0FD0D2201212046FFF7DBFD0F2258
:100F100002212046FFF7D6FD0A2203212046FFF7D3
:100F2000D1FD092204212846FFF7CCFD0C22052122
:100F30002846FFF7C7FD0B2206212846FFF7C2FD12
:100F40000022012311462046FFF764FD01231A46C3
:100F500000212046FFF75EFD0123022200212046EA
:100F6000FFF758FD0123032200212046FFF752FD21
:100F70000123042200212846FFF74CFD012305220E
:100F800000212846FFF746FD0123062200212846BE
:100F9000FFF740FD0B2200212046FFF7A9FE0B22A0
:100FA00001212046FFF7A4FE0B2202212046FFF775
:100FB0009FFE0B2203212046FFF79AFE0B220421FD
:100FC0002846FFF795FE0B2205212846FFF790FEE5
:100FD0000B2206212846FFF78BFE01220021204626
:100FE000FFF71CFF012200212846FFF717FF6121B0
:100FF000164800F033F86121154800F02FF801225F
:1010000011462046FFF72CFE124A4FF40041C2F869
:101010008012114B402083F800048432D1670122F2
:1010200000212046FFF7B0FE012200212846FFF7ED
:10103000ABFE012200213046FFF7A6FE02B070BDD4
:101040000000044000040440000804406808014017
:101050007008014010E000E08FE000E070B5044649
:1010600036480D4684421CBF3548844260D035481E
:1010700084421CBF344884425AD0344884421CBF46
:101080003348844254D0334884421CBF324884429F
:101090004ED0324884421CBF3148844248D0314847
:1010A00084421CBF3048844242D0304884421CBF36
:1010B0002F4884423CD02F4884421CBF2E48844293
:1010C00036D02E4884421CBF2D48844230D02D4853
:1010D00084421CBF2C4884422AD02C4884421CBF26
:1010E0002B48844224D02B4884421CBF2A48844287
:1010F0001ED02A4884421CBF2948844218D029485F
:1011000084421CBF2848844212D0284884421CBF15
:10111000274884420CD0274884421FBF2648844277
:101120002648844204D04FF0C40125A001F0B0FA53
:10113000206865F30800206070BD000004080140CD
:10114000080801400C080140100801401408014043
:10115000180801401C0801402008014024080140F3
:10116000280801402C0801403008014034080140A3
:10117000380801403C080140400801404408014053
:10118000480801404C080140500801405408014003
:10119000580801405C0801406008014064080140B3
:1011A000680801406C080140700801407408014063
:1011B000780801407C080140800801408408014013
:1011C0002E2E5C647269766572735C686333325F7D
:1011D0006C6C5F6472697665725C7372635C686381
:1011E00033325F6C6C5F616F732E630010B584B037
:1011F0002649274800F014FA01220321052002F0B5
:10120000B1FE684600F036FC00248DF80240302024
:101210008DF801008DF8004005208DF80300684628
:1012200000F0ACFB02A800F0E1F98DF808406FF384
:10123000102404F1405000F56C5020F0706000F173
:10124000407020F4700000F5401020F08000039002
:1012500002A800F0E1F8022002F040F84FF400503C
:1012600003F080F9052000F0D5FA012001F04EFDD1
:10127000002001F04BFD012001F03AFE012001F0B9
:1012800077FD012001F002FE04B010BD1011010035
:10129000777707077047704710B5040002D034F025
:1012A000290004D040F2FD4104A001F0F1F90E48FC
:1012B00090F83C00204018BF012010BD2E2E5C6429
:1012C0007269766572735C686333325F6C6C5F64FD
:1012D00072697665725C7372635C686333325F6CEB
:1012E0006C5F636C6B2E6300004005402DE9F84392
:1012F00006004FF0000418BF012E04D040F2B341A5
:1013000038A001F0C5F9424DB5F8FE0310F0010F09
:1013100004D140F2B44133A001F0BAF901207EB10A
:10132000D5F800014FF0000610F0800F0CBF082424
:1013300001244FF480576FF0070800960CD01EE090
:1013400095F8261001F00701052914BF85F82A0039
:101350006FF0050443E014B134F0290004D040F2EA
:10136000FD412C4801F094F995F83C10214219D127
:101370000098401C0090B842EDD911E014B134F04F
:10138000290004D040F2FD41224801F081F995F88E
:101390003C10214206D10098401C0090B842EDD983
:1013A00044461CE085F82A6020240096E7016FF08F
:1013B000070600E014B134F0290004D040F2FD41EA
:1013C000144801F065F995F83C10214201D000263F
:1013D00004E00098401C0090B842EBD93446204607
:1013E000BDE8F8832E2E5C647269766572735C6862
:1013F0006333325F6C6C5F6472697665725C7372C2
:10140000635C686333325F6C6C5F636C6B2E63008C
:1014100000400540BC120000002804BF6FF002002D
:1014200070472DE9F0410446007900F01F001728AD
:1014300004D940F287415AA001F02AF96068C0F34C
:1014400008201338B0F5E67F04D94FF4916154A019
:1014500001F01EF960684FF0FF3101EB10700E28AB
:1014600004D940F289414EA001F012F9616811F0EF
:10147000800F0EBF55485648006801F01F02521CED
:10148000B0FBF2F0C1F30821491C01FB00F5514902
:10149000A0F57420A0F51070884204D940F28E4166
:1014A0003FA001F0F5F84C484C492844884204D943
:1014B00040F28F413AA001F0EBF86068012101EBA6
:1014C0001070B5FBF0F0464E464F3044B84204D998
:1014D0004FF4926132A001F0DBF86068C0F3036062
:1014E000401E0E2804D940F291412DA001F0D0F801
:1014F0006068C0F30350401E0E2804D940F29241A8
:1015000027A001F0C5F86068C0F30350401CB5FB8C
:10151000F0F03044B84204D940F2934120A001F0E9
:10152000B7F86068C0F30360401CB5FBF0F03044CE
:10153000B84204D940F2944119A001F0A9F82078EA
:10154000012818BF002804D040F2964114A001F0F1
:101550009FF8254DB5F8FE0310F0010F05D1FFE708
:1015600040F297410EA001F093F8D5F800012179DF
:1015700020F08000C1F3C01140EAC110C5F800019D
:101580006068C5F80001207820B1BDE8F041002076
:10159000FFF7ACBEBDE8F0410120FFF7A7BE000099
:1015A0002E2E5C647269766572735C686333325F99
:1015B0006C6C5F6472697665725C7372635C68639D
:1015C00033325F6C6C5F636C6B2E630000127A00C9
:1015D00004C0FF1F00366E0100E4B1F1001C4E0E86
:1015E000401E1BFF402C4206004005400021002801
:1015F00008BF6FF0020111D000226FF3102202F138
:10160000805202F5985222F0706202F1807222F448
:10161000700202F580124260012202700846704793
:101620002DE9F041764D064684B028680C464FF00F
:101630000008009068680190A8680290E86811F0BE
:10164000E06F03901CBF04F0E060B0F1807F12D027
:10165000B0F1007F18BFB0F1407F0CD0B0F1806FC7
:101660001CBFB0F1A06FB0F1C06F04D040F22E21CA
:10167000644801F00DF814F0700F1CBF04F0700006
:1016800010280DD0202818BF302809D040281CBFB2
:101690005028602804D040F22F215A4800F0F8FF6B
:1016A00014F4E02F1CBF04F4E020B0F5803F12D00A
:1016B000B0F5003F18BFB0F5403F0CD0B0F5802F1B
:1016C0001CBFB0F5A02FB0F5C02F04D04FF40C71A3
:1016D0004C4800F0DDFF14F0070F1CBF04F00700BA
:1016E00001280DD0022818BF032809D004281CBFE8
:1016F0000528062804D040F23121424800F0C8FFF6
:1017000014F4E06F1CBF04F4E060B0F5807F12D0E9
:10171000B0F5007F18BFB0F5407F0CD0B0F5806FFA
:101720001CBFB0F5A06FB0F5C06F04D040F23221FD
:10173000344800F0ADFF14F4E04F1CBF04F4E04067
:10174000B0F5805F12D0B0F5005F18BFB0F5405F14
:101750000CD0B0F5804F1CBFB0F5A04FB0F5C04F16
:1017600004D040F23321274800F092FF2648064279
:1017700004D14FF40D71234800F08AFF234FB7F8CE
:10178000FE0310F0010F04D140F235211D4800F096
:101790007FFF97F8260000F00700052813D128697D
:1017A0004FF0010810F0010F04D14FF40F711548EC
:1017B00000F06EFF16482860C0126860A860E860FC
:1017C0001E2000F0CDFF386A04EA0601B04308434A
:1017D00038621E2000F0C4FFB8F1000F0AD0009854
:1017E0002860019868600298A8600398E8601E204D
:1017F00000F0B6FF04B0BDE8F04106F0D1BB000038
:1018000000800440BC1200007777070700400540C5
:101810000EFAFFFFF0B52D4C050085B020684FF0A3
:101820000007009060680190A0680290E068039053
:1018300018BF012D0CD0022D18BF032D08D0042D88
:1018400018BF052D04D04FF4E371214800F020FFAC
:10185000204EB6F8FE0310F0010F04D140F2C7117C
:101860001B4800F015FF96F8260000F00700052839
:1018700018BF052D13D120694FF0010710F0010F9B
:1018800004D140F2CF11124800F002FF124820604C
:10189000C0126060A060E0601E2000F061FF86F86A
:1018A00026501E2000F05CFF57B100982060019880
:1018B00060600298A0600398E0601E2000F050FF76
:1018C00005B0BDE8F04006F06BBB000000800440AE
:1018D000BC120000004005400EFAFFFFF8B50500FD
:1018E0004FF0000418BF012D04D040F226312148EA
:1018F00000F0CEFE204EB6F8FE0310F0010F04D12A
:1019000040F227311B4800F0C3FE01203DB100200A
:1019100086F83200082465026742009014E096F8C9
:10192000261001F0070103290AD0D6F8001111F0A2
:10193000800F06BF96F82A10002986F8320017D1CA
:101940006FF0050414E014B134F0290004D040F223
:10195000FD41084800F09CFE96F83C10214201D061
:10196000002704E00098401C0090A842EBD93C46B8
:101970002046F8BDBC12000000400540002804BF0E
:101980006FF00200704770B504460078012818BF58
:10199000002804D040F2073129A000F079FE6078D9
:1019A000002818BF102808D0202818BF302804D0DD
:1019B0004FF4427122A000F06BFEA078002818BFFF
:1019C000082804D040F209311DA000F061FEE07843
:1019D000012818BF022811D0032818BF04280DD0F1
:1019E000052818BF062809D007281CBF0828092881
:1019F00004D040F20A3112A000F04AFE1B4DB5F8A7
:101A0000FE0310F0010F05D1FFE740F20B310CA0EF
:101A100000F03EFEE07885F8A2006078A1780843E7
:101A2000134940F080000870207820B1BDE8704074
:101A30000020FFF753BFBDE870400120FFF74EBF05
:101A40002E2E5C647269766572735C686333325FF4
:101A50006C6C5F6472697665725C7372635C6863F8
:101A600033325F6C6C5F636C6B2E6300004005402B
:101A700050CC04400021002808BF6FF0020106D0BE
:101A8000012202700022827042700522C270084654
:101A90007047000070B50446A0F180400D46B0F5D7
:101AA00061301FBF0E488442A4F18040B0F56C3015
:101AB00004D040F2C3110BA000F0EAFD55B1012D96
:101AC00004BFA07840F0010007D04FF4E27105A0F8
:101AD00000F0DEFDA07800F0FE00A07070BD0000F8
:101AE000008503402E2E5C647269766572735C68B3
:101AF0006333325F6C6C5F6472697665725C7372BB
:101B0000635C686333325F6C6C5F636D702E63007F
:101B100070B41E4982B0096A1D4AC1F3026112689D
:101B200022FA01F11B4AB0F1010CB1FBF2F33EBF06
:101B300002B070BC704703F001045D1E5E1C009390
:101B40001800019314D0B0F1004F1AD20028D8BF6A
:101B5000002002DD200018BF00953146401C88425D
:101B600006DA009A801C521E521E00928842F8DB50
:101B70000098401E0090BCF1010CE0D202B070BC95
:101B800070470098401E0090FCD1F1E700400540EE
:101B900000C0FF1F8096980070B505460C006FF0DE
:101BA000020008BF70BDA5F18040B0F561301FBFD5
:101BB00046488542A5F18040B0F56C3004D04FF422
:101BC000B87143A000F064FDA088002818BF022867
:101BD00004D040F271113EA000F05AFDE0880028C8
:101BE00018BF102808D0202818BF302804D04FF480
:101BF000B97137A000F04CFD2089002818BF0128DA
:101C00000DD0022818BF032809D004281CBF0528BE
:101C1000062804D040F273112DA000F039FD208871
:101C200000281CBF0128022804D04FF4BA7128A054
:101C300000F02EFD6088002818BF01280CD0022873
:101C400018BF042808D0082818BF102804D040F274
:101C500075111FA000F01CFD6089002818BF022824
:101C600010D0042818BF06280CD0082818BF0A284E
:101C700008D00C2818BF0E2804D04FF4BB7114A054
:101C800000F006FD287800F0FE00287020684FEA7A
:101C9000304068602878A17A00F0F100C1F3420179
:101CA00040EA410028700120FFF732FF287840F019
:101CB000010028700120FFF72BFF207AA17908434B
:101CC00068702079A870002070BD00000085034076
:101CD0002E2E5C647269766572735C686333325F62
:101CE0006C6C5F6472697665725C7372635C686366
:101CF00033325F6C6C5F636D702E630070B50446A9
:101D0000A0F180400D46B0F561301FBF0E488442FF
:101D1000A4F18040B0F56C3004D040F2D7110BA094
:101D200000F0B6FC55B1012D04BFA07840F00400CE
:101D300007D04FF4EC7105A000F0AAFCA07800F0E9
:101D4000FB00A07070BD0000008503402E2E5C6477
:101D50007269766572735C686333325F6C6C5F6462
:101D600072697665725C7372635C686333325F6C50
:101D70006C5F636D702E63006FF0020130B1002163
:101D8000018041808180C180018141810846704786
:101D900008B5002100914FF4F8300422694601F0A3
:101DA0007FF90098B0F1FF3F1CBF1D4908601D4836
:101DB0000422694601F074F90098B0F1FF3F1CBF9E
:101DC0001949086019480422694601F069F9009828
:101DD000B0F1FF3F1CBF164908601648042269464F
:101DE00001F05EF90098B0F1FF3F1CBF1249086096
:101DF00012480422694601F053F90098B0F1FF3F00
:101E00001CBF0F4908600F480422694601F048F9D9
:101E10000098B0F1FF3F1CBF0B49086008BD0000EF
:101E20008CC0FF1F04F0010090C0FF1F08F00100EC
:101E300094C0FF1F0CF0010098C0FF1F10F00100BC
:101E40009CC0FF1F14F00100A0C0FF1F10B50120AF
:101E500000F0C0FF01211F2001F096FA4FF4F83482
:101E6000204601F09BF910480168204601F072F805
:101E70000E49201D096801F06DF80E490C480968EB
:101E800001F068F80D490C48096801F063F80D4944
:101E90000B48096801F05EF80C490B480968BDE879
:101EA000104001F057B800008CC0FF1F90C0FF1F0A
:101EB00008F0010094C0FF1F0CF0010098C0FF1F44
:101EC00010F001009CC0FF1F14F00100A0C0FF1F14
:101ED00010B520227F211C48FEF734FA1B494FF42D
:101EE00080704FF42052C8600A6000200861184AD0
:101EF000C1E9012048618861C86188620862154AA9
:101F000045F2B6534862C1E90C2313494FF4806C83
:101F1000C1E903C040F6992CC1F800C0DFF83CC00D
:101F2000C1E901C048618861C8618862086248628D
:101F3000C1E90C230A4908600A4908600A49086097
:101F40000A49086010BD000031C1FF1FACC2FF1F6D
:101F500000DCFFFF00770100E4C2FF1F9AF6FFFFDD
:101F6000F4C1FF1FF8C1FF1FFCC1FF1F00C2FF1F0C
:101F700010B5012184B0080301F08CFF684606F01B
:101F800049F9002000900190029040F25720074C40
:101F9000ADF80C006A460121204606F05FF80121E9
:101FA000204606F0F7F804B010BD000000400240E3
:101FB00070B50446A0F180400D46B0F582201CBFEC
:101FC0000B48844204D04FF0CB010AA000F060FB24
:101FD0004DB1012D04BFE08840F4004006D0CC2173
:101FE00004A000F055FBE088C0F30E00E08070BD57
:101FF000001404402E2E5C647269766572735C680E
:102000006333325F6C6C5F6472697665725C7372A5
:10201000635C686333325F6C6C5F6461632E630082
:1020200070B50446A0F1804016460D46B0F58220FA
:102030001CBF0F48844204D04FF0E5010DA000F012
:1020400027FB15B135F0070003D0E62109A000F009
:102050001FFB46B1012E04BFE088284305D0E721CD
:1020600004A000F015FBE088A843E08070BD0000EC
:10207000001404402E2E5C647269766572735C688D
:102080006333325F6C6C5F6472697665725C737225
:10209000635C686333325F6C6C5F6461632E630002
:1020A00070B50446A0F180400D46B0F582201CBFFB
:1020B0000C48844204D04FF080010BA000F0E8FAF5
:1020C000B5F5807F18BF002D04D04FF0810106A028
:1020D00000F0DEFAA08805F4807120F480700843D7
:1020E000A08070BD001404402E2E5C647269766579
:1020F00072735C686333325F6C6C5F6472697665BF
:10210000725C7372635C686333325F6C6C5F6461D2
:10211000632E630030B5274985B00546D1E900013B
:102120000024CDE900018DF80840A5F18040B0F50C
:1021300082201CBF2048854204D04FF4F7711FA0B5
:1021400000F0A6FA2848B0F8FE0310F0020F04D100
:1021500040F2EF1119A000F09BFA00214FEA0D00A8
:1021600050F82120AA4217D110208840022917D206
:102170001E490A6882430A600A6830EA020211D0E6
:102180009DF80820521C8DF808209DF80820642A2C
:102190000BD96FF0070405E0491CC9B20229DFD34F
:1021A0006FF0020405B0204630BD0A6830EA020232
:1021B000E6D1F7E7789B0000001404402E2E5C6403
:1021C0007269766572735C686333325F6C6C5F64EE
:1021D00072697665725C7372635C686333325F6CDC
:1021E0006C5F6461632E630000400540ECCC0440EA
:1021F0002DE9F041044615000E466FF0020008BFBD
:10220000BDE8F081DFF8C480314F444534D0BC4292
:1022100005D04FF4E9712FA000F03AFA00E026B1A2
:1022200040F2D3112BA000F033FAA878002818BF91
:10223000012804D04FF4EA7126A000F029FA28887A
:10224000B0F5807F18BF002804D040F2D51121A03E
:1022500000F01EFAA088298820F4807001F48071B3
:102260000843A080AD7844452AD0BC4209D09621CD
:10227000234800F00DFA05E0002E18BF012ECFD143
:10228000D3E726B14FF097011D4800F001FA002D69
:1022900018BF012D04D04FF09801194800F0F8F94B
:1022A00006F10E00012101FA00F0A18B80B2012D90
:1022B0000CBF21EA00000843A0830020BDE8F081A4
:1022C000002E18BF012EDDD1E1E700000010044010
:1022D000001404402E2E5C647269766572735C682B
:1022E0006333325F6C6C5F6472697665725C7372C3
:1022F000635C686333325F6C6C5F6461632E6300A0
:102300006C23000070B504460D461748A4F18041C7
:102310001646B1F5822122D0844204D0962113A022
:1023200000F0B6F900E01DB1972110A000F0B0F95F
:10233000002E18BF012E04D04FF098010BA000F022
:10234000A7F905F10E00012101FA00F0A18B80B27E
:10235000012E0CBF21EA00000843A08370BD002DB0
:1023600018BF012DE0D1E3E7001404402E2E5C6479
:102370007269766572735C686333325F6C6C5F643C
:1023800072697665725C7372635C686333325F6C2A
:102390006C5F6461632E630070B505460C46184897
:1023A000A5F180411646B1F582211AD0854205D0AB
:1023B0004FF4AF7113A000F06BF900E024B140F2CC
:1023C0005F1110A000F064F9A88810F4807F0DD090
:1023D00016F00F0F11D04FF4B1710AA000F058F9A8
:1023E0000BE0002C18BF012CE9D1EDE7700B04D0F5
:1023F0004FF4B27103A000F04BF925F8146070BDE2
:10240000001404402E2E5C647269766572735C68F9
:102410006333325F6C6C5F6472697665725C737291
:10242000635C686333325F6C6C5F6461632E63006E
:1024300070B50446A0F1804015460E46B0F58220E6
:1024400004D040F2791115A000F022F9A08810F410
:10245000807F10D016F00F0F04D04FF4BE710FA084
:1024600000F016F915F00F0F13D040F27D110BA0FC
:1024700000F00EF90DE0700B04D040F27F1107A0C0
:1024800000F006F9680B04D04FF4C07103A000F00F
:10249000FFF846EA0540206070BD00002E2E5C6407
:1024A0007269766572735C686333325F6C6C5F640B
:1024B00072697665725C7372635C686333325F6CF9
:1024C0006C5F6461632E630070B504460D460026A0
:1024D0001648A4F18041B1F5822115D0844205D07F
:1024E0004FF4827112A000F0D3F800E025B140F261
:1024F00005110FA000F0CCF8A08810F0010F18BF54
:102500006FF003060FD104E0002D18BF012DEED1AE
:10251000F2E705F101004FF0010101FA00F0A18896
:1025200041EA0000A080304670BD00000014044065
:102530002E2E5C647269766572735C686333325FF9
:102540006C6C5F6472697665725C7372635C6863FD
:1025500033325F6C6C5F6461632E630010B50446B8
:10256000A0F18040B0F5822004D040F23B1104A0DD
:1025700000F08EF8A08840F00100A08010BD00009F
:102580002E2E5C647269766572735C686333325FA9
:102590006C6C5F6472697665725C7372635C6863AD
:1025A00033325F6C6C5F6461632E63006FF0020115
:1025B00020B100210180012181700021084670476F
:1025C00038B50121102001F099FC0121202001F0F3
:1025D00095FC2D4C2046FFF79DFD2C4D2846FFF71E
:1025E00099FD6846FFF7E2FF6A4600212046FFF7A3
:1025F000FFFD6A4601212046FFF7FAFD6A460021E9
:102600002846FFF7F5FD00212046FFF749FD002190
:102610002846FFF745FD012207212046FFF700FD70
:10262000012207212846FFF7FBFC01212046FFF786
:10263000BFFC01212846FFF7BBFC40F6C53240F63F
:102640001F412046FFF7F4FE40F684720021284621
:10265000FFF7A2FE002211462046FFF753FE00229C
:1026600001212046FFF74EFE002211462846FFF7C3
:1026700049FE2046FFF772FF00212846FFF724FF9E
:10268000642000F06DF838BD0010044000140440D0
:1026900010B50A46014602A006F0B6FEFEE70000AD
:1026A00057726F6E6720706172616D6574657273C9
:1026B0002076616C75653A2066696C65202573200B
:1026C0006F6E206C696E652025640D0A00000000A5
:1026D00081B0114A00210091D36884469268C81ED7
:1026E000002A18BF009807D101B07047106800F0A9
:1026F00080010098401C0090984201D831B9F5E75C
:10270000002902BF6FF0070001B07047A2F804C0B3
:10271000002001B07047000008C0FF1F81B00E49C3
:10272000096A0E4BC1F302611B6823FA01F142F200
:1027300010731944491EB1FBF3F206E0009200BF8A
:1027400000994B1E00930029FAD1011EA0F101004F
:10275000F4D101B0704700000040054000C0FF1FE9
:1027600081B00D49096A0D4BC1F302611B6823FA60
:1027700001F10B4B1944491EB1FBF3F206E0009244
:1027800000BF00994B1E00930029FAD1011EA0F151
:102790000100F4D101B070470040054000C0FF1FA8
:1027A0008096980070B50446A0F1804015460E460C
:1027B000B0F5A62004D040F26F110DA0FFF768FF1E
:1027C000072E04D94FF4B87109A0FFF761FF01206B
:1027D000B040C6B245B1012D08BFE66105D040F258
:1027E000711103A0FFF754FF6663002070BD000065
:1027F0002E2E5C647269766572735C686333325F37
:102800006C6C5F6472697665725C7372635C68633A
:1028100033325F6C6C5F646D612E630070B505468A
:10282000A0F180400C46B0F5A62004D04FF4A5716D
:1028300006A0FFF72DFF14B114F0FF2F04D040F2D3
:102840004B1102A0FFF724FFAC6170BD2E2E5C641B
:102850007269766572735C686333325F6C6C5F6457
:1028600072697665725C7372635C686333325F6C45
:102870006C5F646D612E630070B50546A0F1804009
:102880000C46B0F5A62003D0E12107A0FFF700FF1A
:10289000002C18BF012C04D04FF0E20102A0FFF77A
:1028A000F7FE2C6070BD00002E2E5C6472697665A8
:1028B00072735C686333325F6C6C5F6472697665F7
:1028C000725C7372635C686333325F6C6C5F646DFF
:1028D000612E6300F0B501218BB0880301F09AFAF4
:1028E0000121880301F096FA0121480401F092FACF
:1028F000684600F0F9F900242F4802A901252D2689
:10290000009481E871002D4801900420CDE9064033
:102910002B4F6A462146384600F086F808A800F09A
:1029200073F92020CDE9080408AA00210A96384648
:1029300000F004F94FF4B1712248FEF78FFB01213A
:102940003846FFF799FF012200213846FFF72AFF9A
:10295000684600F0C9F91C4802A98026009481E865
:1029600071001A480190CDE906546A4601213846A3
:1029700000F05AF840F263111548FEF76FFB012191
:102980003846FFF779FF012211463846FFF70AFF64
:1029900008A800F039F91020CDE9080608AA01219D
:1029A0000A94384600F0CAF801220C21094805F0C3
:1029B000BDFF0BB0F0BD00006CC2FF1F06D0014090
:1029C000003005400408014004D0014030C1FF1F21
:1029D0000808014000D0014070B50C00054602D047
:1029E00014F0FF2F04D04FF49E7104A0FFF750FEA7
:1029F000A868204018BF012070BD00002E2E5C6426
:102A00007269766572735C686333325F6C6C5F64A5
:102A100072697665725C7372635C686333325F6C93
:102A20006C5F646D612E63002DE9F041074600255F
:102A3000A0F1804014460E46B0F5A62004D040F226
:102A4000EA2133A0FFF724FE072E04D940F2EB2140
:102A50002FA0FFF71DFE002C08BF6FF0020554D019
:102A6000E06800281CBFB0F5807FB0F5007F04D07F
:102A70004FF43C7126A0FFF70BFEA06900281CBF95
:102A80000128022804D040F2F12121A0FFF700FE26
:102A9000E06900281CBF0428082804D040F2F22175
:102AA0001BA0FFF7F5FD2069B0F5806F04D940F257
:102AB000F32117A0FFF7ECFD2068B0F5805F18BF89
:102AC000002804D04FF43D7111A0FFF7E1FD07EBA2
:102AD000861160680864A0684864208AA28AC0F3EE
:102AE000090040EA02408864E26820681043D4E9A3
:102AF00006231A43104341F20F321040CA6D22F0F0
:102B00000F0222F498521043C8652846BDE8F081B0
:102B10002E2E5C647269766572735C686333325F13
:102B20006C6C5F6472697665725C7372635C686317
:102B300033325F6C6C5F646D612E63002DE9F04190
:102B400007460025A0F1804014460E46B0F5A620A9
:102B500004D040F2293121A0FFF79AFD072E04D9B5
:102B600040F22A311DA0FFF793FD002C08BF6FF043
:102B7000020530D02268002A18BF102A08D0202A67
:102B800018BF302A04D040F22F3114A0FFF780FD87
:102B9000A068B0F5806F04D94FF44C710FA0FFF717
:102BA00077FD6068B0F5806F04D940F231310BA039
:102BB000FFF76EFD07EB8610C26D237822F030021E
:102BC00003F030031A43C2652289616841EA024179
:102BD00021F0FC21C1642846BDE8F0812E2E5C6402
:102BE0007269766572735C686333325F6C6C5F64C4
:102BF00072697665725C7372635C686333325F6CB2
:102C00006C5F646D612E63000021002808BF6FF0C7
:102C1000020103D0002202604260826008467047D1
:102C200070B50546A0F1804016460C46B0F5A620CA
:102C300004D04FF4D27107A0FFF72AFD072C04D966
:102C400040F2A51103A0FFF723FD05EB84100664F5
:102C5000002070BD2E2E5C647269766572735C68AC
:102C60006333325F6C6C5F6472697665725C737239
:102C7000635C686333325F6C6C5F646D612E63000C
:102C800070B50546A0F1804016460C46B0F5A6206A
:102C900004D040F2C91109A0FFF7FAFC072C04D9AF
:102CA0004FF4E57105A0FFF7F3FC05EB8410816C90
:102CB000C1EA06418164002070BD00002E2E5C64D4
:102CC0007269766572735C686333325F6C6C5F64E3
:102CD00072697665725C7372635C686333325F6CD1
:102CE0006C5F646D612E63000022002808BF6FF0E6
:102CF000020209D000210160416001238160C0E926
:102D0000031341618161C1611046704710B5040031
:102D100018BF012C04D040F2351108A0FFF7B8FC11
:102D200011480068012804D04FF49B7103A0FFF7FD
:102D3000AFFC0E48C0F84C4310BD00002E2E5C6462
:102D40007269766572735C686333325F6C6C5F6462
:102D500072697665725C7372635C686333325F6C50
:102D60006C5F65666D2E63000004014000802042A8
:102D700010B5040018BF012C04D040F2511108A076
:102D8000FFF786FC11480068012804D04FF4A971B0
:102D900003A0FFF77DFC0E48C0F8444310BD0000BF
:102DA0002E2E5C647269766572735C686333325F81
:102DB0006C6C5F6472697665725C7372635C686385
:102DC00033325F6C6C5F65666D2E630000040140FA
:102DD0000080204210B530B1012809D040F2D63130
:102DE00006A0FFF755FC1048016841F4803103E06C
:102DF0000F480E490160C943016010BD2E2E5C646E
:102E00007269766572735C686333325F6C6C5F64A1
:102E100072697665725C7372635C686333325F6C8F
:102E20006C5F65666D2E63001C04014067452301DD
:102E30000404014010B5044620F03F0030F48070D7
:102E400004D04FF4FC7105A0FFF722FC0E48006887
:102E500034EA00000CBF0120002010BD2E2E5C645F
:102E60007269766572735C686333325F6C6C5F6441
:102E700072697665725C7372635C686333325F6C2F
:102E80006C5F65666D2E63002004014010B5040080
:102E900018BF012C04D040F25F1108A0FFF7F8FB27
:102EA00011480068012804D04FF4B07103A0FFF767
:102EB000EFFB0E48C0F8404310BD00002E2E5C64AE
:102EC0007269766572735C686333325F6C6C5F64E1
:102ED00072697665725C7372635C686333325F6CCF
:102EE0006C5F65666D2E6300000401400080204227
:102EF00010B5040018BF012C04D040F2431108A003
:102F0000FFF7C6FB11480068012804D04FF4A271F6
:102F100003A0FFF7BDFB0E48C0F8484310BD0000FA
:102F20002E2E5C647269766572735C686333325FFF
:102F30006C6C5F6472697665725C7372635C686303
:102F400033325F6C6C5F65666D2E63000004014078
:102F5000008020422DE9F05F3F4F05468B463868E0
:102F60004FF00008012804D040F295213BA0FFF764
:102F70008FFB4548D0F8C00320B140F2962137A01E
:102F8000FFF786FBB5F5003F21BFA5F14070A0F526
:102F90004060B0F5806FA5F1407024BFA0F50150EE
:102FA0000B2804D940F297212CA0FFF771FB15F0F4
:102FB000030F04D04FF4267128A0FFF769FB38688F
:102FC00040F23F14012804D040F206212F48FFF7B9
:102FD0005FFBDFF8BCA0CAF800402E4C206800F46C
:102FE0007029206820F470202060261D306820F0B1
:102FF000070040F001003060C5F800B02648006AC4
:103000002649C0F30260096821FA00F044F6206105
:10301000B0FBF1F1A01500F0E7F910F1080F08BFBF
:103020006FF0040810253868012804D040F206210A
:103030001648FFF72DFBCAF80050306820F0070053
:103040003060206809F4702120F47020084320606B
:103050004046BDE8F09F0000000401402E2E5C6455
:103060007269766572735C686333325F6C6C5F643F
:1030700072697665725C7372635C686333325F6C2D
:103080006C5F65666D2E6300008020425C2E000040
:1030900024040140180401400040054000C0FF1F07
:1030A0002DE9F04115460E4604466FF00207B0F5D3
:1030B000003F21BFA4F14070A0F54060B0F5806FE3
:1030C000A4F1407024BFA0F501500B2804D940F2B0
:1030D0002E2123A0FFF7DCFA6019411EB1F5003F55
:1030E0000DD32A490144B1F5806F08D3284908441B
:1030F0000B2804D940F22F2119A0FFF7C9FAA6B175
:103100002448006A2449C0F30260096821FA00F0EB
:1031100044F62061B0FBF1F14FF4807000F064F9E7
:10312000002818BF6FF0040702D03846BDE8F081D0
:103130006DB1B5F1004F0CD20120012D07DB00BFAE
:1031400014F8011B401C06F8011B8542F8DA002721
:10315000EBE714F8010B06F8010B6D1EF9D1F6E749
:103160002E2E5C647269766572735C686333325FBD
:103170006C6C5F6472697665725C7372635C6863C1
:1031800033325F6C6C5F65666D2E6300FFF3FFFC8E
:10319000BFDFFFFC0040054000C0FF1F2DE9F047E6
:1031A00005464FF00008B0F5003F22BFA5F1407082
:1031B000A0F54060B0F5806F04D34FF4597134A08E
:1031C000FFF766FA15F0030F04D040F2653130A026
:1031D000FFF75EFA394E3068012804D040F26631BC
:1031E0002BA0FFF755FA3648D0F8C00320B140F2C3
:1031F000673127A0FFF74CFA306840F23F140128EE
:1032000004D040F206212F48FFF742FADFF8B8A0B9
:10321000CAF800402D4C206800F47029206820F482
:1032200070202060271D386820F0070040F004005F
:103230003860002028602648006A2649C0F30260F2
:10324000096821FA00F02449A1FB00100109A0152A
:1032500000F0CAF810F1080F08BF6FF0040810253D
:103260003068012804D040F206211648FFF710FA12
:10327000CAF80050386820F007003860206809F468
:10328000702120F47020084320604046BDE8F0879C
:103290002E2E5C647269766572735C686333325F8C
:1032A0006C6C5F6472697665725C7372635C686390
:1032B00033325F6C6C5F65666D2E63000004014005
:1032C000008020425C2E00002404014018040140CC
:1032D0000040054000C0FF1F1F85EB5170B504463C
:1032E0001A4800250068012804D040F2211118A0D6
:1032F000FFF7CEF90F2C04D94FF4917114A0FFF70A
:10330000C7F91E49086864F303000860086800F004
:103310000F00A04218D01B48194A44F620630068E9
:10332000D2F820C0CCF3026C20FA0CFCBCFBF3FCFE
:103330006D1CAC4502D26FF0070070BDD1F800C023
:103340000CF00F0CA445EBD1002070BD000401402F
:103350002E2E5C647269766572735C686333325FCB
:103360006C6C5F6472697665725C7372635C6863CF
:1033700033325F6C6C5F65666D2E6300180401402C
:103380000040054000C0FF1F70B5064600F01F0555
:1033900012480C460068012804D04FF48E61104892
:1033A000FFF776F9002C18BF012C04D040F27141D0
:1033B0000B48FFF76DF9202E04D340F27241084804
:1033C000FFF766F9074801680122AA40914304F01B
:1033D0000102AA401143016070BD000000040140D9
:1033E0005C2E000090050140F8B50446002005461B
:1033F000009024F03F000F4630F4807004D04FF46A
:10340000FC711048FFF744F90F4E316834EA0100AF
:1034100015D00098401C0090B84202D96FF0070503
:103420000DE024F03F0030F4807004D04FF4FC71C4
:103430000448FFF72DF9316834EA0100E9D1284644
:10344000F8BD00005C2E00002004014070B5044669
:1034500015480D4684421CBF1448844218D01448B5
:1034600084421CBF1348844212D0134884421CBFBC
:10347000124884420CD0124884421FBF1148844233
:103480001148844204D040F2833110A0FFF700F9C4
:1034900015B11948054204D04FF461710BA0FFF734
:1034A000F7F8256170BD00000086034020860340C8
:1034B000408603406086034080860340A086034028
:1034C000C0860340E0860340008703402E2E5C64E4
:1034D0007269766572735C686333325F6C6C5F64CB
:1034E00072697665725C7372635C686333325F6CB9
:1034F0006C5F656D622E6300F1E007F82DE9F04125
:1035000005460C006FF0020008BFBDE8F081FE48E0
:1035100085421CBFFD48854210D0FD4885421CBF36
:10352000FC4885420AD0FC4885421CBFFB488542C6
:1035300004D04FF43D71FAA0FFF7AAF820680128E3
:1035400018BF002804D040F2F621F5A0FFF7A0F83C
:103550006068022818BF002804D040F2F721F0A0CC
:10356000FFF796F8A068042818BF002804D04FF48D
:103570003E71EBA0FFF78CF8E068B0F5803F18BF14
:10358000002804D040F2FA21E5A0FFF781F8206975
:10359000B0F5800F18BF002804D040F2FB21E0A056
:1035A000FFF776F8606930F4413004D04FF43F7192
:1035B000DBA0FFF76DF8A069B0F5802F18BF0028D9
:1035C00004D040F2FD21D6A0FFF762F8E069B0F523
:1035D000003F18BF002804D040F2FE21D0A0FFF722
:1035E00057F8206AB0F5000F18BF002804D040F249
:1035F000FF21CBA0FFF74CF8606A20F4006030F4A4
:10360000C01004D04FF44071C5A0FFF741F8A06A84
:10361000B0F5001F18BF002804D040F20131C0A04F
:10362000FFF736F8E06AB0F5802F18BF002804D005
:1036300040F20231BAA0FFF72BF8206BB0F1807F87
:1036400018BF002804D040F20331B5A0FFF720F8DE
:10365000606B20F4805030F4400004D04FF441718E
:10366000AFA0FFF715F8A06BB0F1807F18BF00285E
:1036700004D040F20531AAA0FFF70AF8E06BB0F5DC
:10368000002F18BF002804D040F20631A4A0FEF796
:10369000FFFF206CB0F1007F18BF002804D040F27B
:1036A00007319FA0FEF7F4FF606C20F4005030F06B
:1036B000C06004D04FF4427199A0FEF7E9FFA06CFE
:1036C000B0F1006F18BF002804D040F2093194A077
:1036D000FEF7DEFFE06CB0F5801F18BF002804D0B5
:1036E00040F20A318EA0FEF7D3FF206DB0F1806F5B
:1036F00018BF002804D040F20B3189A0FEF7C8FFA4
:10370000606D20F4804030F0405004D04FF443719D
:1037100083A0FEF7BDFFA06DB0F1804F18BF002859
:1037200004D040F20D317EA0FEF7B2FFE06D00281C
:1037300018BFB0F5004F04D040F20E3178A0FEF76C
:10374000A7FF206E202818BF002804D04FF4447132
:1037500073A0FEF79DFF606E002818BF012804D0FB
:1037600040F211316EA0FEF793FFA06E402818BF03
:10377000002804D040F2123169A0FEF789FFE06E04
:10378000002818BF022804D040F2133164A0FEF7CD
:103790007FFF206F802818BF002804D04FF44571A8
:1037A0005FA0FEF775FF606F002818BF042804D0E3
:1037B00040F215315AA0FEF76BFFA06FB0F5807F85
:1037C00018BF002804D040F2163155A0FEF760FF64
:1037D000E06F002818BF082804D040F2173150A02D
:1037E000FEF756FFD4F88000B0F5007F18BF002820
:1037F00004D04FF446714AA0FEF74AFFD4F8840083
:10380000002818BF102804D040F2193144A0FEF758
:103810003FFFD4F88800B0F5806F18BF002804D0AF
:1038200040F21A313EA0FEF733FFD4F88C00002896
:1038300018BF202804D040F21B3139A0FEF728FF22
:10384000D4F89000B0F1006F18BF002804D040F207
:103850001D3133A0FEF71CFFD4F89400B0F1805F57
:1038600018BF002804D040F21E312DA0FEF710FF33
:10387000D4F89800B0F1005F18BF002804D040F2DF
:103880001F3127A0FEF704FFD4F89C00B0F1804F51
:1038900018BF002804D04FF4487121A0FEF7F8FEAD
:1038A000D4F8A000B0F1004F18BF002804D040F2B7
:1038B00021311BA0FEF7ECFEA16E206EA26F084323
:1038C000216FE36F11430843D4F88010E26E084380
:1038D000D4F888100843616E1143626F1A43114394
:1038E000D4F884201143D4F88C201143D4E9002368
:1038F0001A43A36818431043D4E903231A43D4E9B5
:10390000073C43EA0C0321E0008603402086034085
:10391000408603406086034080860340A0860340C3
:103920002E2E5C647269766572735C686333325FF5
:103930006C6C5F6472697665725C7372635C6863F9
:1039400033325F6C6C5F656D622E63001A43E36A0D
:103950001A43236B1A43E36B1A43236C1A43E36C39
:103960001A43236D1A431043D4E905231A43D4E9BB
:10397000093C43EA0C031A43636B1A43A36B1A43D3
:10398000636C1A43A36C1A43636D1A43A36D1A4305
:10399000E36D1A4342EA0106D4E924C3D4E92612AE
:1039A0004CEA030742EA0108D4F8A04047EA0807B6
:1039B00027433843BCF1000F08BF002904D1002B76
:1039C00004BF002A002C01D040F010006E60286077
:1039D0004FF00000BDE8F0816FF00201002832D006
:1039E0000021016041608160C160016141618161CC
:1039F000C161016241628162C162016341638163AD
:103A0000C163016441648164C1640165416581658C
:103A1000C16541660166C166816641670167C1672C
:103A20008167C0F88410C0F88010C0F88C10C0F80E
:103A30008810C0F89010C0F89410C0F89810C0F822
:103A40009C10C0F8A0100846704700002DE9F04710
:103A50000121AAB0C80300F01DFA6846FFF7BCFFB9
:103A60004FF4802500240494CDE905454FF4003837
:103A7000EF00CDF81C800894CDE909476802109446
:103A8000CDE911400012AE100F904FF00409012053
:103A9000DFF8E8A0CDE90296009069465046FFF7AE
:103AA0002DFD6846FFF798FF03960494CDE9054580
:103AB000CDF81C800894CDE90947A8010B950C941A
:103AC000CDE90D400220CDE901092D4C6946204683
:103AD000FFF714FD0022A115504600F053F8002214
:103AE0006115504600F04EF80022E114504600F0F7
:103AF00049F800220421504600F044F80022A115A4
:103B0000204600F03FF800226115204600F03AF808
:103B100000222115204600F035F80022042120461D
:103B200000F030F8A1155046FFF790FC61155046A3
:103B3000FFF78CFCE1145046FFF788FCA9015046C2
:103B4000FFF784FC29025046FFF780FCA1152046B0
:103B5000FFF77CFC61152046FFF778FC2115204615
:103B6000FFF774FCE9012046FFF770FC29022046AC
:103B7000FFF76CFC2AB0BDE8F08700000086034028
:103B80002086034070B504461D4816460D46844203
:103B90001CBF1C48844218D01B4884421CBF1B48D1
:103BA000844212D01A4884421CBF1A4884420CD066
:103BB000194884421FBF194884421948844204D0DE
:103BC00040F2BA3117A0FEF763FD25B125F48770E6
:103BD00030F4F05004D040F2BB3112A0FEF758FD93
:103BE000002E04BFA069A84308D0012E04D04FF4D2
:103BF0006F710CA0FEF74CFDA0692843A06170BD59
:103C000000860340208603404086034060860340D0
:103C100080860340A0860340C0860340E0860340C0
:103C2000008703402E2E5C647269766572735C684F
:103C30006333325F6C6C5F6472697665725C737259
:103C4000635C686333325F6C6C5F656D622E63002A
:103C500010B50A4C0A20FEF761FD0121022000F098
:103C60002FFB28B1012000F03DF8FDF713FB10BD3C
:103C7000206840F002002060ECE700002CC1FF1F2C
:103C800010B50A4C0A20FEF749FD0821022000F079
:103C900017FB28B1082000F025F8FCF7B0FB10BD99
:103CA000206840F001002060ECE700002CC1FF1FFD
:103CB00010B50B4C0A20FEF731FD4FF400710120C6
:103CC00000F0FEFA30B14FF4007000F00BF8FDF791
:103CD000E2FA10BD206840F004002060EAE700002E
:103CE0002CC1FF1F10B5040001D0200C04D040F2FD
:103CF000F91103A0FEF7CCFC0E48846510BD00004E
:103D00002E2E5C647269766572735C686333325F11
:103D10006C6C5F6472697665725C7372635C686315
:103D200033325F6C6C5F696E746572727570747338
:103D30002E6300000010054070B590B0684601F099
:103D400013FB00250095012001950495CDE9055050
:103D5000029569462846039501F0BCF80CA801F0CD
:103D6000FAFA0220CDE90C051D4C0CAA00212046D0
:103D70000E9501F0A5F907A801F0E2FA4FF48000D2
:103D8000079541F2707543F69826CDE90850CDE9C4
:103D90000A6007A9204601F047FAD4F8240240F44B
:103DA0008000C4F82402D4F82C0240F48000C4F847
:103DB0002C02D4F8240265F31500C4F82402D4F8C8
:103DC0002C0266F31500C4F82C0240F63D4105A014
:103DD000FEF75EFCD4F80402C4F8040210B070BD13
:103DE00000C003402E2E5C647269766572735C6855
:103DF0006333325F6C6C5F6472697665725C696EA6
:103E0000635C686333325F6C6C5F687270776D2ED1
:103E10006800000070B50E46050002D0104805424B
:103E200003D071210FA0FEF733FC002E18BF012E26
:103E300004D04FF072010BA0FEF72AFC144C20694D
:103E400010F0010F04D14FF0730106A0FEF720FC23
:103E50002068012E0CBFA8432843206070BD0000DD
:103E6000EEB378FF2E2E5C647269766572735C68BF
:103E70006333325F6C6C5F6472697665725C737217
:103E8000635C686333325F6C6C5F6663672E6300EC
:103E90000080044070B50E46050002D00A48054275
:103EA00003D0962109A0FEF7F3FB134C46B1012E77
:103EB00004BFA068A84305D0972104A0FEF7E8FB43
:103EC000A0682843A06070BD00480FFE2E2E5C64E1
:103ED0007269766572735C686333325F6C6C5F64C1
:103EE00072697665725C7372635C686333325F6CAF
:103EF0006C5F6663672E63000080044070B50E46F9
:103F0000050002D00A48054203D0A82109A0FEF707
:103F1000BFFB134C46B1012E04BFE068A84305D097
:103F2000A92104A0FEF7B4FBE0682843E06070BD5F
:103F3000C8FC0FFF2E2E5C647269766572735C6834
:103F40006333325F6C6C5F6472697665725C737246
:103F5000635C686333325F6C6C5F6663672E63001B
:103F60000080044070B505461D4816460C46008882
:103F700010F0010F04D140F2A7211AA0FEF788FB30
:103F8000002D18BF012D09D0022D1CBF032D052DBA
:103F900004D04FF42A7113A0FEF77AFB24B940F243
:103FA000A92110A0FEF774FB00201A4BAA0100BF44
:103FB00014F0010F0CD002EB80011944012EB1F86E
:103FC00000C00CBF4CF4004CCCF30E0CA1F800C0A8
:103FD000640808BF70BD401CC0B21028E8D370BD93
:103FE000FC3B05402E2E5C647269766572735C68DA
:103FF0006333325F6C6C5F6472697665725C737296
:10400000635C686333325F6C6C5F6770696F2E63EB
:1040100000000000003C054070B5054611480E4602
:10402000008810F0010F04D140F2EE210EA0FEF73F
:104030002FFB0DB1280B04D040F2EF210AA0FEF7B0
:1040400027FB154C4EB1012E04BF2068284306D033
:104050004FF43C7104A0FEF71BFB2068A8432060CE
:1040600070BD0000FC3B05402E2E5C6472697665D5
:1040700072735C686333325F6C6C5F64726976651F
:10408000725C7372635C686333325F6C6C5F677021
:10409000696F2E6300000000F03B05402DE9F04100
:1040A00014000D4606464FF0000708BF6FF00207E8
:1040B00000F0E7807448008810F0010F04D140F24E
:1040C0000F1172A0FEF7E4FA002E18BF012E09D0DE
:1040D000022E1CBF032E052E04D04FF488716BA056
:1040E000FEF7D6FA25B940F2111168A0FEF7D0FA12
:1040F0002088002818BF012804D04FF4897163A0DC
:10410000FEF7C6FA6088002818BF022804D040F2E3
:1041100013115EA0FEF7BCFAA088002818BF04287F
:1041200004D04FF48A7159A0FEF7B2FAE088002853
:104130001CBF1028202804D040F2151153A0FEF710
:10414000A7FA2089002818BFB0F5804F04D04FF49B
:104150008B714EA0FEF79CFA6089002818BF40289A
:1041600004D040F2171149A0FEF792FAA089002866
:1041700018BF802804D04FF48C7144A0FEF788FA51
:10418000E089002818BFB0F5005F04D040F2191193
:104190003EA0FEF77DFA208A002818BFB0F5007F08
:1041A00004D04FF48D7139A0FEF772FA608A0028AE
:1041B00018BFB0F5805F04D040F21B1133A0FEF7AA
:1041C00067FAA08A002818BFB0F5806F04D04FF4BA
:1041D0008E712EA0FEF75CFAE08A002818BFB0F5B9
:1041E000004F04D040F21D1128A0FEF751FA002024
:1041F000B301324E4FF2F76215F0010F3BD0218828
:10420000B4F802C0B4F8068041EA0C01B4F804C066
:104210004CEA080C41EA0C01B4F80AC0B4F80E806C
:1042200041EA0C01B4F810C041EA0C01B4F812C024
:1042300041EA0C01B4F808C041EA0C01B4F816C018
:104240004CEA0101B4F80CC04CEA080C4CEA01013C
:10425000B4F814C04CEA010C03EB80013144B1F80E
:1042600000800CEA020C28F0F70828F4764848EAA7
:104270000C0CA1F800C06D0803D0401CC0B210287F
:10428000BAD33846BDE8F081FC3B05402E2E5C6475
:104290007269766572735C686333325F6C6C5F64FD
:1042A00072697665725C7372635C686333325F6CEB
:1042B0006C5F6770696F2E6300000000003C054072
:1042C00070B50D46040018BF012C09D0022C1CBF8C
:1042D000032C052C04D04FF409710AA0FEF7D8F97D
:1042E00025B940F2252107A0FEF7D2F9200100F1FF
:1042F000804000F5A620B0F80008284018BF012033
:1043000070BD00002E2E5C647269766572735C6805
:104310006333325F6C6C5F6472697665725C737272
:10432000635C686333325F6C6C5F6770696F2E63C8
:104330000000000070B50D46040018BF012C09D024
:10434000022C1CBF032C052C04D04FF41C7108A0B8
:10435000FEF79EF925B940F2712105A0FEF798F904
:104360000F4800EB041001882943018070BD000054
:104370002E2E5C647269766572735C686333325F9B
:104380006C6C5F6472697665725C7372635C68639F
:1043900033325F6C6C5F6770696F2E6300000000E2
:1043A0000A38054070B50C46050002D035F01F00F4
:1043B00004D04FF4BE7110A0FEF76AF9002C18BFAC
:1043C000012C04D040F27D110BA0FEF761F91648D4
:1043D000008810F0010F04D14FF4BF7106A0FEF762
:1043E00057F9124A05F01F00012C11880CBF084331
:1043F00021EA0000108070BD2E2E5C647269766523
:1044000072735C686333325F6C6C5F64726976658B
:10441000725C7372635C686333325F6C6C5F67708D
:10442000696F2E6300000000FC3B0540F43B054033
:1044300070B516460C46050018BF012D09D0022D97
:104440001CBF032D052D04D04FF4CA711BA0FEF72D
:104450001FF924B940F2951118A0FEF719F9112E91
:1044600081BFA6F114000628A6F12000192804D95E
:104470004FF4CB7111A0FEF70BF91C48008810F027
:10448000010F04D140F297110CA0FEF701F90020B2
:10449000174BAA0114F0010F08D002EB8001194458
:1044A000B1F800C066F3050CA1F800C0640808BFAD
:1044B00070BD401CC0B21028ECD370BD2E2E5C64C1
:1044C0007269766572735C686333325F6C6C5F64CB
:1044D00072697665725C7372635C686333325F6CB9
:1044E0006C5F6770696F2E6300000000FC3B054045
:1044F000023C054070B50D46040018BF012C09D0E0
:10450000022C1CBF032C052C04D040F25E2108A015
:10451000FEF7BEF825B940F25F2105A0FEF7B8F816
:104520000F4800EB041001882943018070BD000092
:104530002E2E5C647269766572735C686333325FD9
:104540006C6C5F6472697665725C7372635C6863DD
:1045500033325F6C6C5F6770696F2E630000000020
:104560000838054010B5040018BFB4F5805F16D0B8
:10457000B4F5005F18BFB4F5405F10D0B4F5804FBC
:1045800018BFB4F5A04F0AD0B4F5C04F18BFB4F5AA
:10459000E04F04D04FF4F9710AA0FEF779F81548FE
:1045A000008810F0010F04D140F2F31105A0FEF7CE
:1045B0006FF81148018804F4E04221F4E04111430E
:1045C000018010BD2E2E5C647269766572735C6822
:1045D0006333325F6C6C5F6472697665725C7372B0
:1045E000635C686333325F6C6C5F6770696F2E6306
:1045F00000000000FC3B0540F83B0540002200287D
:1046000008BF6FF002020CD0002101804180C18000
:10461000C1828181C1810181418101824182818088
:10462000818210467047000070B50D46040018BF27
:10463000012C09D0022C1CBF032C052C04D040F205
:10464000932108A0FEF724F825B94FF4257105A0A1
:10465000FEF71EF80F4800EB041001882943018083
:1046600070BD00002E2E5C647269766572735C68A2
:104670006333325F6C6C5F6472697665725C73720F
:10468000635C686333325F6C6C5F6770696F2E6365
:10469000000000000C38054010B586B06846FFF7F2
:1046A000ADFF0024ADF816400220ADF80040ADF893
:1046B0000200C1026A462046FFF7F0FC6A464FF44A
:1046C00000610220FFF7EAFC0120ADF800006A4615
:1046D00020210020FFF7E2FC6A464FF480610120B0
:1046E000FFF7DCFCADF800406A464FF48041022041
:1046F000FFF7D4FC4FF40044ADF816406A460121A0
:104700000220FFF7CBFC02216A460846FFF7C6FCF1
:104710006A4604210220FFF7C1FC6A4608210220F4
:10472000FFF7BCFC6A4620210220FFF7B7FC6A466F
:1047300002210120FFF7B2FC6A4621110120FFF798
:10474000ADFC6A4608210020FFF7A8FC6846FFF789
:1047500055FFADF816406A4680210020FFF79EFC09
:104760006A4604210020FFF799FC02220121002063
:10477000FFF75EFE01216A460846FFF78FFC6A4696
:1047800021110120FFF78AFC01210846FFF744FCB4
:1047900001210220FFF740FC01210420FFF73CFC2F
:1047A00001210820FFF738FC01211020FFF734FC1D
:1047B00001212020FFF730FC01214020FFF72CFCD5
:1047C00001218020FFF728FC01210802FFF724FCCB
:1047D00001214802FFF720FC01218802FFF71CFCA1
:1047E0000121C802FFF718FC00210820FFF7DAFDBD
:1047F000252221460020FFF71BFE24226111022002
:10480000FFF716FE112202210020FFF711FE1122F0
:1048100001210020FFF70CFE052280210120FFF777
:1048200007FE052208211046FFF702FE0522E111CE
:104830000120FFF7FDFD0522A1110120FFF7F8FD82
:1048400006B010BD6FF0020118B1002101600171C6
:104850004171084670470000234881B0006A23492F
:10486000C0F30260224B096821FA00F04FF47A711C
:10487000B0FBF1F00090D3F8FC12002021F0010110
:1048800041F44071C3F8FC12D3F8FC1221F002018C
:1048900041F44071C3F8FC12D3F8FC1221F44071CA
:1048A000C3F8FC12D3F8FC1240F201321143C3F8F2
:1048B000FC12D3F8FC1211F4807F0CD100994A1E2F
:1048C000009203D26FF0070001B07047D3F8FC12DA
:1048D00011F4807FF2D0D3F8FC1211F4007F18BFDE
:1048E0004FF0FF3001B070470040054000C0FF1F8F
:1048F00000C0034010B50446A0F18040B0F5703010
:104900001CBFA4F18040B0F5713017D0A4F18040F5
:10491000B0F572301CBFA4F18040B0F573300DD0FB
:10492000A4F18040B0F574301CBFA4F18040B0F514
:10493000753003D0B1214AA0FDF7AAFE0020C4F8CB
:10494000400120606060524921646164C4F88010B5
:10495000C4F88410C4F88810C4F88C10C4F89010FF
:10496000C4F89410C4F89810C4F89C10C4F8C0108F
:10497000C4F8C410C4F8C810C4F8CC10C4F80011AE
:10498000C4F80411C4F80811C4F80C11C4F84401A7
:10499000C4F84801C4F84C01C4F85401C4F85801E3
:1049A000C4F860014906C4F86411C4F86801C4F889
:1049B0008001C4F88801C4F89001C4F89401C4F8D7
:1049C0009801C4F89C01C4F800023249C4F80412EA
:1049D000C4F80812C4F81002C4F818024FF4800298
:1049E000C4F82022C4F82422C4F82822C4F82C22B7
:1049F000C4F83002C4F83402C4F83812C4F83C12C7
:104A0000C4F84002C4F84402C4F84802C4F84C0296
:104A1000C4F85002C4F85412C4F85812C4F85C1216
:104A2000C4F86012C4F86402C4F86802C4F8A002B2
:104A3000C4F8A4021848C4F8B402C4F8B802C4F810
:104A4000BC02C4F8C002C4F8C402C4F8C802C4F866
:104A5000CC02C4F8D002C4F8D402C4F8D80210BD05
:104A60002E2E5C647269766572735C686333325FA4
:104A70006C6C5F6472697665725C7372635C6863A8
:104A800033325F6C6C5F687270776D2E630000006C
:104A9000C0FF3F00AAAA0A00C0FF7F0070B504460D
:104AA0000D006FF0020008BF70BD2F4EB4421CBF56
:104AB000A4F18040B0F5713018D0A4F18040B0F579
:104AC00072301CBFA4F18040B0F573300ED0A4F159
:104AD0008040B0F574301CBFA4F18040B0F5753053
:104AE00004D040F24D4121A0FDF7D2FD28680028F6
:104AF00018BF012808D0022818BF032804D040F2AC
:104B00004E411AA0FDF7C4FDB44213D02879002805
:104B100018BF012804D04FF48A6114A0FDF7B8FD36
:104B20006879002818BF012804D040F251410FA035
:104B3000FDF7AEFD2978D4F84C0161F38710C4F875
:104B40004C01B4420DD028796979000740EA415000
:104B5000D4F8001200F0815021F081510843C4F8CC
:104B60000002002070BD000000C003402E2E5C64D7
:104B70007269766572735C686333325F6C6C5F6414
:104B800072697665725C7372635C686333325F6C02
:104B90006C5F687270776D2E6300000070B504461C
:104BA0000D006FF0020008BF70BDA4F18040B0F5A9
:104BB00070301CBFA4F18040B0F5713018D0A4F162
:104BC0008040B0F572301CBFA4F18040B0F5733066
:104BD0000ED0A4F18040B0F574301CBFA4F1804029
:104BE000B0F5753004D040F2093118A0FDF750FD42
:104BF0002868002818BF022804D040F20A3113A008
:104C0000FDF746FD6868002818BF102804D040F260
:104C10000B310EA0FDF73CFDA868002818BF202826
:104C200004D04FF4437109A0FDF732FD28782979AB
:104C30000843297A0843D4F84C1100F0320021F0DF
:104C400032010843C4F84C01002070BD2E2E5C6474
:104C50007269766572735C686333325F6C6C5F6433
:104C600072697665725C7372635C686333325F6C21
:104C70006C5F687270776D2E630000006FF0020148
:104C800018B1002101604160816008467047000052
:104C900070B504460D006FF0020008BF70BDA4F1AE
:104CA0008040B0F570301CBFA4F18040B0F5713089
:104CB00018D0A4F18040B0F572301CBFA4F1804040
:104CC000B0F573300ED0A4F18040B0F574301CBF45
:104CD000A4F18040B0F5753004D040F2B46126A054
:104CE000FDF7D6FC2868002818BFB0F1807F10D0EF
:104CF000B0F1007F18BFB0F1407F0AD0B0F1806FF3
:104D000018BFB0F1A06F04D040F2B5611AA0FDF752
:104D1000BFFC6868002818BFB0F5800F0AD0B0F556
:104D2000000F18BFB0F5400F04D040F2B66112A0DA
:104D3000FDF7AEFCA868002818BFB0F5801F0AD0A8
:104D4000B0F5001F18BFB0F5401F04D040F2B761A6
:104D500009A0FDF79DFCD5E900010843A9680843B7
:104D6000D4F8541100F0FE6021F0FE610843C4F84D
:104D70005401002070BD00002E2E5C6472697665BF
:104D800072735C686333325F6C6C5F647269766502
:104D9000725C7372635C686333325F6C6C5F687201
:104DA00070776D2E6300000070B504460D006FF043
:104DB000020008BF70BDA4F18040B0F570301CBF88
:104DC000A4F18040B0F5713018D0A4F18040B0F566
:104DD00072301CBFA4F18040B0F573300ED0A4F146
:104DE0008040B0F574301CBFA4F18040B0F5753040
:104DF00004D040F2E66126A0FDF74AFC28680028AE
:104E000018BFB0F1807F10D0B0F1007F18BFB0F1B3
:104E1000407F0AD0B0F1806F18BFB0F1A06F04D00E
:104E200040F2E7611AA0FDF733FC6868002818BF5C
:104E3000B0F5800F0AD0B0F5000F18BFB0F5400FE5
:104E400004D04FF4DD6112A0FDF722FCA868002811
:104E500018BFB0F5801F0AD0B0F5001F18BFB0F51D
:104E6000401F04D040F2E96109A0FDF711FCD5E92B
:104E700000010843A9680843D4F8581100F0FE6007
:104E800021F0FE610843C4F85801002070BD000005
:104E90002E2E5C647269766572735C686333325F70
:104EA0006C6C5F6472697665725C7372635C686374
:104EB00033325F6C6C5F687270776D2E6300000038
:104EC0006FF0020118B10021016041608160084665
:104ED0007047000070B505460C006FF0020008BF77
:104EE00070BD092D04D940F2655168A0FDF7D0FBD3
:104EF0002068002818BF012808D0022818BF0328FE
:104F000004D040F2665161A0FDF7C2FBA068002802
:104F100018BF082808D0102818BF182804D040F25D
:104F200067515AA0FDF7B4FBE068002818BF0428B9
:104F300004D04FF4AD6155A0FDF7AAFB206801280D
:104F40000DD16068002818BF012808D0022818BFBA
:104F5000032804D040F26A514CA0FDF799FB206968
:104F6000042D09D8002818BF202813D040F26D5115
:104F700046A0FDF78DFB0DE020B140F26F5143A03C
:104F8000FDF786FB60690F2804D94FF4AE613FA09E
:104F9000FDF77EFBA069002818BF012804D040F26D
:104FA00072513AA0FDF774FB4449042D18D82078BB
:104FB000227B237C1043227A1A43104300F03F02E5
:104FC00005EB45004000D1F8D83382404FF03F0C4C
:104FD0000CFA00F023EA00001043C1F8D80324E0E3
:104FE000D1F8DC23681F00EB400040001F23834002
:104FF0009A43237894F80CC043EA0C0394F808C051
:1050000043EA0C0303F01F0383401A43C1F8DC2377
:10501000D1F8E0230F2383409A43237D03F00F034D
:1050200003FA00F01043C1F8E003206801281FD103
:105030000320D1F8B033012D0CD86A00904023EA48
:105040000000237903F0030303FA02F21043C1F8CE
:10505000B0030DE00C2202EB4502904023EA000071
:10506000237903F0030303FA02F21043C1F8B003FB
:10507000D1F8E8030122AA409043227E02F0010207
:10508000AA401043C1F8E803002070BD2E2E5C64D6
:105090007269766572735C686333325F6C6C5F64EF
:1050A00072697665725C7372635C686333325F6CDD
:1050B0006C5F687270776D2E6300000000C0034063
:1050C00070B5054614000E466FF0020008BF70BDB3
:1050D000A5F18040B0F570301CBFA5F18040B0F55F
:1050E000713018D0A5F18040B0F572301CBFA5F129
:1050F0008040B0F573300ED0A5F18040B0F574302B
:105100001CBFA5F18040B0F5753004D040F2B75116
:1051100039A0FDF7BDFA092E04D94FF4B76136A0C6
:10512000FDF7B6FA2368002B18BF022B20D0042B02
:1051300018BF062B1CD0082B18BF0A2B18D00C2B1D
:1051400018BF0E2B14D0102B18BF122B10D0142BFD
:1051500018BF162B0CD0182B18BF1A2B08D01C2BDD
:1051600018BF1E2B04D040F2B95123A0FDF790FACE
:105170006068002818BF012804D040F2BA511EA070
:10518000FDF786FAA068002818BF202804D040F256
:10519000BB5119A0FDF77CFA3F20042E14D8D5F896
:1051A000302206EB46014900884022EA00002278BE
:1051B00023791A43237A1A4302F03F0202FA01F1DB
:1051C0000843C5F8300214E0D5F83422711F01EB12
:1051D00041014900884022EA0000227823791A43DD
:1051E000237A1A4302F03F0202FA01F10843C5F89C
:1051F0003402002070BD00002E2E5C64726976655A
:1052000072735C686333325F6C6C5F64726976657D
:10521000725C7372635C686333325F6C6C5F68727C
:1052200070776D2E6300000070B50C0005466FF0BE
:10523000020600F06A80A5F18040B0F570301CBF16
:10524000A5F18040B0F5713018D0A5F18040B0F5DF
:1052500072301CBFA5F18040B0F573300ED0A5F1BF
:105260008040B0F574301CBFA5F18040B0F57530BA
:1052700004D040F2F55126A0FDF70AFA2068002874
:1052800018BFB0F1804F04D040F2F65120A0FDF7D6
:10529000FFF96068B0F5800F04D340F2F7511CA00D
:1052A000FDF7F6F9A068002818BFB0F5800F04D00C
:1052B0004FF4BF6116A0FDF7EBF9E068B0F5800F81
:1052C00004D340F2F95112A0FDF7E2F92069002859
:1052D00018BFB0F5800F04D040F2FA510CA0FDF7D2
:1052E000D7F9D5F83002216820F0804001F08041E4
:1052F0000843C5F83002D4E901010843C5F820028B
:10530000D4E903010843C5F82802304670BD000007
:105310002E2E5C647269766572735C686333325FEB
:105320006C6C5F6472697665725C7372635C6863EF
:1053300033325F6C6C5F687270776D2E63000000B3
:105340006FF0020128B10021016041608160C160FD
:105350000161084670476FF0020118B10021016039
:1053600041608160084670476FF0020138B100214A
:1053700001604160C16081600161416181610846F5
:105380007047000070B504460D006FF0020008BFC2
:1053900070BD2F4EB4421CBFA4F18040B0F57130F7
:1053A00018D0A4F18040B0F572301CBFA4F1804049
:1053B000B0F573300ED0A4F18040B0F574301CBF4E
:1053C000A4F18040B0F5753004D04FF44E7121A0A7
:1053D000FDF75EF92868002818BF012808D00228C8
:1053E00018BF032804D040F239311AA0FDF750F954
:1053F000B44213D02879002818BF012804D040F205
:105400003B3114A0FDF744F96879002818BF012842
:1054100004D04FF44F710FA0FDF73AF92978D4F872
:10542000480161F38300C4F84801B4420DD02879E3
:105430006979C00540EA0140D4F8001200F4010087
:1054400021F401010843C4F80002002070BD0000EF
:1054500000C003402E2E5C647269766572735C68CE
:105460006333325F6C6C5F6472697665725C737211
:10547000635C686333325F6C6C5F687270776D2E4B
:105480006300000070B504460D006FF0020008BF15
:1054900070BD2F4EB4421CBFA4F18040B0F57130F6
:1054A00018D0A4F18040B0F572301CBFA4F1804048
:1054B000B0F573300ED0A4F18040B0F574301CBF4D
:1054C000A4F18040B0F5753004D040F25A3121A0EB
:1054D000FDF7DEF82868002818BF012808D0022848
:1054E00018BF032804D040F25B311AA0FDF7D0F8B2
:1054F000B44213D02879002818BF012804D040F204
:105500005D3114A0FDF7C4F86879002818BF0128A0
:1055100004D040F25E310FA0FDF7BAF82978D4F834
:10552000480161F38710C4F84801B4420DD02879CE
:105530006979000640EA4140D4F8001200F0817019
:1055400021F081710843C4F80002002070BD000002
:1055500000C003402E2E5C647269766572735C68CD
:105560006333325F6C6C5F6472697665725C737210
:10557000635C686333325F6C6C5F687270776D2E4A
:105580006300000010B504006FF0020008BF10BDFA
:105590002068002818BFB0F5001F04D04FF49761B1
:1055A0004CA0FDF775F86068002818BF042815D0D6
:1055B000082818BF0C2811D0102818BF14280DD0A7
:1055C000182818BF1C2809D020281CBF24282828E8
:1055D00004D040F2B9413FA0FDF75AF8A068002876
:1055E00018BF40282CD0802818BFC02828D0B0F57C
:1055F000807F18BFB0F5A07F22D0B0F5C07F18BF64
:10560000B0F5E07F1CD0B0F5007F18BFB0F5107F7B
:1056100016D0B0F5207F18BFB0F5307F10D0B0F5B0
:10562000407F18BFB0F5507F0AD0B0F5607F18BF3B
:10563000B0F5707F04D040F2BA4126A0FDF728F8FB
:10564000E068B0F5803F04D340F2BB4121A0FDF7F4
:105650001FF82069B0F5803F04D340F2BC411DA083
:10566000FDF716F86069022818BF002804D040F240
:10567000BD4118A0FDF70CF8D4E90601214A21F03C
:10568000FF011040084304D040F2BE4111A0FCF7D6
:10569000FFFFD4E9000108436269A1681143084390
:1056A000194940F4403001401848D0F8BC23184B49
:1056B0001A401143C0F8BC13E168C0F8C81321694F
:1056C000C0F8D013A169C0F8C013E169C0F8C413D1
:1056D000002010BD2E2E5C647269766572735C6862
:1056E0006333325F6C6C5F6472697665725C73728F
:1056F000635C686333325F6C6C5F687270776D2EC9
:105700006300000001000080FE03230000C003408E
:1057100001FCDCFF13B50C006FF0020004BF02B007
:1057200010BD2068002818BF012804D040F2F341C2
:1057300033A0FCF7ADFF6068002818BFB0F5803FCC
:1057400004D040F2F4412EA0FCF7A2FFA06800288C
:1057500018BF042804D040F2F54129A0FCF798FFB7
:10576000E068002818BFB0F5802F04D040F2F64161
:1057700023A0FCF78DFF2069002818BFB0F5803FFB
:1057800004D040F2F7411EA0FCF782FF60690028B8
:1057900018BF012804D04FF49F6119A0FCF778FFCF
:1057A000D4E900010843D4E90212114308432169F6
:1057B00008431F4901400098D0F840221D4B1A4071
:1057C0001143C0F840121C480DF5804301159B0A97
:1057D00062699940002AD0F8BC2307D041F44031D7
:1057E0001143C0F8BC1302B0002010BD4FF47F334A
:1057F00022F47F3223EA01011143C0F8BC13F2E71F
:105800002E2E5C647269766572735C686333325FF6
:105810006C6C5F6472697665725C7372635C6863FA
:1058200033325F6C6C5F687270776D2E63000000BE
:1058300005000502FAFFFAFD00C003406FF0020107
:1058400030B10021016041608160C160016141614E
:10585000084670476FF0020140B1002101604160CD
:105860008160C16001614161C0E90611084670476D
:1058700070B50446A0F180400D466FF00206B0F509
:1058800070301CBFA4F18040B0F5713018D0A4F185
:105890008040B0F572301CBFA4F18040B0F5733089
:1058A0000ED0A4F18040B0F574301CBFA4F180404C
:1058B000B0F5753004D040F282412CA0FCF7E8FE30
:1058C000002D51D02868002818BFB0F5007F0CD0FB
:1058D000B0F5806F1CBFB0F5C06FB0F5006F04D09D
:1058E00040F2854121A0FCF7D3FE6868002818BF6C
:1058F000B0F5007F0AD0B0F5806F18BFB0F5C06F6B
:1059000004D040F2864119A0FCF7C2FEA868002826
:1059100018BF082804D040F2874114A0FCF7B8FE55
:10592000E868002818BFB0F5002F04D04FF491614B
:105930000EA0FCF7ADFEA96828680843E968084393
:1059400016490840D4F84012154A11400843C4F8DB
:105950004002D4F84402A98820F4C06001F4C06178
:105960000843C4F844020026304670BD2E2E5C6405
:105970007269766572735C686333325F6C6C5F6406
:1059800072697665725C7372635C686333325F6CF4
:105990006C5F687270776D2E63000000080E08005F
:1059A000F7F1F7FF6FF0020120B1002101604160C3
:1059B0008160C1600846704770B504460D006FF005
:1059C000020008BF70BDA4F18040B0F570301CBF6C
:1059D000A4F18040B0F5713017D0A4F18040B0F54B
:1059E00072301CBFA4F18040B0F573300DD0A4F12B
:1059F0008040B0F574301CBFA4F18040B0F5753024
:105A000003D09C2114A0FCF743FE2868002818BF8F
:105A1000042804D04FF09D010FA0FCF739FEA868C0
:105A2000002818BFB0F5807F04D04FF09E010AA077
:105A3000FCF72EFE68681449C138884203D99F21BB
:105A400005A0FCF725FE68682064A968286808435B
:105A5000C4F84001002070BD2E2E5C64726976652A
:105A600072735C686333325F6C6C5F647269766515
:105A7000725C7372635C686333325F6C6C5F687214
:105A800070776D2E63000000FFFE3F0070B5044686
:105A9000A0F180400D46B0F570301CBFA4F18040ED
:105AA000B0F5713018D0A4F18040B0F572301CBF51
:105AB000A4F18040B0F573300ED0A4F18040B0F571
:105AC00074301CBFA4F18040B0F5753004D041F2B1
:105AD00030010D48FCF7DCFDB5F5803F18BFB5F58A
:105AE000003F0AD0B5F5802F18BFB5F5002F04D0C0
:105AF00041F231010448FCF7CBFDD4F844022843BD
:105B0000C4F8440270BD0000E43D000070B50546D5
:105B10000C006FF0020008BF70BDA5F18040B0F529
:105B200071301CBFA5F18040B0F5723012D0A5F1E4
:105B30008040B0F573301FBFA5F18040B0F57430E0
:105B4000A5F18040B0F5753004D040F284611EA00C
:105B5000FCF79EFD2068042804D940F285611AA054
:105B6000FCF796FD6068002818BF402804D040F27A
:105B7000866115A0FCF78CFDA068002818BF80285E
:105B800004D040F2876110A0FCF782FDE068002895
:105B900018BF202804D04FF4D1610BA0FCF778FD8A
:105BA000D4E901010843216840EA4100C5F8A40294
:105BB000D5F84402217B20F0200001F020010843A9
:105BC000C5F84402002070BD2E2E5C6472697665B3
:105BD00072735C686333325F6C6C5F6472697665A4
:105BE000725C7372635C686333325F6C6C5F6872A3
:105BF00070776D2E630000006FF0020120B100216C
:105C0000016041608160C1600846704770B505461B
:105C10000C006FF0020008BF70BDA5F18040B0F528
:105C200070301CBFA5F18040B0F5713018D0A5F1DF
:105C30008040B0F572301CBFA5F18040B0F57330E4
:105C40000ED0A5F18040B0F574301CBFA5F18040A6
:105C5000B0F5753004D040F25711A2A0FCF718FD42
:105C60002068AC49C138884204D94FF4AC719DA07A
:105C7000FCF70EFD606800281CBF0128022804D034
:105C800040F2591197A0FCF703FDA06800281CBF43
:105C90000428082804D04FF4AD7192A0FCF7F8FC5A
:105CA000E068002818BF102808D0202818BF302826
:105CB00004D040F25B118BA0FCF7EAFC20690028BD
:105CC00018BF402808D0802818BFC02804D04FF43F
:105CD000AE7184A0FCF7DCFC6069002818BFB0F549
:105CE000807F0AD0B0F5007F18BFB0F5407F04D0A8
:105CF00040F25D117BA0FCF7CBFCA069002818BF27
:105D0000B0F5806F0AD0B0F5006F18BFB0F5406FE6
:105D100004D04FF4AF7173A0FCF7BAFCE06900281F
:105D200018BFB0F5805F0AD0B0F5005F18BFB0F5BE
:105D3000405F04D040F25F116AA0FCF7A9FC206A22
:105D4000002818BFB0F5804F0AD0B0F5004F18BF3B
:105D5000B0F5404F04D04FF4B07162A0FCF798FC4E
:105D6000606A002818BFB0F5801F0AD0B0F5001F88
:105D700018BFB0F5401F04D040F2611159A0FCF7E4
:105D800087FCA06A002818BFB0F5801F0AD0B0F5C4
:105D9000001F18BFB0F5401F04D04FF4B17151A0DF
:105DA000FCF776FCE06A002818BFB0F5800F0AD037
:105DB000B0F5000F18BFB0F5400F04D040F26311EA
:105DC00048A0FCF765FC206B002818BFB0F5800FD9
:105DD0000AD0B0F5000F18BFB0F5400F04D04FF453
:105DE000B27140A0FCF754FC606B002818BFB0F102
:105DF000807F0AD0B0F1007F18BFB0F1407F04D09F
:105E000040F2651137A0FCF743FCA06B002818BFD7
:105E1000B0F1807F0AD0B0F1007F18BFB0F1407FB1
:105E200004D04FF4B3712FA0FCF732FCE06B0028D4
:105E300018BFB0F1806F0AD0B0F1006F18BFB0F199
:105E4000406F04D040F2671126A0FCF721FC206CC3
:105E5000002818BFB0F1806F0AD0B0F1006F18BFF2
:105E6000B0F1406F04D04FF4B4711EA0FCF710FCE9
:105E70002068C5F88000D4E901010843D4E9031281
:105E80001143084361690843A1690843E169084374
:105E9000216A0843D5F85411C0EA0100C5F854013D
:105EA000E16A606AE26B0843616B11430843D5F80D
:105EB000041200F07F6021F07F610843C5F80402FE
:105EC000216BA06A226C0843A16B11430843D5F8EB
:105ED000381200F07F6021F07F610843C5F8380276
:105EE000002070BD2E2E5C647269766572735C68EA
:105EF0006333325F6C6C5F6472697665725C737277
:105F0000635C686333325F6C6C5F687270776D2EB0
:105F100063000000FFFE3F0070B505460C006FF007
:105F2000020008BF70BDA5F18040B0F570301CBF05
:105F3000A5F18040B0F5713018D0A5F18040B0F5E2
:105F400072301CBFA5F18040B0F573300ED0A5F1C2
:105F50008040B0F574301CBFA5F18040B0F57530BD
:105F600004D040F2CD11A2A0FCF792FB2068B0F55E
:105F7000800F04D34FF4E7719DA0FCF789FB6068A4
:105F800000281CBF0128022804D040F2CF1198A09D
:105F9000FCF77EFBA06800281CBF0428082804D05A
:105FA0004FF4E87192A0FCF773FBE068002818BF7B
:105FB000102808D0202818BF302804D040F2D11172
:105FC0008BA0FCF765FB2069002818BF402808D08B
:105FD000802818BFC02804D04FF4E97184A0FCF7D2
:105FE00057FB6069002818BFB0F5807F0AD0B0F574
:105FF000007F18BFB0F5407F04D040F2D3117CA0E1
:10600000FCF746FBA069002818BFB0F5806F0AD0E6
:10601000B0F5006F18BFB0F5406F04D04FF4EA71CF
:1060200073A0FCF735FBE069002818BFB0F5805F6E
:106030000AD0B0F5005F18BFB0F5405F04D040F261
:10604000D5116BA0FCF724FB206A002818BFB0F51F
:10605000804F0AD0B0F5004F18BFB0F5404F04D0C4
:106060004FF4EB7162A0FCF713FB606A002818BFC5
:10607000B0F5801F0AD0B0F5001F18BFB0F5401F63
:1060800004D040F2D7115AA0FCF702FBA06A002806
:1060900018BFB0F5801F0AD0B0F5001F18BFB0F5CB
:1060A000401F04D04FF4EC7151A0FCF7F1FAE06A04
:1060B000002818BFB0F5800F0AD0B0F5000F18BF48
:1060C000B0F5400F04D040F2D91149A0FCF7E0FA36
:1060D000206B002818BFB0F5800F0AD0B0F5000F74
:1060E00018BFB0F5400F04D04FF4ED7140A0FCF79D
:1060F000CFFA606B002818BFB0F1807F0AD0B0F1F2
:10610000007F18BFB0F1407F04D040F2DB1138A00F
:10611000FCF7BEFAA06B002818BFB0F1807F0AD050
:10612000B0F1007F18BFB0F1407F04D04FF4EE71A2
:106130002FA0FCF7ADFAE06B002818BFB0F1806F1C
:106140000AD0B0F1006F18BFB0F1406F04D040F238
:10615000DD1127A0FCF79CFA206C002818BFB0F1D5
:10616000806F0AD0B0F1006F18BFB0F1406F04D05B
:106170004FF4EF711EA0FCF78BFA2068C5F884007D
:10618000D4E901010843D4E90312114308436169CA
:106190000843A1690843E1690843216A0843D5F827
:1061A0005811C0EA0100C5F85801E16A606AE26B63
:1061B0000843616B11430843D5F8081200F07F6073
:1061C00021F07F610843C5F80802216BA06A226CA8
:1061D0000843A16B11430843D5F83C1200F07F60DF
:1061E00021F07F610843C5F83C02002070BD00002B
:1061F0002E2E5C647269766572735C686333325FFD
:106200006C6C5F6472697665725C7372635C686300
:1062100033325F6C6C5F687270776D2E63000000C4
:106220006FF0020190B10A49016000214160816074
:10623000C160016141618161C1610162416281624C
:10624000C162016341638163C163016408467047B1
:10625000C0FF3F0070B504460D006FF0020008BF9C
:1062600070BD2F4EB4421CBFA4F18040B0F5713018
:1062700018D0A4F18040B0F572301CBFA4F180406A
:10628000B0F573300ED0A4F18040B0F574301CBF6F
:10629000A4F18040B0F5753004D040F27D3121A0EA
:1062A000FCF7F6F92868002818BF012808D0022852
:1062B00018BF032804D040F27E311AA0FCF7E8F999
:1062C000B44213D02879002818BF012804D04FF415
:1062D000607114A0FCF7DCF96879002818BF012868
:1062E00004D040F281310FA0FCF7D2F92978D4F81C
:1062F000480161F38B20C4F84801B4420DD02879DD
:106300006979400640EA8140D4F8001200F001703B
:1063100021F001710843C4F80002002070BD0000A4
:1063200000C003402E2E5C647269766572735C68EF
:106330006333325F6C6C5F6472697665725C737232
:10634000635C686333325F6C6C5F687270776D2E6C
:106350006300000070B50446A0F180400D46B0F522
:1063600070302FD0A4F18040B0F571301CBFA4F183
:106370008040B0F5723012D0A4F18040B0F5733097
:106380001FBFA4F18040B0F57430A4F18040B0F597
:10639000753004D041F25C210F48FCF779F915B152
:1063A00035F4700004D04FF493510B48FCF770F9AA
:1063B000D4F8440205F4700120F470000843C4F8D6
:1063C000440270BD15B135F4E000F1D041F25E2118
:1063D0000148FCF75DF9EBE7E43D000070B50446C9
:1063E0000D006FF0020008BF70BD2F4EB4421CBFFD
:1063F000A4F18040B0F5713018D0A4F18040B0F520
:1064000072301CBFA4F18040B0F573300ED0A4F1FF
:106410008040B0F574301CBFA4F18040B0F57530F9
:1064200004D040F29F3121A0FCF732F928680028FF
:1064300018BF012808D0022818BF032804D04FF441
:1064400068711AA0FCF724F9B44213D02879002807
:1064500018BF012804D040F2A23114A0FCF718F9AB
:106460006879002818BF012804D040F2A3310FA09A
:10647000FCF70EF92978D4F8480161F39340C4F889
:106480004801B4420DD028796979800640EAC140BC
:10649000D4F8001200F0816021F081610843C4F853
:1064A0000002002070BD000000C003402E2E5C647E
:1064B0007269766572735C686333325F6C6C5F64BB
:1064C00072697665725C7372635C686333325F6CA9
:1064D0006C5F687270776D2E6300000070B50446C3
:1064E0000D006FF0020008BF70BD2F4EB4421CBFFC
:1064F000A4F18040B0F5713018D0A4F18040B0F51F
:1065000072301CBFA4F18040B0F573300ED0A4F1FE
:106510008040B0F574301CBFA4F18040B0F57530F8
:1065200004D040F2C13121A0FCF7B2F8286800285D
:1065300018BF012808D0022818BF032804D040F251
:10654000C2311AA0FCF7A4F8B44213D0287900286D
:1065500018BF012804D04FF4717114A0FCF798F80B
:106560006879002818BF012804D040F2C5310FA077
:10657000FCF78EF82978D4F8480161F39750C4F8F5
:106580004801B4420DD028796979C00640EA01502B
:10659000D4F8001200F0016021F001610843C4F852
:1065A0000002002070BD000000C003402E2E5C647D
:1065B0007269766572735C686333325F6C6C5F64BA
:1065C00072697665725C7372635C686333325F6CA8
:1065D0006C5F687270776D2E630000006FF00201CF
:1065E00028B1002101608160024941600021084614
:1065F00070470000C0FF3F0070B58EB006A8FFF7DF
:1066000029F94FF400100025CDE906050220CDE957
:106610000A50CDE90C551926099606A8FEF7B2FFD7
:10662000224CD4F8BC0340F49810C4F8BC03D4F84E
:10663000BC0340F43020C4F8BC036846FFF7FEF802
:10664000042002900004CDE903050120009000041D
:106650000190694605952046FFF75CF869461448A5
:10666000FFF758F869461348FFF754F8694612488F
:10667000FFF750F869461148FFF74CF86946104893
:10668000FFF748F8C4F8C863C4F8CC630D20C4F819
:10669000D003C4F8D403D4F8BC0340F0010040F4A4
:1066A0004030C4F8BC030EB070BD000000C0034011
:1066B00000C4034000C8034000CC034000D00340A6
:1066C00000D403402DE9F04FA3B001214FF47C70BA
:1066D000FDF7E0FBFE4F3846FEF70CF9FD48FEF7EC
:1066E00009F9FD4E3046FEF705F9FC4D2846FEF748
:1066F00001F9FB48FEF7FEF8FA48FEF7FBF8FEF753
:10670000ABF8D7F8A00240F00800C7F8A002F148A3
:10671000D0F8A00240F00801EE48C0F8A012D6F868
:10672000A00240F00800C6F8A002D5F8A00240F090
:106730000800C5F8A002EA48D0F8A00240F008011D
:10674000E748C0F8A012E748D0F8A00240F00801DE
:10675000E448C0F8A0121FA8FFF740FF00244FF440
:10676000F040CDE91F401FA938462194FFF724F9D6
:106770001FA9D848FFF720F91FA93046FFF71CF9D9
:106780001FA92846FFF718F91FA9D548FFF714F9E4
:106790001FA9D448FFF710F96846FFF741FD2020F4
:1067A00003904020CDE90404019440010690029436
:1067B00080004FF4001A07908000CDE9080A4FF4DA
:1067C000000B4FF00078CDE90AABCDE90CB84FF0E3
:1067D0000069CDE90E8969463846CDF84090FFF74B
:1067E00015FA6946BF48FFF711FA02942020019478
:1067F000CDE90304C0000590C0000690800007901A
:106800008000CDE9080ACDE90AABCDE90CB8CDE9A5
:106810000E896946AF48CDF84090FFF7F7F9694611
:10682000AF48FFF7F3F9202003908020CDE904045E
:106830000194000106900294800007908000089067
:1068400040010990CDE90AABCDE90CB8CDE90E893C
:1068500069462846CDF84090FFF7D8F9694630469A
:10686000FFF75AFB6815CDE90440029401948000BB
:10687000CDE9060403940001CDE9080AC001CDE981
:106880000E89CDF84090CDE90AA0CDE90CB8694653
:106890002846FFF741FB69463046FFF7B7F94FF44A
:1068A000F040386478644010C7F88000C7F888006A
:1068B0004010C7F8C000C7F8C80086488A4901647C
:1068C000416484494FF47050C1F88000C1F88800D9
:1068D00085483064706440F28370C6F88000C6F862
:1068E000880044F28330C6F88400C6F88C004FF468
:1068F0007050C6F89000C6F898004000C6F89400A2
:10690000C6F89C00774878490164416475494FF4A2
:106910007050C1F88000C1F8880071487249016464
:1069200041646F494FF47050C1F88000C1F888008D
:106930006D482864686440F28370C5F88000C5F82B
:10694000880044F28330C5F88400C5F88C004FF409
:106950007050C5F89000C5F898004000C5F8940044
:10696000C5F89C001CA8FEF789F94FF00209102019
:10697000CDE91C9020203C461E901CA92046FEF725
:106980000DF940F28370C4F80001C4F80801C4F89E
:106990000401C4F80C01D4F84C0140F00100C4F823
:1069A0004C0102201C9010201D902020DFF8248133
:1069B0001E901CA94046FEF7F1F840F28370C8F81B
:1069C0000001C8F80801C8F80401C8F80C01D8F89B
:1069D0004C0140F00100C8F84C0102201C9010202E
:1069E0001D9020201E901CA93E48FEF7D7F83D4977
:1069F000AA4640F283703A4DC1F80001C1F808017F
:106A0000C1F80401C1F80C01D1F84C0140F00100BB
:106A1000C1F84C0102201C9010201D9020201E90D7
:106A20001CA92846FEF7BAF840F28370C5F80001A9
:106A3000C5F80801C5F80401C5F80C01D5F84C01EA
:106A400040F00100C5F84C0112A8FDF7FBFE01273C
:106A50008DF84C704FF0000B12978DF84DB012A9C5
:106A60002046FFF7F7FBD4F8480140F48070C4F8E3
:106A7000480112A92046FEF785FCD4F8480140F0F1
:106A80000100C4F8480112A92046FEF7FBFCD4F827
:106A9000480140F01000C4F8480112A92046FFF751
:106AA0009DFCD4F8480140F48030C4F8480112A994
:106AB0002046FFF713FDD4F8480140F48010C4F8D5
:106AC000480112A92046FDF7E9FFD4F84C010DE07A
:106AD00000C0034000C4034000C8034000CC034092
:106AE00000D0034000D40340C0FF3F0040F010003E
:106AF000C4F84C01D4F84C0140F02000C4F84C011B
:106B0000FE480760D4F8B413204641F00101C4F8F0
:106B1000B413B905FFF71EFC8DF84C70CDF848B0E2
:106B20008DF84DB012A94046FFF794FBD8F8480104
:106B300040F48070C8F8480112A94046FEF722FCD4
:106B4000D8F8480140F00100C8F8480112A94046B1
:106B5000FEF798FCD8F8480140F01000C8F848014A
:106B600012A94046FFF73AFCD8F8480140F48030BB
:106B7000C8F8480112A94046FFF7B0FCD8F8480110
:106B800040F48010C8F8480112A94046FDF786FF7E
:106B9000D8F84C0140F01000C8F84C01D8F84C016E
:106BA00040F02000C8F84C01D4F8B40340F00200D3
:106BB000C4F8B403B9054046FFF7CCFB8DF84C7020
:106BC000CDF848B08DF84DB012A93046FFF742FB22
:106BD000D6F8480140F48070C6F8480112A9304642
:106BE000FEF7D0FBD6F8480140F00100C6F8480196
:106BF00012A93046FEF746FCD6F8480140F01000D6
:106C0000C6F8480112A93046FFF7E8FBD6F848015C
:106C100040F48030C6F8480112A93046FFF75EFC08
:106C2000D6F8480140F48010C6F8480112A9304651
:106C3000FDF734FFD6F84C0140F01000C6F84C01C7
:106C4000D6F84C0140F02000C6F84C01D4F8B4034B
:106C500040F00400C4F8B403B9053046FFF77AFBEE
:106C60008DF84C70CDF848B08DF84DB012A9504653
:106C7000FFF7F0FADAF8480140F48070CAF84801EA
:106C800012A95046FEF77EFBDAF8480140F00100F9
:106C9000CAF8480112A95046FEF7F4FBDAF8480199
:106CA00040F01000CAF8480112A95046FFF796FBC1
:106CB000DAF8480140F48030CAF8480112A9504679
:106CC000FFF70CFCDAF8480140F48010CAF84801DC
:106CD00012A95046FDF7E2FEDAF84C0140F0100030
:106CE000CAF84C01DAF84C0140F02000CAF84C0117
:106CF000D4F8B40340F00800C4F8B403B905504612
:106D0000FFF728FB8DF84C70CDF848B08DF84DB0EA
:106D100012A92846FFF79EFAD5F8480140F4807082
:106D2000C5F8480112A92846FEF72CFBD5F8480102
:106D300040F00100C5F8480112A92846FEF7A2FB61
:106D4000D5F8480140F01000C5F8480112A92846BE
:106D5000FFF744FBD5F8480140F48030C5F84801FE
:106D600012A92846FFF7BAFBD5F8480140F4801075
:106D7000C5F8480112A92846FDF790FED5F84C0148
:106D800040F01000C5F84C01D5F84C0140F020004F
:106D9000C5F84C01D4F8B40340F01000C4F8B403B3
:106DA000B9052846FFF7D6FA554E8DF84C70CDF848
:106DB00048B08DF84DB012A93046FFF74BFAD6F81F
:106DC000480140F48070C6F8480112A93046FEF729
:106DD000D9FAD6F8480140F00100C6F8480112A9D6
:106DE0003046FEF74FFBD6F8480140F01000C6F8D9
:106DF000480112A93046FFF7F1FAD6F8480140F4ED
:106E00008030C6F8480112A93046FFF767FBD6F874
:106E1000480140F48010C6F8480112A93046FDF739
:106E20003DFED6F84C0140F01000C6F84C01D6F8F3
:106E30004C0140F02000C6F84C01D4F8B4032146C0
:106E400040F02000C1F8B403B9053046FFF782FADC
:106E500018A8FEF7D1FE2B494FF470500860091DA9
:106E600008600020CDE918B018A92846FEF74EFEAC
:106E700025485546D0F8A402234940F00100C1F846
:106E8000A40222494FF470500860091D08600020D8
:106E9000CDE918701A9018A91D48FEF737FE1C4856
:106EA000D0F8A4021A4940F00100C1F8A40219491F
:106EB0004FF4F0500860091D08600020CDE91890DB
:106EC00018A93046FEF722FED6F8A40240F00100D1
:106ED000C6F8A40210494FF4B4400860091D0860C8
:106EE000032018900020199018A94046FEF70EFEC6
:106EF0004046D0F8A40240F001000FE0A0547842D0
:106F000000D40340B4C2034000D00340BCC20340DD
:106F100000C80340C4C20340CCC203404146C1F88C
:106F2000A40284494FF4B4400860091D086004209D
:106F30001890002019901A9018A92846FEF7E6FD2F
:106F4000D5F8A40240F00100C5F8A402D4F8B403B7
:106F500040F48070C4F8B403D4F8B40340F4007073
:106F6000C4F8B403D4F8B40340F48060C4F8B403A4
:106F7000D4F8B40340F40060C4F8B403D4F8B40304
:106F800040F48050C4F8B403D4F8B40340F4005083
:106F9000C4F8B40339042046FEF778FDB90420464E
:106FA000FEF774FD39044046FEF770FDB904404613
:106FB000FEF76CFDDFF8809139044846FEF766FD68
:106FC000B9044846FEF762FD39042846FEF75EFD27
:106FD000B9042846FEF75AFDDFF860A1390450468F
:106FE000FEF754FDB9045046FEF750FD3904304613
:106FF000FEF74CFDB9043046FEF748FD00F0A2F85C
:10700000FFF7FAFA14A8FDF75BFFCDF850B04FF484
:10701000000B7805CDE915B014A92046FDF738FE20
:1070200014A92046FDF7C0FE14A95046FDF730FE16
:1070300014A95046FDF7B8FE14A94846FDF728FEEE
:1070400014A94846FDF7B0FE3806CDE9140BC01070
:10705000169014A94046FDF71BFE14A94046FDF703
:10706000A3FE14A92846FDF713FE14A92846FDF730
:107070009BFE14A93046FDF70BFE14A93046FDF720
:1070800093FED4F8540140F08050C4F85401D4F871
:10709000580140F08050C4F85801D8F8540140F02D
:1070A0008050C8F85401D8F8580140F08050C8F812
:1070B0005801D9F8540140F08050C9F85401D9F86A
:1070C000580140F08050C9F85801D5F8540140F0FB
:1070D0008050C5F85401D5F8580140F08050C5F8EB
:1070E0005801DAF8540140F08050CAF85401DAF837
:1070F000580140F08050CAF85801D6F8540140F0C9
:107100008050C6F85401D6F8580140F08050C6F8B7
:107110005801D4F8B40340F03F00C4F8B403084960
:1071200001200860081F07603F20C4F8F00323B067
:10713000BDE8F08FD4C2034000C8034000D0034034
:10714000FC76784230B585B06846FEF72BFC082007
:10715000029000040390002001904B4D4FF400601A
:10716000009069462C462846FEF782FBD4F8400280
:1071700020F00200C4F84002D4F8400220F40030AD
:10718000C4F84002D4F8400240F48070C4F84002D1
:107190003E4C69462046FEF76BFBD4F8400220F0D7
:1071A0000200C4F84002D4F8400220F40030C4F8D1
:1071B0004002D4F8400240F48070C4F84002344CDD
:1071C00069462046FEF754FBD4F8400220F0020046
:1071D000C4F84002D4F8400220F40030C4F8400261
:1071E000D4F8400240F48070C4F84002294C69464B
:1071F0002046FEF73DFBD4F8400220F00200C4F820
:107200004002D4F8400220F40030C4F84002D4F820
:10721000400240F48070C4F840021F4C694620468A
:10722000FEF726FBD4F8400220F00200C4F840022A
:10723000D4F8400220F40030C4F84002D4F84002F0
:1072400040F48070C4F84002144C69462046FEF7B2
:107250000FFBD4F8400220F00200C4F84002D4F83A
:10726000400220F40030C4F84002D4F8400240F458
:107270008070C4F84002D5F8AC0340F03F00C5F878
:10728000AC0305B030BD000000C0034000C40340A3
:1072900000C8034000CC034000D0034000D40340AA
:1072A000034810B500688047BFF34F8F10BD000042
:1072B0002CC2FF1F034810B540688047BFF34F8FB3
:1072C00010BD00002CC2FF1F034810B58068804726
:1072D000BFF34F8F10BD00002CC2FF1F034810B535
:1072E000C0688047BFF34F8F10BD00002CC2FF1F46
:1072F000034810B500698047BFF34F8F10BD0000F1
:107300002CC2FF1F034810B540698047BFF34F8F61
:1073100010BD00002CC2FF1F034810B580698047D4
:10732000BFF34F8F10BD00002CC2FF1F034810B5E4
:10733000C0698047BFF34F8F10BD00002CC2FF1FF4
:10734000034810B5006A8047BFF34F8F10BD00009F
:107350002CC2FF1F034810B5406A8047BFF34F8F10
:1073600010BD00002CC2FF1F034810B5806A804783
:10737000BFF34F8F10BD00002CC2FF1F034810B594
:10738000C06A8047BFF34F8F10BD00002CC2FF1FA3
:10739000034810B5006B8047BFF34F8F10BD00004E
:1073A0002CC2FF1F034810B5406B8047BFF34F8FBF
:1073B00010BD00002CC2FF1F034810B5806B804732
:1073C000BFF34F8F10BD00002CC2FF1F034810B544
:1073D000C06B8047BFF34F8F10BD00002CC2FF1F52
:1073E00030B42F4BDFF8BCC04FF47A74042A33D08A
:1073F000052A1CBF30BC704742F21072B1FBF2F29A
:1074000002F1300505706FF41C756A4301EB02113F
:10741000B1FBF4F202F1300444706FF07C0462437B
:1074200001EBC201A3FB0132520902F13003837068
:107430006FF018035A4301EB8201ACFB0132D20812
:1074400002F13003524202EB820201EB4201C370AF
:107450003031017130BC7047B1FBF4F202F13004FD
:1074600004706FF07C04624301EBC201A3FB0132A4
:10747000520902F1300343706FF018035A4301EBD5
:107480008201ACFB0132D20802F13003524202EB1E
:10749000820201EB420183703031C17030BC704711
:1074A0001F85EB51CDCCCCCC2DE9F003D148D2498E
:1074B0004FF00002058801F1380315F0010FA0F12B
:1074C000020000F07181D0F82CC0C469ACEB040C50
:1074D000C0F838C0BCF5A07FC8BF4FF4A07C04DC66
:1074E0001CF5A07F03DA00F077B9C0F838C08E69C8
:1074F000CE61D1F814C0C1F818C0876B4F610C6A17
:107500004C62D1F82880C1F82080D1F8009007FBA8
:1075100009F7D1F804900CFB097C8F687E43CF6893
:1075200008FB0766B4440E6904FB06CCCC6AA4448D
:107530004FEA2C2CC1F828C00C6B6445A4BF4C6BDF
:10754000A445C8BF64468C62D0F830C0046AACEB76
:10755000040CC0F83CC0BCF1CD0FC8BF4FF0CD0C3F
:1075600004DC1CF1CD0F03DA00F03AB9C0F83CC0DE
:107570009F69DF61D3F814C0C3F818C0C46B5C61A5
:10758000D3F82080C3F824809E6A1E62D3F800904E
:1075900004FB09F4D3F804900CFB094C9C687C4371
:1075A000DF6806FB0744A4441C6908FB04CCDC6AC2
:1075B000A4444FEAAC2CC3F828C01C6B6445A4BF9C
:1075C0005C6BA445C8BF64469C62896A23468C42B2
:1075D000B4BF8364816489494163D0F848C0012302
:1075E0006145C0F20081BCF5C84F69DA8188022983
:1075F00024BFC38082804FF4C84100BF15F0020F42
:10760000C16470D0018940F22E3441F00201018141
:10761000D0F810C0A445C8BF41F0010106DC40F21B
:10762000A624A445B8BF01F0FE0100DA0181D0F81C
:107630004CC04DF638618C45AEBF46F217317049EB
:1076400001EB6C0181654469416A0D1945628469E9
:10765000816A0C4484620188491C89B20180B1F5B9
:10766000007F48D3291B491202800164642903DA90
:1076700064310029C8BF026442628262D0E91041CD
:1076800001EB440446F2666542F612514464A54299
:10769000B8BF456405DB46F26665EC4275DB002C3D
:1076A00011DD446C04FB0CFC4FEA2C4CC0F850C0BC
:1076B000BCF1000FD2BF02658C45016542651AE03E
:1076C000C280816C9AE7644204FB0CFC4FEA2C4CAC
:1076D000C0F854C0BCF1000FD2BF42658C45416573
:1076E000026508E0FFE782650281028042628262F1
:1076F000426402654265C588DFF808C1424C4349CF
:1077000095B1BCF8003043F02003ACF8003023887A
:1077100043F480632380D1F8AC3343F03F03C1F8D6
:10772000AC33828102812BE0858915B1012D07D010
:1077300013E040F60915C1F8A453838182800CE060
:107740008288521C92B28280022A06D30222828050
:10775000828140F60F72C1F8A4230289032A15D052
:10776000BCF8002042F02002ACF80020228842F44D
:1077700080622280D1F8AC2342F00C02C1F8AC2325
:1077800001894181BDE8F00370472FE0204A13884A
:1077900043F0200313801F4A138843F4806313804F
:1077A000F022C1F8A423EBE702814281C2809A62F1
:1077B0001A625A625A619A61DA618A620A624A629C
:1077C0004A618A61CA6142640265426542628262BC
:1077D0008265BDE8F0037047DFF83CC085E600BF76
:1077E0006FF0CC0CC2E60549816469E70B4C446438
:1077F00069E70000B6C1FF1FACC2FF1F00770100A0
:10780000FCF6FFFF083805401838054000C003406B
:107810000A3805401A380540C0FEFFFF9A99FFFF5D
:1078200070B5012184B00802FCF768FB0121480211
:10783000FCF764FB6846FAF79FFA01240021102048
:10784000ADF80410ADF80040ADF808401C4DADF89F
:107850000200ADF80600ADF80A1069462846FAF7AE
:107860009BF9ADF800400820164EADF802006946BD
:107870003046FAF791F9ADF800400420124CADF80B
:10788000020069462046FAF787F901212046FAF7F7
:1078900001F901212046FAF731FA01213046FAF7C1
:1078A000F9F801213046FAF729FA01212846FAF7BA
:1078B000F1F801212846FAF721FA04B070BD000062
:1078C00000B00340008503400084034010F0010F26
:1078D00006D01C4940F223120A6043F210220A60CB
:1078E00010F0020F02D0194A1749116110F0040F6D
:1078F00003D0174A4AF20151118010F0200F03D033
:10790000144A49F2A5619164134910F0100F06D092
:10791000B1F8FE334AF208521A43A1F8FE2310F0E0
:10792000400F06D0B1F8FE334AF203521A43A1F8D1
:10793000FE2310F0800F08BF7047772007490860CA
:1079400070470000000401400100A5A5008004402C
:10795000FC3B054000000540004005400C08054088
:1079600070B5464C0025A08802280BD004280FD003
:10797000E5864FF400610220FCF7BCFD4FF4805116
:10798000002043E04FF400610220FCF74DFE3FE091
:10799000D4F88C0010F0010F18BF142101D02187FA
:1079A0000EE010F4807F18BF2821F8D110F4805F1A
:1079B00018BF3C21F3D110F4803F18BF5021EED105
:1079C00010F0020F18BFC82001D020870FE010F47C
:1079D000007F18BFDC20F8D110F4801F18BFF02002
:1079E000F3D110F4001F18BF4FF48270EDD1E08E78
:1079F000411CE186218F884205D3E5864FF48051F2
:107A00000020FCF711FE4FF400610220FCF792FC0D
:107A1000608F401C80B26087E189884202D365870D
:107A2000A089A087B4F91200E087B4F91410884245
:107A300020DB00BFB4F93E001928ACBF232840F278
:107A40002B150ADB2D28B8BF40F2572505DB32285D
:107A5000B4BF40F2833540F24B45B4F84000854254
:107A600008BF70BD2A460121054800F009FEA4F8B0
:107A7000405070BDA08AE087DCE7000018C0FF1FFF
:107A800000A8034030B55E4D04460422401C696CDA
:107A9000FFF7A6FC5B4804220168E01DFFF7A0FC8D
:107AA00059480422016804F10C00FFF799FC0422F4
:107AB00004F11100296DFFF793FC042204F1160074
:107AC000696DFFF78DFC3021E176D5F88C004FF021
:107AD000310210F0010F18BFE276217710F0020F8B
:107AE00018BF2277617710F0040F18BF6277A17773
:107AF00010F0200F18BFA277E17710F4807F18BF35
:107B0000E27784F8201010F4007F18BF84F820205A
:107B100084F8211010F4806F18BF84F8212084F8B5
:107B2000221010F4805F18BF84F8222084F82310FC
:107B300010F4005F18BF84F8232084F8241010F498
:107B4000804F18BF84F8242084F8251010F4803F5B
:107B500018BF84F8252084F8261010F4003F18BFC1
:107B600084F8262084F8271010F4802F18BF84F89A
:107B7000272084F8281010F4801F18BF84F82820CC
:107B800084F8291010F4001F18BF84F8292084F805
:107B90002A1028790422303084F82C001B48016810
:107BA00004F12E00FFF71CFC194D04222868011275
:107BB00004F13300FFF714FC052204F13800A96A30
:107BC000FFF70EFC13480522816A04F13E00FFF71F
:107BD00007FC11480522016804F14400FFF700FC8E
:107BE0000E480522016804F14A00FFF7F9FB0C4832
:107BF0000522016804F15000BDE83040FFF7F0BBFA
:107C000018C0FF1FD4C1FF1F14C2FF1FE0C1FF1F18
:107C1000ACC2FF1FE4C2FF1F04C2FF1F08C2FF1F48
:107C20000CC2FF1F834830B40146D0F85CC0B1F9E4
:107C3000201001231422BCF5F03F07DD491C09B2D6
:107C400001841429A8BF028415DB0EE00CF1CD0CD1
:107C5000BCF5F03F06DA491E09B201840129B8BF1C
:107C6000038408DB018C142905D1D0F88C1041F075
:107C70000201C0F88C106F49D0F860C0B1F9221031
:107C8000BCF52A3F07DD491C09B241841429A8BF6D
:107C9000428415DB0EE00CF1CD0CBCF52A3F06DA70
:107CA000491E09B241840129B8BF438408DB418CD5
:107CB000142905D1D0F88C1041F40071C0F88C1053
:107CC0005C49D0F864C0B1F924300021BCF55C2FC8
:107CD00009DD5B1CC1841BB201858384142BA8BF02
:107CE00082842EDA1FE06FF42A24534D6444AC42A0
:107CF00009D28184C184038D5B1C1BB20385142BC4
:107D0000C8BF02850FE0BCF52A2F0ADA81840185FD
:107D1000C38C5B1C1BB2C384142BA8BFC28402DAC1
:107D200009E0142B0DD0C28C142A04BFD0F88C208B
:107D300042F4001210D0B0F92820B2F5522F07D02B
:107D40000CE0D0F88C2042F48012C0F88C2005E0C2
:107D5000D0F88C2022F44012C0F88C20B0F900C07A
:107D600040F6590364229C450EDDC185B0F82AC057
:107D70000CF1010C0FFA8CFCA0F82AC0BCF1640FC6
:107D8000C8BF428511DD20E0BCF5EF6F0DDC4185F9
:107D9000B0F82EC00CF1010C0FFA8CFCA0F82EC02C
:107DA000BCF1640FC8BFC28504E0B0F82AC0BCF1C2
:107DB000640F0AD0B0F82EC0BCF1640F04BFD0F835
:107DC0008CC02CF4800C06D103E0D0F88CC04CF4AD
:107DD000800CC0F88CC0B0F902C09C4509DD01865A
:107DE000818D491C09B281856429C8BF82850CDD5B
:107DF0001BE0BCF5EF6F08DC8185018E491C09B2E0
:107E000001866429C8BF028602E0818D64290CD0F6
:107E1000018E642907BFD0F88C1021F4000130BC1A
:107E20007047C0F88C1030BC7047D0F88C1041F40B
:107E30000001F6E718C0FF1FFF7F02002DE9F00FD9
:107E40005449504C504AB1F800B0A6884F4BDFF867
:107E500040C14FF0010A2BF001004EB327464FF00E
:107E60000409B7F80880D7F88C507F89012E35D0E7
:107E7000022E5CD0042E1CBFBDE8F00F70471688A0
:107E800046F0200616801A8842F480621A80DCF8D8
:107E9000AC2342F03F02CCF8AC2320F00200088073
:107EA00035F07F4008BFA4F804A0BDE8F00F70478C
:107EB000158845F0200515801A8842F480621A80E2
:107EC000DCF8AC2342F03F02CCF8AC2320F00200F7
:107ED0000880A4F804A0BDE8F00F7047168846F0AB
:107EE000200616801A8842F480621A80DCF8AC23DF
:107EF00042F03F02CCF8AC2320F00200088035F0BD
:107F00007F421EBFA4F80490BDE8F00F7047B8F19F
:107F1000000F12BF002FBDE8F00F704740F00100C6
:107F200008804FF00200A080BDE8F00F704735F0E8
:107F30007F4515D0158845F0200515801A8842F434
:107F400080621A80DCF8AC2342F03F02CCF8AC230C
:107F500020F002000880A4F80490BDE8F00F7047FC
:107F6000B8F1000F18BF002FA2D00B480B4A0068D1
:107F700012689042A4BF4BF002000880BDE8F00FE9
:107F80007047000018C0FF1F08380540183805402A
:107F900000C00340B6C1FF1FE0C1FF1F18C2FF1F92
:107FA0001F4810B4006810F0010F1E4814BF1E498E
:107FB0001E4941601E4991F826204FF4004C02F002
:107FC00007031C4A062B24BF10BC7047DFE803F0F0
:107FD00003070A070A0E4168016010BC704702607F
:107FE00010BC7047C0F800C010BC7047D1F8003119
:107FF000C3F3082CD1F80031D1F800111B0F0E4C3F
:1080000001F01F01E469002C18BF4268491CB2FB53
:10801000F1F10CF1010251435A1CB1FBF2F1DBE723
:108020008406014000C0FF1F0024F400002D310130
:108030000040054000127A000020A842054800B523
:10804000016841F470010160FFF7AAFF02490020B6
:10805000086000BD88ED00E008ED00E02DE9F0418A
:1080600014000F4606464FF0000808BF6FF00208E4
:1080700000F07580A6F18040B0F510301CBFA6F16D
:108080008040B0F5113003D0F62136A0FAF700FB9E
:10809000002F18BF012F04D04FF0F70131A0FAF7DD
:1080A000F7FA2068002818BFB0F5007F0AD0B0F5B5
:1080B000807F18BFB0F5A06F04D04FF0F80129A061
:1080C000FAF7E6FA6368002B18BF102B15D0202BA7
:1080D00018BF302B11D0402B18BF502B0DD0602B68
:1080E00018BF702B09D0802B1CBF902BA02B04D065
:1080F0004FF0F9011BA0FAF7CBFAA06800281CBFCB
:10810000A0F50041B1F1020103D0FA2115A0FAF760
:10811000BFFA06EB8705002028603946304600F09C
:1081200089F8A089A8603946304600F083F83269A2
:10813000380148F2F27101FA00F39A43D4E9003CA5
:1081400043EA0C03D4F808C043EA0C03194001FACF
:1081500000F0104330613946304600F06BF840467D
:10816000BDE8F0812E2E5C647269766572735C687E
:108170006333325F6C6C5F6472697665725C7372D4
:10818000635C686333325F6C6C5F746D72302E6356
:108190000000000070B50446A0F180400D46B0F527
:1081A00010301CBFA4F18040B0F5113004D04FF462
:1081B00097710CA0FAF76CFA002D18BF012D04D0AE
:1081C00040F22F1107A0FAF763FA20692901012272
:1081D00002FA01F10843206129462046BDE87040BB
:1081E00000F028B82E2E5C647269766572735C6844
:1081F0006333325F6C6C5F6472697665725C737254
:10820000635C686333325F6C6C5F746D72302E63D5
:10821000000000000021002808BF6FF0020106D016
:1082200000220260426082604FF6FF72828108463F
:1082300070470000144A10B4126A144BC2F3026271
:108240001B6823FA02F2D20B02EB8202D202002355
:10825000002907BF4FF4807C61464FF0807C614667
:10826000046914EA0C0F01D10AE000BF521E05D0C8
:10827000D0F814C01CEA010FF7D001E06FF007033B
:1082800010BC1846704700000040054000C0FF1FAA
:108290000748018881F0010101800648D0F8641187
:1082A00021F40061C0F8641104210320FCF7BCB97B
:1082B00024C1FF1F00C003400B4810B5D0F8B8130D
:1082C00011F0020F09D0D0F8B81321F00201C0F864
:1082D000B81341150120FCF7A7F90448016821F003
:1082E0004001016010BD000000C0034064C50340B0
:1082F00010B50B4CD4F8B80310F0010F09D0D4F826
:10830000B80320F00100C4F8B80304210320FCF7EF
:108310008BF9D4F8640120F08000C4F8640110BD2A
:1083200000C003402DE9F05F4E4E4F4FDFF83C8117
:10833000DFF83C91DFF83CA10D4604466FF0020BDC
:10834000B04218BFBC4209D044451CBF4C455445FF
:1083500004D04FF48E7148A0FAF79AF9002D47D057
:108360002878002847D0012807D04FF48F7142A009
:10837000FAF78EF9287800283DD0A888002818BF81
:1083800010F4604F04D040F229113BA0FAF780F9B5
:10839000E888002818BF10F4604F04D040F22B1179
:1083A00035A0FAF775F9A888A4F88800E888A4F839
:1083B0008C00287B012818BF002804D04FF4997145
:1083C0002DA0FAF765F9287B84F88100AD68B442E6
:1083D00018BFBC4209D044451CBF4C45544504D08D
:1083E00040F255313048FAF753F965604FF0000B11
:1083F0005846BDE8F09FA878002818BF042804D08C
:1084000040F221111CA0FAF743F9E878002818BFC0
:10841000022804D04FF4917117A0FAF739F968785F
:10842000002818BF102815D0202818BF302811D0D8
:10843000402818BF50280DD0602818BF702809D0D8
:1084400080281CBF9028A02804D040F223110AA045
:10845000FAF71EF9A878E97808436978084384F8A0
:108460008000A6E700A0034000A4034000A803404A
:1084700000AC0340006002402E2E5C647269766599
:1084800072735C686333325F6C6C5F6472697665CB
:10849000725C7372635C686333325F6C6C5F746DC3
:1084A00072612E6300000000448700002DE9F04156
:1084B0000546A0F1804014460F466FF00206B0F565
:1084C00068301CBFA5F18040B0F569300DD0A5F132
:1084D0008040B0F56A301FBFA5F18040B0F56B3029
:1084E000A5F18040B0F5183001D1032F04D940F236
:1084F000E51128A0FAF7CCF8002C48D0A088002875
:108500001CBF0128022804D04FF4F47121A0FAF70F
:10851000BFF8E08800281CBF0128022804D040F2E0
:10852000E9111CA0FAF7B4F82089002818BF012827
:1085300008D0022818BF032804D04FF4F57115A005
:10854000FAF7A6F86089002818BF012808D0022889
:1085500018BF032804D040F2EB110EA0FAF798F8E8
:1085600005EB8700226802642179A279A37A41EAA7
:108570008201227A120142EA83121143B0F84021AB
:10858000C9B202F47F421143A0F8401100263046E0
:10859000BDE8F0812E2E5C647269766572735C684A
:1085A0006333325F6C6C5F6472697665725C7372A0
:1085B000635C686333325F6C6C5F746D72612E63F1
:1085C0000000000070B50446A0F1804015460E463C
:1085D000B0F568301CBFA4F18040B0F569300DD013
:1085E000A4F18040B0F56A301FBFA4F18040B0F51F
:1085F0006B30A4F18040B0F5183001D1032E04D9BE
:1086000040F223210AA0FAF743F8002D18BF012DEC
:1086100004D04FF4097106A0FAF73AF804EB86008B
:1086200000F5A070400100F18440056370BD0000BA
:108630002E2E5C647269766572735C686333325F98
:108640006C6C5F6472697665725C7372635C68639C
:1086500033325F6C6C5F746D72612E6300000000DA
:108660006FF0020148B18910016001218180002171
:10867000C18003210181418100210846704700002B
:1086800070B50446A0F1804016460D46B0F568303E
:108690001CBFA4F18040B0F569300DD0A4F180403A
:1086A000B0F56A301FBFA4F18040B0F56B30A4F183
:1086B0008040B0F5183001D1032D04D940F2993132
:1086C00003A0F9F7E5FF04EB8500066470BD000028
:1086D0002E2E5C647269766572735C686333325FF8
:1086E0006C6C5F6472697665725C7372635C6863FC
:1086F00033325F6C6C5F746D72612E63000000003A
:1087000070B50446A0F180400D46B0F568301CBF3E
:10871000A4F18040B0F5693012D0A4F18040B0F5EA
:108720006A301FBFA4F18040B0F56B30A4F18040E7
:10873000B0F5183004D040F2553102A0F9F7A8FF87
:10874000656070BD2E2E5C647269766572735C68BC
:108750006333325F6C6C5F6472697665725C7372EE
:10876000635C686333325F6C6C5F746D72612E633F
:108770000000000010B50446A0F18040B0F568305C
:108780001CBFA4F18040B0F5693012D0A4F1804044
:10879000B0F56A301FBFA4F18040B0F56B30A4F192
:1087A0008040B0F5183004D040F29C4104A0F9F7A5
:1087B0006FFF94F8800040F0010084F8800010BD45
:1087C0002E2E5C647269766572735C686333325F07
:1087D0006C6C5F6472697665725C7372635C68630B
:1087E00033325F6C6C5F746D72612E630000000049
:1087F0006FF0020150B100210170417081700222BE
:10880000C2708180C1804A1E826001730846704731
:108810000022A0236B283CBF6FF009007047B0F521
:10882000326F2ABF9620DFF830C0704710B4991A13
:1088300002EB610109B23CF8114084423CBF4A1C82
:1088400012B284BF4B1E1BB201D09A42EFDDA1F1E0
:108850000A0010BC00B27047A09B000030B5012197
:1088600089B08805FBF716FB04A8FFF7C1FF0024B9
:108870008DF8124002208DF8130040F2AF401B4DDE
:10888000069004A92846FFF74DFD6846FFF7E8FE6D
:1088900040F257200090ADF808400120ADF80640A6
:1088A000ADF80A00ADF804406A4600212846FFF7FB
:1088B000FDFD012200212846FFF784FE40F2F3105F
:1088C0000090112202210020FBF7B2FD6A4601212F
:1088D0002846FFF7EBFD012211462846FFF772FEFE
:1088E0002846FFF747FF09B030BD000000A803404D
:1088F00000B501218BB04805FBF700FB684600F08E
:108900008DFC032001904FF4006002904FF4E130A1
:1089100003904FF40040079000226946024800F09F
:10892000AFFB0BB000BD000000D001402DE9F047C7
:10893000DFF8BC80DFF8BCA0DFF8BC902F4F1646F4
:108940000D460446404518BF544508D04C4518BF55
:10895000BC4204D040F2AC4129A0F9F799FE002EA8
:1089600018BF012E04D040F2AD4125A0F9F790FECA
:1089700015B12F48054204D040F2AE4120A0F9F7CE
:1089800087FE54451BD04C450BD0BC4217D029481C
:10899000054204D040F2AF4119A0F9F779FE4445F1
:1089A0000DD04C4518BFBC4209D0444502D015F04B
:1089B000030F04D04FF4966111A0F9F769FE280463
:1089C000000C06D0E168012E0CBF084321EA00002C
:1089D000E060194810EA154008BFBDE8F087012E95
:1089E00021690CBF084321EA00002061BDE8F0873F
:1089F00000CC014000D0014000D4014000D801402B
:108A00002E2E5C647269766572735C686333325FC4
:108A10006C6C5F6472697665725C7372635C6863C8
:108A200033325F6C6C5F75736172742E630000008B
:108A300010FEC1BE00001E411E41FFFF70B504467E
:108A4000A0F180400D46B0F5E6301CBFA4F1804097
:108A5000B0F5E8300ED0A4F18040B0F5EA301CBF8C
:108A6000A4F18040B0F5EC3004D040F2EE4108A013
:108A7000F9F70EFE15B11248054204D040F2EF415D
:108A800003A0F9F705FE2068284018BF012070BD3B
:108A90002E2E5C647269766572735C686333325F34
:108AA0006C6C5F6472697665725C7372635C686338
:108AB00033325F6C6C5F75736172742E63000000FB
:108AC00004F0FEFF2DE9F74F5FEA01082DED048B5E
:108AD00086B0074604D140F2C261F8A0F9F7D8FD8C
:108AE000DFF808A4DFF808B4574518BF5F450ED07B
:108AF000A7F18040B0F5EA301CBFA7F18040B0F587
:108B0000EC3004D040F2C361ECA0F9F7C1FDF86885
:108B100010F00C0F04D040F2C461E8A0F9F7B8FDE2
:108B2000574518BF5F450ED0A7F18040B0F5EA3039
:108B30001CBFA7F18040B0F5EC3004D040F29B217F
:108B4000EC48F9F7A5FDEC48006AEC49C0F30210C7
:108B5000096821FA00F0B96911F0100F4FF0010116
:108B600006D0B969802201F0030102FA01F103E0A5
:108B7000BA699207520F9140B0FBF1F59FEDE08A80
:108B8000F8684FF0FF0910F0807FF7EE008A71D08F
:108B90004FF0FF34574518BF5F450FD0A7F1804015
:108BA000B0F5EA301EBF3846A7F18041B1F5EC318F
:108BB00004D040F2F511CF48F9F76AFD002D18BF37
:108BC000B8F1000F00F04D824FEA880AB5FBFAF0C9
:108BD000A0F10106FF2E00F24482B5FBFAF00AFB79
:108BE0001050002800F0F9810020711C40F10002B3
:108BF000920042EA91738900A1FB082C03FB08C391
:108C000001FB0031090241EA12614FEA022B4208DE
:108C10004FEA350000911BEB000051412A4600232A
:108C2000F7F750FB80387F2800F2DA8110F18003DB
:108C3000A3FB058C002444F1000101FB05C1009A4F
:108C400003FB0415814611465846F7F79AFB41ECA1
:108C5000190B40462946F7F794FB53EC192BF7F70D
:108C6000FFFBF7F79AFB00EE100A30EE688A00F07F
:108C7000E5B9FFE7786910F0200F7DD0A14B0DF129
:108C8000080B4FF0FF340FCB8BE80F00574504D093
:108C900040F245219748F9F7FBFC002D18BFB8F1C9
:108CA000000F00F0DE81786910F4600A18BFBAF591
:108CB000001F0CD0BAF5C00F1CBFBAF5200FBAF5D3
:108CC000400F04D040F24B218A48F9F7E1FC4FEA0B
:108CD0005A5002A931F810A008FB0AF04FEA400BE5
:108CE000B5FBFBF0401EFF2800F24081B5FBFBF115
:108CF0000BFB11510646002908BF002400F06B81D0
:108D000000211AEB0A03494116F1010CA3FB0C2EBA
:108D1000002001FB0CE140F1000003FB0013A2FB6B
:108D2000081C03FB08C3002002FB0030000240EADD
:108D30001162090200204308CDE900124FEA350014
:108D4000081842EB03012A460023F7F7BBFA8038E4
:108D50007F2800F20B81002410F1800C8146ACFBCF
:108D60000508DDE900210B4644F1000101FB058106
:108D70000CFB0415804600E015E019461046F7F795
:108D800000FB41EC190B40462946F7F7FAFA53EC81
:108D9000192BF7F765FBF7F700FB00EE100A30EE32
:108DA000688A00F04BB94FF0FF34574518BF5F4554
:108DB0000ED0A7F18040B0F5EA301CBFA7F180408B
:108DC000B0F5EC3004D04FF4CE714A48F9F760FCAE
:108DD000002D18BFB8F1000F00F04381F868C0F310
:108DE000C031C1F1020000FB08F04FEAC000029060
:108DF000B5FBF0F0A0F10106FF2E00F232810298DF
:108E0000B5FBF0F200FB1250002856D00020D1F143
:108E1000020160EB0002D20042EA5172CB00711CE9
:108E2000A3FB01CBCDE9003202FB01B140F1000A06
:108E300003FB0A12ACFB081302FB08320CFB0022F6
:108E4000120242EA116B4FEA012A41084FEA35004B
:108E500010EB0A0041EB0B010023D0F1FF3273EB62
:108E6000010228BFB0FBF5F003D22A460023F7F732
:108E700029FA80387F2847D810F18001A1FB0583AB
:108E8000002444F1000202FB053201FB0425814667
:108E900059465046F7F775FA41EC190B40462946FA
:108EA000F7F76FFA53EC192BF7F7DAFAF7F775FAC9
:108EB00000EE100A30EE688AC0E08EE02E2E5C6470
:108EC0007269766572735C686333325F6C6C5F6481
:108ED00072697665725C7372635C686333325F6C6F
:108EE0006C5F75736172742E6300000000CC0140EA
:108EF00000D00140908A00000040054000C0FF1FE4
:108F000000000000809B000005EB850041000298F6
:108F1000B1FBF0F0411D5948A0FB0110C008461EEE
:108F2000FF2E7DD8DDE90010731CA1FB032A00246D
:108F300000FB03A044F1000C01FB0C01A2FB0803A1
:108F400001FB083102FB0411F7F71BFA41EC190B86
:108F50002846F7F709FA53EC192BF7F781FAF7F7D8
:108F60001CFA00EE100A30EE688A67E005EB850017
:108F70004000B0FBFBF0411D4048A0FB0110C008C1
:108F8000401EFF2827D800241AEB0A0144EB0402F4
:108F900010F1010CA1FB0C3A064602FB0CA244F1B5
:108FA000000001FB0021A3FB080201FB082103FBD9
:108FB0000411F7F7E6F941EC190B2846F7F7D4F955
:108FC00053EC192BF7F74CFAF7F7E7F900EE100A14
:108FD00030EE688A32E01CBB30E000242EE000BF97
:108FE00005EB85004000B0FBFAF0411D2348A0FBD3
:108FF0000110C008461EFF2E33D80024701C44F117
:109000000001890041EA90718200A2FB080301FB84
:10901000083102FB0411F7F7B4F941EC190B00E039
:109020001FE02846F7F7A0F953EC192BF7F718FAC9
:10903000F7F7B3F900EE100A30EE688A49EA062025
:109040004FF67F710840B96821F07F0121F47F411C
:109050000843B860B9F1FF0F03D0F86840F0005042
:10906000F8600C98002818BF80ED008A204606B0F2
:10907000BDEC048B03B0BDE8F08F0000CDCCCCCCB0
:1090800070B5054616460C006FF0020008BF70BDB3
:10909000A5F18040B0F5E6301CBFA5F18040B0F5E9
:1090A000E8300ED0A5F18040B0F5EA301CBFA5F144
:1090B0008040B0F5EC3004D040F299314BA0F9F784
:1090C000E7FA2068B0F5805F18BF002804D040F2AE
:1090D0009A3146A0F9F7DCFAA068B0F5006F18BF26
:1090E000002804D040F29B3140A0F9F7D1FAA069E2
:1090F000B0F5C06F1CBFB0F5806F002804D04FF4EE
:1091000067713AA0F9F7C4FA2069002818BFB0F5D2
:10911000805F04D040F29D3134A0F9F7B9FA60695C
:10912000002818BFB0F5005F04D040F29E312FA098
:10913000F9F7AEFAE069B0F5004F18BF002804D087
:1091400040F29F3129A0F9F7A3FA206AB0F1805FBD
:1091500018BF002804D04FF4687124A0F9F798FADA
:10916000606A002818BFB0F1004F04D040F2A1316E
:109170001EA0F9F78DFAA06A002818BFB0F5007F8D
:109180000AD0B0F5807F18BFB0F5407F04D040F220
:10919000A23116A0F9F77CFA2169A0690843D4E945
:1091A000072111430843616AA26801432068104304
:1091B000626942F4C0621043A26AE96028616A6190
:1091C000206800281CBF002070BD6068132804D9E7
:1091D0004FF46C7105A0F9F75BFA6068A86132463C
:1091E0002846E168BDE87040FFF76CBC2E2E5C6439
:1091F0007269766572735C686333325F6C6C5F644E
:1092000072697665725C7372635C686333325F6C3B
:109210006C5F75736172742E630000006FF0020161
:1092200080B1002101604FF416524160C0E9021282
:10923000016141618161C161016211064162C90D33
:10924000816200210846704710B50C4C0A4A012182
:109250002046F9F7E5FC802201212046F9F710FDB0
:10926000012211462046F9F79DFA0122BDE810407F
:1092700008210348FFF75ABB30C1FF1F00300540EB
:1092800000D0014000B585B002200090A0200190E0
:109290004FF4706002904FF480300390C00304904C
:1092A000684600F00DF805B000BD0000034840F22C
:1092B0002311816043F210218160704700900440C7
:1092C00070B504004FF0000508BF6FF0020500F014
:1092D0007D802068002818BF012808D0022818BF08
:1092E000032804D04FF09D0139A0F9F7D1F9606847
:1092F000202818BF602810D0702818BF80280CD0F4
:10930000902818BFA02808D0B02818BFD02804D0B3
:109310004FF09E012EA0F9F7BBF9A168B1F5706F6F
:1093200018BFB1F5807F2AD0B1F5007F18BFB1F525
:10933000407F24D0B1F5806F18BFB1F5A06F1ED06B
:10934000B1F5C06F18BFB1F5E06F18D0B1F5006F7F
:1093500018BFB1F5106F12D0B1F5206F18BFB1F57D
:10936000306F0CD0B1F5406F1CBFB1F5506FB1F547
:10937000606F04D04FF09F0115A0F9F789F9E068FC
:10938000002818BFB0F5803F04D04FF0A00110A016
:10939000F9F77EF92069002818BFB0F1004F04D01A
:1093A0004FF0A1010AA0F9F773F9D4E900010843CD
:1093B000D4E9021211430843216908430F490140CF
:1093C0000F4802680F4B1A4011430160284670BDD8
:1093D0002E2E5C647269766572735C686333325FEB
:1093E0006C6C5F6472697665725C7372635C6863EF
:1093F00033325F6C6C5F7764742E6300F30F01800F
:10940000009004400CF0FE7F0FB4054B10B503A98B
:10941000044A029800F018F810BC5DF814FB000034
:109420000196000028C2FF1F02E008C8121F08C1F1
:10943000002AFAD170477047002001E001C1121FD5
:10944000002AFBD1704700002DE9FF4F8BB09A46F0
:109450000F460546002606E025280BD052460D99FA
:1094600090476D1C761C28780028F5D10FB0304647
:10947000BDE8F08F0024A0460122604900E00443CB
:1094800015F8013F203B02FA03F00842F7D1287893
:109490002E2817D115F8010F44F004042A280ED005
:1094A0006FF02F022878A0F1300109290AD808EBC3
:1094B000880102EB410100EB01086D1CF2E757F84F
:1094C000048B6D1C287869283ED006DC0028CDD09E
:1094D00063280BD0642804D136E0732810D0752897
:1094E0004BD052460D999047761C85E017F8040B37
:1094F0008DF8000000208DF80100E946012003E00E
:1095000057F8049B4FF0FF3061074FF0000401D47F
:109510000AE0641C44450DDA8442FADB19F80410B1
:109520000029F6D106E0641C8442FCDB19F8041023
:109530000029F8D1264404E019F8010B52460D9990
:109540009047641EF8D257E001CF4FF00A0B002875
:1095500002DA40422D2102E0210504D52B218DF8AD
:109560002410012103E0E10705D02021F7E70DF1E8
:10957000200908910CE00021F9E701CF4FF00A0B18
:10958000F9E75946F6F725FF01F1300209F8012DF8
:109590000028F6D1ADEB090000F1200B600701D4E3
:1095A0004FF00108D84502DDA8EB0B0000E00020D9
:1095B0008046002406E009A85246005D0D999047B8
:1095C000641C761C08988442F5DB04E03020524687
:1095D0000D999047761CB8F10001A8F10108F5DC5F
:1095E00005E019F8010B52460D999047761CBBF126
:1095F0000001ABF1010BF4DC6D1C34E7092801001C
:1096000010B50446C0B2F9F763F800280CBF204635
:109610004FF0FF3010BD0000C720FEF757F9F7F7F5
:10962000E5FDF8F7B5FBFBF737F8F7F747FCF8F778
:10963000C7FFFEF7F5F8FDF745F8FAF707FAFFF769
:109640000DF9FFF755F9F9F745F9F8F741FCF8F787
:109650008FFCFFF717FEFFF729FEDFF8F8B3DFF8FE
:10966000F883DFF8F8A3DFF8F893FE4D0026FE4CF0
:10967000D4F89800C4F89C00D4F8A0101E31884299
:1096800068D3C4F8A0009BF8001011F0010F17D0A8
:10969000F649D8F800200968914206DD121DC8F885
:1096A00000208A4207DD00F05EBA121FC8F80020D1
:1096B0008A42C0F25882EE490968CAF8001004E0F4
:1096C000616CC8F80010CAF80060EA490A68EA4903
:1096D000096842EA010313F4807F05D0D4F88CC0F6
:1096E0004CF0010CC4F88CC013F4007F05D0D4F802
:1096F0008CC04CF4807CC4F88CC012F4006F05D090
:10970000D4F88CC04CF4805CC4F88CC011F4806F29
:1097100005D0D4F88CC04CF4803CC4F88CC012F056
:10972000807F05D0D4F88C2042F48042C4F88C208D
:1097300011F0007F05D0D4F88C1041F48021C4F8DA
:109740008C1013F0806F05D0D4F88C1041F4806138
:10975000C4F88C10D4F8A4106931884241D3C4F8FD
:10976000A400C648C84F0168A06E4843E065C448DD
:109770000168E06E48432066C248216F0068484394
:10978000606602213846F9F727F940B102213846D0
:10979000F9F744F800220821BC48FFF7C7F8B9F8E8
:1097A0000000C0B3012854D002286FD06686A68678
:1097B000A9F80060608B2188084401B26183A28B04
:1097C0006088104400B2A083E28B521C92B2E28304
:1097D000102A06D90911E683E182001120836683ED
:1097E000A683D4F8A80000F5FF71D4F89C00884245
:1097F000FFF43DAFA44FC4F8A80001213846F9F7A3
:10980000EBF8002800F06E81E878312858D0322833
:109810005ED000F058B9FFE79D48018841F48041CF
:1098200001802681606EB0F5703FD8BF6686C1DDCD
:10983000608E401C80B260866428BBD395486686E3
:10984000A686018841F4804101800120A9F800002A
:10985000B0E79048018841F4804101802681606E24
:10986000B0F5483F06DA608E401C80B2608614284E
:10987000A0D31CE06686A08E401C80B2A086322851
:1098800084BFA686022095D9E0E7FFE781480188DA
:1098900041F48041018001202081606EB0F5483F95
:1098A00088DA608E401C80B26086142882D37848A3
:1098B0006686A9F80060018841F48041018079E75B
:1098C000287A312812BF66810120608100F0FBB840
:1098D000287A312802D032287DD0EDE0A87BE97BC0
:1098E000303800EB800040003038084400EB800046
:1098F0004000297C3038084400EB80004000697C3F
:10990000303808446067687DA97D303800EB8000FE
:1099100040003038084400EB80004000E97D3038DA
:10992000084400EB80004000297E3038084400EBFA
:1099300080004000697E3038084400EB8000400021
:10994000A97E30380844C4F80801A067297D2D2974
:1099500004BF4042A06795F8200095F821103038E8
:1099600000EB800040003038084400EB80004000ED
:1099700095F822103038084400EB8000400095F83C
:10998000231030380844E06795F8270095F8281030
:10999000303800EB800040003038084400EB800095
:1099A000400095F829103038084400EB8000400052
:1099B00095F82A103038084400EB8000400095F8F4
:1099C0002B103038084400EB8000400095F82C1034
:1099D0003038084400E00BE0C4F80801C4F8800007
:1099E00095F826102D2904BF4042C4F8800063E09A
:1099F000A87BE97B303800EB800040003038084419
:109A000000EB80004000297C3038084400EB8000E7
:109A10004000697C30380844C4F88400687DA97D22
:109A2000303800EB800040003038084400EB800004
:109A30004000E97D3038084400EB80004000297E7A
:109A40003038084400EB80004000697E303808441C
:109A500022E00000B6C1FF1FE0C1FF1FE4C1FF1FED
:109A600024C2FF1F6CC2FF1F18C0FF1F18C2FF1FB8
:109A70001CC2FF1F0C8603402C860340D0C1FF1F71
:109A8000D4C1FF1F14C2FF1F0030054000D00140A9
:109A90002A3805402838054000EB80004000A97EA8
:109AA00030380844C4F80801C4F88800297D2D29FD
:109AB00004BF4042C4F88800E879312803D1208AE5
:109AC00040F00100208201213846F8F7A7FE2D2240
:109AD00000213846F9F7D4F8012200213846F8F77A
:109AE00061FE00BF214940F6F220086020490A6863
:109AF0008242A8BF40F6F2220A60FEF793F8FEF712
:109B00009DF9FDF72DFFFFF7D1FBE088401C80B2E7
:109B1000E080322818D0642821D0C828FFF4A7ADEF
:109B2000E680D4F8AC00401CC4F8AC00208A10F0E9
:109B3000010F06D020F001002082FFF7B7FBF8F7F5
:109B400085F9FFF781FB92E5E08A80B2FEF760FEBF
:109B50006082208B80B2FEF75BFEA08287E505481D
:109B6000FDF790FF83E5C8F80010A4E520C2FF1FB1
:109B70001CC2FF1F30C1FF1F00100440001404402E
:109B8000200040005D008000BA0000017401000266
:109B900000CC014000D0014000D4014000D8014079
:109BA0006B00710077007D0084008B0092009A00AA
:109BB000A100AA00B200BB00C400CD00D700E200A3
:109BC000EC00F70002010E011A01270134014101E6
:109BD0004F015D016C017B018B019B01AB01BC015D
:109BE000CE01E001F201050218022B0240025402EC
:109BF00069027E029402AA02C102D802EF020703A0
:109C00001F0337035003690382039C03B603D00389
:109C1000EA03050420043B04560471048D04A804DF
:109C2000C404E004FC04170533054F056B058705E4
:109C3000A205BE05D905F50510062B0646066106E8
:109C40007C069606B006CA06E406FE06170730072D
:109C50004907610779079107A807C007D607ED07ED
:109C6000030819082F08440859086D088108950849
:109C7000A808BC08CE08E108F30805091609270959
:109C80003809480958096809770986099509A40916
:109C9000B209C009CD09DA09E709F409000A0C0A7A
:109CA000180A240A2F0A3A0A450A500A5A0A640A6C
:109CB0006E0A770A810A8A0A930A9C0AA40AAD0AE4
:109CC000B50ABD0AC40ACC0AD30ADB0AE20AE90AC9
:109CD000EF0AF60AFC0A030B090B0E0B140B1A0B06
:109CE0001F0B0000049D000008C0FF1F240200009D
:109CF000AC060000609D00002CC2FF1FF40C0000A9
:109D000038940000011A12011205320A1A190201D0
:109D1000223264292E0128321F322F42F47208E9C0
:109D200008314B03090401180B1C830704115A3C2A
:109D300004321E5A5A041910691C3383430A1078DE
:109D400010011004B1233030331006031977015A83
:109D5000020429F88123C90B4BF20A048100000098
:04000005000002896C
:00000001FF
