Component: ARM Compiler 5.06 update 7 (build 960) Tool: armlink [4d3601]

==============================================================================

Section Cross References

    startup_hc32f334.o(RESET) refers to startup_hc32f334.o(STACK) for __initial_sp
    startup_hc32f334.o(RESET) refers to startup_hc32f334.o(.text) for Reset_Handler
    startup_hc32f334.o(RESET) refers to hc32_ll_interrupts.o(i.IRQ000_Handler) for IRQ000_Handler
    startup_hc32f334.o(RESET) refers to hc32_ll_interrupts.o(i.IRQ001_Handler) for IRQ001_Handler
    startup_hc32f334.o(RESET) refers to hc32_ll_interrupts.o(i.IRQ002_Handler) for IRQ002_Handler
    startup_hc32f334.o(RESET) refers to hc32_ll_interrupts.o(i.IRQ003_Handler) for IRQ003_Handler
    startup_hc32f334.o(RESET) refers to hc32_ll_interrupts.o(i.IRQ004_Handler) for IRQ004_Handler
    startup_hc32f334.o(RESET) refers to hc32_ll_interrupts.o(i.IRQ005_Handler) for IRQ005_Handler
    startup_hc32f334.o(RESET) refers to hc32_ll_interrupts.o(i.IRQ006_Handler) for IRQ006_Handler
    startup_hc32f334.o(RESET) refers to hc32_ll_interrupts.o(i.IRQ007_Handler) for IRQ007_Handler
    startup_hc32f334.o(RESET) refers to hc32_ll_interrupts.o(i.IRQ008_Handler) for IRQ008_Handler
    startup_hc32f334.o(RESET) refers to hc32_ll_interrupts.o(i.IRQ009_Handler) for IRQ009_Handler
    startup_hc32f334.o(RESET) refers to hc32_ll_interrupts.o(i.IRQ010_Handler) for IRQ010_Handler
    startup_hc32f334.o(RESET) refers to hc32_ll_interrupts.o(i.IRQ011_Handler) for IRQ011_Handler
    startup_hc32f334.o(RESET) refers to hc32_ll_interrupts.o(i.IRQ012_Handler) for IRQ012_Handler
    startup_hc32f334.o(RESET) refers to hc32_ll_interrupts.o(i.IRQ013_Handler) for IRQ013_Handler
    startup_hc32f334.o(RESET) refers to hc32_ll_interrupts.o(i.IRQ014_Handler) for IRQ014_Handler
    startup_hc32f334.o(RESET) refers to hc32_ll_interrupts.o(i.IRQ015_Handler) for IRQ015_Handler
==============================================================================

Removing Unused input sections from the image.

    Removing startup_hc32f334.o(HEAP), (1024 bytes).
    Removing system_hc32f334.o(.rev16_text), (4 bytes).
    Removing system_hc32f334.o(.revsh_text), (4 bytes).
    Removing system_hc32f334.o(.rrx_text), (6 bytes).
    Removing hc32_ll_icg.o(.rev16_text), (4 bytes).
    Removing hc32_ll_icg.o(.revsh_text), (4 bytes).
    Removing hc32_ll_icg.o(.rrx_text), (6 bytes).
    Removing hc32_ll.o(.rev16_text), (4 bytes).
    Removing hc32_ll.o(.revsh_text), (4 bytes).
    Removing hc32_ll.o(.rrx_text), (6 bytes).
    Removing hc32_ll.o(i.LL_PERIPH_WP), (152 bytes).
    Removing hc32_ll.o(i.LL_TMR_SWSyncStart), (20 bytes).
    Removing hc32_ll_adc.o(.rev16_text), (4 bytes).
    Removing hc32_ll_adc.o(.revsh_text), (4 bytes).
    Removing hc32_ll_adc.o(.rrx_text), (6 bytes).
    Removing hc32_ll_adc.o(i.ADC_AWD_ClearStatus), (112 bytes).
    Removing hc32_ll_adc.o(i.ADC_AWD_Cmd), (140 bytes).
    Removing hc32_ll_adc.o(i.ADC_AWD_Config), (220 bytes).
==============================================================================

Image Symbol Table

    Local Symbols

    Symbol Name                              Value     Ov Type        Size  Object(Section)

    RESET                                    0x00000000   Section      648  startup_hc32f334.o(RESET)
    ../clib/../cmprslib/zerorunl2.c          0x00000000   Number         0  __dczerorl2.o ABSOLUTE
    ../clib/microlib/division.c              0x00000000   Number         0  uldiv.o ABSOLUTE
    ../clib/microlib/division.c              0x00000000   Number         0  uidiv.o ABSOLUTE
    ../clib/microlib/init/entry.s            0x00000000   Number         0  entry7b.o ABSOLUTE
    ../clib/microlib/init/entry.s            0x00000000   Number         0  entry12a.o ABSOLUTE
    ../clib/microlib/init/entry.s            0x00000000   Number         0  entry7a.o ABSOLUTE
    ../clib/microlib/init/entry.s            0x00000000   Number         0  entry2.o ABSOLUTE
    ../clib/microlib/init/entry.s            0x00000000   Number         0  entry10b.o ABSOLUTE
    ../clib/microlib/init/entry.s            0x00000000   Number         0  entry8a.o ABSOLUTE
    ../clib/microlib/init/entry.s            0x00000000   Number         0  entry8b.o ABSOLUTE
    ../clib/microlib/init/entry.s            0x00000000   Number         0  entry9a.o ABSOLUTE
    ../clib/microlib/init/entry.s            0x00000000   Number         0  entry9b.o ABSOLUTE
    ../clib/microlib/init/entry.s            0x00000000   Number         0  entry10a.o ABSOLUTE
    ../clib/microlib/init/entry.s            0x00000000   Number         0  entry12b.o ABSOLUTE
    ../clib/microlib/init/entry.s            0x00000000   Number         0  entry11a.o ABSOLUTE
    ../clib/microlib/init/entry.s            0x00000000   Number         0  entry5.o ABSOLUTE
    ../clib/microlib/init/entry.s            0x00000000   Number         0  entry11b.o ABSOLUTE
    ../clib/microlib/init/entry.s            0x00000000   Number         0  entry.o ABSOLUTE
    ../clib/microlib/longlong.c              0x00000000   Number         0  llsshr.o ABSOLUTE
    ../clib/microlib/longlong.c              0x00000000   Number         0  llshl.o ABSOLUTE
    ../clib/microlib/longlong.c              0x00000000   Number         0  llushr.o ABSOLUTE
    ../clib/microlib/printf/printf.c         0x00000000   Number         0  printf0.o ABSOLUTE
    ../clib/microlib/printf/printf.c         0x00000000   Number         0  printf1.o ABSOLUTE
    ../clib/microlib/printf/printf.c         0x00000000   Number         0  printf2.o ABSOLUTE
    ../clib/microlib/printf/printf.c         0x00000000   Number         0  printf4.o ABSOLUTE
    ../clib/microlib/printf/printf.c         0x00000000   Number         0  printf5.o ABSOLUTE
    ../clib/microlib/printf/printf.c         0x00000000   Number         0  printf6.o ABSOLUTE
    ../clib/microlib/printf/printf.c         0x00000000   Number         0  printf7.o ABSOLUTE
    ../clib/microlib/printf/printf.c         0x00000000   Number         0  printf8.o ABSOLUTE
    ../clib/microlib/printf/printf.c         0x00000000   Number         0  printfa.o ABSOLUTE
    ../clib/microlib/printf/printf.c         0x00000000   Number         0  printf3.o ABSOLUTE
    ../clib/microlib/printf/printf.c         0x00000000   Number         0  printfb.o ABSOLUTE
    ../clib/microlib/printf/stubs.s          0x00000000   Number         0  stubs.o ABSOLUTE
    ../clib/microlib/stdio/streams.c         0x00000000   Number         0  stdout.o ABSOLUTE
    ../clib/microlib/string/memset.c         0x00000000   Number         0  memseta.o ABSOLUTE
    ../clib/microlib/stubs.s                 0x00000000   Number         0  iusefp.o ABSOLUTE
    ../fplib/microlib/d2f.c                  0x00000000   Number         0  d2f.o ABSOLUTE
    ../fplib/microlib/fpadd.c                0x00000000   Number         0  dadd.o ABSOLUTE
    ../fplib/microlib/fpdiv.c                0x00000000   Number         0  ddiv.o ABSOLUTE
    ../fplib/microlib/fpepilogue.c           0x00000000   Number         0  fepilogue.o ABSOLUTE
    ../fplib/microlib/fpepilogue.c           0x00000000   Number         0  depilogue.o ABSOLUTE
    ../fplib/microlib/fpfix.c                0x00000000   Number         0  dfixul.o ABSOLUTE
    ../fplib/microlib/fpflt.c                0x00000000   Number         0  dfltul.o ABSOLUTE
    ../fplib/microlib/fpflt.c                0x00000000   Number         0  dfltui.o ABSOLUTE
    ../fplib/microlib/fpmul.c                0x00000000   Number         0  dmul.o ABSOLUTE
    ..\App_Drivers\Hc32F334_Drivers.c        0x00000000   Number         0  hc32f334_drivers.o ABSOLUTE
    ..\App_Drivers\hrtimer.c                 0x00000000   Number         0  hrtimer.o ABSOLUTE
    ..\App_Users\Ctrl_Lib.c                  0x00000000   Number         0  ctrl_lib.o ABSOLUTE
    ..\App_Users\main.c                      0x00000000   Number         0  main.o ABSOLUTE
    ..\\App_Drivers\\Hc32F334_Drivers.c      0x00000000   Number         0  hc32f334_drivers.o ABSOLUTE
    ..\\App_Drivers\\hrtimer.c               0x00000000   Number         0  hrtimer.o ABSOLUTE
    ..\\App_Users\\Ctrl_Lib.c                0x00000000   Number         0  ctrl_lib.o ABSOLUTE
    ..\\App_Users\\main.c                    0x00000000   Number         0  main.o ABSOLUTE
    ..\\drivers\\bsp\\ev_hc32f334_lqfp64\\ev_hc32f334_lqfp64.c 0x00000000   Number         0  ev_hc32f334_lqfp64.o ABSOLUTE
    ..\\drivers\\cmsis\\Device\\HDSC\\hc32f3xx\\Source\\system_hc32f334.c 0x00000000   Number         0  system_hc32f334.o ABSOLUTE
    ..\\drivers\\hc32_ll_driver\\src\\hc32_ll.c 0x00000000   Number         0  hc32_ll.o ABSOLUTE
    ..\\drivers\\hc32_ll_driver\\src\\hc32_ll_adc.c 0x00000000   Number         0  hc32_ll_adc.o ABSOLUTE
    ..\\drivers\\hc32_ll_driver\\src\\hc32_ll_aes.c 0x00000000   Number         0  hc32_ll_aes.o ABSOLUTE
    ..\\drivers\\hc32_ll_driver\\src\\hc32_ll_aos.c 0x00000000   Number         0  hc32_ll_aos.o ABSOLUTE
    ..\\drivers\\hc32_ll_driver\\src\\hc32_ll_clk.c 0x00000000   Number         0  hc32_ll_clk.o ABSOLUTE
    ..\\drivers\\hc32_ll_driver\\src\\hc32_ll_cmp.c 0x00000000   Number         0  hc32_ll_cmp.o ABSOLUTE
    ..\\drivers\\hc32_ll_driver\\src\\hc32_ll_crc.c 0x00000000   Number         0  hc32_ll_crc.o ABSOLUTE
    ..\\drivers\\hc32_ll_driver\\src\\hc32_ll_ctc.c 0x00000000   Number         0  hc32_ll_ctc.o ABSOLUTE
    ..\\drivers\\hc32_ll_driver\\src\\hc32_ll_dac.c 0x00000000   Number         0  hc32_ll_dac.o ABSOLUTE
    ..\\drivers\\hc32_ll_driver\\src\\hc32_ll_dbgc.c 0x00000000   Number         0  hc32_ll_dbgc.o ABSOLUTE
    ..\\drivers\\hc32_ll_driver\\src\\hc32_ll_dcu.c 0x00000000   Number         0  hc32_ll_dcu.o ABSOLUTE
    ..\\drivers\\hc32_ll_driver\\src\\hc32_ll_dma.c 0x00000000   Number         0  hc32_ll_dma.o ABSOLUTE
    ..\\drivers\\hc32_ll_driver\\src\\hc32_ll_efm.c 0x00000000   Number         0  hc32_ll_efm.o ABSOLUTE
    ..\\drivers\\hc32_ll_driver\\src\\hc32_ll_emb.c 0x00000000   Number         0  hc32_ll_emb.o ABSOLUTE
    ..\\drivers\\hc32_ll_driver\\src\\hc32_ll_event_port.c 0x00000000   Number         0  hc32_ll_event_port.o ABSOLUTE
    ..\\drivers\\hc32_ll_driver\\src\\hc32_ll_fcg.c 0x00000000   Number         0  hc32_ll_fcg.o ABSOLUTE
    ..\\drivers\\hc32_ll_driver\\src\\hc32_ll_fcm.c 0x00000000   Number         0  hc32_ll_fcm.o ABSOLUTE
    ..\\drivers\\hc32_ll_driver\\src\\hc32_ll_fmac.c 0x00000000   Number         0  hc32_ll_fmac.o ABSOLUTE
    ..\\drivers\\hc32_ll_driver\\src\\hc32_ll_gpio.c 0x00000000   Number         0  hc32_ll_gpio.o ABSOLUTE
    ..\\drivers\\hc32_ll_driver\\src\\hc32_ll_hrpwm.c 0x00000000   Number         0  hc32_ll_hrpwm.o ABSOLUTE
    ..\\drivers\\hc32_ll_driver\\src\\hc32_ll_i2c.c 0x00000000   Number         0  hc32_ll_i2c.o ABSOLUTE
    ..\\drivers\\hc32_ll_driver\\src\\hc32_ll_icg.c 0x00000000   Number         0  hc32_ll_icg.o ABSOLUTE
    ..\\drivers\\hc32_ll_driver\\src\\hc32_ll_interrupts.c 0x00000000   Number         0  hc32_ll_interrupts.o ABSOLUTE
    ..\\drivers\\hc32_ll_driver\\src\\hc32_ll_mau.c 0x00000000   Number         0  hc32_ll_mau.o ABSOLUTE
    ..\\drivers\\hc32_ll_driver\\src\\hc32_ll_mcan.c 0x00000000   Number         0  hc32_ll_mcan.o ABSOLUTE
    ..\\drivers\\hc32_ll_driver\\src\\hc32_ll_mpu.c 0x00000000   Number         0  hc32_ll_mpu.o ABSOLUTE
    ..\\drivers\\hc32_ll_driver\\src\\hc32_ll_pla.c 0x00000000   Number         0  hc32_ll_pla.o ABSOLUTE
    ..\\drivers\\hc32_ll_driver\\src\\hc32_ll_pwc.c 0x00000000   Number         0  hc32_ll_pwc.o ABSOLUTE
    ..\\drivers\\hc32_ll_driver\\src\\hc32_ll_rmu.c 0x00000000   Number         0  hc32_ll_rmu.o ABSOLUTE
    ..\\drivers\\hc32_ll_driver\\src\\hc32_ll_rtc.c 0x00000000   Number         0  hc32_ll_rtc.o ABSOLUTE
    ..\\drivers\\hc32_ll_driver\\src\\hc32_ll_smc.c 0x00000000   Number         0  hc32_ll_smc.o ABSOLUTE
    ..\\drivers\\hc32_ll_driver\\src\\hc32_ll_spi.c 0x00000000   Number         0  hc32_ll_spi.o ABSOLUTE
    ..\\drivers\\hc32_ll_driver\\src\\hc32_ll_sram.c 0x00000000   Number         0  hc32_ll_sram.o ABSOLUTE
    ..\\drivers\\hc32_ll_driver\\src\\hc32_ll_swdt.c 0x00000000   Number         0  hc32_ll_swdt.o ABSOLUTE
    ..\\drivers\\hc32_ll_driver\\src\\hc32_ll_tmr0.c 0x00000000   Number         0  hc32_ll_tmr0.o ABSOLUTE
    ..\\drivers\\hc32_ll_driver\\src\\hc32_ll_tmr4.c 0x00000000   Number         0  hc32_ll_tmr4.o ABSOLUTE
    ..\\drivers\\hc32_ll_driver\\src\\hc32_ll_tmr6.c 0x00000000   Number         0  hc32_ll_tmr6.o ABSOLUTE
    ..\\drivers\\hc32_ll_driver\\src\\hc32_ll_tmra.c 0x00000000   Number         0  hc32_ll_tmra.o ABSOLUTE
    ..\\drivers\\hc32_ll_driver\\src\\hc32_ll_usart.c 0x00000000   Number         0  hc32_ll_usart.o ABSOLUTE
    ..\\drivers\\hc32_ll_driver\\src\\hc32_ll_utility.c 0x00000000   Number         0  hc32_ll_utility.o ABSOLUTE
    ..\\drivers\\hc32_ll_driver\\src\\hc32_ll_wdt.c 0x00000000   Number         0  hc32_ll_wdt.o ABSOLUTE
    ..\drivers\bsp\ev_hc32f334_lqfp64\ev_hc32f334_lqfp64.c 0x00000000   Number         0  ev_hc32f334_lqfp64.o ABSOLUTE
    ..\drivers\cmsis\Device\HDSC\hc32f3xx\Source\system_hc32f334.c 0x00000000   Number         0  system_hc32f334.o ABSOLUTE
    ..\drivers\hc32_ll_driver\src\hc32_ll.c  0x00000000   Number         0  hc32_ll.o ABSOLUTE
    ..\drivers\hc32_ll_driver\src\hc32_ll_adc.c 0x00000000   Number         0  hc32_ll_adc.o ABSOLUTE
    ..\drivers\hc32_ll_driver\src\hc32_ll_aes.c 0x00000000   Number         0  hc32_ll_aes.o ABSOLUTE
    ..\drivers\hc32_ll_driver\src\hc32_ll_aos.c 0x00000000   Number         0  hc32_ll_aos.o ABSOLUTE
    ..\drivers\hc32_ll_driver\src\hc32_ll_clk.c 0x00000000   Number         0  hc32_ll_clk.o ABSOLUTE
    ..\drivers\hc32_ll_driver\src\hc32_ll_cmp.c 0x00000000   Number         0  hc32_ll_cmp.o ABSOLUTE
    ..\drivers\hc32_ll_driver\src\hc32_ll_crc.c 0x00000000   Number         0  hc32_ll_crc.o ABSOLUTE
    ..\drivers\hc32_ll_driver\src\hc32_ll_ctc.c 0x00000000   Number         0  hc32_ll_ctc.o ABSOLUTE
    ..\drivers\hc32_ll_driver\src\hc32_ll_dac.c 0x00000000   Number         0  hc32_ll_dac.o ABSOLUTE
    ..\drivers\hc32_ll_driver\src\hc32_ll_dbgc.c 0x00000000   Number         0  hc32_ll_dbgc.o ABSOLUTE
    ..\drivers\hc32_ll_driver\src\hc32_ll_dcu.c 0x00000000   Number         0  hc32_ll_dcu.o ABSOLUTE
    ..\drivers\hc32_ll_driver\src\hc32_ll_dma.c 0x00000000   Number         0  hc32_ll_dma.o ABSOLUTE
    ..\drivers\hc32_ll_driver\src\hc32_ll_efm.c 0x00000000   Number         0  hc32_ll_efm.o ABSOLUTE
    ..\drivers\hc32_ll_driver\src\hc32_ll_emb.c 0x00000000   Number         0  hc32_ll_emb.o ABSOLUTE
    ..\drivers\hc32_ll_driver\src\hc32_ll_event_port.c 0x00000000   Number         0  hc32_ll_event_port.o ABSOLUTE
    ..\drivers\hc32_ll_driver\src\hc32_ll_fcg.c 0x00000000   Number         0  hc32_ll_fcg.o ABSOLUTE
    ..\drivers\hc32_ll_driver\src\hc32_ll_fcm.c 0x00000000   Number         0  hc32_ll_fcm.o ABSOLUTE
    ..\drivers\hc32_ll_driver\src\hc32_ll_fmac.c 0x00000000   Number         0  hc32_ll_fmac.o ABSOLUTE
    ..\drivers\hc32_ll_driver\src\hc32_ll_gpio.c 0x00000000   Number         0  hc32_ll_gpio.o ABSOLUTE
    ..\drivers\hc32_ll_driver\src\hc32_ll_hrpwm.c 0x00000000   Number         0  hc32_ll_hrpwm.o ABSOLUTE
    ..\drivers\hc32_ll_driver\src\hc32_ll_i2c.c 0x00000000   Number         0  hc32_ll_i2c.o ABSOLUTE
    ..\drivers\hc32_ll_driver\src\hc32_ll_icg.c 0x00000000   Number         0  hc32_ll_icg.o ABSOLUTE
    ..\drivers\hc32_ll_driver\src\hc32_ll_interrupts.c 0x00000000   Number         0  hc32_ll_interrupts.o ABSOLUTE
    ..\drivers\hc32_ll_driver\src\hc32_ll_mau.c 0x00000000   Number         0  hc32_ll_mau.o ABSOLUTE
    ..\drivers\hc32_ll_driver\src\hc32_ll_mcan.c 0x00000000   Number         0  hc32_ll_mcan.o ABSOLUTE
    ..\drivers\hc32_ll_driver\src\hc32_ll_mpu.c 0x00000000   Number         0  hc32_ll_mpu.o ABSOLUTE
    ..\drivers\hc32_ll_driver\src\hc32_ll_pla.c 0x00000000   Number         0  hc32_ll_pla.o ABSOLUTE
    ..\drivers\hc32_ll_driver\src\hc32_ll_pwc.c 0x00000000   Number         0  hc32_ll_pwc.o ABSOLUTE
    ..\drivers\hc32_ll_driver\src\hc32_ll_rmu.c 0x00000000   Number         0  hc32_ll_rmu.o ABSOLUTE
    ..\drivers\hc32_ll_driver\src\hc32_ll_rtc.c 0x00000000   Number         0  hc32_ll_rtc.o ABSOLUTE
    ..\drivers\hc32_ll_driver\src\hc32_ll_smc.c 0x00000000   Number         0  hc32_ll_smc.o ABSOLUTE
    ..\drivers\hc32_ll_driver\src\hc32_ll_spi.c 0x00000000   Number         0  hc32_ll_spi.o ABSOLUTE
    ..\drivers\hc32_ll_driver\src\hc32_ll_sram.c 0x00000000   Number         0  hc32_ll_sram.o ABSOLUTE
    ..\drivers\hc32_ll_driver\src\hc32_ll_swdt.c 0x00000000   Number         0  hc32_ll_swdt.o ABSOLUTE
    ..\drivers\hc32_ll_driver\src\hc32_ll_tmr0.c 0x00000000   Number         0  hc32_ll_tmr0.o ABSOLUTE
    ..\drivers\hc32_ll_driver\src\hc32_ll_tmr4.c 0x00000000   Number         0  hc32_ll_tmr4.o ABSOLUTE
    ..\drivers\hc32_ll_driver\src\hc32_ll_tmr6.c 0x00000000   Number         0  hc32_ll_tmr6.o ABSOLUTE
    ..\drivers\hc32_ll_driver\src\hc32_ll_tmra.c 0x00000000   Number         0  hc32_ll_tmra.o ABSOLUTE
    ..\drivers\hc32_ll_driver\src\hc32_ll_usart.c 0x00000000   Number         0  hc32_ll_usart.o ABSOLUTE
    ..\drivers\hc32_ll_driver\src\hc32_ll_utility.c 0x00000000   Number         0  hc32_ll_utility.o ABSOLUTE
    ..\drivers\hc32_ll_driver\src\hc32_ll_wdt.c 0x00000000   Number         0  hc32_ll_wdt.o ABSOLUTE
    cdrcmple.s                               0x00000000   Number         0  cdrcmple.o ABSOLUTE
    dc.s                                     0x00000000   Number         0  dc.o ABSOLUTE
    handlers.s                               0x00000000   Number         0  handlers.o ABSOLUTE
    init.s                                   0x00000000   Number         0  init.o ABSOLUTE
    startup_hc32f334.s                       0x00000000   Number         0  startup_hc32f334.o ABSOLUTE
    .ARM.Collect$$$$00000000                 0x00000288   Section        0  entry.o(.ARM.Collect$$$$00000000)
    .ARM.Collect$$$$00000001                 0x00000288   Section        4  entry2.o(.ARM.Collect$$$$00000001)
    .ARM.Collect$$$$00000004                 0x0000028c   Section        4  entry5.o(.ARM.Collect$$$$00000004)
    .ARM.Collect$$$$00000008                 0x00000290   Section        0  entry7b.o(.ARM.Collect$$$$00000008)
    .ARM.Collect$$$$0000000A                 0x00000290   Section        0  entry8b.o(.ARM.Collect$$$$0000000A)
    .ARM.Collect$$$$0000000B                 0x00000290   Section        8  entry9a.o(.ARM.Collect$$$$0000000B)
    .ARM.Collect$$$$0000000E                 0x00000298   Section        4  entry12b.o(.ARM.Collect$$$$0000000E)
    .ARM.Collect$$$$0000000F                 0x0000029c   Section        0  entry10a.o(.ARM.Collect$$$$0000000F)
    .ARM.Collect$$$$00000011                 0x0000029c   Section        0  entry11a.o(.ARM.Collect$$$$00000011)
    .ARM.Collect$$$$00002712                 0x0000029c   Section        4  entry2.o(.ARM.Collect$$$$00002712)
    __lit__00000000                          0x0000029c   Data           4  entry2.o(.ARM.Collect$$$$00002712)
    .text                                    0x000002a0   Section       36  startup_hc32f334.o(.text)
    $v0                                      0x000002a0   Number         0  startup_hc32f334.o(.text)
    .text                                    0x000002c4   Section        0  uldiv.o(.text)
    .text                                    0x00000326   Section        0  llshl.o(.text)
    .text                                    0x00000344   Section        0  memseta.o(.text)
    .text                                    0x00000368   Section        0  dfltui.o(.text)
    .text                                    0x00000382   Section        0  dfltul.o(.text)
    .text                                    0x0000039a   Section        0  d2f.o(.text)
    .text                                    0x000003d2   Section        0  uidiv.o(.text)
    .text                                    0x000003fe   Section        0  iusefp.o(.text)
    i.BSP_KEY_KEY1_IrqCallback               0x000003fe   Section        0  ev_hc32f334_lqfp64.o(i.BSP_KEY_KEY1_IrqCallback)
    .ARM.__AT_0x00000400                     0x00000400   Section       96  hc32_ll_icg.o(.ARM.__AT_0x00000400)
    .text                                    0x00000460   Section        0  ddiv.o(.text)
    .text                                    0x0000053e   Section        0  llushr.o(.text)
    .text                                    0x0000055e   Section        0  fepilogue.o(.text)
    .text                                    0x000005cc   Section        0  depilogue.o(.text)
    .text                                    0x00000688   Section       36  init.o(.text)
    .text                                    0x000006ac   Section        0  __dczerorl2.o(.text)
    i.ADC1_Handler                           0x00000704   Section        0  main.o(i.ADC1_Handler)
    i.ADC_ChCmd                              0x00000a14   Section        0  hc32_ll_adc.o(i.ADC_ChCmd)
    i.ADC_ChRemap                            0x00000ac4   Section        0  hc32_ll_adc.o(i.ADC_ChRemap)
    i.ADC_Init                               0x00000ba0   Section        0  hc32_ll_adc.o(i.ADC_Init)
    i.ADC_IntCmd                             0x00000c60   Section        0  hc32_ll_adc.o(i.ADC_IntCmd)
    i.ADC_SetSampleTime                      0x00000cf0   Section        0  hc32_ll_adc.o(i.ADC_SetSampleTime)
    i.ADC_StructInit                         0x00000d74   Section        0  hc32_ll_adc.o(i.ADC_StructInit)
    i.ADC_TriggerCmd                         0x00000d88   Section        0  hc32_ll_adc.o(i.ADC_TriggerCmd)
    i.ADC_TriggerConfig                      0x00000e1c   Section        0  hc32_ll_adc.o(i.ADC_TriggerConfig)
    i.ADCx_Init                              0x00000ebc   Section        0  hc32f334_drivers.o(i.ADCx_Init)
    i.AOS_SetTriggerEventSrc                 0x0000105c   Section        0  hc32_ll_aos.o(i.AOS_SetTriggerEventSrc)
    i.BSP_CLK_Init                           0x000011ec   Section        0  ev_hc32f334_lqfp64.o(i.BSP_CLK_Init)
    i.BSP_KEY_KEY2_IrqCallback               0x00001294   Section        0  ev_hc32f334_lqfp64.o(i.BSP_KEY_KEY2_IrqCallback)
    i.BSP_KEY_KEY3_IrqCallback               0x00001296   Section        0  ev_hc32f334_lqfp64.o(i.BSP_KEY_KEY3_IrqCallback)
    i.CLK_GetStableStatus                    0x00001298   Section        0  hc32_ll_clk.o(i.CLK_GetStableStatus)
    i.CLK_PLLCmd                             0x000012ec   Section        0  hc32_ll_clk.o(i.CLK_PLLCmd)
    i.CLK_PLLInit                            0x00001418   Section        0  hc32_ll_clk.o(i.CLK_PLLInit)
    i.CLK_PLLStructInit                      0x000015ec   Section        0  hc32_ll_clk.o(i.CLK_PLLStructInit)
    i.CLK_SetClockDiv                        0x00001620   Section        0  hc32_ll_clk.o(i.CLK_SetClockDiv)
    i.CLK_SetSysClockSrc                     0x00001814   Section        0  hc32_ll_clk.o(i.CLK_SetSysClockSrc)
    i.CLK_XtalCmd                            0x000018dc   Section        0  hc32_ll_clk.o(i.CLK_XtalCmd)
    i.CLK_XtalInit                           0x0000197c   Section        0  hc32_ll_clk.o(i.CLK_XtalInit)
    i.CLK_XtalStructInit                     0x00001a74   Section        0  hc32_ll_clk.o(i.CLK_XtalStructInit)
    i.CMP_CompareOutCmd                      0x00001a94   Section        0  hc32_ll_cmp.o(i.CMP_CompareOutCmd)
    i.CMP_DelayUS                            0x00001b10   Section        0  hc32_ll_cmp.o(i.CMP_DelayUS)
    CMP_DelayUS                              0x00001b11   Thumb Code   124  hc32_ll_cmp.o(i.CMP_DelayUS)
    i.CMP_NormalModeInit                     0x00001b98   Section        0  hc32_ll_cmp.o(i.CMP_NormalModeInit)
    i.CMP_PinVcoutCmd                        0x00001cfc   Section        0  hc32_ll_cmp.o(i.CMP_PinVcoutCmd)
    i.CMP_StructInit                         0x00001d78   Section        0  hc32_ll_cmp.o(i.CMP_StructInit)
    i.CalibrationRead                        0x00001d90   Section        0  hc32f334_drivers.o(i.CalibrationRead)
    i.CalibrationWrite                       0x00001e4c   Section        0  hc32f334_drivers.o(i.CalibrationWrite)
    i.ControllerInit                         0x00001ed0   Section        0  main.o(i.ControllerInit)
    i.Ctrl_TMR0_Config                       0x00001f70   Section        0  hc32f334_drivers.o(i.Ctrl_TMR0_Config)
    i.DAC_ADCPrioCmd                         0x00001fb0   Section        0  hc32_ll_dac.o(i.DAC_ADCPrioCmd)
    i.DAC_ADCPrioConfig                      0x00002020   Section        0  hc32_ll_dac.o(i.DAC_ADCPrioConfig)
    i.DAC_DataRegAlignConfig                 0x000020a0   Section        0  hc32_ll_dac.o(i.DAC_DataRegAlignConfig)
    i.DAC_DeInit                             0x00002114   Section        0  hc32_ll_dac.o(i.DAC_DeInit)
    i.DAC_Init                               0x000021f0   Section        0  hc32_ll_dac.o(i.DAC_Init)
    i.DAC_OutputCmd                          0x00002304   Section        0  hc32_ll_dac.o(i.DAC_OutputCmd)
    i.DAC_SetChData                          0x00002398   Section        0  hc32_ll_dac.o(i.DAC_SetChData)
    i.DAC_SetDualChData                      0x00002430   Section        0  hc32_ll_dac.o(i.DAC_SetDualChData)
    i.DAC_Start                              0x000024c8   Section        0  hc32_ll_dac.o(i.DAC_Start)
    i.DAC_StartDualCh                        0x0000255c   Section        0  hc32_ll_dac.o(i.DAC_StartDualCh)
    i.DAC_StructInit                         0x000025ac   Section        0  hc32_ll_dac.o(i.DAC_StructInit)
    i.DACx_ConversionInit                    0x000025c0   Section        0  hc32f334_drivers.o(i.DACx_ConversionInit)
    i.DDL_AssertHandler                      0x00002690   Section        0  hc32_ll_utility.o(i.DDL_AssertHandler)
    i.DDL_ConsoleOutputChar                  0x000026d0   Section        0  hc32_ll_utility.o(i.DDL_ConsoleOutputChar)
    i.DDL_DelayMS                            0x0000271c   Section        0  hc32_ll_utility.o(i.DDL_DelayMS)
    i.DDL_DelayUS                            0x00002760   Section        0  hc32_ll_utility.o(i.DDL_DelayUS)
    i.DMA_ChCmd                              0x000027a4   Section        0  hc32_ll_dma.o(i.DMA_ChCmd)
    i.DMA_ClearTransCompleteStatus           0x0000281c   Section        0  hc32_ll_dma.o(i.DMA_ClearTransCompleteStatus)
    i.DMA_Cmd                                0x00002878   Section        0  hc32_ll_dma.o(i.DMA_Cmd)
    i.DMA_Config                             0x000028d4   Section        0  hc32f334_drivers.o(i.DMA_Config)
    i.DMA_GetTransCompleteStatus             0x000029d8   Section        0  hc32_ll_dma.o(i.DMA_GetTransCompleteStatus)
    i.DMA_Init                               0x00002a28   Section        0  hc32_ll_dma.o(i.DMA_Init)
    i.DMA_RepeatInit                         0x00002b3c   Section        0  hc32_ll_dma.o(i.DMA_RepeatInit)
    i.DMA_RepeatStructInit                   0x00002c08   Section        0  hc32_ll_dma.o(i.DMA_RepeatStructInit)
    i.DMA_SetSrcAddr                         0x00002c20   Section        0  hc32_ll_dma.o(i.DMA_SetSrcAddr)
    i.DMA_SetTransCount                      0x00002c80   Section        0  hc32_ll_dma.o(i.DMA_SetTransCount)
    i.DMA_StructInit                         0x00002ce8   Section        0  hc32_ll_dma.o(i.DMA_StructInit)
    i.EFM_CacheRamReset                      0x00002d0c   Section        0  hc32_ll_efm.o(i.EFM_CacheRamReset)
    i.EFM_DCacheCmd                          0x00002d70   Section        0  hc32_ll_efm.o(i.EFM_DCacheCmd)
    i.EFM_FWMC_Cmd                           0x00002dd4   Section        0  hc32_ll_efm.o(i.EFM_FWMC_Cmd)
    i.EFM_GetStatus                          0x00002e34   Section        0  hc32_ll_efm.o(i.EFM_GetStatus)
    i.EFM_ICacheCmd                          0x00002e8c   Section        0  hc32_ll_efm.o(i.EFM_ICacheCmd)
    i.EFM_PrefetchCmd                        0x00002ef0   Section        0  hc32_ll_efm.o(i.EFM_PrefetchCmd)
    i.EFM_ProgramWord                        0x00002f54   Section        0  hc32_ll_efm.o(i.EFM_ProgramWord)
    i.EFM_ReadByte                           0x000030a0   Section        0  hc32_ll_efm.o(i.EFM_ReadByte)
    i.EFM_SectorErase                        0x0000319c   Section        0  hc32_ll_efm.o(i.EFM_SectorErase)
    i.EFM_SetWaitCycle                       0x000032dc   Section        0  hc32_ll_efm.o(i.EFM_SetWaitCycle)
    i.EFM_SingleSectorOperateCmd             0x00003388   Section        0  hc32_ll_efm.o(i.EFM_SingleSectorOperateCmd)
    i.EFM_WaitFlag                           0x000033e8   Section        0  hc32_ll_efm.o(i.EFM_WaitFlag)
    EFM_WaitFlag                             0x000033e9   Thumb Code    90  hc32_ll_efm.o(i.EFM_WaitFlag)
    i.EMB_ClearStatus                        0x0000344c   Section        0  hc32_ll_emb.o(i.EMB_ClearStatus)
    i.EMB_HRPWM_Init                         0x000034fc   Section        0  hc32_ll_emb.o(i.EMB_HRPWM_Init)
    i.EMB_HRPWM_StructInit                   0x000039d8   Section        0  hc32_ll_emb.o(i.EMB_HRPWM_StructInit)
    i.EMB_Init                               0x00003a4c   Section        0  hc32f334_drivers.o(i.EMB_Init)
    i.EMB_SetReleasePwmCond                  0x00003b84   Section        0  hc32_ll_emb.o(i.EMB_SetReleasePwmCond)
    i.EXTINT00_SWINT16_Handler               0x00003c50   Section        0  ev_hc32f334_lqfp64.o(i.EXTINT00_SWINT16_Handler)
    i.EXTINT03_SWINT19_Handler               0x00003c80   Section        0  ev_hc32f334_lqfp64.o(i.EXTINT03_SWINT19_Handler)
    i.EXTINT09_SWINT25_Handler               0x00003cb0   Section        0  ev_hc32f334_lqfp64.o(i.EXTINT09_SWINT25_Handler)
    i.EXTINT_ClearExtIntStatus               0x00003ce4   Section        0  hc32_ll_interrupts.o(i.EXTINT_ClearExtIntStatus)
    i.ExternEventConfig                      0x00003d38   Section        0  hrtimer.o(i.ExternEventConfig)
    i.FCG_Fcg0PeriphClockCmd                 0x00003e14   Section        0  hc32_ll_fcg.o(i.FCG_Fcg0PeriphClockCmd)
    i.FCG_Fcg2PeriphClockCmd                 0x00003e94   Section        0  hc32_ll_fcg.o(i.FCG_Fcg2PeriphClockCmd)
    i.FCG_Fcg3PeriphClockCmd                 0x00003efc   Section        0  hc32_ll_fcg.o(i.FCG_Fcg3PeriphClockCmd)
    i.GPIO_AnalogCmd                         0x00003f64   Section        0  hc32_ll_gpio.o(i.GPIO_AnalogCmd)
    i.GPIO_HrpwmPinCmd                       0x00004018   Section        0  hc32_ll_gpio.o(i.GPIO_HrpwmPinCmd)
    i.GPIO_Init                              0x0000409c   Section        0  hc32_ll_gpio.o(i.GPIO_Init)
    i.GPIO_ReadInputPins                     0x000042c0   Section        0  hc32_ll_gpio.o(i.GPIO_ReadInputPins)
    i.GPIO_ResetPins                         0x00004334   Section        0  hc32_ll_gpio.o(i.GPIO_ResetPins)
    i.GPIO_SetDebugPort                      0x000043a4   Section        0  hc32_ll_gpio.o(i.GPIO_SetDebugPort)
    i.GPIO_SetFunc                           0x00004430   Section        0  hc32_ll_gpio.o(i.GPIO_SetFunc)
    i.GPIO_SetPins                           0x000044f4   Section        0  hc32_ll_gpio.o(i.GPIO_SetPins)
    i.GPIO_SetReadWaitCycle                  0x00004564   Section        0  hc32_ll_gpio.o(i.GPIO_SetReadWaitCycle)
    i.GPIO_StructInit                        0x000045fc   Section        0  hc32_ll_gpio.o(i.GPIO_StructInit)
    i.GPIO_TogglePins                        0x00004628   Section        0  hc32_ll_gpio.o(i.GPIO_TogglePins)
    i.Gpio_Init                              0x00004698   Section        0  hc32f334_drivers.o(i.Gpio_Init)
    i.HRPWM_BufStructInit                    0x00004844   Section        0  hc32_ll_hrpwm.o(i.HRPWM_BufStructInit)
    i.HRPWM_CALIB_ProcessSingle              0x00004858   Section        0  hc32_ll_hrpwm.o(i.HRPWM_CALIB_ProcessSingle)
    i.HRPWM_DeInit                           0x000048f4   Section        0  hc32_ll_hrpwm.o(i.HRPWM_DeInit)
    i.HRPWM_DeadTimeBufConfig                0x00004a9c   Section        0  hc32_ll_hrpwm.o(i.HRPWM_DeadTimeBufConfig)
    i.HRPWM_DeadTimeConfig                   0x00004b9c   Section        0  hc32_ll_hrpwm.o(i.HRPWM_DeadTimeConfig)
    i.HRPWM_DeadTimeStructInit               0x00004c7c   Section        0  hc32_ll_hrpwm.o(i.HRPWM_DeadTimeStructInit)
    i.HRPWM_EMB_ChAConfig                    0x00004c90   Section        0  hc32_ll_hrpwm.o(i.HRPWM_EMB_ChAConfig)
    i.HRPWM_EMB_ChBConfig                    0x00004da8   Section        0  hc32_ll_hrpwm.o(i.HRPWM_EMB_ChBConfig)
    i.HRPWM_EMB_StructInit                   0x00004ec0   Section        0  hc32_ll_hrpwm.o(i.HRPWM_EMB_StructInit)
    i.HRPWM_EVT_Config                       0x00004ed4   Section        0  hc32_ll_hrpwm.o(i.HRPWM_EVT_Config)
    i.HRPWM_EVT_FilterConfig                 0x000050c0   Section        0  hc32_ll_hrpwm.o(i.HRPWM_EVT_FilterConfig)
    i.HRPWM_EVT_FilterSignalConfig           0x00005228   Section        0  hc32_ll_hrpwm.o(i.HRPWM_EVT_FilterSignalConfig)
    i.HRPWM_EVT_FilterSignalStructInit       0x00005340   Section        0  hc32_ll_hrpwm.o(i.HRPWM_EVT_FilterSignalStructInit)
    i.HRPWM_EVT_FilterStructInit             0x00005356   Section        0  hc32_ll_hrpwm.o(i.HRPWM_EVT_FilterStructInit)
    i.HRPWM_EVT_StructInit                   0x00005368   Section        0  hc32_ll_hrpwm.o(i.HRPWM_EVT_StructInit)
    i.HRPWM_GeneralAEBufConfig               0x00005384   Section        0  hc32_ll_hrpwm.o(i.HRPWM_GeneralAEBufConfig)
    i.HRPWM_GeneralBFBufConfig               0x00005484   Section        0  hc32_ll_hrpwm.o(i.HRPWM_GeneralBFBufConfig)
    i.HRPWM_IDLE_BM_Init                     0x00005584   Section        0  hc32_ll_hrpwm.o(i.HRPWM_IDLE_BM_Init)
    i.HRPWM_IDLE_BM_OutputInit               0x00005714   Section        0  hc32_ll_hrpwm.o(i.HRPWM_IDLE_BM_OutputInit)
    i.HRPWM_IDLE_BM_OutputStructInit         0x0000583c   Section        0  hc32_ll_hrpwm.o(i.HRPWM_IDLE_BM_OutputStructInit)
    i.HRPWM_IDLE_BM_StructInit               0x00005854   Section        0  hc32_ll_hrpwm.o(i.HRPWM_IDLE_BM_StructInit)
    i.HRPWM_IDLE_DELAY_Init                  0x00005870   Section        0  hc32_ll_hrpwm.o(i.HRPWM_IDLE_DELAY_Init)
    i.HRPWM_IDLE_DELAY_StructInit            0x000059a4   Section        0  hc32_ll_hrpwm.o(i.HRPWM_IDLE_DELAY_StructInit)
    i.HRPWM_Init                             0x000059b8   Section        0  hc32_ll_hrpwm.o(i.HRPWM_Init)
    i.HRPWM_MatchSpecialEventEnable          0x00005a8c   Section        0  hrtimer.o(i.HRPWM_MatchSpecialEventEnable)
    HRPWM_MatchSpecialEventEnable            0x00005a8d   Thumb Code   122  hrtimer.o(i.HRPWM_MatchSpecialEventEnable)
    i.HRPWM_PH_Config                        0x00005b0c   Section        0  hc32_ll_hrpwm.o(i.HRPWM_PH_Config)
    i.HRPWM_PH_StructInit                    0x00005bf8   Section        0  hc32_ll_hrpwm.o(i.HRPWM_PH_StructInit)
    i.HRPWM_PWM_ChAInit                      0x00005c0c   Section        0  hc32_ll_hrpwm.o(i.HRPWM_PWM_ChAInit)
    i.HRPWM_PWM_ChBInit                      0x00005f18   Section        0  hc32_ll_hrpwm.o(i.HRPWM_PWM_ChBInit)
    i.HRPWM_PWM_StructInit                   0x00006220   Section        0  hc32_ll_hrpwm.o(i.HRPWM_PWM_StructInit)
    i.HRPWM_PeriodBufConfig                  0x00006254   Section        0  hc32_ll_hrpwm.o(i.HRPWM_PeriodBufConfig)
    i.HRPWM_SetUnitGlobalBufFlagSrc          0x00006354   Section        0  hrtimer.o(i.HRPWM_SetUnitGlobalBufFlagSrc)
    HRPWM_SetUnitGlobalBufFlagSrc            0x00006355   Thumb Code   132  hrtimer.o(i.HRPWM_SetUnitGlobalBufFlagSrc)
    i.HRPWM_SpecialABufConfig                0x000063dc   Section        0  hc32_ll_hrpwm.o(i.HRPWM_SpecialABufConfig)
    i.HRPWM_SpecialBBufConfig                0x000064dc   Section        0  hc32_ll_hrpwm.o(i.HRPWM_SpecialBBufConfig)
    i.HRPWM_StructInit                       0x000065dc   Section        0  hc32_ll_hrpwm.o(i.HRPWM_StructInit)
    i.HRTIM_BM_Conf                          0x000065f8   Section        0  hrtimer.o(i.HRTIM_BM_Conf)
    i.HRTIM_Config                           0x000066c4   Section        0  hrtimer.o(i.HRTIM_Config)
    i.HRTIM_IDLE_Conf                        0x00007144   Section        0  hrtimer.o(i.HRTIM_IDLE_Conf)
    i.IRQ000_Handler                         0x000072a0   Section        0  hc32_ll_interrupts.o(i.IRQ000_Handler)
    i.IRQ001_Handler                         0x000072b4   Section        0  hc32_ll_interrupts.o(i.IRQ001_Handler)
    i.IRQ002_Handler                         0x000072c8   Section        0  hc32_ll_interrupts.o(i.IRQ002_Handler)
    i.IRQ003_Handler                         0x000072dc   Section        0  hc32_ll_interrupts.o(i.IRQ003_Handler)
    i.IRQ004_Handler                         0x000072f0   Section        0  hc32_ll_interrupts.o(i.IRQ004_Handler)
    i.IRQ005_Handler                         0x00007304   Section        0  hc32_ll_interrupts.o(i.IRQ005_Handler)
    i.IRQ006_Handler                         0x00007318   Section        0  hc32_ll_interrupts.o(i.IRQ006_Handler)
    i.IRQ007_Handler                         0x0000732c   Section        0  hc32_ll_interrupts.o(i.IRQ007_Handler)
    i.IRQ008_Handler                         0x00007340   Section        0  hc32_ll_interrupts.o(i.IRQ008_Handler)
    i.IRQ009_Handler                         0x00007354   Section        0  hc32_ll_interrupts.o(i.IRQ009_Handler)
    i.IRQ010_Handler                         0x00007368   Section        0  hc32_ll_interrupts.o(i.IRQ010_Handler)
    i.IRQ011_Handler                         0x0000737c   Section        0  hc32_ll_interrupts.o(i.IRQ011_Handler)
    i.IRQ012_Handler                         0x00007390   Section        0  hc32_ll_interrupts.o(i.IRQ012_Handler)
    i.IRQ013_Handler                         0x000073a4   Section        0  hc32_ll_interrupts.o(i.IRQ013_Handler)
    i.IRQ014_Handler                         0x000073b8   Section        0  hc32_ll_interrupts.o(i.IRQ014_Handler)
    i.IRQ015_Handler                         0x000073cc   Section        0  hc32_ll_interrupts.o(i.IRQ015_Handler)
    i.Inter2Asciix                           0x000073e0   Section        0  main.o(i.Inter2Asciix)
    i.LLC_CTRL_Loop                          0x000074a8   Section        0  ctrl_lib.o(i.LLC_CTRL_Loop)
    i.LLC_CmpConfig                          0x00007820   Section        0  hc32f334_drivers.o(i.LLC_CmpConfig)
    i.LL_PERIPH_WE                           0x000078cc   Section        0  hc32_ll.o(i.LL_PERIPH_WE)
    i.LedDriverMang                          0x00007960   Section        0  main.o(i.LedDriverMang)
    i.LogoDataUpdate                         0x00007a84   Section        0  main.o(i.LogoDataUpdate)
    i.SwFualtCheck                           0x00007c24   Section        0  main.o(i.SwFualtCheck)
    i.SysStateMachineMag                     0x00007e3c   Section        0  main.o(i.SysStateMachineMag)
    i.SystemCoreClockUpdate                  0x00007fa0   Section        0  system_hc32f334.o(i.SystemCoreClockUpdate)
    i.SystemInit                             0x0000803c   Section        0  system_hc32f334.o(i.SystemInit)
    i.TMR0_Init                              0x0000805c   Section        0  hc32_ll_tmr0.o(i.TMR0_Init)
    i.TMR0_Start                             0x00008194   Section        0  hc32_ll_tmr0.o(i.TMR0_Start)
    i.TMR0_StructInit                        0x00008214   Section        0  hc32_ll_tmr0.o(i.TMR0_StructInit)
    i.TMR0_WaitSyncDone                      0x00008234   Section        0  hc32_ll_tmr0.o(i.TMR0_WaitSyncDone)
    TMR0_WaitSyncDone                        0x00008235   Thumb Code    82  hc32_ll_tmr0.o(i.TMR0_WaitSyncDone)
    i.TMR6_1_SCmp_Handler                    0x00008290   Section        0  hrtimer.o(i.TMR6_1_SCmp_Handler)
    i.TMR6_2_IrqHandler                      0x000082b8   Section        0  hrtimer.o(i.TMR6_2_IrqHandler)
    i.TMR6_IrqHandler                        0x000082f0   Section        0  hrtimer.o(i.TMR6_IrqHandler)
    i.TMRA_Init                              0x00008324   Section        0  hc32_ll_tmra.o(i.TMRA_Init)
    i.TMRA_PWM_Init                          0x000084ac   Section        0  hc32_ll_tmra.o(i.TMRA_PWM_Init)
    i.TMRA_PWM_OutputCmd                     0x000085c4   Section        0  hc32_ll_tmra.o(i.TMRA_PWM_OutputCmd)
    i.TMRA_PWM_StructInit                    0x00008660   Section        0  hc32_ll_tmra.o(i.TMRA_PWM_StructInit)
    i.TMRA_SetCompareValue                   0x00008680   Section        0  hc32_ll_tmra.o(i.TMRA_SetCompareValue)
    i.TMRA_SetPeriodValue                    0x00008700   Section        0  hc32_ll_tmra.o(i.TMRA_SetPeriodValue)
    i.TMRA_Start                             0x00008774   Section        0  hc32_ll_tmra.o(i.TMRA_Start)
    i.TMRA_StructInit                        0x000087f0   Section        0  hc32_ll_tmra.o(i.TMRA_StructInit)
    i.TemperatureBaseLookUpTable             0x00008810   Section        0  hc32f334_drivers.o(i.TemperatureBaseLookUpTable)
    i.TmrAConfig                             0x0000885c   Section        0  hc32f334_drivers.o(i.TmrAConfig)
    i.USART2Config                           0x000088f0   Section        0  hc32f334_drivers.o(i.USART2Config)
    i.USART_FuncCmd                          0x0000892c   Section        0  hc32_ll_usart.o(i.USART_FuncCmd)
    i.USART_GetStatus                        0x00008a3c   Section        0  hc32_ll_usart.o(i.USART_GetStatus)
    i.USART_SetBaudrate                      0x00008ac4   Section        0  hc32_ll_usart.o(i.USART_SetBaudrate)
    i.USART_UART_Init                        0x00009080   Section        0  hc32_ll_usart.o(i.USART_UART_Init)
    i.USART_UART_StructInit                  0x0000921c   Section        0  hc32_ll_usart.o(i.USART_UART_StructInit)
    i.Usart2_TxEnable                        0x00009248   Section        0  hc32f334_drivers.o(i.Usart2_TxEnable)
    i.WDT_Config                             0x00009284   Section        0  hc32f334_drivers.o(i.WDT_Config)
    i.WDT_FeedDog                            0x000092ac   Section        0  hc32_ll_wdt.o(i.WDT_FeedDog)
    i.WDT_Init                               0x000092c0   Section        0  hc32_ll_wdt.o(i.WDT_Init)
    i.__0printf$3                            0x00009408   Section        0  printf3.o(i.__0printf$3)
    i.__scatterload_copy                     0x00009428   Section       14  handlers.o(i.__scatterload_copy)
    i.__scatterload_null                     0x00009436   Section        2  handlers.o(i.__scatterload_null)
    i.__scatterload_zeroinit                 0x00009438   Section       14  handlers.o(i.__scatterload_zeroinit)
    i._printf_core                           0x00009448   Section        0  printf3.o(i._printf_core)
    _printf_core                             0x00009449   Thumb Code   436  printf3.o(i._printf_core)
    i.fputc                                  0x00009600   Section        0  hc32_ll_utility.o(i.fputc)
    i.main                                   0x00009618   Section        0  main.o(i.main)
    .constdata                               0x00009b78   Section        8  hc32_ll_dac.o(.constdata)
    .constdata                               0x00009b80   Section       32  hc32_ll_usart.o(.constdata)
    .constdata                               0x00009ba0   Section      322  hc32f334_drivers.o(.constdata)
    .bss.noinit                              0x1fffc000   Section        8  system_hc32f334.o(.bss.noinit)
    .data                                    0x1fffc008   Section       16  hc32_ll_utility.o(.data)
    m_u32TickStep                            0x1fffc008   Data           4  hc32_ll_utility.o(.data)
    m_u32TickCount                           0x1fffc00c   Data           4  hc32_ll_utility.o(.data)
    m_pvPrintDevice                          0x1fffc010   Data           4  hc32_ll_utility.o(.data)
    m_u32PrintTimeout                        0x1fffc014   Data           4  hc32_ll_utility.o(.data)
    .data                                    0x1fffc018   Section      268  main.o(.data)
    s16VoutOvpTimes                          0x1fffc038   Data           2  main.o(.data)
    s16VoutOcpTimes                          0x1fffc03a   Data           2  main.o(.data)
    s16VinOvpTimes                           0x1fffc03c   Data           2  main.o(.data)
    s16VinUvpTimes                           0x1fffc03e   Data           2  main.o(.data)
    s16VinOvpRecoverTimes                    0x1fffc040   Data           2  main.o(.data)
    s16Temp1OTPTimes                         0x1fffc042   Data           2  main.o(.data)
    s16Temp2OTPTimes                         0x1fffc044   Data           2  main.o(.data)
    s16Temp1OTPRecoverTimes                  0x1fffc046   Data           2  main.o(.data)
    s16Temp2OTPRecoverTimes                  0x1fffc048   Data           2  main.o(.data)
    u16StartCnt                              0x1fffc04a   Data           2  main.o(.data)
    u16RelayDelayCnt                         0x1fffc04c   Data           2  main.o(.data)
    u16LedCnt                                0x1fffc04e   Data           2  main.o(.data)
    u16LedPrd                                0x1fffc050   Data           2  main.o(.data)
    u16FANCnt                                0x1fffc052   Data           2  main.o(.data)
    u16FANDuty_MAN                           0x1fffc054   Data           2  main.o(.data)
    u16FinalTemp                             0x1fffc056   Data           2  main.o(.data)
    u16FanSpeedPre                           0x1fffc058   Data           2  main.o(.data)
    .data                                    0x1fffc124   Section        8  hrtimer.o(.data)
    .data                                    0x1fffc12c   Section        4  ev_hc32f334_lqfp64.o(.data)
    m_u32GlobalKey                           0x1fffc12c   Data           4  ev_hc32f334_lqfp64.o(.data)
    .data                                    0x1fffc130   Section      128  hc32f334_drivers.o(.data)
    .data                                    0x1fffc1b0   Section        4  ctrl_lib.o(.data)
    .data                                    0x1fffc1b4   Section       92  ctrl_lib.o(.data)
    .data                                    0x1fffc210   Section        4  ctrl_lib.o(.data)
    .data                                    0x1fffc214   Section        4  ctrl_lib.o(.data)
    .data                                    0x1fffc218   Section        4  ctrl_lib.o(.data)
    .data                                    0x1fffc21c   Section        4  ctrl_lib.o(.data)
    .data                                    0x1fffc220   Section        4  ctrl_lib.o(.data)
    .data                                    0x1fffc224   Section        2  ctrl_lib.o(.data)
    .data                                    0x1fffc228   Section        4  stdout.o(.data)
    .bss                                     0x1fffc22c   Section       64  hc32_ll_interrupts.o(.bss)
    m_apfnIrqHandler                         0x1fffc22c   Data          64  hc32_ll_interrupts.o(.bss)
    .bss                                     0x1fffc26c   Section       64  hc32f334_drivers.o(.bss)
    .bss                                     0x1fffc2ac   Section      112  ctrl_lib.o(.bss)
    STACK                                    0x1fffc320   Section     3072  startup_hc32f334.o(STACK)

    Global Symbols

    Symbol Name                              Value     Ov Type        Size  Object(Section)

    BuildAttributes$$THM_ISAv4$E$P$D$K$B$S$7EM$VFPi3$EXTD16$VFPS$VFMA$PE$A:L22UL41UL21$X:L11$S22US41US21$IEEE1$IW$USESV6$~STKCKD$USESV7$~SHL$OTIME$ROPI$EBA8$MICROLIB$REQ8$PRES8$EABIv2 0x00000000   Number         0  anon$$obj.o ABSOLUTE
    __ARM_use_no_argv                        0x00000000   Number         0  main.o ABSOLUTE
    __Vectors                                0x00000000   Data           4  startup_hc32f334.o(RESET)
    _printf_a                                0x00000000   Number         0  stubs.o ABSOLUTE
    _printf_c                                0x00000000   Number         0  stubs.o ABSOLUTE
    _printf_charcount                        0x00000000   Number         0  stubs.o ABSOLUTE
    _printf_d                                0x00000000   Number         0  stubs.o ABSOLUTE
    _printf_e                                0x00000000   Number         0  stubs.o ABSOLUTE
    _printf_f                                0x00000000   Number         0  stubs.o ABSOLUTE
    _printf_flags                            0x00000000   Number         0  stubs.o ABSOLUTE
    _printf_fp_dec                           0x00000000   Number         0  stubs.o ABSOLUTE
    _printf_fp_hex                           0x00000000   Number         0  stubs.o ABSOLUTE
    _printf_g                                0x00000000   Number         0  stubs.o ABSOLUTE
    _printf_i                                0x00000000   Number         0  stubs.o ABSOLUTE
    _printf_int_dec                          0x00000000   Number         0  stubs.o ABSOLUTE
    _printf_l                                0x00000000   Number         0  stubs.o ABSOLUTE
    _printf_lc                               0x00000000   Number         0  stubs.o ABSOLUTE
    _printf_ll                               0x00000000   Number         0  stubs.o ABSOLUTE
    _printf_lld                              0x00000000   Number         0  stubs.o ABSOLUTE
    _printf_lli                              0x00000000   Number         0  stubs.o ABSOLUTE
    _printf_llo                              0x00000000   Number         0  stubs.o ABSOLUTE
    _printf_llu                              0x00000000   Number         0  stubs.o ABSOLUTE
    _printf_llx                              0x00000000   Number         0  stubs.o ABSOLUTE
    _printf_longlong_dec                     0x00000000   Number         0  stubs.o ABSOLUTE
    _printf_longlong_hex                     0x00000000   Number         0  stubs.o ABSOLUTE
    _printf_longlong_oct                     0x00000000   Number         0  stubs.o ABSOLUTE
    _printf_ls                               0x00000000   Number         0  stubs.o ABSOLUTE
    _printf_mbtowc                           0x00000000   Number         0  stubs.o ABSOLUTE
    _printf_n                                0x00000000   Number         0  stubs.o ABSOLUTE
    _printf_o                                0x00000000   Number         0  stubs.o ABSOLUTE
    _printf_p                                0x00000000   Number         0  stubs.o ABSOLUTE
    _printf_percent                          0x00000000   Number         0  stubs.o ABSOLUTE
    _printf_pre_padding                      0x00000000   Number         0  stubs.o ABSOLUTE
    _printf_return_value                     0x00000000   Number         0  stubs.o ABSOLUTE
    _printf_s                                0x00000000   Number         0  stubs.o ABSOLUTE
    _printf_sizespec                         0x00000000   Number         0  stubs.o ABSOLUTE
    _printf_str                              0x00000000   Number         0  stubs.o ABSOLUTE
    _printf_truncate_signed                  0x00000000   Number         0  stubs.o ABSOLUTE
    _printf_truncate_unsigned                0x00000000   Number         0  stubs.o ABSOLUTE
    _printf_u                                0x00000000   Number         0  stubs.o ABSOLUTE
    _printf_wc                               0x00000000   Number         0  stubs.o ABSOLUTE
    _printf_wctomb                           0x00000000   Number         0  stubs.o ABSOLUTE
    _printf_widthprec                        0x00000000   Number         0  stubs.o ABSOLUTE
    _printf_x                                0x00000000   Number         0  stubs.o ABSOLUTE
    __arm_fini_                               - Undefined Weak Reference
    __cpp_initialize__aeabi_                  - Undefined Weak Reference
    __cxa_finalize                            - Undefined Weak Reference
    _clock_init                               - Undefined Weak Reference
    _microlib_exit                            - Undefined Weak Reference
    __Vectors_End                            0x00000288   Data           0  startup_hc32f334.o(RESET)
    __Vectors_Size                           0x00000288   Number         0  startup_hc32f334.o ABSOLUTE
    __main                                   0x00000289   Thumb Code     0  entry.o(.ARM.Collect$$$$00000000)
    _main_stk                                0x00000289   Thumb Code     0  entry2.o(.ARM.Collect$$$$00000001)
    _main_scatterload                        0x0000028d   Thumb Code     0  entry5.o(.ARM.Collect$$$$00000004)
    __main_after_scatterload                 0x00000291   Thumb Code     0  entry5.o(.ARM.Collect$$$$00000004)
    _main_clock                              0x00000291   Thumb Code     0  entry7b.o(.ARM.Collect$$$$00000008)
    _main_cpp_init                           0x00000291   Thumb Code     0  entry8b.o(.ARM.Collect$$$$0000000A)
    _main_init                               0x00000291   Thumb Code     0  entry9a.o(.ARM.Collect$$$$0000000B)
    __rt_lib_shutdown_fini                   0x00000299   Thumb Code     0  entry12b.o(.ARM.Collect$$$$0000000E)
    __rt_final_cpp                           0x0000029d   Thumb Code     0  entry10a.o(.ARM.Collect$$$$0000000F)
    __rt_final_exit                          0x0000029d   Thumb Code     0  entry11a.o(.ARM.Collect$$$$00000011)
    Reset_Handler                            0x000002a1   Thumb Code     8  startup_hc32f334.o(.text)
    NMI_Handler                              0x000002a9   Thumb Code     2  startup_hc32f334.o(.text)
    HardFault_Handler                        0x000002ab   Thumb Code     2  startup_hc32f334.o(.text)
    MemManage_Handler                        0x000002ad   Thumb Code     2  startup_hc32f334.o(.text)
    BusFault_Handler                         0x000002af   Thumb Code     2  startup_hc32f334.o(.text)
    UsageFault_Handler                       0x000002b1   Thumb Code     2  startup_hc32f334.o(.text)
    SVC_Handler                              0x000002b3   Thumb Code     2  startup_hc32f334.o(.text)
    DebugMon_Handler                         0x000002b5   Thumb Code     2  startup_hc32f334.o(.text)
    PendSV_Handler                           0x000002b7   Thumb Code     2  startup_hc32f334.o(.text)
    SysTick_Handler                          0x000002b9   Thumb Code     2  startup_hc32f334.o(.text)
    ADC2_Handler                             0x000002bb   Thumb Code     0  startup_hc32f334.o(.text)
    ADC3_Handler                             0x000002bb   Thumb Code     0  startup_hc32f334.o(.text)
    CLK_XtalStop_Handler                     0x000002bb   Thumb Code     0  startup_hc32f334.o(.text)
    CMP1_Handler                             0x000002bb   Thumb Code     0  startup_hc32f334.o(.text)
    CMP2_Handler                             0x000002bb   Thumb Code     0  startup_hc32f334.o(.text)
    CMP3_Handler                             0x000002bb   Thumb Code     0  startup_hc32f334.o(.text)
    CTC_Handler                              0x000002bb   Thumb Code     0  startup_hc32f334.o(.text)
    DMA_Error_Handler                        0x000002bb   Thumb Code     0  startup_hc32f334.o(.text)
    DMA_TC0_BTC0_Handler                     0x000002bb   Thumb Code     0  startup_hc32f334.o(.text)
    DMA_TC1_BTC1_Handler                     0x000002bb   Thumb Code     0  startup_hc32f334.o(.text)
    DMA_TC2_BTC2_Handler                     0x000002bb   Thumb Code     0  startup_hc32f334.o(.text)
    DMA_TC3_BTC3_Handler                     0x000002bb   Thumb Code     0  startup_hc32f334.o(.text)
    DMA_TC4_BTC4_Handler                     0x000002bb   Thumb Code     0  startup_hc32f334.o(.text)
    DMA_TC5_BTC5_Handler                     0x000002bb   Thumb Code     0  startup_hc32f334.o(.text)
    DMA_TC6_BTC6_Handler                     0x000002bb   Thumb Code     0  startup_hc32f334.o(.text)
    DMA_TC7_BTC7_Handler                     0x000002bb   Thumb Code     0  startup_hc32f334.o(.text)
    EFM_OpEnd_Handler                        0x000002bb   Thumb Code     0  startup_hc32f334.o(.text)
    EFM_PEError_ReadCol_Handler              0x000002bb   Thumb Code     0  startup_hc32f334.o(.text)
    EMB_GR0_Handler                          0x000002bb   Thumb Code     0  startup_hc32f334.o(.text)
    EMB_GR1_Handler                          0x000002bb   Thumb Code     0  startup_hc32f334.o(.text)
    EMB_GR2_Handler                          0x000002bb   Thumb Code     0  startup_hc32f334.o(.text)
    EMB_GR3_Handler                          0x000002bb   Thumb Code     0  startup_hc32f334.o(.text)
    EMB_GR4_Handler                          0x000002bb   Thumb Code     0  startup_hc32f334.o(.text)
    EMB_GR5_Handler                          0x000002bb   Thumb Code     0  startup_hc32f334.o(.text)
    EMB_GR6_Handler                          0x000002bb   Thumb Code     0  startup_hc32f334.o(.text)
    EMB_GR7_Handler                          0x000002bb   Thumb Code     0  startup_hc32f334.o(.text)
    EMB_GR8_Handler                          0x000002bb   Thumb Code     0  startup_hc32f334.o(.text)
    EVENT_PORT1_Handler                      0x000002bb   Thumb Code     0  startup_hc32f334.o(.text)
    EVENT_PORT2_Handler                      0x000002bb   Thumb Code     0  startup_hc32f334.o(.text)
    EVENT_PORT3_Handler                      0x000002bb   Thumb Code     0  startup_hc32f334.o(.text)
    EVENT_PORT4_Handler                      0x000002bb   Thumb Code     0  startup_hc32f334.o(.text)
    EXTINT01_SWINT17_Handler                 0x000002bb   Thumb Code     0  startup_hc32f334.o(.text)
    EXTINT02_SWINT18_Handler                 0x000002bb   Thumb Code     0  startup_hc32f334.o(.text)
    EXTINT04_SWINT20_Handler                 0x000002bb   Thumb Code     0  startup_hc32f334.o(.text)
    EXTINT05_SWINT21_Handler                 0x000002bb   Thumb Code     0  startup_hc32f334.o(.text)
    EXTINT06_SWINT22_Handler                 0x000002bb   Thumb Code     0  startup_hc32f334.o(.text)
    EXTINT07_SWINT23_Handler                 0x000002bb   Thumb Code     0  startup_hc32f334.o(.text)
    EXTINT08_SWINT24_Handler                 0x000002bb   Thumb Code     0  startup_hc32f334.o(.text)
    EXTINT10_SWINT26_Handler                 0x000002bb   Thumb Code     0  startup_hc32f334.o(.text)
    EXTINT11_SWINT27_Handler                 0x000002bb   Thumb Code     0  startup_hc32f334.o(.text)
    EXTINT12_SWINT28_Handler                 0x000002bb   Thumb Code     0  startup_hc32f334.o(.text)
    EXTINT13_SWINT29_Handler                 0x000002bb   Thumb Code     0  startup_hc32f334.o(.text)
    EXTINT14_SWINT30_Handler                 0x000002bb   Thumb Code     0  startup_hc32f334.o(.text)
    EXTINT15_SWINT31_Handler                 0x000002bb   Thumb Code     0  startup_hc32f334.o(.text)
    FCM_Handler                              0x000002bb   Thumb Code     0  startup_hc32f334.o(.text)
    FPU_Error_Handler                        0x000002bb   Thumb Code     0  startup_hc32f334.o(.text)
    HRPWM_1_GCap_Handler                     0x000002bb   Thumb Code     0  startup_hc32f334.o(.text)
    HRPWM_1_GCmp_Handler                     0x000002bb   Thumb Code     0  startup_hc32f334.o(.text)
    HRPWM_1_Ovf_Udf_Handler                  0x000002bb   Thumb Code     0  startup_hc32f334.o(.text)
    HRPWM_1_SCmp_Handler                     0x000002bb   Thumb Code     0  startup_hc32f334.o(.text)
    HRPWM_2_GCap_Handler                     0x000002bb   Thumb Code     0  startup_hc32f334.o(.text)
    HRPWM_2_GCmp_Handler                     0x000002bb   Thumb Code     0  startup_hc32f334.o(.text)
    HRPWM_2_Ovf_Udf_Handler                  0x000002bb   Thumb Code     0  startup_hc32f334.o(.text)
    HRPWM_2_SCmp_Handler                     0x000002bb   Thumb Code     0  startup_hc32f334.o(.text)
    HRPWM_3_GCap_Handler                     0x000002bb   Thumb Code     0  startup_hc32f334.o(.text)
    HRPWM_3_GCmp_Handler                     0x000002bb   Thumb Code     0  startup_hc32f334.o(.text)
    HRPWM_3_Ovf_Udf_Handler                  0x000002bb   Thumb Code     0  startup_hc32f334.o(.text)
    HRPWM_3_SCmp_Handler                     0x000002bb   Thumb Code     0  startup_hc32f334.o(.text)
    HRPWM_4_GCap_Handler                     0x000002bb   Thumb Code     0  startup_hc32f334.o(.text)
    HRPWM_4_GCmp_Handler                     0x000002bb   Thumb Code     0  startup_hc32f334.o(.text)
    HRPWM_4_Ovf_Udf_Handler                  0x000002bb   Thumb Code     0  startup_hc32f334.o(.text)
    HRPWM_4_SCmp_Handler                     0x000002bb   Thumb Code     0  startup_hc32f334.o(.text)
    HRPWM_5_GCap_Handler                     0x000002bb   Thumb Code     0  startup_hc32f334.o(.text)
    HRPWM_5_GCmp_Handler                     0x000002bb   Thumb Code     0  startup_hc32f334.o(.text)
    HRPWM_5_Ovf_Udf_Handler                  0x000002bb   Thumb Code     0  startup_hc32f334.o(.text)
    HRPWM_5_SCmp_Handler                     0x000002bb   Thumb Code     0  startup_hc32f334.o(.text)
    HRPWM_6_GCap_Handler                     0x000002bb   Thumb Code     0  startup_hc32f334.o(.text)
    HRPWM_6_GCmp_Handler                     0x000002bb   Thumb Code     0  startup_hc32f334.o(.text)
    HRPWM_6_Ovf_Udf_Handler                  0x000002bb   Thumb Code     0  startup_hc32f334.o(.text)
    HRPWM_6_SCmp_Handler                     0x000002bb   Thumb Code     0  startup_hc32f334.o(.text)
    HRPWM_Handler                            0x000002bb   Thumb Code     0  startup_hc32f334.o(.text)
    I2C_Handler                              0x000002bb   Thumb Code     0  startup_hc32f334.o(.text)
    MCAN1_INT0_Handler                       0x000002bb   Thumb Code     0  startup_hc32f334.o(.text)
    MCAN1_INT1_Handler                       0x000002bb   Thumb Code     0  startup_hc32f334.o(.text)
    MCAN2_INT0_Handler                       0x000002bb   Thumb Code     0  startup_hc32f334.o(.text)
    MCAN2_INT1_Handler                       0x000002bb   Thumb Code     0  startup_hc32f334.o(.text)
    MCANRAM_ECCError_Handler                 0x000002bb   Thumb Code     0  startup_hc32f334.o(.text)
    PLA_Handler                              0x000002bb   Thumb Code     0  startup_hc32f334.o(.text)
    PWC_LVD1_Handler                         0x000002bb   Thumb Code     0  startup_hc32f334.o(.text)
    PWC_LVD2_Handler                         0x000002bb   Thumb Code     0  startup_hc32f334.o(.text)
    PWC_WKTM_Handler                         0x000002bb   Thumb Code     0  startup_hc32f334.o(.text)
    RTC_Handler                              0x000002bb   Thumb Code     0  startup_hc32f334.o(.text)
    SPI_Handler                              0x000002bb   Thumb Code     0  startup_hc32f334.o(.text)
    SWDT_Handler                             0x000002bb   Thumb Code     0  startup_hc32f334.o(.text)
    TMR0_1_Handler                           0x000002bb   Thumb Code     0  startup_hc32f334.o(.text)
    TMR0_2_Handler                           0x000002bb   Thumb Code     0  startup_hc32f334.o(.text)
    TMR4_GCmp_Handler                        0x000002bb   Thumb Code     0  startup_hc32f334.o(.text)
    TMR4_Ovf_Udf_Handler                     0x000002bb   Thumb Code     0  startup_hc32f334.o(.text)
    TMR4_Reload_Handler                      0x000002bb   Thumb Code     0  startup_hc32f334.o(.text)
    TMR4_SCmp_Handler                        0x000002bb   Thumb Code     0  startup_hc32f334.o(.text)
    TMR6_1_Dte_Handler                       0x000002bb   Thumb Code     0  startup_hc32f334.o(.text)
    TMR6_1_GCmp_Handler                      0x000002bb   Thumb Code     0  startup_hc32f334.o(.text)
    TMR6_1_Ovf_Udf_Handler                   0x000002bb   Thumb Code     0  startup_hc32f334.o(.text)
    TMR6_2_Dte_Handler                       0x000002bb   Thumb Code     0  startup_hc32f334.o(.text)
    TMR6_2_GCmp_Handler                      0x000002bb   Thumb Code     0  startup_hc32f334.o(.text)
    TMR6_2_Ovf_Udf_Handler                   0x000002bb   Thumb Code     0  startup_hc32f334.o(.text)
    TMR6_2_SCmp_Handler                      0x000002bb   Thumb Code     0  startup_hc32f334.o(.text)
    TMR6_3_Dte_Handler                       0x000002bb   Thumb Code     0  startup_hc32f334.o(.text)
    TMR6_3_GCmp_Handler                      0x000002bb   Thumb Code     0  startup_hc32f334.o(.text)
    TMR6_3_Ovf_Udf_Handler                   0x000002bb   Thumb Code     0  startup_hc32f334.o(.text)
    TMR6_3_SCmp_Handler                      0x000002bb   Thumb Code     0  startup_hc32f334.o(.text)
    TMR6_4_Dte_Handler                       0x000002bb   Thumb Code     0  startup_hc32f334.o(.text)
    TMR6_4_GCmp_Handler                      0x000002bb   Thumb Code     0  startup_hc32f334.o(.text)
    TMR6_4_Ovf_Udf_Handler                   0x000002bb   Thumb Code     0  startup_hc32f334.o(.text)
    TMR6_4_SCmp_Handler                      0x000002bb   Thumb Code     0  startup_hc32f334.o(.text)
    TMRA_1_Cmp_Handler                       0x000002bb   Thumb Code     0  startup_hc32f334.o(.text)
    TMRA_1_Ovf_Udf_Handler                   0x000002bb   Thumb Code     0  startup_hc32f334.o(.text)
    TMRA_2_Cmp_Handler                       0x000002bb   Thumb Code     0  startup_hc32f334.o(.text)
    TMRA_2_Ovf_Udf_Handler                   0x000002bb   Thumb Code     0  startup_hc32f334.o(.text)
    TMRA_3_Cmp_Handler                       0x000002bb   Thumb Code     0  startup_hc32f334.o(.text)
    TMRA_3_Ovf_Udf_Handler                   0x000002bb   Thumb Code     0  startup_hc32f334.o(.text)
    TMRA_4_Cmp_Handler                       0x000002bb   Thumb Code     0  startup_hc32f334.o(.text)
    TMRA_4_Ovf_Udf_Handler                   0x000002bb   Thumb Code     0  startup_hc32f334.o(.text)
    TMRA_5_Cmp_Handler                       0x000002bb   Thumb Code     0  startup_hc32f334.o(.text)
    TMRA_5_Ovf_Udf_Handler                   0x000002bb   Thumb Code     0  startup_hc32f334.o(.text)
    USART1_Handler                           0x000002bb   Thumb Code     0  startup_hc32f334.o(.text)
    USART1_TCI_Handler                       0x000002bb   Thumb Code     0  startup_hc32f334.o(.text)
    USART1_WKUP_Handler                      0x000002bb   Thumb Code     0  startup_hc32f334.o(.text)
    USART2_Handler                           0x000002bb   Thumb Code     0  startup_hc32f334.o(.text)
    USART2_TxComplete_Handler                0x000002bb   Thumb Code     0  startup_hc32f334.o(.text)
    USART3_Handler                           0x000002bb   Thumb Code     0  startup_hc32f334.o(.text)
    USART3_TxComplete_Handler                0x000002bb   Thumb Code     0  startup_hc32f334.o(.text)
    USART4_Handler                           0x000002bb   Thumb Code     0  startup_hc32f334.o(.text)
    USART4_TxComplete_Handler                0x000002bb   Thumb Code     0  startup_hc32f334.o(.text)
    WDT_Handler                              0x000002bb   Thumb Code     0  startup_hc32f334.o(.text)
    __aeabi_uldivmod                         0x000002c5   Thumb Code    98  uldiv.o(.text)
    __aeabi_llsl                             0x00000327   Thumb Code    30  llshl.o(.text)
    _ll_shift_l                              0x00000327   Thumb Code     0  llshl.o(.text)
    __aeabi_memset                           0x00000345   Thumb Code    14  memseta.o(.text)
    __aeabi_memset4                          0x00000345   Thumb Code     0  memseta.o(.text)
    __aeabi_memset8                          0x00000345   Thumb Code     0  memseta.o(.text)
    __aeabi_memclr                           0x00000353   Thumb Code     4  memseta.o(.text)
    __aeabi_memclr4                          0x00000353   Thumb Code     0  memseta.o(.text)
    __aeabi_memclr8                          0x00000353   Thumb Code     0  memseta.o(.text)
    _memset$wrapper                          0x00000357   Thumb Code    18  memseta.o(.text)
    __aeabi_ui2d                             0x00000369   Thumb Code    26  dfltui.o(.text)
    __aeabi_ul2d                             0x00000383   Thumb Code    24  dfltul.o(.text)
    __aeabi_d2f                              0x0000039b   Thumb Code    56  d2f.o(.text)
    __aeabi_uidiv                            0x000003d3   Thumb Code     0  uidiv.o(.text)
    __aeabi_uidivmod                         0x000003d3   Thumb Code    44  uidiv.o(.text)
    BSP_KEY_KEY1_IrqCallback                 0x000003ff   Thumb Code     2  ev_hc32f334_lqfp64.o(i.BSP_KEY_KEY1_IrqCallback)
    __I$use$fp                               0x000003ff   Thumb Code     0  iusefp.o(.text)
    u32ICGValue                              0x00000400   Data          96  hc32_ll_icg.o(.ARM.__AT_0x00000400)
    __aeabi_ddiv                             0x00000461   Thumb Code   222  ddiv.o(.text)
    __aeabi_llsr                             0x0000053f   Thumb Code    32  llushr.o(.text)
    _ll_ushift_r                             0x0000053f   Thumb Code     0  llushr.o(.text)
    _float_round                             0x0000055f   Thumb Code    18  fepilogue.o(.text)
    _float_epilogue                          0x00000571   Thumb Code    92  fepilogue.o(.text)
    _double_round                            0x000005cd   Thumb Code    30  depilogue.o(.text)
    _double_epilogue                         0x000005eb   Thumb Code   156  depilogue.o(.text)
    __scatterload                            0x00000689   Thumb Code    28  init.o(.text)
    __scatterload_rt2                        0x00000689   Thumb Code     0  init.o(.text)
    __decompress                             0x000006ad   Thumb Code     0  __dczerorl2.o(.text)
    __decompress1                            0x000006ad   Thumb Code    86  __dczerorl2.o(.text)
    ADC1_Handler                             0x00000705   Thumb Code   662  main.o(i.ADC1_Handler)
    ADC_ChCmd                                0x00000a15   Thumb Code   124  hc32_ll_adc.o(i.ADC_ChCmd)
    ADC_ChRemap                              0x00000ac5   Thumb Code   162  hc32_ll_adc.o(i.ADC_ChRemap)
    ADC_Init                                 0x00000ba1   Thumb Code   142  hc32_ll_adc.o(i.ADC_Init)
    ADC_IntCmd                               0x00000c61   Thumb Code    96  hc32_ll_adc.o(i.ADC_IntCmd)
    ADC_SetSampleTime                        0x00000cf1   Thumb Code    78  hc32_ll_adc.o(i.ADC_SetSampleTime)
    ADC_StructInit                           0x00000d75   Thumb Code    18  hc32_ll_adc.o(i.ADC_StructInit)
    ADC_TriggerCmd                           0x00000d89   Thumb Code    98  hc32_ll_adc.o(i.ADC_TriggerCmd)
    ADC_TriggerConfig                        0x00000e1d   Thumb Code   110  hc32_ll_adc.o(i.ADC_TriggerConfig)
    ADCx_Init                                0x00000ebd   Thumb Code   388  hc32f334_drivers.o(i.ADCx_Init)
    AOS_SetTriggerEventSrc                   0x0000105d   Thumb Code   222  hc32_ll_aos.o(i.AOS_SetTriggerEventSrc)
    BSP_CLK_Init                             0x000011ed   Thumb Code   160  ev_hc32f334_lqfp64.o(i.BSP_CLK_Init)
    BSP_KEY_KEY2_IrqCallback                 0x00001295   Thumb Code     2  ev_hc32f334_lqfp64.o(i.BSP_KEY_KEY2_IrqCallback)
    BSP_KEY_KEY3_IrqCallback                 0x00001297   Thumb Code     2  ev_hc32f334_lqfp64.o(i.BSP_KEY_KEY3_IrqCallback)
    CLK_GetStableStatus                      0x00001299   Thumb Code    36  hc32_ll_clk.o(i.CLK_GetStableStatus)
    CLK_PLLCmd                               0x000012ed   Thumb Code   248  hc32_ll_clk.o(i.CLK_PLLCmd)
    CLK_PLLInit                              0x00001419   Thumb Code   390  hc32_ll_clk.o(i.CLK_PLLInit)
    CLK_PLLStructInit                        0x000015ed   Thumb Code    52  hc32_ll_clk.o(i.CLK_PLLStructInit)
    CLK_SetClockDiv                          0x00001621   Thumb Code   478  hc32_ll_clk.o(i.CLK_SetClockDiv)
    CLK_SetSysClockSrc                       0x00001815   Thumb Code   182  hc32_ll_clk.o(i.CLK_SetSysClockSrc)
    CLK_XtalCmd                              0x000018dd   Thumb Code   152  hc32_ll_clk.o(i.CLK_XtalCmd)
    CLK_XtalInit                             0x0000197d   Thumb Code   196  hc32_ll_clk.o(i.CLK_XtalInit)
    CLK_XtalStructInit                       0x00001a75   Thumb Code    30  hc32_ll_clk.o(i.CLK_XtalStructInit)
    CMP_CompareOutCmd                        0x00001a95   Thumb Code    74  hc32_ll_cmp.o(i.CMP_CompareOutCmd)
    CMP_NormalModeInit                       0x00001b99   Thumb Code   306  hc32_ll_cmp.o(i.CMP_NormalModeInit)
    CMP_PinVcoutCmd                          0x00001cfd   Thumb Code    74  hc32_ll_cmp.o(i.CMP_PinVcoutCmd)
    CMP_StructInit                           0x00001d79   Thumb Code    24  hc32_ll_cmp.o(i.CMP_StructInit)
    CalibrationRead                          0x00001d91   Thumb Code   142  hc32f334_drivers.o(i.CalibrationRead)
    CalibrationWrite                         0x00001e4d   Thumb Code    90  hc32f334_drivers.o(i.CalibrationWrite)
    ControllerInit                           0x00001ed1   Thumb Code   118  main.o(i.ControllerInit)
    Ctrl_TMR0_Config                         0x00001f71   Thumb Code    58  hc32f334_drivers.o(i.Ctrl_TMR0_Config)
    DAC_ADCPrioCmd                           0x00001fb1   Thumb Code    64  hc32_ll_dac.o(i.DAC_ADCPrioCmd)
    DAC_ADCPrioConfig                        0x00002021   Thumb Code    78  hc32_ll_dac.o(i.DAC_ADCPrioConfig)
    DAC_DataRegAlignConfig                   0x000020a1   Thumb Code    68  hc32_ll_dac.o(i.DAC_DataRegAlignConfig)
    DAC_DeInit                               0x00002115   Thumb Code   160  hc32_ll_dac.o(i.DAC_DeInit)
    DAC_Init                                 0x000021f1   Thumb Code   218  hc32_ll_dac.o(i.DAC_Init)
    DAC_OutputCmd                            0x00002305   Thumb Code   100  hc32_ll_dac.o(i.DAC_OutputCmd)
    DAC_SetChData                            0x00002399   Thumb Code   104  hc32_ll_dac.o(i.DAC_SetChData)
    DAC_SetDualChData                        0x00002431   Thumb Code   106  hc32_ll_dac.o(i.DAC_SetDualChData)
    DAC_Start                                0x000024c9   Thumb Code    98  hc32_ll_dac.o(i.DAC_Start)
    DAC_StartDualCh                          0x0000255d   Thumb Code    34  hc32_ll_dac.o(i.DAC_StartDualCh)
    DAC_StructInit                           0x000025ad   Thumb Code    20  hc32_ll_dac.o(i.DAC_StructInit)
    DACx_ConversionInit                      0x000025c1   Thumb Code   200  hc32f334_drivers.o(i.DACx_ConversionInit)
    DDL_AssertHandler                        0x00002691   Thumb Code    14  hc32_ll_utility.o(i.DDL_AssertHandler)
    DDL_ConsoleOutputChar                    0x000026d1   Thumb Code    70  hc32_ll_utility.o(i.DDL_ConsoleOutputChar)
    DDL_DelayMS                              0x0000271d   Thumb Code    58  hc32_ll_utility.o(i.DDL_DelayMS)
    DDL_DelayUS                              0x00002761   Thumb Code    56  hc32_ll_utility.o(i.DDL_DelayUS)
    DMA_ChCmd                                0x000027a5   Thumb Code    74  hc32_ll_dma.o(i.DMA_ChCmd)
    DMA_ClearTransCompleteStatus             0x0000281d   Thumb Code    48  hc32_ll_dma.o(i.DMA_ClearTransCompleteStatus)
    DMA_Cmd                                  0x00002879   Thumb Code    46  hc32_ll_dma.o(i.DMA_Cmd)
    DMA_Config                               0x000028d5   Thumb Code   226  hc32f334_drivers.o(i.DMA_Config)
    DMA_GetTransCompleteStatus               0x000029d9   Thumb Code    34  hc32_ll_dma.o(i.DMA_GetTransCompleteStatus)
    DMA_Init                                 0x00002a29   Thumb Code   232  hc32_ll_dma.o(i.DMA_Init)
    DMA_RepeatInit                           0x00002b3d   Thumb Code   160  hc32_ll_dma.o(i.DMA_RepeatInit)
    DMA_RepeatStructInit                     0x00002c09   Thumb Code    24  hc32_ll_dma.o(i.DMA_RepeatStructInit)
    DMA_SetSrcAddr                           0x00002c21   Thumb Code    52  hc32_ll_dma.o(i.DMA_SetSrcAddr)
    DMA_SetTransCount                        0x00002c81   Thumb Code    58  hc32_ll_dma.o(i.DMA_SetTransCount)
    DMA_StructInit                           0x00002ce9   Thumb Code    36  hc32_ll_dma.o(i.DMA_StructInit)
    EFM_CacheRamReset                        0x00002d0d   Thumb Code    46  hc32_ll_efm.o(i.EFM_CacheRamReset)
    EFM_DCacheCmd                            0x00002d71   Thumb Code    46  hc32_ll_efm.o(i.EFM_DCacheCmd)
    EFM_FWMC_Cmd                             0x00002dd5   Thumb Code    40  hc32_ll_efm.o(i.EFM_FWMC_Cmd)
    EFM_GetStatus                            0x00002e35   Thumb Code    40  hc32_ll_efm.o(i.EFM_GetStatus)
    EFM_ICacheCmd                            0x00002e8d   Thumb Code    46  hc32_ll_efm.o(i.EFM_ICacheCmd)
    EFM_PrefetchCmd                          0x00002ef1   Thumb Code    46  hc32_ll_efm.o(i.EFM_PrefetchCmd)
    EFM_ProgramWord                          0x00002f55   Thumb Code   258  hc32_ll_efm.o(i.EFM_ProgramWord)
    EFM_ReadByte                             0x000030a1   Thumb Code   192  hc32_ll_efm.o(i.EFM_ReadByte)
    EFM_SectorErase                          0x0000319d   Thumb Code   244  hc32_ll_efm.o(i.EFM_SectorErase)
    EFM_SetWaitCycle                         0x000032dd   Thumb Code   112  hc32_ll_efm.o(i.EFM_SetWaitCycle)
    EFM_SingleSectorOperateCmd               0x00003389   Thumb Code    82  hc32_ll_efm.o(i.EFM_SingleSectorOperateCmd)
    EMB_ClearStatus                          0x0000344d   Thumb Code    90  hc32_ll_emb.o(i.EMB_ClearStatus)
    EMB_HRPWM_Init                           0x000034fd   Thumb Code  1244  hc32_ll_emb.o(i.EMB_HRPWM_Init)
    EMB_HRPWM_StructInit                     0x000039d9   Thumb Code   114  hc32_ll_emb.o(i.EMB_HRPWM_StructInit)
    EMB_Init                                 0x00003a4d   Thumb Code   302  hc32f334_drivers.o(i.EMB_Init)
    EMB_SetReleasePwmCond                    0x00003b85   Thumb Code   124  hc32_ll_emb.o(i.EMB_SetReleasePwmCond)
    EXTINT00_SWINT16_Handler                 0x00003c51   Thumb Code    42  ev_hc32f334_lqfp64.o(i.EXTINT00_SWINT16_Handler)
    EXTINT03_SWINT19_Handler                 0x00003c81   Thumb Code    42  ev_hc32f334_lqfp64.o(i.EXTINT03_SWINT19_Handler)
    EXTINT09_SWINT25_Handler                 0x00003cb1   Thumb Code    46  ev_hc32f334_lqfp64.o(i.EXTINT09_SWINT25_Handler)
    EXTINT_ClearExtIntStatus                 0x00003ce5   Thumb Code    26  hc32_ll_interrupts.o(i.EXTINT_ClearExtIntStatus)
    ExternEventConfig                        0x00003d39   Thumb Code   168  hrtimer.o(i.ExternEventConfig)
    FCG_Fcg0PeriphClockCmd                   0x00003e15   Thumb Code    74  hc32_ll_fcg.o(i.FCG_Fcg0PeriphClockCmd)
    FCG_Fcg2PeriphClockCmd                   0x00003e95   Thumb Code    52  hc32_ll_fcg.o(i.FCG_Fcg2PeriphClockCmd)
    FCG_Fcg3PeriphClockCmd                   0x00003efd   Thumb Code    52  hc32_ll_fcg.o(i.FCG_Fcg3PeriphClockCmd)
    GPIO_AnalogCmd                           0x00003f65   Thumb Code   124  hc32_ll_gpio.o(i.GPIO_AnalogCmd)
    GPIO_HrpwmPinCmd                         0x00004019   Thumb Code    74  hc32_ll_gpio.o(i.GPIO_HrpwmPinCmd)
    GPIO_Init                                0x0000409d   Thumb Code   492  hc32_ll_gpio.o(i.GPIO_Init)
    GPIO_ReadInputPins                       0x000042c1   Thumb Code    66  hc32_ll_gpio.o(i.GPIO_ReadInputPins)
    GPIO_ResetPins                           0x00004335   Thumb Code    58  hc32_ll_gpio.o(i.GPIO_ResetPins)
    GPIO_SetDebugPort                        0x000043a5   Thumb Code    84  hc32_ll_gpio.o(i.GPIO_SetDebugPort)
    GPIO_SetFunc                             0x00004431   Thumb Code   140  hc32_ll_gpio.o(i.GPIO_SetFunc)
    GPIO_SetPins                             0x000044f5   Thumb Code    58  hc32_ll_gpio.o(i.GPIO_SetPins)
    GPIO_SetReadWaitCycle                    0x00004565   Thumb Code    96  hc32_ll_gpio.o(i.GPIO_SetReadWaitCycle)
    GPIO_StructInit                          0x000045fd   Thumb Code    42  hc32_ll_gpio.o(i.GPIO_StructInit)
    GPIO_TogglePins                          0x00004629   Thumb Code    58  hc32_ll_gpio.o(i.GPIO_TogglePins)
    Gpio_Init                                0x00004699   Thumb Code   428  hc32f334_drivers.o(i.Gpio_Init)
    HRPWM_BufStructInit                      0x00004845   Thumb Code    18  hc32_ll_hrpwm.o(i.HRPWM_BufStructInit)
    HRPWM_CALIB_ProcessSingle                0x00004859   Thumb Code   144  hc32_ll_hrpwm.o(i.HRPWM_CALIB_ProcessSingle)
    HRPWM_DeInit                             0x000048f5   Thumb Code   364  hc32_ll_hrpwm.o(i.HRPWM_DeInit)
    HRPWM_DeadTimeBufConfig                  0x00004a9d   Thumb Code   202  hc32_ll_hrpwm.o(i.HRPWM_DeadTimeBufConfig)
    HRPWM_DeadTimeConfig                     0x00004b9d   Thumb Code   176  hc32_ll_hrpwm.o(i.HRPWM_DeadTimeConfig)
    HRPWM_DeadTimeStructInit                 0x00004c7d   Thumb Code    18  hc32_ll_hrpwm.o(i.HRPWM_DeadTimeStructInit)
    HRPWM_EMB_ChAConfig                      0x00004c91   Thumb Code   230  hc32_ll_hrpwm.o(i.HRPWM_EMB_ChAConfig)
    HRPWM_EMB_ChBConfig                      0x00004da9   Thumb Code   230  hc32_ll_hrpwm.o(i.HRPWM_EMB_ChBConfig)
    HRPWM_EMB_StructInit                     0x00004ec1   Thumb Code    18  hc32_ll_hrpwm.o(i.HRPWM_EMB_StructInit)
    HRPWM_EVT_Config                         0x00004ed5   Thumb Code   440  hc32_ll_hrpwm.o(i.HRPWM_EVT_Config)
    HRPWM_EVT_FilterConfig                   0x000050c1   Thumb Code   310  hc32_ll_hrpwm.o(i.HRPWM_EVT_FilterConfig)
    HRPWM_EVT_FilterSignalConfig             0x00005229   Thumb Code   230  hc32_ll_hrpwm.o(i.HRPWM_EVT_FilterSignalConfig)
    HRPWM_EVT_FilterSignalStructInit         0x00005341   Thumb Code    22  hc32_ll_hrpwm.o(i.HRPWM_EVT_FilterSignalStructInit)
    HRPWM_EVT_FilterStructInit               0x00005357   Thumb Code    18  hc32_ll_hrpwm.o(i.HRPWM_EVT_FilterStructInit)
    HRPWM_EVT_StructInit                     0x00005369   Thumb Code    26  hc32_ll_hrpwm.o(i.HRPWM_EVT_StructInit)
    HRPWM_GeneralAEBufConfig                 0x00005385   Thumb Code   202  hc32_ll_hrpwm.o(i.HRPWM_GeneralAEBufConfig)
    HRPWM_GeneralBFBufConfig                 0x00005485   Thumb Code   202  hc32_ll_hrpwm.o(i.HRPWM_GeneralBFBufConfig)
    HRPWM_IDLE_BM_Init                       0x00005585   Thumb Code   336  hc32_ll_hrpwm.o(i.HRPWM_IDLE_BM_Init)
    HRPWM_IDLE_BM_OutputInit                 0x00005715   Thumb Code   236  hc32_ll_hrpwm.o(i.HRPWM_IDLE_BM_OutputInit)
    HRPWM_IDLE_BM_OutputStructInit           0x0000583d   Thumb Code    24  hc32_ll_hrpwm.o(i.HRPWM_IDLE_BM_OutputStructInit)
    HRPWM_IDLE_BM_StructInit                 0x00005855   Thumb Code    28  hc32_ll_hrpwm.o(i.HRPWM_IDLE_BM_StructInit)
    HRPWM_IDLE_DELAY_Init                    0x00005871   Thumb Code   252  hc32_ll_hrpwm.o(i.HRPWM_IDLE_DELAY_Init)
    HRPWM_IDLE_DELAY_StructInit              0x000059a5   Thumb Code    20  hc32_ll_hrpwm.o(i.HRPWM_IDLE_DELAY_StructInit)
    HRPWM_Init                               0x000059b9   Thumb Code   160  hc32_ll_hrpwm.o(i.HRPWM_Init)
    HRPWM_PH_Config                          0x00005b0d   Thumb Code   188  hc32_ll_hrpwm.o(i.HRPWM_PH_Config)
    HRPWM_PH_StructInit                      0x00005bf9   Thumb Code    20  hc32_ll_hrpwm.o(i.HRPWM_PH_StructInit)
    HRPWM_PWM_ChAInit                        0x00005c0d   Thumb Code   728  hc32_ll_hrpwm.o(i.HRPWM_PWM_ChAInit)
    HRPWM_PWM_ChBInit                        0x00005f19   Thumb Code   726  hc32_ll_hrpwm.o(i.HRPWM_PWM_ChBInit)
    HRPWM_PWM_StructInit                     0x00006221   Thumb Code    48  hc32_ll_hrpwm.o(i.HRPWM_PWM_StructInit)
    HRPWM_PeriodBufConfig                    0x00006255   Thumb Code   202  hc32_ll_hrpwm.o(i.HRPWM_PeriodBufConfig)
    HRPWM_SpecialABufConfig                  0x000063dd   Thumb Code   202  hc32_ll_hrpwm.o(i.HRPWM_SpecialABufConfig)
    HRPWM_SpecialBBufConfig                  0x000064dd   Thumb Code   202  hc32_ll_hrpwm.o(i.HRPWM_SpecialBBufConfig)
    HRPWM_StructInit                         0x000065dd   Thumb Code    22  hc32_ll_hrpwm.o(i.HRPWM_StructInit)
    HRTIM_BM_Conf                            0x000065f9   Thumb Code   178  hrtimer.o(i.HRTIM_BM_Conf)
    HRTIM_Config                             0x000066c5   Thumb Code  2672  hrtimer.o(i.HRTIM_Config)
    HRTIM_IDLE_Conf                          0x00007145   Thumb Code   322  hrtimer.o(i.HRTIM_IDLE_Conf)
    IRQ000_Handler                           0x000072a1   Thumb Code    14  hc32_ll_interrupts.o(i.IRQ000_Handler)
    IRQ001_Handler                           0x000072b5   Thumb Code    14  hc32_ll_interrupts.o(i.IRQ001_Handler)
    IRQ002_Handler                           0x000072c9   Thumb Code    14  hc32_ll_interrupts.o(i.IRQ002_Handler)
    IRQ003_Handler                           0x000072dd   Thumb Code    14  hc32_ll_interrupts.o(i.IRQ003_Handler)
    IRQ004_Handler                           0x000072f1   Thumb Code    14  hc32_ll_interrupts.o(i.IRQ004_Handler)
    IRQ005_Handler                           0x00007305   Thumb Code    14  hc32_ll_interrupts.o(i.IRQ005_Handler)
    IRQ006_Handler                           0x00007319   Thumb Code    14  hc32_ll_interrupts.o(i.IRQ006_Handler)
    IRQ007_Handler                           0x0000732d   Thumb Code    14  hc32_ll_interrupts.o(i.IRQ007_Handler)
    IRQ008_Handler                           0x00007341   Thumb Code    14  hc32_ll_interrupts.o(i.IRQ008_Handler)
    IRQ009_Handler                           0x00007355   Thumb Code    14  hc32_ll_interrupts.o(i.IRQ009_Handler)
    IRQ010_Handler                           0x00007369   Thumb Code    14  hc32_ll_interrupts.o(i.IRQ010_Handler)
    IRQ011_Handler                           0x0000737d   Thumb Code    14  hc32_ll_interrupts.o(i.IRQ011_Handler)
    IRQ012_Handler                           0x00007391   Thumb Code    14  hc32_ll_interrupts.o(i.IRQ012_Handler)
    IRQ013_Handler                           0x000073a5   Thumb Code    14  hc32_ll_interrupts.o(i.IRQ013_Handler)
    IRQ014_Handler                           0x000073b9   Thumb Code    14  hc32_ll_interrupts.o(i.IRQ014_Handler)
    IRQ015_Handler                           0x000073cd   Thumb Code    14  hc32_ll_interrupts.o(i.IRQ015_Handler)
    Inter2Asciix                             0x000073e1   Thumb Code   192  main.o(i.Inter2Asciix)
    LLC_CTRL_Loop                            0x000074a9   Thumb Code   842  ctrl_lib.o(i.LLC_CTRL_Loop)
    LLC_CmpConfig                            0x00007821   Thumb Code   158  hc32f334_drivers.o(i.LLC_CmpConfig)
    LL_PERIPH_WE                             0x000078cd   Thumb Code   118  hc32_ll.o(i.LL_PERIPH_WE)
    LedDriverMang                            0x00007961   Thumb Code   282  main.o(i.LedDriverMang)
    LogoDataUpdate                           0x00007a85   Thumb Code   380  main.o(i.LogoDataUpdate)
    SwFualtCheck                             0x00007c25   Thumb Code   528  main.o(i.SwFualtCheck)
    SysStateMachineMag                       0x00007e3d   Thumb Code   326  main.o(i.SysStateMachineMag)
    SystemCoreClockUpdate                    0x00007fa1   Thumb Code   128  system_hc32f334.o(i.SystemCoreClockUpdate)
    SystemInit                               0x0000803d   Thumb Code    24  system_hc32f334.o(i.SystemInit)
    TMR0_Init                                0x0000805d   Thumb Code   264  hc32_ll_tmr0.o(i.TMR0_Init)
    TMR0_Start                               0x00008195   Thumb Code    80  hc32_ll_tmr0.o(i.TMR0_Start)
    TMR0_StructInit                          0x00008215   Thumb Code    30  hc32_ll_tmr0.o(i.TMR0_StructInit)
    TMR6_1_SCmp_Handler                      0x00008291   Thumb Code    32  hrtimer.o(i.TMR6_1_SCmp_Handler)
    TMR6_2_IrqHandler                        0x000082b9   Thumb Code    46  hrtimer.o(i.TMR6_2_IrqHandler)
    TMR6_IrqHandler                          0x000082f1   Thumb Code    48  hrtimer.o(i.TMR6_IrqHandler)
    TMRA_Init                                0x00008325   Thumb Code   320  hc32_ll_tmra.o(i.TMRA_Init)
    TMRA_PWM_Init                            0x000084ad   Thumb Code   232  hc32_ll_tmra.o(i.TMRA_PWM_Init)
    TMRA_PWM_OutputCmd                       0x000085c5   Thumb Code   106  hc32_ll_tmra.o(i.TMRA_PWM_OutputCmd)
    TMRA_PWM_StructInit                      0x00008661   Thumb Code    30  hc32_ll_tmra.o(i.TMRA_PWM_StructInit)
    TMRA_SetCompareValue                     0x00008681   Thumb Code    78  hc32_ll_tmra.o(i.TMRA_SetCompareValue)
    TMRA_SetPeriodValue                      0x00008701   Thumb Code    68  hc32_ll_tmra.o(i.TMRA_SetPeriodValue)
    TMRA_Start                               0x00008775   Thumb Code    76  hc32_ll_tmra.o(i.TMRA_Start)
    TMRA_StructInit                          0x000087f1   Thumb Code    32  hc32_ll_tmra.o(i.TMRA_StructInit)
    TemperatureBaseLookUpTable               0x00008811   Thumb Code    72  hc32f334_drivers.o(i.TemperatureBaseLookUpTable)
    TmrAConfig                               0x0000885d   Thumb Code   142  hc32f334_drivers.o(i.TmrAConfig)
    USART2Config                             0x000088f1   Thumb Code    54  hc32f334_drivers.o(i.USART2Config)
    USART_FuncCmd                            0x0000892d   Thumb Code   196  hc32_ll_usart.o(i.USART_FuncCmd)
    USART_GetStatus                          0x00008a3d   Thumb Code    84  hc32_ll_usart.o(i.USART_GetStatus)
    USART_SetBaudrate                        0x00008ac5   Thumb Code  1462  hc32_ll_usart.o(i.USART_SetBaudrate)
    USART_UART_Init                          0x00009081   Thumb Code   364  hc32_ll_usart.o(i.USART_UART_Init)
    USART_UART_StructInit                    0x0000921d   Thumb Code    44  hc32_ll_usart.o(i.USART_UART_StructInit)
    Usart2_TxEnable                          0x00009249   Thumb Code    48  hc32f334_drivers.o(i.Usart2_TxEnable)
    WDT_Config                               0x00009285   Thumb Code    38  hc32f334_drivers.o(i.WDT_Config)
    WDT_FeedDog                              0x000092ad   Thumb Code    16  hc32_ll_wdt.o(i.WDT_FeedDog)
    WDT_Init                                 0x000092c1   Thumb Code   272  hc32_ll_wdt.o(i.WDT_Init)
    __0printf$3                              0x00009409   Thumb Code    22  printf3.o(i.__0printf$3)
    __1printf$3                              0x00009409   Thumb Code     0  printf3.o(i.__0printf$3)
    __2printf                                0x00009409   Thumb Code     0  printf3.o(i.__0printf$3)
    __scatterload_copy                       0x00009429   Thumb Code    14  handlers.o(i.__scatterload_copy)
    __scatterload_null                       0x00009437   Thumb Code     2  handlers.o(i.__scatterload_null)
    __scatterload_zeroinit                   0x00009439   Thumb Code    14  handlers.o(i.__scatterload_zeroinit)
    fputc                                    0x00009601   Thumb Code    22  hc32_ll_utility.o(i.fputc)
    main                                     0x00009619   Thumb Code  1364  main.o(i.main)
    u16Temperature                           0x00009ba0   Data         322  hc32f334_drivers.o(.constdata)
    Region$$Table$$Base                      0x00009ce4   Number         0  anon$$obj.o(Region$$Table)
    Region$$Table$$Limit                     0x00009d04   Number         0  anon$$obj.o(Region$$Table)
    SystemCoreClock                          0x1fffc000   Data           4  system_hc32f334.o(.bss.noinit)
    HRC_VALUE                                0x1fffc004   Data           4  system_hc32f334.o(.bss.noinit)
    int16Temp1ADCQ0                          0x1fffc018   Data           2  main.o(.data)
    int16Temp2ADCQ0                          0x1fffc01a   Data           2  main.o(.data)
    u16SysSM                                 0x1fffc01c   Data           2  main.o(.data)
    u16timerCnt                              0x1fffc01e   Data           2  main.o(.data)
    u8WorkEnable                             0x1fffc020   Data           2  main.o(.data)
    u8WorkEnable_USART                       0x1fffc022   Data           2  main.o(.data)
    u16FanDuty                               0x1fffc024   Data           2  main.o(.data)
    u16FANPrd                                0x1fffc026   Data           2  main.o(.data)
    u16EepromWriteEnable                     0x1fffc028   Data           2  main.o(.data)
    s16TempPhaseA                            0x1fffc02a   Data           2  main.o(.data)
    s16TempPhaseB                            0x1fffc02c   Data           2  main.o(.data)
    s16TempPhaseAADC                         0x1fffc02e   Data           2  main.o(.data)
    s16TempPhaseBADC                         0x1fffc030   Data           2  main.o(.data)
    s16TempPhaseASum                         0x1fffc032   Data           2  main.o(.data)
    s16TempPhaseBSum                         0x1fffc034   Data           2  main.o(.data)
    u16TempStoreCounter                      0x1fffc036   Data           2  main.o(.data)
    int32VoutADCQ0                           0x1fffc05c   Data           4  main.o(.data)
    int32IoutADCQ0                           0x1fffc060   Data           4  main.o(.data)
    int32VinADCQ0                            0x1fffc064   Data           4  main.o(.data)
    int32PriCurr1ADCQ0                       0x1fffc068   Data           4  main.o(.data)
    int32PriCurr2ADCQ0                       0x1fffc06c   Data           4  main.o(.data)
    int32IoutFilterADCQ0_PRE                 0x1fffc070   Data           4  main.o(.data)
    int32VoutRtdbQ11                         0x1fffc074   Data           4  main.o(.data)
    int32IoutRtdbQ11                         0x1fffc078   Data           4  main.o(.data)
    int32VinRtdbQ11                          0x1fffc07c   Data           4  main.o(.data)
    int32VoutScaleQ11                        0x1fffc080   Data           4  main.o(.data)
    int32IoutScaleQ11                        0x1fffc084   Data           4  main.o(.data)
    int32VinScaleQ11                         0x1fffc088   Data           4  main.o(.data)
    int32VoutCalibGainQ11                    0x1fffc08c   Data           4  main.o(.data)
    int32VoutCalibOffsentQ11                 0x1fffc090   Data           4  main.o(.data)
    int32IoutCalibGainQ11                    0x1fffc094   Data           4  main.o(.data)
    int32IoutCalibOffsentQ11                 0x1fffc098   Data           4  main.o(.data)
    int32VinCalibGainQ11                     0x1fffc09c   Data           4  main.o(.data)
    int32VinCalibOffsentQ11                  0x1fffc0a0   Data           4  main.o(.data)
    u32Faultflag                             0x1fffc0a4   Data           4  main.o(.data)
    int32EPWM1DT_UP                          0x1fffc0a8   Data           4  main.o(.data)
    int32EPWM1DT_DOWN                        0x1fffc0ac   Data           4  main.o(.data)
    u32SystimerCnt                           0x1fffc0b0   Data           4  main.o(.data)
    u32SysCurrTimerCnt                       0x1fffc0b4   Data           4  main.o(.data)
    u32SysTask300USCnt                       0x1fffc0b8   Data           4  main.o(.data)
    u32SysTask1MSCnt                         0x1fffc0bc   Data           4  main.o(.data)
    u32SysTask5MSCnt                         0x1fffc0c0   Data           4  main.o(.data)
    u32SysTimer1SCnt                         0x1fffc0c4   Data           4  main.o(.data)
    u32HrPWMDTU1                             0x1fffc0c8   Data           4  main.o(.data)
    u32HrPWMDTU2                             0x1fffc0cc   Data           4  main.o(.data)
    u32HrPWMDTU4                             0x1fffc0d0   Data           4  main.o(.data)
    u32HrPWMDTU5                             0x1fffc0d4   Data           4  main.o(.data)
    u32HrPWMDTD1                             0x1fffc0d8   Data           4  main.o(.data)
    u32HrPWMDTD2                             0x1fffc0dc   Data           4  main.o(.data)
    u32HrPWMDTD4                             0x1fffc0e0   Data           4  main.o(.data)
    u32HrPWMDTD5                             0x1fffc0e4   Data           4  main.o(.data)
    u32HrpwmPhase1                           0x1fffc0e8   Data           4  main.o(.data)
    u32HrpwmPhase2                           0x1fffc0ec   Data           4  main.o(.data)
    u32HrpwmPhase3                           0x1fffc0f0   Data           4  main.o(.data)
    u32HrpwmPhase4                           0x1fffc0f4   Data           4  main.o(.data)
    u32HrpwmPhase5                           0x1fffc0f8   Data           4  main.o(.data)
    u32HrpwmCMPA                             0x1fffc0fc   Data           4  main.o(.data)
    u32HrpwmCMPA_U3                          0x1fffc100   Data           4  main.o(.data)
    u32HrpwmCMPB_U3                          0x1fffc104   Data           4  main.o(.data)
    u32HrpwmCMPE_U3                          0x1fffc108   Data           4  main.o(.data)
    u32HrpwmCMPF_U3                          0x1fffc10c   Data           4  main.o(.data)
    u32HrpwmCMPA_U4                          0x1fffc110   Data           4  main.o(.data)
    u32HrpwmCMPB_U4                          0x1fffc114   Data           4  main.o(.data)
    u32HrpwmCMPE_U4                          0x1fffc118   Data           4  main.o(.data)
    u32HrpwmCMPF_U4                          0x1fffc11c   Data           4  main.o(.data)
    s32EepromTempData                        0x1fffc120   Data           4  main.o(.data)
    cmpcnt                                   0x1fffc124   Data           2  hrtimer.o(.data)
    u32ChyTest0601                           0x1fffc128   Data           4  hrtimer.o(.data)
    m_au8TxBuf                               0x1fffc130   Data         128  hc32f334_drivers.o(.data)
    int32VoutFilterADCQ0                     0x1fffc1b0   Data           4  ctrl_lib.o(.data)
    u16IsrDivdeCnt                           0x1fffc1b4   Data           2  ctrl_lib.o(.data)
    sysFlagRtdb                              0x1fffc1b6   Data           2  ctrl_lib.o(.data)
    u16BM_EnableCounter                      0x1fffc1b8   Data           2  ctrl_lib.o(.data)
    u16BurstModeFlag                         0x1fffc1ba   Data           2  ctrl_lib.o(.data)
    u16SrModeFlag                            0x1fffc1bc   Data           2  ctrl_lib.o(.data)
    u16SrModeFlagPre                         0x1fffc1be   Data           2  ctrl_lib.o(.data)
    u16OneTimeFlag                           0x1fffc1c0   Data           2  ctrl_lib.o(.data)
    int32IoutFilterADCQ0                     0x1fffc1c4   Data           4  ctrl_lib.o(.data)
    int32PriCurr1FilterADCQ0                 0x1fffc1c8   Data           4  ctrl_lib.o(.data)
    int32PriCurr2FilterADCQ0                 0x1fffc1cc   Data           4  ctrl_lib.o(.data)
    int32VoutCalibADCQ0                      0x1fffc1d0   Data           4  ctrl_lib.o(.data)
    int32IoutCalibADCQ0                      0x1fffc1d4   Data           4  ctrl_lib.o(.data)
    s32SumPriCurr1                           0x1fffc1d8   Data           4  ctrl_lib.o(.data)
    s32SumPriCurr2                           0x1fffc1dc   Data           4  ctrl_lib.o(.data)
    int32VoutSlewQ0                          0x1fffc1e0   Data           4  ctrl_lib.o(.data)
    int32IoutSlewQ0                          0x1fffc1e4   Data           4  ctrl_lib.o(.data)
    int32FreLimitQ0                          0x1fffc1e8   Data           4  ctrl_lib.o(.data)
    int32VoltErr                             0x1fffc1ec   Data           4  ctrl_lib.o(.data)
    int32CurrErr                             0x1fffc1f0   Data           4  ctrl_lib.o(.data)
    int32PriCurrErr                          0x1fffc1f4   Data           4  ctrl_lib.o(.data)
    int32PriCurrCtrlOut                      0x1fffc1f8   Data           4  ctrl_lib.o(.data)
    int32CtrlOut                             0x1fffc1fc   Data           4  ctrl_lib.o(.data)
    int32EpwmPrdUpdate                       0x1fffc200   Data           4  ctrl_lib.o(.data)
    int32P1Phase                             0x1fffc204   Data           4  ctrl_lib.o(.data)
    int32P2Phase                             0x1fffc208   Data           4  ctrl_lib.o(.data)
    s32SRDuty                                0x1fffc20c   Data           4  ctrl_lib.o(.data)
    int32VinFilterADCQ0                      0x1fffc210   Data           4  ctrl_lib.o(.data)
    int32VinCalibADCQ0                       0x1fffc214   Data           4  ctrl_lib.o(.data)
    int32VoutSetADCQ0                        0x1fffc218   Data           4  ctrl_lib.o(.data)
    int32IoutSetADCQ0                        0x1fffc21c   Data           4  ctrl_lib.o(.data)
    int32IoutLimitQ0                         0x1fffc220   Data           4  ctrl_lib.o(.data)
    SysPowerONState                          0x1fffc224   Data           2  ctrl_lib.o(.data)
    __stdout                                 0x1fffc228   Data           4  stdout.o(.data)
    m_au8RxBuf                               0x1fffc26c   Data          64  hc32f334_drivers.o(.bss)
    VloopCtrl                                0x1fffc2ac   Data          56  ctrl_lib.o(.bss)
    CloopCtrl                                0x1fffc2e4   Data          56  ctrl_lib.o(.bss)
    __initial_sp                             0x1fffcf20   Data           0  startup_hc32f334.o(STACK)



==============================================================================

Memory Map of the image

  Image Entry point : 0x00000289

  Load Region LR_IROM1 (Base: 0x00000000, Size: 0x00009f28, Max: 0x0000ffff, ABSOLUTE, COMPRESSED[0x00009d60])

    Execution Region ER_IROM1 (Exec base: 0x00000000, Load base: 0x00000000, Size: 0x00009d04, Max: 0x0000ffff, ABSOLUTE)

    Exec Addr    Load Addr    Size         Type   Attr      Idx    E Section Name        Object

    0x00000000   0x00000000   0x00000288   Data   RO            3    RESET               startup_hc32f334.o
    0x00000288   0x00000288   0x00000000   Code   RO         7297  * .ARM.Collect$$$$00000000  mc_w.l(entry.o)
    0x00000288   0x00000288   0x00000004   Code   RO         7575    .ARM.Collect$$$$00000001  mc_w.l(entry2.o)
    0x0000028c   0x0000028c   0x00000004   Code   RO         7578    .ARM.Collect$$$$00000004  mc_w.l(entry5.o)
    0x00000290   0x00000290   0x00000000   Code   RO         7580    .ARM.Collect$$$$00000008  mc_w.l(entry7b.o)
    0x00000290   0x00000290   0x00000000   Code   RO         7582    .ARM.Collect$$$$0000000A  mc_w.l(entry8b.o)
    0x00000290   0x00000290   0x00000008   Code   RO         7583    .ARM.Collect$$$$0000000B  mc_w.l(entry9a.o)
    0x00000298   0x00000298   0x00000004   Code   RO         7590    .ARM.Collect$$$$0000000E  mc_w.l(entry12b.o)
    0x0000029c   0x0000029c   0x00000000   Code   RO         7585    .ARM.Collect$$$$0000000F  mc_w.l(entry10a.o)
    0x0000029c   0x0000029c   0x00000000   Code   RO         7587    .ARM.Collect$$$$00000011  mc_w.l(entry11a.o)
    0x0000029c   0x0000029c   0x00000004   Code   RO         7576    .ARM.Collect$$$$00002712  mc_w.l(entry2.o)
    0x000002a0   0x000002a0   0x00000024   Code   RO            4    .text               startup_hc32f334.o
    0x000002c4   0x000002c4   0x00000062   Code   RO         7300    .text               mc_w.l(uldiv.o)
    0x00000326   0x00000326   0x0000001e   Code   RO         7302    .text               mc_w.l(llshl.o)
    0x00000344   0x00000344   0x00000024   Code   RO         7304    .text               mc_w.l(memseta.o)
    0x00000368   0x00000368   0x0000001a   Code   RO         7569    .text               mf_w.l(dfltui.o)
    0x00000382   0x00000382   0x00000018   Code   RO         7571    .text               mf_w.l(dfltul.o)
    0x0000039a   0x0000039a   0x00000038   Code   RO         7573    .text               mf_w.l(d2f.o)
    0x000003d2   0x000003d2   0x0000002c   Code   RO         7592    .text               mc_w.l(uidiv.o)
    0x000003fe   0x000003fe   0x00000000   Code   RO         7596    .text               mc_w.l(iusefp.o)
    0x000003fe   0x000003fe   0x00000002   Code   RO         6858    i.BSP_KEY_KEY1_IrqCallback  ev_hc32f334_lqfp64.o
    0x00000400   0x00000400   0x00000060   Data   RO           84    .ARM.__AT_0x00000400  hc32_ll_icg.o
    0x00000460   0x00000460   0x000000de   Code   RO         7567    .text               mf_w.l(ddiv.o)
    0x0000053e   0x0000053e   0x00000020   Code   RO         7594    .text               mc_w.l(llushr.o)
    0x0000055e   0x0000055e   0x0000006e   Code   RO         7597    .text               mf_w.l(fepilogue.o)
    0x000005cc   0x000005cc   0x000000ba   Code   RO         7599    .text               mf_w.l(depilogue.o)
    0x00000686   0x00000686   0x00000002   PAD
    0x00000688   0x00000688   0x00000024   Code   RO         7609    .text               mc_w.l(init.o)
    0x000006ac   0x000006ac   0x00000056   Code   RO         7621    .text               mc_w.l(__dczerorl2.o)
    0x00000702   0x00000702   0x00000002   PAD
    0x00000704   0x00000704   0x00000310   Code   RO         6538    i.ADC1_Handler      main.o
    0x00000a14   0x00000a14   0x000000b0   Code   RO          267    i.ADC_ChCmd         hc32_ll_adc.o
    0x00000ac4   0x00000ac4   0x000000dc   Code   RO          268    i.ADC_ChRemap       hc32_ll_adc.o
    0x00000ba0   0x00000ba0   0x000000c0   Code   RO          279    i.ADC_Init          hc32_ll_adc.o
    0x00000c60   0x00000c60   0x00000090   Code   RO          280    i.ADC_IntCmd        hc32_ll_adc.o
    0x00000cf0   0x00000cf0   0x00000084   Code   RO          286    i.ADC_SetSampleTime  hc32_ll_adc.o
    0x00000d74   0x00000d74   0x00000012   Code   RO          290    i.ADC_StructInit    hc32_ll_adc.o
    0x00000d86   0x00000d86   0x00000002   PAD
    0x00000d88   0x00000d88   0x00000094   Code   RO          293    i.ADC_TriggerCmd    hc32_ll_adc.o
    0x00000e1c   0x00000e1c   0x000000a0   Code   RO          294    i.ADC_TriggerConfig  hc32_ll_adc.o
    0x00000ebc   0x00000ebc   0x000001a0   Code   RO         6994    i.ADCx_Init         hc32f334_drivers.o
    0x0000105c   0x0000105c   0x00000190   Code   RO          526    i.AOS_SetTriggerEventSrc  hc32_ll_aos.o
    0x000011ec   0x000011ec   0x000000a8   Code   RO         6850    i.BSP_CLK_Init      ev_hc32f334_lqfp64.o
    0x00001294   0x00001294   0x00000002   Code   RO         6859    i.BSP_KEY_KEY2_IrqCallback  ev_hc32f334_lqfp64.o
    0x00001296   0x00001296   0x00000002   Code   RO         6860    i.BSP_KEY_KEY3_IrqCallback  ev_hc32f334_lqfp64.o
    0x00001298   0x00001298   0x00000054   Code   RO          564    i.CLK_GetStableStatus  hc32_ll_clk.o
    0x000012ec   0x000012ec   0x0000012c   Code   RO          574    i.CLK_PLLCmd        hc32_ll_clk.o
    0x00001418   0x00001418   0x000001d4   Code   RO          575    i.CLK_PLLInit       hc32_ll_clk.o
    0x000015ec   0x000015ec   0x00000034   Code   RO          576    i.CLK_PLLStructInit  hc32_ll_clk.o
    0x00001620   0x00001620   0x000001f4   Code   RO          578    i.CLK_SetClockDiv   hc32_ll_clk.o
    0x00001814   0x00001814   0x000000c8   Code   RO          581    i.CLK_SetSysClockSrc  hc32_ll_clk.o
    0x000018dc   0x000018dc   0x000000a0   Code   RO          588    i.CLK_XtalCmd       hc32_ll_clk.o
    0x0000197c   0x0000197c   0x000000f8   Code   RO          592    i.CLK_XtalInit      hc32_ll_clk.o
    0x00001a74   0x00001a74   0x0000001e   Code   RO          595    i.CLK_XtalStructInit  hc32_ll_clk.o
    0x00001a92   0x00001a92   0x00000002   PAD
    0x00001a94   0x00001a94   0x0000007c   Code   RO          798    i.CMP_CompareOutCmd  hc32_ll_cmp.o
    0x00001b10   0x00001b10   0x00000088   Code   RO          800    i.CMP_DelayUS       hc32_ll_cmp.o
    0x00001b98   0x00001b98   0x00000164   Code   RO          807    i.CMP_NormalModeInit  hc32_ll_cmp.o
    0x00001cfc   0x00001cfc   0x0000007c   Code   RO          808    i.CMP_PinVcoutCmd   hc32_ll_cmp.o
    0x00001d78   0x00001d78   0x00000018   Code   RO          821    i.CMP_StructInit    hc32_ll_cmp.o
    0x00001d90   0x00001d90   0x000000bc   Code   RO         6995    i.CalibrationRead   hc32f334_drivers.o
    0x00001e4c   0x00001e4c   0x00000084   Code   RO         6996    i.CalibrationWrite  hc32f334_drivers.o
    0x00001ed0   0x00001ed0   0x000000a0   Code   RO         6540    i.ControllerInit    main.o
    0x00001f70   0x00001f70   0x00000040   Code   RO         6997    i.Ctrl_TMR0_Config  hc32f334_drivers.o
    0x00001fb0   0x00001fb0   0x00000070   Code   RO         1201    i.DAC_ADCPrioCmd    hc32_ll_dac.o
    0x00002020   0x00002020   0x00000080   Code   RO         1202    i.DAC_ADCPrioConfig  hc32_ll_dac.o
    0x000020a0   0x000020a0   0x00000074   Code   RO         1204    i.DAC_DataRegAlignConfig  hc32_ll_dac.o
    0x00002114   0x00002114   0x000000dc   Code   RO         1205    i.DAC_DeInit        hc32_ll_dac.o
    0x000021f0   0x000021f0   0x00000114   Code   RO         1208    i.DAC_Init          hc32_ll_dac.o
    0x00002304   0x00002304   0x00000094   Code   RO         1209    i.DAC_OutputCmd     hc32_ll_dac.o
    0x00002398   0x00002398   0x00000098   Code   RO         1210    i.DAC_SetChData     hc32_ll_dac.o
    0x00002430   0x00002430   0x00000098   Code   RO         1212    i.DAC_SetDualChData  hc32_ll_dac.o
    0x000024c8   0x000024c8   0x00000094   Code   RO         1213    i.DAC_Start         hc32_ll_dac.o
    0x0000255c   0x0000255c   0x00000050   Code   RO         1214    i.DAC_StartDualCh   hc32_ll_dac.o
    0x000025ac   0x000025ac   0x00000014   Code   RO         1217    i.DAC_StructInit    hc32_ll_dac.o
    0x000025c0   0x000025c0   0x000000d0   Code   RO         6998    i.DACx_ConversionInit  hc32f334_drivers.o
    0x00002690   0x00002690   0x00000040   Code   RO         6400    i.DDL_AssertHandler  hc32_ll_utility.o
    0x000026d0   0x000026d0   0x0000004c   Code   RO         6401    i.DDL_ConsoleOutputChar  hc32_ll_utility.o
    0x0000271c   0x0000271c   0x00000044   Code   RO         6402    i.DDL_DelayMS       hc32_ll_utility.o
    0x00002760   0x00002760   0x00000044   Code   RO         6403    i.DDL_DelayUS       hc32_ll_utility.o
    0x000027a4   0x000027a4   0x00000078   Code   RO         1385    i.DMA_ChCmd         hc32_ll_dma.o
    0x0000281c   0x0000281c   0x0000005c   Code   RO         1387    i.DMA_ClearTransCompleteStatus  hc32_ll_dma.o
    0x00002878   0x00002878   0x0000005c   Code   RO         1388    i.DMA_Cmd           hc32_ll_dma.o
    0x000028d4   0x000028d4   0x00000104   Code   RO         6999    i.DMA_Config        hc32f334_drivers.o
    0x000029d8   0x000029d8   0x00000050   Code   RO         1402    i.DMA_GetTransCompleteStatus  hc32_ll_dma.o
    0x00002a28   0x00002a28   0x00000114   Code   RO         1405    i.DMA_Init          hc32_ll_dma.o
    0x00002b3c   0x00002b3c   0x000000cc   Code   RO         1419    i.DMA_RepeatInit    hc32_ll_dma.o
    0x00002c08   0x00002c08   0x00000018   Code   RO         1420    i.DMA_RepeatStructInit  hc32_ll_dma.o
    0x00002c20   0x00002c20   0x00000060   Code   RO         1431    i.DMA_SetSrcAddr    hc32_ll_dma.o
    0x00002c80   0x00002c80   0x00000068   Code   RO         1433    i.DMA_SetTransCount  hc32_ll_dma.o
    0x00002ce8   0x00002ce8   0x00000024   Code   RO         1434    i.DMA_StructInit    hc32_ll_dma.o
    0x00002d0c   0x00002d0c   0x00000064   Code   RO         1716    i.EFM_CacheRamReset  hc32_ll_efm.o
    0x00002d70   0x00002d70   0x00000064   Code   RO         1719    i.EFM_DCacheCmd     hc32_ll_efm.o
    0x00002dd4   0x00002dd4   0x00000060   Code   RO         1720    i.EFM_FWMC_Cmd      hc32_ll_efm.o
    0x00002e34   0x00002e34   0x00000058   Code   RO         1725    i.EFM_GetStatus     hc32_ll_efm.o
    0x00002e8c   0x00002e8c   0x00000064   Code   RO         1729    i.EFM_ICacheCmd     hc32_ll_efm.o
    0x00002ef0   0x00002ef0   0x00000064   Code   RO         1736    i.EFM_PrefetchCmd   hc32_ll_efm.o
    0x00002f54   0x00002f54   0x0000014c   Code   RO         1738    i.EFM_ProgramWord   hc32_ll_efm.o
    0x000030a0   0x000030a0   0x000000fc   Code   RO         1747    i.EFM_ReadByte      hc32_ll_efm.o
    0x0000319c   0x0000319c   0x00000140   Code   RO         1748    i.EFM_SectorErase   hc32_ll_efm.o
    0x000032dc   0x000032dc   0x000000ac   Code   RO         1753    i.EFM_SetWaitCycle  hc32_ll_efm.o
    0x00003388   0x00003388   0x00000060   Code   RO         1754    i.EFM_SingleSectorOperateCmd  hc32_ll_efm.o
    0x000033e8   0x000033e8   0x00000064   Code   RO         1756    i.EFM_WaitFlag      hc32_ll_efm.o
    0x0000344c   0x0000344c   0x000000b0   Code   RO         1990    i.EMB_ClearStatus   hc32_ll_emb.o
    0x000034fc   0x000034fc   0x000004dc   Code   RO         1993    i.EMB_HRPWM_Init    hc32_ll_emb.o
    0x000039d8   0x000039d8   0x00000072   Code   RO         1994    i.EMB_HRPWM_StructInit  hc32_ll_emb.o
    0x00003a4a   0x00003a4a   0x00000002   PAD
    0x00003a4c   0x00003a4c   0x00000138   Code   RO         7000    i.EMB_Init          hc32f334_drivers.o
    0x00003b84   0x00003b84   0x000000cc   Code   RO         1997    i.EMB_SetReleasePwmCond  hc32_ll_emb.o
    0x00003c50   0x00003c50   0x00000030   Code   RO         6867    i.EXTINT00_SWINT16_Handler  ev_hc32f334_lqfp64.o
    0x00003c80   0x00003c80   0x00000030   Code   RO         6868    i.EXTINT03_SWINT19_Handler  ev_hc32f334_lqfp64.o
    0x00003cb0   0x00003cb0   0x00000034   Code   RO         6869    i.EXTINT09_SWINT25_Handler  ev_hc32f334_lqfp64.o
    0x00003ce4   0x00003ce4   0x00000054   Code   RO         3118    i.EXTINT_ClearExtIntStatus  hc32_ll_interrupts.o
    0x00003d38   0x00003d38   0x000000dc   Code   RO         6688    i.ExternEventConfig  hrtimer.o
    0x00003e14   0x00003e14   0x00000080   Code   RO         2169    i.FCG_Fcg0PeriphClockCmd  hc32_ll_fcg.o
    0x00003e94   0x00003e94   0x00000068   Code   RO         2171    i.FCG_Fcg2PeriphClockCmd  hc32_ll_fcg.o
    0x00003efc   0x00003efc   0x00000068   Code   RO         2172    i.FCG_Fcg3PeriphClockCmd  hc32_ll_fcg.o
    0x00003f64   0x00003f64   0x000000b4   Code   RO         2316    i.GPIO_AnalogCmd    hc32_ll_gpio.o
    0x00004018   0x00004018   0x00000084   Code   RO         2319    i.GPIO_HrpwmPinCmd  hc32_ll_gpio.o
    0x0000409c   0x0000409c   0x00000224   Code   RO         2321    i.GPIO_Init         hc32_ll_gpio.o
    0x000042c0   0x000042c0   0x00000074   Code   RO         2324    i.GPIO_ReadInputPins  hc32_ll_gpio.o
    0x00004334   0x00004334   0x00000070   Code   RO         2328    i.GPIO_ResetPins    hc32_ll_gpio.o
    0x000043a4   0x000043a4   0x0000008c   Code   RO         2329    i.GPIO_SetDebugPort  hc32_ll_gpio.o
    0x00004430   0x00004430   0x000000c4   Code   RO         2330    i.GPIO_SetFunc      hc32_ll_gpio.o
    0x000044f4   0x000044f4   0x00000070   Code   RO         2331    i.GPIO_SetPins      hc32_ll_gpio.o
    0x00004564   0x00004564   0x00000098   Code   RO         2332    i.GPIO_SetReadWaitCycle  hc32_ll_gpio.o
    0x000045fc   0x000045fc   0x0000002a   Code   RO         2334    i.GPIO_StructInit   hc32_ll_gpio.o
    0x00004626   0x00004626   0x00000002   PAD
    0x00004628   0x00004628   0x00000070   Code   RO         2336    i.GPIO_TogglePins   hc32_ll_gpio.o
    0x00004698   0x00004698   0x000001ac   Code   RO         7002    i.Gpio_Init         hc32f334_drivers.o
    0x00004844   0x00004844   0x00000012   Code   RO         2468    i.HRPWM_BufStructInit  hc32_ll_hrpwm.o
    0x00004856   0x00004856   0x00000002   PAD
    0x00004858   0x00004858   0x0000009c   Code   RO         2470    i.HRPWM_CALIB_ProcessSingle  hc32_ll_hrpwm.o
    0x000048f4   0x000048f4   0x000001a8   Code   RO         2475    i.HRPWM_DeInit      hc32_ll_hrpwm.o
    0x00004a9c   0x00004a9c   0x00000100   Code   RO         2476    i.HRPWM_DeadTimeBufConfig  hc32_ll_hrpwm.o
    0x00004b9c   0x00004b9c   0x000000e0   Code   RO         2477    i.HRPWM_DeadTimeConfig  hc32_ll_hrpwm.o
    0x00004c7c   0x00004c7c   0x00000012   Code   RO         2478    i.HRPWM_DeadTimeStructInit  hc32_ll_hrpwm.o
    0x00004c8e   0x00004c8e   0x00000002   PAD
    0x00004c90   0x00004c90   0x00000118   Code   RO         2479    i.HRPWM_EMB_ChAConfig  hc32_ll_hrpwm.o
    0x00004da8   0x00004da8   0x00000118   Code   RO         2481    i.HRPWM_EMB_ChBConfig  hc32_ll_hrpwm.o
    0x00004ec0   0x00004ec0   0x00000012   Code   RO         2483    i.HRPWM_EMB_StructInit  hc32_ll_hrpwm.o
    0x00004ed2   0x00004ed2   0x00000002   PAD
    0x00004ed4   0x00004ed4   0x000001ec   Code   RO         2484    i.HRPWM_EVT_Config  hc32_ll_hrpwm.o
    0x000050c0   0x000050c0   0x00000168   Code   RO         2485    i.HRPWM_EVT_FilterConfig  hc32_ll_hrpwm.o
    0x00005228   0x00005228   0x00000118   Code   RO         2486    i.HRPWM_EVT_FilterSignalConfig  hc32_ll_hrpwm.o
    0x00005340   0x00005340   0x00000016   Code   RO         2487    i.HRPWM_EVT_FilterSignalStructInit  hc32_ll_hrpwm.o
    0x00005356   0x00005356   0x00000012   Code   RO         2488    i.HRPWM_EVT_FilterStructInit  hc32_ll_hrpwm.o
    0x00005368   0x00005368   0x0000001a   Code   RO         2490    i.HRPWM_EVT_StructInit  hc32_ll_hrpwm.o
    0x00005382   0x00005382   0x00000002   PAD
    0x00005384   0x00005384   0x00000100   Code   RO         2492    i.HRPWM_GeneralAEBufConfig  hc32_ll_hrpwm.o
    0x00005484   0x00005484   0x00000100   Code   RO         2493    i.HRPWM_GeneralBFBufConfig  hc32_ll_hrpwm.o
    0x00005584   0x00005584   0x00000190   Code   RO         2494    i.HRPWM_IDLE_BM_Init  hc32_ll_hrpwm.o
    0x00005714   0x00005714   0x00000128   Code   RO         2495    i.HRPWM_IDLE_BM_OutputInit  hc32_ll_hrpwm.o
    0x0000583c   0x0000583c   0x00000018   Code   RO         2496    i.HRPWM_IDLE_BM_OutputStructInit  hc32_ll_hrpwm.o
    0x00005854   0x00005854   0x0000001c   Code   RO         2497    i.HRPWM_IDLE_BM_StructInit  hc32_ll_hrpwm.o
    0x00005870   0x00005870   0x00000134   Code   RO         2498    i.HRPWM_IDLE_DELAY_Init  hc32_ll_hrpwm.o
    0x000059a4   0x000059a4   0x00000014   Code   RO         2499    i.HRPWM_IDLE_DELAY_StructInit  hc32_ll_hrpwm.o
    0x000059b8   0x000059b8   0x000000d4   Code   RO         2500    i.HRPWM_Init        hc32_ll_hrpwm.o
    0x00005a8c   0x00005a8c   0x00000080   Code   RO         6691    i.HRPWM_MatchSpecialEventEnable  hrtimer.o
    0x00005b0c   0x00005b0c   0x000000ec   Code   RO         2501    i.HRPWM_PH_Config   hc32_ll_hrpwm.o
    0x00005bf8   0x00005bf8   0x00000014   Code   RO         2502    i.HRPWM_PH_StructInit  hc32_ll_hrpwm.o
    0x00005c0c   0x00005c0c   0x0000030c   Code   RO         2503    i.HRPWM_PWM_ChAInit  hc32_ll_hrpwm.o
    0x00005f18   0x00005f18   0x00000308   Code   RO         2505    i.HRPWM_PWM_ChBInit  hc32_ll_hrpwm.o
    0x00006220   0x00006220   0x00000034   Code   RO         2510    i.HRPWM_PWM_StructInit  hc32_ll_hrpwm.o
    0x00006254   0x00006254   0x00000100   Code   RO         2511    i.HRPWM_PeriodBufConfig  hc32_ll_hrpwm.o
    0x00006354   0x00006354   0x00000088   Code   RO         6692    i.HRPWM_SetUnitGlobalBufFlagSrc  hrtimer.o
    0x000063dc   0x000063dc   0x00000100   Code   RO         2514    i.HRPWM_SpecialABufConfig  hc32_ll_hrpwm.o
    0x000064dc   0x000064dc   0x00000100   Code   RO         2515    i.HRPWM_SpecialBBufConfig  hc32_ll_hrpwm.o
    0x000065dc   0x000065dc   0x0000001c   Code   RO         2516    i.HRPWM_StructInit  hc32_ll_hrpwm.o
    0x000065f8   0x000065f8   0x000000cc   Code   RO         6694    i.HRTIM_BM_Conf     hrtimer.o
    0x000066c4   0x000066c4   0x00000a80   Code   RO         6695    i.HRTIM_Config      hrtimer.o
    0x00007144   0x00007144   0x0000015c   Code   RO         6696    i.HRTIM_IDLE_Conf   hrtimer.o
    0x000072a0   0x000072a0   0x00000014   Code   RO         3132    i.IRQ000_Handler    hc32_ll_interrupts.o
    0x000072b4   0x000072b4   0x00000014   Code   RO         3133    i.IRQ001_Handler    hc32_ll_interrupts.o
    0x000072c8   0x000072c8   0x00000014   Code   RO         3134    i.IRQ002_Handler    hc32_ll_interrupts.o
    0x000072dc   0x000072dc   0x00000014   Code   RO         3135    i.IRQ003_Handler    hc32_ll_interrupts.o
    0x000072f0   0x000072f0   0x00000014   Code   RO         3136    i.IRQ004_Handler    hc32_ll_interrupts.o
    0x00007304   0x00007304   0x00000014   Code   RO         3137    i.IRQ005_Handler    hc32_ll_interrupts.o
    0x00007318   0x00007318   0x00000014   Code   RO         3138    i.IRQ006_Handler    hc32_ll_interrupts.o
    0x0000732c   0x0000732c   0x00000014   Code   RO         3139    i.IRQ007_Handler    hc32_ll_interrupts.o
    0x00007340   0x00007340   0x00000014   Code   RO         3140    i.IRQ008_Handler    hc32_ll_interrupts.o
    0x00007354   0x00007354   0x00000014   Code   RO         3141    i.IRQ009_Handler    hc32_ll_interrupts.o
    0x00007368   0x00007368   0x00000014   Code   RO         3142    i.IRQ010_Handler    hc32_ll_interrupts.o
    0x0000737c   0x0000737c   0x00000014   Code   RO         3143    i.IRQ011_Handler    hc32_ll_interrupts.o
    0x00007390   0x00007390   0x00000014   Code   RO         3144    i.IRQ012_Handler    hc32_ll_interrupts.o
    0x000073a4   0x000073a4   0x00000014   Code   RO         3145    i.IRQ013_Handler    hc32_ll_interrupts.o
    0x000073b8   0x000073b8   0x00000014   Code   RO         3146    i.IRQ014_Handler    hc32_ll_interrupts.o
    0x000073cc   0x000073cc   0x00000014   Code   RO         3147    i.IRQ015_Handler    hc32_ll_interrupts.o
    0x000073e0   0x000073e0   0x000000c8   Code   RO         6542    i.Inter2Asciix      main.o
    0x000074a8   0x000074a8   0x00000378   Code   RO         7116    i.LLC_CTRL_Loop     Ctrl_Lib.lib(ctrl_lib.o)
    0x00007820   0x00007820   0x000000ac   Code   RO         7003    i.LLC_CmpConfig     hc32f334_drivers.o
    0x000078cc   0x000078cc   0x00000094   Code   RO          112    i.LL_PERIPH_WE      hc32_ll.o
    0x00007960   0x00007960   0x00000124   Code   RO         6543    i.LedDriverMang     main.o
    0x00007a84   0x00007a84   0x000001a0   Code   RO         6544    i.LogoDataUpdate    main.o
    0x00007c24   0x00007c24   0x00000218   Code   RO         6545    i.SwFualtCheck      main.o
    0x00007e3c   0x00007e3c   0x00000164   Code   RO         6546    i.SysStateMachineMag  main.o
    0x00007fa0   0x00007fa0   0x0000009c   Code   RO           13    i.SystemCoreClockUpdate  system_hc32f334.o
    0x0000803c   0x0000803c   0x00000020   Code   RO           14    i.SystemInit        system_hc32f334.o
    0x0000805c   0x0000805c   0x00000138   Code   RO         4827    i.TMR0_Init         hc32_ll_tmr0.o
    0x00008194   0x00008194   0x00000080   Code   RO         4834    i.TMR0_Start        hc32_ll_tmr0.o
    0x00008214   0x00008214   0x0000001e   Code   RO         4836    i.TMR0_StructInit   hc32_ll_tmr0.o
    0x00008232   0x00008232   0x00000002   PAD
    0x00008234   0x00008234   0x0000005c   Code   RO         4837    i.TMR0_WaitSyncDone  hc32_ll_tmr0.o
    0x00008290   0x00008290   0x00000028   Code   RO         6707    i.TMR6_1_SCmp_Handler  hrtimer.o
    0x000082b8   0x000082b8   0x00000038   Code   RO         6708    i.TMR6_2_IrqHandler  hrtimer.o
    0x000082f0   0x000082f0   0x00000034   Code   RO         6709    i.TMR6_IrqHandler   hrtimer.o
    0x00008324   0x00008324   0x00000188   Code   RO         5799    i.TMRA_Init         hc32_ll_tmra.o
    0x000084ac   0x000084ac   0x00000118   Code   RO         5801    i.TMRA_PWM_Init     hc32_ll_tmra.o
    0x000085c4   0x000085c4   0x0000009c   Code   RO         5802    i.TMRA_PWM_OutputCmd  hc32_ll_tmra.o
    0x00008660   0x00008660   0x0000001e   Code   RO         5805    i.TMRA_PWM_StructInit  hc32_ll_tmra.o
    0x0000867e   0x0000867e   0x00000002   PAD
    0x00008680   0x00008680   0x00000080   Code   RO         5808    i.TMRA_SetCompareValue  hc32_ll_tmra.o
    0x00008700   0x00008700   0x00000074   Code   RO         5814    i.TMRA_SetPeriodValue  hc32_ll_tmra.o
    0x00008774   0x00008774   0x0000007c   Code   RO         5816    i.TMRA_Start        hc32_ll_tmra.o
    0x000087f0   0x000087f0   0x00000020   Code   RO         5818    i.TMRA_StructInit   hc32_ll_tmra.o
    0x00008810   0x00008810   0x0000004c   Code   RO         7004    i.TemperatureBaseLookUpTable  hc32f334_drivers.o
    0x0000885c   0x0000885c   0x00000094   Code   RO         7005    i.TmrAConfig        hc32f334_drivers.o
    0x000088f0   0x000088f0   0x0000003c   Code   RO         7006    i.USART2Config      hc32f334_drivers.o
    0x0000892c   0x0000892c   0x00000110   Code   RO         6039    i.USART_FuncCmd     hc32_ll_usart.o
    0x00008a3c   0x00008a3c   0x00000088   Code   RO         6046    i.USART_GetStatus   hc32_ll_usart.o
    0x00008ac4   0x00008ac4   0x000005bc   Code   RO         6064    i.USART_SetBaudrate  hc32_ll_usart.o
    0x00009080   0x00009080   0x0000019c   Code   RO         6082    i.USART_UART_Init   hc32_ll_usart.o
    0x0000921c   0x0000921c   0x0000002c   Code   RO         6084    i.USART_UART_StructInit  hc32_ll_usart.o
    0x00009248   0x00009248   0x0000003c   Code   RO         7008    i.Usart2_TxEnable   hc32f334_drivers.o
    0x00009284   0x00009284   0x00000026   Code   RO         7009    i.WDT_Config        hc32f334_drivers.o
    0x000092aa   0x000092aa   0x00000002   PAD
    0x000092ac   0x000092ac   0x00000014   Code   RO         6497    i.WDT_FeedDog       hc32_ll_wdt.o
    0x000092c0   0x000092c0   0x00000148   Code   RO         6499    i.WDT_Init          hc32_ll_wdt.o
    0x00009408   0x00009408   0x00000020   Code   RO         7395    i.__0printf$3       mc_w.l(printf3.o)
    0x00009428   0x00009428   0x0000000e   Code   RO         7615    i.__scatterload_copy  mc_w.l(handlers.o)
    0x00009436   0x00009436   0x00000002   Code   RO         7616    i.__scatterload_null  mc_w.l(handlers.o)
    0x00009438   0x00009438   0x0000000e   Code   RO         7617    i.__scatterload_zeroinit  mc_w.l(handlers.o)
    0x00009446   0x00009446   0x00000002   PAD
    0x00009448   0x00009448   0x000001b8   Code   RO         7402    i._printf_core      mc_w.l(printf3.o)
    0x00009600   0x00009600   0x00000016   Code   RO         6411    i.fputc             hc32_ll_utility.o
    0x00009616   0x00009616   0x00000002   PAD
    0x00009618   0x00009618   0x00000560   Code   RO         6547    i.main              main.o
    0x00009b78   0x00009b78   0x00000008   Data   RO         1218    .constdata          hc32_ll_dac.o
    0x00009b80   0x00009b80   0x00000020   Data   RO         6089    .constdata          hc32_ll_usart.o
    0x00009ba0   0x00009ba0   0x00000142   Data   RO         7011    .constdata          hc32f334_drivers.o
    0x00009ce2   0x00009ce2   0x00000002   PAD
    0x00009ce4   0x00009ce4   0x00000020   Data   RO         7613    Region$$Table       anon$$obj.o


    Execution Region RW_IRAM1 (Exec base: 0x1fffc000, Load base: 0x00009d04, Size: 0x00000008, Max: 0x00000008, ABSOLUTE, UNINIT)

    Exec Addr    Load Addr    Size         Type   Attr      Idx    E Section Name        Object

    0x1fffc000        -       0x00000008   Zero   RW           15    .bss.noinit         system_hc32f334.o


    Execution Region RW_IRAM2 (Exec base: 0x1fffc008, Load base: 0x00009d04, Size: 0x00000f18, Max: 0x0000fff8, ABSOLUTE, COMPRESSED[0x0000005c])

    Exec Addr    Load Addr    Size         Type   Attr      Idx    E Section Name        Object

    0x1fffc008   COMPRESSED   0x00000010   Data   RW         6412    .data               hc32_ll_utility.o
    0x1fffc018   COMPRESSED   0x0000010c   Data   RW         6552    .data               main.o
    0x1fffc124   COMPRESSED   0x00000008   Data   RW         6710    .data               hrtimer.o
    0x1fffc12c   COMPRESSED   0x00000004   Data   RW         6871    .data               ev_hc32f334_lqfp64.o
    0x1fffc130   COMPRESSED   0x00000080   Data   RW         7012    .data               hc32f334_drivers.o
    0x1fffc1b0   COMPRESSED   0x00000004   Data   RW         7120    .data               Ctrl_Lib.lib(ctrl_lib.o)
    0x1fffc1b4   COMPRESSED   0x0000005c   Data   RW         7121    .data               Ctrl_Lib.lib(ctrl_lib.o)
    0x1fffc210   COMPRESSED   0x00000004   Data   RW         7122    .data               Ctrl_Lib.lib(ctrl_lib.o)
    0x1fffc214   COMPRESSED   0x00000004   Data   RW         7123    .data               Ctrl_Lib.lib(ctrl_lib.o)
    0x1fffc218   COMPRESSED   0x00000004   Data   RW         7124    .data               Ctrl_Lib.lib(ctrl_lib.o)
    0x1fffc21c   COMPRESSED   0x00000004   Data   RW         7125    .data               Ctrl_Lib.lib(ctrl_lib.o)
    0x1fffc220   COMPRESSED   0x00000004   Data   RW         7126    .data               Ctrl_Lib.lib(ctrl_lib.o)
    0x1fffc224   COMPRESSED   0x00000002   Data   RW         7128    .data               Ctrl_Lib.lib(ctrl_lib.o)
    0x1fffc226   COMPRESSED   0x00000002   PAD
    0x1fffc228   COMPRESSED   0x00000004   Data   RW         7591    .data               mc_w.l(stdout.o)
    0x1fffc22c        -       0x00000040   Zero   RW         3153    .bss                hc32_ll_interrupts.o
    0x1fffc26c        -       0x00000040   Zero   RW         7010    .bss                hc32f334_drivers.o
    0x1fffc2ac        -       0x00000070   Zero   RW         7119    .bss                Ctrl_Lib.lib(ctrl_lib.o)
    0x1fffc31c   COMPRESSED   0x00000004   PAD
    0x1fffc320        -       0x00000c00   Zero   RW            1    STACK               startup_hc32f334.o


    Execution Region RW_IRAMB (Exec base: 0x200f0000, Load base: 0x00009d60, Size: 0x00000000, Max: 0x00001000, ABSOLUTE)

    **** No section assigned to this execution region ****


==============================================================================

Image component sizes


      Code (inc. data)   RO Data    RW Data    ZI Data      Debug   Object Name

       322         26          0          4          0       5397   ev_hc32f334_lqfp64.o
       148         30          0          0          0      81631   hc32_ll.o
      1190        362          0          0          0      10524   hc32_ll_adc.o
       400        178          0          0          0        845   hc32_ll_aos.o
      2042        278          0          0          0      16038   hc32_ll_clk.o
       764        162          0          0          0       7404   hc32_ll_cmp.o
      1552        502          8          0          0      10501   hc32_ll_dac.o
      1124        360          0          0          0      10815   hc32_ll_dma.o
      1856        614          0          0          0      18548   hc32_ll_efm.o
      1738        234          0          0          0      11042   hc32_ll_emb.o
       336        158          0          0          0       2215   hc32_ll_fcg.o
      1842        550          0          0          0      12388   hc32_ll_gpio.o
      7332       1088          0          0          0     100301   hc32_ll_hrpwm.o
         0          0         96          0          0        734   hc32_ll_icg.o
       404        154          0          0         64      42610   hc32_ll_interrupts.o
       562        106          0          0          0       4959   hc32_ll_tmr0.o
      1258        316          0          0          0      11167   hc32_ll_tmra.o
      2332        258         32          0          0      11931   hc32_ll_usart.o
       298         78          0         16          0       4736   hc32_ll_utility.o
       348         60          0          0          0       3077   hc32_ll_wdt.o
      2562        216        322        128         64      11097   hc32f334_drivers.o
      3872        212          0          8          0      87440   hrtimer.o
      4120        338          0        268          0      17374   main.o
        36          8        648          0       3072        880   startup_hc32f334.o
       188         42          0          0          8     394793   system_hc32f334.o

    ----------------------------------------------------------------------
     36650       6330       1140        424       3208     878447   Object Totals
         0          0         32          0          0          0   (incl. Generated)
        24          0          2          0          0          0   (incl. Padding)

    ----------------------------------------------------------------------

      Code (inc. data)   RO Data    RW Data    ZI Data      Debug   Library Member Name

       888         46          0        118        112       8050   ctrl_lib.o
        86          0          0          0          0          0   __dczerorl2.o
         0          0          0          0          0          0   entry.o
         0          0          0          0          0          0   entry10a.o
         0          0          0          0          0          0   entry11a.o
         4          0          0          0          0          0   entry12b.o
         8          4          0          0          0          0   entry2.o
         4          0          0          0          0          0   entry5.o
         0          0          0          0          0          0   entry7b.o
         0          0          0          0          0          0   entry8b.o
         8          4          0          0          0          0   entry9a.o
        30          0          0          0          0          0   handlers.o
        36          8          0          0          0         68   init.o
         0          0          0          0          0          0   iusefp.o
        30          0          0          0          0         68   llshl.o
        32          0          0          0          0         68   llushr.o
        36          0          0          0          0        108   memseta.o
       472         14          0          0          0        184   printf3.o
         0          0          0          4          0          0   stdout.o
        44          0          0          0          0         80   uidiv.o
        98          0          0          0          0         92   uldiv.o
        56          0          0          0          0         88   d2f.o
       222          0          0          0          0        100   ddiv.o
       186          0          0          0          0        176   depilogue.o
        26          0          0          0          0         76   dfltui.o
        24          0          0          0          0         76   dfltul.o
       110          0          0          0          0        168   fepilogue.o

    ----------------------------------------------------------------------
      2406         76          0        124        116       9402   Library Totals
         6          0          0          2          4          0   (incl. Padding)

    ----------------------------------------------------------------------

      Code (inc. data)   RO Data    RW Data    ZI Data      Debug   Library Name

       888         46          0        118        112       8050   Ctrl_Lib.lib
       888         30          0          4          0        668   mc_w.l
       624          0          0          0          0        684   mf_w.l

    ----------------------------------------------------------------------
      2406         76          0        124        116       9402   Library Totals

    ----------------------------------------------------------------------

==============================================================================


      Code (inc. data)   RO Data    RW Data    ZI Data      Debug   

     39056       6406       1140        548       3324     869009   Grand Totals
     39056       6406       1140         92       3324     869009   ELF Image Totals (compressed)
     39056       6406       1140         92          0          0   ROM Totals

==============================================================================

    Total RO  Size (Code + RO Data)                40196 (  39.25kB)
    Total RW  Size (RW Data + ZI Data)              3872 (   3.78kB)
    Total ROM Size (Code + RO Data + RW Data)      40288 (  39.34kB)

==============================================================================

