Component: ARM Compiler 5.06 update 7 (build 960) Tool: armlink [4d3601]

==============================================================================

Section Cross References

    main.o(i.ledprocess) refers to main.o(i.ll_gpio_bit_set) for ll_gpio_bit_set
    main.o(i.ledprocess) refers to main.o(i.ll_gpio_bit_reset) for ll_gpio_bit_reset
    main.o(i.ledprocess) refers to chead.o(.bss) for ev7kw
    main.o(i.ledprocess) refers to main.o(.data) for led_cnt
    main.o(i.ledprocess) refers to chead.o(.data) for login_ok
    main.o(i.main) refers to tx_phe_ll_gpio.o(i.ll_gpio_dir) for ll_gpio_dir
    main.o(i.main) refers to tx_phe_ll_gpio.o(i.ll_gpio_pull) for ll_gpio_pull
    main.o(i.main) refers to main.o(i.ll_gpio_bit_reset) for ll_gpio_bit_reset
    main.o(i.main) refers to main.o(i.ll_gpio_bit_set) for ll_gpio_bit_set
    main.o(i.main) refers to chead.o(i.param_init) for param_init
    main.o(i.main) refers to utimer.o(i.utimer_init) for utimer_init
    main.o(i.main) refers to utimer.o(i.utimer_config) for utimer_config
    main.o(i.main) refers to serial.o(i.serial_init) for serial_init
    main.o(i.main) refers to serial.o(i.serial_config) for serial_config
    main.o(i.main) refers to utimer.o(i.utimer_start) for utimer_start
    main.o(i.main) refers to utimer.o(i.timer1_init) for timer1_init
    main.o(i.main) refers to utimer.o(i.timer1_config) for timer1_config
    main.o(i.main) refers to chead.o(i.km1_off) for km1_off
==============================================================================

Removing Unused input sections from the image.

    Removing main.o(.rev16_text), (4 bytes).
    Removing main.o(.revsh_text), (4 bytes).
    Removing main.o(.rrx_text), (6 bytes).
    Removing tx_phe_irq.o(.rev16_text), (4 bytes).
    Removing tx_phe_irq.o(.revsh_text), (4 bytes).
    Removing tx_phe_irq.o(.rrx_text), (6 bytes).
    Removing user.o(.rev16_text), (4 bytes).
    Removing user.o(.revsh_text), (4 bytes).
    Removing user.o(.rrx_text), (6 bytes).
    Removing user.o(i.modbus_config), (2 bytes).
    Removing user.o(i.modbus_deinit), (2 bytes).
    Removing user.o(i.modbus_handle), (8 bytes).
    Removing user.o(i.modbus_init), (52 bytes).
    Removing user.o(i.modbus_start), (44 bytes).
    Removing user.o(i.modbus_stop), (44 bytes).
    Removing user.o(i.usart_config), (68 bytes).
    Removing user.o(i.usart_deinit), (16 bytes).
    Removing user.o(i.usart_init), (20 bytes).
==============================================================================

Adding Veneers to the image

    Adding TT veneer (10 bytes, Long) for call to 'system_init' from tx_phe_startup.o(i.$Sub$$main).
    Adding TT veneer (10 bytes, Long) for call to '$Super$$main' from tx_phe_startup.o(i.$Sub$$main).
    Adding TT veneer (10 bytes, Long) for call to '__aeabi_uldivmod' from printf8.o(i._printf_core).
    Adding TT veneer (10 bytes, Long) for call to '__2printf' from tx_phe_system.o(i.dump_fault_state).

4 Veneer(s) (total 40 bytes) added to the image.

==============================================================================

Image Symbol Table

    Local Symbols

    Symbol Name                              Value     Ov Type        Size  Object(Section)

    ../clib/../cmprslib/zerorunl2.c          0x00000000   Number         0  __dczerorl2.o ABSOLUTE
    ../clib/microlib/division.c              0x00000000   Number         0  uldiv.o ABSOLUTE
    ../clib/microlib/division.c              0x00000000   Number         0  uidiv.o ABSOLUTE
    ../clib/microlib/init/entry.s            0x00000000   Number         0  entry8b.o ABSOLUTE
    ../clib/microlib/init/entry.s            0x00000000   Number         0  entry12b.o ABSOLUTE
    ../clib/microlib/init/entry.s            0x00000000   Number         0  entry5.o ABSOLUTE
    ../clib/microlib/init/entry.s            0x00000000   Number         0  entry4.o ABSOLUTE
    ../clib/microlib/init/entry.s            0x00000000   Number         0  entry8a.o ABSOLUTE
    ../clib/microlib/init/entry.s            0x00000000   Number         0  entry7b.o ABSOLUTE
    ../clib/microlib/init/entry.s            0x00000000   Number         0  entry12a.o ABSOLUTE
    ../clib/microlib/init/entry.s            0x00000000   Number         0  entry11b.o ABSOLUTE
    ../clib/microlib/init/entry.s            0x00000000   Number         0  entry11a.o ABSOLUTE
    ../clib/microlib/init/entry.s            0x00000000   Number         0  entry7a.o ABSOLUTE
    ../clib/microlib/init/entry.s            0x00000000   Number         0  entry.o ABSOLUTE
    ../clib/microlib/init/entry.s            0x00000000   Number         0  entry10b.o ABSOLUTE
    ../clib/microlib/init/entry.s            0x00000000   Number         0  entry10a.o ABSOLUTE
    ../clib/microlib/init/entry.s            0x00000000   Number         0  entry9b.o ABSOLUTE
    ../clib/microlib/init/entry.s            0x00000000   Number         0  entry9a.o ABSOLUTE
    ../clib/microlib/longlong.c              0x00000000   Number         0  llsshr.o ABSOLUTE
    ../clib/microlib/longlong.c              0x00000000   Number         0  llushr.o ABSOLUTE
    ../clib/microlib/longlong.c              0x00000000   Number         0  llshl.o ABSOLUTE
    ../clib/microlib/printf/printf.c         0x00000000   Number         0  printf1.o ABSOLUTE
    ../clib/microlib/printf/printf.c         0x00000000   Number         0  printf4.o ABSOLUTE
    ../clib/microlib/printf/printf.c         0x00000000   Number         0  printf3.o ABSOLUTE
    ../clib/microlib/printf/printf.c         0x00000000   Number         0  printf2.o ABSOLUTE
    ../clib/microlib/printf/printf.c         0x00000000   Number         0  printf0.o ABSOLUTE
    ../clib/microlib/printf/printf.c         0x00000000   Number         0  printfb.o ABSOLUTE
    ../clib/microlib/printf/printf.c         0x00000000   Number         0  printf5.o ABSOLUTE
    ../clib/microlib/printf/printf.c         0x00000000   Number         0  printfa.o ABSOLUTE
    ../clib/microlib/printf/printf.c         0x00000000   Number         0  printf8.o ABSOLUTE
    ../clib/microlib/printf/printf.c         0x00000000   Number         0  printf7.o ABSOLUTE
    ../clib/microlib/printf/printf.c         0x00000000   Number         0  printf6.o ABSOLUTE
    ../clib/microlib/printf/stubs.s          0x00000000   Number         0  stubs.o ABSOLUTE
    ../clib/microlib/string/memcpy.c         0x00000000   Number         0  memcpyb.o ABSOLUTE
    ../clib/microlib/string/memcpy.c         0x00000000   Number         0  memcpya.o ABSOLUTE
    ../clib/microlib/string/memset.c         0x00000000   Number         0  memseta.o ABSOLUTE
    ../clib/microlib/stubs.s                 0x00000000   Number         0  iusefp.o ABSOLUTE
    ../clib/microlib/stubs.s                 0x00000000   Number         0  useno.o ABSOLUTE
    ../fplib/microlib/fpadd.c                0x00000000   Number         0  dadd.o ABSOLUTE
    ../fplib/microlib/fpdiv.c                0x00000000   Number         0  fdiv.o ABSOLUTE
    ../fplib/microlib/fpdiv.c                0x00000000   Number         0  ddiv.o ABSOLUTE
    ../fplib/microlib/fpepilogue.c           0x00000000   Number         0  fepilogue.o ABSOLUTE
    ../fplib/microlib/fpepilogue.c           0x00000000   Number         0  depilogue.o ABSOLUTE
    ../fplib/microlib/fpfix.c                0x00000000   Number         0  dfixui.o ABSOLUTE
    ../fplib/microlib/fpfix.c                0x00000000   Number         0  dfixul.o ABSOLUTE
    ../fplib/microlib/fpflt.c                0x00000000   Number         0  dfltui.o ABSOLUTE
    ../fplib/microlib/fpflt.c                0x00000000   Number         0  ffltui.o ABSOLUTE
    ../fplib/microlib/fpmul.c                0x00000000   Number         0  dmul.o ABSOLUTE
    ..\..\..\..\Libraries\Device\Phoenix\source\startup\arm\tx_phe_startup.c 0x00000000   Number         0  tx_phe_startup.o ABSOLUTE
    ..\..\..\..\Libraries\Device\Phoenix\source\tx_phe_assert.c 0x00000000   Number         0  tx_phe_assert.o ABSOLUTE
    ..\..\..\..\Libraries\Device\Phoenix\source\tx_phe_debug.c 0x00000000   Number         0  tx_phe_debug.o ABSOLUTE
    ..\..\..\..\Libraries\Device\Phoenix\source\tx_phe_itm.c 0x00000000   Number         0  tx_phe_itm.o ABSOLUTE
    ..\..\..\..\Libraries\Device\Phoenix\source\tx_phe_misc.c 0x00000000   Number         0  tx_phe_misc.o ABSOLUTE
    ..\..\..\..\Libraries\Device\Phoenix\source\tx_phe_system.c 0x00000000   Number         0  tx_phe_system.o ABSOLUTE
    ..\..\..\..\Libraries\Device\Phoenix\source\txf5200.c 0x00000000   Number         0  txf5200.o ABSOLUTE
    ..\..\..\..\Libraries\Device\Phoenix\source\txf6200.c 0x00000000   Number         0  txf6200.o ABSOLUTE
    ..\..\..\..\Libraries\Driver\source\LL\tx_phe_ll_arctan.c 0x00000000   Number         0  tx_phe_ll_arctan.o ABSOLUTE
    ..\..\..\..\Libraries\Driver\source\LL\tx_phe_ll_can.c 0x00000000   Number         0  tx_phe_ll_can.o ABSOLUTE
    ..\..\..\..\Libraries\Driver\source\LL\tx_phe_ll_cc_rst.c 0x00000000   Number         0  tx_phe_ll_cc_rst.o ABSOLUTE
    ..\..\..\..\Libraries\Driver\source\LL\tx_phe_ll_crc.c 0x00000000   Number         0  tx_phe_ll_crc.o ABSOLUTE
    ..\..\..\..\Libraries\Driver\source\LL\tx_phe_ll_datadma.c 0x00000000   Number         0  tx_phe_ll_datadma.o ABSOLUTE
    ..\..\..\..\Libraries\Driver\source\LL\tx_phe_ll_dftrans.c 0x00000000   Number         0  tx_phe_ll_dftrans.o ABSOLUTE
    ..\..\..\..\Libraries\Driver\source\LL\tx_phe_ll_dmac.c 0x00000000   Number         0  tx_phe_ll_dmac.o ABSOLUTE
    ..\..\..\..\Libraries\Driver\source\LL\tx_phe_ll_eflash.c 0x00000000   Number         0  tx_phe_ll_eflash.o ABSOLUTE
    ..\..\..\..\Libraries\Driver\source\LL\tx_phe_ll_epwm.c 0x00000000   Number         0  tx_phe_ll_epwm.o ABSOLUTE
    ..\..\..\..\Libraries\Driver\source\LL\tx_phe_ll_evsys.c 0x00000000   Number         0  tx_phe_ll_evsys.o ABSOLUTE
    ..\..\..\..\Libraries\Driver\source\LL\tx_phe_ll_fadc.c 0x00000000   Number         0  tx_phe_ll_fadc.o ABSOLUTE
    ..\..\..\..\Libraries\Driver\source\LL\tx_phe_ll_fft.c 0x00000000   Number         0  tx_phe_ll_fft.o ABSOLUTE
    ..\..\..\..\Libraries\Driver\source\LL\tx_phe_ll_fir.c 0x00000000   Number         0  tx_phe_ll_fir.o ABSOLUTE
    ..\..\..\..\Libraries\Driver\source\LL\tx_phe_ll_gpio.c 0x00000000   Number         0  tx_phe_ll_gpio.o ABSOLUTE
    ..\..\..\..\Libraries\Driver\source\LL\tx_phe_ll_hcc.c 0x00000000   Number         0  tx_phe_ll_hcc.o ABSOLUTE
    ..\..\..\..\Libraries\Driver\source\LL\tx_phe_ll_iic.c 0x00000000   Number         0  tx_phe_ll_iic.o ABSOLUTE
    ..\..\..\..\Libraries\Driver\source\LL\tx_phe_ll_iir.c 0x00000000   Number         0  tx_phe_ll_iir.o ABSOLUTE
    ..\..\..\..\Libraries\Driver\source\LL\tx_phe_ll_mac.c 0x00000000   Number         0  tx_phe_ll_mac.o ABSOLUTE
    ..\..\..\..\Libraries\Driver\source\LL\tx_phe_ll_matrix.c 0x00000000   Number         0  tx_phe_ll_matrix.o ABSOLUTE
    ..\..\..\..\Libraries\Driver\source\LL\tx_phe_ll_qei.c 0x00000000   Number         0  tx_phe_ll_qei.o ABSOLUTE
    ..\..\..\..\Libraries\Driver\source\LL\tx_phe_ll_rms.c 0x00000000   Number         0  tx_phe_ll_rms.o ABSOLUTE
    ..\..\..\..\Libraries\Driver\source\LL\tx_phe_ll_saradc.c 0x00000000   Number         0  tx_phe_ll_saradc.o ABSOLUTE
    ..\..\..\..\Libraries\Driver\source\LL\tx_phe_ll_sincos.c 0x00000000   Number         0  tx_phe_ll_sincos.o ABSOLUTE
    ..\..\..\..\Libraries\Driver\source\LL\tx_phe_ll_spi.c 0x00000000   Number         0  tx_phe_ll_spi.o ABSOLUTE
    ..\..\..\..\Libraries\Driver\source\LL\tx_phe_ll_spwm.c 0x00000000   Number         0  tx_phe_ll_spwm.o ABSOLUTE
    ..\..\..\..\Libraries\Driver\source\LL\tx_phe_ll_svpwm.c 0x00000000   Number         0  tx_phe_ll_svpwm.o ABSOLUTE
    ..\..\..\..\Libraries\Driver\source\LL\tx_phe_ll_timer.c 0x00000000   Number         0  tx_phe_ll_timer.o ABSOLUTE
    ..\..\..\..\Libraries\Driver\source\LL\tx_phe_ll_usart.c 0x00000000   Number         0  tx_phe_ll_usart.o ABSOLUTE
    ..\..\..\..\Libraries\Driver\source\LL\tx_phe_ll_wdt.c 0x00000000   Number         0  tx_phe_ll_wdt.o ABSOLUTE
    ..\..\..\..\Libraries\Protocol\Modbus\Trans_mode\mbascii.c 0x00000000   Number         0  mbascii.o ABSOLUTE
    ..\..\..\..\Libraries\Protocol\Modbus\Trans_mode\mbcrc.c 0x00000000   Number         0  mbcrc.o ABSOLUTE
    ..\..\..\..\Libraries\Protocol\Modbus\Trans_mode\mbrtu.c 0x00000000   Number         0  mbrtu.o ABSOLUTE
    ..\..\..\..\Libraries\Protocol\Modbus\Trans_mode\mbtcp.c 0x00000000   Number         0  mbtcp.o ABSOLUTE
    ..\..\..\..\Libraries\Protocol\Modbus\functions\mbfunccoils.c 0x00000000   Number         0  mbfunccoils.o ABSOLUTE
    ..\..\..\..\Libraries\Protocol\Modbus\functions\mbfuncdiag.c 0x00000000   Number         0  mbfuncdiag.o ABSOLUTE
    ..\..\..\..\Libraries\Protocol\Modbus\functions\mbfuncdisc.c 0x00000000   Number         0  mbfuncdisc.o ABSOLUTE
    ..\..\..\..\Libraries\Protocol\Modbus\functions\mbfuncholding.c 0x00000000   Number         0  mbfuncholding.o ABSOLUTE
    ..\..\..\..\Libraries\Protocol\Modbus\functions\mbfuncinput.c 0x00000000   Number         0  mbfuncinput.o ABSOLUTE
    ..\..\..\..\Libraries\Protocol\Modbus\functions\mbfuncother.c 0x00000000   Number         0  mbfuncother.o ABSOLUTE
    ..\..\..\..\Libraries\Protocol\Modbus\functions\mbutils.c 0x00000000   Number         0  mbutils.o ABSOLUTE
    ..\..\..\..\Libraries\Protocol\Modbus\mb.c 0x00000000   Number         0  mb.o ABSOLUTE
    ..\..\..\..\Libraries\Protocol\Modbus\port\mbportevent.c 0x00000000   Number         0  mbportevent.o ABSOLUTE
    ..\..\..\..\Libraries\Protocol\net\phy\phy.c 0x00000000   Number         0  phy.o ABSOLUTE
    ..\..\..\..\Libraries\Protocol\net\phy\phy_device.c 0x00000000   Number         0  phy_device.o ABSOLUTE
    ..\..\..\..\User\LL\chead.c              0x00000000   Number         0  chead.o ABSOLUTE
    ..\..\..\..\User\LL\crccheck.c           0x00000000   Number         0  crccheck.o ABSOLUTE
    ..\..\..\..\User\LL\eflash.c             0x00000000   Number         0  eflash.o ABSOLUTE
    ..\..\..\..\User\LL\lcd12864_app.c       0x00000000   Number         0  lcd12864_app.o ABSOLUTE
    ..\..\..\..\User\LL\lcd12864_drv.c       0x00000000   Number         0  lcd12864_drv.o ABSOLUTE
    ..\..\..\..\User\LL\main.c               0x00000000   Number         0  main.o ABSOLUTE
    ..\..\..\..\User\LL\modules_init.c       0x00000000   Number         0  modules_init.o ABSOLUTE
    ..\..\..\..\User\LL\nfc_app.c            0x00000000   Number         0  nfc_app.o ABSOLUTE
    ..\..\..\..\User\LL\proto.c              0x00000000   Number         0  proto.o ABSOLUTE
    ..\..\..\..\User\LL\rc523_cfg.c          0x00000000   Number         0  rc523_cfg.o ABSOLUTE
    ..\..\..\..\User\LL\rc523_drv.c          0x00000000   Number         0  rc523_drv.o ABSOLUTE
    ..\..\..\..\User\LL\save_printf.c        0x00000000   Number         0  save_printf.o ABSOLUTE
    ..\..\..\..\User\LL\serial.c             0x00000000   Number         0  serial.o ABSOLUTE
    ..\..\..\..\User\LL\slave.c              0x00000000   Number         0  slave.o ABSOLUTE
    ..\..\..\..\User\LL\tx_phe_irq.c         0x00000000   Number         0  tx_phe_irq.o ABSOLUTE
    ..\..\..\..\User\LL\user.c               0x00000000   Number         0  user.o ABSOLUTE
    ..\..\..\..\User\LL\utimer.c             0x00000000   Number         0  utimer.o ABSOLUTE
    ..\\..\\..\\..\\Libraries\\Device\\Phoenix\\source\\startup\\arm\\tx_phe_startup.c 0x00000000   Number         0  tx_phe_startup.o ABSOLUTE
    ..\\..\\..\\..\\Libraries\\Device\\Phoenix\\source\\tx_phe_assert.c 0x00000000   Number         0  tx_phe_assert.o ABSOLUTE
    ..\\..\\..\\..\\Libraries\\Device\\Phoenix\\source\\tx_phe_debug.c 0x00000000   Number         0  tx_phe_debug.o ABSOLUTE
    ..\\..\\..\\..\\Libraries\\Device\\Phoenix\\source\\tx_phe_misc.c 0x00000000   Number         0  tx_phe_misc.o ABSOLUTE
    ..\\..\\..\\..\\Libraries\\Device\\Phoenix\\source\\tx_phe_system.c 0x00000000   Number         0  tx_phe_system.o ABSOLUTE
    ..\\..\\..\\..\\Libraries\\Device\\Phoenix\\source\\txf5200.c 0x00000000   Number         0  txf5200.o ABSOLUTE
    ..\\..\\..\\..\\Libraries\\Device\\Phoenix\\source\\txf6200.c 0x00000000   Number         0  txf6200.o ABSOLUTE
    ..\\..\\..\\..\\Libraries\\Driver\\source\\LL\\tx_phe_ll_arctan.c 0x00000000   Number         0  tx_phe_ll_arctan.o ABSOLUTE
    ..\\..\\..\\..\\Libraries\\Driver\\source\\LL\\tx_phe_ll_can.c 0x00000000   Number         0  tx_phe_ll_can.o ABSOLUTE
    ..\\..\\..\\..\\Libraries\\Driver\\source\\LL\\tx_phe_ll_cc_rst.c 0x00000000   Number         0  tx_phe_ll_cc_rst.o ABSOLUTE
    ..\\..\\..\\..\\Libraries\\Driver\\source\\LL\\tx_phe_ll_crc.c 0x00000000   Number         0  tx_phe_ll_crc.o ABSOLUTE
    ..\\..\\..\\..\\Libraries\\Driver\\source\\LL\\tx_phe_ll_datadma.c 0x00000000   Number         0  tx_phe_ll_datadma.o ABSOLUTE
    ..\\..\\..\\..\\Libraries\\Driver\\source\\LL\\tx_phe_ll_dftrans.c 0x00000000   Number         0  tx_phe_ll_dftrans.o ABSOLUTE
    ..\\..\\..\\..\\Libraries\\Driver\\source\\LL\\tx_phe_ll_dmac.c 0x00000000   Number         0  tx_phe_ll_dmac.o ABSOLUTE
    ..\\..\\..\\..\\Libraries\\Driver\\source\\LL\\tx_phe_ll_eflash.c 0x00000000   Number         0  tx_phe_ll_eflash.o ABSOLUTE
    ..\\..\\..\\..\\Libraries\\Driver\\source\\LL\\tx_phe_ll_epwm.c 0x00000000   Number         0  tx_phe_ll_epwm.o ABSOLUTE
    ..\\..\\..\\..\\Libraries\\Driver\\source\\LL\\tx_phe_ll_evsys.c 0x00000000   Number         0  tx_phe_ll_evsys.o ABSOLUTE
    ..\\..\\..\\..\\Libraries\\Driver\\source\\LL\\tx_phe_ll_fadc.c 0x00000000   Number         0  tx_phe_ll_fadc.o ABSOLUTE
    ..\\..\\..\\..\\Libraries\\Driver\\source\\LL\\tx_phe_ll_fft.c 0x00000000   Number         0  tx_phe_ll_fft.o ABSOLUTE
    ..\\..\\..\\..\\Libraries\\Driver\\source\\LL\\tx_phe_ll_fir.c 0x00000000   Number         0  tx_phe_ll_fir.o ABSOLUTE
    ..\\..\\..\\..\\Libraries\\Driver\\source\\LL\\tx_phe_ll_gpio.c 0x00000000   Number         0  tx_phe_ll_gpio.o ABSOLUTE
    ..\\..\\..\\..\\Libraries\\Driver\\source\\LL\\tx_phe_ll_hcc.c 0x00000000   Number         0  tx_phe_ll_hcc.o ABSOLUTE
    ..\\..\\..\\..\\Libraries\\Driver\\source\\LL\\tx_phe_ll_iic.c 0x00000000   Number         0  tx_phe_ll_iic.o ABSOLUTE
    ..\\..\\..\\..\\Libraries\\Driver\\source\\LL\\tx_phe_ll_iir.c 0x00000000   Number         0  tx_phe_ll_iir.o ABSOLUTE
    ..\\..\\..\\..\\Libraries\\Driver\\source\\LL\\tx_phe_ll_mac.c 0x00000000   Number         0  tx_phe_ll_mac.o ABSOLUTE
    ..\\..\\..\\..\\Libraries\\Driver\\source\\LL\\tx_phe_ll_matrix.c 0x00000000   Number         0  tx_phe_ll_matrix.o ABSOLUTE
    ..\\..\\..\\..\\Libraries\\Driver\\source\\LL\\tx_phe_ll_qei.c 0x00000000   Number         0  tx_phe_ll_qei.o ABSOLUTE
    ..\\..\\..\\..\\Libraries\\Driver\\source\\LL\\tx_phe_ll_rms.c 0x00000000   Number         0  tx_phe_ll_rms.o ABSOLUTE
    ..\\..\\..\\..\\Libraries\\Driver\\source\\LL\\tx_phe_ll_saradc.c 0x00000000   Number         0  tx_phe_ll_saradc.o ABSOLUTE
    ..\\..\\..\\..\\Libraries\\Driver\\source\\LL\\tx_phe_ll_sincos.c 0x00000000   Number         0  tx_phe_ll_sincos.o ABSOLUTE
    ..\\..\\..\\..\\Libraries\\Driver\\source\\LL\\tx_phe_ll_spi.c 0x00000000   Number         0  tx_phe_ll_spi.o ABSOLUTE
    ..\\..\\..\\..\\Libraries\\Driver\\source\\LL\\tx_phe_ll_spwm.c 0x00000000   Number         0  tx_phe_ll_spwm.o ABSOLUTE
    ..\\..\\..\\..\\Libraries\\Driver\\source\\LL\\tx_phe_ll_svpwm.c 0x00000000   Number         0  tx_phe_ll_svpwm.o ABSOLUTE
    ..\\..\\..\\..\\Libraries\\Driver\\source\\LL\\tx_phe_ll_timer.c 0x00000000   Number         0  tx_phe_ll_timer.o ABSOLUTE
    ..\\..\\..\\..\\Libraries\\Driver\\source\\LL\\tx_phe_ll_usart.c 0x00000000   Number         0  tx_phe_ll_usart.o ABSOLUTE
    ..\\..\\..\\..\\Libraries\\Driver\\source\\LL\\tx_phe_ll_wdt.c 0x00000000   Number         0  tx_phe_ll_wdt.o ABSOLUTE
    ..\\..\\..\\..\\Libraries\\Protocol\\Modbus\\Trans_mode\\mbascii.c 0x00000000   Number         0  mbascii.o ABSOLUTE
    ..\\..\\..\\..\\Libraries\\Protocol\\Modbus\\Trans_mode\\mbrtu.c 0x00000000   Number         0  mbrtu.o ABSOLUTE
    ..\\..\\..\\..\\Libraries\\Protocol\\Modbus\\Trans_mode\\mbtcp.c 0x00000000   Number         0  mbtcp.o ABSOLUTE
    ..\\..\\..\\..\\Libraries\\Protocol\\Modbus\\functions\\mbfunccoils.c 0x00000000   Number         0  mbfunccoils.o ABSOLUTE
    ..\\..\\..\\..\\Libraries\\Protocol\\Modbus\\functions\\mbfuncdisc.c 0x00000000   Number         0  mbfuncdisc.o ABSOLUTE
    ..\\..\\..\\..\\Libraries\\Protocol\\Modbus\\functions\\mbfuncholding.c 0x00000000   Number         0  mbfuncholding.o ABSOLUTE
    ..\\..\\..\\..\\Libraries\\Protocol\\Modbus\\functions\\mbfuncinput.c 0x00000000   Number         0  mbfuncinput.o ABSOLUTE
    ..\\..\\..\\..\\Libraries\\Protocol\\Modbus\\functions\\mbfuncother.c 0x00000000   Number         0  mbfuncother.o ABSOLUTE
    ..\\..\\..\\..\\Libraries\\Protocol\\Modbus\\functions\\mbutils.c 0x00000000   Number         0  mbutils.o ABSOLUTE
    ..\\..\\..\\..\\Libraries\\Protocol\\Modbus\\mb.c 0x00000000   Number         0  mb.o ABSOLUTE
    ..\\..\\..\\..\\Libraries\\Protocol\\Modbus\\port\\mbportevent.c 0x00000000   Number         0  mbportevent.o ABSOLUTE
    ..\\..\\..\\..\\Libraries\\Protocol\\net\\phy\\phy.c 0x00000000   Number         0  phy.o ABSOLUTE
    ..\\..\\..\\..\\Libraries\\Protocol\\net\\phy\\phy_device.c 0x00000000   Number         0  phy_device.o ABSOLUTE
    ..\\..\\..\\..\\User\\LL\\chead.c        0x00000000   Number         0  chead.o ABSOLUTE
    ..\\..\\..\\..\\User\\LL\\crccheck.c     0x00000000   Number         0  crccheck.o ABSOLUTE
    ..\\..\\..\\..\\User\\LL\\eflash.c       0x00000000   Number         0  eflash.o ABSOLUTE
    ..\\..\\..\\..\\User\\LL\\lcd12864_app.c 0x00000000   Number         0  lcd12864_app.o ABSOLUTE
    ..\\..\\..\\..\\User\\LL\\lcd12864_drv.c 0x00000000   Number         0  lcd12864_drv.o ABSOLUTE
    ..\\..\\..\\..\\User\\LL\\main.c         0x00000000   Number         0  main.o ABSOLUTE
    ..\\..\\..\\..\\User\\LL\\modules_init.c 0x00000000   Number         0  modules_init.o ABSOLUTE
    ..\\..\\..\\..\\User\\LL\\nfc_app.c      0x00000000   Number         0  nfc_app.o ABSOLUTE
    ..\\..\\..\\..\\User\\LL\\proto.c        0x00000000   Number         0  proto.o ABSOLUTE
    ..\\..\\..\\..\\User\\LL\\rc523_cfg.c    0x00000000   Number         0  rc523_cfg.o ABSOLUTE
    ..\\..\\..\\..\\User\\LL\\rc523_drv.c    0x00000000   Number         0  rc523_drv.o ABSOLUTE
    ..\\..\\..\\..\\User\\LL\\save_printf.c  0x00000000   Number         0  save_printf.o ABSOLUTE
    ..\\..\\..\\..\\User\\LL\\serial.c       0x00000000   Number         0  serial.o ABSOLUTE
    ..\\..\\..\\..\\User\\LL\\slave.c        0x00000000   Number         0  slave.o ABSOLUTE
    ..\\..\\..\\..\\User\\LL\\tx_phe_irq.c   0x00000000   Number         0  tx_phe_irq.o ABSOLUTE
    ..\\..\\..\\..\\User\\LL\\user.c         0x00000000   Number         0  user.o ABSOLUTE
    ..\\..\\..\\..\\User\\LL\\utimer.c       0x00000000   Number         0  utimer.o ABSOLUTE
    cdrcmple.s                               0x00000000   Number         0  cdrcmple.o ABSOLUTE
    dc.s                                     0x00000000   Number         0  dc.o ABSOLUTE
    handlers.s                               0x00000000   Number         0  handlers.o ABSOLUTE
    init.s                                   0x00000000   Number         0  init.o ABSOLUTE
    RESET                                    0x08000000   Section      316  tx_phe_startup.o(RESET)
    .ARM.Collect$$$$00000000                 0x0800013c   Section        0  entry.o(.ARM.Collect$$$$00000000)
    .ARM.Collect$$$$00000003                 0x0800013c   Section        4  entry4.o(.ARM.Collect$$$$00000003)
    .ARM.Collect$$$$00000004                 0x08000140   Section        4  entry5.o(.ARM.Collect$$$$00000004)
    .ARM.Collect$$$$00000008                 0x08000144   Section        0  entry7b.o(.ARM.Collect$$$$00000008)
    .ARM.Collect$$$$0000000A                 0x08000144   Section        0  entry8b.o(.ARM.Collect$$$$0000000A)
    .ARM.Collect$$$$0000000B                 0x08000144   Section        8  entry9a.o(.ARM.Collect$$$$0000000B)
    .ARM.Collect$$$$0000000E                 0x0800014c   Section        4  entry12b.o(.ARM.Collect$$$$0000000E)
    .ARM.Collect$$$$0000000F                 0x08000150   Section        0  entry10a.o(.ARM.Collect$$$$0000000F)
    .ARM.Collect$$$$00000011                 0x08000150   Section        0  entry11a.o(.ARM.Collect$$$$00000011)
    .ARM.Collect$$$$00002714                 0x08000150   Section        4  entry4.o(.ARM.Collect$$$$00002714)
    __lit__00000000                          0x08000150   Data           4  entry4.o(.ARM.Collect$$$$00002714)
    .text                                    0x08000154   Section       36  init.o(.text)
    .text                                    0x08000178   Section        0  __dczerorl2.o(.text)
    i.$Sub$$main                             0x080001ec   Section        0  tx_phe_startup.o(i.$Sub$$main)
    i.Reset_Handler                          0x080001f8   Section        0  tx_phe_startup.o(i.Reset_Handler)
    __tagsym$$used                           0x080001f9   Number         0  tx_phe_startup.o(i.Reset_Handler)
    i.__0printf$8                            0x08000200   Section        0  printf8.o(i.__0printf$8)
    i.__scatterload_copy                     0x08000220   Section       14  handlers.o(i.__scatterload_copy)
    i.__scatterload_null                     0x0800022e   Section        2  handlers.o(i.__scatterload_null)
    i.__scatterload_zeroinit                 0x08000230   Section       14  handlers.o(i.__scatterload_zeroinit)
    i._printf_core                           0x08000240   Section        0  printf8.o(i._printf_core)
    _printf_core                             0x08000241   Thumb Code   984  printf8.o(i._printf_core)
    i._printf_post_padding                   0x08000644   Section        0  printf8.o(i._printf_post_padding)
    _printf_post_padding                     0x08000645   Thumb Code    36  printf8.o(i._printf_post_padding)
    i._printf_pre_padding                    0x08000668   Section        0  printf8.o(i._printf_pre_padding)
    _printf_pre_padding                      0x08000669   Thumb Code    46  printf8.o(i._printf_pre_padding)
    SRAM_VECTOR_TAB                          0x10006000   Section      384  tx_phe_system.o(SRAM_VECTOR_TAB)
    .emb_text                                0x10006180   Section        6  tx_phe_system.o(.emb_text)
    .text                                    0x10006186   Section        0  uldiv.o(.text)
    .text                                    0x100061e8   Section        0  memcpya.o(.text)
    .text                                    0x1000620c   Section        0  memseta.o(.text)
    .text                                    0x10006230   Section        0  dmul.o(.text)
    .text                                    0x10006314   Section        0  dfltui.o(.text)
    .text                                    0x1000632e   Section        0  dfixui.o(.text)
    .text                                    0x10006360   Section        0  llshl.o(.text)
    .text                                    0x1000637e   Section        0  llushr.o(.text)
    .text                                    0x1000639e   Section        0  depilogue.o(.text)
    .text                                    0x1000639e   Section        0  iusefp.o(.text)
    i.ADTIM0_IRQHandler                      0x10006462   Section        0  tx_phe_irq.o(i.ADTIM0_IRQHandler)
    i.ARCTAN0_IRQHandler                     0x10006464   Section        0  tx_phe_irq.o(i.ARCTAN0_IRQHandler)
    i.ARCTAN1_IRQHandler                     0x10006466   Section        0  tx_phe_irq.o(i.ARCTAN1_IRQHandler)
    i.ARCTAN2_IRQHandler                     0x10006468   Section        0  tx_phe_irq.o(i.ARCTAN2_IRQHandler)
    i.BusFault_Handler                       0x1000646a   Section        0  tx_phe_irq.o(i.BusFault_Handler)
    i.CAN_IRQHandler                         0x10006472   Section        0  tx_phe_irq.o(i.CAN_IRQHandler)
    i.CRC_IRQHandler                         0x10006474   Section        0  tx_phe_irq.o(i.CRC_IRQHandler)
    i.CalulateCRC                            0x10006476   Section        0  rc523_drv.o(i.CalulateCRC)
    i.ClearBitMask                           0x100064e2   Section        0  rc523_drv.o(i.ClearBitMask)
    i.DATADMA_IRQHandler                     0x100064fe   Section        0  tx_phe_irq.o(i.DATADMA_IRQHandler)
    i.DFTRANS0_IRQHandler                    0x10006500   Section        0  tx_phe_irq.o(i.DFTRANS0_IRQHandler)
    i.DFTRANS1_IRQHandler                    0x10006502   Section        0  tx_phe_irq.o(i.DFTRANS1_IRQHandler)
    i.DFTRANS2_IRQHandler                    0x10006504   Section        0  tx_phe_irq.o(i.DFTRANS2_IRQHandler)
    i.DMA0_IRQHandler                        0x10006506   Section        0  tx_phe_irq.o(i.DMA0_IRQHandler)
    i.DebugMon_Handler                       0x10006508   Section        0  tx_phe_irq.o(i.DebugMon_Handler)
    i.EPWM_IRQHandler                        0x1000650a   Section        0  tx_phe_irq.o(i.EPWM_IRQHandler)
    i.EVSYS_IRQHandler                       0x1000650c   Section        0  tx_phe_irq.o(i.EVSYS_IRQHandler)
    i.FADC_IRQHandler                        0x10006510   Section        0  tx_phe_irq.o(i.FADC_IRQHandler)
    i.FFT0_IRQHandler                        0x10006538   Section        0  tx_phe_irq.o(i.FFT0_IRQHandler)
    i.FFT0_PREPROCESS_IRQHandler             0x1000653a   Section        0  tx_phe_irq.o(i.FFT0_PREPROCESS_IRQHandler)
    i.FFT1_IRQHandler                        0x1000653c   Section        0  tx_phe_irq.o(i.FFT1_IRQHandler)
    i.FFT1_PREPROCESS_IRQHandler             0x1000653e   Section        0  tx_phe_irq.o(i.FFT1_PREPROCESS_IRQHandler)
    i.FFT2_IRQHandler                        0x10006540   Section        0  tx_phe_irq.o(i.FFT2_IRQHandler)
    i.FFT2_PREPROCESS_IRQHandler             0x10006542   Section        0  tx_phe_irq.o(i.FFT2_PREPROCESS_IRQHandler)
    i.FIR0_IRQHandler                        0x10006544   Section        0  tx_phe_irq.o(i.FIR0_IRQHandler)
    i.FIR1_IRQHandler                        0x10006546   Section        0  tx_phe_irq.o(i.FIR1_IRQHandler)
    i.FIR2_IRQHandler                        0x10006548   Section        0  tx_phe_irq.o(i.FIR2_IRQHandler)
    i.Frame_arry_Inverted                    0x1000654a   Section        0  proto.o(i.Frame_arry_Inverted)
    Frame_arry_Inverted                      0x1000654b   Thumb Code    68  proto.o(i.Frame_arry_Inverted)
    i.GMAC_IRQHandler                        0x1000658e   Section        0  tx_phe_irq.o(i.GMAC_IRQHandler)
    i.GPIOA_IRQHandler                       0x10006590   Section        0  tx_phe_irq.o(i.GPIOA_IRQHandler)
    i.GPIOB_IRQHandler                       0x10006592   Section        0  tx_phe_irq.o(i.GPIOB_IRQHandler)
    i.GPIOC_IRQHandler                       0x10006594   Section        0  tx_phe_irq.o(i.GPIOC_IRQHandler)
    i.GPIOD_IRQHandler                       0x10006596   Section        0  tx_phe_irq.o(i.GPIOD_IRQHandler)
    i.HCC_IRQHandler                         0x10006598   Section        0  tx_phe_irq.o(i.HCC_IRQHandler)
    i.HardFault_Handler                      0x1000659a   Section        0  tx_phe_irq.o(i.HardFault_Handler)
    i.IIC0_IRQHandler                        0x100065a2   Section        0  tx_phe_irq.o(i.IIC0_IRQHandler)
    i.IIC1_IRQHandler                        0x100065a4   Section        0  tx_phe_irq.o(i.IIC1_IRQHandler)
    i.IIR0_IRQHandler                        0x100065a6   Section        0  tx_phe_irq.o(i.IIR0_IRQHandler)
    i.IIR1_IRQHandler                        0x100065a8   Section        0  tx_phe_irq.o(i.IIR1_IRQHandler)
    i.IIR2_IRQHandler                        0x100065aa   Section        0  tx_phe_irq.o(i.IIR2_IRQHandler)
    i.LCD_WriteCmd                           0x100065ac   Section        0  lcd12864_drv.o(i.LCD_WriteCmd)
    LCD_WriteCmd                             0x100065ad   Thumb Code    46  lcd12864_drv.o(i.LCD_WriteCmd)
    i.LCD_WriteData                          0x100065e0   Section        0  lcd12864_drv.o(i.LCD_WriteData)
    LCD_WriteData                            0x100065e1   Thumb Code    46  lcd12864_drv.o(i.LCD_WriteData)
    i.LCD_send_byte                          0x10006614   Section        0  lcd12864_drv.o(i.LCD_send_byte)
    i.LVD_IRQHandler                         0x10006664   Section        0  tx_phe_irq.o(i.LVD_IRQHandler)
    i.MATRIX_MULT_IRQHandler                 0x1000666c   Section        0  tx_phe_irq.o(i.MATRIX_MULT_IRQHandler)
    i.MFRC522_SleepUS                        0x1000666e   Section        0  rc523_drv.o(i.MFRC522_SleepUS)
    i.Main_Poll                              0x10006680   Section        0  user.o(i.Main_Poll)
    i.MemManage_Handler                      0x10006718   Section        0  tx_phe_irq.o(i.MemManage_Handler)
    i.NMI_Handler                            0x10006720   Section        0  tx_phe_irq.o(i.NMI_Handler)
    i.NVIC_Init                              0x10006728   Section        0  tx_phe_misc.o(i.NVIC_Init)
    i.PcdAntennaOn                           0x100067a4   Section        0  rc523_drv.o(i.PcdAntennaOn)
    i.PcdAnticoll                            0x100067be   Section        0  rc523_drv.o(i.PcdAnticoll)
    i.PcdAuthState                           0x1000689a   Section        0  rc523_drv.o(i.PcdAuthState)
    i.PcdComMF522                            0x10006908   Section        0  rc523_drv.o(i.PcdComMF522)
    i.PcdRead                                0x10006a3a   Section        0  rc523_drv.o(i.PcdRead)
    i.PcdRequest                             0x10006a8e   Section        0  rc523_drv.o(i.PcdRequest)
    i.PcdReset                               0x10006afe   Section        0  rc523_drv.o(i.PcdReset)
    i.PcdSelect                              0x10006c5e   Section        0  rc523_drv.o(i.PcdSelect)
    i.PendSV_Handler                         0x10006cd0   Section        0  tx_phe_irq.o(i.PendSV_Handler)
    i.QEI_IRQHandler                         0x10006cd2   Section        0  tx_phe_irq.o(i.QEI_IRQHandler)
    i.RC523_Delay_Us                         0x10006cd4   Section        0  rc523_drv.o(i.RC523_Delay_Us)
    i.RMS0_IRQHandler                        0x10006ce6   Section        0  tx_phe_irq.o(i.RMS0_IRQHandler)
    i.RMS1_IRQHandler                        0x10006ce8   Section        0  tx_phe_irq.o(i.RMS1_IRQHandler)
    i.RMS2_IRQHandler                        0x10006cea   Section        0  tx_phe_irq.o(i.RMS2_IRQHandler)
    i.ReadRawRC                              0x10006cec   Section        0  rc523_cfg.o(i.ReadRawRC)
    i.SARADC_IRQHandler                      0x10006dac   Section        0  tx_phe_irq.o(i.SARADC_IRQHandler)
    i.SINCOS0_IRQHandler                     0x10006dae   Section        0  tx_phe_irq.o(i.SINCOS0_IRQHandler)
    i.SINCOS1_IRQHandler                     0x10006db0   Section        0  tx_phe_irq.o(i.SINCOS1_IRQHandler)
    i.SPI0_IRQHandler                        0x10006db2   Section        0  tx_phe_irq.o(i.SPI0_IRQHandler)
    i.SPI1_IRQHandler                        0x10006db4   Section        0  tx_phe_irq.o(i.SPI1_IRQHandler)
    i.SPWM_IRQHandler                        0x10006db6   Section        0  tx_phe_irq.o(i.SPWM_IRQHandler)
    i.SVC_Handler                            0x10006db8   Section        0  tx_phe_irq.o(i.SVC_Handler)
    i.SVPWM_IRQHandler                       0x10006dba   Section        0  tx_phe_irq.o(i.SVPWM_IRQHandler)
    i.Senddata                               0x10006dbc   Section        0  proto.o(i.Senddata)
    i.SetBitMask                             0x10006e6c   Section        0  rc523_drv.o(i.SetBitMask)
    i.SysTick_Handler                        0x10006e88   Section        0  tx_phe_irq.o(i.SysTick_Handler)
    i.TIM0_IRQHandler                        0x10006e98   Section        0  tx_phe_irq.o(i.TIM0_IRQHandler)
    i.TIM1_IRQHandler                        0x10007208   Section        0  tx_phe_irq.o(i.TIM1_IRQHandler)
    i.TIM2_IRQHandler                        0x10007248   Section        0  tx_phe_irq.o(i.TIM2_IRQHandler)
    i.TIM3_IRQHandler                        0x10007288   Section        0  tx_phe_irq.o(i.TIM3_IRQHandler)
    i.TIM4_IRQHandler                        0x100072c8   Section        0  tx_phe_irq.o(i.TIM4_IRQHandler)
    i.TIM5_IRQHandler                        0x10007304   Section        0  tx_phe_irq.o(i.TIM5_IRQHandler)
    i.TIM6_IRQHandler                        0x10007344   Section        0  tx_phe_irq.o(i.TIM6_IRQHandler)
    i.TIM7_IRQHandler                        0x10007384   Section        0  tx_phe_irq.o(i.TIM7_IRQHandler)
    i.USART0_IRQHandler                      0x100073c4   Section        0  tx_phe_irq.o(i.USART0_IRQHandler)
    i.USART1_IRQHandler                      0x10007478   Section        0  tx_phe_irq.o(i.USART1_IRQHandler)
    i.USART2_IRQHandler                      0x100074d4   Section        0  tx_phe_irq.o(i.USART2_IRQHandler)
    i.Upload_server                          0x10007590   Section        0  proto.o(i.Upload_server)
    i.UsageFault_Handler                     0x10007d7c   Section        0  tx_phe_irq.o(i.UsageFault_Handler)
    i.WAKEUP_IRQHandler                      0x10007d84   Section        0  tx_phe_irq.o(i.WAKEUP_IRQHandler)
    i.WDT_IRQHandler                         0x10007d88   Section        0  tx_phe_irq.o(i.WDT_IRQHandler)
    i.WriteRawRC                             0x10007da4   Section        0  rc523_cfg.o(i.WriteRawRC)
    i.__get_PRIMASK                          0x10007e68   Section        0  tx_phe_ll_cc_rst.o(i.__get_PRIMASK)
    __get_PRIMASK                            0x10007e69   Thumb Code     6  tx_phe_ll_cc_rst.o(i.__get_PRIMASK)
    i.__get_PRIMASK                          0x10007e6e   Section        0  tx_phe_ll_eflash.o(i.__get_PRIMASK)
    __get_PRIMASK                            0x10007e6f   Thumb Code     6  tx_phe_ll_eflash.o(i.__get_PRIMASK)
    i.card_id_encryption                     0x10007e74   Section        0  nfc_app.o(i.card_id_encryption)
    card_id_encryption                       0x10007e75   Thumb Code   126  nfc_app.o(i.card_id_encryption)
    i.charge_process                         0x10007ef8   Section        0  chead.o(i.charge_process)
    i.clr_all                                0x10008104   Section        0  lcd12864_drv.o(i.clr_all)
    i.clr_bmp                                0x10008160   Section        0  lcd12864_drv.o(i.clr_bmp)
    i.clr_txt                                0x10008198   Section        0  lcd12864_drv.o(i.clr_txt)
    i.constant_parameter_updata              0x100081c0   Section        0  chead.o(i.constant_parameter_updata)
    i.crccheck                               0x100081f0   Section        0  crccheck.o(i.crccheck)
    i.debug_select_interface                 0x10008234   Section        0  tx_phe_debug.o(i.debug_select_interface)
    i.delay_ms                               0x10008270   Section        0  tx_phe_system.o(i.delay_ms)
    i.delay_us                               0x1000829c   Section        0  tx_phe_system.o(i.delay_us)
    i.dev_sn_encryption                      0x100082c8   Section        0  nfc_app.o(i.dev_sn_encryption)
    dev_sn_encryption                        0x100082c9   Thumb Code    46  nfc_app.o(i.dev_sn_encryption)
    i.display_16x16graphic                   0x100082fc   Section        0  lcd12864_drv.o(i.display_16x16graphic)
    i.display_16x32graphic                   0x10008394   Section        0  lcd12864_drv.o(i.display_16x32graphic)
    i.display_64x64graphic                   0x10008484   Section        0  lcd12864_drv.o(i.display_64x64graphic)
    i.display_chinese                        0x10008570   Section        0  lcd12864_drv.o(i.display_chinese)
    i.dump_fault_state                       0x1000861c   Section        0  tx_phe_system.o(i.dump_fault_state)
    i.eflash_read_check                      0x10008af4   Section        0  eflash.o(i.eflash_read_check)
    i.eflash_read_sector                     0x10008b4c   Section        0  eflash.o(i.eflash_read_sector)
    i.eflash_write_sector                    0x10008b90   Section        0  eflash.o(i.eflash_write_sector)
    i.epwm_config                            0x10008bf0   Section        0  modules_init.o(i.epwm_config)
    i.epwm_init                              0x10008c68   Section        0  modules_init.o(i.epwm_init)
    i.epwm_start                             0x10008c80   Section        0  modules_init.o(i.epwm_start)
    i.epwm_stop                              0x10008c90   Section        0  modules_init.o(i.epwm_stop)
    i.ev7kw_numtrans                         0x10008ca4   Section        0  lcd12864_app.o(i.ev7kw_numtrans)
    i.fputc                                  0x10008ce4   Section        0  tx_phe_debug.o(i.fputc)
    i.frame_get                              0x10008d50   Section        0  proto.o(i.frame_get)
    i.hex_2_char                             0x10008d8c   Section        0  lcd12864_app.o(i.hex_2_char)
    i.km1_off                                0x10008dae   Section        0  chead.o(i.km1_off)
    i.km1_on                                 0x10008db6   Section        0  chead.o(i.km1_on)
    i.km_control                             0x10008dcc   Section        0  slave.o(i.km_control)
    i.lcd_updata                             0x10008dd0   Section        0  lcd12864_app.o(i.lcd_updata)
    i.ledprocess                             0x100095c0   Section        0  main.o(i.ledprocess)
    i.ll_cc_adcpll_set                       0x100096cc   Section        0  tx_phe_ll_cc_rst.o(i.ll_cc_adcpll_set)
    i.ll_cc_clk_div_config                   0x10009934   Section        0  tx_phe_ll_cc_rst.o(i.ll_cc_clk_div_config)
    i.ll_cc_rst_apb2_peripheral_clk_enable   0x100099d0   Section        0  tx_phe_ll_eflash.o(i.ll_cc_rst_apb2_peripheral_clk_enable)
    ll_cc_rst_apb2_peripheral_clk_enable     0x100099d1   Thumb Code   114  tx_phe_ll_eflash.o(i.ll_cc_rst_apb2_peripheral_clk_enable)
    i.ll_cc_rst_delay5ms_32khz               0x10009a4c   Section        0  tx_phe_ll_cc_rst.o(i.ll_cc_rst_delay5ms_32khz)
    i.ll_cc_sys_clk_get                      0x10009a6c   Section        0  tx_phe_ll_cc_rst.o(i.ll_cc_sys_clk_get)
    i.ll_cc_syspll_set                       0x10009ad8   Section        0  tx_phe_ll_cc_rst.o(i.ll_cc_syspll_set)
    i.ll_eflash_config                       0x10009dc4   Section        0  tx_phe_ll_eflash.o(i.ll_eflash_config)
    i.ll_eflash_erase_sector                 0x10009e88   Section        0  tx_phe_ll_eflash.o(i.ll_eflash_erase_sector)
    i.ll_eflash_init                         0x10009f0c   Section        0  tx_phe_ll_eflash.o(i.ll_eflash_init)
    i.ll_eflash_main_lock                    0x10009fb0   Section        0  tx_phe_ll_eflash.o(i.ll_eflash_main_lock)
    ll_eflash_main_lock                      0x10009fb1   Thumb Code    12  tx_phe_ll_eflash.o(i.ll_eflash_main_lock)
    i.ll_eflash_prog_word                    0x10009fc0   Section        0  tx_phe_ll_eflash.o(i.ll_eflash_prog_word)
    i.ll_eflash_wait_sector_erase            0x1000a048   Section        0  eflash.o(i.ll_eflash_wait_sector_erase)
    ll_eflash_wait_sector_erase              0x1000a049   Thumb Code    14  eflash.o(i.ll_eflash_wait_sector_erase)
    i.ll_epwm_config                         0x1000a058   Section        0  tx_phe_ll_epwm.o(i.ll_epwm_config)
    i.ll_epwm_init                           0x1000a9c0   Section        0  tx_phe_ll_epwm.o(i.ll_epwm_init)
    i.ll_epwm_start                          0x1000aaac   Section        0  tx_phe_ll_epwm.o(i.ll_epwm_start)
    i.ll_epwm_stop                           0x1000ab4c   Section        0  tx_phe_ll_epwm.o(i.ll_epwm_stop)
    i.ll_gpio_bit_reset                      0x1000ac38   Section        0  main.o(i.ll_gpio_bit_reset)
    ll_gpio_bit_reset                        0x1000ac39   Thumb Code     6  main.o(i.ll_gpio_bit_reset)
    i.ll_gpio_bit_reset                      0x1000ac3e   Section        0  lcd12864_drv.o(i.ll_gpio_bit_reset)
    ll_gpio_bit_reset                        0x1000ac3f   Thumb Code     6  lcd12864_drv.o(i.ll_gpio_bit_reset)
    i.ll_gpio_bit_set                        0x1000ac44   Section        0  main.o(i.ll_gpio_bit_set)
    ll_gpio_bit_set                          0x1000ac45   Thumb Code     6  main.o(i.ll_gpio_bit_set)
    i.ll_gpio_bit_set                        0x1000ac4a   Section        0  lcd12864_drv.o(i.ll_gpio_bit_set)
    ll_gpio_bit_set                          0x1000ac4b   Thumb Code     6  lcd12864_drv.o(i.ll_gpio_bit_set)
    i.ll_gpio_dir                            0x1000ac50   Section        0  tx_phe_ll_gpio.o(i.ll_gpio_dir)
    i.ll_gpio_pull                           0x1000acd8   Section        0  tx_phe_ll_gpio.o(i.ll_gpio_pull)
    i.ll_gpio_read_data_bit                  0x1000ad90   Section        0  tx_phe_irq.o(i.ll_gpio_read_data_bit)
    ll_gpio_read_data_bit                    0x1000ad91   Thumb Code    18  tx_phe_irq.o(i.ll_gpio_read_data_bit)
    i.ll_gpio_write_data_bit                 0x1000ada2   Section        0  rc523_cfg.o(i.ll_gpio_write_data_bit)
    ll_gpio_write_data_bit                   0x1000ada3   Thumb Code    18  rc523_cfg.o(i.ll_gpio_write_data_bit)
    i.ll_timer_clear_capture_interrupt_pending 0x1000adb4   Section        0  tx_phe_irq.o(i.ll_timer_clear_capture_interrupt_pending)
    ll_timer_clear_capture_interrupt_pending 0x1000adb5   Thumb Code    10  tx_phe_irq.o(i.ll_timer_clear_capture_interrupt_pending)
    i.ll_timer_clear_interrupt_pending       0x1000adbe   Section        0  tx_phe_irq.o(i.ll_timer_clear_interrupt_pending)
    ll_timer_clear_interrupt_pending         0x1000adbf   Thumb Code    10  tx_phe_irq.o(i.ll_timer_clear_interrupt_pending)
    i.ll_timer_config                        0x1000adc8   Section        0  tx_phe_ll_timer.o(i.ll_timer_config)
    i.ll_timer_init                          0x1000ae94   Section        0  tx_phe_ll_timer.o(i.ll_timer_init)
    i.ll_timer_io_map                        0x1000af28   Section        0  tx_phe_ll_timer.o(i.ll_timer_io_map)
    i.ll_timer_irq_config                    0x1000b2b0   Section        0  tx_phe_ll_timer.o(i.ll_timer_irq_config)
    i.ll_timer_start                         0x1000b2d8   Section        0  tx_phe_ll_timer.o(i.ll_timer_start)
    i.ll_timer_stop                          0x1000b378   Section        0  tx_phe_ll_timer.o(i.ll_timer_stop)
    i.ll_usart232_config                     0x1000b414   Section        0  tx_phe_ll_usart.o(i.ll_usart232_config)
    i.ll_usart232_io_map                     0x1000b4e0   Section        0  tx_phe_ll_usart.o(i.ll_usart232_io_map)
    i.ll_usart_clear_busy_detect_pending     0x1000b5f8   Section        0  tx_phe_irq.o(i.ll_usart_clear_busy_detect_pending)
    ll_usart_clear_busy_detect_pending       0x1000b5f9   Thumb Code     6  tx_phe_irq.o(i.ll_usart_clear_busy_detect_pending)
    i.ll_usart_clear_modem_status_pending    0x1000b5fe   Section        0  tx_phe_irq.o(i.ll_usart_clear_modem_status_pending)
    ll_usart_clear_modem_status_pending      0x1000b5ff   Thumb Code     6  tx_phe_irq.o(i.ll_usart_clear_modem_status_pending)
    i.ll_usart_clear_rx_line_status_pending  0x1000b604   Section        0  tx_phe_irq.o(i.ll_usart_clear_rx_line_status_pending)
    ll_usart_clear_rx_line_status_pending    0x1000b605   Thumb Code     6  tx_phe_irq.o(i.ll_usart_clear_rx_line_status_pending)
    i.ll_usart_init                          0x1000b60c   Section        0  tx_phe_ll_usart.o(i.ll_usart_init)
    i.ll_usart_irq_config                    0x1000b674   Section        0  tx_phe_ll_usart.o(i.ll_usart_irq_config)
    i.main                                   0x1000b6bc   Section        0  main.o(i.main)
    i.main_loop                              0x1000b968   Section        0  main.o(i.main_loop)
    i.meterdata_process                      0x1000bbc0   Section        0  slave.o(i.meterdata_process)
    i.meterread_process                      0x1000bc8c   Section        0  slave.o(i.meterread_process)
    i.network                                0x1000bcf4   Section        0  main.o(i.network)
    i.nfc_init                               0x1000bf24   Section        0  nfc_app.o(i.nfc_init)
    i.nfc_read_card                          0x1000bf34   Section        0  nfc_app.o(i.nfc_read_card)
    i.order_clear                            0x1000c000   Section        0  main.o(i.order_clear)
    i.param_init                             0x1000c07c   Section        0  chead.o(i.param_init)
    i.param_save                             0x1000c2dc   Section        0  chead.o(i.param_save)
    i.protect_process                        0x1000c48c   Section        0  slave.o(i.protect_process)
    i.proto_check                            0x1000c724   Section        0  proto.o(i.proto_check)
    proto_check                              0x1000c725   Thumb Code  1400  proto.o(i.proto_check)
    i.proto_run                              0x1000cca4   Section        0  proto.o(i.proto_run)
    i.rc523_io_cfg_init                      0x1000ccac   Section        0  rc523_cfg.o(i.rc523_io_cfg_init)
    i.read_data_eflash                       0x1000cd28   Section        0  eflash.o(i.read_data_eflash)
    i.recover_fault_state                    0x1000cd40   Section        0  tx_phe_system.o(i.recover_fault_state)
    i.save_data_eflash                       0x1000cd48   Section        0  eflash.o(i.save_data_eflash)
    i.serial_buf_init                        0x1000cdb0   Section        0  serial.o(i.serial_buf_init)
    i.serial_config                          0x1000cdc4   Section        0  serial.o(i.serial_config)
    i.serial_init                            0x1000ce18   Section        0  serial.o(i.serial_init)
    i.serial_putc                            0x1000ce4c   Section        0  serial.o(i.serial_putc)
    i.serial_tx_handle                       0x1000ce5c   Section        0  serial.o(i.serial_tx_handle)
    i.set_dev_sn_to_nfc                      0x1000ceb8   Section        0  nfc_app.o(i.set_dev_sn_to_nfc)
    i.set_rst                                0x1000cecc   Section        0  rc523_cfg.o(i.set_rst)
    i.sys_eflash_config                      0x1000cef0   Section        0  tx_phe_system.o(i.sys_eflash_config)
    i.sys_eflash_init                        0x1000cf34   Section        0  tx_phe_system.o(i.sys_eflash_init)
    i.sys_fault_recover_context              0x1000cf48   Section        0  tx_phe_system.o(i.sys_fault_recover_context)
    i.sys_fault_save_context                 0x1000cf4a   Section        0  tx_phe_system.o(i.sys_fault_save_context)
    i.sys_module_init                        0x1000cf4c   Section        0  tx_phe_system.o(i.sys_module_init)
    i.sys_peripheral_init                    0x1000cf98   Section        0  tx_phe_system.o(i.sys_peripheral_init)
    i.system_critical_section_enter          0x1000cff0   Section        0  tx_phe_system.o(i.system_critical_section_enter)
    i.system_critical_section_exit           0x1000d018   Section        0  tx_phe_system.o(i.system_critical_section_exit)
    i.system_init                            0x1000d040   Section        0  tx_phe_system.o(i.system_init)
    i.time_process                           0x1000d090   Section        0  chead.o(i.time_process)
    i.timer1_config                          0x1000d1f4   Section        0  utimer.o(i.timer1_config)
    i.timer1_config2                         0x1000d234   Section        0  utimer.o(i.timer1_config2)
    i.timer1_init                            0x1000d274   Section        0  utimer.o(i.timer1_init)
    i.timer1_start                           0x1000d288   Section        0  utimer.o(i.timer1_start)
    i.timer1_stop                            0x1000d2a0   Section        0  utimer.o(i.timer1_stop)
    i.tx_assert_false                        0x1000d2b0   Section        0  tx_phe_assert.o(i.tx_assert_false)
    i.usart2_config                          0x1000d2f4   Section        0  user.o(i.usart2_config)
    i.usart2_init                            0x1000d358   Section        0  user.o(i.usart2_init)
    i.utimer_config                          0x1000d388   Section        0  utimer.o(i.utimer_config)
    i.utimer_init                            0x1000d3d8   Section        0  utimer.o(i.utimer_init)
    i.utimer_interput_handle                 0x1000d40c   Section        0  utimer.o(i.utimer_interput_handle)
    i.utimer_start                           0x1000d440   Section        0  utimer.o(i.utimer_start)
    .constdata                               0x1000d458   Section     1856  lcd12864_app.o(.constdata)
    .constdata                               0x1000db98   Section       16  tx_phe_ll_cc_rst.o(.constdata)
    __ll_pll_center_freq                     0x1000db98   Data          16  tx_phe_ll_cc_rst.o(.constdata)
    .data                                    0x20000000   Section        2  main.o(.data)
    .data                                    0x20000002   Section        9  user.o(.data)
    .data                                    0x2000000b   Section        5  serial.o(.data)
    .data                                    0x20000010   Section       24  eflash.o(.data)
    .data                                    0x20000028   Section      149  chead.o(.data)
    .data                                    0x200000bd   Section      512  crccheck.o(.data)
    .data                                    0x200002be   Section       80  lcd12864_app.o(.data)
    warning_text                             0x200002dd   Data          36  lcd12864_app.o(.data)
    currentPage                              0x20000301   Data           1  lcd12864_app.o(.data)
    subWarningPage                           0x20000302   Data           6  lcd12864_app.o(.data)
    WarningPos                               0x20000308   Data           1  lcd12864_app.o(.data)
    old_warningData                          0x20000309   Data           1  lcd12864_app.o(.data)
    lastCurrentValue                         0x2000030a   Data           2  lcd12864_app.o(.data)
    devTimeMin                               0x2000030c   Data           1  lcd12864_app.o(.data)
    devTimeHour                              0x2000030d   Data           1  lcd12864_app.o(.data)
    .data                                    0x2000030e   Section       62  nfc_app.o(.data)
    devSn_block                              0x2000030e   Data          16  nfc_app.o(.data)
    cardID_block                             0x2000031e   Data          16  nfc_app.o(.data)
    NewCardkey                               0x20000335   Data           6  nfc_app.o(.data)
    secret_key                               0x2000033b   Data          17  nfc_app.o(.data)
    .data                                    0x2000034c   Section       20  tx_phe_debug.o(.data)
    __debug_interface                        0x20000358   Data           1  tx_phe_debug.o(.data)
    __p_debug_usart                          0x2000035c   Data           4  tx_phe_debug.o(.data)
    .data                                    0x20000360   Section       24  tx_phe_system.o(.data)
    sys_ie_enable_counter                    0x20000364   Data           4  tx_phe_system.o(.data)
    sys_critical_ie_disabled                 0x20000368   Data           1  tx_phe_system.o(.data)
    sys_param_address                        0x2000036c   Data           4  tx_phe_system.o(.data)
    firmware_update_addr                     0x20000370   Data           4  tx_phe_system.o(.data)
    firmware_update_sectors                  0x20000374   Data           4  tx_phe_system.o(.data)
    .bss                                     0x20000378   Section       40  main.o(.bss)
    .bss                                     0x200003a0   Section      500  user.o(.bss)
    .bss                                     0x20000594   Section      280  modules_init.o(.bss)
    .bss                                     0x200006ac   Section      538  serial.o(.bss)
    .bss                                     0x200008c6   Section       24  utimer.o(.bss)
    .bss                                     0x200008de   Section      566  proto.o(.bss)
    .bss                                     0x20000b14   Section     2710  chead.o(.bss)
    .bss                                     0x200015aa   Section       44  nfc_app.o(.bss)
    devSnCiphertext                          0x200015b6   Data          16  nfc_app.o(.bss)
    NFC_readBlockBuf                         0x200015c6   Data          16  nfc_app.o(.bss)
    .ARM.__AT_0x20005000                     0x20005000   Section     4096  save_printf.o(.ARM.__AT_0x20005000)
    watch_buf                                0x20005000   Data        4096  save_printf.o(.ARM.__AT_0x20005000)
    .ARM.__AT_0x40000000                     0x40000000   Section      224  txf5200.o(.ARM.__AT_0x40000000)
    __tagsym$$used                           0x40000000   Number         0  txf5200.o(.ARM.__AT_0x40000000)
    .ARM.__AT_0x40001000                     0x40001000   Section      224  txf5200.o(.ARM.__AT_0x40001000)
    __tagsym$$used                           0x40001000   Number         0  txf5200.o(.ARM.__AT_0x40001000)
    .ARM.__AT_0x40003000                     0x40003000   Section      208  txf5200.o(.ARM.__AT_0x40003000)
    __tagsym$$used                           0x40003000   Number         0  txf5200.o(.ARM.__AT_0x40003000)
    .ARM.__AT_0x40004000                     0x40004000   Section      208  txf5200.o(.ARM.__AT_0x40004000)
    __tagsym$$used                           0x40004000   Number         0  txf5200.o(.ARM.__AT_0x40004000)
    .ARM.__AT_0x40005000                     0x40005000   Section      208  txf5200.o(.ARM.__AT_0x40005000)
    __tagsym$$used                           0x40005000   Number         0  txf5200.o(.ARM.__AT_0x40005000)
    .ARM.__AT_0x40006000                     0x40006000   Section       44  txf5200.o(.ARM.__AT_0x40006000)
    __tagsym$$used                           0x40006000   Number         0  txf5200.o(.ARM.__AT_0x40006000)
    .ARM.__AT_0x40007000                     0x40007000   Section       44  txf5200.o(.ARM.__AT_0x40007000)
    __tagsym$$used                           0x40007000   Number         0  txf5200.o(.ARM.__AT_0x40007000)
    .ARM.__AT_0x40009000                     0x40009000   Section        4  txf5200.o(.ARM.__AT_0x40009000)
    __tagsym$$used                           0x40009000   Number         0  txf5200.o(.ARM.__AT_0x40009000)
    .ARM.__AT_0x4000A000                     0x4000a000   Section      104  txf5200.o(.ARM.__AT_0x4000A000)
    __tagsym$$used                           0x4000a000   Number         0  txf5200.o(.ARM.__AT_0x4000A000)
    .ARM.__AT_0x4000D000                     0x4000d000   Section       16  txf5200.o(.ARM.__AT_0x4000D000)
    __tagsym$$used                           0x4000d000   Number         0  txf5200.o(.ARM.__AT_0x4000D000)
    .ARM.__AT_0x4000D010                     0x4000d010   Section       16  txf5200.o(.ARM.__AT_0x4000D010)
    __tagsym$$used                           0x4000d010   Number         0  txf5200.o(.ARM.__AT_0x4000D010)
    .ARM.__AT_0x4000D020                     0x4000d020   Section       16  txf5200.o(.ARM.__AT_0x4000D020)
    __tagsym$$used                           0x4000d020   Number         0  txf5200.o(.ARM.__AT_0x4000D020)
    .ARM.__AT_0x4000D030                     0x4000d030   Section       16  txf5200.o(.ARM.__AT_0x4000D030)
    __tagsym$$used                           0x4000d030   Number         0  txf5200.o(.ARM.__AT_0x4000D030)
    .ARM.__AT_0x40012000                     0x40012000   Section       60  txf5200.o(.ARM.__AT_0x40012000)
    __tagsym$$used                           0x40012000   Number         0  txf5200.o(.ARM.__AT_0x40012000)
    .ARM.__AT_0x40013000                     0x40013000   Section      256  txf5200.o(.ARM.__AT_0x40013000)
    __tagsym$$used                           0x40013000   Number         0  txf5200.o(.ARM.__AT_0x40013000)
    .ARM.__AT_0x40014000                     0x40014000   Section        8  txf5200.o(.ARM.__AT_0x40014000)
    __tagsym$$used                           0x40014000   Number         0  txf5200.o(.ARM.__AT_0x40014000)
    .ARM.__AT_0x40015000                     0x40015000   Section       16  txf5200.o(.ARM.__AT_0x40015000)
    __tagsym$$used                           0x40015000   Number         0  txf5200.o(.ARM.__AT_0x40015000)
    .ARM.__AT_0x40015010                     0x40015010   Section       16  txf5200.o(.ARM.__AT_0x40015010)
    __tagsym$$used                           0x40015010   Number         0  txf5200.o(.ARM.__AT_0x40015010)
    .ARM.__AT_0x40015020                     0x40015020   Section       16  txf5200.o(.ARM.__AT_0x40015020)
    __tagsym$$used                           0x40015020   Number         0  txf5200.o(.ARM.__AT_0x40015020)
    .ARM.__AT_0x40015030                     0x40015030   Section       16  txf5200.o(.ARM.__AT_0x40015030)
    __tagsym$$used                           0x40015030   Number         0  txf5200.o(.ARM.__AT_0x40015030)
    .ARM.__AT_0x40017000                     0x40017000   Section       40  txf5200.o(.ARM.__AT_0x40017000)
    __tagsym$$used                           0x40017000   Number         0  txf5200.o(.ARM.__AT_0x40017000)
    .ARM.__AT_0x4001C000                     0x4001c000   Section       16  txf5200.o(.ARM.__AT_0x4001C000)
    __tagsym$$used                           0x4001c000   Number         0  txf5200.o(.ARM.__AT_0x4001C000)
    .ARM.__AT_0x4001D000                     0x4001d000   Section       16  txf5200.o(.ARM.__AT_0x4001D000)
    __tagsym$$used                           0x4001d000   Number         0  txf5200.o(.ARM.__AT_0x4001D000)
    .ARM.__AT_0x40020000                     0x40020000   Section      952  txf5200.o(.ARM.__AT_0x40020000)
    __tagsym$$used                           0x40020000   Number         0  txf5200.o(.ARM.__AT_0x40020000)
    .ARM.__AT_0x40021000                     0x40021000   Section       96  txf5200.o(.ARM.__AT_0x40021000)
    __tagsym$$used                           0x40021000   Number         0  txf5200.o(.ARM.__AT_0x40021000)
    .ARM.__AT_0x40022000                     0x40022000   Section       60  txf5200.o(.ARM.__AT_0x40022000)
    __tagsym$$used                           0x40022000   Number         0  txf5200.o(.ARM.__AT_0x40022000)
    .ARM.__AT_0x40024000                     0x40024000   Section       60  txf5200.o(.ARM.__AT_0x40024000)
    __tagsym$$used                           0x40024000   Number         0  txf5200.o(.ARM.__AT_0x40024000)
    .ARM.__AT_0x40025000                     0x40025000   Section       60  txf5200.o(.ARM.__AT_0x40025000)
    __tagsym$$used                           0x40025000   Number         0  txf5200.o(.ARM.__AT_0x40025000)
    .ARM.__AT_0x40026000                     0x40026000   Section      132  txf5200.o(.ARM.__AT_0x40026000)
    __tagsym$$used                           0x40026000   Number         0  txf5200.o(.ARM.__AT_0x40026000)
    .ARM.__AT_0x40027000                     0x40027000   Section       60  txf5200.o(.ARM.__AT_0x40027000)
    __tagsym$$used                           0x40027000   Number         0  txf5200.o(.ARM.__AT_0x40027000)
    .ARM.__AT_0x40029000                     0x40029000   Section      176  txf5200.o(.ARM.__AT_0x40029000)
    __tagsym$$used                           0x40029000   Number         0  txf5200.o(.ARM.__AT_0x40029000)
    .ARM.__AT_0x40030000                     0x40030000   Section       20  txf5200.o(.ARM.__AT_0x40030000)
    __tagsym$$used                           0x40030000   Number         0  txf5200.o(.ARM.__AT_0x40030000)
    .ARM.__AT_0x40031000                     0x40031000   Section      124  txf5200.o(.ARM.__AT_0x40031000)
    __tagsym$$used                           0x40031000   Number         0  txf5200.o(.ARM.__AT_0x40031000)
    .ARM.__AT_0x40032000                     0x40032000   Section      224  txf5200.o(.ARM.__AT_0x40032000)
    __tagsym$$used                           0x40032000   Number         0  txf5200.o(.ARM.__AT_0x40032000)
    .ARM.__AT_0x40033000                     0x40033000   Section       52  txf5200.o(.ARM.__AT_0x40033000)
    __tagsym$$used                           0x40033000   Number         0  txf5200.o(.ARM.__AT_0x40033000)
    .ARM.__AT_0x40035000                     0x40035000   Section       64  txf5200.o(.ARM.__AT_0x40035000)
    __tagsym$$used                           0x40035000   Number         0  txf5200.o(.ARM.__AT_0x40035000)
    .ARM.__AT_0x40035040                     0x40035040   Section       64  txf5200.o(.ARM.__AT_0x40035040)
    __tagsym$$used                           0x40035040   Number         0  txf5200.o(.ARM.__AT_0x40035040)
    .ARM.__AT_0x40035080                     0x40035080   Section       64  txf5200.o(.ARM.__AT_0x40035080)
    __tagsym$$used                           0x40035080   Number         0  txf5200.o(.ARM.__AT_0x40035080)
    .ARM.__AT_0x400350C0                     0x400350c0   Section       64  txf5200.o(.ARM.__AT_0x400350C0)
    __tagsym$$used                           0x400350c0   Number         0  txf5200.o(.ARM.__AT_0x400350C0)
    .ARM.__AT_0x40035100                     0x40035100   Section       64  txf5200.o(.ARM.__AT_0x40035100)
    __tagsym$$used                           0x40035100   Number         0  txf5200.o(.ARM.__AT_0x40035100)
    .ARM.__AT_0x40035140                     0x40035140   Section      320  txf5200.o(.ARM.__AT_0x40035140)
    __tagsym$$used                           0x40035140   Number         0  txf5200.o(.ARM.__AT_0x40035140)
    .ARM.__AT_0x40035280                     0x40035280   Section       64  txf5200.o(.ARM.__AT_0x40035280)
    __tagsym$$used                           0x40035280   Number         0  txf5200.o(.ARM.__AT_0x40035280)
    .ARM.__AT_0x400352C0                     0x400352c0   Section       64  txf5200.o(.ARM.__AT_0x400352C0)
    __tagsym$$used                           0x400352c0   Number         0  txf5200.o(.ARM.__AT_0x400352C0)
    .ARM.__AT_0x40035300                     0x40035300   Section       64  txf5200.o(.ARM.__AT_0x40035300)
    __tagsym$$used                           0x40035300   Number         0  txf5200.o(.ARM.__AT_0x40035300)
    .ARM.__AT_0x40035340                     0x40035340   Section       64  txf5200.o(.ARM.__AT_0x40035340)
    __tagsym$$used                           0x40035340   Number         0  txf5200.o(.ARM.__AT_0x40035340)
    .ARM.__AT_0x40035380                     0x40035380   Section       64  txf5200.o(.ARM.__AT_0x40035380)
    __tagsym$$used                           0x40035380   Number         0  txf5200.o(.ARM.__AT_0x40035380)
    .ARM.__AT_0x400353C0                     0x400353c0   Section       64  txf5200.o(.ARM.__AT_0x400353C0)
    __tagsym$$used                           0x400353c0   Number         0  txf5200.o(.ARM.__AT_0x400353C0)
    .ARM.__AT_0x40035400                     0x40035400   Section       64  txf5200.o(.ARM.__AT_0x40035400)
    __tagsym$$used                           0x40035400   Number         0  txf5200.o(.ARM.__AT_0x40035400)
    .ARM.__AT_0x40035440                     0x40035440   Section       64  txf5200.o(.ARM.__AT_0x40035440)
    __tagsym$$used                           0x40035440   Number         0  txf5200.o(.ARM.__AT_0x40035440)
    .ARM.__AT_0x40035480                     0x40035480   Section       64  txf5200.o(.ARM.__AT_0x40035480)
    __tagsym$$used                           0x40035480   Number         0  txf5200.o(.ARM.__AT_0x40035480)
    .ARM.__AT_0x400354C0                     0x400354c0   Section       64  txf5200.o(.ARM.__AT_0x400354C0)
    __tagsym$$used                           0x400354c0   Number         0  txf5200.o(.ARM.__AT_0x400354C0)
    .ARM.__AT_0x40035500                     0x40035500   Section       64  txf5200.o(.ARM.__AT_0x40035500)
    __tagsym$$used                           0x40035500   Number         0  txf5200.o(.ARM.__AT_0x40035500)
    .ARM.__AT_0x40036000                     0x40036000   Section      612  txf5200.o(.ARM.__AT_0x40036000)
    __tagsym$$used                           0x40036000   Number         0  txf5200.o(.ARM.__AT_0x40036000)
    .ARM.__AT_0x40036300                     0x40036300   Section       96  txf5200.o(.ARM.__AT_0x40036300)
    __tagsym$$used                           0x40036300   Number         0  txf5200.o(.ARM.__AT_0x40036300)
    .ARM.__AT_0x40036360                     0x40036360   Section       96  txf5200.o(.ARM.__AT_0x40036360)
    __tagsym$$used                           0x40036360   Number         0  txf5200.o(.ARM.__AT_0x40036360)
    .ARM.__AT_0x400363C0                     0x400363c0   Section       96  txf5200.o(.ARM.__AT_0x400363C0)
    __tagsym$$used                           0x400363c0   Number         0  txf5200.o(.ARM.__AT_0x400363C0)
    .ARM.__AT_0x40036420                     0x40036420   Section       48  txf5200.o(.ARM.__AT_0x40036420)
    __tagsym$$used                           0x40036420   Number         0  txf5200.o(.ARM.__AT_0x40036420)
    .ARM.__AT_0x40036450                     0x40036450   Section       48  txf5200.o(.ARM.__AT_0x40036450)
    __tagsym$$used                           0x40036450   Number         0  txf5200.o(.ARM.__AT_0x40036450)
    .ARM.__AT_0x40036480                     0x40036480   Section       48  txf5200.o(.ARM.__AT_0x40036480)
    __tagsym$$used                           0x40036480   Number         0  txf5200.o(.ARM.__AT_0x40036480)
    .ARM.__AT_0x40037000                     0x40037000   Section      320  txf5200.o(.ARM.__AT_0x40037000)
    __tagsym$$used                           0x40037000   Number         0  txf5200.o(.ARM.__AT_0x40037000)
    .ARM.__AT_0x40038000                     0x40038000   Section      600  txf5200.o(.ARM.__AT_0x40038000)
    __tagsym$$used                           0x40038000   Number         0  txf5200.o(.ARM.__AT_0x40038000)

    Global Symbols

    Symbol Name                              Value     Ov Type        Size  Object(Section)

    BuildAttributes$$THM_ISAv4$P$D$K$B$S$PE$A:L22UL41UL21$X:L11$S22US41US21$IEEE1$IW$USESV6$~STKCKD$USESV7$~SHL$OTIME$ROPI$EBA8$MICROLIB$REQ8$PRES8$EABIv2 0x00000000   Number         0  anon$$obj.o ABSOLUTE
    __ARM_use_no_argv                        0x00000000   Number         0  main.o ABSOLUTE
    __use_no_errno                           0x00000000   Number         0  useno.o ABSOLUTE
    __use_no_exception_handling              0x00000000   Number         0  useno.o ABSOLUTE
    __use_no_fp                              0x00000000   Number         0  useno.o ABSOLUTE
    __use_no_heap                            0x00000000   Number         0  useno.o ABSOLUTE
    __use_no_heap_region                     0x00000000   Number         0  useno.o ABSOLUTE
    __use_no_semihosting                     0x00000000   Number         0  useno.o ABSOLUTE
    __use_no_semihosting_swi                 0x00000000   Number         0  useno.o ABSOLUTE
    __use_no_signal_handling                 0x00000000   Number         0  useno.o ABSOLUTE
    _printf_a                                0x00000000   Number         0  stubs.o ABSOLUTE
    _printf_c                                0x00000000   Number         0  stubs.o ABSOLUTE
    _printf_charcount                        0x00000000   Number         0  stubs.o ABSOLUTE
    _printf_d                                0x00000000   Number         0  stubs.o ABSOLUTE
    _printf_e                                0x00000000   Number         0  stubs.o ABSOLUTE
    _printf_f                                0x00000000   Number         0  stubs.o ABSOLUTE
    _printf_flags                            0x00000000   Number         0  stubs.o ABSOLUTE
    _printf_fp_dec                           0x00000000   Number         0  stubs.o ABSOLUTE
    _printf_fp_hex                           0x00000000   Number         0  stubs.o ABSOLUTE
    _printf_g                                0x00000000   Number         0  stubs.o ABSOLUTE
    _printf_i                                0x00000000   Number         0  stubs.o ABSOLUTE
    _printf_int_dec                          0x00000000   Number         0  stubs.o ABSOLUTE
    _printf_l                                0x00000000   Number         0  stubs.o ABSOLUTE
    _printf_lc                               0x00000000   Number         0  stubs.o ABSOLUTE
    _printf_ll                               0x00000000   Number         0  stubs.o ABSOLUTE
    _printf_lld                              0x00000000   Number         0  stubs.o ABSOLUTE
    _printf_lli                              0x00000000   Number         0  stubs.o ABSOLUTE
    _printf_llo                              0x00000000   Number         0  stubs.o ABSOLUTE
    _printf_llu                              0x00000000   Number         0  stubs.o ABSOLUTE
    _printf_llx                              0x00000000   Number         0  stubs.o ABSOLUTE
    _printf_longlong_dec                     0x00000000   Number         0  stubs.o ABSOLUTE
    _printf_longlong_hex                     0x00000000   Number         0  stubs.o ABSOLUTE
    _printf_longlong_oct                     0x00000000   Number         0  stubs.o ABSOLUTE
    _printf_ls                               0x00000000   Number         0  stubs.o ABSOLUTE
    _printf_mbtowc                           0x00000000   Number         0  stubs.o ABSOLUTE
    _printf_n                                0x00000000   Number         0  stubs.o ABSOLUTE
    _printf_o                                0x00000000   Number         0  stubs.o ABSOLUTE
    _printf_p                                0x00000000   Number         0  stubs.o ABSOLUTE
    _printf_percent                          0x00000000   Number         0  stubs.o ABSOLUTE
    _printf_pre_padding                      0x00000000   Number         0  stubs.o ABSOLUTE
    _printf_return_value                     0x00000000   Number         0  stubs.o ABSOLUTE
    _printf_s                                0x00000000   Number         0  stubs.o ABSOLUTE
    _printf_sizespec                         0x00000000   Number         0  stubs.o ABSOLUTE
    _printf_str                              0x00000000   Number         0  stubs.o ABSOLUTE
    _printf_truncate_signed                  0x00000000   Number         0  stubs.o ABSOLUTE
    _printf_truncate_unsigned                0x00000000   Number         0  stubs.o ABSOLUTE
    _printf_u                                0x00000000   Number         0  stubs.o ABSOLUTE
    _printf_wc                               0x00000000   Number         0  stubs.o ABSOLUTE
    _printf_wctomb                           0x00000000   Number         0  stubs.o ABSOLUTE
    _printf_widthprec                        0x00000000   Number         0  stubs.o ABSOLUTE
    _printf_x                                0x00000000   Number         0  stubs.o ABSOLUTE
    __arm_fini_                               - Undefined Weak Reference
    __cpp_initialize__aeabi_                  - Undefined Weak Reference
    __cxa_finalize                            - Undefined Weak Reference
    _clock_init                               - Undefined Weak Reference
    _microlib_exit                            - Undefined Weak Reference
    __vector_handlers                        0x08000000   Data         316  tx_phe_startup.o(RESET)
    __main                                   0x0800013d   Thumb Code     0  entry.o(.ARM.Collect$$$$00000000)
    _main_stk                                0x0800013d   Thumb Code     0  entry4.o(.ARM.Collect$$$$00000003)
    _main_scatterload                        0x08000141   Thumb Code     0  entry5.o(.ARM.Collect$$$$00000004)
    __main_after_scatterload                 0x08000145   Thumb Code     0  entry5.o(.ARM.Collect$$$$00000004)
    _main_clock                              0x08000145   Thumb Code     0  entry7b.o(.ARM.Collect$$$$00000008)
    _main_cpp_init                           0x08000145   Thumb Code     0  entry8b.o(.ARM.Collect$$$$0000000A)
    _main_init                               0x08000145   Thumb Code     0  entry9a.o(.ARM.Collect$$$$0000000B)
    __rt_lib_shutdown_fini                   0x0800014d   Thumb Code     0  entry12b.o(.ARM.Collect$$$$0000000E)
    __rt_final_cpp                           0x08000151   Thumb Code     0  entry10a.o(.ARM.Collect$$$$0000000F)
    __rt_final_exit                          0x08000151   Thumb Code     0  entry11a.o(.ARM.Collect$$$$00000011)
    __scatterload                            0x08000155   Thumb Code    28  init.o(.text)
    __scatterload_rt2                        0x08000155   Thumb Code     0  init.o(.text)
    __decompress                             0x08000179   Thumb Code     0  __dczerorl2.o(.text)
    __decompress1                            0x08000179   Thumb Code    86  __dczerorl2.o(.text)
    Long Thumb to Thumb Veneer to system_init 0x080001cf   Thumb Code    10  anon$$obj.o(Veneer$$Code)
    Long Thumb to Thumb Veneer to $Super$$main 0x080001d9   Thumb Code    10  anon$$obj.o(Veneer$$Code)
    Long Thumb to Thumb Veneer to __aeabi_uldivmod 0x080001e3   Thumb Code    10  anon$$obj.o(Veneer$$Code)
    main                                     0x080001ed   Thumb Code    12  tx_phe_startup.o(i.$Sub$$main)
    Reset_Handler                            0x080001f9   Thumb Code     8  tx_phe_startup.o(i.Reset_Handler)
    __0printf$8                              0x08000201   Thumb Code    22  printf8.o(i.__0printf$8)
    __1printf$8                              0x08000201   Thumb Code     0  printf8.o(i.__0printf$8)
    __2printf                                0x08000201   Thumb Code     0  printf8.o(i.__0printf$8)
    __scatterload_copy                       0x08000221   Thumb Code    14  handlers.o(i.__scatterload_copy)
    __scatterload_null                       0x0800022f   Thumb Code     2  handlers.o(i.__scatterload_null)
    __scatterload_zeroinit                   0x08000231   Thumb Code    14  handlers.o(i.__scatterload_zeroinit)
    Region$$Table$$Base                      0x08000698   Number         0  anon$$obj.o(Region$$Table)
    Region$$Table$$Limit                     0x080006d8   Number         0  anon$$obj.o(Region$$Table)
    sram_vector_table                        0x10006000   Data         384  tx_phe_system.o(SRAM_VECTOR_TAB)
    __asm___15_tx_phe_system_c_37adac22____delay_asm 0x10006181   Thumb Code     6  tx_phe_system.o(.emb_text)
    __aeabi_uldivmod                         0x10006187   Thumb Code    98  uldiv.o(.text)
    __aeabi_memcpy                           0x100061e9   Thumb Code    36  memcpya.o(.text)
    __aeabi_memcpy4                          0x100061e9   Thumb Code     0  memcpya.o(.text)
    __aeabi_memcpy8                          0x100061e9   Thumb Code     0  memcpya.o(.text)
    __aeabi_memset                           0x1000620d   Thumb Code    14  memseta.o(.text)
    __aeabi_memset4                          0x1000620d   Thumb Code     0  memseta.o(.text)
    __aeabi_memset8                          0x1000620d   Thumb Code     0  memseta.o(.text)
    __aeabi_memclr                           0x1000621b   Thumb Code     4  memseta.o(.text)
    __aeabi_memclr4                          0x1000621b   Thumb Code     0  memseta.o(.text)
    __aeabi_memclr8                          0x1000621b   Thumb Code     0  memseta.o(.text)
    _memset$wrapper                          0x1000621f   Thumb Code    18  memseta.o(.text)
    __aeabi_dmul                             0x10006231   Thumb Code   228  dmul.o(.text)
    __aeabi_ui2d                             0x10006315   Thumb Code    26  dfltui.o(.text)
    __aeabi_d2uiz                            0x1000632f   Thumb Code    50  dfixui.o(.text)
    __aeabi_llsl                             0x10006361   Thumb Code    30  llshl.o(.text)
    _ll_shift_l                              0x10006361   Thumb Code     0  llshl.o(.text)
    __aeabi_llsr                             0x1000637f   Thumb Code    32  llushr.o(.text)
    _ll_ushift_r                             0x1000637f   Thumb Code     0  llushr.o(.text)
    __I$use$fp                               0x1000639f   Thumb Code     0  iusefp.o(.text)
    _double_round                            0x1000639f   Thumb Code    30  depilogue.o(.text)
    _double_epilogue                         0x100063bd   Thumb Code   156  depilogue.o(.text)
    Long Thumb to Thumb Veneer to __2printf  0x10006459   Thumb Code    10  anon$$obj.o(Veneer$$Code)
    ADTIM0_IRQHandler                        0x10006463   Thumb Code     2  tx_phe_irq.o(i.ADTIM0_IRQHandler)
    ARCTAN0_IRQHandler                       0x10006465   Thumb Code     2  tx_phe_irq.o(i.ARCTAN0_IRQHandler)
    ARCTAN1_IRQHandler                       0x10006467   Thumb Code     2  tx_phe_irq.o(i.ARCTAN1_IRQHandler)
    ARCTAN2_IRQHandler                       0x10006469   Thumb Code     2  tx_phe_irq.o(i.ARCTAN2_IRQHandler)
    BusFault_Handler                         0x1000646b   Thumb Code     8  tx_phe_irq.o(i.BusFault_Handler)
    CAN_IRQHandler                           0x10006473   Thumb Code     2  tx_phe_irq.o(i.CAN_IRQHandler)
    CRC_IRQHandler                           0x10006475   Thumb Code     2  tx_phe_irq.o(i.CRC_IRQHandler)
    CalulateCRC                              0x10006477   Thumb Code   108  rc523_drv.o(i.CalulateCRC)
    ClearBitMask                             0x100064e3   Thumb Code    28  rc523_drv.o(i.ClearBitMask)
    DATADMA_IRQHandler                       0x100064ff   Thumb Code     2  tx_phe_irq.o(i.DATADMA_IRQHandler)
    DFTRANS0_IRQHandler                      0x10006501   Thumb Code     2  tx_phe_irq.o(i.DFTRANS0_IRQHandler)
    DFTRANS1_IRQHandler                      0x10006503   Thumb Code     2  tx_phe_irq.o(i.DFTRANS1_IRQHandler)
    DFTRANS2_IRQHandler                      0x10006505   Thumb Code     2  tx_phe_irq.o(i.DFTRANS2_IRQHandler)
    DMA0_IRQHandler                          0x10006507   Thumb Code     2  tx_phe_irq.o(i.DMA0_IRQHandler)
    DebugMon_Handler                         0x10006509   Thumb Code     2  tx_phe_irq.o(i.DebugMon_Handler)
    EPWM_IRQHandler                          0x1000650b   Thumb Code     2  tx_phe_irq.o(i.EPWM_IRQHandler)
    EVSYS_IRQHandler                         0x1000650d   Thumb Code     2  tx_phe_irq.o(i.EVSYS_IRQHandler)
    FADC_IRQHandler                          0x10006511   Thumb Code    36  tx_phe_irq.o(i.FADC_IRQHandler)
    FFT0_IRQHandler                          0x10006539   Thumb Code     2  tx_phe_irq.o(i.FFT0_IRQHandler)
    FFT0_PREPROCESS_IRQHandler               0x1000653b   Thumb Code     2  tx_phe_irq.o(i.FFT0_PREPROCESS_IRQHandler)
    FFT1_IRQHandler                          0x1000653d   Thumb Code     2  tx_phe_irq.o(i.FFT1_IRQHandler)
    FFT1_PREPROCESS_IRQHandler               0x1000653f   Thumb Code     2  tx_phe_irq.o(i.FFT1_PREPROCESS_IRQHandler)
    FFT2_IRQHandler                          0x10006541   Thumb Code     2  tx_phe_irq.o(i.FFT2_IRQHandler)
    FFT2_PREPROCESS_IRQHandler               0x10006543   Thumb Code     2  tx_phe_irq.o(i.FFT2_PREPROCESS_IRQHandler)
    FIR0_IRQHandler                          0x10006545   Thumb Code     2  tx_phe_irq.o(i.FIR0_IRQHandler)
    FIR1_IRQHandler                          0x10006547   Thumb Code     2  tx_phe_irq.o(i.FIR1_IRQHandler)
    FIR2_IRQHandler                          0x10006549   Thumb Code     2  tx_phe_irq.o(i.FIR2_IRQHandler)
    GMAC_IRQHandler                          0x1000658f   Thumb Code     2  tx_phe_irq.o(i.GMAC_IRQHandler)
    GPIOA_IRQHandler                         0x10006591   Thumb Code     2  tx_phe_irq.o(i.GPIOA_IRQHandler)
    GPIOB_IRQHandler                         0x10006593   Thumb Code     2  tx_phe_irq.o(i.GPIOB_IRQHandler)
    GPIOC_IRQHandler                         0x10006595   Thumb Code     2  tx_phe_irq.o(i.GPIOC_IRQHandler)
    GPIOD_IRQHandler                         0x10006597   Thumb Code     2  tx_phe_irq.o(i.GPIOD_IRQHandler)
    HCC_IRQHandler                           0x10006599   Thumb Code     2  tx_phe_irq.o(i.HCC_IRQHandler)
    HardFault_Handler                        0x1000659b   Thumb Code     8  tx_phe_irq.o(i.HardFault_Handler)
    IIC0_IRQHandler                          0x100065a3   Thumb Code     2  tx_phe_irq.o(i.IIC0_IRQHandler)
    IIC1_IRQHandler                          0x100065a5   Thumb Code     2  tx_phe_irq.o(i.IIC1_IRQHandler)
    IIR0_IRQHandler                          0x100065a7   Thumb Code     2  tx_phe_irq.o(i.IIR0_IRQHandler)
    IIR1_IRQHandler                          0x100065a9   Thumb Code     2  tx_phe_irq.o(i.IIR1_IRQHandler)
    IIR2_IRQHandler                          0x100065ab   Thumb Code     2  tx_phe_irq.o(i.IIR2_IRQHandler)
    LCD_send_byte                            0x10006615   Thumb Code    76  lcd12864_drv.o(i.LCD_send_byte)
    LVD_IRQHandler                           0x10006665   Thumb Code     8  tx_phe_irq.o(i.LVD_IRQHandler)
    MATRIX_MULT_IRQHandler                   0x1000666d   Thumb Code     2  tx_phe_irq.o(i.MATRIX_MULT_IRQHandler)
    MFRC522_SleepUS                          0x1000666f   Thumb Code    18  rc523_drv.o(i.MFRC522_SleepUS)
    Main_Poll                                0x10006681   Thumb Code   130  user.o(i.Main_Poll)
    MemManage_Handler                        0x10006719   Thumb Code     8  tx_phe_irq.o(i.MemManage_Handler)
    NMI_Handler                              0x10006721   Thumb Code     8  tx_phe_irq.o(i.NMI_Handler)
    NVIC_Init                                0x10006729   Thumb Code   110  tx_phe_misc.o(i.NVIC_Init)
    PcdAntennaOn                             0x100067a5   Thumb Code    26  rc523_drv.o(i.PcdAntennaOn)
    PcdAnticoll                              0x100067bf   Thumb Code   220  rc523_drv.o(i.PcdAnticoll)
    PcdAuthState                             0x1000689b   Thumb Code   110  rc523_drv.o(i.PcdAuthState)
    PcdComMF522                              0x10006909   Thumb Code   306  rc523_drv.o(i.PcdComMF522)
    PcdRead                                  0x10006a3b   Thumb Code    84  rc523_drv.o(i.PcdRead)
    PcdRequest                               0x10006a8f   Thumb Code   112  rc523_drv.o(i.PcdRequest)
    PcdReset                                 0x10006aff   Thumb Code   352  rc523_drv.o(i.PcdReset)
    PcdSelect                                0x10006c5f   Thumb Code   114  rc523_drv.o(i.PcdSelect)
    PendSV_Handler                           0x10006cd1   Thumb Code     2  tx_phe_irq.o(i.PendSV_Handler)
    QEI_IRQHandler                           0x10006cd3   Thumb Code     2  tx_phe_irq.o(i.QEI_IRQHandler)
    RC523_Delay_Us                           0x10006cd5   Thumb Code    18  rc523_drv.o(i.RC523_Delay_Us)
    RMS0_IRQHandler                          0x10006ce7   Thumb Code     2  tx_phe_irq.o(i.RMS0_IRQHandler)
    RMS1_IRQHandler                          0x10006ce9   Thumb Code     2  tx_phe_irq.o(i.RMS1_IRQHandler)
    RMS2_IRQHandler                          0x10006ceb   Thumb Code     2  tx_phe_irq.o(i.RMS2_IRQHandler)
    ReadRawRC                                0x10006ced   Thumb Code   188  rc523_cfg.o(i.ReadRawRC)
    SARADC_IRQHandler                        0x10006dad   Thumb Code     2  tx_phe_irq.o(i.SARADC_IRQHandler)
    SINCOS0_IRQHandler                       0x10006daf   Thumb Code     2  tx_phe_irq.o(i.SINCOS0_IRQHandler)
    SINCOS1_IRQHandler                       0x10006db1   Thumb Code     2  tx_phe_irq.o(i.SINCOS1_IRQHandler)
    SPI0_IRQHandler                          0x10006db3   Thumb Code     2  tx_phe_irq.o(i.SPI0_IRQHandler)
    SPI1_IRQHandler                          0x10006db5   Thumb Code     2  tx_phe_irq.o(i.SPI1_IRQHandler)
    SPWM_IRQHandler                          0x10006db7   Thumb Code     2  tx_phe_irq.o(i.SPWM_IRQHandler)
    SVC_Handler                              0x10006db9   Thumb Code     2  tx_phe_irq.o(i.SVC_Handler)
    SVPWM_IRQHandler                         0x10006dbb   Thumb Code     2  tx_phe_irq.o(i.SVPWM_IRQHandler)
    Senddata                                 0x10006dbd   Thumb Code   158  proto.o(i.Senddata)
    SetBitMask                               0x10006e6d   Thumb Code    28  rc523_drv.o(i.SetBitMask)
    SysTick_Handler                          0x10006e89   Thumb Code    12  tx_phe_irq.o(i.SysTick_Handler)
    TIM0_IRQHandler                          0x10006e99   Thumb Code   842  tx_phe_irq.o(i.TIM0_IRQHandler)
    TIM1_IRQHandler                          0x10007209   Thumb Code    60  tx_phe_irq.o(i.TIM1_IRQHandler)
    TIM2_IRQHandler                          0x10007249   Thumb Code    60  tx_phe_irq.o(i.TIM2_IRQHandler)
    TIM3_IRQHandler                          0x10007289   Thumb Code    60  tx_phe_irq.o(i.TIM3_IRQHandler)
    TIM4_IRQHandler                          0x100072c9   Thumb Code    56  tx_phe_irq.o(i.TIM4_IRQHandler)
    TIM5_IRQHandler                          0x10007305   Thumb Code    60  tx_phe_irq.o(i.TIM5_IRQHandler)
    TIM6_IRQHandler                          0x10007345   Thumb Code    60  tx_phe_irq.o(i.TIM6_IRQHandler)
    TIM7_IRQHandler                          0x10007385   Thumb Code    60  tx_phe_irq.o(i.TIM7_IRQHandler)
    USART0_IRQHandler                        0x100073c5   Thumb Code   170  tx_phe_irq.o(i.USART0_IRQHandler)
    USART1_IRQHandler                        0x10007479   Thumb Code    90  tx_phe_irq.o(i.USART1_IRQHandler)
    USART2_IRQHandler                        0x100074d5   Thumb Code   176  tx_phe_irq.o(i.USART2_IRQHandler)
    Upload_server                            0x10007591   Thumb Code  2008  proto.o(i.Upload_server)
    UsageFault_Handler                       0x10007d7d   Thumb Code     8  tx_phe_irq.o(i.UsageFault_Handler)
    WAKEUP_IRQHandler                        0x10007d85   Thumb Code     2  tx_phe_irq.o(i.WAKEUP_IRQHandler)
    WDT_IRQHandler                           0x10007d89   Thumb Code    24  tx_phe_irq.o(i.WDT_IRQHandler)
    WriteRawRC                               0x10007da5   Thumb Code   192  rc523_cfg.o(i.WriteRawRC)
    charge_process                           0x10007ef9   Thumb Code   504  chead.o(i.charge_process)
    clr_all                                  0x10008105   Thumb Code    72  lcd12864_drv.o(i.clr_all)
    clr_bmp                                  0x10008161   Thumb Code    56  lcd12864_drv.o(i.clr_bmp)
    clr_txt                                  0x10008199   Thumb Code    40  lcd12864_drv.o(i.clr_txt)
    constant_parameter_updata                0x100081c1   Thumb Code    40  chead.o(i.constant_parameter_updata)
    crccheck                                 0x100081f1   Thumb Code    58  crccheck.o(i.crccheck)
    debug_select_interface                   0x10008235   Thumb Code    42  tx_phe_debug.o(i.debug_select_interface)
    delay_ms                                 0x10008271   Thumb Code    42  tx_phe_system.o(i.delay_ms)
    delay_us                                 0x1000829d   Thumb Code    36  tx_phe_system.o(i.delay_us)
    display_16x16graphic                     0x100082fd   Thumb Code   152  lcd12864_drv.o(i.display_16x16graphic)
    display_16x32graphic                     0x10008395   Thumb Code   240  lcd12864_drv.o(i.display_16x32graphic)
    display_64x64graphic                     0x10008485   Thumb Code   236  lcd12864_drv.o(i.display_64x64graphic)
    display_chinese                          0x10008571   Thumb Code   170  lcd12864_drv.o(i.display_chinese)
    dump_fault_state                         0x1000861d   Thumb Code   406  tx_phe_system.o(i.dump_fault_state)
    eflash_read_check                        0x10008af5   Thumb Code    74  eflash.o(i.eflash_read_check)
    eflash_read_sector                       0x10008b4d   Thumb Code    56  eflash.o(i.eflash_read_sector)
    eflash_write_sector                      0x10008b91   Thumb Code    78  eflash.o(i.eflash_write_sector)
    epwm_config                              0x10008bf1   Thumb Code   112  modules_init.o(i.epwm_config)
    epwm_init                                0x10008c69   Thumb Code    20  modules_init.o(i.epwm_init)
    epwm_start                               0x10008c81   Thumb Code    12  modules_init.o(i.epwm_start)
    epwm_stop                                0x10008c91   Thumb Code    16  modules_init.o(i.epwm_stop)
    ev7kw_numtrans                           0x10008ca5   Thumb Code    54  lcd12864_app.o(i.ev7kw_numtrans)
    fputc                                    0x10008ce5   Thumb Code    94  tx_phe_debug.o(i.fputc)
    frame_get                                0x10008d51   Thumb Code    60  proto.o(i.frame_get)
    hex_2_char                               0x10008d8d   Thumb Code    34  lcd12864_app.o(i.hex_2_char)
    km1_off                                  0x10008daf   Thumb Code     8  chead.o(i.km1_off)
    km1_on                                   0x10008db7   Thumb Code    22  chead.o(i.km1_on)
    km_control                               0x10008dcd   Thumb Code     2  slave.o(i.km_control)
    lcd_updata                               0x10008dd1   Thumb Code  1916  lcd12864_app.o(i.lcd_updata)
    ledprocess                               0x100095c1   Thumb Code   252  main.o(i.ledprocess)
    ll_cc_adcpll_set                         0x100096cd   Thumb Code   586  tx_phe_ll_cc_rst.o(i.ll_cc_adcpll_set)
    ll_cc_clk_div_config                     0x10009935   Thumb Code   148  tx_phe_ll_cc_rst.o(i.ll_cc_clk_div_config)
    ll_cc_rst_delay5ms_32khz                 0x10009a4d   Thumb Code    32  tx_phe_ll_cc_rst.o(i.ll_cc_rst_delay5ms_32khz)
    ll_cc_sys_clk_get                        0x10009a6d   Thumb Code    92  tx_phe_ll_cc_rst.o(i.ll_cc_sys_clk_get)
    ll_cc_syspll_set                         0x10009ad9   Thumb Code   720  tx_phe_ll_cc_rst.o(i.ll_cc_syspll_set)
    ll_eflash_config                         0x10009dc5   Thumb Code   126  tx_phe_ll_eflash.o(i.ll_eflash_config)
    ll_eflash_erase_sector                   0x10009e89   Thumb Code    68  tx_phe_ll_eflash.o(i.ll_eflash_erase_sector)
    ll_eflash_init                           0x10009f0d   Thumb Code    92  tx_phe_ll_eflash.o(i.ll_eflash_init)
    ll_eflash_prog_word                      0x10009fc1   Thumb Code    70  tx_phe_ll_eflash.o(i.ll_eflash_prog_word)
    ll_epwm_config                           0x1000a059   Thumb Code  2406  tx_phe_ll_epwm.o(i.ll_epwm_config)
    ll_epwm_init                             0x1000a9c1   Thumb Code   160  tx_phe_ll_epwm.o(i.ll_epwm_init)
    ll_epwm_start                            0x1000aaad   Thumb Code   100  tx_phe_ll_epwm.o(i.ll_epwm_start)
    ll_epwm_stop                             0x1000ab4d   Thumb Code   176  tx_phe_ll_epwm.o(i.ll_epwm_stop)
    ll_gpio_dir                              0x1000ac51   Thumb Code    64  tx_phe_ll_gpio.o(i.ll_gpio_dir)
    ll_gpio_pull                             0x1000acd9   Thumb Code   110  tx_phe_ll_gpio.o(i.ll_gpio_pull)
    ll_timer_config                          0x1000adc9   Thumb Code   136  tx_phe_ll_timer.o(i.ll_timer_config)
    ll_timer_init                            0x1000ae95   Thumb Code    78  tx_phe_ll_timer.o(i.ll_timer_init)
    ll_timer_io_map                          0x1000af29   Thumb Code   826  tx_phe_ll_timer.o(i.ll_timer_io_map)
    ll_timer_irq_config                      0x1000b2b1   Thumb Code    40  tx_phe_ll_timer.o(i.ll_timer_irq_config)
    ll_timer_start                           0x1000b2d9   Thumb Code    92  tx_phe_ll_timer.o(i.ll_timer_start)
    ll_timer_stop                            0x1000b379   Thumb Code    86  tx_phe_ll_timer.o(i.ll_timer_stop)
    ll_usart232_config                       0x1000b415   Thumb Code   136  tx_phe_ll_usart.o(i.ll_usart232_config)
    ll_usart232_io_map                       0x1000b4e1   Thumb Code   200  tx_phe_ll_usart.o(i.ll_usart232_io_map)
    ll_usart_init                            0x1000b60d   Thumb Code    36  tx_phe_ll_usart.o(i.ll_usart_init)
    ll_usart_irq_config                      0x1000b675   Thumb Code    70  tx_phe_ll_usart.o(i.ll_usart_irq_config)
    $Super$$main                             0x1000b6bd   Thumb Code   660  main.o(i.main)
    main_loop                                0x1000b969   Thumb Code   524  main.o(i.main_loop)
    meterdata_process                        0x1000bbc1   Thumb Code   192  slave.o(i.meterdata_process)
    meterread_process                        0x1000bc8d   Thumb Code    96  slave.o(i.meterread_process)
    network                                  0x1000bcf5   Thumb Code   494  main.o(i.network)
    nfc_init                                 0x1000bf25   Thumb Code    16  nfc_app.o(i.nfc_init)
    nfc_read_card                            0x1000bf35   Thumb Code   184  nfc_app.o(i.nfc_read_card)
    order_clear                              0x1000c001   Thumb Code   114  main.o(i.order_clear)
    param_init                               0x1000c07d   Thumb Code   578  chead.o(i.param_init)
    param_save                               0x1000c2dd   Thumb Code   410  chead.o(i.param_save)
    protect_process                          0x1000c48d   Thumb Code   610  slave.o(i.protect_process)
    proto_run                                0x1000cca5   Thumb Code     8  proto.o(i.proto_run)
    rc523_io_cfg_init                        0x1000ccad   Thumb Code   116  rc523_cfg.o(i.rc523_io_cfg_init)
    read_data_eflash                         0x1000cd29   Thumb Code    20  eflash.o(i.read_data_eflash)
    recover_fault_state                      0x1000cd41   Thumb Code     8  tx_phe_system.o(i.recover_fault_state)
    save_data_eflash                         0x1000cd49   Thumb Code    94  eflash.o(i.save_data_eflash)
    serial_buf_init                          0x1000cdb1   Thumb Code    14  serial.o(i.serial_buf_init)
    serial_config                            0x1000cdc5   Thumb Code    72  serial.o(i.serial_config)
    serial_init                              0x1000ce19   Thumb Code    46  serial.o(i.serial_init)
    serial_putc                              0x1000ce4d   Thumb Code    16  serial.o(i.serial_putc)
    serial_tx_handle                         0x1000ce5d   Thumb Code    74  serial.o(i.serial_tx_handle)
    set_dev_sn_to_nfc                        0x1000ceb9   Thumb Code    16  nfc_app.o(i.set_dev_sn_to_nfc)
    set_rst                                  0x1000cecd   Thumb Code    32  rc523_cfg.o(i.set_rst)
    sys_eflash_config                        0x1000cef1   Thumb Code    58  tx_phe_system.o(i.sys_eflash_config)
    sys_eflash_init                          0x1000cf35   Thumb Code    16  tx_phe_system.o(i.sys_eflash_init)
    sys_fault_recover_context                0x1000cf49   Thumb Code     2  tx_phe_system.o(i.sys_fault_recover_context)
    sys_fault_save_context                   0x1000cf4b   Thumb Code     2  tx_phe_system.o(i.sys_fault_save_context)
    sys_module_init                          0x1000cf4d   Thumb Code    60  tx_phe_system.o(i.sys_module_init)
    sys_peripheral_init                      0x1000cf99   Thumb Code    80  tx_phe_system.o(i.sys_peripheral_init)
    system_critical_section_enter            0x1000cff1   Thumb Code    32  tx_phe_system.o(i.system_critical_section_enter)
    system_critical_section_exit             0x1000d019   Thumb Code    32  tx_phe_system.o(i.system_critical_section_exit)
    system_init                              0x1000d041   Thumb Code    62  tx_phe_system.o(i.system_init)
    time_process                             0x1000d091   Thumb Code   344  chead.o(i.time_process)
    timer1_config                            0x1000d1f5   Thumb Code    54  utimer.o(i.timer1_config)
    timer1_config2                           0x1000d235   Thumb Code    54  utimer.o(i.timer1_config2)
    timer1_init                              0x1000d275   Thumb Code    16  utimer.o(i.timer1_init)
    timer1_start                             0x1000d289   Thumb Code    14  utimer.o(i.timer1_start)
    timer1_stop                              0x1000d2a1   Thumb Code    10  utimer.o(i.timer1_stop)
    tx_assert_false                          0x1000d2b1   Thumb Code    18  tx_phe_assert.o(i.tx_assert_false)
    usart2_config                            0x1000d2f5   Thumb Code    94  user.o(i.usart2_config)
    usart2_init                              0x1000d359   Thumb Code    44  user.o(i.usart2_init)
    utimer_config                            0x1000d389   Thumb Code    72  utimer.o(i.utimer_config)
    utimer_init                              0x1000d3d9   Thumb Code    46  utimer.o(i.utimer_init)
    utimer_interput_handle                   0x1000d40d   Thumb Code    46  utimer.o(i.utimer_interput_handle)
    utimer_start                             0x1000d441   Thumb Code    14  utimer.o(i.utimer_start)
    QR_code                                  0x1000d458   Data         512  lcd12864_app.o(.constdata)
    Warning                                  0x1000d658   Data         512  lcd12864_app.o(.constdata)
    Num_16x32                                0x1000d858   Data         768  lcd12864_app.o(.constdata)
    string_16x16                             0x1000db58   Data          64  lcd12864_app.o(.constdata)
    test_time                                0x20000000   Data           1  main.o(.data)
    led_cnt                                  0x20000001   Data           1  main.o(.data)
    send_flag                                0x20000002   Data           2  user.o(.data)
    recv_flag                                0x20000004   Data           2  user.o(.data)
    reccnt                                   0x20000006   Data           2  user.o(.data)
    Address                                  0x20000008   Data           1  user.o(.data)
    wdt_cfg                                  0x20000009   Data           2  user.o(.data)
    serial_irq_cfg                           0x2000000b   Data           5  serial.o(.data)
    sector_index                             0x20000010   Data           1  eflash.o(.data)
    i                                        0x20000014   Data           4  eflash.o(.data)
    p_write_addr                             0x20000018   Data           4  eflash.o(.data)
    p_read_addr                              0x2000001c   Data           4  eflash.o(.data)
    buf_write                                0x20000020   Data           4  eflash.o(.data)
    buf_read                                 0x20000024   Data           4  eflash.o(.data)
    tmr_cnt0                                 0x20000028   Data           4  chead.o(.data)
    sec_cnt                                  0x2000002c   Data           2  chead.o(.data)
    sec_cnt3                                 0x2000002e   Data           2  chead.o(.data)
    sec_cnt9                                 0x20000030   Data           2  chead.o(.data)
    sec_cnt15                                0x20000032   Data           2  chead.o(.data)
    sec_cnt30                                0x20000034   Data           2  chead.o(.data)
    sec_cnt20                                0x20000036   Data           2  chead.o(.data)
    refresh_cnt                              0x20000038   Data           2  chead.o(.data)
    sec_cnt180                               0x2000003a   Data           2  chead.o(.data)
    sec_cnt300                               0x2000003c   Data           2  chead.o(.data)
    stop_cnt                                 0x2000003e   Data           1  chead.o(.data)
    PLC_TO_SERIAL_EN                         0x20000040   Data           4  chead.o(.data)
    light                                    0x20000044   Data           1  chead.o(.data)
    led_sta                                  0x20000045   Data           1  chead.o(.data)
    login_ok                                 0x20000046   Data           1  chead.o(.data)
    login_cnt                                0x20000047   Data           1  chead.o(.data)
    heart_cnt                                0x20000048   Data           1  chead.o(.data)
    heart_sta                                0x20000049   Data           1  chead.o(.data)
    settime_minu                             0x2000004a   Data           1  chead.o(.data)
    port_chn                                 0x2000004b   Data           1  chead.o(.data)
    epport_len                               0x2000004c   Data           1  chead.o(.data)
    tcp_ok                                   0x2000004d   Data           1  chead.o(.data)
    chn_all                                  0x2000004e   Data           1  chead.o(.data)
    nfc_sta                                  0x2000004f   Data           1  chead.o(.data)
    lcdon_cnt                                0x20000050   Data           1  chead.o(.data)
    recv_cnt                                 0x20000054   Data           2  chead.o(.data)
    delay_200ms                              0x20000056   Data           2  chead.o(.data)
    temp41                                   0x20000058   Data           4  chead.o(.data)
    temp42                                   0x2000005c   Data           4  chead.o(.data)
    temp43                                   0x20000060   Data           4  chead.o(.data)
    temp44                                   0x20000064   Data           4  chead.o(.data)
    temp21                                   0x20000068   Data           2  chead.o(.data)
    temp22                                   0x2000006a   Data           2  chead.o(.data)
    temp23                                   0x2000006c   Data           2  chead.o(.data)
    temp24                                   0x20000070   Data           2  chead.o(.data)
    temp11                                   0x20000072   Data           1  chead.o(.data)
    temp12                                   0x20000073   Data           1  chead.o(.data)
    temp13                                   0x20000074   Data           1  chead.o(.data)
    temp14                                   0x20000078   Data           1  chead.o(.data)
    NodeID                                   0x20000079   Data           1  chead.o(.data)
    current_tmp                              0x2000007a   Data           2  chead.o(.data)
    current_below_cnt                        0x2000007c   Data           1  chead.o(.data)
    current_above_cnt                        0x2000007d   Data           1  chead.o(.data)
    voltage_tmp                              0x2000007e   Data           2  chead.o(.data)
    voltage_cnt1                             0x20000080   Data           2  chead.o(.data)
    voltage_cnt2                             0x20000082   Data           2  chead.o(.data)
    voltage_cnt                              0x20000084   Data           2  chead.o(.data)
    voltage_fau1                             0x20000086   Data           2  chead.o(.data)
    voltage_fau2                             0x20000088   Data           2  chead.o(.data)
    uart0_busy                               0x2000008a   Data           1  chead.o(.data)
    uart2_busy                               0x2000008b   Data           1  chead.o(.data)
    power_up                                 0x2000008c   Data           1  chead.o(.data)
    power_up_cnt                             0x2000008d   Data           1  chead.o(.data)
    power_up_sent                            0x2000008e   Data           1  chead.o(.data)
    test_tmp1                                0x20000090   Data           2  chead.o(.data)
    test_tmp2                                0x20000092   Data           2  chead.o(.data)
    test_tmp3                                0x20000094   Data           2  chead.o(.data)
    test_tmp4                                0x20000096   Data           2  chead.o(.data)
    test_tmp5                                0x20000098   Data           2  chead.o(.data)
    ota_status                               0x2000009a   Data           1  chead.o(.data)
    warningState_old                         0x2000009b   Data           1  chead.o(.data)
    warningState                             0x2000009c   Data           1  chead.o(.data)
    lcd_recharging                           0x2000009d   Data          14  chead.o(.data)
    lcd_DevInfo                              0x200000ab   Data          18  chead.o(.data)
    gabyCRCHi                                0x200000bd   Data         256  crccheck.o(.data)
    gabyCRCLo                                0x200001bd   Data         256  crccheck.o(.data)
    lcd_current_data                         0x200002be   Data           4  lcd12864_app.o(.data)
    lcd_voltage_data                         0x200002c2   Data           4  lcd12864_app.o(.data)
    lcd_pwr_data                             0x200002c6   Data           4  lcd12864_app.o(.data)
    lcd_kwh_data                             0x200002ca   Data           5  lcd12864_app.o(.data)
    lcd_cost_data                            0x200002cf   Data           6  lcd12864_app.o(.data)
    lcd_time_data                            0x200002d5   Data           8  lcd12864_app.o(.data)
    devSnData                                0x2000032e   Data           7  nfc_app.o(.data)
    __stdout                                 0x2000034c   Data           4  tx_phe_debug.o(.data)
    __stdin                                  0x20000350   Data           4  tx_phe_debug.o(.data)
    ITM_RxBuffer                             0x20000354   Data           4  tx_phe_debug.o(.data)
    SysTickCnt                               0x20000360   Data           4  tx_phe_system.o(.data)
    constant_parameter                       0x20000378   Data          40  main.o(.bss)
    recvbuf                                  0x200003a0   Data         500  user.o(.bss)
    epwm_fadc_cfg                            0x20000594   Data         128  modules_init.o(.bss)
    fadc_cfg                                 0x20000614   Data          24  modules_init.o(.bss)
    epwm_cfg                                 0x2000062c   Data         128  modules_init.o(.bss)
    serial_buf                               0x200006ac   Data         528  serial.o(.bss)
    serial_cfg                               0x200008bc   Data          10  serial.o(.bss)
    utimer_cfg                               0x200008c6   Data          12  utimer.o(.bss)
    timer_cfg                                0x200008d2   Data          12  utimer.o(.bss)
    buf_temp                                 0x200008de   Data         256  proto.o(.bss)
    buf_readrn                               0x200009de   Data          10  proto.o(.bss)
    buf_senddata                             0x200009e8   Data         300  proto.o(.bss)
    ev7kw                                    0x20000b14   Data          72  chead.o(.bss)
    charge                                   0x20000b5c   Data         100  chead.o(.bss)
    charge1                                  0x20000bc0   Data         100  chead.o(.bss)
    order                                    0x20000c24   Data         160  chead.o(.bss)
    setup                                    0x20000cc4   Data          12  chead.o(.bss)
    time                                     0x20000cd0   Data          10  chead.o(.bss)
    OTA                                      0x20000cdc   Data          36  chead.o(.bss)
    Par                                      0x20000d00   Data         500  chead.o(.bss)
    Var                                      0x20000ef4   Data         500  chead.o(.bss)
    Gar                                      0x200010e8   Data        1200  chead.o(.bss)
    control_param                            0x20001598   Data          18  chead.o(.bss)
    card_info                                0x200015aa   Data          12  nfc_app.o(.bss)
    Image$$ARM_LIB_STACK$$ZI$$Limit          0x2000e400   Number         0  anon$$obj.o ABSOLUTE
    ___IIC0__                                0x40000000   Data         224  txf5200.o(.ARM.__AT_0x40000000)
    ___IIC1__                                0x40001000   Data         224  txf5200.o(.ARM.__AT_0x40001000)
    ___USART0__                              0x40003000   Data         208  txf5200.o(.ARM.__AT_0x40003000)
    ___USART1__                              0x40004000   Data         208  txf5200.o(.ARM.__AT_0x40004000)
    ___USART2__                              0x40005000   Data         208  txf5200.o(.ARM.__AT_0x40005000)
    ___SPI0__                                0x40006000   Data          44  txf5200.o(.ARM.__AT_0x40006000)
    ___SPI1__                                0x40007000   Data          44  txf5200.o(.ARM.__AT_0x40007000)
    ___LVD__                                 0x40009000   Data           4  txf5200.o(.ARM.__AT_0x40009000)
    ___ADVTMR0__                             0x4000a000   Data         104  txf5200.o(.ARM.__AT_0x4000A000)
    ___TIMER4__                              0x4000d000   Data          16  txf5200.o(.ARM.__AT_0x4000D000)
    ___TIMER5__                              0x4000d010   Data          16  txf5200.o(.ARM.__AT_0x4000D010)
    ___TIMER6__                              0x4000d020   Data          16  txf5200.o(.ARM.__AT_0x4000D020)
    ___TIMER7__                              0x4000d030   Data          16  txf5200.o(.ARM.__AT_0x4000D030)
    ___QEI__                                 0x40012000   Data          60  txf5200.o(.ARM.__AT_0x40012000)
    ___WDT__                                 0x40013000   Data         256  txf5200.o(.ARM.__AT_0x40013000)
    ___WDT1__                                0x40014000   Data           8  txf5200.o(.ARM.__AT_0x40014000)
    ___TIMER0__                              0x40015000   Data          16  txf5200.o(.ARM.__AT_0x40015000)
    ___TIMER1__                              0x40015010   Data          16  txf5200.o(.ARM.__AT_0x40015010)
    ___TIMER2__                              0x40015020   Data          16  txf5200.o(.ARM.__AT_0x40015020)
    ___TIMER3__                              0x40015030   Data          16  txf5200.o(.ARM.__AT_0x40015030)
    ___CRC__                                 0x40017000   Data          40  txf5200.o(.ARM.__AT_0x40017000)
    ___FPLL0__                               0x4001c000   Data          16  txf5200.o(.ARM.__AT_0x4001C000)
    ___FPLL1__                               0x4001d000   Data          16  txf5200.o(.ARM.__AT_0x4001D000)
    ___DMAC__                                0x40020000   Data         952  txf5200.o(.ARM.__AT_0x40020000)
    ___GMAC__                                0x40021000   Data          96  txf5200.o(.ARM.__AT_0x40021000)
    ___GPIOA__                               0x40022000   Data          60  txf5200.o(.ARM.__AT_0x40022000)
    ___GPIOB__                               0x40024000   Data          60  txf5200.o(.ARM.__AT_0x40024000)
    ___GPIOC__                               0x40025000   Data          60  txf5200.o(.ARM.__AT_0x40025000)
    ___SYSCTRL__                             0x40026000   Data         132  txf5200.o(.ARM.__AT_0x40026000)
    ___GPIOD__                               0x40027000   Data          60  txf5200.o(.ARM.__AT_0x40027000)
    ___CAN__                                 0x40029000   Data         176  txf5200.o(.ARM.__AT_0x40029000)
    ___HCC__                                 0x40030000   Data          20  txf5200.o(.ARM.__AT_0x40030000)
    ___EFLASH__                              0x40031000   Data         124  txf5200.o(.ARM.__AT_0x40031000)
    ___EVSYS__                               0x40032000   Data         224  txf5200.o(.ARM.__AT_0x40032000)
    ___SVPWM__                               0x40033000   Data          52  txf5200.o(.ARM.__AT_0x40033000)
    ___SINCOS0__                             0x40035000   Data          64  txf5200.o(.ARM.__AT_0x40035000)
    ___SINCOS1__                             0x40035040   Data          64  txf5200.o(.ARM.__AT_0x40035040)
    ___RMS0__                                0x40035080   Data          64  txf5200.o(.ARM.__AT_0x40035080)
    ___RMS1__                                0x400350c0   Data          64  txf5200.o(.ARM.__AT_0x400350C0)
    ___RMS2__                                0x40035100   Data          64  txf5200.o(.ARM.__AT_0x40035100)
    ___MATRIX__                              0x40035140   Data         320  txf5200.o(.ARM.__AT_0x40035140)
    ___SPWM__                                0x40035280   Data          64  txf5200.o(.ARM.__AT_0x40035280)
    ___FFT0__                                0x400352c0   Data          64  txf5200.o(.ARM.__AT_0x400352C0)
    ___FFT1__                                0x40035300   Data          64  txf5200.o(.ARM.__AT_0x40035300)
    ___FFT2__                                0x40035340   Data          64  txf5200.o(.ARM.__AT_0x40035340)
    ___DFTRAN0__                             0x40035380   Data          64  txf5200.o(.ARM.__AT_0x40035380)
    ___DFTRAN1__                             0x400353c0   Data          64  txf5200.o(.ARM.__AT_0x400353C0)
    ___DFTRAN2__                             0x40035400   Data          64  txf5200.o(.ARM.__AT_0x40035400)
    ___ARCTAN0__                             0x40035440   Data          64  txf5200.o(.ARM.__AT_0x40035440)
    ___ARCTAN1__                             0x40035480   Data          64  txf5200.o(.ARM.__AT_0x40035480)
    ___ARCTAN2__                             0x400354c0   Data          64  txf5200.o(.ARM.__AT_0x400354C0)
    ___DATADMA__                             0x40035500   Data          64  txf5200.o(.ARM.__AT_0x40035500)
    ___ADC__                                 0x40036000   Data         612  txf5200.o(.ARM.__AT_0x40036000)
    ___IIR0__                                0x40036300   Data          96  txf5200.o(.ARM.__AT_0x40036300)
    ___IIR1__                                0x40036360   Data          96  txf5200.o(.ARM.__AT_0x40036360)
    ___IIR2__                                0x400363c0   Data          96  txf5200.o(.ARM.__AT_0x400363C0)
    ___FIR0__                                0x40036420   Data          48  txf5200.o(.ARM.__AT_0x40036420)
    ___FIR1__                                0x40036450   Data          48  txf5200.o(.ARM.__AT_0x40036450)
    ___FIR2__                                0x40036480   Data          48  txf5200.o(.ARM.__AT_0x40036480)
    ___FADC__                                0x40037000   Data         320  txf5200.o(.ARM.__AT_0x40037000)
    ___EPWM__                                0x40038000   Data         600  txf5200.o(.ARM.__AT_0x40038000)



==============================================================================

Memory Map of the image

  Image Entry point : 0x080001f9

  Load Region LR_EFLASH (Base: 0x08000000, Size: 0x000085f8, Max: 0x0001f000, ABSOLUTE, COMPRESSED[0x000082c0])

    Execution Region ER_EFLASH (Exec base: 0x08000000, Load base: 0x08000000, Size: 0x000006d8, Max: 0x0001f000, ABSOLUTE)

    Exec Addr    Load Addr    Size         Type   Attr      Idx    E Section Name        Object

    0x08000000   0x08000000   0x0000013c   Data   RO         4909    RESET               tx_phe_startup.o
    0x0800013c   0x0800013c   0x00000000   Code   RO         5046  * .ARM.Collect$$$$00000000  mc_w.l(entry.o)
    0x0800013c   0x0800013c   0x00000004   Code   RO         5328    .ARM.Collect$$$$00000003  mc_w.l(entry4.o)
    0x08000140   0x08000140   0x00000004   Code   RO         5331    .ARM.Collect$$$$00000004  mc_w.l(entry5.o)
    0x08000144   0x08000144   0x00000000   Code   RO         5333    .ARM.Collect$$$$00000008  mc_w.l(entry7b.o)
    0x08000144   0x08000144   0x00000000   Code   RO         5335    .ARM.Collect$$$$0000000A  mc_w.l(entry8b.o)
    0x08000144   0x08000144   0x00000008   Code   RO         5336    .ARM.Collect$$$$0000000B  mc_w.l(entry9a.o)
    0x0800014c   0x0800014c   0x00000004   Code   RO         5343    .ARM.Collect$$$$0000000E  mc_w.l(entry12b.o)
    0x08000150   0x08000150   0x00000000   Code   RO         5338    .ARM.Collect$$$$0000000F  mc_w.l(entry10a.o)
    0x08000150   0x08000150   0x00000000   Code   RO         5340    .ARM.Collect$$$$00000011  mc_w.l(entry11a.o)
    0x08000150   0x08000150   0x00000004   Code   RO         5329    .ARM.Collect$$$$00002714  mc_w.l(entry4.o)
    0x08000154   0x08000154   0x00000024   Code   RO         5363    .text               mc_w.l(init.o)
    0x08000178   0x08000178   0x00000056   Code   RO         5375    .text               mc_w.l(__dczerorl2.o)
    0x080001ce   0x080001ce   0x0000000a   Ven    RO         5377    Veneer$$Code        anon$$obj.o
    0x080001d8   0x080001d8   0x0000000a   Ven    RO         5378    Veneer$$Code        anon$$obj.o
    0x080001e2   0x080001e2   0x0000000a   Ven    RO         5379    Veneer$$Code        anon$$obj.o
    0x080001ec   0x080001ec   0x0000000c   Code   RO         4906    i.$Sub$$main        tx_phe_startup.o
    0x080001f8   0x080001f8   0x00000008   Code   RO         4908  * i.Reset_Handler     tx_phe_startup.o
    0x08000200   0x08000200   0x00000020   Code   RO         5264    i.__0printf$8       mc_w.l(printf8.o)
    0x08000220   0x08000220   0x0000000e   Code   RO         5369    i.__scatterload_copy  mc_w.l(handlers.o)
    0x0800022e   0x0800022e   0x00000002   Code   RO         5370    i.__scatterload_null  mc_w.l(handlers.o)
    0x08000230   0x08000230   0x0000000e   Code   RO         5371    i.__scatterload_zeroinit  mc_w.l(handlers.o)
    0x0800023e   0x0800023e   0x00000002   PAD
    0x08000240   0x08000240   0x00000404   Code   RO         5271    i._printf_core      mc_w.l(printf8.o)
    0x08000644   0x08000644   0x00000024   Code   RO         5272    i._printf_post_padding  mc_w.l(printf8.o)
    0x08000668   0x08000668   0x0000002e   Code   RO         5273    i._printf_pre_padding  mc_w.l(printf8.o)
    0x08000696   0x08000696   0x00000002   PAD
    0x08000698   0x08000698   0x00000040   Data   RO         5367    Region$$Table       anon$$obj.o


    Execution Region ER_RAM_VECT (Exec base: 0x10006000, Load base: 0x080006d8, Size: 0x00000180, Max: 0x00000180, ABSOLUTE, COMPRESSED[0x00000004])

    Exec Addr    Load Addr    Size         Type   Attr      Idx    E Section Name        Object

    0x10006000   COMPRESSED   0x00000180   Data   RW         4767    SRAM_VECTOR_TAB     tx_phe_system.o


    Execution Region ER_RAM_CODE (Exec base: 0x10006180, Load base: 0x080006dc, Size: 0x00007a28, Max: 0x00007e80, ABSOLUTE)

    Exec Addr    Load Addr    Size         Type   Attr      Idx    E Section Name        Object

    0x10006180   0x080006dc   0x00000006   Code   RO         4744    .emb_text           tx_phe_system.o
    0x10006186   0x080006e2   0x00000062   Code   RO         5049    .text               mc_w.l(uldiv.o)
    0x100061e8   0x08000744   0x00000024   Code   RO         5051    .text               mc_w.l(memcpya.o)
    0x1000620c   0x08000768   0x00000024   Code   RO         5053    .text               mc_w.l(memseta.o)
    0x10006230   0x0800078c   0x000000e4   Code   RO         5320    .text               mf_w.l(dmul.o)
    0x10006314   0x08000870   0x0000001a   Code   RO         5324    .text               mf_w.l(dfltui.o)
    0x1000632e   0x0800088a   0x00000032   Code   RO         5326    .text               mf_w.l(dfixui.o)
    0x10006360   0x080008bc   0x0000001e   Code   RO         5346    .text               mc_w.l(llshl.o)
    0x1000637e   0x080008da   0x00000020   Code   RO         5348    .text               mc_w.l(llushr.o)
    0x1000639e   0x080008fa   0x00000000   Code   RO         5350    .text               mc_w.l(iusefp.o)
    0x1000639e   0x080008fa   0x000000ba   Code   RO         5353    .text               mf_w.l(depilogue.o)
    0x10006458   0x080009b4   0x0000000a   Ven    RO         5380    Veneer$$Code        anon$$obj.o
    0x10006462   0x080009be   0x00000002   Code   RO          309    i.ADTIM0_IRQHandler  tx_phe_irq.o
    0x10006464   0x080009c0   0x00000002   Code   RO          310    i.ARCTAN0_IRQHandler  tx_phe_irq.o
    0x10006466   0x080009c2   0x00000002   Code   RO          311    i.ARCTAN1_IRQHandler  tx_phe_irq.o
    0x10006468   0x080009c4   0x00000002   Code   RO          312    i.ARCTAN2_IRQHandler  tx_phe_irq.o
    0x1000646a   0x080009c6   0x00000008   Code   RO          313    i.BusFault_Handler  tx_phe_irq.o
    0x10006472   0x080009ce   0x00000002   Code   RO          314    i.CAN_IRQHandler    tx_phe_irq.o
    0x10006474   0x080009d0   0x00000002   Code   RO          315    i.CRC_IRQHandler    tx_phe_irq.o
    0x10006476   0x080009d2   0x0000006c   Code   RO         1759    i.CalulateCRC       rc523_drv.o
    0x100064e2   0x08000a3e   0x0000001c   Code   RO         1760    i.ClearBitMask      rc523_drv.o
    0x100064fe   0x08000a5a   0x00000002   Code   RO          316    i.DATADMA_IRQHandler  tx_phe_irq.o
    0x10006500   0x08000a5c   0x00000002   Code   RO          317    i.DFTRANS0_IRQHandler  tx_phe_irq.o
    0x10006502   0x08000a5e   0x00000002   Code   RO          318    i.DFTRANS1_IRQHandler  tx_phe_irq.o
    0x10006504   0x08000a60   0x00000002   Code   RO          319    i.DFTRANS2_IRQHandler  tx_phe_irq.o
    0x10006506   0x08000a62   0x00000002   Code   RO          320    i.DMA0_IRQHandler   tx_phe_irq.o
    0x10006508   0x08000a64   0x00000002   Code   RO          321    i.DebugMon_Handler  tx_phe_irq.o
    0x1000650a   0x08000a66   0x00000002   Code   RO          322    i.EPWM_IRQHandler   tx_phe_irq.o
    0x1000650c   0x08000a68   0x00000002   Code   RO          323    i.EVSYS_IRQHandler  tx_phe_irq.o
    0x1000650e   0x08000a6a   0x00000002   PAD
    0x10006510   0x08000a6c   0x00000028   Code   RO          324    i.FADC_IRQHandler   tx_phe_irq.o
    0x10006538   0x08000a94   0x00000002   Code   RO          325    i.FFT0_IRQHandler   tx_phe_irq.o
    0x1000653a   0x08000a96   0x00000002   Code   RO          326    i.FFT0_PREPROCESS_IRQHandler  tx_phe_irq.o
    0x1000653c   0x08000a98   0x00000002   Code   RO          327    i.FFT1_IRQHandler   tx_phe_irq.o
    0x1000653e   0x08000a9a   0x00000002   Code   RO          328    i.FFT1_PREPROCESS_IRQHandler  tx_phe_irq.o
    0x10006540   0x08000a9c   0x00000002   Code   RO          329    i.FFT2_IRQHandler   tx_phe_irq.o
    0x10006542   0x08000a9e   0x00000002   Code   RO          330    i.FFT2_PREPROCESS_IRQHandler  tx_phe_irq.o
    0x10006544   0x08000aa0   0x00000002   Code   RO          331    i.FIR0_IRQHandler   tx_phe_irq.o
    0x10006546   0x08000aa2   0x00000002   Code   RO          332    i.FIR1_IRQHandler   tx_phe_irq.o
    0x10006548   0x08000aa4   0x00000002   Code   RO          333    i.FIR2_IRQHandler   tx_phe_irq.o
    0x1000654a   0x08000aa6   0x00000044   Code   RO         1184    i.Frame_arry_Inverted  proto.o
    0x1000658e   0x08000aea   0x00000002   Code   RO          334    i.GMAC_IRQHandler   tx_phe_irq.o
    0x10006590   0x08000aec   0x00000002   Code   RO          335    i.GPIOA_IRQHandler  tx_phe_irq.o
    0x10006592   0x08000aee   0x00000002   Code   RO          336    i.GPIOB_IRQHandler  tx_phe_irq.o
    0x10006594   0x08000af0   0x00000002   Code   RO          337    i.GPIOC_IRQHandler  tx_phe_irq.o
    0x10006596   0x08000af2   0x00000002   Code   RO          338    i.GPIOD_IRQHandler  tx_phe_irq.o
    0x10006598   0x08000af4   0x00000002   Code   RO          339    i.HCC_IRQHandler    tx_phe_irq.o
    0x1000659a   0x08000af6   0x00000008   Code   RO          340    i.HardFault_Handler  tx_phe_irq.o
    0x100065a2   0x08000afe   0x00000002   Code   RO          341    i.IIC0_IRQHandler   tx_phe_irq.o
    0x100065a4   0x08000b00   0x00000002   Code   RO          342    i.IIC1_IRQHandler   tx_phe_irq.o
    0x100065a6   0x08000b02   0x00000002   Code   RO          343    i.IIR0_IRQHandler   tx_phe_irq.o
    0x100065a8   0x08000b04   0x00000002   Code   RO          344    i.IIR1_IRQHandler   tx_phe_irq.o
    0x100065aa   0x08000b06   0x00000002   Code   RO          345    i.IIR2_IRQHandler   tx_phe_irq.o
    0x100065ac   0x08000b08   0x00000034   Code   RO         1606    i.LCD_WriteCmd      lcd12864_drv.o
    0x100065e0   0x08000b3c   0x00000034   Code   RO         1607    i.LCD_WriteData     lcd12864_drv.o
    0x10006614   0x08000b70   0x00000050   Code   RO         1608    i.LCD_send_byte     lcd12864_drv.o
    0x10006664   0x08000bc0   0x00000008   Code   RO          346    i.LVD_IRQHandler    tx_phe_irq.o
    0x1000666c   0x08000bc8   0x00000002   Code   RO          347    i.MATRIX_MULT_IRQHandler  tx_phe_irq.o
    0x1000666e   0x08000bca   0x00000012   Code   RO         1761    i.MFRC522_SleepUS   rc523_drv.o
    0x10006680   0x08000bdc   0x00000098   Code   RO          797    i.Main_Poll         user.o
    0x10006718   0x08000c74   0x00000008   Code   RO          348    i.MemManage_Handler  tx_phe_irq.o
    0x10006720   0x08000c7c   0x00000008   Code   RO          349    i.NMI_Handler       tx_phe_irq.o
    0x10006728   0x08000c84   0x0000007c   Code   RO         4696    i.NVIC_Init         tx_phe_misc.o
    0x100067a4   0x08000d00   0x0000001a   Code   RO         1763    i.PcdAntennaOn      rc523_drv.o
    0x100067be   0x08000d1a   0x000000dc   Code   RO         1764    i.PcdAnticoll       rc523_drv.o
    0x1000689a   0x08000df6   0x0000006e   Code   RO         1765    i.PcdAuthState      rc523_drv.o
    0x10006908   0x08000e64   0x00000132   Code   RO         1767    i.PcdComMF522       rc523_drv.o
    0x10006a3a   0x08000f96   0x00000054   Code   RO         1769    i.PcdRead           rc523_drv.o
    0x10006a8e   0x08000fea   0x00000070   Code   RO         1770    i.PcdRequest        rc523_drv.o
    0x10006afe   0x0800105a   0x00000160   Code   RO         1771    i.PcdReset          rc523_drv.o
    0x10006c5e   0x080011ba   0x00000072   Code   RO         1772    i.PcdSelect         rc523_drv.o
    0x10006cd0   0x0800122c   0x00000002   Code   RO          350    i.PendSV_Handler    tx_phe_irq.o
    0x10006cd2   0x0800122e   0x00000002   Code   RO          351    i.QEI_IRQHandler    tx_phe_irq.o
    0x10006cd4   0x08001230   0x00000012   Code   RO         1775    i.RC523_Delay_Us    rc523_drv.o
    0x10006ce6   0x08001242   0x00000002   Code   RO          352    i.RMS0_IRQHandler   tx_phe_irq.o
    0x10006ce8   0x08001244   0x00000002   Code   RO          353    i.RMS1_IRQHandler   tx_phe_irq.o
    0x10006cea   0x08001246   0x00000002   Code   RO          354    i.RMS2_IRQHandler   tx_phe_irq.o
    0x10006cec   0x08001248   0x000000c0   Code   RO         1709    i.ReadRawRC         rc523_cfg.o
    0x10006dac   0x08001308   0x00000002   Code   RO          355    i.SARADC_IRQHandler  tx_phe_irq.o
    0x10006dae   0x0800130a   0x00000002   Code   RO          356    i.SINCOS0_IRQHandler  tx_phe_irq.o
    0x10006db0   0x0800130c   0x00000002   Code   RO          357    i.SINCOS1_IRQHandler  tx_phe_irq.o
    0x10006db2   0x0800130e   0x00000002   Code   RO          358    i.SPI0_IRQHandler   tx_phe_irq.o
    0x10006db4   0x08001310   0x00000002   Code   RO          359    i.SPI1_IRQHandler   tx_phe_irq.o
    0x10006db6   0x08001312   0x00000002   Code   RO          360    i.SPWM_IRQHandler   tx_phe_irq.o
    0x10006db8   0x08001314   0x00000002   Code   RO          361    i.SVC_Handler       tx_phe_irq.o
    0x10006dba   0x08001316   0x00000002   Code   RO          362    i.SVPWM_IRQHandler  tx_phe_irq.o
    0x10006dbc   0x08001318   0x000000b0   Code   RO         1185    i.Senddata          proto.o
    0x10006e6c   0x080013c8   0x0000001c   Code   RO         1776    i.SetBitMask        rc523_drv.o
    0x10006e88   0x080013e4   0x00000010   Code   RO          363    i.SysTick_Handler   tx_phe_irq.o
    0x10006e98   0x080013f4   0x00000370   Code   RO          364    i.TIM0_IRQHandler   tx_phe_irq.o
    0x10007208   0x08001764   0x00000040   Code   RO          365    i.TIM1_IRQHandler   tx_phe_irq.o
    0x10007248   0x080017a4   0x00000040   Code   RO          366    i.TIM2_IRQHandler   tx_phe_irq.o
    0x10007288   0x080017e4   0x00000040   Code   RO          367    i.TIM3_IRQHandler   tx_phe_irq.o
    0x100072c8   0x08001824   0x0000003c   Code   RO          368    i.TIM4_IRQHandler   tx_phe_irq.o
    0x10007304   0x08001860   0x00000040   Code   RO          369    i.TIM5_IRQHandler   tx_phe_irq.o
    0x10007344   0x080018a0   0x00000040   Code   RO          370    i.TIM6_IRQHandler   tx_phe_irq.o
    0x10007384   0x080018e0   0x00000040   Code   RO          371    i.TIM7_IRQHandler   tx_phe_irq.o
    0x100073c4   0x08001920   0x000000b4   Code   RO          372    i.USART0_IRQHandler  tx_phe_irq.o
    0x10007478   0x080019d4   0x0000005a   Code   RO          373    i.USART1_IRQHandler  tx_phe_irq.o
    0x100074d2   0x08001a2e   0x00000002   PAD
    0x100074d4   0x08001a30   0x000000bc   Code   RO          374    i.USART2_IRQHandler  tx_phe_irq.o
    0x10007590   0x08001aec   0x000007ec   Code   RO         1186    i.Upload_server     proto.o
    0x10007d7c   0x080022d8   0x00000008   Code   RO          375    i.UsageFault_Handler  tx_phe_irq.o
    0x10007d84   0x080022e0   0x00000002   Code   RO          376    i.WAKEUP_IRQHandler  tx_phe_irq.o
    0x10007d86   0x080022e2   0x00000002   PAD
    0x10007d88   0x080022e4   0x0000001c   Code   RO          377    i.WDT_IRQHandler    tx_phe_irq.o
    0x10007da4   0x08002300   0x000000c4   Code   RO         1710    i.WriteRawRC        rc523_cfg.o
    0x10007e68   0x080023c4   0x00000006   Code   RO         2079    i.__get_PRIMASK     tx_phe_ll_cc_rst.o
    0x10007e6e   0x080023ca   0x00000006   Code   RO         2381    i.__get_PRIMASK     tx_phe_ll_eflash.o
    0x10007e74   0x080023d0   0x00000084   Code   RO         1885    i.card_id_encryption  nfc_app.o
    0x10007ef8   0x08002454   0x0000020c   Code   RO         1457    i.charge_process    chead.o
    0x10008104   0x08002660   0x0000005c   Code   RO         1609    i.clr_all           lcd12864_drv.o
    0x10008160   0x080026bc   0x00000038   Code   RO         1610    i.clr_bmp           lcd12864_drv.o
    0x10008198   0x080026f4   0x00000028   Code   RO         1611    i.clr_txt           lcd12864_drv.o
    0x100081c0   0x0800271c   0x00000030   Code   RO         1458    i.constant_parameter_updata  chead.o
    0x100081f0   0x0800274c   0x00000044   Code   RO         1532    i.crccheck          crccheck.o
    0x10008234   0x08002790   0x0000003c   Code   RO         4638    i.debug_select_interface  tx_phe_debug.o
    0x10008270   0x080027cc   0x0000002a   Code   RO         4745    i.delay_ms          tx_phe_system.o
    0x1000829a   0x080027f6   0x00000002   PAD
    0x1000829c   0x080027f8   0x0000002c   Code   RO         4746    i.delay_us          tx_phe_system.o
    0x100082c8   0x08002824   0x00000034   Code   RO         1886    i.dev_sn_encryption  nfc_app.o
    0x100082fc   0x08002858   0x00000098   Code   RO         1612    i.display_16x16graphic  lcd12864_drv.o
    0x10008394   0x080028f0   0x000000f0   Code   RO         1613    i.display_16x32graphic  lcd12864_drv.o
    0x10008484   0x080029e0   0x000000ec   Code   RO         1614    i.display_64x64graphic  lcd12864_drv.o
    0x10008570   0x08002acc   0x000000aa   Code   RO         1615    i.display_chinese   lcd12864_drv.o
    0x1000861a   0x08002b76   0x00000002   PAD
    0x1000861c   0x08002b78   0x000004d8   Code   RO         4747    i.dump_fault_state  tx_phe_system.o
    0x10008af4   0x08003050   0x00000058   Code   RO         1247    i.eflash_read_check  eflash.o
    0x10008b4c   0x080030a8   0x00000044   Code   RO         1248    i.eflash_read_sector  eflash.o
    0x10008b90   0x080030ec   0x00000060   Code   RO         1253    i.eflash_write_sector  eflash.o
    0x10008bf0   0x0800314c   0x00000078   Code   RO          923    i.epwm_config       modules_init.o
    0x10008c68   0x080031c4   0x00000018   Code   RO          924    i.epwm_init         modules_init.o
    0x10008c80   0x080031dc   0x00000010   Code   RO          925    i.epwm_start        modules_init.o
    0x10008c90   0x080031ec   0x00000014   Code   RO          926    i.epwm_stop         modules_init.o
    0x10008ca4   0x08003200   0x00000040   Code   RO         1559    i.ev7kw_numtrans    lcd12864_app.o
    0x10008ce4   0x08003240   0x0000006c   Code   RO         4640    i.fputc             tx_phe_debug.o
    0x10008d50   0x080032ac   0x0000003c   Code   RO         1187    i.frame_get         proto.o
    0x10008d8c   0x080032e8   0x00000022   Code   RO         1560    i.hex_2_char        lcd12864_app.o
    0x10008dae   0x0800330a   0x00000008   Code   RO         1459    i.km1_off           chead.o
    0x10008db6   0x08003312   0x00000016   Code   RO         1460    i.km1_on            chead.o
    0x10008dcc   0x08003328   0x00000002   Code   RO         1377    i.km_control        slave.o
    0x10008dce   0x0800332a   0x00000002   PAD
    0x10008dd0   0x0800332c   0x000007f0   Code   RO         1562    i.lcd_updata        lcd12864_app.o
    0x100095c0   0x08003b1c   0x0000010c   Code   RO            5    i.ledprocess        main.o
    0x100096cc   0x08003c28   0x00000268   Code   RO         2081    i.ll_cc_adcpll_set  tx_phe_ll_cc_rst.o
    0x10009934   0x08003e90   0x0000009c   Code   RO         2082    i.ll_cc_clk_div_config  tx_phe_ll_cc_rst.o
    0x100099d0   0x08003f2c   0x0000007c   Code   RO         2383    i.ll_cc_rst_apb2_peripheral_clk_enable  tx_phe_ll_eflash.o
    0x10009a4c   0x08003fa8   0x00000020   Code   RO         2083    i.ll_cc_rst_delay5ms_32khz  tx_phe_ll_cc_rst.o
    0x10009a6c   0x08003fc8   0x0000006c   Code   RO         2084    i.ll_cc_sys_clk_get  tx_phe_ll_cc_rst.o
    0x10009ad8   0x08004034   0x000002ec   Code   RO         2085    i.ll_cc_syspll_set  tx_phe_ll_cc_rst.o
    0x10009dc4   0x08004320   0x000000c4   Code   RO         2384    i.ll_eflash_config  tx_phe_ll_eflash.o
    0x10009e88   0x080043e4   0x00000084   Code   RO         2388    i.ll_eflash_erase_sector  tx_phe_ll_eflash.o
    0x10009f0c   0x08004468   0x000000a4   Code   RO         2390    i.ll_eflash_init    tx_phe_ll_eflash.o
    0x10009fb0   0x0800450c   0x00000010   Code   RO         2391    i.ll_eflash_main_lock  tx_phe_ll_eflash.o
    0x10009fc0   0x0800451c   0x00000088   Code   RO         2393    i.ll_eflash_prog_word  tx_phe_ll_eflash.o
    0x1000a048   0x080045a4   0x0000000e   Code   RO         1255    i.ll_eflash_wait_sector_erase  eflash.o
    0x1000a056   0x080045b2   0x00000002   PAD
    0x1000a058   0x080045b4   0x00000966   Code   RO         2484    i.ll_epwm_config    tx_phe_ll_epwm.o
    0x1000a9be   0x08004f1a   0x00000002   PAD
    0x1000a9c0   0x08004f1c   0x000000ec   Code   RO         2487    i.ll_epwm_init      tx_phe_ll_epwm.o
    0x1000aaac   0x08005008   0x000000a0   Code   RO         2489    i.ll_epwm_start     tx_phe_ll_epwm.o
    0x1000ab4c   0x080050a8   0x000000ec   Code   RO         2490    i.ll_epwm_stop      tx_phe_ll_epwm.o
    0x1000ac38   0x08005194   0x00000006   Code   RO            6    i.ll_gpio_bit_reset  main.o
    0x1000ac3e   0x0800519a   0x00000006   Code   RO         1618    i.ll_gpio_bit_reset  lcd12864_drv.o
    0x1000ac44   0x080051a0   0x00000006   Code   RO            7    i.ll_gpio_bit_set   main.o
    0x1000ac4a   0x080051a6   0x00000006   Code   RO         1619    i.ll_gpio_bit_set   lcd12864_drv.o
    0x1000ac50   0x080051ac   0x00000088   Code   RO         2860    i.ll_gpio_dir       tx_phe_ll_gpio.o
    0x1000acd8   0x08005234   0x000000b8   Code   RO         2861    i.ll_gpio_pull      tx_phe_ll_gpio.o
    0x1000ad90   0x080052ec   0x00000012   Code   RO          378    i.ll_gpio_read_data_bit  tx_phe_irq.o
    0x1000ada2   0x080052fe   0x00000012   Code   RO         1711    i.ll_gpio_write_data_bit  rc523_cfg.o
    0x1000adb4   0x08005310   0x0000000a   Code   RO          379    i.ll_timer_clear_capture_interrupt_pending  tx_phe_irq.o
    0x1000adbe   0x0800531a   0x0000000a   Code   RO          380    i.ll_timer_clear_interrupt_pending  tx_phe_irq.o
    0x1000adc8   0x08005324   0x000000cc   Code   RO         3789    i.ll_timer_config   tx_phe_ll_timer.o
    0x1000ae94   0x080053f0   0x00000094   Code   RO         3791    i.ll_timer_init     tx_phe_ll_timer.o
    0x1000af28   0x08005484   0x00000388   Code   RO         3792    i.ll_timer_io_map   tx_phe_ll_timer.o
    0x1000b2b0   0x0800580c   0x00000028   Code   RO         3793    i.ll_timer_irq_config  tx_phe_ll_timer.o
    0x1000b2d8   0x08005834   0x000000a0   Code   RO         3794    i.ll_timer_start    tx_phe_ll_timer.o
    0x1000b378   0x080058d4   0x0000009c   Code   RO         3795    i.ll_timer_stop     tx_phe_ll_timer.o
    0x1000b414   0x08005970   0x000000cc   Code   RO         3849    i.ll_usart232_config  tx_phe_ll_usart.o
    0x1000b4e0   0x08005a3c   0x00000118   Code   RO         3850    i.ll_usart232_io_map  tx_phe_ll_usart.o
    0x1000b5f8   0x08005b54   0x00000006   Code   RO          381    i.ll_usart_clear_busy_detect_pending  tx_phe_irq.o
    0x1000b5fe   0x08005b5a   0x00000006   Code   RO          382    i.ll_usart_clear_modem_status_pending  tx_phe_irq.o
    0x1000b604   0x08005b60   0x00000006   Code   RO          383    i.ll_usart_clear_rx_line_status_pending  tx_phe_irq.o
    0x1000b60a   0x08005b66   0x00000002   PAD
    0x1000b60c   0x08005b68   0x00000068   Code   RO         3854    i.ll_usart_init     tx_phe_ll_usart.o
    0x1000b674   0x08005bd0   0x00000046   Code   RO         3855    i.ll_usart_irq_config  tx_phe_ll_usart.o
    0x1000b6ba   0x08005c16   0x00000002   PAD
    0x1000b6bc   0x08005c18   0x000002ac   Code   RO            8    i.main              main.o
    0x1000b968   0x08005ec4   0x00000258   Code   RO            9    i.main_loop         main.o
    0x1000bbc0   0x0800611c   0x000000cc   Code   RO         1378    i.meterdata_process  slave.o
    0x1000bc8c   0x080061e8   0x00000068   Code   RO         1379    i.meterread_process  slave.o
    0x1000bcf4   0x08006250   0x00000230   Code   RO           10    i.network           main.o
    0x1000bf24   0x08006480   0x00000010   Code   RO         1887    i.nfc_init          nfc_app.o
    0x1000bf34   0x08006490   0x000000cc   Code   RO         1888    i.nfc_read_card     nfc_app.o
    0x1000c000   0x0800655c   0x0000007c   Code   RO           11    i.order_clear       main.o
    0x1000c07c   0x080065d8   0x00000260   Code   RO         1461    i.param_init        chead.o
    0x1000c2dc   0x08006838   0x000001b0   Code   RO         1462    i.param_save        chead.o
    0x1000c48c   0x080069e8   0x00000298   Code   RO         1380    i.protect_process   slave.o
    0x1000c724   0x08006c80   0x00000580   Code   RO         1188    i.proto_check       proto.o
    0x1000cca4   0x08007200   0x00000008   Code   RO         1189    i.proto_run         proto.o
    0x1000ccac   0x08007208   0x0000007c   Code   RO         1712    i.rc523_io_cfg_init  rc523_cfg.o
    0x1000cd28   0x08007284   0x00000018   Code   RO         1256    i.read_data_eflash  eflash.o
    0x1000cd40   0x0800729c   0x00000008   Code   RO         4751    i.recover_fault_state  tx_phe_system.o
    0x1000cd48   0x080072a4   0x00000068   Code   RO         1257    i.save_data_eflash  eflash.o
    0x1000cdb0   0x0800730c   0x00000014   Code   RO         1026    i.serial_buf_init   serial.o
    0x1000cdc4   0x08007320   0x00000054   Code   RO         1027    i.serial_config     serial.o
    0x1000ce18   0x08007374   0x00000034   Code   RO         1029    i.serial_init       serial.o
    0x1000ce4c   0x080073a8   0x00000010   Code   RO         1030    i.serial_putc       serial.o
    0x1000ce5c   0x080073b8   0x0000005c   Code   RO         1031    i.serial_tx_handle  serial.o
    0x1000ceb8   0x08007414   0x00000014   Code   RO         1890    i.set_dev_sn_to_nfc  nfc_app.o
    0x1000cecc   0x08007428   0x00000024   Code   RO         1713    i.set_rst           rc523_cfg.o
    0x1000cef0   0x0800744c   0x00000044   Code   RO         4753    i.sys_eflash_config  tx_phe_system.o
    0x1000cf34   0x08007490   0x00000014   Code   RO         4754    i.sys_eflash_init   tx_phe_system.o
    0x1000cf48   0x080074a4   0x00000002   Code   RO         4755    i.sys_fault_recover_context  tx_phe_system.o
    0x1000cf4a   0x080074a6   0x00000002   Code   RO         4756    i.sys_fault_save_context  tx_phe_system.o
    0x1000cf4c   0x080074a8   0x0000004c   Code   RO         4757    i.sys_module_init   tx_phe_system.o
    0x1000cf98   0x080074f4   0x00000058   Code   RO         4758    i.sys_peripheral_init  tx_phe_system.o
    0x1000cff0   0x0800754c   0x00000028   Code   RO         4762    i.system_critical_section_enter  tx_phe_system.o
    0x1000d018   0x08007574   0x00000028   Code   RO         4763    i.system_critical_section_exit  tx_phe_system.o
    0x1000d040   0x0800759c   0x00000050   Code   RO         4764    i.system_init       tx_phe_system.o
    0x1000d090   0x080075ec   0x00000164   Code   RO         1463    i.time_process      chead.o
    0x1000d1f4   0x08007750   0x00000040   Code   RO         1091    i.timer1_config     utimer.o
    0x1000d234   0x08007790   0x00000040   Code   RO         1092    i.timer1_config2    utimer.o
    0x1000d274   0x080077d0   0x00000014   Code   RO         1094    i.timer1_init       utimer.o
    0x1000d288   0x080077e4   0x00000018   Code   RO         1095    i.timer1_start      utimer.o
    0x1000d2a0   0x080077fc   0x00000010   Code   RO         1096    i.timer1_stop       utimer.o
    0x1000d2b0   0x0800780c   0x00000044   Code   RO         4607    i.tx_assert_false   tx_phe_assert.o
    0x1000d2f4   0x08007850   0x00000064   Code   RO          804    i.usart2_config     user.o
    0x1000d358   0x080078b4   0x00000030   Code   RO          805    i.usart2_init       user.o
    0x1000d388   0x080078e4   0x00000050   Code   RO         1097    i.utimer_config     utimer.o
    0x1000d3d8   0x08007934   0x00000034   Code   RO         1099    i.utimer_init       utimer.o
    0x1000d40c   0x08007968   0x00000034   Code   RO         1100    i.utimer_interput_handle  utimer.o
    0x1000d440   0x0800799c   0x00000018   Code   RO         1101    i.utimer_start      utimer.o
    0x1000d458   0x080079b4   0x00000740   Data   RO         1563    .constdata          lcd12864_app.o
    0x1000db98   0x080080f4   0x00000010   Data   RO         2087    .constdata          tx_phe_ll_cc_rst.o


    Execution Region RW_SRAM0 (Exec base: 0x20000000, Load base: 0x08008104, Size: 0x00006000, Max: 0x00006000, ABSOLUTE, COMPRESSED[0x000001bc])

    Exec Addr    Load Addr    Size         Type   Attr      Idx    E Section Name        Object

    0x20000000   COMPRESSED   0x00000002   Data   RW           13    .data               main.o
    0x20000002   COMPRESSED   0x00000009   Data   RW          813    .data               user.o
    0x2000000b   COMPRESSED   0x00000005   Data   RW         1033    .data               serial.o
    0x20000010   COMPRESSED   0x00000018   Data   RW         1259    .data               eflash.o
    0x20000028   COMPRESSED   0x00000095   Data   RW         1465    .data               chead.o
    0x200000bd   COMPRESSED   0x00000200   Data   RW         1533    .data               crccheck.o
    0x200002bd   COMPRESSED   0x00000001   PAD
    0x200002be   COMPRESSED   0x00000050   Data   RW         1564    .data               lcd12864_app.o
    0x2000030e   COMPRESSED   0x0000003e   Data   RW         1892    .data               nfc_app.o
    0x2000034c   COMPRESSED   0x00000014   Data   RW         4642    .data               tx_phe_debug.o
    0x20000360   COMPRESSED   0x00000018   Data   RW         4766    .data               tx_phe_system.o
    0x20000378        -       0x00000028   Zero   RW           12    .bss                main.o
    0x200003a0        -       0x000001f4   Zero   RW          812    .bss                user.o
    0x20000594        -       0x00000118   Zero   RW          932    .bss                modules_init.o
    0x200006ac        -       0x0000021a   Zero   RW         1032    .bss                serial.o
    0x200008c6        -       0x00000018   Zero   RW         1103    .bss                utimer.o
    0x200008de        -       0x00000236   Zero   RW         1190    .bss                proto.o
    0x20000b14        -       0x00000a96   Zero   RW         1464    .bss                chead.o
    0x200015aa        -       0x0000002c   Zero   RW         1891    .bss                nfc_app.o
    0x200015d6   COMPRESSED   0x00003a2a   PAD
    0x20005000        -       0x00001000   Zero   RW         1000    .ARM.__AT_0x20005000  save_printf.o


    Execution Region ARM_LIB_STACK (Exec base: 0x2000e000, Load base: 0x08008104, Size: 0x00000400, Max: 0x00000400, ABSOLUTE)

    Exec Addr    Load Addr    Size         Type   Attr      Idx    E Section Name        Object

    0x2000e000        -       0x00000400   Zero   RW            1    ARM_LIB_STACK.bss   anon$$obj.o


    Execution Region RW_SRAM10 (Exec base: 0x2000e400, Load base: 0x08008104, Size: 0x00000000, Max: 0x00001c00, ABSOLUTE)

    **** No section assigned to this execution region ****


    Execution Region RW_SRAM1 (Exec base: 0x20010000, Load base: 0x080082c0, Size: 0x00000000, Max: 0x00002000, ABSOLUTE)

    **** No section assigned to this execution region ****


    Execution Region RW_SRAM2 (Exec base: 0x20012000, Load base: 0x080082c0, Size: 0x00000000, Max: 0x00002000, ABSOLUTE)

    **** No section assigned to this execution region ****


    Execution Region RW_SRAM3 (Exec base: 0x20014000, Load base: 0x080082c0, Size: 0x00000000, Max: 0x00002000, ABSOLUTE)

    **** No section assigned to this execution region ****


    Execution Region RW_SRAM4_5 (Exec base: 0x20016000, Load base: 0x080082c0, Size: 0x00000000, Max: 0x00001000, ABSOLUTE)

    **** No section assigned to this execution region ****


    Execution Region RW_SRAM6_7 (Exec base: 0x20017000, Load base: 0x080082c0, Size: 0x00000000, Max: 0x00001000, ABSOLUTE)

    **** No section assigned to this execution region ****


    Execution Region RW_SRAM8_9 (Exec base: 0x20018000, Load base: 0x080082c0, Size: 0x00000000, Max: 0x00001000, ABSOLUTE)

    **** No section assigned to this execution region ****


    Execution Region RW_SRAM11 (Exec base: 0x20019000, Load base: 0x080082c0, Size: 0x00000000, Max: 0x00000800, ABSOLUTE)

    **** No section assigned to this execution region ****


    Execution Region RW_SRAM12_13 (Exec base: 0x20019800, Load base: 0x080082c0, Size: 0x00000000, Max: 0x00001000, ABSOLUTE)

    **** No section assigned to this execution region ****


    Execution Region RW_SRAM14 (Exec base: 0x2001a800, Load base: 0x080082c0, Size: 0x00000000, Max: 0x00000800, ABSOLUTE)

    **** No section assigned to this execution region ****


    Execution Region RW_SRAM15 (Exec base: 0x2001b000, Load base: 0x080082c0, Size: 0x00000000, Max: 0x00000800, ABSOLUTE)

    **** No section assigned to this execution region ****


    Execution Region RW_SRAM16 (Exec base: 0x2001b800, Load base: 0x080082c0, Size: 0x00000000, Max: 0x00000800, ABSOLUTE)

    **** No section assigned to this execution region ****



  Load Region LR$$.ARM.__AT_0x40000000 (Base: 0x40000000, Size: 0x00000000, Max: 0x000000e0, ABSOLUTE)

    Execution Region ER$$.ARM.__AT_0x40000000 (Exec base: 0x40000000, Load base: 0x40000000, Size: 0x000000e0, Max: 0x000000e0, ABSOLUTE, UNINIT)

    Exec Addr    Load Addr    Size         Type   Attr      Idx    E Section Name        Object

    0x40000000        -       0x000000e0   Zero   RW         4950    .ARM.__AT_0x40000000  txf5200.o



  Load Region LR$$.ARM.__AT_0x40001000 (Base: 0x40001000, Size: 0x00000000, Max: 0x000000e0, ABSOLUTE)

    Execution Region ER$$.ARM.__AT_0x40001000 (Exec base: 0x40001000, Load base: 0x40001000, Size: 0x000000e0, Max: 0x000000e0, ABSOLUTE, UNINIT)

    Exec Addr    Load Addr    Size         Type   Attr      Idx    E Section Name        Object

    0x40001000        -       0x000000e0   Zero   RW         4951    .ARM.__AT_0x40001000  txf5200.o



  Load Region LR$$.ARM.__AT_0x40003000 (Base: 0x40003000, Size: 0x00000000, Max: 0x000000d0, ABSOLUTE)

    Execution Region ER$$.ARM.__AT_0x40003000 (Exec base: 0x40003000, Load base: 0x40003000, Size: 0x000000d0, Max: 0x000000d0, ABSOLUTE, UNINIT)

    Exec Addr    Load Addr    Size         Type   Attr      Idx    E Section Name        Object

    0x40003000        -       0x000000d0   Zero   RW         4952    .ARM.__AT_0x40003000  txf5200.o



  Load Region LR$$.ARM.__AT_0x40004000 (Base: 0x40004000, Size: 0x00000000, Max: 0x000000d0, ABSOLUTE)

    Execution Region ER$$.ARM.__AT_0x40004000 (Exec base: 0x40004000, Load base: 0x40004000, Size: 0x000000d0, Max: 0x000000d0, ABSOLUTE, UNINIT)

    Exec Addr    Load Addr    Size         Type   Attr      Idx    E Section Name        Object

    0x40004000        -       0x000000d0   Zero   RW         4953    .ARM.__AT_0x40004000  txf5200.o



  Load Region LR$$.ARM.__AT_0x40005000 (Base: 0x40005000, Size: 0x00000000, Max: 0x000000d0, ABSOLUTE)

    Execution Region ER$$.ARM.__AT_0x40005000 (Exec base: 0x40005000, Load base: 0x40005000, Size: 0x000000d0, Max: 0x000000d0, ABSOLUTE, UNINIT)

    Exec Addr    Load Addr    Size         Type   Attr      Idx    E Section Name        Object

    0x40005000        -       0x000000d0   Zero   RW         4954    .ARM.__AT_0x40005000  txf5200.o



  Load Region LR$$.ARM.__AT_0x40006000 (Base: 0x40006000, Size: 0x00000000, Max: 0x0000002c, ABSOLUTE)

    Execution Region ER$$.ARM.__AT_0x40006000 (Exec base: 0x40006000, Load base: 0x40006000, Size: 0x0000002c, Max: 0x0000002c, ABSOLUTE, UNINIT)

    Exec Addr    Load Addr    Size         Type   Attr      Idx    E Section Name        Object

    0x40006000        -       0x0000002c   Zero   RW         4955    .ARM.__AT_0x40006000  txf5200.o



  Load Region LR$$.ARM.__AT_0x40007000 (Base: 0x40007000, Size: 0x00000000, Max: 0x0000002c, ABSOLUTE)

    Execution Region ER$$.ARM.__AT_0x40007000 (Exec base: 0x40007000, Load base: 0x40007000, Size: 0x0000002c, Max: 0x0000002c, ABSOLUTE, UNINIT)

    Exec Addr    Load Addr    Size         Type   Attr      Idx    E Section Name        Object

    0x40007000        -       0x0000002c   Zero   RW         4956    .ARM.__AT_0x40007000  txf5200.o



  Load Region LR$$.ARM.__AT_0x40009000 (Base: 0x40009000, Size: 0x00000000, Max: 0x00000004, ABSOLUTE)

    Execution Region ER$$.ARM.__AT_0x40009000 (Exec base: 0x40009000, Load base: 0x40009000, Size: 0x00000004, Max: 0x00000004, ABSOLUTE, UNINIT)

    Exec Addr    Load Addr    Size         Type   Attr      Idx    E Section Name        Object

    0x40009000        -       0x00000004   Zero   RW         4957    .ARM.__AT_0x40009000  txf5200.o



  Load Region LR$$.ARM.__AT_0x4000A000 (Base: 0x4000a000, Size: 0x00000000, Max: 0x00000068, ABSOLUTE)

    Execution Region ER$$.ARM.__AT_0x4000A000 (Exec base: 0x4000a000, Load base: 0x4000a000, Size: 0x00000068, Max: 0x00000068, ABSOLUTE, UNINIT)

    Exec Addr    Load Addr    Size         Type   Attr      Idx    E Section Name        Object

    0x4000a000        -       0x00000068   Zero   RW         4958    .ARM.__AT_0x4000A000  txf5200.o



  Load Region LR$$.ARM.__AT_0x4000D000 (Base: 0x4000d000, Size: 0x00000000, Max: 0x00000010, ABSOLUTE)

    Execution Region ER$$.ARM.__AT_0x4000D000 (Exec base: 0x4000d000, Load base: 0x4000d000, Size: 0x00000010, Max: 0x00000010, ABSOLUTE, UNINIT)

    Exec Addr    Load Addr    Size         Type   Attr      Idx    E Section Name        Object

    0x4000d000        -       0x00000010   Zero   RW         4959    .ARM.__AT_0x4000D000  txf5200.o



  Load Region LR$$.ARM.__AT_0x4000D010 (Base: 0x4000d010, Size: 0x00000000, Max: 0x00000010, ABSOLUTE)

    Execution Region ER$$.ARM.__AT_0x4000D010 (Exec base: 0x4000d010, Load base: 0x4000d010, Size: 0x00000010, Max: 0x00000010, ABSOLUTE, UNINIT)

    Exec Addr    Load Addr    Size         Type   Attr      Idx    E Section Name        Object

    0x4000d010        -       0x00000010   Zero   RW         4960    .ARM.__AT_0x4000D010  txf5200.o



  Load Region LR$$.ARM.__AT_0x4000D020 (Base: 0x4000d020, Size: 0x00000000, Max: 0x00000010, ABSOLUTE)

    Execution Region ER$$.ARM.__AT_0x4000D020 (Exec base: 0x4000d020, Load base: 0x4000d020, Size: 0x00000010, Max: 0x00000010, ABSOLUTE, UNINIT)

    Exec Addr    Load Addr    Size         Type   Attr      Idx    E Section Name        Object

    0x4000d020        -       0x00000010   Zero   RW         4961    .ARM.__AT_0x4000D020  txf5200.o



  Load Region LR$$.ARM.__AT_0x4000D030 (Base: 0x4000d030, Size: 0x00000000, Max: 0x00000010, ABSOLUTE)

    Execution Region ER$$.ARM.__AT_0x4000D030 (Exec base: 0x4000d030, Load base: 0x4000d030, Size: 0x00000010, Max: 0x00000010, ABSOLUTE, UNINIT)

    Exec Addr    Load Addr    Size         Type   Attr      Idx    E Section Name        Object

    0x4000d030        -       0x00000010   Zero   RW         4962    .ARM.__AT_0x4000D030  txf5200.o



  Load Region LR$$.ARM.__AT_0x40012000 (Base: 0x40012000, Size: 0x00000000, Max: 0x0000003c, ABSOLUTE)

    Execution Region ER$$.ARM.__AT_0x40012000 (Exec base: 0x40012000, Load base: 0x40012000, Size: 0x0000003c, Max: 0x0000003c, ABSOLUTE, UNINIT)

    Exec Addr    Load Addr    Size         Type   Attr      Idx    E Section Name        Object

    0x40012000        -       0x0000003c   Zero   RW         4963    .ARM.__AT_0x40012000  txf5200.o



  Load Region LR$$.ARM.__AT_0x40013000 (Base: 0x40013000, Size: 0x00000000, Max: 0x00000100, ABSOLUTE)

    Execution Region ER$$.ARM.__AT_0x40013000 (Exec base: 0x40013000, Load base: 0x40013000, Size: 0x00000100, Max: 0x00000100, ABSOLUTE, UNINIT)

    Exec Addr    Load Addr    Size         Type   Attr      Idx    E Section Name        Object

    0x40013000        -       0x00000100   Zero   RW         4964    .ARM.__AT_0x40013000  txf5200.o



  Load Region LR$$.ARM.__AT_0x40014000 (Base: 0x40014000, Size: 0x00000000, Max: 0x00000008, ABSOLUTE)

    Execution Region ER$$.ARM.__AT_0x40014000 (Exec base: 0x40014000, Load base: 0x40014000, Size: 0x00000008, Max: 0x00000008, ABSOLUTE, UNINIT)

    Exec Addr    Load Addr    Size         Type   Attr      Idx    E Section Name        Object

    0x40014000        -       0x00000008   Zero   RW         4965    .ARM.__AT_0x40014000  txf5200.o



  Load Region LR$$.ARM.__AT_0x40015000 (Base: 0x40015000, Size: 0x00000000, Max: 0x00000010, ABSOLUTE)

    Execution Region ER$$.ARM.__AT_0x40015000 (Exec base: 0x40015000, Load base: 0x40015000, Size: 0x00000010, Max: 0x00000010, ABSOLUTE, UNINIT)

    Exec Addr    Load Addr    Size         Type   Attr      Idx    E Section Name        Object

    0x40015000        -       0x00000010   Zero   RW         4966    .ARM.__AT_0x40015000  txf5200.o



  Load Region LR$$.ARM.__AT_0x40015010 (Base: 0x40015010, Size: 0x00000000, Max: 0x00000010, ABSOLUTE)

    Execution Region ER$$.ARM.__AT_0x40015010 (Exec base: 0x40015010, Load base: 0x40015010, Size: 0x00000010, Max: 0x00000010, ABSOLUTE, UNINIT)

    Exec Addr    Load Addr    Size         Type   Attr      Idx    E Section Name        Object

    0x40015010        -       0x00000010   Zero   RW         4967    .ARM.__AT_0x40015010  txf5200.o



  Load Region LR$$.ARM.__AT_0x40015020 (Base: 0x40015020, Size: 0x00000000, Max: 0x00000010, ABSOLUTE)

    Execution Region ER$$.ARM.__AT_0x40015020 (Exec base: 0x40015020, Load base: 0x40015020, Size: 0x00000010, Max: 0x00000010, ABSOLUTE, UNINIT)

    Exec Addr    Load Addr    Size         Type   Attr      Idx    E Section Name        Object

    0x40015020        -       0x00000010   Zero   RW         4968    .ARM.__AT_0x40015020  txf5200.o



  Load Region LR$$.ARM.__AT_0x40015030 (Base: 0x40015030, Size: 0x00000000, Max: 0x00000010, ABSOLUTE)

    Execution Region ER$$.ARM.__AT_0x40015030 (Exec base: 0x40015030, Load base: 0x40015030, Size: 0x00000010, Max: 0x00000010, ABSOLUTE, UNINIT)

    Exec Addr    Load Addr    Size         Type   Attr      Idx    E Section Name        Object

    0x40015030        -       0x00000010   Zero   RW         4969    .ARM.__AT_0x40015030  txf5200.o



  Load Region LR$$.ARM.__AT_0x40017000 (Base: 0x40017000, Size: 0x00000000, Max: 0x00000028, ABSOLUTE)

    Execution Region ER$$.ARM.__AT_0x40017000 (Exec base: 0x40017000, Load base: 0x40017000, Size: 0x00000028, Max: 0x00000028, ABSOLUTE, UNINIT)

    Exec Addr    Load Addr    Size         Type   Attr      Idx    E Section Name        Object

    0x40017000        -       0x00000028   Zero   RW         4970    .ARM.__AT_0x40017000  txf5200.o



  Load Region LR$$.ARM.__AT_0x4001C000 (Base: 0x4001c000, Size: 0x00000000, Max: 0x00000010, ABSOLUTE)

    Execution Region ER$$.ARM.__AT_0x4001C000 (Exec base: 0x4001c000, Load base: 0x4001c000, Size: 0x00000010, Max: 0x00000010, ABSOLUTE, UNINIT)

    Exec Addr    Load Addr    Size         Type   Attr      Idx    E Section Name        Object

    0x4001c000        -       0x00000010   Zero   RW         4971    .ARM.__AT_0x4001C000  txf5200.o



  Load Region LR$$.ARM.__AT_0x4001D000 (Base: 0x4001d000, Size: 0x00000000, Max: 0x00000010, ABSOLUTE)

    Execution Region ER$$.ARM.__AT_0x4001D000 (Exec base: 0x4001d000, Load base: 0x4001d000, Size: 0x00000010, Max: 0x00000010, ABSOLUTE, UNINIT)

    Exec Addr    Load Addr    Size         Type   Attr      Idx    E Section Name        Object

    0x4001d000        -       0x00000010   Zero   RW         4972    .ARM.__AT_0x4001D000  txf5200.o



  Load Region LR$$.ARM.__AT_0x40020000 (Base: 0x40020000, Size: 0x00000000, Max: 0x000003b8, ABSOLUTE)

    Execution Region ER$$.ARM.__AT_0x40020000 (Exec base: 0x40020000, Load base: 0x40020000, Size: 0x000003b8, Max: 0x000003b8, ABSOLUTE, UNINIT)

    Exec Addr    Load Addr    Size         Type   Attr      Idx    E Section Name        Object

    0x40020000        -       0x000003b8   Zero   RW         4973    .ARM.__AT_0x40020000  txf5200.o



  Load Region LR$$.ARM.__AT_0x40021000 (Base: 0x40021000, Size: 0x00000000, Max: 0x00000060, ABSOLUTE)

    Execution Region ER$$.ARM.__AT_0x40021000 (Exec base: 0x40021000, Load base: 0x40021000, Size: 0x00000060, Max: 0x00000060, ABSOLUTE, UNINIT)

    Exec Addr    Load Addr    Size         Type   Attr      Idx    E Section Name        Object

    0x40021000        -       0x00000060   Zero   RW         4974    .ARM.__AT_0x40021000  txf5200.o



  Load Region LR$$.ARM.__AT_0x40022000 (Base: 0x40022000, Size: 0x00000000, Max: 0x0000003c, ABSOLUTE)

    Execution Region ER$$.ARM.__AT_0x40022000 (Exec base: 0x40022000, Load base: 0x40022000, Size: 0x0000003c, Max: 0x0000003c, ABSOLUTE, UNINIT)

    Exec Addr    Load Addr    Size         Type   Attr      Idx    E Section Name        Object

    0x40022000        -       0x0000003c   Zero   RW         4975    .ARM.__AT_0x40022000  txf5200.o



  Load Region LR$$.ARM.__AT_0x40024000 (Base: 0x40024000, Size: 0x00000000, Max: 0x0000003c, ABSOLUTE)

    Execution Region ER$$.ARM.__AT_0x40024000 (Exec base: 0x40024000, Load base: 0x40024000, Size: 0x0000003c, Max: 0x0000003c, ABSOLUTE, UNINIT)

    Exec Addr    Load Addr    Size         Type   Attr      Idx    E Section Name        Object

    0x40024000        -       0x0000003c   Zero   RW         4976    .ARM.__AT_0x40024000  txf5200.o



  Load Region LR$$.ARM.__AT_0x40025000 (Base: 0x40025000, Size: 0x00000000, Max: 0x0000003c, ABSOLUTE)

    Execution Region ER$$.ARM.__AT_0x40025000 (Exec base: 0x40025000, Load base: 0x40025000, Size: 0x0000003c, Max: 0x0000003c, ABSOLUTE, UNINIT)

    Exec Addr    Load Addr    Size         Type   Attr      Idx    E Section Name        Object

    0x40025000        -       0x0000003c   Zero   RW         4977    .ARM.__AT_0x40025000  txf5200.o



  Load Region LR$$.ARM.__AT_0x40026000 (Base: 0x40026000, Size: 0x00000000, Max: 0x00000084, ABSOLUTE)

    Execution Region ER$$.ARM.__AT_0x40026000 (Exec base: 0x40026000, Load base: 0x40026000, Size: 0x00000084, Max: 0x00000084, ABSOLUTE, UNINIT)

    Exec Addr    Load Addr    Size         Type   Attr      Idx    E Section Name        Object

    0x40026000        -       0x00000084   Zero   RW         4978    .ARM.__AT_0x40026000  txf5200.o



  Load Region LR$$.ARM.__AT_0x40027000 (Base: 0x40027000, Size: 0x00000000, Max: 0x0000003c, ABSOLUTE)

    Execution Region ER$$.ARM.__AT_0x40027000 (Exec base: 0x40027000, Load base: 0x40027000, Size: 0x0000003c, Max: 0x0000003c, ABSOLUTE, UNINIT)

    Exec Addr    Load Addr    Size         Type   Attr      Idx    E Section Name        Object

    0x40027000        -       0x0000003c   Zero   RW         4979    .ARM.__AT_0x40027000  txf5200.o



  Load Region LR$$.ARM.__AT_0x40029000 (Base: 0x40029000, Size: 0x00000000, Max: 0x000000b0, ABSOLUTE)

    Execution Region ER$$.ARM.__AT_0x40029000 (Exec base: 0x40029000, Load base: 0x40029000, Size: 0x000000b0, Max: 0x000000b0, ABSOLUTE, UNINIT)

    Exec Addr    Load Addr    Size         Type   Attr      Idx    E Section Name        Object

    0x40029000        -       0x000000b0   Zero   RW         4980    .ARM.__AT_0x40029000  txf5200.o



  Load Region LR$$.ARM.__AT_0x40030000 (Base: 0x40030000, Size: 0x00000000, Max: 0x00000014, ABSOLUTE)

    Execution Region ER$$.ARM.__AT_0x40030000 (Exec base: 0x40030000, Load base: 0x40030000, Size: 0x00000014, Max: 0x00000014, ABSOLUTE, UNINIT)

    Exec Addr    Load Addr    Size         Type   Attr      Idx    E Section Name        Object

    0x40030000        -       0x00000014   Zero   RW         4981    .ARM.__AT_0x40030000  txf5200.o



  Load Region LR$$.ARM.__AT_0x40031000 (Base: 0x40031000, Size: 0x00000000, Max: 0x0000007c, ABSOLUTE)

    Execution Region ER$$.ARM.__AT_0x40031000 (Exec base: 0x40031000, Load base: 0x40031000, Size: 0x0000007c, Max: 0x0000007c, ABSOLUTE, UNINIT)

    Exec Addr    Load Addr    Size         Type   Attr      Idx    E Section Name        Object

    0x40031000        -       0x0000007c   Zero   RW         4982    .ARM.__AT_0x40031000  txf5200.o



  Load Region LR$$.ARM.__AT_0x40032000 (Base: 0x40032000, Size: 0x00000000, Max: 0x000000e0, ABSOLUTE)

    Execution Region ER$$.ARM.__AT_0x40032000 (Exec base: 0x40032000, Load base: 0x40032000, Size: 0x000000e0, Max: 0x000000e0, ABSOLUTE, UNINIT)

    Exec Addr    Load Addr    Size         Type   Attr      Idx    E Section Name        Object

    0x40032000        -       0x000000e0   Zero   RW         4983    .ARM.__AT_0x40032000  txf5200.o



  Load Region LR$$.ARM.__AT_0x40033000 (Base: 0x40033000, Size: 0x00000000, Max: 0x00000034, ABSOLUTE)

    Execution Region ER$$.ARM.__AT_0x40033000 (Exec base: 0x40033000, Load base: 0x40033000, Size: 0x00000034, Max: 0x00000034, ABSOLUTE, UNINIT)

    Exec Addr    Load Addr    Size         Type   Attr      Idx    E Section Name        Object

    0x40033000        -       0x00000034   Zero   RW         4984    .ARM.__AT_0x40033000  txf5200.o



  Load Region LR$$.ARM.__AT_0x40035000 (Base: 0x40035000, Size: 0x00000000, Max: 0x00000040, ABSOLUTE)

    Execution Region ER$$.ARM.__AT_0x40035000 (Exec base: 0x40035000, Load base: 0x40035000, Size: 0x00000040, Max: 0x00000040, ABSOLUTE, UNINIT)

    Exec Addr    Load Addr    Size         Type   Attr      Idx    E Section Name        Object

    0x40035000        -       0x00000040   Zero   RW         4985    .ARM.__AT_0x40035000  txf5200.o



  Load Region LR$$.ARM.__AT_0x40035040 (Base: 0x40035040, Size: 0x00000000, Max: 0x00000040, ABSOLUTE)

    Execution Region ER$$.ARM.__AT_0x40035040 (Exec base: 0x40035040, Load base: 0x40035040, Size: 0x00000040, Max: 0x00000040, ABSOLUTE, UNINIT)

    Exec Addr    Load Addr    Size         Type   Attr      Idx    E Section Name        Object

    0x40035040        -       0x00000040   Zero   RW         4986    .ARM.__AT_0x40035040  txf5200.o



  Load Region LR$$.ARM.__AT_0x40035080 (Base: 0x40035080, Size: 0x00000000, Max: 0x00000040, ABSOLUTE)

    Execution Region ER$$.ARM.__AT_0x40035080 (Exec base: 0x40035080, Load base: 0x40035080, Size: 0x00000040, Max: 0x00000040, ABSOLUTE, UNINIT)

    Exec Addr    Load Addr    Size         Type   Attr      Idx    E Section Name        Object

    0x40035080        -       0x00000040   Zero   RW         4987    .ARM.__AT_0x40035080  txf5200.o



  Load Region LR$$.ARM.__AT_0x400350C0 (Base: 0x400350c0, Size: 0x00000000, Max: 0x00000040, ABSOLUTE)

    Execution Region ER$$.ARM.__AT_0x400350C0 (Exec base: 0x400350c0, Load base: 0x400350c0, Size: 0x00000040, Max: 0x00000040, ABSOLUTE, UNINIT)

    Exec Addr    Load Addr    Size         Type   Attr      Idx    E Section Name        Object

    0x400350c0        -       0x00000040   Zero   RW         4988    .ARM.__AT_0x400350C0  txf5200.o



  Load Region LR$$.ARM.__AT_0x40035100 (Base: 0x40035100, Size: 0x00000000, Max: 0x00000040, ABSOLUTE)

    Execution Region ER$$.ARM.__AT_0x40035100 (Exec base: 0x40035100, Load base: 0x40035100, Size: 0x00000040, Max: 0x00000040, ABSOLUTE, UNINIT)

    Exec Addr    Load Addr    Size         Type   Attr      Idx    E Section Name        Object

    0x40035100        -       0x00000040   Zero   RW         4989    .ARM.__AT_0x40035100  txf5200.o



  Load Region LR$$.ARM.__AT_0x40035140 (Base: 0x40035140, Size: 0x00000000, Max: 0x00000140, ABSOLUTE)

    Execution Region ER$$.ARM.__AT_0x40035140 (Exec base: 0x40035140, Load base: 0x40035140, Size: 0x00000140, Max: 0x00000140, ABSOLUTE, UNINIT)

    Exec Addr    Load Addr    Size         Type   Attr      Idx    E Section Name        Object

    0x40035140        -       0x00000140   Zero   RW         4990    .ARM.__AT_0x40035140  txf5200.o



  Load Region LR$$.ARM.__AT_0x40035280 (Base: 0x40035280, Size: 0x00000000, Max: 0x00000040, ABSOLUTE)

    Execution Region ER$$.ARM.__AT_0x40035280 (Exec base: 0x40035280, Load base: 0x40035280, Size: 0x00000040, Max: 0x00000040, ABSOLUTE, UNINIT)

    Exec Addr    Load Addr    Size         Type   Attr      Idx    E Section Name        Object

    0x40035280        -       0x00000040   Zero   RW         4991    .ARM.__AT_0x40035280  txf5200.o



  Load Region LR$$.ARM.__AT_0x400352C0 (Base: 0x400352c0, Size: 0x00000000, Max: 0x00000040, ABSOLUTE)

    Execution Region ER$$.ARM.__AT_0x400352C0 (Exec base: 0x400352c0, Load base: 0x400352c0, Size: 0x00000040, Max: 0x00000040, ABSOLUTE, UNINIT)

    Exec Addr    Load Addr    Size         Type   Attr      Idx    E Section Name        Object

    0x400352c0        -       0x00000040   Zero   RW         4992    .ARM.__AT_0x400352C0  txf5200.o



  Load Region LR$$.ARM.__AT_0x40035300 (Base: 0x40035300, Size: 0x00000000, Max: 0x00000040, ABSOLUTE)

    Execution Region ER$$.ARM.__AT_0x40035300 (Exec base: 0x40035300, Load base: 0x40035300, Size: 0x00000040, Max: 0x00000040, ABSOLUTE, UNINIT)

    Exec Addr    Load Addr    Size         Type   Attr      Idx    E Section Name        Object

    0x40035300        -       0x00000040   Zero   RW         4993    .ARM.__AT_0x40035300  txf5200.o



  Load Region LR$$.ARM.__AT_0x40035340 (Base: 0x40035340, Size: 0x00000000, Max: 0x00000040, ABSOLUTE)

    Execution Region ER$$.ARM.__AT_0x40035340 (Exec base: 0x40035340, Load base: 0x40035340, Size: 0x00000040, Max: 0x00000040, ABSOLUTE, UNINIT)

    Exec Addr    Load Addr    Size         Type   Attr      Idx    E Section Name        Object

    0x40035340        -       0x00000040   Zero   RW         4994    .ARM.__AT_0x40035340  txf5200.o



  Load Region LR$$.ARM.__AT_0x40035380 (Base: 0x40035380, Size: 0x00000000, Max: 0x00000040, ABSOLUTE)

    Execution Region ER$$.ARM.__AT_0x40035380 (Exec base: 0x40035380, Load base: 0x40035380, Size: 0x00000040, Max: 0x00000040, ABSOLUTE, UNINIT)

    Exec Addr    Load Addr    Size         Type   Attr      Idx    E Section Name        Object

    0x40035380        -       0x00000040   Zero   RW         4995    .ARM.__AT_0x40035380  txf5200.o



  Load Region LR$$.ARM.__AT_0x400353C0 (Base: 0x400353c0, Size: 0x00000000, Max: 0x00000040, ABSOLUTE)

    Execution Region ER$$.ARM.__AT_0x400353C0 (Exec base: 0x400353c0, Load base: 0x400353c0, Size: 0x00000040, Max: 0x00000040, ABSOLUTE, UNINIT)

    Exec Addr    Load Addr    Size         Type   Attr      Idx    E Section Name        Object

    0x400353c0        -       0x00000040   Zero   RW         4996    .ARM.__AT_0x400353C0  txf5200.o



  Load Region LR$$.ARM.__AT_0x40035400 (Base: 0x40035400, Size: 0x00000000, Max: 0x00000040, ABSOLUTE)

    Execution Region ER$$.ARM.__AT_0x40035400 (Exec base: 0x40035400, Load base: 0x40035400, Size: 0x00000040, Max: 0x00000040, ABSOLUTE, UNINIT)

    Exec Addr    Load Addr    Size         Type   Attr      Idx    E Section Name        Object

    0x40035400        -       0x00000040   Zero   RW         4997    .ARM.__AT_0x40035400  txf5200.o



  Load Region LR$$.ARM.__AT_0x40035440 (Base: 0x40035440, Size: 0x00000000, Max: 0x00000040, ABSOLUTE)

    Execution Region ER$$.ARM.__AT_0x40035440 (Exec base: 0x40035440, Load base: 0x40035440, Size: 0x00000040, Max: 0x00000040, ABSOLUTE, UNINIT)

    Exec Addr    Load Addr    Size         Type   Attr      Idx    E Section Name        Object

    0x40035440        -       0x00000040   Zero   RW         4998    .ARM.__AT_0x40035440  txf5200.o



  Load Region LR$$.ARM.__AT_0x40035480 (Base: 0x40035480, Size: 0x00000000, Max: 0x00000040, ABSOLUTE)

    Execution Region ER$$.ARM.__AT_0x40035480 (Exec base: 0x40035480, Load base: 0x40035480, Size: 0x00000040, Max: 0x00000040, ABSOLUTE, UNINIT)

    Exec Addr    Load Addr    Size         Type   Attr      Idx    E Section Name        Object

    0x40035480        -       0x00000040   Zero   RW         4999    .ARM.__AT_0x40035480  txf5200.o



  Load Region LR$$.ARM.__AT_0x400354C0 (Base: 0x400354c0, Size: 0x00000000, Max: 0x00000040, ABSOLUTE)

    Execution Region ER$$.ARM.__AT_0x400354C0 (Exec base: 0x400354c0, Load base: 0x400354c0, Size: 0x00000040, Max: 0x00000040, ABSOLUTE, UNINIT)

    Exec Addr    Load Addr    Size         Type   Attr      Idx    E Section Name        Object

    0x400354c0        -       0x00000040   Zero   RW         5000    .ARM.__AT_0x400354C0  txf5200.o



  Load Region LR$$.ARM.__AT_0x40035500 (Base: 0x40035500, Size: 0x00000000, Max: 0x00000040, ABSOLUTE)

    Execution Region ER$$.ARM.__AT_0x40035500 (Exec base: 0x40035500, Load base: 0x40035500, Size: 0x00000040, Max: 0x00000040, ABSOLUTE, UNINIT)

    Exec Addr    Load Addr    Size         Type   Attr      Idx    E Section Name        Object

    0x40035500        -       0x00000040   Zero   RW         5001    .ARM.__AT_0x40035500  txf5200.o



  Load Region LR$$.ARM.__AT_0x40036000 (Base: 0x40036000, Size: 0x00000000, Max: 0x00000264, ABSOLUTE)

    Execution Region ER$$.ARM.__AT_0x40036000 (Exec base: 0x40036000, Load base: 0x40036000, Size: 0x00000264, Max: 0x00000264, ABSOLUTE, UNINIT)

    Exec Addr    Load Addr    Size         Type   Attr      Idx    E Section Name        Object

    0x40036000        -       0x00000264   Zero   RW         5002    .ARM.__AT_0x40036000  txf5200.o



  Load Region LR$$.ARM.__AT_0x40036300 (Base: 0x40036300, Size: 0x00000000, Max: 0x00000060, ABSOLUTE)

    Execution Region ER$$.ARM.__AT_0x40036300 (Exec base: 0x40036300, Load base: 0x40036300, Size: 0x00000060, Max: 0x00000060, ABSOLUTE, UNINIT)

    Exec Addr    Load Addr    Size         Type   Attr      Idx    E Section Name        Object

    0x40036300        -       0x00000060   Zero   RW         5003    .ARM.__AT_0x40036300  txf5200.o



  Load Region LR$$.ARM.__AT_0x40036360 (Base: 0x40036360, Size: 0x00000000, Max: 0x00000060, ABSOLUTE)

    Execution Region ER$$.ARM.__AT_0x40036360 (Exec base: 0x40036360, Load base: 0x40036360, Size: 0x00000060, Max: 0x00000060, ABSOLUTE, UNINIT)

    Exec Addr    Load Addr    Size         Type   Attr      Idx    E Section Name        Object

    0x40036360        -       0x00000060   Zero   RW         5004    .ARM.__AT_0x40036360  txf5200.o



  Load Region LR$$.ARM.__AT_0x400363C0 (Base: 0x400363c0, Size: 0x00000000, Max: 0x00000060, ABSOLUTE)

    Execution Region ER$$.ARM.__AT_0x400363C0 (Exec base: 0x400363c0, Load base: 0x400363c0, Size: 0x00000060, Max: 0x00000060, ABSOLUTE, UNINIT)

    Exec Addr    Load Addr    Size         Type   Attr      Idx    E Section Name        Object

    0x400363c0        -       0x00000060   Zero   RW         5005    .ARM.__AT_0x400363C0  txf5200.o



  Load Region LR$$.ARM.__AT_0x40036420 (Base: 0x40036420, Size: 0x00000000, Max: 0x00000030, ABSOLUTE)

    Execution Region ER$$.ARM.__AT_0x40036420 (Exec base: 0x40036420, Load base: 0x40036420, Size: 0x00000030, Max: 0x00000030, ABSOLUTE, UNINIT)

    Exec Addr    Load Addr    Size         Type   Attr      Idx    E Section Name        Object

    0x40036420        -       0x00000030   Zero   RW         5006    .ARM.__AT_0x40036420  txf5200.o



  Load Region LR$$.ARM.__AT_0x40036450 (Base: 0x40036450, Size: 0x00000000, Max: 0x00000030, ABSOLUTE)

    Execution Region ER$$.ARM.__AT_0x40036450 (Exec base: 0x40036450, Load base: 0x40036450, Size: 0x00000030, Max: 0x00000030, ABSOLUTE, UNINIT)

    Exec Addr    Load Addr    Size         Type   Attr      Idx    E Section Name        Object

    0x40036450        -       0x00000030   Zero   RW         5007    .ARM.__AT_0x40036450  txf5200.o



  Load Region LR$$.ARM.__AT_0x40036480 (Base: 0x40036480, Size: 0x00000000, Max: 0x00000030, ABSOLUTE)

    Execution Region ER$$.ARM.__AT_0x40036480 (Exec base: 0x40036480, Load base: 0x40036480, Size: 0x00000030, Max: 0x00000030, ABSOLUTE, UNINIT)

    Exec Addr    Load Addr    Size         Type   Attr      Idx    E Section Name        Object

    0x40036480        -       0x00000030   Zero   RW         5008    .ARM.__AT_0x40036480  txf5200.o



  Load Region LR$$.ARM.__AT_0x40037000 (Base: 0x40037000, Size: 0x00000000, Max: 0x00000140, ABSOLUTE)

    Execution Region ER$$.ARM.__AT_0x40037000 (Exec base: 0x40037000, Load base: 0x40037000, Size: 0x00000140, Max: 0x00000140, ABSOLUTE, UNINIT)

    Exec Addr    Load Addr    Size         Type   Attr      Idx    E Section Name        Object

    0x40037000        -       0x00000140   Zero   RW         5009    .ARM.__AT_0x40037000  txf5200.o



  Load Region LR$$.ARM.__AT_0x40038000 (Base: 0x40038000, Size: 0x00000000, Max: 0x00000258, ABSOLUTE)

    Execution Region ER$$.ARM.__AT_0x40038000 (Exec base: 0x40038000, Load base: 0x40038000, Size: 0x00000258, Max: 0x00000258, ABSOLUTE, UNINIT)

    Exec Addr    Load Addr    Size         Type   Attr      Idx    E Section Name        Object

    0x40038000        -       0x00000258   Zero   RW         5010    .ARM.__AT_0x40038000  txf5200.o


==============================================================================

Image component sizes


      Code (inc. data)   RO Data    RW Data    ZI Data      Debug   Object Name

      1998         92          0        149       2710      14752   chead.o
        68         10          0        512          0       1477   crccheck.o
       394         58          0         24          0       9721   eflash.o
      2130        268       1856         80          0       4900   lcd12864_app.o
      1182         36          0          0          0       8953   lcd12864_drv.o
      2248        192          0          2         40      97915   main.o
       180         20          0          0        280       2993   modules_init.o
       424         36          0         62         44       4493   nfc_app.o
      3748        116          0          0        566       9526   proto.o
       566         20          0          0          0       5303   rc523_cfg.o
      1524          0          0          0          0      10245   rc523_drv.o
         0          0          0          0       4096        740   save_printf.o
       264         42          0          5        538       4264   serial.o
       974         74          0          0          0      11899   slave.o
        68         50          0          0          0       1246   tx_phe_assert.o
       168         32          0         20          0      37840   tx_phe_debug.o
      2068        100          0          0          0      64580   tx_phe_irq.o
         0          0          0          0          0       3484   tx_phe_ll_can.o
      1666         82         16          0          0       6600   tx_phe_ll_cc_rst.o
       774        286          0          0          0      17139   tx_phe_ll_eflash.o
      3038        264          0          0          0       5563   tx_phe_ll_epwm.o
       320        146          0          0          0       2029   tx_phe_ll_gpio.o
      1612        354          0          0          0       5203   tx_phe_ll_timer.o
       658        216          0          0          0       3636   tx_phe_ll_usart.o
       124         14          0          0          0       1240   tx_phe_misc.o
        20          0        316          0          0       2163   tx_phe_startup.o
      1756        914          0        408          0      43390   tx_phe_system.o
         0          0          0          0       7116       2660   txf5200.o
       300         32          0          9        500       5595   user.o
       396         70          0          0         24       5217   utimer.o

    ----------------------------------------------------------------------
     28728       3524       2252       1272      31828     394766   Object Totals
        40          0         64          0       1024          0   (incl. Generated)
        20          0          0          1      14890          0   (incl. Padding)

    ----------------------------------------------------------------------

      Code (inc. data)   RO Data    RW Data    ZI Data      Debug   Library Member Name

        86          0          0          0          0          0   __dczerorl2.o
         0          0          0          0          0          0   entry.o
         0          0          0          0          0          0   entry10a.o
         0          0          0          0          0          0   entry11a.o
         4          0          0          0          0          0   entry12b.o
         8          4          0          0          0          0   entry4.o
         4          0          0          0          0          0   entry5.o
         0          0          0          0          0          0   entry7b.o
         0          0          0          0          0          0   entry8b.o
         8          4          0          0          0          0   entry9a.o
        30          0          0          0          0          0   handlers.o
        36          8          0          0          0         68   init.o
         0          0          0          0          0          0   iusefp.o
        30          0          0          0          0         68   llshl.o
        32          0          0          0          0         68   llushr.o
        36          0          0          0          0         68   memcpya.o
        36          0          0          0          0        108   memseta.o
      1142         54          0          0          0        352   printf8.o
        98          0          0          0          0         92   uldiv.o
       186          0          0          0          0        176   depilogue.o
        50          0          0          0          0         76   dfixui.o
        26          0          0          0          0         76   dfltui.o
       228          0          0          0          0         96   dmul.o

    ----------------------------------------------------------------------
      2044         70          0          0          0       1248   Library Totals
         4          0          0          0          0          0   (incl. Padding)

    ----------------------------------------------------------------------

      Code (inc. data)   RO Data    RW Data    ZI Data      Debug   Library Name

      1550         70          0          0          0        824   mc_w.l
       490          0          0          0          0        424   mf_w.l

    ----------------------------------------------------------------------
      2044         70          0          0          0       1248   Library Totals

    ----------------------------------------------------------------------

==============================================================================


      Code (inc. data)   RO Data    RW Data    ZI Data      Debug   

     30772       3594       2252       1272      31828     384702   Grand Totals
     30772       3594       2252        448      31828     384702   ELF Image Totals (compressed)
     30772       3594       2252        448          0          0   ROM Totals

==============================================================================

    Total RO  Size (Code + RO Data)                33024 (  32.25kB)
    Total RW  Size (RW Data + ZI Data)             33100 (  32.32kB)
    Total ROM Size (Code + RO Data + RW Data)      33472 (  32.69kB)

==============================================================================

