Component: ARM Compiler 5.06 update 7 (build 960) Tool: armlink [4d3601]

==============================================================================

Section Cross References

    main.o(i.main) refers to tx_phe_ll_gpio.o(i.ll_gpio_dir) for ll_gpio_dir
    main.o(i.main) refers to tx_phe_ll_gpio.o(i.ll_gpio_pull) for ll_gpio_pull
    main.o(i.main) refers to main.o(i.ll_gpio_bit_set) for ll_gpio_bit_set
    main.o(i.main) refers to main.o(i.ll_gpio_bit_reset) for ll_gpio_bit_reset
    main.o(i.main) refers to proto.o(i.param_init) for param_init
    main.o(i.main) refers to utimer.o(i.utimer_init) for utimer_init
    main.o(i.main) refers to utimer.o(i.utimer_config) for utimer_config
    main.o(i.main) refers to serial.o(i.serial_init) for serial_init
    main.o(i.main) refers to serial.o(i.serial_config) for serial_config
    main.o(i.main) refers to utimer.o(i.utimer_start) for utimer_start
    main.o(i.main) refers to user.o(i.usart2_init) for usart2_init
    main.o(i.main) refers to user.o(i.usart2_config) for usart2_config
    main.o(i.main) refers to user.o(i.Main_Poll) for Main_Poll
    main.o(i.main) refers to main.o(.bss) for port1
    main.o(i.main) refers to main.o(.data) for power_up
    main.o(i.main_loop) refers to proto.o(i.proto_run) for proto_run
    main.o(i.main_loop) refers to slave.o(i.protect_process) for protect_process
    main.o(i.main_loop) refers to slave.o(i.km_control) for km_control
==============================================================================

Removing Unused input sections from the image.

    Removing main.o(.rev16_text), (4 bytes).
    Removing main.o(.revsh_text), (4 bytes).
    Removing main.o(.rrx_text), (6 bytes).
    Removing tx_phe_irq.o(.rev16_text), (4 bytes).
    Removing tx_phe_irq.o(.revsh_text), (4 bytes).
    Removing tx_phe_irq.o(.rrx_text), (6 bytes).
    Removing user.o(.rev16_text), (4 bytes).
    Removing user.o(.revsh_text), (4 bytes).
    Removing user.o(.rrx_text), (6 bytes).
    Removing user.o(i.modbus_config), (2 bytes).
    Removing user.o(i.modbus_deinit), (2 bytes).
    Removing user.o(i.modbus_handle), (8 bytes).
    Removing user.o(i.modbus_init), (52 bytes).
    Removing user.o(i.modbus_start), (44 bytes).
    Removing user.o(i.modbus_stop), (44 bytes).
    Removing user.o(i.usart_config), (68 bytes).
    Removing user.o(i.usart_deinit), (16 bytes).
    Removing user.o(i.usart_init), (20 bytes).
==============================================================================

Adding Veneers to the image

    Adding TT veneer (10 bytes, Long) for call to 'system_init' from tx_phe_startup.o(i.$Sub$$main).
    Adding TT veneer (10 bytes, Long) for call to '$Super$$main' from tx_phe_startup.o(i.$Sub$$main).
    Adding TT veneer (10 bytes, Long) for call to '__aeabi_uldivmod' from printf8.o(i._printf_core).
    Adding TT veneer (10 bytes, Long) for call to '__2printf' from tx_phe_system.o(i.dump_fault_state).

4 Veneer(s) (total 40 bytes) added to the image.

==============================================================================

Image Symbol Table

    Local Symbols

    Symbol Name                              Value     Ov Type        Size  Object(Section)

    ../clib/../cmprslib/zerorunl2.c          0x00000000   Number         0  __dczerorl2.o ABSOLUTE
    ../clib/microlib/division.c              0x00000000   Number         0  uidiv.o ABSOLUTE
    ../clib/microlib/division.c              0x00000000   Number         0  uldiv.o ABSOLUTE
    ../clib/microlib/init/entry.s            0x00000000   Number         0  entry9a.o ABSOLUTE
    ../clib/microlib/init/entry.s            0x00000000   Number         0  entry12a.o ABSOLUTE
    ../clib/microlib/init/entry.s            0x00000000   Number         0  entry8b.o ABSOLUTE
    ../clib/microlib/init/entry.s            0x00000000   Number         0  entry8a.o ABSOLUTE
    ../clib/microlib/init/entry.s            0x00000000   Number         0  entry7b.o ABSOLUTE
    ../clib/microlib/init/entry.s            0x00000000   Number         0  entry11a.o ABSOLUTE
    ../clib/microlib/init/entry.s            0x00000000   Number         0  entry12b.o ABSOLUTE
    ../clib/microlib/init/entry.s            0x00000000   Number         0  entry.o ABSOLUTE
    ../clib/microlib/init/entry.s            0x00000000   Number         0  entry7a.o ABSOLUTE
    ../clib/microlib/init/entry.s            0x00000000   Number         0  entry5.o ABSOLUTE
    ../clib/microlib/init/entry.s            0x00000000   Number         0  entry10a.o ABSOLUTE
    ../clib/microlib/init/entry.s            0x00000000   Number         0  entry4.o ABSOLUTE
    ../clib/microlib/init/entry.s            0x00000000   Number         0  entry11b.o ABSOLUTE
    ../clib/microlib/init/entry.s            0x00000000   Number         0  entry9b.o ABSOLUTE
    ../clib/microlib/init/entry.s            0x00000000   Number         0  entry10b.o ABSOLUTE
    ../clib/microlib/longlong.c              0x00000000   Number         0  llshl.o ABSOLUTE
    ../clib/microlib/longlong.c              0x00000000   Number         0  llushr.o ABSOLUTE
    ../clib/microlib/longlong.c              0x00000000   Number         0  llsshr.o ABSOLUTE
    ../clib/microlib/printf/printf.c         0x00000000   Number         0  printf3.o ABSOLUTE
    ../clib/microlib/printf/printf.c         0x00000000   Number         0  printfb.o ABSOLUTE
    ../clib/microlib/printf/printf.c         0x00000000   Number         0  printf1.o ABSOLUTE
    ../clib/microlib/printf/printf.c         0x00000000   Number         0  printf2.o ABSOLUTE
    ../clib/microlib/printf/printf.c         0x00000000   Number         0  printf4.o ABSOLUTE
    ../clib/microlib/printf/printf.c         0x00000000   Number         0  printf5.o ABSOLUTE
    ../clib/microlib/printf/printf.c         0x00000000   Number         0  printf6.o ABSOLUTE
    ../clib/microlib/printf/printf.c         0x00000000   Number         0  printf7.o ABSOLUTE
    ../clib/microlib/printf/printf.c         0x00000000   Number         0  printf8.o ABSOLUTE
    ../clib/microlib/printf/printf.c         0x00000000   Number         0  printfa.o ABSOLUTE
    ../clib/microlib/printf/printf.c         0x00000000   Number         0  printf0.o ABSOLUTE
    ../clib/microlib/printf/stubs.s          0x00000000   Number         0  stubs.o ABSOLUTE
    ../clib/microlib/string/memcpy.c         0x00000000   Number         0  memcpya.o ABSOLUTE
    ../clib/microlib/string/memcpy.c         0x00000000   Number         0  memcpyb.o ABSOLUTE
    ../clib/microlib/string/memset.c         0x00000000   Number         0  memseta.o ABSOLUTE
    ../clib/microlib/stubs.s                 0x00000000   Number         0  iusefp.o ABSOLUTE
    ../clib/microlib/stubs.s                 0x00000000   Number         0  useno.o ABSOLUTE
    ../fplib/microlib/fpadd.c                0x00000000   Number         0  dadd.o ABSOLUTE
    ../fplib/microlib/fpdiv.c                0x00000000   Number         0  fdiv.o ABSOLUTE
    ../fplib/microlib/fpdiv.c                0x00000000   Number         0  ddiv.o ABSOLUTE
    ../fplib/microlib/fpepilogue.c           0x00000000   Number         0  fepilogue.o ABSOLUTE
    ../fplib/microlib/fpepilogue.c           0x00000000   Number         0  depilogue.o ABSOLUTE
    ../fplib/microlib/fpfix.c                0x00000000   Number         0  dfixul.o ABSOLUTE
    ../fplib/microlib/fpflt.c                0x00000000   Number         0  ffltui.o ABSOLUTE
    ../fplib/microlib/fpmul.c                0x00000000   Number         0  dmul.o ABSOLUTE
    ..\..\..\..\Libraries\Device\Phoenix\source\startup\arm\tx_phe_startup.c 0x00000000   Number         0  tx_phe_startup.o ABSOLUTE
    ..\..\..\..\Libraries\Device\Phoenix\source\tx_phe_assert.c 0x00000000   Number         0  tx_phe_assert.o ABSOLUTE
    ..\..\..\..\Libraries\Device\Phoenix\source\tx_phe_debug.c 0x00000000   Number         0  tx_phe_debug.o ABSOLUTE
    ..\..\..\..\Libraries\Device\Phoenix\source\tx_phe_itm.c 0x00000000   Number         0  tx_phe_itm.o ABSOLUTE
    ..\..\..\..\Libraries\Device\Phoenix\source\tx_phe_misc.c 0x00000000   Number         0  tx_phe_misc.o ABSOLUTE
    ..\..\..\..\Libraries\Device\Phoenix\source\tx_phe_system.c 0x00000000   Number         0  tx_phe_system.o ABSOLUTE
    ..\..\..\..\Libraries\Device\Phoenix\source\txf5200.c 0x00000000   Number         0  txf5200.o ABSOLUTE
    ..\..\..\..\Libraries\Device\Phoenix\source\txf6200.c 0x00000000   Number         0  txf6200.o ABSOLUTE
    ..\..\..\..\Libraries\Driver\source\LL\tx_phe_ll_arctan.c 0x00000000   Number         0  tx_phe_ll_arctan.o ABSOLUTE
    ..\..\..\..\Libraries\Driver\source\LL\tx_phe_ll_can.c 0x00000000   Number         0  tx_phe_ll_can.o ABSOLUTE
    ..\..\..\..\Libraries\Driver\source\LL\tx_phe_ll_cc_rst.c 0x00000000   Number         0  tx_phe_ll_cc_rst.o ABSOLUTE
    ..\..\..\..\Libraries\Driver\source\LL\tx_phe_ll_crc.c 0x00000000   Number         0  tx_phe_ll_crc.o ABSOLUTE
    ..\..\..\..\Libraries\Driver\source\LL\tx_phe_ll_datadma.c 0x00000000   Number         0  tx_phe_ll_datadma.o ABSOLUTE
    ..\..\..\..\Libraries\Driver\source\LL\tx_phe_ll_dftrans.c 0x00000000   Number         0  tx_phe_ll_dftrans.o ABSOLUTE
    ..\..\..\..\Libraries\Driver\source\LL\tx_phe_ll_dmac.c 0x00000000   Number         0  tx_phe_ll_dmac.o ABSOLUTE
    ..\..\..\..\Libraries\Driver\source\LL\tx_phe_ll_eflash.c 0x00000000   Number         0  tx_phe_ll_eflash.o ABSOLUTE
    ..\..\..\..\Libraries\Driver\source\LL\tx_phe_ll_epwm.c 0x00000000   Number         0  tx_phe_ll_epwm.o ABSOLUTE
    ..\..\..\..\Libraries\Driver\source\LL\tx_phe_ll_evsys.c 0x00000000   Number         0  tx_phe_ll_evsys.o ABSOLUTE
    ..\..\..\..\Libraries\Driver\source\LL\tx_phe_ll_fadc.c 0x00000000   Number         0  tx_phe_ll_fadc.o ABSOLUTE
    ..\..\..\..\Libraries\Driver\source\LL\tx_phe_ll_fft.c 0x00000000   Number         0  tx_phe_ll_fft.o ABSOLUTE
    ..\..\..\..\Libraries\Driver\source\LL\tx_phe_ll_fir.c 0x00000000   Number         0  tx_phe_ll_fir.o ABSOLUTE
    ..\..\..\..\Libraries\Driver\source\LL\tx_phe_ll_gpio.c 0x00000000   Number         0  tx_phe_ll_gpio.o ABSOLUTE
    ..\..\..\..\Libraries\Driver\source\LL\tx_phe_ll_hcc.c 0x00000000   Number         0  tx_phe_ll_hcc.o ABSOLUTE
    ..\..\..\..\Libraries\Driver\source\LL\tx_phe_ll_iic.c 0x00000000   Number         0  tx_phe_ll_iic.o ABSOLUTE
    ..\..\..\..\Libraries\Driver\source\LL\tx_phe_ll_iir.c 0x00000000   Number         0  tx_phe_ll_iir.o ABSOLUTE
    ..\..\..\..\Libraries\Driver\source\LL\tx_phe_ll_mac.c 0x00000000   Number         0  tx_phe_ll_mac.o ABSOLUTE
    ..\..\..\..\Libraries\Driver\source\LL\tx_phe_ll_matrix.c 0x00000000   Number         0  tx_phe_ll_matrix.o ABSOLUTE
    ..\..\..\..\Libraries\Driver\source\LL\tx_phe_ll_qei.c 0x00000000   Number         0  tx_phe_ll_qei.o ABSOLUTE
    ..\..\..\..\Libraries\Driver\source\LL\tx_phe_ll_rms.c 0x00000000   Number         0  tx_phe_ll_rms.o ABSOLUTE
    ..\..\..\..\Libraries\Driver\source\LL\tx_phe_ll_saradc.c 0x00000000   Number         0  tx_phe_ll_saradc.o ABSOLUTE
    ..\..\..\..\Libraries\Driver\source\LL\tx_phe_ll_sincos.c 0x00000000   Number         0  tx_phe_ll_sincos.o ABSOLUTE
    ..\..\..\..\Libraries\Driver\source\LL\tx_phe_ll_spi.c 0x00000000   Number         0  tx_phe_ll_spi.o ABSOLUTE
    ..\..\..\..\Libraries\Driver\source\LL\tx_phe_ll_spwm.c 0x00000000   Number         0  tx_phe_ll_spwm.o ABSOLUTE
    ..\..\..\..\Libraries\Driver\source\LL\tx_phe_ll_svpwm.c 0x00000000   Number         0  tx_phe_ll_svpwm.o ABSOLUTE
    ..\..\..\..\Libraries\Driver\source\LL\tx_phe_ll_timer.c 0x00000000   Number         0  tx_phe_ll_timer.o ABSOLUTE
    ..\..\..\..\Libraries\Driver\source\LL\tx_phe_ll_usart.c 0x00000000   Number         0  tx_phe_ll_usart.o ABSOLUTE
    ..\..\..\..\Libraries\Driver\source\LL\tx_phe_ll_wdt.c 0x00000000   Number         0  tx_phe_ll_wdt.o ABSOLUTE
    ..\..\..\..\Libraries\Protocol\Modbus\Trans_mode\mbascii.c 0x00000000   Number         0  mbascii.o ABSOLUTE
    ..\..\..\..\Libraries\Protocol\Modbus\Trans_mode\mbcrc.c 0x00000000   Number         0  mbcrc.o ABSOLUTE
    ..\..\..\..\Libraries\Protocol\Modbus\Trans_mode\mbrtu.c 0x00000000   Number         0  mbrtu.o ABSOLUTE
    ..\..\..\..\Libraries\Protocol\Modbus\Trans_mode\mbtcp.c 0x00000000   Number         0  mbtcp.o ABSOLUTE
    ..\..\..\..\Libraries\Protocol\Modbus\functions\mbfunccoils.c 0x00000000   Number         0  mbfunccoils.o ABSOLUTE
    ..\..\..\..\Libraries\Protocol\Modbus\functions\mbfuncdiag.c 0x00000000   Number         0  mbfuncdiag.o ABSOLUTE
    ..\..\..\..\Libraries\Protocol\Modbus\functions\mbfuncdisc.c 0x00000000   Number         0  mbfuncdisc.o ABSOLUTE
    ..\..\..\..\Libraries\Protocol\Modbus\functions\mbfuncholding.c 0x00000000   Number         0  mbfuncholding.o ABSOLUTE
    ..\..\..\..\Libraries\Protocol\Modbus\functions\mbfuncinput.c 0x00000000   Number         0  mbfuncinput.o ABSOLUTE
    ..\..\..\..\Libraries\Protocol\Modbus\functions\mbfuncother.c 0x00000000   Number         0  mbfuncother.o ABSOLUTE
    ..\..\..\..\Libraries\Protocol\Modbus\functions\mbutils.c 0x00000000   Number         0  mbutils.o ABSOLUTE
    ..\..\..\..\Libraries\Protocol\Modbus\mb.c 0x00000000   Number         0  mb.o ABSOLUTE
    ..\..\..\..\Libraries\Protocol\Modbus\port\mbportevent.c 0x00000000   Number         0  mbportevent.o ABSOLUTE
    ..\..\..\..\Libraries\Protocol\net\phy\phy.c 0x00000000   Number         0  phy.o ABSOLUTE
    ..\..\..\..\Libraries\Protocol\net\phy\phy_device.c 0x00000000   Number         0  phy_device.o ABSOLUTE
    ..\..\..\..\User\LL\eflash.c             0x00000000   Number         0  eflash.o ABSOLUTE
    ..\..\..\..\User\LL\main.c               0x00000000   Number         0  main.o ABSOLUTE
    ..\..\..\..\User\LL\modules_init.c       0x00000000   Number         0  modules_init.o ABSOLUTE
    ..\..\..\..\User\LL\proto.c              0x00000000   Number         0  proto.o ABSOLUTE
    ..\..\..\..\User\LL\save_printf.c        0x00000000   Number         0  save_printf.o ABSOLUTE
    ..\..\..\..\User\LL\serial.c             0x00000000   Number         0  serial.o ABSOLUTE
    ..\..\..\..\User\LL\slave.c              0x00000000   Number         0  slave.o ABSOLUTE
    ..\..\..\..\User\LL\tx_phe_irq.c         0x00000000   Number         0  tx_phe_irq.o ABSOLUTE
    ..\..\..\..\User\LL\user.c               0x00000000   Number         0  user.o ABSOLUTE
    ..\..\..\..\User\LL\utimer.c             0x00000000   Number         0  utimer.o ABSOLUTE
    ..\\..\\..\\..\\Libraries\\Device\\Phoenix\\source\\startup\\arm\\tx_phe_startup.c 0x00000000   Number         0  tx_phe_startup.o ABSOLUTE
    ..\\..\\..\\..\\Libraries\\Device\\Phoenix\\source\\tx_phe_assert.c 0x00000000   Number         0  tx_phe_assert.o ABSOLUTE
    ..\\..\\..\\..\\Libraries\\Device\\Phoenix\\source\\tx_phe_debug.c 0x00000000   Number         0  tx_phe_debug.o ABSOLUTE
    ..\\..\\..\\..\\Libraries\\Device\\Phoenix\\source\\tx_phe_misc.c 0x00000000   Number         0  tx_phe_misc.o ABSOLUTE
    ..\\..\\..\\..\\Libraries\\Device\\Phoenix\\source\\tx_phe_system.c 0x00000000   Number         0  tx_phe_system.o ABSOLUTE
    ..\\..\\..\\..\\Libraries\\Device\\Phoenix\\source\\txf5200.c 0x00000000   Number         0  txf5200.o ABSOLUTE
    ..\\..\\..\\..\\Libraries\\Device\\Phoenix\\source\\txf6200.c 0x00000000   Number         0  txf6200.o ABSOLUTE
    ..\\..\\..\\..\\Libraries\\Driver\\source\\LL\\tx_phe_ll_arctan.c 0x00000000   Number         0  tx_phe_ll_arctan.o ABSOLUTE
    ..\\..\\..\\..\\Libraries\\Driver\\source\\LL\\tx_phe_ll_can.c 0x00000000   Number         0  tx_phe_ll_can.o ABSOLUTE
    ..\\..\\..\\..\\Libraries\\Driver\\source\\LL\\tx_phe_ll_cc_rst.c 0x00000000   Number         0  tx_phe_ll_cc_rst.o ABSOLUTE
    ..\\..\\..\\..\\Libraries\\Driver\\source\\LL\\tx_phe_ll_crc.c 0x00000000   Number         0  tx_phe_ll_crc.o ABSOLUTE
    ..\\..\\..\\..\\Libraries\\Driver\\source\\LL\\tx_phe_ll_datadma.c 0x00000000   Number         0  tx_phe_ll_datadma.o ABSOLUTE
    ..\\..\\..\\..\\Libraries\\Driver\\source\\LL\\tx_phe_ll_dftrans.c 0x00000000   Number         0  tx_phe_ll_dftrans.o ABSOLUTE
    ..\\..\\..\\..\\Libraries\\Driver\\source\\LL\\tx_phe_ll_dmac.c 0x00000000   Number         0  tx_phe_ll_dmac.o ABSOLUTE
    ..\\..\\..\\..\\Libraries\\Driver\\source\\LL\\tx_phe_ll_eflash.c 0x00000000   Number         0  tx_phe_ll_eflash.o ABSOLUTE
    ..\\..\\..\\..\\Libraries\\Driver\\source\\LL\\tx_phe_ll_epwm.c 0x00000000   Number         0  tx_phe_ll_epwm.o ABSOLUTE
    ..\\..\\..\\..\\Libraries\\Driver\\source\\LL\\tx_phe_ll_evsys.c 0x00000000   Number         0  tx_phe_ll_evsys.o ABSOLUTE
    ..\\..\\..\\..\\Libraries\\Driver\\source\\LL\\tx_phe_ll_fadc.c 0x00000000   Number         0  tx_phe_ll_fadc.o ABSOLUTE
    ..\\..\\..\\..\\Libraries\\Driver\\source\\LL\\tx_phe_ll_fft.c 0x00000000   Number         0  tx_phe_ll_fft.o ABSOLUTE
    ..\\..\\..\\..\\Libraries\\Driver\\source\\LL\\tx_phe_ll_fir.c 0x00000000   Number         0  tx_phe_ll_fir.o ABSOLUTE
    ..\\..\\..\\..\\Libraries\\Driver\\source\\LL\\tx_phe_ll_gpio.c 0x00000000   Number         0  tx_phe_ll_gpio.o ABSOLUTE
    ..\\..\\..\\..\\Libraries\\Driver\\source\\LL\\tx_phe_ll_hcc.c 0x00000000   Number         0  tx_phe_ll_hcc.o ABSOLUTE
    ..\\..\\..\\..\\Libraries\\Driver\\source\\LL\\tx_phe_ll_iic.c 0x00000000   Number         0  tx_phe_ll_iic.o ABSOLUTE
    ..\\..\\..\\..\\Libraries\\Driver\\source\\LL\\tx_phe_ll_iir.c 0x00000000   Number         0  tx_phe_ll_iir.o ABSOLUTE
    ..\\..\\..\\..\\Libraries\\Driver\\source\\LL\\tx_phe_ll_mac.c 0x00000000   Number         0  tx_phe_ll_mac.o ABSOLUTE
    ..\\..\\..\\..\\Libraries\\Driver\\source\\LL\\tx_phe_ll_matrix.c 0x00000000   Number         0  tx_phe_ll_matrix.o ABSOLUTE
    ..\\..\\..\\..\\Libraries\\Driver\\source\\LL\\tx_phe_ll_qei.c 0x00000000   Number         0  tx_phe_ll_qei.o ABSOLUTE
    ..\\..\\..\\..\\Libraries\\Driver\\source\\LL\\tx_phe_ll_rms.c 0x00000000   Number         0  tx_phe_ll_rms.o ABSOLUTE
    ..\\..\\..\\..\\Libraries\\Driver\\source\\LL\\tx_phe_ll_saradc.c 0x00000000   Number         0  tx_phe_ll_saradc.o ABSOLUTE
    ..\\..\\..\\..\\Libraries\\Driver\\source\\LL\\tx_phe_ll_sincos.c 0x00000000   Number         0  tx_phe_ll_sincos.o ABSOLUTE
    ..\\..\\..\\..\\Libraries\\Driver\\source\\LL\\tx_phe_ll_spi.c 0x00000000   Number         0  tx_phe_ll_spi.o ABSOLUTE
    ..\\..\\..\\..\\Libraries\\Driver\\source\\LL\\tx_phe_ll_spwm.c 0x00000000   Number         0  tx_phe_ll_spwm.o ABSOLUTE
    ..\\..\\..\\..\\Libraries\\Driver\\source\\LL\\tx_phe_ll_svpwm.c 0x00000000   Number         0  tx_phe_ll_svpwm.o ABSOLUTE
    ..\\..\\..\\..\\Libraries\\Driver\\source\\LL\\tx_phe_ll_timer.c 0x00000000   Number         0  tx_phe_ll_timer.o ABSOLUTE
    ..\\..\\..\\..\\Libraries\\Driver\\source\\LL\\tx_phe_ll_usart.c 0x00000000   Number         0  tx_phe_ll_usart.o ABSOLUTE
    ..\\..\\..\\..\\Libraries\\Driver\\source\\LL\\tx_phe_ll_wdt.c 0x00000000   Number         0  tx_phe_ll_wdt.o ABSOLUTE
    ..\\..\\..\\..\\Libraries\\Protocol\\Modbus\\Trans_mode\\mbascii.c 0x00000000   Number         0  mbascii.o ABSOLUTE
    ..\\..\\..\\..\\Libraries\\Protocol\\Modbus\\Trans_mode\\mbrtu.c 0x00000000   Number         0  mbrtu.o ABSOLUTE
    ..\\..\\..\\..\\Libraries\\Protocol\\Modbus\\Trans_mode\\mbtcp.c 0x00000000   Number         0  mbtcp.o ABSOLUTE
    ..\\..\\..\\..\\Libraries\\Protocol\\Modbus\\functions\\mbfunccoils.c 0x00000000   Number         0  mbfunccoils.o ABSOLUTE
    ..\\..\\..\\..\\Libraries\\Protocol\\Modbus\\functions\\mbfuncdisc.c 0x00000000   Number         0  mbfuncdisc.o ABSOLUTE
    ..\\..\\..\\..\\Libraries\\Protocol\\Modbus\\functions\\mbfuncholding.c 0x00000000   Number         0  mbfuncholding.o ABSOLUTE
    ..\\..\\..\\..\\Libraries\\Protocol\\Modbus\\functions\\mbfuncinput.c 0x00000000   Number         0  mbfuncinput.o ABSOLUTE
    ..\\..\\..\\..\\Libraries\\Protocol\\Modbus\\functions\\mbfuncother.c 0x00000000   Number         0  mbfuncother.o ABSOLUTE
    ..\\..\\..\\..\\Libraries\\Protocol\\Modbus\\functions\\mbutils.c 0x00000000   Number         0  mbutils.o ABSOLUTE
    ..\\..\\..\\..\\Libraries\\Protocol\\Modbus\\mb.c 0x00000000   Number         0  mb.o ABSOLUTE
    ..\\..\\..\\..\\Libraries\\Protocol\\Modbus\\port\\mbportevent.c 0x00000000   Number         0  mbportevent.o ABSOLUTE
    ..\\..\\..\\..\\Libraries\\Protocol\\net\\phy\\phy.c 0x00000000   Number         0  phy.o ABSOLUTE
    ..\\..\\..\\..\\Libraries\\Protocol\\net\\phy\\phy_device.c 0x00000000   Number         0  phy_device.o ABSOLUTE
    ..\\..\\..\\..\\User\\LL\\eflash.c       0x00000000   Number         0  eflash.o ABSOLUTE
    ..\\..\\..\\..\\User\\LL\\main.c         0x00000000   Number         0  main.o ABSOLUTE
    ..\\..\\..\\..\\User\\LL\\modules_init.c 0x00000000   Number         0  modules_init.o ABSOLUTE
    ..\\..\\..\\..\\User\\LL\\proto.c        0x00000000   Number         0  proto.o ABSOLUTE
    ..\\..\\..\\..\\User\\LL\\save_printf.c  0x00000000   Number         0  save_printf.o ABSOLUTE
    ..\\..\\..\\..\\User\\LL\\serial.c       0x00000000   Number         0  serial.o ABSOLUTE
    ..\\..\\..\\..\\User\\LL\\slave.c        0x00000000   Number         0  slave.o ABSOLUTE
    ..\\..\\..\\..\\User\\LL\\tx_phe_irq.c   0x00000000   Number         0  tx_phe_irq.o ABSOLUTE
    ..\\..\\..\\..\\User\\LL\\user.c         0x00000000   Number         0  user.o ABSOLUTE
    ..\\..\\..\\..\\User\\LL\\utimer.c       0x00000000   Number         0  utimer.o ABSOLUTE
    cdrcmple.s                               0x00000000   Number         0  cdrcmple.o ABSOLUTE
    dc.s                                     0x00000000   Number         0  dc.o ABSOLUTE
    handlers.s                               0x00000000   Number         0  handlers.o ABSOLUTE
    init.s                                   0x00000000   Number         0  init.o ABSOLUTE
    RESET                                    0x08000000   Section      316  tx_phe_startup.o(RESET)
    .ARM.Collect$$$$00000000                 0x0800013c   Section        0  entry.o(.ARM.Collect$$$$00000000)
    .ARM.Collect$$$$00000003                 0x0800013c   Section        4  entry4.o(.ARM.Collect$$$$00000003)
    .ARM.Collect$$$$00000004                 0x08000140   Section        4  entry5.o(.ARM.Collect$$$$00000004)
    .ARM.Collect$$$$00000008                 0x08000144   Section        0  entry7b.o(.ARM.Collect$$$$00000008)
    .ARM.Collect$$$$0000000A                 0x08000144   Section        0  entry8b.o(.ARM.Collect$$$$0000000A)
    .ARM.Collect$$$$0000000B                 0x08000144   Section        8  entry9a.o(.ARM.Collect$$$$0000000B)
    .ARM.Collect$$$$0000000E                 0x0800014c   Section        4  entry12b.o(.ARM.Collect$$$$0000000E)
    .ARM.Collect$$$$0000000F                 0x08000150   Section        0  entry10a.o(.ARM.Collect$$$$0000000F)
    .ARM.Collect$$$$00000011                 0x08000150   Section        0  entry11a.o(.ARM.Collect$$$$00000011)
    .ARM.Collect$$$$00002714                 0x08000150   Section        4  entry4.o(.ARM.Collect$$$$00002714)
    __lit__00000000                          0x08000150   Data           4  entry4.o(.ARM.Collect$$$$00002714)
    .text                                    0x08000154   Section       36  init.o(.text)
    .text                                    0x08000178   Section        0  __dczerorl2.o(.text)
    i.$Sub$$main                             0x080001ec   Section        0  tx_phe_startup.o(i.$Sub$$main)
    i.Reset_Handler                          0x080001f8   Section        0  tx_phe_startup.o(i.Reset_Handler)
    __tagsym$$used                           0x080001f9   Number         0  tx_phe_startup.o(i.Reset_Handler)
    i.__0printf$8                            0x08000200   Section        0  printf8.o(i.__0printf$8)
    i.__scatterload_copy                     0x08000220   Section       14  handlers.o(i.__scatterload_copy)
    i.__scatterload_null                     0x0800022e   Section        2  handlers.o(i.__scatterload_null)
    i.__scatterload_zeroinit                 0x08000230   Section       14  handlers.o(i.__scatterload_zeroinit)
    i._printf_core                           0x08000240   Section        0  printf8.o(i._printf_core)
    _printf_core                             0x08000241   Thumb Code   984  printf8.o(i._printf_core)
    i._printf_post_padding                   0x08000644   Section        0  printf8.o(i._printf_post_padding)
    _printf_post_padding                     0x08000645   Thumb Code    36  printf8.o(i._printf_post_padding)
    i._printf_pre_padding                    0x08000668   Section        0  printf8.o(i._printf_pre_padding)
    _printf_pre_padding                      0x08000669   Thumb Code    46  printf8.o(i._printf_pre_padding)
    SRAM_VECTOR_TAB                          0x10006000   Section      384  tx_phe_system.o(SRAM_VECTOR_TAB)
    .emb_text                                0x10006180   Section        6  tx_phe_system.o(.emb_text)
    .text                                    0x10006186   Section        0  uldiv.o(.text)
    .text                                    0x100061e8   Section        0  memcpya.o(.text)
    .text                                    0x1000620c   Section        0  memseta.o(.text)
    .text                                    0x10006230   Section        0  llshl.o(.text)
    .text                                    0x1000624e   Section        0  llushr.o(.text)
    i.ADTIM0_IRQHandler                      0x10006278   Section        0  tx_phe_irq.o(i.ADTIM0_IRQHandler)
    i.ARCTAN0_IRQHandler                     0x1000627a   Section        0  tx_phe_irq.o(i.ARCTAN0_IRQHandler)
    i.ARCTAN1_IRQHandler                     0x1000627c   Section        0  tx_phe_irq.o(i.ARCTAN1_IRQHandler)
    i.ARCTAN2_IRQHandler                     0x1000627e   Section        0  tx_phe_irq.o(i.ARCTAN2_IRQHandler)
    i.BusFault_Handler                       0x10006280   Section        0  tx_phe_irq.o(i.BusFault_Handler)
    i.CAN_IRQHandler                         0x10006288   Section        0  tx_phe_irq.o(i.CAN_IRQHandler)
    i.CRC_IRQHandler                         0x1000628a   Section        0  tx_phe_irq.o(i.CRC_IRQHandler)
    i.DATADMA_IRQHandler                     0x1000628c   Section        0  tx_phe_irq.o(i.DATADMA_IRQHandler)
    i.DFTRANS0_IRQHandler                    0x1000628e   Section        0  tx_phe_irq.o(i.DFTRANS0_IRQHandler)
    i.DFTRANS1_IRQHandler                    0x10006290   Section        0  tx_phe_irq.o(i.DFTRANS1_IRQHandler)
    i.DFTRANS2_IRQHandler                    0x10006292   Section        0  tx_phe_irq.o(i.DFTRANS2_IRQHandler)
    i.DMA0_IRQHandler                        0x10006294   Section        0  tx_phe_irq.o(i.DMA0_IRQHandler)
    i.DebugMon_Handler                       0x10006296   Section        0  tx_phe_irq.o(i.DebugMon_Handler)
    i.EPWM_IRQHandler                        0x10006298   Section        0  tx_phe_irq.o(i.EPWM_IRQHandler)
    i.EVSYS_IRQHandler                       0x1000629a   Section        0  tx_phe_irq.o(i.EVSYS_IRQHandler)
    i.FADC_IRQHandler                        0x1000629c   Section        0  tx_phe_irq.o(i.FADC_IRQHandler)
    i.FFT0_IRQHandler                        0x100062c4   Section        0  tx_phe_irq.o(i.FFT0_IRQHandler)
    i.FFT0_PREPROCESS_IRQHandler             0x100062c6   Section        0  tx_phe_irq.o(i.FFT0_PREPROCESS_IRQHandler)
    i.FFT1_IRQHandler                        0x100062c8   Section        0  tx_phe_irq.o(i.FFT1_IRQHandler)
    i.FFT1_PREPROCESS_IRQHandler             0x100062ca   Section        0  tx_phe_irq.o(i.FFT1_PREPROCESS_IRQHandler)
    i.FFT2_IRQHandler                        0x100062cc   Section        0  tx_phe_irq.o(i.FFT2_IRQHandler)
    i.FFT2_PREPROCESS_IRQHandler             0x100062ce   Section        0  tx_phe_irq.o(i.FFT2_PREPROCESS_IRQHandler)
    i.FIR0_IRQHandler                        0x100062d0   Section        0  tx_phe_irq.o(i.FIR0_IRQHandler)
    i.FIR1_IRQHandler                        0x100062d2   Section        0  tx_phe_irq.o(i.FIR1_IRQHandler)
    i.FIR2_IRQHandler                        0x100062d4   Section        0  tx_phe_irq.o(i.FIR2_IRQHandler)
    i.Frame_arry_Inverted                    0x100062d6   Section        0  proto.o(i.Frame_arry_Inverted)
    Frame_arry_Inverted                      0x100062d7   Thumb Code    68  proto.o(i.Frame_arry_Inverted)
    i.Frame_cmd_Rep                          0x1000631c   Section        0  proto.o(i.Frame_cmd_Rep)
    i.Frame_cmd_Rep2                         0x100063cc   Section        0  proto.o(i.Frame_cmd_Rep2)
    i.Frame_cmd_Rep3                         0x1000648c   Section        0  proto.o(i.Frame_cmd_Rep3)
    i.GMAC_IRQHandler                        0x10006544   Section        0  tx_phe_irq.o(i.GMAC_IRQHandler)
    i.GPIOA_IRQHandler                       0x10006546   Section        0  tx_phe_irq.o(i.GPIOA_IRQHandler)
    i.GPIOB_IRQHandler                       0x10006548   Section        0  tx_phe_irq.o(i.GPIOB_IRQHandler)
    i.GPIOC_IRQHandler                       0x1000654a   Section        0  tx_phe_irq.o(i.GPIOC_IRQHandler)
    i.GPIOD_IRQHandler                       0x1000654c   Section        0  tx_phe_irq.o(i.GPIOD_IRQHandler)
    i.HCC_IRQHandler                         0x1000654e   Section        0  tx_phe_irq.o(i.HCC_IRQHandler)
    i.HardFault_Handler                      0x10006550   Section        0  tx_phe_irq.o(i.HardFault_Handler)
    i.IIC0_IRQHandler                        0x10006558   Section        0  tx_phe_irq.o(i.IIC0_IRQHandler)
    i.IIC1_IRQHandler                        0x1000655a   Section        0  tx_phe_irq.o(i.IIC1_IRQHandler)
    i.IIR0_IRQHandler                        0x1000655c   Section        0  tx_phe_irq.o(i.IIR0_IRQHandler)
    i.IIR1_IRQHandler                        0x1000655e   Section        0  tx_phe_irq.o(i.IIR1_IRQHandler)
    i.IIR2_IRQHandler                        0x10006560   Section        0  tx_phe_irq.o(i.IIR2_IRQHandler)
    i.LVD_IRQHandler                         0x10006562   Section        0  tx_phe_irq.o(i.LVD_IRQHandler)
    i.MATRIX_MULT_IRQHandler                 0x1000656a   Section        0  tx_phe_irq.o(i.MATRIX_MULT_IRQHandler)
    i.Main_Poll                              0x1000656c   Section        0  user.o(i.Main_Poll)
    i.MemManage_Handler                      0x10006574   Section        0  tx_phe_irq.o(i.MemManage_Handler)
    i.NMI_Handler                            0x1000657c   Section        0  tx_phe_irq.o(i.NMI_Handler)
    i.NVIC_Init                              0x10006584   Section        0  tx_phe_misc.o(i.NVIC_Init)
    i.PendSV_Handler                         0x10006600   Section        0  tx_phe_irq.o(i.PendSV_Handler)
    i.QEI_IRQHandler                         0x10006602   Section        0  tx_phe_irq.o(i.QEI_IRQHandler)
    i.RMS0_IRQHandler                        0x10006604   Section        0  tx_phe_irq.o(i.RMS0_IRQHandler)
    i.RMS1_IRQHandler                        0x10006606   Section        0  tx_phe_irq.o(i.RMS1_IRQHandler)
    i.RMS2_IRQHandler                        0x10006608   Section        0  tx_phe_irq.o(i.RMS2_IRQHandler)
    i.SARADC_IRQHandler                      0x1000660a   Section        0  tx_phe_irq.o(i.SARADC_IRQHandler)
    i.SINCOS0_IRQHandler                     0x1000660c   Section        0  tx_phe_irq.o(i.SINCOS0_IRQHandler)
    i.SINCOS1_IRQHandler                     0x1000660e   Section        0  tx_phe_irq.o(i.SINCOS1_IRQHandler)
    i.SPI0_IRQHandler                        0x10006610   Section        0  tx_phe_irq.o(i.SPI0_IRQHandler)
    i.SPI1_IRQHandler                        0x10006612   Section        0  tx_phe_irq.o(i.SPI1_IRQHandler)
    i.SPWM_IRQHandler                        0x10006614   Section        0  tx_phe_irq.o(i.SPWM_IRQHandler)
    i.SVC_Handler                            0x10006616   Section        0  tx_phe_irq.o(i.SVC_Handler)
    i.SVPWM_IRQHandler                       0x10006618   Section        0  tx_phe_irq.o(i.SVPWM_IRQHandler)
    i.SysTick_Handler                        0x1000661c   Section        0  tx_phe_irq.o(i.SysTick_Handler)
    i.TIM0_IRQHandler                        0x1000662c   Section        0  tx_phe_irq.o(i.TIM0_IRQHandler)
    i.TIM1_IRQHandler                        0x100066ac   Section        0  tx_phe_irq.o(i.TIM1_IRQHandler)
    i.TIM2_IRQHandler                        0x100066ec   Section        0  tx_phe_irq.o(i.TIM2_IRQHandler)
    i.TIM3_IRQHandler                        0x1000672c   Section        0  tx_phe_irq.o(i.TIM3_IRQHandler)
    i.TIM4_IRQHandler                        0x1000676c   Section        0  tx_phe_irq.o(i.TIM4_IRQHandler)
    i.TIM5_IRQHandler                        0x100067a8   Section        0  tx_phe_irq.o(i.TIM5_IRQHandler)
    i.TIM6_IRQHandler                        0x100067e8   Section        0  tx_phe_irq.o(i.TIM6_IRQHandler)
    i.TIM7_IRQHandler                        0x10006828   Section        0  tx_phe_irq.o(i.TIM7_IRQHandler)
    i.USART0_IRQHandler                      0x10006868   Section        0  tx_phe_irq.o(i.USART0_IRQHandler)
    i.USART1_IRQHandler                      0x10006900   Section        0  tx_phe_irq.o(i.USART1_IRQHandler)
    i.USART2_IRQHandler                      0x1000695c   Section        0  tx_phe_irq.o(i.USART2_IRQHandler)
    i.Upload_server                          0x10006a0c   Section        0  proto.o(i.Upload_server)
    i.UsageFault_Handler                     0x10006d70   Section        0  tx_phe_irq.o(i.UsageFault_Handler)
    i.WAKEUP_IRQHandler                      0x10006d78   Section        0  tx_phe_irq.o(i.WAKEUP_IRQHandler)
    i.WDT_IRQHandler                         0x10006d7c   Section        0  tx_phe_irq.o(i.WDT_IRQHandler)
    i.__get_PRIMASK                          0x10006d98   Section        0  tx_phe_ll_cc_rst.o(i.__get_PRIMASK)
    __get_PRIMASK                            0x10006d99   Thumb Code     6  tx_phe_ll_cc_rst.o(i.__get_PRIMASK)
    i.__get_PRIMASK                          0x10006d9e   Section        0  tx_phe_ll_eflash.o(i.__get_PRIMASK)
    __get_PRIMASK                            0x10006d9f   Thumb Code     6  tx_phe_ll_eflash.o(i.__get_PRIMASK)
    i.constant_parameter_updata              0x10006da4   Section        0  proto.o(i.constant_parameter_updata)
    i.debug_select_interface                 0x10006dd4   Section        0  tx_phe_debug.o(i.debug_select_interface)
    i.delay_ms                               0x10006e10   Section        0  tx_phe_system.o(i.delay_ms)
    i.delay_us                               0x10006e3c   Section        0  tx_phe_system.o(i.delay_us)
    i.dump_fault_state                       0x10006e68   Section        0  tx_phe_system.o(i.dump_fault_state)
    i.eflash_erase2                          0x10007340   Section        0  eflash.o(i.eflash_erase2)
    i.eflash_read_check                      0x10007380   Section        0  eflash.o(i.eflash_read_check)
    i.eflash_read_sector                     0x100073d8   Section        0  eflash.o(i.eflash_read_sector)
    i.eflash_write2                          0x1000741c   Section        0  eflash.o(i.eflash_write2)
    i.eflash_write_sector                    0x10007468   Section        0  eflash.o(i.eflash_write_sector)
    i.fputc                                  0x100074c8   Section        0  tx_phe_debug.o(i.fputc)
    i.frame_get                              0x10007534   Section        0  proto.o(i.frame_get)
    i.km_control                             0x100075bc   Section        0  slave.o(i.km_control)
    i.ll_cc_clk_div_config                   0x100076f0   Section        0  tx_phe_ll_cc_rst.o(i.ll_cc_clk_div_config)
    i.ll_cc_rst_apb2_peripheral_clk_enable   0x1000778c   Section        0  tx_phe_ll_eflash.o(i.ll_cc_rst_apb2_peripheral_clk_enable)
    ll_cc_rst_apb2_peripheral_clk_enable     0x1000778d   Thumb Code   114  tx_phe_ll_eflash.o(i.ll_cc_rst_apb2_peripheral_clk_enable)
    i.ll_cc_rst_delay5ms_32khz               0x10007808   Section        0  tx_phe_ll_cc_rst.o(i.ll_cc_rst_delay5ms_32khz)
    i.ll_cc_sys_clk_get                      0x10007828   Section        0  tx_phe_ll_cc_rst.o(i.ll_cc_sys_clk_get)
    i.ll_cc_syspll_set                       0x10007894   Section        0  tx_phe_ll_cc_rst.o(i.ll_cc_syspll_set)
    i.ll_eflash_config                       0x10007b80   Section        0  tx_phe_ll_eflash.o(i.ll_eflash_config)
    i.ll_eflash_crc32                        0x10007c44   Section        0  tx_phe_ll_eflash.o(i.ll_eflash_crc32)
    i.ll_eflash_erase_sector                 0x10007cfc   Section        0  tx_phe_ll_eflash.o(i.ll_eflash_erase_sector)
    i.ll_eflash_init                         0x10007d80   Section        0  tx_phe_ll_eflash.o(i.ll_eflash_init)
    i.ll_eflash_main_lock                    0x10007e24   Section        0  tx_phe_ll_eflash.o(i.ll_eflash_main_lock)
    ll_eflash_main_lock                      0x10007e25   Thumb Code    12  tx_phe_ll_eflash.o(i.ll_eflash_main_lock)
    i.ll_eflash_prog_word                    0x10007e34   Section        0  tx_phe_ll_eflash.o(i.ll_eflash_prog_word)
    i.ll_eflash_wait_busy                    0x10007ebc   Section        0  eflash.o(i.ll_eflash_wait_busy)
    ll_eflash_wait_busy                      0x10007ebd   Thumb Code    14  eflash.o(i.ll_eflash_wait_busy)
    i.ll_eflash_wait_sector_erase            0x10007eca   Section        0  eflash.o(i.ll_eflash_wait_sector_erase)
    ll_eflash_wait_sector_erase              0x10007ecb   Thumb Code    14  eflash.o(i.ll_eflash_wait_sector_erase)
    i.ll_gpio_bit_reset                      0x10007ed8   Section        0  main.o(i.ll_gpio_bit_reset)
    ll_gpio_bit_reset                        0x10007ed9   Thumb Code     6  main.o(i.ll_gpio_bit_reset)
    i.ll_gpio_bit_reset                      0x10007ede   Section        0  slave.o(i.ll_gpio_bit_reset)
    ll_gpio_bit_reset                        0x10007edf   Thumb Code     6  slave.o(i.ll_gpio_bit_reset)
    i.ll_gpio_bit_set                        0x10007ee4   Section        0  main.o(i.ll_gpio_bit_set)
    ll_gpio_bit_set                          0x10007ee5   Thumb Code     6  main.o(i.ll_gpio_bit_set)
    i.ll_gpio_bit_set                        0x10007eea   Section        0  slave.o(i.ll_gpio_bit_set)
    ll_gpio_bit_set                          0x10007eeb   Thumb Code     6  slave.o(i.ll_gpio_bit_set)
    i.ll_gpio_dir                            0x10007ef0   Section        0  tx_phe_ll_gpio.o(i.ll_gpio_dir)
    i.ll_gpio_pull                           0x10007f78   Section        0  tx_phe_ll_gpio.o(i.ll_gpio_pull)
    i.ll_timer_clear_capture_interrupt_pending 0x10008030   Section        0  tx_phe_irq.o(i.ll_timer_clear_capture_interrupt_pending)
    ll_timer_clear_capture_interrupt_pending 0x10008031   Thumb Code    10  tx_phe_irq.o(i.ll_timer_clear_capture_interrupt_pending)
    i.ll_timer_clear_interrupt_pending       0x1000803a   Section        0  tx_phe_irq.o(i.ll_timer_clear_interrupt_pending)
    ll_timer_clear_interrupt_pending         0x1000803b   Thumb Code    10  tx_phe_irq.o(i.ll_timer_clear_interrupt_pending)
    i.ll_timer_config                        0x10008044   Section        0  tx_phe_ll_timer.o(i.ll_timer_config)
    i.ll_timer_init                          0x10008110   Section        0  tx_phe_ll_timer.o(i.ll_timer_init)
    i.ll_timer_io_map                        0x100081a4   Section        0  tx_phe_ll_timer.o(i.ll_timer_io_map)
    i.ll_timer_irq_config                    0x1000852c   Section        0  tx_phe_ll_timer.o(i.ll_timer_irq_config)
    i.ll_timer_start                         0x10008554   Section        0  tx_phe_ll_timer.o(i.ll_timer_start)
    i.ll_usart232_config                     0x100085f4   Section        0  tx_phe_ll_usart.o(i.ll_usart232_config)
    i.ll_usart232_io_map                     0x100086c0   Section        0  tx_phe_ll_usart.o(i.ll_usart232_io_map)
    i.ll_usart_clear_busy_detect_pending     0x100087d8   Section        0  tx_phe_irq.o(i.ll_usart_clear_busy_detect_pending)
    ll_usart_clear_busy_detect_pending       0x100087d9   Thumb Code     6  tx_phe_irq.o(i.ll_usart_clear_busy_detect_pending)
    i.ll_usart_clear_modem_status_pending    0x100087de   Section        0  tx_phe_irq.o(i.ll_usart_clear_modem_status_pending)
    ll_usart_clear_modem_status_pending      0x100087df   Thumb Code     6  tx_phe_irq.o(i.ll_usart_clear_modem_status_pending)
    i.ll_usart_clear_rx_line_status_pending  0x100087e4   Section        0  tx_phe_irq.o(i.ll_usart_clear_rx_line_status_pending)
    ll_usart_clear_rx_line_status_pending    0x100087e5   Thumb Code     6  tx_phe_irq.o(i.ll_usart_clear_rx_line_status_pending)
    i.ll_usart_init                          0x100087ec   Section        0  tx_phe_ll_usart.o(i.ll_usart_init)
    i.ll_usart_irq_config                    0x10008854   Section        0  tx_phe_ll_usart.o(i.ll_usart_irq_config)
    i.mac_addr_check                         0x1000889c   Section        0  proto.o(i.mac_addr_check)
    i.main                                   0x100088e4   Section        0  main.o(i.main)
    i.main_loop                              0x10008c00   Section        0  main.o(i.main_loop)
    i.meterdata_process                      0x100090ac   Section        0  slave.o(i.meterdata_process)
    i.meterread_process                      0x1000924c   Section        0  slave.o(i.meterread_process)
    i.param_init                             0x1000932c   Section        0  proto.o(i.param_init)
    i.param_save                             0x100095a0   Section        0  proto.o(i.param_save)
    i.protect_process                        0x100096bc   Section        0  slave.o(i.protect_process)
    i.proto_check                            0x100099c4   Section        0  proto.o(i.proto_check)
    proto_check                              0x100099c5   Thumb Code  2704  proto.o(i.proto_check)
    i.proto_run                              0x1000a464   Section        0  proto.o(i.proto_run)
    i.read_data_eflash                       0x1000a46c   Section        0  eflash.o(i.read_data_eflash)
    i.recover_fault_state                    0x1000a484   Section        0  tx_phe_system.o(i.recover_fault_state)
    i.save_data_eflash                       0x1000a48c   Section        0  eflash.o(i.save_data_eflash)
    i.serial_buf_init                        0x1000a4f4   Section        0  serial.o(i.serial_buf_init)
    i.serial_config                          0x1000a508   Section        0  serial.o(i.serial_config)
    i.serial_init                            0x1000a55c   Section        0  serial.o(i.serial_init)
    i.serial_putc                            0x1000a590   Section        0  serial.o(i.serial_putc)
    i.serial_tx_handle                       0x1000a5a0   Section        0  serial.o(i.serial_tx_handle)
    i.sum_check                              0x1000a5fc   Section        0  proto.o(i.sum_check)
    sum_check                                0x1000a5fd   Thumb Code    28  proto.o(i.sum_check)
    i.sys_eflash_config                      0x1000a618   Section        0  tx_phe_system.o(i.sys_eflash_config)
    i.sys_eflash_init                        0x1000a65c   Section        0  tx_phe_system.o(i.sys_eflash_init)
    i.sys_fault_recover_context              0x1000a670   Section        0  tx_phe_system.o(i.sys_fault_recover_context)
    i.sys_fault_save_context                 0x1000a672   Section        0  tx_phe_system.o(i.sys_fault_save_context)
    i.sys_module_init                        0x1000a674   Section        0  tx_phe_system.o(i.sys_module_init)
    i.sys_peripheral_init                    0x1000a6c0   Section        0  tx_phe_system.o(i.sys_peripheral_init)
    i.system_critical_section_enter          0x1000a718   Section        0  tx_phe_system.o(i.system_critical_section_enter)
    i.system_critical_section_exit           0x1000a740   Section        0  tx_phe_system.o(i.system_critical_section_exit)
    i.system_init                            0x1000a768   Section        0  tx_phe_system.o(i.system_init)
    i.tx_assert_address                      0x1000a7b8   Section        0  tx_phe_assert.o(i.tx_assert_address)
    i.tx_assert_false                        0x1000a978   Section        0  tx_phe_assert.o(i.tx_assert_false)
    i.usart2_config                          0x1000a9bc   Section        0  user.o(i.usart2_config)
    i.usart2_init                            0x1000aa20   Section        0  user.o(i.usart2_init)
    i.utimer_config                          0x1000aa50   Section        0  utimer.o(i.utimer_config)
    i.utimer_init                            0x1000aaa0   Section        0  utimer.o(i.utimer_init)
    i.utimer_interput_handle                 0x1000aad4   Section        0  utimer.o(i.utimer_interput_handle)
    i.utimer_start                           0x1000ab08   Section        0  utimer.o(i.utimer_start)
    .constdata                               0x1000ab20   Section       16  tx_phe_ll_cc_rst.o(.constdata)
    __ll_pll_center_freq                     0x1000ab20   Data          16  tx_phe_ll_cc_rst.o(.constdata)
    .constdata                               0x1000ab30   Section      228  tx_phe_assert.o(.constdata)
    sram_addr_const                          0x1000ab30   Data         228  tx_phe_assert.o(.constdata)
    .data                                    0x20000000   Section      165  main.o(.data)
    .data                                    0x200000a6   Section        9  user.o(.data)
    .data                                    0x200000af   Section        5  serial.o(.data)
    .data                                    0x200000b4   Section       24  eflash.o(.data)
    .data                                    0x200000cc   Section        5  slave.o(.data)
    .data                                    0x200000d4   Section       20  tx_phe_debug.o(.data)
    __debug_interface                        0x200000e0   Data           1  tx_phe_debug.o(.data)
    __p_debug_usart                          0x200000e4   Data           4  tx_phe_debug.o(.data)
    .data                                    0x200000e8   Section       24  tx_phe_system.o(.data)
    sys_ie_enable_counter                    0x200000ec   Data           4  tx_phe_system.o(.data)
    sys_critical_ie_disabled                 0x200000f0   Data           1  tx_phe_system.o(.data)
    sys_param_address                        0x200000f4   Data           4  tx_phe_system.o(.data)
    firmware_update_addr                     0x200000f8   Data           4  tx_phe_system.o(.data)
    firmware_update_sectors                  0x200000fc   Data           4  tx_phe_system.o(.data)
    .bss                                     0x20000100   Section     3572  main.o(.bss)
    .bss                                     0x20000ef4   Section      500  user.o(.bss)
    .bss                                     0x200010e8   Section     1382  serial.o(.bss)
    .bss                                     0x2000164e   Section       12  utimer.o(.bss)
    .bss                                     0x2000165a   Section      364  proto.o(.bss)
    .ARM.__AT_0x20005000                     0x20005000   Section     4096  save_printf.o(.ARM.__AT_0x20005000)
    watch_buf                                0x20005000   Data        4096  save_printf.o(.ARM.__AT_0x20005000)
    .ARM.__AT_0x40000000                     0x40000000   Section      224  txf5200.o(.ARM.__AT_0x40000000)
    __tagsym$$used                           0x40000000   Number         0  txf5200.o(.ARM.__AT_0x40000000)
    .ARM.__AT_0x40001000                     0x40001000   Section      224  txf5200.o(.ARM.__AT_0x40001000)
    __tagsym$$used                           0x40001000   Number         0  txf5200.o(.ARM.__AT_0x40001000)
    .ARM.__AT_0x40003000                     0x40003000   Section      208  txf5200.o(.ARM.__AT_0x40003000)
    __tagsym$$used                           0x40003000   Number         0  txf5200.o(.ARM.__AT_0x40003000)
    .ARM.__AT_0x40004000                     0x40004000   Section      208  txf5200.o(.ARM.__AT_0x40004000)
    __tagsym$$used                           0x40004000   Number         0  txf5200.o(.ARM.__AT_0x40004000)
    .ARM.__AT_0x40005000                     0x40005000   Section      208  txf5200.o(.ARM.__AT_0x40005000)
    __tagsym$$used                           0x40005000   Number         0  txf5200.o(.ARM.__AT_0x40005000)
    .ARM.__AT_0x40006000                     0x40006000   Section       44  txf5200.o(.ARM.__AT_0x40006000)
    __tagsym$$used                           0x40006000   Number         0  txf5200.o(.ARM.__AT_0x40006000)
    .ARM.__AT_0x40007000                     0x40007000   Section       44  txf5200.o(.ARM.__AT_0x40007000)
    __tagsym$$used                           0x40007000   Number         0  txf5200.o(.ARM.__AT_0x40007000)
    .ARM.__AT_0x40009000                     0x40009000   Section        4  txf5200.o(.ARM.__AT_0x40009000)
    __tagsym$$used                           0x40009000   Number         0  txf5200.o(.ARM.__AT_0x40009000)
    .ARM.__AT_0x4000A000                     0x4000a000   Section      104  txf5200.o(.ARM.__AT_0x4000A000)
    __tagsym$$used                           0x4000a000   Number         0  txf5200.o(.ARM.__AT_0x4000A000)
    .ARM.__AT_0x4000D000                     0x4000d000   Section       16  txf5200.o(.ARM.__AT_0x4000D000)
    __tagsym$$used                           0x4000d000   Number         0  txf5200.o(.ARM.__AT_0x4000D000)
    .ARM.__AT_0x4000D010                     0x4000d010   Section       16  txf5200.o(.ARM.__AT_0x4000D010)
    __tagsym$$used                           0x4000d010   Number         0  txf5200.o(.ARM.__AT_0x4000D010)
    .ARM.__AT_0x4000D020                     0x4000d020   Section       16  txf5200.o(.ARM.__AT_0x4000D020)
    __tagsym$$used                           0x4000d020   Number         0  txf5200.o(.ARM.__AT_0x4000D020)
    .ARM.__AT_0x4000D030                     0x4000d030   Section       16  txf5200.o(.ARM.__AT_0x4000D030)
    __tagsym$$used                           0x4000d030   Number         0  txf5200.o(.ARM.__AT_0x4000D030)
    .ARM.__AT_0x40012000                     0x40012000   Section       60  txf5200.o(.ARM.__AT_0x40012000)
    __tagsym$$used                           0x40012000   Number         0  txf5200.o(.ARM.__AT_0x40012000)
    .ARM.__AT_0x40013000                     0x40013000   Section      256  txf5200.o(.ARM.__AT_0x40013000)
    __tagsym$$used                           0x40013000   Number         0  txf5200.o(.ARM.__AT_0x40013000)
    .ARM.__AT_0x40014000                     0x40014000   Section        8  txf5200.o(.ARM.__AT_0x40014000)
    __tagsym$$used                           0x40014000   Number         0  txf5200.o(.ARM.__AT_0x40014000)
    .ARM.__AT_0x40015000                     0x40015000   Section       16  txf5200.o(.ARM.__AT_0x40015000)
    __tagsym$$used                           0x40015000   Number         0  txf5200.o(.ARM.__AT_0x40015000)
    .ARM.__AT_0x40015010                     0x40015010   Section       16  txf5200.o(.ARM.__AT_0x40015010)
    __tagsym$$used                           0x40015010   Number         0  txf5200.o(.ARM.__AT_0x40015010)
    .ARM.__AT_0x40015020                     0x40015020   Section       16  txf5200.o(.ARM.__AT_0x40015020)
    __tagsym$$used                           0x40015020   Number         0  txf5200.o(.ARM.__AT_0x40015020)
    .ARM.__AT_0x40015030                     0x40015030   Section       16  txf5200.o(.ARM.__AT_0x40015030)
    __tagsym$$used                           0x40015030   Number         0  txf5200.o(.ARM.__AT_0x40015030)
    .ARM.__AT_0x40017000                     0x40017000   Section       40  txf5200.o(.ARM.__AT_0x40017000)
    __tagsym$$used                           0x40017000   Number         0  txf5200.o(.ARM.__AT_0x40017000)
    .ARM.__AT_0x4001C000                     0x4001c000   Section       16  txf5200.o(.ARM.__AT_0x4001C000)
    __tagsym$$used                           0x4001c000   Number         0  txf5200.o(.ARM.__AT_0x4001C000)
    .ARM.__AT_0x4001D000                     0x4001d000   Section       16  txf5200.o(.ARM.__AT_0x4001D000)
    __tagsym$$used                           0x4001d000   Number         0  txf5200.o(.ARM.__AT_0x4001D000)
    .ARM.__AT_0x40020000                     0x40020000   Section      952  txf5200.o(.ARM.__AT_0x40020000)
    __tagsym$$used                           0x40020000   Number         0  txf5200.o(.ARM.__AT_0x40020000)
    .ARM.__AT_0x40021000                     0x40021000   Section       96  txf5200.o(.ARM.__AT_0x40021000)
    __tagsym$$used                           0x40021000   Number         0  txf5200.o(.ARM.__AT_0x40021000)
    .ARM.__AT_0x40022000                     0x40022000   Section       60  txf5200.o(.ARM.__AT_0x40022000)
    __tagsym$$used                           0x40022000   Number         0  txf5200.o(.ARM.__AT_0x40022000)
    .ARM.__AT_0x40024000                     0x40024000   Section       60  txf5200.o(.ARM.__AT_0x40024000)
    __tagsym$$used                           0x40024000   Number         0  txf5200.o(.ARM.__AT_0x40024000)
    .ARM.__AT_0x40025000                     0x40025000   Section       60  txf5200.o(.ARM.__AT_0x40025000)
    __tagsym$$used                           0x40025000   Number         0  txf5200.o(.ARM.__AT_0x40025000)
    .ARM.__AT_0x40026000                     0x40026000   Section      132  txf5200.o(.ARM.__AT_0x40026000)
    __tagsym$$used                           0x40026000   Number         0  txf5200.o(.ARM.__AT_0x40026000)
    .ARM.__AT_0x40027000                     0x40027000   Section       60  txf5200.o(.ARM.__AT_0x40027000)
    __tagsym$$used                           0x40027000   Number         0  txf5200.o(.ARM.__AT_0x40027000)
    .ARM.__AT_0x40029000                     0x40029000   Section      176  txf5200.o(.ARM.__AT_0x40029000)
    __tagsym$$used                           0x40029000   Number         0  txf5200.o(.ARM.__AT_0x40029000)
    .ARM.__AT_0x40030000                     0x40030000   Section       20  txf5200.o(.ARM.__AT_0x40030000)
    __tagsym$$used                           0x40030000   Number         0  txf5200.o(.ARM.__AT_0x40030000)
    .ARM.__AT_0x40031000                     0x40031000   Section      124  txf5200.o(.ARM.__AT_0x40031000)
    __tagsym$$used                           0x40031000   Number         0  txf5200.o(.ARM.__AT_0x40031000)
    .ARM.__AT_0x40032000                     0x40032000   Section      224  txf5200.o(.ARM.__AT_0x40032000)
    __tagsym$$used                           0x40032000   Number         0  txf5200.o(.ARM.__AT_0x40032000)
    .ARM.__AT_0x40033000                     0x40033000   Section       52  txf5200.o(.ARM.__AT_0x40033000)
    __tagsym$$used                           0x40033000   Number         0  txf5200.o(.ARM.__AT_0x40033000)
    .ARM.__AT_0x40035000                     0x40035000   Section       64  txf5200.o(.ARM.__AT_0x40035000)
    __tagsym$$used                           0x40035000   Number         0  txf5200.o(.ARM.__AT_0x40035000)
    .ARM.__AT_0x40035040                     0x40035040   Section       64  txf5200.o(.ARM.__AT_0x40035040)
    __tagsym$$used                           0x40035040   Number         0  txf5200.o(.ARM.__AT_0x40035040)
    .ARM.__AT_0x40035080                     0x40035080   Section       64  txf5200.o(.ARM.__AT_0x40035080)
    __tagsym$$used                           0x40035080   Number         0  txf5200.o(.ARM.__AT_0x40035080)
    .ARM.__AT_0x400350C0                     0x400350c0   Section       64  txf5200.o(.ARM.__AT_0x400350C0)
    __tagsym$$used                           0x400350c0   Number         0  txf5200.o(.ARM.__AT_0x400350C0)
    .ARM.__AT_0x40035100                     0x40035100   Section       64  txf5200.o(.ARM.__AT_0x40035100)
    __tagsym$$used                           0x40035100   Number         0  txf5200.o(.ARM.__AT_0x40035100)
    .ARM.__AT_0x40035140                     0x40035140   Section      320  txf5200.o(.ARM.__AT_0x40035140)
    __tagsym$$used                           0x40035140   Number         0  txf5200.o(.ARM.__AT_0x40035140)
    .ARM.__AT_0x40035280                     0x40035280   Section       64  txf5200.o(.ARM.__AT_0x40035280)
    __tagsym$$used                           0x40035280   Number         0  txf5200.o(.ARM.__AT_0x40035280)
    .ARM.__AT_0x400352C0                     0x400352c0   Section       64  txf5200.o(.ARM.__AT_0x400352C0)
    __tagsym$$used                           0x400352c0   Number         0  txf5200.o(.ARM.__AT_0x400352C0)
    .ARM.__AT_0x40035300                     0x40035300   Section       64  txf5200.o(.ARM.__AT_0x40035300)
    __tagsym$$used                           0x40035300   Number         0  txf5200.o(.ARM.__AT_0x40035300)
    .ARM.__AT_0x40035340                     0x40035340   Section       64  txf5200.o(.ARM.__AT_0x40035340)
    __tagsym$$used                           0x40035340   Number         0  txf5200.o(.ARM.__AT_0x40035340)
    .ARM.__AT_0x40035380                     0x40035380   Section       64  txf5200.o(.ARM.__AT_0x40035380)
    __tagsym$$used                           0x40035380   Number         0  txf5200.o(.ARM.__AT_0x40035380)
    .ARM.__AT_0x400353C0                     0x400353c0   Section       64  txf5200.o(.ARM.__AT_0x400353C0)
    __tagsym$$used                           0x400353c0   Number         0  txf5200.o(.ARM.__AT_0x400353C0)
    .ARM.__AT_0x40035400                     0x40035400   Section       64  txf5200.o(.ARM.__AT_0x40035400)
    __tagsym$$used                           0x40035400   Number         0  txf5200.o(.ARM.__AT_0x40035400)
    .ARM.__AT_0x40035440                     0x40035440   Section       64  txf5200.o(.ARM.__AT_0x40035440)
    __tagsym$$used                           0x40035440   Number         0  txf5200.o(.ARM.__AT_0x40035440)
    .ARM.__AT_0x40035480                     0x40035480   Section       64  txf5200.o(.ARM.__AT_0x40035480)
    __tagsym$$used                           0x40035480   Number         0  txf5200.o(.ARM.__AT_0x40035480)
    .ARM.__AT_0x400354C0                     0x400354c0   Section       64  txf5200.o(.ARM.__AT_0x400354C0)
    __tagsym$$used                           0x400354c0   Number         0  txf5200.o(.ARM.__AT_0x400354C0)
    .ARM.__AT_0x40035500                     0x40035500   Section       64  txf5200.o(.ARM.__AT_0x40035500)
    __tagsym$$used                           0x40035500   Number         0  txf5200.o(.ARM.__AT_0x40035500)
    .ARM.__AT_0x40036000                     0x40036000   Section      612  txf5200.o(.ARM.__AT_0x40036000)
    __tagsym$$used                           0x40036000   Number         0  txf5200.o(.ARM.__AT_0x40036000)
    .ARM.__AT_0x40036300                     0x40036300   Section       96  txf5200.o(.ARM.__AT_0x40036300)
    __tagsym$$used                           0x40036300   Number         0  txf5200.o(.ARM.__AT_0x40036300)
    .ARM.__AT_0x40036360                     0x40036360   Section       96  txf5200.o(.ARM.__AT_0x40036360)
    __tagsym$$used                           0x40036360   Number         0  txf5200.o(.ARM.__AT_0x40036360)
    .ARM.__AT_0x400363C0                     0x400363c0   Section       96  txf5200.o(.ARM.__AT_0x400363C0)
    __tagsym$$used                           0x400363c0   Number         0  txf5200.o(.ARM.__AT_0x400363C0)
    .ARM.__AT_0x40036420                     0x40036420   Section       48  txf5200.o(.ARM.__AT_0x40036420)
    __tagsym$$used                           0x40036420   Number         0  txf5200.o(.ARM.__AT_0x40036420)
    .ARM.__AT_0x40036450                     0x40036450   Section       48  txf5200.o(.ARM.__AT_0x40036450)
    __tagsym$$used                           0x40036450   Number         0  txf5200.o(.ARM.__AT_0x40036450)
    .ARM.__AT_0x40036480                     0x40036480   Section       48  txf5200.o(.ARM.__AT_0x40036480)
    __tagsym$$used                           0x40036480   Number         0  txf5200.o(.ARM.__AT_0x40036480)
    .ARM.__AT_0x40037000                     0x40037000   Section      320  txf5200.o(.ARM.__AT_0x40037000)
    __tagsym$$used                           0x40037000   Number         0  txf5200.o(.ARM.__AT_0x40037000)
    .ARM.__AT_0x40038000                     0x40038000   Section      600  txf5200.o(.ARM.__AT_0x40038000)
    __tagsym$$used                           0x40038000   Number         0  txf5200.o(.ARM.__AT_0x40038000)

    Global Symbols

    Symbol Name                              Value     Ov Type        Size  Object(Section)

    BuildAttributes$$THM_ISAv4$P$D$K$B$S$PE$A:L22UL41UL21$X:L11$S22US41US21$IEEE1$IW$USESV6$~STKCKD$USESV7$~SHL$OTIME$ROPI$EBA8$MICROLIB$REQ8$PRES8$EABIv2 0x00000000   Number         0  anon$$obj.o ABSOLUTE
    __ARM_use_no_argv                        0x00000000   Number         0  main.o ABSOLUTE
    __use_no_errno                           0x00000000   Number         0  useno.o ABSOLUTE
    __use_no_exception_handling              0x00000000   Number         0  useno.o ABSOLUTE
    __use_no_fp                              0x00000000   Number         0  useno.o ABSOLUTE
    __use_no_heap                            0x00000000   Number         0  useno.o ABSOLUTE
    __use_no_heap_region                     0x00000000   Number         0  useno.o ABSOLUTE
    __use_no_semihosting                     0x00000000   Number         0  useno.o ABSOLUTE
    __use_no_semihosting_swi                 0x00000000   Number         0  useno.o ABSOLUTE
    __use_no_signal_handling                 0x00000000   Number         0  useno.o ABSOLUTE
    _printf_a                                0x00000000   Number         0  stubs.o ABSOLUTE
    _printf_c                                0x00000000   Number         0  stubs.o ABSOLUTE
    _printf_charcount                        0x00000000   Number         0  stubs.o ABSOLUTE
    _printf_d                                0x00000000   Number         0  stubs.o ABSOLUTE
    _printf_e                                0x00000000   Number         0  stubs.o ABSOLUTE
    _printf_f                                0x00000000   Number         0  stubs.o ABSOLUTE
    _printf_flags                            0x00000000   Number         0  stubs.o ABSOLUTE
    _printf_fp_dec                           0x00000000   Number         0  stubs.o ABSOLUTE
    _printf_fp_hex                           0x00000000   Number         0  stubs.o ABSOLUTE
    _printf_g                                0x00000000   Number         0  stubs.o ABSOLUTE
    _printf_i                                0x00000000   Number         0  stubs.o ABSOLUTE
    _printf_int_dec                          0x00000000   Number         0  stubs.o ABSOLUTE
    _printf_l                                0x00000000   Number         0  stubs.o ABSOLUTE
    _printf_lc                               0x00000000   Number         0  stubs.o ABSOLUTE
    _printf_ll                               0x00000000   Number         0  stubs.o ABSOLUTE
    _printf_lld                              0x00000000   Number         0  stubs.o ABSOLUTE
    _printf_lli                              0x00000000   Number         0  stubs.o ABSOLUTE
    _printf_llo                              0x00000000   Number         0  stubs.o ABSOLUTE
    _printf_llu                              0x00000000   Number         0  stubs.o ABSOLUTE
    _printf_llx                              0x00000000   Number         0  stubs.o ABSOLUTE
    _printf_longlong_dec                     0x00000000   Number         0  stubs.o ABSOLUTE
    _printf_longlong_hex                     0x00000000   Number         0  stubs.o ABSOLUTE
    _printf_longlong_oct                     0x00000000   Number         0  stubs.o ABSOLUTE
    _printf_ls                               0x00000000   Number         0  stubs.o ABSOLUTE
    _printf_mbtowc                           0x00000000   Number         0  stubs.o ABSOLUTE
    _printf_n                                0x00000000   Number         0  stubs.o ABSOLUTE
    _printf_o                                0x00000000   Number         0  stubs.o ABSOLUTE
    _printf_p                                0x00000000   Number         0  stubs.o ABSOLUTE
    _printf_percent                          0x00000000   Number         0  stubs.o ABSOLUTE
    _printf_pre_padding                      0x00000000   Number         0  stubs.o ABSOLUTE
    _printf_return_value                     0x00000000   Number         0  stubs.o ABSOLUTE
    _printf_s                                0x00000000   Number         0  stubs.o ABSOLUTE
    _printf_sizespec                         0x00000000   Number         0  stubs.o ABSOLUTE
    _printf_str                              0x00000000   Number         0  stubs.o ABSOLUTE
    _printf_truncate_signed                  0x00000000   Number         0  stubs.o ABSOLUTE
    _printf_truncate_unsigned                0x00000000   Number         0  stubs.o ABSOLUTE
    _printf_u                                0x00000000   Number         0  stubs.o ABSOLUTE
    _printf_wc                               0x00000000   Number         0  stubs.o ABSOLUTE
    _printf_wctomb                           0x00000000   Number         0  stubs.o ABSOLUTE
    _printf_widthprec                        0x00000000   Number         0  stubs.o ABSOLUTE
    _printf_x                                0x00000000   Number         0  stubs.o ABSOLUTE
    __arm_fini_                               - Undefined Weak Reference
    __cpp_initialize__aeabi_                  - Undefined Weak Reference
    __cxa_finalize                            - Undefined Weak Reference
    _clock_init                               - Undefined Weak Reference
    _microlib_exit                            - Undefined Weak Reference
    __vector_handlers                        0x08000000   Data         316  tx_phe_startup.o(RESET)
    __main                                   0x0800013d   Thumb Code     0  entry.o(.ARM.Collect$$$$00000000)
    _main_stk                                0x0800013d   Thumb Code     0  entry4.o(.ARM.Collect$$$$00000003)
    _main_scatterload                        0x08000141   Thumb Code     0  entry5.o(.ARM.Collect$$$$00000004)
    __main_after_scatterload                 0x08000145   Thumb Code     0  entry5.o(.ARM.Collect$$$$00000004)
    _main_clock                              0x08000145   Thumb Code     0  entry7b.o(.ARM.Collect$$$$00000008)
    _main_cpp_init                           0x08000145   Thumb Code     0  entry8b.o(.ARM.Collect$$$$0000000A)
    _main_init                               0x08000145   Thumb Code     0  entry9a.o(.ARM.Collect$$$$0000000B)
    __rt_lib_shutdown_fini                   0x0800014d   Thumb Code     0  entry12b.o(.ARM.Collect$$$$0000000E)
    __rt_final_cpp                           0x08000151   Thumb Code     0  entry10a.o(.ARM.Collect$$$$0000000F)
    __rt_final_exit                          0x08000151   Thumb Code     0  entry11a.o(.ARM.Collect$$$$00000011)
    __scatterload                            0x08000155   Thumb Code    28  init.o(.text)
    __scatterload_rt2                        0x08000155   Thumb Code     0  init.o(.text)
    __decompress                             0x08000179   Thumb Code     0  __dczerorl2.o(.text)
    __decompress1                            0x08000179   Thumb Code    86  __dczerorl2.o(.text)
    Long Thumb to Thumb Veneer to system_init 0x080001cf   Thumb Code    10  anon$$obj.o(Veneer$$Code)
    Long Thumb to Thumb Veneer to $Super$$main 0x080001d9   Thumb Code    10  anon$$obj.o(Veneer$$Code)
    Long Thumb to Thumb Veneer to __aeabi_uldivmod 0x080001e3   Thumb Code    10  anon$$obj.o(Veneer$$Code)
    main                                     0x080001ed   Thumb Code    12  tx_phe_startup.o(i.$Sub$$main)
    Reset_Handler                            0x080001f9   Thumb Code     8  tx_phe_startup.o(i.Reset_Handler)
    __0printf$8                              0x08000201   Thumb Code    22  printf8.o(i.__0printf$8)
    __1printf$8                              0x08000201   Thumb Code     0  printf8.o(i.__0printf$8)
    __2printf                                0x08000201   Thumb Code     0  printf8.o(i.__0printf$8)
    __scatterload_copy                       0x08000221   Thumb Code    14  handlers.o(i.__scatterload_copy)
    __scatterload_null                       0x0800022f   Thumb Code     2  handlers.o(i.__scatterload_null)
    __scatterload_zeroinit                   0x08000231   Thumb Code    14  handlers.o(i.__scatterload_zeroinit)
    Region$$Table$$Base                      0x08000698   Number         0  anon$$obj.o(Region$$Table)
    Region$$Table$$Limit                     0x080006d8   Number         0  anon$$obj.o(Region$$Table)
    sram_vector_table                        0x10006000   Data         384  tx_phe_system.o(SRAM_VECTOR_TAB)
    __asm___15_tx_phe_system_c_37adac22____delay_asm 0x10006181   Thumb Code     6  tx_phe_system.o(.emb_text)
    __aeabi_uldivmod                         0x10006187   Thumb Code    98  uldiv.o(.text)
    __aeabi_memcpy                           0x100061e9   Thumb Code    36  memcpya.o(.text)
    __aeabi_memcpy4                          0x100061e9   Thumb Code     0  memcpya.o(.text)
    __aeabi_memcpy8                          0x100061e9   Thumb Code     0  memcpya.o(.text)
    __aeabi_memset                           0x1000620d   Thumb Code    14  memseta.o(.text)
    __aeabi_memset4                          0x1000620d   Thumb Code     0  memseta.o(.text)
    __aeabi_memset8                          0x1000620d   Thumb Code     0  memseta.o(.text)
    __aeabi_memclr                           0x1000621b   Thumb Code     4  memseta.o(.text)
    __aeabi_memclr4                          0x1000621b   Thumb Code     0  memseta.o(.text)
    __aeabi_memclr8                          0x1000621b   Thumb Code     0  memseta.o(.text)
    _memset$wrapper                          0x1000621f   Thumb Code    18  memseta.o(.text)
    __aeabi_llsl                             0x10006231   Thumb Code    30  llshl.o(.text)
    _ll_shift_l                              0x10006231   Thumb Code     0  llshl.o(.text)
    __aeabi_llsr                             0x1000624f   Thumb Code    32  llushr.o(.text)
    _ll_ushift_r                             0x1000624f   Thumb Code     0  llushr.o(.text)
    Long Thumb to Thumb Veneer to __2printf  0x1000626f   Thumb Code    10  anon$$obj.o(Veneer$$Code)
    ADTIM0_IRQHandler                        0x10006279   Thumb Code     2  tx_phe_irq.o(i.ADTIM0_IRQHandler)
    ARCTAN0_IRQHandler                       0x1000627b   Thumb Code     2  tx_phe_irq.o(i.ARCTAN0_IRQHandler)
    ARCTAN1_IRQHandler                       0x1000627d   Thumb Code     2  tx_phe_irq.o(i.ARCTAN1_IRQHandler)
    ARCTAN2_IRQHandler                       0x1000627f   Thumb Code     2  tx_phe_irq.o(i.ARCTAN2_IRQHandler)
    BusFault_Handler                         0x10006281   Thumb Code     8  tx_phe_irq.o(i.BusFault_Handler)
    CAN_IRQHandler                           0x10006289   Thumb Code     2  tx_phe_irq.o(i.CAN_IRQHandler)
    CRC_IRQHandler                           0x1000628b   Thumb Code     2  tx_phe_irq.o(i.CRC_IRQHandler)
    DATADMA_IRQHandler                       0x1000628d   Thumb Code     2  tx_phe_irq.o(i.DATADMA_IRQHandler)
    DFTRANS0_IRQHandler                      0x1000628f   Thumb Code     2  tx_phe_irq.o(i.DFTRANS0_IRQHandler)
    DFTRANS1_IRQHandler                      0x10006291   Thumb Code     2  tx_phe_irq.o(i.DFTRANS1_IRQHandler)
    DFTRANS2_IRQHandler                      0x10006293   Thumb Code     2  tx_phe_irq.o(i.DFTRANS2_IRQHandler)
    DMA0_IRQHandler                          0x10006295   Thumb Code     2  tx_phe_irq.o(i.DMA0_IRQHandler)
    DebugMon_Handler                         0x10006297   Thumb Code     2  tx_phe_irq.o(i.DebugMon_Handler)
    EPWM_IRQHandler                          0x10006299   Thumb Code     2  tx_phe_irq.o(i.EPWM_IRQHandler)
    EVSYS_IRQHandler                         0x1000629b   Thumb Code     2  tx_phe_irq.o(i.EVSYS_IRQHandler)
    FADC_IRQHandler                          0x1000629d   Thumb Code    36  tx_phe_irq.o(i.FADC_IRQHandler)
    FFT0_IRQHandler                          0x100062c5   Thumb Code     2  tx_phe_irq.o(i.FFT0_IRQHandler)
    FFT0_PREPROCESS_IRQHandler               0x100062c7   Thumb Code     2  tx_phe_irq.o(i.FFT0_PREPROCESS_IRQHandler)
    FFT1_IRQHandler                          0x100062c9   Thumb Code     2  tx_phe_irq.o(i.FFT1_IRQHandler)
    FFT1_PREPROCESS_IRQHandler               0x100062cb   Thumb Code     2  tx_phe_irq.o(i.FFT1_PREPROCESS_IRQHandler)
    FFT2_IRQHandler                          0x100062cd   Thumb Code     2  tx_phe_irq.o(i.FFT2_IRQHandler)
    FFT2_PREPROCESS_IRQHandler               0x100062cf   Thumb Code     2  tx_phe_irq.o(i.FFT2_PREPROCESS_IRQHandler)
    FIR0_IRQHandler                          0x100062d1   Thumb Code     2  tx_phe_irq.o(i.FIR0_IRQHandler)
    FIR1_IRQHandler                          0x100062d3   Thumb Code     2  tx_phe_irq.o(i.FIR1_IRQHandler)
    FIR2_IRQHandler                          0x100062d5   Thumb Code     2  tx_phe_irq.o(i.FIR2_IRQHandler)
    Frame_cmd_Rep                            0x1000631d   Thumb Code   156  proto.o(i.Frame_cmd_Rep)
    Frame_cmd_Rep2                           0x100063cd   Thumb Code   172  proto.o(i.Frame_cmd_Rep2)
    Frame_cmd_Rep3                           0x1000648d   Thumb Code   162  proto.o(i.Frame_cmd_Rep3)
    GMAC_IRQHandler                          0x10006545   Thumb Code     2  tx_phe_irq.o(i.GMAC_IRQHandler)
    GPIOA_IRQHandler                         0x10006547   Thumb Code     2  tx_phe_irq.o(i.GPIOA_IRQHandler)
    GPIOB_IRQHandler                         0x10006549   Thumb Code     2  tx_phe_irq.o(i.GPIOB_IRQHandler)
    GPIOC_IRQHandler                         0x1000654b   Thumb Code     2  tx_phe_irq.o(i.GPIOC_IRQHandler)
    GPIOD_IRQHandler                         0x1000654d   Thumb Code     2  tx_phe_irq.o(i.GPIOD_IRQHandler)
    HCC_IRQHandler                           0x1000654f   Thumb Code     2  tx_phe_irq.o(i.HCC_IRQHandler)
    HardFault_Handler                        0x10006551   Thumb Code     8  tx_phe_irq.o(i.HardFault_Handler)
    IIC0_IRQHandler                          0x10006559   Thumb Code     2  tx_phe_irq.o(i.IIC0_IRQHandler)
    IIC1_IRQHandler                          0x1000655b   Thumb Code     2  tx_phe_irq.o(i.IIC1_IRQHandler)
    IIR0_IRQHandler                          0x1000655d   Thumb Code     2  tx_phe_irq.o(i.IIR0_IRQHandler)
    IIR1_IRQHandler                          0x1000655f   Thumb Code     2  tx_phe_irq.o(i.IIR1_IRQHandler)
    IIR2_IRQHandler                          0x10006561   Thumb Code     2  tx_phe_irq.o(i.IIR2_IRQHandler)
    LVD_IRQHandler                           0x10006563   Thumb Code     8  tx_phe_irq.o(i.LVD_IRQHandler)
    MATRIX_MULT_IRQHandler                   0x1000656b   Thumb Code     2  tx_phe_irq.o(i.MATRIX_MULT_IRQHandler)
    Main_Poll                                0x1000656d   Thumb Code     8  user.o(i.Main_Poll)
    MemManage_Handler                        0x10006575   Thumb Code     8  tx_phe_irq.o(i.MemManage_Handler)
    NMI_Handler                              0x1000657d   Thumb Code     8  tx_phe_irq.o(i.NMI_Handler)
    NVIC_Init                                0x10006585   Thumb Code   110  tx_phe_misc.o(i.NVIC_Init)
    PendSV_Handler                           0x10006601   Thumb Code     2  tx_phe_irq.o(i.PendSV_Handler)
    QEI_IRQHandler                           0x10006603   Thumb Code     2  tx_phe_irq.o(i.QEI_IRQHandler)
    RMS0_IRQHandler                          0x10006605   Thumb Code     2  tx_phe_irq.o(i.RMS0_IRQHandler)
    RMS1_IRQHandler                          0x10006607   Thumb Code     2  tx_phe_irq.o(i.RMS1_IRQHandler)
    RMS2_IRQHandler                          0x10006609   Thumb Code     2  tx_phe_irq.o(i.RMS2_IRQHandler)
    SARADC_IRQHandler                        0x1000660b   Thumb Code     2  tx_phe_irq.o(i.SARADC_IRQHandler)
    SINCOS0_IRQHandler                       0x1000660d   Thumb Code     2  tx_phe_irq.o(i.SINCOS0_IRQHandler)
    SINCOS1_IRQHandler                       0x1000660f   Thumb Code     2  tx_phe_irq.o(i.SINCOS1_IRQHandler)
    SPI0_IRQHandler                          0x10006611   Thumb Code     2  tx_phe_irq.o(i.SPI0_IRQHandler)
    SPI1_IRQHandler                          0x10006613   Thumb Code     2  tx_phe_irq.o(i.SPI1_IRQHandler)
    SPWM_IRQHandler                          0x10006615   Thumb Code     2  tx_phe_irq.o(i.SPWM_IRQHandler)
    SVC_Handler                              0x10006617   Thumb Code     2  tx_phe_irq.o(i.SVC_Handler)
    SVPWM_IRQHandler                         0x10006619   Thumb Code     2  tx_phe_irq.o(i.SVPWM_IRQHandler)
    SysTick_Handler                          0x1000661d   Thumb Code    12  tx_phe_irq.o(i.SysTick_Handler)
    TIM0_IRQHandler                          0x1000662d   Thumb Code   116  tx_phe_irq.o(i.TIM0_IRQHandler)
    TIM1_IRQHandler                          0x100066ad   Thumb Code    60  tx_phe_irq.o(i.TIM1_IRQHandler)
    TIM2_IRQHandler                          0x100066ed   Thumb Code    60  tx_phe_irq.o(i.TIM2_IRQHandler)
    TIM3_IRQHandler                          0x1000672d   Thumb Code    60  tx_phe_irq.o(i.TIM3_IRQHandler)
    TIM4_IRQHandler                          0x1000676d   Thumb Code    56  tx_phe_irq.o(i.TIM4_IRQHandler)
    TIM5_IRQHandler                          0x100067a9   Thumb Code    60  tx_phe_irq.o(i.TIM5_IRQHandler)
    TIM6_IRQHandler                          0x100067e9   Thumb Code    60  tx_phe_irq.o(i.TIM6_IRQHandler)
    TIM7_IRQHandler                          0x10006829   Thumb Code    60  tx_phe_irq.o(i.TIM7_IRQHandler)
    USART0_IRQHandler                        0x10006869   Thumb Code   144  tx_phe_irq.o(i.USART0_IRQHandler)
    USART1_IRQHandler                        0x10006901   Thumb Code    90  tx_phe_irq.o(i.USART1_IRQHandler)
    USART2_IRQHandler                        0x1000695d   Thumb Code   164  tx_phe_irq.o(i.USART2_IRQHandler)
    Upload_server                            0x10006a0d   Thumb Code   856  proto.o(i.Upload_server)
    UsageFault_Handler                       0x10006d71   Thumb Code     8  tx_phe_irq.o(i.UsageFault_Handler)
    WAKEUP_IRQHandler                        0x10006d79   Thumb Code     2  tx_phe_irq.o(i.WAKEUP_IRQHandler)
    WDT_IRQHandler                           0x10006d7d   Thumb Code    24  tx_phe_irq.o(i.WDT_IRQHandler)
    constant_parameter_updata                0x10006da5   Thumb Code    40  proto.o(i.constant_parameter_updata)
    debug_select_interface                   0x10006dd5   Thumb Code    42  tx_phe_debug.o(i.debug_select_interface)
    delay_ms                                 0x10006e11   Thumb Code    42  tx_phe_system.o(i.delay_ms)
    delay_us                                 0x10006e3d   Thumb Code    36  tx_phe_system.o(i.delay_us)
    dump_fault_state                         0x10006e69   Thumb Code   406  tx_phe_system.o(i.dump_fault_state)
    eflash_erase2                            0x10007341   Thumb Code    58  eflash.o(i.eflash_erase2)
    eflash_read_check                        0x10007381   Thumb Code    74  eflash.o(i.eflash_read_check)
    eflash_read_sector                       0x100073d9   Thumb Code    56  eflash.o(i.eflash_read_sector)
    eflash_write2                            0x1000741d   Thumb Code    72  eflash.o(i.eflash_write2)
    eflash_write_sector                      0x10007469   Thumb Code    78  eflash.o(i.eflash_write_sector)
    fputc                                    0x100074c9   Thumb Code    94  tx_phe_debug.o(i.fputc)
    frame_get                                0x10007535   Thumb Code   134  proto.o(i.frame_get)
    km_control                               0x100075bd   Thumb Code   296  slave.o(i.km_control)
    ll_cc_clk_div_config                     0x100076f1   Thumb Code   148  tx_phe_ll_cc_rst.o(i.ll_cc_clk_div_config)
    ll_cc_rst_delay5ms_32khz                 0x10007809   Thumb Code    32  tx_phe_ll_cc_rst.o(i.ll_cc_rst_delay5ms_32khz)
    ll_cc_sys_clk_get                        0x10007829   Thumb Code    92  tx_phe_ll_cc_rst.o(i.ll_cc_sys_clk_get)
    ll_cc_syspll_set                         0x10007895   Thumb Code   720  tx_phe_ll_cc_rst.o(i.ll_cc_syspll_set)
    ll_eflash_config                         0x10007b81   Thumb Code   126  tx_phe_ll_eflash.o(i.ll_eflash_config)
    ll_eflash_crc32                          0x10007c45   Thumb Code   118  tx_phe_ll_eflash.o(i.ll_eflash_crc32)
    ll_eflash_erase_sector                   0x10007cfd   Thumb Code    68  tx_phe_ll_eflash.o(i.ll_eflash_erase_sector)
    ll_eflash_init                           0x10007d81   Thumb Code    92  tx_phe_ll_eflash.o(i.ll_eflash_init)
    ll_eflash_prog_word                      0x10007e35   Thumb Code    70  tx_phe_ll_eflash.o(i.ll_eflash_prog_word)
    ll_gpio_dir                              0x10007ef1   Thumb Code    64  tx_phe_ll_gpio.o(i.ll_gpio_dir)
    ll_gpio_pull                             0x10007f79   Thumb Code   110  tx_phe_ll_gpio.o(i.ll_gpio_pull)
    ll_timer_config                          0x10008045   Thumb Code   136  tx_phe_ll_timer.o(i.ll_timer_config)
    ll_timer_init                            0x10008111   Thumb Code    78  tx_phe_ll_timer.o(i.ll_timer_init)
    ll_timer_io_map                          0x100081a5   Thumb Code   826  tx_phe_ll_timer.o(i.ll_timer_io_map)
    ll_timer_irq_config                      0x1000852d   Thumb Code    40  tx_phe_ll_timer.o(i.ll_timer_irq_config)
    ll_timer_start                           0x10008555   Thumb Code    92  tx_phe_ll_timer.o(i.ll_timer_start)
    ll_usart232_config                       0x100085f5   Thumb Code   136  tx_phe_ll_usart.o(i.ll_usart232_config)
    ll_usart232_io_map                       0x100086c1   Thumb Code   200  tx_phe_ll_usart.o(i.ll_usart232_io_map)
    ll_usart_init                            0x100087ed   Thumb Code    36  tx_phe_ll_usart.o(i.ll_usart_init)
    ll_usart_irq_config                      0x10008855   Thumb Code    70  tx_phe_ll_usart.o(i.ll_usart_irq_config)
    mac_addr_check                           0x1000889d   Thumb Code    66  proto.o(i.mac_addr_check)
    $Super$$main                             0x100088e5   Thumb Code   774  main.o(i.main)
    main_loop                                0x10008c01   Thumb Code  1176  main.o(i.main_loop)
    meterdata_process                        0x100090ad   Thumb Code   394  slave.o(i.meterdata_process)
    meterread_process                        0x1000924d   Thumb Code   196  slave.o(i.meterread_process)
    param_init                               0x1000932d   Thumb Code   604  proto.o(i.param_init)
    param_save                               0x100095a1   Thumb Code   254  proto.o(i.param_save)
    protect_process                          0x100096bd   Thumb Code   734  slave.o(i.protect_process)
    proto_run                                0x1000a465   Thumb Code     8  proto.o(i.proto_run)
    read_data_eflash                         0x1000a46d   Thumb Code    20  eflash.o(i.read_data_eflash)
    recover_fault_state                      0x1000a485   Thumb Code     8  tx_phe_system.o(i.recover_fault_state)
    save_data_eflash                         0x1000a48d   Thumb Code    94  eflash.o(i.save_data_eflash)
    serial_buf_init                          0x1000a4f5   Thumb Code    14  serial.o(i.serial_buf_init)
    serial_config                            0x1000a509   Thumb Code    72  serial.o(i.serial_config)
    serial_init                              0x1000a55d   Thumb Code    46  serial.o(i.serial_init)
    serial_putc                              0x1000a591   Thumb Code    16  serial.o(i.serial_putc)
    serial_tx_handle                         0x1000a5a1   Thumb Code    72  serial.o(i.serial_tx_handle)
    sys_eflash_config                        0x1000a619   Thumb Code    58  tx_phe_system.o(i.sys_eflash_config)
    sys_eflash_init                          0x1000a65d   Thumb Code    16  tx_phe_system.o(i.sys_eflash_init)
    sys_fault_recover_context                0x1000a671   Thumb Code     2  tx_phe_system.o(i.sys_fault_recover_context)
    sys_fault_save_context                   0x1000a673   Thumb Code     2  tx_phe_system.o(i.sys_fault_save_context)
    sys_module_init                          0x1000a675   Thumb Code    60  tx_phe_system.o(i.sys_module_init)
    sys_peripheral_init                      0x1000a6c1   Thumb Code    80  tx_phe_system.o(i.sys_peripheral_init)
    system_critical_section_enter            0x1000a719   Thumb Code    32  tx_phe_system.o(i.system_critical_section_enter)
    system_critical_section_exit             0x1000a741   Thumb Code    32  tx_phe_system.o(i.system_critical_section_exit)
    system_init                              0x1000a769   Thumb Code    62  tx_phe_system.o(i.system_init)
    tx_assert_address                        0x1000a7b9   Thumb Code   234  tx_phe_assert.o(i.tx_assert_address)
    tx_assert_false                          0x1000a979   Thumb Code    18  tx_phe_assert.o(i.tx_assert_false)
    usart2_config                            0x1000a9bd   Thumb Code    94  user.o(i.usart2_config)
    usart2_init                              0x1000aa21   Thumb Code    44  user.o(i.usart2_init)
    utimer_config                            0x1000aa51   Thumb Code    72  utimer.o(i.utimer_config)
    utimer_init                              0x1000aaa1   Thumb Code    46  utimer.o(i.utimer_init)
    utimer_interput_handle                   0x1000aad5   Thumb Code    46  utimer.o(i.utimer_interput_handle)
    utimer_start                             0x1000ab09   Thumb Code    14  utimer.o(i.utimer_start)
    tmr_cnt0                                 0x20000000   Data           4  main.o(.data)
    sec_cnt                                  0x20000004   Data           2  main.o(.data)
    sec_cnt3                                 0x20000006   Data           2  main.o(.data)
    sec_cnt30                                0x20000008   Data           2  main.o(.data)
    sec_cnt20                                0x2000000a   Data           2  main.o(.data)
    refresh_cnt                              0x2000000c   Data           2  main.o(.data)
    sec_cnt180                               0x2000000e   Data           2  main.o(.data)
    led_sta                                  0x20000010   Data           1  main.o(.data)
    PLC_TO_SERIAL_EN                         0x20000014   Data           4  main.o(.data)
    light                                    0x20000018   Data           1  main.o(.data)
    login_ok                                 0x20000019   Data           1  main.o(.data)
    login_cnt                                0x2000001a   Data           1  main.o(.data)
    heart_cnt                                0x2000001b   Data           1  main.o(.data)
    heart_sta                                0x2000001c   Data           1  main.o(.data)
    settime_minu                             0x2000001d   Data           1  main.o(.data)
    port_chn                                 0x2000001e   Data           1  main.o(.data)
    epport_len                               0x2000001f   Data           1  main.o(.data)
    tcp_ok                                   0x20000020   Data           1  main.o(.data)
    chn_all                                  0x20000021   Data           1  main.o(.data)
    ID                                       0x20000024   Data          64  main.o(.data)
    recv_cnt                                 0x20000064   Data           2  main.o(.data)
    delay_200ms                              0x20000066   Data           2  main.o(.data)
    temp41                                   0x20000068   Data           4  main.o(.data)
    temp42                                   0x2000006c   Data           4  main.o(.data)
    temp43                                   0x20000070   Data           4  main.o(.data)
    temp44                                   0x20000074   Data           4  main.o(.data)
    temp21                                   0x20000078   Data           2  main.o(.data)
    temp22                                   0x2000007a   Data           2  main.o(.data)
    temp23                                   0x2000007c   Data           2  main.o(.data)
    temp24                                   0x2000007e   Data           2  main.o(.data)
    temp11                                   0x20000080   Data           1  main.o(.data)
    temp12                                   0x20000081   Data           1  main.o(.data)
    temp13                                   0x20000082   Data           1  main.o(.data)
    temp14                                   0x20000083   Data           1  main.o(.data)
    NodeID                                   0x20000084   Data           1  main.o(.data)
    current_tmp                              0x20000086   Data           2  main.o(.data)
    voltage_tmp                              0x20000088   Data           2  main.o(.data)
    voltage_cnt1                             0x2000008a   Data           2  main.o(.data)
    voltage_cnt2                             0x2000008c   Data           2  main.o(.data)
    voltage_cnt                              0x2000008e   Data           2  main.o(.data)
    voltage_fau1                             0x20000090   Data           2  main.o(.data)
    voltage_fau2                             0x20000092   Data           2  main.o(.data)
    uart0_busy                               0x20000094   Data           1  main.o(.data)
    uart2_busy                               0x20000095   Data           1  main.o(.data)
    power_up                                 0x20000096   Data           1  main.o(.data)
    power_up_cnt                             0x20000097   Data           1  main.o(.data)
    power_up_sent                            0x20000098   Data           1  main.o(.data)
    test_tmp1                                0x2000009a   Data           2  main.o(.data)
    test_tmp2                                0x2000009c   Data           2  main.o(.data)
    test_tmp3                                0x2000009e   Data           2  main.o(.data)
    test_tmp4                                0x200000a0   Data           2  main.o(.data)
    test_tmp5                                0x200000a2   Data           2  main.o(.data)
    ota_status                               0x200000a4   Data           1  main.o(.data)
    send_flag                                0x200000a6   Data           2  user.o(.data)
    recv_flag                                0x200000a8   Data           2  user.o(.data)
    reccnt                                   0x200000aa   Data           2  user.o(.data)
    Address                                  0x200000ac   Data           1  user.o(.data)
    wdt_cfg                                  0x200000ad   Data           2  user.o(.data)
    serial_irq_cfg                           0x200000af   Data           5  serial.o(.data)
    sector_index                             0x200000b4   Data           1  eflash.o(.data)
    i                                        0x200000b8   Data           4  eflash.o(.data)
    p_write_addr                             0x200000bc   Data           4  eflash.o(.data)
    p_read_addr                              0x200000c0   Data           4  eflash.o(.data)
    buf_write                                0x200000c4   Data           4  eflash.o(.data)
    buf_read                                 0x200000c8   Data           4  eflash.o(.data)
    meter_adr                                0x200000cc   Data           1  slave.o(.data)
    power_adr                                0x200000cd   Data           1  slave.o(.data)
    voltage_adr                              0x200000ce   Data           1  slave.o(.data)
    current_adr                              0x200000cf   Data           1  slave.o(.data)
    ep_adr                                   0x200000d0   Data           1  slave.o(.data)
    __stdout                                 0x200000d4   Data           4  tx_phe_debug.o(.data)
    __stdin                                  0x200000d8   Data           4  tx_phe_debug.o(.data)
    ITM_RxBuffer                             0x200000dc   Data           4  tx_phe_debug.o(.data)
    SysTickCnt                               0x200000e8   Data           4  tx_phe_system.o(.data)
    setup                                    0x20000100   Data          14  main.o(.bss)
    OTA                                      0x20000110   Data          36  main.o(.bss)
    port1                                    0x20000134   Data          80  main.o(.bss)
    port2                                    0x20000184   Data          80  main.o(.bss)
    port3                                    0x200001d4   Data          80  main.o(.bss)
    port4                                    0x20000224   Data          80  main.o(.bss)
    port5                                    0x20000274   Data          80  main.o(.bss)
    port6                                    0x200002c4   Data          80  main.o(.bss)
    port7                                    0x20000314   Data          80  main.o(.bss)
    port8                                    0x20000364   Data          80  main.o(.bss)
    port9                                    0x200003b4   Data          80  main.o(.bss)
    port10                                   0x20000404   Data          80  main.o(.bss)
    port11                                   0x20000454   Data          80  main.o(.bss)
    port12                                   0x200004a4   Data          80  main.o(.bss)
    port13                                   0x200004f4   Data          80  main.o(.bss)
    port14                                   0x20000544   Data          80  main.o(.bss)
    port15                                   0x20000594   Data          80  main.o(.bss)
    port16                                   0x200005e4   Data          80  main.o(.bss)
    Par                                      0x20000634   Data         500  main.o(.bss)
    Var                                      0x20000828   Data         500  main.o(.bss)
    Gar                                      0x20000a1c   Data        1200  main.o(.bss)
    constant_parameter                       0x20000ecc   Data          40  main.o(.bss)
    recvbuf                                  0x20000ef4   Data         500  user.o(.bss)
    serial_buf                               0x200010e8   Data        1372  serial.o(.bss)
    serial_cfg                               0x20001644   Data          10  serial.o(.bss)
    utimer_cfg                               0x2000164e   Data          12  utimer.o(.bss)
    control_param                            0x2000165a   Data          18  proto.o(.bss)
    buf_temp                                 0x2000166c   Data         256  proto.o(.bss)
    buf_readrn                               0x2000176c   Data          10  proto.o(.bss)
    buf_sendlcd                              0x20001776   Data          80  proto.o(.bss)
    Image$$ARM_LIB_STACK$$ZI$$Limit          0x2000e400   Number         0  anon$$obj.o ABSOLUTE
    ___IIC0__                                0x40000000   Data         224  txf5200.o(.ARM.__AT_0x40000000)
    ___IIC1__                                0x40001000   Data         224  txf5200.o(.ARM.__AT_0x40001000)
    ___USART0__                              0x40003000   Data         208  txf5200.o(.ARM.__AT_0x40003000)
    ___USART1__                              0x40004000   Data         208  txf5200.o(.ARM.__AT_0x40004000)
    ___USART2__                              0x40005000   Data         208  txf5200.o(.ARM.__AT_0x40005000)
    ___SPI0__                                0x40006000   Data          44  txf5200.o(.ARM.__AT_0x40006000)
    ___SPI1__                                0x40007000   Data          44  txf5200.o(.ARM.__AT_0x40007000)
    ___LVD__                                 0x40009000   Data           4  txf5200.o(.ARM.__AT_0x40009000)
    ___ADVTMR0__                             0x4000a000   Data         104  txf5200.o(.ARM.__AT_0x4000A000)
    ___TIMER4__                              0x4000d000   Data          16  txf5200.o(.ARM.__AT_0x4000D000)
    ___TIMER5__                              0x4000d010   Data          16  txf5200.o(.ARM.__AT_0x4000D010)
    ___TIMER6__                              0x4000d020   Data          16  txf5200.o(.ARM.__AT_0x4000D020)
    ___TIMER7__                              0x4000d030   Data          16  txf5200.o(.ARM.__AT_0x4000D030)
    ___QEI__                                 0x40012000   Data          60  txf5200.o(.ARM.__AT_0x40012000)
    ___WDT__                                 0x40013000   Data         256  txf5200.o(.ARM.__AT_0x40013000)
    ___WDT1__                                0x40014000   Data           8  txf5200.o(.ARM.__AT_0x40014000)
    ___TIMER0__                              0x40015000   Data          16  txf5200.o(.ARM.__AT_0x40015000)
    ___TIMER1__                              0x40015010   Data          16  txf5200.o(.ARM.__AT_0x40015010)
    ___TIMER2__                              0x40015020   Data          16  txf5200.o(.ARM.__AT_0x40015020)
    ___TIMER3__                              0x40015030   Data          16  txf5200.o(.ARM.__AT_0x40015030)
    ___CRC__                                 0x40017000   Data          40  txf5200.o(.ARM.__AT_0x40017000)
    ___FPLL0__                               0x4001c000   Data          16  txf5200.o(.ARM.__AT_0x4001C000)
    ___FPLL1__                               0x4001d000   Data          16  txf5200.o(.ARM.__AT_0x4001D000)
    ___DMAC__                                0x40020000   Data         952  txf5200.o(.ARM.__AT_0x40020000)
    ___GMAC__                                0x40021000   Data          96  txf5200.o(.ARM.__AT_0x40021000)
    ___GPIOA__                               0x40022000   Data          60  txf5200.o(.ARM.__AT_0x40022000)
    ___GPIOB__                               0x40024000   Data          60  txf5200.o(.ARM.__AT_0x40024000)
    ___GPIOC__                               0x40025000   Data          60  txf5200.o(.ARM.__AT_0x40025000)
    ___SYSCTRL__                             0x40026000   Data         132  txf5200.o(.ARM.__AT_0x40026000)
    ___GPIOD__                               0x40027000   Data          60  txf5200.o(.ARM.__AT_0x40027000)
    ___CAN__                                 0x40029000   Data         176  txf5200.o(.ARM.__AT_0x40029000)
    ___HCC__                                 0x40030000   Data          20  txf5200.o(.ARM.__AT_0x40030000)
    ___EFLASH__                              0x40031000   Data         124  txf5200.o(.ARM.__AT_0x40031000)
    ___EVSYS__                               0x40032000   Data         224  txf5200.o(.ARM.__AT_0x40032000)
    ___SVPWM__                               0x40033000   Data          52  txf5200.o(.ARM.__AT_0x40033000)
    ___SINCOS0__                             0x40035000   Data          64  txf5200.o(.ARM.__AT_0x40035000)
    ___SINCOS1__                             0x40035040   Data          64  txf5200.o(.ARM.__AT_0x40035040)
    ___RMS0__                                0x40035080   Data          64  txf5200.o(.ARM.__AT_0x40035080)
    ___RMS1__                                0x400350c0   Data          64  txf5200.o(.ARM.__AT_0x400350C0)
    ___RMS2__                                0x40035100   Data          64  txf5200.o(.ARM.__AT_0x40035100)
    ___MATRIX__                              0x40035140   Data         320  txf5200.o(.ARM.__AT_0x40035140)
    ___SPWM__                                0x40035280   Data          64  txf5200.o(.ARM.__AT_0x40035280)
    ___FFT0__                                0x400352c0   Data          64  txf5200.o(.ARM.__AT_0x400352C0)
    ___FFT1__                                0x40035300   Data          64  txf5200.o(.ARM.__AT_0x40035300)
    ___FFT2__                                0x40035340   Data          64  txf5200.o(.ARM.__AT_0x40035340)
    ___DFTRAN0__                             0x40035380   Data          64  txf5200.o(.ARM.__AT_0x40035380)
    ___DFTRAN1__                             0x400353c0   Data          64  txf5200.o(.ARM.__AT_0x400353C0)
    ___DFTRAN2__                             0x40035400   Data          64  txf5200.o(.ARM.__AT_0x40035400)
    ___ARCTAN0__                             0x40035440   Data          64  txf5200.o(.ARM.__AT_0x40035440)
    ___ARCTAN1__                             0x40035480   Data          64  txf5200.o(.ARM.__AT_0x40035480)
    ___ARCTAN2__                             0x400354c0   Data          64  txf5200.o(.ARM.__AT_0x400354C0)
    ___DATADMA__                             0x40035500   Data          64  txf5200.o(.ARM.__AT_0x40035500)
    ___ADC__                                 0x40036000   Data         612  txf5200.o(.ARM.__AT_0x40036000)
    ___IIR0__                                0x40036300   Data          96  txf5200.o(.ARM.__AT_0x40036300)
    ___IIR1__                                0x40036360   Data          96  txf5200.o(.ARM.__AT_0x40036360)
    ___IIR2__                                0x400363c0   Data          96  txf5200.o(.ARM.__AT_0x400363C0)
    ___FIR0__                                0x40036420   Data          48  txf5200.o(.ARM.__AT_0x40036420)
    ___FIR1__                                0x40036450   Data          48  txf5200.o(.ARM.__AT_0x40036450)
    ___FIR2__                                0x40036480   Data          48  txf5200.o(.ARM.__AT_0x40036480)
    ___FADC__                                0x40037000   Data         320  txf5200.o(.ARM.__AT_0x40037000)
    ___EPWM__                                0x40038000   Data         600  txf5200.o(.ARM.__AT_0x40038000)



==============================================================================

Memory Map of the image

  Image Entry point : 0x080001f9

  Load Region LR_EFLASH (Base: 0x08000000, Size: 0x000053ec, Max: 0x0001f000, ABSOLUTE, COMPRESSED[0x00005270])

    Execution Region ER_EFLASH (Exec base: 0x08000000, Load base: 0x08000000, Size: 0x000006d8, Max: 0x0001f000, ABSOLUTE)

    Exec Addr    Load Addr    Size         Type   Attr      Idx    E Section Name        Object

    0x08000000   0x08000000   0x0000013c   Data   RO         4397    RESET               tx_phe_startup.o
    0x0800013c   0x0800013c   0x00000000   Code   RO         4534  * .ARM.Collect$$$$00000000  mc_w.l(entry.o)
    0x0800013c   0x0800013c   0x00000004   Code   RO         4810    .ARM.Collect$$$$00000003  mc_w.l(entry4.o)
    0x08000140   0x08000140   0x00000004   Code   RO         4813    .ARM.Collect$$$$00000004  mc_w.l(entry5.o)
    0x08000144   0x08000144   0x00000000   Code   RO         4815    .ARM.Collect$$$$00000008  mc_w.l(entry7b.o)
    0x08000144   0x08000144   0x00000000   Code   RO         4817    .ARM.Collect$$$$0000000A  mc_w.l(entry8b.o)
    0x08000144   0x08000144   0x00000008   Code   RO         4818    .ARM.Collect$$$$0000000B  mc_w.l(entry9a.o)
    0x0800014c   0x0800014c   0x00000004   Code   RO         4825    .ARM.Collect$$$$0000000E  mc_w.l(entry12b.o)
    0x08000150   0x08000150   0x00000000   Code   RO         4820    .ARM.Collect$$$$0000000F  mc_w.l(entry10a.o)
    0x08000150   0x08000150   0x00000000   Code   RO         4822    .ARM.Collect$$$$00000011  mc_w.l(entry11a.o)
    0x08000150   0x08000150   0x00000004   Code   RO         4811    .ARM.Collect$$$$00002714  mc_w.l(entry4.o)
    0x08000154   0x08000154   0x00000024   Code   RO         4845    .text               mc_w.l(init.o)
    0x08000178   0x08000178   0x00000056   Code   RO         4859    .text               mc_w.l(__dczerorl2.o)
    0x080001ce   0x080001ce   0x0000000a   Ven    RO         4861    Veneer$$Code        anon$$obj.o
    0x080001d8   0x080001d8   0x0000000a   Ven    RO         4862    Veneer$$Code        anon$$obj.o
    0x080001e2   0x080001e2   0x0000000a   Ven    RO         4863    Veneer$$Code        anon$$obj.o
    0x080001ec   0x080001ec   0x0000000c   Code   RO         4394    i.$Sub$$main        tx_phe_startup.o
    0x080001f8   0x080001f8   0x00000008   Code   RO         4396  * i.Reset_Handler     tx_phe_startup.o
    0x08000200   0x08000200   0x00000020   Code   RO         4752    i.__0printf$8       mc_w.l(printf8.o)
    0x08000220   0x08000220   0x0000000e   Code   RO         4853    i.__scatterload_copy  mc_w.l(handlers.o)
    0x0800022e   0x0800022e   0x00000002   Code   RO         4854    i.__scatterload_null  mc_w.l(handlers.o)
    0x08000230   0x08000230   0x0000000e   Code   RO         4855    i.__scatterload_zeroinit  mc_w.l(handlers.o)
    0x0800023e   0x0800023e   0x00000002   PAD
    0x08000240   0x08000240   0x00000404   Code   RO         4759    i._printf_core      mc_w.l(printf8.o)
    0x08000644   0x08000644   0x00000024   Code   RO         4760    i._printf_post_padding  mc_w.l(printf8.o)
    0x08000668   0x08000668   0x0000002e   Code   RO         4761    i._printf_pre_padding  mc_w.l(printf8.o)
    0x08000696   0x08000696   0x00000002   PAD
    0x08000698   0x08000698   0x00000040   Data   RO         4851    Region$$Table       anon$$obj.o


    Execution Region ER_RAM_VECT (Exec base: 0x10006000, Load base: 0x080006d8, Size: 0x00000180, Max: 0x00000180, ABSOLUTE, COMPRESSED[0x00000004])

    Exec Addr    Load Addr    Size         Type   Attr      Idx    E Section Name        Object

    0x10006000   COMPRESSED   0x00000180   Data   RW         4255    SRAM_VECTOR_TAB     tx_phe_system.o


    Execution Region ER_RAM_CODE (Exec base: 0x10006180, Load base: 0x080006dc, Size: 0x00004a94, Max: 0x00007e80, ABSOLUTE)

    Exec Addr    Load Addr    Size         Type   Attr      Idx    E Section Name        Object

    0x10006180   0x080006dc   0x00000006   Code   RO         4232    .emb_text           tx_phe_system.o
    0x10006186   0x080006e2   0x00000062   Code   RO         4537    .text               mc_w.l(uldiv.o)
    0x100061e8   0x08000744   0x00000024   Code   RO         4539    .text               mc_w.l(memcpya.o)
    0x1000620c   0x08000768   0x00000024   Code   RO         4541    .text               mc_w.l(memseta.o)
    0x10006230   0x0800078c   0x0000001e   Code   RO         4828    .text               mc_w.l(llshl.o)
    0x1000624e   0x080007aa   0x00000020   Code   RO         4830    .text               mc_w.l(llushr.o)
    0x1000626e   0x080007ca   0x0000000a   Ven    RO         4864    Veneer$$Code        anon$$obj.o
    0x10006278   0x080007d4   0x00000002   Code   RO          273    i.ADTIM0_IRQHandler  tx_phe_irq.o
    0x1000627a   0x080007d6   0x00000002   Code   RO          274    i.ARCTAN0_IRQHandler  tx_phe_irq.o
    0x1000627c   0x080007d8   0x00000002   Code   RO          275    i.ARCTAN1_IRQHandler  tx_phe_irq.o
    0x1000627e   0x080007da   0x00000002   Code   RO          276    i.ARCTAN2_IRQHandler  tx_phe_irq.o
    0x10006280   0x080007dc   0x00000008   Code   RO          277    i.BusFault_Handler  tx_phe_irq.o
    0x10006288   0x080007e4   0x00000002   Code   RO          278    i.CAN_IRQHandler    tx_phe_irq.o
    0x1000628a   0x080007e6   0x00000002   Code   RO          279    i.CRC_IRQHandler    tx_phe_irq.o
    0x1000628c   0x080007e8   0x00000002   Code   RO          280    i.DATADMA_IRQHandler  tx_phe_irq.o
    0x1000628e   0x080007ea   0x00000002   Code   RO          281    i.DFTRANS0_IRQHandler  tx_phe_irq.o
    0x10006290   0x080007ec   0x00000002   Code   RO          282    i.DFTRANS1_IRQHandler  tx_phe_irq.o
    0x10006292   0x080007ee   0x00000002   Code   RO          283    i.DFTRANS2_IRQHandler  tx_phe_irq.o
    0x10006294   0x080007f0   0x00000002   Code   RO          284    i.DMA0_IRQHandler   tx_phe_irq.o
    0x10006296   0x080007f2   0x00000002   Code   RO          285    i.DebugMon_Handler  tx_phe_irq.o
    0x10006298   0x080007f4   0x00000002   Code   RO          286    i.EPWM_IRQHandler   tx_phe_irq.o
    0x1000629a   0x080007f6   0x00000002   Code   RO          287    i.EVSYS_IRQHandler  tx_phe_irq.o
    0x1000629c   0x080007f8   0x00000028   Code   RO          288    i.FADC_IRQHandler   tx_phe_irq.o
    0x100062c4   0x08000820   0x00000002   Code   RO          289    i.FFT0_IRQHandler   tx_phe_irq.o
    0x100062c6   0x08000822   0x00000002   Code   RO          290    i.FFT0_PREPROCESS_IRQHandler  tx_phe_irq.o
    0x100062c8   0x08000824   0x00000002   Code   RO          291    i.FFT1_IRQHandler   tx_phe_irq.o
    0x100062ca   0x08000826   0x00000002   Code   RO          292    i.FFT1_PREPROCESS_IRQHandler  tx_phe_irq.o
    0x100062cc   0x08000828   0x00000002   Code   RO          293    i.FFT2_IRQHandler   tx_phe_irq.o
    0x100062ce   0x0800082a   0x00000002   Code   RO          294    i.FFT2_PREPROCESS_IRQHandler  tx_phe_irq.o
    0x100062d0   0x0800082c   0x00000002   Code   RO          295    i.FIR0_IRQHandler   tx_phe_irq.o
    0x100062d2   0x0800082e   0x00000002   Code   RO          296    i.FIR1_IRQHandler   tx_phe_irq.o
    0x100062d4   0x08000830   0x00000002   Code   RO          297    i.FIR2_IRQHandler   tx_phe_irq.o
    0x100062d6   0x08000832   0x00000044   Code   RO         1091    i.Frame_arry_Inverted  proto.o
    0x1000631a   0x08000876   0x00000002   PAD
    0x1000631c   0x08000878   0x000000b0   Code   RO         1092    i.Frame_cmd_Rep     proto.o
    0x100063cc   0x08000928   0x000000c0   Code   RO         1093    i.Frame_cmd_Rep2    proto.o
    0x1000648c   0x080009e8   0x000000b8   Code   RO         1094    i.Frame_cmd_Rep3    proto.o
    0x10006544   0x08000aa0   0x00000002   Code   RO          298    i.GMAC_IRQHandler   tx_phe_irq.o
    0x10006546   0x08000aa2   0x00000002   Code   RO          299    i.GPIOA_IRQHandler  tx_phe_irq.o
    0x10006548   0x08000aa4   0x00000002   Code   RO          300    i.GPIOB_IRQHandler  tx_phe_irq.o
    0x1000654a   0x08000aa6   0x00000002   Code   RO          301    i.GPIOC_IRQHandler  tx_phe_irq.o
    0x1000654c   0x08000aa8   0x00000002   Code   RO          302    i.GPIOD_IRQHandler  tx_phe_irq.o
    0x1000654e   0x08000aaa   0x00000002   Code   RO          303    i.HCC_IRQHandler    tx_phe_irq.o
    0x10006550   0x08000aac   0x00000008   Code   RO          304    i.HardFault_Handler  tx_phe_irq.o
    0x10006558   0x08000ab4   0x00000002   Code   RO          305    i.IIC0_IRQHandler   tx_phe_irq.o
    0x1000655a   0x08000ab6   0x00000002   Code   RO          306    i.IIC1_IRQHandler   tx_phe_irq.o
    0x1000655c   0x08000ab8   0x00000002   Code   RO          307    i.IIR0_IRQHandler   tx_phe_irq.o
    0x1000655e   0x08000aba   0x00000002   Code   RO          308    i.IIR1_IRQHandler   tx_phe_irq.o
    0x10006560   0x08000abc   0x00000002   Code   RO          309    i.IIR2_IRQHandler   tx_phe_irq.o
    0x10006562   0x08000abe   0x00000008   Code   RO          310    i.LVD_IRQHandler    tx_phe_irq.o
    0x1000656a   0x08000ac6   0x00000002   Code   RO          311    i.MATRIX_MULT_IRQHandler  tx_phe_irq.o
    0x1000656c   0x08000ac8   0x00000008   Code   RO          760    i.Main_Poll         user.o
    0x10006574   0x08000ad0   0x00000008   Code   RO          312    i.MemManage_Handler  tx_phe_irq.o
    0x1000657c   0x08000ad8   0x00000008   Code   RO          313    i.NMI_Handler       tx_phe_irq.o
    0x10006584   0x08000ae0   0x0000007c   Code   RO         4184    i.NVIC_Init         tx_phe_misc.o
    0x10006600   0x08000b5c   0x00000002   Code   RO          314    i.PendSV_Handler    tx_phe_irq.o
    0x10006602   0x08000b5e   0x00000002   Code   RO          315    i.QEI_IRQHandler    tx_phe_irq.o
    0x10006604   0x08000b60   0x00000002   Code   RO          316    i.RMS0_IRQHandler   tx_phe_irq.o
    0x10006606   0x08000b62   0x00000002   Code   RO          317    i.RMS1_IRQHandler   tx_phe_irq.o
    0x10006608   0x08000b64   0x00000002   Code   RO          318    i.RMS2_IRQHandler   tx_phe_irq.o
    0x1000660a   0x08000b66   0x00000002   Code   RO          319    i.SARADC_IRQHandler  tx_phe_irq.o
    0x1000660c   0x08000b68   0x00000002   Code   RO          320    i.SINCOS0_IRQHandler  tx_phe_irq.o
    0x1000660e   0x08000b6a   0x00000002   Code   RO          321    i.SINCOS1_IRQHandler  tx_phe_irq.o
    0x10006610   0x08000b6c   0x00000002   Code   RO          322    i.SPI0_IRQHandler   tx_phe_irq.o
    0x10006612   0x08000b6e   0x00000002   Code   RO          323    i.SPI1_IRQHandler   tx_phe_irq.o
    0x10006614   0x08000b70   0x00000002   Code   RO          324    i.SPWM_IRQHandler   tx_phe_irq.o
    0x10006616   0x08000b72   0x00000002   Code   RO          325    i.SVC_Handler       tx_phe_irq.o
    0x10006618   0x08000b74   0x00000002   Code   RO          326    i.SVPWM_IRQHandler  tx_phe_irq.o
    0x1000661a   0x08000b76   0x00000002   PAD
    0x1000661c   0x08000b78   0x00000010   Code   RO          327    i.SysTick_Handler   tx_phe_irq.o
    0x1000662c   0x08000b88   0x00000080   Code   RO          328    i.TIM0_IRQHandler   tx_phe_irq.o
    0x100066ac   0x08000c08   0x00000040   Code   RO          329    i.TIM1_IRQHandler   tx_phe_irq.o
    0x100066ec   0x08000c48   0x00000040   Code   RO          330    i.TIM2_IRQHandler   tx_phe_irq.o
    0x1000672c   0x08000c88   0x00000040   Code   RO          331    i.TIM3_IRQHandler   tx_phe_irq.o
    0x1000676c   0x08000cc8   0x0000003c   Code   RO          332    i.TIM4_IRQHandler   tx_phe_irq.o
    0x100067a8   0x08000d04   0x00000040   Code   RO          333    i.TIM5_IRQHandler   tx_phe_irq.o
    0x100067e8   0x08000d44   0x00000040   Code   RO          334    i.TIM6_IRQHandler   tx_phe_irq.o
    0x10006828   0x08000d84   0x00000040   Code   RO          335    i.TIM7_IRQHandler   tx_phe_irq.o
    0x10006868   0x08000dc4   0x00000098   Code   RO          336    i.USART0_IRQHandler  tx_phe_irq.o
    0x10006900   0x08000e5c   0x0000005a   Code   RO          337    i.USART1_IRQHandler  tx_phe_irq.o
    0x1000695a   0x08000eb6   0x00000002   PAD
    0x1000695c   0x08000eb8   0x000000b0   Code   RO          338    i.USART2_IRQHandler  tx_phe_irq.o
    0x10006a0c   0x08000f68   0x00000364   Code   RO         1095    i.Upload_server     proto.o
    0x10006d70   0x080012cc   0x00000008   Code   RO          339    i.UsageFault_Handler  tx_phe_irq.o
    0x10006d78   0x080012d4   0x00000002   Code   RO          340    i.WAKEUP_IRQHandler  tx_phe_irq.o
    0x10006d7a   0x080012d6   0x00000002   PAD
    0x10006d7c   0x080012d8   0x0000001c   Code   RO          341    i.WDT_IRQHandler    tx_phe_irq.o
    0x10006d98   0x080012f4   0x00000006   Code   RO         1567    i.__get_PRIMASK     tx_phe_ll_cc_rst.o
    0x10006d9e   0x080012fa   0x00000006   Code   RO         1869    i.__get_PRIMASK     tx_phe_ll_eflash.o
    0x10006da4   0x08001300   0x00000030   Code   RO         1096    i.constant_parameter_updata  proto.o
    0x10006dd4   0x08001330   0x0000003c   Code   RO         4126    i.debug_select_interface  tx_phe_debug.o
    0x10006e10   0x0800136c   0x0000002a   Code   RO         4233    i.delay_ms          tx_phe_system.o
    0x10006e3a   0x08001396   0x00000002   PAD
    0x10006e3c   0x08001398   0x0000002c   Code   RO         4234    i.delay_us          tx_phe_system.o
    0x10006e68   0x080013c4   0x000004d8   Code   RO         4235    i.dump_fault_state  tx_phe_system.o
    0x10007340   0x0800189c   0x00000040   Code   RO         1204    i.eflash_erase2     eflash.o
    0x10007380   0x080018dc   0x00000058   Code   RO         1209    i.eflash_read_check  eflash.o
    0x100073d8   0x08001934   0x00000044   Code   RO         1210    i.eflash_read_sector  eflash.o
    0x1000741c   0x08001978   0x0000004c   Code   RO         1214    i.eflash_write2     eflash.o
    0x10007468   0x080019c4   0x00000060   Code   RO         1215    i.eflash_write_sector  eflash.o
    0x100074c8   0x08001a24   0x0000006c   Code   RO         4128    i.fputc             tx_phe_debug.o
    0x10007534   0x08001a90   0x00000086   Code   RO         1098    i.frame_get         proto.o
    0x100075ba   0x08001b16   0x00000002   PAD
    0x100075bc   0x08001b18   0x00000134   Code   RO         1339    i.km_control        slave.o
    0x100076f0   0x08001c4c   0x0000009c   Code   RO         1570    i.ll_cc_clk_div_config  tx_phe_ll_cc_rst.o
    0x1000778c   0x08001ce8   0x0000007c   Code   RO         1871    i.ll_cc_rst_apb2_peripheral_clk_enable  tx_phe_ll_eflash.o
    0x10007808   0x08001d64   0x00000020   Code   RO         1571    i.ll_cc_rst_delay5ms_32khz  tx_phe_ll_cc_rst.o
    0x10007828   0x08001d84   0x0000006c   Code   RO         1572    i.ll_cc_sys_clk_get  tx_phe_ll_cc_rst.o
    0x10007894   0x08001df0   0x000002ec   Code   RO         1573    i.ll_cc_syspll_set  tx_phe_ll_cc_rst.o
    0x10007b80   0x080020dc   0x000000c4   Code   RO         1872    i.ll_eflash_config  tx_phe_ll_eflash.o
    0x10007c44   0x080021a0   0x000000b8   Code   RO         1873    i.ll_eflash_crc32   tx_phe_ll_eflash.o
    0x10007cfc   0x08002258   0x00000084   Code   RO         1876    i.ll_eflash_erase_sector  tx_phe_ll_eflash.o
    0x10007d80   0x080022dc   0x000000a4   Code   RO         1878    i.ll_eflash_init    tx_phe_ll_eflash.o
    0x10007e24   0x08002380   0x00000010   Code   RO         1879    i.ll_eflash_main_lock  tx_phe_ll_eflash.o
    0x10007e34   0x08002390   0x00000088   Code   RO         1881    i.ll_eflash_prog_word  tx_phe_ll_eflash.o
    0x10007ebc   0x08002418   0x0000000e   Code   RO         1216    i.ll_eflash_wait_busy  eflash.o
    0x10007eca   0x08002426   0x0000000e   Code   RO         1217    i.ll_eflash_wait_sector_erase  eflash.o
    0x10007ed8   0x08002434   0x00000006   Code   RO            5    i.ll_gpio_bit_reset  main.o
    0x10007ede   0x0800243a   0x00000006   Code   RO         1340    i.ll_gpio_bit_reset  slave.o
    0x10007ee4   0x08002440   0x00000006   Code   RO            6    i.ll_gpio_bit_set   main.o
    0x10007eea   0x08002446   0x00000006   Code   RO         1341    i.ll_gpio_bit_set   slave.o
    0x10007ef0   0x0800244c   0x00000088   Code   RO         2348    i.ll_gpio_dir       tx_phe_ll_gpio.o
    0x10007f78   0x080024d4   0x000000b8   Code   RO         2349    i.ll_gpio_pull      tx_phe_ll_gpio.o
    0x10008030   0x0800258c   0x0000000a   Code   RO          342    i.ll_timer_clear_capture_interrupt_pending  tx_phe_irq.o
    0x1000803a   0x08002596   0x0000000a   Code   RO          343    i.ll_timer_clear_interrupt_pending  tx_phe_irq.o
    0x10008044   0x080025a0   0x000000cc   Code   RO         3277    i.ll_timer_config   tx_phe_ll_timer.o
    0x10008110   0x0800266c   0x00000094   Code   RO         3279    i.ll_timer_init     tx_phe_ll_timer.o
    0x100081a4   0x08002700   0x00000388   Code   RO         3280    i.ll_timer_io_map   tx_phe_ll_timer.o
    0x1000852c   0x08002a88   0x00000028   Code   RO         3281    i.ll_timer_irq_config  tx_phe_ll_timer.o
    0x10008554   0x08002ab0   0x000000a0   Code   RO         3282    i.ll_timer_start    tx_phe_ll_timer.o
    0x100085f4   0x08002b50   0x000000cc   Code   RO         3337    i.ll_usart232_config  tx_phe_ll_usart.o
    0x100086c0   0x08002c1c   0x00000118   Code   RO         3338    i.ll_usart232_io_map  tx_phe_ll_usart.o
    0x100087d8   0x08002d34   0x00000006   Code   RO          344    i.ll_usart_clear_busy_detect_pending  tx_phe_irq.o
    0x100087de   0x08002d3a   0x00000006   Code   RO          345    i.ll_usart_clear_modem_status_pending  tx_phe_irq.o
    0x100087e4   0x08002d40   0x00000006   Code   RO          346    i.ll_usart_clear_rx_line_status_pending  tx_phe_irq.o
    0x100087ea   0x08002d46   0x00000002   PAD
    0x100087ec   0x08002d48   0x00000068   Code   RO         3342    i.ll_usart_init     tx_phe_ll_usart.o
    0x10008854   0x08002db0   0x00000046   Code   RO         3343    i.ll_usart_irq_config  tx_phe_ll_usart.o
    0x1000889a   0x08002df6   0x00000002   PAD
    0x1000889c   0x08002df8   0x00000048   Code   RO         1099    i.mac_addr_check    proto.o
    0x100088e4   0x08002e40   0x0000031c   Code   RO            7    i.main              main.o
    0x10008c00   0x0800315c   0x000004ac   Code   RO            8    i.main_loop         main.o
    0x100090ac   0x08003608   0x000001a0   Code   RO         1342    i.meterdata_process  slave.o
    0x1000924c   0x080037a8   0x000000e0   Code   RO         1343    i.meterread_process  slave.o
    0x1000932c   0x08003888   0x00000274   Code   RO         1100    i.param_init        proto.o
    0x100095a0   0x08003afc   0x0000011c   Code   RO         1101    i.param_save        proto.o
    0x100096bc   0x08003c18   0x00000308   Code   RO         1344    i.protect_process   slave.o
    0x100099c4   0x08003f20   0x00000aa0   Code   RO         1102    i.proto_check       proto.o
    0x1000a464   0x080049c0   0x00000008   Code   RO         1103    i.proto_run         proto.o
    0x1000a46c   0x080049c8   0x00000018   Code   RO         1218    i.read_data_eflash  eflash.o
    0x1000a484   0x080049e0   0x00000008   Code   RO         4239    i.recover_fault_state  tx_phe_system.o
    0x1000a48c   0x080049e8   0x00000068   Code   RO         1219    i.save_data_eflash  eflash.o
    0x1000a4f4   0x08004a50   0x00000014   Code   RO          968    i.serial_buf_init   serial.o
    0x1000a508   0x08004a64   0x00000054   Code   RO          969    i.serial_config     serial.o
    0x1000a55c   0x08004ab8   0x00000034   Code   RO          971    i.serial_init       serial.o
    0x1000a590   0x08004aec   0x00000010   Code   RO          972    i.serial_putc       serial.o
    0x1000a5a0   0x08004afc   0x0000005c   Code   RO          973    i.serial_tx_handle  serial.o
    0x1000a5fc   0x08004b58   0x0000001c   Code   RO         1104    i.sum_check         proto.o
    0x1000a618   0x08004b74   0x00000044   Code   RO         4241    i.sys_eflash_config  tx_phe_system.o
    0x1000a65c   0x08004bb8   0x00000014   Code   RO         4242    i.sys_eflash_init   tx_phe_system.o
    0x1000a670   0x08004bcc   0x00000002   Code   RO         4243    i.sys_fault_recover_context  tx_phe_system.o
    0x1000a672   0x08004bce   0x00000002   Code   RO         4244    i.sys_fault_save_context  tx_phe_system.o
    0x1000a674   0x08004bd0   0x0000004c   Code   RO         4245    i.sys_module_init   tx_phe_system.o
    0x1000a6c0   0x08004c1c   0x00000058   Code   RO         4246    i.sys_peripheral_init  tx_phe_system.o
    0x1000a718   0x08004c74   0x00000028   Code   RO         4250    i.system_critical_section_enter  tx_phe_system.o
    0x1000a740   0x08004c9c   0x00000028   Code   RO         4251    i.system_critical_section_exit  tx_phe_system.o
    0x1000a768   0x08004cc4   0x00000050   Code   RO         4252    i.system_init       tx_phe_system.o
    0x1000a7b8   0x08004d14   0x000001c0   Code   RO         4094    i.tx_assert_address  tx_phe_assert.o
    0x1000a978   0x08004ed4   0x00000044   Code   RO         4095    i.tx_assert_false   tx_phe_assert.o
    0x1000a9bc   0x08004f18   0x00000064   Code   RO          767    i.usart2_config     user.o
    0x1000aa20   0x08004f7c   0x00000030   Code   RO          768    i.usart2_init       user.o
    0x1000aa50   0x08004fac   0x00000050   Code   RO         1033    i.utimer_config     utimer.o
    0x1000aaa0   0x08004ffc   0x00000034   Code   RO         1035    i.utimer_init       utimer.o
    0x1000aad4   0x08005030   0x00000034   Code   RO         1036    i.utimer_interput_handle  utimer.o
    0x1000ab08   0x08005064   0x00000018   Code   RO         1037    i.utimer_start      utimer.o
    0x1000ab20   0x0800507c   0x00000010   Data   RO         1575    .constdata          tx_phe_ll_cc_rst.o
    0x1000ab30   0x0800508c   0x000000e4   Data   RO         4096    .constdata          tx_phe_assert.o


    Execution Region RW_SRAM0 (Exec base: 0x20000000, Load base: 0x08005170, Size: 0x00006000, Max: 0x00006000, ABSOLUTE)

    Exec Addr    Load Addr    Size         Type   Attr      Idx    E Section Name        Object

    0x20000000   0x08005170   0x000000a5   Data   RW           10    .data               main.o
    0x200000a5   0x08005215   0x00000001   PAD
    0x200000a6   0x08005216   0x00000009   Data   RW          776    .data               user.o
    0x200000af   0x0800521f   0x00000005   Data   RW          975    .data               serial.o
    0x200000b4   0x08005224   0x00000018   Data   RW         1221    .data               eflash.o
    0x200000cc   0x0800523c   0x00000005   Data   RW         1348    .data               slave.o
    0x200000d1   0x08005241   0x00000003   PAD
    0x200000d4   0x08005244   0x00000014   Data   RW         4130    .data               tx_phe_debug.o
    0x200000e8   0x08005258   0x00000018   Data   RW         4254    .data               tx_phe_system.o
    0x20000100        -       0x00000df4   Zero   RW            9    .bss                main.o
    0x20000ef4        -       0x000001f4   Zero   RW          775    .bss                user.o
    0x200010e8        -       0x00000566   Zero   RW          974    .bss                serial.o
    0x2000164e        -       0x0000000c   Zero   RW         1039    .bss                utimer.o
    0x2000165a        -       0x0000016c   Zero   RW         1105    .bss                proto.o
    0x200017c6   0x08005270   0x0000383a   PAD
    0x20005000        -       0x00001000   Zero   RW          942    .ARM.__AT_0x20005000  save_printf.o


    Execution Region ARM_LIB_STACK (Exec base: 0x2000e000, Load base: 0x08005170, Size: 0x00000400, Max: 0x00000400, ABSOLUTE)

    Exec Addr    Load Addr    Size         Type   Attr      Idx    E Section Name        Object

    0x2000e000        -       0x00000400   Zero   RW            1    ARM_LIB_STACK.bss   anon$$obj.o


    Execution Region RW_SRAM10 (Exec base: 0x2000e400, Load base: 0x08005170, Size: 0x00000000, Max: 0x00001c00, ABSOLUTE)

    **** No section assigned to this execution region ****


    Execution Region RW_SRAM1 (Exec base: 0x20010000, Load base: 0x08005270, Size: 0x00000000, Max: 0x00002000, ABSOLUTE)

    **** No section assigned to this execution region ****


    Execution Region RW_SRAM2 (Exec base: 0x20012000, Load base: 0x08005270, Size: 0x00000000, Max: 0x00002000, ABSOLUTE)

    **** No section assigned to this execution region ****


    Execution Region RW_SRAM3 (Exec base: 0x20014000, Load base: 0x08005270, Size: 0x00000000, Max: 0x00002000, ABSOLUTE)

    **** No section assigned to this execution region ****


    Execution Region RW_SRAM4_5 (Exec base: 0x20016000, Load base: 0x08005270, Size: 0x00000000, Max: 0x00001000, ABSOLUTE)

    **** No section assigned to this execution region ****


    Execution Region RW_SRAM6_7 (Exec base: 0x20017000, Load base: 0x08005270, Size: 0x00000000, Max: 0x00001000, ABSOLUTE)

    **** No section assigned to this execution region ****


    Execution Region RW_SRAM8_9 (Exec base: 0x20018000, Load base: 0x08005270, Size: 0x00000000, Max: 0x00001000, ABSOLUTE)

    **** No section assigned to this execution region ****


    Execution Region RW_SRAM11 (Exec base: 0x20019000, Load base: 0x08005270, Size: 0x00000000, Max: 0x00000800, ABSOLUTE)

    **** No section assigned to this execution region ****


    Execution Region RW_SRAM12_13 (Exec base: 0x20019800, Load base: 0x08005270, Size: 0x00000000, Max: 0x00001000, ABSOLUTE)

    **** No section assigned to this execution region ****


    Execution Region RW_SRAM14 (Exec base: 0x2001a800, Load base: 0x08005270, Size: 0x00000000, Max: 0x00000800, ABSOLUTE)

    **** No section assigned to this execution region ****


    Execution Region RW_SRAM15 (Exec base: 0x2001b000, Load base: 0x08005270, Size: 0x00000000, Max: 0x00000800, ABSOLUTE)

    **** No section assigned to this execution region ****


    Execution Region RW_SRAM16 (Exec base: 0x2001b800, Load base: 0x08005270, Size: 0x00000000, Max: 0x00000800, ABSOLUTE)

    **** No section assigned to this execution region ****



  Load Region LR$$.ARM.__AT_0x40000000 (Base: 0x40000000, Size: 0x00000000, Max: 0x000000e0, ABSOLUTE)

    Execution Region ER$$.ARM.__AT_0x40000000 (Exec base: 0x40000000, Load base: 0x40000000, Size: 0x000000e0, Max: 0x000000e0, ABSOLUTE, UNINIT)

    Exec Addr    Load Addr    Size         Type   Attr      Idx    E Section Name        Object

    0x40000000        -       0x000000e0   Zero   RW         4438    .ARM.__AT_0x40000000  txf5200.o



  Load Region LR$$.ARM.__AT_0x40001000 (Base: 0x40001000, Size: 0x00000000, Max: 0x000000e0, ABSOLUTE)

    Execution Region ER$$.ARM.__AT_0x40001000 (Exec base: 0x40001000, Load base: 0x40001000, Size: 0x000000e0, Max: 0x000000e0, ABSOLUTE, UNINIT)

    Exec Addr    Load Addr    Size         Type   Attr      Idx    E Section Name        Object

    0x40001000        -       0x000000e0   Zero   RW         4439    .ARM.__AT_0x40001000  txf5200.o



  Load Region LR$$.ARM.__AT_0x40003000 (Base: 0x40003000, Size: 0x00000000, Max: 0x000000d0, ABSOLUTE)

    Execution Region ER$$.ARM.__AT_0x40003000 (Exec base: 0x40003000, Load base: 0x40003000, Size: 0x000000d0, Max: 0x000000d0, ABSOLUTE, UNINIT)

    Exec Addr    Load Addr    Size         Type   Attr      Idx    E Section Name        Object

    0x40003000        -       0x000000d0   Zero   RW         4440    .ARM.__AT_0x40003000  txf5200.o



  Load Region LR$$.ARM.__AT_0x40004000 (Base: 0x40004000, Size: 0x00000000, Max: 0x000000d0, ABSOLUTE)

    Execution Region ER$$.ARM.__AT_0x40004000 (Exec base: 0x40004000, Load base: 0x40004000, Size: 0x000000d0, Max: 0x000000d0, ABSOLUTE, UNINIT)

    Exec Addr    Load Addr    Size         Type   Attr      Idx    E Section Name        Object

    0x40004000        -       0x000000d0   Zero   RW         4441    .ARM.__AT_0x40004000  txf5200.o



  Load Region LR$$.ARM.__AT_0x40005000 (Base: 0x40005000, Size: 0x00000000, Max: 0x000000d0, ABSOLUTE)

    Execution Region ER$$.ARM.__AT_0x40005000 (Exec base: 0x40005000, Load base: 0x40005000, Size: 0x000000d0, Max: 0x000000d0, ABSOLUTE, UNINIT)

    Exec Addr    Load Addr    Size         Type   Attr      Idx    E Section Name        Object

    0x40005000        -       0x000000d0   Zero   RW         4442    .ARM.__AT_0x40005000  txf5200.o



  Load Region LR$$.ARM.__AT_0x40006000 (Base: 0x40006000, Size: 0x00000000, Max: 0x0000002c, ABSOLUTE)

    Execution Region ER$$.ARM.__AT_0x40006000 (Exec base: 0x40006000, Load base: 0x40006000, Size: 0x0000002c, Max: 0x0000002c, ABSOLUTE, UNINIT)

    Exec Addr    Load Addr    Size         Type   Attr      Idx    E Section Name        Object

    0x40006000        -       0x0000002c   Zero   RW         4443    .ARM.__AT_0x40006000  txf5200.o



  Load Region LR$$.ARM.__AT_0x40007000 (Base: 0x40007000, Size: 0x00000000, Max: 0x0000002c, ABSOLUTE)

    Execution Region ER$$.ARM.__AT_0x40007000 (Exec base: 0x40007000, Load base: 0x40007000, Size: 0x0000002c, Max: 0x0000002c, ABSOLUTE, UNINIT)

    Exec Addr    Load Addr    Size         Type   Attr      Idx    E Section Name        Object

    0x40007000        -       0x0000002c   Zero   RW         4444    .ARM.__AT_0x40007000  txf5200.o



  Load Region LR$$.ARM.__AT_0x40009000 (Base: 0x40009000, Size: 0x00000000, Max: 0x00000004, ABSOLUTE)

    Execution Region ER$$.ARM.__AT_0x40009000 (Exec base: 0x40009000, Load base: 0x40009000, Size: 0x00000004, Max: 0x00000004, ABSOLUTE, UNINIT)

    Exec Addr    Load Addr    Size         Type   Attr      Idx    E Section Name        Object

    0x40009000        -       0x00000004   Zero   RW         4445    .ARM.__AT_0x40009000  txf5200.o



  Load Region LR$$.ARM.__AT_0x4000A000 (Base: 0x4000a000, Size: 0x00000000, Max: 0x00000068, ABSOLUTE)

    Execution Region ER$$.ARM.__AT_0x4000A000 (Exec base: 0x4000a000, Load base: 0x4000a000, Size: 0x00000068, Max: 0x00000068, ABSOLUTE, UNINIT)

    Exec Addr    Load Addr    Size         Type   Attr      Idx    E Section Name        Object

    0x4000a000        -       0x00000068   Zero   RW         4446    .ARM.__AT_0x4000A000  txf5200.o



  Load Region LR$$.ARM.__AT_0x4000D000 (Base: 0x4000d000, Size: 0x00000000, Max: 0x00000010, ABSOLUTE)

    Execution Region ER$$.ARM.__AT_0x4000D000 (Exec base: 0x4000d000, Load base: 0x4000d000, Size: 0x00000010, Max: 0x00000010, ABSOLUTE, UNINIT)

    Exec Addr    Load Addr    Size         Type   Attr      Idx    E Section Name        Object

    0x4000d000        -       0x00000010   Zero   RW         4447    .ARM.__AT_0x4000D000  txf5200.o



  Load Region LR$$.ARM.__AT_0x4000D010 (Base: 0x4000d010, Size: 0x00000000, Max: 0x00000010, ABSOLUTE)

    Execution Region ER$$.ARM.__AT_0x4000D010 (Exec base: 0x4000d010, Load base: 0x4000d010, Size: 0x00000010, Max: 0x00000010, ABSOLUTE, UNINIT)

    Exec Addr    Load Addr    Size         Type   Attr      Idx    E Section Name        Object

    0x4000d010        -       0x00000010   Zero   RW         4448    .ARM.__AT_0x4000D010  txf5200.o



  Load Region LR$$.ARM.__AT_0x4000D020 (Base: 0x4000d020, Size: 0x00000000, Max: 0x00000010, ABSOLUTE)

    Execution Region ER$$.ARM.__AT_0x4000D020 (Exec base: 0x4000d020, Load base: 0x4000d020, Size: 0x00000010, Max: 0x00000010, ABSOLUTE, UNINIT)

    Exec Addr    Load Addr    Size         Type   Attr      Idx    E Section Name        Object

    0x4000d020        -       0x00000010   Zero   RW         4449    .ARM.__AT_0x4000D020  txf5200.o



  Load Region LR$$.ARM.__AT_0x4000D030 (Base: 0x4000d030, Size: 0x00000000, Max: 0x00000010, ABSOLUTE)

    Execution Region ER$$.ARM.__AT_0x4000D030 (Exec base: 0x4000d030, Load base: 0x4000d030, Size: 0x00000010, Max: 0x00000010, ABSOLUTE, UNINIT)

    Exec Addr    Load Addr    Size         Type   Attr      Idx    E Section Name        Object

    0x4000d030        -       0x00000010   Zero   RW         4450    .ARM.__AT_0x4000D030  txf5200.o



  Load Region LR$$.ARM.__AT_0x40012000 (Base: 0x40012000, Size: 0x00000000, Max: 0x0000003c, ABSOLUTE)

    Execution Region ER$$.ARM.__AT_0x40012000 (Exec base: 0x40012000, Load base: 0x40012000, Size: 0x0000003c, Max: 0x0000003c, ABSOLUTE, UNINIT)

    Exec Addr    Load Addr    Size         Type   Attr      Idx    E Section Name        Object

    0x40012000        -       0x0000003c   Zero   RW         4451    .ARM.__AT_0x40012000  txf5200.o



  Load Region LR$$.ARM.__AT_0x40013000 (Base: 0x40013000, Size: 0x00000000, Max: 0x00000100, ABSOLUTE)

    Execution Region ER$$.ARM.__AT_0x40013000 (Exec base: 0x40013000, Load base: 0x40013000, Size: 0x00000100, Max: 0x00000100, ABSOLUTE, UNINIT)

    Exec Addr    Load Addr    Size         Type   Attr      Idx    E Section Name        Object

    0x40013000        -       0x00000100   Zero   RW         4452    .ARM.__AT_0x40013000  txf5200.o



  Load Region LR$$.ARM.__AT_0x40014000 (Base: 0x40014000, Size: 0x00000000, Max: 0x00000008, ABSOLUTE)

    Execution Region ER$$.ARM.__AT_0x40014000 (Exec base: 0x40014000, Load base: 0x40014000, Size: 0x00000008, Max: 0x00000008, ABSOLUTE, UNINIT)

    Exec Addr    Load Addr    Size         Type   Attr      Idx    E Section Name        Object

    0x40014000        -       0x00000008   Zero   RW         4453    .ARM.__AT_0x40014000  txf5200.o



  Load Region LR$$.ARM.__AT_0x40015000 (Base: 0x40015000, Size: 0x00000000, Max: 0x00000010, ABSOLUTE)

    Execution Region ER$$.ARM.__AT_0x40015000 (Exec base: 0x40015000, Load base: 0x40015000, Size: 0x00000010, Max: 0x00000010, ABSOLUTE, UNINIT)

    Exec Addr    Load Addr    Size         Type   Attr      Idx    E Section Name        Object

    0x40015000        -       0x00000010   Zero   RW         4454    .ARM.__AT_0x40015000  txf5200.o



  Load Region LR$$.ARM.__AT_0x40015010 (Base: 0x40015010, Size: 0x00000000, Max: 0x00000010, ABSOLUTE)

    Execution Region ER$$.ARM.__AT_0x40015010 (Exec base: 0x40015010, Load base: 0x40015010, Size: 0x00000010, Max: 0x00000010, ABSOLUTE, UNINIT)

    Exec Addr    Load Addr    Size         Type   Attr      Idx    E Section Name        Object

    0x40015010        -       0x00000010   Zero   RW         4455    .ARM.__AT_0x40015010  txf5200.o



  Load Region LR$$.ARM.__AT_0x40015020 (Base: 0x40015020, Size: 0x00000000, Max: 0x00000010, ABSOLUTE)

    Execution Region ER$$.ARM.__AT_0x40015020 (Exec base: 0x40015020, Load base: 0x40015020, Size: 0x00000010, Max: 0x00000010, ABSOLUTE, UNINIT)

    Exec Addr    Load Addr    Size         Type   Attr      Idx    E Section Name        Object

    0x40015020        -       0x00000010   Zero   RW         4456    .ARM.__AT_0x40015020  txf5200.o



  Load Region LR$$.ARM.__AT_0x40015030 (Base: 0x40015030, Size: 0x00000000, Max: 0x00000010, ABSOLUTE)

    Execution Region ER$$.ARM.__AT_0x40015030 (Exec base: 0x40015030, Load base: 0x40015030, Size: 0x00000010, Max: 0x00000010, ABSOLUTE, UNINIT)

    Exec Addr    Load Addr    Size         Type   Attr      Idx    E Section Name        Object

    0x40015030        -       0x00000010   Zero   RW         4457    .ARM.__AT_0x40015030  txf5200.o



  Load Region LR$$.ARM.__AT_0x40017000 (Base: 0x40017000, Size: 0x00000000, Max: 0x00000028, ABSOLUTE)

    Execution Region ER$$.ARM.__AT_0x40017000 (Exec base: 0x40017000, Load base: 0x40017000, Size: 0x00000028, Max: 0x00000028, ABSOLUTE, UNINIT)

    Exec Addr    Load Addr    Size         Type   Attr      Idx    E Section Name        Object

    0x40017000        -       0x00000028   Zero   RW         4458    .ARM.__AT_0x40017000  txf5200.o



  Load Region LR$$.ARM.__AT_0x4001C000 (Base: 0x4001c000, Size: 0x00000000, Max: 0x00000010, ABSOLUTE)

    Execution Region ER$$.ARM.__AT_0x4001C000 (Exec base: 0x4001c000, Load base: 0x4001c000, Size: 0x00000010, Max: 0x00000010, ABSOLUTE, UNINIT)

    Exec Addr    Load Addr    Size         Type   Attr      Idx    E Section Name        Object

    0x4001c000        -       0x00000010   Zero   RW         4459    .ARM.__AT_0x4001C000  txf5200.o



  Load Region LR$$.ARM.__AT_0x4001D000 (Base: 0x4001d000, Size: 0x00000000, Max: 0x00000010, ABSOLUTE)

    Execution Region ER$$.ARM.__AT_0x4001D000 (Exec base: 0x4001d000, Load base: 0x4001d000, Size: 0x00000010, Max: 0x00000010, ABSOLUTE, UNINIT)

    Exec Addr    Load Addr    Size         Type   Attr      Idx    E Section Name        Object

    0x4001d000        -       0x00000010   Zero   RW         4460    .ARM.__AT_0x4001D000  txf5200.o



  Load Region LR$$.ARM.__AT_0x40020000 (Base: 0x40020000, Size: 0x00000000, Max: 0x000003b8, ABSOLUTE)

    Execution Region ER$$.ARM.__AT_0x40020000 (Exec base: 0x40020000, Load base: 0x40020000, Size: 0x000003b8, Max: 0x000003b8, ABSOLUTE, UNINIT)

    Exec Addr    Load Addr    Size         Type   Attr      Idx    E Section Name        Object

    0x40020000        -       0x000003b8   Zero   RW         4461    .ARM.__AT_0x40020000  txf5200.o



  Load Region LR$$.ARM.__AT_0x40021000 (Base: 0x40021000, Size: 0x00000000, Max: 0x00000060, ABSOLUTE)

    Execution Region ER$$.ARM.__AT_0x40021000 (Exec base: 0x40021000, Load base: 0x40021000, Size: 0x00000060, Max: 0x00000060, ABSOLUTE, UNINIT)

    Exec Addr    Load Addr    Size         Type   Attr      Idx    E Section Name        Object

    0x40021000        -       0x00000060   Zero   RW         4462    .ARM.__AT_0x40021000  txf5200.o



  Load Region LR$$.ARM.__AT_0x40022000 (Base: 0x40022000, Size: 0x00000000, Max: 0x0000003c, ABSOLUTE)

    Execution Region ER$$.ARM.__AT_0x40022000 (Exec base: 0x40022000, Load base: 0x40022000, Size: 0x0000003c, Max: 0x0000003c, ABSOLUTE, UNINIT)

    Exec Addr    Load Addr    Size         Type   Attr      Idx    E Section Name        Object

    0x40022000        -       0x0000003c   Zero   RW         4463    .ARM.__AT_0x40022000  txf5200.o



  Load Region LR$$.ARM.__AT_0x40024000 (Base: 0x40024000, Size: 0x00000000, Max: 0x0000003c, ABSOLUTE)

    Execution Region ER$$.ARM.__AT_0x40024000 (Exec base: 0x40024000, Load base: 0x40024000, Size: 0x0000003c, Max: 0x0000003c, ABSOLUTE, UNINIT)

    Exec Addr    Load Addr    Size         Type   Attr      Idx    E Section Name        Object

    0x40024000        -       0x0000003c   Zero   RW         4464    .ARM.__AT_0x40024000  txf5200.o



  Load Region LR$$.ARM.__AT_0x40025000 (Base: 0x40025000, Size: 0x00000000, Max: 0x0000003c, ABSOLUTE)

    Execution Region ER$$.ARM.__AT_0x40025000 (Exec base: 0x40025000, Load base: 0x40025000, Size: 0x0000003c, Max: 0x0000003c, ABSOLUTE, UNINIT)

    Exec Addr    Load Addr    Size         Type   Attr      Idx    E Section Name        Object

    0x40025000        -       0x0000003c   Zero   RW         4465    .ARM.__AT_0x40025000  txf5200.o



  Load Region LR$$.ARM.__AT_0x40026000 (Base: 0x40026000, Size: 0x00000000, Max: 0x00000084, ABSOLUTE)

    Execution Region ER$$.ARM.__AT_0x40026000 (Exec base: 0x40026000, Load base: 0x40026000, Size: 0x00000084, Max: 0x00000084, ABSOLUTE, UNINIT)

    Exec Addr    Load Addr    Size         Type   Attr      Idx    E Section Name        Object

    0x40026000        -       0x00000084   Zero   RW         4466    .ARM.__AT_0x40026000  txf5200.o



  Load Region LR$$.ARM.__AT_0x40027000 (Base: 0x40027000, Size: 0x00000000, Max: 0x0000003c, ABSOLUTE)

    Execution Region ER$$.ARM.__AT_0x40027000 (Exec base: 0x40027000, Load base: 0x40027000, Size: 0x0000003c, Max: 0x0000003c, ABSOLUTE, UNINIT)

    Exec Addr    Load Addr    Size         Type   Attr      Idx    E Section Name        Object

    0x40027000        -       0x0000003c   Zero   RW         4467    .ARM.__AT_0x40027000  txf5200.o



  Load Region LR$$.ARM.__AT_0x40029000 (Base: 0x40029000, Size: 0x00000000, Max: 0x000000b0, ABSOLUTE)

    Execution Region ER$$.ARM.__AT_0x40029000 (Exec base: 0x40029000, Load base: 0x40029000, Size: 0x000000b0, Max: 0x000000b0, ABSOLUTE, UNINIT)

    Exec Addr    Load Addr    Size         Type   Attr      Idx    E Section Name        Object

    0x40029000        -       0x000000b0   Zero   RW         4468    .ARM.__AT_0x40029000  txf5200.o



  Load Region LR$$.ARM.__AT_0x40030000 (Base: 0x40030000, Size: 0x00000000, Max: 0x00000014, ABSOLUTE)

    Execution Region ER$$.ARM.__AT_0x40030000 (Exec base: 0x40030000, Load base: 0x40030000, Size: 0x00000014, Max: 0x00000014, ABSOLUTE, UNINIT)

    Exec Addr    Load Addr    Size         Type   Attr      Idx    E Section Name        Object

    0x40030000        -       0x00000014   Zero   RW         4469    .ARM.__AT_0x40030000  txf5200.o



  Load Region LR$$.ARM.__AT_0x40031000 (Base: 0x40031000, Size: 0x00000000, Max: 0x0000007c, ABSOLUTE)

    Execution Region ER$$.ARM.__AT_0x40031000 (Exec base: 0x40031000, Load base: 0x40031000, Size: 0x0000007c, Max: 0x0000007c, ABSOLUTE, UNINIT)

    Exec Addr    Load Addr    Size         Type   Attr      Idx    E Section Name        Object

    0x40031000        -       0x0000007c   Zero   RW         4470    .ARM.__AT_0x40031000  txf5200.o



  Load Region LR$$.ARM.__AT_0x40032000 (Base: 0x40032000, Size: 0x00000000, Max: 0x000000e0, ABSOLUTE)

    Execution Region ER$$.ARM.__AT_0x40032000 (Exec base: 0x40032000, Load base: 0x40032000, Size: 0x000000e0, Max: 0x000000e0, ABSOLUTE, UNINIT)

    Exec Addr    Load Addr    Size         Type   Attr      Idx    E Section Name        Object

    0x40032000        -       0x000000e0   Zero   RW         4471    .ARM.__AT_0x40032000  txf5200.o



  Load Region LR$$.ARM.__AT_0x40033000 (Base: 0x40033000, Size: 0x00000000, Max: 0x00000034, ABSOLUTE)

    Execution Region ER$$.ARM.__AT_0x40033000 (Exec base: 0x40033000, Load base: 0x40033000, Size: 0x00000034, Max: 0x00000034, ABSOLUTE, UNINIT)

    Exec Addr    Load Addr    Size         Type   Attr      Idx    E Section Name        Object

    0x40033000        -       0x00000034   Zero   RW         4472    .ARM.__AT_0x40033000  txf5200.o



  Load Region LR$$.ARM.__AT_0x40035000 (Base: 0x40035000, Size: 0x00000000, Max: 0x00000040, ABSOLUTE)

    Execution Region ER$$.ARM.__AT_0x40035000 (Exec base: 0x40035000, Load base: 0x40035000, Size: 0x00000040, Max: 0x00000040, ABSOLUTE, UNINIT)

    Exec Addr    Load Addr    Size         Type   Attr      Idx    E Section Name        Object

    0x40035000        -       0x00000040   Zero   RW         4473    .ARM.__AT_0x40035000  txf5200.o



  Load Region LR$$.ARM.__AT_0x40035040 (Base: 0x40035040, Size: 0x00000000, Max: 0x00000040, ABSOLUTE)

    Execution Region ER$$.ARM.__AT_0x40035040 (Exec base: 0x40035040, Load base: 0x40035040, Size: 0x00000040, Max: 0x00000040, ABSOLUTE, UNINIT)

    Exec Addr    Load Addr    Size         Type   Attr      Idx    E Section Name        Object

    0x40035040        -       0x00000040   Zero   RW         4474    .ARM.__AT_0x40035040  txf5200.o



  Load Region LR$$.ARM.__AT_0x40035080 (Base: 0x40035080, Size: 0x00000000, Max: 0x00000040, ABSOLUTE)

    Execution Region ER$$.ARM.__AT_0x40035080 (Exec base: 0x40035080, Load base: 0x40035080, Size: 0x00000040, Max: 0x00000040, ABSOLUTE, UNINIT)

    Exec Addr    Load Addr    Size         Type   Attr      Idx    E Section Name        Object

    0x40035080        -       0x00000040   Zero   RW         4475    .ARM.__AT_0x40035080  txf5200.o



  Load Region LR$$.ARM.__AT_0x400350C0 (Base: 0x400350c0, Size: 0x00000000, Max: 0x00000040, ABSOLUTE)

    Execution Region ER$$.ARM.__AT_0x400350C0 (Exec base: 0x400350c0, Load base: 0x400350c0, Size: 0x00000040, Max: 0x00000040, ABSOLUTE, UNINIT)

    Exec Addr    Load Addr    Size         Type   Attr      Idx    E Section Name        Object

    0x400350c0        -       0x00000040   Zero   RW         4476    .ARM.__AT_0x400350C0  txf5200.o



  Load Region LR$$.ARM.__AT_0x40035100 (Base: 0x40035100, Size: 0x00000000, Max: 0x00000040, ABSOLUTE)

    Execution Region ER$$.ARM.__AT_0x40035100 (Exec base: 0x40035100, Load base: 0x40035100, Size: 0x00000040, Max: 0x00000040, ABSOLUTE, UNINIT)

    Exec Addr    Load Addr    Size         Type   Attr      Idx    E Section Name        Object

    0x40035100        -       0x00000040   Zero   RW         4477    .ARM.__AT_0x40035100  txf5200.o



  Load Region LR$$.ARM.__AT_0x40035140 (Base: 0x40035140, Size: 0x00000000, Max: 0x00000140, ABSOLUTE)

    Execution Region ER$$.ARM.__AT_0x40035140 (Exec base: 0x40035140, Load base: 0x40035140, Size: 0x00000140, Max: 0x00000140, ABSOLUTE, UNINIT)

    Exec Addr    Load Addr    Size         Type   Attr      Idx    E Section Name        Object

    0x40035140        -       0x00000140   Zero   RW         4478    .ARM.__AT_0x40035140  txf5200.o



  Load Region LR$$.ARM.__AT_0x40035280 (Base: 0x40035280, Size: 0x00000000, Max: 0x00000040, ABSOLUTE)

    Execution Region ER$$.ARM.__AT_0x40035280 (Exec base: 0x40035280, Load base: 0x40035280, Size: 0x00000040, Max: 0x00000040, ABSOLUTE, UNINIT)

    Exec Addr    Load Addr    Size         Type   Attr      Idx    E Section Name        Object

    0x40035280        -       0x00000040   Zero   RW         4479    .ARM.__AT_0x40035280  txf5200.o



  Load Region LR$$.ARM.__AT_0x400352C0 (Base: 0x400352c0, Size: 0x00000000, Max: 0x00000040, ABSOLUTE)

    Execution Region ER$$.ARM.__AT_0x400352C0 (Exec base: 0x400352c0, Load base: 0x400352c0, Size: 0x00000040, Max: 0x00000040, ABSOLUTE, UNINIT)

    Exec Addr    Load Addr    Size         Type   Attr      Idx    E Section Name        Object

    0x400352c0        -       0x00000040   Zero   RW         4480    .ARM.__AT_0x400352C0  txf5200.o



  Load Region LR$$.ARM.__AT_0x40035300 (Base: 0x40035300, Size: 0x00000000, Max: 0x00000040, ABSOLUTE)

    Execution Region ER$$.ARM.__AT_0x40035300 (Exec base: 0x40035300, Load base: 0x40035300, Size: 0x00000040, Max: 0x00000040, ABSOLUTE, UNINIT)

    Exec Addr    Load Addr    Size         Type   Attr      Idx    E Section Name        Object

    0x40035300        -       0x00000040   Zero   RW         4481    .ARM.__AT_0x40035300  txf5200.o



  Load Region LR$$.ARM.__AT_0x40035340 (Base: 0x40035340, Size: 0x00000000, Max: 0x00000040, ABSOLUTE)

    Execution Region ER$$.ARM.__AT_0x40035340 (Exec base: 0x40035340, Load base: 0x40035340, Size: 0x00000040, Max: 0x00000040, ABSOLUTE, UNINIT)

    Exec Addr    Load Addr    Size         Type   Attr      Idx    E Section Name        Object

    0x40035340        -       0x00000040   Zero   RW         4482    .ARM.__AT_0x40035340  txf5200.o



  Load Region LR$$.ARM.__AT_0x40035380 (Base: 0x40035380, Size: 0x00000000, Max: 0x00000040, ABSOLUTE)

    Execution Region ER$$.ARM.__AT_0x40035380 (Exec base: 0x40035380, Load base: 0x40035380, Size: 0x00000040, Max: 0x00000040, ABSOLUTE, UNINIT)

    Exec Addr    Load Addr    Size         Type   Attr      Idx    E Section Name        Object

    0x40035380        -       0x00000040   Zero   RW         4483    .ARM.__AT_0x40035380  txf5200.o



  Load Region LR$$.ARM.__AT_0x400353C0 (Base: 0x400353c0, Size: 0x00000000, Max: 0x00000040, ABSOLUTE)

    Execution Region ER$$.ARM.__AT_0x400353C0 (Exec base: 0x400353c0, Load base: 0x400353c0, Size: 0x00000040, Max: 0x00000040, ABSOLUTE, UNINIT)

    Exec Addr    Load Addr    Size         Type   Attr      Idx    E Section Name        Object

    0x400353c0        -       0x00000040   Zero   RW         4484    .ARM.__AT_0x400353C0  txf5200.o



  Load Region LR$$.ARM.__AT_0x40035400 (Base: 0x40035400, Size: 0x00000000, Max: 0x00000040, ABSOLUTE)

    Execution Region ER$$.ARM.__AT_0x40035400 (Exec base: 0x40035400, Load base: 0x40035400, Size: 0x00000040, Max: 0x00000040, ABSOLUTE, UNINIT)

    Exec Addr    Load Addr    Size         Type   Attr      Idx    E Section Name        Object

    0x40035400        -       0x00000040   Zero   RW         4485    .ARM.__AT_0x40035400  txf5200.o



  Load Region LR$$.ARM.__AT_0x40035440 (Base: 0x40035440, Size: 0x00000000, Max: 0x00000040, ABSOLUTE)

    Execution Region ER$$.ARM.__AT_0x40035440 (Exec base: 0x40035440, Load base: 0x40035440, Size: 0x00000040, Max: 0x00000040, ABSOLUTE, UNINIT)

    Exec Addr    Load Addr    Size         Type   Attr      Idx    E Section Name        Object

    0x40035440        -       0x00000040   Zero   RW         4486    .ARM.__AT_0x40035440  txf5200.o



  Load Region LR$$.ARM.__AT_0x40035480 (Base: 0x40035480, Size: 0x00000000, Max: 0x00000040, ABSOLUTE)

    Execution Region ER$$.ARM.__AT_0x40035480 (Exec base: 0x40035480, Load base: 0x40035480, Size: 0x00000040, Max: 0x00000040, ABSOLUTE, UNINIT)

    Exec Addr    Load Addr    Size         Type   Attr      Idx    E Section Name        Object

    0x40035480        -       0x00000040   Zero   RW         4487    .ARM.__AT_0x40035480  txf5200.o



  Load Region LR$$.ARM.__AT_0x400354C0 (Base: 0x400354c0, Size: 0x00000000, Max: 0x00000040, ABSOLUTE)

    Execution Region ER$$.ARM.__AT_0x400354C0 (Exec base: 0x400354c0, Load base: 0x400354c0, Size: 0x00000040, Max: 0x00000040, ABSOLUTE, UNINIT)

    Exec Addr    Load Addr    Size         Type   Attr      Idx    E Section Name        Object

    0x400354c0        -       0x00000040   Zero   RW         4488    .ARM.__AT_0x400354C0  txf5200.o



  Load Region LR$$.ARM.__AT_0x40035500 (Base: 0x40035500, Size: 0x00000000, Max: 0x00000040, ABSOLUTE)

    Execution Region ER$$.ARM.__AT_0x40035500 (Exec base: 0x40035500, Load base: 0x40035500, Size: 0x00000040, Max: 0x00000040, ABSOLUTE, UNINIT)

    Exec Addr    Load Addr    Size         Type   Attr      Idx    E Section Name        Object

    0x40035500        -       0x00000040   Zero   RW         4489    .ARM.__AT_0x40035500  txf5200.o



  Load Region LR$$.ARM.__AT_0x40036000 (Base: 0x40036000, Size: 0x00000000, Max: 0x00000264, ABSOLUTE)

    Execution Region ER$$.ARM.__AT_0x40036000 (Exec base: 0x40036000, Load base: 0x40036000, Size: 0x00000264, Max: 0x00000264, ABSOLUTE, UNINIT)

    Exec Addr    Load Addr    Size         Type   Attr      Idx    E Section Name        Object

    0x40036000        -       0x00000264   Zero   RW         4490    .ARM.__AT_0x40036000  txf5200.o



  Load Region LR$$.ARM.__AT_0x40036300 (Base: 0x40036300, Size: 0x00000000, Max: 0x00000060, ABSOLUTE)

    Execution Region ER$$.ARM.__AT_0x40036300 (Exec base: 0x40036300, Load base: 0x40036300, Size: 0x00000060, Max: 0x00000060, ABSOLUTE, UNINIT)

    Exec Addr    Load Addr    Size         Type   Attr      Idx    E Section Name        Object

    0x40036300        -       0x00000060   Zero   RW         4491    .ARM.__AT_0x40036300  txf5200.o



  Load Region LR$$.ARM.__AT_0x40036360 (Base: 0x40036360, Size: 0x00000000, Max: 0x00000060, ABSOLUTE)

    Execution Region ER$$.ARM.__AT_0x40036360 (Exec base: 0x40036360, Load base: 0x40036360, Size: 0x00000060, Max: 0x00000060, ABSOLUTE, UNINIT)

    Exec Addr    Load Addr    Size         Type   Attr      Idx    E Section Name        Object

    0x40036360        -       0x00000060   Zero   RW         4492    .ARM.__AT_0x40036360  txf5200.o



  Load Region LR$$.ARM.__AT_0x400363C0 (Base: 0x400363c0, Size: 0x00000000, Max: 0x00000060, ABSOLUTE)

    Execution Region ER$$.ARM.__AT_0x400363C0 (Exec base: 0x400363c0, Load base: 0x400363c0, Size: 0x00000060, Max: 0x00000060, ABSOLUTE, UNINIT)

    Exec Addr    Load Addr    Size         Type   Attr      Idx    E Section Name        Object

    0x400363c0        -       0x00000060   Zero   RW         4493    .ARM.__AT_0x400363C0  txf5200.o



  Load Region LR$$.ARM.__AT_0x40036420 (Base: 0x40036420, Size: 0x00000000, Max: 0x00000030, ABSOLUTE)

    Execution Region ER$$.ARM.__AT_0x40036420 (Exec base: 0x40036420, Load base: 0x40036420, Size: 0x00000030, Max: 0x00000030, ABSOLUTE, UNINIT)

    Exec Addr    Load Addr    Size         Type   Attr      Idx    E Section Name        Object

    0x40036420        -       0x00000030   Zero   RW         4494    .ARM.__AT_0x40036420  txf5200.o



  Load Region LR$$.ARM.__AT_0x40036450 (Base: 0x40036450, Size: 0x00000000, Max: 0x00000030, ABSOLUTE)

    Execution Region ER$$.ARM.__AT_0x40036450 (Exec base: 0x40036450, Load base: 0x40036450, Size: 0x00000030, Max: 0x00000030, ABSOLUTE, UNINIT)

    Exec Addr    Load Addr    Size         Type   Attr      Idx    E Section Name        Object

    0x40036450        -       0x00000030   Zero   RW         4495    .ARM.__AT_0x40036450  txf5200.o



  Load Region LR$$.ARM.__AT_0x40036480 (Base: 0x40036480, Size: 0x00000000, Max: 0x00000030, ABSOLUTE)

    Execution Region ER$$.ARM.__AT_0x40036480 (Exec base: 0x40036480, Load base: 0x40036480, Size: 0x00000030, Max: 0x00000030, ABSOLUTE, UNINIT)

    Exec Addr    Load Addr    Size         Type   Attr      Idx    E Section Name        Object

    0x40036480        -       0x00000030   Zero   RW         4496    .ARM.__AT_0x40036480  txf5200.o



  Load Region LR$$.ARM.__AT_0x40037000 (Base: 0x40037000, Size: 0x00000000, Max: 0x00000140, ABSOLUTE)

    Execution Region ER$$.ARM.__AT_0x40037000 (Exec base: 0x40037000, Load base: 0x40037000, Size: 0x00000140, Max: 0x00000140, ABSOLUTE, UNINIT)

    Exec Addr    Load Addr    Size         Type   Attr      Idx    E Section Name        Object

    0x40037000        -       0x00000140   Zero   RW         4497    .ARM.__AT_0x40037000  txf5200.o



  Load Region LR$$.ARM.__AT_0x40038000 (Base: 0x40038000, Size: 0x00000000, Max: 0x00000258, ABSOLUTE)

    Execution Region ER$$.ARM.__AT_0x40038000 (Exec base: 0x40038000, Load base: 0x40038000, Size: 0x00000258, Max: 0x00000258, ABSOLUTE, UNINIT)

    Exec Addr    Load Addr    Size         Type   Attr      Idx    E Section Name        Object

    0x40038000        -       0x00000258   Zero   RW         4498    .ARM.__AT_0x40038000  txf5200.o


==============================================================================

Image component sizes


      Code (inc. data)   RO Data    RW Data    ZI Data      Debug   Object Name

       548         68          0         24          0      11749   eflash.o
      2004        138          0        165       3572      71759   main.o
      5410        244          0          0        364      41536   proto.o
         0          0          0          0       4096        732   save_printf.o
       264         44          0          5       1382       4220   serial.o
      1736        104          0          5          0      14442   slave.o
       516        264        228          0          0       2750   tx_phe_assert.o
       168         32          0         20          0      37816   tx_phe_debug.o
      1258         72          0          0          0      63152   tx_phe_irq.o
         0          0          0          0          0       3476   tx_phe_ll_can.o
      1050         52         16          0          0       5169   tx_phe_ll_cc_rst.o
       958        352          0          0          0      18069   tx_phe_ll_eflash.o
       320        146          0          0          0       2017   tx_phe_ll_gpio.o
      1456        284          0          0          0       4507   tx_phe_ll_timer.o
       658        216          0          0          0       3612   tx_phe_ll_usart.o
       124         14          0          0          0       1232   tx_phe_misc.o
        20          0        316          0          0       2143   tx_phe_startup.o
      1756        914          0        408          0      43254   tx_phe_system.o
         0          0          0          0       7116       2652   txf5200.o
       156         10          0          9        500       3895   user.o
       208         30          0          0         12       2475   utimer.o

    ----------------------------------------------------------------------
     18666       2984        624        640      32460     340657   Object Totals
        40          0         64          0       1024          0   (incl. Generated)
        16          0          0          4      14394          0   (incl. Padding)

    ----------------------------------------------------------------------

      Code (inc. data)   RO Data    RW Data    ZI Data      Debug   Library Member Name

        86          0          0          0          0          0   __dczerorl2.o
         0          0          0          0          0          0   entry.o
         0          0          0          0          0          0   entry10a.o
         0          0          0          0          0          0   entry11a.o
         4          0          0          0          0          0   entry12b.o
         8          4          0          0          0          0   entry4.o
         4          0          0          0          0          0   entry5.o
         0          0          0          0          0          0   entry7b.o
         0          0          0          0          0          0   entry8b.o
         8          4          0          0          0          0   entry9a.o
        30          0          0          0          0          0   handlers.o
        36          8          0          0          0         68   init.o
        30          0          0          0          0         68   llshl.o
        32          0          0          0          0         68   llushr.o
        36          0          0          0          0         68   memcpya.o
        36          0          0          0          0        108   memseta.o
      1142         54          0          0          0        352   printf8.o
        98          0          0          0          0         92   uldiv.o

    ----------------------------------------------------------------------
      1554         70          0          0          0        824   Library Totals
         4          0          0          0          0          0   (incl. Padding)

    ----------------------------------------------------------------------

      Code (inc. data)   RO Data    RW Data    ZI Data      Debug   Library Name

      1550         70          0          0          0        824   mc_w.l

    ----------------------------------------------------------------------
      1554         70          0          0          0        824   Library Totals

    ----------------------------------------------------------------------

==============================================================================


      Code (inc. data)   RO Data    RW Data    ZI Data      Debug   

     20220       3054        624        640      32460     333081   Grand Totals
     20220       3054        624        260      32460     333081   ELF Image Totals (compressed)
     20220       3054        624        260          0          0   ROM Totals

==============================================================================

    Total RO  Size (Code + RO Data)                20844 (  20.36kB)
    Total RW  Size (RW Data + ZI Data)             33100 (  32.32kB)
    Total ROM Size (Code + RO Data + RW Data)      21104 (  20.61kB)

==============================================================================

