:020000040800F2
:1000000000200020B1530008DFF80CD000F00EFBF8
:100010000048004701E001080020002040EA0103F9
:100020009B0703D009E008C9121F08C0042AFAD2AE
:1000300003E011F8013B00F8013B521EF9D2704772
:10004000D2B201E000F8012B491EFBD2704700221A
:10005000F6E710B513460A4604461946FFF7F0FFC7
:10006000204610BD421C10F8011B0029FBD1801A4C
:10007000704710B5002200E0521C835C8C5CA342E8
:1000800001D1002BF8D1D8B2E1B2401A10BD30B581
:1000900005460020034600E05B1C934205D2EC5C61
:1000A000C85C201A01D1002CF6D130BD2DE9FE4FDD
:1000B000804681EA0300C00F0C46009021F0004109
:1000C00023F00045B8EB0200A94105D24046214685
:1000D00090461C460B46024623F00040104347D092
:1000E000270DC7F30A00C3F30A510290401A01908A
:1000F00040286BDAC3F3130040F4801B009892464B
:1001000020B10023D2EB030A63EB0B0B0198594695
:10011000C0F14002504600F0C3F906460D46504675
:100120005946019A00F0DBF910EB08006141002408
:1001300087EA115284EAE7731A4340D0009A62B307
:10014000019A012A4FEA075215DC001B61EB0201FC
:100150004FF0004202EA0752CDE90042001C41F58F
:10016000801132462B4600F012FA03B0BDE8F08F42
:1001700040462146F9E7001B61EB0201001C41F5F6
:10018000801300185B412018A2F5001747EB03010C
:1001900040EAD570B6196D4111E06D084FEA360698
:1001A00045EAC0754FEA0752001B61EB0201001CD3
:1001B00041F5801149084FEA30000019514132469B
:1001C0002B4603B0BDE8F04F00F0D2B900980122F1
:1001D00040000023D0EB020263EBE073009821465D
:1001E0004FEAE074B8EB000061EB0401E9E783F04B
:1001F00000435BE781F0004158E72DE9FE4F81EABB
:10020000030404F0004421F0004100944FF0000B7F
:1002100023F0004350EA01045ED052EA03045BD0AD
:10022000C3F30A54C1F30A552C44A4F2F3340194E5
:10023000A0FB0254C1F3130141F48011C3F3130373
:1002400043F4801301FB024400FB034E840A970A27
:1002500044EA815447EA8357A4FB076802958D0A54
:1002600005FB07854FEA932C04FB0C542705029DE0
:100270004FEA065847EA1637B5EB08056EEB070C50
:10028000870E920E47EA811742EA8312A7FB02010A
:10029000B6EB0B0164EB00042B0D43EA0C335E1844
:1002A00044EB1C50DA465146E7FB0201C5F3130448
:1002B0004FEA0B3343EA14534FEA0432019C43EAFA
:1002C0000603A4F10C040294009CCDE900B400F0F4
:1002D0005EF903B0BDE8F08F00200146F9E72DE993
:1002E000F04D81EA030404F0004B21F00045144670
:1002F0004FF0000A23F0004150EA050220D054EAF2
:1003000001021DD0C5F30A570246C5F31303C1F31A
:100310001300C1F30A5640F4801543F48013A7EB91
:100320000608101BD64608F2FD3873EB050002D311
:1003300008F1010801E092185B41B8F1000F03DAFF
:1003400000200146BDE8F08D00204FF480110646E4
:1003500084460EE0171B73EB050705D3121B63EBF6
:10036000050306434CEA010C49084FEA3000921895
:100370005B4150EA0107EDD152EA030012D082EA54
:10038000040083EA0501084305D0101BAB4106D2E7
:100390000122002306E000224FF0004302E06FF04C
:1003A000010253101AEB06004CEB085110EB0A0047
:1003B00041EB0B01BDE8F04D00F0DAB80EB5C10F0E
:1003C00080EAE0700844CA07002140F233438DE818
:1003D0000E000A460B4600F0DAF803B000BD0EB579
:1003E00040F2334102910021CDE900110A460B464B
:1003F00000F0CDF803B000BD70B5C1F30A5201F0B2
:1004000000450024C1F3130140F2FF3341F4801191
:100410009A4201DA002070BD40F233439A42A2F2C0
:10042000334203DC524200F04AF800E090402C4393
:10043000F1D0404270BDC1F30A5210B5C1F31301AF
:1004400040F2FF3341F480119A4201DA002010BDDE
:1004500040F233439A42A2F2334203DC524200F0AC
:100460002EF810BD904010BD01F0004330B421F0D3
:10047000004150EA010206D00A0DA2F56072C1F3F4
:100480001301002A02DC30BC00207047440F44EA0C
:10049000C104C100E01830BC00EBC25000F031B81C
:1004A000202A04DB203A00FA02F100207047914034
:1004B000C2F1200320FA03F3194390407047202A29
:1004C00004DB203A21FA02F00021704721FA02F3FE
:1004D000D040C2F120029140084319467047202ABB
:1004E00006DBCB17203A41FA02F043EAE07306E05C
:1004F00041FA02F3D040C2F120029140084319466C
:1005000070470029A8BF7047401C490008BF20F071
:100510000100704710B4B0FA80FC00FA0CF050EA09
:10052000010404BF10BC704749B1CCF1200421FA8A
:1005300004F411FA0CF118BF012121430843A3EB85
:100540000C01CB1D4FEA00614FEA102042BF002092
:1005500010BC704700EBC35010440029A4BF10BC6E
:100560007047401C490008BF20F0010010BC7047D4
:1005700010B5141E73F1000408DA401C41F10001AB
:1005800092185B411A4301D120F0010010BD2DE902
:10059000F04D92469B4611B1B1FA81F202E0B0FAF9
:1005A00080F220329046FFF77BFF04460F4640EA78
:1005B0000A0041EA0B0153465A46084313D011463C
:1005C00053EA010019D0C8F140025046FFF777FF07
:1005D00005460E46504659464246FFF761FF08431E
:1005E00005D0012004E020463946BDE8F08D00200A
:1005F000054346EAE0762C4337430A986305E40A4C
:10060000A0EB08000022FD0A44EA47540A3002D554
:1006100000200146E9E7010510196941DDE90845B7
:1006200000196941BDE8F04DA2E70000064C074DF6
:1006300006E0E06840F0010394E8070098471034B2
:10064000AC42F6D3FFF7E4FC68600008B86000082D
:1006500030B58C1810F8012B12F00F0301D110F8EF
:10066000013B120906D110F8012B03E010F8015BE1
:1006700001F8015B5B1EF9D101E001F8013B521E5C
:10068000FBD1A142E6D3002030BD00002DE9F04FA0
:100690008FB04FF0005048F2004401900F20C4F298
:1006A0000304002700904FF48070A4F580650BAE22
:1006B000CDE90B77CDE90D774FF00109ADF83000AA
:1006C000284631468DF82670CDE9047706978DF8D7
:1006D0002F908DF8347000F013FF2046314600F063
:1006E0000FFF40F20110ADF82700152009AE8DF87C
:1006F000290028463146ADF8247001F095F84FF0F6
:100700000208204631468DF8278001F08DF84FF41D
:10071000706007AE0790284631468DF8207000F0D3
:10072000F1FF40F20130ADF81C002846314600F0E0
:10073000E9FF41F20200ADF81C002046314600F00E
:10074000E1FF4FF4A060ADF81C002046314600F0F8
:10075000D9FF40F20140ADF81C002046314600F0C0
:10076000D1FF40F20F10C0F20100039042F20620C8
:10077000C2F2000003AE0590284631468DF8107095
:10078000ADF8189000F01AFE42F20820C2F2000004
:100790004FF003090590284631468DF80C9000F083
:1007A0000DFE42F20020C2F200004FF0100A059048
:1007B000204631468DF80CA000F000FE42F20220E7
:1007C000C2F200004FF0050B0590204631468DF82F
:1007D0000CB000F0F3FD42F20420C2F20000042746
:1007E0000590204631468DF80C7000F0E7FD6E460E
:1007F0002846314600F062FD284631468DF80090CB
:1008000000F05CFD204631468DF800A000F056FD5A
:10081000204631468DF800B000F050FD20463146AC
:100820008DF8007000F04AFD4FF61440CFF6FF70CF
:1008300044F800800FB0BDE8F08F0000B0B504F0C0
:10084000BDFF04F0EBFD42F2E210C2F20000002115
:10085000017000F083FB00F00FFC00F093FB45F209
:100860000004C4F2020404F5805528464FF40051F8
:1008700001F05EFE0138B0FA80F0420942F2D81071
:10088000C2F2000042704178017028464FF40061C6
:1008900001F066FE04F082FFFFF7F8FE00F0F4FBC3
:1008A000032002F0D3FC3F200321002202F09CFC35
:1008B00040200221002202F097FC1F20002100228C
:1008C00002F092FC48F20000C4F203000168012229
:1008D00041F004010160D0F8001441F00401C0F8B7
:1008E00000142046082101F03BFE20461021012281
:1008F000BDE8B04001F034BEFEE700002DE9F04154
:1009000084B04AF20004C4F2030404F5E06501AEC9
:1009100000274FF00308284631460297ADF80C70C7
:1009200001978DF80B8000F0D3FF284601F032F9D3
:1009300004F5807528463146ADF80B8000F0C8FFFD
:10094000284601F027F942F2D810C2F2000041789F
:1009500004F5007571B14078012824D122460127A1
:100960004FF00208002003212C4615468DF8067032
:1009700002E000BF0120022101AE8DF80B108DF8BE
:100980000C002046314600F0A3FF204601F002F99A
:10099000284631468DF80B808DF80C7000F098FFDA
:1009A000284601F0F7F84FF47A7000BF00BF00BF8F
:1009B00000BF00BF00BF00BF00BF00BF00BF00BF3F
:1009C00000BF00BF00BF00BF00BF00BF00BF00BF2F
:1009D00000BF00BF00BF00BF00BF00BF00BF00BF1F
:1009E00000BF00BF00BF00BF00BF00BF00BF00BF0F
:1009F00000BF00BF00BF00BF00BF00BF00BF00BFFF
:100A000000BF00BF00BF00BF00BF00BF00BF323843
:100A100000BFCBD104B0BDE8F081000000000000B1
:100A2000B0B542F2F815C2F20005287843F200048E
:100A30005528C4F2000440F0F0806878AA2840F0FD
:100A4000EC80E879AB2840F0E880A87801380828E5
:100A500000F2E380DFE800F006102856841A8EE1E9
:100A6000AE0000BFB5F8030042F2103100BA000C2E
:100A7000C2F200010880D0E0B5F8030042F2103164
:100A800000BA000CC2F200014880C6E0B5F80300CD
:100A900042F2DF0140BA484342F21031000CC2F288
:100AA0000001C881B9E000BFE8784FF6F67302098B
:100AB00000F00F002979C0EBC030C0F2040302FB44
:100AC00003000A0940F6CC4312FB030001F00F01BA
:100AD00040F2471211FB0200FFF770FC9FED5E0B26
:100AE00053EC102BFFF789FBFFF7A5FC42F2103106
:100AF000C2F2000188808A8846F65760824228BF89
:100B000088808AE0E8784FF6F673020900F00F005B
:100B10002979C0EBC030C0F2040302FB03000A09CC
:100B200040F6CC4312FB030001F00F0140F24712E4
:100B300011FB0200FFF742FC9FED450B53EC102B1D
:100B4000FFF75BFBFFF777FC42F21031C2F20001C6
:100B5000C880CA8842F2AB70824228BFC8805CE07D
:100B6000B5F8030042F2103100BA000CC2F20001E5
:100B7000888152E042F2D810C2F200000121817057
:100B800042F2342042F21032C2F200000021C2F2DE
:100B9000000246F6CC0380F87810138042F2C4328B
:100BA000C2F2000281641161D1605161116280F86A
:100BB0004E1032E0E878012808D070BB42F2E21013
:100BC000C2F200000021017027E000BF42F2E210F3
:100BD000C2F2000001210170204603F081FC42F2C4
:100BE0003000C4F202000021112240F8301C40F80D
:100BF0002C1C40F8281C40F8241C40F8201C40F80D
:100C00001C2C40F8101C40F80C1C40F8081C40F844
:100C1000041C0160426004F059FB002068602860F9
:100C2000A06B000558BFB0BDA06B40F40060A0638E
:100C300042F23000C4F20200016821F001010160BB
:100C4000206840F008002060B0BD00BF00BF00BFBA
:100C5000B4FA5241AB2F953F892A7512D70C903FB9
:100C600044F20000C4F20200016841F480710160A6
:100C700042F2D811C2F200014A782AB1497801291A
:100C80000AD1042101E000BF082142F23422C2F25D
:100C90000002936C194391644BF61C71C4F203017A
:100CA0004FF6FF720A60016841F080710160704781
:100CB00042F2D810C2F20000417829B140780128F0
:100CC0000AD1022001E000BF012042F23421C2F229
:100CD00000018A6C104388644BF61C70C4F2030058
:100CE0004FF6FF710160704742F2D810C2F2000067
:100CF000417829B1407801280AD1012001E000BFE4
:100D0000022042F23421C2F200018A6C104388644E
:100D10004BF61C70C4F203004FF6FF710160704780
:100D200042F2D810C2F20000417829B1407801287F
:100D30000AD1082001E000BF042042F23421C2F2AF
:100D400000018A6C104388644BF61C70C4F20300E7
:100D50004FF6FF71016070472DE9F04182B000202D
:100D60008DF80600ADF8040042F2D810C2F200007F
:100D7000417839B14078012841D140F2971840F2CA
:100D8000811703E040F6BA684FF46D6749F200043A
:100D9000C4F2030404F5407601AD3046294600F064
:100DA00009FF3046394600F0B1FF304600F09EFFA3
:100DB0002046294600F0FEFE2046414600F0A6FFF0
:100DC000204600F093FF04F5E0663046294600F027
:100DD000F1FE304640F6CB6100F098FF304600F05F
:100DE00085FF04F580742046294600F0E3FE204686
:100DF00040F6CB6100F08AFF204600F077FF4FF409
:100E00007A7000BF00BF00BF00BF00BF00BF00BFBF
:100E100000BF00BF00BF00BF00BF00BF00BF00BFDA
:100E200000BF00BF00BF00BF00BF00BF00BF00BFCA
:100E300000BF00BF00BF00BF00BF00BF00BF00BFBA
:100E400000BF00BF00BF00BF00BF00BF00BF00BFAA
:100E500000BF00BF00BF00BF00BF00BF00BF00BF9A
:100E600000BF00BF00BF323800BFCBD102B0BDE829
:100E7000F081000070470000FEE70000B0B543F2CB
:100E80000004C4F20204A0421CBF0520B0BD0D4600
:100E900029B120464FF4967101F0ECF810B1012011
:100EA000B0BD00BF206A65F3155020622068B0F124
:100EB000FF3F0CDC606A43F6AC7161F30F006062C7
:100EC000606A48F2E47161F30F0060622068206894
:100ED00040F00200206001F05BFBA168490709D0E7
:100EE0000720A0602068B0F1FF3F4FF0010017DC41
:100EF000B0BD00BF054600BF01F04AFB401BB0F586
:100F0000967FEFD82068800704D5A0684007F3D00B
:100F1000E6E700BF206800284FF0000048BFB0BDE2
:100F2000216841F0004121602168B0BD43F200001A
:100F3000C4F2020000F00CBF00F17840030B084639
:100F40006FF31F304042B0EB113243F20000C4F2A5
:100F50000200194618BF012200F028BF43F24000EA
:100F6000C4F2020001680A2262F31B61016070474B
:100F700013460A46014643F20000C4F2020000F0A4
:100F8000C7BF00002DE9F04184B045F20004C4F26F
:100F9000020448F6404004F5805601AD4FF00108C8
:100FA00000270190304629468DF80880CDF8097059
:100FB00001F0E6F94FF4C0400190304629468DF823
:100FC000087001F0DDF930464021002201F0C8FA36
:100FD00030464FF48061002201F0C2FA30464FF4EF
:100FE0000041002201F0BCFA48F21170A4F58056CD
:100FF0000190304629468DF8088001F0C1F930464D
:101000000121002201F0ACFA30461021002201F04B
:10101000A7FA30464FF48061002201F0A1FA304671
:101020004FF40041002201F09BFA40F63C60019031
:101030002046294601F0A4F920460421002201F0AF
:101040008FFA20462021002201F08AFA20464FF430
:101050000071002201F084FA20464FF480610022E2
:1010600001F07EFA20464FF40061002201F078FA88
:1010700004B0BDE8F081000042F27810C2F2000036
:1010800000210160704700002DE9F04FA3B018AEB9
:1010900030462821FEF7DBFF0DF10C0900274846FA
:1010A0002C21ADF85C701697CDE91477CDE9127755
:1010B000CDE91077FEF7CBFF4BF20004C4F2030436
:1010C00020468DF8017001F057FC43F63F00ADF863
:1010D000660040F201101C902046092132468DF82E
:1010E00065701A97ADF861708DF8637001F0D4FDEA
:1010F0002046022132464FF0020A01F0CDFD204683
:101100000321324601F0C8FD47F27F00ADF86600CA
:1011100020460021324601F0BFFD6420C0F2D020FD
:10112000CDF84A0040F22030C1F6BC3012AE4FF08C
:101130000108CDF84E002046092132468DF848803E
:101140008DF8548001F0E6FE20460021324601F081
:10115000E1FE20460221324601F0DCFE4FF44870E9
:10116000ADF84E0020460321324601F0D3FE4FF089
:10117000040B08251026204603214A46CDF81CA062
:10118000CDF820B0ADF824708DF826A00B950C9604
:10119000ADF834708DF836A08DF80F70059701F01A
:1011A00065FC204602214A46CDE907ABCDE90B5646
:1011B00001F05CFC40F20010C0F20100CDF802002A
:1011C0004FF480306D46CDF80600204603212A46B4
:1011D0008DF80070ADF80A7001F00CFB204600217C
:1011E0002A468DF8088001F005FB204604212A4696
:1011F0008DF8088001F0FEFA204606212A468DF877
:10120000088001F0F7FA4FF480500E904FF4807090
:10121000ADF840000EAA204600210F978DF84280BD
:1012200001F0BCF9D4F8000440F00060C4F80004F8
:10123000D4F8000340F00060C4F80003206840F0D8
:10124000006020604BF60870C4F20300016841F0B2
:10125000010101602046092101F0C4FB2046002164
:1012600001F0C0FB2046022101F0BCFB2046032117
:1012700001F0B8FB204601F0A7FA606840F4D810EE
:10128000606023B0BDE8F08F4BF61C70C4F2030021
:101290004FF6FF710160704710B54BF20004C4F2C5
:1012A00003042046022101F0D5FC20460321BDE8BD
:1012B000104001F0CFBC0000FEE70000B0B50029EF
:1012C0004FF0050C77D048F2000EC4F2030E0EF575
:1012D0008063A0EB0E02C31AB2FA82F2B3FA83F370
:1012E00052095B091A430EF50063C31AB3FA83F37C
:1012F0005B091A430EF54063C31AB3FA83F35B0923
:101300001A4358D00B78132B04D891F801C0BCF1C4
:10131000030F01D90520B0BD026852075CBF026807
:101320005FEA027202D50220B0BD00BF4AF6AB22CE
:101330004FEAD30ECAF6AA22AEFB022E0EF01E0210
:1013400002EB5E02C2EBD30200EB82021C24D2F855
:1013500030E004EA830303249C402EEA040E0CFAD6
:1013600003F444EA0E041463D2F830E0033301249A
:101370008D789C402EEA040405FA03F3234313639B
:101380008A880CF0030300EB8300C0F8A02041F230
:101390004002C4F202021268C98802F47F0243F6D6
:1013A000FF73B2F5003F88BF47F6FF7319404FF057
:1013B000000CC0F8C0106046B0BD000070B5002938
:1013C0004FF0050C00F09A8048F2000EC4F2030EB4
:1013D0000EF58063A0EB0E02C31AB2FA82F2B3FAE2
:1013E00083F352095B091A430EF50063C31AB3FA7B
:1013F00083F35B091A430EF54063C31AB3FA83F310
:101400005B091A437AD00B78132B84BF052070BD7B
:10141000026852075CBF02685FEA027202D50220CE
:1014200070BD00BF4CF6CD42CCF6CC42A3FB022CE3
:101430004FEA1C1202EB8202D1F808E000F5C875F1
:10144000A3EB820C05EB0C1341F24004C3F804E05B
:10145000C4F20204D4F800E08C890EF47F0E264614
:101460006FF35F364FEA0C12BEF5003F88BF264689
:101470009E60AB584E7823F0040306F03F0643EA23
:1014800086038C7891F803E0AB50AB5804F01F044E
:1014900023F0080343EAC403AB50012202FA0CF321
:1014A000D0F88421BEF1000F0CBF9A431A43C0F854
:1014B00084210A78CD265643360B06EB86060B7937
:1014C000A2EB8602D2B20126002B06FA02F3D0F874
:1014D0008C210CBF9A431A43C0F88C210878CD2187
:1014E0004143090B01EB8101A0EB8100C0B2000177
:1014F00029584FF0000C41F001012950604670BDA1
:1015000070B5044600294FF0050000F0B3800D4689
:1015100048F20001C4F2030101F58063621AE31A84
:10152000B2FA82F2B3FA83F352095B091A4301F566
:101530000063E31A01F54061B3FA83F3611A5B09B2
:10154000B1FA81F11A434909114300F093802068F0
:1015500040075CBF20685FEA007001D5022070BDC3
:10156000E86845F6EC06C0F60006002818BF0646F7
:10157000204600F081F8A06840F00800A060A06854
:1015800040F00200A060A06840F00100A060D4F824
:101590000003298861F31120C4F80003D4F8000384
:1015A000A97861F30300C4F800036068E97861F387
:1015B000CF306060A068317861F30510A06041F21F
:1015C0004000C4F20200006800F47F00B0F5003F64
:1015D00008D970786168002821F4804118BF01F5AE
:1015E00080416160206840075CBF20685FEA00704E
:1015F000B4D46068697961F30B2060606068A97990
:1016000061F3061060606068E97920F0800001F005
:10161000010140EAC1106060287A616821F001018F
:1016200008436060687A6168002821F0020118BFF1
:101630000231616028796168002821F4805118BF67
:1016400001F580516160206840F00100206000F0E9
:101650009FFF05462069C00508D400F099FF401B94
:1016600064284FF0030088BF70BDF3E74FF480702B
:101670002061002070BD0000B0B584B0002103914E
:10168000CDE9011148F20041C4F2030188424FF054
:101690000F018DF808101FD048F20001C4F20301B9
:1016A00088422DD144F200040620C4F2020401ADA8
:1016B00001902046294600F063FE0120019004F5C8
:1016C0008050294600F05CFE01F0D4FD402001F07E
:1016D00077FD04B0B0BD00BF44F200048020C4F226
:1016E000020401AD01902046294600F049FE102079
:1016F000019004F50050294600F042FE01F0D2FDB1
:1017000004B0B0BDF0B500294FF0050C00F08A80A0
:1017100048F2000EC4F2030E0EF58063A0EB0E0239
:10172000C31AB2FA82F2B3FA83F352095B091A437D
:101730000EF50063C31AB3FA83F35B091A430EF57F
:101740004063C31AB3FA83F35B091A436AD04B7838
:10175000132B04D891F800E0BEF10F0F02D9052039
:10176000F0BD00BF0268520744BF0220F0BD4FF039
:10177000CD0C0EFB0CF2C2F38124920A02EB820222
:10178000AEEB020202EB420200EB84045200266C34
:10179000D2B21F259540AE4303FA02F232432264CF
:1017A00086694FF0010ECC780EFA03F5AE4304F0D3
:1017B000010505FA03F3334383614B78AB24DD085D
:1017C00065436D0A05EB4505C5EBD305EDB28E7893
:1017D000097900EB85051C222C6A02EA830207279F
:1017E000974001F00701BC4391402143296203FB6C
:1017F0000CF1090B01EB8101A3EB8101C9B20EFAD7
:1018000001F13EB1D0F804211143C0F804110020C9
:10181000F0BD00BFD0F804214FF0000C22EA010116
:10182000C0F804116046F0BD80B500294FF0050CEA
:101830004BD048F2000EC4F2030E0EF58063A0EB0D
:101840000E02C31AB2FA82F2B3FA83F352095B09A9
:101850001A430EF50063C31AB3FA83F35B091A4304
:101860000EF54063C31AB3FA83F35B091A432CD015
:101870000268520744BF022080BD42684B784FF097
:10188000000C63F3D752426042688B7863F3534293
:1018900042600A784368002A23F4803318BF03F5B6
:1018A00080334360026DCB7863F30B220265026DD7
:1018B0000B7922F0C00203F0030342EA83120265AF
:1018C000026D497961F304020265604680BD000043
:1018D00070B5044600294FF0050000F09B800D46CE
:1018E0004AF20001C4F2030101F58073621AE31A9F
:1018F000B2FA82F2B3FA83F352095B091A4301F593
:101900000073E31AB3FA83F35B091A4301F54073DA
:10191000E31AB3FA83F35B091A4301F58063E31A10
:10192000B3FA83F35B091A4301F5A063E31AB3FA30
:1019300083F35B091A4301F5C063E31AB3FA83F337
:101940005B091A4301F5E063E31A01F50061B3FA9C
:1019500083F3611A5B09B1FA81F11A434909114312
:10196000C90708BF70BD41F240062046C4F2020616
:1019700000F05AF8206820F001002060306800F480
:101980007F00B0F5003F0DD9687A3168002801F476
:101990007F0041D0B0F5003F09D9206840F40060D5
:1019A00004E000BF2068A97961F3CB2020602068A3
:1019B000E97920F0C00001F0030140EA81102060C5
:1019C0002068297A61F3C30020602068297961F3D7
:1019D000051020602068697961F30A202060E878AA
:1019E00060602878A16821F001010843A060687850
:1019F000A168002821F0020118BF0231A160A87877
:101A00002168002821F480514FF0000018BF01F533
:101A10008051216070BD00BFB0F5003FC7D920687C
:101A200020F40060C2E7000010B584B0044601F065
:101A300095FCA4F18040A0F568304FEA30200021E9
:101A40000828CDE90211019100F2A280DFE800F040
:101A50000618223444546478880000BF4FF40060B4
:101A600001900D208DF8080046F20000C4F202003B
:101A7000A0F5005401A9204600F082FC02207FE07E
:101A80008020019046F20000C4F20200A0F500544C
:101A900077E000BF042046F2000401900E20C4F25B
:101AA00002048DF8080001A9204600F069FC01201D
:101AB0000190A4F5005464E0202046F20004019057
:101AC0000E20C4F202048DF80800A4F5005001A90C
:101AD00000F056FC01202FE0802046F20004019027
:101AE0000C20C4F202048DF8080001A9204600F081
:101AF00047FC4FF400501FE0402046F200040190E4
:101B00000C20C4F202048DF8080001A9204600F060
:101B100037FC4FF400600FE04FF4807046F2000491
:101B200001900C20C4F202048DF8080001A920469F
:101B300000F026FC4FF480400190A4F5805420E092
:101B40004FF4007046F2000401900C20C4F202042D
:101B50008DF8080001A9204600F012FC10200FE0CB
:101B60004FF4005046F2000401900D20C4F202042C
:101B70008DF80800A4F5005001A900F001FC202018
:101B800001900F208DF8080001A9204600F0F8FB15
:101B900004B010BDA0F18041A1F568314FEA3121B8
:101BA000082984BF05207047016841F001010160E8
:101BB00000207047B0B5044600294FF0050064D0FE
:101BC0000D4649F20001C4F2030101F58073621A67
:101BD000E31AB2FA82F2B3FA83F352095B091A43A9
:101BE00001F50073E31AB3FA83F35B091A4301F5B5
:101BF0004073E31AB3FA83F35B091A4301F5806378
:101C0000E31AB3FA83F35B091A4301F5A063E31AFD
:101C1000B3FA83F35B091A4301F5C063E31AB3FA1D
:101C200083F35B091A4301F5E063E31A01F50061F0
:101C3000B3FA83F3611A5B09B1FA81F11A434909D6
:101C40001143C90708BFB0BD204600F01FF8206847
:101C500020F00100206028782168002821F0080188
:101C600018BF0831216068782168002821F004013C
:101C700018BF04312160A8782168002821F00201F2
:101C80004FF0000018BF02312160B0BD10B584B024
:101C9000044601F077FB00200390CDE9010049F2F2
:101CA0000020C4F2030084424FF00F008DF80800BA
:101CB0000ED049F20010C4F2030084420AD049F267
:101CC0000000C4F2030084420DD1102003E000BFE5
:101CD000402000E02020019044F20000C4F2020005
:101CE00001A900F04DFB04B010BD0000A0F180413F
:101CF000A1F564314FEA3121082984BF05207047DE
:101D0000016841F00101016000207047A0F18042AC
:101D1000A2F564324FEA3222082A8FBF05206FF302
:101D20001F31416000207047B0B5044600F030FC20
:101D3000054647F28410C2F20000007814F1020F49
:101D400038BF044400F024FC401BA042FAD3B0BDCD
:101D5000014643F20000C4F2020081421CBF05208C
:101D600070474EF24001CFF6FF71415801F47F01F8
:101D7000B1F5003F02D90221FFF780B843F24002DB
:101D8000C4F20202116801F07061B1F1206F4FF0EE
:101D9000020118BFFFF772B8126802F07042B2F188
:101DA000204F08BF0121FFF769B800002DE9F0437B
:101DB00081B043F20004C4F20204A04204D0002720
:101DC000384601B0BDE8F08341F24005C4F2020597
:101DD000E86990460E46010C4FF6FF728802914268
:101DE00008BF4FF48020B0F5003F11D0B0F5802F30
:101DF0001CD1206C00F070612020B1F1206F08BF71
:101E00004020B04207D80027384601B0BDE8F08333
:101E10002020B042F7D906EB08010139814205D2F2
:101E200020464FF4967100F025F928B10027384676
:101E300001B0BDE8F08300BF286800F47F00B0F572
:101E4000003F0FD8206C00F07060B0F1206F09D116
:101E5000206C00F0704000F1C040B0FA80F04FEA12
:101E6000501901E04FF00009206A20F44010206270
:101E70002068B0F1FF3F0CDC606A43F6AC7161F39F
:101E80000F006062606A48F2E47161F30F00606203
:101E900020680027B8F1000F2CD0206AB919B9F1D9
:101EA000000F18BF81F020016FF3120001F03F0115
:101EB00008442062206840F00200206000F068FBC7
:101EC000A168490714D1054600F062FB401BB0F53C
:101ED000967F0FD82068800704D5A0684007F3D00C
:101EE00006E000BF01374745D7D1474602E000BFB3
:101EF0000720A060206800283FF562AF206840F00E
:101F0000004020602068384601B0BDE8F083000042
:101F10002DE9F04F81B043F20004C4F20204A04264
:101F200004D00026304601B0BDE8F08F41F24009F0
:101F3000C4F20209D9F81C0015464A0704D000264D
:101F4000304601B0BDE8F08F1F46020C4FF6FF731C
:101F500090029A4208BF4FF48020002D4FF00006F7
:101F6000E0D017F00702DDD121F07F488045D9D2BB
:101F700008EB07018142D5D820464FF4967100F056
:101F800079F80028DBD1D9F8000000F47F00B0F523
:101F9000003F0FD8206C00F07060B0F1206F09D1C5
:101FA000206C00F0704000F1C040B0FA80F04FEAC1
:101FB000501901E04FF000092068B0F1FF3F0CDC40
:101FC000606A43F6AC7161F30F006062606A48F2C8
:101FD000E47161F30F00606220685FEAD70A37D0CE
:101FE00027F0070000264FF0000B009028684146BC
:101FF00020616868B9F1000F6061206A18BF81F440
:10200000003161F312002062206840F0010020607E
:1020100000F0BEFAA16849071CD1074600F0B8FAE3
:10202000C01BB0F5967F17D82068C00704D0A06801
:102030004007F3D00EE000BF0BF1010B083508F1AB
:102040000808D34506F10806D0D1009E04E000BF81
:10205000002601E00720A060206800283FF562AF5D
:10206000206840F0004020602068304601B0BDE8A4
:10207000F08F0000F0B581B043F208060C4605462B
:10208000C4F2020600F084FAA6F108018D4203D0E2
:10209000052001B0F0BD00BF41F24007C4F20207C5
:1020A0000546386800F47F00B0F5003F3AD9601C5F
:1020B0001FD100BF56F8080CC007FBD156F8080C1A
:1020C0008007F7D456F8040CC007F3D156F8040C77
:1020D00080075CBF30685FEA0070EBD43068B0F115
:1020E000FF3FE7DD34E000BF00F052FA401BA042A2
:1020F0005ED856F8080CC007F6D156F8080C8007D1
:10210000F2D456F8040CC007EED156F8040C800740
:102110005CBF30685FEA0070E6D43068B0F1FF3F22
:10212000E2DD15E0601C2ED156F8080CC007FBD18B
:1021300056F8080C8007F7D456F8040CC007F3D102
:1021400056F8040C80075CBF30685FEA0070EBD47F
:102150003868316800F47F00B0F5003F01F00700F7
:102160002AD918B9306810F4E06F2BD007203060FE
:102170004FF4E0603060012001B0F0BD00F008FADB
:10218000401BA04214D856F8080CC007F6D156F8E8
:10219000080C8007F2D456F8040CC007EED156F8AC
:1021A000040C80075CBF30685FEA0070E6D4CFE7BC
:1021B000032001B0F0BD00BF20B107203060012036
:1021C00001B0F0BD002001B0F0BD0000A0F18042E0
:1021D000A2F510324FEA3232052A84BF052070473B
:1021E0000022B2EB114F4FF0050240F0C6808BB2D7
:1021F000002B00F0C2802DE9F04F0C224FF0000EB2
:102200004FF004084FF008094FF00F0A4FF0030B8E
:10221000002406E0103204344C2A0EF1080E00F0BF
:10222000A980012303FA04F50D4024D0A2F10C0685
:10223000242706F01006082C38BF202750F807C0C6
:102240000AFA06F646EA0C06C651876C0BFA0EF639
:10225000AF438764876BAF438763076BB7430763FD
:102260000769AF4307614769B743476185610768FD
:1022700047EA05470760022303FA04F717EA010556
:1022800024D0A2F10807242607F0140C072C38BF2D
:10229000202687590AFA0CF33B438351836C0EF1D5
:1022A0000207AB438364836B0BFA07F7AB4383638B
:1022B000036BBB4303630369AB4303614369BB43E4
:1022C00043618561036843EA0543036008FA04F348
:1022D00013EA010523D0131F242703F01803062C4B
:1022E00038BF2027C6590AFA03F33343C351836C1E
:1022F0000EF10407AB438364836B0BFA07F7AB4320
:102300008363036BBB4303630369AB4303614369AB
:10231000BB4343618561036843EA0543036009FAEF
:1023200004F313EA01053FF475AF242702F01C0300
:10233000052C38BF2027C6590AFA03F33343C3518B
:10234000836C0EF10607AB438364836B0BFA07F7CC
:10235000AB438363036BBB4303630369AB43036119
:102360004369BB4343618561036843EA05430360F6
:1023700050E700BF0022BDE8F04F10467047000054
:102380002DE9F04F00294FF0050200F0CA8041F21C
:10239000400CC4F2020CA0EB0C03A3F53F57A3F5CD
:1023A0007F53B7FA87F7B3FA83F37F095B093B439F
:1023B00046F20007C4F20207C61B07F58057B6FABB
:1023C00086F5C71B6D09B7FA87F72B437F093B4397
:1023D000A6F50057B7FA87F77F093B43A6F54057A4
:1023E000B7FA87F77F093B4300F09B800B68002218
:1023F000B2EB134F4FF0050240F093809BB2002BDD
:1024000000F08F8000F1240B00F1200E00234FF02C
:10241000000900254FF00F0A07E000BF013509F160
:102420000409102D03F102037AD00C68012202FA8C
:1024300005F614EA0608F1D00C79621E0F2A47D27D
:102440005E4609F01C02082D38BF76463768944076
:102450000AFA02F227EA0202224332600A7A002ACA
:10246000826B14BF42EA080422EA08048463CA7932
:10247000002A826C14BF42EA080222EA080282643F
:10248000026B03244E7904FA03F7BA4306F00307FC
:102490009F403A430263DCF8002002F47F02B2F569
:1024A000003FBBD94A7A0C68D207026C0CBF22EA03
:1024B0000404144304644A7A0F6892074FEA0744FD
:1024C000026C54BF22EA040414430464A6E700BF6C
:1024D00054BB5C4609F01C02082D38BF74466646A2
:1024E000D4F800C00F2707FA02F22CEA0202226099
:1024F0008C79B446002CC3D0D0F814C003229A4083
:1025000004F003042CEA02029C4022434261C0F81A
:1025100018800269B44642EA08020261B0E700BFCF
:1025200000221046BDE8F08F0120BDE8F08F0000CA
:102530000246A0F18040A0F510304FEA3030052867
:102540004FF000000AD8B0EB114F07D18BB2002B2F
:1025500008BF70475068084018BF0120704700004E
:10256000A0F18043A3F510334FEA3333052B0ED887
:102570000023B3EB114F0AD18BB2002B08BF704779
:10258000012A026818BF0B0442EA03010160704788
:1025900042F25430C2F2000000687047B0B586467F
:1025A00009294FF0050000F20E814BF6007CC4F2C1
:1025B000030CACF570639E4540F00581002A08BF0E
:1025C000B0BD092920D84BF65875C4F20305DFE8E1
:1025D00001F0051D33516B7D97A9BBCD136845F8FC
:1025E000283C536845F8243C55F854EC537A63F37F
:1025F000134E45F854ECDCF800E0937A63F3134E85
:10260000CCF800E0C3E000BF0520B0BD136845F87A
:10261000203C536845F81C3C55F854EC537A63F35E
:10262000175E45F854ECDCF800E0937A63F3175E2C
:10263000CCF800E0ABE000BF136845F8183C5368E5
:1026400045F8143C55F854EC537A2EF0706E03F0B4
:102650000F034EEA036345F8543CDCF800E0937A3C
:102660002EF0706E03F00F034EEA0363CCF80030D7
:102670008DE000BF136845F8103C536845F80C3CEA
:1026800055F854EC547A2EF0704343EA047345F83D
:10269000543CDCF80030947A23F0704343EA04732E
:1026A000CCF8003073E000BF55F8083C14689B0973
:1026B00063F39F1445F8084C6B68547A64F3030382
:1026C0006B602B68947A64F303035FE055F8083C71
:1026D000146864F30D2345F8083C6B68547A23F0C2
:1026E000F00304F00F0443EA04136B602B68947A40
:1026F00023F0F00304F00F0443EA041346E000BFA4
:1027000055F8083C146864F3154345F8083C6B68B9
:10271000547A64F30B236B602B68947A64F30B2375
:1027200034E000BF55F8043C14689B0963F39F1420
:1027300045F8044C6B68547A64F30F336B602B6874
:10274000947A64F30F3321E055F8043C146864F381
:102750000D2345F8043C6B68547A64F313436B60B3
:102760002B68947A64F3134310E000BF55F8043CDF
:10277000146864F3154345F8043C6B68547A64F3B9
:1027800017536B602B68947A64F317532B60CD2337
:102790004B439C0A042000EA132005F1080304EBD4
:1027A0008405491B184301EB410103684900127A73
:1027B000C9B21F258D4002F01F02AB4302FA01F19E
:1027C000194301600020B0BD4BF20001C4F20301C7
:1027D00088421CBF052070474BF66870C4F20300A6
:1027E000016841F001010160016841F008010160E8
:1027F000002070472DE9F047034607294FF00500F8
:1028000000F2B7804BF20005C4F20305AB4218BFDB
:10281000BDE8F087002A00F0AC804BF61478C4F2D3
:102820000308454655F8643F947823F0404343EA53
:1028300084732B601378D8F800400C2024F0010436
:102840002343C8F800305378D8F80040002B24F414
:10285000004418BF04F50044C8F80040D8F85C40B4
:10286000167A8B0006F003069F1C984006FA07F7BD
:10287000844338402044C8F85C00D8F85C00D7791D
:102880004FF0020907F0010603F1010C09FA03FEFB
:1028900006FA0CF620EA0E0006EA0E063044C8F8E6
:1028A0005C00AB204843860A842706EB460607EA0D
:1028B0001020A1EB46062843B6000568F6B24FF09B
:1028C0000F0A57790AFA06F425EA040407F00F05FF
:1028D000B5402C430460D8F8740095790AFA03F4E3
:1028E000A04305F00F049C402043C8F87400D8F8BA
:1028F0006C00557A082405F00105DE1C9C40B540AB
:10290000A0432C402044C8F86C00107909FA01F16A
:102910000028D8F800000CBF20EA01010143C8F8E4
:102920000010D0780121002801FA03F1D8F85C00EA
:102930000CBF20EA010340EA0103C8F85C30D8F874
:102940006C00D37A6FEA0E0403F0010303FA0CF370
:10295000204003EA0E031843C8F86C00907A002860
:10296000D8F86C000CBF20EA010101430020C8F830
:102970006C10BDE8F087000001464BF20000C4F285
:10298000030081421CBF0520704780B500F002F8AB
:10299000002080BDB0B584B00020CDE902000E203B
:1029A00045F200048DF808004FF44050C4F20204D0
:1029B00001AD019020462946FFF7E2FC4FF440406C
:1029C000019020462946FFF7DBFC00F0F3FD00F004
:1029D0008DFD00F0A3FD00F0B9FD3F2000F0F0FBFD
:1029E00004B0B0BDF0B581B04BF20002C4F20302F6
:1029F000904203D0052001B0F0BD00BF0D46FFF7A7
:102A0000C7FD092D044611D14BF60875C4F2030524
:102A1000286840F0010028602868C00722D0FFF72E
:102A2000B7FD001B6428F7D919E000BF072DE1D8D6
:102A30004BF60876C4F20306681CC5B20120316863
:102A400000FA05F741EA0700306000BF30683840FF
:102A5000E84007D0FFF79CFD001B6528F6D3032054
:102A600001B0F0BD002001B0F0BD00000346072911
:102A70004FF0050000F2ED804BF2000CC4F2030CA5
:102A8000634518BF7047002A00F0E38010B5106955
:102A90000CEB0123C3F838015069C3F83C01D3F8AB
:102AA00070C1107E60F3000CC3F870C1D3F870C120
:102AB000507E60F3C30CC3F870C1D3F870C1907E30
:102AC00060F3420CC3F870C192F80CC0D3F87001E7
:102AD000BCF1000F20F0400018BF4030C3F8700177
:102AE00092F80DC0D3F87001BCF1000F20F0200067
:102AF00018BF2030C3F87001106AC3F84001506A53
:102B0000C3F84401D3F870C192F8280060F3104C68
:102B1000C3F870C1D3F870C192F8290060F3D34CA8
:102B2000C3F870C1D3F870C192F82A0060F3524C18
:102B3000C3F870C192F81BC0D3F87001BCF1000F4C
:102B400020F4800018BF00F58000C3F8700192F8EF
:102B50001CE0D3F87001BEF1000F20F4001018BF84
:102B600000F50010C3F87001D3F870E1D07A2EF0B0
:102B7000605E00F007004EEAC060C3F8700192F892
:102B800009E0D3F87041BEF1000F24F0804418BF73
:102B900004F18044C3F870414BF6047C03F5807067
:102BA000137A0124C4F2030C04FA01F1002BDCF8BF
:102BB00000300CBF23EA01011943CCF80010917AD0
:102BC000036F002923F0007318BF03F1007303673C
:102BD0001178436F23F00103194341675178436F24
:102BE000002923F0020318BF023343679178436F33
:102BF000002923F0040318BF04334367D178436FDF
:102C0000002923F0080318BF083343671179436F85
:102C1000002923F0100318BF103343675179436F25
:102C2000002923F0200318BF203343679179436FB5
:102C3000002923F0400318BF40334367D179426F26
:102C4000002922F0800218BF803242670020BDE8D0
:102C5000104070474BF20002C4F2030290424FF062
:102C6000050017D1072988BF70474BF618720E2050
:102C7000C4F2030200EA41004FF0010C13680CFAA1
:102C800000F119431160013011680CFA00F008439B
:102C9000106000207047000010B54BF2000CC4F229
:102CA000030C60454FF0050040F03281002A08BF58
:102CB00010BD092978D1DCF80C009168400A60F356
:102CC0005F21CCF80C104FF6FF71DCF80C00C8F255
:102CD000000101F1FC410840D1680023C0F2FF135C
:102CE00019400844CCF80C00DCF80000117C61F3BA
:102CF0000200CCF80000DCF80000517C61F3C30056
:102D0000CCF800005079CCF81800D088CCF814002A
:102D1000DCF80000117820F0404040EA8170CCF8E7
:102D20000000D078DCF80010002821F0100118BF56
:102D30001031CCF800109078DCF80010002821F455
:102D4000806118BF01F58061CCF800105078DCF884
:102D50000010002821F4006118BF01F50061CCF8D3
:102D600000101079DCF8901F002821F4803118BF82
:102D700001F58031CCF8901FDCF80000D17C20F008
:102D8000C00001F0030140EA8110CCF80000907C03
:102D9000DCF80010002821F020014FF0000018BFDF
:102DA0002031CCF8001010BD072984BF052010BDCC
:102DB0000CEB0123D3F80CE194684FEADE3060F3AA
:102DC000DF34C3F80C41D3F80C01D48964F31E40FE
:102DD000C3F80C01D3F80001147C64F30200C3F8BB
:102DE0000001D3F80001547C64F3C300C3F8000170
:102DF0005079C3F81801D088C3F81401D078D3F8FB
:102E00000041002824F0100418BF1034C3F800411A
:102E10009078D3F80041002824F4806418BF04F5AA
:102E20008064C3F8004192F801E0D3F80041BEF19C
:102E3000000F24F4006418BF04F50064C3F80041D7
:102E400003F5807013794FF4003404FA01F1002B7C
:102E5000DCF8903F0CBF23EA01011943CCF8901F26
:102E600091694165D1698165016892F8203063F309
:102E7000492101600168D37C21F0C00103F0030304
:102E800041EA83110160917C0368002923F020034B
:102E900018BF20330360016892F8253021F070419B
:102EA00041EA03710160016892F8263063F3114131
:102EB0000160016892F8273063F39341016092F852
:102EC00021100368002923F4807318BF03F5807371
:102ED000036092F822100368002923F4801318BFBE
:102EE00003F58013036092F823100368002923F48C
:102EF000001318BF03F50013036092F82410026852
:102F0000002922F4800218BF02F58002026000202E
:102F100010BD00004BF20003C4F2030398424FF0CF
:102F2000050040F0C380002A08BF7047092925D159
:102F30005088D86190881862D08858621089986249
:102F400010781968002821F0007118BF01F1007194
:102F50001960907A1968002821F0006118BF01F10A
:102F600000611960D07A1968002821F080614FF063
:102F7000000018BF01F1806119607047072984BF04
:102F800005207047B2F802C003EB0120C0F81CC155
:102F90009188C0F82011D188C0F824111189C0F897
:102FA00028111178D0F80031002923F0007318BFE0
:102FB00003F10073C0F80031917AD0F80031002994
:102FC00023F0006318BF03F10063C0F80031D17A29
:102FD000D0F80031002923F0806318BF03F180632B
:102FE000C0F80031117BD0F80431002923F480337C
:102FF00018BF03F58033C0F80431517BD0F8043199
:10300000002923F4003318BF03F50033C0F804315E
:10301000917BD0F80431002923F4802318BF03F5F5
:103020008023C0F80431D17BD0F80431002923F487
:10303000002318BF03F50023C0F80431117CD0F839
:103040000431002923F4801318BF03F58013C0F85E
:103050000431517CD0F80431002923F4001318BF47
:1030600003F50013C0F80431917CD0F80431002935
:1030700023F4800318BF03F58003C0F80431D17C2A
:10308000D0F80431002923F4000318BF03F500032E
:10309000C0F80431117DD0F80421002922F080729B
:1030A00018BF02F18072C0F80421002070470000B0
:1030B00047F2841042F25431C2F20000C2F2000121
:1030C00000780A68104408607047000010B543F2A9
:1030D0000000C4F20200016841F0100101600168C3
:1030E00041F020010160032000F0B0F80F2000F053
:1030F00005F8044600F026F8204610BD70B547F2EA
:103100008416C2F20006317861B1044600F0B8FEC0
:1031100031784FF47A72B2FBF1F1B0FBF1F001F0CB
:1031200023F908B1042070BD0F2C84BF012070BDAD
:103130004FF0FF3021460022002500F055F82846C8
:10314000746070BD80B500F059F900F06BF900F0C3
:103150007DF900F08FF900F0A1F900F0B3F900F06B
:1031600025F9132000F02CF8142000F029F8152080
:1031700000F026F8162000F023F8172000F020F8C1
:10318000182000F01DF8BDE8804000F023B90000D1
:10319000002848BF7047C1B200F01F00012202FAA8
:1031A00000F04EF28012CEF2000242EAD10121F08C
:1031B00003010860BFF34F8FBFF36F8F70470000AC
:1031C000002848BF7047C1B200F01F00012202FA78
:1031D00000F04EF20012CEF2000242EAD10121F0DC
:1031E000030108607047000042EA01030F2B88BF0B
:1031F000704710B54EF60C5CCEF2000CDCF80030D7
:10320000C3F3022E8EF00704042C28BF0424BEF161
:1032100003034FF0FF3E0EFA04F438BF0023A1432E
:1032200099400EFA03F39A43114300F00F0200F1A4
:1032300060430901043A03F564436244002848BF2F
:1032400002F10C031970BDE810407047C11E04293B
:1032500088BF70474EF60C51CEF200010A684FF657
:10326000FF031A4060F30A2242F0806040F0FD70D4
:10327000086070474C2048F2E471C4F20200C3F6C3
:10328000AC714163016941F008010161016841F0DD
:1032900001010160016A41F00801016201214163FD
:1032A000704700004C2048F2E471C4F20200C3F6FB
:1032B000AC714163016941F010010161016841F0A5
:1032C00002010160016A41F00801016201214163CC
:1032D00070470000A1F1110212F1100F3CBF052050
:1032E0007047382248F2E473C4F20202C3F6AC73AA
:1032F0009364136800F0030023F00C0343EA80009A
:103300001060F023106903EB0111090961F3071044
:1033100010610120906400207047000047F28C107B
:103320003021C2F20000C4F2020100680968C1F352
:1033300003210131B0FBF1F07047000047F28C101F
:103340003021C2F20000C4F2020100680968C1F332
:1033500003310131B0FBF1F0704700005C2048F20E
:10336000E471C4F20200C3F6AC714162016841F439
:1033700080710160016941F0200101610121416218
:10338000704700005C2048F2E471C4F20200C3F60A
:10339000AC714162016841F080010160016941F056
:1033A000100101610121416270470000582048F27C
:1033B000E471C4F20200C3F6AC718162016841F0AD
:1033C00001010160016941F0010101610121816296
:1033D00070470000582048F2E471C4F20200C3F6BE
:1033E000AC718162016841F002010160016941F044
:1033F000020101610121816270470000582048F2FA
:10340000E471C4F20200C3F6AC718162016841F05C
:1034100004010160016941F004010161012181623F
:1034200070470000582048F2E471C4F20200C3F66D
:10343000AC718162016841F008010160016941F0ED
:10344000080101610121816270470000582048F2A3
:10345000E471C4F20200C3F6AC718162016841F00C
:1034600010010160016941F01001016101218162D7
:1034700070470000582048F2E471C4F20200C3F61D
:10348000AC718162016841F020010160016941F085
:10349000200101610121816270470000582048F23B
:1034A000E471C4F20200C3F6AC718162016841F0BC
:1034B00040010160016941F0400101610121816227
:1034C00070470000582048F2E471C4F20200C3F6CD
:1034D000AC718162016841F080010160016941F0D5
:1034E0008001016101218162704700004C2048F297
:1034F000E471C4F20200C3F6AC714163016941F4A6
:1035000000710161016841F010010160016A41F040
:103510004001016201214163704700004C2048F2E4
:10352000E471C4F20200C3F6AC714163016941F475
:1035300000610161016841F040010160016A41F0F0
:103540004001016201214163704700004C2048F2B4
:10355000E471C4F20200C3F6AC714163016941F445
:1035600080510161016841F080010160016A41F010
:10357000400101620121416370470000A1F1110285
:1035800012F1100F3CBF05207047382248F2E47357
:10359000C4F20202C3F6AC7393641368013960F39A
:1035A00001031360106961F303001061012090644E
:1035B000002070474C2048F2E471C4F20200C3F6C8
:1035C000AC714163016941F400710161016941F429
:1035D00080610161016941F400610161016941F4A7
:1035E00080510161016941F400510161016941F4B7
:1035F00080410161016941F400410161016941F4C7
:1036000080310161016841F010010160016841F001
:1036100020010160016841F040010160016841F052
:1036200080010160016841F480710160016841F42A
:1036300000710160016841F480610160016841F43A
:1036400000610160016A41F04001016201214163B2
:10365000704700002DE9F04784B041F26C02002170
:1036600048F2E47EC4F20202C4F20201C3F6AC7E68
:1036700052F80CCC0868C1F880E0886B032420F075
:103680000C008863886C41F2002720F0F000886409
:103690000120C1F88000C1F880E0CB6D9FEDE50A04
:1036A00043F00803CB65CB6CC0F27A0743F001030B
:1036B000CB64CB6E43F00803CB66C1F8800048F2C0
:1036C000E470C1F880E042F8280C48F63D2042F84A
:1036D000280C41F6EC1042F8280C52F80C0C40F47F
:1036E000005042F80C0C52F80C0C40F4805042F898
:1036F0000C0C52F84C3C41F2000043F4807342F849
:103700004C3C52F84C3CCEF2000064F38E2342F85D
:103710004C3C00234360036843F00103036000BF97
:10372000436814683D4614F5807F3CBF1468250A41
:1037300001EE105AB8EE411A21EE001ABCEEC11A81
:1037400011EE104AA342EBD348F2001348F22134A1
:10375000C4F20303C0F2800443F8FC4C2B2443F86A
:10376000F84C002443F8E84C202443F8D84C1124AA
:1037700043F8C04C6FF0FF041D5945F001051D5181
:1037800053F8F04CE4050CD453F8F04CE4055CBF5E
:1037900053F8F04C5FEAC45403D453F8F04CE405FA
:1037A000EED56FF0FF041D5945F004051D511C684E
:1037B00044F400341C601C68A40309D41C68A403EE
:1037C0005CBF1C685FEA843402D41C68A403F2D591
:1037D00053F8AC4C1D68122645F400351D6052F8B4
:1037E0004C5C04EBD47466F38E2542F84C5C4EF6C8
:1037F000FC55CEF200052E689FED8F0A46F08076CC
:103800002E600D68002645F400350D600D68A6EBAE
:10381000640925F000450D600D6825F440750D60C4
:103820000D6845F000450D604660056845F00104EF
:10383000046000BF466814683D4614F5807F3CBFB5
:103840001468250A01EE105AB8EE411A21EE001A4A
:10385000BCEEC11A11EE104AA642EBD353F8AC4CA1
:10386000012514EB090848BFC8F10008CDF8008015
:103870001C6844F400341C600C6824F000440C60A4
:103880000C6865F309240C600C6844F000440C607B
:1038900000244460046844F001040460466814682D
:1038A0003D4614F5807F3CBF1468250A01EE105A8E
:1038B000B8EE411A21EE001ABCEEC11A11EE104A00
:1038C000A642EBD353F8AC4C022514EB090A48BFCF
:1038D000CAF1000ACDF804A01C6844F400341C604E
:1038E0000C6824F000440C600C6865F309240C603B
:1038F0000C6844F000440C6000244460046844F008
:1039000001040460466814683D4614F5807F3CBF9E
:103910001468250A01EE105AB8EE411A21EE001A79
:10392000BCEEC11A11EE104AA642EBD353F8AC4CD0
:1039300014EB090648BF764202961C6844F4003432
:103940001C600C6824F000440C600C6844F4407463
:103950000C600C6844F000440C600024446004686F
:1039600044F00104046000BF4568146814F5807FCA
:103970003C463CBF1468240A01EE104AB8EE411AD6
:1039800021EE001ABCEEC11A11EE104AA542EBD38B
:1039900053F8AC4C14EB090448BF644203941D680F
:1039A000C24545F400351D600D684FF0000825F054
:1039B00000450D600D6825F400350D60056825F0A3
:1039C000010505604FF000006D4638BF012055F835
:1039D0002070BE426FF0FF0638BF022055F820501D
:1039E00043F80680C1F880E0CB6D23F00803CB6577
:1039F000CB6C23F00103CB64CB6D13F0780F03D1B4
:103A0000CB6E23F00803CB660123AC4238BF032002
:103A1000C1F8803042F80CCC4FF48032C1F88030CD
:103A2000C1F880204FF40032C1F8802004B0BDE816
:103A3000F08700BF51499D3AA69BC43A00000000A0
:103A40002DE9F04381B00026C4F20206B0424FF0E7
:103A5000050040F006820C46002900F002826568ED
:103A600041F60039C0F2B7094D4504F108000FD006
:103A700041F20021C0F27A018D4240F025810168B7
:103A800049F20052C0F6BA2291420BD100200BE15C
:103A9000016849F20052C0F6BA2291420CD10720C7
:103AA00002E100BF016842F68032C0F65332914213
:103AB0000CD10120F8E000BF016842F68032C0F668
:103AC000533291420CD10820EEE000BF01684CF265
:103AD0000022C0F6EB3291420CD10220E4E000BF9C
:103AE00001684CF20022C0F6EB3291420CD1092061
:103AF000DAE000BF016845F68002C0F684429142D8
:103B00000CD10320D0E000BF016845F68002C0F66A
:103B1000844291420CD10A20C6E000BF01684EF6F3
:103B20000072C0F61C5291420CD10420BCE000BFD0
:103B300001684EF60072C0F61C5291420CD10B2067
:103B4000B2E000BF016848F28052C0F6B55291421F
:103B50000CD10520A8E000BF016848F28052C0F6F1
:103B6000B55291420CD10C209EE000BF016841F695
:103B70000042C0F64E6291420CD1062094E000BF94
:103B8000016841F60042C0F64E62914240F09C80CE
:103B90000D2089E001684FF28002C0F2FA229142C2
:103BA00002D10E2080E000BF016843F6C032C0F2AF
:103BB0004732914202D10F2076E000BF016848F2FF
:103BC0000072C0F29332914202D110206CE000BF2B
:103BD00001684DF24022C0F2DF32914202D1112041
:103BE00062E000BF016841F68052C0F22C4291426F
:103BF00002D1122058E000BF016846F6C002C0F2B0
:103C00007842914202D113204EE000BF01684BF28E
:103C10000042C0F2C442914202D1142044E000BFED
:103C200001684FF64072C0F21052914202D1152045
:103C30003AE000BF016844F68022C0F25D52914232
:103C400002D1162030E000BF016849F2C052C0F234
:103C5000A952914202D1172026E000BF01684EF21E
:103C60000012C0F2F552914202D118201CE000BFB0
:103C7000016842F64042C0F24262914202D11920EC
:103C800012E000BF016847F28072C0F28E6291427A
:103C900002D11A2008E000BF01684CF2C022C0F235
:103CA000DA62914210D11B2045F6F02100EB400072
:103CB000C0F6000101EBC0004169027A45898089A4
:103CC000890389B23BE000BF217801290FD141F27D
:103CD0006C01C4F202010A6812F5807F04D341F23C
:103CE0000025C0F27A0501E009680D0A6560002D23
:103CF00040D00068FCF773FB804628460F46FCF76F
:103D00006EFB02460B4640463946FCF7E8FA804611
:103D10000F46FCF771FB0546FCF761FB02460B46BC
:103D200040463946FCF763FA9FED530B53EC102BDA
:103D3000FCF763FAFCF760FB01224FF4004148F204
:103D4000E478C3F6AC78C6F88080336823F000438B
:103D500033602378032B11D0012B1DD053B9336F5F
:103D600043F001033367336823F00303022A33600F
:103D70000AD11CE0012001B0BDE8F083336843F0B4
:103D80000303022A336012D0012A326822F400634E
:103D90004FF001020FE000BF336F012743F0100323
:103DA0003367336867F30103022A3360ECD132686A
:103DB00042F400630222336063683768B3FBF2F2B7
:103DC00027F480634A4588BF03F5806333607268D7
:103DD0006FF39F356FF31D4242EA054272607268CD
:103DE0004FF6FF739A4310447060306820F44040EF
:103DF00008433060A0684CF20021C0F6EB318842E5
:103E000012D1207801282FD070B9606841F20021CA
:103E1000C0F27A01884207D141F26C00C4F202007C
:103E20004068800F04E000BFFFF714FCC6F88080F4
:103E3000316860F309213160306840F00040306043
:103E40003068400009D4306840005CBF30685FEAE9
:103E5000400002D430684000F2D50120C6F880004E
:103E6000002001B0BDE8F08341F26C00C4F2020012
:103E7000006800F00300DBE7000000000000F040F5
:103E800047F28C10C2F2000000687047F0B583B0B2
:103E90003025C4F202050C460146A5F130008142EE
:103EA0004FF0050119D1C4B16168A9B12178032986
:103EB00031D8DFE801F00315210B00BF41F26C019E
:103EC000C4F202010A6812F5807F1DD341F200217D
:103ED000C0F27A011EE000BF0521084603B0F0BD24
:103EE00041F26C01C4F20201CA6812F1011F0FD93C
:103EF0004FF4FA410EE000BF6178012900F0A48080
:103F0000002900F0A98006E00968090A02E000BF64
:103F1000C968090C6160A1894FF6F072113989B244
:103F200091429CBF0222A281E2894FF6F171113ABF
:103F300092B28A423CBF0222E281228A3139413A5E
:103F400048F2E47792B289B2C3F6AC778A423CBFBA
:103F5000012121822F652178012603290CD8DFE871
:103F600001F00311173700BF286C40F010002864DF
:103F7000286820F0030032E001212E65084603B0D6
:103F8000F0BD00BF2868012161F3010027E000BFF8
:103F9000296801F00301022907D1296C41F01001C1
:103FA0002964296821F00301296061788DF80010E7
:103FB000D4E90121CDE901126946FFF741FD01462F
:103FC00000282F65D9D12868022161F3010006E09D
:103FD000286C40F001002864286840F00300286045
:103FE0002868A1894FF4706202EB0121090A61F38C
:103FF0000B2028602868E1894FF20002CFF6FF729B
:1040000002EB0131090B61F30F3028602868218A27
:10401000FC2202EB8101890861F38700286028688F
:10402000002140F480302860286840F40030286087
:10403000286840F480202860286840F40020286028
:104040002E65084603B0F0BD41F26C01C4F20201D6
:104050000A6812F5807F05D341F20021C0F27A018F
:10406000A16058E70968090AA16054E7542048F2A2
:10407000E471C4F20200C3F6AC71C162016841F49C
:1040800000610160016941F4006101610121C162C7
:10409000704700005C2048F2E471C4F20200C3F6ED
:1040A000AC714162016841F002010160016941F0B7
:1040B000020101610121416270470000542048F271
:1040C000E471C4F20200C3F6AC71C162016841F44C
:1040D00080510160016941F4805101610121C16297
:1040E00070470000542048F2E471C4F20200C3F6A5
:1040F000AC71C162016841F400510160016941F491
:10410000005101610121C16270470000582048F24E
:10411000E471C4F20200C3F6AC718162016841F43B
:1041200080710160016941F4807101610121816246
:1041300070470000582048F2E471C4F20200C3F650
:10414000AC718162016841F400710160016941F460
:10415000007101610121816270470000502048F226
:10416000E471C4F20200C3F6AC710163016841F06E
:1041700040010160016941F04001016101210163D9
:1041800070470000502048F2E471C4F20200C3F608
:10419000AC710163016841F080010160016941F087
:1041A0008001016101210163704700005C2048F239
:1041B000E471C4F20200C3F6AC714162016841F0DF
:1041C00001010160016941F00101016101214162C8
:1041D00070470000502048F2E471C4F20200C3F6B8
:1041E000AC710163016821F008010160016921F0EF
:1041F000080101610121016370470000502048F26D
:10420000E471C4F20200C3F6AC710163016841F0CD
:1042100008010160016941F00801016101210163A8
:1042200070470000502048F2E471C4F20200C3F667
:10423000AC710163016821F010010160016921F096
:10424000100101610121016370470000502048F214
:10425000E471C4F20200C3F6AC710163016841F07D
:1042600010010160016941F0100101610121016348
:1042700070470000502048F2E471C4F20200C3F617
:10428000AC710163016821F020010160016921F036
:10429000200101610121016370470000502048F2B4
:1042A000E471C4F20200C3F6AC710163016841F02D
:1042B00020010160016941F02001016101210163D8
:1042C00070470000542048F2E471C4F20200C3F6C3
:1042D000AC71C162016821F001010160016921F046
:1042E000010101610121C16270470000542048F2C0
:1042F000E471C4F20200C3F6AC71C162016841F01E
:1043000001010160016941F0010101610121C16206
:1043100070470000542048F2E471C4F20200C3F672
:10432000AC71C162016821F002010160016921F0F4
:10433000020101610121C16270470000542048F26E
:10434000E471C4F20200C3F6AC71C162016841F0CD
:1043500002010160016941F0020101610121C162B4
:104360007047000070470000411E0020B0EB116F45
:104370001CBF012070474EF21002CEF200025160C5
:104380004EF62351CEF20001F0230B70072190600E
:1043900011607047FFF7E6BF80B549F6FF71C4F2C0
:1043A0000101884228DD4AF6FF71C4F20201884209
:1043B0003CDD4BF20001C4F2020188425ED00021D4
:1043C000C4F20301884261D041F20001C4F203014A
:1043D000884218BF80BDFFF75DFE2420FEF7F0FE87
:1043E0002520FEF7EDFE2620FEF7EAFE2720BDE899
:1043F0008040FEF7E5BE00BF47F6FF71C4F2010141
:10440000884227DC48F20001C4F2000188424DD006
:1044100049F20001C4F2000188425FD1FFF7B2FE09
:104420001A20BDE88040FEF7CBBE00BF4AF2000173
:10443000C4F20101884241D04AF20001C4F20201F3
:1044400088424BD1FFF762FE1E20BDE88040FEF798
:10445000B7BE00BF48F20001C4F20101884235D066
:1044600049F20001C4F20101884237D1FFF726FE6C
:104470001C20BDE88040FEF7A3BE00BFFFF75AFE38
:104480001F20BDE88040FEF79BBE00BFFFF78EFEF9
:104490002020FEF795FE2120FEF792FE2220FEF757
:1044A0008FFE2320BDE88040FEF78ABEFFF756FE50
:1044B0001920BDE88040FEF783BE00BFFFF712FE63
:1044C0001D20BDE88040FEF77BBE00BFFFF7CEFD9C
:1044D0001B20BDE88040FEF773BE00BF80BD00001A
:1044E00010B544F6FF7142F27004C4F20001C2F24A
:1044F000000488424FF0050112DD45F20002C4F2CB
:104500000002904218D00022C4F20102904215D05D
:1045100041F20002C4F2010290422CD1D0340EE0EC
:1045200043F20002C4F20002904208D0B0F1402FE2
:1045300021D1343403E000BF683400E09C34217B97
:10454000032904BF022010BD217F04294FF002017E
:1045500011D021732177016821F00101016000F081
:104560005DF920463421FBF772FD0021FF20217305
:10457000217760736077084610BD00002DE9F04395
:1045800081B0044600294FF0050064D043F20009D1
:10459000C4F200090D46A4EB0901A4F14023B1FACD
:1045A00081F2B3FA83F352095B091A43A1F5005370
:1045B000B3FA83F35B091A43A1F55043B3FA83F3CB
:1045C000A1F560415B09B1FA81F11A434909114330
:1045D00041D0286800B344F6FF7842F27006C4F276
:1045E0000008C2F2000644454FF0010018DD45F214
:1045F0000001C4F200018C421CD00021C4F2010170
:104600008C421FD041F20001C4F201018C4222D140
:10461000D036307B88B919E0052001B0BDE8F083C1
:104620004C4508D0B4F1402F15D13436307B20B939
:104630000CE000BF6836307B40B1022001B0BDE81D
:10464000F08300BF9C36307B0028F6D1307F0028F5
:104650004FF0020002D001B0BDE8F083216846F2BD
:104660005C0721F00101216030733077A868C0F643
:104670000007002818BF0746204600F03DF92068D3
:1046800040F010002060206840F0080020602068A2
:10469000F97861F38A2020602068397961F3492034
:1046A00020606068797920F0800001F0010140EA23
:1046B000C11060602069F979013961F3030020615C
:1046C0002069B97920F0F00001F00F0140EA0110F3
:1046D0002061206B4FF6FF713A89884310442063B4
:1046E00038782168002821F4807118BF01F58071A5
:1046F0002160B8782168002821F0800118BF80313E
:10470000216078782168002821F4006118BF01F544
:1047100000612160E9796068FF2907D040F0080056
:1047200060606068E97961F3041001E020F008003E
:1047300060606068A97961F382006060606869798F
:1047400061F301006060297B6068B9B140F480309A
:1047500060606068A97B61F351406060E06A697BDA
:1047600020F0FF000844E06244454FF001000CDCFB
:104770004C451BD0B4F1402F18D023E020F48030FA
:10478000606044454FF00100F2DD41F20001C4F2E7
:1047900001018C420ED00021C4F201018C4209D0EB
:1047A00045F20001C4F200018C420BD1FEF7B6FDC8
:1047B00002E000BFFEF7C2FD296800EB5100B0FB2C
:1047C000F1F080B2A1684FF6FF7291430844A060F7
:1047D0002068297905F1100761F30C302060012071
:1047E000307330778FCF06F1200C8CE88F00FF20DC
:1047F000707370774FF0FF30A063206840F00400C2
:104800002060206840F002002060206840F0010035
:104810002060002001B0BDE8F083000010B544F630
:10482000FF71C4F20001884226DD45F20001C4F2A6
:10483000000188423AD00021C4F2010188423BD0F5
:1048400041F20001C4F20101884218BF10BD0720E7
:10485000FEF79EFCFFF75EFD46F20004C4F2020480
:1048600020464FF48051FDF7B1FC04F5805004213F
:10487000BDE81040FDF7AABC43F20001C4F20001FC
:10488000884229D0B0F1402F34D10420FEF780FCBB
:10489000FFF7C8FC46F20000C4F20200A0F5005089
:1048A0000C21BDE81040FDF791BC00BF0520FEF7CC
:1048B0006FFCFFF7DFFC04E00620FEF769FCFFF762
:1048C00001FD46F20000C4F202004FF44061BDE871
:1048D0001040FDF77BBC00BF0320FEF759FCFFF73B
:1048E00079FC46F20000C4F202003021BDE810401D
:1048F000FDF76CBC10BD000070B584B044F6FF72CB
:10490000C4F2000200219042CDF809102CDD45F2DE
:104910000001C4F20001884242D00021C4F201012A
:1049200088424FD041F20001C4F2010188426ED1A9
:1049300046F200044FF48050C4F2020401AD01902D
:104940000626204629468DF80860FDF719FD04204B
:10495000019004F5805029468DF80860FDF710FDA0
:10496000FFF7ECFC072050E043F20001C4F2000125
:10497000884239D0B0F1402F49D10C200190082055
:104980008DF8080046F20000C4F20200A0F50050C5
:1049900001A9FDF7F5FCFFF759FC042035E000BF45
:1049A0004FF44060019006208DF8080046F20000A8
:1049B000C4F2020001A9FDF7E3FCFFF76FFC05203C
:1049C00023E000BF4FF44060019008208DF80800FC
:1049D00046F20000C4F2020001A9FDF7D1FCFFF786
:1049E00085FC062011E000BFC020019008208DF852
:1049F000080046F20000C4F20200A0F5805001A9B0
:104A0000FDF7BEFCFFF7FAFB0320FEF7D9FB04B06D
:104A100070BD00002DE9F04381B00446002A4FF03C
:104A2000050018BF002903D101B0BDE8F08300BF25
:104A3000994643F20003C4F20003E71AA4F14025AB
:104A4000B7FA87F6B5FA85F576096D092E43A7F50D
:104A50000055B5FA85F56D092E43A7F55045B5FA11
:104A600085F5A7F560476D09B7FA87F72E437F09EB
:104A70003743D9D044F6FF7042F27007C4F2000009
:104A8000C2F2000784424FF0010019DD45F2000335
:104A9000C4F200039C421DD00023C4F201039C42D7
:104AA00032D041F20003C4F201039C42BCD1D037A2
:104AB000387B012812D0042001B0BDE8F08300BF8C
:104AC0009C4208D0B4F1402FAED13437387B012856
:104AD000F1D103E06837387B0128ECD103200025B1
:104AE0003873FD80BD603960BA806068C00312D53C
:104AF000606840030ED4606800F003000338B0FA29
:104B000080F0450907E000BF9C37387B0128E5D0DD
:104B1000D1E700BF0025206840F0100020604FF46E
:104B20008050A063206840F004002060FDF730FD55
:104B3000F988BA880646914280F08C8019F101000C
:104B400022D0002D64D04FF480580EE038680088E1
:104B50006FF35F202062386802303860F8880130D7
:104B6000F880F888B988884274D2A06BC00448BF26
:104B7000C4F83880E06B4007E8D5FDF709FD801BDD
:104B80004845F7D960E000BF4FF480507DB92DE073
:104B9000396809886FF35F21216239680231396011
:104BA000F9880131F980F988BA88914252D2A16B13
:104BB000C90448BFA063E16B490741BFE16B5FEAED
:104BC0004171E16B5FEA4171E2D5E16B4907F2D4D3
:104BD000DEE700BF39684A1C3A6009782162F9882B
:104BE0000131F980F988BA88914233D2A16BC904A6
:104BF00048BFA063E16B490741BFE16B5FEA4171C8
:104C0000E16B5FEA4171E5D5E16B4907F2D4E1E779
:104C10004FF480550CE000BF3868411C39600078C3
:104C20002062F8880130F880F888B988884211D26B
:104C3000A06BC00448BFA563E06B4007ECD5FDF74F
:104C4000A7FC801B4845F7D903200121397301B027
:104C5000BDE8F083A06BC00419D419F101000CD099
:104C6000FDF796FC801B4845EED8A06BC004F7D535
:104C70000DE000BFA06BC00409D4A06BC00406D433
:104C8000A06BC0045CBFA06B5FEAC040F2D54FF4DC
:104C90008050A06300200121397301B0BDE8F0838A
:104CA000FEE700007047000080B503A000F0E4FAC2
:104CB00019F060FB022080BD0D0A4368616E6765D4
:104CC0002042616E6B00000080B502A000F0D4FAB3
:104CD000002080BD0D0A457863757465207468698D
:104CE00073204672696D77617265000010B547F2F6
:104CF0009010C2F2000040F20541FBF7A8F91EA097
:104D000000F0BAFA45F69550C0F6000000F0B4FA8B
:104D100048F20804C4F20204206840F48070206065
:104D2000FCF704F9206820F4807020601AA000F0DD
:104D3000A3FA002000F0A0F880B91FA000F09CFAB0
:104D4000012000F099F848B945F6D750C0F60000A8
:104D500000F092FA022000F08FF838B14FF0FF34E3
:104D600023A000F089FA204610BD00BF01241AA03C
:104D700000F082FA204610BD0D0A496E746F204F74
:104D80006E546865466C7920557067726164652061
:104D900070726F6772616D000D0A53656E642074E6
:104DA00068652045525F4649585F44415441203E62
:104DB0003E3E3E0D0A0000000D0A53656E642074ED
:104DC00068652045525F4649585F54455854203E17
:104DD0003E3E3E0D0A0000000D0A4368616E6765A5
:104DE00042616E6B466C61673D310D0A0000000048
:104DF0000D0A55706772616465206661696C65644F
:104E00000D0A000043F23C01C4F200010A68920559
:104E100009D50A68920544BF0A685FEA825202D542
:104E20000A689205F2D451F8181C0170704700000E
:104E30002DE9F04143F22405144688460646C4F2A3
:104E40000005FDF7A5FB0746A869800506D5FDF717
:104E50009FFBC01BA042F7D90AE000BF286806F8F4
:104E6000010BB8F800000130A8F80000E9E700BF26
:104E70000320BDE8F08100002DE9F04FADF5825D23
:104E800081B0064610A84FF48051FBF7E0F84FF4CC
:104E9000783447F29019022E08BF4FF40034C2F262
:104EA0000009AEA7002E08BF4FF47C34484640F2FC
:104EB0000541FBF7CCF8432000F048FA411E0229D7
:104EC00008D3612836D0412834D0384600F0D4F9D0
:104ED000ECE700BF4A4602F8010B01270DF5805EA2
:104EE0000DF5825110464FF47A72AEF84070FFF71C
:104EF0009FFF0DF5805EBEF84010484600F0F0FAC6
:104F00008046022E0DF5805EAEF842701CD0012E58
:104F10002AD0CEBB47F29850C2F2000087A1FBF71F
:104F2000A8F800285AD04FF0FF300DF5825D01B08F
:104F3000BDE8F08F78A000F09FF94FF0FF300DF53D
:104F4000825D01B0BDE8F08F47F29850C2F20000D8
:104F500075A1FBF78EF8B8B14FF0FF300DF5825D0B
:104F600001B0BDE8F08F00BF47F29850C2F20000D8
:104F70006FA1FBF77EF838B14FF0FF300DF5825D81
:104F800001B0BDE8F08F00BF5FEA086047D147F28B
:104F900090150DF1020EC2F200054FF000080EF55B
:104FA00082570DF5825600BF284640F20541FBF7B7
:104FB0004EF80DF5805E2846012122463346AEF8B4
:104FC0004080009700F0DAFA0DF5805EBEF84010E0
:104FD00000062144A1F10504E6D020E05FEA086064
:104FE00026D010AB0FCB0DF1080C8CE80F00DDE9DB
:104FF000140116AFCDE90601CFCF0DF1200C8CE8DE
:10500000CF00DDE91C10CDE90E1020464FF4805191
:10501000FBF792FF02A920463822FBF7A9FF4AA01E
:1050200000F02AF900200DF5825D01B0BDE8F08F97
:105030000DF1020E0DF1400B00250EF582580DF515
:10504000825A05E003F1010B0025BCF1000FC8D125
:10505000484640F20541FAF7FAFF0DF5805E4846F2
:10506000002100225346AEF84050CDF8008000F0F9
:1050700085FA5FFA80FCBCF1000FB2D10DF5805EBD
:10508000BEF840100629E0D3002100220DF5805E15
:1050900009EB0103BEF84070D87842F001039EB2DC
:1050A0007B1FB3420BEB01030BF80100CADD0DF5CA
:1050B000805EBEF8405006EB090042F00207C0785F
:1050C000BEB26F1FB74258701EDD0DF5805EBEF890
:1050D000405006EB090042F00307C078BEB26F1FD4
:1050E000B742987014DD06EB0900C0780DF5805EBC
:1050F000D870BEF84000043293B20538984201F1EE
:105100000401C3DC8B449FE703F1020B9CE700BF63
:1051100003F1030B98E700BF0D0A47657420416255
:105120006F72740D0A00000045525F524F4D00002F
:1051300045525F4649585F544558540045525F46B2
:1051400049585F44415441000D0A20656E64207443
:1051500072616E736D69740D0A0000000D0A46617C
:10516000756C742053696E676C650D0A0000000051
:1051700080B582B045F63360C0F6000000F07CF8E0
:1051800045F6D670C0F6000000F076F845F6F0500F
:10519000C0F6000000F070F846F21900C0F60000FA
:1051A00000F06AF845F65070C0F6000000F064F8B0
:1051B00045F60D70C0F6000000F05EF845F69370FD
:1051C000C0F6000000F058F845F6CA60C0F60000CE
:1051D00000F052F845F67660C0F6000000F04CF89A
:1051E00045F69050C0F6000000F046F845F6B9606C
:1051F000C0F6000000F040F80DF10700FFF702FED6
:105200009DF8070000F026F89DF807003138C0B27D
:10521000042807D805A101EBC0004068804702B010
:1052200080BD00BF4FF0FF3002B080BD31000000F4
:10523000ED4C000832000000A94C000833000000CB
:105240002153000834000000C94C0008350000005C
:105250009952000880B582B08DF8070043F2000033
:10526000C4F200000DF1070101224FF47A73FFF739
:10527000D1FB02B080BD000010B50446FAF7F2FE83
:1052800082B243F20000C4F2000021464FF47A7368
:10529000BDE81040FFF7BEBB80B502A0FFF7ECFFF2
:1052A000002080BD0D0A53686F77204F74686572C7
:1052B000496E666F726D6174696F6E0D0A00000051
:1052C00043F20000C4F20000FFF70AB980B58CB0C9
:1052D00000200490CDE90600CDE90800CDE90A00E0
:1052E0004FF4E131CDF8020040F2001003910321A8
:1052F000C0F208008DF81110FF21CDF806006846B5
:105300008DF813104FF48071059043F20000ADF852
:105310000010C4F2000003A9FFF730F90CB080BD03
:1053200080B507A0FFF7A8FFFFF7CAFF00F076F8E7
:1053300042F2E211C2F20001002200200A7080BD98
:105340000D0A566F66612B0D0A0000002DE9F04131
:1053500082B043F23C07C4F20007396889051ED5C4
:105360004EF25F3604460020C0F21606A7F13C0557
:105370000DF107080DE000BF2846414601224FF419
:105380007A738DF80740FFF745FB002039688905DF
:1053900005D5B042F0D2013039688905F9D457F803
:1053A000180CC0B202B0BDE8F081000070470000E8
:1053B00000F014F8FAF728FE7047000080B5FDF7FA
:1053C00077FEBDE88040FEF7E5BF000000281EBF65
:1053D00047F28C11C2F200010860704740F20000F1
:1053E0004EF68851C0F60000CEF2000141F8800C64
:1053F00041F23000C4F2020048F2E47242610268F5
:1054000022F0020202604FF480324261086840F4E8
:105410007000086070470000FEE70000B0B58AB079
:105420004FF4E13000250190032043F20004CDE960
:105430000855CDE90655CDE90455CDE902558DF85D
:105440000900FF20C4F200048DF80B0001A92046DA
:10545000FFF794F820684FF4FF4140F040002060CF
:10546000206804F1240240F020002060206940F010
:1054700007002061206840F400602060206B40F04D
:1054800064002063606B40F00100606342F2E8302A
:10549000C2F20000C0E90455C18242F20001C4F228
:1054A0000201C0E90055C0E90255086004F120007E
:1054B0004860182088609020C8F2C000C8600120B1
:1054C00008610A6242F2F812C2F200024A6208223D
:1054D0008A626722C8F60702CA6208630AB0B0BDD2
:1054E000F0B581B047F29855C2F200050C46064669
:1054F00028464021FAF7ABFD852C27D170784FF074
:10550000FF3400284FF0180026D1B1781827FF2962
:105510002CD1F178002409B3032000BF2B183218D6
:1055200003F8031C5178D9B103F8021C9178C9B172
:1055300003F8011CD178B1B129541179021D11B1C0
:105540003F281046EAD3D01E0DE000BF4FF0FF34D5
:10555000182018270AE000BF182707E0002002E003
:10556000023800E001382C5443270620FFF772FE72
:105570003846FFF76FFE204601B0F0BD2DE9F04739
:10558000ADF5816D15460E46194664221F46044648
:10559000FFF74EFC207803281CDD042828D0412882
:1055A00002D0612840F092801820FFF753FE1820A7
:1055B000FFF750FE1820FFF74DFE1820FFF74AFEB8
:1055C0001820FFF747FE4FF0FF300DF5816DBDE865
:1055D000F08700BF01282FD0022877D14FF48068D0
:1055E0004FF0010A388848F0050181422DD06DE066
:1055F0001520FFF72FFE0DF10700FFF703FC9DF8C4
:105600000700042862D10620FFF724FE4320FFF79D
:1056100021FE204640F20541FAF719FD20463946A1
:105620006422FFF705FC0620FFF714FE01200DF5AC
:10563000816DBDE8F08700BF4FF080084FF0000A91
:10564000388848F00501814240D1A178607881F026
:10565000FF0188423AD1DDF8289499F80010884279
:1056600034D1E71C3846414600F038F848F00301D1
:1056700048F00402615CA25C42EA0121814225D12A
:10568000E6B1284639464246FBF772FC02ACC8F543
:10569000806104EB0800BAF1000F18BF0021FAF78F
:1056A000D6FC204629464246FAF7B8FC2046394641
:1056B0004246FAF7ECFC00287FF476AFB9F8000018
:1056C0000130A9F80000432001E000BF1520FFF7DA
:1056D000C1FD00200DF5816DBDE8F087B0B559B171
:1056E0004A1E45F6EE0501F0030C032AC0F600053C
:1056F00006D200212EE000BF002188B2B0BD00BF5D
:1057000021F00303002100BF10F8042B8CB282EAC1
:10571000142235F8122010F8034C82EA012189B2D4
:1057200084EA112135F8111010F8024C81EA0222A6
:1057300092B284EA122235F8122010F8014C82EA63
:10574000012189B284EA112135F81110043B81EA64
:105750000221D9D1BCF1000F1DD002788BB282EAB0
:10576000132235F81230BCF1010F83EA012112D067
:10577000427889B282EA112135F811E0BCF1020FBA
:105780008EEA032107D0807889B280EA112035F8AB
:10579000100080EA0E2188B2B0BD000010B54BF2B7
:1057A0000004C4F202042046FEF7F6FD40F2077042
:1057B000A0634FF4FA70206310BD000080B542F280
:1057C0003420C2F20000A421FAF741FC42F2781121
:1057D000C2F200010020C1E90000C1E90200C1E9F4
:1057E000040042F2F811C2F200014860086042F27F
:1057F0000021C2F20001088042F20221C2F200013F
:10580000088042F20421C2F20001088042F206211F
:10581000C2F20001088042F20821C2F200010880B1
:1058200042F20C21C2F20001C1E90000C1E902000C
:10583000086142F22021C2F20001C1E90000C1E981
:105840000200086142F2901E42F2583242F2C43322
:1058500042F2D81C42F21031C2F2000EC2F2000233
:10586000C2F20003C2F2000CC2F20001CEE9030052
:10587000CEE90500CEE90700C2E90300C2E9050050
:10588000C2E90700C3E90300C3E90500C3E9070053
:105890008CF80200ACF80000C860886048600860BE
:1058A0003220CEF8000001200321CEF80400CEF80B
:1058B00008109621116050600A2090604FF46170CA
:1058C0001860282058604FF4C870986080BD02E0CE
:1058D00008C8121F08C1002AFAD17047704700207B
:1058E00001E001C1121F002AFBD170470000000037
:1058F0002110422063308440A550C660E7700881C3
:1059000029914AA16BB18CC1ADD1CEE1EFF1311239
:10591000100273325222B5529442F772D662399312
:1059200018837BB35AA3BDD39CC3FFF3DEE3622489
:10593000433420040114E664C774A44485546AA562
:105940004BB528850995EEE5CFF5ACC58DD5533619
:10595000722611163006D776F6669556B4465BB7B2
:105960007AA719973887DFF7FEE79DD7BCC7C448E9
:10597000E5588668A7784008611802282338CCC902
:10598000EDD98EE9AFF9488969990AA92BB9F55A79
:10599000D44AB77A966A711A500A333A122AFDDB52
:1059A000DCCBBFFB9EEB799B588B3BBB1AABA66C49
:1059B000877CE44CC55C222C033C600C411CAEEDA2
:1059C0008FFDECCDCDDD2AAD0BBD688D499D977E59
:1059D000B66ED55EF44E133E322E511E700E9FFFF2
:1059E000BEEFDDDFFCCF1BBF3AAF599F788F8891A8
:1059F000A981CAB1EBA10CD12DC14EF16FE180108C
:105A0000A100C230E3200450254046706760B9838E
:105A10009893FBA3DAB33DC31CD37FE35EF3B102DB
:105A20009012F322D2323542145277625672EAB59E
:105A3000CBA5A89589856EF54FE52CD50DC5E2342B
:105A4000C324A01481046674476424540544DBA76E
:105A5000FAB79987B8975FE77EF71DC73CD7D3267B
:105A6000F2369106B01657667676154634564CD9FE
:105A70006DC90EF92FE9C899E9898AB9ABA94458CB
:105A8000654806782768C018E1088238A3287DCBCE
:105A90005CDB3FEB1EFBF98BD89BBBAB9ABB754A1B
:105AA000545A376A167AF10AD01AB32A923A2EFD5E
:105AB0000FED6CDD4DCDAABD8BADE89DC98D267C6B
:105AC000076C645C454CA23C832CE01CC10C1FEFAE
:105AD0003EFF5DCF7CDF9BAFBABFD98FF89F176EBB
:105AE000367E554E745E932EB23ED10EF01E0000EF
:105AF00000127A00002A75150100160000800000CF
:105B0000030000000200000000127A000057A616F1
:105B10000100170000C000000300000002000000A8
:105B200000127A000084D71701001900000000005D
:105B3000030000000200000000127A0000B1081902
:105B400001001A00004000000300000002000000F5
:105B500000127A0000DE391A01001B0000800000EC
:105B6000030000000200000000127A00000B6B1B13
:105B700001001C0000C00000030000000200000043
:105B800000127A0000389C1C01001E00000000007A
:105B90000300000002000000001BB700002A75157A
:105BA00001000F00000000000300000002000000E0
:105BB000001BB7000057A61601000F0055D50000C6
:105BC0000300000002000000001BB7000084D7178C
:105BD00001001000AAAA000003000000020000005B
:105BE000001BB70000B1081901001100008000007F
:105BF0000300000002000000001BB70000DE391A9D
:105C000001001200555500000300000002000000D2
:105C1000001BB700000B6B1B01001300AA2A000039
:105C20000300000002000000001BB70000389C1CAD
:105C3000010014000000000003000000020000004A
:105C400000127A0000E1F5050100060000400000A6
:105C5000000000000200000000127A0080778E062B
:105C60000100060000E0000000000000020000004B
:105C700000127A00000E27070100070000800000D4
:105C8000000000000200000000127A0080A4BF079C
:105C900001000800002000000000000002000000D9
:105CA00000127A00003B58080100080000C0000004
:105CB000000000000200000000127A0080D1F0080D
:105CC0000100090000600000000000000200000068
:105CD00000127A000068890901000A000000000033
:105CE000000000000200000000127A0080FE210A7D
:105CF00001000A0000A000000000000002000000F7
:105D000000127A000095BA0A01000B000040000062
:105D1000000000000200000000127A00802B530BEC
:105D200001000B0000E00000000000000200000085
:105D300000127A0000C2EB0B01000C000080000092
:105D4000000000000200000000127A008058840C5D
:105D500001000D0000200000010000000200000012
:105D600000127A0000EF1C0D01000D0000C00000C1
:105D7000010000000200000000127A008085B50DCD
:105D800001000E00006000000100000002000000A1
:105D90000D0A0D0A000D0A57616974696E67206665
:105DA0006F72207468652066696C6520746F20626C
:105DB000652073656E642E2E2E28707265737320B5
:105DC000276127206F722027412720746F2061628E
:105DD0006F7274290D0A000D0A53656E6420746891
:105DE000652045525F524F4D203E3E3E3E0D0A001B
:105DF0000D0A2B2D2D2D2D636F6D6D616E642D2D74
:105E00002D2D2D2D2D2B2D2D2D2D2D2D2D2D2D2DC4
:105E10002D66756E6374696F6E2D2D2D2D2D2D2DB4
:105E20002D2D2D2D2D2D2D2D2D2D2D2D2D2D2D2DA2
:105E30002D2B000D0A2B3D3D3D3D3D3D3D3D3D3D66
:105E40003D3D3D3D3D28432920434F505952494750
:105E50004854203230323320546169416374696F91
:105E60006E203D3D3D3D3D3D3D3D3D3D3D3D3D3D4E
:105E70003D3D3D3D2B000D0A2B3D3D3D3D3D3D3D16
:105E80003D3D3D3D3D3D3D3D3D3D3D3D3D3D3D3D42
:105E90003D3D3D3D3D3D3D3D3D3D3D3D3D3D3D3D32
:105EA0003D3D3D3D3D3D3D3D3D3D3D3D3D3D3D3D22
:105EB0003D3D3D3D3D3D3D2B005441453332473551
:105EC0003830302D4F54463E3E000D0A7C202035A0
:105ED0003A205245424F4F54202020202020207C41
:105EE000205265626F6F7420202020202020202007
:105EF00020202020202020202020202020202020A2
:105F000020202020202020202020207C000D0A7C22
:105F10002020333A2055736520564F46412B2020D0
:105F200020207C205465737420564F46412B20203E
:105F30002020202020202020202020202020202061
:105F400020202020202020202020202020207C0015
:105F50000D0A7C2020323A204368616E67654261F9
:105F60006E6B2020207C204368616E676520426153
:105F70006E6B204669726D7761726520202020204B
:105F80002020202020202020202020202020202011
:105F9000207C000D0A7C2020343A2055505F455269
:105FA0005F524F4D202020207C204578637574651A
:105FB000207468652063757272656E7420666972FC
:105FC0006D77617265202020202020202020202055
:105FD000202020207C000D0A7C2020202020202052
:105FE0002020202020204F6E2D5468652D466C798E
:105FF000204170706C69636174696F6E202856650A
:106000007273696F6E20312E3029202020202020CD
:10601000202020202020207C000D0A7C2020313AE6
:1060200020465755504441544120202020207C20B8
:1060300055706461746520746865206669726D7757
:1060400061726520746F20666C61736820627920CC
:10605000594D6F64656D202020207C0000000000F9
:106060000000000100000000B8600008006000208F
:1060700084110000CE5800083C7200088471002092
:106080000C000000CE580008487200080080012073
:10609000A80E0000CE580008F08000080020002064
:1060A00000040000500600084872000890710020AB
:1060B00048040000DE58000800200020B15300080A
:1060C000A54C0008B9120008A14C0008F908000806
:1060D000195400080000000000000000000000004B
:1060E00000000000B9530008750E00080000000011
:1060F000AD530008BD530008790E0008790E000862
:10610000790E0008C5660020790E0008790E000897
:10611000790E0008790E0008790E0008790E000843
:10612000790E0008790E0008790E0008790E000833
:10613000790E0008790E0008790E0008790E000823
:10614000790E0008790E0008790E0008790E000813
:10615000790E0008790E0008790E0008790E000803
:10616000790E0008790E0008790E0008790E0008F3
:10617000790E0008F5660020790E0008790E0008F7
:10618000790E0008790E0008790E0008790E0008D3
:10619000790E0008790E0008790E0008790E0008C3
:1061A000790E0008790E0008790E0008790E0008B3
:1061B000790E0008790E0008790E0008790E0008A3
:1061C000790E0008790E0008790E0008790E000893
:1061D000790E0008790E0008790E0008790E000883
:1061E000790E0008790E0008790E0008790E000873
:1061F000790E00084D66002025660020790E000803
:10620000790E0008790E0008790E0008790E000852
:10621000790E0008790E0008790E0008790E000842
:10622000790E0008790E0008790E0008790E000832
:10623000790E0008790E0008790E0008790E000822
:10624000790E0008790E0008790E0008790E000812
:10625000790E0008790E000845F2792CC0F6000C82
:10626000604745F2CD3CC0F6000C604740F2DF3C91
:10627000C0F6000C604740F2FB1CC0F6000C604703
:1062800040F2374CC0F6000C604740F6FD0CC0F6FB
:10629000000C604740F6595CC0F6000C604741F2C4
:1062A000892CC0F6000C604740F6614CC0F6000C2B
:1062B000604740F6B14CC0F6000C604740F6E94C30
:1062C000C0F6000C604740F6215CC0F6000C604749
:1062D00040F28D6CC0F6000C604742F2615CC0F683
:1062E000000C604741F2992CC0F6000C604700009A
:1062F00080B509A0FFF7B0FF42F21030C2F20000F3
:1063000043F62E21818049F20050C0F6BA20FFF7F3
:10631000A8FF002080BD00BF546869732069732006
:1063200042414E4B20303B0D0A00000042F2022059
:10633000C2F20000B0F9001042F234208A00C2F22A
:10634000000000290260DCBF0021016042F204214C
:10635000C2F20001B1F900108A0000294260DCBFDE
:106360000021416042F2D811C2F200014A780AB31A
:106370004A78012A42D142F20622C2F20002B2F960
:10638000002044F29C13A3EB8202C260C26844F274
:10639000F003002ADCBF0022C26042F20822C2F2EF
:1063A0000002B2F90020A3EB820202610269002A16
:1063B00024DC21E042F20622C2F20002B2F90020FF
:1063C0004BF66463CFF6FF7303EB8202C260C268D0
:1063D0004BF61073002ADCBF0022C26042F2082292
:1063E000C2F20002B2F90020CFF6FF7303EB820283
:1063F00002610269012A01DA0022026142F20022EE
:10640000C2F20002B2F900209300002A4364DCBF0C
:10641000002242644978012918BF704701688160F1
:106420004168016081684160C16841610169C16082
:10643000416901617047000042F23420C2F200005D
:10644000C16A82691144C162016BC269114401636E
:10645000416B026A11444163816B426A114481635A
:10646000816A4A1C3F29826238BF7047C16A89111C
:106470000160016B89114160416B8911C160816BC1
:10648000891101610021C1620163416381638162FD
:106490007047000070470000F0B581B044F200067C
:1064A000C4F202063068022140F48070306048F285
:1064B0001000C4F2030042F234270160C2F2000768
:1064C00097F8780020B1FFF731FF00F091F966E00E
:1064D00042F20621C2F20001F86FB1F9001000EBA0
:1064E000810042F20821F867C2F20001D7F880006B
:1064F000B1F9001000EB8100C7F88000D7F88400E4
:10650000411C4028C7F8841049D3F86F8011FFF769
:10651000ADFE9FED530B54EC105B2A462346FFF76C
:10652000AAFEFFF7ADFEC7F88800D7F880008011FB
:10653000FFF79CFE2A462346FFF79DFEFFF7A0FECD
:10654000C7F88C00D7F8880043F2E4410844C0083B
:10655000C7F89000D7F88C000844C008C7F894002A
:10656000D7F88C00401AC008C7F89800D7F8880000
:10657000401AC008C7F89C00FFF787FEFFF78AFEA5
:106580004BF61070C4F2030002210160102101607B
:106590002021016080210160012087F8780042F20B
:1065A000DC11C2F200010888772842F27810C2F2AA
:1065B000000015D142F2901342F25832C2F20003A9
:1065C000C2F200021946176A51F8205FAF421EDC82
:1065D00052F8201F1B6A9942114628DA17E000BFC3
:1065E0000988882923D142F25833C2F2000342F2CB
:1065F00090121946C2F2000251F8207F156AAF428C
:1066000005DB196A52F8203F994211460FDD42F22C
:10661000C432C2F2000252F8203F0F68BB42C8BF2A
:106620000A4611684FF4E1425143C90B0160016809
:10663000490914299CBF4FF428710160026846F291
:10664000DE418A4228BF0160006800F0F9FB306833
:1066500040F08070306001B0F0BD00BF00BF00BFEF
:10666000B459F5B9DA8AEF3F4BF20001C4F20201E6
:106670004FF400720A616422504301380863C8680D
:1066800040F40070C860086840F00100086070477E
:106690004BF20000C4F20200016821F00101016028
:1066A000C16821F40071C160704700004BF2000026
:1066B000C4F202004FF400710161016821F0010190
:1066C0000160C16821F40071C16042F23420C2F25D
:1066D0000000012180F8A1107047000010B542F2BF
:1066E0007414C2F200040120206048F21000C4F2C9
:1066F00003000068800748BFFFF7CEFE002020603F
:1067000010BD0000B0B542F274144BF61075C2F221
:1067100000040120C4F203052060286810F4FF7F04
:1067200018BFFFF7BCFD286880070BD42868C00697
:106730000FD42868800613D42868000617D40020D8
:106740002060B0BDFFF7B0FD022028602868C006B9
:10675000EFD5FFF7AEFD1020286028688006EBD546
:10676000FFF7ACFD2020286028680006E7D5FFF77A
:10677000AAFD8020286000202060B0BD43F23800D0
:10678000C4F200000168C90708BF7047016841F002
:106790000101016042F2F81042F22401C2F200004D
:1067A000C4F2020108600120C860704710B542F2CF
:1067B0007414C2F20004012020604BF21000C4F2F5
:1067C00002000068800548BFFFF770FF00202060CE
:1067D00010BD000042F21400C4F202000168490733
:1067E00058BF704704210160012140F8041C704724
:1067F0002DE9F04100F048F942F2D816C2F2000645
:10680000B07800285ED0B078002808BFBDE8F081DD
:10681000FFF745FD42F21034C2F2000400254BF6AA
:106820001477A580E580E5812580C4F203073868E8
:106830004FF0FF3820F0B200386047F8048CFFF7C3
:1068400029FDFFF722FDB57047F8048C386840F049
:10685000B200386042F29010C2F200000561C560DB
:106860004561056242F25830C2F200000561C56020
:106870004561056242F23420C2F2000080F84E50B9
:1068800080F84D5042F2DC10C2F200000580A58174
:10689000FFF71EFD44F22000C4F20200016841F43B
:1068A0007061016048F20000C4F20300016841F029
:1068B00004010160D0F8001441F00401C0F8001494
:1068C000ADE000BF42F23424C2F2000494F94C005F
:1068D00002280DD0012829D0D0BBA06C20B994F893
:1068E0004D00002800F0CE80A06C00283ED138E09A
:1068F000FFF7D5FCA06C0F2898BFA06CA06C0028F7
:10690000B0FA80F118BF0120400084F84C0044F236
:106910002000C4F202004A0900F57E601021FFF752
:10692000DCFC94F84C00012879D128E0A06C38B93F
:1069300094F84D0020B9002084F84C00FFF7AFFC1C
:10694000A06C002860D0A06CA8B1FFF7A8FC0FE0F5
:10695000A06C20B994F84D00002800F09380A06C42
:1069600020B994F84D0008B1012002E0A06C10B1EC
:10697000022084F84C0094F84C0001284FD142F2D8
:10698000DC10C2F200000088002848D0206D411CB5
:106990002165F8B10020206542F21030C2F20000FB
:1069A0000189828891420BD901898288914211D94B
:1069B000A16D4A1EA2658288914207D90AE000BFF4
:1069C000A16D4A1CA2658288914203D38188A1658A
:1069D00081880181606D411C062861652CD30020EF
:1069E000606542F21030C2F200004189C2889142D3
:1069F00018D94189C28891421ED9E16D4A1EE265CB
:106A0000C288914218D813E094F84D0000283FF452
:106A10009AAFFFF767FC94F84C000128AFD0BDE8AF
:106A2000F08100BFE16D4A1CE265C288914203D348
:106A3000C188E165C1884181A06D6168401A42F258
:106A40009011C2F20001C861C86900F04FFBE06D0F
:106A50002169401A42F25831C2F20001C861C86986
:106A600000F07CFB206C4FF4A651A1EBE03042F229
:106A7000C431C2F20001C861C869BDE8F04100F04C
:106A8000A5BB00BF002074E72DE9F04142F2342499
:106A9000C2F20004E068A16C42F64F2221F010011E
:106AA000904288BF1031A1642069A16C904221F00E
:106AB000200188BF2031A164206847F25901884233
:106AC00004D3A06C40F0400010E000BF2168A06C2F
:106AD00041F61762914203D840F4807006E000BF8F
:106AE00020F04000A064A06C20F48070A064606876
:106AF000A16C47F2580221F08001904288BF80319A
:106B0000A164616CA26C46F2040022F4006241F2BE
:106B10000303C4F20200994238BF02F50062A26486
:106B2000016842F210358904C2F2000510D42988A8
:106B300043F2EF5291420BD1012184F84D1045F2FE
:106B40000001C4F202010A6842F400220A6025E052
:106B50000168890404D4298846F6CC0291421DD1EB
:106B6000002145F2000284F84D10C4F202021368BD
:106B700043F0080313604FF4FA72A26542F29012D8
:106B8000C2F200021161D1605161116242F25832C9
:106B9000C2F200021161D1605161116294F84E108D
:106BA00094F84D2042F2DC189142C2F200082BD03A
:106BB00094F84D1041B3B8F8001079B9A98969B9B2
:106BC0008821A8F80010A8F8021042F2AB71E98001
:106BD000A988002904BF46F24F41A980A9897729D5
:106BE00005D1A988002904BF46F65761A980A98963
:106BF000882905D1E988002904BF42F2AB71E980F8
:106C000094F84D1084F84E100168490442F2D811EE
:106C1000C2F2000104D44FF40062012306E000BF79
:106C20000268520408D54FF0006200230B7050F840
:106C3000043C1A4340F8042C48780A78904203D068
:106C40000120887008784870E06821684843401146
:106C5000206720696168484340116067606E216F5A
:106C600008446066A06E616F0844A066E06E411C37
:106C70002028E16607D30020E066616EE163A16E23
:106C800021646066A066206C40F69B67C0F66A3798
:106C9000B84208D994F8790028B90520FFF7E4FC38
:106CA000012084F87900E06B4BF2D826C0F67346D9
:106CB000B04202D994F8790070B1E06842F65121EF
:106CC000884214D394F8790088B90320FFF7CCFCEC
:106CD000012084F879000AE00520FFF7C5FC0120B7
:106CE00084F87900E06842F651218842EAD294F8AB
:106CF000780088B1002084F87900206CB8421BD855
:106D0000E06BB0421FD8E06842F65121884203D3BD
:106D1000A06C40F01000A064A889772804D17720E7
:106D2000A8F80000BDE8F081A889882816D188203D
:106D3000A8F80000BDE8F081A06C40F48060A06479
:106D4000E06BB042DFD9A06C40F40070A064E06852
:106D500042F651218842DBD2DEE700BFA88999289C
:106D600018BFBDE8F0819920A8F80000BDE8F081C7
:106D700042F23420C2F20000816C11B990F84D103B
:106D800091B1816C41B1816C002908BF704702212B
:106D900080F84C10704700BF90F84D100029F2D0D9
:106DA000012180F84C107047002180F84C1070478A
:106DB00010B542F23424C2F20004A06C10B994F869
:106DC0004D0058B1A06C88B1A06C002808BF10BD60
:106DD000FFF765FA022084F84C0010BD002084F80B
:106DE0004C00FFF75CFAA06C0028EDD194F84D0040
:106DF0000028E9D0BDE81040FFF774BA80B5FFF76E
:106E00004EFA42F2342CC2F2000CDCF848000F2893
:106E100098BFDCF84800DCF848000028B0FA80F1A0
:106E200018BF0120430045F200004A09C4F20200E5
:106E300010218CF84C30BDE88040FFF74EBA0000BE
:106E4000B0B54BF6007CC4F2030CDCF8001042F243
:106E5000503541F01F01CCF8001000BF00BF00BF4B
:106E600000BF00BFC2F20005296842F2D8144A1CD4
:106E70002A60C2F20004637883B36378012B40F088
:106E8000298183094BF21C3ECE2BC4F2030E65D838
:106E900043F63F01CEF80010A0F51071CEF80410B3
:106EA000CEF8080043F2FF50CEF80C002868002806
:106EB00000F01081012840F0BB8042F29F00CEF824
:106EC000000141F6DF10CEF8040141F61F40CEF874
:106ED000080141F65F60CEF80C01FBE083094BF23C
:106EE0001C3ECE2BC4F2030E24D843F63F01CEF84D
:106EF0000011A0F51071CEF80411CEF8080143F28C
:106F0000FF50CEF80C012868002800F0E38001282B
:106F10003AD142F29F00CEF8000041F6DF10CEF8E1
:106F2000040041F61F40CEF8080041F65F60CEF83D
:106F30000C00CFE043F2BF33C31A42F27810C2F222
:106F400000000361CAB359BB43F2FF5142F61B0272
:106F500042F2DB5343F63F0427E000BF43F2BF3366
:106F6000C31A42F27810C2F20000002A036178D0FE
:106F7000002969D143F2FF5142F61B0242F2DB5372
:106F800043F63F0465E000BF00202860CEF8000013
:106F9000CEF80400CEF80800CEF80C009AE000BF4E
:106FA00000240023002200212C60CEF80041CEF8FE
:106FB0000431CEF80821CEF80C11016942F29F028B
:106FC0008B1801699B09E02B12D81144CEF80010F0
:106FD00041F6DF11CEF8041041F61F41CEF808103B
:106FE000006941F65F610844CEF80C0072E000BF12
:106FF00041F2A172891A11F5615F6BD2016941F604
:10700000DF12A1F5BD51416143F63F01CEF80010FA
:107010004169511ACEF80410406941F61F41081A1F
:10702000CEF8080043F2FF50CEF80C0052E000BF4B
:1070300000202860CEF80001CEF80401CEF8080147
:10704000CEF80C0146E000BF0024002300220021FE
:107050002C60CEF80040CEF80430CEF80820CEF8F0
:107060000C10016942F29F028B1801699B09E02B09
:1070700012D81144CEF8001141F6DF11CEF80411F8
:1070800041F61F41CEF80811006941F65F610844DE
:10709000CEF80C011EE000BF41F2A172891A11F571
:1070A000615F17D2016941F6DF12A1F5BD5141615F
:1070B00043F63F01CEF800114169511ACEF8041190
:1070C000406941F61F41081ACEF8080143F2FF500B
:1070D000CEF80C0100BF00BF00BF00BF00BFDCF84E
:1070E000000020F01F00CCF80000B0BD42F290116B
:1070F000C2F200010A6842430A614A68CB6802FB97
:107100000032CA608A688B69C31A5A434A6188612F
:10711000C868B0F1007F03DD4FF0007006E000BFEB
:10712000C868B0F17E4F02DA4FF07E40C86008694F
:10713000CA684B691044184480120862086AB0F5A6
:10714000004F03DB47F6FF7008627047086AB0F132
:10715000FF3FC8BF704700200862704742F25831B5
:10716000C2F200010A6842430A614A68CB6802FB26
:107170000032CA608A688B69C31A5A434A618861BF
:10718000C868B0F1007F03DD4FF0007006E000BF7B
:10719000C868B0F17E4F02DA4FF07E40C8600869DF
:1071A000CA684B691044184480120862086AB0F536
:1071B000004F03DB47F6FF7008627047086AB0F1C2
:1071C000FF3FC8BF704700200862704742F2C431D9
:1071D000C2F200010A6842430A614A68CB6802FBB6
:1071E0000032CA608A688B69C31A5A434A6188614F
:1071F000C868B0F1007F03DD4FF0007006E000BF0B
:10720000C868B0F17E4F02DA4FF07E40C86008696E
:10721000CA684B691044184480120862086AB0F5C5
:10722000004F03DB47F6FF7008627047086AB0F151
:10723000FF3FC8BF70470020086270470100000090
:107240000F00000000127A0000200020B153000857
:10725000A54C0008B9120008A14C0008F908000864
:1072600019540008000000000000000000000000A9
:1072700000000000B9530008750E0008000000006F
:10728000AD530008BD530008790E0008790E0008C0
:10729000790E0008C5660020790E0008790E0008F6
:1072A000790E0008790E0008790E0008790E0008A2
:1072B000790E0008790E0008790E0008790E000892
:1072C000790E0008790E0008790E0008790E000882
:1072D000790E0008790E0008790E0008790E000872
:1072E000790E0008790E0008790E0008790E000862
:1072F000790E0008790E0008790E0008790E000852
:10730000790E000871820120790E0008790E0008BC
:10731000790E0008790E0008790E0008790E000831
:10732000790E0008790E0008790E0008790E000821
:10733000790E0008790E0008790E0008790E000811
:10734000790E0008790E0008790E0008790E000801
:10735000790E0008790E0008790E0008790E0008F1
:10736000790E0008790E0008790E0008790E0008E1
:10737000790E0008790E0008790E0008790E0008D1
:10738000790E0008C9810120A1810120790E000831
:10739000790E0008790E0008790E0008790E0008B1
:1073A000790E0008790E0008790E0008790E0008A1
:1073B000790E0008790E0008790E0008790E000891
:1073C000790E0008790E0008790E0008790E000881
:1073D000790E0008790E0008790E0008790E000871
:1073E000790E0008790E000810B542F27414C2F24A
:1073F00000040120206048F21000C4F2030000687D
:10740000800748BF00F020F90020206010BD000078
:10741000B0B542F274144BF61075C2F200040120AC
:10742000C4F203052060286810F4FF7F18BFEDF751
:10743000FEFF286880070BD42868C0060FD4286890
:10744000800613D42868000617D400202060B0BD41
:10745000EDF7F2FF022028602868C006EFD5EDF7AF
:10746000F0FF1020286028688006EBD5EDF7EEFFCE
:107470002020286028680006E7D5EDF7ECFF802083
:10748000286000202060B0BD43F23800C4F2000044
:107490000168C90708BF7047016841F00101016038
:1074A00042F2F81042F22401C2F20000C4F20201DA
:1074B00008600120C860704710B542F27414C2F22F
:1074C0000004012020604BF21000C4F202000068AA
:1074D000800548BF00F0C2F90020206010BD000008
:1074E00042F20220C2F20000B0F9001042F2342051
:1074F0008A00C2F2000000290260DCBF00210160A6
:1075000042F20421C2F20001B1F900108A00002900
:107510004260DCBF0021416042F2D811C2F200019A
:107520004A780AB34A78012A42D142F20622C2F2CC
:107530000002B2F9002044F29C13A3EB8202C26065
:10754000C26844F2F003002ADCBF0022C26042F2AB
:107550000822C2F20002B2F90020A3EB820202610B
:107560000269002A24DC21E042F20622C2F2000273
:10757000B2F900204BF66463CFF6FF7303EB82028F
:10758000C260C2684BF61073002ADCBF0022C260E2
:1075900042F20822C2F20002B2F90020CFF6FF73D5
:1075A00003EB820202610269012A01DA0022026110
:1075B00042F20022C2F20002B2F900209300002A37
:1075C0004364DCBF002242644978012918BF704738
:1075D000016881604168016081684160C168416102
:1075E0000169C160416901617047000042F23420C5
:1075F000C2F20000C16A82691144C162016BC269B2
:1076000011440163416B026A11444163816B426A18
:1076100011448163816A4A1C3F29826238BF7047E6
:10762000C16A89110160016B89114160416B891147
:10763000C160816B891101610021C16201634163F5
:107640008163816270470000F0B581B044F20006AA
:10765000C4F202063068022140F48070306048F2C3
:107660001000C4F2030042F234270160C2F20007A6
:1076700097F8780020B1FFF733FF00F007F966E0D4
:1076800042F20621C2F20001F86FB1F9001000EBDE
:10769000810042F20821F867C2F20001D7F88000A9
:1076A000B1F9001000EB8100C7F88000D7F8840022
:1076B000411C4028C7F8841049D3F86F8011EDF7BA
:1076C0009DFE9FED530B54EC105B2A462346EDF7CD
:1076D0009AFEEDF79DFEC7F88800D7F8800080116C
:1076E000EDF78CFE2A462346EDF78DFEEDF790FE72
:1076F000C7F88C00D7F8880043F2E4410844C0087A
:10770000C7F89000D7F88C000844C008C7F8940068
:10771000D7F88C00401AC008C7F89800D7F888003E
:10772000401AC008C7F89C00EDF777FEEDF77AFE27
:107730004BF61070C4F203000221016010210160B9
:107740002021016080210160012087F8780042F249
:10775000DC11C2F200010888772842F27810C2F2E8
:10776000000015D142F2901342F25832C2F20003E7
:10777000C2F200021946176A51F8205FAF421EDCC0
:1077800052F8201F1B6A9942114628DA17E000BF01
:107790000988882923D142F25833C2F2000342F209
:1077A00090121946C2F2000251F8207F156AAF42CA
:1077B00005DB196A52F8203F994211460FDD42F26B
:1077C000C432C2F2000252F8203F0F68BB42C8BF69
:1077D0000A4611684FF4E1425143C90B0160016848
:1077E000490914299CBF4FF428710160026846F2D0
:1077F000DE418A4228BF0160006800F023FB306848
:1078000040F08070306001B0F0BD00BF00BF00BF2D
:10781000B459F5B9DA8AEF3F4BF20001C4F2020124
:107820004FF400720A616422504301380863C8684B
:1078300040F40070C860086840F0010008607047BC
:107840004BF20000C4F20200016821F00101016066
:10785000C16821F40071C160704700004BF2000064
:10786000C4F202004FF400710161016821F00101CE
:107870000160C16821F40071C16042F23420C2F29B
:107880000000012180F8A110704700002DE9F041AF
:1078900000F0FCF842F2D816C2F20006B0780028D8
:1078A0005ED0B078002808BFBDE8F081EDF7BFFDDD
:1078B00042F21034C2F2000400254BF61477A58082
:1078C000E580E5812580C4F2030738684FF0FF3872
:1078D00020F0B200386047F8048CEDF7A3FDEDF717
:1078E0009CFDB57047F8048C386840F0B2003860F1
:1078F00042F29010C2F200000561C5604561056268
:1079000042F25830C2F200000561C560456105626F
:1079100042F23420C2F2000080F84E5080F84D5000
:1079200042F2DC10C2F200000580A581EDF798FD5F
:1079300044F22000C4F20200016841F47061016069
:1079400048F20000C4F20300016841F00401016044
:10795000D0F8001441F00401C0F8001440E000BF6A
:1079600042F23424C2F2000494F94C00022809D0F7
:1079700001280FD00028EEF7C3FA94F84C00012834
:107980002ED10DE0EEF702FB94F84C00012827D130
:1079900006E000BFEEF7D4FA94F84C0001281FD19E
:1079A00042F2DC10C2F200000088C8B1206D411C18
:1079B000216508B30020206542F21030C2F20000B9
:1079C0000189828891420DD901898288914213D917
:1079D000A16D4A1EA2658288914209D90CE000BFC0
:1079E000BDE8F081A16D4A1CA2658288914203D353
:1079F0008188A16581880181606D411C06286165CF
:107A00001ED30020606542F21030C2F200004189AE
:107A1000C28891420AD94189C288914210D9E16D48
:107A20004A1EE265C28891420AD805E0E16D4A1C0F
:107A3000E265C288914203D3C188E165C188418172
:107A4000A06D6168401A42F29011C2F20001C86153
:107A5000C869EEF713FCE06D2169401A42F2583113
:107A6000C2F20001C861C869EEF740FC206C4FF417
:107A7000A651A1EBE03042F2C431C2F20001C8616C
:107A8000C869BDE8F041EEF769BC00002DE9F0419E
:107A900042F23424C2F20004E068A16C42F64F22A4
:107AA00021F01001904288BF1031A1642069A16CBF
:107AB000904221F0200188BF2031A164206847F264
:107AC0005901884204D3A06C40F0400010E000BF90
:107AD0002168A06C41F61762914203D840F480708F
:107AE00006E000BF20F04000A064A06C20F480708D
:107AF000A0646068A16C47F2580221F080019042B6
:107B000088BF8031A164616CA26C46F2040022F44B
:107B1000006241F20303C4F20200994238BF02F549
:107B20000062A264016842F210358904C2F20005C5
:107B300010D4298843F2EF5291420BD1012184F8ED
:107B40004D1045F20001C4F202010A6842F400221D
:107B50000A6025E00168890404D4298846F6CC022D
:107B600091421DD1002145F2000284F84D10C4F26B
:107B70000202136843F0080313604FF4FA72A2651F
:107B800042F29012C2F200021161D16051611162A1
:107B900042F25832C2F200021161D16051611162A9
:107BA00094F84E1094F84D2042F2DC189142C2F243
:107BB00000082BD094F84D1041B3B8F8001079B9F3
:107BC000A98969B98821A8F80010A8F8021042F222
:107BD000AB71E980A988002904BF46F24F41A98012
:107BE000A989772905D1A988002904BF46F65761DC
:107BF000A980A989882905D1E988002904BF42F212
:107C0000AB71E98094F84D1084F84E100168490476
:107C100042F2D811C2F2000104D44FF400620123F1
:107C200006E000BF0268520408D54FF0006200234E
:107C30000B7050F8043C1A4340F8042C48780A783A
:107C4000904203D00120887008784870E06821686D
:107C500048434011206720696168484340116067CC
:107C6000606E216F08446066A06E616F0844A06674
:107C7000E06E411C2028E16607D30020E066616EBB
:107C8000E163A16E21646066A066206C40F69B678C
:107C9000C0F66A37B84208D994F8790028B90520A7
:107CA000EDF7AAFD012084F87900E06B4BF2D826AD
:107CB000C0F67346B04202D994F8790070B1E0681A
:107CC00042F65121884214D394F8790088B90320F0
:107CD000EDF792FD012084F879000AE00520EDF728
:107CE0008BFD012084F87900E06842F6512188423A
:107CF000EAD294F8780088B1002084F87900206CEA
:107D0000B8421BD8E06BB0421FD8E06842F6512160
:107D1000884203D3A06C40F01000A064A8897728A3
:107D200004D17720A8F80000BDE8F081A889882850
:107D300016D18820A8F80000BDE8F081A06C40F4BE
:107D40008060A064E06BB042DFD9A06C40F40070AA
:107D5000A064E06842F651218842DBD2DEE700BF32
:107D6000A889992818BFBDE8F0819920A8F80000DB
:107D7000BDE8F08142F23420C2F20000816C11B9FA
:107D800090F84D1091B1816C41B1816C002908BF10
:107D90007047022180F84C10704700BF90F84D10DA
:107DA0000029F2D0012180F84C107047002180F8A2
:107DB0004C10704710B542F23424C2F20004A06C9B
:107DC00010B994F84D0058B1A06C88B1A06C00288F
:107DD00008BF10BDEDF72BFB022084F84C0010BD4E
:107DE000002084F84C00EDF722FBA06C0028EDD1B8
:107DF00094F84D000028E9D0BDE81040EDF73ABBFB
:107E000080B5EDF714FB42F2342CC2F2000CDCF822
:107E100048000F2898BFDCF84800DCF8480000282C
:107E2000B0FA80F118BF0120430045F200004A0972
:107E3000C4F2020010218CF84C30BDE88040EDF710
:107E400014BB0000B0B54BF6007CC4F2030CDCF8A8
:107E5000001042F2503541F01F01CCF8001000BF75
:107E600000BF00BF00BF00BFC2F20005296842F298
:107E7000D8144A1C2A60C2F20004637883B3637882
:107E8000012B40F0298183094BF21C3ECE2BC4F21A
:107E9000030E65D843F63F01CEF80010A0F510712F
:107EA000CEF80410CEF8080043F2FF50CEF80C00D4
:107EB0002868002800F01081012840F0BB8042F2C1
:107EC0009F00CEF8000141F6DF10CEF8040141F624
:107ED0001F40CEF8080141F65F60CEF80C01FBE0D0
:107EE00083094BF21C3ECE2BC4F2030E24D843F67A
:107EF0003F01CEF80011A0F51071CEF80411CEF8B4
:107F0000080143F2FF50CEF80C012868002800F069
:107F1000E38001283AD142F29F00CEF8000041F6FA
:107F2000DF10CEF8040041F61F40CEF8080041F6FD
:107F30005F60CEF80C00CFE043F2BF33C31A42F2C9
:107F40007810C2F200000361CAB359BB43F2FF517B
:107F500042F61B0242F2DB5343F63F0427E000BF28
:107F600043F2BF33C31A42F27810C2F20000002A73
:107F7000036178D0002969D143F2FF5142F61B0218
:107F800042F2DB5343F63F0465E000BF0020286067
:107F9000CEF80000CEF80400CEF80800CEF80C00B1
:107FA0009AE000BF00240023002200212C60CEF8BC
:107FB0000041CEF80431CEF80821CEF80C11016949
:107FC00042F29F028B1801699B09E02B12D81144E1
:107FD000CEF8001041F6DF11CEF8041041F61F4133
:107FE000CEF80810006941F65F610844CEF80C0035
:107FF00072E000BF41F2A172891A11F5615F6BD284
:10800000016941F6DF12A1F5BD51416143F63F011F
:10801000CEF800104169511ACEF80410406941F6BB
:108020001F41081ACEF8080043F2FF50CEF80C00AA
:1080300052E000BF00202860CEF80001CEF8040115
:10804000CEF80801CEF80C0146E000BF0024002362
:10805000002200212C60CEF80040CEF80430CEF88B
:108060000820CEF80C10016942F29F028B180169BA
:108070009B09E02B12D81144CEF8001141F6DF1114
:10808000CEF8041141F61F41CEF80811006941F6FF
:108090005F610844CEF80C011EE000BF41F2A172FE
:1080A000891A11F5615F17D2016941F6DF12A1F556
:1080B000BD51416143F63F01CEF800114169511AAB
:1080C000CEF80411406941F61F41081ACEF80801A4
:1080D00043F2FF50CEF80C0100BF00BF00BF00BF4D
:1080E00000BFDCF8000020F01F00CCF80000B0BD9D
:0C80F00001FF01FF01FF01FF91000000F3
:020000040801F1
:10E0000086B04EF6085046F20001CEF20000C2F291
:10E01000000101600220ADF8040049F20050C0F692
:10E02000BA20029041F20020C0F27A0003904FF033
:10E03000021004900120ADF814000020C4F2020088
:10E0400001A9E5F723FF50B90298E7F7BFF90120CE
:10E050000621E5F73FF901200221E5F78FFA41F2A9
:10E060004400C4F2020048F2E471016048F63D2128
:10E07000016041F6EC110160C16941F48051C16158
:10E08000016841F480310160016841F400310160B0
:10E09000E5F71CF840F6B830E3F746FEE2F7CEFBB2
:10E0A0009FED330B42F2E2145AEC108B9FED320BD2
:10E0B00042F2103942F2E83542F2342B9FED308AB9
:10E0C000C2F20004C2F20009C2F2000557EC106B64
:10E0D000C2F2000BB7EE009A00F0D2FA20780128C5
:10E0E0003AD00028FAD1B9F80400E2F778F94246AC
:10E0F0005346E2F782F8E2F7B7F92860B9F806006C
:10E10000E2F76DF932463B46E2F777F8E2F7ACF911
:10E11000686042F2DC10C2F200000088B0EE481ADB
:10E1200000EE100A9BF84D009BED122AB8EE400A53
:10E13000B8EEC22A002818BFB0EE491A85ED020ACF
:10E1400085ED031A85ED042A00F09FFA0520E3F718
:10E15000EBFDE2F765FCC1E7E7F70AF80228BBD060
:10E160000128BBD100F006F9B6E700BF00BF00BF31
:10E17000CCCDB233A6E65F3F6CAB6000DB2A583FE4
:10E180000000000010B542F20004C2F20004204674
:10E190003821E1F75CFF4FF200004FF20401C0F6B6
:10E1A0000300C0F60301D0F800C0D1F800E04FF240
:10E1B00014004FF210014FF208024FF20C03C0F6A8
:10E1C0000300C0F60301C0F60302C0F603030068B3
:10E1D000096812681B68C4E904104FF218004FF276
:10E1E0001C01C4E90223C4E900CEC0F60300C0F656
:10E1F0000301D0F800C0D1F800E04FF22C004FF23C
:10E2000028014FF220024FF22403C0F60300C0F6AB
:10E210000301C0F60302C0F6030300680968126830
:10E220001B68C4E90A104FF234004FF23001C4E910
:10E230000823C4E906CEC0F60300C0F60301006857
:10E240000968C4E90C1010BD10B542F23804C2F2DE
:10E25000000420463821E1F7FAFE4FF200004FF2A9
:10E260000401C0F60100C0F60101D0F800C0D1F8E9
:10E2700000E04FF214004FF210014FF208024FF28B
:10E280000C03C0F60100C0F60101C0F60102C0F6A1
:10E2900001030068096812681B68C4E904104FF2A2
:10E2A00018004FF21C01C4E90223C4E900CEC0F6F5
:10E2B0000100C0F60101D0F800C0D1F800E04FF233
:10E2C0002C004FF228014FF220024FF22403C0F637
:10E2D0000100C0F60101C0F60102C0F601030068AA
:10E2E000096812681B68C4E90A104FF234004FF243
:10E2F0003001C4E90823C4E906CEC0F60100C0F627
:10E30000010100680968C4E90C1010BD70470000E5
:10E3100041F24000C4F20200006845F2080180B2F8
:10E32000884218BF704742F20001C2F20001D1E9F1
:10E3300002300A6903F50031E1F770BE10B541F211
:10E340004000C4F20200006845F2080180B2884231
:10E3500018BF10BD42F23804C2F20004206B4FF423
:10E360000041E1F774FED4E90B10626BBDE8104088
:10E37000E1F754BE2DE9F04381B042F23804C2F215
:10E38000000441F2400520463821C4F20205E1F7BD
:10E390005EFE4FF20000C0F601004FF21406006866
:10E3A0004FF204014FF208024FF20C034FF2100734
:10E3B000C0F60106C0F60101C0F60102C0F6010375
:10E3C000C0F601073668096812681B683F6884E870
:10E3D0008F004FF218006661C0F601004FF21C0179
:10E3E0004FF22C060068C0F601014FF220024FF2F6
:10E3F00024034FF22807C0F601060968C0F601029F
:10E40000C0F60103C0F60107366804F1180C126863
:10E410001B683F688CE88F004FF230004FF23401E8
:10E42000E662C0F60100C0F601010968006845F225
:10E430000806C4E90C01286880B2B04209D1206BFB
:10E440004FF40041E1F703FED4E90B10626BE1F7F2
:10E45000E5FD46F200094EF60858C2F20009CEF278
:10E46000000809F59030C8F80000286880B2B04272
:10E470006CD142F20004C2F2000420463821E1F7D8
:10E48000E6FD4FF20000C0F603004FF214060068EC
:10E490004FF204014FF208024FF20C03C0F60306DC
:10E4A0004FF21007C0F60301C0F60302C0F60303E3
:10E4B0003668C0F60307096812681B683F6884E87D
:10E4C0008F004FF218006661C0F603004FF21C0186
:10E4D0000068C0F603014FF220024FF224034FF20E
:10E4E0002C074FF228060968C0F60302C0F60303A2
:10E4F000C0F60307C0F6030604F1180C12681B6887
:10E500003F6836688CE8CF004FF234004FF230019C
:10E51000C0F60300C0F6030100680968C4E90C10E6
:10E52000286845F2080180B2884206D1D4E9021079
:10E53000226901F50031E1F771FD42F27410C2F277
:10E5400000000068012807D1FEE700BF4FF0FF3050
:10E5500001B0BDE8F08300BF48F20804C4F2020431
:10E56000206840F48070206000F02CF8C8F800901B
:10E57000206820F480702060002001B0BDE8F083A6
:10E5800049F21001C4F200010A6842F400720A6004
:10E5900064225043086251F8100C40F0010041F829
:10E5A000100C03E00868800548BF704708688005C4
:10E5B00006D4086880055CBF08685FEA8050F1D522
:10E5C00070470000B0B541F24404C4F2020454F8AC
:10E5D0003C0C25A110F4807526A008BF0846E6F77C
:10E5E0004BFE48F20800C4F20200016841F24A23DF
:10E5F00041F48071016043F22401C4F202010A680F
:10E6000063F30F020A600A684BF67F4363F30F025D
:10E610000A60226848F2E47363F30F022260026822
:10E6200022F48072026051F8242C42F0080241F872
:10E63000242C54F83C2C22F480722A4482F48072F8
:10E6400044F83C2C026842F4807202600A6842F48A
:10E6500080320A602168012262F30F0121600168A3
:10E6600021F480710160B0BD42616E6B20300D0AF3
:10E670000000000042616E6B20310D0A00000000B6
:10E6800046F2392CC2F2000C604746F21D7CC2F201
:04E69000000C6047D3
:020000040801F1
:10F000000500000000000000B8600008006000205B
:10F0100090110000F0800008002000200004000093
:10F020000000000800000008B860000048720008F6
:08F0300000800120A80E000081
:0400000508000009E6
:00000001FF
