Component: ARM Compiler 6.14.1 Tool: armlink [5db06d00]

==============================================================================

Section Cross References

    main.o(.text.BaseInit) refers to otf_uart.o(.text.OTF_Uart_Init) for OTF_Uart_Init
    main.o(.text.BaseInit) refers to otf_eflash.o(.text.EFlash_Init) for EFlash_Init
    main.o(.ARM.exidx.text.BaseInit) refers to main.o(.text.BaseInit) for [Anonymous Symbol]
    main.o(SECTION_FIX_CODE) refers to main.o(.text.SystemClock_Conf) for SystemClock_Conf
    main.o(SECTION_FIX_CODE) refers to tae32g58xx_ll.o(.text.LL_Init) for LL_Init
    main.o(SECTION_FIX_CODE) refers to main.o(.text.BaseInit) for BaseInit
    main.o(SECTION_FIX_CODE) refers to imp_baseinit.o(.text.IMP_CodeBaseInit) for IMP_CodeBaseInit
    main.o(SECTION_FIX_CODE) refers to otf_download.o(.text.OTF_SerialDecode) for OTF_SerialDecode
    main.o(SECTION_FIX_CODE) refers to bank_function.o(SECTION_FIX_CODE) for OTF_ChangeBankTask
    main.o(.ARM.exidxSECTION_FIX_CODE) refers to main.o(SECTION_FIX_CODE) for [Anonymous Symbol]
    main.o(.text.SystemClock_Conf) refers to tae32g58xx_ll_rcu.o(.text.LL_RCU_SysclkInit) for LL_RCU_SysclkInit
    main.o(.text.SystemClock_Conf) refers to system_tae32g58xx.o(.text.SystemCoreClockUpdate) for SystemCoreClockUpdate
    main.o(.ARM.exidx.text.SystemClock_Conf) refers to main.o(.text.SystemClock_Conf) for [Anonymous Symbol]
    tae32g58xx_it.o(.ARM.exidx.text.NMI_Handler) refers to tae32g58xx_it.o(.text.NMI_Handler) for [Anonymous Symbol]
    tae32g58xx_it.o(.ARM.exidx.text.HardFault_Handler) refers to tae32g58xx_it.o(.text.HardFault_Handler) for [Anonymous Symbol]
    tae32g58xx_it.o(.ARM.exidx.text.MemManage_Handler) refers to tae32g58xx_it.o(.text.MemManage_Handler) for [Anonymous Symbol]
    tae32g58xx_it.o(.ARM.exidx.text.BusFault_Handler) refers to tae32g58xx_it.o(.text.BusFault_Handler) for [Anonymous Symbol]
    tae32g58xx_it.o(.ARM.exidx.text.UsageFault_Handler) refers to tae32g58xx_it.o(.text.UsageFault_Handler) for [Anonymous Symbol]
==============================================================================

Removing Unused input sections from the image.

    Removing main.o(.text), (0 bytes).
    Removing main.o(.ARM.exidx.text.BaseInit), (8 bytes).
    Removing main.o(.ARM.exidxSECTION_FIX_CODE), (8 bytes).
    Removing main.o(.ARM.exidx.text.SystemClock_Conf), (8 bytes).
    Removing main.o(.ARM.use_no_argv), (4 bytes).
    Removing tae32g58xx_it.o(.text), (0 bytes).
    Removing tae32g58xx_it.o(.ARM.exidx.text.NMI_Handler), (8 bytes).
    Removing tae32g58xx_it.o(.ARM.exidx.text.HardFault_Handler), (8 bytes).
    Removing tae32g58xx_it.o(.ARM.exidx.text.MemManage_Handler), (8 bytes).
    Removing tae32g58xx_it.o(.ARM.exidx.text.BusFault_Handler), (8 bytes).
    Removing tae32g58xx_it.o(.ARM.exidx.text.UsageFault_Handler), (8 bytes).
    Removing tae32g58xx_it.o(.ARM.exidx.text.SVC_Handler), (8 bytes).
    Removing tae32g58xx_it.o(.ARM.exidx.text.DebugMon_Handler), (8 bytes).
    Removing tae32g58xx_it.o(.ARM.exidx.text.PendSV_Handler), (8 bytes).
    Removing tae32g58xx_it.o(.ARM.exidx.text.SysTick_Handler), (8 bytes).
    Removing tae32g58xx_ll_msp.o(.text), (0 bytes).
    Removing tae32g58xx_ll_msp.o(.ARM.exidx.text.LL_MspInit), (8 bytes).
    Removing tae32g58xx_ll_msp.o(.text.LL_MspDeInit), (72 bytes).
==============================================================================

Adding Veneers to the image

    Adding TT veneer (10 bytes, Long) for call to 'IMP_CodeBaseInit' from main.o(SECTION_FIX_CODE).
    Adding TT veneer (10 bytes, Long) for call to 'EFlash_BankChange' from bank_function.o(SECTION_FIX_CODE).
    Adding TT veneer (10 bytes, Long) for call to 'OTF_SerialSendStr' from imp_baseinit.o(.text.IMP_CodeBaseInit).

3 Veneer(s) (total 30 bytes) added to the image.

==============================================================================

Image Symbol Table

    Local Symbols

    Symbol Name                              Value     Ov Type        Size  Object(Section)

    ../clib/../cmprslib/zerorunl.c           0x00000000   Number         0  __dczerorl.o ABSOLUTE
    ../clib/microlib/init/entry.s            0x00000000   Number         0  entry.o ABSOLUTE
    ../clib/microlib/init/entry.s            0x00000000   Number         0  entry4.o ABSOLUTE
    ../clib/microlib/init/entry.s            0x00000000   Number         0  entry5.o ABSOLUTE
    ../clib/microlib/init/entry.s            0x00000000   Number         0  entry7a.o ABSOLUTE
    ../clib/microlib/init/entry.s            0x00000000   Number         0  entry7b.o ABSOLUTE
    ../clib/microlib/init/entry.s            0x00000000   Number         0  entry8a.o ABSOLUTE
    ../clib/microlib/init/entry.s            0x00000000   Number         0  entry8b.o ABSOLUTE
    ../clib/microlib/init/entry.s            0x00000000   Number         0  entry9a.o ABSOLUTE
    ../clib/microlib/init/entry.s            0x00000000   Number         0  entry9b.o ABSOLUTE
    ../clib/microlib/init/entry.s            0x00000000   Number         0  entry10a.o ABSOLUTE
    ../clib/microlib/init/entry.s            0x00000000   Number         0  entry10b.o ABSOLUTE
    ../clib/microlib/init/entry.s            0x00000000   Number         0  entry11a.o ABSOLUTE
    ../clib/microlib/init/entry.s            0x00000000   Number         0  entry11b.o ABSOLUTE
    ../clib/microlib/longlong.c              0x00000000   Number         0  llshl.o ABSOLUTE
    ../clib/microlib/longlong.c              0x00000000   Number         0  llushr.o ABSOLUTE
    ../clib/microlib/longlong.c              0x00000000   Number         0  llsshr.o ABSOLUTE
    ../clib/microlib/string/memcpy.c         0x00000000   Number         0  memcpya.o ABSOLUTE
    ../clib/microlib/string/memcpy.c         0x00000000   Number         0  memcpyb.o ABSOLUTE
    ../clib/microlib/string/memset.c         0x00000000   Number         0  memseta.o ABSOLUTE
    ../clib/microlib/string/strcmp.c         0x00000000   Number         0  strcmp.o ABSOLUTE
    ../clib/microlib/string/strlen.c         0x00000000   Number         0  strlen.o ABSOLUTE
    ../clib/microlib/string/strncmp.c        0x00000000   Number         0  strncmp.o ABSOLUTE
    ../clib/microlib/stubs.s                 0x00000000   Number         0  iusefp.o ABSOLUTE
    ../fplib/microlib/fpadd.c                0x00000000   Number         0  dadd.o ABSOLUTE
    ../fplib/microlib/fpdiv.c                0x00000000   Number         0  fdiv.o ABSOLUTE
    ../fplib/microlib/fpdiv.c                0x00000000   Number         0  ddiv.o ABSOLUTE
    ../fplib/microlib/fpepilogue.c           0x00000000   Number         0  fepilogue.o ABSOLUTE
    ../fplib/microlib/fpepilogue.c           0x00000000   Number         0  depilogue.o ABSOLUTE
    ../fplib/microlib/fpfix.c                0x00000000   Number         0  ffixui.o ABSOLUTE
    ../fplib/microlib/fpfix.c                0x00000000   Number         0  dfixi.o ABSOLUTE
    ../fplib/microlib/fpflt.c                0x00000000   Number         0  ffltui.o ABSOLUTE
    ../fplib/microlib/fpflt.c                0x00000000   Number         0  dfltui.o ABSOLUTE
    ../fplib/microlib/fpmul.c                0x00000000   Number         0  fmul.o ABSOLUTE
    ../fplib/microlib/fpmul.c                0x00000000   Number         0  dmul.o ABSOLUTE
    EFlash_ChangeBank.c                      0x00000000   Number         0  eflash_changebank.o ABSOLUTE
    FixData.c                                0x00000000   Number         0  fixdata.o ABSOLUTE
    OTF_Download.c                           0x00000000   Number         0  otf_download.o ABSOLUTE
    OTF_Uart.c                               0x00000000   Number         0  otf_uart.o ABSOLUTE
    OTF_eflash.c                             0x00000000   Number         0  otf_eflash.o ABSOLUTE
    Ymodem.c                                 0x00000000   Number         0  ymodem.o ABSOLUTE
    bank_function.c                          0x00000000   Number         0  bank_function.o ABSOLUTE
    crc.c                                    0x00000000   Number         0  crc.o ABSOLUTE
    dc.s                                     0x00000000   Number         0  dc.o ABSOLUTE
    delay_tmr.c                              0x00000000   Number         0  delay_tmr.o ABSOLUTE
    handlers.s                               0x00000000   Number         0  handlers.o ABSOLUTE
    imp_baseinit.c                           0x00000000   Number         0  imp_baseinit.o ABSOLUTE
    init.s                                   0x00000000   Number         0  init.o ABSOLUTE
    main.c                                   0x00000000   Number         0  main.o ABSOLUTE
    startup_tae32g58xx.c                     0x00000000   Number         0  startup_tae32g58xx.o ABSOLUTE
    system_tae32g58xx.c                      0x00000000   Number         0  system_tae32g58xx.o ABSOLUTE
    tae32g58xx_it.c                          0x00000000   Number         0  tae32g58xx_it.o ABSOLUTE
    tae32g58xx_ll.c                          0x00000000   Number         0  tae32g58xx_ll.o ABSOLUTE
    tae32g58xx_ll_cortex.c                   0x00000000   Number         0  tae32g58xx_ll_cortex.o ABSOLUTE
    tae32g58xx_ll_dma.c                      0x00000000   Number         0  tae32g58xx_ll_dma.o ABSOLUTE
    tae32g58xx_ll_eflash.c                   0x00000000   Number         0  tae32g58xx_ll_eflash.o ABSOLUTE
    tae32g58xx_ll_gpio.c                     0x00000000   Number         0  tae32g58xx_ll_gpio.o ABSOLUTE
    tae32g58xx_ll_msp.c                      0x00000000   Number         0  tae32g58xx_ll_msp.o ABSOLUTE
    tae32g58xx_ll_rcu.c                      0x00000000   Number         0  tae32g58xx_ll_rcu.o ABSOLUTE
    tae32g58xx_ll_sysctrl.c                  0x00000000   Number         0  tae32g58xx_ll_sysctrl.o ABSOLUTE
    tae32g58xx_ll_tmr.c                      0x00000000   Number         0  tae32g58xx_ll_tmr.o ABSOLUTE
    tae32g58xx_ll_uart.c                     0x00000000   Number         0  tae32g58xx_ll_uart.o ABSOLUTE
    user_debug.c                             0x00000000   Number         0  user_debug.o ABSOLUTE
    user_gpio.c                              0x00000000   Number         0  user_gpio.o ABSOLUTE
    user_sharevalue.c                        0x00000000   Number         0  user_sharevalue.o ABSOLUTE
    user_tmr.c                               0x00000000   Number         0  user_tmr.o ABSOLUTE
    user_upgrade_interrupts.c                0x00000000   Number         0  user_upgrade_interrupts.o ABSOLUTE
    __tagsym$$used.0                         0x08000000   Number         0  startup_tae32g58xx.o(RESET)
    .ARM.Collect$$$$00000000                 0x08000008   Section        0  entry.o(.ARM.Collect$$$$00000000)
    .ARM.Collect$$$$00000003                 0x08000008   Section        4  entry4.o(.ARM.Collect$$$$00000003)
    .ARM.Collect$$$$00000004                 0x0800000c   Section        4  entry5.o(.ARM.Collect$$$$00000004)
    .ARM.Collect$$$$00000008                 0x08000010   Section        0  entry7b.o(.ARM.Collect$$$$00000008)
    .ARM.Collect$$$$0000000A                 0x08000010   Section        0  entry8b.o(.ARM.Collect$$$$0000000A)
    .ARM.Collect$$$$0000000B                 0x08000010   Section        8  entry9a.o(.ARM.Collect$$$$0000000B)
    __lit__00000000                          0x08000018   Data           4  entry4.o(.ARM.Collect$$$$00002714)
    .ARM.Collect$$$$0000000D                 0x08000018   Section        0  entry10a.o(.ARM.Collect$$$$0000000D)
    .ARM.Collect$$$$0000000F                 0x08000018   Section        0  entry11a.o(.ARM.Collect$$$$0000000F)
    .ARM.Collect$$$$00002714                 0x08000018   Section        4  entry4.o(.ARM.Collect$$$$00002714)
    .text                                    0x0800001c   Section        0  memcpya.o(.text)
    .text                                    0x08000040   Section        0  memseta.o(.text)
    .text                                    0x08000064   Section        0  strlen.o(.text)
    .text                                    0x08000072   Section        0  strcmp.o(.text)
    .text                                    0x0800008e   Section        0  strncmp.o(.text)
    .text                                    0x080000ac   Section        0  fmul.o(.text)
    .text                                    0x08000110   Section        0  fdiv.o(.text)
    .text                                    0x0800018c   Section        0  dadd.o(.text)
    .text                                    0x080002da   Section        0  dmul.o(.text)
    .text                                    0x080003be   Section        0  ddiv.o(.text)
    .text                                    0x0800049c   Section        0  ffltui.o(.text)
    .text                                    0x080004a6   Section        0  dfltui.o(.text)
    .text                                    0x080004c0   Section        0  ffixui.o(.text)
    .text                                    0x080004e8   Section        0  dfixi.o(.text)
    .text                                    0x08000526   Section        0  llshl.o(.text)
    .text                                    0x08000544   Section        0  llushr.o(.text)
    .text                                    0x08000564   Section        0  llsshr.o(.text)
    .text                                    0x08000588   Section        0  iusefp.o(.text)
    .text                                    0x08000588   Section        0  fepilogue.o(.text)
    .text                                    0x080005f6   Section        0  depilogue.o(.text)
    .text                                    0x080006b0   Section       36  init.o(.text)
    .text                                    0x080006d4   Section        0  __dczerorl.o(.text)
    [Anonymous Symbol]                       0x08000710   Section        0  main.o(.text.BaseInit)
    [Anonymous Symbol]                       0x0800071c   Section        0  tae32g58xx_it.o(.text.BusFault_Handler)
    [Anonymous Symbol]                       0x08000720   Section        0  tae32g58xx_it.o(.text.DebugMon_Handler)
    [Anonymous Symbol]                       0x08000724   Section        0  startup_tae32g58xx.o(.text.Default_Handler)
    [Anonymous Symbol]                       0x08000728   Section        0  tae32g58xx_ll_eflash.o(.text.EFLASH_EraseComm)
    EFLASH_LastOptSta_Get                    0x08000785   Thumb Code    76  tae32g58xx_ll_eflash.o(.text.EFLASH_LastOptSta_Get)
    [Anonymous Symbol]                       0x08000784   Section        0  tae32g58xx_ll_eflash.o(.text.EFLASH_LastOptSta_Get)
    [Anonymous Symbol]                       0x080007d0   Section        0  otf_eflash.o(.text.EFlash_EraseBank)
    [Anonymous Symbol]                       0x080007e0   Section        0  otf_eflash.o(.text.EFlash_EraseSensor)
    [Anonymous Symbol]                       0x08000808   Section        0  otf_eflash.o(.text.EFlash_Init)
    [Anonymous Symbol]                       0x0800081c   Section        0  otf_eflash.o(.text.EFlash_WritePack)
    [Anonymous Symbol]                       0x08000834   Section        0  tae32g58xx_it.o(.text.HardFault_Handler)
    [Anonymous Symbol]                       0x08000838   Section        0  tae32g58xx_ll_eflash.o(.text.LL_EFLASH_ChipSize_Get)
    [Anonymous Symbol]                       0x08000868   Section        0  tae32g58xx_ll_eflash.o(.text.LL_EFLASH_EraseBank1)
    [Anonymous Symbol]                       0x080008c4   Section        0  tae32g58xx_ll_eflash.o(.text.LL_EFLASH_EraseMultiSector)
    [Anonymous Symbol]                       0x08000990   Section        0  tae32g58xx_ll_eflash.o(.text.LL_EFLASH_ProgErase_Lock)
    [Anonymous Symbol]                       0x080009c0   Section        0  tae32g58xx_ll_eflash.o(.text.LL_EFLASH_ProgErase_Unlock)
    [Anonymous Symbol]                       0x08000a0c   Section        0  tae32g58xx_ll_eflash.o(.text.LL_EFLASH_Program)
    [Anonymous Symbol]                       0x08000b0c   Section        0  tae32g58xx_ll_eflash.o(.text.LL_EFLASH_SectorNums_Get)
    [Anonymous Symbol]                       0x08000b48   Section        0  tae32g58xx_ll_eflash.o(.text.LL_EFLASH_WaitForBusyState)
    [Anonymous Symbol]                       0x08000c3c   Section        0  tae32g58xx_ll_eflash.o(.text.LL_EFLASH_WaitForLastOptCplt)
    [Anonymous Symbol]                       0x08000c98   Section        0  tae32g58xx_ll_gpio.o(.text.LL_GPIO_Init)
    [Anonymous Symbol]                       0x08000e64   Section        0  tae32g58xx_ll.o(.text.LL_GetTick)
    [Anonymous Symbol]                       0x08000e70   Section        0  tae32g58xx_ll.o(.text.LL_IncTick)
    [Anonymous Symbol]                       0x08000e8c   Section        0  tae32g58xx_ll.o(.text.LL_Init)
    [Anonymous Symbol]                       0x08000ebc   Section        0  tae32g58xx_ll.o(.text.LL_InitTick)
    [Anonymous Symbol]                       0x08000f0c   Section        0  tae32g58xx_ll_msp.o(.text.LL_MspInit)
    [Anonymous Symbol]                       0x08000f54   Section        0  tae32g58xx_ll_cortex.o(.text.LL_NVIC_EnableIRQ)
    [Anonymous Symbol]                       0x08000f68   Section        0  tae32g58xx_ll_cortex.o(.text.LL_NVIC_SetPriority)
    [Anonymous Symbol]                       0x08000f90   Section        0  tae32g58xx_ll_cortex.o(.text.LL_NVIC_SetPriorityGrouping)
    [Anonymous Symbol]                       0x08000fa4   Section        0  tae32g58xx_ll_rcu.o(.text.LL_RCU_ADC0_ClkDisRstAssert)
    [Anonymous Symbol]                       0x08000fe0   Section        0  tae32g58xx_ll_rcu.o(.text.LL_RCU_ADC0_ClkEnRstRelease)
    [Anonymous Symbol]                       0x08001010   Section        0  tae32g58xx_ll_rcu.o(.text.LL_RCU_ADC_ClkCfg)
    [Anonymous Symbol]                       0x08001054   Section        0  tae32g58xx_ll_rcu.o(.text.LL_RCU_APB0ClkGet)
    [Anonymous Symbol]                       0x08001070   Section        0  tae32g58xx_ll_rcu.o(.text.LL_RCU_APB1ClkGet)
    [Anonymous Symbol]                       0x0800108c   Section        0  tae32g58xx_ll_rcu.o(.text.LL_RCU_DMA_ClkEnRstRelease)
    [Anonymous Symbol]                       0x080010b4   Section        0  tae32g58xx_ll_rcu.o(.text.LL_RCU_EFLASH_ClkEnRstRelease)
    [Anonymous Symbol]                       0x080010dc   Section        0  tae32g58xx_ll_rcu.o(.text.LL_RCU_GPIOA_ClkEnRstRelease)
    [Anonymous Symbol]                       0x08001104   Section        0  tae32g58xx_ll_rcu.o(.text.LL_RCU_GPIOB_ClkEnRstRelease)
    [Anonymous Symbol]                       0x0800112c   Section        0  tae32g58xx_ll_rcu.o(.text.LL_RCU_GPIOC_ClkEnRstRelease)
    [Anonymous Symbol]                       0x08001154   Section        0  tae32g58xx_ll_rcu.o(.text.LL_RCU_GPIOD_ClkEnRstRelease)
    [Anonymous Symbol]                       0x0800117c   Section        0  tae32g58xx_ll_rcu.o(.text.LL_RCU_GPIOE_ClkEnRstRelease)
    [Anonymous Symbol]                       0x080011a4   Section        0  tae32g58xx_ll_rcu.o(.text.LL_RCU_GPIOF_ClkEnRstRelease)
    LL_RCU_PLL0Cali                          0x080011cd   Thumb Code   612  tae32g58xx_ll_rcu.o(.text.LL_RCU_PLL0Cali)
    [Anonymous Symbol]                       0x080011cc   Section        0  tae32g58xx_ll_rcu.o(.text.LL_RCU_PLL0Cali)
    [Anonymous Symbol]                       0x08001430   Section        0  tae32g58xx_ll_rcu.o(.text.LL_RCU_Pll0Cfg)
    [Anonymous Symbol]                       0x08001680   Section        0  tae32g58xx_ll_rcu.o(.text.LL_RCU_SysclkGet)
    [Anonymous Symbol]                       0x0800168c   Section        0  tae32g58xx_ll_rcu.o(.text.LL_RCU_SysclkInit)
    [Anonymous Symbol]                       0x08001858   Section        0  tae32g58xx_ll_rcu.o(.text.LL_RCU_UART0_ClkEnRstRelease)
    [Anonymous Symbol]                       0x08001880   Section        0  tae32g58xx_ll_rcu.o(.text.LL_RCU_UART1_ClkEnRstRelease)
    [Anonymous Symbol]                       0x080018a8   Section        0  tae32g58xx_ll_rcu.o(.text.LL_RCU_UART2_ClkEnRstRelease)
    [Anonymous Symbol]                       0x080018d0   Section        0  tae32g58xx_ll_rcu.o(.text.LL_RCU_UART3_ClkEnRstRelease)
    [Anonymous Symbol]                       0x080018f8   Section        0  tae32g58xx_ll_rcu.o(.text.LL_RCU_UART4_ClkEnRstRelease)
    [Anonymous Symbol]                       0x08001920   Section        0  tae32g58xx_ll_cortex.o(.text.LL_SYSTICK_Callback)
    [Anonymous Symbol]                       0x08001924   Section        0  tae32g58xx_ll_cortex.o(.text.LL_SYSTICK_Config)
    [Anonymous Symbol]                       0x0800192c   Section        0  tae32g58xx_ll_cortex.o(.text.LL_SYSTICK_IRQHandler)
    [Anonymous Symbol]                       0x08001934   Section        0  tae32g58xx_ll_uart.o(.text.LL_UART_Init)
    [Anonymous Symbol]                       0x08001b84   Section        0  tae32g58xx_ll_msp.o(.text.LL_UART_MspInit)
    [Anonymous Symbol]                       0x08001c94   Section        0  tae32g58xx_ll_uart.o(.text.LL_UART_Transmit_CPU)
    [Anonymous Symbol]                       0x08001df8   Section        0  tae32g58xx_it.o(.text.MemManage_Handler)
    [Anonymous Symbol]                       0x08001dfc   Section        0  tae32g58xx_it.o(.text.NMI_Handler)
    NVIC_EncodePriority                      0x08001e01   Thumb Code    44  tae32g58xx_ll_cortex.o(.text.NVIC_EncodePriority)
    [Anonymous Symbol]                       0x08001e00   Section        0  tae32g58xx_ll_cortex.o(.text.NVIC_EncodePriority)
    [Anonymous Symbol]                       0x08001e2c   Section        0  otf_download.o(.text.OTF_ChangeBank_Func)
    [Anonymous Symbol]                       0x08001e4c   Section        0  otf_download.o(.text.OTF_FwExcute)
    [Anonymous Symbol]                       0x08001e70   Section        0  otf_download.o(.text.OTF_FwUpdata_Func)
    [Anonymous Symbol]                       0x08001f7c   Section        0  otf_uart.o(.text.OTF_GetKey)
    [Anonymous Symbol]                       0x08001f90   Section        0  otf_uart.o(.text.OTF_RecvPacket)
    [Anonymous Symbol]                       0x08001fd4   Section        0  otf_download.o(.text.OTF_RecviceFirmware)
    [Anonymous Symbol]                       0x0800227c   Section        0  otf_download.o(.text.OTF_SerialDecode)
    [Anonymous Symbol]                       0x080022c8   Section        0  otf_uart.o(.text.OTF_SerialSendByte)
    [Anonymous Symbol]                       0x080022e8   Section        0  otf_uart.o(.text.OTF_SerialSendStr)
    [Anonymous Symbol]                       0x08002304   Section        0  otf_download.o(.text.OTF_Show)
    [Anonymous Symbol]                       0x0800232c   Section        0  otf_download.o(.text.OTF_ShowMenu)
    [Anonymous Symbol]                       0x080023c4   Section        0  otf_download.o(.text.OTF_TestOPDR)
    [Anonymous Symbol]                       0x080023ec   Section        0  otf_uart.o(.text.OTF_Uart_Init)
    [Anonymous Symbol]                       0x0800243c   Section        0  otf_uart.o(.text.OTF_WaitDownload)
    [Anonymous Symbol]                       0x0800247c   Section        0  tae32g58xx_it.o(.text.PendSV_Handler)
    [Anonymous Symbol]                       0x08002480   Section        0  startup_tae32g58xx.o(.text.Reset_Handler)
    [Anonymous Symbol]                       0x08002488   Section        0  tae32g58xx_it.o(.text.SVC_Handler)
    SysTick_Config                           0x0800248d   Thumb Code    46  tae32g58xx_ll_cortex.o(.text.SysTick_Config)
    [Anonymous Symbol]                       0x0800248c   Section        0  tae32g58xx_ll_cortex.o(.text.SysTick_Config)
    [Anonymous Symbol]                       0x080024bc   Section        0  tae32g58xx_it.o(.text.SysTick_Handler)
    [Anonymous Symbol]                       0x080024c8   Section        0  main.o(.text.SystemClock_Conf)
    [Anonymous Symbol]                       0x08002510   Section        0  system_tae32g58xx.o(.text.SystemCoreClockUpdate)
    [Anonymous Symbol]                       0x08002520   Section        0  system_tae32g58xx.o(.text.SystemInit)
    UART_Handle_Get                          0x08002551   Thumb Code   100  tae32g58xx_ll_uart.o(.text.UART_Handle_Get)
    [Anonymous Symbol]                       0x08002550   Section        0  tae32g58xx_ll_uart.o(.text.UART_Handle_Get)
    [Anonymous Symbol]                       0x080025b4   Section        0  tae32g58xx_it.o(.text.UsageFault_Handler)
    [Anonymous Symbol]                       0x080025b8   Section        0  ymodem.o(.text.Ymodem_FirstPacket)
    [Anonymous Symbol]                       0x0800263c   Section        0  ymodem.o(.text.Ymodem_Talk)
    __NVIC_EnableIRQ                         0x08002775   Thumb Code    32  tae32g58xx_ll_cortex.o(.text.__NVIC_EnableIRQ)
    [Anonymous Symbol]                       0x08002774   Section        0  tae32g58xx_ll_cortex.o(.text.__NVIC_EnableIRQ)
    __NVIC_GetPriorityGrouping               0x08002795   Thumb Code    16  tae32g58xx_ll_cortex.o(.text.__NVIC_GetPriorityGrouping)
    [Anonymous Symbol]                       0x08002794   Section        0  tae32g58xx_ll_cortex.o(.text.__NVIC_GetPriorityGrouping)
    __NVIC_SetPriority                       0x080027a5   Thumb Code    34  tae32g58xx_ll_cortex.o(.text.__NVIC_SetPriority)
    [Anonymous Symbol]                       0x080027a4   Section        0  tae32g58xx_ll_cortex.o(.text.__NVIC_SetPriority)
    __NVIC_SetPriorityGrouping               0x080027c9   Thumb Code    32  tae32g58xx_ll_cortex.o(.text.__NVIC_SetPriorityGrouping)
    [Anonymous Symbol]                       0x080027c8   Section        0  tae32g58xx_ll_cortex.o(.text.__NVIC_SetPriorityGrouping)
    [Anonymous Symbol]                       0x080027e8   Section        0  crc.o(.text.crc_cal_by_byte)
    i.__scatterload_copy                     0x08002818   Section       14  handlers.o(i.__scatterload_copy)
    i.__scatterload_null                     0x08002826   Section        2  handlers.o(i.__scatterload_null)
    i.__scatterload_zeroinit                 0x08002828   Section       14  handlers.o(i.__scatterload_zeroinit)
    .L__const.OTF_SerialDecode.menu_func     0x08002838   Data          40  otf_download.o(.rodata..L__const.OTF_SerialDecode.menu_func)
    rcu_pll_cfg                              0x08002a60   Data         672  tae32g58xx_ll_rcu.o(.rodata.rcu_pll_cfg)
    [Anonymous Symbol]                       0x08002a60   Section        0  tae32g58xx_ll_rcu.o(.rodata.rcu_pll_cfg)
    .L.str.18                                0x08002d00   Data          66  otf_download.o(.rodata.str1.1)
    [Anonymous Symbol]                       0x08002d00   Section        0  otf_download.o(.rodata.str1.1)
    .L.str.22                                0x08002d42   Data          21  otf_download.o(.rodata.str1.1)
    .L.str.23                                0x08002d57   Data          19  otf_download.o(.rodata.str1.1)
    .L.str.2                                 0x08002d6a   Data          67  otf_download.o(.rodata.str1.1)
    .L.str                                   0x08002dad   Data          67  otf_download.o(.rodata.str1.1)
    .L.str.8                                 0x08002df0   Data          67  otf_download.o(.rodata.str1.1)
    .L.str.7                                 0x08002e33   Data          67  otf_download.o(.rodata.str1.1)
    .L.str.5                                 0x08002e76   Data          67  otf_download.o(.rodata.str1.1)
    .L.str.4                                 0x08002eb9   Data          67  otf_download.o(.rodata.str1.1)
    .L.str.6                                 0x08002efc   Data          67  otf_download.o(.rodata.str1.1)
    .L.str.1                                 0x08002f3f   Data          67  otf_download.o(.rodata.str1.1)
    .L.str.3                                 0x08002f82   Data          67  otf_download.o(.rodata.str1.1)
    uart_ll_cfg_def                          0x08002fc6   Data          10  tae32g58xx_ll_uart.o(.rodata.uart_ll_cfg_def)
    [Anonymous Symbol]                       0x08002fc6   Section        0  tae32g58xx_ll_uart.o(.rodata.uart_ll_cfg_def)
    __tagsym$$used.0                         0x0801e000   Number         0  main.o(SECTION_FIX_CODE)
    [Anonymous Symbol]                       0x0801e000   Section        0  main.o(SECTION_FIX_CODE)
    __tagsym$$used.0                         0x0801e038   Number         0  bank_function.o(SECTION_FIX_CODE)
    [Anonymous Symbol]                       0x0801e038   Section        0  bank_function.o(SECTION_FIX_CODE)
    __tagsym$$used.1                         0x0801e0f4   Number         0  bank_function.o(SECTION_FIX_CODE)
    __tagsym$$used.2                         0x0801e1b0   Number         0  bank_function.o(SECTION_FIX_CODE)
    __tagsym$$used.3                         0x0801e1c4   Number         0  bank_function.o(SECTION_FIX_CODE)
    __tagsym$$used.4                         0x0801e1f4   Number         0  bank_function.o(SECTION_FIX_CODE)
    __tagsym$$used.5                         0x0801e22c   Number         0  bank_function.o(SECTION_FIX_CODE)
    __tagsym$$used.0                         0x0801f000   Number         0  fixdata.o(SECTION_FIX_DATA)
    __tagsym$$used.0                         0x10002000   Number         0  tae32g58xx_ll_uart.o(SECTION_SHARE_MEMORY)
    uart_hdl_global                          0x10002000   Data         260  tae32g58xx_ll_uart.o(SECTION_SHARE_MEMORY)
    [Anonymous Symbol]                       0x10002000   Section        0  tae32g58xx_ll_uart.o(SECTION_SHARE_MEMORY)
    __tagsym$$used.0                         0x10002104   Number         0  user_sharevalue.o(SECTION_SHARE_MEMORY)
    __tagsym$$used.1                         0x1000213c   Number         0  user_sharevalue.o(SECTION_SHARE_MEMORY)
    [Anonymous Symbol]                       0x100061ac   Section        0  imp_baseinit.o(.text.IMP_CodeBaseInit)
    __tagsym$$used.0                         0x100061cc   Number         0  user_tmr.o(SECTION_IMP_CODE)
    [Anonymous Symbol]                       0x100061cc   Section        0  user_tmr.o(SECTION_IMP_CODE)
    __tagsym$$used.0                         0x1000626c   Number         0  eflash_changebank.o(SECTION_IMP_CODE)
    [Anonymous Symbol]                       0x1000626c   Section        0  eflash_changebank.o(SECTION_IMP_CODE)
    __tagsym$$used.1                         0x10006298   Number         0  eflash_changebank.o(SECTION_IMP_CODE)
    __tagsym$$used.0                         0x100181a0   Number         0  user_upgrade_interrupts.o(SECTION_UPGRADE_CODE)
    [Anonymous Symbol]                       0x100181a0   Section        0  user_upgrade_interrupts.o(SECTION_UPGRADE_CODE)

    Global Symbols

    Symbol Name                              Value     Ov Type        Size  Object(Section)

    BuildAttributes$$THM_ISAv4$E$P$D$K$B$S$7EM$PE$A:L22UL41UL21$X:L11$S22US41US21$IEEE1$IW$USESV6$~STKCKD$USESV7$~SHL$OTIME$ROPI$MICROLIB$REQ8$PRES8$EABIv2 0x00000000   Number         0  anon$$obj.o ABSOLUTE
    __cpp_initialize__aeabi_                  - Undefined Weak Reference
    __cxa_finalize                            - Undefined Weak Reference
    _clock_init                               - Undefined Weak Reference
    _microlib_exit                            - Undefined Weak Reference
    Image$$SHARE_MEMORY$$Length              0x00000174   Number         0  anon$$obj.o ABSOLUTE
    Image$$UPGRADE_INT_CODE$$Length          0x0000022c   Number         0  anon$$obj.o ABSOLUTE
    Image$$ER_IMP_TEXT$$Length               0x00000328   Number         0  anon$$obj.o ABSOLUTE
    Image$$ER_ROM$$Length                    0x00003020   Number         0  anon$$obj.o ABSOLUTE
    Image$$ER_ROM$$Base                      0x08000000   Number         0  anon$$obj.o ABSOLUTE
    Load$$ER_ROM$$Base                       0x08000000   Number         0  anon$$obj.o ABSOLUTE
    __Vectors                                0x08000000   Data           8  startup_tae32g58xx.o(RESET)
    __main                                   0x08000009   Thumb Code     0  entry.o(.ARM.Collect$$$$00000000)
    _main_stk                                0x08000009   Thumb Code     0  entry4.o(.ARM.Collect$$$$00000003)
    _main_scatterload                        0x0800000d   Thumb Code     0  entry5.o(.ARM.Collect$$$$00000004)
    __main_after_scatterload                 0x08000011   Thumb Code     0  entry5.o(.ARM.Collect$$$$00000004)
    _main_clock                              0x08000011   Thumb Code     0  entry7b.o(.ARM.Collect$$$$00000008)
    _main_cpp_init                           0x08000011   Thumb Code     0  entry8b.o(.ARM.Collect$$$$0000000A)
    _main_init                               0x08000011   Thumb Code     0  entry9a.o(.ARM.Collect$$$$0000000B)
    __rt_final_cpp                           0x08000019   Thumb Code     0  entry10a.o(.ARM.Collect$$$$0000000D)
    __rt_final_exit                          0x08000019   Thumb Code     0  entry11a.o(.ARM.Collect$$$$0000000F)
    __aeabi_memcpy                           0x0800001d   Thumb Code    36  memcpya.o(.text)
    __aeabi_memcpy4                          0x0800001d   Thumb Code     0  memcpya.o(.text)
    __aeabi_memcpy8                          0x0800001d   Thumb Code     0  memcpya.o(.text)
    __aeabi_memset                           0x08000041   Thumb Code    14  memseta.o(.text)
    __aeabi_memset4                          0x08000041   Thumb Code     0  memseta.o(.text)
    __aeabi_memset8                          0x08000041   Thumb Code     0  memseta.o(.text)
    __aeabi_memclr                           0x0800004f   Thumb Code     4  memseta.o(.text)
    __aeabi_memclr4                          0x0800004f   Thumb Code     0  memseta.o(.text)
    __aeabi_memclr8                          0x0800004f   Thumb Code     0  memseta.o(.text)
    _memset$wrapper                          0x08000053   Thumb Code    18  memseta.o(.text)
    strlen                                   0x08000065   Thumb Code    14  strlen.o(.text)
    strcmp                                   0x08000073   Thumb Code    28  strcmp.o(.text)
    strncmp                                  0x0800008f   Thumb Code    30  strncmp.o(.text)
    __aeabi_fmul                             0x080000ad   Thumb Code   100  fmul.o(.text)
    __aeabi_fdiv                             0x08000111   Thumb Code   124  fdiv.o(.text)
    __aeabi_dadd                             0x0800018d   Thumb Code   322  dadd.o(.text)
    __aeabi_dsub                             0x080002cf   Thumb Code     6  dadd.o(.text)
    __aeabi_drsub                            0x080002d5   Thumb Code     6  dadd.o(.text)
    __aeabi_dmul                             0x080002db   Thumb Code   228  dmul.o(.text)
    __aeabi_ddiv                             0x080003bf   Thumb Code   222  ddiv.o(.text)
    __aeabi_ui2f                             0x0800049d   Thumb Code    10  ffltui.o(.text)
    __aeabi_ui2d                             0x080004a7   Thumb Code    26  dfltui.o(.text)
    __aeabi_f2uiz                            0x080004c1   Thumb Code    40  ffixui.o(.text)
    __aeabi_d2iz                             0x080004e9   Thumb Code    62  dfixi.o(.text)
    __aeabi_llsl                             0x08000527   Thumb Code    30  llshl.o(.text)
    _ll_shift_l                              0x08000527   Thumb Code     0  llshl.o(.text)
    __aeabi_llsr                             0x08000545   Thumb Code    32  llushr.o(.text)
    _ll_ushift_r                             0x08000545   Thumb Code     0  llushr.o(.text)
    __aeabi_lasr                             0x08000565   Thumb Code    36  llsshr.o(.text)
    _ll_sshift_r                             0x08000565   Thumb Code     0  llsshr.o(.text)
    __I$use$fp                               0x08000589   Thumb Code     0  iusefp.o(.text)
    _float_round                             0x08000589   Thumb Code    18  fepilogue.o(.text)
    _float_epilogue                          0x0800059b   Thumb Code    92  fepilogue.o(.text)
    _double_round                            0x080005f7   Thumb Code    30  depilogue.o(.text)
    _double_epilogue                         0x08000615   Thumb Code   156  depilogue.o(.text)
    __scatterload                            0x080006b1   Thumb Code    28  init.o(.text)
    __scatterload_rt2                        0x080006b1   Thumb Code     0  init.o(.text)
    __decompress                             0x080006d5   Thumb Code     0  __dczerorl.o(.text)
    __decompress0                            0x080006d5   Thumb Code    58  __dczerorl.o(.text)
    BaseInit                                 0x08000711   Thumb Code    12  main.o(.text.BaseInit)
    BusFault_Handler                         0x0800071d   Thumb Code     2  tae32g58xx_it.o(.text.BusFault_Handler)
    DebugMon_Handler                         0x08000721   Thumb Code     2  tae32g58xx_it.o(.text.DebugMon_Handler)
    ADC0_FULL_IRQHandler                     0x08000725   Thumb Code     2  startup_tae32g58xx.o(.text.Default_Handler)
    ADC0_HALF_IRQHandler                     0x08000725   Thumb Code     2  startup_tae32g58xx.o(.text.Default_Handler)
    ADC0_NORM_IRQHandler                     0x08000725   Thumb Code     2  startup_tae32g58xx.o(.text.Default_Handler)
    ADC0_SAMP_IRQHandler                     0x08000725   Thumb Code     2  startup_tae32g58xx.o(.text.Default_Handler)
    ADC1_FULL_IRQHandler                     0x08000725   Thumb Code     2  startup_tae32g58xx.o(.text.Default_Handler)
    ADC1_HALF_IRQHandler                     0x08000725   Thumb Code     2  startup_tae32g58xx.o(.text.Default_Handler)
    ADC1_NORM_IRQHandler                     0x08000725   Thumb Code     2  startup_tae32g58xx.o(.text.Default_Handler)
    ADC1_SAMP_IRQHandler                     0x08000725   Thumb Code     2  startup_tae32g58xx.o(.text.Default_Handler)
    ADC2_FULL_IRQHandler                     0x08000725   Thumb Code     2  startup_tae32g58xx.o(.text.Default_Handler)
    ADC2_HALF_IRQHandler                     0x08000725   Thumb Code     2  startup_tae32g58xx.o(.text.Default_Handler)
    ADC2_NORM_IRQHandler                     0x08000725   Thumb Code     2  startup_tae32g58xx.o(.text.Default_Handler)
    ADC2_SAMP_IRQHandler                     0x08000725   Thumb Code     2  startup_tae32g58xx.o(.text.Default_Handler)
    ADC3_FULL_IRQHandler                     0x08000725   Thumb Code     2  startup_tae32g58xx.o(.text.Default_Handler)
    ADC3_HALF_IRQHandler                     0x08000725   Thumb Code     2  startup_tae32g58xx.o(.text.Default_Handler)
    ADC3_NORM_IRQHandler                     0x08000725   Thumb Code     2  startup_tae32g58xx.o(.text.Default_Handler)
    ADC3_SAMP_IRQHandler                     0x08000725   Thumb Code     2  startup_tae32g58xx.o(.text.Default_Handler)
    CAN0_INT1_IRQHandler                     0x08000725   Thumb Code     2  startup_tae32g58xx.o(.text.Default_Handler)
    CAN0_IRQHandler                          0x08000725   Thumb Code     2  startup_tae32g58xx.o(.text.Default_Handler)
    CAN1_INT1_IRQHandler                     0x08000725   Thumb Code     2  startup_tae32g58xx.o(.text.Default_Handler)
    CAN1_IRQHandler                          0x08000725   Thumb Code     2  startup_tae32g58xx.o(.text.Default_Handler)
    CMPG0_IRQHandler                         0x08000725   Thumb Code     2  startup_tae32g58xx.o(.text.Default_Handler)
    CMPG1_IRQHandler                         0x08000725   Thumb Code     2  startup_tae32g58xx.o(.text.Default_Handler)
    CMPG2_IRQHandler                         0x08000725   Thumb Code     2  startup_tae32g58xx.o(.text.Default_Handler)
    CORDIC_IRQHandler                        0x08000725   Thumb Code     2  startup_tae32g58xx.o(.text.Default_Handler)
    DMA_CH0_IRQHandler                       0x08000725   Thumb Code     2  startup_tae32g58xx.o(.text.Default_Handler)
    DMA_CH1_IRQHandler                       0x08000725   Thumb Code     2  startup_tae32g58xx.o(.text.Default_Handler)
    DMA_CH2_IRQHandler                       0x08000725   Thumb Code     2  startup_tae32g58xx.o(.text.Default_Handler)
    DMA_CH3_IRQHandler                       0x08000725   Thumb Code     2  startup_tae32g58xx.o(.text.Default_Handler)
    DMA_CH4_IRQHandler                       0x08000725   Thumb Code     2  startup_tae32g58xx.o(.text.Default_Handler)
    DMA_CH5_IRQHandler                       0x08000725   Thumb Code     2  startup_tae32g58xx.o(.text.Default_Handler)
    Default_Handler                          0x08000725   Thumb Code     2  startup_tae32g58xx.o(.text.Default_Handler)
    EFLASH_IRQHandler                        0x08000725   Thumb Code     2  startup_tae32g58xx.o(.text.Default_Handler)
    GPIOA_IRQHandler                         0x08000725   Thumb Code     2  startup_tae32g58xx.o(.text.Default_Handler)
    GPIOB_IRQHandler                         0x08000725   Thumb Code     2  startup_tae32g58xx.o(.text.Default_Handler)
    GPIOC_IRQHandler                         0x08000725   Thumb Code     2  startup_tae32g58xx.o(.text.Default_Handler)
    GPIOD_IRQHandler                         0x08000725   Thumb Code     2  startup_tae32g58xx.o(.text.Default_Handler)
    GPIOE_IRQHandler                         0x08000725   Thumb Code     2  startup_tae32g58xx.o(.text.Default_Handler)
    GPIOF_IRQHandler                         0x08000725   Thumb Code     2  startup_tae32g58xx.o(.text.Default_Handler)
    HRPWM_COMM_IRQHandler                    0x08000725   Thumb Code     2  startup_tae32g58xx.o(.text.Default_Handler)
    HRPWM_MST_IRQHandler                     0x08000725   Thumb Code     2  startup_tae32g58xx.o(.text.Default_Handler)
    HRPWM_SLV0_IRQHandler                    0x08000725   Thumb Code     2  startup_tae32g58xx.o(.text.Default_Handler)
    HRPWM_SLV1_IRQHandler                    0x08000725   Thumb Code     2  startup_tae32g58xx.o(.text.Default_Handler)
    HRPWM_SLV2_IRQHandler                    0x08000725   Thumb Code     2  startup_tae32g58xx.o(.text.Default_Handler)
    HRPWM_SLV3_IRQHandler                    0x08000725   Thumb Code     2  startup_tae32g58xx.o(.text.Default_Handler)
    HRPWM_SLV4_IRQHandler                    0x08000725   Thumb Code     2  startup_tae32g58xx.o(.text.Default_Handler)
    HRPWM_SLV5_IRQHandler                    0x08000725   Thumb Code     2  startup_tae32g58xx.o(.text.Default_Handler)
    HRPWM_SLV6_IRQHandler                    0x08000725   Thumb Code     2  startup_tae32g58xx.o(.text.Default_Handler)
    HRPWM_SLV7_IRQHandler                    0x08000725   Thumb Code     2  startup_tae32g58xx.o(.text.Default_Handler)
    I2C0_IRQHandler                          0x08000725   Thumb Code     2  startup_tae32g58xx.o(.text.Default_Handler)
    I2C1_IRQHandler                          0x08000725   Thumb Code     2  startup_tae32g58xx.o(.text.Default_Handler)
    I2C2_IRQHandler                          0x08000725   Thumb Code     2  startup_tae32g58xx.o(.text.Default_Handler)
    IIR_IRQHandler                           0x08000725   Thumb Code     2  startup_tae32g58xx.o(.text.Default_Handler)
    IWDG_IRQHandler                          0x08000725   Thumb Code     2  startup_tae32g58xx.o(.text.Default_Handler)
    PDM0_IRQHandler                          0x08000725   Thumb Code     2  startup_tae32g58xx.o(.text.Default_Handler)
    PDM1_IRQHandler                          0x08000725   Thumb Code     2  startup_tae32g58xx.o(.text.Default_Handler)
    PDM2_IRQHandler                          0x08000725   Thumb Code     2  startup_tae32g58xx.o(.text.Default_Handler)
    PDM3_IRQHandler                          0x08000725   Thumb Code     2  startup_tae32g58xx.o(.text.Default_Handler)
    PMU_IRQHandler                           0x08000725   Thumb Code     2  startup_tae32g58xx.o(.text.Default_Handler)
    QEI0_IRQHandler                          0x08000725   Thumb Code     2  startup_tae32g58xx.o(.text.Default_Handler)
    QEI1_IRQHandler                          0x08000725   Thumb Code     2  startup_tae32g58xx.o(.text.Default_Handler)
    QEI2_IRQHandler                          0x08000725   Thumb Code     2  startup_tae32g58xx.o(.text.Default_Handler)
    SPI0_IRQHandler                          0x08000725   Thumb Code     2  startup_tae32g58xx.o(.text.Default_Handler)
    SPI1_IRQHandler                          0x08000725   Thumb Code     2  startup_tae32g58xx.o(.text.Default_Handler)
    TMR0_IRQHandler                          0x08000725   Thumb Code     2  startup_tae32g58xx.o(.text.Default_Handler)
    TMR10_BRK_IRQHandler                     0x08000725   Thumb Code     2  startup_tae32g58xx.o(.text.Default_Handler)
    TMR10_CC_IRQHandler                      0x08000725   Thumb Code     2  startup_tae32g58xx.o(.text.Default_Handler)
    TMR10_TRG_IRQHandler                     0x08000725   Thumb Code     2  startup_tae32g58xx.o(.text.Default_Handler)
    TMR10_UPD_IRQHandler                     0x08000725   Thumb Code     2  startup_tae32g58xx.o(.text.Default_Handler)
    TMR1_IRQHandler                          0x08000725   Thumb Code     2  startup_tae32g58xx.o(.text.Default_Handler)
    TMR2_IRQHandler                          0x08000725   Thumb Code     2  startup_tae32g58xx.o(.text.Default_Handler)
    TMR3_IRQHandler                          0x08000725   Thumb Code     2  startup_tae32g58xx.o(.text.Default_Handler)
    TMR4_IRQHandler                          0x08000725   Thumb Code     2  startup_tae32g58xx.o(.text.Default_Handler)
    TMR6_IRQHandler                          0x08000725   Thumb Code     2  startup_tae32g58xx.o(.text.Default_Handler)
    TMR8_IRQHandler                          0x08000725   Thumb Code     2  startup_tae32g58xx.o(.text.Default_Handler)
    TMR9_BRK_IRQHandler                      0x08000725   Thumb Code     2  startup_tae32g58xx.o(.text.Default_Handler)
    TMR9_CC_IRQHandler                       0x08000725   Thumb Code     2  startup_tae32g58xx.o(.text.Default_Handler)
    TMR9_TRG_IRQHandler                      0x08000725   Thumb Code     2  startup_tae32g58xx.o(.text.Default_Handler)
    TMR9_UPD_IRQHandler                      0x08000725   Thumb Code     2  startup_tae32g58xx.o(.text.Default_Handler)
    UART0_IRQHandler                         0x08000725   Thumb Code     2  startup_tae32g58xx.o(.text.Default_Handler)
    UART1_IRQHandler                         0x08000725   Thumb Code     2  startup_tae32g58xx.o(.text.Default_Handler)
    UART2_IRQHandler                         0x08000725   Thumb Code     2  startup_tae32g58xx.o(.text.Default_Handler)
    UART3_IRQHandler                         0x08000725   Thumb Code     2  startup_tae32g58xx.o(.text.Default_Handler)
    UART4_IRQHandler                         0x08000725   Thumb Code     2  startup_tae32g58xx.o(.text.Default_Handler)
    USB_DET_IRQHandler                       0x08000725   Thumb Code     2  startup_tae32g58xx.o(.text.Default_Handler)
    USB_EP_IRQHandler                        0x08000725   Thumb Code     2  startup_tae32g58xx.o(.text.Default_Handler)
    USB_PWR_IRQHandler                       0x08000725   Thumb Code     2  startup_tae32g58xx.o(.text.Default_Handler)
    WWDG_IRQHandler                          0x08000725   Thumb Code     2  startup_tae32g58xx.o(.text.Default_Handler)
    XIF_IRQHandler                           0x08000725   Thumb Code     2  startup_tae32g58xx.o(.text.Default_Handler)
    EFLASH_EraseComm                         0x08000729   Thumb Code    90  tae32g58xx_ll_eflash.o(.text.EFLASH_EraseComm)
    EFlash_EraseBank                         0x080007d1   Thumb Code    16  otf_eflash.o(.text.EFlash_EraseBank)
    EFlash_EraseSensor                       0x080007e1   Thumb Code    40  otf_eflash.o(.text.EFlash_EraseSensor)
    EFlash_Init                              0x08000809   Thumb Code    20  otf_eflash.o(.text.EFlash_Init)
    EFlash_WritePack                         0x0800081d   Thumb Code    22  otf_eflash.o(.text.EFlash_WritePack)
    HardFault_Handler                        0x08000835   Thumb Code     2  tae32g58xx_it.o(.text.HardFault_Handler)
    LL_EFLASH_ChipSize_Get                   0x08000839   Thumb Code    46  tae32g58xx_ll_eflash.o(.text.LL_EFLASH_ChipSize_Get)
    LL_EFLASH_EraseBank1                     0x08000869   Thumb Code    92  tae32g58xx_ll_eflash.o(.text.LL_EFLASH_EraseBank1)
    LL_EFLASH_EraseMultiSector               0x080008c5   Thumb Code   204  tae32g58xx_ll_eflash.o(.text.LL_EFLASH_EraseMultiSector)
    LL_EFLASH_ProgErase_Lock                 0x08000991   Thumb Code    46  tae32g58xx_ll_eflash.o(.text.LL_EFLASH_ProgErase_Lock)
    LL_EFLASH_ProgErase_Unlock               0x080009c1   Thumb Code    74  tae32g58xx_ll_eflash.o(.text.LL_EFLASH_ProgErase_Unlock)
    LL_EFLASH_Program                        0x08000a0d   Thumb Code   256  tae32g58xx_ll_eflash.o(.text.LL_EFLASH_Program)
    LL_EFLASH_SectorNums_Get                 0x08000b0d   Thumb Code    58  tae32g58xx_ll_eflash.o(.text.LL_EFLASH_SectorNums_Get)
    LL_EFLASH_WaitForBusyState               0x08000b49   Thumb Code   242  tae32g58xx_ll_eflash.o(.text.LL_EFLASH_WaitForBusyState)
    LL_EFLASH_WaitForLastOptCplt             0x08000c3d   Thumb Code    92  tae32g58xx_ll_eflash.o(.text.LL_EFLASH_WaitForLastOptCplt)
    LL_GPIO_Init                             0x08000c99   Thumb Code   460  tae32g58xx_ll_gpio.o(.text.LL_GPIO_Init)
    LL_GetTick                               0x08000e65   Thumb Code    12  tae32g58xx_ll.o(.text.LL_GetTick)
    LL_IncTick                               0x08000e71   Thumb Code    26  tae32g58xx_ll.o(.text.LL_IncTick)
    LL_Init                                  0x08000e8d   Thumb Code    48  tae32g58xx_ll.o(.text.LL_Init)
    LL_InitTick                              0x08000ebd   Thumb Code    80  tae32g58xx_ll.o(.text.LL_InitTick)
    LL_MspInit                               0x08000f0d   Thumb Code    72  tae32g58xx_ll_msp.o(.text.LL_MspInit)
    LL_NVIC_EnableIRQ                        0x08000f55   Thumb Code    18  tae32g58xx_ll_cortex.o(.text.LL_NVIC_EnableIRQ)
    LL_NVIC_SetPriority                      0x08000f69   Thumb Code    38  tae32g58xx_ll_cortex.o(.text.LL_NVIC_SetPriority)
    LL_NVIC_SetPriorityGrouping              0x08000f91   Thumb Code    20  tae32g58xx_ll_cortex.o(.text.LL_NVIC_SetPriorityGrouping)
    LL_RCU_ADC0_ClkDisRstAssert              0x08000fa5   Thumb Code    58  tae32g58xx_ll_rcu.o(.text.LL_RCU_ADC0_ClkDisRstAssert)
    LL_RCU_ADC0_ClkEnRstRelease              0x08000fe1   Thumb Code    46  tae32g58xx_ll_rcu.o(.text.LL_RCU_ADC0_ClkEnRstRelease)
    LL_RCU_ADC_ClkCfg                        0x08001011   Thumb Code    68  tae32g58xx_ll_rcu.o(.text.LL_RCU_ADC_ClkCfg)
    LL_RCU_APB0ClkGet                        0x08001055   Thumb Code    26  tae32g58xx_ll_rcu.o(.text.LL_RCU_APB0ClkGet)
    LL_RCU_APB1ClkGet                        0x08001071   Thumb Code    26  tae32g58xx_ll_rcu.o(.text.LL_RCU_APB1ClkGet)
    LL_RCU_DMA_ClkEnRstRelease               0x0800108d   Thumb Code    38  tae32g58xx_ll_rcu.o(.text.LL_RCU_DMA_ClkEnRstRelease)
    LL_RCU_EFLASH_ClkEnRstRelease            0x080010b5   Thumb Code    38  tae32g58xx_ll_rcu.o(.text.LL_RCU_EFLASH_ClkEnRstRelease)
    LL_RCU_GPIOA_ClkEnRstRelease             0x080010dd   Thumb Code    38  tae32g58xx_ll_rcu.o(.text.LL_RCU_GPIOA_ClkEnRstRelease)
    LL_RCU_GPIOB_ClkEnRstRelease             0x08001105   Thumb Code    38  tae32g58xx_ll_rcu.o(.text.LL_RCU_GPIOB_ClkEnRstRelease)
    LL_RCU_GPIOC_ClkEnRstRelease             0x0800112d   Thumb Code    38  tae32g58xx_ll_rcu.o(.text.LL_RCU_GPIOC_ClkEnRstRelease)
    LL_RCU_GPIOD_ClkEnRstRelease             0x08001155   Thumb Code    38  tae32g58xx_ll_rcu.o(.text.LL_RCU_GPIOD_ClkEnRstRelease)
    LL_RCU_GPIOE_ClkEnRstRelease             0x0800117d   Thumb Code    38  tae32g58xx_ll_rcu.o(.text.LL_RCU_GPIOE_ClkEnRstRelease)
    LL_RCU_GPIOF_ClkEnRstRelease             0x080011a5   Thumb Code    38  tae32g58xx_ll_rcu.o(.text.LL_RCU_GPIOF_ClkEnRstRelease)
    LL_RCU_Pll0Cfg                           0x08001431   Thumb Code   590  tae32g58xx_ll_rcu.o(.text.LL_RCU_Pll0Cfg)
    LL_RCU_SysclkGet                         0x08001681   Thumb Code    12  tae32g58xx_ll_rcu.o(.text.LL_RCU_SysclkGet)
    LL_RCU_SysclkInit                        0x0800168d   Thumb Code   460  tae32g58xx_ll_rcu.o(.text.LL_RCU_SysclkInit)
    LL_RCU_UART0_ClkEnRstRelease             0x08001859   Thumb Code    38  tae32g58xx_ll_rcu.o(.text.LL_RCU_UART0_ClkEnRstRelease)
    LL_RCU_UART1_ClkEnRstRelease             0x08001881   Thumb Code    38  tae32g58xx_ll_rcu.o(.text.LL_RCU_UART1_ClkEnRstRelease)
    LL_RCU_UART2_ClkEnRstRelease             0x080018a9   Thumb Code    38  tae32g58xx_ll_rcu.o(.text.LL_RCU_UART2_ClkEnRstRelease)
    LL_RCU_UART3_ClkEnRstRelease             0x080018d1   Thumb Code    38  tae32g58xx_ll_rcu.o(.text.LL_RCU_UART3_ClkEnRstRelease)
    LL_RCU_UART4_ClkEnRstRelease             0x080018f9   Thumb Code    38  tae32g58xx_ll_rcu.o(.text.LL_RCU_UART4_ClkEnRstRelease)
    LL_SYSTICK_Callback                      0x08001921   Thumb Code     2  tae32g58xx_ll_cortex.o(.text.LL_SYSTICK_Callback)
    LL_SYSTICK_Config                        0x08001925   Thumb Code     8  tae32g58xx_ll_cortex.o(.text.LL_SYSTICK_Config)
    LL_SYSTICK_IRQHandler                    0x0800192d   Thumb Code     8  tae32g58xx_ll_cortex.o(.text.LL_SYSTICK_IRQHandler)
    LL_UART_Init                             0x08001935   Thumb Code   590  tae32g58xx_ll_uart.o(.text.LL_UART_Init)
    LL_UART_MspInit                          0x08001b85   Thumb Code   272  tae32g58xx_ll_msp.o(.text.LL_UART_MspInit)
    LL_UART_Transmit_CPU                     0x08001c95   Thumb Code   356  tae32g58xx_ll_uart.o(.text.LL_UART_Transmit_CPU)
    MemManage_Handler                        0x08001df9   Thumb Code     2  tae32g58xx_it.o(.text.MemManage_Handler)
    NMI_Handler                              0x08001dfd   Thumb Code     2  tae32g58xx_it.o(.text.NMI_Handler)
    OTF_ChangeBank_Func                      0x08001e2d   Thumb Code    32  otf_download.o(.text.OTF_ChangeBank_Func)
    OTF_FwExcute                             0x08001e4d   Thumb Code    36  otf_download.o(.text.OTF_FwExcute)
    OTF_FwUpdata_Func                        0x08001e71   Thumb Code   268  otf_download.o(.text.OTF_FwUpdata_Func)
    OTF_GetKey                               0x08001f7d   Thumb Code    20  otf_uart.o(.text.OTF_GetKey)
    OTF_RecvPacket                           0x08001f91   Thumb Code    68  otf_uart.o(.text.OTF_RecvPacket)
    OTF_RecviceFirmware                      0x08001fd5   Thumb Code   680  otf_download.o(.text.OTF_RecviceFirmware)
    OTF_SerialDecode                         0x0800227d   Thumb Code    74  otf_download.o(.text.OTF_SerialDecode)
    OTF_SerialSendByte                       0x080022c9   Thumb Code    30  otf_uart.o(.text.OTF_SerialSendByte)
    OTF_SerialSendStr                        0x080022e9   Thumb Code    26  otf_uart.o(.text.OTF_SerialSendStr)
    OTF_Show                                 0x08002305   Thumb Code    40  otf_download.o(.text.OTF_Show)
    OTF_ShowMenu                             0x0800232d   Thumb Code   152  otf_download.o(.text.OTF_ShowMenu)
    OTF_TestOPDR                             0x080023c5   Thumb Code    40  otf_download.o(.text.OTF_TestOPDR)
    OTF_Uart_Init                            0x080023ed   Thumb Code    78  otf_uart.o(.text.OTF_Uart_Init)
    OTF_WaitDownload                         0x0800243d   Thumb Code    62  otf_uart.o(.text.OTF_WaitDownload)
    PendSV_Handler                           0x0800247d   Thumb Code     2  tae32g58xx_it.o(.text.PendSV_Handler)
    Reset_Handler                            0x08002481   Thumb Code     8  startup_tae32g58xx.o(.text.Reset_Handler)
    SVC_Handler                              0x08002489   Thumb Code     2  tae32g58xx_it.o(.text.SVC_Handler)
    SysTick_Handler                          0x080024bd   Thumb Code    12  tae32g58xx_it.o(.text.SysTick_Handler)
    SystemClock_Conf                         0x080024c9   Thumb Code    70  main.o(.text.SystemClock_Conf)
    SystemCoreClockUpdate                    0x08002511   Thumb Code    16  system_tae32g58xx.o(.text.SystemCoreClockUpdate)
    SystemInit                               0x08002521   Thumb Code    48  system_tae32g58xx.o(.text.SystemInit)
    UsageFault_Handler                       0x080025b5   Thumb Code     2  tae32g58xx_it.o(.text.UsageFault_Handler)
    Ymodem_FirstPacket                       0x080025b9   Thumb Code   130  ymodem.o(.text.Ymodem_FirstPacket)
    Ymodem_Talk                              0x0800263d   Thumb Code   310  ymodem.o(.text.Ymodem_Talk)
    crc_cal_by_byte                          0x080027e9   Thumb Code    48  crc.o(.text.crc_cal_by_byte)
    __scatterload_copy                       0x08002819   Thumb Code    14  handlers.o(i.__scatterload_copy)
    __scatterload_null                       0x08002827   Thumb Code     2  handlers.o(i.__scatterload_null)
    __scatterload_zeroinit                   0x08002829   Thumb Code    14  handlers.o(i.__scatterload_zeroinit)
    crc_ta_8                                 0x08002860   Data         512  crc.o(.rodata.crc_ta_8)
    Region$$Table$$Base                      0x08002fd0   Number         0  anon$$obj.o(Region$$Table)
    Load$$ER_IMP_TEXT$$Base                  0x08003020   Number         0  anon$$obj.o ABSOLUTE
    Region$$Table$$Limit                     0x08003020   Number         0  anon$$obj.o(Region$$Table)
    Load$$UPGRADE_INT_CODE$$Base             0x08003348   Number         0  anon$$obj.o ABSOLUTE
    Load$$SHARE_MEMORY$$Base                 0x08003574   Number         0  anon$$obj.o ABSOLUTE
    main                                     0x0801e001   Thumb Code    54  main.o(SECTION_FIX_CODE)
    Bank_GetOtherBank                        0x0801e039   Thumb Code   188  bank_function.o(SECTION_FIX_CODE)
    Bank_GetThisBank                         0x0801e0f5   Thumb Code   188  bank_function.o(SECTION_FIX_CODE)
    Bank_CleanRAM                            0x0801e1b1   Thumb Code    20  bank_function.o(SECTION_FIX_CODE)
    Bank_InitImp_Code                        0x0801e1c5   Thumb Code    48  bank_function.o(SECTION_FIX_CODE)
    Bank_Init_UpgradeCode                    0x0801e1f5   Thumb Code    54  bank_function.o(SECTION_FIX_CODE)
    OTF_ChangeBankTask                       0x0801e22d   Thumb Code   120  bank_function.o(SECTION_FIX_CODE)
    Long Thumb to Thumb Veneer to IMP_CodeBaseInit 0x0801e2a5   Thumb Code    10  anon$$obj.o(Veneer$$Code)
    Long Thumb to Thumb Veneer to EFlash_BankChange 0x0801e2af   Thumb Code    10  anon$$obj.o(Veneer$$Code)
    Firmware                                 0x0801f000   Data          56  fixdata.o(SECTION_FIX_DATA)
    Image$$ARM_LIB_STACK$$ZI$$Limit          0x10002000   Number         0  anon$$obj.o ABSOLUTE
    Image$$SHARE_MEMORY$$Base                0x10002000   Number         0  anon$$obj.o ABSOLUTE
    Firmware_OtherBank                       0x10002104   Data          56  user_sharevalue.o(SECTION_SHARE_MEMORY)
    Firmware_ThisBank                        0x1000213c   Data          56  user_sharevalue.o(SECTION_SHARE_MEMORY)
    Image$$ER_IMP_TEXT$$Base                 0x10006000   Number         0  anon$$obj.o ABSOLUTE
    SRAM_VECTOR_TABLE                        0x10006000   Data         416  startup_tae32g58xx.o(.ARM.__at_0x10006000)
    Long Thumb to Thumb Veneer to OTF_SerialSendStr 0x100061a1   Thumb Code    10  anon$$obj.o(Veneer$$Code)
    IMP_CodeBaseInit                         0x100061ad   Thumb Code    32  imp_baseinit.o(.text.IMP_CodeBaseInit)
    TMR7_IRQHandler                          0x100061cd   Thumb Code   160  user_tmr.o(SECTION_IMP_CODE)
    delay_us                                 0x1000626d   Thumb Code    44  eflash_changebank.o(SECTION_IMP_CODE)
    EFlash_BankChange                        0x10006299   Thumb Code   130  eflash_changebank.o(SECTION_IMP_CODE)
    SystemCoreClock                          0x1000631c   Data           4  system_tae32g58xx.o(.data.SystemCoreClock)
    uwTickFreq                               0x10006320   Data           1  tae32g58xx_ll.o(.data.uwTickFreq)
    uwTickPrio                               0x10006324   Data           4  tae32g58xx_ll.o(.data.uwTickPrio)
    OTF_RxBuf                                0x10006328   Data        1029  otf_download.o(.bss.OTF_RxBuf)
    file_name                                0x10006730   Data          64  ymodem.o(.bss.file_name)
    import_flag                              0x10006770   Data           4  user_sharevalue.o(.bss.import_flag)
    uwTick                                   0x10006774   Data           4  tae32g58xx_ll.o(.bss.uwTick)
    Image$$UPGRADE_INT_CODE$$Base            0x10018000   Number         0  anon$$obj.o ABSOLUTE
    UPGRADE_VECTOR_TABLE                     0x10018000   Data         416  startup_tae32g58xx.o(.ARM.__at_0x10018000)
    UPGRADE_TMR7_IRQHandler                  0x100181a1   Thumb Code   140  user_upgrade_interrupts.o(SECTION_UPGRADE_CODE)



==============================================================================

Memory Map of the image

  Image Entry point : 0x08000009

  Load Region LR_BANK (Base: 0x08000000, Size: 0x000036e8, Max: 0x0001c000, ABSOLUTE, COMPRESSED[0x00003578])

    Execution Region ER_ROM (Exec base: 0x08000000, Load base: 0x08000000, Size: 0x00003020, Max: 0x0001c000, ABSOLUTE)

    Exec Addr    Load Addr    Size         Type   Attr      Idx    E Section Name        Object

    0x08000000   0x08000000   0x00000008   Data   RO          101    RESET               startup_tae32g58xx.o
    0x08000008   0x08000008   0x00000000   Code   RO         1062  * .ARM.Collect$$$$00000000  mc_w.l(entry.o)
    0x08000008   0x08000008   0x00000004   Code   RO         1095    .ARM.Collect$$$$00000003  mc_w.l(entry4.o)
    0x0800000c   0x0800000c   0x00000004   Code   RO         1098    .ARM.Collect$$$$00000004  mc_w.l(entry5.o)
    0x08000010   0x08000010   0x00000000   Code   RO         1100    .ARM.Collect$$$$00000008  mc_w.l(entry7b.o)
    0x08000010   0x08000010   0x00000000   Code   RO         1102    .ARM.Collect$$$$0000000A  mc_w.l(entry8b.o)
    0x08000010   0x08000010   0x00000008   Code   RO         1103    .ARM.Collect$$$$0000000B  mc_w.l(entry9a.o)
    0x08000018   0x08000018   0x00000000   Code   RO         1105    .ARM.Collect$$$$0000000D  mc_w.l(entry10a.o)
    0x08000018   0x08000018   0x00000000   Code   RO         1107    .ARM.Collect$$$$0000000F  mc_w.l(entry11a.o)
    0x08000018   0x08000018   0x00000004   Code   RO         1096    .ARM.Collect$$$$00002714  mc_w.l(entry4.o)
    0x0800001c   0x0800001c   0x00000024   Code   RO         1065    .text               mc_w.l(memcpya.o)
    0x08000040   0x08000040   0x00000024   Code   RO         1067    .text               mc_w.l(memseta.o)
    0x08000064   0x08000064   0x0000000e   Code   RO         1069    .text               mc_w.l(strlen.o)
    0x08000072   0x08000072   0x0000001c   Code   RO         1071    .text               mc_w.l(strcmp.o)
    0x0800008e   0x0800008e   0x0000001e   Code   RO         1073    .text               mc_w.l(strncmp.o)
    0x080000ac   0x080000ac   0x00000064   Code   RO         1077    .text               mf_w.l(fmul.o)
    0x08000110   0x08000110   0x0000007c   Code   RO         1079    .text               mf_w.l(fdiv.o)
    0x0800018c   0x0800018c   0x0000014e   Code   RO         1081    .text               mf_w.l(dadd.o)
    0x080002da   0x080002da   0x000000e4   Code   RO         1083    .text               mf_w.l(dmul.o)
    0x080003be   0x080003be   0x000000de   Code   RO         1085    .text               mf_w.l(ddiv.o)
    0x0800049c   0x0800049c   0x0000000a   Code   RO         1087    .text               mf_w.l(ffltui.o)
    0x080004a6   0x080004a6   0x0000001a   Code   RO         1089    .text               mf_w.l(dfltui.o)
    0x080004c0   0x080004c0   0x00000028   Code   RO         1091    .text               mf_w.l(ffixui.o)
    0x080004e8   0x080004e8   0x0000003e   Code   RO         1093    .text               mf_w.l(dfixi.o)
    0x08000526   0x08000526   0x0000001e   Code   RO         1109    .text               mc_w.l(llshl.o)
    0x08000544   0x08000544   0x00000020   Code   RO         1111    .text               mc_w.l(llushr.o)
    0x08000564   0x08000564   0x00000024   Code   RO         1113    .text               mc_w.l(llsshr.o)
    0x08000588   0x08000588   0x00000000   Code   RO         1115    .text               mc_w.l(iusefp.o)
    0x08000588   0x08000588   0x0000006e   Code   RO         1116    .text               mf_w.l(fepilogue.o)
    0x080005f6   0x080005f6   0x000000ba   Code   RO         1118    .text               mf_w.l(depilogue.o)
    0x080006b0   0x080006b0   0x00000024   Code   RO         1120    .text               mc_w.l(init.o)
    0x080006d4   0x080006d4   0x0000003a   Code   RO         1130    .text               mc_w.l(__dczerorl.o)
    0x0800070e   0x0800070e   0x00000002   PAD
    0x08000710   0x08000710   0x0000000c   Code   RO            4    .text.BaseInit      main.o
    0x0800071c   0x0800071c   0x00000002   Code   RO           25    .text.BusFault_Handler  tae32g58xx_it.o
    0x0800071e   0x0800071e   0x00000002   PAD
    0x08000720   0x08000720   0x00000002   Code   RO           31    .text.DebugMon_Handler  tae32g58xx_it.o
    0x08000722   0x08000722   0x00000002   PAD
    0x08000724   0x08000724   0x00000002   Code   RO           95    .text.Default_Handler  startup_tae32g58xx.o
    0x08000726   0x08000726   0x00000002   PAD
    0x08000728   0x08000728   0x0000005a   Code   RO          792    .text.EFLASH_EraseComm  tae32g58xx_ll_eflash.o
    0x08000782   0x08000782   0x00000002   PAD
    0x08000784   0x08000784   0x0000004c   Code   RO          772    .text.EFLASH_LastOptSta_Get  tae32g58xx_ll_eflash.o
    0x080007d0   0x080007d0   0x00000010   Code   RO          949    .text.EFlash_EraseBank  otf_eflash.o
    0x080007e0   0x080007e0   0x00000028   Code   RO          951    .text.EFlash_EraseSensor  otf_eflash.o
    0x08000808   0x08000808   0x00000014   Code   RO          947    .text.EFlash_Init   otf_eflash.o
    0x0800081c   0x0800081c   0x00000016   Code   RO          953    .text.EFlash_WritePack  otf_eflash.o
    0x08000832   0x08000832   0x00000002   PAD
    0x08000834   0x08000834   0x00000002   Code   RO           21    .text.HardFault_Handler  tae32g58xx_it.o
    0x08000836   0x08000836   0x00000002   PAD
    0x08000838   0x08000838   0x0000002e   Code   RO          774    .text.LL_EFLASH_ChipSize_Get  tae32g58xx_ll_eflash.o
    0x08000866   0x08000866   0x00000002   PAD
    0x08000868   0x08000868   0x0000005c   Code   RO          796    .text.LL_EFLASH_EraseBank1  tae32g58xx_ll_eflash.o
    0x080008c4   0x080008c4   0x000000cc   Code   RO          786    .text.LL_EFLASH_EraseMultiSector  tae32g58xx_ll_eflash.o
    0x08000990   0x08000990   0x0000002e   Code   RO          784    .text.LL_EFLASH_ProgErase_Lock  tae32g58xx_ll_eflash.o
    0x080009be   0x080009be   0x00000002   PAD
    0x080009c0   0x080009c0   0x0000004a   Code   RO          782    .text.LL_EFLASH_ProgErase_Unlock  tae32g58xx_ll_eflash.o
    0x08000a0a   0x08000a0a   0x00000002   PAD
    0x08000a0c   0x08000a0c   0x00000100   Code   RO          780    .text.LL_EFLASH_Program  tae32g58xx_ll_eflash.o
    0x08000b0c   0x08000b0c   0x0000003a   Code   RO          778    .text.LL_EFLASH_SectorNums_Get  tae32g58xx_ll_eflash.o
    0x08000b46   0x08000b46   0x00000002   PAD
    0x08000b48   0x08000b48   0x000000f2   Code   RO          750    .text.LL_EFLASH_WaitForBusyState  tae32g58xx_ll_eflash.o
    0x08000c3a   0x08000c3a   0x00000002   PAD
    0x08000c3c   0x08000c3c   0x0000005c   Code   RO          754    .text.LL_EFLASH_WaitForLastOptCplt  tae32g58xx_ll_eflash.o
    0x08000c98   0x08000c98   0x000001cc   Code   RO          720    .text.LL_GPIO_Init  tae32g58xx_ll_gpio.o
    0x08000e64   0x08000e64   0x0000000c   Code   RO          135    .text.LL_GetTick    tae32g58xx_ll.o
    0x08000e70   0x08000e70   0x0000001a   Code   RO          133    .text.LL_IncTick    tae32g58xx_ll.o
    0x08000e8a   0x08000e8a   0x00000002   PAD
    0x08000e8c   0x08000e8c   0x00000030   Code   RO          123    .text.LL_Init       tae32g58xx_ll.o
    0x08000ebc   0x08000ebc   0x00000050   Code   RO          125    .text.LL_InitTick   tae32g58xx_ll.o
    0x08000f0c   0x08000f0c   0x00000048   Code   RO           44    .text.LL_MspInit    tae32g58xx_ll_msp.o
    0x08000f54   0x08000f54   0x00000012   Code   RO          840    .text.LL_NVIC_EnableIRQ  tae32g58xx_ll_cortex.o
    0x08000f66   0x08000f66   0x00000002   PAD
    0x08000f68   0x08000f68   0x00000026   Code   RO          828    .text.LL_NVIC_SetPriority  tae32g58xx_ll_cortex.o
    0x08000f8e   0x08000f8e   0x00000002   PAD
    0x08000f90   0x08000f90   0x00000014   Code   RO          820    .text.LL_NVIC_SetPriorityGrouping  tae32g58xx_ll_cortex.o
    0x08000fa4   0x08000fa4   0x0000003a   Code   RO          364    .text.LL_RCU_ADC0_ClkDisRstAssert  tae32g58xx_ll_rcu.o
    0x08000fde   0x08000fde   0x00000002   PAD
    0x08000fe0   0x08000fe0   0x0000002e   Code   RO          362    .text.LL_RCU_ADC0_ClkEnRstRelease  tae32g58xx_ll_rcu.o
    0x0800100e   0x0800100e   0x00000002   PAD
    0x08001010   0x08001010   0x00000044   Code   RO          174    .text.LL_RCU_ADC_ClkCfg  tae32g58xx_ll_rcu.o
    0x08001054   0x08001054   0x0000001a   Code   RO          188    .text.LL_RCU_APB0ClkGet  tae32g58xx_ll_rcu.o
    0x0800106e   0x0800106e   0x00000002   PAD
    0x08001070   0x08001070   0x0000001a   Code   RO          190    .text.LL_RCU_APB1ClkGet  tae32g58xx_ll_rcu.o
    0x0800108a   0x0800108a   0x00000002   PAD
    0x0800108c   0x0800108c   0x00000026   Code   RO          198    .text.LL_RCU_DMA_ClkEnRstRelease  tae32g58xx_ll_rcu.o
    0x080010b2   0x080010b2   0x00000002   PAD
    0x080010b4   0x080010b4   0x00000026   Code   RO          194    .text.LL_RCU_EFLASH_ClkEnRstRelease  tae32g58xx_ll_rcu.o
    0x080010da   0x080010da   0x00000002   PAD
    0x080010dc   0x080010dc   0x00000026   Code   RO          282    .text.LL_RCU_GPIOA_ClkEnRstRelease  tae32g58xx_ll_rcu.o
    0x08001102   0x08001102   0x00000002   PAD
    0x08001104   0x08001104   0x00000026   Code   RO          286    .text.LL_RCU_GPIOB_ClkEnRstRelease  tae32g58xx_ll_rcu.o
    0x0800112a   0x0800112a   0x00000002   PAD
    0x0800112c   0x0800112c   0x00000026   Code   RO          290    .text.LL_RCU_GPIOC_ClkEnRstRelease  tae32g58xx_ll_rcu.o
    0x08001152   0x08001152   0x00000002   PAD
    0x08001154   0x08001154   0x00000026   Code   RO          294    .text.LL_RCU_GPIOD_ClkEnRstRelease  tae32g58xx_ll_rcu.o
    0x0800117a   0x0800117a   0x00000002   PAD
    0x0800117c   0x0800117c   0x00000026   Code   RO          298    .text.LL_RCU_GPIOE_ClkEnRstRelease  tae32g58xx_ll_rcu.o
    0x080011a2   0x080011a2   0x00000002   PAD
    0x080011a4   0x080011a4   0x00000026   Code   RO          302    .text.LL_RCU_GPIOF_ClkEnRstRelease  tae32g58xx_ll_rcu.o
    0x080011ca   0x080011ca   0x00000002   PAD
    0x080011cc   0x080011cc   0x00000264   Code   RO          192    .text.LL_RCU_PLL0Cali  tae32g58xx_ll_rcu.o
    0x08001430   0x08001430   0x0000024e   Code   RO          172    .text.LL_RCU_Pll0Cfg  tae32g58xx_ll_rcu.o
    0x0800167e   0x0800167e   0x00000002   PAD
    0x08001680   0x08001680   0x0000000c   Code   RO          184    .text.LL_RCU_SysclkGet  tae32g58xx_ll_rcu.o
    0x0800168c   0x0800168c   0x000001cc   Code   RO          170    .text.LL_RCU_SysclkInit  tae32g58xx_ll_rcu.o
    0x08001858   0x08001858   0x00000026   Code   RO          318    .text.LL_RCU_UART0_ClkEnRstRelease  tae32g58xx_ll_rcu.o
    0x0800187e   0x0800187e   0x00000002   PAD
    0x08001880   0x08001880   0x00000026   Code   RO          322    .text.LL_RCU_UART1_ClkEnRstRelease  tae32g58xx_ll_rcu.o
    0x080018a6   0x080018a6   0x00000002   PAD
    0x080018a8   0x080018a8   0x00000026   Code   RO          326    .text.LL_RCU_UART2_ClkEnRstRelease  tae32g58xx_ll_rcu.o
    0x080018ce   0x080018ce   0x00000002   PAD
    0x080018d0   0x080018d0   0x00000026   Code   RO          330    .text.LL_RCU_UART3_ClkEnRstRelease  tae32g58xx_ll_rcu.o
    0x080018f6   0x080018f6   0x00000002   PAD
    0x080018f8   0x080018f8   0x00000026   Code   RO          334    .text.LL_RCU_UART4_ClkEnRstRelease  tae32g58xx_ll_rcu.o
    0x0800191e   0x0800191e   0x00000002   PAD
    0x08001920   0x08001920   0x00000002   Code   RO          876    .text.LL_SYSTICK_Callback  tae32g58xx_ll_cortex.o
    0x08001922   0x08001922   0x00000002   PAD
    0x08001924   0x08001924   0x00000008   Code   RO          870    .text.LL_SYSTICK_Config  tae32g58xx_ll_cortex.o
    0x0800192c   0x0800192c   0x00000008   Code   RO          874    .text.LL_SYSTICK_IRQHandler  tae32g58xx_ll_cortex.o
    0x08001934   0x08001934   0x0000024e   Code   RO          569    .text.LL_UART_Init  tae32g58xx_ll_uart.o
    0x08001b82   0x08001b82   0x00000002   PAD
    0x08001b84   0x08001b84   0x00000110   Code   RO           48    .text.LL_UART_MspInit  tae32g58xx_ll_msp.o
    0x08001c94   0x08001c94   0x00000164   Code   RO          583    .text.LL_UART_Transmit_CPU  tae32g58xx_ll_uart.o
    0x08001df8   0x08001df8   0x00000002   Code   RO           23    .text.MemManage_Handler  tae32g58xx_it.o
    0x08001dfa   0x08001dfa   0x00000002   PAD
    0x08001dfc   0x08001dfc   0x00000002   Code   RO           19    .text.NMI_Handler   tae32g58xx_it.o
    0x08001dfe   0x08001dfe   0x00000002   PAD
    0x08001e00   0x08001e00   0x0000002c   Code   RO          832    .text.NVIC_EncodePriority  tae32g58xx_ll_cortex.o
    0x08001e2c   0x08001e2c   0x00000020   Code   RO         1003    .text.OTF_ChangeBank_Func  otf_download.o
    0x08001e4c   0x08001e4c   0x00000024   Code   RO         1007    .text.OTF_FwExcute  otf_download.o
    0x08001e70   0x08001e70   0x0000010c   Code   RO         1001    .text.OTF_FwUpdata_Func  otf_download.o
    0x08001f7c   0x08001f7c   0x00000014   Code   RO          933    .text.OTF_GetKey    otf_uart.o
    0x08001f90   0x08001f90   0x00000044   Code   RO          937    .text.OTF_RecvPacket  otf_uart.o
    0x08001fd4   0x08001fd4   0x000002a8   Code   RO          999    .text.OTF_RecviceFirmware  otf_download.o
    0x0800227c   0x0800227c   0x0000004a   Code   RO         1013    .text.OTF_SerialDecode  otf_download.o
    0x080022c6   0x080022c6   0x00000002   PAD
    0x080022c8   0x080022c8   0x0000001e   Code   RO          931    .text.OTF_SerialSendByte  otf_uart.o
    0x080022e6   0x080022e6   0x00000002   PAD
    0x080022e8   0x080022e8   0x0000001a   Code   RO          929    .text.OTF_SerialSendStr  otf_uart.o
    0x08002302   0x08002302   0x00000002   PAD
    0x08002304   0x08002304   0x00000028   Code   RO         1009    .text.OTF_Show      otf_download.o
    0x0800232c   0x0800232c   0x00000098   Code   RO          997    .text.OTF_ShowMenu  otf_download.o
    0x080023c4   0x080023c4   0x00000028   Code   RO         1005    .text.OTF_TestOPDR  otf_download.o
    0x080023ec   0x080023ec   0x0000004e   Code   RO          925    .text.OTF_Uart_Init  otf_uart.o
    0x0800243a   0x0800243a   0x00000002   PAD
    0x0800243c   0x0800243c   0x0000003e   Code   RO          935    .text.OTF_WaitDownload  otf_uart.o
    0x0800247a   0x0800247a   0x00000002   PAD
    0x0800247c   0x0800247c   0x00000002   Code   RO           33    .text.PendSV_Handler  tae32g58xx_it.o
    0x0800247e   0x0800247e   0x00000002   PAD
    0x08002480   0x08002480   0x00000008   Code   RO           97    .text.Reset_Handler  startup_tae32g58xx.o
    0x08002488   0x08002488   0x00000002   Code   RO           29    .text.SVC_Handler   tae32g58xx_it.o
    0x0800248a   0x0800248a   0x00000002   PAD
    0x0800248c   0x0800248c   0x0000002e   Code   RO          872    .text.SysTick_Config  tae32g58xx_ll_cortex.o
    0x080024ba   0x080024ba   0x00000002   PAD
    0x080024bc   0x080024bc   0x0000000c   Code   RO           35    .text.SysTick_Handler  tae32g58xx_it.o
    0x080024c8   0x080024c8   0x00000046   Code   RO            8    .text.SystemClock_Conf  main.o
    0x0800250e   0x0800250e   0x00000002   PAD
    0x08002510   0x08002510   0x00000010   Code   RO          113    .text.SystemCoreClockUpdate  system_tae32g58xx.o
    0x08002520   0x08002520   0x00000030   Code   RO          111    .text.SystemInit    system_tae32g58xx.o
    0x08002550   0x08002550   0x00000064   Code   RO          571    .text.UART_Handle_Get  tae32g58xx_ll_uart.o
    0x080025b4   0x080025b4   0x00000002   Code   RO           27    .text.UsageFault_Handler  tae32g58xx_it.o
    0x080025b6   0x080025b6   0x00000002   PAD
    0x080025b8   0x080025b8   0x00000082   Code   RO         1026    .text.Ymodem_FirstPacket  ymodem.o
    0x0800263a   0x0800263a   0x00000002   PAD
    0x0800263c   0x0800263c   0x00000136   Code   RO         1028    .text.Ymodem_Talk   ymodem.o
    0x08002772   0x08002772   0x00000002   PAD
    0x08002774   0x08002774   0x00000020   Code   RO          842    .text.__NVIC_EnableIRQ  tae32g58xx_ll_cortex.o
    0x08002794   0x08002794   0x00000010   Code   RO          826    .text.__NVIC_GetPriorityGrouping  tae32g58xx_ll_cortex.o
    0x080027a4   0x080027a4   0x00000022   Code   RO          830    .text.__NVIC_SetPriority  tae32g58xx_ll_cortex.o
    0x080027c6   0x080027c6   0x00000002   PAD
    0x080027c8   0x080027c8   0x00000020   Code   RO          822    .text.__NVIC_SetPriorityGrouping  tae32g58xx_ll_cortex.o
    0x080027e8   0x080027e8   0x00000030   Code   RO          978    .text.crc_cal_by_byte  crc.o
    0x08002818   0x08002818   0x0000000e   Code   RO         1124    i.__scatterload_copy  mc_w.l(handlers.o)
    0x08002826   0x08002826   0x00000002   Code   RO         1125    i.__scatterload_null  mc_w.l(handlers.o)
    0x08002828   0x08002828   0x0000000e   Code   RO         1126    i.__scatterload_zeroinit  mc_w.l(handlers.o)
    0x08002836   0x08002836   0x00000002   PAD
    0x08002838   0x08002838   0x00000028   Data   RO         1017    .rodata..L__const.OTF_SerialDecode.menu_func  otf_download.o
    0x08002860   0x08002860   0x00000200   Data   RO          980    .rodata.crc_ta_8    crc.o
    0x08002a60   0x08002a60   0x000002a0   Data   RO          442    .rodata.rcu_pll_cfg  tae32g58xx_ll_rcu.o
    0x08002d00   0x08002d00   0x000002c5   Data   RO         1015    .rodata.str1.1      otf_download.o
    0x08002fc5   0x08002fc5   0x00000001   PAD
    0x08002fc6   0x08002fc6   0x0000000a   Data   RO          679    .rodata.uart_ll_cfg_def  tae32g58xx_ll_uart.o
    0x08002fd0   0x08002fd0   0x00000050   Data   RO         1123    Region$$Table       anon$$obj.o


    Execution Region ARM_LIB_HEAP (Exec base: 0x08003020, Load base: 0x08003020, Size: 0x00000000, Max: 0x00000000, ABSOLUTE)

    Exec Addr    Load Addr    Size         Type   Attr      Idx    E Section Name        Object

    0x08003020        -       0x00000000   Zero   RW            1    ARM_LIB_HEAP.bss    anon$$obj.o


    Execution Region ARM_LIB_STACK (Exec base: 0x10000000, Load base: 0x08003020, Size: 0x00002000, Max: 0x00002000, ABSOLUTE)

    Exec Addr    Load Addr    Size         Type   Attr      Idx    E Section Name        Object

    0x10000000        -       0x00002000   Zero   RW            2    ARM_LIB_STACK.bss   anon$$obj.o


    Execution Region SHARE_MEMORY (Exec base: 0x10002000, Load base: 0x08003574, Size: 0x00000174, Max: 0x00004000, ABSOLUTE, COMPRESSED[0x00000004])

    Exec Addr    Load Addr    Size         Type   Attr      Idx    E Section Name        Object

    0x10002000   COMPRESSED   0x00000104   Data   RW          680    SECTION_SHARE_MEMORY  tae32g58xx_ll_uart.o
    0x10002104   COMPRESSED   0x00000070   Data   RW          971    SECTION_SHARE_MEMORY  user_sharevalue.o


    Execution Region ER_IMP_TEXT (Exec base: 0x10006000, Load base: 0x08003020, Size: 0x00000778, Max: 0x00012000, ABSOLUTE)

    Exec Addr    Load Addr    Size         Type   Attr      Idx    E Section Name        Object

    0x10006000   0x08003020   0x000001a0   Data   RO          102    .ARM.__at_0x10006000  startup_tae32g58xx.o
    0x100061a0   0x080031c0   0x0000000a   Ven    RO         1132    Veneer$$Code        anon$$obj.o
    0x100061aa   0x080031ca   0x00000002   PAD
    0x100061ac   0x080031cc   0x00000020   Code   RO          963    .text.IMP_CodeBaseInit  imp_baseinit.o
    0x100061cc   0x080031ec   0x000000a0   Code   RO           68    SECTION_IMP_CODE    user_tmr.o
    0x1000626c   0x0800328c   0x000000ae   Code   RO         1048    SECTION_IMP_CODE    eflash_changebank.o
    0x1000631a   0x0800333a   0x00000002   PAD
    0x1000631c   0x0800333c   0x00000004   Data   RW          115    .data.SystemCoreClock  system_tae32g58xx.o
    0x10006320   0x08003340   0x00000001   Data   RW          160    .data.uwTickFreq    tae32g58xx_ll.o
    0x10006321   0x08003341   0x00000003   PAD
    0x10006324   0x08003344   0x00000004   Data   RW          159    .data.uwTickPrio    tae32g58xx_ll.o
    0x10006328        -       0x00000405   Zero   RW         1016    .bss.OTF_RxBuf      otf_download.o
    0x1000672d   0x08003348   0x00000003   PAD
    0x10006730        -       0x00000040   Zero   RW         1030    .bss.file_name      ymodem.o
    0x10006770        -       0x00000004   Zero   RW          972    .bss.import_flag    user_sharevalue.o
    0x10006774        -       0x00000004   Zero   RW          161    .bss.uwTick         tae32g58xx_ll.o


    Execution Region UPGRADE_INT_CODE (Exec base: 0x10018000, Load base: 0x08003348, Size: 0x0000022c, Max: 0x00008000, ABSOLUTE)

    Exec Addr    Load Addr    Size         Type   Attr      Idx    E Section Name        Object

    0x10018000   0x08003348   0x000001a0   Data   RO          103    .ARM.__at_0x10018000  startup_tae32g58xx.o
    0x100181a0   0x080034e8   0x0000008c   Code   RO           86    SECTION_UPGRADE_CODE  user_upgrade_interrupts.o



  Load Region LR_BANK_FIXED_CODE (Base: 0x0801e000, Size: 0x000002b8, Max: 0x00001000, ABSOLUTE)

    Execution Region ER_FIX_TEXT (Exec base: 0x0801e000, Load base: 0x0801e000, Size: 0x000002b8, Max: 0x00001000, ABSOLUTE)

    Exec Addr    Load Addr    Size         Type   Attr      Idx    E Section Name        Object

    0x0801e000   0x0801e000   0x00000036   Code   RO            6    SECTION_FIX_CODE    main.o
    0x0801e036   0x0801e036   0x00000002   PAD
    0x0801e038   0x0801e038   0x0000026c   Code   RO         1040    SECTION_FIX_CODE    bank_function.o
    0x0801e2a4   0x0801e2a4   0x0000000a   Ven    RO         1133    Veneer$$Code        anon$$obj.o
    0x0801e2ae   0x0801e2ae   0x0000000a   Ven    RO         1134    Veneer$$Code        anon$$obj.o



  Load Region LR_BANK_FIXED_DATA (Base: 0x0801f000, Size: 0x00000038, Max: 0x00001000, ABSOLUTE)

    Execution Region ER_FIX_DATA (Exec base: 0x0801f000, Load base: 0x0801f000, Size: 0x00000038, Max: 0x00001000, ABSOLUTE)

    Exec Addr    Load Addr    Size         Type   Attr      Idx    E Section Name        Object

    0x0801f000   0x0801f000   0x00000038   Data   RW         1057    SECTION_FIX_DATA    fixdata.o


==============================================================================

Image component sizes


      Code (inc. data)   RO Data    RW Data    ZI Data      Debug   Object Name

       620          0          0          0          0      11888   bank_function.o
        48          0        512          0          0       1035   crc.o
       174          0          0          0          0      16499   eflash_changebank.o
         0          0          0         56          0       1013   fixdata.o
        32         20          0          0          0        423   imp_baseinit.o
       136          0          0          0          0      13951   main.o
      1322        336        749          0       1029      10609   otf_download.o
        98          0          0          0          0       3608   otf_eflash.o
       284          0          0          0          0       6768   otf_uart.o
        10          0        840          0          0        923   startup_tae32g58xx.o
        64          0          0          4          0       5139   system_tae32g58xx.o
        28          0          0          0          0       1045   tae32g58xx_it.o
       166          0          0          5          4      11221   tae32g58xx_ll.o
       298          0          0          0          0       9226   tae32g58xx_ll_cortex.o
      1276          6          0          0          0      19228   tae32g58xx_ll_eflash.o
       460          0          0          0          0      18195   tae32g58xx_ll_gpio.o
       344          0          0          0          0      54731   tae32g58xx_ll_msp.o
      2392          8        672          0          0      52892   tae32g58xx_ll_rcu.o
      1046          0         10        260          0      32852   tae32g58xx_ll_uart.o
         0          0          0        112          4       1082   user_sharevalue.o
       160          0          0          0          0      45858   user_tmr.o
       140          0          0          0          0      44232   user_upgrade_interrupts.o
       440          0          0          0         64       2139   ymodem.o

    ----------------------------------------------------------------------
      9672        370       2864        440       9296     364557   Object Totals
        30          0         80          0       8192          0   (incl. Generated)
       104          0          1          3          3          0   (incl. Padding)

    ----------------------------------------------------------------------

      Code (inc. data)   RO Data    RW Data    ZI Data      Debug   Library Member Name

        58          0          0          0          0          0   __dczerorl.o
         0          0          0          0          0          0   entry.o
         0          0          0          0          0          0   entry10a.o
         0          0          0          0          0          0   entry11a.o
         8          4          0          0          0          0   entry4.o
         4          0          0          0          0          0   entry5.o
         0          0          0          0          0          0   entry7b.o
         0          0          0          0          0          0   entry8b.o
         8          4          0          0          0          0   entry9a.o
        30          0          0          0          0          0   handlers.o
        36          8          0          0          0         68   init.o
         0          0          0          0          0          0   iusefp.o
        30          0          0          0          0         68   llshl.o
        36          0          0          0          0         68   llsshr.o
        32          0          0          0          0         68   llushr.o
        36          0          0          0          0         68   memcpya.o
        36          0          0          0          0        108   memseta.o
        28          0          0          0          0         76   strcmp.o
        14          0          0          0          0         68   strlen.o
        30          0          0          0          0         80   strncmp.o
       334          0          0          0          0        148   dadd.o
       222          0          0          0          0        100   ddiv.o
       186          0          0          0          0        176   depilogue.o
        62          0          0          0          0         80   dfixi.o
        26          0          0          0          0         76   dfltui.o
       228          0          0          0          0         96   dmul.o
       124          0          0          0          0         88   fdiv.o
       110          0          0          0          0        168   fepilogue.o
        40          0          0          0          0         68   ffixui.o
        10          0          0          0          0         68   ffltui.o
       100          0          0          0          0         76   fmul.o

    ----------------------------------------------------------------------
      1832         16          0          0          0       1816   Library Totals
         4          0          0          0          0          0   (incl. Padding)

    ----------------------------------------------------------------------

      Code (inc. data)   RO Data    RW Data    ZI Data      Debug   Library Name

       386         16          0          0          0        672   mc_w.l
      1442          0          0          0          0       1144   mf_w.l

    ----------------------------------------------------------------------
      1832         16          0          0          0       1816   Library Totals

    ----------------------------------------------------------------------

==============================================================================


      Code (inc. data)   RO Data    RW Data    ZI Data      Debug   

     11504        386       2864        440       9296     365453   Grand Totals
     11504        386       2864         72       9296     365453   ELF Image Totals (compressed)
     11504        386       2864         72          0          0   ROM Totals

==============================================================================

    Total RO  Size (Code + RO Data)                14368 (  14.03kB)
    Total RW  Size (RW Data + ZI Data)              9736 (   9.51kB)
    Total ROM Size (Code + RO Data + RW Data)      14440 (  14.10kB)

==============================================================================

