Component: Arm Compiler for Embedded 6.19 Tool: armlink [5e73cb00]

==============================================================================

Section Cross References

    main.o(.text.Set_NVIC_Priority) refers to tae32g58xx_ll_cortex.o(.text.LL_NVIC_SetPriorityGrouping) for LL_NVIC_SetPriorityGrouping
    main.o(.text.Set_NVIC_Priority) refers to tae32g58xx_ll_cortex.o(.text.LL_NVIC_SetPriority) for LL_NVIC_SetPriority
    main.o(.ARM.exidx.text.Set_NVIC_Priority) refers to main.o(.text.Set_NVIC_Priority) for [Anonymous Symbol]
    main.o(.text.BaseInit) refers to variable_define.o(.text.variable_init) for variable_init
    main.o(.text.BaseInit) refers to user_vofa.o(.text.User_VOFA_Init) for User_VOFA_Init
    main.o(.text.BaseInit) refers to variable_define.o(.ARM.__at_0x200021e2) for vofa_otf_ChangeFlag
    main.o(.text.BaseInit) refers to otf_eflash.o(.text.EFlash_Init) for EFlash_Init
    main.o(.text.BaseInit) refers to user_hrpwm.o(.text.HRPWM_COUNT_NUM_INIT) for HRPWM_COUNT_NUM_INIT
    main.o(.text.BaseInit) refers to user_gpio.o(.text.GPIO_INIT) for GPIO_INIT
    main.o(.text.BaseInit) refers to tae32g58xx_ll_gpio.o(.text.LL_GPIO_ReadPin) for LL_GPIO_ReadPin
    main.o(.text.BaseInit) refers to variable_define.o(.ARM.__at_0x200021d8) for DIR
    main.o(.text.BaseInit) refers to tae32g58xx_ll_gpio.o(.text.LL_GPIO_WritePin) for LL_GPIO_WritePin
    main.o(.text.BaseInit) refers to user_tmr.o(.text.timer_init) for timer_init
    main.o(.text.BaseInit) refers to adc_init.o(.text.ADC_INIT) for ADC_INIT
    main.o(.text.BaseInit) refers to user_hrpwm.o(.text.HRPWM_INIT) for HRPWM_INIT
    main.o(.text.BaseInit) refers to tae32g58xx_ll_cortex.o(.text.LL_NVIC_SetPriorityGrouping) for LL_NVIC_SetPriorityGrouping
    main.o(.text.BaseInit) refers to tae32g58xx_ll_cortex.o(.text.LL_NVIC_SetPriority) for LL_NVIC_SetPriority
    main.o(.ARM.exidx.text.BaseInit) refers to main.o(.text.BaseInit) for [Anonymous Symbol]
==============================================================================

Removing Unused input sections from the image.

    Removing main.o(.text), (0 bytes).
    Removing main.o(.text.Set_NVIC_Priority), (42 bytes).
    Removing main.o(.ARM.exidx.text.Set_NVIC_Priority), (8 bytes).
    Removing main.o(.ARM.exidx.text.BaseInit), (8 bytes).
    Removing main.o(.ARM.exidxSECTION_FIX_CODE), (8 bytes).
    Removing main.o(.text.SystemClock_Conf), (132 bytes).
    Removing main.o(.ARM.exidx.text.SystemClock_Conf), (8 bytes).
    Removing main.o(.ARM.use_no_argv), (4 bytes).
    Removing tae32g58xx_it.o(.text), (0 bytes).
    Removing tae32g58xx_it.o(.ARM.exidx.text.NMI_Handler), (8 bytes).
    Removing tae32g58xx_it.o(.ARM.exidx.text.HardFault_Handler), (8 bytes).
    Removing tae32g58xx_it.o(.ARM.exidx.text.MemManage_Handler), (8 bytes).
    Removing tae32g58xx_it.o(.ARM.exidx.text.BusFault_Handler), (8 bytes).
    Removing tae32g58xx_it.o(.ARM.exidx.text.UsageFault_Handler), (8 bytes).
    Removing tae32g58xx_it.o(.ARM.exidx.text.SVC_Handler), (8 bytes).
    Removing tae32g58xx_it.o(.ARM.exidx.text.DebugMon_Handler), (8 bytes).
    Removing tae32g58xx_it.o(.ARM.exidx.text.PendSV_Handler), (8 bytes).
    Removing tae32g58xx_it.o(.ARM.exidx.text.SysTick_Handler), (8 bytes).
==============================================================================

Adding Veneers to the image

    Adding TT veneer (10 bytes, Long) for call to 'IMP_CodeBaseInit' from main.o(SECTION_FIX_CODE).
    Adding TT veneer (10 bytes, Long) for call to 'user_vofa_tx' from main.o(SECTION_FIX_CODE).
    Adding TT veneer (10 bytes, Long) for call to 'OTF_SerialSendStr' from imp_baseinit.o(.text.IMP_CodeBaseInit).
    Adding TT veneer (10 bytes, Long) for call to 'SystemCoreClockUpdate' from imp_baseinit.o(.text.IMP_CodeBaseInit).
    Adding TT veneer (10 bytes, Long) for call to '__aeabi_ui2d' from adc_init.o(SECTION_IMP_CODE).
    Adding TT veneer (10 bytes, Long) for call to '__aeabi_dmul' from adc_init.o(SECTION_IMP_CODE).
    Adding TT veneer (10 bytes, Long) for call to '__aeabi_d2uiz' from adc_init.o(SECTION_IMP_CODE).
    Adding TT veneer (10 bytes, Long) for call to 'CMP_INIT' from adc_init.o(SECTION_IMP_CODE).
    Adding TT veneer (10 bytes, Long) for call to 'DAC_INIT' from adc_init.o(SECTION_IMP_CODE).
    Adding TT veneer (10 bytes, Long) for call to 'HRPWM_OFF' from user_imp_interrupts.o(SECTION_IMP_CODE).
    Adding TT veneer (10 bytes, Long) for call to 'Comm_Flt0Callback' from user_imp_interrupts.o(SECTION_IMP_CODE).
    Adding TT veneer (10 bytes, Long) for call to 'Comm_Flt3Callback' from user_imp_interrupts.o(SECTION_IMP_CODE).
    Adding TT veneer (10 bytes, Long) for call to 'Comm_Flt4Callback' from user_imp_interrupts.o(SECTION_IMP_CODE).
    Adding TT veneer (10 bytes, Long) for call to 'Comm_Flt6Callback' from user_imp_interrupts.o(SECTION_IMP_CODE).
    Adding TT veneer (10 bytes, Long) for call to 'ADC_INIT' from bcb.o(SECTION_IMP_CODE).
    Adding TT veneer (10 bytes, Long) for call to 'LL_GPIO_WritePin' from bcb.o(SECTION_IMP_CODE).
    Adding TT veneer (10 bytes, Long) for call to 'HRPWM_ON' from bcb.o(SECTION_IMP_CODE).

17 Veneer(s) (total 170 bytes) added to the image.

==============================================================================

Image Symbol Table

    Local Symbols

    Symbol Name                              Value     Ov Type        Size  Object(Section)

    ../clib/../cmprslib/zerorunl.c           0x00000000   Number         0  __dczerorl.o ABSOLUTE
    ../clib/microlib/init/entry.s            0x00000000   Number         0  entry.o ABSOLUTE
    ../clib/microlib/init/entry.s            0x00000000   Number         0  entry4.o ABSOLUTE
    ../clib/microlib/init/entry.s            0x00000000   Number         0  entry5.o ABSOLUTE
    ../clib/microlib/init/entry.s            0x00000000   Number         0  entry7a.o ABSOLUTE
    ../clib/microlib/init/entry.s            0x00000000   Number         0  entry7b.o ABSOLUTE
    ../clib/microlib/init/entry.s            0x00000000   Number         0  entry8a.o ABSOLUTE
    ../clib/microlib/init/entry.s            0x00000000   Number         0  entry8b.o ABSOLUTE
    ../clib/microlib/init/entry.s            0x00000000   Number         0  entry9a.o ABSOLUTE
    ../clib/microlib/init/entry.s            0x00000000   Number         0  entry9b.o ABSOLUTE
    ../clib/microlib/init/entry.s            0x00000000   Number         0  entry10a.o ABSOLUTE
    ../clib/microlib/init/entry.s            0x00000000   Number         0  entry10b.o ABSOLUTE
    ../clib/microlib/init/entry.s            0x00000000   Number         0  entry11a.o ABSOLUTE
    ../clib/microlib/init/entry.s            0x00000000   Number         0  entry11b.o ABSOLUTE
    ../clib/microlib/longlong.c              0x00000000   Number         0  llshl.o ABSOLUTE
    ../clib/microlib/longlong.c              0x00000000   Number         0  llushr.o ABSOLUTE
    ../clib/microlib/longlong.c              0x00000000   Number         0  llsshr.o ABSOLUTE
    ../clib/microlib/string/memcpy.c         0x00000000   Number         0  memcpya.o ABSOLUTE
    ../clib/microlib/string/memcpy.c         0x00000000   Number         0  memcpyb.o ABSOLUTE
    ../clib/microlib/string/memset.c         0x00000000   Number         0  memseta.o ABSOLUTE
    ../clib/microlib/string/strcmp.c         0x00000000   Number         0  strcmp.o ABSOLUTE
    ../clib/microlib/string/strlen.c         0x00000000   Number         0  strlen.o ABSOLUTE
    ../clib/microlib/string/strncmp.c        0x00000000   Number         0  strncmp.o ABSOLUTE
    ../clib/microlib/stubs.s                 0x00000000   Number         0  iusefp.o ABSOLUTE
    ../fplib/microlib/d2f.c                  0x00000000   Number         0  d2f.o ABSOLUTE
    ../fplib/microlib/fpadd.c                0x00000000   Number         0  dadd.o ABSOLUTE
    ../fplib/microlib/fpdiv.c                0x00000000   Number         0  ddiv.o ABSOLUTE
    ../fplib/microlib/fpepilogue.c           0x00000000   Number         0  fepilogue.o ABSOLUTE
    ../fplib/microlib/fpepilogue.c           0x00000000   Number         0  depilogue.o ABSOLUTE
    ../fplib/microlib/fpfix.c                0x00000000   Number         0  dfixi.o ABSOLUTE
    ../fplib/microlib/fpfix.c                0x00000000   Number         0  dfixui.o ABSOLUTE
    ../fplib/microlib/fpflt.c                0x00000000   Number         0  dflti.o ABSOLUTE
    ../fplib/microlib/fpflt.c                0x00000000   Number         0  dfltui.o ABSOLUTE
    ../fplib/microlib/fpmul.c                0x00000000   Number         0  dmul.o ABSOLUTE
    BCB.c                                    0x00000000   Number         0  bcb.o ABSOLUTE
    BCB_pid.c                                0x00000000   Number         0  bcb_pid.o ABSOLUTE
    EFlash_ChangeBank.c                      0x00000000   Number         0  eflash_changebank.o ABSOLUTE
    FixData.c                                0x00000000   Number         0  fixdata.o ABSOLUTE
    OTF_Download.c                           0x00000000   Number         0  otf_download.o ABSOLUTE
    OTF_Uart.c                               0x00000000   Number         0  otf_uart.o ABSOLUTE
    OTF_eflash.c                             0x00000000   Number         0  otf_eflash.o ABSOLUTE
    Ymodem.c                                 0x00000000   Number         0  ymodem.o ABSOLUTE
    adc_init.c                               0x00000000   Number         0  adc_init.o ABSOLUTE
    bank_function.c                          0x00000000   Number         0  bank_function.o ABSOLUTE
    cmp_dac.c                                0x00000000   Number         0  cmp_dac.o ABSOLUTE
    crc.c                                    0x00000000   Number         0  crc.o ABSOLUTE
    dc.s                                     0x00000000   Number         0  dc.o ABSOLUTE
    delay_tmr.c                              0x00000000   Number         0  delay_tmr.o ABSOLUTE
    handlers.s                               0x00000000   Number         0  handlers.o ABSOLUTE
    imp_baseinit.c                           0x00000000   Number         0  imp_baseinit.o ABSOLUTE
    init.s                                   0x00000000   Number         0  init.o ABSOLUTE
    main.c                                   0x00000000   Number         0  main.o ABSOLUTE
    startup_tae32g58xx.c                     0x00000000   Number         0  startup_tae32g58xx.o ABSOLUTE
    system_tae32g58xx.c                      0x00000000   Number         0  system_tae32g58xx.o ABSOLUTE
    tae32g58xx_it.c                          0x00000000   Number         0  tae32g58xx_it.o ABSOLUTE
    tae32g58xx_ll.c                          0x00000000   Number         0  tae32g58xx_ll.o ABSOLUTE
    tae32g58xx_ll_adc.c                      0x00000000   Number         0  tae32g58xx_ll_adc.o ABSOLUTE
    tae32g58xx_ll_cmp.c                      0x00000000   Number         0  tae32g58xx_ll_cmp.o ABSOLUTE
    tae32g58xx_ll_cordic.c                   0x00000000   Number         0  tae32g58xx_ll_cordic.o ABSOLUTE
    tae32g58xx_ll_cortex.c                   0x00000000   Number         0  tae32g58xx_ll_cortex.o ABSOLUTE
    tae32g58xx_ll_dac.c                      0x00000000   Number         0  tae32g58xx_ll_dac.o ABSOLUTE
    tae32g58xx_ll_dma.c                      0x00000000   Number         0  tae32g58xx_ll_dma.o ABSOLUTE
    tae32g58xx_ll_eflash.c                   0x00000000   Number         0  tae32g58xx_ll_eflash.o ABSOLUTE
    tae32g58xx_ll_gpio.c                     0x00000000   Number         0  tae32g58xx_ll_gpio.o ABSOLUTE
    tae32g58xx_ll_hrpwm.c                    0x00000000   Number         0  tae32g58xx_ll_hrpwm.o ABSOLUTE
    tae32g58xx_ll_msp.c                      0x00000000   Number         0  tae32g58xx_ll_msp.o ABSOLUTE
    tae32g58xx_ll_rcu.c                      0x00000000   Number         0  tae32g58xx_ll_rcu.o ABSOLUTE
    tae32g58xx_ll_sysctrl.c                  0x00000000   Number         0  tae32g58xx_ll_sysctrl.o ABSOLUTE
    tae32g58xx_ll_tmr.c                      0x00000000   Number         0  tae32g58xx_ll_tmr.o ABSOLUTE
    tae32g58xx_ll_uart.c                     0x00000000   Number         0  tae32g58xx_ll_uart.o ABSOLUTE
    upgrade_BCB.c                            0x00000000   Number         0  upgrade_bcb.o ABSOLUTE
    upgrade_adc.c                            0x00000000   Number         0  upgrade_adc.o ABSOLUTE
    upgrade_tmr.c                            0x00000000   Number         0  upgrade_tmr.o ABSOLUTE
    user_debug.c                             0x00000000   Number         0  user_debug.o ABSOLUTE
    user_gpio.c                              0x00000000   Number         0  user_gpio.o ABSOLUTE
    user_hrpwm.c                             0x00000000   Number         0  user_hrpwm.o ABSOLUTE
    user_imp_interrupts.c                    0x00000000   Number         0  user_imp_interrupts.o ABSOLUTE
    user_tmr.c                               0x00000000   Number         0  user_tmr.o ABSOLUTE
    user_upgrade_interrupts.c                0x00000000   Number         0  user_upgrade_interrupts.o ABSOLUTE
    user_vofa.c                              0x00000000   Number         0  user_vofa.o ABSOLUTE
    variable_define.c                        0x00000000   Number         0  variable_define.o ABSOLUTE
    __tagsym$$used.0                         0x08000000   Number         0  startup_tae32g58xx.o(RESET)
    .ARM.Collect$$$$00000000                 0x08000008   Section        0  entry.o(.ARM.Collect$$$$00000000)
    .ARM.Collect$$$$00000003                 0x08000008   Section        4  entry4.o(.ARM.Collect$$$$00000003)
    .ARM.Collect$$$$00000004                 0x0800000c   Section        4  entry5.o(.ARM.Collect$$$$00000004)
    .ARM.Collect$$$$00000008                 0x08000010   Section        0  entry7b.o(.ARM.Collect$$$$00000008)
    .ARM.Collect$$$$0000000A                 0x08000010   Section        0  entry8b.o(.ARM.Collect$$$$0000000A)
    .ARM.Collect$$$$0000000B                 0x08000010   Section        8  entry9a.o(.ARM.Collect$$$$0000000B)
    __lit__00000000                          0x08000018   Data           4  entry4.o(.ARM.Collect$$$$00002714)
    .ARM.Collect$$$$0000000D                 0x08000018   Section        0  entry10a.o(.ARM.Collect$$$$0000000D)
    .ARM.Collect$$$$0000000F                 0x08000018   Section        0  entry11a.o(.ARM.Collect$$$$0000000F)
    .ARM.Collect$$$$00002714                 0x08000018   Section        4  entry4.o(.ARM.Collect$$$$00002714)
    .text                                    0x0800001c   Section        0  memcpya.o(.text)
    .text                                    0x08000040   Section        0  memseta.o(.text)
    .text                                    0x08000064   Section        0  strlen.o(.text)
    .text                                    0x08000072   Section        0  strcmp.o(.text)
    .text                                    0x0800008e   Section        0  strncmp.o(.text)
    .text                                    0x080000ac   Section        0  dadd.o(.text)
    .text                                    0x080001fa   Section        0  dmul.o(.text)
    .text                                    0x080002de   Section        0  ddiv.o(.text)
    .text                                    0x080003bc   Section        0  dflti.o(.text)
    .text                                    0x080003de   Section        0  dfltui.o(.text)
    .text                                    0x080003f8   Section        0  dfixi.o(.text)
    .text                                    0x08000436   Section        0  dfixui.o(.text)
    .text                                    0x08000468   Section        0  d2f.o(.text)
    .text                                    0x080004a0   Section        0  llshl.o(.text)
    .text                                    0x080004be   Section        0  llushr.o(.text)
    .text                                    0x080004de   Section        0  llsshr.o(.text)
    .text                                    0x08000502   Section        0  iusefp.o(.text)
    .text                                    0x08000502   Section        0  fepilogue.o(.text)
    .text                                    0x08000570   Section        0  depilogue.o(.text)
    .text                                    0x0800062c   Section       36  init.o(.text)
    .text                                    0x08000650   Section        0  __dczerorl.o(.text)
    [Anonymous Symbol]                       0x0800068c   Section        0  adc_init.o(.text.ADC_INIT)
    [Anonymous Symbol]                       0x0800083c   Section        0  main.o(.text.BaseInit)
    [Anonymous Symbol]                       0x080008f8   Section        0  tae32g58xx_it.o(.text.BusFault_Handler)
    [Anonymous Symbol]                       0x080008fc   Section        0  cmp_dac.o(.text.CMP_INIT)
    [Anonymous Symbol]                       0x08000a20   Section        0  user_vofa.o(.text.COMMUNICATE_DECODE)
    [Anonymous Symbol]                       0x08000c60   Section        0  user_hrpwm.o(.text.Comm_Flt0Callback)
    [Anonymous Symbol]                       0x08000cb0   Section        0  user_hrpwm.o(.text.Comm_Flt3Callback)
    [Anonymous Symbol]                       0x08000ce8   Section        0  user_hrpwm.o(.text.Comm_Flt4Callback)
    [Anonymous Symbol]                       0x08000d20   Section        0  user_hrpwm.o(.text.Comm_Flt6Callback)
    [Anonymous Symbol]                       0x08000d58   Section        0  cmp_dac.o(.text.DAC_INIT)
    [Anonymous Symbol]                       0x08000e74   Section        0  tae32g58xx_it.o(.text.DebugMon_Handler)
    [Anonymous Symbol]                       0x08000e78   Section        0  startup_tae32g58xx.o(.text.Default_Handler)
    [Anonymous Symbol]                       0x08000e7c   Section        0  tae32g58xx_ll_eflash.o(.text.EFLASH_EraseComm)
    [Anonymous Symbol]                       0x08000f2c   Section        0  otf_eflash.o(.text.EFlash_EraseBank)
    [Anonymous Symbol]                       0x08000f38   Section        0  otf_eflash.o(.text.EFlash_EraseSensor)
    [Anonymous Symbol]                       0x08000f5c   Section        0  otf_eflash.o(.text.EFlash_Init)
    [Anonymous Symbol]                       0x08000f70   Section        0  otf_eflash.o(.text.EFlash_WritePack)
    [Anonymous Symbol]                       0x08000f84   Section        0  user_gpio.o(.text.GPIO_INIT)
    [Anonymous Symbol]                       0x08001078   Section        0  user_hrpwm.o(.text.HRPWM_COUNT_NUM_INIT)
    [Anonymous Symbol]                       0x08001088   Section        0  user_hrpwm.o(.text.HRPWM_INIT)
    [Anonymous Symbol]                       0x08001288   Section        0  user_hrpwm.o(.text.HRPWM_OFF)
    [Anonymous Symbol]                       0x08001298   Section        0  user_hrpwm.o(.text.HRPWM_ON)
    [Anonymous Symbol]                       0x080012b8   Section        0  tae32g58xx_it.o(.text.HardFault_Handler)
    [Anonymous Symbol]                       0x080012bc   Section        0  tae32g58xx_ll_adc.o(.text.LL_ADC_Cal_Cfg)
    [Anonymous Symbol]                       0x080013bc   Section        0  tae32g58xx_ll_adc.o(.text.LL_ADC_DMA_Cfg)
    [Anonymous Symbol]                       0x08001500   Section        0  tae32g58xx_ll_adc.o(.text.LL_ADC_Init)
    [Anonymous Symbol]                       0x08001678   Section        0  tae32g58xx_ll_msp.o(.text.LL_ADC_MspInit)
    [Anonymous Symbol]                       0x08001704   Section        0  tae32g58xx_ll_adc.o(.text.LL_ADC_REG_ChCfg)
    [Anonymous Symbol]                       0x08001828   Section        0  tae32g58xx_ll_adc.o(.text.LL_ADC_REG_ComCfg)
    [Anonymous Symbol]                       0x080018d0   Section        0  tae32g58xx_ll_cmp.o(.text.LL_CMP_Init)
    [Anonymous Symbol]                       0x08001a28   Section        0  tae32g58xx_ll_msp.o(.text.LL_CMP_MspInit)
    [Anonymous Symbol]                       0x08001b94   Section        0  tae32g58xx_ll_cmp.o(.text.LL_CMP_Start)
    [Anonymous Symbol]                       0x08001bb4   Section        0  tae32g58xx_ll_dac.o(.text.LL_DAC_Init)
    [Anonymous Symbol]                       0x08001c8c   Section        0  tae32g58xx_ll_msp.o(.text.LL_DAC_MspInit)
    [Anonymous Symbol]                       0x08001cec   Section        0  tae32g58xx_ll_dac.o(.text.LL_DAC_Start)
    [Anonymous Symbol]                       0x08001d0c   Section        0  tae32g58xx_ll_dac.o(.text.LL_DAC_ValueSet)
    [Anonymous Symbol]                       0x08001d28   Section        0  tae32g58xx_ll.o(.text.LL_Delay)
    [Anonymous Symbol]                       0x08001d50   Section        0  tae32g58xx_ll_eflash.o(.text.LL_EFLASH_EraseBank1)
    [Anonymous Symbol]                       0x08001dac   Section        0  tae32g58xx_ll_eflash.o(.text.LL_EFLASH_EraseMultiSector)
    [Anonymous Symbol]                       0x08001f10   Section        0  tae32g58xx_ll_eflash.o(.text.LL_EFLASH_Program)
    [Anonymous Symbol]                       0x08002074   Section        0  tae32g58xx_ll_eflash.o(.text.LL_EFLASH_WaitForBusyState)
    [Anonymous Symbol]                       0x080021cc   Section        0  tae32g58xx_ll_gpio.o(.text.LL_GPIO_DeInit)
    [Anonymous Symbol]                       0x08002380   Section        0  tae32g58xx_ll_gpio.o(.text.LL_GPIO_Init)
    [Anonymous Symbol]                       0x08002530   Section        0  tae32g58xx_ll_gpio.o(.text.LL_GPIO_ReadPin)
    [Anonymous Symbol]                       0x08002560   Section        0  tae32g58xx_ll_gpio.o(.text.LL_GPIO_WritePin)
    [Anonymous Symbol]                       0x08002590   Section        0  tae32g58xx_ll.o(.text.LL_GetTick)
    [Anonymous Symbol]                       0x0800259c   Section        0  tae32g58xx_ll_hrpwm.o(.text.LL_HRPWM_Comm_ADCTrigCfg)
    [Anonymous Symbol]                       0x080027c8   Section        0  tae32g58xx_ll_hrpwm.o(.text.LL_HRPWM_Comm_DLL_Start)
    [Anonymous Symbol]                       0x080027f4   Section        0  tae32g58xx_ll_hrpwm.o(.text.LL_HRPWM_Comm_FltCfg)
    [Anonymous Symbol]                       0x08002978   Section        0  tae32g58xx_ll_hrpwm.o(.text.LL_HRPWM_Init)
    [Anonymous Symbol]                       0x08002994   Section        0  tae32g58xx_ll_msp.o(.text.LL_HRPWM_MspInit)
    [Anonymous Symbol]                       0x080029e4   Section        0  tae32g58xx_ll_hrpwm.o(.text.LL_HRPWM_RegUpd_Frc)
    [Anonymous Symbol]                       0x08002a6c   Section        0  tae32g58xx_ll_hrpwm.o(.text.LL_HRPWM_Slv_OutputCfg)
    [Anonymous Symbol]                       0x08002c54   Section        0  tae32g58xx_ll_hrpwm.o(.text.LL_HRPWM_Slv_Output_Start)
    [Anonymous Symbol]                       0x08002c98   Section        0  tae32g58xx_ll_hrpwm.o(.text.LL_HRPWM_TmrBaseCfg)
    [Anonymous Symbol]                       0x08002f14   Section        0  tae32g58xx_ll_hrpwm.o(.text.LL_HRPWM_TmrCmpCfg)
    [Anonymous Symbol]                       0x080030b0   Section        0  tae32g58xx_ll.o(.text.LL_IncTick)
    [Anonymous Symbol]                       0x080030cc   Section        0  tae32g58xx_ll.o(.text.LL_Init)
    [Anonymous Symbol]                       0x080030fc   Section        0  tae32g58xx_ll.o(.text.LL_InitTick)
    [Anonymous Symbol]                       0x08003144   Section        0  tae32g58xx_ll_msp.o(.text.LL_MspInit)
    [Anonymous Symbol]                       0x08003190   Section        0  tae32g58xx_ll_cortex.o(.text.LL_NVIC_DisableIRQ)
    [Anonymous Symbol]                       0x080031c0   Section        0  tae32g58xx_ll_cortex.o(.text.LL_NVIC_EnableIRQ)
    [Anonymous Symbol]                       0x080031e8   Section        0  tae32g58xx_ll_cortex.o(.text.LL_NVIC_SetPriority)
    [Anonymous Symbol]                       0x0800324c   Section        0  tae32g58xx_ll_cortex.o(.text.LL_NVIC_SetPriorityGrouping)
    [Anonymous Symbol]                       0x08003274   Section        0  tae32g58xx_ll_rcu.o(.text.LL_RCU_ADC0_ClkEnRstRelease)
    [Anonymous Symbol]                       0x080032a4   Section        0  tae32g58xx_ll_rcu.o(.text.LL_RCU_ADC1_ClkEnRstRelease)
    [Anonymous Symbol]                       0x080032d4   Section        0  tae32g58xx_ll_rcu.o(.text.LL_RCU_ADC_ClkCfg)
    [Anonymous Symbol]                       0x0800331c   Section        0  tae32g58xx_ll_rcu.o(.text.LL_RCU_APB0ClkGet)
    [Anonymous Symbol]                       0x0800333c   Section        0  tae32g58xx_ll_rcu.o(.text.LL_RCU_APB1ClkGet)
    [Anonymous Symbol]                       0x0800335c   Section        0  tae32g58xx_ll_rcu.o(.text.LL_RCU_CMP_ClkEnRstRelease)
    [Anonymous Symbol]                       0x08003384   Section        0  tae32g58xx_ll_rcu.o(.text.LL_RCU_DAC_ClkEnRstRelease)
    [Anonymous Symbol]                       0x080033ac   Section        0  tae32g58xx_ll_rcu.o(.text.LL_RCU_DMA_ClkEnRstRelease)
    [Anonymous Symbol]                       0x080033d4   Section        0  tae32g58xx_ll_rcu.o(.text.LL_RCU_EFLASH_ClkEnRstRelease)
    [Anonymous Symbol]                       0x080033fc   Section        0  tae32g58xx_ll_rcu.o(.text.LL_RCU_GPIOA_ClkEnRstRelease)
    [Anonymous Symbol]                       0x08003424   Section        0  tae32g58xx_ll_rcu.o(.text.LL_RCU_GPIOB_ClkEnRstRelease)
    [Anonymous Symbol]                       0x0800344c   Section        0  tae32g58xx_ll_rcu.o(.text.LL_RCU_GPIOC_ClkEnRstRelease)
    [Anonymous Symbol]                       0x08003474   Section        0  tae32g58xx_ll_rcu.o(.text.LL_RCU_GPIOD_ClkEnRstRelease)
    [Anonymous Symbol]                       0x0800349c   Section        0  tae32g58xx_ll_rcu.o(.text.LL_RCU_GPIOE_ClkEnRstRelease)
    [Anonymous Symbol]                       0x080034c4   Section        0  tae32g58xx_ll_rcu.o(.text.LL_RCU_GPIOF_ClkEnRstRelease)
    [Anonymous Symbol]                       0x080034ec   Section        0  tae32g58xx_ll_rcu.o(.text.LL_RCU_HRPWM0_ClkEnRstRelease)
    [Anonymous Symbol]                       0x0800351c   Section        0  tae32g58xx_ll_rcu.o(.text.LL_RCU_HRPWM2_ClkEnRstRelease)
    [Anonymous Symbol]                       0x0800354c   Section        0  tae32g58xx_ll_rcu.o(.text.LL_RCU_HRPWM3_ClkEnRstRelease)
    [Anonymous Symbol]                       0x0800357c   Section        0  tae32g58xx_ll_rcu.o(.text.LL_RCU_HRPWM_ClkCfg)
    [Anonymous Symbol]                       0x080035b4   Section        0  tae32g58xx_ll_rcu.o(.text.LL_RCU_HRPWM_ClkEnRstRelease)
    LL_RCU_PLL0Cali                          0x08003655   Thumb Code  1000  tae32g58xx_ll_rcu.o(.text.LL_RCU_PLL0Cali)
    [Anonymous Symbol]                       0x08003654   Section        0  tae32g58xx_ll_rcu.o(.text.LL_RCU_PLL0Cali)
    [Anonymous Symbol]                       0x08003a40   Section        0  tae32g58xx_ll_rcu.o(.text.LL_RCU_Pll0Cfg)
    [Anonymous Symbol]                       0x08003e80   Section        0  tae32g58xx_ll_rcu.o(.text.LL_RCU_SysclkGet)
    [Anonymous Symbol]                       0x08003e8c   Section        0  tae32g58xx_ll_rcu.o(.text.LL_RCU_SysclkInit)
    [Anonymous Symbol]                       0x0800406c   Section        0  tae32g58xx_ll_rcu.o(.text.LL_RCU_TMR0_ClkEnRstRelease)
    [Anonymous Symbol]                       0x08004094   Section        0  tae32g58xx_ll_rcu.o(.text.LL_RCU_TMR10_ClkEnRstRelease)
    [Anonymous Symbol]                       0x080040bc   Section        0  tae32g58xx_ll_rcu.o(.text.LL_RCU_TMR1_ClkEnRstRelease)
    [Anonymous Symbol]                       0x080040e4   Section        0  tae32g58xx_ll_rcu.o(.text.LL_RCU_TMR2_ClkEnRstRelease)
    [Anonymous Symbol]                       0x0800410c   Section        0  tae32g58xx_ll_rcu.o(.text.LL_RCU_TMR3_ClkEnRstRelease)
    [Anonymous Symbol]                       0x08004134   Section        0  tae32g58xx_ll_rcu.o(.text.LL_RCU_TMR4_ClkEnRstRelease)
    [Anonymous Symbol]                       0x0800415c   Section        0  tae32g58xx_ll_rcu.o(.text.LL_RCU_TMR7_ClkEnRstRelease)
    [Anonymous Symbol]                       0x08004184   Section        0  tae32g58xx_ll_rcu.o(.text.LL_RCU_TMR8_ClkEnRstRelease)
    [Anonymous Symbol]                       0x080041ac   Section        0  tae32g58xx_ll_rcu.o(.text.LL_RCU_TMR9_ClkEnRstRelease)
    [Anonymous Symbol]                       0x080041d4   Section        0  tae32g58xx_ll_rcu.o(.text.LL_RCU_UART0_ClkDisRstAssert)
    [Anonymous Symbol]                       0x080041fc   Section        0  tae32g58xx_ll_rcu.o(.text.LL_RCU_UART0_ClkEnRstRelease)
    [Anonymous Symbol]                       0x08004224   Section        0  tae32g58xx_ll_rcu.o(.text.LL_RCU_UART1_ClkDisRstAssert)
    [Anonymous Symbol]                       0x0800424c   Section        0  tae32g58xx_ll_rcu.o(.text.LL_RCU_UART1_ClkEnRstRelease)
    [Anonymous Symbol]                       0x08004274   Section        0  tae32g58xx_ll_rcu.o(.text.LL_RCU_UART2_ClkDisRstAssert)
    [Anonymous Symbol]                       0x0800429c   Section        0  tae32g58xx_ll_rcu.o(.text.LL_RCU_UART2_ClkEnRstRelease)
    [Anonymous Symbol]                       0x080042c4   Section        0  tae32g58xx_ll_rcu.o(.text.LL_RCU_UART3_ClkDisRstAssert)
    [Anonymous Symbol]                       0x080042ec   Section        0  tae32g58xx_ll_rcu.o(.text.LL_RCU_UART3_ClkEnRstRelease)
    [Anonymous Symbol]                       0x08004314   Section        0  tae32g58xx_ll_rcu.o(.text.LL_RCU_UART4_ClkDisRstAssert)
    [Anonymous Symbol]                       0x0800433c   Section        0  tae32g58xx_ll_rcu.o(.text.LL_RCU_UART4_ClkEnRstRelease)
    [Anonymous Symbol]                       0x08004364   Section        0  tae32g58xx_ll_cortex.o(.text.LL_SYSTICK_Callback)
    [Anonymous Symbol]                       0x08004368   Section        0  tae32g58xx_ll_cortex.o(.text.LL_SYSTICK_Config)
    [Anonymous Symbol]                       0x08004394   Section        0  tae32g58xx_ll_cortex.o(.text.LL_SYSTICK_IRQHandler)
    [Anonymous Symbol]                       0x08004398   Section        0  tae32g58xx_ll_msp.o(.text.LL_TMR_MspInit)
    [Anonymous Symbol]                       0x080044e0   Section        0  tae32g58xx_ll_uart.o(.text.LL_UART_DeInit)
    [Anonymous Symbol]                       0x0800457c   Section        0  tae32g58xx_ll_uart.o(.text.LL_UART_Init)
    [Anonymous Symbol]                       0x0800481c   Section        0  tae32g58xx_ll_msp.o(.text.LL_UART_MspDeInit)
    [Anonymous Symbol]                       0x080048f8   Section        0  tae32g58xx_ll_msp.o(.text.LL_UART_MspInit)
    [Anonymous Symbol]                       0x08004a14   Section        0  tae32g58xx_ll_uart.o(.text.LL_UART_Transmit_CPU)
    [Anonymous Symbol]                       0x08004ca0   Section        0  tae32g58xx_it.o(.text.MemManage_Handler)
    [Anonymous Symbol]                       0x08004ca4   Section        0  tae32g58xx_it.o(.text.NMI_Handler)
    [Anonymous Symbol]                       0x08004ca8   Section        0  otf_download.o(.text.OTF_ChangeBank_Func)
    [Anonymous Symbol]                       0x08004cc8   Section        0  otf_download.o(.text.OTF_FwExcute)
    [Anonymous Symbol]                       0x08004cec   Section        0  otf_download.o(.text.OTF_FwUpdata_Func)
    [Anonymous Symbol]                       0x08004e04   Section        0  otf_uart.o(.text.OTF_GetKey)
    [Anonymous Symbol]                       0x08004e30   Section        0  otf_uart.o(.text.OTF_RecvPacket)
    [Anonymous Symbol]                       0x08004e78   Section        0  otf_download.o(.text.OTF_RecviceFirmware)
    [Anonymous Symbol]                       0x08005170   Section        0  otf_download.o(.text.OTF_SerialDecode)
    [Anonymous Symbol]                       0x08005254   Section        0  otf_uart.o(.text.OTF_SerialSendByte)
    [Anonymous Symbol]                       0x08005278   Section        0  otf_uart.o(.text.OTF_SerialSendStr)
    [Anonymous Symbol]                       0x08005298   Section        0  otf_download.o(.text.OTF_Show)
    [Anonymous Symbol]                       0x080052c0   Section        0  otf_uart.o(.text.OTF_Uart_DeInit)
    [Anonymous Symbol]                       0x080052cc   Section        0  otf_uart.o(.text.OTF_Uart_Init)
    [Anonymous Symbol]                       0x08005320   Section        0  otf_download.o(.text.OTF_UseVOFA)
    [Anonymous Symbol]                       0x0800534c   Section        0  otf_uart.o(.text.OTF_WaitDownload)
    [Anonymous Symbol]                       0x080053ac   Section        0  tae32g58xx_it.o(.text.PendSV_Handler)
    [Anonymous Symbol]                       0x080053b0   Section        0  startup_tae32g58xx.o(.text.Reset_Handler)
    [Anonymous Symbol]                       0x080053b8   Section        0  tae32g58xx_it.o(.text.SVC_Handler)
    [Anonymous Symbol]                       0x080053bc   Section        0  tae32g58xx_it.o(.text.SysTick_Handler)
    [Anonymous Symbol]                       0x080053cc   Section        0  system_tae32g58xx.o(.text.SystemCoreClockUpdate)
    [Anonymous Symbol]                       0x080053dc   Section        0  system_tae32g58xx.o(.text.SystemInit)
    [Anonymous Symbol]                       0x08005418   Section        0  tae32g58xx_it.o(.text.UsageFault_Handler)
    [Anonymous Symbol]                       0x0800541c   Section        0  user_vofa.o(.text.User_VOFA_Init)
    [Anonymous Symbol]                       0x080054e0   Section        0  ymodem.o(.text.Ymodem_FirstPacket)
    [Anonymous Symbol]                       0x0800557c   Section        0  ymodem.o(.text.Ymodem_Talk)
    [Anonymous Symbol]                       0x080056dc   Section        0  crc.o(.text.crc_cal_by_byte)
    [Anonymous Symbol]                       0x0800579c   Section        0  user_tmr.o(.text.timer_init)
    [Anonymous Symbol]                       0x080057bc   Section        0  variable_define.o(.text.variable_init)
    i.__scatterload_copy                     0x080058ce   Section       14  handlers.o(i.__scatterload_copy)
    i.__scatterload_null                     0x080058dc   Section        2  handlers.o(i.__scatterload_null)
    i.__scatterload_zeroinit                 0x080058de   Section       14  handlers.o(i.__scatterload_zeroinit)
    adc_ll_cfg_def                           0x080058ec   Data           2  tae32g58xx_ll_adc.o(.rodata.adc_ll_cfg_def)
    [Anonymous Symbol]                       0x080058ec   Section        0  tae32g58xx_ll_adc.o(.rodata.adc_ll_cfg_def)
    rcu_pll_cfg                              0x08005af0   Data         672  tae32g58xx_ll_rcu.o(.rodata.rcu_pll_cfg)
    [Anonymous Symbol]                       0x08005af0   Section        0  tae32g58xx_ll_rcu.o(.rodata.rcu_pll_cfg)
    .L.str.9                                 0x08005d90   Data           5  otf_download.o(.rodata.str1.1)
    [Anonymous Symbol]                       0x08005d90   Section        0  otf_download.o(.rodata.str1.1)
    .L.str.18                                0x08005d95   Data          66  otf_download.o(.rodata.str1.1)
    .L.str.21                                0x08005dd7   Data          25  otf_download.o(.rodata.str1.1)
    .L.str.2                                 0x08005df0   Data          67  otf_download.o(.rodata.str1.1)
    .L.str                                   0x08005e33   Data          67  otf_download.o(.rodata.str1.1)
    .L.str.8                                 0x08005e76   Data          67  otf_download.o(.rodata.str1.1)
    .L.str.10                                0x08005eb9   Data          17  otf_download.o(.rodata.str1.1)
    .L.str.7                                 0x08005eca   Data          67  otf_download.o(.rodata.str1.1)
    .L.str.5                                 0x08005f0d   Data          67  otf_download.o(.rodata.str1.1)
    .L.str.4                                 0x08005f50   Data          67  otf_download.o(.rodata.str1.1)
    .L.str.6                                 0x08005f93   Data          67  otf_download.o(.rodata.str1.1)
    .L.str.1                                 0x08005fd6   Data          67  otf_download.o(.rodata.str1.1)
    .L.str.3                                 0x08006019   Data          67  otf_download.o(.rodata.str1.1)
    uart_ll_cfg_def                          0x0800605c   Data          10  tae32g58xx_ll_uart.o(.rodata.uart_ll_cfg_def)
    [Anonymous Symbol]                       0x0800605c   Section        0  tae32g58xx_ll_uart.o(.rodata.uart_ll_cfg_def)
    __tagsym$$used.0                         0x0801e000   Number         0  main.o(SECTION_FIX_CODE)
    [Anonymous Symbol]                       0x0801e000   Section        0  main.o(SECTION_FIX_CODE)
    __tagsym$$used.0                         0x0801e184   Number         0  bank_function.o(SECTION_FIX_CODE)
    [Anonymous Symbol]                       0x0801e184   Section        0  bank_function.o(SECTION_FIX_CODE)
    __tagsym$$used.1                         0x0801e248   Number         0  bank_function.o(SECTION_FIX_CODE)
    [Anonymous Symbol]                       0x0801e248   Section        0  bank_function.o(SECTION_FIX_CODE)
    __tagsym$$used.2                         0x0801e30c   Number         0  bank_function.o(SECTION_FIX_CODE)
    [Anonymous Symbol]                       0x0801e30c   Section        0  bank_function.o(SECTION_FIX_CODE)
    __tagsym$$used.3                         0x0801e310   Number         0  bank_function.o(SECTION_FIX_CODE)
    [Anonymous Symbol]                       0x0801e310   Section        0  bank_function.o(SECTION_FIX_CODE)
    __tagsym$$used.4                         0x0801e33c   Number         0  bank_function.o(SECTION_FIX_CODE)
    [Anonymous Symbol]                       0x0801e33c   Section        0  bank_function.o(SECTION_FIX_CODE)
    __tagsym$$used.5                         0x0801e374   Number         0  bank_function.o(SECTION_FIX_CODE)
    [Anonymous Symbol]                       0x0801e374   Section        0  bank_function.o(SECTION_FIX_CODE)
    __tagsym$$used.0                         0x0801e580   Number         0  eflash_changebank.o(SECTION_FIX_CODE)
    [Anonymous Symbol]                       0x0801e580   Section        0  eflash_changebank.o(SECTION_FIX_CODE)
    __tagsym$$used.1                         0x0801e5c4   Number         0  eflash_changebank.o(SECTION_FIX_CODE)
    [Anonymous Symbol]                       0x0801e5c4   Section        0  eflash_changebank.o(SECTION_FIX_CODE)
    __tagsym$$used.0                         0x0801f000   Number         0  fixdata.o(SECTION_FIX_DATA)
    uart_hdl_global                          0x20002070   Data         260  tae32g58xx_ll_uart.o(.ARM.__at_0x20002070)
    [Anonymous Symbol]                       0x20002070   Section        0  tae32g58xx_ll_uart.o(.ARM.__at_0x20002070)
    [Anonymous Symbol]                       0x20006238   Section        0  imp_baseinit.o(.text.IMP_CodeBaseInit)
    __tagsym$$used.0                         0x20006274   Number         0  adc_init.o(SECTION_IMP_CODE)
    [Anonymous Symbol]                       0x20006274   Section        0  adc_init.o(SECTION_IMP_CODE)
    __tagsym$$used.1                         0x20006380   Number         0  adc_init.o(SECTION_IMP_CODE)
    [Anonymous Symbol]                       0x20006380   Section        0  adc_init.o(SECTION_IMP_CODE)
    __tagsym$$used.2                         0x200063dc   Number         0  adc_init.o(SECTION_IMP_CODE)
    [Anonymous Symbol]                       0x200063dc   Section        0  adc_init.o(SECTION_IMP_CODE)
    __tagsym$$used.3                         0x200063e0   Number         0  adc_init.o(SECTION_IMP_CODE)
    [Anonymous Symbol]                       0x200063e0   Section        0  adc_init.o(SECTION_IMP_CODE)
    __tagsym$$used.0                         0x200065b0   Number         0  user_tmr.o(SECTION_IMP_CODE)
    [Anonymous Symbol]                       0x200065b0   Section        0  user_tmr.o(SECTION_IMP_CODE)
    __tagsym$$used.1                         0x200065d8   Number         0  user_tmr.o(SECTION_IMP_CODE)
    [Anonymous Symbol]                       0x200065d8   Section        0  user_tmr.o(SECTION_IMP_CODE)
    __tagsym$$used.2                         0x200065f4   Number         0  user_tmr.o(SECTION_IMP_CODE)
    [Anonymous Symbol]                       0x200065f4   Section        0  user_tmr.o(SECTION_IMP_CODE)
    __tagsym$$used.0                         0x20006624   Number         0  user_imp_interrupts.o(SECTION_IMP_CODE)
    [Anonymous Symbol]                       0x20006624   Section        0  user_imp_interrupts.o(SECTION_IMP_CODE)
    __tagsym$$used.1                         0x2000664c   Number         0  user_imp_interrupts.o(SECTION_IMP_CODE)
    [Anonymous Symbol]                       0x2000664c   Section        0  user_imp_interrupts.o(SECTION_IMP_CODE)
    __tagsym$$used.2                         0x200066c4   Number         0  user_imp_interrupts.o(SECTION_IMP_CODE)
    [Anonymous Symbol]                       0x200066c4   Section        0  user_imp_interrupts.o(SECTION_IMP_CODE)
    __tagsym$$used.3                         0x200066f4   Number         0  user_imp_interrupts.o(SECTION_IMP_CODE)
    [Anonymous Symbol]                       0x200066f4   Section        0  user_imp_interrupts.o(SECTION_IMP_CODE)
    __tagsym$$used.0                         0x2000671c   Number         0  user_vofa.o(SECTION_IMP_CODE)
    [Anonymous Symbol]                       0x2000671c   Section        0  user_vofa.o(SECTION_IMP_CODE)
    __tagsym$$used.0                         0x20006738   Number         0  bcb.o(SECTION_IMP_CODE)
    [Anonymous Symbol]                       0x20006738   Section        0  bcb.o(SECTION_IMP_CODE)
    __tagsym$$used.1                         0x200069d0   Number         0  bcb.o(SECTION_IMP_CODE)
    [Anonymous Symbol]                       0x200069d0   Section        0  bcb.o(SECTION_IMP_CODE)
    __tagsym$$used.2                         0x20006cb8   Number         0  bcb.o(SECTION_IMP_CODE)
    [Anonymous Symbol]                       0x20006cb8   Section        0  bcb.o(SECTION_IMP_CODE)
    __tagsym$$used.3                         0x20006cf8   Number         0  bcb.o(SECTION_IMP_CODE)
    [Anonymous Symbol]                       0x20006cf8   Section        0  bcb.o(SECTION_IMP_CODE)
    __tagsym$$used.4                         0x20006d44   Number         0  bcb.o(SECTION_IMP_CODE)
    [Anonymous Symbol]                       0x20006d44   Section        0  bcb.o(SECTION_IMP_CODE)
    __tagsym$$used.5                         0x20006d88   Number         0  bcb.o(SECTION_IMP_CODE)
    [Anonymous Symbol]                       0x20006d88   Section        0  bcb.o(SECTION_IMP_CODE)
    __tagsym$$used.0                         0x20007034   Number         0  bcb_pid.o(SECTION_IMP_CODE)
    [Anonymous Symbol]                       0x20007034   Section        0  bcb_pid.o(SECTION_IMP_CODE)
    __tagsym$$used.1                         0x200070a4   Number         0  bcb_pid.o(SECTION_IMP_CODE)
    [Anonymous Symbol]                       0x200070a4   Section        0  bcb_pid.o(SECTION_IMP_CODE)
    __tagsym$$used.2                         0x20007114   Number         0  bcb_pid.o(SECTION_IMP_CODE)
    [Anonymous Symbol]                       0x20007114   Section        0  bcb_pid.o(SECTION_IMP_CODE)
    .L_MergedGlobals                         0x20007184   Data           8  tae32g58xx_ll.o(.data..L_MergedGlobals)
    [Anonymous Symbol]                       0x20007184   Section        0  tae32g58xx_ll.o(.data..L_MergedGlobals)
    __tagsym$$used.0                         0x200181a0   Number         0  user_upgrade_interrupts.o(SECTION_UPGRADE_CODE)
    [Anonymous Symbol]                       0x200181a0   Section        0  user_upgrade_interrupts.o(SECTION_UPGRADE_CODE)
    __tagsym$$used.1                         0x200181c8   Number         0  user_upgrade_interrupts.o(SECTION_UPGRADE_CODE)
    [Anonymous Symbol]                       0x200181c8   Section        0  user_upgrade_interrupts.o(SECTION_UPGRADE_CODE)
    __tagsym$$used.2                         0x20018240   Number         0  user_upgrade_interrupts.o(SECTION_UPGRADE_CODE)
    [Anonymous Symbol]                       0x20018240   Section        0  user_upgrade_interrupts.o(SECTION_UPGRADE_CODE)
    __tagsym$$used.3                         0x20018270   Number         0  user_upgrade_interrupts.o(SECTION_UPGRADE_CODE)
    [Anonymous Symbol]                       0x20018270   Section        0  user_upgrade_interrupts.o(SECTION_UPGRADE_CODE)
    __tagsym$$used.0                         0x20018298   Number         0  upgrade_adc.o(SECTION_UPGRADE_CODE)
    [Anonymous Symbol]                       0x20018298   Section        0  upgrade_adc.o(SECTION_UPGRADE_CODE)
    __tagsym$$used.1                         0x200183a4   Number         0  upgrade_adc.o(SECTION_UPGRADE_CODE)
    [Anonymous Symbol]                       0x200183a4   Section        0  upgrade_adc.o(SECTION_UPGRADE_CODE)
    __tagsym$$used.2                         0x20018400   Number         0  upgrade_adc.o(SECTION_UPGRADE_CODE)
    [Anonymous Symbol]                       0x20018400   Section        0  upgrade_adc.o(SECTION_UPGRADE_CODE)
    __tagsym$$used.0                         0x200185d0   Number         0  upgrade_tmr.o(SECTION_UPGRADE_CODE)
    [Anonymous Symbol]                       0x200185d0   Section        0  upgrade_tmr.o(SECTION_UPGRADE_CODE)
    __tagsym$$used.1                         0x200185f8   Number         0  upgrade_tmr.o(SECTION_UPGRADE_CODE)
    [Anonymous Symbol]                       0x200185f8   Section        0  upgrade_tmr.o(SECTION_UPGRADE_CODE)
    __tagsym$$used.2                         0x20018614   Number         0  upgrade_tmr.o(SECTION_UPGRADE_CODE)
    [Anonymous Symbol]                       0x20018614   Section        0  upgrade_tmr.o(SECTION_UPGRADE_CODE)
    __tagsym$$used.0                         0x20018644   Number         0  upgrade_bcb.o(SECTION_UPGRADE_CODE)
    [Anonymous Symbol]                       0x20018644   Section        0  upgrade_bcb.o(SECTION_UPGRADE_CODE)
    __tagsym$$used.1                         0x20018844   Number         0  upgrade_bcb.o(SECTION_UPGRADE_CODE)
    [Anonymous Symbol]                       0x20018844   Section        0  upgrade_bcb.o(SECTION_UPGRADE_CODE)
    __tagsym$$used.2                         0x20018b2c   Number         0  upgrade_bcb.o(SECTION_UPGRADE_CODE)
    [Anonymous Symbol]                       0x20018b2c   Section        0  upgrade_bcb.o(SECTION_UPGRADE_CODE)
    __tagsym$$used.3                         0x20018b6c   Number         0  upgrade_bcb.o(SECTION_UPGRADE_CODE)
    [Anonymous Symbol]                       0x20018b6c   Section        0  upgrade_bcb.o(SECTION_UPGRADE_CODE)
    __tagsym$$used.4                         0x20018bb8   Number         0  upgrade_bcb.o(SECTION_UPGRADE_CODE)
    [Anonymous Symbol]                       0x20018bb8   Section        0  upgrade_bcb.o(SECTION_UPGRADE_CODE)
    __tagsym$$used.5                         0x20018bfc   Number         0  upgrade_bcb.o(SECTION_UPGRADE_CODE)
    [Anonymous Symbol]                       0x20018bfc   Section        0  upgrade_bcb.o(SECTION_UPGRADE_CODE)

    Global Symbols

    Symbol Name                              Value     Ov Type        Size  Object(Section)

    BuildAttributes$$THM_ISAv4$E$P$D$K$B$S$7EM$VFPi3$EXTD16$VFPS$VFMA$PE$A:L22UL41UL21$X:L11$S22US41US21$IEEE1$IW$USESV6$~STKCKD$USESV7$~SHL$OTIME$ROPI$MICROLIB$REQ8$PRES8$EABIv2 0x00000000   Number         0  anon$$obj.o ABSOLUTE
    __cpp_initialize__aeabi_                  - Undefined Weak Reference
    __cxa_finalize                            - Undefined Weak Reference
    _clock_init                               - Undefined Weak Reference
    _microlib_exit                            - Undefined Weak Reference
    Image$$SHARE_MEMORY$$Length              0x00000400   Number         0  anon$$obj.o ABSOLUTE
    Image$$UPGRADE_INT_CODE$$Length          0x00000ea8   Number         0  anon$$obj.o ABSOLUTE
    Image$$ER_IMP_TEXT$$Length               0x00001190   Number         0  anon$$obj.o ABSOLUTE
    Image$$ER_ROM$$Length                    0x000060b8   Number         0  anon$$obj.o ABSOLUTE
    Image$$ER_ROM$$Base                      0x08000000   Number         0  anon$$obj.o ABSOLUTE
    Load$$ER_ROM$$Base                       0x08000000   Number         0  anon$$obj.o ABSOLUTE
    __Vectors                                0x08000000   Data           8  startup_tae32g58xx.o(RESET)
    __main                                   0x08000009   Thumb Code     0  entry.o(.ARM.Collect$$$$00000000)
    _main_stk                                0x08000009   Thumb Code     0  entry4.o(.ARM.Collect$$$$00000003)
    _main_scatterload                        0x0800000d   Thumb Code     0  entry5.o(.ARM.Collect$$$$00000004)
    __main_after_scatterload                 0x08000011   Thumb Code     0  entry5.o(.ARM.Collect$$$$00000004)
    _main_clock                              0x08000011   Thumb Code     0  entry7b.o(.ARM.Collect$$$$00000008)
    _main_cpp_init                           0x08000011   Thumb Code     0  entry8b.o(.ARM.Collect$$$$0000000A)
    _main_init                               0x08000011   Thumb Code     0  entry9a.o(.ARM.Collect$$$$0000000B)
    __rt_final_cpp                           0x08000019   Thumb Code     0  entry10a.o(.ARM.Collect$$$$0000000D)
    __rt_final_exit                          0x08000019   Thumb Code     0  entry11a.o(.ARM.Collect$$$$0000000F)
    __aeabi_memcpy                           0x0800001d   Thumb Code    36  memcpya.o(.text)
    __aeabi_memcpy4                          0x0800001d   Thumb Code     0  memcpya.o(.text)
    __aeabi_memcpy8                          0x0800001d   Thumb Code     0  memcpya.o(.text)
    __aeabi_memset                           0x08000041   Thumb Code    14  memseta.o(.text)
    __aeabi_memset4                          0x08000041   Thumb Code     0  memseta.o(.text)
    __aeabi_memset8                          0x08000041   Thumb Code     0  memseta.o(.text)
    __aeabi_memclr                           0x0800004f   Thumb Code     4  memseta.o(.text)
    __aeabi_memclr4                          0x0800004f   Thumb Code     0  memseta.o(.text)
    __aeabi_memclr8                          0x0800004f   Thumb Code     0  memseta.o(.text)
    _memset$wrapper                          0x08000053   Thumb Code    18  memseta.o(.text)
    strlen                                   0x08000065   Thumb Code    14  strlen.o(.text)
    strcmp                                   0x08000073   Thumb Code    28  strcmp.o(.text)
    strncmp                                  0x0800008f   Thumb Code    30  strncmp.o(.text)
    __aeabi_dadd                             0x080000ad   Thumb Code   322  dadd.o(.text)
    __aeabi_dsub                             0x080001ef   Thumb Code     6  dadd.o(.text)
    __aeabi_drsub                            0x080001f5   Thumb Code     6  dadd.o(.text)
    __aeabi_dmul                             0x080001fb   Thumb Code   228  dmul.o(.text)
    __aeabi_ddiv                             0x080002df   Thumb Code   222  ddiv.o(.text)
    __aeabi_i2d                              0x080003bd   Thumb Code    34  dflti.o(.text)
    __aeabi_ui2d                             0x080003df   Thumb Code    26  dfltui.o(.text)
    __aeabi_d2iz                             0x080003f9   Thumb Code    62  dfixi.o(.text)
    __aeabi_d2uiz                            0x08000437   Thumb Code    50  dfixui.o(.text)
    __aeabi_d2f                              0x08000469   Thumb Code    56  d2f.o(.text)
    __aeabi_llsl                             0x080004a1   Thumb Code    30  llshl.o(.text)
    _ll_shift_l                              0x080004a1   Thumb Code     0  llshl.o(.text)
    __aeabi_llsr                             0x080004bf   Thumb Code    32  llushr.o(.text)
    _ll_ushift_r                             0x080004bf   Thumb Code     0  llushr.o(.text)
    __aeabi_lasr                             0x080004df   Thumb Code    36  llsshr.o(.text)
    _ll_sshift_r                             0x080004df   Thumb Code     0  llsshr.o(.text)
    __I$use$fp                               0x08000503   Thumb Code     0  iusefp.o(.text)
    _float_round                             0x08000503   Thumb Code    18  fepilogue.o(.text)
    _float_epilogue                          0x08000515   Thumb Code    92  fepilogue.o(.text)
    _double_round                            0x08000571   Thumb Code    30  depilogue.o(.text)
    _double_epilogue                         0x0800058f   Thumb Code   156  depilogue.o(.text)
    __scatterload                            0x0800062d   Thumb Code    28  init.o(.text)
    __scatterload_rt2                        0x0800062d   Thumb Code     0  init.o(.text)
    __decompress                             0x08000651   Thumb Code     0  __dczerorl.o(.text)
    __decompress0                            0x08000651   Thumb Code    58  __dczerorl.o(.text)
    ADC_INIT                                 0x0800068d   Thumb Code   430  adc_init.o(.text.ADC_INIT)
    BaseInit                                 0x0800083d   Thumb Code   188  main.o(.text.BaseInit)
    BusFault_Handler                         0x080008f9   Thumb Code     2  tae32g58xx_it.o(.text.BusFault_Handler)
    CMP_INIT                                 0x080008fd   Thumb Code   286  cmp_dac.o(.text.CMP_INIT)
    COMMUNICATE_DECODE                       0x08000a21   Thumb Code   576  user_vofa.o(.text.COMMUNICATE_DECODE)
    Comm_Flt0Callback                        0x08000c61   Thumb Code    80  user_hrpwm.o(.text.Comm_Flt0Callback)
    Comm_Flt3Callback                        0x08000cb1   Thumb Code    56  user_hrpwm.o(.text.Comm_Flt3Callback)
    Comm_Flt4Callback                        0x08000ce9   Thumb Code    56  user_hrpwm.o(.text.Comm_Flt4Callback)
    Comm_Flt6Callback                        0x08000d21   Thumb Code    56  user_hrpwm.o(.text.Comm_Flt6Callback)
    DAC_INIT                                 0x08000d59   Thumb Code   282  cmp_dac.o(.text.DAC_INIT)
    DebugMon_Handler                         0x08000e75   Thumb Code     2  tae32g58xx_it.o(.text.DebugMon_Handler)
    ADC0_FULL_IRQHandler                     0x08000e79   Thumb Code     2  startup_tae32g58xx.o(.text.Default_Handler)
    ADC0_HALF_IRQHandler                     0x08000e79   Thumb Code     2  startup_tae32g58xx.o(.text.Default_Handler)
    ADC0_SAMP_IRQHandler                     0x08000e79   Thumb Code     2  startup_tae32g58xx.o(.text.Default_Handler)
    ADC1_FULL_IRQHandler                     0x08000e79   Thumb Code     2  startup_tae32g58xx.o(.text.Default_Handler)
    ADC1_HALF_IRQHandler                     0x08000e79   Thumb Code     2  startup_tae32g58xx.o(.text.Default_Handler)
    ADC1_NORM_IRQHandler                     0x08000e79   Thumb Code     2  startup_tae32g58xx.o(.text.Default_Handler)
    ADC1_SAMP_IRQHandler                     0x08000e79   Thumb Code     2  startup_tae32g58xx.o(.text.Default_Handler)
    ADC2_FULL_IRQHandler                     0x08000e79   Thumb Code     2  startup_tae32g58xx.o(.text.Default_Handler)
    ADC2_HALF_IRQHandler                     0x08000e79   Thumb Code     2  startup_tae32g58xx.o(.text.Default_Handler)
    ADC2_NORM_IRQHandler                     0x08000e79   Thumb Code     2  startup_tae32g58xx.o(.text.Default_Handler)
    ADC2_SAMP_IRQHandler                     0x08000e79   Thumb Code     2  startup_tae32g58xx.o(.text.Default_Handler)
    ADC3_FULL_IRQHandler                     0x08000e79   Thumb Code     2  startup_tae32g58xx.o(.text.Default_Handler)
    ADC3_HALF_IRQHandler                     0x08000e79   Thumb Code     2  startup_tae32g58xx.o(.text.Default_Handler)
    ADC3_NORM_IRQHandler                     0x08000e79   Thumb Code     2  startup_tae32g58xx.o(.text.Default_Handler)
    ADC3_SAMP_IRQHandler                     0x08000e79   Thumb Code     2  startup_tae32g58xx.o(.text.Default_Handler)
    CAN0_INT1_IRQHandler                     0x08000e79   Thumb Code     2  startup_tae32g58xx.o(.text.Default_Handler)
    CAN0_IRQHandler                          0x08000e79   Thumb Code     2  startup_tae32g58xx.o(.text.Default_Handler)
    CAN1_INT1_IRQHandler                     0x08000e79   Thumb Code     2  startup_tae32g58xx.o(.text.Default_Handler)
    CAN1_IRQHandler                          0x08000e79   Thumb Code     2  startup_tae32g58xx.o(.text.Default_Handler)
    CMPG0_IRQHandler                         0x08000e79   Thumb Code     2  startup_tae32g58xx.o(.text.Default_Handler)
    CMPG1_IRQHandler                         0x08000e79   Thumb Code     2  startup_tae32g58xx.o(.text.Default_Handler)
    CMPG2_IRQHandler                         0x08000e79   Thumb Code     2  startup_tae32g58xx.o(.text.Default_Handler)
    CORDIC_IRQHandler                        0x08000e79   Thumb Code     2  startup_tae32g58xx.o(.text.Default_Handler)
    DMA_CH0_IRQHandler                       0x08000e79   Thumb Code     2  startup_tae32g58xx.o(.text.Default_Handler)
    DMA_CH1_IRQHandler                       0x08000e79   Thumb Code     2  startup_tae32g58xx.o(.text.Default_Handler)
    DMA_CH2_IRQHandler                       0x08000e79   Thumb Code     2  startup_tae32g58xx.o(.text.Default_Handler)
    DMA_CH3_IRQHandler                       0x08000e79   Thumb Code     2  startup_tae32g58xx.o(.text.Default_Handler)
    DMA_CH4_IRQHandler                       0x08000e79   Thumb Code     2  startup_tae32g58xx.o(.text.Default_Handler)
    DMA_CH5_IRQHandler                       0x08000e79   Thumb Code     2  startup_tae32g58xx.o(.text.Default_Handler)
    Default_Handler                          0x08000e79   Thumb Code     2  startup_tae32g58xx.o(.text.Default_Handler)
    EFLASH_IRQHandler                        0x08000e79   Thumb Code     2  startup_tae32g58xx.o(.text.Default_Handler)
    GPIOA_IRQHandler                         0x08000e79   Thumb Code     2  startup_tae32g58xx.o(.text.Default_Handler)
    GPIOB_IRQHandler                         0x08000e79   Thumb Code     2  startup_tae32g58xx.o(.text.Default_Handler)
    GPIOC_IRQHandler                         0x08000e79   Thumb Code     2  startup_tae32g58xx.o(.text.Default_Handler)
    GPIOD_IRQHandler                         0x08000e79   Thumb Code     2  startup_tae32g58xx.o(.text.Default_Handler)
    GPIOE_IRQHandler                         0x08000e79   Thumb Code     2  startup_tae32g58xx.o(.text.Default_Handler)
    GPIOF_IRQHandler                         0x08000e79   Thumb Code     2  startup_tae32g58xx.o(.text.Default_Handler)
    HRPWM_MST_IRQHandler                     0x08000e79   Thumb Code     2  startup_tae32g58xx.o(.text.Default_Handler)
    HRPWM_SLV0_IRQHandler                    0x08000e79   Thumb Code     2  startup_tae32g58xx.o(.text.Default_Handler)
    HRPWM_SLV1_IRQHandler                    0x08000e79   Thumb Code     2  startup_tae32g58xx.o(.text.Default_Handler)
    HRPWM_SLV2_IRQHandler                    0x08000e79   Thumb Code     2  startup_tae32g58xx.o(.text.Default_Handler)
    HRPWM_SLV3_IRQHandler                    0x08000e79   Thumb Code     2  startup_tae32g58xx.o(.text.Default_Handler)
    HRPWM_SLV4_IRQHandler                    0x08000e79   Thumb Code     2  startup_tae32g58xx.o(.text.Default_Handler)
    HRPWM_SLV5_IRQHandler                    0x08000e79   Thumb Code     2  startup_tae32g58xx.o(.text.Default_Handler)
    HRPWM_SLV6_IRQHandler                    0x08000e79   Thumb Code     2  startup_tae32g58xx.o(.text.Default_Handler)
    HRPWM_SLV7_IRQHandler                    0x08000e79   Thumb Code     2  startup_tae32g58xx.o(.text.Default_Handler)
    I2C0_IRQHandler                          0x08000e79   Thumb Code     2  startup_tae32g58xx.o(.text.Default_Handler)
    I2C1_IRQHandler                          0x08000e79   Thumb Code     2  startup_tae32g58xx.o(.text.Default_Handler)
    I2C2_IRQHandler                          0x08000e79   Thumb Code     2  startup_tae32g58xx.o(.text.Default_Handler)
    IIR_IRQHandler                           0x08000e79   Thumb Code     2  startup_tae32g58xx.o(.text.Default_Handler)
    IWDG_IRQHandler                          0x08000e79   Thumb Code     2  startup_tae32g58xx.o(.text.Default_Handler)
    PDM0_IRQHandler                          0x08000e79   Thumb Code     2  startup_tae32g58xx.o(.text.Default_Handler)
    PDM1_IRQHandler                          0x08000e79   Thumb Code     2  startup_tae32g58xx.o(.text.Default_Handler)
    PDM2_IRQHandler                          0x08000e79   Thumb Code     2  startup_tae32g58xx.o(.text.Default_Handler)
    PDM3_IRQHandler                          0x08000e79   Thumb Code     2  startup_tae32g58xx.o(.text.Default_Handler)
    PMU_IRQHandler                           0x08000e79   Thumb Code     2  startup_tae32g58xx.o(.text.Default_Handler)
    QEI0_IRQHandler                          0x08000e79   Thumb Code     2  startup_tae32g58xx.o(.text.Default_Handler)
    QEI1_IRQHandler                          0x08000e79   Thumb Code     2  startup_tae32g58xx.o(.text.Default_Handler)
    QEI2_IRQHandler                          0x08000e79   Thumb Code     2  startup_tae32g58xx.o(.text.Default_Handler)
    SPI0_IRQHandler                          0x08000e79   Thumb Code     2  startup_tae32g58xx.o(.text.Default_Handler)
    SPI1_IRQHandler                          0x08000e79   Thumb Code     2  startup_tae32g58xx.o(.text.Default_Handler)
    TMR0_IRQHandler                          0x08000e79   Thumb Code     2  startup_tae32g58xx.o(.text.Default_Handler)
    TMR10_BRK_IRQHandler                     0x08000e79   Thumb Code     2  startup_tae32g58xx.o(.text.Default_Handler)
    TMR10_CC_IRQHandler                      0x08000e79   Thumb Code     2  startup_tae32g58xx.o(.text.Default_Handler)
    TMR10_TRG_IRQHandler                     0x08000e79   Thumb Code     2  startup_tae32g58xx.o(.text.Default_Handler)
    TMR10_UPD_IRQHandler                     0x08000e79   Thumb Code     2  startup_tae32g58xx.o(.text.Default_Handler)
    TMR1_IRQHandler                          0x08000e79   Thumb Code     2  startup_tae32g58xx.o(.text.Default_Handler)
    TMR2_IRQHandler                          0x08000e79   Thumb Code     2  startup_tae32g58xx.o(.text.Default_Handler)
    TMR3_IRQHandler                          0x08000e79   Thumb Code     2  startup_tae32g58xx.o(.text.Default_Handler)
    TMR6_IRQHandler                          0x08000e79   Thumb Code     2  startup_tae32g58xx.o(.text.Default_Handler)
    TMR7_IRQHandler                          0x08000e79   Thumb Code     2  startup_tae32g58xx.o(.text.Default_Handler)
    TMR8_IRQHandler                          0x08000e79   Thumb Code     2  startup_tae32g58xx.o(.text.Default_Handler)
    TMR9_BRK_IRQHandler                      0x08000e79   Thumb Code     2  startup_tae32g58xx.o(.text.Default_Handler)
    TMR9_CC_IRQHandler                       0x08000e79   Thumb Code     2  startup_tae32g58xx.o(.text.Default_Handler)
    TMR9_TRG_IRQHandler                      0x08000e79   Thumb Code     2  startup_tae32g58xx.o(.text.Default_Handler)
    TMR9_UPD_IRQHandler                      0x08000e79   Thumb Code     2  startup_tae32g58xx.o(.text.Default_Handler)
    UART1_IRQHandler                         0x08000e79   Thumb Code     2  startup_tae32g58xx.o(.text.Default_Handler)
    UART2_IRQHandler                         0x08000e79   Thumb Code     2  startup_tae32g58xx.o(.text.Default_Handler)
    UART3_IRQHandler                         0x08000e79   Thumb Code     2  startup_tae32g58xx.o(.text.Default_Handler)
    UART4_IRQHandler                         0x08000e79   Thumb Code     2  startup_tae32g58xx.o(.text.Default_Handler)
    USB_DET_IRQHandler                       0x08000e79   Thumb Code     2  startup_tae32g58xx.o(.text.Default_Handler)
    USB_EP_IRQHandler                        0x08000e79   Thumb Code     2  startup_tae32g58xx.o(.text.Default_Handler)
    USB_PWR_IRQHandler                       0x08000e79   Thumb Code     2  startup_tae32g58xx.o(.text.Default_Handler)
    WWDG_IRQHandler                          0x08000e79   Thumb Code     2  startup_tae32g58xx.o(.text.Default_Handler)
    XIF_IRQHandler                           0x08000e79   Thumb Code     2  startup_tae32g58xx.o(.text.Default_Handler)
    EFLASH_EraseComm                         0x08000e7d   Thumb Code   176  tae32g58xx_ll_eflash.o(.text.EFLASH_EraseComm)
    EFlash_EraseBank                         0x08000f2d   Thumb Code    12  otf_eflash.o(.text.EFlash_EraseBank)
    EFlash_EraseSensor                       0x08000f39   Thumb Code    36  otf_eflash.o(.text.EFlash_EraseSensor)
    EFlash_Init                              0x08000f5d   Thumb Code    20  otf_eflash.o(.text.EFlash_Init)
    EFlash_WritePack                         0x08000f71   Thumb Code    18  otf_eflash.o(.text.EFlash_WritePack)
    GPIO_INIT                                0x08000f85   Thumb Code   242  user_gpio.o(.text.GPIO_INIT)
    HRPWM_COUNT_NUM_INIT                     0x08001079   Thumb Code    14  user_hrpwm.o(.text.HRPWM_COUNT_NUM_INIT)
    HRPWM_INIT                               0x08001089   Thumb Code   512  user_hrpwm.o(.text.HRPWM_INIT)
    HRPWM_OFF                                0x08001289   Thumb Code    16  user_hrpwm.o(.text.HRPWM_OFF)
    HRPWM_ON                                 0x08001299   Thumb Code    30  user_hrpwm.o(.text.HRPWM_ON)
    HardFault_Handler                        0x080012b9   Thumb Code     2  tae32g58xx_it.o(.text.HardFault_Handler)
    LL_ADC_Cal_Cfg                           0x080012bd   Thumb Code   254  tae32g58xx_ll_adc.o(.text.LL_ADC_Cal_Cfg)
    LL_ADC_DMA_Cfg                           0x080013bd   Thumb Code   324  tae32g58xx_ll_adc.o(.text.LL_ADC_DMA_Cfg)
    LL_ADC_Init                              0x08001501   Thumb Code   374  tae32g58xx_ll_adc.o(.text.LL_ADC_Init)
    LL_ADC_MspInit                           0x08001679   Thumb Code   140  tae32g58xx_ll_msp.o(.text.LL_ADC_MspInit)
    LL_ADC_REG_ChCfg                         0x08001705   Thumb Code   292  tae32g58xx_ll_adc.o(.text.LL_ADC_REG_ChCfg)
    LL_ADC_REG_ComCfg                        0x08001829   Thumb Code   166  tae32g58xx_ll_adc.o(.text.LL_ADC_REG_ComCfg)
    LL_CMP_Init                              0x080018d1   Thumb Code   342  tae32g58xx_ll_cmp.o(.text.LL_CMP_Init)
    LL_CMP_MspInit                           0x08001a29   Thumb Code   364  tae32g58xx_ll_msp.o(.text.LL_CMP_MspInit)
    LL_CMP_Start                             0x08001b95   Thumb Code    32  tae32g58xx_ll_cmp.o(.text.LL_CMP_Start)
    LL_DAC_Init                              0x08001bb5   Thumb Code   216  tae32g58xx_ll_dac.o(.text.LL_DAC_Init)
    LL_DAC_MspInit                           0x08001c8d   Thumb Code    94  tae32g58xx_ll_msp.o(.text.LL_DAC_MspInit)
    LL_DAC_Start                             0x08001ced   Thumb Code    32  tae32g58xx_ll_dac.o(.text.LL_DAC_Start)
    LL_DAC_ValueSet                          0x08001d0d   Thumb Code    28  tae32g58xx_ll_dac.o(.text.LL_DAC_ValueSet)
    LL_Delay                                 0x08001d29   Thumb Code    40  tae32g58xx_ll.o(.text.LL_Delay)
    LL_EFLASH_EraseBank1                     0x08001d51   Thumb Code    90  tae32g58xx_ll_eflash.o(.text.LL_EFLASH_EraseBank1)
    LL_EFLASH_EraseMultiSector               0x08001dad   Thumb Code   354  tae32g58xx_ll_eflash.o(.text.LL_EFLASH_EraseMultiSector)
    LL_EFLASH_Program                        0x08001f11   Thumb Code   354  tae32g58xx_ll_eflash.o(.text.LL_EFLASH_Program)
    LL_EFLASH_WaitForBusyState               0x08002075   Thumb Code   342  tae32g58xx_ll_eflash.o(.text.LL_EFLASH_WaitForBusyState)
    LL_GPIO_DeInit                           0x080021cd   Thumb Code   434  tae32g58xx_ll_gpio.o(.text.LL_GPIO_DeInit)
    LL_GPIO_Init                             0x08002381   Thumb Code   430  tae32g58xx_ll_gpio.o(.text.LL_GPIO_Init)
    LL_GPIO_ReadPin                          0x08002531   Thumb Code    46  tae32g58xx_ll_gpio.o(.text.LL_GPIO_ReadPin)
    LL_GPIO_WritePin                         0x08002561   Thumb Code    48  tae32g58xx_ll_gpio.o(.text.LL_GPIO_WritePin)
    LL_GetTick                               0x08002591   Thumb Code    12  tae32g58xx_ll.o(.text.LL_GetTick)
    LL_HRPWM_Comm_ADCTrigCfg                 0x0800259d   Thumb Code   556  tae32g58xx_ll_hrpwm.o(.text.LL_HRPWM_Comm_ADCTrigCfg)
    LL_HRPWM_Comm_DLL_Start                  0x080027c9   Thumb Code    44  tae32g58xx_ll_hrpwm.o(.text.LL_HRPWM_Comm_DLL_Start)
    LL_HRPWM_Comm_FltCfg                     0x080027f5   Thumb Code   386  tae32g58xx_ll_hrpwm.o(.text.LL_HRPWM_Comm_FltCfg)
    LL_HRPWM_Init                            0x08002979   Thumb Code    28  tae32g58xx_ll_hrpwm.o(.text.LL_HRPWM_Init)
    LL_HRPWM_MspInit                         0x08002995   Thumb Code    80  tae32g58xx_ll_msp.o(.text.LL_HRPWM_MspInit)
    LL_HRPWM_RegUpd_Frc                      0x080029e5   Thumb Code   134  tae32g58xx_ll_hrpwm.o(.text.LL_HRPWM_RegUpd_Frc)
    LL_HRPWM_Slv_OutputCfg                   0x08002a6d   Thumb Code   488  tae32g58xx_ll_hrpwm.o(.text.LL_HRPWM_Slv_OutputCfg)
    LL_HRPWM_Slv_Output_Start                0x08002c55   Thumb Code    66  tae32g58xx_ll_hrpwm.o(.text.LL_HRPWM_Slv_Output_Start)
    LL_HRPWM_TmrBaseCfg                      0x08002c99   Thumb Code   634  tae32g58xx_ll_hrpwm.o(.text.LL_HRPWM_TmrBaseCfg)
    LL_HRPWM_TmrCmpCfg                       0x08002f15   Thumb Code   410  tae32g58xx_ll_hrpwm.o(.text.LL_HRPWM_TmrCmpCfg)
    LL_IncTick                               0x080030b1   Thumb Code    26  tae32g58xx_ll.o(.text.LL_IncTick)
    LL_Init                                  0x080030cd   Thumb Code    48  tae32g58xx_ll.o(.text.LL_Init)
    LL_InitTick                              0x080030fd   Thumb Code    72  tae32g58xx_ll.o(.text.LL_InitTick)
    LL_MspInit                               0x08003145   Thumb Code    74  tae32g58xx_ll_msp.o(.text.LL_MspInit)
    LL_NVIC_DisableIRQ                       0x08003191   Thumb Code    46  tae32g58xx_ll_cortex.o(.text.LL_NVIC_DisableIRQ)
    LL_NVIC_EnableIRQ                        0x080031c1   Thumb Code    38  tae32g58xx_ll_cortex.o(.text.LL_NVIC_EnableIRQ)
    LL_NVIC_SetPriority                      0x080031e9   Thumb Code   100  tae32g58xx_ll_cortex.o(.text.LL_NVIC_SetPriority)
    LL_NVIC_SetPriorityGrouping              0x0800324d   Thumb Code    40  tae32g58xx_ll_cortex.o(.text.LL_NVIC_SetPriorityGrouping)
    LL_RCU_ADC0_ClkEnRstRelease              0x08003275   Thumb Code    46  tae32g58xx_ll_rcu.o(.text.LL_RCU_ADC0_ClkEnRstRelease)
    LL_RCU_ADC1_ClkEnRstRelease              0x080032a5   Thumb Code    46  tae32g58xx_ll_rcu.o(.text.LL_RCU_ADC1_ClkEnRstRelease)
    LL_RCU_ADC_ClkCfg                        0x080032d5   Thumb Code    70  tae32g58xx_ll_rcu.o(.text.LL_RCU_ADC_ClkCfg)
    LL_RCU_APB0ClkGet                        0x0800331d   Thumb Code    30  tae32g58xx_ll_rcu.o(.text.LL_RCU_APB0ClkGet)
    LL_RCU_APB1ClkGet                        0x0800333d   Thumb Code    30  tae32g58xx_ll_rcu.o(.text.LL_RCU_APB1ClkGet)
    LL_RCU_CMP_ClkEnRstRelease               0x0800335d   Thumb Code    38  tae32g58xx_ll_rcu.o(.text.LL_RCU_CMP_ClkEnRstRelease)
    LL_RCU_DAC_ClkEnRstRelease               0x08003385   Thumb Code    38  tae32g58xx_ll_rcu.o(.text.LL_RCU_DAC_ClkEnRstRelease)
    LL_RCU_DMA_ClkEnRstRelease               0x080033ad   Thumb Code    38  tae32g58xx_ll_rcu.o(.text.LL_RCU_DMA_ClkEnRstRelease)
    LL_RCU_EFLASH_ClkEnRstRelease            0x080033d5   Thumb Code    38  tae32g58xx_ll_rcu.o(.text.LL_RCU_EFLASH_ClkEnRstRelease)
    LL_RCU_GPIOA_ClkEnRstRelease             0x080033fd   Thumb Code    38  tae32g58xx_ll_rcu.o(.text.LL_RCU_GPIOA_ClkEnRstRelease)
    LL_RCU_GPIOB_ClkEnRstRelease             0x08003425   Thumb Code    38  tae32g58xx_ll_rcu.o(.text.LL_RCU_GPIOB_ClkEnRstRelease)
    LL_RCU_GPIOC_ClkEnRstRelease             0x0800344d   Thumb Code    38  tae32g58xx_ll_rcu.o(.text.LL_RCU_GPIOC_ClkEnRstRelease)
    LL_RCU_GPIOD_ClkEnRstRelease             0x08003475   Thumb Code    38  tae32g58xx_ll_rcu.o(.text.LL_RCU_GPIOD_ClkEnRstRelease)
    LL_RCU_GPIOE_ClkEnRstRelease             0x0800349d   Thumb Code    38  tae32g58xx_ll_rcu.o(.text.LL_RCU_GPIOE_ClkEnRstRelease)
    LL_RCU_GPIOF_ClkEnRstRelease             0x080034c5   Thumb Code    38  tae32g58xx_ll_rcu.o(.text.LL_RCU_GPIOF_ClkEnRstRelease)
    LL_RCU_HRPWM0_ClkEnRstRelease            0x080034ed   Thumb Code    46  tae32g58xx_ll_rcu.o(.text.LL_RCU_HRPWM0_ClkEnRstRelease)
    LL_RCU_HRPWM2_ClkEnRstRelease            0x0800351d   Thumb Code    46  tae32g58xx_ll_rcu.o(.text.LL_RCU_HRPWM2_ClkEnRstRelease)
    LL_RCU_HRPWM3_ClkEnRstRelease            0x0800354d   Thumb Code    46  tae32g58xx_ll_rcu.o(.text.LL_RCU_HRPWM3_ClkEnRstRelease)
    LL_RCU_HRPWM_ClkCfg                      0x0800357d   Thumb Code    56  tae32g58xx_ll_rcu.o(.text.LL_RCU_HRPWM_ClkCfg)
    LL_RCU_HRPWM_ClkEnRstRelease             0x080035b5   Thumb Code   158  tae32g58xx_ll_rcu.o(.text.LL_RCU_HRPWM_ClkEnRstRelease)
    LL_RCU_Pll0Cfg                           0x08003a41   Thumb Code  1088  tae32g58xx_ll_rcu.o(.text.LL_RCU_Pll0Cfg)
    LL_RCU_SysclkGet                         0x08003e81   Thumb Code    12  tae32g58xx_ll_rcu.o(.text.LL_RCU_SysclkGet)
    LL_RCU_SysclkInit                        0x08003e8d   Thumb Code   480  tae32g58xx_ll_rcu.o(.text.LL_RCU_SysclkInit)
    LL_RCU_TMR0_ClkEnRstRelease              0x0800406d   Thumb Code    38  tae32g58xx_ll_rcu.o(.text.LL_RCU_TMR0_ClkEnRstRelease)
    LL_RCU_TMR10_ClkEnRstRelease             0x08004095   Thumb Code    38  tae32g58xx_ll_rcu.o(.text.LL_RCU_TMR10_ClkEnRstRelease)
    LL_RCU_TMR1_ClkEnRstRelease              0x080040bd   Thumb Code    38  tae32g58xx_ll_rcu.o(.text.LL_RCU_TMR1_ClkEnRstRelease)
    LL_RCU_TMR2_ClkEnRstRelease              0x080040e5   Thumb Code    38  tae32g58xx_ll_rcu.o(.text.LL_RCU_TMR2_ClkEnRstRelease)
    LL_RCU_TMR3_ClkEnRstRelease              0x0800410d   Thumb Code    38  tae32g58xx_ll_rcu.o(.text.LL_RCU_TMR3_ClkEnRstRelease)
    LL_RCU_TMR4_ClkEnRstRelease              0x08004135   Thumb Code    38  tae32g58xx_ll_rcu.o(.text.LL_RCU_TMR4_ClkEnRstRelease)
    LL_RCU_TMR7_ClkEnRstRelease              0x0800415d   Thumb Code    38  tae32g58xx_ll_rcu.o(.text.LL_RCU_TMR7_ClkEnRstRelease)
    LL_RCU_TMR8_ClkEnRstRelease              0x08004185   Thumb Code    38  tae32g58xx_ll_rcu.o(.text.LL_RCU_TMR8_ClkEnRstRelease)
    LL_RCU_TMR9_ClkEnRstRelease              0x080041ad   Thumb Code    38  tae32g58xx_ll_rcu.o(.text.LL_RCU_TMR9_ClkEnRstRelease)
    LL_RCU_UART0_ClkDisRstAssert             0x080041d5   Thumb Code    38  tae32g58xx_ll_rcu.o(.text.LL_RCU_UART0_ClkDisRstAssert)
    LL_RCU_UART0_ClkEnRstRelease             0x080041fd   Thumb Code    38  tae32g58xx_ll_rcu.o(.text.LL_RCU_UART0_ClkEnRstRelease)
    LL_RCU_UART1_ClkDisRstAssert             0x08004225   Thumb Code    38  tae32g58xx_ll_rcu.o(.text.LL_RCU_UART1_ClkDisRstAssert)
    LL_RCU_UART1_ClkEnRstRelease             0x0800424d   Thumb Code    38  tae32g58xx_ll_rcu.o(.text.LL_RCU_UART1_ClkEnRstRelease)
    LL_RCU_UART2_ClkDisRstAssert             0x08004275   Thumb Code    38  tae32g58xx_ll_rcu.o(.text.LL_RCU_UART2_ClkDisRstAssert)
    LL_RCU_UART2_ClkEnRstRelease             0x0800429d   Thumb Code    38  tae32g58xx_ll_rcu.o(.text.LL_RCU_UART2_ClkEnRstRelease)
    LL_RCU_UART3_ClkDisRstAssert             0x080042c5   Thumb Code    38  tae32g58xx_ll_rcu.o(.text.LL_RCU_UART3_ClkDisRstAssert)
    LL_RCU_UART3_ClkEnRstRelease             0x080042ed   Thumb Code    38  tae32g58xx_ll_rcu.o(.text.LL_RCU_UART3_ClkEnRstRelease)
    LL_RCU_UART4_ClkDisRstAssert             0x08004315   Thumb Code    38  tae32g58xx_ll_rcu.o(.text.LL_RCU_UART4_ClkDisRstAssert)
    LL_RCU_UART4_ClkEnRstRelease             0x0800433d   Thumb Code    38  tae32g58xx_ll_rcu.o(.text.LL_RCU_UART4_ClkEnRstRelease)
    LL_SYSTICK_Callback                      0x08004365   Thumb Code     2  tae32g58xx_ll_cortex.o(.text.LL_SYSTICK_Callback)
    LL_SYSTICK_Config                        0x08004369   Thumb Code    44  tae32g58xx_ll_cortex.o(.text.LL_SYSTICK_Config)
    LL_SYSTICK_IRQHandler                    0x08004395   Thumb Code     4  tae32g58xx_ll_cortex.o(.text.LL_SYSTICK_IRQHandler)
    LL_TMR_MspInit                           0x08004399   Thumb Code   326  tae32g58xx_ll_msp.o(.text.LL_TMR_MspInit)
    LL_UART_DeInit                           0x080044e1   Thumb Code   154  tae32g58xx_ll_uart.o(.text.LL_UART_DeInit)
    LL_UART_Init                             0x0800457d   Thumb Code   670  tae32g58xx_ll_uart.o(.text.LL_UART_Init)
    LL_UART_MspDeInit                        0x0800481d   Thumb Code   218  tae32g58xx_ll_msp.o(.text.LL_UART_MspDeInit)
    LL_UART_MspInit                          0x080048f9   Thumb Code   282  tae32g58xx_ll_msp.o(.text.LL_UART_MspInit)
    LL_UART_Transmit_CPU                     0x08004a15   Thumb Code   652  tae32g58xx_ll_uart.o(.text.LL_UART_Transmit_CPU)
    MemManage_Handler                        0x08004ca1   Thumb Code     2  tae32g58xx_it.o(.text.MemManage_Handler)
    NMI_Handler                              0x08004ca5   Thumb Code     2  tae32g58xx_it.o(.text.NMI_Handler)
    OTF_ChangeBank_Func                      0x08004ca9   Thumb Code    16  otf_download.o(.text.OTF_ChangeBank_Func)
    OTF_FwExcute                             0x08004cc9   Thumb Code    12  otf_download.o(.text.OTF_FwExcute)
    OTF_FwUpdata_Func                        0x08004ced   Thumb Code   140  otf_download.o(.text.OTF_FwUpdata_Func)
    OTF_GetKey                               0x08004e05   Thumb Code    42  otf_uart.o(.text.OTF_GetKey)
    OTF_RecvPacket                           0x08004e31   Thumb Code    70  otf_uart.o(.text.OTF_RecvPacket)
    OTF_RecviceFirmware                      0x08004e79   Thumb Code   672  otf_download.o(.text.OTF_RecviceFirmware)
    OTF_SerialDecode                         0x08005171   Thumb Code   228  otf_download.o(.text.OTF_SerialDecode)
    OTF_SerialSendByte                       0x08005255   Thumb Code    34  otf_uart.o(.text.OTF_SerialSendByte)
    OTF_SerialSendStr                        0x08005279   Thumb Code    32  otf_uart.o(.text.OTF_SerialSendStr)
    OTF_Show                                 0x08005299   Thumb Code    12  otf_download.o(.text.OTF_Show)
    OTF_Uart_DeInit                          0x080052c1   Thumb Code    12  otf_uart.o(.text.OTF_Uart_DeInit)
    OTF_Uart_Init                            0x080052cd   Thumb Code    84  otf_uart.o(.text.OTF_Uart_Init)
    OTF_UseVOFA                              0x08005321   Thumb Code    32  otf_download.o(.text.OTF_UseVOFA)
    OTF_WaitDownload                         0x0800534d   Thumb Code    94  otf_uart.o(.text.OTF_WaitDownload)
    PendSV_Handler                           0x080053ad   Thumb Code     2  tae32g58xx_it.o(.text.PendSV_Handler)
    Reset_Handler                            0x080053b1   Thumb Code     8  startup_tae32g58xx.o(.text.Reset_Handler)
    SVC_Handler                              0x080053b9   Thumb Code     2  tae32g58xx_it.o(.text.SVC_Handler)
    SysTick_Handler                          0x080053bd   Thumb Code    14  tae32g58xx_it.o(.text.SysTick_Handler)
    SystemCoreClockUpdate                    0x080053cd   Thumb Code    16  system_tae32g58xx.o(.text.SystemCoreClockUpdate)
    SystemInit                               0x080053dd   Thumb Code    58  system_tae32g58xx.o(.text.SystemInit)
    UsageFault_Handler                       0x08005419   Thumb Code     2  tae32g58xx_it.o(.text.UsageFault_Handler)
    User_VOFA_Init                           0x0800541d   Thumb Code   196  user_vofa.o(.text.User_VOFA_Init)
    Ymodem_FirstPacket                       0x080054e1   Thumb Code   156  ymodem.o(.text.Ymodem_FirstPacket)
    Ymodem_Talk                              0x0800557d   Thumb Code   352  ymodem.o(.text.Ymodem_Talk)
    crc_cal_by_byte                          0x080056dd   Thumb Code   190  crc.o(.text.crc_cal_by_byte)
    timer_init                               0x0800579d   Thumb Code    30  user_tmr.o(.text.timer_init)
    variable_init                            0x080057bd   Thumb Code   274  variable_define.o(.text.variable_init)
    __scatterload_copy                       0x080058cf   Thumb Code    14  handlers.o(i.__scatterload_copy)
    __scatterload_null                       0x080058dd   Thumb Code     2  handlers.o(i.__scatterload_null)
    __scatterload_zeroinit                   0x080058df   Thumb Code    14  handlers.o(i.__scatterload_zeroinit)
    crc_ta_8                                 0x080058ee   Data         512  crc.o(.rodata.crc_ta_8)
    Region$$Table$$Base                      0x08006068   Number         0  anon$$obj.o(Region$$Table)
    Load$$ER_IMP_TEXT$$Base                  0x080060b8   Number         0  anon$$obj.o ABSOLUTE
    Region$$Table$$Limit                     0x080060b8   Number         0  anon$$obj.o(Region$$Table)
    Load$$UPGRADE_INT_CODE$$Base             0x08007248   Number         0  anon$$obj.o ABSOLUTE
    Load$$SHARE_MEMORY$$Base                 0x080080f0   Number         0  anon$$obj.o ABSOLUTE
    main                                     0x0801e001   Thumb Code   388  main.o(SECTION_FIX_CODE)
    Bank_GetOtherBank                        0x0801e185   Thumb Code   196  bank_function.o(SECTION_FIX_CODE)
    Bank_GetThisBank                         0x0801e249   Thumb Code   196  bank_function.o(SECTION_FIX_CODE)
    Bank_CleanRAM                            0x0801e30d   Thumb Code     2  bank_function.o(SECTION_FIX_CODE)
    Bank_InitImp_Code                        0x0801e311   Thumb Code    44  bank_function.o(SECTION_FIX_CODE)
    Bank_Init_UpgradeCode                    0x0801e33d   Thumb Code    56  bank_function.o(SECTION_FIX_CODE)
    OTF_ChangeBankTask                       0x0801e375   Thumb Code   524  bank_function.o(SECTION_FIX_CODE)
    delay_us                                 0x0801e581   Thumb Code    66  eflash_changebank.o(SECTION_FIX_CODE)
    EFlash_BankChange                        0x0801e5c5   Thumb Code   164  eflash_changebank.o(SECTION_FIX_CODE)
    Long Thumb to Thumb Veneer to IMP_CodeBaseInit 0x0801e681   Thumb Code    10  anon$$obj.o(Veneer$$Code)
    Long Thumb to Thumb Veneer to user_vofa_tx 0x0801e68b   Thumb Code    10  anon$$obj.o(Veneer$$Code)
    Firmware                                 0x0801f000   Data          56  fixdata.o(SECTION_FIX_DATA)
    Firmware_OtherBank                       0x20002000   Data          56  variable_define.o(.ARM.__at_0x20002000)
    Image$$ARM_LIB_STACK$$ZI$$Limit          0x20002000   Number         0  anon$$obj.o ABSOLUTE
    Image$$SHARE_MEMORY$$Base                0x20002000   Number         0  anon$$obj.o ABSOLUTE
    Firmware_ThisBank                        0x20002038   Data          56  variable_define.o(.ARM.__at_0x20002038)
    import_flag                              0x20002174   Data           4  variable_define.o(.ARM.__at_0x20002174)
    PWM                                      0x20002178   Data          24  variable_define.o(.ARM.__at_0x20002178)
    PID_V_BUCK                               0x20002190   Data          36  variable_define.o(.ARM.__at_0x20002190)
    PID_V_BUCKBOOST                          0x200021b4   Data          36  variable_define.o(.ARM.__at_0x200021b4)
    DIR                                      0x200021d8   Data           3  variable_define.o(.ARM.__at_0x200021d8)
    MODE                                     0x200021dc   Data           6  variable_define.o(.ARM.__at_0x200021dc)
    vofa_otf_ChangeFlag                      0x200021e2   Data           1  variable_define.o(.ARM.__at_0x200021e2)
    UART0_RX_BUF                             0x200021f8   Data           8  variable_define.o(.ARM.__at_0x200021F8)
    temp_samp                                0x20002200   Data           2  variable_define.o(.ARM.__at_0x20002200)
    v1_samp                                  0x20002202   Data           2  variable_define.o(.ARM.__at_0x20002202)
    v2_samp                                  0x20002204   Data           2  variable_define.o(.ARM.__at_0x20002204)
    i1_samp                                  0x20002206   Data           2  variable_define.o(.ARM.__at_0x20002206)
    i2_samp                                  0x20002208   Data           2  variable_define.o(.ARM.__at_0x20002208)
    buck_in                                  0x2000220c   Data          20  variable_define.o(.ARM.__at_0x2000220C)
    buck_out                                 0x20002220   Data          20  variable_define.o(.ARM.__at_0x20002220)
    FSBB                                     0x20002234   Data         164  variable_define.o(.ARM.__at_0x20002234)
    PID_V_BOOST                              0x200022d8   Data          36  variable_define.o(.ARM.__at_0x200022d8)
    DATA                                     0x20002310   Data          16  variable_define.o(.ARM.__at_0x20002310)
    buck_a                                   0x20002320   Data          20  variable_define.o(.ARM.__at_0x20002320)
    buck_b                                   0x20002334   Data          20  variable_define.o(.ARM.__at_0x20002334)
    pwm_count                                0x20002350   Data           4  bcb.o(.ARM.__at_0x20002350)
    uwTick                                   0x20002354   Data           4  tae32g58xx_ll.o(.ARM.__at_0x20002354)
    PID_I_BUCK                               0x20002358   Data          36  variable_define.o(.ARM.__at_0x20002358)
    PID_I_BUCKBOOST                          0x2000237c   Data          36  variable_define.o(.ARM.__at_0x2000237c)
    PID_I_BOOST                              0x200023a0   Data          36  variable_define.o(.ARM.__at_0x200023a0)
    PID_P                                    0x200023c4   Data          36  variable_define.o(.ARM.__at_0x200023c4)
    tx_vofa_data                             0x200023e8   Data          24  variable_define.o(.ARM.__at_0x200023e8)
    Image$$ER_IMP_TEXT$$Base                 0x20006000   Number         0  anon$$obj.o ABSOLUTE
    SRAM_VECTOR_TABLE                        0x20006000   Data         416  startup_tae32g58xx.o(.ARM.__at_0x20006000)
    Long Thumb to Thumb Veneer to OTF_SerialSendStr 0x200061a1   Thumb Code    10  anon$$obj.o(Veneer$$Code)
    Long Thumb to Thumb Veneer to SystemCoreClockUpdate 0x200061ab   Thumb Code    10  anon$$obj.o(Veneer$$Code)
    Long Thumb to Thumb Veneer to __aeabi_ui2d 0x200061b5   Thumb Code    10  anon$$obj.o(Veneer$$Code)
    Long Thumb to Thumb Veneer to __aeabi_dmul 0x200061bf   Thumb Code    10  anon$$obj.o(Veneer$$Code)
    Long Thumb to Thumb Veneer to __aeabi_d2uiz 0x200061c9   Thumb Code    10  anon$$obj.o(Veneer$$Code)
    Long Thumb to Thumb Veneer to CMP_INIT   0x200061d3   Thumb Code    10  anon$$obj.o(Veneer$$Code)
    Long Thumb to Thumb Veneer to DAC_INIT   0x200061dd   Thumb Code    10  anon$$obj.o(Veneer$$Code)
    Long Thumb to Thumb Veneer to HRPWM_OFF  0x200061e7   Thumb Code    10  anon$$obj.o(Veneer$$Code)
    Long Thumb to Thumb Veneer to Comm_Flt0Callback 0x200061f1   Thumb Code    10  anon$$obj.o(Veneer$$Code)
    Long Thumb to Thumb Veneer to Comm_Flt3Callback 0x200061fb   Thumb Code    10  anon$$obj.o(Veneer$$Code)
    Long Thumb to Thumb Veneer to Comm_Flt4Callback 0x20006205   Thumb Code    10  anon$$obj.o(Veneer$$Code)
    Long Thumb to Thumb Veneer to Comm_Flt6Callback 0x2000620f   Thumb Code    10  anon$$obj.o(Veneer$$Code)
    Long Thumb to Thumb Veneer to ADC_INIT   0x20006219   Thumb Code    10  anon$$obj.o(Veneer$$Code)
    Long Thumb to Thumb Veneer to LL_GPIO_WritePin 0x20006223   Thumb Code    10  anon$$obj.o(Veneer$$Code)
    Long Thumb to Thumb Veneer to HRPWM_ON   0x2000622d   Thumb Code    10  anon$$obj.o(Veneer$$Code)
    IMP_CodeBaseInit                         0x20006239   Thumb Code    40  imp_baseinit.o(.text.IMP_CodeBaseInit)
    get_ad_data                              0x20006275   Thumb Code   266  adc_init.o(SECTION_IMP_CODE)
    filter_data                              0x20006381   Thumb Code    90  adc_init.o(SECTION_IMP_CODE)
    test_code                                0x200063dd   Thumb Code     2  adc_init.o(SECTION_IMP_CODE)
    ADC0_EOS_CALLBACK                        0x200063e1   Thumb Code   464  adc_init.o(SECTION_IMP_CODE)
    timer_on_it                              0x200065b1   Thumb Code    40  user_tmr.o(SECTION_IMP_CODE)
    timer_off_it                             0x200065d9   Thumb Code    26  user_tmr.o(SECTION_IMP_CODE)
    timer4_overflow_it                       0x200065f5   Thumb Code    46  user_tmr.o(SECTION_IMP_CODE)
    ADC0_NORM_IRQHandler                     0x20006625   Thumb Code    38  user_imp_interrupts.o(SECTION_IMP_CODE)
    HRPWM_COMM_IRQHandler                    0x2000664d   Thumb Code   120  user_imp_interrupts.o(SECTION_IMP_CODE)
    UART0_IRQHandler                         0x200066c5   Thumb Code    48  user_imp_interrupts.o(SECTION_IMP_CODE)
    TMR4_IRQHandler                          0x200066f5   Thumb Code    38  user_imp_interrupts.o(SECTION_IMP_CODE)
    user_vofa_tx                             0x2000671d   Thumb Code    28  user_vofa.o(SECTION_IMP_CODE)
    FSBB_handle                              0x20006739   Thumb Code   664  bcb.o(SECTION_IMP_CODE)
    FSBB_state_check                         0x200069d1   Thumb Code   744  bcb.o(SECTION_IMP_CODE)
    FSBB_IDLE_PROCESS                        0x20006cb9   Thumb Code    64  bcb.o(SECTION_IMP_CODE)
    FSBB_ON_PROCESS                          0x20006cf9   Thumb Code    76  bcb.o(SECTION_IMP_CODE)
    FSBB_FAULT_PROCESS                       0x20006d45   Thumb Code    66  bcb.o(SECTION_IMP_CODE)
    HRPWM_UPDATE                             0x20006d89   Thumb Code   684  bcb.o(SECTION_IMP_CODE)
    calc_PI_V_BUCK                           0x20007035   Thumb Code   112  bcb_pid.o(SECTION_IMP_CODE)
    calc_PI_I_BUCK                           0x200070a5   Thumb Code   112  bcb_pid.o(SECTION_IMP_CODE)
    calc_PI_P                                0x20007115   Thumb Code   112  bcb_pid.o(SECTION_IMP_CODE)
    uwTickFreq                               0x20007184   Data           1  tae32g58xx_ll.o(.data..L_MergedGlobals)
    uwTickPrio                               0x20007188   Data           4  tae32g58xx_ll.o(.data..L_MergedGlobals)
    SystemCoreClock                          0x2000718c   Data           4  system_tae32g58xx.o(.data.SystemCoreClock)
    OTF_RxBuf                                0x20007190   Data        1029  otf_download.o(.bss.OTF_RxBuf)
    file_name                                0x20007598   Data          64  ymodem.o(.bss.file_name)
    Image$$UPGRADE_INT_CODE$$Base            0x20018000   Number         0  anon$$obj.o ABSOLUTE
    UPGRADE_VECTOR_TABLE                     0x20018000   Data         416  startup_tae32g58xx.o(.ARM.__at_0x20018000)
    UPGARDE_ADC0_NORM_IRQHandler             0x200181a1   Thumb Code    38  user_upgrade_interrupts.o(SECTION_UPGRADE_CODE)
    UPGARDE_HRPWM_COMM_IRQHandler            0x200181c9   Thumb Code   120  user_upgrade_interrupts.o(SECTION_UPGRADE_CODE)
    UPGARDE_UART0_IRQHandler                 0x20018241   Thumb Code    48  user_upgrade_interrupts.o(SECTION_UPGRADE_CODE)
    UPGARDE_TMR4_IRQHandler                  0x20018271   Thumb Code    38  user_upgrade_interrupts.o(SECTION_UPGRADE_CODE)
    Upgrade_get_ad_data                      0x20018299   Thumb Code   266  upgrade_adc.o(SECTION_UPGRADE_CODE)
    Upgrade_filter_data                      0x200183a5   Thumb Code    90  upgrade_adc.o(SECTION_UPGRADE_CODE)
    Upgrade_ADC0_EOS_CALLBACK                0x20018401   Thumb Code   464  upgrade_adc.o(SECTION_UPGRADE_CODE)
    Upgrade_timer_on_it                      0x200185d1   Thumb Code    40  upgrade_tmr.o(SECTION_UPGRADE_CODE)
    Upgrade_timer_off_it                     0x200185f9   Thumb Code    26  upgrade_tmr.o(SECTION_UPGRADE_CODE)
    Upgrade_timer4_overflow_it               0x20018615   Thumb Code    46  upgrade_tmr.o(SECTION_UPGRADE_CODE)
    Upgrade_FSBB_handle                      0x20018645   Thumb Code   510  upgrade_bcb.o(SECTION_UPGRADE_CODE)
    Upgrade_FSBB_state_check                 0x20018845   Thumb Code   744  upgrade_bcb.o(SECTION_UPGRADE_CODE)
    Upgrade_FSBB_IDLE_PROCESS                0x20018b2d   Thumb Code    64  upgrade_bcb.o(SECTION_UPGRADE_CODE)
    Upgrade_FSBB_ON_PROCESS                  0x20018b6d   Thumb Code    76  upgrade_bcb.o(SECTION_UPGRADE_CODE)
    Upgrade_FSBB_FAULT_PROCESS               0x20018bb9   Thumb Code    66  upgrade_bcb.o(SECTION_UPGRADE_CODE)
    Upgrade_HRPWM_UPDATE                     0x20018bfd   Thumb Code   684  upgrade_bcb.o(SECTION_UPGRADE_CODE)



==============================================================================

Memory Map of the image

  Image Entry point : 0x08000009

  Load Region LR_BANK (Base: 0x08000000, Size: 0x000084f0, Max: 0x0001c000, ABSOLUTE, COMPRESSED[0x000080fc])

    Execution Region ER_ROM (Exec base: 0x08000000, Load base: 0x08000000, Size: 0x000060b8, Max: 0x0001c000, ABSOLUTE)

    Exec Addr    Load Addr    Size         Type   Attr      Idx    E Section Name        Object

    0x08000000   0x08000000   0x00000008   Data   RO           86    RESET               startup_tae32g58xx.o
    0x08000008   0x08000008   0x00000000   Code   RO         1726  * .ARM.Collect$$$$00000000  mc_w.l(entry.o)
    0x08000008   0x08000008   0x00000004   Code   RO         1757    .ARM.Collect$$$$00000003  mc_w.l(entry4.o)
    0x0800000c   0x0800000c   0x00000004   Code   RO         1760    .ARM.Collect$$$$00000004  mc_w.l(entry5.o)
    0x08000010   0x08000010   0x00000000   Code   RO         1762    .ARM.Collect$$$$00000008  mc_w.l(entry7b.o)
    0x08000010   0x08000010   0x00000000   Code   RO         1764    .ARM.Collect$$$$0000000A  mc_w.l(entry8b.o)
    0x08000010   0x08000010   0x00000008   Code   RO         1765    .ARM.Collect$$$$0000000B  mc_w.l(entry9a.o)
    0x08000018   0x08000018   0x00000000   Code   RO         1767    .ARM.Collect$$$$0000000D  mc_w.l(entry10a.o)
    0x08000018   0x08000018   0x00000000   Code   RO         1769    .ARM.Collect$$$$0000000F  mc_w.l(entry11a.o)
    0x08000018   0x08000018   0x00000004   Code   RO         1758    .ARM.Collect$$$$00002714  mc_w.l(entry4.o)
    0x0800001c   0x0800001c   0x00000024   Code   RO         1729    .text               mc_w.l(memcpya.o)
    0x08000040   0x08000040   0x00000024   Code   RO         1731    .text               mc_w.l(memseta.o)
    0x08000064   0x08000064   0x0000000e   Code   RO         1733    .text               mc_w.l(strlen.o)
    0x08000072   0x08000072   0x0000001c   Code   RO         1735    .text               mc_w.l(strcmp.o)
    0x0800008e   0x0800008e   0x0000001e   Code   RO         1737    .text               mc_w.l(strncmp.o)
    0x080000ac   0x080000ac   0x0000014e   Code   RO         1741    .text               mf_w.l(dadd.o)
    0x080001fa   0x080001fa   0x000000e4   Code   RO         1743    .text               mf_w.l(dmul.o)
    0x080002de   0x080002de   0x000000de   Code   RO         1745    .text               mf_w.l(ddiv.o)
    0x080003bc   0x080003bc   0x00000022   Code   RO         1747    .text               mf_w.l(dflti.o)
    0x080003de   0x080003de   0x0000001a   Code   RO         1749    .text               mf_w.l(dfltui.o)
    0x080003f8   0x080003f8   0x0000003e   Code   RO         1751    .text               mf_w.l(dfixi.o)
    0x08000436   0x08000436   0x00000032   Code   RO         1753    .text               mf_w.l(dfixui.o)
    0x08000468   0x08000468   0x00000038   Code   RO         1755    .text               mf_w.l(d2f.o)
    0x080004a0   0x080004a0   0x0000001e   Code   RO         1771    .text               mc_w.l(llshl.o)
    0x080004be   0x080004be   0x00000020   Code   RO         1773    .text               mc_w.l(llushr.o)
    0x080004de   0x080004de   0x00000024   Code   RO         1775    .text               mc_w.l(llsshr.o)
    0x08000502   0x08000502   0x00000000   Code   RO         1777    .text               mc_w.l(iusefp.o)
    0x08000502   0x08000502   0x0000006e   Code   RO         1778    .text               mf_w.l(fepilogue.o)
    0x08000570   0x08000570   0x000000ba   Code   RO         1780    .text               mf_w.l(depilogue.o)
    0x0800062a   0x0800062a   0x00000002   PAD
    0x0800062c   0x0800062c   0x00000024   Code   RO         1782    .text               mc_w.l(init.o)
    0x08000650   0x08000650   0x0000003a   Code   RO         1792    .text               mc_w.l(__dczerorl.o)
    0x0800068a   0x0800068a   0x00000002   PAD
    0x0800068c   0x0800068c   0x000001ae   Code   RO         1498    .text.ADC_INIT      adc_init.o
    0x0800083a   0x0800083a   0x00000002   PAD
    0x0800083c   0x0800083c   0x000000bc   Code   RO            6    .text.BaseInit      main.o
    0x080008f8   0x080008f8   0x00000002   Code   RO           27    .text.BusFault_Handler  tae32g58xx_it.o
    0x080008fa   0x080008fa   0x00000002   PAD
    0x080008fc   0x080008fc   0x0000011e   Code   RO         1556    .text.CMP_INIT      cmp_dac.o
    0x08000a1a   0x08000a1a   0x00000006   PAD
    0x08000a20   0x08000a20   0x00000240   Code   RO         1631    .text.COMMUNICATE_DECODE  user_vofa.o
    0x08000c60   0x08000c60   0x00000050   Code   RO         1531    .text.Comm_Flt0Callback  user_hrpwm.o
    0x08000cb0   0x08000cb0   0x00000038   Code   RO         1525    .text.Comm_Flt3Callback  user_hrpwm.o
    0x08000ce8   0x08000ce8   0x00000038   Code   RO         1527    .text.Comm_Flt4Callback  user_hrpwm.o
    0x08000d20   0x08000d20   0x00000038   Code   RO         1529    .text.Comm_Flt6Callback  user_hrpwm.o
    0x08000d58   0x08000d58   0x0000011a   Code   RO         1558    .text.DAC_INIT      cmp_dac.o
    0x08000e72   0x08000e72   0x00000002   PAD
    0x08000e74   0x08000e74   0x00000002   Code   RO           33    .text.DebugMon_Handler  tae32g58xx_it.o
    0x08000e76   0x08000e76   0x00000002   PAD
    0x08000e78   0x08000e78   0x00000002   Code   RO           80    .text.Default_Handler  startup_tae32g58xx.o
    0x08000e7a   0x08000e7a   0x00000002   PAD
    0x08000e7c   0x08000e7c   0x000000b0   Code   RO          754    .text.EFLASH_EraseComm  tae32g58xx_ll_eflash.o
    0x08000f2c   0x08000f2c   0x0000000c   Code   RO         1360    .text.EFlash_EraseBank  otf_eflash.o
    0x08000f38   0x08000f38   0x00000024   Code   RO         1362    .text.EFlash_EraseSensor  otf_eflash.o
    0x08000f5c   0x08000f5c   0x00000014   Code   RO         1358    .text.EFlash_Init   otf_eflash.o
    0x08000f70   0x08000f70   0x00000012   Code   RO         1364    .text.EFlash_WritePack  otf_eflash.o
    0x08000f82   0x08000f82   0x00000002   PAD
    0x08000f84   0x08000f84   0x000000f2   Code   RO         1489    .text.GPIO_INIT     user_gpio.o
    0x08001076   0x08001076   0x00000002   PAD
    0x08001078   0x08001078   0x0000000e   Code   RO         1523    .text.HRPWM_COUNT_NUM_INIT  user_hrpwm.o
    0x08001086   0x08001086   0x00000002   PAD
    0x08001088   0x08001088   0x00000200   Code   RO         1517    .text.HRPWM_INIT    user_hrpwm.o
    0x08001288   0x08001288   0x00000010   Code   RO         1521    .text.HRPWM_OFF     user_hrpwm.o
    0x08001298   0x08001298   0x0000001e   Code   RO         1519    .text.HRPWM_ON      user_hrpwm.o
    0x080012b6   0x080012b6   0x00000002   PAD
    0x080012b8   0x080012b8   0x00000002   Code   RO           23    .text.HardFault_Handler  tae32g58xx_it.o
    0x080012ba   0x080012ba   0x00000002   PAD
    0x080012bc   0x080012bc   0x000000fe   Code   RO         1014    .text.LL_ADC_Cal_Cfg  tae32g58xx_ll_adc.o
    0x080013ba   0x080013ba   0x00000002   PAD
    0x080013bc   0x080013bc   0x00000144   Code   RO         1012    .text.LL_ADC_DMA_Cfg  tae32g58xx_ll_adc.o
    0x08001500   0x08001500   0x00000176   Code   RO          990    .text.LL_ADC_Init   tae32g58xx_ll_adc.o
    0x08001676   0x08001676   0x00000002   PAD
    0x08001678   0x08001678   0x0000008c   Code   RO           54    .text.LL_ADC_MspInit  tae32g58xx_ll_msp.o
    0x08001704   0x08001704   0x00000124   Code   RO         1002    .text.LL_ADC_REG_ChCfg  tae32g58xx_ll_adc.o
    0x08001828   0x08001828   0x000000a6   Code   RO         1000    .text.LL_ADC_REG_ComCfg  tae32g58xx_ll_adc.o
    0x080018ce   0x080018ce   0x00000002   PAD
    0x080018d0   0x080018d0   0x00000156   Code   RO         1275    .text.LL_CMP_Init   tae32g58xx_ll_cmp.o
    0x08001a26   0x08001a26   0x00000002   PAD
    0x08001a28   0x08001a28   0x0000016c   Code   RO           62    .text.LL_CMP_MspInit  tae32g58xx_ll_msp.o
    0x08001b94   0x08001b94   0x00000020   Code   RO         1283    .text.LL_CMP_Start  tae32g58xx_ll_cmp.o
    0x08001bb4   0x08001bb4   0x000000d8   Code   RO         1241    .text.LL_DAC_Init   tae32g58xx_ll_dac.o
    0x08001c8c   0x08001c8c   0x0000005e   Code   RO           64    .text.LL_DAC_MspInit  tae32g58xx_ll_msp.o
    0x08001cea   0x08001cea   0x00000002   PAD
    0x08001cec   0x08001cec   0x00000020   Code   RO         1253    .text.LL_DAC_Start  tae32g58xx_ll_dac.o
    0x08001d0c   0x08001d0c   0x0000001c   Code   RO         1257    .text.LL_DAC_ValueSet  tae32g58xx_ll_dac.o
    0x08001d28   0x08001d28   0x00000028   Code   RO          128    .text.LL_Delay      tae32g58xx_ll.o
    0x08001d50   0x08001d50   0x0000005a   Code   RO          758    .text.LL_EFLASH_EraseBank1  tae32g58xx_ll_eflash.o
    0x08001daa   0x08001daa   0x00000002   PAD
    0x08001dac   0x08001dac   0x00000162   Code   RO          748    .text.LL_EFLASH_EraseMultiSector  tae32g58xx_ll_eflash.o
    0x08001f0e   0x08001f0e   0x00000002   PAD
    0x08001f10   0x08001f10   0x00000162   Code   RO          742    .text.LL_EFLASH_Program  tae32g58xx_ll_eflash.o
    0x08002072   0x08002072   0x00000002   PAD
    0x08002074   0x08002074   0x00000156   Code   RO          714    .text.LL_EFLASH_WaitForBusyState  tae32g58xx_ll_eflash.o
    0x080021ca   0x080021ca   0x00000002   PAD
    0x080021cc   0x080021cc   0x000001b2   Code   RO          686    .text.LL_GPIO_DeInit  tae32g58xx_ll_gpio.o
    0x0800237e   0x0800237e   0x00000002   PAD
    0x08002380   0x08002380   0x000001ae   Code   RO          684    .text.LL_GPIO_Init  tae32g58xx_ll_gpio.o
    0x0800252e   0x0800252e   0x00000002   PAD
    0x08002530   0x08002530   0x0000002e   Code   RO          690    .text.LL_GPIO_ReadPin  tae32g58xx_ll_gpio.o
    0x0800255e   0x0800255e   0x00000002   PAD
    0x08002560   0x08002560   0x00000030   Code   RO          692    .text.LL_GPIO_WritePin  tae32g58xx_ll_gpio.o
    0x08002590   0x08002590   0x0000000c   Code   RO          120    .text.LL_GetTick    tae32g58xx_ll.o
    0x0800259c   0x0800259c   0x0000022c   Code   RO          860    .text.LL_HRPWM_Comm_ADCTrigCfg  tae32g58xx_ll_hrpwm.o
    0x080027c8   0x080027c8   0x0000002c   Code   RO          902    .text.LL_HRPWM_Comm_DLL_Start  tae32g58xx_ll_hrpwm.o
    0x080027f4   0x080027f4   0x00000182   Code   RO          858    .text.LL_HRPWM_Comm_FltCfg  tae32g58xx_ll_hrpwm.o
    0x08002976   0x08002976   0x00000002   PAD
    0x08002978   0x08002978   0x0000001c   Code   RO          822    .text.LL_HRPWM_Init  tae32g58xx_ll_hrpwm.o
    0x08002994   0x08002994   0x00000050   Code   RO           58    .text.LL_HRPWM_MspInit  tae32g58xx_ll_msp.o
    0x080029e4   0x080029e4   0x00000086   Code   RO          840    .text.LL_HRPWM_RegUpd_Frc  tae32g58xx_ll_hrpwm.o
    0x08002a6a   0x08002a6a   0x00000002   PAD
    0x08002a6c   0x08002a6c   0x000001e8   Code   RO          848    .text.LL_HRPWM_Slv_OutputCfg  tae32g58xx_ll_hrpwm.o
    0x08002c54   0x08002c54   0x00000042   Code   RO          884    .text.LL_HRPWM_Slv_Output_Start  tae32g58xx_ll_hrpwm.o
    0x08002c96   0x08002c96   0x00000002   PAD
    0x08002c98   0x08002c98   0x0000027a   Code   RO          832    .text.LL_HRPWM_TmrBaseCfg  tae32g58xx_ll_hrpwm.o
    0x08002f12   0x08002f12   0x00000002   PAD
    0x08002f14   0x08002f14   0x0000019a   Code   RO          834    .text.LL_HRPWM_TmrCmpCfg  tae32g58xx_ll_hrpwm.o
    0x080030ae   0x080030ae   0x00000002   PAD
    0x080030b0   0x080030b0   0x0000001a   Code   RO          118    .text.LL_IncTick    tae32g58xx_ll.o
    0x080030ca   0x080030ca   0x00000002   PAD
    0x080030cc   0x080030cc   0x00000030   Code   RO          108    .text.LL_Init       tae32g58xx_ll.o
    0x080030fc   0x080030fc   0x00000048   Code   RO          110    .text.LL_InitTick   tae32g58xx_ll.o
    0x08003144   0x08003144   0x0000004a   Code   RO           46    .text.LL_MspInit    tae32g58xx_ll_msp.o
    0x0800318e   0x0800318e   0x00000002   PAD
    0x08003190   0x08003190   0x0000002e   Code   RO          792    .text.LL_NVIC_DisableIRQ  tae32g58xx_ll_cortex.o
    0x080031be   0x080031be   0x00000002   PAD
    0x080031c0   0x080031c0   0x00000026   Code   RO          790    .text.LL_NVIC_EnableIRQ  tae32g58xx_ll_cortex.o
    0x080031e6   0x080031e6   0x00000002   PAD
    0x080031e8   0x080031e8   0x00000064   Code   RO          786    .text.LL_NVIC_SetPriority  tae32g58xx_ll_cortex.o
    0x0800324c   0x0800324c   0x00000028   Code   RO          782    .text.LL_NVIC_SetPriorityGrouping  tae32g58xx_ll_cortex.o
    0x08003274   0x08003274   0x0000002e   Code   RO          346    .text.LL_RCU_ADC0_ClkEnRstRelease  tae32g58xx_ll_rcu.o
    0x080032a2   0x080032a2   0x00000002   PAD
    0x080032a4   0x080032a4   0x0000002e   Code   RO          350    .text.LL_RCU_ADC1_ClkEnRstRelease  tae32g58xx_ll_rcu.o
    0x080032d2   0x080032d2   0x00000002   PAD
    0x080032d4   0x080032d4   0x00000046   Code   RO          158    .text.LL_RCU_ADC_ClkCfg  tae32g58xx_ll_rcu.o
    0x0800331a   0x0800331a   0x00000002   PAD
    0x0800331c   0x0800331c   0x0000001e   Code   RO          172    .text.LL_RCU_APB0ClkGet  tae32g58xx_ll_rcu.o
    0x0800333a   0x0800333a   0x00000002   PAD
    0x0800333c   0x0800333c   0x0000001e   Code   RO          174    .text.LL_RCU_APB1ClkGet  tae32g58xx_ll_rcu.o
    0x0800335a   0x0800335a   0x00000002   PAD
    0x0800335c   0x0800335c   0x00000026   Code   RO          366    .text.LL_RCU_CMP_ClkEnRstRelease  tae32g58xx_ll_rcu.o
    0x08003382   0x08003382   0x00000002   PAD
    0x08003384   0x08003384   0x00000026   Code   RO          362    .text.LL_RCU_DAC_ClkEnRstRelease  tae32g58xx_ll_rcu.o
    0x080033aa   0x080033aa   0x00000002   PAD
    0x080033ac   0x080033ac   0x00000026   Code   RO          182    .text.LL_RCU_DMA_ClkEnRstRelease  tae32g58xx_ll_rcu.o
    0x080033d2   0x080033d2   0x00000002   PAD
    0x080033d4   0x080033d4   0x00000026   Code   RO          178    .text.LL_RCU_EFLASH_ClkEnRstRelease  tae32g58xx_ll_rcu.o
    0x080033fa   0x080033fa   0x00000002   PAD
    0x080033fc   0x080033fc   0x00000026   Code   RO          266    .text.LL_RCU_GPIOA_ClkEnRstRelease  tae32g58xx_ll_rcu.o
    0x08003422   0x08003422   0x00000002   PAD
    0x08003424   0x08003424   0x00000026   Code   RO          270    .text.LL_RCU_GPIOB_ClkEnRstRelease  tae32g58xx_ll_rcu.o
    0x0800344a   0x0800344a   0x00000002   PAD
    0x0800344c   0x0800344c   0x00000026   Code   RO          274    .text.LL_RCU_GPIOC_ClkEnRstRelease  tae32g58xx_ll_rcu.o
    0x08003472   0x08003472   0x00000002   PAD
    0x08003474   0x08003474   0x00000026   Code   RO          278    .text.LL_RCU_GPIOD_ClkEnRstRelease  tae32g58xx_ll_rcu.o
    0x0800349a   0x0800349a   0x00000002   PAD
    0x0800349c   0x0800349c   0x00000026   Code   RO          282    .text.LL_RCU_GPIOE_ClkEnRstRelease  tae32g58xx_ll_rcu.o
    0x080034c2   0x080034c2   0x00000002   PAD
    0x080034c4   0x080034c4   0x00000026   Code   RO          286    .text.LL_RCU_GPIOF_ClkEnRstRelease  tae32g58xx_ll_rcu.o
    0x080034ea   0x080034ea   0x00000002   PAD
    0x080034ec   0x080034ec   0x0000002e   Code   RO          374    .text.LL_RCU_HRPWM0_ClkEnRstRelease  tae32g58xx_ll_rcu.o
    0x0800351a   0x0800351a   0x00000002   PAD
    0x0800351c   0x0800351c   0x0000002e   Code   RO          382    .text.LL_RCU_HRPWM2_ClkEnRstRelease  tae32g58xx_ll_rcu.o
    0x0800354a   0x0800354a   0x00000002   PAD
    0x0800354c   0x0800354c   0x0000002e   Code   RO          386    .text.LL_RCU_HRPWM3_ClkEnRstRelease  tae32g58xx_ll_rcu.o
    0x0800357a   0x0800357a   0x00000002   PAD
    0x0800357c   0x0800357c   0x00000038   Code   RO          160    .text.LL_RCU_HRPWM_ClkCfg  tae32g58xx_ll_rcu.o
    0x080035b4   0x080035b4   0x0000009e   Code   RO          370    .text.LL_RCU_HRPWM_ClkEnRstRelease  tae32g58xx_ll_rcu.o
    0x08003652   0x08003652   0x00000002   PAD
    0x08003654   0x08003654   0x000003e8   Code   RO          176    .text.LL_RCU_PLL0Cali  tae32g58xx_ll_rcu.o
    0x08003a3c   0x08003a3c   0x00000004   PAD
    0x08003a40   0x08003a40   0x00000440   Code   RO          156    .text.LL_RCU_Pll0Cfg  tae32g58xx_ll_rcu.o
    0x08003e80   0x08003e80   0x0000000c   Code   RO          168    .text.LL_RCU_SysclkGet  tae32g58xx_ll_rcu.o
    0x08003e8c   0x08003e8c   0x000001e0   Code   RO          154    .text.LL_RCU_SysclkInit  tae32g58xx_ll_rcu.o
    0x0800406c   0x0800406c   0x00000026   Code   RO          190    .text.LL_RCU_TMR0_ClkEnRstRelease  tae32g58xx_ll_rcu.o
    0x08004092   0x08004092   0x00000002   PAD
    0x08004094   0x08004094   0x00000026   Code   RO          222    .text.LL_RCU_TMR10_ClkEnRstRelease  tae32g58xx_ll_rcu.o
    0x080040ba   0x080040ba   0x00000002   PAD
    0x080040bc   0x080040bc   0x00000026   Code   RO          194    .text.LL_RCU_TMR1_ClkEnRstRelease  tae32g58xx_ll_rcu.o
    0x080040e2   0x080040e2   0x00000002   PAD
    0x080040e4   0x080040e4   0x00000026   Code   RO          198    .text.LL_RCU_TMR2_ClkEnRstRelease  tae32g58xx_ll_rcu.o
    0x0800410a   0x0800410a   0x00000002   PAD
    0x0800410c   0x0800410c   0x00000026   Code   RO          202    .text.LL_RCU_TMR3_ClkEnRstRelease  tae32g58xx_ll_rcu.o
    0x08004132   0x08004132   0x00000002   PAD
    0x08004134   0x08004134   0x00000026   Code   RO          206    .text.LL_RCU_TMR4_ClkEnRstRelease  tae32g58xx_ll_rcu.o
    0x0800415a   0x0800415a   0x00000002   PAD
    0x0800415c   0x0800415c   0x00000026   Code   RO          210    .text.LL_RCU_TMR7_ClkEnRstRelease  tae32g58xx_ll_rcu.o
    0x08004182   0x08004182   0x00000002   PAD
    0x08004184   0x08004184   0x00000026   Code   RO          214    .text.LL_RCU_TMR8_ClkEnRstRelease  tae32g58xx_ll_rcu.o
    0x080041aa   0x080041aa   0x00000002   PAD
    0x080041ac   0x080041ac   0x00000026   Code   RO          218    .text.LL_RCU_TMR9_ClkEnRstRelease  tae32g58xx_ll_rcu.o
    0x080041d2   0x080041d2   0x00000002   PAD
    0x080041d4   0x080041d4   0x00000026   Code   RO          304    .text.LL_RCU_UART0_ClkDisRstAssert  tae32g58xx_ll_rcu.o
    0x080041fa   0x080041fa   0x00000002   PAD
    0x080041fc   0x080041fc   0x00000026   Code   RO          302    .text.LL_RCU_UART0_ClkEnRstRelease  tae32g58xx_ll_rcu.o
    0x08004222   0x08004222   0x00000002   PAD
    0x08004224   0x08004224   0x00000026   Code   RO          308    .text.LL_RCU_UART1_ClkDisRstAssert  tae32g58xx_ll_rcu.o
    0x0800424a   0x0800424a   0x00000002   PAD
    0x0800424c   0x0800424c   0x00000026   Code   RO          306    .text.LL_RCU_UART1_ClkEnRstRelease  tae32g58xx_ll_rcu.o
    0x08004272   0x08004272   0x00000002   PAD
    0x08004274   0x08004274   0x00000026   Code   RO          312    .text.LL_RCU_UART2_ClkDisRstAssert  tae32g58xx_ll_rcu.o
    0x0800429a   0x0800429a   0x00000002   PAD
    0x0800429c   0x0800429c   0x00000026   Code   RO          310    .text.LL_RCU_UART2_ClkEnRstRelease  tae32g58xx_ll_rcu.o
    0x080042c2   0x080042c2   0x00000002   PAD
    0x080042c4   0x080042c4   0x00000026   Code   RO          316    .text.LL_RCU_UART3_ClkDisRstAssert  tae32g58xx_ll_rcu.o
    0x080042ea   0x080042ea   0x00000002   PAD
    0x080042ec   0x080042ec   0x00000026   Code   RO          314    .text.LL_RCU_UART3_ClkEnRstRelease  tae32g58xx_ll_rcu.o
    0x08004312   0x08004312   0x00000002   PAD
    0x08004314   0x08004314   0x00000026   Code   RO          320    .text.LL_RCU_UART4_ClkDisRstAssert  tae32g58xx_ll_rcu.o
    0x0800433a   0x0800433a   0x00000002   PAD
    0x0800433c   0x0800433c   0x00000026   Code   RO          318    .text.LL_RCU_UART4_ClkEnRstRelease  tae32g58xx_ll_rcu.o
    0x08004362   0x08004362   0x00000002   PAD
    0x08004364   0x08004364   0x00000002   Code   RO          812    .text.LL_SYSTICK_Callback  tae32g58xx_ll_cortex.o
    0x08004366   0x08004366   0x00000002   PAD
    0x08004368   0x08004368   0x0000002c   Code   RO          808    .text.LL_SYSTICK_Config  tae32g58xx_ll_cortex.o
    0x08004394   0x08004394   0x00000004   Code   RO          810    .text.LL_SYSTICK_IRQHandler  tae32g58xx_ll_cortex.o
    0x08004398   0x08004398   0x00000146   Code   RO           68    .text.LL_TMR_MspInit  tae32g58xx_ll_msp.o
    0x080044de   0x080044de   0x00000002   PAD
    0x080044e0   0x080044e0   0x0000009a   Code   RO          545    .text.LL_UART_DeInit  tae32g58xx_ll_uart.o
    0x0800457a   0x0800457a   0x00000002   PAD
    0x0800457c   0x0800457c   0x0000029e   Code   RO          541    .text.LL_UART_Init  tae32g58xx_ll_uart.o
    0x0800481a   0x0800481a   0x00000002   PAD
    0x0800481c   0x0800481c   0x000000da   Code   RO           52    .text.LL_UART_MspDeInit  tae32g58xx_ll_msp.o
    0x080048f6   0x080048f6   0x00000002   PAD
    0x080048f8   0x080048f8   0x0000011a   Code   RO           50    .text.LL_UART_MspInit  tae32g58xx_ll_msp.o
    0x08004a12   0x08004a12   0x00000002   PAD
    0x08004a14   0x08004a14   0x0000028c   Code   RO          553    .text.LL_UART_Transmit_CPU  tae32g58xx_ll_uart.o
    0x08004ca0   0x08004ca0   0x00000002   Code   RO           25    .text.MemManage_Handler  tae32g58xx_it.o
    0x08004ca2   0x08004ca2   0x00000002   PAD
    0x08004ca4   0x08004ca4   0x00000002   Code   RO           21    .text.NMI_Handler   tae32g58xx_it.o
    0x08004ca6   0x08004ca6   0x00000002   PAD
    0x08004ca8   0x08004ca8   0x00000020   Code   RO         1407    .text.OTF_ChangeBank_Func  otf_download.o
    0x08004cc8   0x08004cc8   0x00000024   Code   RO         1411    .text.OTF_FwExcute  otf_download.o
    0x08004cec   0x08004cec   0x00000118   Code   RO         1405    .text.OTF_FwUpdata_Func  otf_download.o
    0x08004e04   0x08004e04   0x0000002a   Code   RO         1344    .text.OTF_GetKey    otf_uart.o
    0x08004e2e   0x08004e2e   0x00000002   PAD
    0x08004e30   0x08004e30   0x00000046   Code   RO         1348    .text.OTF_RecvPacket  otf_uart.o
    0x08004e76   0x08004e76   0x00000002   PAD
    0x08004e78   0x08004e78   0x000002f8   Code   RO         1403    .text.OTF_RecviceFirmware  otf_download.o
    0x08005170   0x08005170   0x000000e4   Code   RO         1417    .text.OTF_SerialDecode  otf_download.o
    0x08005254   0x08005254   0x00000022   Code   RO         1342    .text.OTF_SerialSendByte  otf_uart.o
    0x08005276   0x08005276   0x00000002   PAD
    0x08005278   0x08005278   0x00000020   Code   RO         1340    .text.OTF_SerialSendStr  otf_uart.o
    0x08005298   0x08005298   0x00000028   Code   RO         1413    .text.OTF_Show      otf_download.o
    0x080052c0   0x080052c0   0x0000000c   Code   RO         1338    .text.OTF_Uart_DeInit  otf_uart.o
    0x080052cc   0x080052cc   0x00000054   Code   RO         1336    .text.OTF_Uart_Init  otf_uart.o
    0x08005320   0x08005320   0x0000002c   Code   RO         1409    .text.OTF_UseVOFA   otf_download.o
    0x0800534c   0x0800534c   0x0000005e   Code   RO         1346    .text.OTF_WaitDownload  otf_uart.o
    0x080053aa   0x080053aa   0x00000002   PAD
    0x080053ac   0x080053ac   0x00000002   Code   RO           35    .text.PendSV_Handler  tae32g58xx_it.o
    0x080053ae   0x080053ae   0x00000002   PAD
    0x080053b0   0x080053b0   0x00000008   Code   RO           82    .text.Reset_Handler  startup_tae32g58xx.o
    0x080053b8   0x080053b8   0x00000002   Code   RO           31    .text.SVC_Handler   tae32g58xx_it.o
    0x080053ba   0x080053ba   0x00000002   PAD
    0x080053bc   0x080053bc   0x0000000e   Code   RO           37    .text.SysTick_Handler  tae32g58xx_it.o
    0x080053ca   0x080053ca   0x00000002   PAD
    0x080053cc   0x080053cc   0x00000010   Code   RO           98    .text.SystemCoreClockUpdate  system_tae32g58xx.o
    0x080053dc   0x080053dc   0x0000003a   Code   RO           96    .text.SystemInit    system_tae32g58xx.o
    0x08005416   0x08005416   0x00000002   PAD
    0x08005418   0x08005418   0x00000002   Code   RO           29    .text.UsageFault_Handler  tae32g58xx_it.o
    0x0800541a   0x0800541a   0x00000002   PAD
    0x0800541c   0x0800541c   0x000000c4   Code   RO         1627    .text.User_VOFA_Init  user_vofa.o
    0x080054e0   0x080054e0   0x0000009c   Code   RO         1429    .text.Ymodem_FirstPacket  ymodem.o
    0x0800557c   0x0800557c   0x00000160   Code   RO         1431    .text.Ymodem_Talk   ymodem.o
    0x080056dc   0x080056dc   0x000000be   Code   RO         1382    .text.crc_cal_by_byte  crc.o
    0x0800579a   0x0800579a   0x00000002   PAD
    0x0800579c   0x0800579c   0x0000001e   Code   RO         1540    .text.timer_init    user_tmr.o
    0x080057ba   0x080057ba   0x00000002   PAD
    0x080057bc   0x080057bc   0x00000112   Code   RO         1449    .text.variable_init  variable_define.o
    0x080058ce   0x080058ce   0x0000000e   Code   RO         1786    i.__scatterload_copy  mc_w.l(handlers.o)
    0x080058dc   0x080058dc   0x00000002   Code   RO         1787    i.__scatterload_null  mc_w.l(handlers.o)
    0x080058de   0x080058de   0x0000000e   Code   RO         1788    i.__scatterload_zeroinit  mc_w.l(handlers.o)
    0x080058ec   0x080058ec   0x00000002   Data   RO         1183    .rodata.adc_ll_cfg_def  tae32g58xx_ll_adc.o
    0x080058ee   0x080058ee   0x00000200   Data   RO         1384    .rodata.crc_ta_8    crc.o
    0x08005aee   0x08005aee   0x00000002   PAD
    0x08005af0   0x08005af0   0x000002a0   Data   RO          426    .rodata.rcu_pll_cfg  tae32g58xx_ll_rcu.o
    0x08005d90   0x08005d90   0x000002cc   Data   RO         1419    .rodata.str1.1      otf_download.o
    0x0800605c   0x0800605c   0x0000000a   Data   RO          643    .rodata.uart_ll_cfg_def  tae32g58xx_ll_uart.o
    0x08006066   0x08006066   0x00000002   PAD
    0x08006068   0x08006068   0x00000050   Data   RO         1785    Region$$Table       anon$$obj.o


    Execution Region ARM_LIB_HEAP (Exec base: 0x080060b8, Load base: 0x080060b8, Size: 0x00000000, Max: 0x00000000, ABSOLUTE)

    Exec Addr    Load Addr    Size         Type   Attr      Idx    E Section Name        Object

    0x080060b8        -       0x00000000   Zero   RW            1    ARM_LIB_HEAP.bss    anon$$obj.o


    Execution Region ARM_LIB_STACK (Exec base: 0x20001000, Load base: 0x080060b8, Size: 0x00001000, Max: 0x00001000, ABSOLUTE)

    Exec Addr    Load Addr    Size         Type   Attr      Idx    E Section Name        Object

    0x20001000        -       0x00001000   Zero   RW            2    ARM_LIB_STACK.bss   anon$$obj.o


    Execution Region SHARE_MEMORY (Exec base: 0x20002000, Load base: 0x080080f0, Size: 0x00000400, Max: 0x00004000, ABSOLUTE, COMPRESSED[0x0000000c])

    Exec Addr    Load Addr    Size         Type   Attr      Idx    E Section Name        Object

    0x20002000   COMPRESSED   0x00000038   Data   RW         1453    .ARM.__at_0x20002000  variable_define.o
    0x20002038   COMPRESSED   0x00000038   Data   RW         1454    .ARM.__at_0x20002038  variable_define.o
    0x20002070   COMPRESSED   0x00000104   Data   RW          644    .ARM.__at_0x20002070  tae32g58xx_ll_uart.o
    0x20002174   COMPRESSED   0x00000004   Data   RW         1455    .ARM.__at_0x20002174  variable_define.o
    0x20002178   COMPRESSED   0x00000018   Data   RW         1457    .ARM.__at_0x20002178  variable_define.o
    0x20002190   COMPRESSED   0x00000024   Data   RW         1466    .ARM.__at_0x20002190  variable_define.o
    0x200021b4   COMPRESSED   0x00000024   Data   RW         1473    .ARM.__at_0x200021b4  variable_define.o
    0x200021d8   COMPRESSED   0x00000003   Data   RW         1469    .ARM.__at_0x200021d8  variable_define.o
    0x200021db   COMPRESSED   0x00000001   PAD
    0x200021dc   COMPRESSED   0x00000006   Data   RW         1477    .ARM.__at_0x200021dc  variable_define.o
    0x200021e2   COMPRESSED   0x00000001   Data   RW         1478    .ARM.__at_0x200021e2  variable_define.o
    0x200021e3   COMPRESSED   0x00000015   PAD
    0x200021f8   COMPRESSED   0x00000008   Data   RW         1458    .ARM.__at_0x200021F8  variable_define.o
    0x20002200   COMPRESSED   0x00000002   Data   RW         1459    .ARM.__at_0x20002200  variable_define.o
    0x20002202   COMPRESSED   0x00000002   Data   RW         1460    .ARM.__at_0x20002202  variable_define.o
    0x20002204   COMPRESSED   0x00000002   Data   RW         1461    .ARM.__at_0x20002204  variable_define.o
    0x20002206   COMPRESSED   0x00000002   Data   RW         1462    .ARM.__at_0x20002206  variable_define.o
    0x20002208   COMPRESSED   0x00000002   Data   RW         1463    .ARM.__at_0x20002208  variable_define.o
    0x2000220a   COMPRESSED   0x00000002   PAD
    0x2000220c   COMPRESSED   0x00000014   Data   RW         1464    .ARM.__at_0x2000220C  variable_define.o
    0x20002220   COMPRESSED   0x00000014   Data   RW         1465    .ARM.__at_0x20002220  variable_define.o
    0x20002234   COMPRESSED   0x000000a4   Data   RW         1456    .ARM.__at_0x20002234  variable_define.o
    0x200022d8   COMPRESSED   0x00000024   Data   RW         1474    .ARM.__at_0x200022d8  variable_define.o
    0x200022fc   COMPRESSED   0x00000014   PAD
    0x20002310   COMPRESSED   0x00000010   Data   RW         1470    .ARM.__at_0x20002310  variable_define.o
    0x20002320   COMPRESSED   0x00000014   Data   RW         1471    .ARM.__at_0x20002320  variable_define.o
    0x20002334   COMPRESSED   0x00000014   Data   RW         1472    .ARM.__at_0x20002334  variable_define.o
    0x20002348   COMPRESSED   0x00000008   PAD
    0x20002350   COMPRESSED   0x00000004   Data   RW         1653    .ARM.__at_0x20002350  BCB.lib(bcb.o)
    0x20002354   COMPRESSED   0x00000004   Data   RW          144    .ARM.__at_0x20002354  tae32g58xx_ll.o
    0x20002358   COMPRESSED   0x00000024   Data   RW         1467    .ARM.__at_0x20002358  variable_define.o
    0x2000237c   COMPRESSED   0x00000024   Data   RW         1475    .ARM.__at_0x2000237c  variable_define.o
    0x200023a0   COMPRESSED   0x00000024   Data   RW         1476    .ARM.__at_0x200023a0  variable_define.o
    0x200023c4   COMPRESSED   0x00000024   Data   RW         1468    .ARM.__at_0x200023c4  variable_define.o
    0x200023e8   COMPRESSED   0x00000018   Data   RW         1479    .ARM.__at_0x200023e8  variable_define.o


    Execution Region ER_IMP_TEXT (Exec base: 0x20006000, Load base: 0x080060b8, Size: 0x000015d8, Max: 0x00012000, ABSOLUTE)

    Exec Addr    Load Addr    Size         Type   Attr      Idx    E Section Name        Object

    0x20006000   0x080060b8   0x000001a0   Data   RO           87    .ARM.__at_0x20006000  startup_tae32g58xx.o
    0x200061a0   0x08006258   0x0000000a   Ven    RO         1794    Veneer$$Code        anon$$obj.o
    0x200061aa   0x08006262   0x0000000a   Ven    RO         1795    Veneer$$Code        anon$$obj.o
    0x200061b4   0x0800626c   0x0000000a   Ven    RO         1796    Veneer$$Code        anon$$obj.o
    0x200061be   0x08006276   0x0000000a   Ven    RO         1797    Veneer$$Code        anon$$obj.o
    0x200061c8   0x08006280   0x0000000a   Ven    RO         1798    Veneer$$Code        anon$$obj.o
    0x200061d2   0x0800628a   0x0000000a   Ven    RO         1799    Veneer$$Code        anon$$obj.o
    0x200061dc   0x08006294   0x0000000a   Ven    RO         1800    Veneer$$Code        anon$$obj.o
    0x200061e6   0x0800629e   0x0000000a   Ven    RO         1801    Veneer$$Code        anon$$obj.o
    0x200061f0   0x080062a8   0x0000000a   Ven    RO         1802    Veneer$$Code        anon$$obj.o
    0x200061fa   0x080062b2   0x0000000a   Ven    RO         1803    Veneer$$Code        anon$$obj.o
    0x20006204   0x080062bc   0x0000000a   Ven    RO         1804    Veneer$$Code        anon$$obj.o
    0x2000620e   0x080062c6   0x0000000a   Ven    RO         1805    Veneer$$Code        anon$$obj.o
    0x20006218   0x080062d0   0x0000000a   Ven    RO         1806    Veneer$$Code        anon$$obj.o
    0x20006222   0x080062da   0x0000000a   Ven    RO         1807    Veneer$$Code        anon$$obj.o
    0x2000622c   0x080062e4   0x0000000a   Ven    RO         1808    Veneer$$Code        anon$$obj.o
    0x20006236   0x080062ee   0x00000002   PAD
    0x20006238   0x080062f0   0x0000003c   Code   RO         1374    .text.IMP_CodeBaseInit  imp_baseinit.o
    0x20006274   0x0800632c   0x0000010a   Code   RO         1500    SECTION_IMP_CODE    adc_init.o
    0x2000637e   0x08006436   0x00000002   PAD
    0x20006380   0x08006438   0x0000005a   Code   RO         1502    SECTION_IMP_CODE    adc_init.o
    0x200063da   0x08006492   0x00000002   PAD
    0x200063dc   0x08006494   0x00000002   Code   RO         1504    SECTION_IMP_CODE    adc_init.o
    0x200063de   0x08006496   0x00000002   PAD
    0x200063e0   0x08006498   0x000001d0   Code   RO         1506    SECTION_IMP_CODE    adc_init.o
    0x200065b0   0x08006668   0x00000028   Code   RO         1542    SECTION_IMP_CODE    user_tmr.o
    0x200065d8   0x08006690   0x0000001a   Code   RO         1544    SECTION_IMP_CODE    user_tmr.o
    0x200065f2   0x080066aa   0x00000002   PAD
    0x200065f4   0x080066ac   0x0000002e   Code   RO         1546    SECTION_IMP_CODE    user_tmr.o
    0x20006622   0x080066da   0x00000002   PAD
    0x20006624   0x080066dc   0x00000026   Code   RO         1568    SECTION_IMP_CODE    user_imp_interrupts.o
    0x2000664a   0x08006702   0x00000002   PAD
    0x2000664c   0x08006704   0x00000078   Code   RO         1570    SECTION_IMP_CODE    user_imp_interrupts.o
    0x200066c4   0x0800677c   0x00000030   Code   RO         1572    SECTION_IMP_CODE    user_imp_interrupts.o
    0x200066f4   0x080067ac   0x00000026   Code   RO         1574    SECTION_IMP_CODE    user_imp_interrupts.o
    0x2000671a   0x080067d2   0x00000002   PAD
    0x2000671c   0x080067d4   0x0000001c   Code   RO         1625    SECTION_IMP_CODE    user_vofa.o
    0x20006738   0x080067f0   0x00000298   Code   RO         1641    SECTION_IMP_CODE    BCB.lib(bcb.o)
    0x200069d0   0x08006a88   0x000002e8   Code   RO         1643    SECTION_IMP_CODE    BCB.lib(bcb.o)
    0x20006cb8   0x08006d70   0x00000040   Code   RO         1645    SECTION_IMP_CODE    BCB.lib(bcb.o)
    0x20006cf8   0x08006db0   0x0000004c   Code   RO         1647    SECTION_IMP_CODE    BCB.lib(bcb.o)
    0x20006d44   0x08006dfc   0x00000042   Code   RO         1649    SECTION_IMP_CODE    BCB.lib(bcb.o)
    0x20006d86   0x08006e3e   0x00000002   PAD
    0x20006d88   0x08006e40   0x000002ac   Code   RO         1651    SECTION_IMP_CODE    BCB.lib(bcb.o)
    0x20007034   0x080070ec   0x00000070   Code   RO         1701    SECTION_IMP_CODE    BCB_pid.lib(bcb_pid.o)
    0x200070a4   0x0800715c   0x00000070   Code   RO         1703    SECTION_IMP_CODE    BCB_pid.lib(bcb_pid.o)
    0x20007114   0x080071cc   0x00000070   Code   RO         1705    SECTION_IMP_CODE    BCB_pid.lib(bcb_pid.o)
    0x20007184   0x0800723c   0x00000008   Data   RW          145    .data..L_MergedGlobals  tae32g58xx_ll.o
    0x2000718c   0x08007244   0x00000004   Data   RW          100    .data.SystemCoreClock  system_tae32g58xx.o
    0x20007190        -       0x00000405   Zero   RW         1420    .bss.OTF_RxBuf      otf_download.o
    0x20007595   0x08007248   0x00000003   PAD
    0x20007598        -       0x00000040   Zero   RW         1433    .bss.file_name      ymodem.o


    Execution Region UPGRADE_INT_CODE (Exec base: 0x20018000, Load base: 0x08007248, Size: 0x00000ea8, Max: 0x00008000, ABSOLUTE)

    Exec Addr    Load Addr    Size         Type   Attr      Idx    E Section Name        Object

    0x20018000   0x08007248   0x000001a0   Data   RO           88    .ARM.__at_0x20018000  startup_tae32g58xx.o
    0x200181a0   0x080073e8   0x00000026   Code   RO         1583    SECTION_UPGRADE_CODE  user_upgrade_interrupts.o
    0x200181c6   0x0800740e   0x00000002   PAD
    0x200181c8   0x08007410   0x00000078   Code   RO         1585    SECTION_UPGRADE_CODE  user_upgrade_interrupts.o
    0x20018240   0x08007488   0x00000030   Code   RO         1587    SECTION_UPGRADE_CODE  user_upgrade_interrupts.o
    0x20018270   0x080074b8   0x00000026   Code   RO         1589    SECTION_UPGRADE_CODE  user_upgrade_interrupts.o
    0x20018296   0x080074de   0x00000002   PAD
    0x20018298   0x080074e0   0x0000010a   Code   RO         1598    SECTION_UPGRADE_CODE  upgrade_adc.o
    0x200183a2   0x080075ea   0x00000002   PAD
    0x200183a4   0x080075ec   0x0000005a   Code   RO         1600    SECTION_UPGRADE_CODE  upgrade_adc.o
    0x200183fe   0x08007646   0x00000002   PAD
    0x20018400   0x08007648   0x000001d0   Code   RO         1602    SECTION_UPGRADE_CODE  upgrade_adc.o
    0x200185d0   0x08007818   0x00000028   Code   RO         1611    SECTION_UPGRADE_CODE  upgrade_tmr.o
    0x200185f8   0x08007840   0x0000001a   Code   RO         1613    SECTION_UPGRADE_CODE  upgrade_tmr.o
    0x20018612   0x0800785a   0x00000002   PAD
    0x20018614   0x0800785c   0x0000002e   Code   RO         1615    SECTION_UPGRADE_CODE  upgrade_tmr.o
    0x20018642   0x0800788a   0x00000002   PAD
    0x20018644   0x0800788c   0x000001fe   Code   RO         1681    SECTION_UPGRADE_CODE  upgrade_BCB.lib(upgrade_bcb.o)
    0x20018842   0x08007a8a   0x00000002   PAD
    0x20018844   0x08007a8c   0x000002e8   Code   RO         1683    SECTION_UPGRADE_CODE  upgrade_BCB.lib(upgrade_bcb.o)
    0x20018b2c   0x08007d74   0x00000040   Code   RO         1685    SECTION_UPGRADE_CODE  upgrade_BCB.lib(upgrade_bcb.o)
    0x20018b6c   0x08007db4   0x0000004c   Code   RO         1687    SECTION_UPGRADE_CODE  upgrade_BCB.lib(upgrade_bcb.o)
    0x20018bb8   0x08007e00   0x00000042   Code   RO         1689    SECTION_UPGRADE_CODE  upgrade_BCB.lib(upgrade_bcb.o)
    0x20018bfa   0x08007e42   0x00000002   PAD
    0x20018bfc   0x08007e44   0x000002ac   Code   RO         1691    SECTION_UPGRADE_CODE  upgrade_BCB.lib(upgrade_bcb.o)



  Load Region LR_BANK_FIXED_CODE (Base: 0x0801e000, Size: 0x00000694, Max: 0x00001000, ABSOLUTE)

    Execution Region ER_FIX_TEXT (Exec base: 0x0801e000, Load base: 0x0801e000, Size: 0x00000694, Max: 0x00001000, ABSOLUTE)

    Exec Addr    Load Addr    Size         Type   Attr      Idx    E Section Name        Object

    0x0801e000   0x0801e000   0x00000184   Code   RO            8    SECTION_FIX_CODE    main.o
    0x0801e184   0x0801e184   0x000000c4   Code   RO         1662    SECTION_FIX_CODE    OTF_lib.lib(bank_function.o)
    0x0801e248   0x0801e248   0x000000c4   Code   RO         1664    SECTION_FIX_CODE    OTF_lib.lib(bank_function.o)
    0x0801e30c   0x0801e30c   0x00000002   Code   RO         1666    SECTION_FIX_CODE    OTF_lib.lib(bank_function.o)
    0x0801e30e   0x0801e30e   0x00000002   PAD
    0x0801e310   0x0801e310   0x0000002c   Code   RO         1668    SECTION_FIX_CODE    OTF_lib.lib(bank_function.o)
    0x0801e33c   0x0801e33c   0x00000038   Code   RO         1670    SECTION_FIX_CODE    OTF_lib.lib(bank_function.o)
    0x0801e374   0x0801e374   0x0000020c   Code   RO         1672    SECTION_FIX_CODE    OTF_lib.lib(bank_function.o)
    0x0801e580   0x0801e580   0x00000042   Code   RO         1715    SECTION_FIX_CODE    OTF_lib.lib(eflash_changebank.o)
    0x0801e5c2   0x0801e5c2   0x00000002   PAD
    0x0801e5c4   0x0801e5c4   0x000000bc   Code   RO         1717    SECTION_FIX_CODE    OTF_lib.lib(eflash_changebank.o)
    0x0801e680   0x0801e680   0x0000000a   Ven    RO         1809    Veneer$$Code        anon$$obj.o
    0x0801e68a   0x0801e68a   0x0000000a   Ven    RO         1810    Veneer$$Code        anon$$obj.o



  Load Region LR_BANK_FIXED_DATA (Base: 0x0801f000, Size: 0x00000038, Max: 0x00001000, ABSOLUTE)

    Execution Region ER_FIX_DATA (Exec base: 0x0801f000, Load base: 0x0801f000, Size: 0x00000038, Max: 0x00001000, ABSOLUTE)

    Exec Addr    Load Addr    Size         Type   Attr      Idx    E Section Name        Object

    0x0801f000   0x0801f000   0x00000038   Data   RW         1443    SECTION_FIX_DATA    fixdata.o


==============================================================================

Image component sizes


      Code (inc. data)   RO Data    RW Data    ZI Data      Debug   Object Name

      1252          8          0          0          0      59676   adc_init.o
       568          0          0          0          0       5589   cmp_dac.o
       190          0        512          0          0       1447   crc.o
         0          0          0         56          0       1171   fixdata.o
        60         20          0          0          0        801   imp_baseinit.o
       576         20          0          0          0      44942   main.o
      1420        348        716          0       1029      11905   otf_download.o
        86          0          0          0          0       4127   otf_eflash.o
       368          0          0          0          0       7231   otf_uart.o
        10          0        840          0          0       1052   startup_tae32g58xx.o
        74          0          0          4          0       5306   system_tae32g58xx.o
        30          0          0          0          0       1315   tae32g58xx_it.o
       198          0          0         12          0      11381   tae32g58xx_ll.o
      1410          0          2          0          0      55909   tae32g58xx_ll_adc.o
       374          0          0          0          0       8337   tae32g58xx_ll_cmp.o
       274          0          0          0          0       9363   tae32g58xx_ll_cortex.o
       276          0          0          0          0      10303   tae32g58xx_ll_dac.o
      1316          0          0          0          0      26843   tae32g58xx_ll_eflash.o
       958          0          0          0          0      20225   tae32g58xx_ll_gpio.o
      2746         10          0          0          0      85201   tae32g58xx_ll_hrpwm.o
      1578         12          0          0          0      77037   tae32g58xx_ll_msp.o
      4256         28        672          0          0      54247   tae32g58xx_ll_rcu.o
      1476          0         10        260          0      38760   tae32g58xx_ll_uart.o
       820          8          0          0          0      52481   upgrade_adc.o
       112          0          0          0          0       5082   upgrade_tmr.o
       242          0          0          0          0      12289   user_gpio.o
       820          0          0          0          0      65105   user_hrpwm.o
       244          0          0          0          0      59233   user_imp_interrupts.o
       142          0          0          0          0       5175   user_tmr.o
       244          0          0          0          0      59276   user_upgrade_interrupts.o
       800         28          0          0          0       8030   user_vofa.o
       274          0          0        704          0       4989   variable_define.o
       508          0          0          0         64       2691   ymodem.o

    ----------------------------------------------------------------------
     24086        486       2836       1088       5192     816519   Object Totals
       170          0         80          0       4096          0   (incl. Generated)
       214          4          4         52          3          0   (incl. Padding)

    ----------------------------------------------------------------------

      Code (inc. data)   RO Data    RW Data    ZI Data      Debug   Library Member Name

      2298          0          0          4          0      77538   bcb.o
       336          0          0          0          0       1285   bcb_pid.o
      1018          0          0          0          0      12320   bank_function.o
       254         24          0          0          0      16750   eflash_changebank.o
        58          0          0          0          0          0   __dczerorl.o
         0          0          0          0          0          0   entry.o
         0          0          0          0          0          0   entry10a.o
         0          0          0          0          0          0   entry11a.o
         8          4          0          0          0          0   entry4.o
         4          0          0          0          0          0   entry5.o
         0          0          0          0          0          0   entry7b.o
         0          0          0          0          0          0   entry8b.o
         8          4          0          0          0          0   entry9a.o
        30          0          0          0          0          0   handlers.o
        36          8          0          0          0         68   init.o
         0          0          0          0          0          0   iusefp.o
        30          0          0          0          0         68   llshl.o
        36          0          0          0          0         68   llsshr.o
        32          0          0          0          0         68   llushr.o
        36          0          0          0          0         68   memcpya.o
        36          0          0          0          0        108   memseta.o
        28          0          0          0          0         76   strcmp.o
        14          0          0          0          0         68   strlen.o
        30          0          0          0          0         80   strncmp.o
        56          0          0          0          0         88   d2f.o
       334          0          0          0          0        148   dadd.o
       222          0          0          0          0        100   ddiv.o
       186          0          0          0          0        176   depilogue.o
        62          0          0          0          0         80   dfixi.o
        50          0          0          0          0         76   dfixui.o
        34          0          0          0          0         76   dflti.o
        26          0          0          0          0         76   dfltui.o
       228          0          0          0          0         96   dmul.o
       110          0          0          0          0        168   fepilogue.o
      2144          0          0          0          0      77207   upgrade_bcb.o

    ----------------------------------------------------------------------
      7758         40          0          4          0     186856   Library Totals
        14          0          0          0          0          0   (incl. Padding)

    ----------------------------------------------------------------------

      Code (inc. data)   RO Data    RW Data    ZI Data      Debug   Library Name

      2298          0          0          4          0      77538   BCB.lib
       336          0          0          0          0       1285   BCB_pid.lib
      1272         24          0          0          0      29070   OTF_lib.lib
       386         16          0          0          0        672   mc_w.l
      1308          0          0          0          0       1084   mf_w.l
      2144          0          0          0          0      77207   upgrade_BCB.lib

    ----------------------------------------------------------------------
      7758         40          0          4          0     186856   Library Totals

    ----------------------------------------------------------------------

==============================================================================


      Code (inc. data)   RO Data    RW Data    ZI Data      Debug   

     31844        526       2836       1092       5192    1002107   Grand Totals
     31844        526       2836         80       5192    1002107   ELF Image Totals (compressed)
     31844        526       2836         80          0          0   ROM Totals

==============================================================================

    Total RO  Size (Code + RO Data)                34680 (  33.87kB)
    Total RW  Size (RW Data + ZI Data)              6284 (   6.14kB)
    Total ROM Size (Code + RO Data + RW Data)      34760 (  33.95kB)

==============================================================================

