Component: ARM Compiler 5.06 update 6 (build 750) Tool: armlink [4d35ed]

==============================================================================

Section Cross References

    system_hc32f334.o(i.SystemCoreClockUpdate) refers to system_hc32f334.o(.bss.noinit) for .bss.noinit
    system_hc32f334.o(i.SystemInit) refers to system_hc32f334.o(i.SystemCoreClockUpdate) for SystemCoreClockUpdate
    startup_hc32f334.o(STACK) refers (Special) to heapauxi.o(.text) for __use_two_region_memory
    startup_hc32f334.o(HEAP) refers (Special) to heapauxi.o(.text) for __use_two_region_memory
    startup_hc32f334.o(RESET) refers (Special) to heapauxi.o(.text) for __use_two_region_memory
    startup_hc32f334.o(RESET) refers to startup_hc32f334.o(STACK) for __initial_sp
    startup_hc32f334.o(RESET) refers to startup_hc32f334.o(.text) for Reset_Handler
    startup_hc32f334.o(RESET) refers to hc32_ll_interrupts.o(i.IRQ000_Handler) for IRQ000_Handler
    startup_hc32f334.o(RESET) refers to hc32_ll_interrupts.o(i.IRQ001_Handler) for IRQ001_Handler
    startup_hc32f334.o(RESET) refers to hc32_ll_interrupts.o(i.IRQ002_Handler) for IRQ002_Handler
    startup_hc32f334.o(RESET) refers to hc32_ll_interrupts.o(i.IRQ003_Handler) for IRQ003_Handler
    startup_hc32f334.o(RESET) refers to hc32_ll_interrupts.o(i.IRQ004_Handler) for IRQ004_Handler
    startup_hc32f334.o(RESET) refers to hc32_ll_interrupts.o(i.IRQ005_Handler) for IRQ005_Handler
    startup_hc32f334.o(RESET) refers to hc32_ll_interrupts.o(i.IRQ006_Handler) for IRQ006_Handler
    startup_hc32f334.o(RESET) refers to hc32_ll_interrupts.o(i.IRQ007_Handler) for IRQ007_Handler
    startup_hc32f334.o(RESET) refers to hc32_ll_interrupts.o(i.IRQ008_Handler) for IRQ008_Handler
    startup_hc32f334.o(RESET) refers to hc32_ll_interrupts.o(i.IRQ009_Handler) for IRQ009_Handler
    startup_hc32f334.o(RESET) refers to hc32_ll_interrupts.o(i.IRQ010_Handler) for IRQ010_Handler
==============================================================================

Removing Unused input sections from the image.

    Removing system_hc32f334.o(.rev16_text), (4 bytes).
    Removing system_hc32f334.o(.revsh_text), (4 bytes).
    Removing system_hc32f334.o(.rrx_text), (6 bytes).
    Removing hc32_ll.o(.rev16_text), (4 bytes).
    Removing hc32_ll.o(.revsh_text), (4 bytes).
    Removing hc32_ll.o(.rrx_text), (6 bytes).
    Removing hc32_ll.o(i.LL_TMR_SWSyncStart), (20 bytes).
    Removing hc32_ll_clk.o(.rev16_text), (4 bytes).
    Removing hc32_ll_clk.o(.revsh_text), (4 bytes).
    Removing hc32_ll_clk.o(.rrx_text), (6 bytes).
    Removing hc32_ll_clk.o(i.CLK_ClearXtalStdStatus), (88 bytes).
    Removing hc32_ll_clk.o(i.CLK_GetBusClockFreq), (216 bytes).
    Removing hc32_ll_clk.o(i.CLK_GetClockFreq), (22 bytes).
    Removing hc32_ll_clk.o(i.CLK_GetPLLClockFreq), (140 bytes).
    Removing hc32_ll_clk.o(i.CLK_GetXtalStdStatus), (20 bytes).
    Removing hc32_ll_clk.o(i.CLK_HrcCmd), (172 bytes).
    Removing hc32_ll_clk.o(i.CLK_HrcTrim), (80 bytes).
    Removing hc32_ll_clk.o(i.CLK_LrcCmd), (140 bytes).
==============================================================================

Image Symbol Table

    Local Symbols

    Symbol Name                              Value     Ov Type        Size  Object(Section)

    RESET                                    0x00000000   Section      648  startup_hc32f334.o(RESET)
    ../clib/angel/boardlib.s                 0x00000000   Number         0  boardshut.o ABSOLUTE
    ../clib/angel/boardlib.s                 0x00000000   Number         0  boardinit3.o ABSOLUTE
    ../clib/angel/boardlib.s                 0x00000000   Number         0  boardinit2.o ABSOLUTE
    ../clib/angel/boardlib.s                 0x00000000   Number         0  boardinit1.o ABSOLUTE
    ../clib/angel/dczerorl2.s                0x00000000   Number         0  __dczerorl2.o ABSOLUTE
    ../clib/angel/handlers.s                 0x00000000   Number         0  __scatter_zi.o ABSOLUTE
    ../clib/angel/kernel.s                   0x00000000   Number         0  __rtentry.o ABSOLUTE
    ../clib/angel/kernel.s                   0x00000000   Number         0  __rtentry2.o ABSOLUTE
    ../clib/angel/kernel.s                   0x00000000   Number         0  rtexit.o ABSOLUTE
    ../clib/angel/kernel.s                   0x00000000   Number         0  __rtentry4.o ABSOLUTE
    ../clib/angel/kernel.s                   0x00000000   Number         0  rtexit2.o ABSOLUTE
    ../clib/angel/rt.s                       0x00000000   Number         0  aeabi_ldiv0.o ABSOLUTE
    ../clib/angel/rt.s                       0x00000000   Number         0  rt_raise.o ABSOLUTE
    ../clib/angel/rt.s                       0x00000000   Number         0  aeabi_ldiv0_sigfpe.o ABSOLUTE
    ../clib/angel/rt.s                       0x00000000   Number         0  rt_div0.o ABSOLUTE
    ../clib/angel/scatter.s                  0x00000000   Number         0  __scatter.o ABSOLUTE
    ../clib/angel/startup.s                  0x00000000   Number         0  __main.o ABSOLUTE
    ../clib/angel/sys.s                      0x00000000   Number         0  indicate_semi.o ABSOLUTE
    ../clib/angel/sys.s                      0x00000000   Number         0  use_no_semi.o ABSOLUTE
    ../clib/angel/sys.s                      0x00000000   Number         0  libspace.o ABSOLUTE
    ../clib/angel/sys.s                      0x00000000   Number         0  sys_stackheap_outer.o ABSOLUTE
    ../clib/angel/sysapp.c                   0x00000000   Number         0  sys_exit.o ABSOLUTE
    ../clib/angel/sysapp.c                   0x00000000   Number         0  sys_wrch.o ABSOLUTE
    ../clib/angel/sysapp.c                   0x00000000   Number         0  sys_command.o ABSOLUTE
    ../clib/armsys.c                         0x00000000   Number         0  no_argv.o ABSOLUTE
    ../clib/armsys.c                         0x00000000   Number         0  _get_argv_nomalloc.o ABSOLUTE
    ../clib/armsys.c                         0x00000000   Number         0  argv_veneer.o ABSOLUTE
    ../clib/armsys.c                         0x00000000   Number         0  argv_veneer.o ABSOLUTE
    ../clib/heapalloc.c                      0x00000000   Number         0  hrguard.o ABSOLUTE
    ../clib/heapaux.c                        0x00000000   Number         0  heapauxi.o ABSOLUTE
    ../clib/libinit.s                        0x00000000   Number         0  libshutdown2.o ABSOLUTE
    ../clib/libinit.s                        0x00000000   Number         0  libshutdown.o ABSOLUTE
    ../clib/libinit.s                        0x00000000   Number         0  libinit2.o ABSOLUTE
    ../clib/libinit.s                        0x00000000   Number         0  libinit.o ABSOLUTE
    ../clib/longlong.s                       0x00000000   Number         0  lludivv7m.o ABSOLUTE
    ../clib/longlong.s                       0x00000000   Number         0  llshl.o ABSOLUTE
    ../clib/signal.c                         0x00000000   Number         0  defsig_cppl_inner.o ABSOLUTE
    ../clib/signal.c                         0x00000000   Number         0  defsig_fpe_formal.o ABSOLUTE
    ../clib/signal.c                         0x00000000   Number         0  defsig_segv_inner.o ABSOLUTE
    ../clib/signal.c                         0x00000000   Number         0  defsig_general.o ABSOLUTE
    ../clib/signal.c                         0x00000000   Number         0  defsig_other.o ABSOLUTE
    ../clib/signal.c                         0x00000000   Number         0  defsig_fpe_outer.o ABSOLUTE
    ../clib/signal.c                         0x00000000   Number         0  __raise.o ABSOLUTE
    ../clib/signal.c                         0x00000000   Number         0  defsig_rtmem_inner.o ABSOLUTE
    ../clib/signal.c                         0x00000000   Number         0  defsig_exit.o ABSOLUTE
    ../clib/signal.c                         0x00000000   Number         0  defsig_fpe_inner.o ABSOLUTE
    ../clib/signal.c                         0x00000000   Number         0  defsig_rtred_inner.o ABSOLUTE
    ../clib/signal.c                         0x00000000   Number         0  defsig_rtmem_formal.o ABSOLUTE
    ../clib/signal.c                         0x00000000   Number         0  defsig_stak_inner.o ABSOLUTE
    ../clib/signal.c                         0x00000000   Number         0  defsig_abrt_inner.o ABSOLUTE
    ../clib/signal.c                         0x00000000   Number         0  defsig_rtmem_outer.o ABSOLUTE
    ../clib/signal.c                         0x00000000   Number         0  defsig_pvfn_inner.o ABSOLUTE
    ../clib/signal.s                         0x00000000   Number         0  defsig.o ABSOLUTE
    ../clib/stdlib.c                         0x00000000   Number         0  exit.o ABSOLUTE
    ../fplib/d2f.s                           0x00000000   Number         0  d2f.o ABSOLUTE
    ../fplib/daddsub.s                       0x00000000   Number         0  daddsub_clz.o ABSOLUTE
    ../fplib/ddiv.s                          0x00000000   Number         0  ddiv.o ABSOLUTE
    ../fplib/dfixu.s                         0x00000000   Number         0  dfixu.o ABSOLUTE
    ../fplib/dflt.s                          0x00000000   Number         0  dflt_clz.o ABSOLUTE
    ../fplib/dfltll.s                        0x00000000   Number         0  dfltll_clz.o ABSOLUTE
    ../fplib/dmul.s                          0x00000000   Number         0  dmul.o ABSOLUTE
    ../fplib/dnaninf.s                       0x00000000   Number         0  dnaninf.o ABSOLUTE
    ../fplib/dretinf.s                       0x00000000   Number         0  dretinf.o ABSOLUTE
    ../fplib/f2d.s                           0x00000000   Number         0  f2d.o ABSOLUTE
    ../fplib/fnaninf.s                       0x00000000   Number         0  fnaninf.o ABSOLUTE
    ../fplib/fpinit.s                        0x00000000   Number         0  fpinit.o ABSOLUTE
    ../fplib/fretinf.s                       0x00000000   Number         0  fretinf.o ABSOLUTE
    ../fplib/usenofp.s                       0x00000000   Number         0  usenofp.o ABSOLUTE
    ..\\drivers\\bsp\\ev_hc32f334_lqfp64\\ev_hc32f334_lqfp64.c 0x00000000   Number         0  ev_hc32f334_lqfp64.o ABSOLUTE
    ..\\drivers\\cmsis\\Device\\HDSC\\hc32f3xx\\Source\\system_hc32f334.c 0x00000000   Number         0  system_hc32f334.o ABSOLUTE
    ..\\drivers\\hc32_ll_driver\\src\\hc32_ll.c 0x00000000   Number         0  hc32_ll.o ABSOLUTE
    ..\\drivers\\hc32_ll_driver\\src\\hc32_ll_adc.c 0x00000000   Number         0  hc32_ll_adc.o ABSOLUTE
    ..\\drivers\\hc32_ll_driver\\src\\hc32_ll_aos.c 0x00000000   Number         0  hc32_ll_aos.o ABSOLUTE
    ..\\drivers\\hc32_ll_driver\\src\\hc32_ll_clk.c 0x00000000   Number         0  hc32_ll_clk.o ABSOLUTE
    ..\\drivers\\hc32_ll_driver\\src\\hc32_ll_cmp.c 0x00000000   Number         0  hc32_ll_cmp.o ABSOLUTE
    ..\\drivers\\hc32_ll_driver\\src\\hc32_ll_dac.c 0x00000000   Number         0  hc32_ll_dac.o ABSOLUTE
    ..\\drivers\\hc32_ll_driver\\src\\hc32_ll_dma.c 0x00000000   Number         0  hc32_ll_dma.o ABSOLUTE
    ..\\drivers\\hc32_ll_driver\\src\\hc32_ll_efm.c 0x00000000   Number         0  hc32_ll_efm.o ABSOLUTE
    ..\\drivers\\hc32_ll_driver\\src\\hc32_ll_emb.c 0x00000000   Number         0  hc32_ll_emb.o ABSOLUTE
    ..\\drivers\\hc32_ll_driver\\src\\hc32_ll_event_port.c 0x00000000   Number         0  hc32_ll_event_port.o ABSOLUTE
    ..\\drivers\\hc32_ll_driver\\src\\hc32_ll_fcg.c 0x00000000   Number         0  hc32_ll_fcg.o ABSOLUTE
    ..\\drivers\\hc32_ll_driver\\src\\hc32_ll_fcm.c 0x00000000   Number         0  hc32_ll_fcm.o ABSOLUTE
    ..\\drivers\\hc32_ll_driver\\src\\hc32_ll_gpio.c 0x00000000   Number         0  hc32_ll_gpio.o ABSOLUTE
    ..\\drivers\\hc32_ll_driver\\src\\hc32_ll_hrpwm.c 0x00000000   Number         0  hc32_ll_hrpwm.o ABSOLUTE
    ..\\drivers\\hc32_ll_driver\\src\\hc32_ll_i2c.c 0x00000000   Number         0  hc32_ll_i2c.o ABSOLUTE
    ..\\drivers\\hc32_ll_driver\\src\\hc32_ll_icg.c 0x00000000   Number         0  hc32_ll_icg.o ABSOLUTE
    ..\\drivers\\hc32_ll_driver\\src\\hc32_ll_interrupts.c 0x00000000   Number         0  hc32_ll_interrupts.o ABSOLUTE
    ..\\drivers\\hc32_ll_driver\\src\\hc32_ll_mcan.c 0x00000000   Number         0  hc32_ll_mcan.o ABSOLUTE
    ..\\drivers\\hc32_ll_driver\\src\\hc32_ll_pla.c 0x00000000   Number         0  hc32_ll_pla.o ABSOLUTE
    ..\\drivers\\hc32_ll_driver\\src\\hc32_ll_pwc.c 0x00000000   Number         0  hc32_ll_pwc.o ABSOLUTE
    ..\\drivers\\hc32_ll_driver\\src\\hc32_ll_spi.c 0x00000000   Number         0  hc32_ll_spi.o ABSOLUTE
    ..\\drivers\\hc32_ll_driver\\src\\hc32_ll_sram.c 0x00000000   Number         0  hc32_ll_sram.o ABSOLUTE
    ..\\drivers\\hc32_ll_driver\\src\\hc32_ll_tmr0.c 0x00000000   Number         0  hc32_ll_tmr0.o ABSOLUTE
    ..\\drivers\\hc32_ll_driver\\src\\hc32_ll_tmr4.c 0x00000000   Number         0  hc32_ll_tmr4.o ABSOLUTE
    ..\\drivers\\hc32_ll_driver\\src\\hc32_ll_tmr6.c 0x00000000   Number         0  hc32_ll_tmr6.o ABSOLUTE
    ..\\drivers\\hc32_ll_driver\\src\\hc32_ll_tmra.c 0x00000000   Number         0  hc32_ll_tmra.o ABSOLUTE
    ..\\drivers\\hc32_ll_driver\\src\\hc32_ll_usart.c 0x00000000   Number         0  hc32_ll_usart.o ABSOLUTE
    ..\\drivers\\hc32_ll_driver\\src\\hc32_ll_utility.c 0x00000000   Number         0  hc32_ll_utility.o ABSOLUTE
    ..\\user\\src\\adc.c                     0x00000000   Number         0  adc.o ABSOLUTE
    ..\\user\\src\\cmp.c                     0x00000000   Number         0  cmp.o ABSOLUTE
    ..\\user\\src\\control.c                 0x00000000   Number         0  control.o ABSOLUTE
    ..\\user\\src\\dac.c                     0x00000000   Number         0  dac.o ABSOLUTE
    ..\\user\\src\\data.c                    0x00000000   Number         0  data.o ABSOLUTE
    ..\\user\\src\\emb.c                     0x00000000   Number         0  emb.o ABSOLUTE
    ..\\user\\src\\ep.c                      0x00000000   Number         0  ep.o ABSOLUTE
    ..\\user\\src\\gpio.c                    0x00000000   Number         0  gpio.o ABSOLUTE
    ..\\user\\src\\hrtimer.c                 0x00000000   Number         0  hrtimer.o ABSOLUTE
    ..\\user\\src\\main.c                    0x00000000   Number         0  main.o ABSOLUTE
    ..\\user\\src\\pla.c                     0x00000000   Number         0  pla.o ABSOLUTE
    ..\\user\\src\\pwc.c                     0x00000000   Number         0  pwc.o ABSOLUTE
    ..\\user\\src\\time.c                    0x00000000   Number         0  time.o ABSOLUTE
    ..\\user\\src\\variable.c                0x00000000   Number         0  variable.o ABSOLUTE
    ..\drivers\bsp\ev_hc32f334_lqfp64\ev_hc32f334_lqfp64.c 0x00000000   Number         0  ev_hc32f334_lqfp64.o ABSOLUTE
    ..\drivers\cmsis\Device\HDSC\hc32f3xx\Source\ARM\startup_hc32f334.s 0x00000000   Number         0  startup_hc32f334.o ABSOLUTE
    ..\drivers\cmsis\Device\HDSC\hc32f3xx\Source\system_hc32f334.c 0x00000000   Number         0  system_hc32f334.o ABSOLUTE
    ..\drivers\hc32_ll_driver\src\hc32_ll.c  0x00000000   Number         0  hc32_ll.o ABSOLUTE
    ..\drivers\hc32_ll_driver\src\hc32_ll_adc.c 0x00000000   Number         0  hc32_ll_adc.o ABSOLUTE
    ..\drivers\hc32_ll_driver\src\hc32_ll_aos.c 0x00000000   Number         0  hc32_ll_aos.o ABSOLUTE
    ..\drivers\hc32_ll_driver\src\hc32_ll_clk.c 0x00000000   Number         0  hc32_ll_clk.o ABSOLUTE
    ..\drivers\hc32_ll_driver\src\hc32_ll_cmp.c 0x00000000   Number         0  hc32_ll_cmp.o ABSOLUTE
    ..\drivers\hc32_ll_driver\src\hc32_ll_dac.c 0x00000000   Number         0  hc32_ll_dac.o ABSOLUTE
    ..\drivers\hc32_ll_driver\src\hc32_ll_dma.c 0x00000000   Number         0  hc32_ll_dma.o ABSOLUTE
    ..\drivers\hc32_ll_driver\src\hc32_ll_efm.c 0x00000000   Number         0  hc32_ll_efm.o ABSOLUTE
    ..\drivers\hc32_ll_driver\src\hc32_ll_emb.c 0x00000000   Number         0  hc32_ll_emb.o ABSOLUTE
    ..\drivers\hc32_ll_driver\src\hc32_ll_event_port.c 0x00000000   Number         0  hc32_ll_event_port.o ABSOLUTE
    ..\drivers\hc32_ll_driver\src\hc32_ll_fcg.c 0x00000000   Number         0  hc32_ll_fcg.o ABSOLUTE
    ..\drivers\hc32_ll_driver\src\hc32_ll_fcm.c 0x00000000   Number         0  hc32_ll_fcm.o ABSOLUTE
    ..\drivers\hc32_ll_driver\src\hc32_ll_gpio.c 0x00000000   Number         0  hc32_ll_gpio.o ABSOLUTE
    ..\drivers\hc32_ll_driver\src\hc32_ll_hrpwm.c 0x00000000   Number         0  hc32_ll_hrpwm.o ABSOLUTE
    ..\drivers\hc32_ll_driver\src\hc32_ll_i2c.c 0x00000000   Number         0  hc32_ll_i2c.o ABSOLUTE
    ..\drivers\hc32_ll_driver\src\hc32_ll_icg.c 0x00000000   Number         0  hc32_ll_icg.o ABSOLUTE
    ..\drivers\hc32_ll_driver\src\hc32_ll_interrupts.c 0x00000000   Number         0  hc32_ll_interrupts.o ABSOLUTE
    ..\drivers\hc32_ll_driver\src\hc32_ll_mcan.c 0x00000000   Number         0  hc32_ll_mcan.o ABSOLUTE
    ..\drivers\hc32_ll_driver\src\hc32_ll_pla.c 0x00000000   Number         0  hc32_ll_pla.o ABSOLUTE
    ..\drivers\hc32_ll_driver\src\hc32_ll_pwc.c 0x00000000   Number         0  hc32_ll_pwc.o ABSOLUTE
    ..\drivers\hc32_ll_driver\src\hc32_ll_spi.c 0x00000000   Number         0  hc32_ll_spi.o ABSOLUTE
    ..\drivers\hc32_ll_driver\src\hc32_ll_sram.c 0x00000000   Number         0  hc32_ll_sram.o ABSOLUTE
    ..\drivers\hc32_ll_driver\src\hc32_ll_tmr0.c 0x00000000   Number         0  hc32_ll_tmr0.o ABSOLUTE
    ..\drivers\hc32_ll_driver\src\hc32_ll_tmr4.c 0x00000000   Number         0  hc32_ll_tmr4.o ABSOLUTE
    ..\drivers\hc32_ll_driver\src\hc32_ll_tmr6.c 0x00000000   Number         0  hc32_ll_tmr6.o ABSOLUTE
    ..\drivers\hc32_ll_driver\src\hc32_ll_tmra.c 0x00000000   Number         0  hc32_ll_tmra.o ABSOLUTE
    ..\drivers\hc32_ll_driver\src\hc32_ll_usart.c 0x00000000   Number         0  hc32_ll_usart.o ABSOLUTE
    ..\drivers\hc32_ll_driver\src\hc32_ll_utility.c 0x00000000   Number         0  hc32_ll_utility.o ABSOLUTE
    ..\user\src\adc.c                        0x00000000   Number         0  adc.o ABSOLUTE
    ..\user\src\cmp.c                        0x00000000   Number         0  cmp.o ABSOLUTE
    ..\user\src\control.c                    0x00000000   Number         0  control.o ABSOLUTE
    ..\user\src\dac.c                        0x00000000   Number         0  dac.o ABSOLUTE
    ..\user\src\data.c                       0x00000000   Number         0  data.o ABSOLUTE
    ..\user\src\emb.c                        0x00000000   Number         0  emb.o ABSOLUTE
    ..\user\src\ep.c                         0x00000000   Number         0  ep.o ABSOLUTE
    ..\user\src\gpio.c                       0x00000000   Number         0  gpio.o ABSOLUTE
    ..\user\src\hrtimer.c                    0x00000000   Number         0  hrtimer.o ABSOLUTE
    ..\user\src\main.c                       0x00000000   Number         0  main.o ABSOLUTE
    ..\user\src\pla.c                        0x00000000   Number         0  pla.o ABSOLUTE
    ..\user\src\pwc.c                        0x00000000   Number         0  pwc.o ABSOLUTE
    ..\user\src\time.c                       0x00000000   Number         0  time.o ABSOLUTE
    ..\user\src\variable.c                   0x00000000   Number         0  variable.o ABSOLUTE
    dc.s                                     0x00000000   Number         0  dc.o ABSOLUTE
    !!!main                                  0x00000288   Section        8  __main.o(!!!main)
    !!!scatter                               0x00000290   Section       52  __scatter.o(!!!scatter)
    !!dczerorl2                              0x000002c4   Section       90  __dczerorl2.o(!!dczerorl2)
    !!handler_zi                             0x00000320   Section       28  __scatter_zi.o(!!handler_zi)
    .ARM.Collect$$libinit$$00000000          0x0000033c   Section        2  libinit.o(.ARM.Collect$$libinit$$00000000)
    .ARM.Collect$$libinit$$00000001          0x0000033e   Section        4  libinit2.o(.ARM.Collect$$libinit$$00000001)
    .ARM.Collect$$libinit$$00000004          0x00000342   Section        0  libinit2.o(.ARM.Collect$$libinit$$00000004)
    .ARM.Collect$$libinit$$0000000A          0x00000342   Section        0  libinit2.o(.ARM.Collect$$libinit$$0000000A)
    .ARM.Collect$$libinit$$0000000C          0x00000342   Section        0  libinit2.o(.ARM.Collect$$libinit$$0000000C)
    .ARM.Collect$$libinit$$0000000E          0x00000342   Section        0  libinit2.o(.ARM.Collect$$libinit$$0000000E)
    .ARM.Collect$$libinit$$00000011          0x00000342   Section        0  libinit2.o(.ARM.Collect$$libinit$$00000011)
    .ARM.Collect$$libinit$$00000013          0x00000342   Section        0  libinit2.o(.ARM.Collect$$libinit$$00000013)
    .ARM.Collect$$libinit$$00000015          0x00000342   Section        0  libinit2.o(.ARM.Collect$$libinit$$00000015)
    .ARM.Collect$$libinit$$00000017          0x00000342   Section        0  libinit2.o(.ARM.Collect$$libinit$$00000017)
    .ARM.Collect$$libinit$$00000019          0x00000342   Section        0  libinit2.o(.ARM.Collect$$libinit$$00000019)
    .ARM.Collect$$libinit$$0000001B          0x00000342   Section        0  libinit2.o(.ARM.Collect$$libinit$$0000001B)
    .ARM.Collect$$libinit$$0000001D          0x00000342   Section        0  libinit2.o(.ARM.Collect$$libinit$$0000001D)
    .ARM.Collect$$libinit$$0000001F          0x00000342   Section        0  libinit2.o(.ARM.Collect$$libinit$$0000001F)
    .ARM.Collect$$libinit$$00000021          0x00000342   Section        0  libinit2.o(.ARM.Collect$$libinit$$00000021)
    .ARM.Collect$$libinit$$00000023          0x00000342   Section        0  libinit2.o(.ARM.Collect$$libinit$$00000023)
    .ARM.Collect$$libinit$$00000025          0x00000342   Section        0  libinit2.o(.ARM.Collect$$libinit$$00000025)
    .ARM.Collect$$libinit$$0000002C          0x00000342   Section        0  libinit2.o(.ARM.Collect$$libinit$$0000002C)
    .ARM.Collect$$libinit$$0000002E          0x00000342   Section        0  libinit2.o(.ARM.Collect$$libinit$$0000002E)
    .ARM.Collect$$libinit$$00000030          0x00000342   Section        0  libinit2.o(.ARM.Collect$$libinit$$00000030)
    .ARM.Collect$$libinit$$00000032          0x00000342   Section        0  libinit2.o(.ARM.Collect$$libinit$$00000032)
    .ARM.Collect$$libinit$$00000033          0x00000342   Section        2  libinit2.o(.ARM.Collect$$libinit$$00000033)
    .ARM.Collect$$libshutdown$$00000000      0x00000344   Section        2  libshutdown.o(.ARM.Collect$$libshutdown$$00000000)
    .ARM.Collect$$libshutdown$$00000002      0x00000346   Section        0  libshutdown2.o(.ARM.Collect$$libshutdown$$00000002)
    .ARM.Collect$$libshutdown$$00000004      0x00000346   Section        0  libshutdown2.o(.ARM.Collect$$libshutdown$$00000004)
    .ARM.Collect$$libshutdown$$00000007      0x00000346   Section        0  libshutdown2.o(.ARM.Collect$$libshutdown$$00000007)
    .ARM.Collect$$libshutdown$$0000000A      0x00000346   Section        0  libshutdown2.o(.ARM.Collect$$libshutdown$$0000000A)
    .ARM.Collect$$libshutdown$$0000000C      0x00000346   Section        0  libshutdown2.o(.ARM.Collect$$libshutdown$$0000000C)
    .ARM.Collect$$libshutdown$$0000000F      0x00000346   Section        0  libshutdown2.o(.ARM.Collect$$libshutdown$$0000000F)
    .ARM.Collect$$libshutdown$$00000010      0x00000346   Section        2  libshutdown2.o(.ARM.Collect$$libshutdown$$00000010)
    .ARM.Collect$$rtentry$$00000000          0x00000348   Section        0  __rtentry.o(.ARM.Collect$$rtentry$$00000000)
    .ARM.Collect$$rtentry$$00000002          0x00000348   Section        0  __rtentry2.o(.ARM.Collect$$rtentry$$00000002)
    .ARM.Collect$$rtentry$$00000004          0x00000348   Section        6  __rtentry4.o(.ARM.Collect$$rtentry$$00000004)
    .ARM.Collect$$rtentry$$00000009          0x0000034e   Section        0  __rtentry2.o(.ARM.Collect$$rtentry$$00000009)
    .ARM.Collect$$rtentry$$0000000A          0x0000034e   Section        4  __rtentry2.o(.ARM.Collect$$rtentry$$0000000A)
    .ARM.Collect$$rtentry$$0000000C          0x00000352   Section        0  __rtentry2.o(.ARM.Collect$$rtentry$$0000000C)
    .ARM.Collect$$rtentry$$0000000D          0x00000352   Section        8  __rtentry2.o(.ARM.Collect$$rtentry$$0000000D)
    .ARM.Collect$$rtexit$$00000000           0x0000035a   Section        2  rtexit.o(.ARM.Collect$$rtexit$$00000000)
    .ARM.Collect$$rtexit$$00000002           0x0000035c   Section        0  rtexit2.o(.ARM.Collect$$rtexit$$00000002)
    .ARM.Collect$$rtexit$$00000003           0x0000035c   Section        4  rtexit2.o(.ARM.Collect$$rtexit$$00000003)
    .ARM.Collect$$rtexit$$00000004           0x00000360   Section        6  rtexit2.o(.ARM.Collect$$rtexit$$00000004)
    .text                                    0x00000368   Section       76  startup_hc32f334.o(.text)
    $v0                                      0x00000368   Number         0  startup_hc32f334.o(.text)
    .text                                    0x000003b4   Section        0  heapauxi.o(.text)
    .text                                    0x000003ba   Section        0  exit.o(.text)
    .text                                    0x000003cc   Section        8  libspace.o(.text)
    .text                                    0x000003d4   Section        0  sys_exit.o(.text)
    .text                                    0x000003e0   Section        2  use_no_semi.o(.text)
    .text                                    0x000003e2   Section        0  indicate_semi.o(.text)
    i.Adc_Init                               0x000003e2   Section        0  adc.o(i.Adc_Init)
    i.CLK_SetClockDiv                        0x000003e6   Section        0  hc32_ll_clk.o(i.CLK_SetClockDiv)
    i.CURR_H_A_DAC1O1                        0x000003f4   Section        0  dac.o(i.CURR_H_A_DAC1O1)
    .ARM.__AT_0x00000400                     0x00000400   Section       96  hc32_ll_icg.o(.ARM.__AT_0x00000400)
    .text                                    0x00000460   Section       74  sys_stackheap_outer.o(.text)
    i.BSP_CLK_Init                           0x000004ac   Section        0  ev_hc32f334_lqfp64.o(i.BSP_CLK_Init)
    i.BandtrapInit                           0x00000568   Section        0  main.o(i.BandtrapInit)
    i.CLK_GetStableStatus                    0x000005d8   Section        0  hc32_ll_clk.o(i.CLK_GetStableStatus)
    i.CLK_PLLCmd                             0x00000630   Section        0  hc32_ll_clk.o(i.CLK_PLLCmd)
    i.CLK_PLLInit                            0x000006e8   Section        0  hc32_ll_clk.o(i.CLK_PLLInit)
    i.CLK_PLLStructInit                      0x000008c0   Section        0  hc32_ll_clk.o(i.CLK_PLLStructInit)
    i.CLK_SetSysClockSrc                     0x000008f4   Section        0  hc32_ll_clk.o(i.CLK_SetSysClockSrc)
    i.CLK_WaitStable                         0x00000902   Section        0  hc32_ll_clk.o(i.CLK_WaitStable)
    CLK_WaitStable                           0x00000903   Thumb Code    44  hc32_ll_clk.o(i.CLK_WaitStable)
    i.CLK_XtalCmd                            0x00000930   Section        0  hc32_ll_clk.o(i.CLK_XtalCmd)
    i.CLK_XtalInit                           0x000009e0   Section        0  hc32_ll_clk.o(i.CLK_XtalInit)
    i.CLK_XtalStructInit                     0x00000ad4   Section        0  hc32_ll_clk.o(i.CLK_XtalStructInit)
    i.CMP_CompareOutCmd                      0x00000af4   Section        0  hc32_ll_cmp.o(i.CMP_CompareOutCmd)
    i.CMP_DelayUS                            0x00000b78   Section        0  hc32_ll_cmp.o(i.CMP_DelayUS)
    CMP_DelayUS                              0x00000b79   Thumb Code    46  hc32_ll_cmp.o(i.CMP_DelayUS)
    i.CMP_NormalModeInit                     0x00000bb4   Section        0  hc32_ll_cmp.o(i.CMP_NormalModeInit)
    i.CMP_StructInit                         0x00000d18   Section        0  hc32_ll_cmp.o(i.CMP_StructInit)
    i.CURR_H_B_DAC2O1                        0x00000d34   Section        0  dac.o(i.CURR_H_B_DAC2O1)
    i.Cmp_Init                               0x00000d40   Section        0  cmp.o(i.Cmp_Init)
    i.DDL_AssertHandler                      0x00000d44   Section        0  hc32_ll_utility.o(i.DDL_AssertHandler)
    i.DDL_DelayMS                            0x00000d48   Section        0  hc32_ll_utility.o(i.DDL_DelayMS)
    i.DDL_DelayUS                            0x00000d8c   Section        0  hc32_ll_utility.o(i.DDL_DelayUS)
    i.Dac_Init                               0x00000dd0   Section        0  dac.o(i.Dac_Init)
    i.EFM_CacheRamReset                      0x00000dec   Section        0  hc32_ll_efm.o(i.EFM_CacheRamReset)
    i.EFM_DCacheCmd                          0x00000e50   Section        0  hc32_ll_efm.o(i.EFM_DCacheCmd)
    i.EFM_ICacheCmd                          0x00000eb4   Section        0  hc32_ll_efm.o(i.EFM_ICacheCmd)
    i.EFM_PrefetchCmd                        0x00000f18   Section        0  hc32_ll_efm.o(i.EFM_PrefetchCmd)
    i.EFM_SetWaitCycle                       0x00000f7c   Section        0  hc32_ll_efm.o(i.EFM_SetWaitCycle)
    i.EMB_ClearStatus                        0x00001028   Section        0  hc32_ll_emb.o(i.EMB_ClearStatus)
    i.EMB_GR0_IrqHandler                     0x000010d8   Section        0  emb.o(i.EMB_GR0_IrqHandler)
    i.EMB_GetStatus                          0x000011ac   Section        0  hc32_ll_emb.o(i.EMB_GetStatus)
    i.EMB_IntCmd                             0x00001268   Section        0  hc32_ll_emb.o(i.EMB_IntCmd)
    i.EMB_SetReleasePwmCond                  0x0000133c   Section        0  hc32_ll_emb.o(i.EMB_SetReleasePwmCond)
    i.Emb0_Init                              0x0000140c   Section        0  emb.o(i.Emb0_Init)
    i.Emb2_Init                              0x000014e8   Section        0  emb.o(i.Emb2_Init)
    i.Emb3_Init                              0x0000152c   Section        0  emb.o(i.Emb3_Init)
    i.Emb_Init                               0x00001570   Section        0  emb.o(i.Emb_Init)
    i.FCG_Fcg0PeriphClockCmd                 0x00001584   Section        0  hc32_ll_fcg.o(i.FCG_Fcg0PeriphClockCmd)
    i.FCG_Fcg2PeriphClockCmd                 0x00001604   Section        0  hc32_ll_fcg.o(i.FCG_Fcg2PeriphClockCmd)
    i.FCG_Fcg3PeriphClockCmd                 0x00001674   Section        0  hc32_ll_fcg.o(i.FCG_Fcg3PeriphClockCmd)
    i.GPIO_AnalogCmd                         0x000016e4   Section        0  hc32_ll_gpio.o(i.GPIO_AnalogCmd)
    i.GPIO_Init                              0x000017a0   Section        0  hc32_ll_gpio.o(i.GPIO_Init)
    i.GPIO_LLC_HB_outputs_Config             0x00001980   Section        0  hrtimer.o(i.GPIO_LLC_HB_outputs_Config)
    i.GPIO_ResetPins                         0x00001a14   Section        0  hc32_ll_gpio.o(i.GPIO_ResetPins)
    i.GPIO_SetFunc                           0x00001a88   Section        0  hc32_ll_gpio.o(i.GPIO_SetFunc)
    i.GPIO_SetReadWaitCycle                  0x00001b50   Section        0  hc32_ll_gpio.o(i.GPIO_SetReadWaitCycle)
    i.GPIO_StructInit                        0x00001bec   Section        0  hc32_ll_gpio.o(i.GPIO_StructInit)
    i.Gpio_Init                              0x00001c18   Section        0  gpio.o(i.Gpio_Init)
    i.HRPWM_Calibrate_ClearFlag              0x00001e38   Section        0  hrtimer.o(i.HRPWM_Calibrate_ClearFlag)
    i.HRPWM_Calibrate_GetStatus              0x00001e48   Section        0  hrtimer.o(i.HRPWM_Calibrate_GetStatus)
    i.HRPWM_Calibrate_PeriodDisable          0x00001e5c   Section        0  hrtimer.o(i.HRPWM_Calibrate_PeriodDisable)
    i.HRPWM_Calibrate_ProcessSingle          0x00001e6c   Section        0  hrtimer.o(i.HRPWM_Calibrate_ProcessSingle)
    i.HRPWM_Calibrate_SingleDisable          0x00001ee0   Section        0  hrtimer.o(i.HRPWM_Calibrate_SingleDisable)
    i.HRPWM_Calibrate_SingleEnable           0x00001ef0   Section        0  hrtimer.o(i.HRPWM_Calibrate_SingleEnable)
    i.HRPWM_DeInit                           0x00001f00   Section        0  hc32_ll_hrpwm.o(i.HRPWM_DeInit)
    i.HRPWM_Init                             0x000020a8   Section        0  hc32_ll_hrpwm.o(i.HRPWM_Init)
    i.HRPWM_PWM_StructInit                   0x00002174   Section        0  hc32_ll_hrpwm.o(i.HRPWM_PWM_StructInit)
    i.HRTIM_Config                           0x000021ac   Section        0  hrtimer.o(i.HRTIM_Config)
    i.INTC_IrqSignIn                         0x00003740   Section        0  hc32_ll_interrupts.o(i.INTC_IrqSignIn)
    i.IRQ000_Handler                         0x000037e8   Section        0  hc32_ll_interrupts.o(i.IRQ000_Handler)
    i.IRQ001_Handler                         0x000037fc   Section        0  hc32_ll_interrupts.o(i.IRQ001_Handler)
    i.IRQ002_Handler                         0x00003810   Section        0  hc32_ll_interrupts.o(i.IRQ002_Handler)
    i.IRQ003_Handler                         0x00003824   Section        0  hc32_ll_interrupts.o(i.IRQ003_Handler)
    i.IRQ004_Handler                         0x00003838   Section        0  hc32_ll_interrupts.o(i.IRQ004_Handler)
    i.IRQ005_Handler                         0x0000384c   Section        0  hc32_ll_interrupts.o(i.IRQ005_Handler)
    i.IRQ006_Handler                         0x00003860   Section        0  hc32_ll_interrupts.o(i.IRQ006_Handler)
    i.IRQ007_Handler                         0x00003874   Section        0  hc32_ll_interrupts.o(i.IRQ007_Handler)
    i.IRQ008_Handler                         0x00003888   Section        0  hc32_ll_interrupts.o(i.IRQ008_Handler)
    i.IRQ009_Handler                         0x0000389c   Section        0  hc32_ll_interrupts.o(i.IRQ009_Handler)
    i.IRQ010_Handler                         0x000038b0   Section        0  hc32_ll_interrupts.o(i.IRQ010_Handler)
    i.IRQ011_Handler                         0x000038c4   Section        0  hc32_ll_interrupts.o(i.IRQ011_Handler)
    i.IRQ012_Handler                         0x000038d8   Section        0  hc32_ll_interrupts.o(i.IRQ012_Handler)
    i.IRQ013_Handler                         0x000038ec   Section        0  hc32_ll_interrupts.o(i.IRQ013_Handler)
    i.IRQ014_Handler                         0x00003900   Section        0  hc32_ll_interrupts.o(i.IRQ014_Handler)
    i.IRQ015_Handler                         0x00003914   Section        0  hc32_ll_interrupts.o(i.IRQ015_Handler)
    i.InitMcu_Adc1                           0x00003928   Section        0  adc.o(i.InitMcu_Adc1)
    i.LL_PERIPH_WE                           0x00003ab0   Section        0  hc32_ll.o(i.LL_PERIPH_WE)
    i.LL_PERIPH_WP                           0x00003b30   Section        0  hc32_ll.o(i.LL_PERIPH_WP)
    i.PWC_LVD_ClearStatus                    0x00003bb4   Section        0  hc32_ll_pwc.o(i.PWC_LVD_ClearStatus)
    i.PWC_LVD_Init                           0x00003c1c   Section        0  hc32_ll_pwc.o(i.PWC_LVD_Init)
    i.PWC_LVD_StructInit                     0x00003e20   Section        0  hc32_ll_pwc.o(i.PWC_LVD_StructInit)
    i.Pwc_Init                               0x00003e44   Section        0  pwc.o(i.Pwc_Init)
    i.SetSysClockDiv                         0x00003e98   Section        0  hc32_ll_clk.o(i.SetSysClockDiv)
    SetSysClockDiv                           0x00003e99   Thumb Code   492  hc32_ll_clk.o(i.SetSysClockDiv)
    i.SetSysClockSrc                         0x000040c0   Section        0  hc32_ll_clk.o(i.SetSysClockSrc)
    SetSysClockSrc                           0x000040c1   Thumb Code   182  hc32_ll_clk.o(i.SetSysClockSrc)
    i.Square_root                            0x000041b0   Section        0  main.o(i.Square_root)
    i.SystemCoreClockUpdate                  0x00004204   Section        0  system_hc32f334.o(i.SystemCoreClockUpdate)
    i.SystemInit                             0x000042b0   Section        0  system_hc32f334.o(i.SystemInit)
    i.TMR0_2_Handler                         0x000042d0   Section        0  main.o(i.TMR0_2_Handler)
    i.TMR0_HWStopCondCmd                     0x00004458   Section        0  hc32_ll_tmr0.o(i.TMR0_HWStopCondCmd)
    i.TMR0_Init                              0x000044f0   Section        0  hc32_ll_tmr0.o(i.TMR0_Init)
    i.TMR0_IntCmd                            0x00004620   Section        0  hc32_ll_tmr0.o(i.TMR0_IntCmd)
    i.TMR0_Start                             0x000046ac   Section        0  hc32_ll_tmr0.o(i.TMR0_Start)
    i.TMR0_StructInit                        0x0000472c   Section        0  hc32_ll_tmr0.o(i.TMR0_StructInit)
    i.TMR0_WaitSyncDone                      0x0000474c   Section        0  hc32_ll_tmr0.o(i.TMR0_WaitSyncDone)
    TMR0_WaitSyncDone                        0x0000474d   Thumb Code    80  hc32_ll_tmr0.o(i.TMR0_WaitSyncDone)
    i.Tmr0_Init                              0x000047a4   Section        0  time.o(i.Tmr0_Init)
    i.Two_phase_pfc_CTRL                     0x00004870   Section        0  control.o(i.Two_phase_pfc_CTRL)
    i.initMcu_CMP3                           0x000059d8   Section        0  cmp.o(i.initMcu_CMP3)
    i.initMcu_DAC1                           0x00005a40   Section        0  dac.o(i.initMcu_DAC1)
    i.initMcu_DAC2                           0x00005a8c   Section        0  dac.o(i.initMcu_DAC2)
    i.main                                   0x00005ac4   Section        0  main.o(i.main)
    x$fpl$dadd                               0x000061dc   Section      336  daddsub_clz.o(x$fpl$dadd)
    $v0                                      0x000061dc   Number         0  daddsub_clz.o(x$fpl$dadd)
    _dadd1                                   0x000061ed   Thumb Code     0  daddsub_clz.o(x$fpl$dadd)
    x$fpl$dfixu                              0x0000632c   Section       90  dfixu.o(x$fpl$dfixu)
    $v0                                      0x0000632c   Number         0  dfixu.o(x$fpl$dfixu)
    x$fpl$dmul                               0x00006388   Section      340  dmul.o(x$fpl$dmul)
    $v0                                      0x00006388   Number         0  dmul.o(x$fpl$dmul)
    x$fpl$dnaninf                            0x000064dc   Section      156  dnaninf.o(x$fpl$dnaninf)
    $v0                                      0x000064dc   Number         0  dnaninf.o(x$fpl$dnaninf)
    x$fpl$dretinf                            0x00006578   Section       12  dretinf.o(x$fpl$dretinf)
    $v0                                      0x00006578   Number         0  dretinf.o(x$fpl$dretinf)
    x$fpl$dsub                               0x00006584   Section      468  daddsub_clz.o(x$fpl$dsub)
    $v0                                      0x00006584   Number         0  daddsub_clz.o(x$fpl$dsub)
    _dsub1                                   0x00006595   Thumb Code     0  daddsub_clz.o(x$fpl$dsub)
    x$fpl$f2d                                0x00006758   Section       86  f2d.o(x$fpl$f2d)
    $v0                                      0x00006758   Number         0  f2d.o(x$fpl$f2d)
    x$fpl$fnaninf                            0x000067ae   Section      140  fnaninf.o(x$fpl$fnaninf)
    $v0                                      0x000067ae   Number         0  fnaninf.o(x$fpl$fnaninf)
    x$fpl$fpinit                             0x0000683a   Section       10  fpinit.o(x$fpl$fpinit)
    $v0                                      0x0000683a   Number         0  fpinit.o(x$fpl$fpinit)
    .constdata                               0x00006844   Section    40004  data.o(.constdata)
    x$fpl$usenofp                            0x00006844   Section        0  usenofp.o(x$fpl$usenofp)
    .constdata                               0x00010488   Section     1604  data.o(.constdata)
    .constdata                               0x00010acc   Section      802  data.o(.constdata)
    .constdata                               0x00010df0   Section     1600  data.o(.constdata)
    .constdata                               0x00011430   Section     1244  data.o(.constdata)
    .constdata                               0x0001190c   Section      622  data.o(.constdata)
    .constdata                               0x00011b7a   Section      622  data.o(.constdata)
    .constdata                               0x00011de8   Section      622  data.o(.constdata)
    .constdata                               0x00012056   Section      622  data.o(.constdata)
    .constdata                               0x000122c4   Section     1600  data.o(.constdata)
    .constdata                               0x00012904   Section     1600  data.o(.constdata)
    .constdata                               0x00012f44   Section     1600  data.o(.constdata)
    .constdata                               0x00013584   Section     1600  data.o(.constdata)
    .data                                    0x1fffc000   Section        4  main.o(.data)
    Led_up1_cnt                              0x1fffc000   Data           2  main.o(.data)
    Led_low1_cnt                             0x1fffc002   Data           2  main.o(.data)
    .data                                    0x1fffc004   Section        4  variable.o(.data)
    .data                                    0x1fffc008   Section        4  variable.o(.data)
    .data                                    0x1fffc00c   Section        4  variable.o(.data)
    .data                                    0x1fffc010   Section        1  variable.o(.data)
    .data                                    0x1fffc012   Section        2  variable.o(.data)
    .data                                    0x1fffc014   Section        2  variable.o(.data)
    .data                                    0x1fffc016   Section        2  variable.o(.data)
    .data                                    0x1fffc018   Section        2  variable.o(.data)
    .data                                    0x1fffc01a   Section        2  variable.o(.data)
    .data                                    0x1fffc01c   Section        1  variable.o(.data)
    .data                                    0x1fffc01d   Section        1  variable.o(.data)
    .data                                    0x1fffc01e   Section        1  variable.o(.data)
    .data                                    0x1fffc01f   Section        1  variable.o(.data)
    .data                                    0x1fffc020   Section        4  variable.o(.data)
    .data                                    0x1fffc024   Section        4  variable.o(.data)
    .data                                    0x1fffc028   Section        2  variable.o(.data)
    .data                                    0x1fffc02a   Section        2  variable.o(.data)
    .data                                    0x1fffc02c   Section        2  variable.o(.data)
    .data                                    0x1fffc02e   Section        2  variable.o(.data)
    .data                                    0x1fffc030   Section        2  variable.o(.data)
    .data                                    0x1fffc032   Section        1  variable.o(.data)
    .data                                    0x1fffc033   Section        1  variable.o(.data)
    .data                                    0x1fffc034   Section        2  variable.o(.data)
    .data                                    0x1fffc036   Section        2  variable.o(.data)
    .data                                    0x1fffc038   Section        1  variable.o(.data)
    .data                                    0x1fffc03a   Section        2  variable.o(.data)
    .data                                    0x1fffc03c   Section        1  variable.o(.data)
    .data                                    0x1fffc03d   Section        1  variable.o(.data)
    .data                                    0x1fffc03e   Section        1  variable.o(.data)
    .data                                    0x1fffc03f   Section        1  variable.o(.data)
    .data                                    0x1fffc040   Section        2  variable.o(.data)
    .data                                    0x1fffc042   Section        2  variable.o(.data)
    .data                                    0x1fffc044   Section        2  variable.o(.data)
    .data                                    0x1fffc046   Section        2  variable.o(.data)
    .data                                    0x1fffc048   Section        1  variable.o(.data)
    .data                                    0x1fffc049   Section        1  variable.o(.data)
    .data                                    0x1fffc04a   Section        2  variable.o(.data)
    .data                                    0x1fffc04c   Section        2  variable.o(.data)
    .data                                    0x1fffc050   Section        4  variable.o(.data)
    .data                                    0x1fffc054   Section        1  variable.o(.data)
    .data                                    0x1fffc056   Section        2  variable.o(.data)
    .data                                    0x1fffc058   Section        2  variable.o(.data)
    .data                                    0x1fffc05c   Section        4  variable.o(.data)
    .data                                    0x1fffc060   Section        2  variable.o(.data)
    .data                                    0x1fffc062   Section        1  variable.o(.data)
    .data                                    0x1fffc064   Section        4  variable.o(.data)
    .data                                    0x1fffc068   Section        4  variable.o(.data)
    .data                                    0x1fffc06c   Section        4  variable.o(.data)
    .data                                    0x1fffc070   Section        4  variable.o(.data)
    .data                                    0x1fffc074   Section        2  variable.o(.data)
    .data                                    0x1fffc076   Section        2  variable.o(.data)
    .data                                    0x1fffc078   Section        4  variable.o(.data)
    .data                                    0x1fffc07c   Section        4  variable.o(.data)
    .data                                    0x1fffc080   Section        4  variable.o(.data)
    .data                                    0x1fffc084   Section        2  variable.o(.data)
    .data                                    0x1fffc088   Section        4  variable.o(.data)
    .data                                    0x1fffc08c   Section        4  variable.o(.data)
    .data                                    0x1fffc090   Section        4  variable.o(.data)
    .data                                    0x1fffc094   Section        4  variable.o(.data)
    .data                                    0x1fffc098   Section        4  variable.o(.data)
    .data                                    0x1fffc09c   Section        4  variable.o(.data)
    .data                                    0x1fffc0a0   Section        4  variable.o(.data)
    .data                                    0x1fffc0a4   Section        4  variable.o(.data)
    .data                                    0x1fffc0a8   Section        4  variable.o(.data)
    .data                                    0x1fffc0ac   Section        4  variable.o(.data)
    .data                                    0x1fffc0b0   Section        4  variable.o(.data)
    .data                                    0x1fffc0b4   Section        4  variable.o(.data)
    .data                                    0x1fffc0b8   Section        4  variable.o(.data)
    .data                                    0x1fffc0bc   Section        4  variable.o(.data)
    .data                                    0x1fffc0c0   Section        4  variable.o(.data)
    .data                                    0x1fffc0c4   Section        2  variable.o(.data)
    .data                                    0x1fffc0c8   Section        4  variable.o(.data)
    .data                                    0x1fffc0cc   Section        2  variable.o(.data)
    .data                                    0x1fffc0ce   Section        1  variable.o(.data)
    .data                                    0x1fffc0cf   Section        1  variable.o(.data)
    .data                                    0x1fffc0d0   Section        4  variable.o(.data)
    .data                                    0x1fffc0d4   Section        2  variable.o(.data)
    .data                                    0x1fffc0d6   Section        2  variable.o(.data)
    .data                                    0x1fffc0d8   Section        2  variable.o(.data)
    .data                                    0x1fffc0dc   Section        4  variable.o(.data)
    .data                                    0x1fffc0e0   Section        2  variable.o(.data)
    .data                                    0x1fffc0e2   Section        2  variable.o(.data)
    .data                                    0x1fffc0e4   Section        2  variable.o(.data)
    .data                                    0x1fffc0e6   Section        1  variable.o(.data)
    .data                                    0x1fffc0e7   Section        1  variable.o(.data)
    .data                                    0x1fffc0e8   Section        1  variable.o(.data)
    .data                                    0x1fffc0e9   Section        1  variable.o(.data)
    .data                                    0x1fffc0ea   Section        1  variable.o(.data)
    .data                                    0x1fffc0ec   Section        2  variable.o(.data)
    .data                                    0x1fffc0ee   Section        2  variable.o(.data)
    .data                                    0x1fffc0f0   Section        2  variable.o(.data)
    .data                                    0x1fffc0f2   Section        2  variable.o(.data)
    .data                                    0x1fffc0f4   Section        1  variable.o(.data)
    .data                                    0x1fffc0f5   Section        1  variable.o(.data)
    .data                                    0x1fffc0f6   Section        2  variable.o(.data)
    .data                                    0x1fffc0f8   Section        2  variable.o(.data)
    .data                                    0x1fffc0fa   Section        2  variable.o(.data)
    .data                                    0x1fffc0fc   Section        2  variable.o(.data)
    .data                                    0x1fffc0fe   Section        2  variable.o(.data)
    .data                                    0x1fffc100   Section        2  variable.o(.data)
    .data                                    0x1fffc104   Section        4  variable.o(.data)
    .data                                    0x1fffc108   Section        2  variable.o(.data)
    .data                                    0x1fffc10c   Section        4  variable.o(.data)
    .data                                    0x1fffc110   Section        4  variable.o(.data)
    .data                                    0x1fffc114   Section        2  variable.o(.data)
    .data                                    0x1fffc116   Section        2  variable.o(.data)
    .data                                    0x1fffc118   Section        1  variable.o(.data)
    .data                                    0x1fffc119   Section        1  variable.o(.data)
    .data                                    0x1fffc11a   Section        1  variable.o(.data)
    .data                                    0x1fffc11c   Section        2  variable.o(.data)
    .data                                    0x1fffc11e   Section        2  variable.o(.data)
    .data                                    0x1fffc120   Section        4  variable.o(.data)
    .data                                    0x1fffc128   Section        8  variable.o(.data)
    .data                                    0x1fffc130   Section        4  variable.o(.data)
    .data                                    0x1fffc134   Section        1  variable.o(.data)
    .data                                    0x1fffc135   Section        1  variable.o(.data)
    .data                                    0x1fffc138   Section        4  variable.o(.data)
    .data                                    0x1fffc13c   Section        4  variable.o(.data)
    .data                                    0x1fffc140   Section        8  variable.o(.data)
    .data                                    0x1fffc148   Section        4  variable.o(.data)
    .data                                    0x1fffc14c   Section        1  variable.o(.data)
    .data                                    0x1fffc14e   Section        2  variable.o(.data)
    .data                                    0x1fffc150   Section        2  variable.o(.data)
    .data                                    0x1fffc152   Section        2  variable.o(.data)
    .data                                    0x1fffc154   Section        4  variable.o(.data)
    .data                                    0x1fffc158   Section        4  variable.o(.data)
    .data                                    0x1fffc15c   Section        4  variable.o(.data)
    .data                                    0x1fffc160   Section        4  variable.o(.data)
    .data                                    0x1fffc164   Section        4  variable.o(.data)
    .data                                    0x1fffc168   Section        4  variable.o(.data)
    .data                                    0x1fffc16c   Section        4  variable.o(.data)
    .data                                    0x1fffc170   Section        4  variable.o(.data)
    .data                                    0x1fffc174   Section        4  variable.o(.data)
    .data                                    0x1fffc178   Section        4  variable.o(.data)
    .data                                    0x1fffc17c   Section        4  variable.o(.data)
    .data                                    0x1fffc180   Section        1  variable.o(.data)
    .data                                    0x1fffc184   Section        4  variable.o(.data)
    .data                                    0x1fffc188   Section        4  variable.o(.data)
    .data                                    0x1fffc18c   Section        4  variable.o(.data)
    .data__ZZ18Two_phase_pfc_CTRLE1i         0x1fffc190   Section        1  control.o(.data__ZZ18Two_phase_pfc_CTRLE1i)
    .data__ZZ18Two_phase_pfc_CTRLE23cap_pattern_change_cnt1 0x1fffc191   Section        1  control.o(.data__ZZ18Two_phase_pfc_CTRLE23cap_pattern_change_cnt1)
    .data__ZZ18Two_phase_pfc_CTRLE23cap_pattern_change_cnt2 0x1fffc192   Section        1  control.o(.data__ZZ18Two_phase_pfc_CTRLE23cap_pattern_change_cnt2)
    .data__ZZ18Two_phase_pfc_CTRLE7phase_k   0x1fffc194   Section        4  control.o(.data__ZZ18Two_phase_pfc_CTRLE7phase_k)
    .bss                                     0x1fffc198   Section       64  hc32_ll_interrupts.o(.bss)
    m_apfnIrqHandler                         0x1fffc198   Data          64  hc32_ll_interrupts.o(.bss)
    .bss                                     0x1fffc1d8   Section       16  variable.o(.bss)
    .bss                                     0x1fffc1e8   Section       14  variable.o(.bss)
    .bss                                     0x1fffc1f8   Section       72  variable.o(.bss)
    .bss                                     0x1fffc240   Section       96  libspace.o(.bss)
    .bss.noinit                              0x1fffc2a0   Section        8  system_hc32f334.o(.bss.noinit)
    HEAP                                     0x1fffc2a8   Section     1024  startup_hc32f334.o(HEAP)
    Heap_Mem                                 0x1fffc2a8   Data        1024  startup_hc32f334.o(HEAP)
    STACK                                    0x1fffc6a8   Section     3072  startup_hc32f334.o(STACK)
    Stack_Mem                                0x1fffc6a8   Data        3072  startup_hc32f334.o(STACK)
    __initial_sp                             0x1fffd2a8   Data           0  startup_hc32f334.o(STACK)

    Global Symbols

    Symbol Name                              Value     Ov Type        Size  Object(Section)

    BuildAttributes$$THM_ISAv4$E$P$D$K$B$S$7EM$VFPi3$EXTD16$VFPS$VFMA$PE$A:L22UL41UL21$X:L11$S22US41US21$IEEE1$IW$USESV6$~STKCKD$USESV7$~SHL$OTIME$ROPI$EBA8$UX$STANDARDLIB$REQ8$PRES8$EABIv2 0x00000000   Number         0  anon$$obj.o ABSOLUTE
    __ARM_use_no_argv                        0x00000000   Number         0  main.o ABSOLUTE
    __Vectors                                0x00000000   Data           4  startup_hc32f334.o(RESET)
    __ARM_exceptions_init                     - Undefined Weak Reference
    __alloca_initialize                       - Undefined Weak Reference
    __arm_preinit_                            - Undefined Weak Reference
    __cpp_initialize__aeabi_                  - Undefined Weak Reference
    __cxa_finalize                            - Undefined Weak Reference
    __rt_locale                               - Undefined Weak Reference
    __sigvec_lookup                           - Undefined Weak Reference
    _atexit_init                              - Undefined Weak Reference
    _call_atexit_fns                          - Undefined Weak Reference
    _clock_init                               - Undefined Weak Reference
    _fp_trap_init                             - Undefined Weak Reference
    _fp_trap_shutdown                         - Undefined Weak Reference
    _get_lc_collate                           - Undefined Weak Reference
    _get_lc_ctype                             - Undefined Weak Reference
    _get_lc_monetary                          - Undefined Weak Reference
    _get_lc_numeric                           - Undefined Weak Reference
    _get_lc_time                              - Undefined Weak Reference
    _getenv_init                              - Undefined Weak Reference
    _handle_redirection                       - Undefined Weak Reference
    _init_alloc                               - Undefined Weak Reference
    _init_user_alloc                          - Undefined Weak Reference
    _initio                                   - Undefined Weak Reference
    _rand_init                                - Undefined Weak Reference
    _signal_finish                            - Undefined Weak Reference
    _signal_init                              - Undefined Weak Reference
    _terminate_alloc                          - Undefined Weak Reference
    _terminate_user_alloc                     - Undefined Weak Reference
    _terminateio                              - Undefined Weak Reference
    __Vectors_End                            0x00000288   Data           0  startup_hc32f334.o(RESET)
    __Vectors_Size                           0x00000288   Number         0  startup_hc32f334.o ABSOLUTE
    __main                                   0x00000289   Thumb Code     8  __main.o(!!!main)
    __scatterload                            0x00000291   Thumb Code     0  __scatter.o(!!!scatter)
    __scatterload_rt2                        0x00000291   Thumb Code    44  __scatter.o(!!!scatter)
    __scatterload_rt2_thumb_only             0x00000291   Thumb Code     0  __scatter.o(!!!scatter)
    __scatterload_null                       0x0000029f   Thumb Code     0  __scatter.o(!!!scatter)
    __decompress                             0x000002c5   Thumb Code    90  __dczerorl2.o(!!dczerorl2)
    __decompress1                            0x000002c5   Thumb Code     0  __dczerorl2.o(!!dczerorl2)
    __scatterload_zeroinit                   0x00000321   Thumb Code    28  __scatter_zi.o(!!handler_zi)
    __rt_lib_init                            0x0000033d   Thumb Code     0  libinit.o(.ARM.Collect$$libinit$$00000000)
    __rt_lib_init_fp_1                       0x0000033f   Thumb Code     0  libinit2.o(.ARM.Collect$$libinit$$00000001)
    __rt_lib_init_alloca_1                   0x00000343   Thumb Code     0  libinit2.o(.ARM.Collect$$libinit$$0000002E)
    __rt_lib_init_argv_1                     0x00000343   Thumb Code     0  libinit2.o(.ARM.Collect$$libinit$$0000002C)
    __rt_lib_init_atexit_1                   0x00000343   Thumb Code     0  libinit2.o(.ARM.Collect$$libinit$$0000001B)
    __rt_lib_init_clock_1                    0x00000343   Thumb Code     0  libinit2.o(.ARM.Collect$$libinit$$00000021)
    __rt_lib_init_cpp_1                      0x00000343   Thumb Code     0  libinit2.o(.ARM.Collect$$libinit$$00000032)
    __rt_lib_init_exceptions_1               0x00000343   Thumb Code     0  libinit2.o(.ARM.Collect$$libinit$$00000030)
    __rt_lib_init_fp_trap_1                  0x00000343   Thumb Code     0  libinit2.o(.ARM.Collect$$libinit$$0000001F)
    __rt_lib_init_getenv_1                   0x00000343   Thumb Code     0  libinit2.o(.ARM.Collect$$libinit$$00000023)
    __rt_lib_init_heap_1                     0x00000343   Thumb Code     0  libinit2.o(.ARM.Collect$$libinit$$0000000A)
    __rt_lib_init_lc_collate_1               0x00000343   Thumb Code     0  libinit2.o(.ARM.Collect$$libinit$$00000011)
    __rt_lib_init_lc_ctype_1                 0x00000343   Thumb Code     0  libinit2.o(.ARM.Collect$$libinit$$00000013)
    __rt_lib_init_lc_monetary_1              0x00000343   Thumb Code     0  libinit2.o(.ARM.Collect$$libinit$$00000015)
    __rt_lib_init_lc_numeric_1               0x00000343   Thumb Code     0  libinit2.o(.ARM.Collect$$libinit$$00000017)
    __rt_lib_init_lc_time_1                  0x00000343   Thumb Code     0  libinit2.o(.ARM.Collect$$libinit$$00000019)
    __rt_lib_init_preinit_1                  0x00000343   Thumb Code     0  libinit2.o(.ARM.Collect$$libinit$$00000004)
    __rt_lib_init_rand_1                     0x00000343   Thumb Code     0  libinit2.o(.ARM.Collect$$libinit$$0000000E)
    __rt_lib_init_return                     0x00000343   Thumb Code     0  libinit2.o(.ARM.Collect$$libinit$$00000033)
    __rt_lib_init_signal_1                   0x00000343   Thumb Code     0  libinit2.o(.ARM.Collect$$libinit$$0000001D)
    __rt_lib_init_stdio_1                    0x00000343   Thumb Code     0  libinit2.o(.ARM.Collect$$libinit$$00000025)
    __rt_lib_init_user_alloc_1               0x00000343   Thumb Code     0  libinit2.o(.ARM.Collect$$libinit$$0000000C)
    __rt_lib_shutdown                        0x00000345   Thumb Code     0  libshutdown.o(.ARM.Collect$$libshutdown$$00000000)
    __rt_lib_shutdown_cpp_1                  0x00000347   Thumb Code     0  libshutdown2.o(.ARM.Collect$$libshutdown$$00000002)
    __rt_lib_shutdown_fp_trap_1              0x00000347   Thumb Code     0  libshutdown2.o(.ARM.Collect$$libshutdown$$00000007)
    __rt_lib_shutdown_heap_1                 0x00000347   Thumb Code     0  libshutdown2.o(.ARM.Collect$$libshutdown$$0000000F)
    __rt_lib_shutdown_return                 0x00000347   Thumb Code     0  libshutdown2.o(.ARM.Collect$$libshutdown$$00000010)
    __rt_lib_shutdown_signal_1               0x00000347   Thumb Code     0  libshutdown2.o(.ARM.Collect$$libshutdown$$0000000A)
    __rt_lib_shutdown_stdio_1                0x00000347   Thumb Code     0  libshutdown2.o(.ARM.Collect$$libshutdown$$00000004)
    __rt_lib_shutdown_user_alloc_1           0x00000347   Thumb Code     0  libshutdown2.o(.ARM.Collect$$libshutdown$$0000000C)
    __rt_entry                               0x00000349   Thumb Code     0  __rtentry.o(.ARM.Collect$$rtentry$$00000000)
    __rt_entry_presh_1                       0x00000349   Thumb Code     0  __rtentry2.o(.ARM.Collect$$rtentry$$00000002)
    __rt_entry_sh                            0x00000349   Thumb Code     0  __rtentry4.o(.ARM.Collect$$rtentry$$00000004)
    __rt_entry_li                            0x0000034f   Thumb Code     0  __rtentry2.o(.ARM.Collect$$rtentry$$0000000A)
    __rt_entry_postsh_1                      0x0000034f   Thumb Code     0  __rtentry2.o(.ARM.Collect$$rtentry$$00000009)
    __rt_entry_main                          0x00000353   Thumb Code     0  __rtentry2.o(.ARM.Collect$$rtentry$$0000000D)
    __rt_entry_postli_1                      0x00000353   Thumb Code     0  __rtentry2.o(.ARM.Collect$$rtentry$$0000000C)
    __rt_exit                                0x0000035b   Thumb Code     0  rtexit.o(.ARM.Collect$$rtexit$$00000000)
    __rt_exit_ls                             0x0000035d   Thumb Code     0  rtexit2.o(.ARM.Collect$$rtexit$$00000003)
    __rt_exit_prels_1                        0x0000035d   Thumb Code     0  rtexit2.o(.ARM.Collect$$rtexit$$00000002)
    __rt_exit_exit                           0x00000361   Thumb Code     0  rtexit2.o(.ARM.Collect$$rtexit$$00000004)
    Reset_Handler                            0x00000369   Thumb Code    16  startup_hc32f334.o(.text)
    NMI_Handler                              0x00000379   Thumb Code     2  startup_hc32f334.o(.text)
    HardFault_Handler                        0x0000037b   Thumb Code     2  startup_hc32f334.o(.text)
    MemManage_Handler                        0x0000037d   Thumb Code     2  startup_hc32f334.o(.text)
    BusFault_Handler                         0x0000037f   Thumb Code     2  startup_hc32f334.o(.text)
    UsageFault_Handler                       0x00000381   Thumb Code     2  startup_hc32f334.o(.text)
    SVC_Handler                              0x00000383   Thumb Code     2  startup_hc32f334.o(.text)
    DebugMon_Handler                         0x00000385   Thumb Code     2  startup_hc32f334.o(.text)
    PendSV_Handler                           0x00000387   Thumb Code     2  startup_hc32f334.o(.text)
    SysTick_Handler                          0x00000389   Thumb Code     2  startup_hc32f334.o(.text)
    ADC1_Handler                             0x0000038b   Thumb Code     0  startup_hc32f334.o(.text)
    ADC2_Handler                             0x0000038b   Thumb Code     0  startup_hc32f334.o(.text)
    ADC3_Handler                             0x0000038b   Thumb Code     0  startup_hc32f334.o(.text)
    CLK_XtalStop_Handler                     0x0000038b   Thumb Code     0  startup_hc32f334.o(.text)
    CMP1_Handler                             0x0000038b   Thumb Code     0  startup_hc32f334.o(.text)
    CMP2_Handler                             0x0000038b   Thumb Code     0  startup_hc32f334.o(.text)
    CMP3_Handler                             0x0000038b   Thumb Code     0  startup_hc32f334.o(.text)
    CTC_Handler                              0x0000038b   Thumb Code     0  startup_hc32f334.o(.text)
    DMA_Error_Handler                        0x0000038b   Thumb Code     0  startup_hc32f334.o(.text)
    DMA_TC0_BTC0_Handler                     0x0000038b   Thumb Code     0  startup_hc32f334.o(.text)
    DMA_TC1_BTC1_Handler                     0x0000038b   Thumb Code     0  startup_hc32f334.o(.text)
    DMA_TC2_BTC2_Handler                     0x0000038b   Thumb Code     0  startup_hc32f334.o(.text)
    DMA_TC3_BTC3_Handler                     0x0000038b   Thumb Code     0  startup_hc32f334.o(.text)
    DMA_TC4_BTC4_Handler                     0x0000038b   Thumb Code     0  startup_hc32f334.o(.text)
    DMA_TC5_BTC5_Handler                     0x0000038b   Thumb Code     0  startup_hc32f334.o(.text)
    DMA_TC6_BTC6_Handler                     0x0000038b   Thumb Code     0  startup_hc32f334.o(.text)
    DMA_TC7_BTC7_Handler                     0x0000038b   Thumb Code     0  startup_hc32f334.o(.text)
    EFM_OpEnd_Handler                        0x0000038b   Thumb Code     0  startup_hc32f334.o(.text)
    EFM_PEError_ReadCol_Handler              0x0000038b   Thumb Code     0  startup_hc32f334.o(.text)
    EMB_GR0_Handler                          0x0000038b   Thumb Code     0  startup_hc32f334.o(.text)
    EMB_GR1_Handler                          0x0000038b   Thumb Code     0  startup_hc32f334.o(.text)
    EMB_GR2_Handler                          0x0000038b   Thumb Code     0  startup_hc32f334.o(.text)
    EMB_GR3_Handler                          0x0000038b   Thumb Code     0  startup_hc32f334.o(.text)
    EMB_GR4_Handler                          0x0000038b   Thumb Code     0  startup_hc32f334.o(.text)
    EMB_GR5_Handler                          0x0000038b   Thumb Code     0  startup_hc32f334.o(.text)
    EMB_GR6_Handler                          0x0000038b   Thumb Code     0  startup_hc32f334.o(.text)
    EMB_GR7_Handler                          0x0000038b   Thumb Code     0  startup_hc32f334.o(.text)
    EMB_GR8_Handler                          0x0000038b   Thumb Code     0  startup_hc32f334.o(.text)
    EVENT_PORT1_Handler                      0x0000038b   Thumb Code     0  startup_hc32f334.o(.text)
    EVENT_PORT2_Handler                      0x0000038b   Thumb Code     0  startup_hc32f334.o(.text)
    EVENT_PORT3_Handler                      0x0000038b   Thumb Code     0  startup_hc32f334.o(.text)
    EVENT_PORT4_Handler                      0x0000038b   Thumb Code     0  startup_hc32f334.o(.text)
    EXTINT00_SWINT16_Handler                 0x0000038b   Thumb Code     0  startup_hc32f334.o(.text)
    EXTINT01_SWINT17_Handler                 0x0000038b   Thumb Code     0  startup_hc32f334.o(.text)
    EXTINT02_SWINT18_Handler                 0x0000038b   Thumb Code     0  startup_hc32f334.o(.text)
    EXTINT03_SWINT19_Handler                 0x0000038b   Thumb Code     0  startup_hc32f334.o(.text)
    EXTINT04_SWINT20_Handler                 0x0000038b   Thumb Code     0  startup_hc32f334.o(.text)
    EXTINT05_SWINT21_Handler                 0x0000038b   Thumb Code     0  startup_hc32f334.o(.text)
    EXTINT06_SWINT22_Handler                 0x0000038b   Thumb Code     0  startup_hc32f334.o(.text)
    EXTINT07_SWINT23_Handler                 0x0000038b   Thumb Code     0  startup_hc32f334.o(.text)
    EXTINT08_SWINT24_Handler                 0x0000038b   Thumb Code     0  startup_hc32f334.o(.text)
    EXTINT09_SWINT25_Handler                 0x0000038b   Thumb Code     0  startup_hc32f334.o(.text)
    EXTINT10_SWINT26_Handler                 0x0000038b   Thumb Code     0  startup_hc32f334.o(.text)
    EXTINT11_SWINT27_Handler                 0x0000038b   Thumb Code     0  startup_hc32f334.o(.text)
    EXTINT12_SWINT28_Handler                 0x0000038b   Thumb Code     0  startup_hc32f334.o(.text)
    EXTINT13_SWINT29_Handler                 0x0000038b   Thumb Code     0  startup_hc32f334.o(.text)
    EXTINT14_SWINT30_Handler                 0x0000038b   Thumb Code     0  startup_hc32f334.o(.text)
    EXTINT15_SWINT31_Handler                 0x0000038b   Thumb Code     0  startup_hc32f334.o(.text)
    FCM_Handler                              0x0000038b   Thumb Code     0  startup_hc32f334.o(.text)
    FPU_Error_Handler                        0x0000038b   Thumb Code     0  startup_hc32f334.o(.text)
    HRPWM_1_GCap_Handler                     0x0000038b   Thumb Code     0  startup_hc32f334.o(.text)
    HRPWM_1_GCmp_Handler                     0x0000038b   Thumb Code     0  startup_hc32f334.o(.text)
    HRPWM_1_Ovf_Udf_Handler                  0x0000038b   Thumb Code     0  startup_hc32f334.o(.text)
    HRPWM_1_SCmp_Handler                     0x0000038b   Thumb Code     0  startup_hc32f334.o(.text)
    HRPWM_2_GCap_Handler                     0x0000038b   Thumb Code     0  startup_hc32f334.o(.text)
    HRPWM_2_GCmp_Handler                     0x0000038b   Thumb Code     0  startup_hc32f334.o(.text)
    HRPWM_2_Ovf_Udf_Handler                  0x0000038b   Thumb Code     0  startup_hc32f334.o(.text)
    HRPWM_2_SCmp_Handler                     0x0000038b   Thumb Code     0  startup_hc32f334.o(.text)
    HRPWM_3_GCap_Handler                     0x0000038b   Thumb Code     0  startup_hc32f334.o(.text)
    HRPWM_3_GCmp_Handler                     0x0000038b   Thumb Code     0  startup_hc32f334.o(.text)
    HRPWM_3_Ovf_Udf_Handler                  0x0000038b   Thumb Code     0  startup_hc32f334.o(.text)
    HRPWM_3_SCmp_Handler                     0x0000038b   Thumb Code     0  startup_hc32f334.o(.text)
    HRPWM_4_GCap_Handler                     0x0000038b   Thumb Code     0  startup_hc32f334.o(.text)
    HRPWM_4_GCmp_Handler                     0x0000038b   Thumb Code     0  startup_hc32f334.o(.text)
    HRPWM_4_Ovf_Udf_Handler                  0x0000038b   Thumb Code     0  startup_hc32f334.o(.text)
    HRPWM_4_SCmp_Handler                     0x0000038b   Thumb Code     0  startup_hc32f334.o(.text)
    HRPWM_5_GCap_Handler                     0x0000038b   Thumb Code     0  startup_hc32f334.o(.text)
    HRPWM_5_GCmp_Handler                     0x0000038b   Thumb Code     0  startup_hc32f334.o(.text)
    HRPWM_5_Ovf_Udf_Handler                  0x0000038b   Thumb Code     0  startup_hc32f334.o(.text)
    HRPWM_5_SCmp_Handler                     0x0000038b   Thumb Code     0  startup_hc32f334.o(.text)
    HRPWM_6_GCap_Handler                     0x0000038b   Thumb Code     0  startup_hc32f334.o(.text)
    HRPWM_6_GCmp_Handler                     0x0000038b   Thumb Code     0  startup_hc32f334.o(.text)
    HRPWM_6_Ovf_Udf_Handler                  0x0000038b   Thumb Code     0  startup_hc32f334.o(.text)
    HRPWM_6_SCmp_Handler                     0x0000038b   Thumb Code     0  startup_hc32f334.o(.text)
    HRPWM_Handler                            0x0000038b   Thumb Code     0  startup_hc32f334.o(.text)
    I2C_Handler                              0x0000038b   Thumb Code     0  startup_hc32f334.o(.text)
    MCAN1_INT0_Handler                       0x0000038b   Thumb Code     0  startup_hc32f334.o(.text)
    MCAN1_INT1_Handler                       0x0000038b   Thumb Code     0  startup_hc32f334.o(.text)
    MCAN2_INT0_Handler                       0x0000038b   Thumb Code     0  startup_hc32f334.o(.text)
    MCAN2_INT1_Handler                       0x0000038b   Thumb Code     0  startup_hc32f334.o(.text)
    MCANRAM_ECCError_Handler                 0x0000038b   Thumb Code     0  startup_hc32f334.o(.text)
    PLA_Handler                              0x0000038b   Thumb Code     0  startup_hc32f334.o(.text)
    PWC_LVD1_Handler                         0x0000038b   Thumb Code     0  startup_hc32f334.o(.text)
    PWC_LVD2_Handler                         0x0000038b   Thumb Code     0  startup_hc32f334.o(.text)
    PWC_WKTM_Handler                         0x0000038b   Thumb Code     0  startup_hc32f334.o(.text)
    RTC_Handler                              0x0000038b   Thumb Code     0  startup_hc32f334.o(.text)
    SPI_Handler                              0x0000038b   Thumb Code     0  startup_hc32f334.o(.text)
    SWDT_Handler                             0x0000038b   Thumb Code     0  startup_hc32f334.o(.text)
    TMR0_1_Handler                           0x0000038b   Thumb Code     0  startup_hc32f334.o(.text)
    TMR4_GCmp_Handler                        0x0000038b   Thumb Code     0  startup_hc32f334.o(.text)
    TMR4_Ovf_Udf_Handler                     0x0000038b   Thumb Code     0  startup_hc32f334.o(.text)
    TMR4_Reload_Handler                      0x0000038b   Thumb Code     0  startup_hc32f334.o(.text)
    TMR4_SCmp_Handler                        0x0000038b   Thumb Code     0  startup_hc32f334.o(.text)
    TMR6_1_Dte_Handler                       0x0000038b   Thumb Code     0  startup_hc32f334.o(.text)
    TMR6_1_GCmp_Handler                      0x0000038b   Thumb Code     0  startup_hc32f334.o(.text)
    TMR6_1_Ovf_Udf_Handler                   0x0000038b   Thumb Code     0  startup_hc32f334.o(.text)
    TMR6_1_SCmp_Handler                      0x0000038b   Thumb Code     0  startup_hc32f334.o(.text)
    TMR6_2_Dte_Handler                       0x0000038b   Thumb Code     0  startup_hc32f334.o(.text)
    TMR6_2_GCmp_Handler                      0x0000038b   Thumb Code     0  startup_hc32f334.o(.text)
    TMR6_2_Ovf_Udf_Handler                   0x0000038b   Thumb Code     0  startup_hc32f334.o(.text)
    TMR6_2_SCmp_Handler                      0x0000038b   Thumb Code     0  startup_hc32f334.o(.text)
    TMR6_3_Dte_Handler                       0x0000038b   Thumb Code     0  startup_hc32f334.o(.text)
    TMR6_3_GCmp_Handler                      0x0000038b   Thumb Code     0  startup_hc32f334.o(.text)
    TMR6_3_Ovf_Udf_Handler                   0x0000038b   Thumb Code     0  startup_hc32f334.o(.text)
    TMR6_3_SCmp_Handler                      0x0000038b   Thumb Code     0  startup_hc32f334.o(.text)
    TMR6_4_Dte_Handler                       0x0000038b   Thumb Code     0  startup_hc32f334.o(.text)
    TMR6_4_GCmp_Handler                      0x0000038b   Thumb Code     0  startup_hc32f334.o(.text)
    TMR6_4_Ovf_Udf_Handler                   0x0000038b   Thumb Code     0  startup_hc32f334.o(.text)
    TMR6_4_SCmp_Handler                      0x0000038b   Thumb Code     0  startup_hc32f334.o(.text)
    TMRA_1_Cmp_Handler                       0x0000038b   Thumb Code     0  startup_hc32f334.o(.text)
    TMRA_1_Ovf_Udf_Handler                   0x0000038b   Thumb Code     0  startup_hc32f334.o(.text)
    TMRA_2_Cmp_Handler                       0x0000038b   Thumb Code     0  startup_hc32f334.o(.text)
    TMRA_2_Ovf_Udf_Handler                   0x0000038b   Thumb Code     0  startup_hc32f334.o(.text)
    TMRA_3_Cmp_Handler                       0x0000038b   Thumb Code     0  startup_hc32f334.o(.text)
    TMRA_3_Ovf_Udf_Handler                   0x0000038b   Thumb Code     0  startup_hc32f334.o(.text)
    TMRA_4_Cmp_Handler                       0x0000038b   Thumb Code     0  startup_hc32f334.o(.text)
    TMRA_4_Ovf_Udf_Handler                   0x0000038b   Thumb Code     0  startup_hc32f334.o(.text)
    TMRA_5_Cmp_Handler                       0x0000038b   Thumb Code     0  startup_hc32f334.o(.text)
    TMRA_5_Ovf_Udf_Handler                   0x0000038b   Thumb Code     0  startup_hc32f334.o(.text)
    USART1_Handler                           0x0000038b   Thumb Code     0  startup_hc32f334.o(.text)
    USART1_TCI_Handler                       0x0000038b   Thumb Code     0  startup_hc32f334.o(.text)
    USART1_WKUP_Handler                      0x0000038b   Thumb Code     0  startup_hc32f334.o(.text)
    USART2_Handler                           0x0000038b   Thumb Code     0  startup_hc32f334.o(.text)
    USART2_TxComplete_Handler                0x0000038b   Thumb Code     0  startup_hc32f334.o(.text)
    USART3_Handler                           0x0000038b   Thumb Code     0  startup_hc32f334.o(.text)
    USART3_TxComplete_Handler                0x0000038b   Thumb Code     0  startup_hc32f334.o(.text)
    USART4_Handler                           0x0000038b   Thumb Code     0  startup_hc32f334.o(.text)
    USART4_TxComplete_Handler                0x0000038b   Thumb Code     0  startup_hc32f334.o(.text)
    WDT_Handler                              0x0000038b   Thumb Code     0  startup_hc32f334.o(.text)
    __user_initial_stackheap                 0x0000038d   Thumb Code     0  startup_hc32f334.o(.text)
    __use_two_region_memory                  0x000003b5   Thumb Code     2  heapauxi.o(.text)
    __rt_heap_escrow$2region                 0x000003b7   Thumb Code     2  heapauxi.o(.text)
    __rt_heap_expand$2region                 0x000003b9   Thumb Code     2  heapauxi.o(.text)
    exit                                     0x000003bb   Thumb Code    18  exit.o(.text)
    __user_libspace                          0x000003cd   Thumb Code     8  libspace.o(.text)
    __user_perproc_libspace                  0x000003cd   Thumb Code     0  libspace.o(.text)
    __user_perthread_libspace                0x000003cd   Thumb Code     0  libspace.o(.text)
    _sys_exit                                0x000003d5   Thumb Code     8  sys_exit.o(.text)
    __I$use$semihosting                      0x000003e1   Thumb Code     0  use_no_semi.o(.text)
    __use_no_semihosting_swi                 0x000003e1   Thumb Code     2  use_no_semi.o(.text)
    Adc_Init                                 0x000003e3   Thumb Code     4  adc.o(i.Adc_Init)
    __semihosting_library_function           0x000003e3   Thumb Code     0  indicate_semi.o(.text)
    CLK_SetClockDiv                          0x000003e7   Thumb Code    14  hc32_ll_clk.o(i.CLK_SetClockDiv)
    CURR_H_A_DAC1O1                          0x000003f5   Thumb Code     6  dac.o(i.CURR_H_A_DAC1O1)
    u32ICGValue                              0x00000400   Data          96  hc32_ll_icg.o(.ARM.__AT_0x00000400)
    __user_setup_stackheap                   0x00000461   Thumb Code    74  sys_stackheap_outer.o(.text)
    BSP_CLK_Init                             0x000004ad   Thumb Code   180  ev_hc32f334_lqfp64.o(i.BSP_CLK_Init)
    BandtrapInit                             0x00000569   Thumb Code    80  main.o(i.BandtrapInit)
    CLK_GetStableStatus                      0x000005d9   Thumb Code    40  hc32_ll_clk.o(i.CLK_GetStableStatus)
    CLK_PLLCmd                               0x00000631   Thumb Code   136  hc32_ll_clk.o(i.CLK_PLLCmd)
    CLK_PLLInit                              0x000006e9   Thumb Code   396  hc32_ll_clk.o(i.CLK_PLLInit)
    CLK_PLLStructInit                        0x000008c1   Thumb Code    52  hc32_ll_clk.o(i.CLK_PLLStructInit)
    CLK_SetSysClockSrc                       0x000008f5   Thumb Code    14  hc32_ll_clk.o(i.CLK_SetSysClockSrc)
    CLK_XtalCmd                              0x00000931   Thumb Code   126  hc32_ll_clk.o(i.CLK_XtalCmd)
    CLK_XtalInit                             0x000009e1   Thumb Code   192  hc32_ll_clk.o(i.CLK_XtalInit)
    CLK_XtalStructInit                       0x00000ad5   Thumb Code    30  hc32_ll_clk.o(i.CLK_XtalStructInit)
    CMP_CompareOutCmd                        0x00000af5   Thumb Code    82  hc32_ll_cmp.o(i.CMP_CompareOutCmd)
    CMP_NormalModeInit                       0x00000bb5   Thumb Code   306  hc32_ll_cmp.o(i.CMP_NormalModeInit)
    CMP_StructInit                           0x00000d19   Thumb Code    26  hc32_ll_cmp.o(i.CMP_StructInit)
    CURR_H_B_DAC2O1                          0x00000d35   Thumb Code     6  dac.o(i.CURR_H_B_DAC2O1)
    Cmp_Init                                 0x00000d41   Thumb Code     4  cmp.o(i.Cmp_Init)
    DDL_AssertHandler                        0x00000d45   Thumb Code     2  hc32_ll_utility.o(i.DDL_AssertHandler)
    DDL_DelayMS                              0x00000d49   Thumb Code    58  hc32_ll_utility.o(i.DDL_DelayMS)
    DDL_DelayUS                              0x00000d8d   Thumb Code    56  hc32_ll_utility.o(i.DDL_DelayUS)
    Dac_Init                                 0x00000dd1   Thumb Code    26  dac.o(i.Dac_Init)
    EFM_CacheRamReset                        0x00000ded   Thumb Code    46  hc32_ll_efm.o(i.EFM_CacheRamReset)
    EFM_DCacheCmd                            0x00000e51   Thumb Code    46  hc32_ll_efm.o(i.EFM_DCacheCmd)
    EFM_ICacheCmd                            0x00000eb5   Thumb Code    46  hc32_ll_efm.o(i.EFM_ICacheCmd)
    EFM_PrefetchCmd                          0x00000f19   Thumb Code    46  hc32_ll_efm.o(i.EFM_PrefetchCmd)
    EFM_SetWaitCycle                         0x00000f7d   Thumb Code   112  hc32_ll_efm.o(i.EFM_SetWaitCycle)
    EMB_ClearStatus                          0x00001029   Thumb Code    92  hc32_ll_emb.o(i.EMB_ClearStatus)
    EMB_GR0_IrqHandler                       0x000010d9   Thumb Code   176  emb.o(i.EMB_GR0_IrqHandler)
    EMB_GetStatus                            0x000011ad   Thumb Code   102  hc32_ll_emb.o(i.EMB_GetStatus)
    EMB_IntCmd                               0x00001269   Thumb Code   130  hc32_ll_emb.o(i.EMB_IntCmd)
    EMB_SetReleasePwmCond                    0x0000133d   Thumb Code   128  hc32_ll_emb.o(i.EMB_SetReleasePwmCond)
    Emb0_Init                                0x0000140d   Thumb Code   204  emb.o(i.Emb0_Init)
    Emb2_Init                                0x000014e9   Thumb Code    60  emb.o(i.Emb2_Init)
    Emb3_Init                                0x0000152d   Thumb Code    60  emb.o(i.Emb3_Init)
    Emb_Init                                 0x00001571   Thumb Code    18  emb.o(i.Emb_Init)
    FCG_Fcg0PeriphClockCmd                   0x00001585   Thumb Code    76  hc32_ll_fcg.o(i.FCG_Fcg0PeriphClockCmd)
    FCG_Fcg2PeriphClockCmd                   0x00001605   Thumb Code    60  hc32_ll_fcg.o(i.FCG_Fcg2PeriphClockCmd)
    FCG_Fcg3PeriphClockCmd                   0x00001675   Thumb Code    60  hc32_ll_fcg.o(i.FCG_Fcg3PeriphClockCmd)
    GPIO_AnalogCmd                           0x000016e5   Thumb Code   132  hc32_ll_gpio.o(i.GPIO_AnalogCmd)
    GPIO_Init                                0x000017a1   Thumb Code   422  hc32_ll_gpio.o(i.GPIO_Init)
    GPIO_LLC_HB_outputs_Config               0x00001981   Thumb Code   128  hrtimer.o(i.GPIO_LLC_HB_outputs_Config)
    GPIO_ResetPins                           0x00001a15   Thumb Code    62  hc32_ll_gpio.o(i.GPIO_ResetPins)
    GPIO_SetFunc                             0x00001a89   Thumb Code   142  hc32_ll_gpio.o(i.GPIO_SetFunc)
    GPIO_SetReadWaitCycle                    0x00001b51   Thumb Code    98  hc32_ll_gpio.o(i.GPIO_SetReadWaitCycle)
    GPIO_StructInit                          0x00001bed   Thumb Code    42  hc32_ll_gpio.o(i.GPIO_StructInit)
    Gpio_Init                                0x00001c19   Thumb Code   526  gpio.o(i.Gpio_Init)
    HRPWM_Calibrate_ClearFlag                0x00001e39   Thumb Code    12  hrtimer.o(i.HRPWM_Calibrate_ClearFlag)
    HRPWM_Calibrate_GetStatus                0x00001e49   Thumb Code    16  hrtimer.o(i.HRPWM_Calibrate_GetStatus)
    HRPWM_Calibrate_PeriodDisable            0x00001e5d   Thumb Code    12  hrtimer.o(i.HRPWM_Calibrate_PeriodDisable)
    HRPWM_Calibrate_ProcessSingle            0x00001e6d   Thumb Code   106  hrtimer.o(i.HRPWM_Calibrate_ProcessSingle)
    HRPWM_Calibrate_SingleDisable            0x00001ee1   Thumb Code    12  hrtimer.o(i.HRPWM_Calibrate_SingleDisable)
    HRPWM_Calibrate_SingleEnable             0x00001ef1   Thumb Code    12  hrtimer.o(i.HRPWM_Calibrate_SingleEnable)
    HRPWM_DeInit                             0x00001f01   Thumb Code   364  hc32_ll_hrpwm.o(i.HRPWM_DeInit)
    HRPWM_Init                               0x000020a9   Thumb Code   152  hc32_ll_hrpwm.o(i.HRPWM_Init)
    HRPWM_PWM_StructInit                     0x00002175   Thumb Code    50  hc32_ll_hrpwm.o(i.HRPWM_PWM_StructInit)
    HRTIM_Config                             0x000021ad   Thumb Code  5504  hrtimer.o(i.HRTIM_Config)
    INTC_IrqSignIn                           0x00003741   Thumb Code   108  hc32_ll_interrupts.o(i.INTC_IrqSignIn)
    IRQ000_Handler                           0x000037e9   Thumb Code    14  hc32_ll_interrupts.o(i.IRQ000_Handler)
    IRQ001_Handler                           0x000037fd   Thumb Code    14  hc32_ll_interrupts.o(i.IRQ001_Handler)
    IRQ002_Handler                           0x00003811   Thumb Code    14  hc32_ll_interrupts.o(i.IRQ002_Handler)
    IRQ003_Handler                           0x00003825   Thumb Code    14  hc32_ll_interrupts.o(i.IRQ003_Handler)
    IRQ004_Handler                           0x00003839   Thumb Code    14  hc32_ll_interrupts.o(i.IRQ004_Handler)
    IRQ005_Handler                           0x0000384d   Thumb Code    14  hc32_ll_interrupts.o(i.IRQ005_Handler)
    IRQ006_Handler                           0x00003861   Thumb Code    14  hc32_ll_interrupts.o(i.IRQ006_Handler)
    IRQ007_Handler                           0x00003875   Thumb Code    14  hc32_ll_interrupts.o(i.IRQ007_Handler)
    IRQ008_Handler                           0x00003889   Thumb Code    14  hc32_ll_interrupts.o(i.IRQ008_Handler)
    IRQ009_Handler                           0x0000389d   Thumb Code    14  hc32_ll_interrupts.o(i.IRQ009_Handler)
    IRQ010_Handler                           0x000038b1   Thumb Code    14  hc32_ll_interrupts.o(i.IRQ010_Handler)
    IRQ011_Handler                           0x000038c5   Thumb Code    14  hc32_ll_interrupts.o(i.IRQ011_Handler)
    IRQ012_Handler                           0x000038d9   Thumb Code    14  hc32_ll_interrupts.o(i.IRQ012_Handler)
    IRQ013_Handler                           0x000038ed   Thumb Code    14  hc32_ll_interrupts.o(i.IRQ013_Handler)
    IRQ014_Handler                           0x00003901   Thumb Code    14  hc32_ll_interrupts.o(i.IRQ014_Handler)
    IRQ015_Handler                           0x00003915   Thumb Code    14  hc32_ll_interrupts.o(i.IRQ015_Handler)
    InitMcu_Adc1                             0x00003929   Thumb Code   364  adc.o(i.InitMcu_Adc1)
    LL_PERIPH_WE                             0x00003ab1   Thumb Code   102  hc32_ll.o(i.LL_PERIPH_WE)
    LL_PERIPH_WP                             0x00003b31   Thumb Code   106  hc32_ll.o(i.LL_PERIPH_WP)
    PWC_LVD_ClearStatus                      0x00003bb5   Thumb Code    52  hc32_ll_pwc.o(i.PWC_LVD_ClearStatus)
    PWC_LVD_Init                             0x00003c1d   Thumb Code   454  hc32_ll_pwc.o(i.PWC_LVD_Init)
    PWC_LVD_StructInit                       0x00003e21   Thumb Code    36  hc32_ll_pwc.o(i.PWC_LVD_StructInit)
    Pwc_Init                                 0x00003e45   Thumb Code    80  pwc.o(i.Pwc_Init)
    Square_root                              0x000041b1   Thumb Code    80  main.o(i.Square_root)
    SystemCoreClockUpdate                    0x00004205   Thumb Code   142  system_hc32f334.o(i.SystemCoreClockUpdate)
    SystemInit                               0x000042b1   Thumb Code    24  system_hc32f334.o(i.SystemInit)
    TMR0_2_Handler                           0x000042d1   Thumb Code   328  main.o(i.TMR0_2_Handler)
    TMR0_HWStopCondCmd                       0x00004459   Thumb Code   102  hc32_ll_tmr0.o(i.TMR0_HWStopCondCmd)
    TMR0_Init                                0x000044f1   Thumb Code   256  hc32_ll_tmr0.o(i.TMR0_Init)
    TMR0_IntCmd                              0x00004621   Thumb Code    92  hc32_ll_tmr0.o(i.TMR0_IntCmd)
    TMR0_Start                               0x000046ad   Thumb Code    78  hc32_ll_tmr0.o(i.TMR0_Start)
    TMR0_StructInit                          0x0000472d   Thumb Code    30  hc32_ll_tmr0.o(i.TMR0_StructInit)
    Tmr0_Init                                0x000047a5   Thumb Code   188  time.o(i.Tmr0_Init)
    Two_phase_pfc_CTRL                       0x00004871   Thumb Code  4364  control.o(i.Two_phase_pfc_CTRL)
    initMcu_CMP3                             0x000059d9   Thumb Code   100  cmp.o(i.initMcu_CMP3)
    initMcu_DAC1                             0x00005a41   Thumb Code    64  dac.o(i.initMcu_DAC1)
    initMcu_DAC2                             0x00005a8d   Thumb Code    44  dac.o(i.initMcu_DAC2)
    main                                     0x00005ac5   Thumb Code  1730  main.o(i.main)
    __aeabi_dadd                             0x000061dd   Thumb Code     0  daddsub_clz.o(x$fpl$dadd)
    _dadd                                    0x000061dd   Thumb Code   332  daddsub_clz.o(x$fpl$dadd)
    __aeabi_d2uiz                            0x0000632d   Thumb Code     0  dfixu.o(x$fpl$dfixu)
    _dfixu                                   0x0000632d   Thumb Code    90  dfixu.o(x$fpl$dfixu)
    __aeabi_dmul                             0x00006389   Thumb Code     0  dmul.o(x$fpl$dmul)
    _dmul                                    0x00006389   Thumb Code   332  dmul.o(x$fpl$dmul)
    __fpl_dnaninf                            0x000064dd   Thumb Code   156  dnaninf.o(x$fpl$dnaninf)
    __fpl_dretinf                            0x00006579   Thumb Code    12  dretinf.o(x$fpl$dretinf)
    __aeabi_dsub                             0x00006585   Thumb Code     0  daddsub_clz.o(x$fpl$dsub)
    _dsub                                    0x00006585   Thumb Code   464  daddsub_clz.o(x$fpl$dsub)
    __aeabi_f2d                              0x00006759   Thumb Code     0  f2d.o(x$fpl$f2d)
    _f2d                                     0x00006759   Thumb Code    86  f2d.o(x$fpl$f2d)
    __fpl_fnaninf                            0x000067af   Thumb Code   140  fnaninf.o(x$fpl$fnaninf)
    _fp_init                                 0x0000683b   Thumb Code    10  fpinit.o(x$fpl$fpinit)
    __fplib_config_fpu_vfp                   0x00006843   Thumb Code     0  fpinit.o(x$fpl$fpinit)
    __fplib_config_pureend_doubles           0x00006843   Thumb Code     0  fpinit.o(x$fpl$fpinit)
    Ton_table                                0x00006844   Data       40004  data.o(.constdata)
    __I$use$fp                               0x00006844   Number         0  usenofp.o(x$fpl$usenofp)
    Ton_Vin_limit                            0x00010488   Data        1604  data.o(.constdata)
    CURR_VREF                                0x00010acc   Data         802  data.o(.constdata)
    Ton_Vin_cmp                              0x00010df0   Data        1600  data.o(.constdata)
    PF_Vin_cmp                               0x00011430   Data        1244  data.o(.constdata)
    Vin_Add                                  0x0001190c   Data         622  data.o(.constdata)
    Vin_Add_sec                              0x00011b7a   Data         622  data.o(.constdata)
    Vin_Add_S                                0x00011de8   Data         622  data.o(.constdata)
    Vin_Add_sec_S                            0x00012056   Data         622  data.o(.constdata)
    Ton_cmp_k1                               0x000122c4   Data        1600  data.o(.constdata)
    Ton_cmp_k2                               0x00012904   Data        1600  data.o(.constdata)
    Ton_cmp_k3                               0x00012f44   Data        1600  data.o(.constdata)
    Ton_cmp_k4                               0x00013584   Data        1600  data.o(.constdata)
    Region$$Table$$Base                      0x00013bc4   Number         0  anon$$obj.o(Region$$Table)
    Region$$Table$$Limit                     0x00013be4   Number         0  anon$$obj.o(Region$$Table)
    Temp_KIerr                               0x1fffc004   Data           4  variable.o(.data)
    cur_vos                                  0x1fffc008   Data           4  variable.o(.data)
    vos                                      0x1fffc00c   Data           4  variable.o(.data)
    apwr_ui_addr_state                       0x1fffc010   Data           1  variable.o(.data)
    fault_cnt                                0x1fffc012   Data           2  variable.o(.data)
    ok_cnt                                   0x1fffc014   Data           2  variable.o(.data)
    Vbus_fault_cnt                           0x1fffc016   Data           2  variable.o(.data)
    Vbus_ok_cnt                              0x1fffc018   Data           2  variable.o(.data)
    VOT_s                                    0x1fffc01a   Data           2  variable.o(.data)
    Vb_OV_low_flag                           0x1fffc01c   Data           1  variable.o(.data)
    Vb_OV_high_flag                          0x1fffc01d   Data           1  variable.o(.data)
    Vbus_falling_flag                        0x1fffc01e   Data           1  variable.o(.data)
    Vbus_rising_flag                         0x1fffc01f   Data           1  variable.o(.data)
    Temp_KIerr_delt                          0x1fffc020   Data           4  variable.o(.data)
    VotFltI32_delt                           0x1fffc024   Data           4  variable.o(.data)
    VinU16                                   0x1fffc028   Data           2  variable.o(.data)
    VavU16                                   0x1fffc02a   Data           2  variable.o(.data)
    VbusU16                                  0x1fffc02c   Data           2  variable.o(.data)
    Vin_L_U16                                0x1fffc02e   Data           2  variable.o(.data)
    Vin_N_U16                                0x1fffc030   Data           2  variable.o(.data)
    Si_GATE_H_flag                           0x1fffc032   Data           1  variable.o(.data)
    Si_GATE_L_flag                           0x1fffc033   Data           1  variable.o(.data)
    OffStateU16                              0x1fffc034   Data           2  variable.o(.data)
    RunStateU16                              0x1fffc036   Data           2  variable.o(.data)
    Start_ios_flag                           0x1fffc038   Data           1  variable.o(.data)
    Start_Delay                              0x1fffc03a   Data           2  variable.o(.data)
    Vbus_down_flag                           0x1fffc03c   Data           1  variable.o(.data)
    StartFlag                                0x1fffc03d   Data           1  variable.o(.data)
    PreFlag                                  0x1fffc03e   Data           1  variable.o(.data)
    OK_Flag                                  0x1fffc03f   Data           1  variable.o(.data)
    VgainU16                                 0x1fffc040   Data           2  variable.o(.data)
    VpreU16                                  0x1fffc042   Data           2  variable.o(.data)
    PreDlyU16                                0x1fffc044   Data           2  variable.o(.data)
    SdLoopDly                                0x1fffc046   Data           2  variable.o(.data)
    StartONFlag                              0x1fffc048   Data           1  variable.o(.data)
    Fault_Flag                               0x1fffc049   Data           1  variable.o(.data)
    VBUS_REF                                 0x1fffc04a   Data           2  variable.o(.data)
    VBUS_REF_New                             0x1fffc04c   Data           2  variable.o(.data)
    VotFltI32                                0x1fffc050   Data           4  variable.o(.data)
    SingleFlag                               0x1fffc054   Data           1  variable.o(.data)
    Vbus_delay_cnt                           0x1fffc056   Data           2  variable.o(.data)
    Vbus_gain_comm                           0x1fffc058   Data           2  variable.o(.data)
    Vinav_sum_sample                         0x1fffc05c   Data           4  variable.o(.data)
    Vinav_sample_flt                         0x1fffc060   Data           2  variable.o(.data)
    Vref_Cnt                                 0x1fffc062   Data           1  variable.o(.data)
    VotErrI32                                0x1fffc064   Data           4  variable.o(.data)
    VotKiI32                                 0x1fffc068   Data           4  variable.o(.data)
    VotKpI32                                 0x1fffc06c   Data           4  variable.o(.data)
    VotKpiI32                                0x1fffc070   Data           4  variable.o(.data)
    VotErrABS                                0x1fffc074   Data           2  variable.o(.data)
    VgainU16_vin                             0x1fffc076   Data           2  variable.o(.data)
    Err_Phase_I32                            0x1fffc078   Data           4  variable.o(.data)
    Revise_Ton_I32                           0x1fffc07c   Data           4  variable.o(.data)
    VotCtrlI32                               0x1fffc080   Data           4  variable.o(.data)
    Vin_k_IOS                                0x1fffc084   Data           2  variable.o(.data)
    DUTY_VALUE_PI                            0x1fffc088   Data           4  variable.o(.data)
    VinU16_sample_flt                        0x1fffc08c   Data           4  variable.o(.data)
    VinU16_sample_sum                        0x1fffc090   Data           4  variable.o(.data)
    DUTY_VALUE_LIMIT                         0x1fffc094   Data           4  variable.o(.data)
    DUTY_VALUE_Vin_cmp                       0x1fffc098   Data           4  variable.o(.data)
    DUTY_VALUE_OPEN                          0x1fffc09c   Data           4  variable.o(.data)
    TON_VO_Vin_LIMIT                         0x1fffc0a0   Data           4  variable.o(.data)
    DUTY_VALUE_LIMIT_MAX                     0x1fffc0a4   Data           4  variable.o(.data)
    CapAllU16                                0x1fffc0a8   Data           4  variable.o(.data)
    CapHalfU16                               0x1fffc0ac   Data           4  variable.o(.data)
    CapDifU16                                0x1fffc0b0   Data           4  variable.o(.data)
    ton_limit_vin                            0x1fffc0b4   Data           4  variable.o(.data)
    ABS_Revise_Ton_I32                       0x1fffc0b8   Data           4  variable.o(.data)
    DUTY_VALUE_B                             0x1fffc0bc   Data           4  variable.o(.data)
    DUTY_VALUE                               0x1fffc0c0   Data           4  variable.o(.data)
    DUTY_VALUE_cnt                           0x1fffc0c4   Data           2  variable.o(.data)
    VinSumU32                                0x1fffc0c8   Data           4  variable.o(.data)
    VinCntU16                                0x1fffc0cc   Data           2  variable.o(.data)
    VinFreFlag                               0x1fffc0ce   Data           1  variable.o(.data)
    VinDeadFlag                              0x1fffc0cf   Data           1  variable.o(.data)
    Vinav_sum                                0x1fffc0d0   Data           4  variable.o(.data)
    Vinav_flt                                0x1fffc0d4   Data           2  variable.o(.data)
    VinFreU16                                0x1fffc0d6   Data           2  variable.o(.data)
    VinDeadFlag_cnt                          0x1fffc0d8   Data           2  variable.o(.data)
    VinfreFltU32                             0x1fffc0dc   Data           4  variable.o(.data)
    VinFre_Send                              0x1fffc0e0   Data           2  variable.o(.data)
    VinFreJud                                0x1fffc0e2   Data           2  variable.o(.data)
    VinFreFltSave                            0x1fffc0e4   Data           2  variable.o(.data)
    Vin_dc_cnt                               0x1fffc0e6   Data           1  variable.o(.data)
    Vin_dc_flag                              0x1fffc0e7   Data           1  variable.o(.data)
    RelyON_Flag                              0x1fffc0e8   Data           1  variable.o(.data)
    RelyON_Active_flag                       0x1fffc0e9   Data           1  variable.o(.data)
    Rely_Delay                               0x1fffc0ea   Data           1  variable.o(.data)
    duty_limit_cnt                           0x1fffc0ec   Data           2  variable.o(.data)
    Vin_sample_temp                          0x1fffc0ee   Data           2  variable.o(.data)
    Vo_sample_temp                           0x1fffc0f0   Data           2  variable.o(.data)
    Vo_Vin_duty_limit_cnt                    0x1fffc0f2   Data           2  variable.o(.data)
    Vo_duty_limit_cnt                        0x1fffc0f4   Data           1  variable.o(.data)
    Vin_duty_limit_cnt                       0x1fffc0f5   Data           1  variable.o(.data)
    curr_vref_cnt                            0x1fffc0f6   Data           2  variable.o(.data)
    curr_vref_value                          0x1fffc0f8   Data           2  variable.o(.data)
    curr_vref_dac_value                      0x1fffc0fa   Data           2  variable.o(.data)
    LED_Fre                                  0x1fffc0fc   Data           2  variable.o(.data)
    Vin_duty_cmp_cnt                         0x1fffc0fe   Data           2  variable.o(.data)
    Vinav                                    0x1fffc100   Data           2  variable.o(.data)
    Sum_VbtFltU32                            0x1fffc104   Data           4  variable.o(.data)
    VbtFlt                                   0x1fffc108   Data           2  variable.o(.data)
    SUM_Vin_L_U16                            0x1fffc10c   Data           4  variable.o(.data)
    SUM_Vin_N_U16                            0x1fffc110   Data           4  variable.o(.data)
    Vin_L_U16_Sample                         0x1fffc114   Data           2  variable.o(.data)
    Vin_N_U16_Sample                         0x1fffc116   Data           2  variable.o(.data)
    Vbus_over_cmp_flag                       0x1fffc118   Data           1  variable.o(.data)
    Ibus_over_port_flag                      0x1fffc119   Data           1  variable.o(.data)
    AC_cross_zero_flag                       0x1fffc11a   Data           1  variable.o(.data)
    Vbus_value                               0x1fffc11c   Data           2  variable.o(.data)
    Vin_value                                0x1fffc11e   Data           2  variable.o(.data)
    Ts_Vin_Vout_limt                         0x1fffc120   Data           4  variable.o(.data)
    Ts_Vin_Vout_limt_F                       0x1fffc128   Data           8  variable.o(.data)
    Ts_Vin_Vout_on                           0x1fffc130   Data           4  variable.o(.data)
    Sup_flag                                 0x1fffc134   Data           1  variable.o(.data)
    Hrpwm_cnt                                0x1fffc135   Data           1  variable.o(.data)
    DUTY_VALUE_Save                          0x1fffc138   Data           4  variable.o(.data)
    PF_CMP_value                             0x1fffc13c   Data           4  variable.o(.data)
    VbusU16_save_last                        0x1fffc140   Data           8  variable.o(.data)
    SR_D_low                                 0x1fffc148   Data           4  variable.o(.data)
    xie_lv_cnt                               0x1fffc14c   Data           1  variable.o(.data)
    VinU16_cmp                               0x1fffc14e   Data           2  variable.o(.data)
    VinU16_cmp_cnt                           0x1fffc150   Data           2  variable.o(.data)
    Notch_Vbus_sample                        0x1fffc152   Data           2  variable.o(.data)
    DUTY_VALUE_X                             0x1fffc154   Data           4  variable.o(.data)
    DUTY_VALUE_AC                            0x1fffc158   Data           4  variable.o(.data)
    DUTY_VALUE_EG                            0x1fffc15c   Data           4  variable.o(.data)
    DUTY_VALUE_X2                            0x1fffc160   Data           4  variable.o(.data)
    Vin_Ton_cmp_K1                           0x1fffc164   Data           4  variable.o(.data)
    Vin_Ton_cmp_K2                           0x1fffc168   Data           4  variable.o(.data)
    Vin_Ton_cmp_K3                           0x1fffc16c   Data           4  variable.o(.data)
    Vin_Ton_cmp_K4                           0x1fffc170   Data           4  variable.o(.data)
    Vin_Ton_cmp_f                            0x1fffc174   Data           4  variable.o(.data)
    Vin_Ton_cmp                              0x1fffc178   Data           4  variable.o(.data)
    DUTY_VALUE_PI_f                          0x1fffc17c   Data           4  variable.o(.data)
    Burst_flag                               0x1fffc180   Data           1  variable.o(.data)
    Ton_single_value                         0x1fffc184   Data           4  variable.o(.data)
    Ton_double_value                         0x1fffc188   Data           4  variable.o(.data)
    Vin_ton_value                            0x1fffc18c   Data           4  variable.o(.data)
    Two_phase_pfc_CTRL::i                    0x1fffc190   Data           1  control.o(.data__ZZ18Two_phase_pfc_CTRLE1i)
    Two_phase_pfc_CTRL::cap_pattern_change_cnt1 0x1fffc191   Data           1  control.o(.data__ZZ18Two_phase_pfc_CTRLE23cap_pattern_change_cnt1)
    Two_phase_pfc_CTRL::cap_pattern_change_cnt2 0x1fffc192   Data           1  control.o(.data__ZZ18Two_phase_pfc_CTRLE23cap_pattern_change_cnt2)
    Two_phase_pfc_CTRL::phase_k              0x1fffc194   Data           4  control.o(.data__ZZ18Two_phase_pfc_CTRLE7phase_k)
    t_state                                  0x1fffc1d8   Data          16  variable.o(.bss)
    state_buf                                0x1fffc1e8   Data          14  variable.o(.bss)
    BandtrapCtrl                             0x1fffc1f8   Data          72  variable.o(.bss)
    __libspace_start                         0x1fffc240   Data          96  libspace.o(.bss)
    SystemCoreClock                          0x1fffc2a0   Data           4  system_hc32f334.o(.bss.noinit)
    __temporary_stack_top$libspace           0x1fffc2a0   Data           0  libspace.o(.bss)
    HRC_VALUE                                0x1fffc2a4   Data           4  system_hc32f334.o(.bss.noinit)



==============================================================================

Memory Map of the image

  Image Entry point : 0x00000289

  Load Region LR_IROM1 (Base: 0x00000000, Size: 0x00013d7c, Max: 0x00020000, ABSOLUTE, COMPRESSED[0x00013c30])

    Execution Region ER_IROM1 (Exec base: 0x00000000, Load base: 0x00000000, Size: 0x00013be4, Max: 0x00020000, ABSOLUTE)

    Exec Addr    Load Addr    Size         Type   Attr      Idx    E Section Name        Object

    0x00000000   0x00000000   0x00000288   Data   RO           76    RESET               startup_hc32f334.o
    0x00000288   0x00000288   0x00000008   Code   RO         5187  * !!!main             c_w.l(__main.o)
    0x00000290   0x00000290   0x00000034   Code   RO         5395    !!!scatter          c_w.l(__scatter.o)
    0x000002c4   0x000002c4   0x0000005a   Code   RO         5393    !!dczerorl2         c_w.l(__dczerorl2.o)
    0x0000031e   0x0000031e   0x00000002   PAD
    0x00000320   0x00000320   0x0000001c   Code   RO         5397    !!handler_zi        c_w.l(__scatter_zi.o)
    0x0000033c   0x0000033c   0x00000002   Code   RO         5263    .ARM.Collect$$libinit$$00000000  c_w.l(libinit.o)
    0x0000033e   0x0000033e   0x00000004   Code   RO         5275    .ARM.Collect$$libinit$$00000001  c_w.l(libinit2.o)
    0x00000342   0x00000342   0x00000000   Code   RO         5278    .ARM.Collect$$libinit$$00000004  c_w.l(libinit2.o)
    0x00000342   0x00000342   0x00000000   Code   RO         5281    .ARM.Collect$$libinit$$0000000A  c_w.l(libinit2.o)
    0x00000342   0x00000342   0x00000000   Code   RO         5283    .ARM.Collect$$libinit$$0000000C  c_w.l(libinit2.o)
    0x00000342   0x00000342   0x00000000   Code   RO         5285    .ARM.Collect$$libinit$$0000000E  c_w.l(libinit2.o)
    0x00000342   0x00000342   0x00000000   Code   RO         5288    .ARM.Collect$$libinit$$00000011  c_w.l(libinit2.o)
    0x00000342   0x00000342   0x00000000   Code   RO         5290    .ARM.Collect$$libinit$$00000013  c_w.l(libinit2.o)
    0x00000342   0x00000342   0x00000000   Code   RO         5292    .ARM.Collect$$libinit$$00000015  c_w.l(libinit2.o)
    0x00000342   0x00000342   0x00000000   Code   RO         5294    .ARM.Collect$$libinit$$00000017  c_w.l(libinit2.o)
    0x00000342   0x00000342   0x00000000   Code   RO         5296    .ARM.Collect$$libinit$$00000019  c_w.l(libinit2.o)
    0x00000342   0x00000342   0x00000000   Code   RO         5298    .ARM.Collect$$libinit$$0000001B  c_w.l(libinit2.o)
    0x00000342   0x00000342   0x00000000   Code   RO         5300    .ARM.Collect$$libinit$$0000001D  c_w.l(libinit2.o)
    0x00000342   0x00000342   0x00000000   Code   RO         5302    .ARM.Collect$$libinit$$0000001F  c_w.l(libinit2.o)
    0x00000342   0x00000342   0x00000000   Code   RO         5304    .ARM.Collect$$libinit$$00000021  c_w.l(libinit2.o)
    0x00000342   0x00000342   0x00000000   Code   RO         5306    .ARM.Collect$$libinit$$00000023  c_w.l(libinit2.o)
    0x00000342   0x00000342   0x00000000   Code   RO         5308    .ARM.Collect$$libinit$$00000025  c_w.l(libinit2.o)
    0x00000342   0x00000342   0x00000000   Code   RO         5312    .ARM.Collect$$libinit$$0000002C  c_w.l(libinit2.o)
    0x00000342   0x00000342   0x00000000   Code   RO         5314    .ARM.Collect$$libinit$$0000002E  c_w.l(libinit2.o)
    0x00000342   0x00000342   0x00000000   Code   RO         5316    .ARM.Collect$$libinit$$00000030  c_w.l(libinit2.o)
    0x00000342   0x00000342   0x00000000   Code   RO         5318    .ARM.Collect$$libinit$$00000032  c_w.l(libinit2.o)
    0x00000342   0x00000342   0x00000002   Code   RO         5319    .ARM.Collect$$libinit$$00000033  c_w.l(libinit2.o)
    0x00000344   0x00000344   0x00000002   Code   RO         5350    .ARM.Collect$$libshutdown$$00000000  c_w.l(libshutdown.o)
    0x00000346   0x00000346   0x00000000   Code   RO         5376    .ARM.Collect$$libshutdown$$00000002  c_w.l(libshutdown2.o)
    0x00000346   0x00000346   0x00000000   Code   RO         5378    .ARM.Collect$$libshutdown$$00000004  c_w.l(libshutdown2.o)
    0x00000346   0x00000346   0x00000000   Code   RO         5381    .ARM.Collect$$libshutdown$$00000007  c_w.l(libshutdown2.o)
    0x00000346   0x00000346   0x00000000   Code   RO         5384    .ARM.Collect$$libshutdown$$0000000A  c_w.l(libshutdown2.o)
    0x00000346   0x00000346   0x00000000   Code   RO         5386    .ARM.Collect$$libshutdown$$0000000C  c_w.l(libshutdown2.o)
    0x00000346   0x00000346   0x00000000   Code   RO         5389    .ARM.Collect$$libshutdown$$0000000F  c_w.l(libshutdown2.o)
    0x00000346   0x00000346   0x00000002   Code   RO         5390    .ARM.Collect$$libshutdown$$00000010  c_w.l(libshutdown2.o)
    0x00000348   0x00000348   0x00000000   Code   RO         5219    .ARM.Collect$$rtentry$$00000000  c_w.l(__rtentry.o)
    0x00000348   0x00000348   0x00000000   Code   RO         5234    .ARM.Collect$$rtentry$$00000002  c_w.l(__rtentry2.o)
    0x00000348   0x00000348   0x00000006   Code   RO         5246    .ARM.Collect$$rtentry$$00000004  c_w.l(__rtentry4.o)
    0x0000034e   0x0000034e   0x00000000   Code   RO         5236    .ARM.Collect$$rtentry$$00000009  c_w.l(__rtentry2.o)
    0x0000034e   0x0000034e   0x00000004   Code   RO         5237    .ARM.Collect$$rtentry$$0000000A  c_w.l(__rtentry2.o)
    0x00000352   0x00000352   0x00000000   Code   RO         5239    .ARM.Collect$$rtentry$$0000000C  c_w.l(__rtentry2.o)
    0x00000352   0x00000352   0x00000008   Code   RO         5240    .ARM.Collect$$rtentry$$0000000D  c_w.l(__rtentry2.o)
    0x0000035a   0x0000035a   0x00000002   Code   RO         5267    .ARM.Collect$$rtexit$$00000000  c_w.l(rtexit.o)
    0x0000035c   0x0000035c   0x00000000   Code   RO         5323    .ARM.Collect$$rtexit$$00000002  c_w.l(rtexit2.o)
    0x0000035c   0x0000035c   0x00000004   Code   RO         5324    .ARM.Collect$$rtexit$$00000003  c_w.l(rtexit2.o)
    0x00000360   0x00000360   0x00000006   Code   RO         5325    .ARM.Collect$$rtexit$$00000004  c_w.l(rtexit2.o)
    0x00000366   0x00000366   0x00000002   PAD
    0x00000368   0x00000368   0x0000004c   Code   RO           77    .text               startup_hc32f334.o
    0x000003b4   0x000003b4   0x00000006   Code   RO         5185    .text               c_w.l(heapauxi.o)
    0x000003ba   0x000003ba   0x00000012   Code   RO         5252    .text               c_w.l(exit.o)
    0x000003cc   0x000003cc   0x00000008   Code   RO         5264    .text               c_w.l(libspace.o)
    0x000003d4   0x000003d4   0x0000000c   Code   RO         5320    .text               c_w.l(sys_exit.o)
    0x000003e0   0x000003e0   0x00000002   Code   RO         5339    .text               c_w.l(use_no_semi.o)
    0x000003e2   0x000003e2   0x00000000   Code   RO         5341    .text               c_w.l(indicate_semi.o)
    0x000003e2   0x000003e2   0x00000004   Code   RO         5023    i.Adc_Init          adc.o
    0x000003e6   0x000003e6   0x0000000e   Code   RO          220    i.CLK_SetClockDiv   hc32_ll_clk.o
    0x000003f4   0x000003f4   0x0000000c   Code   RO         4832    i.CURR_H_A_DAC1O1   dac.o
    0x00000400   0x00000400   0x00000060   Data   RO         1297    .ARM.__AT_0x00000400  hc32_ll_icg.o
    0x00000460   0x00000460   0x0000004a   Code   RO         5250    .text               c_w.l(sys_stackheap_outer.o)
    0x000004aa   0x000004aa   0x00000002   PAD
    0x000004ac   0x000004ac   0x000000bc   Code   RO         5113    i.BSP_CLK_Init      ev_hc32f334_lqfp64.o
    0x00000568   0x00000568   0x00000070   Code   RO         4318    i.BandtrapInit      main.o
    0x000005d8   0x000005d8   0x00000058   Code   RO          206    i.CLK_GetStableStatus  hc32_ll_clk.o
    0x00000630   0x00000630   0x000000b8   Code   RO          216    i.CLK_PLLCmd        hc32_ll_clk.o
    0x000006e8   0x000006e8   0x000001d8   Code   RO          217    i.CLK_PLLInit       hc32_ll_clk.o
    0x000008c0   0x000008c0   0x00000034   Code   RO          218    i.CLK_PLLStructInit  hc32_ll_clk.o
    0x000008f4   0x000008f4   0x0000000e   Code   RO          223    i.CLK_SetSysClockSrc  hc32_ll_clk.o
    0x00000902   0x00000902   0x0000002c   Code   RO          227    i.CLK_WaitStable    hc32_ll_clk.o
    0x0000092e   0x0000092e   0x00000002   PAD
    0x00000930   0x00000930   0x000000b0   Code   RO          231    i.CLK_XtalCmd       hc32_ll_clk.o
    0x000009e0   0x000009e0   0x000000f4   Code   RO          235    i.CLK_XtalInit      hc32_ll_clk.o
    0x00000ad4   0x00000ad4   0x0000001e   Code   RO          238    i.CLK_XtalStructInit  hc32_ll_clk.o
    0x00000af2   0x00000af2   0x00000002   PAD
    0x00000af4   0x00000af4   0x00000084   Code   RO         2150    i.CMP_CompareOutCmd  hc32_ll_cmp.o
    0x00000b78   0x00000b78   0x0000003c   Code   RO         2152    i.CMP_DelayUS       hc32_ll_cmp.o
    0x00000bb4   0x00000bb4   0x00000164   Code   RO         2159    i.CMP_NormalModeInit  hc32_ll_cmp.o
    0x00000d18   0x00000d18   0x0000001a   Code   RO         2173    i.CMP_StructInit    hc32_ll_cmp.o
    0x00000d32   0x00000d32   0x00000002   PAD
    0x00000d34   0x00000d34   0x0000000c   Code   RO         4833    i.CURR_H_B_DAC2O1   dac.o
    0x00000d40   0x00000d40   0x00000004   Code   RO         4790    i.Cmp_Init          cmp.o
    0x00000d44   0x00000d44   0x00000002   Code   RO         1909    i.DDL_AssertHandler  hc32_ll_utility.o
    0x00000d46   0x00000d46   0x00000002   PAD
    0x00000d48   0x00000d48   0x00000044   Code   RO         1910    i.DDL_DelayMS       hc32_ll_utility.o
    0x00000d8c   0x00000d8c   0x00000044   Code   RO         1911    i.DDL_DelayUS       hc32_ll_utility.o
    0x00000dd0   0x00000dd0   0x0000001a   Code   RO         4836    i.Dac_Init          dac.o
    0x00000dea   0x00000dea   0x00000002   PAD
    0x00000dec   0x00000dec   0x00000064   Code   RO          457    i.EFM_CacheRamReset  hc32_ll_efm.o
    0x00000e50   0x00000e50   0x00000064   Code   RO          460    i.EFM_DCacheCmd     hc32_ll_efm.o
    0x00000eb4   0x00000eb4   0x00000064   Code   RO          470    i.EFM_ICacheCmd     hc32_ll_efm.o
    0x00000f18   0x00000f18   0x00000064   Code   RO          477    i.EFM_PrefetchCmd   hc32_ll_efm.o
    0x00000f7c   0x00000f7c   0x000000ac   Code   RO          494    i.EFM_SetWaitCycle  hc32_ll_efm.o
    0x00001028   0x00001028   0x000000b0   Code   RO         2363    i.EMB_ClearStatus   hc32_ll_emb.o
    0x000010d8   0x000010d8   0x000000d4   Code   RO         4892    i.EMB_GR0_IrqHandler  emb.o
    0x000011ac   0x000011ac   0x000000bc   Code   RO         2365    i.EMB_GetStatus     hc32_ll_emb.o
    0x00001268   0x00001268   0x000000d4   Code   RO         2368    i.EMB_IntCmd        hc32_ll_emb.o
    0x0000133c   0x0000133c   0x000000d0   Code   RO         2370    i.EMB_SetReleasePwmCond  hc32_ll_emb.o
    0x0000140c   0x0000140c   0x000000dc   Code   RO         4893    i.Emb0_Init         emb.o
    0x000014e8   0x000014e8   0x00000044   Code   RO         4894    i.Emb2_Init         emb.o
    0x0000152c   0x0000152c   0x00000044   Code   RO         4895    i.Emb3_Init         emb.o
    0x00001570   0x00001570   0x00000012   Code   RO         4896    i.Emb_Init          emb.o
    0x00001582   0x00001582   0x00000002   PAD
    0x00001584   0x00001584   0x00000080   Code   RO          734    i.FCG_Fcg0PeriphClockCmd  hc32_ll_fcg.o
    0x00001604   0x00001604   0x00000070   Code   RO          736    i.FCG_Fcg2PeriphClockCmd  hc32_ll_fcg.o
    0x00001674   0x00001674   0x00000070   Code   RO          737    i.FCG_Fcg3PeriphClockCmd  hc32_ll_fcg.o
    0x000016e4   0x000016e4   0x000000bc   Code   RO          776    i.GPIO_AnalogCmd    hc32_ll_gpio.o
    0x000017a0   0x000017a0   0x000001e0   Code   RO          781    i.GPIO_Init         hc32_ll_gpio.o
    0x00001980   0x00001980   0x00000094   Code   RO         4724    i.GPIO_LLC_HB_outputs_Config  hrtimer.o
    0x00001a14   0x00001a14   0x00000074   Code   RO          788    i.GPIO_ResetPins    hc32_ll_gpio.o
    0x00001a88   0x00001a88   0x000000c8   Code   RO          790    i.GPIO_SetFunc      hc32_ll_gpio.o
    0x00001b50   0x00001b50   0x0000009c   Code   RO          792    i.GPIO_SetReadWaitCycle  hc32_ll_gpio.o
    0x00001bec   0x00001bec   0x0000002a   Code   RO          794    i.GPIO_StructInit   hc32_ll_gpio.o
    0x00001c16   0x00001c16   0x00000002   PAD
    0x00001c18   0x00001c18   0x00000220   Code   RO         4999    i.Gpio_Init         gpio.o
    0x00001e38   0x00001e38   0x00000010   Code   RO         4725    i.HRPWM_Calibrate_ClearFlag  hrtimer.o
    0x00001e48   0x00001e48   0x00000014   Code   RO         4726    i.HRPWM_Calibrate_GetStatus  hrtimer.o
    0x00001e5c   0x00001e5c   0x00000010   Code   RO         4727    i.HRPWM_Calibrate_PeriodDisable  hrtimer.o
    0x00001e6c   0x00001e6c   0x00000074   Code   RO         4728    i.HRPWM_Calibrate_ProcessSingle  hrtimer.o
    0x00001ee0   0x00001ee0   0x00000010   Code   RO         4729    i.HRPWM_Calibrate_SingleDisable  hrtimer.o
    0x00001ef0   0x00001ef0   0x00000010   Code   RO         4730    i.HRPWM_Calibrate_SingleEnable  hrtimer.o
    0x00001f00   0x00001f00   0x000001a8   Code   RO          938    i.HRPWM_DeInit      hc32_ll_hrpwm.o
    0x000020a8   0x000020a8   0x000000cc   Code   RO          963    i.HRPWM_Init        hc32_ll_hrpwm.o
    0x00002174   0x00002174   0x00000038   Code   RO          973    i.HRPWM_PWM_StructInit  hc32_ll_hrpwm.o
    0x000021ac   0x000021ac   0x00001594   Code   RO         4731    i.HRTIM_Config      hrtimer.o
    0x00003740   0x00003740   0x000000a8   Code   RO         1327    i.INTC_IrqSignIn    hc32_ll_interrupts.o
    0x000037e8   0x000037e8   0x00000014   Code   RO         1332    i.IRQ000_Handler    hc32_ll_interrupts.o
    0x000037fc   0x000037fc   0x00000014   Code   RO         1333    i.IRQ001_Handler    hc32_ll_interrupts.o
    0x00003810   0x00003810   0x00000014   Code   RO         1334    i.IRQ002_Handler    hc32_ll_interrupts.o
    0x00003824   0x00003824   0x00000014   Code   RO         1335    i.IRQ003_Handler    hc32_ll_interrupts.o
    0x00003838   0x00003838   0x00000014   Code   RO         1336    i.IRQ004_Handler    hc32_ll_interrupts.o
    0x0000384c   0x0000384c   0x00000014   Code   RO         1337    i.IRQ005_Handler    hc32_ll_interrupts.o
    0x00003860   0x00003860   0x00000014   Code   RO         1338    i.IRQ006_Handler    hc32_ll_interrupts.o
    0x00003874   0x00003874   0x00000014   Code   RO         1339    i.IRQ007_Handler    hc32_ll_interrupts.o
    0x00003888   0x00003888   0x00000014   Code   RO         1340    i.IRQ008_Handler    hc32_ll_interrupts.o
    0x0000389c   0x0000389c   0x00000014   Code   RO         1341    i.IRQ009_Handler    hc32_ll_interrupts.o
    0x000038b0   0x000038b0   0x00000014   Code   RO         1342    i.IRQ010_Handler    hc32_ll_interrupts.o
    0x000038c4   0x000038c4   0x00000014   Code   RO         1343    i.IRQ011_Handler    hc32_ll_interrupts.o
    0x000038d8   0x000038d8   0x00000014   Code   RO         1344    i.IRQ012_Handler    hc32_ll_interrupts.o
    0x000038ec   0x000038ec   0x00000014   Code   RO         1345    i.IRQ013_Handler    hc32_ll_interrupts.o
    0x00003900   0x00003900   0x00000014   Code   RO         1346    i.IRQ014_Handler    hc32_ll_interrupts.o
    0x00003914   0x00003914   0x00000014   Code   RO         1347    i.IRQ015_Handler    hc32_ll_interrupts.o
    0x00003928   0x00003928   0x00000188   Code   RO         5024    i.InitMcu_Adc1      adc.o
    0x00003ab0   0x00003ab0   0x00000080   Code   RO           84    i.LL_PERIPH_WE      hc32_ll.o
    0x00003b30   0x00003b30   0x00000084   Code   RO           85    i.LL_PERIPH_WP      hc32_ll.o
    0x00003bb4   0x00003bb4   0x00000068   Code   RO         1553    i.PWC_LVD_ClearStatus  hc32_ll_pwc.o
    0x00003c1c   0x00003c1c   0x00000204   Code   RO         1560    i.PWC_LVD_Init      hc32_ll_pwc.o
    0x00003e20   0x00003e20   0x00000024   Code   RO         1563    i.PWC_LVD_StructInit  hc32_ll_pwc.o
    0x00003e44   0x00003e44   0x00000054   Code   RO         4948    i.Pwc_Init          pwc.o
    0x00003e98   0x00003e98   0x00000228   Code   RO          240    i.SetSysClockDiv    hc32_ll_clk.o
    0x000040c0   0x000040c0   0x000000f0   Code   RO          241    i.SetSysClockSrc    hc32_ll_clk.o
    0x000041b0   0x000041b0   0x00000054   Code   RO         4319    i.Square_root       main.o
    0x00004204   0x00004204   0x000000ac   Code   RO            4    i.SystemCoreClockUpdate  system_hc32f334.o
    0x000042b0   0x000042b0   0x00000020   Code   RO            5    i.SystemInit        system_hc32f334.o
    0x000042d0   0x000042d0   0x00000188   Code   RO         4320    i.TMR0_2_Handler    main.o
    0x00004458   0x00004458   0x00000098   Code   RO         2461    i.TMR0_HWStopCondCmd  hc32_ll_tmr0.o
    0x000044f0   0x000044f0   0x00000130   Code   RO         2462    i.TMR0_Init         hc32_ll_tmr0.o
    0x00004620   0x00004620   0x0000008c   Code   RO         2463    i.TMR0_IntCmd       hc32_ll_tmr0.o
    0x000046ac   0x000046ac   0x00000080   Code   RO         2469    i.TMR0_Start        hc32_ll_tmr0.o
    0x0000472c   0x0000472c   0x0000001e   Code   RO         2471    i.TMR0_StructInit   hc32_ll_tmr0.o
    0x0000474a   0x0000474a   0x00000002   PAD
    0x0000474c   0x0000474c   0x00000058   Code   RO         2472    i.TMR0_WaitSyncDone  hc32_ll_tmr0.o
    0x000047a4   0x000047a4   0x000000cc   Code   RO         4975    i.Tmr0_Init         time.o
    0x00004870   0x00004870   0x00001168   Code   RO         4697    i.Two_phase_pfc_CTRL  control.o
    0x000059d8   0x000059d8   0x00000068   Code   RO         4793    i.initMcu_CMP3      cmp.o
    0x00005a40   0x00005a40   0x0000004c   Code   RO         4837    i.initMcu_DAC1      dac.o
    0x00005a8c   0x00005a8c   0x00000038   Code   RO         4838    i.initMcu_DAC2      dac.o
    0x00005ac4   0x00005ac4   0x00000718   Code   RO         4321    i.main              main.o
    0x000061dc   0x000061dc   0x00000150   Code   RO         5191    x$fpl$dadd          fz_wm.l(daddsub_clz.o)
    0x0000632c   0x0000632c   0x0000005a   Code   RO         5201    x$fpl$dfixu         fz_wm.l(dfixu.o)
    0x00006386   0x00006386   0x00000002   PAD
    0x00006388   0x00006388   0x00000154   Code   RO         5215    x$fpl$dmul          fz_wm.l(dmul.o)
    0x000064dc   0x000064dc   0x0000009c   Code   RO         5224    x$fpl$dnaninf       fz_wm.l(dnaninf.o)
    0x00006578   0x00006578   0x0000000c   Code   RO         5226    x$fpl$dretinf       fz_wm.l(dretinf.o)
    0x00006584   0x00006584   0x000001d4   Code   RO         5193    x$fpl$dsub          fz_wm.l(daddsub_clz.o)
    0x00006758   0x00006758   0x00000056   Code   RO         5217    x$fpl$f2d           fz_wm.l(f2d.o)
    0x000067ae   0x000067ae   0x0000008c   Code   RO         5228    x$fpl$fnaninf       fz_wm.l(fnaninf.o)
    0x0000683a   0x0000683a   0x0000000a   Code   RO         5335    x$fpl$fpinit        fz_wm.l(fpinit.o)
    0x00006844   0x00006844   0x00000000   Code   RO         5232    x$fpl$usenofp       fz_wm.l(usenofp.o)
    0x00006844   0x00006844   0x00009c44   Data   RO         4645    .constdata          data.o
    0x00010488   0x00010488   0x00000644   Data   RO         4646    .constdata          data.o
    0x00010acc   0x00010acc   0x00000322   Data   RO         4648    .constdata          data.o
    0x00010dee   0x00010dee   0x00000002   PAD
    0x00010df0   0x00010df0   0x00000640   Data   RO         4650    .constdata          data.o
    0x00011430   0x00011430   0x000004dc   Data   RO         4652    .constdata          data.o
    0x0001190c   0x0001190c   0x0000026e   Data   RO         4653    .constdata          data.o
    0x00011b7a   0x00011b7a   0x0000026e   Data   RO         4654    .constdata          data.o
    0x00011de8   0x00011de8   0x0000026e   Data   RO         4655    .constdata          data.o
    0x00012056   0x00012056   0x0000026e   Data   RO         4656    .constdata          data.o
    0x000122c4   0x000122c4   0x00000640   Data   RO         4657    .constdata          data.o
    0x00012904   0x00012904   0x00000640   Data   RO         4658    .constdata          data.o
    0x00012f44   0x00012f44   0x00000640   Data   RO         4659    .constdata          data.o
    0x00013584   0x00013584   0x00000640   Data   RO         4660    .constdata          data.o
    0x00013bc4   0x00013bc4   0x00000020   Data   RO         5391    Region$$Table       anon$$obj.o


    Execution Region RW_IRAM1 (Exec base: 0x1fffc000, Load base: 0x00013be4, Size: 0x000012a8, Max: 0x00008000, ABSOLUTE, COMPRESSED[0x0000004c])

    Exec Addr    Load Addr    Size         Type   Attr      Idx    E Section Name        Object

    0x1fffc000   COMPRESSED   0x00000004   Data   RW         4322    .data               main.o
    0x1fffc004   COMPRESSED   0x00000004   Data   RW         4437    .data               variable.o
    0x1fffc008   COMPRESSED   0x00000004   Data   RW         4438    .data               variable.o
    0x1fffc00c   COMPRESSED   0x00000004   Data   RW         4439    .data               variable.o
    0x1fffc010   COMPRESSED   0x00000001   Data   RW         4443    .data               variable.o
    0x1fffc011   COMPRESSED   0x00000001   PAD
    0x1fffc012   COMPRESSED   0x00000002   Data   RW         4444    .data               variable.o
    0x1fffc014   COMPRESSED   0x00000002   Data   RW         4445    .data               variable.o
    0x1fffc016   COMPRESSED   0x00000002   Data   RW         4446    .data               variable.o
    0x1fffc018   COMPRESSED   0x00000002   Data   RW         4447    .data               variable.o
    0x1fffc01a   COMPRESSED   0x00000002   Data   RW         4449    .data               variable.o
    0x1fffc01c   COMPRESSED   0x00000001   Data   RW         4452    .data               variable.o
    0x1fffc01d   COMPRESSED   0x00000001   Data   RW         4453    .data               variable.o
    0x1fffc01e   COMPRESSED   0x00000001   Data   RW         4454    .data               variable.o
    0x1fffc01f   COMPRESSED   0x00000001   Data   RW         4455    .data               variable.o
    0x1fffc020   COMPRESSED   0x00000004   Data   RW         4456    .data               variable.o
    0x1fffc024   COMPRESSED   0x00000004   Data   RW         4457    .data               variable.o
    0x1fffc028   COMPRESSED   0x00000002   Data   RW         4464    .data               variable.o
    0x1fffc02a   COMPRESSED   0x00000002   Data   RW         4465    .data               variable.o
    0x1fffc02c   COMPRESSED   0x00000002   Data   RW         4466    .data               variable.o
    0x1fffc02e   COMPRESSED   0x00000002   Data   RW         4467    .data               variable.o
    0x1fffc030   COMPRESSED   0x00000002   Data   RW         4468    .data               variable.o
    0x1fffc032   COMPRESSED   0x00000001   Data   RW         4469    .data               variable.o
    0x1fffc033   COMPRESSED   0x00000001   Data   RW         4470    .data               variable.o
    0x1fffc034   COMPRESSED   0x00000002   Data   RW         4471    .data               variable.o
    0x1fffc036   COMPRESSED   0x00000002   Data   RW         4472    .data               variable.o
    0x1fffc038   COMPRESSED   0x00000001   Data   RW         4473    .data               variable.o
    0x1fffc039   COMPRESSED   0x00000001   PAD
    0x1fffc03a   COMPRESSED   0x00000002   Data   RW         4474    .data               variable.o
    0x1fffc03c   COMPRESSED   0x00000001   Data   RW         4476    .data               variable.o
    0x1fffc03d   COMPRESSED   0x00000001   Data   RW         4478    .data               variable.o
    0x1fffc03e   COMPRESSED   0x00000001   Data   RW         4480    .data               variable.o
    0x1fffc03f   COMPRESSED   0x00000001   Data   RW         4481    .data               variable.o
    0x1fffc040   COMPRESSED   0x00000002   Data   RW         4482    .data               variable.o
    0x1fffc042   COMPRESSED   0x00000002   Data   RW         4483    .data               variable.o
    0x1fffc044   COMPRESSED   0x00000002   Data   RW         4488    .data               variable.o
    0x1fffc046   COMPRESSED   0x00000002   Data   RW         4489    .data               variable.o
    0x1fffc048   COMPRESSED   0x00000001   Data   RW         4490    .data               variable.o
    0x1fffc049   COMPRESSED   0x00000001   Data   RW         4491    .data               variable.o
    0x1fffc04a   COMPRESSED   0x00000002   Data   RW         4492    .data               variable.o
    0x1fffc04c   COMPRESSED   0x00000002   Data   RW         4493    .data               variable.o
    0x1fffc04e   COMPRESSED   0x00000002   PAD
    0x1fffc050   COMPRESSED   0x00000004   Data   RW         4494    .data               variable.o
    0x1fffc054   COMPRESSED   0x00000001   Data   RW         4495    .data               variable.o
    0x1fffc055   COMPRESSED   0x00000001   PAD
    0x1fffc056   COMPRESSED   0x00000002   Data   RW         4496    .data               variable.o
    0x1fffc058   COMPRESSED   0x00000002   Data   RW         4497    .data               variable.o
    0x1fffc05a   COMPRESSED   0x00000002   PAD
    0x1fffc05c   COMPRESSED   0x00000004   Data   RW         4498    .data               variable.o
    0x1fffc060   COMPRESSED   0x00000002   Data   RW         4499    .data               variable.o
    0x1fffc062   COMPRESSED   0x00000001   Data   RW         4500    .data               variable.o
    0x1fffc063   COMPRESSED   0x00000001   PAD
    0x1fffc064   COMPRESSED   0x00000004   Data   RW         4501    .data               variable.o
    0x1fffc068   COMPRESSED   0x00000004   Data   RW         4502    .data               variable.o
    0x1fffc06c   COMPRESSED   0x00000004   Data   RW         4503    .data               variable.o
    0x1fffc070   COMPRESSED   0x00000004   Data   RW         4504    .data               variable.o
    0x1fffc074   COMPRESSED   0x00000002   Data   RW         4505    .data               variable.o
    0x1fffc076   COMPRESSED   0x00000002   Data   RW         4507    .data               variable.o
    0x1fffc078   COMPRESSED   0x00000004   Data   RW         4508    .data               variable.o
    0x1fffc07c   COMPRESSED   0x00000004   Data   RW         4509    .data               variable.o
    0x1fffc080   COMPRESSED   0x00000004   Data   RW         4510    .data               variable.o
    0x1fffc084   COMPRESSED   0x00000002   Data   RW         4511    .data               variable.o
    0x1fffc086   COMPRESSED   0x00000002   PAD
    0x1fffc088   COMPRESSED   0x00000004   Data   RW         4513    .data               variable.o
    0x1fffc08c   COMPRESSED   0x00000004   Data   RW         4515    .data               variable.o
    0x1fffc090   COMPRESSED   0x00000004   Data   RW         4516    .data               variable.o
    0x1fffc094   COMPRESSED   0x00000004   Data   RW         4517    .data               variable.o
    0x1fffc098   COMPRESSED   0x00000004   Data   RW         4519    .data               variable.o
    0x1fffc09c   COMPRESSED   0x00000004   Data   RW         4520    .data               variable.o
    0x1fffc0a0   COMPRESSED   0x00000004   Data   RW         4521    .data               variable.o
    0x1fffc0a4   COMPRESSED   0x00000004   Data   RW         4522    .data               variable.o
    0x1fffc0a8   COMPRESSED   0x00000004   Data   RW         4523    .data               variable.o
    0x1fffc0ac   COMPRESSED   0x00000004   Data   RW         4524    .data               variable.o
    0x1fffc0b0   COMPRESSED   0x00000004   Data   RW         4525    .data               variable.o
    0x1fffc0b4   COMPRESSED   0x00000004   Data   RW         4529    .data               variable.o
    0x1fffc0b8   COMPRESSED   0x00000004   Data   RW         4530    .data               variable.o
    0x1fffc0bc   COMPRESSED   0x00000004   Data   RW         4531    .data               variable.o
    0x1fffc0c0   COMPRESSED   0x00000004   Data   RW         4532    .data               variable.o
    0x1fffc0c4   COMPRESSED   0x00000002   Data   RW         4533    .data               variable.o
    0x1fffc0c6   COMPRESSED   0x00000002   PAD
    0x1fffc0c8   COMPRESSED   0x00000004   Data   RW         4534    .data               variable.o
    0x1fffc0cc   COMPRESSED   0x00000002   Data   RW         4535    .data               variable.o
    0x1fffc0ce   COMPRESSED   0x00000001   Data   RW         4536    .data               variable.o
    0x1fffc0cf   COMPRESSED   0x00000001   Data   RW         4537    .data               variable.o
    0x1fffc0d0   COMPRESSED   0x00000004   Data   RW         4538    .data               variable.o
    0x1fffc0d4   COMPRESSED   0x00000002   Data   RW         4539    .data               variable.o
    0x1fffc0d6   COMPRESSED   0x00000002   Data   RW         4540    .data               variable.o
    0x1fffc0d8   COMPRESSED   0x00000002   Data   RW         4541    .data               variable.o
    0x1fffc0da   COMPRESSED   0x00000002   PAD
    0x1fffc0dc   COMPRESSED   0x00000004   Data   RW         4544    .data               variable.o
    0x1fffc0e0   COMPRESSED   0x00000002   Data   RW         4545    .data               variable.o
    0x1fffc0e2   COMPRESSED   0x00000002   Data   RW         4546    .data               variable.o
    0x1fffc0e4   COMPRESSED   0x00000002   Data   RW         4547    .data               variable.o
    0x1fffc0e6   COMPRESSED   0x00000001   Data   RW         4548    .data               variable.o
    0x1fffc0e7   COMPRESSED   0x00000001   Data   RW         4549    .data               variable.o
    0x1fffc0e8   COMPRESSED   0x00000001   Data   RW         4550    .data               variable.o
    0x1fffc0e9   COMPRESSED   0x00000001   Data   RW         4551    .data               variable.o
    0x1fffc0ea   COMPRESSED   0x00000001   Data   RW         4552    .data               variable.o
    0x1fffc0eb   COMPRESSED   0x00000001   PAD
    0x1fffc0ec   COMPRESSED   0x00000002   Data   RW         4553    .data               variable.o
    0x1fffc0ee   COMPRESSED   0x00000002   Data   RW         4554    .data               variable.o
    0x1fffc0f0   COMPRESSED   0x00000002   Data   RW         4555    .data               variable.o
    0x1fffc0f2   COMPRESSED   0x00000002   Data   RW         4556    .data               variable.o
    0x1fffc0f4   COMPRESSED   0x00000001   Data   RW         4557    .data               variable.o
    0x1fffc0f5   COMPRESSED   0x00000001   Data   RW         4558    .data               variable.o
    0x1fffc0f6   COMPRESSED   0x00000002   Data   RW         4559    .data               variable.o
    0x1fffc0f8   COMPRESSED   0x00000002   Data   RW         4560    .data               variable.o
    0x1fffc0fa   COMPRESSED   0x00000002   Data   RW         4561    .data               variable.o
    0x1fffc0fc   COMPRESSED   0x00000002   Data   RW         4562    .data               variable.o
    0x1fffc0fe   COMPRESSED   0x00000002   Data   RW         4563    .data               variable.o
    0x1fffc100   COMPRESSED   0x00000002   Data   RW         4564    .data               variable.o
    0x1fffc102   COMPRESSED   0x00000002   PAD
    0x1fffc104   COMPRESSED   0x00000004   Data   RW         4565    .data               variable.o
    0x1fffc108   COMPRESSED   0x00000002   Data   RW         4566    .data               variable.o
    0x1fffc10a   COMPRESSED   0x00000002   PAD
    0x1fffc10c   COMPRESSED   0x00000004   Data   RW         4567    .data               variable.o
    0x1fffc110   COMPRESSED   0x00000004   Data   RW         4568    .data               variable.o
    0x1fffc114   COMPRESSED   0x00000002   Data   RW         4569    .data               variable.o
    0x1fffc116   COMPRESSED   0x00000002   Data   RW         4570    .data               variable.o
    0x1fffc118   COMPRESSED   0x00000001   Data   RW         4573    .data               variable.o
    0x1fffc119   COMPRESSED   0x00000001   Data   RW         4574    .data               variable.o
    0x1fffc11a   COMPRESSED   0x00000001   Data   RW         4575    .data               variable.o
    0x1fffc11b   COMPRESSED   0x00000001   PAD
    0x1fffc11c   COMPRESSED   0x00000002   Data   RW         4576    .data               variable.o
    0x1fffc11e   COMPRESSED   0x00000002   Data   RW         4577    .data               variable.o
    0x1fffc120   COMPRESSED   0x00000004   Data   RW         4578    .data               variable.o
    0x1fffc124   COMPRESSED   0x00000004   PAD
    0x1fffc128   COMPRESSED   0x00000008   Data   RW         4579    .data               variable.o
    0x1fffc130   COMPRESSED   0x00000004   Data   RW         4580    .data               variable.o
    0x1fffc134   COMPRESSED   0x00000001   Data   RW         4582    .data               variable.o
    0x1fffc135   COMPRESSED   0x00000001   Data   RW         4583    .data               variable.o
    0x1fffc136   COMPRESSED   0x00000002   PAD
    0x1fffc138   COMPRESSED   0x00000004   Data   RW         4584    .data               variable.o
    0x1fffc13c   COMPRESSED   0x00000004   Data   RW         4586    .data               variable.o
    0x1fffc140   COMPRESSED   0x00000008   Data   RW         4587    .data               variable.o
    0x1fffc148   COMPRESSED   0x00000004   Data   RW         4590    .data               variable.o
    0x1fffc14c   COMPRESSED   0x00000001   Data   RW         4591    .data               variable.o
    0x1fffc14d   COMPRESSED   0x00000001   PAD
    0x1fffc14e   COMPRESSED   0x00000002   Data   RW         4593    .data               variable.o
    0x1fffc150   COMPRESSED   0x00000002   Data   RW         4594    .data               variable.o
    0x1fffc152   COMPRESSED   0x00000002   Data   RW         4595    .data               variable.o
    0x1fffc154   COMPRESSED   0x00000004   Data   RW         4596    .data               variable.o
    0x1fffc158   COMPRESSED   0x00000004   Data   RW         4598    .data               variable.o
    0x1fffc15c   COMPRESSED   0x00000004   Data   RW         4599    .data               variable.o
    0x1fffc160   COMPRESSED   0x00000004   Data   RW         4602    .data               variable.o
    0x1fffc164   COMPRESSED   0x00000004   Data   RW         4604    .data               variable.o
    0x1fffc168   COMPRESSED   0x00000004   Data   RW         4605    .data               variable.o
    0x1fffc16c   COMPRESSED   0x00000004   Data   RW         4606    .data               variable.o
    0x1fffc170   COMPRESSED   0x00000004   Data   RW         4607    .data               variable.o
    0x1fffc174   COMPRESSED   0x00000004   Data   RW         4608    .data               variable.o
    0x1fffc178   COMPRESSED   0x00000004   Data   RW         4609    .data               variable.o
    0x1fffc17c   COMPRESSED   0x00000004   Data   RW         4610    .data               variable.o
    0x1fffc180   COMPRESSED   0x00000001   Data   RW         4611    .data               variable.o
    0x1fffc181   COMPRESSED   0x00000003   PAD
    0x1fffc184   COMPRESSED   0x00000004   Data   RW         4612    .data               variable.o
    0x1fffc188   COMPRESSED   0x00000004   Data   RW         4613    .data               variable.o
    0x1fffc18c   COMPRESSED   0x00000004   Data   RW         4614    .data               variable.o
    0x1fffc190   COMPRESSED   0x00000001   Data   RW         4704    .data__ZZ18Two_phase_pfc_CTRLE1i  control.o
    0x1fffc191   COMPRESSED   0x00000001   Data   RW         4705    .data__ZZ18Two_phase_pfc_CTRLE23cap_pattern_change_cnt1  control.o
    0x1fffc192   COMPRESSED   0x00000001   Data   RW         4706    .data__ZZ18Two_phase_pfc_CTRLE23cap_pattern_change_cnt2  control.o
    0x1fffc193   COMPRESSED   0x00000001   PAD
    0x1fffc194   COMPRESSED   0x00000004   Data   RW         4703    .data__ZZ18Two_phase_pfc_CTRLE7phase_k  control.o
    0x1fffc198        -       0x00000040   Zero   RW         1353    .bss                hc32_ll_interrupts.o
    0x1fffc1d8        -       0x00000010   Zero   RW         4423    .bss                variable.o
    0x1fffc1e8        -       0x0000000e   Zero   RW         4424    .bss                variable.o
    0x1fffc1f6   COMPRESSED   0x00000002   PAD
    0x1fffc1f8        -       0x00000048   Zero   RW         4425    .bss                variable.o
    0x1fffc240        -       0x00000060   Zero   RW         5265    .bss                c_w.l(libspace.o)
    0x1fffc2a0        -       0x00000008   Zero   RW            6    .bss.noinit         system_hc32f334.o
    0x1fffc2a8        -       0x00000400   Zero   RW           75    HEAP                startup_hc32f334.o
    0x1fffc6a8        -       0x00000c00   Zero   RW           74    STACK               startup_hc32f334.o


==============================================================================

Image component sizes


      Code (inc. data)   RO Data    RW Data    ZI Data      Debug   Object Name

       396         28          0          0          0       1254   adc.o
       108          4          0          0          0       1158   cmp.o
      4456        788          0          7          0      13364   control.o
       182         36          0          0          0       2841   dac.o
         0          0      54142          0          0       1517   data.o
       586         68          0          0          0       3296   emb.o
       188          8          0          0          0        779   ev_hc32f334_lqfp64.o
       544         18          0          0          0        892   gpio.o
       260         52          0          0          0     127514   hc32_ll.o
      2110        392          0          0          0      17086   hc32_ll_clk.o
       574        114          0          0          0       6466   hc32_ll_cmp.o
       572        276          0          0          0       3509   hc32_ll_efm.o
       784        332          0          0          0      10671   hc32_ll_emb.o
       352        156          0          0          0       2299   hc32_ll_fcg.o
      1182        284          0          0          0      13767   hc32_ll_gpio.o
       684        118          0          0          0      76039   hc32_ll_hrpwm.o
         0          0         96          0          0        766   hc32_ll_icg.o
       488        156          0          0         64      43020   hc32_ll_interrupts.o
       656        114          0          0          0      12882   hc32_ll_pwc.o
       842        204          0          0          0       6838   hc32_ll_tmr0.o
       138         22          0          0          0       2472   hc32_ll_utility.o
      5872        444          0          0          0       7639   hrtimer.o
      2404        400          0          4          0      93236   main.o
        84          4          0          0          0       7195   pwc.o
        76         30        648          0       4096        956   startup_hc32f334.o
       204         44          0          0          8     394413   system_hc32f334.o
       204         16          0          0          0        804   time.o
         0          0          0        366        102      12222   variable.o

    ----------------------------------------------------------------------
     23962       4108      54920        408       4272     864895   Object Totals
         0          0         32          0          0          0   (incl. Generated)
        16          0          2         31          2          0   (incl. Padding)

    ----------------------------------------------------------------------

      Code (inc. data)   RO Data    RW Data    ZI Data      Debug   Library Member Name

        90          0          0          0          0          0   __dczerorl2.o
         8          0          0          0          0         68   __main.o
         0          0          0          0          0          0   __rtentry.o
        12          0          0          0          0          0   __rtentry2.o
         6          0          0          0          0          0   __rtentry4.o
        52          8          0          0          0          0   __scatter.o
        28          0          0          0          0          0   __scatter_zi.o
        18          0          0          0          0         80   exit.o
         6          0          0          0          0        152   heapauxi.o
         0          0          0          0          0          0   indicate_semi.o
         2          0          0          0          0          0   libinit.o
         6          0          0          0          0          0   libinit2.o
         2          0          0          0          0          0   libshutdown.o
         2          0          0          0          0          0   libshutdown2.o
         8          4          0          0         96         68   libspace.o
         2          0          0          0          0          0   rtexit.o
        10          0          0          0          0          0   rtexit2.o
        12          4          0          0          0         68   sys_exit.o
        74          0          0          0          0         80   sys_stackheap_outer.o
         2          0          0          0          0         68   use_no_semi.o
       804         16          0          0          0        368   daddsub_clz.o
        90          4          0          0          0        140   dfixu.o
       340         12          0          0          0        152   dmul.o
       156          4          0          0          0        140   dnaninf.o
        12          0          0          0          0        116   dretinf.o
        86          4          0          0          0        132   f2d.o
       140          4          0          0          0        132   fnaninf.o
        10          0          0          0          0        116   fpinit.o
         0          0          0          0          0          0   usenofp.o

    ----------------------------------------------------------------------
      1986         60          0          0         96       1880   Library Totals
         8          0          0          0          0          0   (incl. Padding)

    ----------------------------------------------------------------------

      Code (inc. data)   RO Data    RW Data    ZI Data      Debug   Library Name

       340         16          0          0         96        584   c_w.l
      1638         44          0          0          0       1296   fz_wm.l

    ----------------------------------------------------------------------
      1986         60          0          0         96       1880   Library Totals

    ----------------------------------------------------------------------

==============================================================================


      Code (inc. data)   RO Data    RW Data    ZI Data      Debug   

     25948       4168      54920        408       4368     856319   Grand Totals
     25948       4168      54920         76       4368     856319   ELF Image Totals (compressed)
     25948       4168      54920         76          0          0   ROM Totals

==============================================================================

    Total RO  Size (Code + RO Data)                80868 (  78.97kB)
    Total RW  Size (RW Data + ZI Data)              4776 (   4.66kB)
    Total ROM Size (Code + RO Data + RW Data)      80944 (  79.05kB)

==============================================================================

