:020000040000FA
:1000000010D8FF1F9D020000A5020000A7020000FB
:10001000A9020000AB020000AD02000000000000D9
:10002000000000000000000000000000AF0200001F
:10003000B102000000000000B3020000B5020000A1
:10004000495900005D5900007159000085590000B0
:1000500099590000AD590000C1590000D559000060
:10006000E9590000FD590000115A0000255A00000E
:10007000395A00004D5A0000615A0000755A0000BC
:10008000B7020000B7020000B7020000B70200008C
:10009000B7020000B7020000B7020000B70200007C
:1000A000B7020000B7020000B7020000B70200006C
:1000B000B7020000B7020000B7020000B70200005C
:1000C000B7020000B7020000B7020000B70200004C
:1000D000B7020000B7020000B7020000B70200003C
:1000E000B7020000B7020000B7020000B70200002C
:1000F000B7020000B7020000B7020000B70200001C
:10010000B7020000B7020000B7020000B70200000B
:10011000B7020000B7020000B7020000B7020000FB
:10012000B7020000B7020000B7020000B7020000EB
:10013000B7020000B7020000B7020000B7020000DB
:10014000B7020000B7020000B7020000B7020000CB
:10015000B7020000B7020000B7020000B7020000BB
:10016000B7020000B7020000B7020000FD03000064
:10017000B7020000B7020000B7020000B70200009B
:10018000B7020000B7020000B7020000B70200008B
:10019000B7020000B7020000B7020000B70200007B
:1001A000B7020000B7020000B7020000B70200006B
:1001B000B7020000B7020000B7020000B70200005B
:1001C000B7020000B7020000B7020000B70200004B
:1001D000B7020000B7020000B7020000B70200003B
:1001E000B7020000B7020000B7020000B70200002B
:1001F000B7020000B7020000B7020000B70200001B
:10020000B7020000B7020000B7020000B70200000A
:10021000B7020000B7020000B7020000B7020000FA
:10022000B7020000B7020000B7020000B7020000EA
:10023000B7020000B7020000B7020000B7020000DA
:10024000B7020000B7020000B7020000B7020000CA
:10025000B7020000B7020000B7020000B7020000BA
:10026000B7020000B7020000B7020000B7020000AA
:10027000B7020000B7020000B7020000890B0000BF
:10028000B7020000B7020000DFF80CD000F044FB1A
:10029000004800475D97000010D8FF1F06488047C0
:1002A00006480047FEE7FEE7FEE7FEE7FEE7FEE75B
:1002B000FEE7FEE7FEE7FEE729770000890200007F
:1002C0002DE9F05F0546002092469B46884606468B
:1002D000814640241BE0284641464746224600F01E
:1002E0002EF953465A46C01A914110D3114618466A
:1002F000224600F016F82D1A67EB01084F462246F9
:100300000120002100F00DF817EB00094E41201EDE
:10031000A4F10104DFDC484631462A464346BDE8E5
:10032000F09F202A04DB203A00FA02F100207047F7
:100330009140C2F1200320FA03F319439040704723
:100340000EB540F2334102910021CDE900110A4679
:100350000B4600F04AF903B000BD0EB540F233423F
:1003600002920022CDE90022134600F03EF903B0CC
:1003700000BD00F0004230F000400AD0C10D01F590
:100380006071C0F3160042EA0151C20840071143F0
:10039000704700200146704701F0004330B421F05F
:1003A000004150EA010206D00A0DA2F56072C1F3C5
:1003B0001301002A02DC30BC00207047440F44EADD
:1003C000C104C100E01830BC00EBC25000F0C7B857
:1003D00030B50B46014600202022012409E021FA15
:1003E00002F59D4205D303FA02F5491B04FA02F512
:1003F0002844151EA2F10102F1DC30BD02F0DCBF81
:10040000BFFFDFFFFFFFFFFFFFFFFFFFFFFFEDFF6E
:10041000FFFFFFFFFFFFFFFFFFFFFFFFFFFFFFFFEC
:10042000FFFFFFFFFFFFFFFFFFFFFFFFFFFFFFFFDC
:10043000FFFFFFFFFFFFFFFFFFFFFFFFFFFFFFFFCC
:10044000FFFFFFFFFFFFFFFFFFFFFFFFFFFFFFFFBC
:10045000FFFFFFFFFFFFFFFFFFFFFFFFFFFFFFFFAC
:100460002DE9F04D81EA030404F0004B21F0004532
:1004700014464FF0000A23F0004150EA050220D054
:1004800054EA01021DD0C5F30A570246C5F313030F
:10049000C1F31300C1F30A5640F4801543F48013EE
:1004A000A7EB0608101BD64608F2FD3873EB0500D3
:1004B00002D308F1010801E092185B41B8F1000F86
:1004C00003DA00200146BDE8F08D00204FF48011D2
:1004D000064684460EE0171B73EB050705D3121B77
:1004E00063EB050306434CEA010C49084FEA300070
:1004F00092185B4150EA0107EDD152EA030012D095
:1005000082EA040083EA0501084305D0101BAB41D1
:1005100006D20122002306E000224FF0004302E051
:100520006FF0010253101AEB06004CEB085110EB70
:100530000A0041EB0B01BDE8F04D00F047B8202A5E
:1005400004DB203A21FA02F00021704721FA02F37D
:10055000D040C2F12002914008431946704700295B
:10056000A8BF7047401C490008BF20F00100704739
:1005700010B4B0FA80FC00FA0CF050EA010404BF99
:1005800010BC704749B1CCF1200421FA04F411FAEF
:100590000CF118BF012121430843A3EB0C01CB1D33
:1005A0004FEA00614FEA102042BF002010BC7047A4
:1005B00000EBC35010440029A4BF10BC7047401C7E
:1005C000490008BF20F0010010BC704710B5141E90
:1005D00073F1000408DA401C41F1000192185B41FC
:1005E0001A4301D120F0010010BD2DE9F04D9246D3
:1005F0009B4611B1B1FA81F202E0B0FA80F22032EA
:100600009046FFF78EFE04460F4640EA0A0041EA94
:100610000B0153465A46084313D0114653EA0100D2
:1006200019D0C8F140025046FFF789FF05460E4633
:10063000504659464246FFF774FE084305D0012054
:1006400004E020463946BDE8F08D0020054346EA27
:10065000E0762C4337430A986305E40AA0EB0800D0
:100660000022FD0A44EA47540A3002D50020014620
:10067000E9E7010510196941DDE9084500196941FB
:10068000BDE8F04DA2E72DE9FE4F804681EA030068
:10069000C00F0C46009021F0004123F00045B8EB5C
:1006A0000200A94105D24046214690461C460B4611
:1006B000024623F00040104347D0270DC7F30A003D
:1006C000C3F30A510290401A019040286BDAC3F339
:1006D000130040F4801B0098924620B10023D2EB17
:1006E000030A63EB0B0B01985946C0F140025046D8
:1006F000FFF717FE06460D4650465946019A00F090
:100700001DF910EB08006141002487EA115284EAC8
:10071000E7731A4340D0009A62B3019A012A4FEA64
:10072000075215DC001B61EB02014FF0004202EAA8
:100730000752CDE90042001C41F5801132462B469C
:10074000FFF753FF03B0BDE8F08F40462146F9E7BD
:10075000001B61EB0201001C41F5801300185B4196
:100760002018A2F5001747EB030140EAD570B6192F
:100770006D4111E06D084FEA360645EAC0754FEA53
:100780000752001B61EB0201001C41F58011490872
:100790004FEA30000019514132462B4603B0BDE804
:1007A000F04FFFF713BF0098012240000023D0EB69
:1007B000020263EBE073009821464FEAE074B8EB65
:1007C000000061EB0401E9E783F000435BE781F09F
:1007D000004158E72DE9FE4F81EA030404F000448C
:1007E00021F0004100944FF0000B23F0004350EA49
:1007F00001045ED052EA03045BD0C3F30A54C1F390
:100800000A552C44A4F2F3340194A0FB0254C1F322
:10081000130141F48011C3F3130343F4801301FB6C
:10082000024400FB034E840A970A44EA815447EAD3
:100830008357A4FB076802958D0A05FB07854FEADD
:10084000932C04FB0C542705029D4FEA065847EAF7
:100850001637B5EB08056EEB070C870E920E47EACC
:10086000811742EA8312A7FB0201B6EB0B0164EB8E
:1008700000042B0D43EA0C335E1844EB1C50DA469F
:100880005146E7FB0201C5F313044FEA0B3343EA79
:1008900014534FEA0432019C43EA0603A4F10C040A
:1008A0000294009CCDE900B4FFF79FFE03B0BDE8C1
:1008B000F08F00200146F9E7C1F30A52C1F313019A
:1008C00040F2FF3341F480119A4202DA00200146DF
:1008D000704740F233439A42A2F2334202DC524262
:1008E000FFF72DBEFFF71DBD30B5041E71F10004EA
:1008F00004DB4FF00044404264EB0101141E73F12D
:10090000000405DB1C464FF00043524263EB040336
:10091000994208BF904230BD064C074D06E0E068A2
:1009200040F0010394E8070098471034AC42F6D336
:10093000FFF7AEFC589B0000789B0000202A06DBE6
:10094000CB17203A41FA02F043EAE07306E041FA9D
:1009500002F3D040C2F1200291400843194670478B
:1009600070B58D1810F8014B14F0030201D110F886
:10097000012B231106D110F8013B03E010F8016BA5
:1009800001F8016B521EF9D1ABB110F8012B04F044
:100990000C048A1A0C2C03D0A2EB84129B1C08E0D6
:1009A00010F8014BA2EB0422F8E712F8014B01F812
:1009B000014B5B1EF9D5A942D4D3002070BD0000C5
:1009C00070B5334C0026E07928B10025032808D003
:1009D00004285AD157E02FA008F066F90320E071EF
:1009E00053E0374890ED000A3648B1EE400A84EDF6
:1009F0000B0AD0ED000A10EE100AF1EE600AC4ED09
:100A00000C0AFFF7B6FC41EC100B2FA053EC102B97
:100A100008F04AF9206BFFF7ACFC41EC100B30A05A
:100A200053EC102B08F040F93349E06A884223DA8E
:100A3000324A904220D2206B88421DDA90421BD26B
:100A40002FA008F031F938A008F02EF984F80050F2
:100A500008F05AFE2070592802D04E28F8D10EE036
:100A60003F490120087094ED0B0A84ED120A94EDC1
:100A70000C0A84ED140A02E03AA008F015F90420EB
:100A8000E071002601E0E5710126304670BD0000EE
:100A90007CC0FF1F41432043757272656E74206FE6
:100AA00066667365742063616C6962726174696FF4
:100AB0006E2069732073746172746564210D0A007D
:100AC00064C9FF1F68C9FF1F41434375725F4C5FD4
:100AD0004F66667365743D252E35660D0A0000006D
:100AE00041434375725F525F4F66667365743D257F
:100AF0002E35660D0A0000000000A040000070C105
:100B000041432063757272656E742063616C696223
:100B1000726174696F6E20697320737563636565B4
:100B2000646564210D0A0000536176652074686570
:100B30002063616C6962726174696F6E20706172AA
:100B4000616D65746572733F202D2D3E20496E7076
:100B5000757420275927206F7220274E270D0A0011
:100B600008C0FF1F41432063757272656E74206375
:100B7000616C6962726174696F6E2069732066616D
:100B8000696C6564210D0A00034810F8811F01F0AB
:100B9000BF01017005F008BE00A003402DE9F0413F
:100BA00014460F460546194A19491A481E469542E9
:100BB00001D08D4202D10F2C09D903E0854201D129
:100BC0000B2C04D94FF4AC7113A001F057FB37B1D3
:100BD000012F04D040F259110FA001F04FFB36B1A4
:100BE000012E04D04FF4AD710BA001F047FB05EBD3
:100BF00087000121A14050F80C2F012E03D08A4319
:100C00000260BDE8F0810A43FAE7000000000440FA
:100C100000040440000804402E2E5C2E2E5C2E2E74
:100C20005C2E2E5C647269766572735C6863333225
:100C30005F6C6C5F6472697665725C7372635C682A
:100C40006333325F6C6C5F6164632E63000000008D
:100C50002DE9F047DFF88480214FDFF888901546B2
:100C60000E460446404502D10F2E10D908E0BC4282
:100C700002D10F2E0ED903E04C4501D10B2E12D913
:100C80004FF4397118A001F0F9FA444502D10F2D43
:100C900013D906E0BC4204D1042D09D30F2D0CD981
:100CA00006E04C4504D1032D07D9A81F052804D917
:100CB00040F2E5210CA001F0E1FAB00804EB40009D
:100CC000B107028F090F0F238B409A4305F00F03E2
:100CD0008B401A430287BDE8F08700000000044003
:100CE00000040440000804402E2E5C2E2E5C2E2EA4
:100CF0005C2E2E5C647269766572735C6863333255
:100D00005F6C6C5F6472697665725C7372635C6859
:100D10006333325F6C6C5F6164632E6300000000BC
:100D200070B505461F480C466FF00206854209D093
:100D30001D48854206D01D48854203D0FC211CA0D9
:100D400001F09CFA002C2AD0218869B101290BD02E
:100D5000022909D0032907D0042905D0062903D088
:100D6000FF2113A001F08AFA6088202807D01028FC
:100D700005D020B14FF480710DA001F07FFAA0885A
:100D800030B1802804D040F2011109A001F076FAB8
:100D9000208861880843A18808436880002630467F
:100DA00070BD00000000044000040440000804403E
:100DB0002E2E5C2E2E5C2E2E5C2E2E5C647269769E
:100DC0006572735C686333325F6C6C5F6472697602
:100DD00065725C7372635C686333325F6C6C5F6115
:100DE00064632E630000000070B504461448164684
:100DF0000D4684420AD01348844207D012488442E8
:100E000004D04FF4187111A001F038FA0DB1A80800
:100E100004D040F261210DA001F030FA36B1012E6C
:100E200008D040F2622109A001F028FA14F8450F19
:100E3000A84302E014F8450F2843207070BD00005D
:100E40000000044000040440000804402E2E5C2EE4
:100E50002E5C2E2E5C2E2E5C647269766572735C3D
:100E6000686333325F6C6C5F6472697665725C7361
:100E700072635C686333325F6C6C5F6164632E63C2
:100E8000000000006FF0020118B1002101804180D4
:100E9000818008467047000070B504461448164625
:100EA0000D4684420AD01348844207D01248844237
:100EB00004D040F2472111A001F0E0F935B1012D35
:100EC00004D04FF412710DA001F0D8F9E80080258C
:100ED000854036B1012E07D040F2492107A001F02C
:100EE000CDF96089A84301E060892843608170BD25
:100EF0000000044000040440000804402E2E5C2E34
:100F00002E5C2E2E5C2E2E5C647269766572735C8C
:100F1000686333325F6C6C5F6472697665725C73B0
:100F200072635C686333325F6C6C5F6164632E6311
:100F30000000000070B50546174814460E4685426D
:100F40000AD01648854207D01548854204D04FF490
:100F50000C7114A001F092F936B1012E04D040F2C8
:100F6000312110A001F08AF954B1012C08D0022CD3
:100F700006D0032C04D040F232210AA001F07EF901
:100F80006989F00003228240914304F00302824009
:100F90001143698170BD000000000440000404405A
:100FA000000804402E2E5C2E2E5C2E2E5C2E2E5C15
:100FB000647269766572735C686333325F6C6C5F10
:100FC0006472697665725C7372635C686333325F06
:100FD0006C6C5F6164632E630000000070B50446B2
:100FE00036480D46844263D0001D844260D0001D07
:100FF00084425DD0001D84425AD0001D844257D0E7
:10100000001D844254D0001D844251D0001D8442F2
:101010004ED0001D84424BD0001D844248D0001D9C
:10102000844245D0001D844242D0001D84423FD0FE
:10103000001D84423CD0001D844239D0001D8442F2
:1010400036D0001D844233D0001D844230D0001DB4
:1010500084422DD0001D84422AD0001D844227D016
:10106000001D844224D0001D844221D0001D8442F2
:101070001ED0001D84421BD0001D844218D0001DCC
:10108000844215D0001D844212D0001D84420FD02E
:10109000001D84420CD0001D844209D0001D8442F2
:1010A00006D0001D844203D0C42105A001F0E6F85B
:1010B000206865F30800206070BD0000040801404E
:1010C0002E2E5C2E2E5C2E2E5C2E2E5C647269768B
:1010D0006572735C686333325F6C6C5F64726976EF
:1010E00065725C7372635C686333325F6C6C5F6102
:1010F0006F732E63000000007CB50121084602F0EA
:1011000021F90121022002F01DF96846FFF7BAFE1D
:101110000020ADF80000404CADF80200ADF804002E
:1011200069462046FFF7FCFD3C4D69462846FFF71F
:10113000F7FD0C2200212046FFF78AFD0E22012137
:101140002046FFF785FD022211462046FFF780FD6D
:10115000012203212046FFF77BFD0A2204212846B5
:10116000FFF776FD082205212846FFF771FD0D22C5
:1011700006212846FFF76CFD01231A460021204670
:10118000FFF70CFD0123022200212046FFF706FD98
:101190000123032200212046FFF700FD0123052241
:1011A00000212846FFF7FAFC0123062200212846E9
:1011B000FFF7F4FC0121480402F048F80122002165
:1011C0002046FFF7B7FE8B211548FFF707FF0122E6
:1011D00000212046FFF760FE012200212846FFF78C
:1011E000A9FE0F488B210830FFF7F8FE01220021ED
:1011F0002846FFF751FE8F2007F066FD02218F2061
:1012000007F07CFD8F2007F06CFD0122114620467F
:10121000FFF7EAFD7CBD000000000440000404402C
:10122000680801400C48D0F8A01341F04101C0F813
:10123000A0130A48018841F440710180074820301A
:10124000018841F44071018005490020087048710F
:101250008871C8710872704700C003400A380540A1
:1012600004C9FF1F3EB52649264800F029FA01228D
:101270000321052002F03CF9684600F017FB00242A
:101280008DF8024030208DF801008DF800400520D7
:101290008DF80300684600F08DFA01A800F0F8F917
:1012A0008DF804403B2060F3102404F1405424F0F6
:1012B000706000F1407020F4700000F5401020F0E4
:1012C0008000029001A800F0FBF8022001F03EFB34
:1012D0004FF4005002F0E6FB052000F0F8F9012081
:1012E00001F090F8002001F08DF8012001F0D2F912
:1012F000012001F0F7F8012001F094F93EBD000053
:1013000010110100777707072DE9F0478CB05FEAED
:10131000010A6FF002043FD024224FF480610220C2
:1013200002F05EFB4FF4004425222146002002F02B
:1013300057FB0121480502F005F8684607F0DEF981
:10134000174E002269463046079407F00BF9002536
:10135000DFF85080DFF850906F1E2946304607F0C6
:10136000B1F80BAA5146304607F026F804000FD119
:101370000B9840450CD848450ADC0122082130462C
:1013800006F0EAFE01220421304606F0E5FE03E005
:101390006D1C3C46032DE0D90CB02046BDE8F0871B
:1013A00000D00140CDCCCCBCCDCCCC3C10B50400A1
:1013B00002D034F0290004D040F2FD4104A000F036
:1013C0005DFF114890F83C00204000D0012010BD86
:1013D0002E2E5C2E2E5C2E2E5C2E2E5C6472697678
:1013E0006572735C686333325F6C6C5F64726976DC
:1013F00065725C7372635C686333325F6C6C5F63ED
:101400006C6B2E63000000000040054070B50600C4
:101410004FF0000406D0012E04D040F2B34119A0D1
:1014200000F02CFF254DB5F8FE03C00704D140F2B3
:10143000B44114A000F022FF46B1D5F800014FF4EA
:101440008056000631460ED408200DE095F826009F
:1014500000F00700052803D0012085F82A000EE0DF
:101460006FF005040BE0012000F038F9040006D10C
:1014700085F82A003146202000F030F90446204645
:1014800070BD00002E2E5C2E2E5C2E2E5C2E2E5C4F
:10149000647269766572735C686333325F6C6C5F2B
:1014A0006472697665725C7372635C686333325F21
:1014B0006C6C5F636C6B2E630000000000400540A5
:1014C0002DE9F041040026D0207900F01F001728F4
:1014D00004D940F2874158A000F0D0FE6068C0F304
:1014E00008201338B0F5E67F04D94FF4916152A07B
:1014F00000F0C4FE60684FF0FF3101EB10700E2861
:1015000004D940F289414CA000F0B8FE6168080699
:1015100005D4574A05E06FF00200BDE8F081554858
:10152000026801F01F00401CB2FBF0F0C1F3082577
:101530006D1C5149454308445049884204D940F242
:101540008E413DA000F09AFE4D484D492844494245
:10155000884204D940F28F4137A000F08FFE6068C6
:10156000012101EB1070B5FBF0F0464E464F3044C0
:10157000B84204D94FF492612FA000F07FFE60685A
:10158000C0F30360401E0E2804D940F291412AA006
:1015900000F074FE6068C0F30350401E0E2804D9AA
:1015A00040F2924124A000F069FE6068C0F303504D
:1015B000401CB5FBF0F03044B84204D940F29341EE
:1015C0001DA000F05BFE6068C0F30360401CB5FB2B
:1015D000F0F03044B84204D940F2944116A000F033
:1015E0004DFE2078012805D020B140F2964112A08E
:1015F00000F044FE254DB5F8FE03C00704D140F2CB
:1016000097410DA000F03AFED5F80001217920F0B5
:101610008000C1F3C01140EAC110C5F80001606844
:10162000C5F80001207820B10020BDE8F041FFF7A7
:10163000EDBE0120F9E700002E2E5C2E2E5C2E2E32
:101640005C2E2E5C647269766572735C68633332FB
:101650005F6C6C5F6472697665725C7372635C6800
:101660006333325F6C6C5F636C6B2E630000000051
:1016700000127A0004C0FF1FC0BDF0FF00366E01EB
:1016800000E4B1F1401E1BFF402C42060040054023
:10169000002290B10021132363F3102101F1805146
:1016A00021F0706101F1807121F4700101F5801168
:1016B000416001210170104670476FF00202FAE7A5
:1016C00010B505F027FDBDE8104005F0E7BF10B5E7
:1016D00005F01CFEBDE8104005F0E0BFF8B5064679
:1016E00000200D466FF00704009007E03046FFF73A
:1016F0005DFE012806D00098401C0090A842F5D954
:101700002046F8BD0024FBE770B506004FF0000549
:1017100006D0012E04D040F2263117A000F0AEFD15
:10172000234CB4F8FE03C00704D140F2273112A0C5
:1017300000F0A4FD46B1002084F832004FF480513F
:101740000820FFF7CBFF13E094F8260000F0070114
:101750006FF0050003290BD0D4F800110A064FF0F2
:10176000010102D494F82A2012B184F8321000E06A
:101770000546284670BD00002E2E5C2E2E5C2E2EB7
:101780005C2E2E5C647269766572735C68633332BA
:101790005F6C6C5F6472697665725C7372635C68BF
:1017A0006333325F6C6C5F636C6B2E630000000010
:1017B0000040054070B504003CD02078012805D0D9
:1017C00020B140F2073129A000F058FD607850B1F7
:1017D000102808D0202806D0302804D04FF44271B9
:1017E00022A000F04BFDA07830B1082804D040F2D0
:1017F00009311EA000F042FDE078012814D0022833
:1018000012D0032810D004280ED005280CD00628AA
:101810000AD0072808D0082806D0092804D040F2AA
:101820000A3112A000F02AFD1E4DB5F8FE03C007D4
:1018300008D102E06FF0020070BD40F20B310BA046
:1018400000F01CFDE07885F8A2006078A1780843DC
:10185000154940F080000870207820B10020BDE8D4
:101860007040FFF751BF0120F9E700002E2E5C2EDB
:101870002E5C2E2E5C2E2E5C647269766572735C13
:10188000686333325F6C6C5F6472697665725C7337
:1018900072635C686333325F6C6C5F636C6B2E6386
:1018A000000000000040054050CC0440002140B141
:1018B000012202700022827042700522C270084626
:1018C00070476FF00201FAE770B504460F480D4605
:1018D00084420AD00E48844207D00E48844204D085
:1018E00040F2C3110CA000F0C9FC35B1012D08D0A5
:1018F0004FF4E27108A000F0C1FCA07800F0FE00F7
:1019000002E0A07840F00100A07070BD00840340A8
:101910000085034000B003402E2E5C2E2E5C2E2E40
:101920005C2E2E5C647269766572735C6863333218
:101930005F6C6C5F6472697665725C7372635C681D
:101940006333325F6C6C5F636D702E630000000068
:10195000094908B5096AC1F3026208490968D1401A
:10196000074AB1FBF2F204E0009200994B1E00938B
:10197000FBD2401EF8D208BD0040054000C0FF1F4A
:101980008096980070B505460C006FF002007DD07F
:10199000464885420AD04648854207D04548854298
:1019A00004D04FF4B87144A000F068FCA08830B1B6
:1019B000022804D040F271113FA000F05FFCE088E3
:1019C00050B1102808D0202806D0302804D04FF479
:1019D000B97139A000F052FC208980B101280ED0E5
:1019E00002280CD003280AD0042808D0052806D0E5
:1019F000062804D040F273112FA000F03FFC20888D
:101A000040B1012806D0022804D04FF4BA712AA0B0
:101A100000F034FC608870B101280CD002280AD094
:101A2000042808D0082806D0102804D040F27511E8
:101A300021A000F023FC608990B1022810D0042876
:101A40000ED006280CD008280AD00A2808D00C2866
:101A500006D00E2804D04FF4BB7117A000F00EFC86
:101A6000287800F0FE00287020684FEA3040686057
:101A70002878A17A00F0F100C1F3420140EA410068
:101A800028700120FFF764FF287800E00CE040F0A8
:101A9000010028700120FFF75BFF207AA17908433D
:101AA00068702079A870002070BD00000084034099
:101AB0000085034000B003402E2E5C2E2E5C2E2E9F
:101AC0005C2E2E5C647269766572735C6863333277
:101AD0005F6C6C5F6472697665725C7372635C687C
:101AE0006333325F6C6C5F636D702E6300000000C7
:101AF00070B504460F480D4684420AD00E48844211
:101B000007D00E48844204D040F2D7110CA000F058
:101B1000B5FB35B1012D08D04FF4EC7108A000F0F1
:101B2000ADFBA07800F0FB0002E0A07840F00400DC
:101B3000A07070BD008403400085034000B00340E6
:101B40002E2E5C2E2E5C2E2E5C2E2E5C6472697600
:101B50006572735C686333325F6C6C5F6472697664
:101B600065725C7372635C686333325F6C6C5F6375
:101B70006D702E63000000006FF0020130B1002193
:101B8000018041808180C180018141810846704788
:101B90001948DFED180A9FED190AC0ED0D0A80ED16
:101BA0000E0AC0ED0F0ADFED160A4030B9EE041A36
:101BB000A0EC030AC0ED000ADFED120A80ED011A65
:101BC000C0ED020ADFED100AC0ED030ADFED0F0AD7
:101BD000C0ED040ADFED0E0AC0ED050A80ED060A2D
:101BE0009FED0C0A80ED070A9FED0B0A80ED080AB5
:101BF000704700003808843C7CC0FF1F00000000D4
:101C00006D329B3AD45FAF3B0B4669C1EC51EC415E
:101C1000D4FF853CD48B5C3EC3A501C52DE9F05FA4
:101C20000D464E494FF0FF372DED048B88420DD005
:101C30004B4988420AD04B49884207D04A498842DA
:101C400004D040F2F51149A000F018FBD5E9004698
:101C5000002C7DD0002E7BD04FEA8608B4FBF8F034
:101C6000401EFF2874D8B4FBF8F208FB1241A860AC
:101C7000D9B34FF00009401C49F10001890041EA45
:101C800090718300A3FB060C01FB06C14A4603FBCF
:101C90000211090241EA106B00025FEA5902824612
:101CA0004FEA3403C0184BEB020122460023FEF733
:101CB00007FB8038B7EE009A7F281DD88026871949
:101CC000E860A7FB040C49F1000606FB04C407FB0F
:101CD0000944064659465046FEF73FFB41EC180BB7
:101CE00030462146FEF739FB27E0FFE79FED2D0A3E
:101CF000002785ED040A2BE004EB84004100B1FBD2
:101D0000F8F00A21401DB0FBF1F0401EFF281FD85B
:101D1000A860401C49F10002920042EA90728300E0
:101D2000A3FB060702FB067203FB0921FEF715FB66
:101D300041EC180B2046FEF703FB53EC182BFEF783
:101D40008FFBFEF729FB00EE100A30EE490ACFE7C1
:101D5000BDEC048B3846BDE8F09F000000CC01408C
:101D600000D0014000D4014000D801402E2E5C2E4E
:101D70002E5C2E2E5C2E2E5C647269766572735C0E
:101D8000686333325F6C6C5F6472697665725C7332
:101D900072635C686333325F6C6C5F75736172741D
:101DA0002E630000000000003EB50121080201F092
:101DB000C9FA6846FFF7E0FE0120ADF800000420F4
:101DC000ADF802000020ADF804003021ADF80800A5
:101DD000104CADF80610ADF80A0069462046FFF732
:101DE000D1FD02200C4DADF8000069462846FFF7F2
:101DF000C9FD01212046FFF767FD01212846FFF7B5
:101E000063FD01212046FFF773FE01212846FFF7FD
:101E10006FFE3EBD008403400085034010EE100AB3
:101E20001849884204DDDFED180A70EEC00A01E0AF
:101E3000F0EE400A10EE900A14490844B0F5000F85
:101E400004D29FED130A30EE600A01E0B0EE600AA2
:101E5000DFED101AB6EE001A0F4900EE211ABCEEA3
:101E6000C10A10EE100A80B201EB8000074990ED24
:101E7000000A10EE900AC943884201DBB1EE400A25
:101E800070470000DB0F4940DB0FC94024F036C02B
:101E9000DB0F494083F92243F0C4FF1F70B50446AD
:101EA0000D480D46844206D00C48844203D0CB2115
:101EB0000BA000F0E3F92DB1012D07D0CC2108A033
:101EC00000F0DCF9E088C0F30E0002E0E08840F4A6
:101ED0000040E08070BD0000001004400014044089
:101EE0002E2E5C2E2E5C2E2E5C2E2E5C647269765D
:101EF0006572735C686333325F6C6C5F64726976C1
:101F000065725C7372635C686333325F6C6C5F64D0
:101F100061632E630000000070B504461048164649
:101F20000D46844206D00F48844203D0E5210EA01E
:101F300000F0A4F90DB1E80803D0E6210AA000F0F2
:101F40009DF92EB1012E06D0E72107A000F096F9E9
:101F5000E088A84301E0E0882843E08070BD0000ED
:101F600000100440001404402E2E5C2E2E5C2E2EF9
:101F70005C2E2E5C647269766572735C68633332C2
:101F80005F6C6C5F6472697665725C7372635C68C7
:101F90006333325F6C6C5F6461632E63000000002A
:101FA00030B5244985B00546D1E900010024CDE9CA
:101FB00000018DF808402048854207D01F4885421F
:101FC00004D04FF4F7711EA000F058F92A48B0F879
:101FD000FE03800704D440F2EF1119A000F04EF97F
:101FE0000021684650F82120AA4208D110228A40D8
:101FF000022908D2214908689043086014E0491C6E
:10200000C9B20229EED36FF0020405B0204630BDFC
:102010009DF80800401C8DF808009DF80800642811
:1020200002D96FF00704F0E7086832EA0000EFD148
:10203000EBE70000309B0000001004400014044057
:102040002E2E5C2E2E5C2E2E5C2E2E5C64726976FB
:102050006572735C686333325F6C6C5F647269765F
:1020600065725C7372635C686333325F6C6C5F646F
:1020700061632E630000000000400540ECCC04408A
:1020800070B5054614000E466FF0020036D01C49AC
:102090001C488D4209D0854205D04FF4E9711AA041
:1020A00000F0ECF804E046B102E036B1012E04D0B5
:1020B00040F2D31114A000F0E1F8A07830B101286B
:1020C00004D04FF4EA7110A000F0D8F82088B0F5E1
:1020D000807F05D020B140F2D5110BA000F0CEF8E2
:1020E000A888218820F4807001F480710843A880BA
:1020F000A2783146284600F023F8002070BD000089
:1021000000100440001404402E2E5C2E2E5C2E2E57
:102110005C2E2E5C647269766572735C6863333220
:102120005F6C6C5F6472697665725C7372635C6825
:102130006333325F6C6C5F6461632E630000000088
:1021400070B50D4604461449144816468C4208D012
:10215000844204D0962112A000F090F804E03DB132
:1021600002E02DB1012D03D097210DA000F086F8DB
:102170002EB1012E03D0982109A000F07FF8012094
:102180000E35A840A18B80B2012E02D00143A1835D
:1021900070BD8143FBE700000010044000140440C0
:1021A0002E2E5C2E2E5C2E2E5C2E2E5C647269769A
:1021B0006572735C686333325F6C6C5F64726976FE
:1021C00065725C7372635C686333325F6C6C5F640E
:1021D00061632E630000000070B50D46044612498D
:1021E000002612488C4209D0844205D04FF48271F7
:1021F0000FA000F043F804E045B102E035B1012D35
:1022000004D040F205110AA000F038F8A088C007F9
:1022100002D06FF0030605E001206D1CA188A840E4
:102220000143A180304670BD0010044000140440FA
:102230002E2E5C2E2E5C2E2E5C2E2E5C6472697609
:102240006572735C686333325F6C6C5F647269766D
:1022500065725C7372635C686333325F6C6C5F647D
:1022600061632E63000000006FF0020120B10021C5
:102270000180012181700021084670470A4601460D
:1022800001A006F011FDFEE757726F6E67207061C6
:1022900072616D65746572732076616C75653A2044
:1022A00066696C65202573206F6E206C696E6520F1
:1022B00025640D0A0000000018B50E4900220092A6
:1022C000CB6804468968D01E00290FD0009805E02D
:1022D000086800F080020098401C0090984202D8E4
:1022E000002AF5D000E012B18C80002018BD6FF0FC
:1022F000070018BDF4C8FF1F08B50C49096AC1F3EF
:1023000002630B490968D9400A4B1944491EB1FBC5
:10231000F3F206E0009200BF00994B1E00930029E3
:10232000FAD1011EA0F10100F4D108BD0040054022
:1023300000C0FF1F80969800F8B50121102001F021
:1023400001F80121202000F0FDFF294D2846FFF76C
:1023500027FE284E3046FFF723FE6846FFF784FF2E
:1023600000248DF802406A4621462846FFF788FE81
:1023700001208DF8020001466A462846FFF780FEDC
:102380006A4600213046FFF77BFE00212846FFF712
:1023900023FF01212846FFF71FFF00213046FFF7EA
:1023A0001BFF2C806C8034800121072000F0CAFFC5
:1023B00011480078002819D110480078002815D15C
:1023C0000F480078002811D1012207212846FFF785
:1023D000A3FD01212846FFF761FD012207213046B8
:1023E000FFF79AFD01213046FFF758FDF8BD0000C8
:1023F00000100440001404400000044000040440A5
:102400000008044010B5040006D0012C04D040F2AE
:10241000351108A0FFF732FF14480068012804D0E6
:102420004FF49B7103A0FFF729FF1148C0F84C43FC
:1024300010BD00002E2E5C2E2E5C2E2E5C2E2E5CEF
:10244000647269766572735C686333325F6C6C5F6B
:102450006472697665725C7372635C686333325F61
:102460006C6C5F65666D2E63000000000004014027
:102470000080204210B504460B480068012804D0B3
:1024800040F2062109A0FFF7F9FE40F23F1034EABE
:10249000000004D040F2072104A0FFF7EFFE02483D
:1024A0002430046010BD0000000401402E2E5C2E7C
:1024B0002E5C2E2E5C2E2E5C647269766572735CC7
:1024C000686333325F6C6C5F6472697665725C73EB
:1024D00072635C686333325F6C6C5F65666D2E633C
:1024E0000000000010B5040006D0012C04D040F21A
:1024F000511108A0FFF7C2FE14480068012804D05B
:102500004FF4A97103A0FFF7B9FE1148C0F8444386
:1025100010BD00002E2E5C2E2E5C2E2E5C2E2E5C0E
:10252000647269766572735C686333325F6C6C5F8A
:102530006472697665725C7372635C686333325F80
:102540006C6C5F65666D2E63000000000004014046
:102550000080204210B530B1012809D040F2D631B8
:1025600007A0FFF78BFE1448016841F4803104E0B6
:102570001148124918380160C943016010BD0000BC
:102580002E2E5C2E2E5C2E2E5C2E2E5C64726976B6
:102590006572735C686333325F6C6C5F647269761A
:1025A00065725C7372635C686333325F6C6C5F6529
:1025B000666D2E63000000001C0401406745230186
:1025C00010B5044640F23F1034EA000004D04FF446
:1025D000FC7105A0FFF752FE11480068844301D04A
:1025E000002010BD012010BD2E2E5C2E2E5C2E2E44
:1025F0005C2E2E5C647269766572735C686333323C
:102600005F6C6C5F6472697665725C7372635C6840
:102610006333325F6C6C5F65666D2E630000000093
:102620002004014010B5040006D0012C04D040F273
:102630005F1108A0FFF722FE14480068012804D0AB
:102640004FF4B07103A0FFF719FE1148C0F84043E2
:1026500010BD00002E2E5C2E2E5C2E2E5C2E2E5CCD
:10266000647269766572735C686333325F6C6C5F49
:102670006472697665725C7372635C686333325F3F
:102680006C6C5F65666D2E63000000000004014005
:102690000080204210B5040006D0012C04D040F286
:1026A000431108A0FFF7EAFD14480068012804D090
:1026B0004FF4A27103A0FFF7E1FD1148C0F84843B1
:1026C00010BD00002E2E5C2E2E5C2E2E5C2E2E5C5D
:1026D000647269766572735C686333325F6C6C5FD9
:1026E0006472697665725C7372635C686333325FCF
:1026F0006C6C5F65666D2E63000000000004014095
:10270000008020422DE9F0470446354889460026DE
:102710000068012804D040F2952132A0FFF7AEFDF9
:102720003E48D0F8C00320B140F296212DA0FFF71B
:10273000A5FDB4F5003F0DD339482044B0F5806FB6
:1027400008D3384820440B2804D940F2972125A00B
:10275000FFF794FDA00704D04FF4267121A0FFF7E6
:102760008DFD40F23F10FFF785FEDFF8748008F121
:102770001808D8F8001001F47027D8F8001021F4D8
:102780007021C8F8001008F10405286820F007003F
:10279000401C2860C4F800902348006AC0F302611E
:1027A00022480068C84044F62061B0FBF1F1A8154A
:1027B00000F06AF9083000D1461F1020FFF75AFEDA
:1027C000286820F007002860D8F8001007F470226D
:1027D00021F470211143C8F800103046BDE8F0879D
:1027E000000401402E2E5C2E2E5C2E2E5C2E2E5CC4
:1027F000647269766572735C686333325F6C6C5FB8
:102800006472697665725C7372635C686333325FAD
:102810006C6C5F65666D2E630000000000802042D6
:1028200000F4FFFCC0DFFFFC0040054000C0FF1FBC
:102830002DE9F04100260546B0F5003F09D33048A8
:102840002844B0F5806F04D34FF459712DA0FFF7E1
:1028500015FDA80704D040F265312AA0FFF70EFD50
:1028600036480068012804D040F2663125A0FFF701
:1028700005FD3348D0F8C00320B140F2673121A0F4
:10288000FFF7FCFC40F23F10FFF7F4FDDFF8AC80EF
:1028900008F11808D8F8001001F47027D8F80010D3
:1028A00021F47021C8F8001008F10404206820F019
:1028B0000700001D2060002028602248006AC0F345
:1028C000026121480068C8403221B0FBF1F1A01537
:1028D00000F0DAF8083000D1461F1020FFF7CAFDDB
:1028E000206820F007002060D8F8001007F470225C
:1028F00021F470211143C8F800103046BDE8F08182
:1029000000F4FFFC2E2E5C2E2E5C2E2E5C2E2E5CF8
:10291000647269766572735C686333325F6C6C5F96
:102920006472697665725C7372635C686333325F8C
:102930006C6C5F65666D2E63000000000004014052
:10294000008020420040054000C0FF1F70B50546D2
:10295000184800240068012804D040F2211116A074
:10296000FFF78CFC0F2D04D94FF4917112A0FFF7E3
:1029700085FC10491831086865F3030008601D489C
:102980001B4A44F6206300680CE0166AC6F3026630
:1029900020FA06F6B6FBF3F6641CA64202D26FF0EC
:1029A000070070BD0E6806F00F06AE42EDD10020A4
:1029B00070BD0000000401402E2E5C2E2E5C2E2ED9
:1029C0005C2E2E5C647269766572735C6863333268
:1029D0005F6C6C5F6472697665725C7372635C686D
:1029E0006333325F6C6C5F65666D2E6300000000C0
:1029F0000040054000C0FF1F70B5064600F01F05EF
:102A000011480C460068012804D04FF48E610FA0D5
:102A1000FFF734FC34B1012C04D040F271410BA01B
:102A2000FFF72CFC202E04D340F2724107A0FFF7E1
:102A300025FC144801680122AA40914304F00102D8
:102A4000AA401143016070BD000401402E2E5C2E8F
:102A50002E5C2E2E5C2E2E5C647269766572735C21
:102A6000686333325F6C6C5F6472697665725C7345
:102A700072635C686333325F6C6C5F65666D2E6396
:102A80000000000090050140F8B5064600200D4604
:102A90000446009007E00098401C0090A84202D92C
:102AA0006FF0070404E03046FFF78AFD0128F2D1F9
:102AB0002046F8BD70B5044619480D46844223D01F
:102AC0001748203084421FD01548403084421BD024
:102AD00013486030844217D011488030844213D0AC
:102AE0000F48A03084420FD00D48C03084420BD034
:102AF0000B48E030844207D00A48844204D040F2B8
:102B0000833109A0FFF7BAFB15B11548054204D07F
:102B10004FF4617104A0FFF7B1FB256170BD0000A7
:102B200000860340008703402E2E5C2E2E5C2E2E46
:102B30005C2E2E5C647269766572735C68633332F6
:102B40005F6C6C5F6472697665725C7372635C68FB
:102B50006333325F6C6C5F656D622E630000000052
:102B6000F1E007F82DE9F04105460C006FF0020096
:102B70007DD0FE48854218D0FC482030854214D0D4
:102B8000FA484030854210D0F848603085420CD079
:102B9000F6488030854208D0F448A030854204D001
:102BA0004FF43D71F2A0FFF769FB2068012805D0C2
:102BB00020B140F2F621EEA0FFF760FB606802282A
:102BC00005D020B140F2F721E9A0FFF757FBA0683C
:102BD000042805D020B14FF43E71E5A0FFF74EFB6D
:102BE000E068B0F5803F05D020B140F2FA21E0A0C6
:102BF000FFF744FB2069B0F5800F05D020B140F20B
:102C0000FB21DBA0FFF73AFB606930F4413004D0D0
:102C10004FF43F71D6A0FFF731FBA0694FF4802637
:102C2000B04205D020B140F2FD21D1A0FFF726FB34
:102C3000E069B0F5003F05D020B140F2FE21CCA004
:102C4000FFF71CFB206AB0F5000F05D020B140F261
:102C5000FF21C7A0FFF712FBD349606A084204D0E6
:102C60004FF44071C2A0FFF709FBA06A00E0C3E186
:102C7000B0F5001F05D020B140F20131BCA0FFF734
:102C8000FDFAE06AB04205D020B140F20231B8A0AE
:102C9000FFF7F4FA206B4FF08076B04205D020B1F8
:102CA00040F20331B2A0FFF7E9FAC049606B084275
:102CB00004D04FF44171AEA0FFF7E0FAA06BB04230
:102CC00005D020B140F20531A9A0FFF7D7FAE06B9B
:102CD000B0F5002F05D020B140F20631A4A0FFF7D7
:102CE000CDFA206CB0F1007F05D020B140F2073161
:102CF0009FA0FFF7C3FAAE49606C084204D04FF4BE
:102D000042719BA0FFF7BAFAA06C4FF00066B04288
:102D100005D020B140F2093195A0FFF7AFFAE06C81
:102D2000B0F5801F05D020B140F20A3190A0FFF726
:102D3000A5FA206DB0F1806F05D020B140F20B31C3
:102D40008BA0FFF79BFA9B49606D084204D04FF4BB
:102D5000437187A0FFF792FAA06D4FF08047B84209
:102D600005D020B140F20D3181A0FFF787FAE06D68
:102D700038B1B0F5004F04D040F20E317CA0FFF71F
:102D80007DFA206E202805D020B14FF4447178A040
:102D9000FFF774FA606E30B1012804D040F21131AF
:102DA00073A0FFF76BFAA06E402805D020B140F267
:102DB00012316FA0FFF762FAE06E30B1022804D042
:102DC00040F213316AA0FFF759FA206F802805D02E
:102DD00020B14FF4457166A0FFF750FA606F30B133
:102DE000042804D040F2153161A0FFF747FAA06F24
:102DF000B0F5807F05D020B140F216315CA0FFF71E
:102E00003DFAE06F30B1082804D040F2173158A0E5
:102E1000FFF734FAD4F88000B0F5007F05D020B178
:102E20004FF4467152A0FFF729FAD4F8840030B16C
:102E3000102804D040F219314DA0FFF71FFAD4F842
:102E40008800B0F5806F05D020B140F21A3148A05B
:102E5000FFF714FAD4F88C0030B1202804D040F2E7
:102E60001B3143A0FFF70AFAD4F89000B04205D016
:102E700020B140F21D313EA0FFF700FAD4F89400D3
:102E8000B0F1805F05D020B140F21E3138A0FFF7CD
:102E9000F5F9D4F89800B0F1005F05D020B140F208
:102EA0001F3133A0FFF7EAF9D4F89C00B84205D0EF
:102EB00020B14FF448712EA0FFF7E0F9D4F8A0003C
:102EC000B0F1004F05D020B140F2213128A0FFF72A
:102ED000D5F9216EA06EA26F0143206FE36F1043FE
:102EE0000143D4F88000E26E0143D4F88800014326
:102EF000606E1043626F1A431043D4F8842010436D
:102F0000D4F88C201043D4E900321343A2680A435A
:102F10001343D4E903210A43D4E9071631430A4392
:102F2000E16A0A43216B0A43E16B0A43216C0A43BD
:102F3000E16C0A43216D0A431A43D4E9051319438E
:102F4000D4E9093633431943636B1943A36B19431F
:102F5000636C1943A36C1943636D1943A36D194343
:102F6000E36D19430143D4F8900025E00086034047
:102F70002E2E5C2E2E5C2E2E5C2E2E5C64726976BC
:102F80006572735C686333325F6C6C5F6472697620
:102F900065725C7372635C686333325F6C6C5F652F
:102FA0006D622E6300000000FFF7E7FFFFEF3FFFB9
:102FB000FFDFFFF9FFBFFFCFD4E926C6D4F894E0C6
:102FC000070040EA0E0046EA0C03D4F8A04040EAAD
:102FD000030040EA040040EA0200034607D1BCF1C6
:102FE000000F04D1BEF1000F01D106B90CB140F0C1
:102FF000100369602B600020BDE8F0816FF00201D2
:1030000090B30021016041608160C1600161416154
:103010008161C161016241628162C1620163416398
:103020008163C163016441648164C1640165416578
:103030008165C16541660166C16681664167016758
:10304000C1678167C0F88410C0F88010C0F88C1088
:10305000C0F88810C0F89010C0F89410C0F898100C
:10306000C0F89C10C0F8A0100846704770B5044620
:10307000214816460D46844223D01F482030844202
:103080001FD01D48403084421BD01B486030844212
:1030900017D019488030844213D01748A03084429A
:1030A0000FD01548C03084420BD01348E030844222
:1030B00007D01248844204D040F2BA3110A0FFF782
:1030C000DDF825B141F60E7035EA000004D040F27B
:1030D000BB310BA0FFF7D2F84EB1012E04D04FF454
:1030E0006F7107A0FFF7CAF8A069284301E0A06943
:1030F000A843A06170BD0000008603400087034024
:103100002E2E5C2E2E5C2E2E5C2E2E5C647269762A
:103110006572735C686333325F6C6C5F647269768E
:1031200065725C7372635C686333325F6C6C5F659D
:103130006D622E63000000002DE9F0430121ADB067
:10314000C80300F0C5F829A801F090FA6846FFF717
:1031500055FF29A801F08AFA00244FF4001529A987
:1031600037482994CDE92A4501F0F4F929A93548D1
:1031700001F0F0F96846FFF741FF6811CDE903045B
:103180008000CDE905404110CDE90714CDE909459E
:10319000CDE90B048001CDE90D404011CDE90F04CC
:1031A0000002CDE91140C011CDE913048002CDE940
:1031B00015401794244C69462046FFF7D3FCA5150B
:1031C00029462046FFF776FC661531462046FFF774
:1031D00071FC271539462046FFF76CFC4FF4006858
:1031E00041462046FFF766FC4FF480594946204689
:1031F000FFF760FC08212046FFF75CFC002229460F
:103200002046FFF733FF002231462046FFF72EFF0E
:10321000002239462046FFF729FF0022414620467A
:10322000FFF724FF002249462046FFF71FFF002238
:1032300008212046FFF71AFF2DB0BDE8F0830000FB
:1032400000C0034000CC03400086034070B50E462A
:10325000050002D00E48054203D071210DA0FFF7F2
:103260000DF82EB1012E03D072210AA0FFF706F847
:10327000164C2069C00703D1732106A0FEF7FEFF9C
:103280002068012E02D02843206070BDA843FBE7D0
:10329000EEB378FF2E2E5C2E2E5C2E2E5C2E2E5C36
:1032A000647269766572735C686333325F6C6C5FFD
:1032B0006472697665725C7372635C686333325FF3
:1032C0006C6C5F6663672E63000000000080044042
:1032D00070B50E46040002D00A48044203D096217D
:1032E00009A0FEF7CBFF164D2EB1012E06D0972177
:1032F00005A0FEF7C3FFA868204301E0A868A0432B
:10330000A86070BD00480FFE2E2E5C2E2E5C2E2E67
:103310005C2E2E5C647269766572735C686333320E
:103320005F6C6C5F6472697665725C7372635C6813
:103330006333325F6C6C5F6663672E63000000006E
:103340000080044070B50E46040002D00A480442D2
:1033500003D0A82109A0FEF791FF164D2EB1012E32
:1033600006D0A92105A0FEF789FFE868204301E007
:10337000E868A043E86070BDC8FC0FFF2E2E5C2EED
:103380002E5C2E2E5C2E2E5C647269766572735CE8
:10339000686333325F6C6C5F6472697665725C730C
:1033A00072635C686333325F6C6C5F6663672E6365
:1033B0000000000000800440F0B5484BD3F8D41062
:1033C00047488161D3F8D0204261A1EB6207A0F5A4
:1033D0008072A0F18001147C012C09D18C6B4462B5
:1033E000CC6B846200241474CC6EC462D47B54759C
:1033F0003C4C557DE67DA47D012D01D03DB32AE0F6
:10340000012C01D0ECB126E0012E24D100EE107A7F
:10341000D1ED180AB8EEC00A20EE200ABDEEC00AAF
:1034200010EE106A06634F6EBE4202DC7F42BE425F
:1034300000DA0763476A066B3744C761876ABE1BB9
:103440000CE046B9466AC6614FF4C86606E0012C36
:1034500001D1012E3DD0466AC661866A0662D0F867
:103460001CC091ED110A00EE90CA4FF4F04EF8EE38
:10347000E00A60EE200AFCEEE00A10EE907A00EE20
:10348000906AF8EEE00A20EE200ABCEEC00A10EEC8
:10349000101A714500D27146C06A8444C3F888C0CE
:1034A000C3F88C00384440F48000C3F824020E486E
:1034B00006F2CE4606600C4B40F2CE401B1D186053
:1034C00001F2CE4141F4800008490860D475957539
:1034D000F0BD466AC6617610C0E7000000C0034038
:1034E00004CAFF1F04C9FF1F88CC034024CE034039
:1034F00070B504461B4816460D460088C00704D127
:1035000040F2A72118A0FEF7B9FE64B1012C0AD041
:10351000022C08D0032C06D0052C04D04FF42A71BD
:1035200011A0FEF7ABFE25B940F2A9210EA0FEF7CF
:10353000A5FE0C4B0020A2011B1DE90708D002EBE1
:1035400080011944012E0C8809D0C4F30E040C80AC
:103550006D0803D0401CC0B21028EED370BD44F4F7
:103560000044F4E7FC3B05402E2E5C2E2E5C2E2EF4
:103570005C2E2E5C647269766572735C68633332AC
:103580005F6C6C5F6472697665725C7372635C68B1
:103590006333325F6C6C5F6770696F2E630000008D
:1035A0002DE9F043012187B0084600F0A1F8012180
:1035B000402000F09DF805228021012000F010FA43
:1035C0004FF4006605223146002000F009FAF7109A
:1035D00005223946012000F003FA4FF40078052255
:1035E0004146012000F0FCF94FF48069052249466C
:1035F000002000F0F5F9684600F0A2FA3501ADF8B8
:1036000016506A468021002000F0B6F86A4608216C
:10361000002000F0B1F802222946012000F0E0F974
:103620006A460421022000F0A7F86A461021022011
:1036300000F0A2F86A460421002000F09DF86A46D6
:103640000221002000F098F86A460121022000F0D3
:1036500093F801216A46084600F08EF86A46082170
:10366000022000F089F86A462021002000F084F84A
:103670006A464021002000F07FF80024ADF80040A9
:103680000220ADF80200ADF80640ADF816406A46DB
:10369000394600F071F86A464146022000F06CF8A5
:1036A0006A463946002000F067F86A464146002025
:1036B00000F062F8ADF806406A463146022000F09C
:1036C0005BF86A46E910002000F056F80021082057
:1036D00000F040F924224946022000F081F9252219
:1036E0002946002000F07CF907B0BDE8F083000017
:1036F00070B5054611480E460088C00704D140F257
:10370000EE210FA0FEF7BAFD0DB1280B04D040F258
:10371000EF210BA0FEF7B2FD084C0C3C36B1012E98
:1037200007D04FF43C7106A0FEF7A8FD2068A8431F
:1037300001E020682843206070BD0000FC3B05408C
:103740002E2E5C2E2E5C2E2E5C2E2E5C64726976E4
:103750006572735C686333325F6C6C5F6472697648
:1037600065725C7372635C686333325F6C6C5F6755
:1037700070696F2E630000002DE9F04114000E46C1
:1037800005464FF0000704D063480088C00708D101
:1037900002E06FF00207BBE040F20F115FA0FEF7FE
:1037A0006DFD65B1012D0AD0022D08D0032D06D084
:1037B000052D04D04FF4887158A0FEF75FFD26B99F
:1037C00040F2111155A0FEF759FD208830B10128B3
:1037D00004D04FF4897151A0FEF750FD608830B1DC
:1037E000022804D040F213114CA0FEF747FDA08838
:1037F00030B1042804D04FF48A7148A0FEF73EFD92
:10380000E08840B1102806D0202804D040F21511DD
:1038100042A0FEF733FD208938B1B0F5804F04D0C7
:103820004FF48B713DA0FEF729FD608930B140282F
:1038300004D040F2171139A0FEF720FDA08930B165
:10384000802804D04FF48C7134A0FEF717FDE08976
:1038500038B1B0F5005F04D040F219112FA0FEF787
:103860000DFD208A38B1B0F5007F04D04FF48D7182
:103870002AA0FEF703FD608A38B1B0F5805F04D05E
:1038800040F21B1125A0FEF7F9FCA08A38B1B0F573
:10389000806F04D04FF48E7120A0FEF7EFFCE08A19
:1038A00038B1B0F5004F04D040F21D111BA0FEF757
:1038B000E5FC0021F00725D020886288E3881043CA
:1038C000A2884FF2F76C1A4310436289E3891043D0
:1038D000228A1043628A104322891043E28A0243FB
:1038E000A08918431043A28A0B4B0243A80100EBA6
:1038F00081001B1D1844038802EA0C0223EA0C0312
:1039000013430380760803D0491CC9B21029D1D3D0
:103910003846BDE8F0810000FC3B05402E2E5C2EB1
:103920002E5C2E2E5C2E2E5C647269766572735C42
:10393000686333325F6C6C5F6472697665725C7366
:1039400072635C686333325F6C6C5F6770696F2EA3
:103950006300000070B50C46050001D0680904D072
:103960004FF4BE710FA0FEF789FC34B1012C04D0D6
:1039700040F27D110BA0FEF781FC18480088C007BB
:1039800004D14FF4BF7107A0FEF778FC134A05F08D
:103990001F00083A012C118802D08143118070BDAC
:1039A0000143FBE72E2E5C2E2E5C2E2E5C2E2E5C11
:1039B000647269766572735C686333325F6C6C5FE6
:1039C0006472697665725C7372635C686333325FDC
:1039D0006C6C5F6770696F2E63000000FC3B0540F4
:1039E00070B515460E4604000CD0012C0AD0022CEE
:1039F00008D0032C06D0052C04D04FF4CA711AA0AD
:103A0000FEF73CFC26B940F2951117A0FEF736FCF4
:103A1000112D0BD9A5F11400062807D90C38192847
:103A200004D94FF4CB7110A0FEF728FC1C48008885
:103A3000C00704D140F297110BA0FEF71FFC184BF2
:103A40000020A2019B1DF10706D002EB8001194462
:103A50000C8865F305040C80760803D0401CC0B2C6
:103A60001028F0D370BD00002E2E5C2E2E5C2E2E62
:103A70005C2E2E5C647269766572735C68633332A7
:103A80005F6C6C5F6472697665725C7372635C68AC
:103A90006333325F6C6C5F6770696F2E6300000088
:103AA000FC3B054010B5040019D0B4F5805F16D07A
:103AB000B4F5005F13D0B4F5405F10D0B4F5804F7B
:103AC0000DD0B4F5A04F0AD0B4F5C04F07D0B4F56F
:103AD000E04F04D04FF4F9710AA0FEF7CFFB17486E
:103AE0000088C00704D140F2F31106A0FEF7C6FB20
:103AF0001248001F018804F4E04221F4E041114320
:103B0000018010BD2E2E5C2E2E5C2E2E5C2E2E5C87
:103B1000647269766572735C686333325F6C6C5F84
:103B20006472697665725C7372635C686333325F7A
:103B30006C6C5F6770696F2E63000000FC3B054092
:103B4000002270B1002101804180C180C182818149
:103B5000C18101814181018241828180818210463F
:103B600070476FF00202FAE72DE9F0414A4C002756
:103B700001266079DFF824813D46052874D2DFE80C
:103B800000F003082231850045A005F08DF866712C
:103B90007EE04DA005F088F853A005F085F825706B
:103BA00005F0B2FD20704128FAD1257098ED020A87
:103BB000022084ED030A607156A005F075F85DA03F
:103BC00005F072F80CE0257005F09EFD207042288B
:103BD000FAD1257098ED020A032084ED040A53E01F
:103BE000002755E094ED040AD4ED030A30EE601A84
:103BF000DFED5B1A81EE810A71EE600A84ED050A41
:103C0000C4ED060A10EE100AFCF7B3FB41EC100BF2
:103C100054A053EC102B05F047F8A069FCF7A9FB62
:103C200041EC100B56A053EC102B05F03DF85B490E
:103C3000606908445A49884222D25A49A069884298
:103C40001ED9594988421BD258A005F02DF862A010
:103C500005F02AF884F8005005F056FD2070592828
:103C600003D04E28F8D10EE011E06948067094EDBB
:103C7000050A84ED1A0A94ED060A84ED1B0A02E097
:103C800064A005F011F804206071A9E701276571AF
:103C90003846BDE8F08100007CC0FF1FD4CAFF1F7A
:103CA0004772696420766F6C746167652063616C2C
:103CB0006962726174696F6E2069732073746172D6
:103CC000746564210D0A0000506C656173652063A2
:103CD0006F6E6E65637420414320746F2031303005
:103CE00056210D0A00000000696620414320766FCE
:103CF0006C74616765206973206F6B2C20706C6534
:103D000061736520696E70757420274127210D0A43
:103D100000000000506C6561736520636F6E6E6516
:103D2000637420414320746F2032303056210D0AD5
:103D300000000000696620414320766F6C74616763
:103D400065206973206F6B2C20706C656173652032
:103D5000696E70757420274227210D0A000000004B
:103D60000000C84247726964566F6C5F43616C69BA
:103D70005F4761696E3D252E35660D0A0000000023
:103D800047726964566F6C5F43616C695F4F66662A
:103D90007365743D252E35660D0A00002782B9C172
:103DA000F71B2C00860BFDC4C3C504C547726964AC
:103DB00020766F6C746167652063616C6962726103
:103DC00074696F6E206973207375636365656465DC
:103DD00064210D0A00000000536176652074686557
:103DE0002063616C6962726174696F6E20706172C8
:103DF000616D65746572733F202D2D3E20496E7094
:103E0000757420275927206F7220274E270D0A002E
:103E100008C0FF1F4772696420766F6C7461676524
:103E20002063616C6962726174696F6E20697320CE
:103E30006661696C6564210D0A00000030B51B489D
:103E40001B491C4B406B42189A4201D2012200E0F0
:103E50000022194B1A4DDA72184A8418AC4201D26A
:103E6000012400E000241C73164D4418AC4201D21A
:103E7000012400E000245C72134D8418AC4201D28E
:103E8000012400E000249C72104C0144A14201D2A4
:103E9000012100E0002159730D491044884201D2EC
:103EA000012000E00020987330BD000008CBFF1F08
:103EB000B762FFC2E42A470304C9FF1FB0EDB4BFD5
:103EC000B4597D001D70460350FC7C002C0C42034D
:103ED00058CA7A006FF0020118B100210160017127
:103EE000417108467047000010B5040002D034F458
:103EF000407004D040F6B31107A0FEF7BFF9144894
:103F0000D0F8FC124FF4407221F44071A2431143E7
:103F1000C0F8FC1210BD00002E2E5C2E2E5C2E2E42
:103F20005C2E2E5C647269766572735C68633332F2
:103F30005F6C6C5F6472697665725C696E635C6805
:103F40006333325F6C6C5F687270776D2E6800004F
:103F500000C0034010B5040002D034F4407004D017
:103F600040F6A71104A0FEF789F91148D0F8FC0229
:103F7000204000D0012010BD2E2E5C2E2E5C2E2E57
:103F80005C2E2E5C647269766572735C6863333292
:103F90005F6C6C5F6472697665725C696E635C68A5
:103FA0006333325F6C6C5F687270776D2E680000EF
:103FB00000C003400448D0F8FC1221F0020141F493
:103FC0004071C0F8FC12704700C0034038B51A4871
:103FD000006A0024C0F3026118480068C8404FF42A
:103FE0007A71B0FBF1F0009000F02CF8FFF7E2FFDF
:103FF0004FF44070FFF778FF1148D0F8FC1240F200
:1040000001321143C0F8FC12851506E00098411EEC
:10401000009102D26FF007040BE02846FFF79AFFE9
:104020000028F3D04FF40070FFF794FF012800D16F
:10403000841E204638BD00000040054000C0FF1F20
:1040400000C003400448D0F8FC1221F0010141F403
:104050004071C0F8FC12704700C003401C480021AA
:10406000C0F8FC12C0F89C13C0F8A013C0F8A41349
:10407000C0F8AC13C0F8B0133F22C0F8B423C0F8A6
:10408000B813C0F8BC13C0F8C013C0F8C4134FF67F
:10409000FF72C0F8C823C0F8CC23C0F8D023C0F802
:1040A000D423C0F8D813C0F8DC13C0F8E01382148E
:1040B000C0F8E423C0F8E813C0F8EC13C0F8F0131C
:1040C000C0F8F413C0F8F813C0F8FC1370470000F0
:1040D00000C003402DE9F041AAB001211020FFF7F4
:1040E000F7F801218020FFF7F3F801214804FFF7DA
:1040F000ADF8FFF7B3FF864D284600F05BF9854C1D
:10410000204600F057F9FFF761FF00B1FEE72846AF
:1041100000F01CFEA046204600F018FE23A801F087
:1041200005FC684601F0E8FB1FA801F0DBFB18A8BE
:10413000FFF7D0FE11A800F0FBFD26A800F027FD38
:104140001AA800F019FD00241020CDE91240042720
:104150000126CDE914741196169411A920461794DE
:1041600000F08EFA11A90120129600F089FACDE92B
:10417000267426AA00212846289400F069FB26AA66
:104180000121404600F064FB4021284600F012FC6B
:104190004021404600F00EFC5F481AA9CDE91A40C4
:1041A000B005CDE91C041E90284600F059FC1AA960
:1041B000404600F055FCF2215848FCF70FFF5848E4
:1041C000CDE9240423A92394284601F0E5F823A986
:1041D000404601F0E1F800220123284601F034F8BE
:1041E000284601F091F800220223404601F02CF805
:1041F000404601F089F8D020CDE9000402940394F0
:10420000F0020494CDE9054040000790C0000890FA
:10421000800109900A9080000B900C9080000D9016
:104220000E9080000F9010906946284601F01EF90C
:104230006946404601F01AF91F94209421941FA961
:104240002846229401F0D6FA1FA9404601F0D2FA7E
:104250008DF8644018968DF8654018A9284600F03E
:10426000BDFD18A9404600F0B9FD284600F036FE15
:10427000404600F033FE18A9284600F077FE18A942
:10428000404600F073FE284600F0F0FE404600F085
:10429000EDFE18A92846189600F082FC18A94046A1
:1042A00000F07EFC284600F0FBFC404600F0F8FCE5
:1042B000284601F057FA404601F054FA0022012343
:1042C000284600F01BFFD5F8980140F48060C5F83F
:1042D000980132020023284600F070FFD5F89C01B7
:1042E00040F48060C5F89C014B2005F5A27504F0F0
:1042F000EBFC00214B2004F001FD4B2004F0F1FC0D
:10430000286840F0800028602AB0BDE8F0810000F5
:1043100000C0034000CC0340D0FB0100380801403E
:10432000001A040010B504460E48844213D00E480B
:10433000844210D00D4884420DD00D4884420AD0EA
:104340000C48844207D00C48844204D040F6F21155
:104350000AA0FDF793FFD4F8400140F00100C4F833
:10436000400110BD00C0034000C4034000C803402A
:1043700000CC034000D0034000D403402E2E5C2E1E
:104380002E5C2E2E5C2E2E5C647269766572735CD8
:10439000686333325F6C6C5F6472697665725C6906
:1043A0006E635C686333325F6C6C5F687270776DEC
:1043B0002E68000010B504464F48844212D04F4882
:1043C00084420FD04E4884420CD04E48844209D0DB
:1043D0004D48844206D04D48844203D0B1214CA0C0
:1043E000FDF74CFF0020C4F8400144F8EC0B44F802
:1043F000E80C554944F8AC1C44F8A81C44F86C1C63
:1044000044F8681C44F8641C44F8601C44F85C1CC4
:1044100044F8581C44F8541C44F8501C44F82C1C14
:1044200044F8281C44F8241C44F8201C6161A16154
:10443000E1612162A065E0652066A066E0666067D4
:104440004906A167E067C4F89400C4F89C00C4F86A
:10445000A400C4F8A800C4F8AC00C4F8B000C4F8C4
:1044600014013A49C4F81811C4F81C11C4F8240105
:10447000C4F82C014FF48002C4F83421C4F8382168
:10448000C4F83C21C4F84021C4F84401C4F84801F0
:10449000C4F84C11C4F85011C4F85401C4F85801C0
:1044A000C4F85C01C4F86001C4F86401C4F8681180
:1044B000C4F86C11C4F87011C4F87411C4F8780110
:1044C000C4F87C01C4F8B401C4F8B8012048C4F8A9
:1044D000C801C4F8CC01C4F8D001C4F8D401C4F8B0
:1044E000D801C4F8DC01C4F8E001C4F8E401C4F860
:1044F000E801C4F8EC0110BD00C0034000C4034053
:1045000000C8034000CC034000D0034000D4034067
:104510002E2E5C2E2E5C2E2E5C2E2E5C6472697606
:104520006572735C686333325F6C6C5F647269766A
:1045300065725C7372635C686333325F6C6C5F6876
:104540007270776D2E630000C0FF3F00AAAA0A00B8
:10455000C0FF7F0070B504460D006FF002005BD015
:104560002E48844213D02E48844210D02D488442D5
:104570000DD02D4884420AD02C48844207D02C48C4
:10458000844204D040F2B4612AA0FDF777FE286887
:1045900098B1B0F1807F10D0B0F1007F0DD0B0F1B4
:1045A000407F0AD0B0F1806F07D0B0F1A06F04D087
:1045B00040F2B5611FA0FDF761FE686868B1B0F513
:1045C000800F0AD0B0F5000F07D0B0F5400F04D02F
:1045D00040F2B66117A0FDF751FEA86868B1B0F5CA
:1045E000801F0AD0B0F5001F07D0B0F5401F04D0DF
:1045F00040F2B7610FA0FDF741FED5E90001084385
:10460000A9680843D4F8541100F0FE6021F0FE615F
:104610000843C4F85401002070BD000000C00340EE
:1046200000C4034000C8034000CC034000D0034056
:1046300000D403402E2E5C2E2E5C2E2E5C2E2E5C83
:10464000647269766572735C686333325F6C6C5F49
:104650006472697665725C7372635C686333325F3F
:104660006C6C5F687270776D2E6300006FF00201F2
:1046700018B1002101604160816008467047000068
:1046800070B505460C006FF0020072D0092D04D9F8
:1046900040F265515FA0FDF7F1FD206850B101289F
:1046A00008D0022806D0032804D040F2665159A051
:1046B000FDF7E4FDA06850B1082808D0102806D006
:1046C000182804D040F2675152A0FDF7D7FDE068EA
:1046D00030B1042804D04FF4AD614EA0FDF7CEFDFB
:1046E000206801280CD1606850B1012808D0022848
:1046F00006D0032804D040F26A5146A0FDF7BEFD63
:104700002069042D05D890B1202810D040F26D51B9
:104710000AE020B140F26F513EA0FDF7AFFD6069A5
:104720000F2804D94FF4AE613AA0FDF7A7FDA069A8
:1047300030B1012804D040F2725136A0FDF79EFD41
:104740004249042D16D82078227B237C1043227AFC
:104750001A43104305EB450200F03F005200D1F828
:10476000D83390403F269640B3431843C1F8D8034E
:1047700020E04DE0D1F8DC23681F00EB4000400052
:104780001F2383409A432378267B3343267A33437F
:1047900003F01F0383401A43C1F8DC23D1F8E02360
:1047A0000F2383409A43237D03F00F0383401A4372
:1047B000C1F8E023206801281DD10320012D0CD869
:1047C000D1F8B0236B0098408243207900F00300B9
:1047D00098400243C1F8B0230DE0D1F8B0330C2269
:1047E00002EB450290408343207900F003009040A3
:1047F0000343C1F8B033D1F8E8030122AA40904343
:10480000227E02F00102AA401043C1F8E803002012
:1048100070BD00002E2E5C2E2E5C2E2E5C2E2E5C8B
:10482000647269766572735C686333325F6C6C5F67
:104830006472697665725C7372635C686333325F5D
:104840006C6C5F687270776D2E63000000C003406F
:1048500070B5054614000E466FF002007ED0414848
:10486000854213D04048854210D0404885420DD043
:104870003F4885420AD03F48854207D03E4885429E
:1048800004D040F2B7513DA0FDF7F8FC092E04D941
:104890004FF4B76139A0FDF7F1FC236813B3022B85
:1048A00020D0042B1ED0062B1CD0082B1AD00A2B8C
:1048B00018D00C2B16D00E2B14D0102B12D0122B7C
:1048C00010D0142B0ED0162B0CD0182B0AD01A2B6C
:1048D00008D01C2B06D01E2B04D040F2B95127A0C3
:1048E000FDF7CCFC606830B1012804D040F2BA5129
:1048F00022A0FDF7C3FCA06830B1202804D040F20C
:10490000BB511EA0FDF7BAFC3F20042E12D8D5F8EB
:10491000301206EB46025200904081432078237902
:104920001843237A184300F03F0090400143C5F834
:10493000301212E0D5F83412761F06EB4602520010
:1049400090408143207823791843237A184300F05C
:104950003F0090400143C5F8341200E000E0002021
:1049600070BD000000C0034000C4034000C8034005
:1049700000CC034000D0034000D403402E2E5C2E18
:104980002E5C2E2E5C2E2E5C647269766572735CD2
:10499000686333325F6C6C5F6472697665725C73F6
:1049A00072635C686333325F6C6C5F687270776DE2
:1049B0002E63000070B5044615480D46844213D09E
:1049C0001448844210D0144884420DD013488442C5
:1049D0000AD01348844207D01248844204D041F2DE
:1049E000176111A0FDF74AFC45B1402D06D0C02D3E
:1049F00004D041F218610CA0FDF740FCD4F8440249
:104A000005F0C00120F0C0000843C4F8440270BDA6
:104A100000C0034000C4034000C8034000CC034072
:104A200000D0034000D403402E2E5C2E2E5C2E2E90
:104A30005C2E2E5C647269766572735C68633332D7
:104A40005F6C6C5F6472697665725C696E635C68EA
:104A50006333325F6C6C5F687270776D2E68000034
:104A60002DE9F0410C0005466FF0020658D02E48A3
:104A7000854213D02D48854210D02D4885420DD057
:104A80002C4885420AD02C48854207D02B488542C5
:104A900004D040F2F5512AA0FDF7F0FB206838B1B0
:104AA000B0F1804F04D040F2F65125A0FDF7E6FBAF
:104AB00060684FF48007B84204D340F2F75120A059
:104AC000FDF7DCFBA06830B1B84204D04FF4BF6101
:104AD0001BA0FDF7D3FBE068B84204D340F2F951C4
:104AE00017A0FDF7CBFB206930B1B84204D040F2EB
:104AF000FA5113A0FDF7C2FBD5F83002216820F06F
:104B0000804001F080410843C5F83002D4E901013A
:104B10000843C5F82002D4E903010843C5F8280278
:104B20003046BDE8F081000000C0034000C40340EF
:104B300000C8034000CC034000D0034000D4034031
:104B40002E2E5C2E2E5C2E2E5C2E2E5C64726976D0
:104B50006572735C686333325F6C6C5F6472697634
:104B600065725C7372635C686333325F6C6C5F6840
:104B70007270776D2E6300006FF0020128B1002182
:104B8000016041608160C1600161084670476FF05B
:104B9000020118B100210160416081600846704740
:104BA00070B504460D006FF002004FD0284EB4429D
:104BB00013D02848844210D0274884420DD027487B
:104BC00084420AD02648844207D02648844204D032
:104BD00040F2074124A0FDF751FB286850B101289D
:104BE00008D0022806D0032804D04FF481611EA00B
:104BF000FDF744FBB44211D0287930B1012804D02C
:104C000040F20A4118A0FDF739FB687930B101285C
:104C100004D040F20B4114A0FDF730FB2978D4F802
:104C2000000261F34200C4F80002B4420DD02879BA
:104C30006979000240EA8110D4F8001200F4A070F3
:104C400021F4A0710843C4F80002002070BD0000E8
:104C500000C0034000C4034000C8034000CC034030
:104C600000D0034000D403402E2E5C2E2E5C2E2E4E
:104C70005C2E2E5C647269766572735C6863333295
:104C80005F6C6C5F6472697665725C7372635C689A
:104C90006333325F6C6C5F687270776D2E630000F7
:104CA00010B504460E48844213D00E48844210D0FA
:104CB0000D4884420DD00D4884420AD00C488442ED
:104CC00007D00C48844204D041F248110AA0FDF7F5
:104CD000D5FAD4F8000240F00100C4F8000210BD7B
:104CE00000C0034000C4034000C8034000CC0340A0
:104CF00000D0034000D403402E2E5C2E2E5C2E2EBE
:104D00005C2E2E5C647269766572735C6863333204
:104D10005F6C6C5F6472697665725C696E635C6817
:104D20006333325F6C6C5F687270776D2E68000061
:104D30006FF0020138B1002101604160C160816003
:104D400001614161816108467047000010B5044669
:104D50000E48844213D00E48844210D00D4884423D
:104D60000DD00D4884420AD00C48844207D00C482C
:104D7000844204D040F6BF110AA0FDF77FFAD4F8B0
:104D8000A00240F00800C4F8A00210BD00C003401B
:104D900000C4034000C8034000CC034000D00340DF
:104DA00000D403402E2E5C2E2E5C2E2E5C2E2E5C0C
:104DB000647269766572735C686333325F6C6C5FD2
:104DC0006472697665725C696E635C686333325FD6
:104DD0006C6C5F687270776D2E68000070B5044669
:104DE0000D006FF002004FD0284EB44213D0284877
:104DF000844210D0274884420DD0274884420AD0EC
:104E00002648844207D02648844204D04FF44E718D
:104E100024A0FDF733FA286850B1012808D00228F1
:104E200006D0032804D040F239311EA0FDF726FA3F
:104E3000B44211D0287930B1012804D040F23B317E
:104E400018A0FDF71BFA687930B1012804D04FF49F
:104E50004F7114A0FDF712FA2978D4F8480161F3D4
:104E60008300C4F84801B4420DD028796979C0059F
:104E700040EA0140D4F8001200F4010021F40101DD
:104E80000843C4F80002002070BD000000C00340C9
:104E900000C4034000C8034000CC034000D00340DE
:104EA00000D403402E2E5C2E2E5C2E2E5C2E2E5C0B
:104EB000647269766572735C686333325F6C6C5FD1
:104EC0006472697665725C7372635C686333325FC7
:104ED0006C6C5F687270776D2E63000010B50446CD
:104EE0000E48844213D00E48844210D00D488442AC
:104EF0000DD00D4884420AD00C48844207D00C489B
:104F0000844204D041F2AC010AA0FDF7B7F9D4F80D
:104F1000480140F00100C4F8480110BD00C0034042
:104F200000C4034000C8034000CC034000D003404D
:104F300000D403402E2E5C2E2E5C2E2E5C2E2E5C7A
:104F4000647269766572735C686333325F6C6C5F40
:104F50006472697665725C696E635C686333325F44
:104F60006C6C5F687270776D2E68000070B50446D7
:104F70000D006FF002004FD0284EB44213D02848E5
:104F8000844210D0274884420DD0274884420AD05A
:104F90002648844207D02648844204D040F25A3141
:104FA00024A0FDF76BF9286850B1012808D0022829
:104FB00006D0032804D040F25B311EA0FDF75EF955
:104FC000B44211D0287930B1012804D040F25D31CB
:104FD00018A0FDF753F9687930B1012804D040F2E8
:104FE0005E3114A0FDF74AF92978D4F8480161F33D
:104FF0008710C4F84801B4420DD0287969790006B9
:1050000040EA4140D4F8001200F0817021F0817133
:105010000843C4F80002002070BD000000C0034037
:1050200000C4034000C8034000CC034000D003404C
:1050300000D403402E2E5C2E2E5C2E2E5C2E2E5C79
:10504000647269766572735C686333325F6C6C5F3F
:105050006472697665725C7372635C686333325F35
:105060006C6C5F687270776D2E63000010B504463B
:105070000E48844213D00E48844210D00D4884421A
:105080000DD00D4884420AD00C48844207D00C4809
:10509000844204D041F2C6010AA0FDF7EFF8D4F82B
:1050A000480140F01000C4F8480110BD00C00340A2
:1050B00000C4034000C8034000CC034000D00340BC
:1050C00000D403402E2E5C2E2E5C2E2E5C2E2E5CE9
:1050D000647269766572735C686333325F6C6C5FAF
:1050E0006472697665725C696E635C686333325FB3
:1050F0006C6C5F687270776D2E68000070B5054645
:10510000194814461E46854213D01848854210D0CF
:10511000174885420DD0174885420AD01648854267
:1051200007D01648854204D040F6B46114A0FDF7BC
:10513000A5F854EA060006D01F4904EA0100B10AA6
:105140008902084304D040F6B5610DA0FDF796F83A
:10515000D5F890012043C5F89001D5F89801304367
:10516000C5F8980170BD000000C0034000C40340B2
:1051700000C8034000CC034000D0034000D40340EB
:105180002E2E5C2E2E5C2E2E5C2E2E5C647269768A
:105190006572735C686333325F6C6C5F64726976EE
:1051A00065725C696E635C686333325F6C6C5F6808
:1051B0007270776D2E680000FFF000FF70B5054635
:1051C000194814461E46854213D01848854210D00F
:1051D000174885420DD0174885420AD016488542A7
:1051E00007D01648854204D040F6D4611448FDF734
:1051F00045F854EA060006D0124904EA0100B10A53
:105200008902084304D040F6D5610D48FDF736F811
:10521000D5F894012043C5F89401D5F89C0130439A
:10522000C5F89C0170BD000000C0034000C40340ED
:1052300000C8034000CC034000D0034000D403402A
:1052400080510000FFF000FF70B505461948144674
:105250001E46854213D01848854210D01748854213
:105260000DD0174885420AD01648854207D0164807
:10527000854204D041F20D5114A0FCF7FFFF54EA1F
:10528000060006D01F4904EA010006F07F410843EA
:1052900004D041F20E510DA0FCF7F0FFD5F88801C3
:1052A0002043C5F88801D5F818023043C5F8180224
:1052B00070BD000000C0034000C4034000C80340AC
:1052C00000CC034000D0034000D403402E2E5C2EBF
:1052D0002E5C2E2E5C2E2E5C647269766572735C79
:1052E000686333325F6C6C5F6472697665725C69A7
:1052F0006E635C686333325F6C6C5F687270776D8D
:105300002E680000FFF000FF10B504460E488442EE
:1053100013D00E48844210D00D4884420DD00D4861
:1053200084420AD00C48844207D00C48844204D0FE
:1053300041F245510AA0FCF7A1FFD4F8880140F0E2
:105340008000C4F8880110BD00C0034000C40340C1
:1053500000C8034000CC034000D0034000D4034009
:105360002E2E5C2E2E5C2E2E5C2E2E5C64726976A8
:105370006572735C686333325F6C6C5F647269760C
:1053800065725C696E635C686333325F6C6C5F6826
:105390007270776D2E68000070B504460D006FF0D6
:1053A000020037D01C48844212D01C4884420FD0DF
:1053B0001B4884420CD01B48844209D01A488442BE
:1053C00006D01A48844203D09C2119A0FCF756FF4E
:1053D000286828B1042803D09D2115A0FCF74EFFB2
:1053E000A86830B1B0F5807F03D09E2110A0FCF7F3
:1053F00045FF68681C49C138884203D99F210CA029
:10540000FCF73CFF68682064A96828680843C4F872
:105410004001002070BD000000C0034000C40340F4
:1054200000C8034000CC034000D0034000D4034038
:105430002E2E5C2E2E5C2E2E5C2E2E5C64726976D7
:105440006572735C686333325F6C6C5F647269763B
:1054500065725C7372635C686333325F6C6C5F6847
:105460007270776D2E630000FFFE3F002DE9F04162
:1054700005460C006FF002007ED0A548854213D08F
:10548000A448854210D0A44885420DD0A348854247
:105490000AD0A348854207D0A248854204D040F2F2
:1054A0005711A1A0FCF7EAFE2068AD49C138884237
:1054B00004D94FF4AC719CA0FCF7E0FE606840B1E9
:1054C000012806D0022804D040F2591196A0FCF71A
:1054D000D5FEA06840B1042806D0082804D04FF4B7
:1054E000AD7191A0FCF7CAFEE06850B1102808D059
:1054F000202806D0302804D040F25B118AA0FCF7A7
:10550000BDFE206950B1402808D0802806D0C028B0
:1055100004D04FF4AE7184A0FCF7B0FE606968B1AE
:10552000B0F5807F0AD0B0F5007F07D0B0F5407F9E
:1055300004D040F25D117CA0FCF7A0FEA06968B128
:10554000B0F5806F0AD0B0F5006F07D0B0F5406FAE
:1055500004D04FF4AF7174A0FCF790FEE06978B10D
:10556000B0F5805F0CD0B0F5005F09D0B0F5405FBA
:1055700006D040F25F1100E0C7E06BA0FCF77EFEB2
:10558000206A68B1B0F5804F0AD0B0F5004F07D05F
:10559000B0F5404F04D04FF4B07163A0FCF76EFE3D
:1055A0004FF48016606A77004FF4401850B1B04253
:1055B00008D0B84206D0404504D040F261115AA04C
:1055C000FCF75CFEA06A50B1B04208D0B84206D0E9
:1055D000404504D04FF4B17153A0FCF74FFE4FF497
:1055E0008006E06A77004FF4400850B1B04208D01E
:1055F000B84206D0404504D040F263114AA0FCF7FF
:105600003DFE206B50B1B04208D0B84206D04045B4
:1056100004D04FF4B27144A0FCF730FE4FF0807616
:10562000606B77004FF0407850B1B04208D0B8427C
:1056300006D0404504D040F265113BA0FCF71EFEA9
:10564000A06B50B1B04208D0B84206D0404504D05B
:105650004FF4B37134A0FCF711FE4FF08066E06B9D
:1056600077004FF0406850B1B04208D0B84206D041
:10567000404504D040F267112BA0FCF7FFFD206CE1
:1056800050B1B04208D0B84206D0404504D04FF4E3
:10569000B47125A0FCF7F2FD2068C5F88000D4E9BC
:1056A00001010843D4E90312114308436169084327
:1056B000A1690843E1690843216A0843D5F85411F8
:1056C000C0EA0100C5F85401E16A606AE26B084370
:1056D000616B11430843D5F8041200F07F6021F09C
:1056E0007F610843C5F80402216BA06A226C08435D
:1056F000A16B11430843D5F8381200F07F6021F008
:105700007F610843C5F838020020BDE8F081000041
:1057100000C0034000C4034000C8034000CC034065
:1057200000D0034000D403402E2E5C2E2E5C2E2E83
:105730005C2E2E5C647269766572735C68633332CA
:105740005F6C6C5F6472697665725C7372635C68CF
:105750006333325F6C6C5F687270776D2E6300002C
:10576000FFFE3F0010B504460E48844213D00E4899
:10577000844210D00D4884420DD00D4884420AD096
:105780000C48844207D00C48844204D04FF4736123
:105790000AA0FCF773FDD4F8540140F08050C4F81F
:1057A000540110BD00C0034000C4034000C80340C2
:1057B00000CC034000D0034000D403402E2E5C2ECA
:1057C0002E5C2E2E5C2E2E5C647269766572735C84
:1057D000686333325F6C6C5F6472697665725C69B2
:1057E0006E635C686333325F6C6C5F687270776D98
:1057F0002E68000070B505460C006FF0020048D01E
:105800002448854213D02448854210D0234885423D
:105810000DD0234885420AD02248854207D022482D
:10582000854204D04FF4167120A0FCF727FD2068B4
:1058300030B1082804D040F259211CA0FCF71EFD0D
:10584000606830B1042804D040F25A2117A0FCF758
:1058500015FDA06830B1012804D040F25B2113A0EF
:10586000FCF70CFDE06830B1022804D04FF417714A
:105870000EA0FCF703FD20782179227B0843217AD2
:1058800011430843D5F8441260F30301C5F84412EC
:10589000002070BD00C0034000C4034000C80340A6
:1058A00000CC034000D0034000D403402E2E5C2ED9
:1058B0002E5C2E2E5C2E2E5C647269766572735C93
:1058C000686333325F6C6C5F6472697665725C73B7
:1058D00072635C686333325F6C6C5F687270776DA3
:1058E0002E6300006FF0020120B1002101604160D1
:1058F0008160C160084670476FF0020190B10A49AB
:105900000160002141608160C1600161416181618C
:10591000C161016241628162C1620163416381636D
:10592000C163016408467047C0FF3F006FF0020189
:1059300028B10021016081600249416000210846D0
:1059400070470000C0FF3F00034810B50068804763
:10595000BFF34F8F10BD0000CCCBFF1F034810B525
:1059600040688047BFF34F8F10BD0000CCCBFF1FB6
:10597000034810B580688047BFF34F8F10BD00000B
:10598000CCCBFF1F034810B5C0688047BFF34F8FD3
:1059900010BD0000CCCBFF1F034810B50069804745
:1059A000BFF34F8F10BD0000CCCBFF1F034810B5D5
:1059B00040698047BFF34F8F10BD0000CCCBFF1F65
:1059C000034810B580698047BFF34F8F10BD0000BA
:1059D000CCCBFF1F034810B5C0698047BFF34F8F82
:1059E00010BD0000CCCBFF1F034810B5006A8047F4
:1059F000BFF34F8F10BD0000CCCBFF1F034810B585
:105A0000406A8047BFF34F8F10BD0000CCCBFF1F13
:105A1000034810B5806A8047BFF34F8F10BD000068
:105A2000CCCBFF1F034810B5C06A8047BFF34F8F30
:105A300010BD0000CCCBFF1F034810B5006B8047A2
:105A4000BFF34F8F10BD0000CCCBFF1F034810B534
:105A5000406B8047BFF34F8F10BD0000CCCBFF1FC2
:105A6000034810B5806B8047BFF34F8F10BD000017
:105A7000CCCBFF1F034810B5C06B8047BFF34F8FDF
:105A800010BD0000CCCBFF1F19484EF66022C16844
:105A9000914206D90021C1600179C1F10101017172
:105AA00001E0491CC1601349134A0B789BB1911C5A
:105AB000032B02D00379012B0DD00A8842F4006237
:105AC0000A800E494289098891420FD0418139B13B
:105AD0000948203806E0118841F400611180F0E7A0
:105AE00005481E38018841F480510180704700004C
:105AF00008C0FF1F1DC9FF1F2838054078C0FF1FC1
:105B0000C10706D0154940F223120A6043F2102261
:105B10000A60810702D5134A11491161410703D573
:105B2000114A4AF2015111801049C20606D5B1F856
:105B3000FE234AF208531A43A1F8FE23420606D573
:105B4000B1F8FE234AF203531A43A1F8FE230006DC
:105B500002D5074977200860704700000004014023
:105B60000100A5A500800440FC3B05400040054025
:105B70000C08054070B504460D466FF00200002A7F
:105B800014D02046904720B14FF4BD7109A0FCF716
:105B900075FB174A946055B11649096AC1F302634F
:105BA00015490968D940B1FBF5F1D16070BD0021FC
:105BB000FBE700002E2E5C2E2E5C2E2E5C2E2E5C23
:105BC000647269766572735C686333325F6C6C5FB4
:105BD0006472697665725C7372635C686333325FAA
:105BE0006C6C5F7574696C6974792E6300000000D9
:105BF000F4C8FF1F0040054000C0FF1F70B55B4B9D
:105C0000002403F1800101F17406012596ED020ADA
:105C1000F6EE001AA1F58072012814D090790028C0
:105C200010D1DFED530A60EE200AC3ED080AC1ED82
:105C3000031ADFED500AC1ED040A81ED020AD474A3
:105C40009474157570BD494E107D803ED6ED110AD5
:105C500058B191ED031A30EE411A83ED081A14750C
:105C6000C1ED040A81ED020A70BD91ED041A3F48AE
:105C700030EEC11A803881ED011AB5EEC01A807C71
:105C8000F1EE10FA26DD91ED022AB4EEC20AF1EE31
:105C900010FA01DD557401E002245474547C8442EE
:105CA0004CD191ED032AF3EE042A62EE222AF4EE9F
:105CB000C12AF1EE10FA2BD2B0EE001A22EE011A30
:105CC00011EE104A81ED031AB4F17C5F36DDC1EDAF
:105CD000031A33E091ED021AB4EEC10AF1EE10FAA4
:105CE00004DD03245474012804D02CE004245474EB
:105CF000022836D191ED031A1F4D21EE211A11EE23
:105D0000104A81ED031AAC4218DA9FED1C1A13E019
:105D1000F1EE0C2A62EE222AF4EEC12AF1EE10FA1C
:105D20000CDD22EE211A164D11EE104A81ED031AF8
:105D3000AC4203DA9FED131A81ED031A547C012C57
:105D40000FD0042C0DD091ED031A30EE411A00BF94
:105D500083ED081AC1ED040A81ED020AD07494742F
:105D600070BD91ED031A30EE011AF1E784C9FF1FEF
:105D70003333733F00000000CDCC4C3DCDCC4C3DC7
:105D8000CDCC4C3ECDCC4C3EF0B5EF4AA2F5DE7109
:105D9000D2ED070A91ED160AF4EEC00AF1EE10FA00
:105DA00002DCB0EE600A01E082ED070AE74C04F580
:105DB0008076D4ED0E0A60EE200A96ED140A9FED6F
:105DC000E41A04F51A7220EE010A94ED0F1A40EE5F
:105DD000010AC2ED000A677A94F80AC057EA0C0576
:105DE0009FEDDC0A06D091ED011A70EEC10AC2EDFA
:105DF000020A01E082ED020A92ED081AD2ED020ACF
:105E000021EE202A82ED032AF0B192ED041AD2EDA0
:105E1000091A01EEA01A82ED041A00BFD2ED040A9D
:105E2000C94B70EE821A2C33C2ED071A92ED051A97
:105E3000D3ED060AF4EEC11AF1EE10FA07DD82ED99
:105E4000071A71EE421A0BE082ED040AE6E7F4EE5F
:105E5000E01AF1EE10FA05D270EEC21AC2ED070A8E
:105E6000C2ED041AB84B583328B3D2ED072AC3ED5C
:105E7000002AD3ED021A93ED033A72EEE11ADFED38
:105E8000B63A93ED084A23EE233AD3ED043A61EE95
:105E9000831A93ED073A43EEC31AD3ED053A43EE66
:105EA000C41AC3ED061AF4EEC11AF1EE10FA11DDB0
:105EB00083ED061A15E083ED000A83ED010A83EDF8
:105EC000020A83ED060A83ED070A83ED080A82EDD4
:105ED000070A12E0F4EEE01AF1EE10FA01D2C3ED77
:105EE000060AD3ED011AC3ED021AC3ED012A83EDB0
:105EF000083AD3ED061AC3ED071AD2ED072AD3EDFF
:105F0000061A72EEA12AC1ED0A2AB4EEE21AF1EEE7
:105F100010FA04D281ED0A1A71EE420A08E0F4EE9A
:105F2000E20AF1EE10FA07DDC1ED0A0A70EEC20ACC
:105F300070EEE10AC2ED040ADFF80CE2AEF1E80E01
:105F4000DEED020AF5EEC00AF1EE10FA03DD17B13C
:105F5000D1ED0A0A0BE0F5EEC00AF1EE10FA09D213
:105F6000BCF1000F06D0D1ED0A0AF1EE600AC1EDD6
:105F70000B0A09E0F1EE420A81ED0B0A70EEE10A2C
:105F800081ED0A0AC2ED040A94F818C00027BCF19A
:105F9000010F26D1D6ED0F0AC1ED1A0AD1F87CC047
:105FA000C1F86CC0D6ED000A91ED0B1A20EE811AF3
:105FB00081ED0B1A92ED041A21EE201A82ED041ADB
:105FC00021EEA01A83ED061A93ED071A21EE201A8E
:105FD00083ED071A93ED081A61EE200AC3ED080A53
:105FE0002776D1ED0B0A96ED0E1A60EE810AC1ED0F
:105FF0000C0A91ED1A1A70EE810AC1ED170AF5EE3E
:10600000C00AF1EE10FA00DD25B981ED170A0DB9CD
:10601000524ACA6691ED170ADFED510A0122F4EEE9
:10602000001A60EE200A0128FCEEE00A10EE903A19
:106030004B63D1ED120A60EE200AC1ED130A3CD188
:10604000A07E042839D1B6EE001A404820EE811A0D
:1060500010EE105A434E81ED141AC07BB54205DD97
:1060600011EE105A404EB54200DD60B110EE105AEC
:10607000B5F17A5F04DB11EE105A3C4EB5421EDAE0
:1060800001281AD01DE09FED3A1AF2EE002A20EE08
:10609000A02A30EE810AE27360EE222A02EE812A03
:1060A000B1EEC21A71EE200AB1EE001A20EE010A1A
:1060B00080EE801A81ED1C1A09E0E77301E00128E7
:1060C00005D04FF4B430834232D9486334E04FF402
:1060D0003430834201D9486303E0B3F5486F00D2FE
:1060E0004F6391ED0D0AD1ED1C0AB8EE400A20EE87
:1060F000200ABDEEC00A10EE100A8863C863B0F52E
:10610000344F02DAC1ED181A0FE0B0F5873F02DD17
:10611000B4EE080A07E000EE100ADFED160AB8EE4A
:10612000C00A20EE200A81ED180A8010486608E0B7
:10613000B3F5C86F00D24F63486BC1E90E07C1EDDC
:10614000181A2274F0BD000040CBFF1F04C9FF1FC6
:10615000CDCC4C3D0000000000001643CE3F0100B6
:106160000000B4473333B33E6666E63ECDCCCC3E4A
:106170003333B33D510B36361249012804D001F5B3
:106180008A7090ED080A0EE091ED081AD1ED090A27
:106190000D4ADFED0E1A31EE600A10EE100A904241
:1061A00004DD30EEA10A81ED090A704710EE100AF5
:1061B000074A904202D930EEE10AF4E781ED091A6C
:1061C0007047000084C9FF1FCDCCCC3DCDCCCC3D69
:1061D000CDCCCCBD00B50346FFF7CEFF1E48012B4A
:1061E00090ED080AA0F58A7000F5DE71D0ED090A7D
:1061F00070EE600AC1ED020A91ED080A20EE200A55
:1062000081ED030A1DD0DFED150AC1ED040A00BFC0
:1062100030EE201A81ED071AD1ED050AB4EEE01A2E
:10622000F1EE10FA06DCD1ED060AB4EEE01AF1EE5A
:1062300010FA05D230EEC00AC1ED070A81ED040A5A
:1062400000BD91ED041AD1ED091A01EEA01A81EDFD
:10625000041AF0EE410ADBE798CAFF1F00000000B5
:10626000F0B4BD48BD4F00220668BD48BE42047868
:10627000BC4800F11C0103780D880EDD6F070CD4BB
:106280008280C2804688032E04D945F004050D8023
:1062900042802BE0761C468028E0B34FBE4205DAF0
:1062A0002E0703D4012C06D0022C04D04280828019
:1062B000012B0DD01AE04280C2808688032E04D9BB
:1062C00045F008050D80828010E0761C86800DE088
:1062D0006E0701D42E0709D5C688032E04D925F0F0
:1062E0000C050D80C28001E0761CC6809F4DAE6813
:1062F0009F4DAE420EDD0F88FD060BD48282058ACB
:10630000032D04D947F010050D80028212E06D1CA8
:1063100005820FE00282012B0CD10F88FD0609D502
:10632000858A032D04D927F010050D80828201E0B3
:106330006D1C85828F4DAE4206DA0D88AE0603D401
:10634000012C05D0022C03D04282012B0CD018E086
:10635000C282448A032C04D945F020040C80428276
:106360000FE0641C44820CE00D88AC0609D5C48A99
:10637000032C04D925F020040C80C28201E0641CA7
:10638000C4827D4C7D4D2468AC4202DD0D88EC0753
:1063900003D00281012B0CD018E042810489032C28
:1063A00004D945F001040C8002810FE0641C0481D3
:1063B0000CE00D88EC0709D04489032C04D925F0A2
:1063C00001040C80428101E0641C44816C4C24680F
:1063D000B4F1814F0EDD0D88AC070BD4C2818489E6
:1063E000032C04D945F002040C80828112E0641C65
:1063F00084810FE08281012B0CD10D88AC0709D577
:10640000C489032C04D925F002040C80C28101E068
:10641000641CC4815B4C5C4D2468AC420EDD0D886D
:106420002C060BD40283448B032C04D945F0800442
:106430000C80428312E0641C44830FE04283012BF2
:106440000CD10D882C0609D5048B032C04D925F01A
:1064500080040C80028301E0641C04834B4A1068B2
:10646000C0F30024101D34B10C88E50503D444F4B6
:1064700080740C800BE0012B09D10C88E50506D552
:1064800024F480740C80046844F4807404601468FC
:10649000C4F3802434B10C88A50503D444F40074FB
:1064A0000C800BE0012B09D10C88A50506D524F43E
:1064B00000740C80046844F4806404601468C4F3BD
:1064C000003434B10C88650503D444F480640C8036
:1064D0000BE0012B09D10C88650506D524F48064F6
:1064E0000C80046844F4805404601468C4F34024AD
:1064F00034B10C88250503D444F400640C800BE00F
:10650000012B09D10C88250506D524F400640C80E4
:10651000046844F4007404601268C2F3C02232B10B
:106520000A88D40403D442F4805008800BE0012B85
:1065300009D10A88D30406D522F480520A80026861
:1065400042F4006202600888002802D0F0BCFAF72A
:1065500069BEF0BC7047000090C9FF1F0000844373
:106560001DC9FF1F5CC0FF1F0000304368CAFF1F2A
:10657000000070420000E0417CC9FF1F9A99BA43B5
:1065800088C9FF1F78C9FF1F000020420C86034006
:106590002DE9F0414B4C4C48032694F819E0028851
:1065A0000121002504F18000BEF1000F10D000F59C
:1065B000C2732746DFF814C13F785B6BBEF1010F51
:1065C00031D0BEF1020F4CD0BEF1030F78D171E093
:1065D00012B1E58425726EE0227A3AB13C4821700E
:1065E0000078012818D16176A5841AE0C068394A7C
:1065F0001044394A904214D23848394A806890424F
:106600000FDD384A90420CDAE08C44F6206290426A
:1066100004D9501CE0842172BDE8F081401CE08464
:10662000FAE7E584F8E7BAB9634502DA627902B9B4
:106630006171CFB361780129EED161790129EBD184
:10664000A18CB1F57A7F04D302216176A58485609F
:10665000E2E7491CA184DFE7FAF7E4FD66762572DC
:10666000DAE7002AF8D1174A6345927900DA12B1C5
:10667000012A0ED015E01C4AA171D2F8A43343F0D0
:106680000103C2F8A433D2F8A43343F04003C2F8A4
:10669000A433E2792AB9826841F270739A4206D92A
:1066A000E1718560002FB7D1FAF7BCFD08E0521CFC
:1066B0008260F7E71AB1FAF7B5FD6676ACE72572A6
:1066C0006576A9E704C9FF1F78C0FF1F8FC2F53C9C
:1066D0000EC0FF1FFFFFC4BCFFFF410068CAFF1FC1
:1066E00000000C420000704200C0034070B52C4A0C
:1066F0002B4920322B4B012802D00020587046E055
:10670000012058702648264C9D6F801E1E34B5F11E
:10671000814F1BDDDE7ACEB15B7B002B0B8843F40F
:1067200080730B8011880AD041F4007111800188B8
:1067300041F400710180208840F480701DE041F434
:1067400040711180018841F400711EE015F17E5FF7
:106750001DD91D7BDDB19B7B002B0B8843F400739F
:106760000B8011880BD041F480711180018841F4B5
:1067700080710180208840F40070208070BD41F459
:1067800040711180018841F48071018070BD0888DA
:1067900040F440700880108840F44070108070BD54
:1067A0000A38054004C9FF1F2DE9F0416C480088F4
:1067B00008B1FAF737FD01F0A5FB00F0C5FB694809
:1067C000F7EE000AA0F5B27490ED010AD0ED031ABD
:1067D000012730EEC01A21EE211AD4ED1C1A00EE6A
:1067E000211A80ED021A80ED031A303090ED030A71
:1067F00090ED042AD0ED011A20EE010AD0ED022A14
:1068000090ED0A3A02EE210A90ED052A02EE220AE4
:10681000D0ED062A90ED092A02EEC20AD0ED072A31
:1068200002EEC30A80ED080AC0ED021A80ED011ADB
:1068300080ED0A2A80ED090A203890ED011AD0ED8A
:10684000031A21EE000A30EEC11A01EE210A80ED92
:10685000020A80ED030A103000F1800690ED011A63
:10686000D0ED031AA0F5827530EEC10A20EE210AA0
:10687000D4ED1D1A01EE210A80ED020A80ED030A13
:1068800096ED0D0A94ED121AB4EEC10AF1EE10FA6B
:106890000BDDD4ED131A95ED011A41EE011AC4ED8A
:1068A000131AE08B401CE0830DE0278494ED131A4B
:1068B00084ED141AE08B608495ED011A21EE011A23
:1068C00084ED131AE783274884ED120A103890EDFF
:1068D000011A30EEC10AD0ED030A20EE200AD4EDF1
:1068E0001E0A01EE200A80ED020A80ED030A00F084
:1068F0003DF896ED0D0A00F085FD84ED0E0A96ED4B
:106900000D0AFBF78BFA84ED0F0AFDF797FA607A10
:1069100010B195ED000A08E0A07A20B194ED1F0AAD
:10692000B1EE400A01E09FED100A42F20F7185EDD1
:10693000010AA08B884203D90020A083A77001E040
:10694000401CA083A079FFF745FCA079FFF71CFA53
:106950006079FFF7CBFEBDE8F04102F087B9000097
:1069600078C0FF1F68CAFF1F000000005C4810B518
:10697000A0F5F071D0ED021A91ED1E0A30EE611A09
:1069800080ED031AD0ED060A90ED040AB0EE603AED
:1069900010EE013A90ED080A9FED522AA0F5B07270
:1069A00060EE022AB0EE610A42EEA10A02EE830A0C
:1069B00080ED050A20EE811AC0ED070A80ED020A7B
:1069C000C0ED060A82ED051A61EE021A92ED061A72
:1069D000BEEE002A01EE821A82ED061ADFED421A9F
:1069E000424B31EE211A82ED071A80ED081A91ED23
:1069F0000F1A243020EE010A91ED0E1A00EE810AE2
:106A000080ED040AD0ED050A20EE801A80ED071A09
:106A1000D0ED080AD0ED061A41EE800AC0ED080A52
:106A200071EE200A10EE902AC0ED090A9A4202DDAA
:106A3000F2EE0E0A06E010EE902A2D4B9A4207D98C
:106A4000FAEE0E0AC0ED090A70EEC10AC0ED080A9E
:106A5000D0ED090A9FED271ADFED271A274B30EEFC
:106A6000811A80ED0C1AD0ED0D0A41EE210A10EECC
:106A7000902AC0ED0D0A9A4204DB9FED211A70EEB8
:106A8000C10A06E0F5EEC00AF1EE10FA03D2DFED1E
:106A90001D0AC0ED0D0A1D4810EE102A1A4C03887D
:106AA000A24215DA10EE102A194CA24210D2B1F906
:106AB000282042F20F74A24207DD01224A8523F00A
:106AC00040020280601C088510BD521C0A8510BD62
:106AD00000220A854A8543F04001018010BD000074
:106AE000E4CAFF1F17B7513863149D43000070417B
:106AF000000070C100004842BEB5A439DB0FC94098
:106B0000DB0FC940000000000000204178C0FF1FDB
:106B1000000020C12DE9F0414C4C00270126A0794E
:106B2000DFF82C813D46052876D2DFE800F0030827
:106B30002131870047A002F0B7F8A67182E04FA08C
:106B400002F0B2F856A002F0AFF8257002F0DCFDBA
:106B500020704128FAD198ED020A022084ED070A3C
:106B6000A07159A002F0A0F860A002F09DF80DE01D
:106B700084F8005002F0C8FD20704228FAD1257038
:106B800098ED020A032084ED080A55E0002759E039
:106B9000D4ED080A94ED070AF2EE041A30EEC01A9A
:106BA000C1EE810AF0EE081A11EE210AC4ED090ABD
:106BB00084ED0A0A10EE900AF9F7DBFB41EC100BAA
:106BC00054A053EC102B02F06FF8A06AF9F7D1FB38
:106BD00041EC100B55A053EC102B02F065F85A490C
:106BE000606A08445949884222D25949A06A8842B9
:106BF0001EDA584988421BD257A002F055F860A00F
:106C000002F052F884F8005002F07EFD20705928FE
:106C100003D04E28F8D10EE013E06748067094EDDB
:106C2000090A84ED180A94ED0A0A84ED190A02E0B3
:106C300062A002F039F80420A071A7E7A57101272E
:106C400000E0A5713846BDE8F08100007CC0FF1F60
:106C5000C4CAFF1F505620766F6C7461676520634D
:106C6000616C6962726174696F6E206973207374FC
:106C70006172746564210D0A00000000506C65614A
:106C8000736520636F6E6E65637420505620566F77
:106C90006C7461676520746F20333056210D0A00D3
:106CA000696620505620766F6C7461676520697341
:106CB000206F6B2C20706C6561736520696E707538
:106CC00074202741270D0A00506C656173652063AD
:106CD0006F6E6E65637420505620566F6C746167DA
:106CE0006520746F20343056210D0A0069662050EB
:106CF0005620766F6C74616765206973206F6B2C0A
:106D000020706C6561736520696E70757420274210
:106D1000270D0A005056566F6C5F43616C695F47E0
:106D200061696E3D252E35660D0A00005056566F7E
:106D30006C5F43616C695F4F66667365743D252EB9
:106D400035660D0A000000001BCD8EC351332200B2
:106D50000000A0410000A0C1505620766F6C746105
:106D600067652063616C6962726174696F6E206926
:106D70007320737563636565646564210D0A0000A3
:106D800053617665207468652063616C6962726125
:106D900074696F6E20706172616D65746572733FA6
:106DA000202D2D3E20496E70757420275927206FA5
:106DB0007220274E270D0A0008C0FF1F505620766C
:106DC0006F6C746167652063616C6962726174697C
:106DD0006F6E206973206661696C6564210D0A001D
:106DE00070B54FF4F8343D492068884201D1012044
:106DF00000E000203A4DA87110B93AA001F054FF0C
:106E0000A879012868D194ED017A404885ED067A89
:106E1000D4ED026AC5ED076AD4ED034AC5ED084A10
:106E200094ED046A85ED096AD4ED053AC5ED0A3A98
:106E3000D4ED065AC5ED0B5A94ED075A85ED0C5A60
:106E400094ED084A85ED0D4AD4ED091AC5ED0E1AE8
:106E500094ED0A3A85ED0F3AD4ED0B2AC5ED102AD0
:106E600094ED0C2A85ED112A94ED0D1A85ED121A78
:106E7000D4ED0E0AC5ED130A94ED0F0A85ED140A40
:106E800080ED007A2248C0ED006A2248C0ED004A39
:106E9000214880ED006A214880ED005A204880EDAD
:106EA000004A2048C0ED001A1F4880ED003A1F48F4
:106EB000C0ED002A1E4880ED002A1E4880ED000A21
:106EC0001D48C0ED003A1D48C0ED005A1C4880ED39
:106ED000001A1C48C0ED000A70BD000000409A4432
:106EE00008C0FF1F546865726520617265206E6F6F
:106EF0002063616C6962726174696F6E2070617287
:106F0000616D6574657273210D0A0000B0C0FF1FCA
:106F1000B4C0FF1FB8C0FF1FBCC0FF1FC0C0FF1F11
:106F2000C4C0FF1FC8C0FF1FCCC0FF1FD0C0FF1FC1
:106F3000D4C0FF1FD8C0FF1FDCC0FF1FE0C0FF1F71
:106F4000E4C0FF1FE8C0FF1F614810B50088624918
:106F500000EE100A5F48F8EE401AC0ED151AB1F8BD
:106F6000562000EE102AB8EE402A80ED162AB1F81D
:106F7000542000EE102AB8EE401A80ED171AB1F82E
:106F8000521000EE101A5249F8EE400A891EC0ED68
:106F9000180A0988514B00EE101A514C0021B8EE26
:106FA000400A80ED190AD0ED1A2A90ED1B3A70EED6
:106FB000E20A30EE430A10EE902A9A4203DC10EE09
:106FC000902AA24202D9C278032A01D3C17003E0F9
:106FD000C0ED182A521CC27010EE102A9A4203DC2F
:106FE00010EE102AA24202D90279032A01D30171BC
:106FF00003E080ED193A521C027190ED183A3949BC
:1070000080ED1A3AD0ED192AC0ED1B2A0978012922
:107010001FD13549F7EE003A91ED010A91ED034A8F
:1070200073EEC00A60EE840A40EE210AC1ED020A46
:10703000C1ED030A103191ED010A73EEC00AD1EDE2
:10704000033A60EEA30A40EE010AC1ED020AC1ED67
:10705000030A264991ED000A254931EE800AD1ED57
:10706000000A244920EE200A80ED1C0A91ED000A56
:10707000214932EE000AD1ED000A204920EE200A13
:1070800080ED1D0A91ED000A1D4931EE000AD1ED97
:10709000000A1C4920EE200A80ED1E0A91ED000A2C
:1070A000194933EE000AD1ED000A20EE200A80EDE6
:1070B0001F0A164890ED000A154832EE800AD0EDFE
:1070C000000A044820EE200A803080ED000A10BD3E
:1070D0005C04044004C9FF1F000004400000FA43A0
:1070E0000000FAC37EC0FF1FC4CAFF1F34C0FF1FC9
:1070F00030C0FF1F4CC0FF1F48C0FF1F54C0FF1F00
:1071000050C0FF1F3CC0FF1F38C0FF1F44C0FF1FFF
:1071100040C0FF1F2DE9FF416A4D06460C46286816
:107120000027009068680190A8680290E86811F054
:10713000E06F039012D0C4F3026001280ED0022841
:107140000CD003280AD0042808D0052806D0062829
:1071500004D040F22E215CA0FBF790F814F0700FE1
:1071600012D0C4F3021001280ED002280CD003283C
:107170000AD0042808D0052806D0062804D040F2FA
:107180002F2151A0FBF77AF814F4E02F12D0C4F3AA
:10719000024001280ED002280CD003280AD004286F
:1071A00008D0052806D0062804D04FF40C7146A05C
:1071B000FBF764F8600712D004F0070001280ED036
:1071C00002280CD003280AD0042808D0052806D0AD
:1071D000062804D040F231213BA0FBF74FF814F40D
:1071E000E06F12D0C4F3022001280ED002280CD088
:1071F00003280AD0042808D0052806D0062804D081
:1072000040F2322130A0FBF739F814F4E04F12D0ED
:10721000C4F3023001280ED002280CD003280AD073
:10722000042808D0052806D0062804D040F23321CF
:1072300025A0FBF723F83248064204D14FF40D7124
:1072400021A0FBF71BF8DFF8BC80B8F8FE03C007ED
:1072500004D140F235211CA0FBF710F898F8260065
:1072600000F00700052811D128690127C00704D1C3
:107270004FF40F7114A0FBF701F823482860C012E7
:107280006860A860E8601E20FBF736F8D8F8201088
:107290003440B1432143C8F820101E20FBF72CF8DE
:1072A000002F0DD000982860019868600298A860AF
:1072B0000398E86004B01E20BDE8F041FBF71CB85D
:1072C000BDE8FF81008004402E2E5C2E2E5C2E2E09
:1072D0005C2E2E5C647269766572735C686333320F
:1072E0005F6C6C5F6472697665725C7372635C6814
:1072F0006333325F6C6C5F636C6B2E630000000065
:1073000077770707004005400EFAFFFF2DE9FF41A0
:107310002B4C05004FF0000720680090606801903A
:10732000A0680290E06803900ED0012D0CD0022DD1
:107330000AD0032D08D0042D06D0052D04D04FF41B
:10734000E37120A0FAF79AFF2C4EB6F8FE03C007AF
:1073500004D140F2C7111BA0FAF790FF96F826005F
:1073600000F00700052801D0052D11D12069012763
:10737000C00704D140F2CF1112A0FAF77FFF2048D6
:107380002060C0126060A060E0601E20FAF7B4FFC9
:1073900086F826501E20FAF7AFFF002F0DD0009878
:1073A0002060019860600298A0600398E06004B0DB
:1073B0001E20BDE8F041FAF79FBFBDE8FF81000045
:1073C000008004402E2E5C2E2E5C2E2E5C2E2E5C19
:1073D000647269766572735C686333325F6C6C5F8C
:1073E0006472697665725C7372635C686333325F82
:1073F0006C6C5F636C6B2E63000000000040054006
:107400000EFAFFFF10EE101A1748814204DDDFED7F
:10741000170A70EEC00A01E0F0EE400A10EE901A72
:10742000134A1144B1F5000F03D29FED121A71EE09
:10743000600ADFED111AB6EE001A104A00EEA11A2A
:10744000FCEEC10A10EE901A89B202EB8101D1ED77
:10745000000A10EE101A814202DBB1EE600A70479A
:10746000B0EE600A70470000DB0F4940DB0FC940F7
:1074700024F036C0DB0F494083F92243ECC0FF1FE4
:107480002DE9F04F5F4B0E462DED048B074685B07E
:107490000FCB8DE80F005C484FF0FF39874204D0D6
:1074A00040F2452159A0FAF7E9FED6E90045002C43
:1074B00067D0002DFCD0786910F4600710D0B7F5C4
:1074C000001F0DD0B7F5C00F0AD0B7F5200F07D0B9
:1074D000B7F5400F04D040F24B214CA0FAF7CEFE96
:1074E000780DB7EE009A3DF810704FF0000B05FBD9
:1074F00007F04FEA400AB4FBFAF0401EFF2848D8D4
:10750000B4FBFAF20AFB1241B060C9B3FB194BEBB2
:107510000B01401CA3FB002801FB00804BF1000C79
:1075200003FB0C03A2FB050C03FB05C302FB0B31A1
:107530000902020241EA10615FEA5B034FEA34008C
:10754000101804919046594122460023F8F7B8FEDE
:1075500080387F281DD8F0608030A0FB04534BF1A9
:10756000000202FB043200FB0B2440460499F8F7AA
:10757000F4FE41EC180B28462146F8F7EEFE2FE00A
:1075800000E038E09FED2F0A4FF0000986ED040A75
:1075900031E004EB84004100B1FBFAF00A21401D08
:1075A000B0FBF1F0401EFF2825D85946FA19B0600B
:1075B0004BEB0103401CA2FB007803FB00804BF166
:1075C000000C02FB0C02A7FB050302FB053207FBC4
:1075D0000B21F8F7C2FE41EC180B2046F8F7B0FE7D
:1075E00053EC182BF8F73CFFF8F7D6FE00EE100A24
:1075F00030EE490AC8E705B04846BDEC048BBDE84B
:10760000F08F0000389B000000CC01402E2E5C2E35
:107610002E5C2E2E5C2E2E5C647269766572735C15
:10762000686333325F6C6C5F6472697665725C7339
:1076300072635C686333325F6C6C5F757361727424
:107640002E6300000000000010EE100AF6EE000AA3
:10765000114920EE201AA1EB600000EE100AF7EEAF
:10766000080A21EE002AF0EE601A42EE401A21EEDE
:10767000800AF0EE601A21EE002A42EE401A21EE56
:10768000800A21EE001A41EE400AB7EE001A60EEC1
:10769000800A81EE200A7047865A375F30B51B4852
:1076A0000068C1071A4801D01A4900E01A49416030
:1076B0001A4991F826204FF4004402F00703184AB3
:1076C000062B07D2DFE803F0030507050709416829
:1076D0001AE0026030BD046030BDD1F80031C3F360
:1076E0000824D1F80031D1F800111B0F0D4D01F025
:1076F0001F01ED6905B14268491CB2FBF1F1641C40
:1077000061435B1CB1FBF3F1016030BD84060140B5
:1077100000C0FF1F0024F400002D3101004005408F
:1077200000127A000020A842064800B5016841F422
:1077300070010160FFF7B2FF024900208039086044
:1077400000BD000088ED00E02DE9F041814C824F42
:107750000126207A002505287AD2DFE800F003E42C
:10776000E7ECF200E078002818D1E6707BA001F089
:107770009BFA85A001F098FA8FA001F095FA9AA0E3
:1077800001F092FAA4A001F08FFAAFA001F08CFAF8
:10779000B9A001F089FAC4A001F086FA01F0B4FFA3
:1077A0006070312813D0322813D0332816D03428F3
:1077B00016D0352817D036281AD054280CD1257267
:1077C000A5706570BDE8F041C3A001F06DBA2672E6
:1077D00001E0022005E06570BDE8F081032000E0D3
:1077E00004202072F7E7657025723E70E570F3E7BC
:1077F000E06BF8F7BEFD41EC100BBEA053EC102B74
:1078000001F052FA206CF8F7B4FD41EC100BBFA068
:1078100053EC102B01F048FA606BF8F7AAFD41EC2D
:10782000100BC0A053EC102B01F03EFAA06BF8F740
:10783000A0FD41EC100BC1A053EC102B01F034FA69
:10784000606CF8F796FD41EC100B53EC102B00E048
:1078500075E0C0A001F028FAA06CF8F78AFD41ECB1
:10786000100BC2A053EC102B01F01EFAE06CF8F7DD
:1078700080FD41EC100BC3A053EC102B01F014FA67
:10788000206DF8F776FD41EC100BC4A053EC102BE3
:1078900001F00AFA606DF8F76CFD41EC100BC5A021
:1078A00053EC102B01F000FAA06DF8F762FD41ECEB
:1078B000100BC6A053EC102B01F0F6F9206EF8F770
:1078C00058FD41EC100BC7A053EC102B01F0ECF964
:1078D000606EF8F74EFD41EC100BC8A053EC102B76
:1078E00001F0E2F9A06EF8F744FD41EC100BC9A0DD
:1078F00053EC102B01F0D8F9E06EF8F73AFD41ECAB
:10790000100BCAA053EC102B01F0CEF9E06DF8F784
:1079100030FD41EC100BCBA053EC102B01F0C4F95F
:107920002572657062E7FCF71FF901E0FFF7F2F8D6
:10793000012804D050E7F9F743F8F9E701E0257290
:1079400054E7FAF725F925723E70E570C3A001F0FF
:10795000ABF9F4E77CC0FF1F08C0FF1F506C6561E6
:1079600073652053656C65637420546865204361BA
:107970006C6962726174696F6E20506172616D65CD
:107980007465723A200D0A004772696420766F6C44
:10799000746167652063616C69627261746520203F
:1079A000202020202020202D2D3E20496E7075742F
:1079B00020273127200D0A00505620766F6C746105
:1079C00067652063616C69627261746520202020A4
:1079D000202020202020202D2D3E20496E707574FF
:1079E00020273227200D0A0041432043757272651B
:1079F0006E74206F66667365742063616C69627271
:107A0000617465202020202D2D3E20496E707574F4
:107A100020273327200D0A00577269746520696E8C
:107A2000697469616C20706172616D6574657273EF
:107A3000202020202020202D2D3E20496E7075749E
:107A400020273427200D0A0057726974652063616E
:107A50006C6962726174696F6E20706172616D65CC
:107A6000746572732020202D2D3E20496E70757430
:107A700020273527200D0A00446973706C61792036
:107A800063616C6962726174696F6E2070617261AA
:107A90006D6574657273202D2D3E20496E7075746E
:107AA00020273627200D0A00457869742063616C11
:107AB0006962726174696F6E206D6F646520202049
:107AC000202020202020202D2D3E20496E7075740E
:107AD00020275427200D0A0063616C69627261746B
:107AE000696F6E206D6F64652069732045786974D5
:107AF00021000000494642315F4741494E3A20206B
:107B00002020252E35660D0A00000000494642312E
:107B10005F4F46465345543A2020252E35660D0AC0
:107B200000000000494642325F4741494E3A20205A
:107B30002020252E35660D0A0000000049464232FD
:107B40005F4F46465345543A2020252E35660D0A90
:107B50000000000049474C5F4741494E3A20202031
:107B60002020252E35660D0A0000000049474C5F95
:107B70004F46465345543A202020252E35660D0A9F
:107B8000000000004947525F4741494E3A202020FB
:107B90002020252E35660D0A000000004947525F5F
:107BA0004F46465345543A202020252E35660D0A6F
:107BB000000000004950565F4741494E3A202020BE
:107BC0002020252E35660D0A000000004950565F22
:107BD0004F46465345543A202020252E35660D0A3F
:107BE000000000005650565F4741494E3A20202081
:107BF0002020252E35660D0A000000005650565FE5
:107C00004F46465345543A202020252E35660D0A0E
:107C10000000000056475249445F4741494E3A2010
:107C20002020252E35660D0A0000000056475249D7
:107C3000445F4F46465345543A20252E35660D0A7B
:107C4000000000005A43445F43414C5F4741494EA6
:107C50003A20252E35660D0A00000000577269741F
:107C6000696E6720496E697469616C207061726128
:107C70006D657465727320697320646F6E65210D84
:107C80000A00000070B5054642480C466FF0020637
:107C9000854210D0404885420DD0404885420AD0E8
:107CA0003F48854207D03F48854204D04FF48E714B
:107CB0003DA0FAF7E3FA002C35D02078002834D024
:107CC000012807D04FF48F7137A0FAF7D7FA207840
:107CD00000282AD0A08830B1400B04D040F22911EE
:107CE00031A0FAF7CBFAE08830B1400B04D040F273
:107CF0002B112DA0FAF7C2FAA088A5F88800E08819
:107D0000A5F88C00207B012805D020B14FF4997193
:107D100025A0FAF7B3FA207B85F881002846A168F0
:107D200000F05EF80026304670BDA07830B104281F
:107D300004D040F221111CA0FAF7A0FAE07830B18B
:107D4000022804D04FF4917117A0FAF797FA6178DE
:107D5000C1B1102916D0202914D0302912D04029C1
:107D600010D050290ED060290CD070290AD080295B
:107D700008D0902906D0A02904D040F223110AA0EF
:107D8000FAF77CFAA078E17808436178084385F82F
:107D90008000B7E700A0034000A4034000A8034010
:107DA00000AC0340006002402E2E5C2E2E5C2E2E76
:107DB0005C2E2E5C647269766572735C6863333224
:107DC0005F6C6C5F6472697665725C7372635C6829
:107DD0006333325F6C6C5F746D72612E6300000000
:107DE00070B504460B480D46844210D00A488442C0
:107DF0000DD00A4884420AD00948844207D0094875
:107E0000844204D040F2553107A0FAF737FA656092
:107E100070BD000000A0034000A4034000A8034080
:107E200000AC0340006002402E2E5C2E2E5C2E2EF5
:107E30005C2E2E5C647269766572735C68633332A3
:107E40005F6C6C5F6472697665725C7372635C68A8
:107E50006333325F6C6C5F746D72612E630000007F
:107E600010B504460C48844210D00C4884420DD012
:107E70000B4884420AD00B48844207D00A48844207
:107E800004D040F29C4109A0FAF7F8F914F8800FE9
:107E900040F00100207010BD00A0034000A403408A
:107EA00000A8034000AC0340006002402E2E5C2E70
:107EB0002E5C2E2E5C2E2E5C647269766572735C6D
:107EC000686333325F6C6C5F6472697665725C7391
:107ED00072635C686333325F6C6C5F746D72612EC9
:107EE000630000006FF0020150B100210170417089
:107EF00081700222C2708180C1804A1E826001733B
:107F0000084670471048C18D132902D2491CC1850B
:107F100070470021C185028E632A02D2521C02865C
:107F200070470186428E092A02D2521C428670474F
:107F30004186828E41F270739A4202D2521C82862E
:107F4000704781867047000004C9FF1F1FB50121DB
:107F50000805FBF7BDF96846FFF7C4FF00208DF860
:107F600001008DF8020002208DF8030041F27070CC
:107F7000044C029069462046FFF784FE2046FFF736
:107F80006FFF1FBD00A003402DE9F04F05465F487D
:107F90000E462DED048B83B04FF0FF3985420DD096
:107FA0005B4885420AD05B48854207D05A488542E3
:107FB00004D04FF4CE7159A0FAF760F9D6E9004722
:107FC000002C6BD0002F69D0E868C0F3C032C2F13A
:107FD00002007843C0008246B4FBFAF1491EFF2933
:107FE0005CD8B4FBF0F30AFB1340B16080B34FF0F0
:107FF000000B02255846D2EB05056BEB0003DA00B7
:1080000042EA5572ED00491CA5FB0138CDE900524A
:1080100002FB01814BF1000C05FB0C12A3FB0715C1
:1080200002FB075203FB002215020A0245EA116512
:1080300041084FEA34008018904669410022D0F18F
:10804000FF338A4108D222460023F8F739F905E0C8
:10805000FFE79FED400A1DE0B0FBF4F08038B7EE7B
:10806000009A7F281BD8294680254719F060A7FB76
:10807000040C4BF1000505FB04C407FB0B44074649
:108080004046F8F76AF941EC180B38462146F8F7F4
:1080900064F929E086ED040A4FF000092FE004EBB3
:1080A00084004100B1FBFAF00A21401DB0FBF1F061
:1080B000401EFF2823D8B060DDE90052401CA5FB1C
:1080C000003802FB00804BF1000C05FB0C02A3FB07
:1080D000070502FB075203FB0B21F8F73EF941ECC1
:1080E000180B2046F8F72CF953EC182BF8F7B8F9D1
:1080F000F8F752F900EE100A30EE490ACAE703B069
:108100004846BDEC048BBDE8F08F000000CC014078
:1081100000D0014000D4014000D801402E2E5C2E3A
:108120002E5C2E2E5C2E2E5C647269766572735CFA
:10813000686333325F6C6C5F6472697665725C731E
:1081400072635C686333325F6C6C5F757361727409
:108150002E630000000000002DE9F047DFF8BC901E
:10816000DFF8BCA02F4FDFF8C08016460D4604464E
:1081700048450AD0544508D0BC4206D0444504D0F6
:1081800040F2AC4129A0FAF779F836B1012E04D0BB
:1081900040F2AD4125A0FAF771F815B1314805421A
:1081A00004D040F2AE4121A0FAF768F854450DD052
:1081B000BC420BD0444518D02B48054204D040F2B5
:1081C000AF411AA0FAF75AF84C450ED054450CD0DE
:1081D000BC420AD0444508D04C4501D0A80704D081
:1081E0004FF4966111A0FAF749F82804000C04D066
:1081F000E168012E0DD08143E16044F21E1010EAC7
:10820000154004D02169012E05D081432161BDE8CC
:10821000F0870143F0E70143F8E7000000CC01409C
:1082200000D0014000D4014000D801402E2E5C2E29
:108230002E5C2E2E5C2E2E5C647269766572735CE9
:10824000686333325F6C6C5F6472697665725C730D
:1082500072635C686333325F6C6C5F7573617274F8
:108260002E63000010FEC1BE00001E410348006ADC
:10827000C0F3021102480068C84070470040054042
:1082800000C0FF1F10B50446114884420DD01148AC
:1082900084420AD01048844207D01048844204D057
:1082A00040F29B210E48F9F7E9FF2046FFF7DEFF79
:1082B0000146A069C006A06903D500F00302802032
:1082C00002E08007420F01209040B1FBF0F010BDAA
:1082D00000CC014000D0014000D4014000D8014052
:1082E0008083000070B504461448844213D0144EB5
:1082F000144DB44206D0AC420DD04FF4FD6112A033
:10830000F9F7BCFFB44206D0AC4204D040F2B6212B
:108310001BA0F9F7B3FF2046FFF7A8FFA169C1F33F
:10832000810201219140B0FBF1F0E1690904090CDF
:1083300002D0B0FBF1F070BD002070BD00D0014054
:1083400000D4014000D801402E2E5C2E2E5C2E2E33
:108350005C2E2E5C647269766572735C686333327E
:108360005F6C6C5F6472697665725C7372635C6883
:108370006333325F6C6C5F75736172742E630000DF
:108380002E2E5C2E2E5C2E2E5C2E2E5C6472697658
:108390006572735C686333325F6C6C5F64726976BC
:1083A00065725C7372635C686333325F6C6C5F75BB
:1083B000736172742E63000070B586B015460E00AE
:1083C000044604D140F2C2612BA0F9F757FF3848A8
:1083D00084420DD0374884420AD03748844207D0BF
:1083E0003648844204D040F2C36123A0F9F746FF27
:1083F000E06810F00C0F04D040F2C4611EA0F9F741
:108400003DFF2046FFF73EFFCDE900069FED2C0A19
:10841000FF208DED040A0390E06810F0807F05D006
:1084200069462046F9F7FAFB58B11CE060696946D5
:108430008006204602D4FFF7A7FDF5E7FFF720F8F6
:10844000F2E7DDE9022141EA02214FF67F72A368DB
:10845000114093431943A1600399FF2903D0E168B8
:1084600041F00051E160002D03D09DED040A85ED3F
:10847000000A06B070BD00002E2E5C2E2E5C2E2E43
:108480005C2E2E5C647269766572735C686333324D
:108490005F6C6C5F6472697665725C7372635C6852
:1084A0006333325F6C6C5F75736172742E630000AE
:1084B00000CC014000D0014000D4014000D8014070
:1084C0000000000070B5044614480D4684420DD0EB
:1084D000134884420AD01348844207D01248844289
:1084E00004D040F2EF5111A0F9F7C8FEE06810F097
:1084F0000C0F04D04FF4BE610CA0F9F7BFFE132D92
:1085000004D940F2F15109A0F9F7B8FEA06905F0CD
:10851000130120F013000843A06170BD00CC01409E
:1085200000D0014000D4014000D801402E2E5C2E26
:108530002E5C2E2E5C2E2E5C647269766572735CE6
:10854000686333325F6C6C5F6472697665725C730A
:1085500072635C686333325F6C6C5F7573617274F5
:108560002E6300002DE9F041054616460C006FF021
:1085700002007DD04F4885420DD04F4885420AD039
:108580004E48854207D04E48854204D040F299318A
:108590004CA0F9F773FE20684FF48057B84205D01D
:1085A00020B140F29A3147A0F9F768FEA068B0F513
:1085B000006F05D020B140F29B3142A0F9F75EFE7A
:1085C000A069B0F5C06F08D0B0F5806F05D020B1BC
:1085D0004FF467713BA0F9F751FE206930B1B84202
:1085E00004D040F29D3137A0F9F748FE606938B1F8
:1085F000B0F5005F04D040F29E3132A0F9F73EFEA4
:10860000E069B0F5004F05D020B140F29F312DA0B8
:10861000F9F734FE206AB0F1805F05D020B14FF445
:10862000687128A0F9F72AFE606A38B1B0F1004FEE
:1086300004D040F2A13123A0F9F720FEA06A68B16E
:10864000B0F5007F0AD0B0F5807F07D0B0F5407F4D
:1086500004D040F2A2311BA0F9F710FE2169A069F5
:108660000843D4E9072111430843616A084300E045
:108670000DE0A26821681143626942F4C0621143AF
:10868000A26AE86029616A61206810B10020BDE833
:10869000F0816068132804D94FF46C7109A0F9F7D0
:1086A000EDFD6068A86132462846E168BDE8F0410A
:1086B000FFF782BE00CC014000D0014000D4014051
:1086C00000D801402E2E5C2E2E5C2E2E5C2E2E5CB1
:1086D000647269766572735C686333325F6C6C5F79
:1086E0006472697665725C7372635C686333325F6F
:1086F0006C6C5F75736172742E6300006FF0020121
:1087000080B1002101604FF416524160C0E90212AD
:10871000016141618161C161016211064162C90D5E
:1087200081620021084670472DE9F04F4FF00009A3
:108730009FED7B2A7C497B4CF7EE001A01F1800308
:10874000A1F18002012874D1507A957A284370D023
:1087500092F81AC04FF0010B4FF0030A4FF0020ECF
:108760009FED720A4CF2CE15F5EE0C0A48F2CE26B9
:108770009FED6F1A01F5F470DFED6E2A006844F288
:10878000CE37BCF1050F70D2DFE80CF00317427052
:10879000A000694EB04202DC684EB0420AD982F8AD
:1087A0001AB0D1ED130A30EE801A70EE821AC1EEC3
:1087B000210A4FE0C3ED001A22E0614FB84202DC0B
:1087C000604FB84208D982F81AE091ED131A71EEA1
:1087D000201A31EE001A6CE05B4EB04215DA5B4EA7
:1087E000B04212D282F81A90D1ED130A30EE821AFA
:1087F00070EE800A81EE200AF1EEC00AC3ED000A95
:1088000081ED1D2ACC67BDE8F08FC3ED001A25E08D
:108810004F4CA04202DC4F4CA0420BD982F81AA068
:1088200091ED130A70EE011A70EE200A81EEA00A93
:108830005CE070E0484CA04214DA484CA04211D2EF
:1088400082F81AB091ED131A71EE001A31EE201A67
:10885000C1EE810AB1EEE01A83ED001A81ED1D0A26
:10886000CD67D0E7C3ED001A29E04FE03C4CA042B1
:1088700002DC3C4CA0420ED90420907691ED130A04
:1088800070EE220A30EE011A80EE810AF1EEC00A83
:10889000C3ED000A34E0344CA04214DA334CA04259
:1088A00011D282F81AE091ED130A70EE201A30EE20
:1088B000011A81EE810AB1EEC01A83ED001AC1EDF2
:1088C0001D0ACE679FE7C3ED001A13E0284CA042B3
:1088D00014DA284CA04211D282F81AA091ED130AA2
:1088E00070EE010A70EE221A80EEA10AF1EEC00AC3
:1088F000C3ED000A81ED1D1ACF6784E7C3ED001AAE
:10890000C1ED1D2A40F2CE40C8677CE7C3ED001AD6
:1089100082F81A9074E79FED180A81ED1E0AF5E7B8
:108920006666763FCE3F010084C9FF1FCDCC1C3F59
:108930006666863E3333B33DEC51B83DEC51B8BD6D
:108940000AD7233E0AD723BE295C8F3D295C8FBD01
:108950001F856B3E1F856BBE295C0F3E295C0FBED9
:1089600052B89E3E52B89EBE3D0A573E3D0A57BE83
:10897000E17A943EE17A94BE3333333F00B585B05B
:1089800001200090202001904FF4706002900020A0
:1089900003904FF000400490684600F00DF805B0D9
:1089A00000BD0000034840F22311816043F2102112
:1089B000816070470090044070B504004FF00005DE
:1089C00079D0206848B1012807D0022805D00328B3
:1089D00003D09D2139A0F9F751FC6068202811D0FF
:1089E00060280FD070280DD080280BD0902809D097
:1089F000A02807D0B02805D0D02803D09E212FA0D2
:108A0000F9F73CFCA168B1F5706F2DD0B1F5807F0E
:108A10002AD0B1F5007F27D0B1F5407F24D0B1F541
:108A2000806F21D0B1F5A06F1ED0B1F5C06F1BD003
:108A3000B1F5E06F18D0B1F5006F15D0B1F5106F3A
:108A400012D0B1F5206F0FD0B1F5306F0CD0B1F569
:108A5000406F09D0B1F5506F06D0B1F5606F03D00B
:108A60009F2116A0F9F70AFCE06830B1B0F5803F0D
:108A700003D0A02111A0F9F701FC206930B1B0F1B9
:108A8000004F03D0A1210DA0F9F7F8FBD4E90001B4
:108A90000843D4E9021211430843216908431549E8
:108AA000084015490A68134BDB431A40104308601D
:108AB000284670BDFFE76FF00205F9E72E2E5C2E09
:108AC0002E5C2E2E5C2E2E5C647269766572735C51
:108AD000686333325F6C6C5F6472697665725C7375
:108AE00072635C686333325F6C6C5F7764742E63AF
:108AF00000000000F30F0180009004403A4810B5D8
:108B000040F22311016043F2102101600120F9F7C6
:108B100021FD01211F20F9F76FFF4FF4F8342046A3
:108B2000F9F786FE31492046F9F7ECFD3048016837
:108B3000201DF9F7E7FD2F4801682F48F9F7E2FDFE
:108B40002E4801682C48001DF9F7DCFD2C4801680F
:108B500029480830F9F7D6FD2A48016826480C3024
:108B6000F9F7D0FD2848016823481030F9F7CAFD0D
:108B70002648016820481430F9F7C4FD24480168EC
:108B80001D481830F9F7BEFD224801681A481C300C
:108B9000F9F7B8FD2048016817482030F9F7B2FD11
:108BA0001E48016814482430F9F7ACFD1C480168E0
:108BB00011482830F9F7A6FD1A4801680E482C30F4
:108BC000F9F7A0FD184801680B483030F9F79AFD15
:108BD0001648016808483430F9F794FDBDE81040A4
:108BE00013A000F061B800000004014000409A4466
:108BF000B0C0FF1FB4C0FF1F08F00100B8C0FF1FC6
:108C0000BCC0FF1FDCC0FF1FE0C0FF1FC0C0FF1FB4
:108C1000C4C0FF1FC8C0FF1FCCC0FF1FD0C0FF1FB4
:108C2000D4C0FF1FE4C0FF1FE8C0FF1FD8C0FF1F54
:108C300057726974696E67207468652063616C6936
:108C400062726174696F6E20706172616D657465C6
:108C5000727320746F20666C61736820697320736F
:108C600075636365737366756C0D0A000A48F0EEF0
:108C7000000A0B4990ED020A084830EE600AD0ED78
:108C8000000A20EE200ABCEEC00A10EE100A888509
:108C9000044908807047000068CAFF1F58C0FF1FC2
:108CA00004C9FF1F001004400FB4054B10B503A901
:108CB000044A029800F004F910BC5DF814FB0000AF
:108CC00045970000BCCBFF1F002809DB00F01F0206
:108CD000012191404009800000F1E020C0F880129D
:108CE0007047002809DB00F01F0201219140400974
:108CF000800000F1E020C0F8001170470907090E5C
:108D0000002804DB00F1E02080F80014704700F038
:108D10000F0000F1E02080F8141D704702E008C841
:108D2000121F08C1002AFAD170477047002001E0E5
:108D300001C1121F002AFBD1704700002DE9FF5F1F
:108D400082B00021DDE90430020DDDF840B00343BC
:108D500018D044F61050A2F2FF3242431514119875
:108D600001281FD0A5EB0B00401C5FEA000A4FF062
:108D700000064E4FDFF83891B046504615D5CAF17F
:108D8000000413E0119801244AA3012801D16FEADD
:108D90000B010298119AC0E90031C0E9024206B005
:108DA000BDE8F09FCBF10000DFE704460021404A18
:108DB000491842EB0450CDE9001012E0E00707D05B
:108DC00032463B4640464946F7F704FD8046894611
:108DD00032463B4610461946F7F7FCFC06460F465E
:108DE0006410002CEAD1DDE90401DDE90023BAF1C9
:108DF000000F06DAF7F7EEFC42464B46F7F7EAFCBF
:108E000005E0F7F72DFB42464B46F7F729FB0446F2
:108E10000E460022284BF7F767FD03D84FF0FF30CE
:108E2000014607E00022254B20463146F7F72BFC90
:108E3000F7F742FD102409E0002C0ADB0A22002388
:108E4000F7F73EFA039B30321A55641E50EA0102CE
:108E5000F2D1641C039AC4F111031444119A012A3B
:108E600003D0012208430DD10AE0084304D00020BA
:108E70004FF0110B119072E7A3EB0B056D1E0DE087
:108E80005B4504DD4FF0000205F1010504E003DA63
:108E90004FF00002A5F10105002AECD002981199CB
:108EA000C0E90231C0E9004579E700000000144044
:108EB0000000F03F300000000000F0430000E03F01
:108EC0002DE9FF4F95B09B468946064600250FE2E7
:108ED000252877D100242746F84A0121059400E08F
:108EE000044316F8013F203B01FA03F01042F7D18A
:108EF00030782A2811D06FF02F033078A0F130029B
:108F0000092A16D8059A44F0020402EB820203EB08
:108F100042021044761C0590EFE759F8042B0592A5
:108F2000002A03DA504244F40054059044F002044D
:108F3000761C30782E2816D116F8010F44F0040460
:108F40002A280DD06FF02F023078A0F13003092BC2
:108F500009D807EB870302EB4303C718761CF3E736
:108F600059F8047B761C30786C280FD006DC4C282E
:108F700017D068280DD06A2814D104E0742810D0C6
:108F80007A280FD10DE044F400140AE044F4801470
:108F900001E044F440147278824202D104F5801456
:108FA000761C761C307866280BD013DC582877D0D6
:108FB00009DC002875D04528F6D04628F4D047288B
:108FC0001AD19DE118E0632835D0642879D065284E
:108FD00012D195E1702873D008DC6728F1D0692898
:108FE0006FD06E280DD06F2806D1B5E073282CD035
:108FF000752875D0782874D05A46179990476D1CFB
:1090000075E1C4F30250022809D003280DD0D9F825
:10901000001004280DD00D6009F1040967E1D9F8AA
:109020000010EA17C1E90052F6E7D9F800100D80E8
:10903000F2E70D70F0E719F8041B8DF8001000201E
:109040008DF80100EA46012003E059F804AB4FF027
:10905000FF3061074FF0000102D40DE008F101017B
:109060008846B9420FDA8045F8DB1AF80810002963
:10907000F4D108E008F1010188468142FADB1AF8D0
:1090800008100029F6D105985B46A0EB0807214699
:109090003846179A00F094FA284400EB080507E0D8
:1090A0004DE029E10DE01AF8010B5A461799904757
:1090B000B8F10108F7D25B4621463846179A13E10A
:1090C00042E00A220092C4F302524FF0000A022A40
:1090D00008D059F804CB032A4FEAEC710AD00DE00E
:1090E00029E02AE009F1070121F00702F2E802C1B4
:1090F000914609E00FFA8CFC4FEAEC71042A03D187
:109100004FFA8CFC4FEAEC71002907DA0A4600217D
:10911000DCF1000C61EB02012D2202E0220504D5F6
:109120002B228DF80420012203E0E20701D0202247
:10913000F7E7904659E00A2102E010220DE01021E5
:109140004FF0000A00910BE010224FF0000A44F0AB
:1091500004040827009203E008224FF0000A00925E
:10916000C4F30252022A05D059F804CB0021032A85
:1091700008D009E009F1070121F00702F2E802C175
:10918000914605E01FFA8CFC042A01D10CF0FF0C7B
:109190004FF00008220728D5702806D0009B83F0E6
:1091A000100353EA0A0305D00EE040228DF8042094
:1091B000012208E05CEA010206D030228DF804208A
:1091C0008DF8050002229046009B83F0080353EAC5
:1091D0000A030AD15CEA010201D1620705D53022F7
:1091E0008DF804204FF001087F1E582804D034A0C9
:1091F00003900EA802900DE036A0F9E753466046B2
:10920000009AF7F75DF884460398825C0298401E46
:10921000029002705CEA0100F0D1029806A9081AD7
:1092200000F1200A600702D524F4803400E0012711
:10923000574502DDA7EB0A0000E0002000EB0A0121
:10924000009005984144401A0590E00306D45B461F
:109250002146179A059800F0B3F90544002706E067
:1092600001A85A46C05D179990476D1C7F1C474561
:10927000F6DBE0030CD55B462146179A059800F013
:109280009FF9054404E030205A46179990476D1C19
:109290000099481E00900029F5DC08E00298029928
:1092A0005A460078491C0291179990476D1CBAF1F3
:1092B0000001AAF1010AF1DC65E1000009280100C2
:1092C000303132333435363738396162636465663C
:1092D00000000000303132333435363738394142FE
:1092E000434445460000000000F058F90544761C50
:1092F000307800287FF4ECAD19B02846BDE8F08F37
:10930000620700D4062709F1070222F0070CFCE8E7
:109310000223E14603F000485FEA080C02D00FF296
:10932000702C0DE05FEA045C02D50FF2682C07E0B8
:109330005FEAC47C02D00FF2602C01E0AFF2700C47
:109340004FF0FF3823F00043CDF850C065280CD013
:1093500006DC452809D046281DD047283DD13DE0F0
:10936000662818D067287ED138E00021112F01DB54
:10937000112000E0781CCDE9000106A90EA8FFF736
:10938000DDFCDDE90F010E9A03910021009207F147
:10939000010A04914DE04FF000400097CDE9011023
:1093A00006A90EA8FFF7CAFCDDE90F0203920E9B87
:1093B00011990022DDF80CA00093049211B9791CD8
:1093C00000EB010AB7EB0A0004D4C0F1FF3007F14B
:1093D000010A0490AAEB0700019044E0012F00DA93
:1093E00001270021112F01DD112000E03846CDE9D1
:1093F000000106A90EA8FFF7A1FCDDE90F010E9AF6
:109400000391002104910092BA4621070CD40399DC
:10941000514500DA8A46BAF1010F05DD009AAAF13A
:109420000101515C302908D0B84202DA10F1040F72
:1094300006DA0121CDE9011015E0AAF10101E9E701
:10944000002805DC049901440491AAEB000102E024
:10945000411C514500DD8A460499401A401C019088
:109460004FF000400290200704D40198504501DBE2
:10947000CDF8048000208DF84F0002980DF14F07C1
:10948000B0F1004F25D02B200E9002984FF002082B
:1094900000280CDA404202902D200E9007E00A21AD
:1094A0000298F6F795FF3031029007F8011DB8F1E8
:1094B0000001A8F10108F2DC02980028EFD1791E22
:1094C0000E980870307800F0200040F0450007F852
:1094D000020D12A8C01B00F107081498007800B113
:1094E000012000EB0A01019801EBE071059841446D
:1094F000401A401E0590E00306D45B462146179AA9
:10950000059800F05DF805441498007818B15A46A3
:10951000179990476D1CE00324D55B462146179AA6
:10952000059800F04DF805441CE00498002807DB7E
:10953000DDE90301884203DD0098405C179901E0F2
:10954000179930205A469047049805F10105401CB0
:1095500004900198401E019004D12E205A4617997C
:1095600090476D1CBAF10001AAF1010ADDDC05E0AB
:1095700017F8010B5A46179990476D1CB8F1000176
:10958000A8F10108F4DC5B462146179A0598ABE682
:109590002D0000002B000000200000002DE9F0410C
:1095A000044600251E461746880404D405E03946C3
:1095B0002020B0476D1C641EF9D52846BDE8F08117
:1095C0002DE9F041044600251E469046C80301D50A
:1095D000302700E02027880404D505E041463846BE
:1095E000B0476D1C641EF9D52846BDE8F081000027
:1095F00070B53A4D28683A49C043820639484FF061
:1096000000042FD4EA880123D2B2374E412A18D061
:10961000532A18D0354E432A13D0442A13D0422A55
:1096200012D00346582A1B6910D0592A10D003467D
:10963000DFED2F0A93ED050A482A0CD04D2A0DD0F4
:1096400010E0337000E0347043710EE09B1C00E0CA
:109650009B1E036106E030EE200A01E030EE600A56
:1096600080ED050A4279012A1FD1224A9FED240A82
:1096700012780A70204A1288130A4B708A70028A84
:10968000130ACB700A7182794A711C4AD2ED000A22
:1096900020EE800ABCEEC00A10EE102A120A8A716F
:1096A00010EE102ACA710C724C722A6812060CD580
:1096B0004279012A09D10289895CA980521C91B2A0
:1096C0000181092901D9447104810E48C06801282B
:1096D00003D1E86840F40020E86070BD00D001408C
:1096E000C0CBFF1F08C0FF1F04C9FF1F5CC0FF1FC6
:1096F000CDCCCC3D1DC9FF1F78C0FF1FF4C9FF1F93
:1097000000007A4400003A4210B5FFF74BF90A48CE
:10971000C1680A48012903D1C16841F40021C16030
:109720000168C943890604D4C0880549C0B20871DC
:1097300010BD002010BD000000003A4200D00140E2
:109740007CC0FF1F10B50446C0B2F8F7B5FD10B1DC
:109750004FF0FF3010BD204610BD00004720FCF741
:10976000CFF9F7F77FFD0120F8F794FF0120F8F714
:10977000B9FE0120F8F756FF324A4FF4E131324882
:10978000FCF7F8F9FDF72CFBF9F70AFFF8F70CFBEB
:10979000F8F7D2FDF7F7B0FCFAF79CFCF7F742FDBB
:1097A000F9F7CAFC2948FAF7BDFD2948FAF7BAFDCE
:1097B000FEF7CCFB27A0FFF777FA334C0025334F99
:1097C000334E65704FF00108A078398888420CD07C
:1097D000E078401CC0B2E0700A2806D984F8018005
:1097E00035702CA0FFF760FAE5703878A070FFF7AD
:1097F0008BFF592805D060780028E5D0307830B14B
:1098000008E084F8018086F80080E5700FE0FFF73B
:10981000B5F809E03078012809D0FFF7E9FE00BF6C
:1098200000F04AF8FCF730F9FFF7BCF8F2E7FDF773
:109830008BFF20780128F3D1FFF760F9FDF7D0FA0C
:109840002570EDE70913000000D0014000C003407F
:1098500000CC0340696620676F696E6720696E748B
:109860006F2043616C6962726174696F6E204D6F25
:1098700064652C20506C6561736520696E70757429
:1098800020275927210D0A0008C0FF1F38C9FF1FD4
:109890007EC0FF1F43616C6962726174696F6E20E4
:1098A0006D6F6465206973206E6F7420656E6162F0
:1098B0006C6564210D0A00002DE9F0418E482DED04
:1098C000028B90ED020AD0ED060A20EE000A00EEAF
:1098D000A00AFDF7B9FEDFED890A894C20EE200AC7
:1098E00084ED030ADFED870A04F18006A4F1800508
:1098F00020EE200A002786ED140A288C01282DD19D
:109900002F84688CF0B300EE100AD5ED140AB8EE7F
:10991000401A80EE810AFDF797FE86ED100A00BF1F
:10992000D4ED030A20EE200A85ED100A96ED111AF7
:10993000D6ED120A96ED132A70EE011A71EEA01AF6
:1099400071EE821AB5EE002A61EE821AC5ED111A87
:10995000C6ED130A86ED121A86ED110A94ED030A7C
:10996000B5EEC00AF1EE10FA05DDDFED670A80EE14
:10997000801A84ED041A60484C38D0ED080A10EEC5
:10998000900A00E016E0614A9FED611A9FED610ABE
:109990006149904211DADFED611A71EEE00AF3EEEF
:1099A000041A00EEE10A84ED150AD4ED040A20EE53
:1099B000200A06E096ED100AB2E7D4ED040A20EE84
:1099C000800A10EE100A84ED160A884201DD84ED4B
:1099D000161AFCF745FCFCF7DBFD287EF0BB464879
:1099E000F1EE080A7C38B7EE001A90ED020A20EE7C
:1099F000200A86ED0D0A9FED4A8AB5EEC00AF1EE07
:109A000010FA04DDC1EE000AC6ED0E0A01E086ED93
:109A10000E8AD5ED1E0A3848F5EEC00A8830F1EE00
:109A200010FA0BDDC4ED100AD0ED000AF5EEC00A05
:109A3000F1EE10FA0FDDB0EE608A0CE0F1EE600A94
:109A4000C4ED100AD0ED000AF5EEC00AF1EE10FAEE
:109A500001D2B1EE608AD4ED100A00E040E010EED1
:109A6000900AB0F17E5F02DC94ED120A05E0C0EED0
:109A7000201A31EE810A84ED120ADFED2A0A20EE67
:109A8000200A84ED110AA879FEF74EFE94ED100A23
:109A9000D4ED1D0A9FED242A28EE000A012020EEB5
:109AA000201AD6ED0D0A00EE880AD5ED1C0A60EEEC
:109AB000A00A60EE001A20EE822A42EE011AB1EEF0
:109AC000E11A31EE000A9FED191A20EE811AC0EE5C
:109AD000010A94ED1E0A20EE800A86ED0F0A287610
:109AE000A878012803D1E879FCF788F8AF70BDECBD
:109AF000028BBDE8F0810000E4CAFF1FF4FD343F93
:109B000084C9FF1FBC74933BF4FDB43F000028429E
:109B1000CDCC4C400000FA43CDCC4C400000284254
:109B2000000000003333333F9A9919409A99993FC6
:109B30000010044000140440200040005D0080003C
:109B4000BA0000017401000200CC014000D00140C5
:109B500000D4014000D80140789B000008C0FF1FDE
:109B6000B80B000060090000C8A20000C0CBFF1FB6
:109B7000500C00002C8D00000214000103CD3F00AA
:109B80000100FF008010C93B8010493C47CA963C49
:109B9000350AC93C234AFB3CF0C2163DC2DF2F3DCB
:109BA00087FB483D2714623DBB2B7B3D14208A3D3B
:109BB0003FA9963D5130A33D56B6AF3DC93ABC3D95
:109BC00023BDC83DEA3DD53D12BCE13DA838EE3D80
:109BD0009EB2FA3DFB94033E9ACF093EA708103E81
:109BE0006440163ED1761C3EACAB223EF4DE283EED
:109BF000AA102F3E8940353ED66E3B3E4E9B413EDD
:109C0000ACC5473E78EE4D3EE814543E82395A3E8C
:109C1000035C603E6C7C663E789A6C3E6BB6723E2E
:109C2000C0CF783EFBE67E3ECC7D823ECB86853E35
:109C30009B8E883EFB948B3E2C9A8E3EED9D913EF2
:109C40003CA0943E1BA1973E88A09A3E849E9D3ED8
:109C5000ED9AA03EC495A33E088FA63EBA86A93EC3
:109C6000D97CAC3E4371AF3EFA63B23EFC54B53E84
:109C70002844B83EA131BB3E431DBE3E1007C13E45
:109C800007EF00FF00C33E28D5C63E52B9C93E8447
:109C90009BCC3EC07BCF3E045AD23E5036D53E626E
:109CA00010D83E7DE8DA3E7FBEDD3E4792E03EF5CD
:109CB00063E33E6A33E63EC500E93EC5CBEB3E6852
:109CC00094EE3EF35AF13E001FF43ED2E0F63E27FA
:109CD000A0F93E205DFC3EBE17FF3EDEE7003FAF31
:109CE00042023F419C033F84F4043F884B063F3CC3
:109CF000A1073FA1F5083FA6480A3F6B9A0B3FD149
:109D0000EA0C3FD6390E3F8B870F3FD0D3103FB4BC
:109D10001E123F2768133F3AB0143FDCF6153F0C84
:109D20003C173FBB7F183FF8C1193FC5021B3F0FCF
:109D3000421C3FD87F1D3F0EBC1E3FC2F61F3FF5A1
:109D40002F213F9467223FA19D233F2DD2243F0323
:109D500005263F5936273F0A66283F1894293F8336
:109D6000C02A3F4AEB2B3F6E142D3FDE3B2E3FAA0D
:109D7000612F3FC285303F15A8313FC5C8323FC073
:109D8000E7333F00FF00F704353F6820363F263AAF
:109D9000373F1E52383F4068393F9E7C3A3F368FEE
:109DA0003B3F0AA03C3FF7AE3D3F1FBC3E3F60C774
:109DB0003F3FDDD0403F73D8413F22DE423FFCE1D0
:109DC000433FEFE3443FFCE3453F22E2463F61DE91
:109DD000473FBAD8483F0BD1493F86C74A3FF9BBF6
:109DE0004B3F75AE4C3F0A9F4D3F978D4E3F1C7ABF
:109DF0004F3FAA64503F404D513FCE33523F44182D
:109E0000533FC2FA533F38DB543F95B9553FEA956B
:109E1000563F2670573F5A48583F641E593F67F2D5
:109E2000593F50C45A3F21945B3FC8615C3F562D57
:109E30005D3FBAF65D3F06BE5E3F27835F3F20462B
:109E4000603FEE06613F93C5613F0E82623F603C1A
:109E5000633F77F4633F54AA643F075E653F800F1A
:109E6000663FCFBE663FD36B673FAD16683F3CBFD2
:109E7000683F9065693FAB096A3F7AAB6A3F0E4B1A
:109E80006B3F57E800FF006B3F66836C3F191C6D0A
:109E90003F92B26D3FBF466E3FA1D86E3F38686FAC
:109EA0003F73F56F3F6380703F0709713F508F71BB
:109EB0003F4D13723FFF94723F4414733F3F9173C1
:109EC0003FDD0B743F1F84743F05FA743F8F6D753F
:109ED0003FCEDE753F904D763F06BA763F10247731
:109EE0003FBD8B773F0FF1773FF453783F7CB478D9
:109EF0003F9912793F486E793F9BC7793F821E7A1E
:109F00003FFC727A3F19C57A3FBA147B3FFE617BF2
:109F10003FC5AC7B3F30F57B3F2E3B7C3FAE7E7C2C
:109F20003FC2BF7C3F7AFE7C3FB43A7D3F71747D77
:109F30003FD2AB7D3FB5E07D3F2B137E3F24437E78
:109F40003FB0707E3FD09B7E3F72C47E3F96EA7EDC
:109F50003F5E0E7F3F982F7F3F664E7F3FC66A7FF2
:109F60003FA9847F3F209C7F3F07B17F3F93C37F02
:109F70003F91D37F3F22E17F3F46EC7F3FEDF47F6F
:109F80003F16FB7F3F1C04C1FE7FCC0432800421BE
:109F90000C2114211C2124212C2134213C21442179
:109FA0004C2154215C2164216C2174217C21842169
:109FB0008C2194219C21A421AC21B421BC21C42159
:109FC000CC21D421DC21E421EC21F421FC25042541
:109FD0000C2514251C2524252C2534253C25442519
:109FE0004C2554255C2564256C2574257C25842509
:109FF0008C2594259C25A425AC25B425BC25C425F9
:10A00000CC25D425DC25E425EC25F425FC290429E0
:10A010000C2914291C2924292C2934293C294429B8
:10A020004C2954295C2964296C2974297C298429A8
:10A030008C2994299C29A429AC29B429BC29C42998
:10A04000CC29D429DC29E429EC29F429FC2D0403AA
:10A050002D0C032D14032D1C032D24032D2C032D57
:10A0600034032D3C032D44032D4C032D54032D5C50
:10A07000032D64032D6C032D74032D7C032D8403A9
:10A080003D8C031D94032D9C032DA4032DAC032DA7
:10A09000B4032DBC032DC4032DCC032DD4032DDC20
:10A0A000032DE4032DEC032DF4032DFC032D0404F8
:10A0B0002D0C042D14042D1C042D24042D2C042DF2
:10A0C00034042D3C042D44042D4C042D54042D5CEB
:10A0D000042D64042D6C042D74042D7C042D840443
:10A0E0002D8C042D94042D9C042DA4042DAC042D42
:10A0F000B4042DBC042DC4042DCC042DD4042DDCBB
:10A10000042DE4042DEC042DF4042DFC042D040591
:10A110002D0C052D14052D1C052D24052D2C052D8C
:10A1200034052D3C052D44052D4C052D54052D5C85
:10A13000052D64052D6C052D74052D7C052D8405DC
:10A140002D8C052D94052D9C052DA4052DAC052DDC
:10A15000B4052DBC052DC4052DCC052DD4052DDC55
:10A16000052DE4052DEC052DF4052DFC052D04062B
:10A170002D0C062D14062D1C062D24062D2C062D27
:10A1800034062D3C062D44062D4C062D54062D5C20
:10A19000062D64062D6C062D74062D7C062D840676
:10A1A0002D8C062D94062D9C062DA4062DAC062D77
:10A1B000B4062DBC062DC4062DCC062DD4062DDCF0
:10A1C000062DE4062DEC062DF4062DFC062D0407C5
:10A1D0002D0C072D14072D1C072D24072D2C072DC2
:10A1E00034072D3C072D44072D4C072D54072D5CBB
:10A1F000072D64072D6C072D74072D7C072D840710
:10A200002D8C072D94072D9C072DA4072DAC072D11
:10A21000B4072DBC072DC4072DCC072DD4072DDC8A
:10A22000072DE4072DEC072DF4072DFC070D26283C
:10A23000080211010A01C20163CE3FDA4D0C05414B
:10A24000100F26803FF40981400D1B66093150AC88
:10A25000056BCB743E7C09E110B4041D3E4D9000AB
:10A2600005121D3ECD3A746009BB0A7C3FE6EAFB4D
:10A27000BF08F004751578A401104C06174DECB01A
:10A2800004666686400C051263149D43FD0A0409AA
:10A290002E0AD7233D2829B037648005CDCC4C4009
:10A2A0000C0C0718CC3D6F12833A920A1316440423
:10A2B00086C47CEFE040850BFC0C3210833996F7A6
:08A2C000FFBF58FF7F900B0067
:04000005000002896C
:00000001FF
