Component: ARM Compiler 5.06 update 6 (build 750) Tool: armlink [4d35ed]

==============================================================================

Section Cross References

    startup_hc32f334.o(RESET) refers to startup_hc32f334.o(STACK) for __initial_sp
    startup_hc32f334.o(RESET) refers to startup_hc32f334.o(.text) for Reset_Handler
    startup_hc32f334.o(RESET) refers to hc32_ll_interrupts.o(i.IRQ000_Handler) for IRQ000_Handler
    startup_hc32f334.o(RESET) refers to hc32_ll_interrupts.o(i.IRQ001_Handler) for IRQ001_Handler
    startup_hc32f334.o(RESET) refers to hc32_ll_interrupts.o(i.IRQ002_Handler) for IRQ002_Handler
    startup_hc32f334.o(RESET) refers to hc32_ll_interrupts.o(i.IRQ003_Handler) for IRQ003_Handler
    startup_hc32f334.o(RESET) refers to hc32_ll_interrupts.o(i.IRQ004_Handler) for IRQ004_Handler
    startup_hc32f334.o(RESET) refers to hc32_ll_interrupts.o(i.IRQ005_Handler) for IRQ005_Handler
    startup_hc32f334.o(RESET) refers to hc32_ll_interrupts.o(i.IRQ006_Handler) for IRQ006_Handler
    startup_hc32f334.o(RESET) refers to hc32_ll_interrupts.o(i.IRQ007_Handler) for IRQ007_Handler
    startup_hc32f334.o(RESET) refers to hc32_ll_interrupts.o(i.IRQ008_Handler) for IRQ008_Handler
    startup_hc32f334.o(RESET) refers to hc32_ll_interrupts.o(i.IRQ009_Handler) for IRQ009_Handler
    startup_hc32f334.o(RESET) refers to hc32_ll_interrupts.o(i.IRQ010_Handler) for IRQ010_Handler
    startup_hc32f334.o(RESET) refers to hc32_ll_interrupts.o(i.IRQ011_Handler) for IRQ011_Handler
    startup_hc32f334.o(RESET) refers to hc32_ll_interrupts.o(i.IRQ012_Handler) for IRQ012_Handler
    startup_hc32f334.o(RESET) refers to hc32_ll_interrupts.o(i.IRQ013_Handler) for IRQ013_Handler
    startup_hc32f334.o(RESET) refers to hc32_ll_interrupts.o(i.IRQ014_Handler) for IRQ014_Handler
    startup_hc32f334.o(RESET) refers to hc32_ll_interrupts.o(i.IRQ015_Handler) for IRQ015_Handler
==============================================================================

Removing Unused input sections from the image.

    Removing startup_hc32f334.o(HEAP), (1024 bytes).
    Removing system_hc32f334.o(.rev16_text), (4 bytes).
    Removing system_hc32f334.o(.revsh_text), (4 bytes).
    Removing system_hc32f334.o(.rrx_text), (6 bytes).
    Removing main.o(.rev16_text), (4 bytes).
    Removing main.o(.revsh_text), (4 bytes).
    Removing main.o(.rrx_text), (6 bytes).
    Removing main.o(i.Usart_init), (140 bytes).
    Removing main.o(.data), (4 bytes).
    Removing main.o(.data), (2 bytes).
    Removing main.o(.data), (2 bytes).
    Removing main.o(.data), (2 bytes).
    Removing main.o(.data), (4 bytes).
    Removing main.o(.data), (4 bytes).
    Removing main.o(.data), (2 bytes).
    Removing main.o(.data), (1 bytes).
    Removing protect.o(.rev16_text), (4 bytes).
    Removing protect.o(.revsh_text), (4 bytes).
==============================================================================

Image Symbol Table

    Local Symbols

    Symbol Name                              Value     Ov Type        Size  Object(Section)

    RESET                                    0x00000000   Section      648  startup_hc32f334.o(RESET)
    ../clib/../cmprslib/lz77c.c              0x00000000   Number         0  __dclz77c.o ABSOLUTE
    ../clib/microlib/division.c              0x00000000   Number         0  uidiv.o ABSOLUTE
    ../clib/microlib/division.c              0x00000000   Number         0  uldiv.o ABSOLUTE
    ../clib/microlib/init/entry.s            0x00000000   Number         0  entry9b.o ABSOLUTE
    ../clib/microlib/init/entry.s            0x00000000   Number         0  entry10a.o ABSOLUTE
    ../clib/microlib/init/entry.s            0x00000000   Number         0  entry9a.o ABSOLUTE
    ../clib/microlib/init/entry.s            0x00000000   Number         0  entry10b.o ABSOLUTE
    ../clib/microlib/init/entry.s            0x00000000   Number         0  entry5.o ABSOLUTE
    ../clib/microlib/init/entry.s            0x00000000   Number         0  entry11a.o ABSOLUTE
    ../clib/microlib/init/entry.s            0x00000000   Number         0  entry11b.o ABSOLUTE
    ../clib/microlib/init/entry.s            0x00000000   Number         0  entry2.o ABSOLUTE
    ../clib/microlib/init/entry.s            0x00000000   Number         0  entry8a.o ABSOLUTE
    ../clib/microlib/init/entry.s            0x00000000   Number         0  entry.o ABSOLUTE
    ../clib/microlib/init/entry.s            0x00000000   Number         0  entry7a.o ABSOLUTE
    ../clib/microlib/init/entry.s            0x00000000   Number         0  entry7b.o ABSOLUTE
    ../clib/microlib/init/entry.s            0x00000000   Number         0  entry8b.o ABSOLUTE
    ../clib/microlib/longlong.c              0x00000000   Number         0  llushr.o ABSOLUTE
    ../clib/microlib/longlong.c              0x00000000   Number         0  llshl.o ABSOLUTE
    ../clib/microlib/longlong.c              0x00000000   Number         0  llsshr.o ABSOLUTE
    ../clib/microlib/printf/printf.c         0x00000000   Number         0  printf0.o ABSOLUTE
    ../clib/microlib/printf/printf.c         0x00000000   Number         0  printfa.o ABSOLUTE
    ../clib/microlib/printf/printf.c         0x00000000   Number         0  printfb.o ABSOLUTE
    ../clib/microlib/printf/printf.c         0x00000000   Number         0  printf6.o ABSOLUTE
    ../clib/microlib/printf/printf.c         0x00000000   Number         0  printf8.o ABSOLUTE
    ../clib/microlib/printf/printf.c         0x00000000   Number         0  printf7.o ABSOLUTE
    ../clib/microlib/printf/printf.c         0x00000000   Number         0  printf5.o ABSOLUTE
    ../clib/microlib/printf/printf.c         0x00000000   Number         0  printf1.o ABSOLUTE
    ../clib/microlib/printf/printf.c         0x00000000   Number         0  printf2.o ABSOLUTE
    ../clib/microlib/printf/printf.c         0x00000000   Number         0  printf3.o ABSOLUTE
    ../clib/microlib/printf/printf.c         0x00000000   Number         0  printf4.o ABSOLUTE
    ../clib/microlib/printf/stubs.s          0x00000000   Number         0  stubs.o ABSOLUTE
    ../clib/microlib/stdio/streams.c         0x00000000   Number         0  stdout.o ABSOLUTE
    ../clib/microlib/stubs.s                 0x00000000   Number         0  iusefp.o ABSOLUTE
    ../fplib/microlib/d2f.c                  0x00000000   Number         0  d2f.o ABSOLUTE
    ../fplib/microlib/f2d.c                  0x00000000   Number         0  f2d.o ABSOLUTE
    ../fplib/microlib/fpadd.c                0x00000000   Number         0  dadd.o ABSOLUTE
    ../fplib/microlib/fpdiv.c                0x00000000   Number         0  ddiv.o ABSOLUTE
    ../fplib/microlib/fpepilogue.c           0x00000000   Number         0  fepilogue.o ABSOLUTE
    ../fplib/microlib/fpepilogue.c           0x00000000   Number         0  depilogue.o ABSOLUTE
    ../fplib/microlib/fpfix.c                0x00000000   Number         0  dfixul.o ABSOLUTE
    ../fplib/microlib/fpflt.c                0x00000000   Number         0  dfltui.o ABSOLUTE
    ../fplib/microlib/fpflt.c                0x00000000   Number         0  dfltul.o ABSOLUTE
    ../fplib/microlib/fpmul.c                0x00000000   Number         0  dmul.o ABSOLUTE
    ..\..\..\..\drivers\bsp\ev_hc32f334_lqfp64\ev_hc32f334_lqfp64.c 0x00000000   Number         0  ev_hc32f334_lqfp64.o ABSOLUTE
    ..\..\..\..\drivers\cmsis\Device\HDSC\hc32f3xx\Source\system_hc32f334.c 0x00000000   Number         0  system_hc32f334.o ABSOLUTE
    ..\..\..\..\drivers\hc32_ll_driver\src\hc32_ll.c 0x00000000   Number         0  hc32_ll.o ABSOLUTE
    ..\..\..\..\drivers\hc32_ll_driver\src\hc32_ll_adc.c 0x00000000   Number         0  hc32_ll_adc.o ABSOLUTE
    ..\..\..\..\drivers\hc32_ll_driver\src\hc32_ll_aos.c 0x00000000   Number         0  hc32_ll_aos.o ABSOLUTE
    ..\..\..\..\drivers\hc32_ll_driver\src\hc32_ll_clk.c 0x00000000   Number         0  hc32_ll_clk.o ABSOLUTE
    ..\..\..\..\drivers\hc32_ll_driver\src\hc32_ll_cmp.c 0x00000000   Number         0  hc32_ll_cmp.o ABSOLUTE
    ..\..\..\..\drivers\hc32_ll_driver\src\hc32_ll_crc.c 0x00000000   Number         0  hc32_ll_crc.o ABSOLUTE
    ..\..\..\..\drivers\hc32_ll_driver\src\hc32_ll_ctc.c 0x00000000   Number         0  hc32_ll_ctc.o ABSOLUTE
    ..\..\..\..\drivers\hc32_ll_driver\src\hc32_ll_dac.c 0x00000000   Number         0  hc32_ll_dac.o ABSOLUTE
    ..\..\..\..\drivers\hc32_ll_driver\src\hc32_ll_dbgc.c 0x00000000   Number         0  hc32_ll_dbgc.o ABSOLUTE
    ..\..\..\..\drivers\hc32_ll_driver\src\hc32_ll_dma.c 0x00000000   Number         0  hc32_ll_dma.o ABSOLUTE
    ..\..\..\..\drivers\hc32_ll_driver\src\hc32_ll_efm.c 0x00000000   Number         0  hc32_ll_efm.o ABSOLUTE
    ..\..\..\..\drivers\hc32_ll_driver\src\hc32_ll_emb.c 0x00000000   Number         0  hc32_ll_emb.o ABSOLUTE
    ..\..\..\..\drivers\hc32_ll_driver\src\hc32_ll_event_port.c 0x00000000   Number         0  hc32_ll_event_port.o ABSOLUTE
    ..\..\..\..\drivers\hc32_ll_driver\src\hc32_ll_fcg.c 0x00000000   Number         0  hc32_ll_fcg.o ABSOLUTE
    ..\..\..\..\drivers\hc32_ll_driver\src\hc32_ll_fcm.c 0x00000000   Number         0  hc32_ll_fcm.o ABSOLUTE
    ..\..\..\..\drivers\hc32_ll_driver\src\hc32_ll_gpio.c 0x00000000   Number         0  hc32_ll_gpio.o ABSOLUTE
    ..\..\..\..\drivers\hc32_ll_driver\src\hc32_ll_hrpwm.c 0x00000000   Number         0  hc32_ll_hrpwm.o ABSOLUTE
    ..\..\..\..\drivers\hc32_ll_driver\src\hc32_ll_i2c.c 0x00000000   Number         0  hc32_ll_i2c.o ABSOLUTE
    ..\..\..\..\drivers\hc32_ll_driver\src\hc32_ll_icg.c 0x00000000   Number         0  hc32_ll_icg.o ABSOLUTE
    ..\..\..\..\drivers\hc32_ll_driver\src\hc32_ll_interrupts.c 0x00000000   Number         0  hc32_ll_interrupts.o ABSOLUTE
    ..\..\..\..\drivers\hc32_ll_driver\src\hc32_ll_mcan.c 0x00000000   Number         0  hc32_ll_mcan.o ABSOLUTE
    ..\..\..\..\drivers\hc32_ll_driver\src\hc32_ll_mpu.c 0x00000000   Number         0  hc32_ll_mpu.o ABSOLUTE
    ..\..\..\..\drivers\hc32_ll_driver\src\hc32_ll_pla.c 0x00000000   Number         0  hc32_ll_pla.o ABSOLUTE
    ..\..\..\..\drivers\hc32_ll_driver\src\hc32_ll_pwc.c 0x00000000   Number         0  hc32_ll_pwc.o ABSOLUTE
    ..\..\..\..\drivers\hc32_ll_driver\src\hc32_ll_rmu.c 0x00000000   Number         0  hc32_ll_rmu.o ABSOLUTE
    ..\..\..\..\drivers\hc32_ll_driver\src\hc32_ll_rtc.c 0x00000000   Number         0  hc32_ll_rtc.o ABSOLUTE
    ..\..\..\..\drivers\hc32_ll_driver\src\hc32_ll_spi.c 0x00000000   Number         0  hc32_ll_spi.o ABSOLUTE
    ..\..\..\..\drivers\hc32_ll_driver\src\hc32_ll_sram.c 0x00000000   Number         0  hc32_ll_sram.o ABSOLUTE
    ..\..\..\..\drivers\hc32_ll_driver\src\hc32_ll_swdt.c 0x00000000   Number         0  hc32_ll_swdt.o ABSOLUTE
    ..\..\..\..\drivers\hc32_ll_driver\src\hc32_ll_tmr0.c 0x00000000   Number         0  hc32_ll_tmr0.o ABSOLUTE
    ..\..\..\..\drivers\hc32_ll_driver\src\hc32_ll_tmr4.c 0x00000000   Number         0  hc32_ll_tmr4.o ABSOLUTE
    ..\..\..\..\drivers\hc32_ll_driver\src\hc32_ll_tmr6.c 0x00000000   Number         0  hc32_ll_tmr6.o ABSOLUTE
    ..\..\..\..\drivers\hc32_ll_driver\src\hc32_ll_tmra.c 0x00000000   Number         0  hc32_ll_tmra.o ABSOLUTE
    ..\..\..\..\drivers\hc32_ll_driver\src\hc32_ll_usart.c 0x00000000   Number         0  hc32_ll_usart.o ABSOLUTE
    ..\..\..\..\drivers\hc32_ll_driver\src\hc32_ll_utility.c 0x00000000   Number         0  hc32_ll_utility.o ABSOLUTE
    ..\..\..\..\drivers\hc32_ll_driver\src\hc32_ll_wdt.c 0x00000000   Number         0  hc32_ll_wdt.o ABSOLUTE
    ..\\..\\..\\..\\drivers\\bsp\\ev_hc32f334_lqfp64\\ev_hc32f334_lqfp64.c 0x00000000   Number         0  ev_hc32f334_lqfp64.o ABSOLUTE
    ..\\..\\..\\..\\drivers\\cmsis\\Device\\HDSC\\hc32f3xx\\Source\\system_hc32f334.c 0x00000000   Number         0  system_hc32f334.o ABSOLUTE
    ..\\..\\..\\..\\drivers\\hc32_ll_driver\\src\\hc32_ll.c 0x00000000   Number         0  hc32_ll.o ABSOLUTE
    ..\\..\\..\\..\\drivers\\hc32_ll_driver\\src\\hc32_ll_adc.c 0x00000000   Number         0  hc32_ll_adc.o ABSOLUTE
    ..\\..\\..\\..\\drivers\\hc32_ll_driver\\src\\hc32_ll_aos.c 0x00000000   Number         0  hc32_ll_aos.o ABSOLUTE
    ..\\..\\..\\..\\drivers\\hc32_ll_driver\\src\\hc32_ll_clk.c 0x00000000   Number         0  hc32_ll_clk.o ABSOLUTE
    ..\\..\\..\\..\\drivers\\hc32_ll_driver\\src\\hc32_ll_cmp.c 0x00000000   Number         0  hc32_ll_cmp.o ABSOLUTE
    ..\\..\\..\\..\\drivers\\hc32_ll_driver\\src\\hc32_ll_crc.c 0x00000000   Number         0  hc32_ll_crc.o ABSOLUTE
    ..\\..\\..\\..\\drivers\\hc32_ll_driver\\src\\hc32_ll_ctc.c 0x00000000   Number         0  hc32_ll_ctc.o ABSOLUTE
    ..\\..\\..\\..\\drivers\\hc32_ll_driver\\src\\hc32_ll_dac.c 0x00000000   Number         0  hc32_ll_dac.o ABSOLUTE
    ..\\..\\..\\..\\drivers\\hc32_ll_driver\\src\\hc32_ll_dbgc.c 0x00000000   Number         0  hc32_ll_dbgc.o ABSOLUTE
    ..\\..\\..\\..\\drivers\\hc32_ll_driver\\src\\hc32_ll_dma.c 0x00000000   Number         0  hc32_ll_dma.o ABSOLUTE
    ..\\..\\..\\..\\drivers\\hc32_ll_driver\\src\\hc32_ll_efm.c 0x00000000   Number         0  hc32_ll_efm.o ABSOLUTE
    ..\\..\\..\\..\\drivers\\hc32_ll_driver\\src\\hc32_ll_emb.c 0x00000000   Number         0  hc32_ll_emb.o ABSOLUTE
    ..\\..\\..\\..\\drivers\\hc32_ll_driver\\src\\hc32_ll_event_port.c 0x00000000   Number         0  hc32_ll_event_port.o ABSOLUTE
    ..\\..\\..\\..\\drivers\\hc32_ll_driver\\src\\hc32_ll_fcg.c 0x00000000   Number         0  hc32_ll_fcg.o ABSOLUTE
    ..\\..\\..\\..\\drivers\\hc32_ll_driver\\src\\hc32_ll_fcm.c 0x00000000   Number         0  hc32_ll_fcm.o ABSOLUTE
    ..\\..\\..\\..\\drivers\\hc32_ll_driver\\src\\hc32_ll_gpio.c 0x00000000   Number         0  hc32_ll_gpio.o ABSOLUTE
    ..\\..\\..\\..\\drivers\\hc32_ll_driver\\src\\hc32_ll_hrpwm.c 0x00000000   Number         0  hc32_ll_hrpwm.o ABSOLUTE
    ..\\..\\..\\..\\drivers\\hc32_ll_driver\\src\\hc32_ll_i2c.c 0x00000000   Number         0  hc32_ll_i2c.o ABSOLUTE
    ..\\..\\..\\..\\drivers\\hc32_ll_driver\\src\\hc32_ll_icg.c 0x00000000   Number         0  hc32_ll_icg.o ABSOLUTE
    ..\\..\\..\\..\\drivers\\hc32_ll_driver\\src\\hc32_ll_interrupts.c 0x00000000   Number         0  hc32_ll_interrupts.o ABSOLUTE
    ..\\..\\..\\..\\drivers\\hc32_ll_driver\\src\\hc32_ll_mcan.c 0x00000000   Number         0  hc32_ll_mcan.o ABSOLUTE
    ..\\..\\..\\..\\drivers\\hc32_ll_driver\\src\\hc32_ll_mpu.c 0x00000000   Number         0  hc32_ll_mpu.o ABSOLUTE
    ..\\..\\..\\..\\drivers\\hc32_ll_driver\\src\\hc32_ll_pla.c 0x00000000   Number         0  hc32_ll_pla.o ABSOLUTE
    ..\\..\\..\\..\\drivers\\hc32_ll_driver\\src\\hc32_ll_pwc.c 0x00000000   Number         0  hc32_ll_pwc.o ABSOLUTE
    ..\\..\\..\\..\\drivers\\hc32_ll_driver\\src\\hc32_ll_rmu.c 0x00000000   Number         0  hc32_ll_rmu.o ABSOLUTE
    ..\\..\\..\\..\\drivers\\hc32_ll_driver\\src\\hc32_ll_rtc.c 0x00000000   Number         0  hc32_ll_rtc.o ABSOLUTE
    ..\\..\\..\\..\\drivers\\hc32_ll_driver\\src\\hc32_ll_spi.c 0x00000000   Number         0  hc32_ll_spi.o ABSOLUTE
    ..\\..\\..\\..\\drivers\\hc32_ll_driver\\src\\hc32_ll_sram.c 0x00000000   Number         0  hc32_ll_sram.o ABSOLUTE
    ..\\..\\..\\..\\drivers\\hc32_ll_driver\\src\\hc32_ll_swdt.c 0x00000000   Number         0  hc32_ll_swdt.o ABSOLUTE
    ..\\..\\..\\..\\drivers\\hc32_ll_driver\\src\\hc32_ll_tmr0.c 0x00000000   Number         0  hc32_ll_tmr0.o ABSOLUTE
    ..\\..\\..\\..\\drivers\\hc32_ll_driver\\src\\hc32_ll_tmr4.c 0x00000000   Number         0  hc32_ll_tmr4.o ABSOLUTE
    ..\\..\\..\\..\\drivers\\hc32_ll_driver\\src\\hc32_ll_tmr6.c 0x00000000   Number         0  hc32_ll_tmr6.o ABSOLUTE
    ..\\..\\..\\..\\drivers\\hc32_ll_driver\\src\\hc32_ll_tmra.c 0x00000000   Number         0  hc32_ll_tmra.o ABSOLUTE
    ..\\..\\..\\..\\drivers\\hc32_ll_driver\\src\\hc32_ll_usart.c 0x00000000   Number         0  hc32_ll_usart.o ABSOLUTE
    ..\\..\\..\\..\\drivers\\hc32_ll_driver\\src\\hc32_ll_utility.c 0x00000000   Number         0  hc32_ll_utility.o ABSOLUTE
    ..\\..\\..\\..\\drivers\\hc32_ll_driver\\src\\hc32_ll_wdt.c 0x00000000   Number         0  hc32_ll_wdt.o ABSOLUTE
    ..\\source\\main.c                       0x00000000   Number         0  main.o ABSOLUTE
    ..\\source\\user_code\\Calibration.c     0x00000000   Number         0  calibration.o ABSOLUTE
    ..\\source\\user_code\\control.c         0x00000000   Number         0  control.o ABSOLUTE
    ..\\source\\user_code\\protect.c         0x00000000   Number         0  protect.o ABSOLUTE
    ..\\source\\user_code\\table.c           0x00000000   Number         0  table_1.o ABSOLUTE
    ..\source\main.c                         0x00000000   Number         0  main.o ABSOLUTE
    ..\source\user_code\Calibration.c        0x00000000   Number         0  calibration.o ABSOLUTE
    ..\source\user_code\control.c            0x00000000   Number         0  control.o ABSOLUTE
    ..\source\user_code\protect.c            0x00000000   Number         0  protect.o ABSOLUTE
    ..\source\user_code\table.c              0x00000000   Number         0  table_1.o ABSOLUTE
    cdrcmple.s                               0x00000000   Number         0  cdrcmple.o ABSOLUTE
    dc.s                                     0x00000000   Number         0  dc.o ABSOLUTE
    handlers.s                               0x00000000   Number         0  handlers.o ABSOLUTE
    init.s                                   0x00000000   Number         0  init.o ABSOLUTE
    startup_hc32f334.s                       0x00000000   Number         0  startup_hc32f334.o ABSOLUTE
    .ARM.Collect$$$$00000000                 0x00000288   Section        0  entry.o(.ARM.Collect$$$$00000000)
    .ARM.Collect$$$$00000001                 0x00000288   Section        4  entry2.o(.ARM.Collect$$$$00000001)
    .ARM.Collect$$$$00000004                 0x0000028c   Section        4  entry5.o(.ARM.Collect$$$$00000004)
    .ARM.Collect$$$$00000008                 0x00000290   Section        0  entry7b.o(.ARM.Collect$$$$00000008)
    .ARM.Collect$$$$0000000A                 0x00000290   Section        0  entry8b.o(.ARM.Collect$$$$0000000A)
    .ARM.Collect$$$$0000000B                 0x00000290   Section        8  entry9a.o(.ARM.Collect$$$$0000000B)
    .ARM.Collect$$$$0000000D                 0x00000298   Section        0  entry10a.o(.ARM.Collect$$$$0000000D)
    .ARM.Collect$$$$0000000F                 0x00000298   Section        0  entry11a.o(.ARM.Collect$$$$0000000F)
    .ARM.Collect$$$$00002712                 0x00000298   Section        4  entry2.o(.ARM.Collect$$$$00002712)
    __lit__00000000                          0x00000298   Data           4  entry2.o(.ARM.Collect$$$$00002712)
    .text                                    0x0000029c   Section       36  startup_hc32f334.o(.text)
    $v0                                      0x0000029c   Number         0  startup_hc32f334.o(.text)
    .text                                    0x000002c0   Section        0  uldiv.o(.text)
    .text                                    0x00000322   Section        0  llshl.o(.text)
    .text                                    0x00000340   Section        0  dfltui.o(.text)
    .text                                    0x0000035a   Section        0  dfltul.o(.text)
    .text                                    0x00000372   Section        0  f2d.o(.text)
    .text                                    0x00000398   Section        0  d2f.o(.text)
    .text                                    0x000003d0   Section        0  uidiv.o(.text)
    .text                                    0x000003fc   Section        0  iusefp.o(.text)
    i.HRPWM_1_Ovf_Udf_Handler                0x000003fc   Section        0  main.o(i.HRPWM_1_Ovf_Udf_Handler)
    .ARM.__AT_0x00000400                     0x00000400   Section       96  hc32_ll_icg.o(.ARM.__AT_0x00000400)
    .text                                    0x00000460   Section        0  ddiv.o(.text)
    .text                                    0x0000053e   Section        0  llushr.o(.text)
    .text                                    0x0000055e   Section        0  fepilogue.o(.text)
    .text                                    0x000005cc   Section        0  depilogue.o(.text)
    .text                                    0x00000686   Section        0  dadd.o(.text)
    .text                                    0x000007d4   Section        0  dmul.o(.text)
    .text                                    0x000008b8   Section        0  dfixul.o(.text)
    .text                                    0x000008e8   Section       48  cdrcmple.o(.text)
    .text                                    0x00000918   Section       36  init.o(.text)
    .text                                    0x0000093c   Section        0  llsshr.o(.text)
    .text                                    0x00000960   Section        0  __dclz77c.o(.text)
    i.ACCur_Cali_Rootine                     0x000009c0   Section        0  calibration.o(i.ACCur_Cali_Rootine)
    i.ADC1_Handler                           0x00000b88   Section        0  main.o(i.ADC1_Handler)
    i.ADC_ChCmd                              0x00000b9c   Section        0  hc32_ll_adc.o(i.ADC_ChCmd)
    i.ADC_ChRemap                            0x00000c50   Section        0  hc32_ll_adc.o(i.ADC_ChRemap)
    i.ADC_Init                               0x00000d20   Section        0  hc32_ll_adc.o(i.ADC_Init)
    i.ADC_IntCmd                             0x00000de8   Section        0  hc32_ll_adc.o(i.ADC_IntCmd)
    i.ADC_StructInit                         0x00000e84   Section        0  hc32_ll_adc.o(i.ADC_StructInit)
    i.ADC_TriggerCmd                         0x00000e98   Section        0  hc32_ll_adc.o(i.ADC_TriggerCmd)
    i.ADC_TriggerConfig                      0x00000f34   Section        0  hc32_ll_adc.o(i.ADC_TriggerConfig)
    i.AOS_SetTriggerEventSrc                 0x00000fdc   Section        0  hc32_ll_aos.o(i.AOS_SetTriggerEventSrc)
    i.Adc_Config                             0x000010f8   Section        0  main.o(i.Adc_Config)
    i.AllPWM_Disable                         0x00001224   Section        0  control.o(i.AllPWM_Disable)
    i.BSP_CLK_Init                           0x00001264   Section        0  ev_hc32f334_lqfp64.o(i.BSP_CLK_Init)
    i.BSP_PRINTF_Preinit                     0x00001308   Section        0  ev_hc32f334_lqfp64.o(i.BSP_PRINTF_Preinit)
    i.CLK_GetStableStatus                    0x000013ac   Section        0  hc32_ll_clk.o(i.CLK_GetStableStatus)
    i.CLK_PLLCmd                             0x0000140c   Section        0  hc32_ll_clk.o(i.CLK_PLLCmd)
    i.CLK_PLLInit                            0x000014c0   Section        0  hc32_ll_clk.o(i.CLK_PLLInit)
    i.CLK_PLLStructInit                      0x00001690   Section        0  hc32_ll_clk.o(i.CLK_PLLStructInit)
    i.CLK_SetClockDiv                        0x000016c0   Section        0  hc32_ll_clk.o(i.CLK_SetClockDiv)
    i.CLK_SetSysClockSrc                     0x000016ce   Section        0  hc32_ll_clk.o(i.CLK_SetSysClockSrc)
    i.CLK_WaitStable                         0x000016dc   Section        0  hc32_ll_clk.o(i.CLK_WaitStable)
    CLK_WaitStable                           0x000016dd   Thumb Code    44  hc32_ll_clk.o(i.CLK_WaitStable)
    i.CLK_XtalCmd                            0x00001708   Section        0  hc32_ll_clk.o(i.CLK_XtalCmd)
    i.CLK_XtalInit                           0x000017b4   Section        0  hc32_ll_clk.o(i.CLK_XtalInit)
    i.CLK_XtalStructInit                     0x000018ac   Section        0  hc32_ll_clk.o(i.CLK_XtalStructInit)
    i.CMP_CompareOutCmd                      0x000018c8   Section        0  hc32_ll_cmp.o(i.CMP_CompareOutCmd)
    i.CMP_DelayUS                            0x00001950   Section        0  hc32_ll_cmp.o(i.CMP_DelayUS)
    CMP_DelayUS                              0x00001951   Thumb Code    40  hc32_ll_cmp.o(i.CMP_DelayUS)
    i.CMP_NormalModeInit                     0x00001984   Section        0  hc32_ll_cmp.o(i.CMP_NormalModeInit)
    i.CMP_PinVcoutCmd                        0x00001af0   Section        0  hc32_ll_cmp.o(i.CMP_PinVcoutCmd)
    i.CMP_StructInit                         0x00001b78   Section        0  hc32_ll_cmp.o(i.CMP_StructInit)
    i.CalPara_Init                           0x00001b90   Section        0  calibration.o(i.CalPara_Init)
    i.ClockSync_CalculateBrr                 0x00001c1c   Section        0  hc32_ll_usart.o(i.ClockSync_CalculateBrr)
    ClockSync_CalculateBrr                   0x00001c1d   Thumb Code   318  hc32_ll_usart.o(i.ClockSync_CalculateBrr)
    i.Cmp_Config                             0x00001da8   Section        0  main.o(i.Cmp_Config)
    i.Cosine                                 0x00001e1c   Section        0  table_1.o(i.Cosine)
    i.DAC_ADCPrioCmd                         0x00001e9c   Section        0  hc32_ll_dac.o(i.DAC_ADCPrioCmd)
    i.DAC_ADCPrioConfig                      0x00001f18   Section        0  hc32_ll_dac.o(i.DAC_ADCPrioConfig)
    i.DAC_DeInit                             0x00001fa0   Section        0  hc32_ll_dac.o(i.DAC_DeInit)
    i.DAC_Init                               0x00002080   Section        0  hc32_ll_dac.o(i.DAC_Init)
    i.DAC_OutputCmd                          0x00002140   Section        0  hc32_ll_dac.o(i.DAC_OutputCmd)
    i.DAC_Start                              0x000021d8   Section        0  hc32_ll_dac.o(i.DAC_Start)
    i.DAC_StructInit                         0x00002268   Section        0  hc32_ll_dac.o(i.DAC_StructInit)
    i.DDL_AssertHandler                      0x0000227c   Section        0  hc32_ll_utility.o(i.DDL_AssertHandler)
    i.DDL_ConsoleOutputChar                  0x000022b8   Section        0  hc32_ll_utility.o(i.DDL_ConsoleOutputChar)
    i.DDL_DelayUS                            0x000022f8   Section        0  hc32_ll_utility.o(i.DDL_DelayUS)
    i.Dac_Config                             0x00002338   Section        0  main.o(i.Dac_Config)
    i.EFM_CacheRamReset                      0x00002404   Section        0  hc32_ll_efm.o(i.EFM_CacheRamReset)
    i.EFM_ClearStatus                        0x00002474   Section        0  hc32_ll_efm.o(i.EFM_ClearStatus)
    i.EFM_DCacheCmd                          0x000024e4   Section        0  hc32_ll_efm.o(i.EFM_DCacheCmd)
    i.EFM_FWMC_Cmd                           0x00002554   Section        0  hc32_ll_efm.o(i.EFM_FWMC_Cmd)
    i.EFM_GetStatus                          0x000025c0   Section        0  hc32_ll_efm.o(i.EFM_GetStatus)
    i.EFM_ICacheCmd                          0x00002624   Section        0  hc32_ll_efm.o(i.EFM_ICacheCmd)
    i.EFM_PrefetchCmd                        0x00002694   Section        0  hc32_ll_efm.o(i.EFM_PrefetchCmd)
    i.EFM_ProgramWord                        0x00002704   Section        0  hc32_ll_efm.o(i.EFM_ProgramWord)
    i.EFM_SectorErase                        0x00002830   Section        0  hc32_ll_efm.o(i.EFM_SectorErase)
    i.EFM_SetWaitCycle                       0x0000294c   Section        0  hc32_ll_efm.o(i.EFM_SetWaitCycle)
    i.EFM_SingleSectorOperateCmd             0x000029f8   Section        0  hc32_ll_efm.o(i.EFM_SingleSectorOperateCmd)
    i.EFM_WaitFlag                           0x00002a88   Section        0  hc32_ll_efm.o(i.EFM_WaitFlag)
    EFM_WaitFlag                             0x00002a89   Thumb Code    44  hc32_ll_efm.o(i.EFM_WaitFlag)
    i.EMB_ClearStatus                        0x00002ab4   Section        0  hc32_ll_emb.o(i.EMB_ClearStatus)
    i.EMB_HRPWM_Init                         0x00002b64   Section        0  hc32_ll_emb.o(i.EMB_HRPWM_Init)
    i.EMB_HRPWM_StructInit                   0x00002ffc   Section        0  hc32_ll_emb.o(i.EMB_HRPWM_StructInit)
    i.EMB_SetReleasePwmCond                  0x0000306c   Section        0  hc32_ll_emb.o(i.EMB_SetReleasePwmCond)
    i.Emb_Config                             0x00003138   Section        0  main.o(i.Emb_Config)
    i.FCG_Fcg0PeriphClockCmd                 0x0000324c   Section        0  hc32_ll_fcg.o(i.FCG_Fcg0PeriphClockCmd)
    i.FCG_Fcg2PeriphClockCmd                 0x000032d0   Section        0  hc32_ll_fcg.o(i.FCG_Fcg2PeriphClockCmd)
    i.FCG_Fcg3PeriphClockCmd                 0x00003344   Section        0  hc32_ll_fcg.o(i.FCG_Fcg3PeriphClockCmd)
    i.FlyBack_Interleaved_adjustment         0x000033b8   Section        0  control.o(i.FlyBack_Interleaved_adjustment)
    i.GPIO_AnalogCmd                         0x000034f0   Section        0  hc32_ll_gpio.o(i.GPIO_AnalogCmd)
    i.GPIO_Config                            0x000035a0   Section        0  main.o(i.GPIO_Config)
    i.GPIO_HrpwmPinCmd                       0x000036f0   Section        0  hc32_ll_gpio.o(i.GPIO_HrpwmPinCmd)
    i.GPIO_Init                              0x00003778   Section        0  hc32_ll_gpio.o(i.GPIO_Init)
    i.GPIO_SetDebugPort                      0x00003954   Section        0  hc32_ll_gpio.o(i.GPIO_SetDebugPort)
    i.GPIO_SetFunc                           0x000039e0   Section        0  hc32_ll_gpio.o(i.GPIO_SetFunc)
    i.GPIO_SetReadWaitCycle                  0x00003aa4   Section        0  hc32_ll_gpio.o(i.GPIO_SetReadWaitCycle)
    i.GPIO_StructInit                        0x00003b40   Section        0  hc32_ll_gpio.o(i.GPIO_StructInit)
    i.GridVol_Cali_Rootine                   0x00003b68   Section        0  calibration.o(i.GridVol_Cali_Rootine)
    i.Grid_HalfCycle_cal                     0x00003e3c   Section        0  control.o(i.Grid_HalfCycle_cal)
    i.HRPWM_BufStructInit                    0x00003ed4   Section        0  hc32_ll_hrpwm.o(i.HRPWM_BufStructInit)
    i.HRPWM_CALIB_ClearFlag                  0x00003ee8   Section        0  hc32_ll_hrpwm.o(i.HRPWM_CALIB_ClearFlag)
    HRPWM_CALIB_ClearFlag                    0x00003ee9   Thumb Code    46  hc32_ll_hrpwm.o(i.HRPWM_CALIB_ClearFlag)
    i.HRPWM_CALIB_GetStatus                  0x00003f54   Section        0  hc32_ll_hrpwm.o(i.HRPWM_CALIB_GetStatus)
    HRPWM_CALIB_GetStatus                    0x00003f55   Thumb Code    36  hc32_ll_hrpwm.o(i.HRPWM_CALIB_GetStatus)
    i.HRPWM_CALIB_PeriodDisable              0x00003fb4   Section        0  hc32_ll_hrpwm.o(i.HRPWM_CALIB_PeriodDisable)
    HRPWM_CALIB_PeriodDisable                0x00003fb5   Thumb Code    20  hc32_ll_hrpwm.o(i.HRPWM_CALIB_PeriodDisable)
    i.HRPWM_CALIB_ProcessSingle              0x00003fcc   Section        0  hc32_ll_hrpwm.o(i.HRPWM_CALIB_ProcessSingle)
    i.HRPWM_CALIB_SingleDisable              0x00004044   Section        0  hc32_ll_hrpwm.o(i.HRPWM_CALIB_SingleDisable)
    HRPWM_CALIB_SingleDisable                0x00004045   Thumb Code    20  hc32_ll_hrpwm.o(i.HRPWM_CALIB_SingleDisable)
    i.HRPWM_CommonDeInit                     0x0000405c   Section        0  hc32_ll_hrpwm.o(i.HRPWM_CommonDeInit)
    i.HRPWM_Config                           0x000040d4   Section        0  main.o(i.HRPWM_Config)
    i.HRPWM_CountStart                       0x00004324   Section        0  main.o(i.HRPWM_CountStart)
    HRPWM_CountStart                         0x00004325   Thumb Code    64  main.o(i.HRPWM_CountStart)
    i.HRPWM_DeInit                           0x000043b4   Section        0  hc32_ll_hrpwm.o(i.HRPWM_DeInit)
    i.HRPWM_EMB_ChAConfig                    0x00004554   Section        0  hc32_ll_hrpwm.o(i.HRPWM_EMB_ChAConfig)
    i.HRPWM_EMB_StructInit                   0x0000466c   Section        0  hc32_ll_hrpwm.o(i.HRPWM_EMB_StructInit)
    i.HRPWM_EVT_Config                       0x00004680   Section        0  hc32_ll_hrpwm.o(i.HRPWM_EVT_Config)
    i.HRPWM_EVT_FilterConfig                 0x00004850   Section        0  hc32_ll_hrpwm.o(i.HRPWM_EVT_FilterConfig)
    i.HRPWM_EVT_FilterSetReplaceMode         0x000049b4   Section        0  main.o(i.HRPWM_EVT_FilterSetReplaceMode)
    HRPWM_EVT_FilterSetReplaceMode           0x000049b5   Thumb Code    92  main.o(i.HRPWM_EVT_FilterSetReplaceMode)
    i.HRPWM_EVT_FilterSignalConfig           0x00004a60   Section        0  hc32_ll_hrpwm.o(i.HRPWM_EVT_FilterSignalConfig)
    i.HRPWM_EVT_FilterSignalStructInit       0x00004b78   Section        0  hc32_ll_hrpwm.o(i.HRPWM_EVT_FilterSignalStructInit)
    i.HRPWM_EVT_FilterStructInit             0x00004b8e   Section        0  hc32_ll_hrpwm.o(i.HRPWM_EVT_FilterStructInit)
    i.HRPWM_EVT_OffsetBufConfig              0x00004ba0   Section        0  hc32_ll_hrpwm.o(i.HRPWM_EVT_OffsetBufConfig)
    i.HRPWM_EVT_OffsetBufEnable              0x00004ca0   Section        0  main.o(i.HRPWM_EVT_OffsetBufEnable)
    HRPWM_EVT_OffsetBufEnable                0x00004ca1   Thumb Code    64  main.o(i.HRPWM_EVT_OffsetBufEnable)
    i.HRPWM_EVT_StructInit                   0x00004d30   Section        0  hc32_ll_hrpwm.o(i.HRPWM_EVT_StructInit)
    i.HRPWM_Enable                           0x00004d4c   Section        0  main.o(i.HRPWM_Enable)
    HRPWM_Enable                             0x00004d4d   Thumb Code    64  main.o(i.HRPWM_Enable)
    i.HRPWM_GeneralAEBufConfig               0x00004ddc   Section        0  hc32_ll_hrpwm.o(i.HRPWM_GeneralAEBufConfig)
    i.HRPWM_GeneralAEBufEnable               0x00004edc   Section        0  main.o(i.HRPWM_GeneralAEBufEnable)
    HRPWM_GeneralAEBufEnable                 0x00004edd   Thumb Code    64  main.o(i.HRPWM_GeneralAEBufEnable)
    i.HRPWM_GeneralBFBufConfig               0x00004f6c   Section        0  hc32_ll_hrpwm.o(i.HRPWM_GeneralBFBufConfig)
    i.HRPWM_GeneralBFBufEnable               0x0000506c   Section        0  main.o(i.HRPWM_GeneralBFBufEnable)
    HRPWM_GeneralBFBufEnable                 0x0000506d   Thumb Code    64  main.o(i.HRPWM_GeneralBFBufEnable)
    i.HRPWM_HWChACaptureCondEnable           0x000050fc   Section        0  main.o(i.HRPWM_HWChACaptureCondEnable)
    HRPWM_HWChACaptureCondEnable             0x000050fd   Thumb Code   106  main.o(i.HRPWM_HWChACaptureCondEnable)
    i.HRPWM_HWChBCaptureCondEnable           0x000051bc   Section        0  main.o(i.HRPWM_HWChBCaptureCondEnable)
    HRPWM_HWChBCaptureCondEnable             0x000051bd   Thumb Code   106  main.o(i.HRPWM_HWChBCaptureCondEnable)
    i.HRPWM_HWClearCondEnable                0x00005248   Section        0  main.o(i.HRPWM_HWClearCondEnable)
    HRPWM_HWClearCondEnable                  0x00005249   Thumb Code   106  main.o(i.HRPWM_HWClearCondEnable)
    i.HRPWM_HWClearEnable                    0x00005308   Section        0  main.o(i.HRPWM_HWClearEnable)
    HRPWM_HWClearEnable                      0x00005309   Thumb Code    64  main.o(i.HRPWM_HWClearEnable)
    i.HRPWM_Init                             0x00005398   Section        0  hc32_ll_hrpwm.o(i.HRPWM_Init)
    i.HRPWM_PWM_ChAInit                      0x0000546c   Section        0  hc32_ll_hrpwm.o(i.HRPWM_PWM_ChAInit)
    i.HRPWM_PWM_ChAOutputEnable              0x00005764   Section        0  main.o(i.HRPWM_PWM_ChAOutputEnable)
    HRPWM_PWM_ChAOutputEnable                0x00005765   Thumb Code    64  main.o(i.HRPWM_PWM_ChAOutputEnable)
    i.HRPWM_PWM_OutputInit                   0x000057f4   Section        0  hc32_ll_hrpwm.o(i.HRPWM_PWM_OutputInit)
    i.HRPWM_PWM_OutputStructInit             0x000058e4   Section        0  hc32_ll_hrpwm.o(i.HRPWM_PWM_OutputStructInit)
    i.HRPWM_PWM_StructInit                   0x000058f8   Section        0  hc32_ll_hrpwm.o(i.HRPWM_PWM_StructInit)
    i.HRPWM_StructInit                       0x0000592c   Section        0  hc32_ll_hrpwm.o(i.HRPWM_StructInit)
    i.IRQ000_Handler                         0x00005948   Section        0  hc32_ll_interrupts.o(i.IRQ000_Handler)
    i.IRQ001_Handler                         0x0000595c   Section        0  hc32_ll_interrupts.o(i.IRQ001_Handler)
    i.IRQ002_Handler                         0x00005970   Section        0  hc32_ll_interrupts.o(i.IRQ002_Handler)
    i.IRQ003_Handler                         0x00005984   Section        0  hc32_ll_interrupts.o(i.IRQ003_Handler)
    i.IRQ004_Handler                         0x00005998   Section        0  hc32_ll_interrupts.o(i.IRQ004_Handler)
    i.IRQ005_Handler                         0x000059ac   Section        0  hc32_ll_interrupts.o(i.IRQ005_Handler)
    i.IRQ006_Handler                         0x000059c0   Section        0  hc32_ll_interrupts.o(i.IRQ006_Handler)
    i.IRQ007_Handler                         0x000059d4   Section        0  hc32_ll_interrupts.o(i.IRQ007_Handler)
    i.IRQ008_Handler                         0x000059e8   Section        0  hc32_ll_interrupts.o(i.IRQ008_Handler)
    i.IRQ009_Handler                         0x000059fc   Section        0  hc32_ll_interrupts.o(i.IRQ009_Handler)
    i.IRQ010_Handler                         0x00005a10   Section        0  hc32_ll_interrupts.o(i.IRQ010_Handler)
    i.IRQ011_Handler                         0x00005a24   Section        0  hc32_ll_interrupts.o(i.IRQ011_Handler)
    i.IRQ012_Handler                         0x00005a38   Section        0  hc32_ll_interrupts.o(i.IRQ012_Handler)
    i.IRQ013_Handler                         0x00005a4c   Section        0  hc32_ll_interrupts.o(i.IRQ013_Handler)
    i.IRQ014_Handler                         0x00005a60   Section        0  hc32_ll_interrupts.o(i.IRQ014_Handler)
    i.IRQ015_Handler                         0x00005a74   Section        0  hc32_ll_interrupts.o(i.IRQ015_Handler)
    i.LED_Control                            0x00005a88   Section        0  main.o(i.LED_Control)
    i.LL_PERIPH_WE                           0x00005b00   Section        0  hc32_ll.o(i.LL_PERIPH_WE)
    i.LL_PrintfInit                          0x00005b74   Section        0  hc32_ll_utility.o(i.LL_PrintfInit)
    i.MPPT                                   0x00005bfc   Section        0  control.o(i.MPPT)
    i.MicroInv_AC_CURRENT_LOOP               0x00005d88   Section        0  control.o(i.MicroInv_AC_CURRENT_LOOP)
    i.MicroInv_PV_VOLREF_RAMP                0x00006178   Section        0  control.o(i.MicroInv_PV_VOLREF_RAMP)
    i.MicroInv_PV_VOLTAGE_LOOP               0x000061d4   Section        0  control.o(i.MicroInv_PV_VOLTAGE_LOOP)
    i.MicroInv_Protect                       0x00006260   Section        0  protect.o(i.MicroInv_Protect)
    i.MicroInv_StateMachine                  0x00006590   Section        0  control.o(i.MicroInv_StateMachine)
    i.MicroInv_Unfolding_Driver              0x000066ec   Section        0  control.o(i.MicroInv_Unfolding_Driver)
    i.Micro_inverter_CTRL                    0x000067a8   Section        0  control.o(i.Micro_inverter_CTRL)
    i.PLL_FUN                                0x0000696c   Section        0  control.o(i.PLL_FUN)
    i.PVVol_Cali_Rootine                     0x00006b14   Section        0  calibration.o(i.PVVol_Cali_Rootine)
    i.Read_CalPar                            0x00006de0   Section        0  main.o(i.Read_CalPar)
    i.SampleCondition_Cal                    0x00006f48   Section        0  control.o(i.SampleCondition_Cal)
    i.SetSysClockDiv                         0x00007114   Section        0  hc32_ll_clk.o(i.SetSysClockDiv)
    SetSysClockDiv                           0x00007115   Thumb Code   432  hc32_ll_clk.o(i.SetSysClockDiv)
    i.SetSysClockSrc                         0x0000730c   Section        0  hc32_ll_clk.o(i.SetSysClockSrc)
    SetSysClockSrc                           0x0000730d   Thumb Code   178  hc32_ll_clk.o(i.SetSysClockSrc)
    i.Sine                                   0x00007404   Section        0  table_1.o(i.Sine)
    i.SmartCard_CalculateBrr                 0x00007480   Section        0  hc32_ll_usart.o(i.SmartCard_CalculateBrr)
    SmartCard_CalculateBrr                   0x00007481   Thumb Code   386  hc32_ll_usart.o(i.SmartCard_CalculateBrr)
    i.Square_root                            0x00007648   Section        0  table_1.o(i.Square_root)
    i.SystemCoreClockUpdate                  0x0000769c   Section        0  system_hc32f334.o(i.SystemCoreClockUpdate)
    i.SystemInit                             0x00007728   Section        0  system_hc32f334.o(i.SystemInit)
    i.System_Calib_Statemachine              0x00007748   Section        0  calibration.o(i.System_Calib_Statemachine)
    i.TMRA_Init                              0x00007c84   Section        0  hc32_ll_tmra.o(i.TMRA_Init)
    i.TMRA_SetPeriodValue                    0x00007de0   Section        0  hc32_ll_tmra.o(i.TMRA_SetPeriodValue)
    i.TMRA_Start                             0x00007e60   Section        0  hc32_ll_tmra.o(i.TMRA_Start)
    i.TMRA_StructInit                        0x00007ee4   Section        0  hc32_ll_tmra.o(i.TMRA_StructInit)
    i.Timer_Counter                          0x00007f04   Section        0  control.o(i.Timer_Counter)
    i.TmrA_Config                            0x00007f4c   Section        0  main.o(i.TmrA_Config)
    i.UART_CalculateBrr                      0x00007f88   Section        0  hc32_ll_usart.o(i.UART_CalculateBrr)
    UART_CalculateBrr                        0x00007f89   Thumb Code   386  hc32_ll_usart.o(i.UART_CalculateBrr)
    i.USART_FuncCmd                          0x00008158   Section        0  hc32_ll_usart.o(i.USART_FuncCmd)
    i.USART_GetBusClockFreq                  0x0000826c   Section        0  hc32_ll_usart.o(i.USART_GetBusClockFreq)
    USART_GetBusClockFreq                    0x0000826d   Thumb Code    16  hc32_ll_usart.o(i.USART_GetBusClockFreq)
    i.USART_GetUsartClockFreq                0x00008284   Section        0  hc32_ll_usart.o(i.USART_GetUsartClockFreq)
    USART_GetUsartClockFreq                  0x00008285   Thumb Code    76  hc32_ll_usart.o(i.USART_GetUsartClockFreq)
    i.USART_LIN_GetMeasureBaudrate           0x000082e4   Section        0  hc32_ll_usart.o(i.USART_LIN_GetMeasureBaudrate)
    i.USART_SetBaudrate                      0x000083b8   Section        0  hc32_ll_usart.o(i.USART_SetBaudrate)
    i.USART_SetClockDiv                      0x000084c4   Section        0  hc32_ll_usart.o(i.USART_SetClockDiv)
    i.USART_UART_Init                        0x00008564   Section        0  hc32_ll_usart.o(i.USART_UART_Init)
    i.USART_UART_StructInit                  0x000086fc   Section        0  hc32_ll_usart.o(i.USART_UART_StructInit)
    i.Vally_SW_Delay_Cal                     0x00008728   Section        0  control.o(i.Vally_SW_Delay_Cal)
    i.WDT_Config                             0x0000897c   Section        0  main.o(i.WDT_Config)
    i.WDT_FeedDog                            0x000089a4   Section        0  hc32_ll_wdt.o(i.WDT_FeedDog)
    i.WDT_Init                               0x000089b8   Section        0  hc32_ll_wdt.o(i.WDT_Init)
    i.Write_CalPar                           0x00008afc   Section        0  main.o(i.Write_CalPar)
    i.ZCD_Threshold_Cal                      0x00008c6c   Section        0  control.o(i.ZCD_Threshold_Cal)
    i.__0printf                              0x00008ca8   Section        0  printfa.o(i.__0printf)
    i.__NVIC_ClearPendingIRQ                 0x00008cc8   Section        0  main.o(i.__NVIC_ClearPendingIRQ)
    __NVIC_ClearPendingIRQ                   0x00008cc9   Thumb Code    26  main.o(i.__NVIC_ClearPendingIRQ)
    i.__NVIC_EnableIRQ                       0x00008ce2   Section        0  main.o(i.__NVIC_EnableIRQ)
    __NVIC_EnableIRQ                         0x00008ce3   Thumb Code    26  main.o(i.__NVIC_EnableIRQ)
    i.__NVIC_SetPriority                     0x00008cfc   Section        0  main.o(i.__NVIC_SetPriority)
    __NVIC_SetPriority                       0x00008cfd   Thumb Code    32  main.o(i.__NVIC_SetPriority)
    i.__scatterload_copy                     0x00008d1c   Section       14  handlers.o(i.__scatterload_copy)
    i.__scatterload_null                     0x00008d2a   Section        2  handlers.o(i.__scatterload_null)
    i.__scatterload_zeroinit                 0x00008d2c   Section       14  handlers.o(i.__scatterload_zeroinit)
    i._fp_digits                             0x00008d3c   Section        0  printfa.o(i._fp_digits)
    _fp_digits                               0x00008d3d   Thumb Code   366  printfa.o(i._fp_digits)
    i._printf_core                           0x00008ec0   Section        0  printfa.o(i._printf_core)
    _printf_core                             0x00008ec1   Thumb Code  1744  printfa.o(i._printf_core)
    i._printf_post_padding                   0x0000959c   Section        0  printfa.o(i._printf_post_padding)
    _printf_post_padding                     0x0000959d   Thumb Code    36  printfa.o(i._printf_post_padding)
    i._printf_pre_padding                    0x000095c0   Section        0  printfa.o(i._printf_pre_padding)
    _printf_pre_padding                      0x000095c1   Thumb Code    46  printfa.o(i._printf_pre_padding)
    i.comm_uart                              0x000095f0   Section        0  main.o(i.comm_uart)
    i.comm_uart_cal                          0x00009708   Section        0  calibration.o(i.comm_uart_cal)
    i.fputc                                  0x00009744   Section        0  hc32_ll_utility.o(i.fputc)
    i.main                                   0x0000975c   Section        0  main.o(i.main)
    i.main_func                              0x000098b8   Section        0  control.o(i.main_func)
    .constdata                               0x00009b30   Section        8  hc32_ll_dac.o(.constdata)
    .constdata                               0x00009b38   Section       32  hc32_ll_usart.o(.constdata)
    .bss.noinit                              0x1fffc000   Section        8  system_hc32f334.o(.bss.noinit)
    .data                                    0x1fffc008   Section       84  main.o(.data)
    .data                                    0x1fffc05c   Section       30  protect.o(.data)
    .data                                    0x1fffc07c   Section      112  calibration.o(.data)
    Cmd_in                                   0x1fffc080   Data           1  calibration.o(.data)
    .data                                    0x1fffc0ec   Section     2056  table_1.o(.data)
    .data                                    0x1fffc8f4   Section       16  hc32_ll_utility.o(.data)
    m_u32TickStep                            0x1fffc8f4   Data           4  hc32_ll_utility.o(.data)
    m_u32TickCount                           0x1fffc8f8   Data           4  hc32_ll_utility.o(.data)
    m_pvPrintDevice                          0x1fffc8fc   Data           4  hc32_ll_utility.o(.data)
    m_u32PrintTimeout                        0x1fffc900   Data           4  hc32_ll_utility.o(.data)
    .data                                    0x1fffc904   Section      696  control.o(.data)
    .data                                    0x1fffcbbc   Section        4  stdout.o(.data)
    .bss                                     0x1fffcbc0   Section       10  main.o(.bss)
    .bss                                     0x1fffcbcc   Section       64  hc32_ll_interrupts.o(.bss)
    m_apfnIrqHandler                         0x1fffcbcc   Data          64  hc32_ll_interrupts.o(.bss)
    STACK                                    0x1fffcc10   Section     3072  startup_hc32f334.o(STACK)

    Global Symbols

    Symbol Name                              Value     Ov Type        Size  Object(Section)

    BuildAttributes$$THM_ISAv4$E$P$D$K$B$S$7EM$VFPi3$EXTD16$VFPS$VFMA$PE$A:L22UL41UL21$X:L11$S22US41US21$IEEE1$IW$USESV6$~STKCKD$USESV7$~SHL$OTIME$ROPI$EBA8$MICROLIB$REQ8$PRES8$EABIv2 0x00000000   Number         0  anon$$obj.o ABSOLUTE
    __ARM_use_no_argv                        0x00000000   Number         0  main.o ABSOLUTE
    __Vectors                                0x00000000   Data           4  startup_hc32f334.o(RESET)
    _printf_a                                0x00000000   Number         0  stubs.o ABSOLUTE
    _printf_c                                0x00000000   Number         0  stubs.o ABSOLUTE
    _printf_charcount                        0x00000000   Number         0  stubs.o ABSOLUTE
    _printf_d                                0x00000000   Number         0  stubs.o ABSOLUTE
    _printf_e                                0x00000000   Number         0  stubs.o ABSOLUTE
    _printf_f                                0x00000000   Number         0  stubs.o ABSOLUTE
    _printf_flags                            0x00000000   Number         0  stubs.o ABSOLUTE
    _printf_fp_dec                           0x00000000   Number         0  stubs.o ABSOLUTE
    _printf_fp_hex                           0x00000000   Number         0  stubs.o ABSOLUTE
    _printf_g                                0x00000000   Number         0  stubs.o ABSOLUTE
    _printf_i                                0x00000000   Number         0  stubs.o ABSOLUTE
    _printf_int_dec                          0x00000000   Number         0  stubs.o ABSOLUTE
    _printf_l                                0x00000000   Number         0  stubs.o ABSOLUTE
    _printf_lc                               0x00000000   Number         0  stubs.o ABSOLUTE
    _printf_ll                               0x00000000   Number         0  stubs.o ABSOLUTE
    _printf_lld                              0x00000000   Number         0  stubs.o ABSOLUTE
    _printf_lli                              0x00000000   Number         0  stubs.o ABSOLUTE
    _printf_llo                              0x00000000   Number         0  stubs.o ABSOLUTE
    _printf_llu                              0x00000000   Number         0  stubs.o ABSOLUTE
    _printf_llx                              0x00000000   Number         0  stubs.o ABSOLUTE
    _printf_longlong_dec                     0x00000000   Number         0  stubs.o ABSOLUTE
    _printf_longlong_hex                     0x00000000   Number         0  stubs.o ABSOLUTE
    _printf_longlong_oct                     0x00000000   Number         0  stubs.o ABSOLUTE
    _printf_ls                               0x00000000   Number         0  stubs.o ABSOLUTE
    _printf_mbtowc                           0x00000000   Number         0  stubs.o ABSOLUTE
    _printf_n                                0x00000000   Number         0  stubs.o ABSOLUTE
    _printf_o                                0x00000000   Number         0  stubs.o ABSOLUTE
    _printf_p                                0x00000000   Number         0  stubs.o ABSOLUTE
    _printf_percent                          0x00000000   Number         0  stubs.o ABSOLUTE
    _printf_pre_padding                      0x00000000   Number         0  stubs.o ABSOLUTE
    _printf_return_value                     0x00000000   Number         0  stubs.o ABSOLUTE
    _printf_s                                0x00000000   Number         0  stubs.o ABSOLUTE
    _printf_sizespec                         0x00000000   Number         0  stubs.o ABSOLUTE
    _printf_str                              0x00000000   Number         0  stubs.o ABSOLUTE
    _printf_truncate_signed                  0x00000000   Number         0  stubs.o ABSOLUTE
    _printf_truncate_unsigned                0x00000000   Number         0  stubs.o ABSOLUTE
    _printf_u                                0x00000000   Number         0  stubs.o ABSOLUTE
    _printf_wc                               0x00000000   Number         0  stubs.o ABSOLUTE
    _printf_wctomb                           0x00000000   Number         0  stubs.o ABSOLUTE
    _printf_widthprec                        0x00000000   Number         0  stubs.o ABSOLUTE
    _printf_x                                0x00000000   Number         0  stubs.o ABSOLUTE
    __cpp_initialize__aeabi_                  - Undefined Weak Reference
    __cxa_finalize                            - Undefined Weak Reference
    _clock_init                               - Undefined Weak Reference
    _microlib_exit                            - Undefined Weak Reference
    __Vectors_End                            0x00000288   Data           0  startup_hc32f334.o(RESET)
    __Vectors_Size                           0x00000288   Number         0  startup_hc32f334.o ABSOLUTE
    __main                                   0x00000289   Thumb Code     0  entry.o(.ARM.Collect$$$$00000000)
    _main_stk                                0x00000289   Thumb Code     0  entry2.o(.ARM.Collect$$$$00000001)
    _main_scatterload                        0x0000028d   Thumb Code     0  entry5.o(.ARM.Collect$$$$00000004)
    __main_after_scatterload                 0x00000291   Thumb Code     0  entry5.o(.ARM.Collect$$$$00000004)
    _main_clock                              0x00000291   Thumb Code     0  entry7b.o(.ARM.Collect$$$$00000008)
    _main_cpp_init                           0x00000291   Thumb Code     0  entry8b.o(.ARM.Collect$$$$0000000A)
    _main_init                               0x00000291   Thumb Code     0  entry9a.o(.ARM.Collect$$$$0000000B)
    __rt_final_cpp                           0x00000299   Thumb Code     0  entry10a.o(.ARM.Collect$$$$0000000D)
    __rt_final_exit                          0x00000299   Thumb Code     0  entry11a.o(.ARM.Collect$$$$0000000F)
    Reset_Handler                            0x0000029d   Thumb Code     8  startup_hc32f334.o(.text)
    NMI_Handler                              0x000002a5   Thumb Code     2  startup_hc32f334.o(.text)
    HardFault_Handler                        0x000002a7   Thumb Code     2  startup_hc32f334.o(.text)
    MemManage_Handler                        0x000002a9   Thumb Code     2  startup_hc32f334.o(.text)
    BusFault_Handler                         0x000002ab   Thumb Code     2  startup_hc32f334.o(.text)
    UsageFault_Handler                       0x000002ad   Thumb Code     2  startup_hc32f334.o(.text)
    SVC_Handler                              0x000002af   Thumb Code     2  startup_hc32f334.o(.text)
    DebugMon_Handler                         0x000002b1   Thumb Code     2  startup_hc32f334.o(.text)
    PendSV_Handler                           0x000002b3   Thumb Code     2  startup_hc32f334.o(.text)
    SysTick_Handler                          0x000002b5   Thumb Code     2  startup_hc32f334.o(.text)
    ADC2_Handler                             0x000002b7   Thumb Code     0  startup_hc32f334.o(.text)
    ADC3_Handler                             0x000002b7   Thumb Code     0  startup_hc32f334.o(.text)
    CLK_XtalStop_Handler                     0x000002b7   Thumb Code     0  startup_hc32f334.o(.text)
    CMP1_Handler                             0x000002b7   Thumb Code     0  startup_hc32f334.o(.text)
    CMP2_Handler                             0x000002b7   Thumb Code     0  startup_hc32f334.o(.text)
    CMP3_Handler                             0x000002b7   Thumb Code     0  startup_hc32f334.o(.text)
    CTC_Handler                              0x000002b7   Thumb Code     0  startup_hc32f334.o(.text)
    DMA_Error_Handler                        0x000002b7   Thumb Code     0  startup_hc32f334.o(.text)
    DMA_TC0_BTC0_Handler                     0x000002b7   Thumb Code     0  startup_hc32f334.o(.text)
    DMA_TC1_BTC1_Handler                     0x000002b7   Thumb Code     0  startup_hc32f334.o(.text)
    DMA_TC2_BTC2_Handler                     0x000002b7   Thumb Code     0  startup_hc32f334.o(.text)
    DMA_TC3_BTC3_Handler                     0x000002b7   Thumb Code     0  startup_hc32f334.o(.text)
    DMA_TC4_BTC4_Handler                     0x000002b7   Thumb Code     0  startup_hc32f334.o(.text)
    DMA_TC5_BTC5_Handler                     0x000002b7   Thumb Code     0  startup_hc32f334.o(.text)
    DMA_TC6_BTC6_Handler                     0x000002b7   Thumb Code     0  startup_hc32f334.o(.text)
    DMA_TC7_BTC7_Handler                     0x000002b7   Thumb Code     0  startup_hc32f334.o(.text)
    EFM_OpEnd_Handler                        0x000002b7   Thumb Code     0  startup_hc32f334.o(.text)
    EFM_PEError_ReadCol_Handler              0x000002b7   Thumb Code     0  startup_hc32f334.o(.text)
    EMB_GR0_Handler                          0x000002b7   Thumb Code     0  startup_hc32f334.o(.text)
    EMB_GR1_Handler                          0x000002b7   Thumb Code     0  startup_hc32f334.o(.text)
    EMB_GR2_Handler                          0x000002b7   Thumb Code     0  startup_hc32f334.o(.text)
    EMB_GR3_Handler                          0x000002b7   Thumb Code     0  startup_hc32f334.o(.text)
    EMB_GR4_Handler                          0x000002b7   Thumb Code     0  startup_hc32f334.o(.text)
    EMB_GR5_Handler                          0x000002b7   Thumb Code     0  startup_hc32f334.o(.text)
    EMB_GR6_Handler                          0x000002b7   Thumb Code     0  startup_hc32f334.o(.text)
    EMB_GR7_Handler                          0x000002b7   Thumb Code     0  startup_hc32f334.o(.text)
    EMB_GR8_Handler                          0x000002b7   Thumb Code     0  startup_hc32f334.o(.text)
    EVENT_PORT1_Handler                      0x000002b7   Thumb Code     0  startup_hc32f334.o(.text)
    EVENT_PORT2_Handler                      0x000002b7   Thumb Code     0  startup_hc32f334.o(.text)
    EVENT_PORT3_Handler                      0x000002b7   Thumb Code     0  startup_hc32f334.o(.text)
    EVENT_PORT4_Handler                      0x000002b7   Thumb Code     0  startup_hc32f334.o(.text)
    EXTINT00_SWINT16_Handler                 0x000002b7   Thumb Code     0  startup_hc32f334.o(.text)
    EXTINT01_SWINT17_Handler                 0x000002b7   Thumb Code     0  startup_hc32f334.o(.text)
    EXTINT02_SWINT18_Handler                 0x000002b7   Thumb Code     0  startup_hc32f334.o(.text)
    EXTINT03_SWINT19_Handler                 0x000002b7   Thumb Code     0  startup_hc32f334.o(.text)
    EXTINT04_SWINT20_Handler                 0x000002b7   Thumb Code     0  startup_hc32f334.o(.text)
    EXTINT05_SWINT21_Handler                 0x000002b7   Thumb Code     0  startup_hc32f334.o(.text)
    EXTINT06_SWINT22_Handler                 0x000002b7   Thumb Code     0  startup_hc32f334.o(.text)
    EXTINT07_SWINT23_Handler                 0x000002b7   Thumb Code     0  startup_hc32f334.o(.text)
    EXTINT08_SWINT24_Handler                 0x000002b7   Thumb Code     0  startup_hc32f334.o(.text)
    EXTINT09_SWINT25_Handler                 0x000002b7   Thumb Code     0  startup_hc32f334.o(.text)
    EXTINT10_SWINT26_Handler                 0x000002b7   Thumb Code     0  startup_hc32f334.o(.text)
    EXTINT11_SWINT27_Handler                 0x000002b7   Thumb Code     0  startup_hc32f334.o(.text)
    EXTINT12_SWINT28_Handler                 0x000002b7   Thumb Code     0  startup_hc32f334.o(.text)
    EXTINT13_SWINT29_Handler                 0x000002b7   Thumb Code     0  startup_hc32f334.o(.text)
    EXTINT14_SWINT30_Handler                 0x000002b7   Thumb Code     0  startup_hc32f334.o(.text)
    EXTINT15_SWINT31_Handler                 0x000002b7   Thumb Code     0  startup_hc32f334.o(.text)
    FCM_Handler                              0x000002b7   Thumb Code     0  startup_hc32f334.o(.text)
    FPU_Error_Handler                        0x000002b7   Thumb Code     0  startup_hc32f334.o(.text)
    HRPWM_1_GCap_Handler                     0x000002b7   Thumb Code     0  startup_hc32f334.o(.text)
    HRPWM_1_GCmp_Handler                     0x000002b7   Thumb Code     0  startup_hc32f334.o(.text)
    HRPWM_1_SCmp_Handler                     0x000002b7   Thumb Code     0  startup_hc32f334.o(.text)
    HRPWM_2_GCap_Handler                     0x000002b7   Thumb Code     0  startup_hc32f334.o(.text)
    HRPWM_2_GCmp_Handler                     0x000002b7   Thumb Code     0  startup_hc32f334.o(.text)
    HRPWM_2_Ovf_Udf_Handler                  0x000002b7   Thumb Code     0  startup_hc32f334.o(.text)
    HRPWM_2_SCmp_Handler                     0x000002b7   Thumb Code     0  startup_hc32f334.o(.text)
    HRPWM_3_GCap_Handler                     0x000002b7   Thumb Code     0  startup_hc32f334.o(.text)
    HRPWM_3_GCmp_Handler                     0x000002b7   Thumb Code     0  startup_hc32f334.o(.text)
    HRPWM_3_Ovf_Udf_Handler                  0x000002b7   Thumb Code     0  startup_hc32f334.o(.text)
    HRPWM_3_SCmp_Handler                     0x000002b7   Thumb Code     0  startup_hc32f334.o(.text)
    HRPWM_4_GCap_Handler                     0x000002b7   Thumb Code     0  startup_hc32f334.o(.text)
    HRPWM_4_GCmp_Handler                     0x000002b7   Thumb Code     0  startup_hc32f334.o(.text)
    HRPWM_4_Ovf_Udf_Handler                  0x000002b7   Thumb Code     0  startup_hc32f334.o(.text)
    HRPWM_4_SCmp_Handler                     0x000002b7   Thumb Code     0  startup_hc32f334.o(.text)
    HRPWM_5_GCap_Handler                     0x000002b7   Thumb Code     0  startup_hc32f334.o(.text)
    HRPWM_5_GCmp_Handler                     0x000002b7   Thumb Code     0  startup_hc32f334.o(.text)
    HRPWM_5_Ovf_Udf_Handler                  0x000002b7   Thumb Code     0  startup_hc32f334.o(.text)
    HRPWM_5_SCmp_Handler                     0x000002b7   Thumb Code     0  startup_hc32f334.o(.text)
    HRPWM_6_GCap_Handler                     0x000002b7   Thumb Code     0  startup_hc32f334.o(.text)
    HRPWM_6_GCmp_Handler                     0x000002b7   Thumb Code     0  startup_hc32f334.o(.text)
    HRPWM_6_Ovf_Udf_Handler                  0x000002b7   Thumb Code     0  startup_hc32f334.o(.text)
    HRPWM_6_SCmp_Handler                     0x000002b7   Thumb Code     0  startup_hc32f334.o(.text)
    HRPWM_Handler                            0x000002b7   Thumb Code     0  startup_hc32f334.o(.text)
    I2C_Handler                              0x000002b7   Thumb Code     0  startup_hc32f334.o(.text)
    MCAN1_INT0_Handler                       0x000002b7   Thumb Code     0  startup_hc32f334.o(.text)
    MCAN1_INT1_Handler                       0x000002b7   Thumb Code     0  startup_hc32f334.o(.text)
    MCAN2_INT0_Handler                       0x000002b7   Thumb Code     0  startup_hc32f334.o(.text)
    MCAN2_INT1_Handler                       0x000002b7   Thumb Code     0  startup_hc32f334.o(.text)
    MCANRAM_ECCError_Handler                 0x000002b7   Thumb Code     0  startup_hc32f334.o(.text)
    PLA_Handler                              0x000002b7   Thumb Code     0  startup_hc32f334.o(.text)
    PWC_LVD1_Handler                         0x000002b7   Thumb Code     0  startup_hc32f334.o(.text)
    PWC_LVD2_Handler                         0x000002b7   Thumb Code     0  startup_hc32f334.o(.text)
    PWC_WKTM_Handler                         0x000002b7   Thumb Code     0  startup_hc32f334.o(.text)
    RTC_Handler                              0x000002b7   Thumb Code     0  startup_hc32f334.o(.text)
    SPI_Handler                              0x000002b7   Thumb Code     0  startup_hc32f334.o(.text)
    SWDT_Handler                             0x000002b7   Thumb Code     0  startup_hc32f334.o(.text)
    TMR0_1_Handler                           0x000002b7   Thumb Code     0  startup_hc32f334.o(.text)
    TMR0_2_Handler                           0x000002b7   Thumb Code     0  startup_hc32f334.o(.text)
    TMR4_GCmp_Handler                        0x000002b7   Thumb Code     0  startup_hc32f334.o(.text)
    TMR4_Ovf_Udf_Handler                     0x000002b7   Thumb Code     0  startup_hc32f334.o(.text)
    TMR4_Reload_Handler                      0x000002b7   Thumb Code     0  startup_hc32f334.o(.text)
    TMR4_SCmp_Handler                        0x000002b7   Thumb Code     0  startup_hc32f334.o(.text)
    TMR6_1_Dte_Handler                       0x000002b7   Thumb Code     0  startup_hc32f334.o(.text)
    TMR6_1_GCmp_Handler                      0x000002b7   Thumb Code     0  startup_hc32f334.o(.text)
    TMR6_1_Ovf_Udf_Handler                   0x000002b7   Thumb Code     0  startup_hc32f334.o(.text)
    TMR6_1_SCmp_Handler                      0x000002b7   Thumb Code     0  startup_hc32f334.o(.text)
    TMR6_2_Dte_Handler                       0x000002b7   Thumb Code     0  startup_hc32f334.o(.text)
    TMR6_2_GCmp_Handler                      0x000002b7   Thumb Code     0  startup_hc32f334.o(.text)
    TMR6_2_Ovf_Udf_Handler                   0x000002b7   Thumb Code     0  startup_hc32f334.o(.text)
    TMR6_2_SCmp_Handler                      0x000002b7   Thumb Code     0  startup_hc32f334.o(.text)
    TMR6_3_Dte_Handler                       0x000002b7   Thumb Code     0  startup_hc32f334.o(.text)
    TMR6_3_GCmp_Handler                      0x000002b7   Thumb Code     0  startup_hc32f334.o(.text)
    TMR6_3_Ovf_Udf_Handler                   0x000002b7   Thumb Code     0  startup_hc32f334.o(.text)
    TMR6_3_SCmp_Handler                      0x000002b7   Thumb Code     0  startup_hc32f334.o(.text)
    TMR6_4_Dte_Handler                       0x000002b7   Thumb Code     0  startup_hc32f334.o(.text)
    TMR6_4_GCmp_Handler                      0x000002b7   Thumb Code     0  startup_hc32f334.o(.text)
    TMR6_4_Ovf_Udf_Handler                   0x000002b7   Thumb Code     0  startup_hc32f334.o(.text)
    TMR6_4_SCmp_Handler                      0x000002b7   Thumb Code     0  startup_hc32f334.o(.text)
    TMRA_1_Cmp_Handler                       0x000002b7   Thumb Code     0  startup_hc32f334.o(.text)
    TMRA_1_Ovf_Udf_Handler                   0x000002b7   Thumb Code     0  startup_hc32f334.o(.text)
    TMRA_2_Cmp_Handler                       0x000002b7   Thumb Code     0  startup_hc32f334.o(.text)
    TMRA_2_Ovf_Udf_Handler                   0x000002b7   Thumb Code     0  startup_hc32f334.o(.text)
    TMRA_3_Cmp_Handler                       0x000002b7   Thumb Code     0  startup_hc32f334.o(.text)
    TMRA_3_Ovf_Udf_Handler                   0x000002b7   Thumb Code     0  startup_hc32f334.o(.text)
    TMRA_4_Cmp_Handler                       0x000002b7   Thumb Code     0  startup_hc32f334.o(.text)
    TMRA_4_Ovf_Udf_Handler                   0x000002b7   Thumb Code     0  startup_hc32f334.o(.text)
    TMRA_5_Cmp_Handler                       0x000002b7   Thumb Code     0  startup_hc32f334.o(.text)
    TMRA_5_Ovf_Udf_Handler                   0x000002b7   Thumb Code     0  startup_hc32f334.o(.text)
    USART1_Handler                           0x000002b7   Thumb Code     0  startup_hc32f334.o(.text)
    USART1_TCI_Handler                       0x000002b7   Thumb Code     0  startup_hc32f334.o(.text)
    USART1_WKUP_Handler                      0x000002b7   Thumb Code     0  startup_hc32f334.o(.text)
    USART2_Handler                           0x000002b7   Thumb Code     0  startup_hc32f334.o(.text)
    USART2_TxComplete_Handler                0x000002b7   Thumb Code     0  startup_hc32f334.o(.text)
    USART3_Handler                           0x000002b7   Thumb Code     0  startup_hc32f334.o(.text)
    USART3_TxComplete_Handler                0x000002b7   Thumb Code     0  startup_hc32f334.o(.text)
    USART4_Handler                           0x000002b7   Thumb Code     0  startup_hc32f334.o(.text)
    USART4_TxComplete_Handler                0x000002b7   Thumb Code     0  startup_hc32f334.o(.text)
    WDT_Handler                              0x000002b7   Thumb Code     0  startup_hc32f334.o(.text)
    __aeabi_uldivmod                         0x000002c1   Thumb Code    98  uldiv.o(.text)
    __aeabi_llsl                             0x00000323   Thumb Code    30  llshl.o(.text)
    _ll_shift_l                              0x00000323   Thumb Code     0  llshl.o(.text)
    __aeabi_ui2d                             0x00000341   Thumb Code    26  dfltui.o(.text)
    __aeabi_ul2d                             0x0000035b   Thumb Code    24  dfltul.o(.text)
    __aeabi_f2d                              0x00000373   Thumb Code    38  f2d.o(.text)
    __aeabi_d2f                              0x00000399   Thumb Code    56  d2f.o(.text)
    __aeabi_uidiv                            0x000003d1   Thumb Code     0  uidiv.o(.text)
    __aeabi_uidivmod                         0x000003d1   Thumb Code    44  uidiv.o(.text)
    HRPWM_1_Ovf_Udf_Handler                  0x000003fd   Thumb Code     4  main.o(i.HRPWM_1_Ovf_Udf_Handler)
    __I$use$fp                               0x000003fd   Thumb Code     0  iusefp.o(.text)
    u32ICGValue                              0x00000400   Data          96  hc32_ll_icg.o(.ARM.__AT_0x00000400)
    __aeabi_ddiv                             0x00000461   Thumb Code   222  ddiv.o(.text)
    __aeabi_llsr                             0x0000053f   Thumb Code    32  llushr.o(.text)
    _ll_ushift_r                             0x0000053f   Thumb Code     0  llushr.o(.text)
    _float_round                             0x0000055f   Thumb Code    18  fepilogue.o(.text)
    _float_epilogue                          0x00000571   Thumb Code    92  fepilogue.o(.text)
    _double_round                            0x000005cd   Thumb Code    30  depilogue.o(.text)
    _double_epilogue                         0x000005eb   Thumb Code   156  depilogue.o(.text)
    __aeabi_dadd                             0x00000687   Thumb Code   322  dadd.o(.text)
    __aeabi_dsub                             0x000007c9   Thumb Code     6  dadd.o(.text)
    __aeabi_drsub                            0x000007cf   Thumb Code     6  dadd.o(.text)
    __aeabi_dmul                             0x000007d5   Thumb Code   228  dmul.o(.text)
    __aeabi_d2ulz                            0x000008b9   Thumb Code    48  dfixul.o(.text)
    __aeabi_cdrcmple                         0x000008e9   Thumb Code    48  cdrcmple.o(.text)
    __scatterload                            0x00000919   Thumb Code    28  init.o(.text)
    __scatterload_rt2                        0x00000919   Thumb Code     0  init.o(.text)
    __aeabi_lasr                             0x0000093d   Thumb Code    36  llsshr.o(.text)
    _ll_sshift_r                             0x0000093d   Thumb Code     0  llsshr.o(.text)
    __decompress                             0x00000961   Thumb Code     0  __dclz77c.o(.text)
    __decompress2                            0x00000961   Thumb Code    94  __dclz77c.o(.text)
    ACCur_Cali_Rootine                       0x000009c1   Thumb Code   206  calibration.o(i.ACCur_Cali_Rootine)
    ADC1_Handler                             0x00000b89   Thumb Code    16  main.o(i.ADC1_Handler)
    ADC_ChCmd                                0x00000b9d   Thumb Code   110  hc32_ll_adc.o(i.ADC_ChCmd)
    ADC_ChRemap                              0x00000c51   Thumb Code   138  hc32_ll_adc.o(i.ADC_ChRemap)
    ADC_Init                                 0x00000d21   Thumb Code   130  hc32_ll_adc.o(i.ADC_Init)
    ADC_IntCmd                               0x00000de9   Thumb Code    86  hc32_ll_adc.o(i.ADC_IntCmd)
    ADC_StructInit                           0x00000e85   Thumb Code    18  hc32_ll_adc.o(i.ADC_StructInit)
    ADC_TriggerCmd                           0x00000e99   Thumb Code    88  hc32_ll_adc.o(i.ADC_TriggerCmd)
    ADC_TriggerConfig                        0x00000f35   Thumb Code    98  hc32_ll_adc.o(i.ADC_TriggerConfig)
    AOS_SetTriggerEventSrc                   0x00000fdd   Thumb Code   222  hc32_ll_aos.o(i.AOS_SetTriggerEventSrc)
    Adc_Config                               0x000010f9   Thumb Code   286  main.o(i.Adc_Config)
    AllPWM_Disable                           0x00001225   Thumb Code    52  control.o(i.AllPWM_Disable)
    BSP_CLK_Init                             0x00001265   Thumb Code   154  ev_hc32f334_lqfp64.o(i.BSP_CLK_Init)
    BSP_PRINTF_Preinit                       0x00001309   Thumb Code   152  ev_hc32f334_lqfp64.o(i.BSP_PRINTF_Preinit)
    CLK_GetStableStatus                      0x000013ad   Thumb Code    36  hc32_ll_clk.o(i.CLK_GetStableStatus)
    CLK_PLLCmd                               0x0000140d   Thumb Code   118  hc32_ll_clk.o(i.CLK_PLLCmd)
    CLK_PLLInit                              0x000014c1   Thumb Code   374  hc32_ll_clk.o(i.CLK_PLLInit)
    CLK_PLLStructInit                        0x00001691   Thumb Code    48  hc32_ll_clk.o(i.CLK_PLLStructInit)
    CLK_SetClockDiv                          0x000016c1   Thumb Code    14  hc32_ll_clk.o(i.CLK_SetClockDiv)
    CLK_SetSysClockSrc                       0x000016cf   Thumb Code    14  hc32_ll_clk.o(i.CLK_SetSysClockSrc)
    CLK_XtalCmd                              0x00001709   Thumb Code   110  hc32_ll_clk.o(i.CLK_XtalCmd)
    CLK_XtalInit                             0x000017b5   Thumb Code   182  hc32_ll_clk.o(i.CLK_XtalInit)
    CLK_XtalStructInit                       0x000018ad   Thumb Code    28  hc32_ll_clk.o(i.CLK_XtalStructInit)
    CMP_CompareOutCmd                        0x000018c9   Thumb Code    68  hc32_ll_cmp.o(i.CMP_CompareOutCmd)
    CMP_NormalModeInit                       0x00001985   Thumb Code   294  hc32_ll_cmp.o(i.CMP_NormalModeInit)
    CMP_PinVcoutCmd                          0x00001af1   Thumb Code    68  hc32_ll_cmp.o(i.CMP_PinVcoutCmd)
    CMP_StructInit                           0x00001b79   Thumb Code    24  hc32_ll_cmp.o(i.CMP_StructInit)
    CalPara_Init                             0x00001b91   Thumb Code    98  calibration.o(i.CalPara_Init)
    Cmp_Config                               0x00001da9   Thumb Code   108  main.o(i.Cmp_Config)
    Cosine                                   0x00001e1d   Thumb Code   102  table_1.o(i.Cosine)
    DAC_ADCPrioCmd                           0x00001e9d   Thumb Code    58  hc32_ll_dac.o(i.DAC_ADCPrioCmd)
    DAC_ADCPrioConfig                        0x00001f19   Thumb Code    70  hc32_ll_dac.o(i.DAC_ADCPrioConfig)
    DAC_DeInit                               0x00001fa1   Thumb Code   146  hc32_ll_dac.o(i.DAC_DeInit)
    DAC_Init                                 0x00002081   Thumb Code   126  hc32_ll_dac.o(i.DAC_Init)
    DAC_OutputCmd                            0x00002141   Thumb Code    86  hc32_ll_dac.o(i.DAC_OutputCmd)
    DAC_Start                                0x000021d9   Thumb Code    80  hc32_ll_dac.o(i.DAC_Start)
    DAC_StructInit                           0x00002269   Thumb Code    20  hc32_ll_dac.o(i.DAC_StructInit)
    DDL_AssertHandler                        0x0000227d   Thumb Code    12  hc32_ll_utility.o(i.DDL_AssertHandler)
    DDL_ConsoleOutputChar                    0x000022b9   Thumb Code    60  hc32_ll_utility.o(i.DDL_ConsoleOutputChar)
    DDL_DelayUS                              0x000022f9   Thumb Code    52  hc32_ll_utility.o(i.DDL_DelayUS)
    Dac_Config                               0x00002339   Thumb Code   182  main.o(i.Dac_Config)
    EFM_CacheRamReset                        0x00002405   Thumb Code    46  hc32_ll_efm.o(i.EFM_CacheRamReset)
    EFM_ClearStatus                          0x00002475   Thumb Code    50  hc32_ll_efm.o(i.EFM_ClearStatus)
    EFM_DCacheCmd                            0x000024e5   Thumb Code    46  hc32_ll_efm.o(i.EFM_DCacheCmd)
    EFM_FWMC_Cmd                             0x00002555   Thumb Code    42  hc32_ll_efm.o(i.EFM_FWMC_Cmd)
    EFM_GetStatus                            0x000025c1   Thumb Code    40  hc32_ll_efm.o(i.EFM_GetStatus)
    EFM_ICacheCmd                            0x00002625   Thumb Code    46  hc32_ll_efm.o(i.EFM_ICacheCmd)
    EFM_PrefetchCmd                          0x00002695   Thumb Code    46  hc32_ll_efm.o(i.EFM_PrefetchCmd)
    EFM_ProgramWord                          0x00002705   Thumb Code   220  hc32_ll_efm.o(i.EFM_ProgramWord)
    EFM_SectorErase                          0x00002831   Thumb Code   208  hc32_ll_efm.o(i.EFM_SectorErase)
    EFM_SetWaitCycle                         0x0000294d   Thumb Code   102  hc32_ll_efm.o(i.EFM_SetWaitCycle)
    EFM_SingleSectorOperateCmd               0x000029f9   Thumb Code    80  hc32_ll_efm.o(i.EFM_SingleSectorOperateCmd)
    EMB_ClearStatus                          0x00002ab5   Thumb Code   106  hc32_ll_emb.o(i.EMB_ClearStatus)
    EMB_HRPWM_Init                           0x00002b65   Thumb Code  1176  hc32_ll_emb.o(i.EMB_HRPWM_Init)
    EMB_HRPWM_StructInit                     0x00002ffd   Thumb Code   112  hc32_ll_emb.o(i.EMB_HRPWM_StructInit)
    EMB_SetReleasePwmCond                    0x0000306d   Thumb Code   138  hc32_ll_emb.o(i.EMB_SetReleasePwmCond)
    Emb_Config                               0x00003139   Thumb Code   262  main.o(i.Emb_Config)
    FCG_Fcg0PeriphClockCmd                   0x0000324d   Thumb Code    68  hc32_ll_fcg.o(i.FCG_Fcg0PeriphClockCmd)
    FCG_Fcg2PeriphClockCmd                   0x000032d1   Thumb Code    52  hc32_ll_fcg.o(i.FCG_Fcg2PeriphClockCmd)
    FCG_Fcg3PeriphClockCmd                   0x00003345   Thumb Code    52  hc32_ll_fcg.o(i.FCG_Fcg3PeriphClockCmd)
    FlyBack_Interleaved_adjustment           0x000033b9   Thumb Code   290  control.o(i.FlyBack_Interleaved_adjustment)
    GPIO_AnalogCmd                           0x000034f1   Thumb Code   116  hc32_ll_gpio.o(i.GPIO_AnalogCmd)
    GPIO_Config                              0x000035a1   Thumb Code   334  main.o(i.GPIO_Config)
    GPIO_HrpwmPinCmd                         0x000036f1   Thumb Code    74  hc32_ll_gpio.o(i.GPIO_HrpwmPinCmd)
    GPIO_Init                                0x00003779   Thumb Code   414  hc32_ll_gpio.o(i.GPIO_Init)
    GPIO_SetDebugPort                        0x00003955   Thumb Code    80  hc32_ll_gpio.o(i.GPIO_SetDebugPort)
    GPIO_SetFunc                             0x000039e1   Thumb Code   134  hc32_ll_gpio.o(i.GPIO_SetFunc)
    GPIO_SetReadWaitCycle                    0x00003aa5   Thumb Code    96  hc32_ll_gpio.o(i.GPIO_SetReadWaitCycle)
    GPIO_StructInit                          0x00003b41   Thumb Code    40  hc32_ll_gpio.o(i.GPIO_StructInit)
    GridVol_Cali_Rootine                     0x00003b69   Thumb Code   302  calibration.o(i.GridVol_Cali_Rootine)
    Grid_HalfCycle_cal                       0x00003e3d   Thumb Code   110  control.o(i.Grid_HalfCycle_cal)
    HRPWM_BufStructInit                      0x00003ed5   Thumb Code    18  hc32_ll_hrpwm.o(i.HRPWM_BufStructInit)
    HRPWM_CALIB_ProcessSingle                0x00003fcd   Thumb Code   106  hc32_ll_hrpwm.o(i.HRPWM_CALIB_ProcessSingle)
    HRPWM_CommonDeInit                       0x0000405d   Thumb Code   114  hc32_ll_hrpwm.o(i.HRPWM_CommonDeInit)
    HRPWM_Config                             0x000040d5   Thumb Code   570  main.o(i.HRPWM_Config)
    HRPWM_DeInit                             0x000043b5   Thumb Code   324  hc32_ll_hrpwm.o(i.HRPWM_DeInit)
    HRPWM_EMB_ChAConfig                      0x00004555   Thumb Code   198  hc32_ll_hrpwm.o(i.HRPWM_EMB_ChAConfig)
    HRPWM_EMB_StructInit                     0x0000466d   Thumb Code    18  hc32_ll_hrpwm.o(i.HRPWM_EMB_StructInit)
    HRPWM_EVT_Config                         0x00004681   Thumb Code   402  hc32_ll_hrpwm.o(i.HRPWM_EVT_Config)
    HRPWM_EVT_FilterConfig                   0x00004851   Thumb Code   274  hc32_ll_hrpwm.o(i.HRPWM_EVT_FilterConfig)
    HRPWM_EVT_FilterSignalConfig             0x00004a61   Thumb Code   198  hc32_ll_hrpwm.o(i.HRPWM_EVT_FilterSignalConfig)
    HRPWM_EVT_FilterSignalStructInit         0x00004b79   Thumb Code    22  hc32_ll_hrpwm.o(i.HRPWM_EVT_FilterSignalStructInit)
    HRPWM_EVT_FilterStructInit               0x00004b8f   Thumb Code    18  hc32_ll_hrpwm.o(i.HRPWM_EVT_FilterStructInit)
    HRPWM_EVT_OffsetBufConfig                0x00004ba1   Thumb Code   174  hc32_ll_hrpwm.o(i.HRPWM_EVT_OffsetBufConfig)
    HRPWM_EVT_StructInit                     0x00004d31   Thumb Code    26  hc32_ll_hrpwm.o(i.HRPWM_EVT_StructInit)
    HRPWM_GeneralAEBufConfig                 0x00004ddd   Thumb Code   174  hc32_ll_hrpwm.o(i.HRPWM_GeneralAEBufConfig)
    HRPWM_GeneralBFBufConfig                 0x00004f6d   Thumb Code   174  hc32_ll_hrpwm.o(i.HRPWM_GeneralBFBufConfig)
    HRPWM_Init                               0x00005399   Thumb Code   126  hc32_ll_hrpwm.o(i.HRPWM_Init)
    HRPWM_PWM_ChAInit                        0x0000546d   Thumb Code   674  hc32_ll_hrpwm.o(i.HRPWM_PWM_ChAInit)
    HRPWM_PWM_OutputInit                     0x000057f5   Thumb Code   160  hc32_ll_hrpwm.o(i.HRPWM_PWM_OutputInit)
    HRPWM_PWM_OutputStructInit               0x000058e5   Thumb Code    20  hc32_ll_hrpwm.o(i.HRPWM_PWM_OutputStructInit)
    HRPWM_PWM_StructInit                     0x000058f9   Thumb Code    48  hc32_ll_hrpwm.o(i.HRPWM_PWM_StructInit)
    HRPWM_StructInit                         0x0000592d   Thumb Code    22  hc32_ll_hrpwm.o(i.HRPWM_StructInit)
    IRQ000_Handler                           0x00005949   Thumb Code    14  hc32_ll_interrupts.o(i.IRQ000_Handler)
    IRQ001_Handler                           0x0000595d   Thumb Code    14  hc32_ll_interrupts.o(i.IRQ001_Handler)
    IRQ002_Handler                           0x00005971   Thumb Code    14  hc32_ll_interrupts.o(i.IRQ002_Handler)
    IRQ003_Handler                           0x00005985   Thumb Code    14  hc32_ll_interrupts.o(i.IRQ003_Handler)
    IRQ004_Handler                           0x00005999   Thumb Code    14  hc32_ll_interrupts.o(i.IRQ004_Handler)
    IRQ005_Handler                           0x000059ad   Thumb Code    14  hc32_ll_interrupts.o(i.IRQ005_Handler)
    IRQ006_Handler                           0x000059c1   Thumb Code    14  hc32_ll_interrupts.o(i.IRQ006_Handler)
    IRQ007_Handler                           0x000059d5   Thumb Code    14  hc32_ll_interrupts.o(i.IRQ007_Handler)
    IRQ008_Handler                           0x000059e9   Thumb Code    14  hc32_ll_interrupts.o(i.IRQ008_Handler)
    IRQ009_Handler                           0x000059fd   Thumb Code    14  hc32_ll_interrupts.o(i.IRQ009_Handler)
    IRQ010_Handler                           0x00005a11   Thumb Code    14  hc32_ll_interrupts.o(i.IRQ010_Handler)
    IRQ011_Handler                           0x00005a25   Thumb Code    14  hc32_ll_interrupts.o(i.IRQ011_Handler)
    IRQ012_Handler                           0x00005a39   Thumb Code    14  hc32_ll_interrupts.o(i.IRQ012_Handler)
    IRQ013_Handler                           0x00005a4d   Thumb Code    14  hc32_ll_interrupts.o(i.IRQ013_Handler)
    IRQ014_Handler                           0x00005a61   Thumb Code    14  hc32_ll_interrupts.o(i.IRQ014_Handler)
    IRQ015_Handler                           0x00005a75   Thumb Code    14  hc32_ll_interrupts.o(i.IRQ015_Handler)
    LED_Control                              0x00005a89   Thumb Code   102  main.o(i.LED_Control)
    LL_PERIPH_WE                             0x00005b01   Thumb Code    90  hc32_ll.o(i.LL_PERIPH_WE)
    LL_PrintfInit                            0x00005b75   Thumb Code    62  hc32_ll_utility.o(i.LL_PrintfInit)
    MPPT                                     0x00005bfd   Thumb Code   368  control.o(i.MPPT)
    MicroInv_AC_CURRENT_LOOP                 0x00005d89   Thumb Code   958  control.o(i.MicroInv_AC_CURRENT_LOOP)
    MicroInv_PV_VOLREF_RAMP                  0x00006179   Thumb Code    74  control.o(i.MicroInv_PV_VOLREF_RAMP)
    MicroInv_PV_VOLTAGE_LOOP                 0x000061d5   Thumb Code   132  control.o(i.MicroInv_PV_VOLTAGE_LOOP)
    MicroInv_Protect                         0x00006261   Thumb Code   758  protect.o(i.MicroInv_Protect)
    MicroInv_StateMachine                    0x00006591   Thumb Code   308  control.o(i.MicroInv_StateMachine)
    MicroInv_Unfolding_Driver                0x000066ed   Thumb Code   180  control.o(i.MicroInv_Unfolding_Driver)
    Micro_inverter_CTRL                      0x000067a9   Thumb Code   438  control.o(i.Micro_inverter_CTRL)
    PLL_FUN                                  0x0000696d   Thumb Code   370  control.o(i.PLL_FUN)
    PVVol_Cali_Rootine                       0x00006b15   Thumb Code   310  calibration.o(i.PVVol_Cali_Rootine)
    Read_CalPar                              0x00006de1   Thumb Code   250  main.o(i.Read_CalPar)
    SampleCondition_Cal                      0x00006f49   Thumb Code   392  control.o(i.SampleCondition_Cal)
    Sine                                     0x00007405   Thumb Code    98  table_1.o(i.Sine)
    Square_root                              0x00007649   Thumb Code    80  table_1.o(i.Square_root)
    SystemCoreClockUpdate                    0x0000769d   Thumb Code   112  system_hc32f334.o(i.SystemCoreClockUpdate)
    SystemInit                               0x00007729   Thumb Code    26  system_hc32f334.o(i.SystemInit)
    System_Calib_Statemachine                0x00007749   Thumb Code   524  calibration.o(i.System_Calib_Statemachine)
    TMRA_Init                                0x00007c85   Thumb Code   272  hc32_ll_tmra.o(i.TMRA_Init)
    TMRA_SetPeriodValue                      0x00007de1   Thumb Code    50  hc32_ll_tmra.o(i.TMRA_SetPeriodValue)
    TMRA_Start                               0x00007e61   Thumb Code    56  hc32_ll_tmra.o(i.TMRA_Start)
    TMRA_StructInit                          0x00007ee5   Thumb Code    32  hc32_ll_tmra.o(i.TMRA_StructInit)
    Timer_Counter                            0x00007f05   Thumb Code    66  control.o(i.Timer_Counter)
    TmrA_Config                              0x00007f4d   Thumb Code    56  main.o(i.TmrA_Config)
    USART_FuncCmd                            0x00008159   Thumb Code   194  hc32_ll_usart.o(i.USART_FuncCmd)
    USART_LIN_GetMeasureBaudrate             0x000082e5   Thumb Code    88  hc32_ll_usart.o(i.USART_LIN_GetMeasureBaudrate)
    USART_SetBaudrate                        0x000083b9   Thumb Code   190  hc32_ll_usart.o(i.USART_SetBaudrate)
    USART_SetClockDiv                        0x000084c5   Thumb Code    88  hc32_ll_usart.o(i.USART_SetClockDiv)
    USART_UART_Init                          0x00008565   Thumb Code   336  hc32_ll_usart.o(i.USART_UART_Init)
    USART_UART_StructInit                    0x000086fd   Thumb Code    44  hc32_ll_usart.o(i.USART_UART_StructInit)
    Vally_SW_Delay_Cal                       0x00008729   Thumb Code   504  control.o(i.Vally_SW_Delay_Cal)
    WDT_Config                               0x0000897d   Thumb Code    38  main.o(i.WDT_Config)
    WDT_FeedDog                              0x000089a5   Thumb Code    16  hc32_ll_wdt.o(i.WDT_FeedDog)
    WDT_Init                                 0x000089b9   Thumb Code   260  hc32_ll_wdt.o(i.WDT_Init)
    Write_CalPar                             0x00008afd   Thumb Code   234  main.o(i.Write_CalPar)
    ZCD_Threshold_Cal                        0x00008c6d   Thumb Code    42  control.o(i.ZCD_Threshold_Cal)
    __0printf                                0x00008ca9   Thumb Code    22  printfa.o(i.__0printf)
    __1printf                                0x00008ca9   Thumb Code     0  printfa.o(i.__0printf)
    __2printf                                0x00008ca9   Thumb Code     0  printfa.o(i.__0printf)
    __c89printf                              0x00008ca9   Thumb Code     0  printfa.o(i.__0printf)
    printf                                   0x00008ca9   Thumb Code     0  printfa.o(i.__0printf)
    __scatterload_copy                       0x00008d1d   Thumb Code    14  handlers.o(i.__scatterload_copy)
    __scatterload_null                       0x00008d2b   Thumb Code     2  handlers.o(i.__scatterload_null)
    __scatterload_zeroinit                   0x00008d2d   Thumb Code    14  handlers.o(i.__scatterload_zeroinit)
    comm_uart                                0x000095f1   Thumb Code   236  main.o(i.comm_uart)
    comm_uart_cal                            0x00009709   Thumb Code    46  calibration.o(i.comm_uart_cal)
    fputc                                    0x00009745   Thumb Code    22  hc32_ll_utility.o(i.fputc)
    main                                     0x0000975d   Thumb Code   232  main.o(i.main)
    main_func                                0x000098b9   Thumb Code   574  control.o(i.main_func)
    Region$$Table$$Base                      0x00009b58   Number         0  anon$$obj.o(Region$$Table)
    Region$$Table$$Limit                     0x00009b78   Number         0  anon$$obj.o(Region$$Table)
    SystemCoreClock                          0x1fffc000   Data           4  system_hc32f334.o(.bss.noinit)
    HRC_VALUE                                0x1fffc004   Data           4  system_hc32f334.o(.bss.noinit)
    Update_CalPar_cmd                        0x1fffc008   Data           1  main.o(.data)
    Mode_delay_flag                          0x1fffc009   Data           1  main.o(.data)
    Calib_mode_1s_Cnt_Delay                  0x1fffc00a   Data           1  main.o(.data)
    Mode_Sel_Timer                           0x1fffc00b   Data           1  main.o(.data)
    twinkle_flag                             0x1fffc00c   Data           1  main.o(.data)
    System_status_upload_cmd                 0x1fffc00d   Data           1  main.o(.data)
    CalibPara_Done_Flag                      0x1fffc00e   Data           1  main.o(.data)
    Tx_count                                 0x1fffc010   Data           2  main.o(.data)
    MicroInv_Fault_Flag_pre                  0x1fffc012   Data           2  main.o(.data)
    twinkle_cnt                              0x1fffc014   Data           4  main.o(.data)
    TEST_TIME_THRESHOLD                      0x1fffc018   Data           4  main.o(.data)
    cur_set_value                            0x1fffc01c   Data           4  main.o(.data)
    IFB2_Gain_par                            0x1fffc020   Data           4  main.o(.data)
    IFB2_Offset_par                          0x1fffc024   Data           4  main.o(.data)
    IFB1_Gain_par                            0x1fffc028   Data           4  main.o(.data)
    IFB1_Offset_par                          0x1fffc02c   Data           4  main.o(.data)
    Vpv_Gain_par                             0x1fffc030   Data           4  main.o(.data)
    Vpv_Offset_par                           0x1fffc034   Data           4  main.o(.data)
    IgL_Gain_par                             0x1fffc038   Data           4  main.o(.data)
    IgL_Offset_par                           0x1fffc03c   Data           4  main.o(.data)
    IgR_Gain_par                             0x1fffc040   Data           4  main.o(.data)
    IgR_Offset_par                           0x1fffc044   Data           4  main.o(.data)
    Ipv_Gain_par                             0x1fffc048   Data           4  main.o(.data)
    Ipv_Offset_par                           0x1fffc04c   Data           4  main.o(.data)
    Vgrid_Gain_par                           0x1fffc050   Data           4  main.o(.data)
    Vgrid_Offset_par                         0x1fffc054   Data           4  main.o(.data)
    ZCD_gain_par                             0x1fffc058   Data           4  main.o(.data)
    System_Fault_CLR_cmd                     0x1fffc05c   Data           1  protect.o(.data)
    Grid_VolRMS_max_cnt                      0x1fffc05e   Data           2  protect.o(.data)
    Grid_VolRMS_min_cnt                      0x1fffc060   Data           2  protect.o(.data)
    Grid_VolRMS_Recover_cnt                  0x1fffc062   Data           2  protect.o(.data)
    Grid_VolInstant_max_cnt                  0x1fffc064   Data           2  protect.o(.data)
    Grid_VolInstant_Recover_cnt              0x1fffc066   Data           2  protect.o(.data)
    Grid_CurInstant_max_cnt                  0x1fffc068   Data           2  protect.o(.data)
    Grid_CurInstant_Recover_cnt              0x1fffc06a   Data           2  protect.o(.data)
    PVVol_max_cnt                            0x1fffc06c   Data           2  protect.o(.data)
    PVVol_min_cnt                            0x1fffc06e   Data           2  protect.o(.data)
    PVVol_OVP_Recover_cnt                    0x1fffc070   Data           2  protect.o(.data)
    PVVol_UVP_Recover_cnt                    0x1fffc072   Data           2  protect.o(.data)
    PVCur_OCP_Recover_cnt                    0x1fffc074   Data           2  protect.o(.data)
    PVCur_OCP_cnt                            0x1fffc076   Data           2  protect.o(.data)
    MicroInv_Fault_Flag                      0x1fffc078   Data           2  protect.o(.data)
    Cmd_cal                                  0x1fffc07c   Data           1  calibration.o(.data)
    Calib_Sel                                0x1fffc07d   Data           1  calibration.o(.data)
    SysCali_Cmd                              0x1fffc07e   Data           1  calibration.o(.data)
    Print_flag                               0x1fffc07f   Data           1  calibration.o(.data)
    GridVol_Cali_State                       0x1fffc081   Data           1  calibration.o(.data)
    PVVol_Cali_State                         0x1fffc082   Data           1  calibration.o(.data)
    ACCur_Cali_State                         0x1fffc083   Data           1  calibration.o(.data)
    SysCali_State                            0x1fffc084   Data           1  calibration.o(.data)
    GridVol_S1_Value_LSB                     0x1fffc088   Data           4  calibration.o(.data)
    GridVol_S2_Value_LSB                     0x1fffc08c   Data           4  calibration.o(.data)
    GridVol_Cali_Gain                        0x1fffc090   Data           4  calibration.o(.data)
    GridVol_Cali_Offset                      0x1fffc094   Data           4  calibration.o(.data)
    PVVol_S1_Value_LSB                       0x1fffc098   Data           4  calibration.o(.data)
    PVVol_S2_Value_LSB                       0x1fffc09c   Data           4  calibration.o(.data)
    PVVol_Cali_Gain                          0x1fffc0a0   Data           4  calibration.o(.data)
    PVVol_Cali_Offset                        0x1fffc0a4   Data           4  calibration.o(.data)
    ACCur_L_Offset                           0x1fffc0a8   Data           4  calibration.o(.data)
    ACCur_R_Offset                           0x1fffc0ac   Data           4  calibration.o(.data)
    IFB2_GAIN                                0x1fffc0b0   Data           4  calibration.o(.data)
    IFB2_OFFSET                              0x1fffc0b4   Data           4  calibration.o(.data)
    IFB1_GAIN                                0x1fffc0b8   Data           4  calibration.o(.data)
    IFB1_OFFSET                              0x1fffc0bc   Data           4  calibration.o(.data)
    IGL_GAIN                                 0x1fffc0c0   Data           4  calibration.o(.data)
    IGL_OFFSET                               0x1fffc0c4   Data           4  calibration.o(.data)
    IGR_GAIN                                 0x1fffc0c8   Data           4  calibration.o(.data)
    IGR_OFFSET                               0x1fffc0cc   Data           4  calibration.o(.data)
    IPV_GAIN                                 0x1fffc0d0   Data           4  calibration.o(.data)
    IPV_OFFSET                               0x1fffc0d4   Data           4  calibration.o(.data)
    ZCD_CAL_GAIN                             0x1fffc0d8   Data           4  calibration.o(.data)
    VPV_GAIN                                 0x1fffc0dc   Data           4  calibration.o(.data)
    VPV_OFFSET                               0x1fffc0e0   Data           4  calibration.o(.data)
    VGRID_GAIN                               0x1fffc0e4   Data           4  calibration.o(.data)
    VGRID_OFFSET                             0x1fffc0e8   Data           4  calibration.o(.data)
    sin_table                                0x1fffc0ec   Data        1028  table_1.o(.data)
    cos_table                                0x1fffc4f0   Data        1028  table_1.o(.data)
    MicroInv_Start_cmd                       0x1fffc904   Data           1  control.o(.data)
    InvPWM_ON_Flag                           0x1fffc905   Data           1  control.o(.data)
    MPPT_Run_Flag                            0x1fffc906   Data           1  control.o(.data)
    Ig_L_cnt                                 0x1fffc907   Data           1  control.o(.data)
    Ig_R_cnt                                 0x1fffc908   Data           1  control.o(.data)
    InvPWM_En_cmd                            0x1fffc909   Data           1  control.o(.data)
    FBPWM_En_cmd                             0x1fffc90a   Data           1  control.o(.data)
    MPPT_En_cmd                              0x1fffc90b   Data           1  control.o(.data)
    System_Ready_Flag                        0x1fffc90c   Data           1  control.o(.data)
    pos_ON_FB_sample                         0x1fffc90d   Data           1  control.o(.data)
    neg_ON_FB_sample                         0x1fffc90e   Data           1  control.o(.data)
    pos_ON_sample                            0x1fffc90f   Data           1  control.o(.data)
    neg_ON_sample                            0x1fffc910   Data           1  control.o(.data)
    pos_ON_SCR_sample                        0x1fffc911   Data           1  control.o(.data)
    neg_ON_SCR_sample                        0x1fffc912   Data           1  control.o(.data)
    FB_BothWork_Flag                         0x1fffc913   Data           1  control.o(.data)
    Duty_update_Flag                         0x1fffc914   Data           1  control.o(.data)
    MPPT_State_Flag                          0x1fffc915   Data           1  control.o(.data)
    MPPT_State_Pre_Flag                      0x1fffc916   Data           1  control.o(.data)
    MPPT_State_Pre2_Flag                     0x1fffc917   Data           1  control.o(.data)
    MPPT_First_Flag                          0x1fffc918   Data           1  control.o(.data)
    FB_BothWork_Flag_active                  0x1fffc919   Data           1  control.o(.data)
    FB_BothWork_Flag_active_Pre              0x1fffc91a   Data           1  control.o(.data)
    FB_BothWork_Flag_active_Pre1             0x1fffc91b   Data           1  control.o(.data)
    Vally_Cal_All_Finish_Flag                0x1fffc91c   Data           1  control.o(.data)
    MicroInv_State                           0x1fffc91d   Data           1  control.o(.data)
    Vally_SW_State                           0x1fffc91e   Data           1  control.o(.data)
    counter_500ms                            0x1fffc920   Data           2  control.o(.data)
    RMS_cnt                                  0x1fffc922   Data           2  control.o(.data)
    Rms_Sum_Flag                             0x1fffc924   Data           2  control.o(.data)
    RMS_cnt_Cal                              0x1fffc926   Data           2  control.o(.data)
    SSTART_Delay_cnt                         0x1fffc928   Data           2  control.o(.data)
    System_Ready_cnt                         0x1fffc92a   Data           2  control.o(.data)
    PLL_ok_cnt                               0x1fffc92c   Data           2  control.o(.data)
    PLL_ok_flag                              0x1fffc92e   Data           2  control.o(.data)
    ZCD_Threshold_12bit                      0x1fffc930   Data           2  control.o(.data)
    Time_50us_Cnt                            0x1fffc932   Data           2  control.o(.data)
    Time_1ms_Cnt                             0x1fffc934   Data           2  control.o(.data)
    Time_100ms_Cnt                           0x1fffc936   Data           2  control.o(.data)
    Time_1s_Cnt                              0x1fffc938   Data           2  control.o(.data)
    sintheta                                 0x1fffc93c   Data           4  control.o(.data)
    costheta                                 0x1fffc940   Data           4  control.o(.data)
    System_Power_Ins                         0x1fffc944   Data           4  control.o(.data)
    System_Power_Avg                         0x1fffc948   Data           4  control.o(.data)
    theta_pre                                0x1fffc94c   Data           4  control.o(.data)
    Iac_Rms_Sum                              0x1fffc950   Data           4  control.o(.data)
    Iac_Rms_Sum_Cal                          0x1fffc954   Data           4  control.o(.data)
    Vpv_LSB                                  0x1fffc958   Data           4  control.o(.data)
    Ipv_LSB                                  0x1fffc95c   Data           4  control.o(.data)
    Vgrid_LSB                                0x1fffc960   Data           4  control.o(.data)
    Ig_L_LSB                                 0x1fffc964   Data           4  control.o(.data)
    Ig_R_LSB                                 0x1fffc968   Data           4  control.o(.data)
    Ig_L_LSB_pre                             0x1fffc96c   Data           4  control.o(.data)
    Ig_R_LSB_pre                             0x1fffc970   Data           4  control.o(.data)
    Vpv                                      0x1fffc974   Data           4  control.o(.data)
    Ipv                                      0x1fffc978   Data           4  control.o(.data)
    Vgrid                                    0x1fffc97c   Data           4  control.o(.data)
    Ig_L                                     0x1fffc980   Data           4  control.o(.data)
    Ig_R                                     0x1fffc984   Data           4  control.o(.data)
    Iac                                      0x1fffc988   Data           4  control.o(.data)
    MPPT_Delay_cnt                           0x1fffc98c   Data           4  control.o(.data)
    Ugridrms                                 0x1fffc990   Data           4  control.o(.data)
    Ugridrms_Div_AMP                         0x1fffc994   Data           4  control.o(.data)
    FLL_err                                  0x1fffc998   Data           4  control.o(.data)
    FLL_integrate                            0x1fffc99c   Data           4  control.o(.data)
    FLL_w                                    0x1fffc9a0   Data           4  control.o(.data)
    Mppt_PV_Vol_Ref                          0x1fffc9a4   Data           4  control.o(.data)
    PV_Vol_Ref_Ramp                          0x1fffc9a8   Data           4  control.o(.data)
    ACCur_loop_output                        0x1fffc9ac   Data           4  control.o(.data)
    ACCur_loop_output_abs                    0x1fffc9b0   Data           4  control.o(.data)
    ACCur_loop_output_duty                   0x1fffc9b4   Data           4  control.o(.data)
    ACCur_loop_output_Ontime                 0x1fffc9b8   Data           4  control.o(.data)
    Flyback1_OnTime                          0x1fffc9bc   Data           4  control.o(.data)
    Flyback2_OnTime                          0x1fffc9c0   Data           4  control.o(.data)
    Vgrid_LPF_abs                            0x1fffc9c4   Data           4  control.o(.data)
    MinDutyDiv                               0x1fffc9c8   Data           4  control.o(.data)
    Period_Ton_pu                            0x1fffc9cc   Data           4  control.o(.data)
    Period_ideal_pu                          0x1fffc9d0   Data           4  control.o(.data)
    Period_ideal_half_pu                     0x1fffc9d4   Data           4  control.o(.data)
    SystemPower_After_Limit                  0x1fffc9d8   Data           4  control.o(.data)
    Power_Limit_Current_MAX                  0x1fffc9dc   Data           4  control.o(.data)
    Ton_pu_with_feedforward                  0x1fffc9e0   Data           4  control.o(.data)
    delta_ratio                              0x1fffc9e4   Data           4  control.o(.data)
    MAX_DELTA_TIME                           0x1fffc9e8   Data           4  control.o(.data)
    Ton_pu_feedforward_update                0x1fffc9ec   Data           4  control.o(.data)
    Vally_SW_Delay_Time_update               0x1fffc9f0   Data           4  control.o(.data)
    Interleave_ratio                         0x1fffc9f4   Data           4  control.o(.data)
    Vally_SW_Delay_pu                        0x1fffc9f8   Data           4  control.o(.data)
    Vally_SW_FF_ratio                        0x1fffc9fc   Data           4  control.o(.data)
    Vally_SW_Delay_Time                      0x1fffca00   Data           4  control.o(.data)
    Vally_PI_RATIO                           0x1fffca04   Data           4  control.o(.data)
    System_Delta_Power                       0x1fffca08   Data           4  control.o(.data)
    Vpv_Notch_Pre                            0x1fffca0c   Data           4  control.o(.data)
    MPPT_VolStep                             0x1fffca10   Data           4  control.o(.data)
    System_Power_Avg_pre                     0x1fffca14   Data           4  control.o(.data)
    Period                                   0x1fffca18   Data           4  control.o(.data)
    Phase                                    0x1fffca1c   Data           4  control.o(.data)
    Flyback1_OnTime_Final                    0x1fffca20   Data           4  control.o(.data)
    Flyback2_OnTime_Final                    0x1fffca24   Data           4  control.o(.data)
    Flyback1_OnTime_active                   0x1fffca28   Data           4  control.o(.data)
    Flyback2_OnTime_active                   0x1fffca2c   Data           4  control.o(.data)
    Vally_SW_Delay_Time_active               0x1fffca30   Data           4  control.o(.data)
    Interleave_Crtl_Delta_Time               0x1fffca34   Data           4  control.o(.data)
    Vpv_N                                    0x1fffca38   Data           4  control.o(.data)
    Vpv_N_Div                                0x1fffca3c   Data           4  control.o(.data)
    Ton_pu_feedforward                       0x1fffca40   Data           4  control.o(.data)
    Iac_Rms                                  0x1fffca44   Data           4  control.o(.data)
    System_Power_Ins_pre                     0x1fffca48   Data           4  control.o(.data)
    System_Power_Ins_pre1                    0x1fffca4c   Data           4  control.o(.data)
    System_Power_Ins_pre2                    0x1fffca50   Data           4  control.o(.data)
    Reactive_Comp_Ratio                      0x1fffca54   Data           4  control.o(.data)
    Vgrid_LPF                                0x1fffca58   Data          16  control.o(.data)
    Vpv_LPF                                  0x1fffca68   Data          16  control.o(.data)
    Vpv_LPF_MPPT                             0x1fffca78   Data          16  control.o(.data)
    Ipv_LPF                                  0x1fffca88   Data          16  control.o(.data)
    Vpv_Notch                                0x1fffca98   Data          44  control.o(.data)
    Vpv_LSB_LPF                              0x1fffcac4   Data          16  control.o(.data)
    Vgrid_LSB_LPF                            0x1fffcad4   Data          16  control.o(.data)
    U_alpha                                  0x1fffcae4   Data          36  control.o(.data)
    Ug_info                                  0x1fffcb08   Data          56  control.o(.data)
    PVVol_PILoop                             0x1fffcb40   Data          44  control.o(.data)
    ACCur_PILoop                             0x1fffcb6c   Data          44  control.o(.data)
    ACCurr_RLoop                             0x1fffcb98   Data          36  control.o(.data)
    __stdout                                 0x1fffcbbc   Data           4  stdout.o(.data)
    TX_Frame                                 0x1fffcbc0   Data          10  main.o(.bss)
    __initial_sp                             0x1fffd810   Data           0  startup_hc32f334.o(STACK)



==============================================================================

Memory Map of the image

  Image Entry point : 0x00000289

  Load Region LR_IROM1 (Base: 0x00000000, Size: 0x0000a730, Max: 0x0001ffff, ABSOLUTE, COMPRESSED[0x0000a2c8])

    Execution Region ER_IROM1 (Exec base: 0x00000000, Load base: 0x00000000, Size: 0x00009b78, Max: 0x0001ffff, ABSOLUTE)

    Exec Addr    Load Addr    Size         Type   Attr      Idx    E Section Name        Object

    0x00000000   0x00000000   0x00000288   Data   RO            3    RESET               startup_hc32f334.o
    0x00000288   0x00000288   0x00000000   Code   RO         4921  * .ARM.Collect$$$$00000000  mc_w.l(entry.o)
    0x00000288   0x00000288   0x00000004   Code   RO         5199    .ARM.Collect$$$$00000001  mc_w.l(entry2.o)
    0x0000028c   0x0000028c   0x00000004   Code   RO         5202    .ARM.Collect$$$$00000004  mc_w.l(entry5.o)
    0x00000290   0x00000290   0x00000000   Code   RO         5204    .ARM.Collect$$$$00000008  mc_w.l(entry7b.o)
    0x00000290   0x00000290   0x00000000   Code   RO         5206    .ARM.Collect$$$$0000000A  mc_w.l(entry8b.o)
    0x00000290   0x00000290   0x00000008   Code   RO         5207    .ARM.Collect$$$$0000000B  mc_w.l(entry9a.o)
    0x00000298   0x00000298   0x00000000   Code   RO         5209    .ARM.Collect$$$$0000000D  mc_w.l(entry10a.o)
    0x00000298   0x00000298   0x00000000   Code   RO         5211    .ARM.Collect$$$$0000000F  mc_w.l(entry11a.o)
    0x00000298   0x00000298   0x00000004   Code   RO         5200    .ARM.Collect$$$$00002712  mc_w.l(entry2.o)
    0x0000029c   0x0000029c   0x00000024   Code   RO            4    .text               startup_hc32f334.o
    0x000002c0   0x000002c0   0x00000062   Code   RO         4924    .text               mc_w.l(uldiv.o)
    0x00000322   0x00000322   0x0000001e   Code   RO         4926    .text               mc_w.l(llshl.o)
    0x00000340   0x00000340   0x0000001a   Code   RO         5191    .text               mf_w.l(dfltui.o)
    0x0000035a   0x0000035a   0x00000018   Code   RO         5193    .text               mf_w.l(dfltul.o)
    0x00000372   0x00000372   0x00000026   Code   RO         5195    .text               mf_w.l(f2d.o)
    0x00000398   0x00000398   0x00000038   Code   RO         5197    .text               mf_w.l(d2f.o)
    0x000003d0   0x000003d0   0x0000002c   Code   RO         5214    .text               mc_w.l(uidiv.o)
    0x000003fc   0x000003fc   0x00000000   Code   RO         5218    .text               mc_w.l(iusefp.o)
    0x000003fc   0x000003fc   0x00000004   Code   RO           90    i.HRPWM_1_Ovf_Udf_Handler  main.o
    0x00000400   0x00000400   0x00000060   Data   RO         2963    .ARM.__AT_0x00000400  hc32_ll_icg.o
    0x00000460   0x00000460   0x000000de   Code   RO         5189    .text               mf_w.l(ddiv.o)
    0x0000053e   0x0000053e   0x00000020   Code   RO         5216    .text               mc_w.l(llushr.o)
    0x0000055e   0x0000055e   0x0000006e   Code   RO         5219    .text               mf_w.l(fepilogue.o)
    0x000005cc   0x000005cc   0x000000ba   Code   RO         5221    .text               mf_w.l(depilogue.o)
    0x00000686   0x00000686   0x0000014e   Code   RO         5223    .text               mf_w.l(dadd.o)
    0x000007d4   0x000007d4   0x000000e4   Code   RO         5225    .text               mf_w.l(dmul.o)
    0x000008b8   0x000008b8   0x00000030   Code   RO         5227    .text               mf_w.l(dfixul.o)
    0x000008e8   0x000008e8   0x00000030   Code   RO         5229    .text               mf_w.l(cdrcmple.o)
    0x00000918   0x00000918   0x00000024   Code   RO         5231    .text               mc_w.l(init.o)
    0x0000093c   0x0000093c   0x00000024   Code   RO         5233    .text               mc_w.l(llsshr.o)
    0x00000960   0x00000960   0x0000005e   Code   RO         5243    .text               mc_w.l(__dclz77c.o)
    0x000009be   0x000009be   0x00000002   PAD
    0x000009c0   0x000009c0   0x000001c8   Code   RO          439    i.ACCur_Cali_Rootine  calibration.o
    0x00000b88   0x00000b88   0x00000014   Code   RO           84    i.ADC1_Handler      main.o
    0x00000b9c   0x00000b9c   0x000000b4   Code   RO          609    i.ADC_ChCmd         hc32_ll_adc.o
    0x00000c50   0x00000c50   0x000000d0   Code   RO          610    i.ADC_ChRemap       hc32_ll_adc.o
    0x00000d20   0x00000d20   0x000000c8   Code   RO          621    i.ADC_Init          hc32_ll_adc.o
    0x00000de8   0x00000de8   0x0000009c   Code   RO          622    i.ADC_IntCmd        hc32_ll_adc.o
    0x00000e84   0x00000e84   0x00000012   Code   RO          632    i.ADC_StructInit    hc32_ll_adc.o
    0x00000e96   0x00000e96   0x00000002   PAD
    0x00000e98   0x00000e98   0x0000009c   Code   RO          635    i.ADC_TriggerCmd    hc32_ll_adc.o
    0x00000f34   0x00000f34   0x000000a8   Code   RO          636    i.ADC_TriggerConfig  hc32_ll_adc.o
    0x00000fdc   0x00000fdc   0x0000011c   Code   RO          847    i.AOS_SetTriggerEventSrc  hc32_ll_aos.o
    0x000010f8   0x000010f8   0x0000012c   Code   RO           85    i.Adc_Config        main.o
    0x00001224   0x00001224   0x00000040   Code   RO         4741    i.AllPWM_Disable    MicroInverter_Ctrl_Strategy_V1.lib(control.o)
    0x00001264   0x00001264   0x000000a4   Code   RO         4555    i.BSP_CLK_Init      ev_hc32f334_lqfp64.o
    0x00001308   0x00001308   0x000000a4   Code   RO         4567    i.BSP_PRINTF_Preinit  ev_hc32f334_lqfp64.o
    0x000013ac   0x000013ac   0x00000060   Code   RO          885    i.CLK_GetStableStatus  hc32_ll_clk.o
    0x0000140c   0x0000140c   0x000000b4   Code   RO          895    i.CLK_PLLCmd        hc32_ll_clk.o
    0x000014c0   0x000014c0   0x000001d0   Code   RO          896    i.CLK_PLLInit       hc32_ll_clk.o
    0x00001690   0x00001690   0x00000030   Code   RO          897    i.CLK_PLLStructInit  hc32_ll_clk.o
    0x000016c0   0x000016c0   0x0000000e   Code   RO          899    i.CLK_SetClockDiv   hc32_ll_clk.o
    0x000016ce   0x000016ce   0x0000000e   Code   RO          902    i.CLK_SetSysClockSrc  hc32_ll_clk.o
    0x000016dc   0x000016dc   0x0000002c   Code   RO          906    i.CLK_WaitStable    hc32_ll_clk.o
    0x00001708   0x00001708   0x000000ac   Code   RO          910    i.CLK_XtalCmd       hc32_ll_clk.o
    0x000017b4   0x000017b4   0x000000f8   Code   RO          914    i.CLK_XtalInit      hc32_ll_clk.o
    0x000018ac   0x000018ac   0x0000001c   Code   RO          917    i.CLK_XtalStructInit  hc32_ll_clk.o
    0x000018c8   0x000018c8   0x00000088   Code   RO         1141    i.CMP_CompareOutCmd  hc32_ll_cmp.o
    0x00001950   0x00001950   0x00000034   Code   RO         1143    i.CMP_DelayUS       hc32_ll_cmp.o
    0x00001984   0x00001984   0x0000016c   Code   RO         1150    i.CMP_NormalModeInit  hc32_ll_cmp.o
    0x00001af0   0x00001af0   0x00000088   Code   RO         1151    i.CMP_PinVcoutCmd   hc32_ll_cmp.o
    0x00001b78   0x00001b78   0x00000018   Code   RO         1164    i.CMP_StructInit    hc32_ll_cmp.o
    0x00001b90   0x00001b90   0x0000008c   Code   RO          440    i.CalPara_Init      calibration.o
    0x00001c1c   0x00001c1c   0x0000018c   Code   RO         4020    i.ClockSync_CalculateBrr  hc32_ll_usart.o
    0x00001da8   0x00001da8   0x00000074   Code   RO           86    i.Cmp_Config        main.o
    0x00001e1c   0x00001e1c   0x00000080   Code   RO          503    i.Cosine            table_1.o
    0x00001e9c   0x00001e9c   0x0000007c   Code   RO         1396    i.DAC_ADCPrioCmd    hc32_ll_dac.o
    0x00001f18   0x00001f18   0x00000088   Code   RO         1397    i.DAC_ADCPrioConfig  hc32_ll_dac.o
    0x00001fa0   0x00001fa0   0x000000e0   Code   RO         1400    i.DAC_DeInit        hc32_ll_dac.o
    0x00002080   0x00002080   0x000000c0   Code   RO         1403    i.DAC_Init          hc32_ll_dac.o
    0x00002140   0x00002140   0x00000098   Code   RO         1404    i.DAC_OutputCmd     hc32_ll_dac.o
    0x000021d8   0x000021d8   0x00000090   Code   RO         1408    i.DAC_Start         hc32_ll_dac.o
    0x00002268   0x00002268   0x00000014   Code   RO         1412    i.DAC_StructInit    hc32_ll_dac.o
    0x0000227c   0x0000227c   0x0000003c   Code   RO         4417    i.DDL_AssertHandler  hc32_ll_utility.o
    0x000022b8   0x000022b8   0x00000040   Code   RO         4418    i.DDL_ConsoleOutputChar  hc32_ll_utility.o
    0x000022f8   0x000022f8   0x00000040   Code   RO         4420    i.DDL_DelayUS       hc32_ll_utility.o
    0x00002338   0x00002338   0x000000cc   Code   RO           87    i.Dac_Config        main.o
    0x00002404   0x00002404   0x00000070   Code   RO         1557    i.EFM_CacheRamReset  hc32_ll_efm.o
    0x00002474   0x00002474   0x00000070   Code   RO         1558    i.EFM_ClearStatus   hc32_ll_efm.o
    0x000024e4   0x000024e4   0x00000070   Code   RO         1560    i.EFM_DCacheCmd     hc32_ll_efm.o
    0x00002554   0x00002554   0x0000006c   Code   RO         1561    i.EFM_FWMC_Cmd      hc32_ll_efm.o
    0x000025c0   0x000025c0   0x00000064   Code   RO         1566    i.EFM_GetStatus     hc32_ll_efm.o
    0x00002624   0x00002624   0x00000070   Code   RO         1570    i.EFM_ICacheCmd     hc32_ll_efm.o
    0x00002694   0x00002694   0x00000070   Code   RO         1577    i.EFM_PrefetchCmd   hc32_ll_efm.o
    0x00002704   0x00002704   0x0000012c   Code   RO         1579    i.EFM_ProgramWord   hc32_ll_efm.o
    0x00002830   0x00002830   0x0000011c   Code   RO         1589    i.EFM_SectorErase   hc32_ll_efm.o
    0x0000294c   0x0000294c   0x000000ac   Code   RO         1594    i.EFM_SetWaitCycle  hc32_ll_efm.o
    0x000029f8   0x000029f8   0x00000090   Code   RO         1595    i.EFM_SingleSectorOperateCmd  hc32_ll_efm.o
    0x00002a88   0x00002a88   0x0000002c   Code   RO         1597    i.EFM_WaitFlag      hc32_ll_efm.o
    0x00002ab4   0x00002ab4   0x000000b0   Code   RO         1831    i.EMB_ClearStatus   hc32_ll_emb.o
    0x00002b64   0x00002b64   0x00000498   Code   RO         1834    i.EMB_HRPWM_Init    hc32_ll_emb.o
    0x00002ffc   0x00002ffc   0x00000070   Code   RO         1835    i.EMB_HRPWM_StructInit  hc32_ll_emb.o
    0x0000306c   0x0000306c   0x000000cc   Code   RO         1838    i.EMB_SetReleasePwmCond  hc32_ll_emb.o
    0x00003138   0x00003138   0x00000114   Code   RO           88    i.Emb_Config        main.o
    0x0000324c   0x0000324c   0x00000084   Code   RO         2011    i.FCG_Fcg0PeriphClockCmd  hc32_ll_fcg.o
    0x000032d0   0x000032d0   0x00000074   Code   RO         2013    i.FCG_Fcg2PeriphClockCmd  hc32_ll_fcg.o
    0x00003344   0x00003344   0x00000074   Code   RO         2014    i.FCG_Fcg3PeriphClockCmd  hc32_ll_fcg.o
    0x000033b8   0x000033b8   0x00000138   Code   RO         4771    i.FlyBack_Interleaved_adjustment  MicroInverter_Ctrl_Strategy_V1.lib(control.o)
    0x000034f0   0x000034f0   0x000000b0   Code   RO         2137    i.GPIO_AnalogCmd    hc32_ll_gpio.o
    0x000035a0   0x000035a0   0x0000014e   Code   RO           89    i.GPIO_Config       main.o
    0x000036ee   0x000036ee   0x00000002   PAD
    0x000036f0   0x000036f0   0x00000088   Code   RO         2140    i.GPIO_HrpwmPinCmd  hc32_ll_gpio.o
    0x00003778   0x00003778   0x000001dc   Code   RO         2142    i.GPIO_Init         hc32_ll_gpio.o
    0x00003954   0x00003954   0x0000008c   Code   RO         2150    i.GPIO_SetDebugPort  hc32_ll_gpio.o
    0x000039e0   0x000039e0   0x000000c4   Code   RO         2151    i.GPIO_SetFunc      hc32_ll_gpio.o
    0x00003aa4   0x00003aa4   0x0000009c   Code   RO         2153    i.GPIO_SetReadWaitCycle  hc32_ll_gpio.o
    0x00003b40   0x00003b40   0x00000028   Code   RO         2155    i.GPIO_StructInit   hc32_ll_gpio.o
    0x00003b68   0x00003b68   0x000002d4   Code   RO          441    i.GridVol_Cali_Rootine  calibration.o
    0x00003e3c   0x00003e3c   0x00000098   Code   RO         4717    i.Grid_HalfCycle_cal  MicroInverter_Ctrl_Strategy_V1.lib(control.o)
    0x00003ed4   0x00003ed4   0x00000012   Code   RO         2289    i.HRPWM_BufStructInit  hc32_ll_hrpwm.o
    0x00003ee6   0x00003ee6   0x00000002   PAD
    0x00003ee8   0x00003ee8   0x0000006c   Code   RO         2290    i.HRPWM_CALIB_ClearFlag  hc32_ll_hrpwm.o
    0x00003f54   0x00003f54   0x00000060   Code   RO         2291    i.HRPWM_CALIB_GetStatus  hc32_ll_hrpwm.o
    0x00003fb4   0x00003fb4   0x00000018   Code   RO         2292    i.HRPWM_CALIB_PeriodDisable  hc32_ll_hrpwm.o
    0x00003fcc   0x00003fcc   0x00000078   Code   RO         2294    i.HRPWM_CALIB_ProcessSingle  hc32_ll_hrpwm.o
    0x00004044   0x00004044   0x00000018   Code   RO         2295    i.HRPWM_CALIB_SingleDisable  hc32_ll_hrpwm.o
    0x0000405c   0x0000405c   0x00000078   Code   RO         2296    i.HRPWM_CommonDeInit  hc32_ll_hrpwm.o
    0x000040d4   0x000040d4   0x00000250   Code   RO           91    i.HRPWM_Config      main.o
    0x00004324   0x00004324   0x00000090   Code   RO           92    i.HRPWM_CountStart  main.o
    0x000043b4   0x000043b4   0x000001a0   Code   RO         2300    i.HRPWM_DeInit      hc32_ll_hrpwm.o
    0x00004554   0x00004554   0x00000118   Code   RO         2304    i.HRPWM_EMB_ChAConfig  hc32_ll_hrpwm.o
    0x0000466c   0x0000466c   0x00000012   Code   RO         2308    i.HRPWM_EMB_StructInit  hc32_ll_hrpwm.o
    0x0000467e   0x0000467e   0x00000002   PAD
    0x00004680   0x00004680   0x000001d0   Code   RO         2309    i.HRPWM_EVT_Config  hc32_ll_hrpwm.o
    0x00004850   0x00004850   0x00000164   Code   RO         2310    i.HRPWM_EVT_FilterConfig  hc32_ll_hrpwm.o
    0x000049b4   0x000049b4   0x000000ac   Code   RO           93    i.HRPWM_EVT_FilterSetReplaceMode  main.o
    0x00004a60   0x00004a60   0x00000118   Code   RO         2311    i.HRPWM_EVT_FilterSignalConfig  hc32_ll_hrpwm.o
    0x00004b78   0x00004b78   0x00000016   Code   RO         2312    i.HRPWM_EVT_FilterSignalStructInit  hc32_ll_hrpwm.o
    0x00004b8e   0x00004b8e   0x00000012   Code   RO         2313    i.HRPWM_EVT_FilterStructInit  hc32_ll_hrpwm.o
    0x00004ba0   0x00004ba0   0x00000100   Code   RO         2314    i.HRPWM_EVT_OffsetBufConfig  hc32_ll_hrpwm.o
    0x00004ca0   0x00004ca0   0x00000090   Code   RO           94    i.HRPWM_EVT_OffsetBufEnable  main.o
    0x00004d30   0x00004d30   0x0000001a   Code   RO         2315    i.HRPWM_EVT_StructInit  hc32_ll_hrpwm.o
    0x00004d4a   0x00004d4a   0x00000002   PAD
    0x00004d4c   0x00004d4c   0x00000090   Code   RO           95    i.HRPWM_Enable      main.o
    0x00004ddc   0x00004ddc   0x00000100   Code   RO         2317    i.HRPWM_GeneralAEBufConfig  hc32_ll_hrpwm.o
    0x00004edc   0x00004edc   0x00000090   Code   RO           96    i.HRPWM_GeneralAEBufEnable  main.o
    0x00004f6c   0x00004f6c   0x00000100   Code   RO         2318    i.HRPWM_GeneralBFBufConfig  hc32_ll_hrpwm.o
    0x0000506c   0x0000506c   0x00000090   Code   RO           97    i.HRPWM_GeneralBFBufEnable  main.o
    0x000050fc   0x000050fc   0x000000c0   Code   RO           98    i.HRPWM_HWChACaptureCondEnable  main.o
    0x000051bc   0x000051bc   0x0000008c   Code   RO           99    i.HRPWM_HWChBCaptureCondEnable  main.o
    0x00005248   0x00005248   0x000000c0   Code   RO          100    i.HRPWM_HWClearCondEnable  main.o
    0x00005308   0x00005308   0x00000090   Code   RO          101    i.HRPWM_HWClearEnable  main.o
    0x00005398   0x00005398   0x000000d4   Code   RO         2325    i.HRPWM_Init        hc32_ll_hrpwm.o
    0x0000546c   0x0000546c   0x000002f8   Code   RO         2328    i.HRPWM_PWM_ChAInit  hc32_ll_hrpwm.o
    0x00005764   0x00005764   0x00000090   Code   RO          102    i.HRPWM_PWM_ChAOutputEnable  main.o
    0x000057f4   0x000057f4   0x000000f0   Code   RO         2332    i.HRPWM_PWM_OutputInit  hc32_ll_hrpwm.o
    0x000058e4   0x000058e4   0x00000014   Code   RO         2334    i.HRPWM_PWM_OutputStructInit  hc32_ll_hrpwm.o
    0x000058f8   0x000058f8   0x00000034   Code   RO         2335    i.HRPWM_PWM_StructInit  hc32_ll_hrpwm.o
    0x0000592c   0x0000592c   0x0000001c   Code   RO         2341    i.HRPWM_StructInit  hc32_ll_hrpwm.o
    0x00005948   0x00005948   0x00000014   Code   RO         2998    i.IRQ000_Handler    hc32_ll_interrupts.o
    0x0000595c   0x0000595c   0x00000014   Code   RO         2999    i.IRQ001_Handler    hc32_ll_interrupts.o
    0x00005970   0x00005970   0x00000014   Code   RO         3000    i.IRQ002_Handler    hc32_ll_interrupts.o
    0x00005984   0x00005984   0x00000014   Code   RO         3001    i.IRQ003_Handler    hc32_ll_interrupts.o
    0x00005998   0x00005998   0x00000014   Code   RO         3002    i.IRQ004_Handler    hc32_ll_interrupts.o
    0x000059ac   0x000059ac   0x00000014   Code   RO         3003    i.IRQ005_Handler    hc32_ll_interrupts.o
    0x000059c0   0x000059c0   0x00000014   Code   RO         3004    i.IRQ006_Handler    hc32_ll_interrupts.o
    0x000059d4   0x000059d4   0x00000014   Code   RO         3005    i.IRQ007_Handler    hc32_ll_interrupts.o
    0x000059e8   0x000059e8   0x00000014   Code   RO         3006    i.IRQ008_Handler    hc32_ll_interrupts.o
    0x000059fc   0x000059fc   0x00000014   Code   RO         3007    i.IRQ009_Handler    hc32_ll_interrupts.o
    0x00005a10   0x00005a10   0x00000014   Code   RO         3008    i.IRQ010_Handler    hc32_ll_interrupts.o
    0x00005a24   0x00005a24   0x00000014   Code   RO         3009    i.IRQ011_Handler    hc32_ll_interrupts.o
    0x00005a38   0x00005a38   0x00000014   Code   RO         3010    i.IRQ012_Handler    hc32_ll_interrupts.o
    0x00005a4c   0x00005a4c   0x00000014   Code   RO         3011    i.IRQ013_Handler    hc32_ll_interrupts.o
    0x00005a60   0x00005a60   0x00000014   Code   RO         3012    i.IRQ014_Handler    hc32_ll_interrupts.o
    0x00005a74   0x00005a74   0x00000014   Code   RO         3013    i.IRQ015_Handler    hc32_ll_interrupts.o
    0x00005a88   0x00005a88   0x00000078   Code   RO          261    i.LED_Control       main.o
    0x00005b00   0x00005b00   0x00000074   Code   RO          546    i.LL_PERIPH_WE      hc32_ll.o
    0x00005b74   0x00005b74   0x00000088   Code   RO         4421    i.LL_PrintfInit     hc32_ll_utility.o
    0x00005bfc   0x00005bfc   0x0000018c   Code   RO         4765    i.MPPT              MicroInverter_Ctrl_Strategy_V1.lib(control.o)
    0x00005d88   0x00005d88   0x000003f0   Code   RO         4705    i.MicroInv_AC_CURRENT_LOOP  MicroInverter_Ctrl_Strategy_V1.lib(control.o)
    0x00006178   0x00006178   0x0000005c   Code   RO         4660    i.MicroInv_PV_VOLREF_RAMP  MicroInverter_Ctrl_Strategy_V1.lib(control.o)
    0x000061d4   0x000061d4   0x0000008c   Code   RO         4711    i.MicroInv_PV_VOLTAGE_LOOP  MicroInverter_Ctrl_Strategy_V1.lib(control.o)
    0x00006260   0x00006260   0x00000330   Code   RO          399    i.MicroInv_Protect  protect.o
    0x00006590   0x00006590   0x0000015c   Code   RO         4753    i.MicroInv_StateMachine  MicroInverter_Ctrl_Strategy_V1.lib(control.o)
    0x000066ec   0x000066ec   0x000000bc   Code   RO         4699    i.MicroInv_Unfolding_Driver  MicroInverter_Ctrl_Strategy_V1.lib(control.o)
    0x000067a8   0x000067a8   0x000001c4   Code   RO         4747    i.Micro_inverter_CTRL  MicroInverter_Ctrl_Strategy_V1.lib(control.o)
    0x0000696c   0x0000696c   0x000001a8   Code   RO         4723    i.PLL_FUN           MicroInverter_Ctrl_Strategy_V1.lib(control.o)
    0x00006b14   0x00006b14   0x000002cc   Code   RO          442    i.PVVol_Cali_Rootine  calibration.o
    0x00006de0   0x00006de0   0x00000168   Code   RO          103    i.Read_CalPar       main.o
    0x00006f48   0x00006f48   0x000001cc   Code   RO         4729    i.SampleCondition_Cal  MicroInverter_Ctrl_Strategy_V1.lib(control.o)
    0x00007114   0x00007114   0x000001f8   Code   RO          919    i.SetSysClockDiv    hc32_ll_clk.o
    0x0000730c   0x0000730c   0x000000f8   Code   RO          920    i.SetSysClockSrc    hc32_ll_clk.o
    0x00007404   0x00007404   0x0000007c   Code   RO          504    i.Sine              table_1.o
    0x00007480   0x00007480   0x000001c8   Code   RO         4021    i.SmartCard_CalculateBrr  hc32_ll_usart.o
    0x00007648   0x00007648   0x00000054   Code   RO          505    i.Square_root       table_1.o
    0x0000769c   0x0000769c   0x0000008c   Code   RO           13    i.SystemCoreClockUpdate  system_hc32f334.o
    0x00007728   0x00007728   0x00000020   Code   RO           14    i.SystemInit        system_hc32f334.o
    0x00007748   0x00007748   0x0000053c   Code   RO          443    i.System_Calib_Statemachine  calibration.o
    0x00007c84   0x00007c84   0x0000015c   Code   RO         3789    i.TMRA_Init         hc32_ll_tmra.o
    0x00007de0   0x00007de0   0x00000080   Code   RO         3804    i.TMRA_SetPeriodValue  hc32_ll_tmra.o
    0x00007e60   0x00007e60   0x00000084   Code   RO         3806    i.TMRA_Start        hc32_ll_tmra.o
    0x00007ee4   0x00007ee4   0x00000020   Code   RO         3808    i.TMRA_StructInit   hc32_ll_tmra.o
    0x00007f04   0x00007f04   0x00000048   Code   RO         4735    i.Timer_Counter     MicroInverter_Ctrl_Strategy_V1.lib(control.o)
    0x00007f4c   0x00007f4c   0x0000003c   Code   RO          104    i.TmrA_Config       main.o
    0x00007f88   0x00007f88   0x000001d0   Code   RO         4022    i.UART_CalculateBrr  hc32_ll_usart.o
    0x00008158   0x00008158   0x00000114   Code   RO         4032    i.USART_FuncCmd     hc32_ll_usart.o
    0x0000826c   0x0000826c   0x00000018   Code   RO         4033    i.USART_GetBusClockFreq  hc32_ll_usart.o
    0x00008284   0x00008284   0x00000060   Code   RO         4042    i.USART_GetUsartClockFreq  hc32_ll_usart.o
    0x000082e4   0x000082e4   0x000000d4   Code   RO         4045    i.USART_LIN_GetMeasureBaudrate  hc32_ll_usart.o
    0x000083b8   0x000083b8   0x0000010c   Code   RO         4059    i.USART_SetBaudrate  hc32_ll_usart.o
    0x000084c4   0x000084c4   0x000000a0   Code   RO         4060    i.USART_SetClockDiv  hc32_ll_usart.o
    0x00008564   0x00008564   0x00000198   Code   RO         4077    i.USART_UART_Init   hc32_ll_usart.o
    0x000086fc   0x000086fc   0x0000002c   Code   RO         4079    i.USART_UART_StructInit  hc32_ll_usart.o
    0x00008728   0x00008728   0x00000254   Code   RO         4759    i.Vally_SW_Delay_Cal  MicroInverter_Ctrl_Strategy_V1.lib(control.o)
    0x0000897c   0x0000897c   0x00000026   Code   RO          106    i.WDT_Config        main.o
    0x000089a2   0x000089a2   0x00000002   PAD
    0x000089a4   0x000089a4   0x00000014   Code   RO         4514    i.WDT_FeedDog       hc32_ll_wdt.o
    0x000089b8   0x000089b8   0x00000144   Code   RO         4516    i.WDT_Init          hc32_ll_wdt.o
    0x00008afc   0x00008afc   0x00000170   Code   RO          107    i.Write_CalPar      main.o
    0x00008c6c   0x00008c6c   0x0000003c   Code   RO         4694    i.ZCD_Threshold_Cal  MicroInverter_Ctrl_Strategy_V1.lib(control.o)
    0x00008ca8   0x00008ca8   0x00000020   Code   RO         5161    i.__0printf         mc_w.l(printfa.o)
    0x00008cc8   0x00008cc8   0x0000001a   Code   RO          108    i.__NVIC_ClearPendingIRQ  main.o
    0x00008ce2   0x00008ce2   0x0000001a   Code   RO          109    i.__NVIC_EnableIRQ  main.o
    0x00008cfc   0x00008cfc   0x00000020   Code   RO          110    i.__NVIC_SetPriority  main.o
    0x00008d1c   0x00008d1c   0x0000000e   Code   RO         5237    i.__scatterload_copy  mc_w.l(handlers.o)
    0x00008d2a   0x00008d2a   0x00000002   Code   RO         5238    i.__scatterload_null  mc_w.l(handlers.o)
    0x00008d2c   0x00008d2c   0x0000000e   Code   RO         5239    i.__scatterload_zeroinit  mc_w.l(handlers.o)
    0x00008d3a   0x00008d3a   0x00000002   PAD
    0x00008d3c   0x00008d3c   0x00000184   Code   RO         5168    i._fp_digits        mc_w.l(printfa.o)
    0x00008ec0   0x00008ec0   0x000006dc   Code   RO         5169    i._printf_core      mc_w.l(printfa.o)
    0x0000959c   0x0000959c   0x00000024   Code   RO         5170    i._printf_post_padding  mc_w.l(printfa.o)
    0x000095c0   0x000095c0   0x0000002e   Code   RO         5171    i._printf_pre_padding  mc_w.l(printfa.o)
    0x000095ee   0x000095ee   0x00000002   PAD
    0x000095f0   0x000095f0   0x00000118   Code   RO          267    i.comm_uart         main.o
    0x00009708   0x00009708   0x0000003c   Code   RO          444    i.comm_uart_cal     calibration.o
    0x00009744   0x00009744   0x00000016   Code   RO         4428    i.fputc             hc32_ll_utility.o
    0x0000975a   0x0000975a   0x00000002   PAD
    0x0000975c   0x0000975c   0x0000015c   Code   RO          111    i.main              main.o
    0x000098b8   0x000098b8   0x00000278   Code   RO         4777    i.main_func         MicroInverter_Ctrl_Strategy_V1.lib(control.o)
    0x00009b30   0x00009b30   0x00000008   Data   RO         1413    .constdata          hc32_ll_dac.o
    0x00009b38   0x00009b38   0x00000020   Data   RO         4084    .constdata          hc32_ll_usart.o
    0x00009b58   0x00009b58   0x00000020   Data   RO         5235    Region$$Table       anon$$obj.o


    Execution Region RW_IRAM1 (Exec base: 0x1fffc000, Load base: 0x00009b78, Size: 0x00000008, Max: 0x00000008, ABSOLUTE, UNINIT)

    Exec Addr    Load Addr    Size         Type   Attr      Idx    E Section Name        Object

    0x1fffc000        -       0x00000008   Zero   RW           15    .bss.noinit         system_hc32f334.o


    Execution Region RW_IRAM2 (Exec base: 0x1fffc008, Load base: 0x00009b78, Size: 0x00001808, Max: 0x00007ff8, ABSOLUTE, COMPRESSED[0x00000750])

    Exec Addr    Load Addr    Size         Type   Attr      Idx    E Section Name        Object

    0x1fffc008   COMPRESSED   0x00000054   Data   RW          113    .data               main.o
    0x1fffc05c   COMPRESSED   0x0000001e   Data   RW          400    .data               protect.o
    0x1fffc07a   COMPRESSED   0x00000002   PAD
    0x1fffc07c   COMPRESSED   0x00000070   Data   RW          445    .data               calibration.o
    0x1fffc0ec   COMPRESSED   0x00000808   Data   RW          506    .data               table_1.o
    0x1fffc8f4   COMPRESSED   0x00000010   Data   RW         4429    .data               hc32_ll_utility.o
    0x1fffc904   COMPRESSED   0x000002b8   Data   RW         4661    .data               MicroInverter_Ctrl_Strategy_V1.lib(control.o)
    0x1fffcbbc   COMPRESSED   0x00000004   Data   RW         5213    .data               mc_w.l(stdout.o)
    0x1fffcbc0        -       0x0000000a   Zero   RW          112    .bss                main.o
    0x1fffcbca   COMPRESSED   0x00000002   PAD
    0x1fffcbcc        -       0x00000040   Zero   RW         3019    .bss                hc32_ll_interrupts.o
    0x1fffcc0c   COMPRESSED   0x00000004   PAD
    0x1fffcc10        -       0x00000c00   Zero   RW            1    STACK               startup_hc32f334.o


    Execution Region RW_IRAMB (Exec base: 0x200f0000, Load base: 0x0000a2c8, Size: 0x00000000, Max: 0x00001000, ABSOLUTE)

    **** No section assigned to this execution region ****


==============================================================================

Image component sizes


      Code (inc. data)   RO Data    RW Data    ZI Data      Debug   Object Name

      3436       1968          0        112          0       8013   calibration.o
       328         22          0          0          0       1876   ev_hc32f334_lqfp64.o
       116         26          0          0          0      20435   hc32_ll.o
      1086        418          0          0          0      10384   hc32_ll_adc.o
       284         62          0          0          0        921   hc32_ll_aos.o
      2060        482          0          0          0      17554   hc32_ll_clk.o
       712        218          0          0          0       7556   hc32_ll_cmp.o
       992        406          8          0          0       7754   hc32_ll_dac.o
      1712        742          0          0          0      12851   hc32_ll_efm.o
      1668        212          0          0          0      11406   hc32_ll_emb.o
       364        192          0          0          0       2435   hc32_ll_fcg.o
      1320        366          0          0          0      10169   hc32_ll_gpio.o
      4470       1058          0          0          0      94202   hc32_ll_hrpwm.o
         0          0         96          0          0        886   hc32_ll_icg.o
       320         96          0          0         64      13232   hc32_ll_interrupts.o
       640        230          0          0          0       8185   hc32_ll_tmra.o
      2804        682         32          0          0      16461   hc32_ll_usart.o
       346        138          0         16          0       5458   hc32_ll_utility.o
       344         68          0          0          0       3385   hc32_ll_wdt.o
      5208       1356          0         84         10     196478   main.o
       816         58          0         30          0       9450   protect.o
        36          8        648          0       3072        940   startup_hc32f334.o
       172         40          0          0          8     394457   system_hc32f334.o
       336         56          0       2056          0       3288   table_1.o

    ----------------------------------------------------------------------
     29584       8904        816       2300       3160     857776   Object Totals
         0          0         32          0          0          0   (incl. Generated)
        14          0          0          2          6          0   (incl. Padding)

    ----------------------------------------------------------------------

      Code (inc. data)   RO Data    RW Data    ZI Data      Debug   Library Member Name

      5396        544          0        696          0      28057   control.o
        94          0          0          0          0          0   __dclz77c.o
         0          0          0          0          0          0   entry.o
         0          0          0          0          0          0   entry10a.o
         0          0          0          0          0          0   entry11a.o
         8          4          0          0          0          0   entry2.o
         4          0          0          0          0          0   entry5.o
         0          0          0          0          0          0   entry7b.o
         0          0          0          0          0          0   entry8b.o
         8          4          0          0          0          0   entry9a.o
        30          0          0          0          0          0   handlers.o
        36          8          0          0          0         68   init.o
         0          0          0          0          0          0   iusefp.o
        30          0          0          0          0         68   llshl.o
        36          0          0          0          0         68   llsshr.o
        32          0          0          0          0         68   llushr.o
      2258         90          0          0          0        452   printfa.o
         0          0          0          4          0          0   stdout.o
        44          0          0          0          0         80   uidiv.o
        98          0          0          0          0         92   uldiv.o
        48          0          0          0          0         68   cdrcmple.o
        56          0          0          0          0         88   d2f.o
       334          0          0          0          0        148   dadd.o
       222          0          0          0          0        100   ddiv.o
       186          0          0          0          0        176   depilogue.o
        48          0          0          0          0         68   dfixul.o
        26          0          0          0          0         76   dfltui.o
        24          0          0          0          0         76   dfltul.o
       228          0          0          0          0         96   dmul.o
        38          0          0          0          0         68   f2d.o
       110          0          0          0          0        168   fepilogue.o

    ----------------------------------------------------------------------
      9400        650          0        700          0      30085   Library Totals
         6          0          0          0          0          0   (incl. Padding)

    ----------------------------------------------------------------------

      Code (inc. data)   RO Data    RW Data    ZI Data      Debug   Library Name

      5396        544          0        696          0      28057   MicroInverter_Ctrl_Strategy_V1.lib
      2678        106          0          4          0        896   mc_w.l
      1320          0          0          0          0       1132   mf_w.l

    ----------------------------------------------------------------------
      9400        650          0        700          0      30085   Library Totals

    ----------------------------------------------------------------------

==============================================================================


      Code (inc. data)   RO Data    RW Data    ZI Data      Debug   

     38984       9554        816       3000       3160     869857   Grand Totals
     38984       9554        816       1872       3160     869857   ELF Image Totals (compressed)
     38984       9554        816       1872          0          0   ROM Totals

==============================================================================

    Total RO  Size (Code + RO Data)                39800 (  38.87kB)
    Total RW  Size (RW Data + ZI Data)              6160 (   6.02kB)
    Total ROM Size (Code + RO Data + RW Data)      41672 (  40.70kB)

==============================================================================

