:020000040000FA
:1000000078D5FF1FA1020000A9020000AB0200008A
:10001000AD020000AF020000B102000000000000CD
:10002000000000000000000000000000B30200001B
:10003000B502000000000000B7020000B902000095
:10004000DD620000F162000005630000196300003A
:100050002D630000416300005563000069630000E8
:100060007D63000091630000A5630000B963000098
:10007000CD630000E1630000F56300000964000047
:10008000053B0000BB020000BB020000353B000046
:10009000BB020000BB020000BB020000BB0200006C
:1000A000BB020000653B0000BB020000BB02000079
:1000B000BB020000BB020000BB020000BB0200004C
:1000C000BB020000BB020000BB020000BB0200003C
:1000D000BB020000BB020000BB020000BB0200002C
:1000E000BB020000BB020000BB020000BB0200001C
:1000F000BB020000BB020000BB020000BB0200000C
:10010000BB020000BB020000BB020000BB020000FB
:10011000BB020000BB020000BB020000BB020000EB
:10012000BB020000BB020000BB020000BB020000DB
:10013000BB020000BB020000BB020000BB020000CB
:10014000BB020000BB020000BB020000BB020000BB
:10015000BB020000BB020000BB020000BB020000AB
:10016000BB020000BB020000BB020000BB0200009B
:10017000BB020000BB020000BB020000BB0200008B
:10018000BB020000BB020000BB020000BB0200007B
:10019000BB020000BB020000BB020000BB0200006B
:1001A000BB020000BB020000BB020000BB0200005B
:1001B000BB020000BB020000BB020000BB0200004B
:1001C000BB020000BB020000BB020000BB0200003B
:1001D000BB020000BB020000BB020000BB0200002B
:1001E000BB020000BB020000BB020000BB0200001B
:1001F000BB020000BB020000BB020000BB0200000B
:10020000BB020000BB020000BB020000BB020000FA
:10021000BB020000BB020000BB020000BB020000EA
:10022000BB020000BB020000BB020000BB020000DA
:10023000BB020000BB020000BB020000BB020000CA
:10024000BB020000BB020000BB020000BB020000BA
:10025000BB020000BB020000BB020000BB020000AA
:10026000BB020000BB020000BB020000BB0200009A
:10027000BB020000BB020000BB0200000D07000033
:10028000BB020000BB020000DFF810D000F0FCF958
:100290000048004759890000AFF3008078D5FF1F60
:1002A0000648804706480047FEE7FEE7FEE7FEE710
:1002B000FEE7FEE7FEE7FEE7FEE7FEE7D977000090
:1002C000890200002DE9F05F0546002092469B461A
:1002D00088460646814640241BE02846414647465C
:1002E000224600F02CF953465A46C01A914110D3C9
:1002F00011461846224600F016F82D1A67EB010841
:100300004F4622460120002100F00DF817EB0009AE
:100310004E41201EA4F10104DFDC484631462A4646
:100320004346BDE8F09F202A04DB203A00FA02F1A0
:10033000002070479140C2F1200320FA03F31943D3
:1003400090407047421E12F8013F002BFBD111F87C
:10035000013B02F8013B002BF9D17047421C10F819
:10036000011B0029FBD1801A70470EB540F23341C2
:1003700002910021CDE900110A460B4600F035F943
:1003800003B000BD0EB540F2334202920022CDE927
:100390000022134600F029F903B000BD01F000432C
:1003A00030B421F0004150EA010206D00A0DA2F556
:1003B0006072C1F31301002A02DC30BC00207047D8
:1003C000440F44EAC104C100E01830BC00EBC25045
:1003D00000F0C5B830B50B460146002020220124AC
:1003E00009E021FA02F59D4205D303FA02F5491B03
:1003F00004FA02F52844151EA2F10102F1DC30BD19
:10040000BFFFDFFFFFFFFFFFFFFFFFFFFFFFEDFF6E
:10041000FFFFFFFFFFFFFFFFFFFFFFFFFFFFFFFFEC
:10042000FFFFFFFFFFFFFFFFFFFFFFFFFFFFFFFFDC
:10043000FFFFFFFFFFFFFFFFFFFFFFFFFFFFFFFFCC
:10044000FFFFFFFFFFFFFFFFFFFFFFFFFFFFFFFFBC
:10045000FFFFFFFFFFFFFFFFFFFFFFFFFFFFFFFFAC
:100460002DE9F04D81EA030404F0004B21F0004532
:1004700014464FF0000A23F0004150EA050220D054
:1004800054EA01021DD0C5F30A570246C5F313030F
:10049000C1F31300C1F30A5640F4801543F48013EE
:1004A000A7EB0608101BD64608F2FD3873EB0500D3
:1004B00002D308F1010801E092185B41B8F1000F86
:1004C00003DA00200146BDE8F08D00204FF48011D2
:1004D000064684460EE0171B73EB050705D3121B77
:1004E00063EB050306434CEA010C49084FEA300070
:1004F00092185B4150EA0107EDD152EA030012D095
:1005000082EA040083EA0501084305D0101BAB41D1
:1005100006D20122002306E000224FF0004302E051
:100520006FF0010253101AEB06004CEB085110EB70
:100530000A0041EB0B01BDE8F04D00F047B8202A5E
:1005400004DB203A21FA02F00021704721FA02F37D
:10055000D040C2F12002914008431946704700295B
:10056000A8BF7047401C490008BF20F00100704739
:1005700010B4B0FA80FC00FA0CF050EA010404BF99
:1005800010BC704749B1CCF1200421FA04F411FAEF
:100590000CF118BF012121430843A3EB0C01CB1D33
:1005A0004FEA00614FEA102042BF002010BC7047A4
:1005B00000EBC35010440029A4BF10BC7047401C7E
:1005C000490008BF20F0010010BC704710B5141E90
:1005D00073F1000408DA401C41F1000192185B41FC
:1005E0001A4301D120F0010010BD2DE9F04D9246D3
:1005F0009B4611B1B1FA81F202E0B0FA80F22032EA
:100600009046FFF790FE04460F4640EA0A0041EA92
:100610000B0153465A46084313D0114653EA0100D2
:1006200019D0C8F140025046FFF789FF05460E4633
:10063000504659464246FFF776FE084305D0012052
:1006400004E020463946BDE8F08D0020054346EA27
:10065000E0762C4337430A986305E40AA0EB0800D0
:100660000022FD0A44EA47540A3002D50020014620
:10067000E9E7010510196941DDE9084500196941FB
:10068000BDE8F04DA2E70000064C074D06E0E0682B
:1006900040F0010394E8070098471034AC42F6D3C9
:1006A000FFF7F6FDD88C0000F88C000070B58D18AF
:1006B00010F8014B14F0030201D110F8012B2311A3
:1006C00006D110F8013B03E010F8016B01F8016B53
:1006D000521EF9D1ABB110F8012B04F00C048A1AA8
:1006E0000C2C03D0A2EB84129B1C08E010F8014BE9
:1006F000A2EB0422F8E712F8014B01F8014B5B1E54
:10070000F9D5A942D4D3002070BD000070B50B4DBF
:1007100028680B4C20800B4810F8461F41F001015F
:10072000017001F0ABF8286880B260802188401A1F
:10073000A188884200DDA08070BD000000C0034099
:1007400008C0FF1F000004402DE9F04114460F4689
:100750000546194A19491A481E46954201D08D424C
:1007600002D10F2C09D903E0854201D10B2C04D909
:100770004FF4AC7113A001F063FF37B1012F04D027
:1007800040F259110FA001F05BFF36B1012E04D0E9
:100790004FF4AD710BA001F053FF05EB8700012171
:1007A000A14050F80C2F012E03D08A430260BDE80F
:1007B000F0810A43FAE7000000000440000404400E
:1007C000000804402E2E5C2E2E5C2E2E5C2E2E5CFD
:1007D000647269766572735C686333325F6C6C5FF8
:1007E0006472697665725C7372635C686333325FEE
:1007F0006C6C5F6164632E630000000070B5054699
:100800001F480C466FF00206854209D01D488542FC
:1008100006D01D48854203D0FC211CA001F010FF2A
:10082000002C2AD0218869B101290BD0022909D0D6
:10083000032907D0042905D0062903D0FF2113A0DE
:1008400001F0FEFE6088202807D0102805D020B1D6
:100850004FF480710DA001F0F3FEA08830B1802824
:1008600004D040F2011109A001F0EAFE208861885D
:100870000843A188084368800026304670BD000008
:100880000000044000040440000804402E2E5C2EAA
:100890002E5C2E2E5C2E2E5C647269766572735C03
:1008A000686333325F6C6C5F6472697665725C7327
:1008B00072635C686333325F6C6C5F6164632E6388
:1008C0000000000070B50446144816460D468442E8
:1008D0000AD01348844207D01248844204D04FF40F
:1008E000187111A001F0ACFE0DB1A80804D040F2BF
:1008F00061210DA001F0A4FE36B1012E08D040F216
:10090000622109A001F09CFE14F8450FA84302E003
:1009100014F8450F2843207070BD0000000004400B
:1009200000040440000804402E2E5C2E2E5C2E2E67
:100930005C2E2E5C647269766572735C6863333218
:100940005F6C6C5F6472697665725C7372635C681D
:100950006333325F6C6C5F6164632E630000000080
:1009600070B504460C48002584420AD00B488442E6
:1009700007D00B48844204D04FF41E7109A001F047
:100980005FFE2078012803D001202070284670BD2A
:100990006FF00505FAE70000000004400004044081
:1009A000000804402E2E5C2E2E5C2E2E5C2E2E5C1B
:1009B000647269766572735C686333325F6C6C5F16
:1009C0006472697665725C7372635C686333325F0C
:1009D0006C6C5F6164632E63000000006FF00201C5
:1009E00018B10021018041808180084670470000D5
:1009F00070B50446144816460D4684420AD0134882
:100A0000844207D01248844204D040F2472111A00A
:100A100001F016FE35B1012D04D04FF412710DA076
:100A200001F00EFEE8008025854036B1012E07D08A
:100A300040F2492107A001F003FE6089A84301E0CC
:100A400060892843608170BD0000044000040440B8
:100A5000000804402E2E5C2E2E5C2E2E5C2E2E5C6A
:100A6000647269766572735C686333325F6C6C5F65
:100A70006472697665725C7372635C686333325F5B
:100A80006C6C5F6164632E630000000070B5054606
:100A9000174814460E4685420AD01648854207D0AC
:100AA0001548854204D04FF40C7114A001F0C8FD24
:100AB00036B1012E04D040F2312110A001F0C0FD6A
:100AC00054B1012C08D0022C06D0032C04D040F2E3
:100AD00032210AA001F0B4FD6989F00003228240AE
:100AE000914304F0030282401143698170BD00000C
:100AF0000000044000040440000804402E2E5C2E38
:100B00002E5C2E2E5C2E2E5C647269766572735C90
:100B1000686333325F6C6C5F6472697665725C73B4
:100B200072635C686333325F6C6C5F6164632E6315
:100B30000000000070B5044636480D46844263D07C
:100B4000001D844260D0001D84425DD0001D84429F
:100B50005AD0001D844257D0001D844254D0001D3D
:100B6000844251D0001D84424ED0001D84424BD09F
:100B7000001D844248D0001D844245D0001D84429F
:100B800042D0001D84423FD0001D84423CD0001D55
:100B9000844239D0001D844236D0001D844233D0B7
:100BA000001D844230D0001D84422DD0001D84429F
:100BB0002AD0001D844227D0001D844224D0001D6D
:100BC000844221D0001D84421ED0001D84421BD0CF
:100BD000001D844218D0001D844215D0001D84429F
:100BE00012D0001D84420FD0001D84420CD0001D85
:100BF000844209D0001D844206D0001D844203D0E7
:100C0000C42105A001F01CFD206865F308002060E8
:100C100070BD0000040801402E2E5C2E2E5C2E2E8E
:100C20005C2E2E5C647269766572735C6863333225
:100C30005F6C6C5F6472697665725C7372635C682A
:100C40006333325F6C6C5F616F732E630000000072
:100C50007CB53849364808610121084603F002F99D
:100C60000121022003F0FEF86846FFF7B7FE0024DA
:100C7000314DADF80040ADF80240ADF80440694692
:100C80002846FFF7BBFD2D4E69463046FFF7B6FDFF
:100C90000123022200212846FFF756FD01231A46B0
:100CA00000212846FFF750FD01230D220021304688
:100CB000FFF74AFD01230E2200213046FFF744FDD5
:100CC0000121480403F052F8012200212846FFF7D1
:100CD000DDFEC7211A48FFF72DFF0122002128461B
:100CE000FFF786FE012200213046FFF7CFFE1448B1
:100CF000C7210830FFF71EFF012200213046FFF711
:100D000077FE10494FF40040C1F880020D4A7F324F
:100D100082F800448431C867012211462846FFF753
:100D2000D1FD2846FFF71CFE3046FFF719FE7CBDBB
:100D30000100A5A500800440000004400004044018
:100D40006808014010E000E00748D0F8A01340F622
:100D5000FC421143C0F8A013044900208871C871F7
:100D6000087203490880704700C0034044C0FF1F59
:100D700024C9FF1F0448D0F8A41340F6FC421143D5
:100D8000C0F8A4137047000000C003403EB52649D8
:100D9000264800F0DBF901220321052003F09CF82E
:100DA000684600F0C9FA00248DF8024030208DF822
:100DB00001008DF8004005208DF80300684600F022
:100DC0003FFA01A800F0AAF98DF804403B2060F337
:100DD000102404F1405424F0706000F1407020F4BD
:100DE000700000F5401020F08000029001A800F093
:100DF000ADF8022002F090FA4FF4005003F07CFBB3
:100E0000052000F0AAF9012001F0E2FF002001F026
:100E1000DFFF012002F024F9012002F049F801204F
:100E200002F0E6F83EBD00001011010077770707D9
:100E3000704770477047000010B5040002D034F0CE
:100E4000290004D040F2FD4104A001F0F9FB114853
:100E500090F83C00204000D0012010BD2E2E5C2ECA
:100E60002E5C2E2E5C2E2E5C647269766572735C2D
:100E7000686333325F6C6C5F6472697665725C7351
:100E800072635C686333325F6C6C5F636C6B2E63A0
:100E9000000000000040054070B506004FF000045F
:100EA00006D0012E04D040F2B34119A001F0C8FBD6
:100EB000254DB5F8FE03C00704D140F2B44114A09B
:100EC00001F0BEFB46B1D5F800014FF48056000694
:100ED00031460ED408200DE095F8260000F00700FA
:100EE000052803D0012085F82A000EE06FF00504E4
:100EF0000BE0012000F038F9040006D185F82A0043
:100F00003146202000F030F90446204670BD000034
:100F10002E2E5C2E2E5C2E2E5C2E2E5C647269763C
:100F20006572735C686333325F6C6C5F64726976A0
:100F300065725C7372635C686333325F6C6C5F63B1
:100F40006C6B2E6300000000004005402DE9F0416D
:100F5000040026D0207900F01F00172804D940F2A1
:100F6000874158A001F06CFB6068C0F3082013387B
:100F7000B0F5E67F04D94FF4916152A001F060FB17
:100F800060684FF0FF3101EB10700E2804D940F279
:100F900089414CA001F054FB6168080605D4574A0A
:100FA00005E06FF00200BDE8F0815548026801F0ED
:100FB0001F00401CB2FBF0F0C1F308256D1C514925
:100FC000454308445049884204D940F28E413DA02F
:100FD00001F036FB4D484D4928444942884204D926
:100FE00040F28F4137A001F02BFB6068012101EB3B
:100FF0001070B5FBF0F0464E464F3044B84204D96D
:101000004FF492612FA001F01BFB6068C0F30360F6
:10101000401E0E2804D940F291412AA001F010FB95
:101020006068C0F30350401E0E2804D940F292417C
:1010300024A001F005FB6068C0F30350401CB5FB21
:10104000F0F03044B84204D940F293411DA001F0C1
:10105000F7FA6068C0F30360401CB5FBF0F0304461
:10106000B84204D940F2944116A001F0E9FA207880
:10107000012805D020B140F2964112A001F0E0FA1B
:10108000254DB5F8FE03C00704D140F297410DA0ED
:1010900001F0D6FAD5F80001217920F08000C1F3E3
:1010A000C01140EAC110C5F800016068C5F8000130
:1010B000207820B10020BDE8F041FFF7EDBE01200F
:1010C000F9E700002E2E5C2E2E5C2E2E5C2E2E5C60
:1010D000647269766572735C686333325F6C6C5FEF
:1010E0006472697665725C7372635C686333325FE5
:1010F0006C6C5F636C6B2E630000000000127A0062
:1011000004C0FF1FC0BDF0FF00366E0100E4B1F166
:10111000401E1BFF402C420600400540002290B1BB
:101120000021132363F3102101F1805121F070613C
:1011300001F1807121F4700101F5801141600121FC
:101140000170104670476FF00202FAE710B506F022
:10115000A1F8BDE8104006F0F9BA10B506F096F90E
:10116000BDE8104006F0F2BAF8B5064600200D467C
:101170006FF00704009007E03046FFF75DFE01289E
:1011800006D00098401C0090A842F5D92046F8BD32
:101190000024FBE770B506004FF0000506D0012ED5
:1011A00004D040F2263117A001F04AFA234CB4F8DB
:1011B000FE03C00704D140F2273112A001F040FA2B
:1011C00046B1002084F832004FF480510820FFF728
:1011D000CBFF13E094F8260000F007016FF0050044
:1011E00003290BD0D4F800110A064FF0010102D4F4
:1011F00094F82A2012B184F8321000E005462846FF
:1012000070BD00002E2E5C2E2E5C2E2E5C2E2E5CD1
:10121000647269766572735C686333325F6C6C5FAD
:101220006472697665725C7372635C686333325FA3
:101230006C6C5F636C6B2E63000000000040054027
:1012400070B504003CD02078012805D020B140F2D0
:10125000073129A001F0F4F9607850B1102808D0C6
:10126000202806D0302804D04FF4427122A001F08B
:10127000E7F9A07830B1082804D040F209311EA067
:1012800001F0DEF9E078012814D0022812D00328FA
:1012900010D004280ED005280CD006280AD0072824
:1012A00008D0082806D0092804D040F20A3112A03C
:1012B00001F0C6F91E4DB5F8FE03C00708D102E0E3
:1012C0006FF0020070BD40F20B310BA001F0B8F9D5
:1012D000E07885F8A2006078A1780843154940F0CD
:1012E00080000870207820B10020BDE87040FFF732
:1012F00051BF0120F9E700002E2E5C2E2E5C2E2E11
:101300005C2E2E5C647269766572735C686333323E
:101310005F6C6C5F6472697665725C7372635C6843
:101320006333325F6C6C5F636C6B2E630000000094
:101330000040054050CC0440002140B10122027021
:101340000022827042700522C270084670476FF01A
:101350000201FAE770B504460F480D4684420AD0F0
:101360000E48844207D00E48844204D040F2C31194
:101370000CA001F065F935B1012D08D04FF4E271F0
:1013800008A001F05DF9A07800F0FE0002E0A0786E
:1013900040F00100A07070BD008403400085034050
:1013A00000B003402E2E5C2E2E5C2E2E5C2E2E5C6A
:1013B000647269766572735C686333325F6C6C5F0C
:1013C0006472697665725C7372635C686333325F02
:1013D0006C6C5F636D702E6300000000094908B5F6
:1013E000096AC1F3026208490968D140074AB1FBA2
:1013F000F2F204E0009200994B1E0093FBD2401ED3
:10140000F8D208BD0040054000C0FF1F809698003C
:1014100070B505460C006FF002007DD0464885424D
:101420000AD04648854207D04548854204D04FF44B
:10143000B87144A001F004F9A08830B1022804D0AA
:1014400040F271113FA001F0FBF8E08850B1102884
:1014500008D0202806D0302804D04FF4B97139A024
:1014600001F0EEF8208980B101280ED002280CD0BE
:1014700003280AD0042808D0052806D0062804D05E
:1014800040F273112FA001F0DBF8208840B1012851
:1014900006D0022804D04FF4BA712AA001F0D0F887
:1014A000608870B101280CD002280AD0042808D026
:1014B000082806D0102804D040F2751121A001F0B0
:1014C000BFF8608990B1022810D004280ED00628F9
:1014D0000CD008280AD00A2808D00C2806D00E28DC
:1014E00004D04FF4BB7117A001F0AAF8287800F0DF
:1014F000FE00287020684FEA304068602878A17AA2
:1015000000F0F100C1F3420140EA410028700120DF
:10151000FFF764FF287800E00CE040F0010028703D
:101520000120FFF75BFF207AA179084368702079DA
:10153000A870002070BD00000084034000850340B7
:1015400000B003402E2E5C2E2E5C2E2E5C2E2E5CC8
:10155000647269766572735C686333325F6C6C5F6A
:101560006472697665725C7372635C686333325F60
:101570006C6C5F636D702E630000000070B50446F4
:101580000F480D4684420AD00E48844207D00E48C8
:10159000844204D040F2D7110CA001F051F835B1CB
:1015A000012D08D04FF4EC7108A001F049F8A078A3
:1015B00000F0FB0002E0A07840F00400A07070BDD5
:1015C000008403400085034000B003402E2E5C2EB3
:1015D0002E5C2E2E5C2E2E5C647269766572735CB6
:1015E000686333325F6C6C5F6472697665725C73DA
:1015F00072635C686333325F6C6C5F636D702E6323
:10160000000000006FF0020130B100210180418034
:101610008180C18001814181084670470F489FED5C
:101620000E0ADFED100A80ED030A9FED0D0A9FED13
:101630000F1A80ED040AC0ED050ADFED0B0AC0EDBC
:10164000060A80ED071A80ED080A9FED090A80ED71
:10165000090AC0ED0A0A70479A998A3C98C0FF1F90
:10166000000000003333913C000000C56E0B073EC4
:10167000CEC7803B2DE9F05F0D464E494FF0FF3756
:101680002DED048B88420DD04B4988420AD04B493E
:10169000884207D04A49884204D040F2F51149A057
:1016A00000F0CEFFD5E90046002C7DD0002E7BD087
:1016B0004FEA8608B4FBF8F0401EFF2874D8B4FB4C
:1016C000F8F208FB1241A860D9B34FF00009401CA2
:1016D00049F10001890041EA90718300A3FB060CE7
:1016E00001FB06C14A4603FB0211090241EA106BE5
:1016F00000025FEA590282464FEA3403C0184BEBFE
:10170000020122460023FEF7DDFD8038B7EE009A85
:101710007F281DD880268719E860A7FB040C49F1B3
:10172000000606FB04C407FB09440646594650461A
:10173000FEF728FE41EC180B30462146FEF722FE4C
:1017400027E0FFE79FED2D0A002785ED040A2BE037
:1017500004EB84004100B1FBF8F00A21401DB0FB0E
:10176000F1F0401EFF281FD8A860401C49F100027C
:10177000920042EA90728300A3FB060702FB067206
:1017800003FB0921FEF7FEFD41EC180B2046FEF796
:10179000ECFD53EC182BFEF763FEFEF7FFFD00EEA9
:1017A000100A30EE490ACFE7BDEC048B3846BDE89D
:1017B000F09F000000CC014000D0014000D4014067
:1017C00000D801402E2E5C2E2E5C2E2E5C2E2E5C20
:1017D000647269766572735C686333325F6C6C5FE8
:1017E0006472697665725C7372635C686333325FDE
:1017F0006C6C5F75736172742E63000000000000F2
:101800003EB50121080202F02DFB6846FFF7FAFE03
:101810000124ADF800400420ADF802000220ADF82C
:1018200004003020ADF806000320ADF808000020C9
:10183000104DADF80A0069462846FFF7E9FDADF8FE
:10184000004008200C4CADF8020069462046FFF726
:10185000DFFD01212846FFF77DFD01212046FFF72E
:1018600079FD01212846FFF789FE01212046FFF777
:1018700085FE3EBD008403400085034070B52DED1C
:10188000028B06F0F3F800F07BF839480026394D5A
:1018900000789FED398A394C012835D005F1500088
:1018A00090ED020A803080ED010A05F01DF895EDFB
:1018B0000C0A20EE080ABCEEC00A10EE100A81B233
:1018C000A98095ED0D0A20EE080ABCEEC00A10EEC4
:1018D000100A80B200EE100A2881D5ED0E0AB8EE8B
:1018E000400A00EE880ABCEEC00A10EE102A92B23E
:1018F000EA80C4F8C862C4F8D012C4F8B802C4F8C8
:10190000C022BDEC028B70BD1A48603090ED020A17
:10191000D83080ED010A05F0D9F895ED0C0A20EEDB
:10192000080ABCEEC00A10EE100A81B2A98095ED3B
:101930000D0A20EE080ABCEEC00A10EE100A80B2B2
:1019400000EE100A2881D5ED0E0AB8EE400A00EE2E
:10195000880ABCEEC00A10EE102A92B2EA80C4F8DF
:10196000B862C4F8C012C4F8C802C4F8D022C8E7EC
:1019700046C0FF1F84C7FF1F0000164700C003407A
:101980006D49B1F854206D4882826D4A1288C28236
:101990006B4A921C12880283B1F852104183694944
:1019A000B7EE000A0978012943D16749097801296E
:1019B00006D0022910D003291AD0042924D038E0F7
:1019C0005E49C28AA03191ED011AD1ED031A70EE81
:1019D000410A60EEA10A22E05849828A903191EDD5
:1019E000011AD1ED031A70EE410A60EEA10A16E069
:1019F0005249428BC03191ED011AD1ED031A70EEBC
:101A0000410A60EEA10A0AE04C4992B2B03191ED70
:101A1000011AD1ED031A70EE410A60EEA10A01EE3F
:101A2000902AF8EE611A41EE210AC1ED020AC1EDD9
:101A3000030A818A00EE901A4449F8EE600A91ED9B
:101A4000001A434970EE810A91ED001A60EE812A76
:101A5000C0ED072AC18A00EE901A3E49F8EE600AEE
:101A600091ED001A3C4970EE810A91ED001A20EECA
:101A7000812A80ED082A018B00EE901A3749F8EE92
:101A8000600A91ED001A364970EE810A91ED001A54
:101A900060EE811AC0ED091A418B00EE901A3149AF
:101AA000F8EE600A91ED001A2F4970EE810A91ED6F
:101AB000001A20EE811A80ED0A1A2048503090ED6D
:101AC000013AD0ED033A70EE430A60EEA30A43EE0A
:101AD000220AC0ED020AC0ED030A1030D0ED012A3F
:101AE00090ED033A70EE620A60EE830A42EE820ADB
:101AF000C0ED020AC0ED030A103090ED012AD0EDCE
:101B0000032A70EE420A60EEA20A42EE210AC0EDFC
:101B1000020AC0ED030A1030D0ED010AD0ED031A1D
:101B200030EE600A20EE210A00EE810A80ED020A02
:101B300080ED030A704700000000044084C7FF1FC7
:101B40006A04044050C0FF1FA1C0FF1FC8C0FF1F90
:101B5000C4C0FF1FD8C0FF1FD4C0FF1FD0C0FF1FCD
:101B6000CCC0FF1FE0C0FF1FDCC0FF1F2DE9F0430A
:101B70006B4BDFF8B09101251979B9F80000022606
:101B8000694FDFF8A881002429B1012931D0022949
:101B90007BD01C71BEE068B96148654AD8F808106E
:101BA0008078914201DD01280BD0624AB9689142E8
:101BB00000DD30B19C825C71FFF7C6F81E71BDE894
:101BC000F083587948B19D711D71DD711C83DC82F1
:101BD0001C72BDE8F043FFF7CDB8988AB0F5FA6FF4
:101BE00004D940F2D17098825D71E8E7401C988278
:101BF000E5E79979C1B110B1FFF7A6F81E711A7A1D
:101C00004D494E48A2B19FED4E0A81ED080A9FED65
:101C10004D0A81ED090A9FED4C0A80ED080A9FEDFF
:101C20004B0A80ED090A5BE01C71FFF78DF8E6E7CF
:101C30009FED470A81ED080ADFED460AC1ED090A6A
:101C400080ED080A9FED440A80ED090A9878DFEDDF
:101C5000430A4349012819D0424A98ED020A92EDFD
:101C6000001A61EE200AB4EEE00AF1EE10FA03DB8E
:101C7000588B05282BD31D72A3F81A4010EE100ABA
:101C8000884227DA9FED380A26E042E0374897ED90
:101C9000020A90ED001A61EE200AB4EEE00AF1EEBD
:101CA00010FA03DB5A8B052A09D31D72A3F81A40D8
:101CB00010EE102A8A4205DA9FED2D0A04E0521C2C
:101CC0005A83F5E79FED2B0A80ED020A06E0401CDF
:101CD0005883D3E79FED280A82ED020A187A08B1EB
:101CE0001C836CE7254C198B208888420ED0D88A3B
:101CF000401C80B2D882142808D3B9F8001041F0F3
:101D00004001A9F80010FFF71FF81E712088188302
:101D100055E718B1BDE8F043FFF716B81C714EE760
:101D200044C0FF1F94C0FF1FD4C7FF1FE4C7FF1F9D
:101D30000000AA430000264290C8FF1FF8C8FF1FFA
:101D4000CDCCCC3D17B751398FC2F53CACC5273847
:101D50000AD7A33CACC52737BD3706363333733FAC
:101D60000000A040BCC8FF1F6F12833A54C8FF1F79
:101D70006F12033B0AD7233B0AD7A33B94C7FF1F2D
:101D80002DE9F04100F076F805F094F9324C002589
:101D9000207B01280FD131482178008888420AD061
:101DA000207005F029FD6078012804D106F0C6FBFB
:101DB00005F0F6F965702A4E0221304600F0ACFDC0
:101DC00070B1284FF114384605F0F2FF40B10221FE
:101DD000304600F0F7FC00220821384605F052FF9B
:101DE0002148E189008888420FD0E081FFF7BEFEDC
:101DF000208A401C80B220823C2808D046281DD072
:101E000050281FD0642800D32582BDE8F08104F05B
:101E100005FB05F0B5F9A078012808D09FED130A5D
:101E200084ED0C0AB2EE040A84ED0D0AEDE79FED95
:101E3000100A84ED0C0AB1EE040AF5E7BDE8F041A2
:101E400006F0D8BCE07A0128DFD1618A606A06F02A
:101E500049FAE572D9E7000044C0FF1F96C7FF1F8B
:101E60000030054000D0014092C7FF1FCDCCCC3DD3
:101E7000CDCC4C3E2DE9F041E248E449E24E856884
:101E8000E3480022B542037801F1180004880DDD13
:101E900067070BD44A800E88032E04D944F004044B
:101EA00004800A8013E0761C0E8010E00A80670729
:101EB0000DD5012B0BD1B54209DA4E88032E04D97A
:101EC00024F0040404804A8001E0761C4E80D24C49
:101ED000D04F94F800C0D14CBD422678D04C247825
:101EE0000CDA07885FEA077E08D4BCF1010F05D140
:101EF000012C01D054B101E0012E07D08A8007885F
:101F00005FEA077E1FD5012B0CD01CE0CA808D88AC
:101F1000032D04D947F0080505808A8013E06D1C65
:101F20008D8010E0DFF8FCE2754502DC012C0AD15F
:101F30004EB9CD88032D04D927F008050580CA8045
:101F400001E06D1CCD80B84DB84FAD68BD4204DDD9
:101F5000B0F800E05FEACE7708D00A81B0F800E080
:101F60005FEACE771BD0012B0CD018E04A810F8995
:101F7000032F04D94EF0010707800A810FE07F1C70
:101F80000F810CE0AA4FBD4209DA4F89032F04D913
:101F90002EF0010707804A8101E07F1C4F81A54F89
:101FA000BD420CDA07885FEA877E08D4BCF1010FD6
:101FB00005D114B1012C0AD001E0012E07D08A818D
:101FC00007885FEA877C1ED5012B0CD01BE0CA81F5
:101FD0008C89032C04D947F0020404808A8112E022
:101FE000641C8C810FE0DFF850C2654501DC34438E
:101FF00009D1CC89032C04D927F002040480CA81BA
:1020000001E0641CCC818D4C8D4EDFF838C2A46891
:10201000B44201DC64450ED90588EF060BD44A8230
:102020000E8A032E04D945F0100505800A8216E0B9
:10203000761C0E8213E00A820588EF060FD5012B6D
:102040000DD1B4420BDA644509D24E8A032E04D96D
:1020500025F0100505804A8201E0761C4E827A4DFB
:102060007A4EAD68B54202DC794EB5420ED906888B
:10207000B7060BD4CA828C8A032C04D946F02004FC
:1020800004808A8218E0641C8C8215E08A820688AB
:10209000B70611D5012B0FD16E4FBD420CDA6E4D34
:1020A000AC4209D2CC8A032C04D926F02004048047
:1020B000CA8201E0641CCC82684A1168C1F3002422
:1020C000111D34B10488250503D444F40064048050
:1020D0000BE0012B09D10488250506D524F4006402
:1020E00004800C6844F480740C601468C4F34024C9
:1020F00034B10488250603D444F0800404800BE046
:10210000012B09D10488250606D524F0800404801B
:102110000C6844F400740C601468C4F3003434B1E7
:102120000488650503D444F4806404800BE0012B2B
:1021300009D10488650506D524F4806404800C6800
:1021400044F480540C601468C4F3006434B104880F
:10215000E50403D444F4805404800FE0012B0DD136
:102160000488E5040AD524F4805404800C6844F003
:1021700080740C600C6844F004040C601468C4F3B0
:10218000406434B10488A50403D444F400540480AA
:102190000FE0012B0DD10488A5040AD524F40054C6
:1021A00004800C6844F000740C600C6844F0040473
:1021B0000C601268C2F3400242B10288540405D494
:1021C00042F480410180012B0CD011E0012B0FD192
:1021D0000288530406D522F4804202800A6842F045
:1021E00002020A6001884A0602D521F040010180FE
:1021F0000088002803D0BDE8F041FEF7A5BDBDE88A
:10220000F0810000D4C7FF1F676666427CC0FF1FD5
:102210004EC0FF1F6666064248C0FF1F4CC0FF1F2E
:1022200046C0FF1F9A991942E4C7FF1F0080DA4396
:102230000000D1430080A1430000854304C8FF1F74
:10224000AF47A140AF47A1C0F4C7FF1F0000044241
:10225000000004C200004841000048C10C86034051
:1022600070B504460D480D46844206D00C488442A1
:1022700003D0CB210BA000F0E3F92DB1012D07D045
:10228000CC2108A000F0DCF9E088C0F30E0002E0E9
:10229000E08840F40040E08070BD00000010044081
:1022A000001404402E2E5C2E2E5C2E2E5C2E2E5CF6
:1022B000647269766572735C686333325F6C6C5FFD
:1022C0006472697665725C7372635C686333325FF3
:1022D0006C6C5F6461632E630000000070B504469F
:1022E000104816460D46844206D00F48844203D05B
:1022F000E5210EA000F0A4F90DB1E80803D0E62115
:102300000AA000F09DF92EB1012E06D0E72107A00A
:1023100000F096F9E088A84301E0E0882843E080D7
:1023200070BD000000100440001404402E2E5C2EEE
:102330002E5C2E2E5C2E2E5C647269766572735C48
:10234000686333325F6C6C5F6472697665725C736C
:1023500072635C686333325F6C6C5F6461632E63CD
:102360000000000030B5244985B00546D1E90001E0
:102370000024CDE900018DF808402048854207D0AF
:102380001F48854204D04FF4F7711EA000F058F9A1
:102390002A48B0F8FE03800704D440F2EF1119A0D8
:1023A00000F04EF90021684650F82120AA4208D1D9
:1023B00010228A40022908D2214908689043086007
:1023C00014E0491CC9B20229EED36FF0020405B033
:1023D000204630BD9DF80800401C8DF808009DF88F
:1023E0000800642802D96FF00704F0E7086832EAB1
:1023F0000000EFD1EBE70000B08C000000100440BB
:10240000001404402E2E5C2E2E5C2E2E5C2E2E5C94
:10241000647269766572735C686333325F6C6C5F9B
:102420006472697665725C7372635C686333325F91
:102430006C6C5F6461632E63000000000040054027
:10244000ECCC044070B5054614000E466FF0020057
:1024500036D01C491C488D4209D0854205D04FF426
:10246000E9711AA000F0ECF804E046B102E036B1E0
:10247000012E04D040F2D31114A000F0E1F8A078AE
:1024800030B1012804D04FF4EA7110A000F0D8F860
:102490002088B0F5807F05D020B140F2D5110BA087
:1024A00000F0CEF8A888218820F4807001F48071B3
:1024B0000843A880A2783146284600F023F800207F
:1024C00070BD000000100440001404402E2E5C2E4D
:1024D0002E5C2E2E5C2E2E5C647269766572735CA7
:1024E000686333325F6C6C5F6472697665725C73CB
:1024F00072635C686333325F6C6C5F6461632E632C
:102500000000000070B50D460446144914481646F4
:102510008C4208D0844204D0962112A000F090F89A
:1025200004E03DB102E02DB1012D03D097210DA0B3
:1025300000F086F82EB1012E03D0982109A000F0FA
:102540007FF801200E35A840A18B80B2012E02D069
:102550000143A18370BD8143FBE7000000100440EC
:10256000001404402E2E5C2E2E5C2E2E5C2E2E5C33
:10257000647269766572735C686333325F6C6C5F3A
:102580006472697665725C7372635C686333325F30
:102590006C6C5F6461632E630000000070B50D46D3
:1025A00004461249002612488C4209D0844205D0C4
:1025B0004FF482710FA000F043F804E045B102E04F
:1025C00035B1012D04D040F205110AA000F038F811
:1025D000A088C00702D06FF0030605E001206D1C43
:1025E000A188A8400143A180304670BD001004407E
:1025F000001404402E2E5C2E2E5C2E2E5C2E2E5CA3
:10260000647269766572735C686333325F6C6C5FA9
:102610006472697665725C7372635C686333325F9F
:102620006C6C5F6461632E63000000006FF0020158
:1026300020B10021018001218170002108467047EE
:1026400010B50A46014602A005F0D8FFFEE70000DB
:1026500057726F6E6720706172616D657465727319
:102660002076616C75653A2066696C65202573205B
:102670006F6E206C696E652025640D0A00000000F5
:1026800018B50E4900220092CB6804468968D01E16
:1026900000290FD0009805E0086800F0800200983B
:1026A000401C0090984202D8002AF5D000E012B1F8
:1026B0008C80002018BD6FF0070018BD70C7FF1F89
:1026C00008B50D49096AC1F302630C490968D9408C
:1026D00042F210731944491EB1FBF3F206E0009276
:1026E00000BF00994B1E00930029FAD1011EA0F1F2
:1026F0000100F4D108BD00000040054000C0FF1FEC
:1027000008B50C49096AC1F302630B490968D9404D
:102710000A4B1944491EB1FBF3F206E0009200BFD8
:1027200000994B1E00930029FAD1011EA0F101006F
:10273000F4D108BD0040054000C0FF1F80969800FE
:1027400070B50446104815460E46844204D040F247
:102750006F110EA0FFF774FF072E04D94FF4B87164
:102760000AA0FFF76DFF0120B040C6B235B1012DC0
:1027700007D040F2711105A0FFF762FF66630020E9
:1027800070BDE661FBE70000003005402E2E5C2E98
:102790002E5C2E2E5C2E2E5C647269766572735CE4
:1027A000686333325F6C6C5F6472697665725C7308
:1027B00072635C686333325F6C6C5F646D612E635F
:1027C0000000000070B5054609480C46854204D05B
:1027D0004FF4A57107A0FFF733FF14B114F0FF2FDA
:1027E00004D040F24B1103A0FFF72AFFAC6170BD8B
:1027F000003005402E2E5C2E2E5C2E2E5C2E2E5C84
:10280000647269766572735C686333325F6C6C5FA7
:102810006472697665725C7372635C686333325F9D
:102820006C6C5F646D612E630000000070B505463E
:1028300008480C46854203D0E12107A0FFF700FFBE
:102840002CB1012C03D0E22103A0FFF7F9FE2C608C
:1028500070BD0000003005402E2E5C2E2E5C2E2E0A
:102860005C2E2E5C647269766572735C68633332C9
:102870005F6C6C5F6472697665725C7372635C68CE
:102880006333325F6C6C5F646D612E630000000027
:1028900070B501218CB0880301F068FA0121480469
:1028A00001F064FA684600F01BFA00241649CDE9ED
:1028B00002140120154901910A250094CDE904056F
:1028C000CDE90604124E01466A46304600F052F841
:1028D00008A800F047F91020CDE9080508AA012151
:1028E0000A94304600F0D2F840F263110948FEF72E
:1028F00021F901213046FFF799FF012211463046A8
:10290000FFF71EFF0CB070BD04D001402CC9FF1FA3
:10291000003005400808014070B50C00054602D0A3
:1029200014F0FF2F04D04FF49E7104A0FFF788FE2F
:10293000A868204000D0012070BD00002E2E5C2E23
:102940002E5C2E2E5C2E2E5C647269766572735C32
:10295000686333325F6C6C5F6472697665725C7356
:1029600072635C686333325F6C6C5F646D612E63AD
:10297000000000002DE9F0410746354800251446C7
:102980000E46874204D040F2EA2132A0FFF758FEFB
:10299000072E04D940F2EB212EA0FFF751FE002CA8
:1029A00053D0E06850B1B0F5807F07D0B0F5007F1C
:1029B00004D04FF43C7127A0FFF742FEA06940B15C
:1029C000012806D0022804D040F2F12121A0FFF70F
:1029D00037FEE06940B1042806D0082804D040F250
:1029E000F2211CA0FFF72CFE2069B0F5806F04D9FE
:1029F00040F2F32117A0FFF723FE2068B0F5805FB7
:102A000005D020B14FF43D7112A0FFF719FE07EB7E
:102A1000861160680864A0684864208AA28AC0F3AE
:102A2000090040EA02408864E26820681043D4E963
:102A300006231A43104341F20F32CB6D10409343EB
:102A40001843C8652846BDE8F0816FF00205F9E734
:102A5000003005402E2E5C2E2E5C2E2E5C2E2E5C21
:102A6000647269766572735C686333325F6C6C5F45
:102A70006472697665725C7372635C686333325F3B
:102A80006C6C5F646D612E63000000002DE9F04105
:102A900007462548002514460E46874204D040F2DA
:102AA000293122A0FFF7CCFD072E04D940F22A31AC
:102AB0001EA0FFF7C5FD002C32D0206850B11028B1
:102AC00008D0202806D0302804D040F22F3117A09B
:102AD000FFF7B6FDA0684FF48068404504D94FF475
:102AE0004C7112A0FFF7ACFD6068404504D940F27C
:102AF00031310EA0FFF7A4FD07EB8610C26D2378DD
:102B000022F0300203F030031A43C2652289616863
:102B100041EA024121F0FC21C1642846BDE8F08170
:102B20006FF00205F9E70000003005402E2E5C2E04
:102B30002E5C2E2E5C2E2E5C647269766572735C40
:102B4000686333325F6C6C5F6472697665725C7364
:102B500072635C686333325F6C6C5F646D612E63BB
:102B600000000000002128B1002202604260826063
:102B7000084670476FF00201FAE7000070B505469D
:102B80000A4816460C46854204D04FF4D27108A07C
:102B9000FFF756FD072C04D940F2A51104A0FFF75A
:102BA0004FFD05EB84100664002070BD0030054029
:102BB0002E2E5C2E2E5C2E2E5C2E2E5C6472697680
:102BC0006572735C686333325F6C6C5F64726976E4
:102BD00065725C7372635C686333325F6C6C5F64F4
:102BE0006D612E630000000070B506461048144663
:102BF0000D46864204D040F206210EA0FFF720FDCC
:102C0000072D04D940F207210AA0FFF719FDB4F5FA
:102C1000806F04D94FF4027106A0FFF711FD06EB97
:102C20008510C16C64F30901C164002070BD00000F
:102C3000003005402E2E5C2E2E5C2E2E5C2E2E5C3F
:102C4000647269766572735C686333325F6C6C5F63
:102C50006472697665725C7372635C686333325F59
:102C60006C6C5F646D612E630000000070B50546FA
:102C70000C4816460C46854204D040F2C9110AA001
:102C8000FFF7DEFC072C04D94FF4E57106A0FFF72F
:102C9000D7FC05EB8410816CC1EA064181640020F9
:102CA00070BD0000003005402E2E5C2E2E5C2E2EB6
:102CB0005C2E2E5C647269766572735C6863333275
:102CC0005F6C6C5F6472697665725C7372635C687A
:102CD0006333325F6C6C5F646D612E6300000000D3
:102CE000002258B100210160416001238160C0E9E8
:102CF000031341618161C161104670476FF00202A8
:102D0000FAE7000038B50121102001F0ABF80121ED
:102D1000202001F0A7F8294C2046FFF723FB284D7F
:102D20002846FFF71FFB6846FFF780FC01208DF85F
:102D300002006A4600212046FFF784FB6A46012113
:102D40002046FFF77FFB6A4600212846FFF77AFB03
:102D500000212046FFF722FC01212046FFF71EFC40
:102D600000212846FFF71AFC4FF4E1702080642010
:102D70006080002028800121032001F073F81148B1
:102D80000078002819D110480078002815D10F4884
:102D90000078002811D1012207212046FFF79EFA72
:102DA00001212046FFF75CFA012207212846FFF7A0
:102DB00095FA01212846FFF753FA38BD0010044068
:102DC00000140440000004400004044000080440D3
:102DD00010B5040006D0012C04D040F2351108A033
:102DE000FFF72EFC14480068012804D04FF49B71B3
:102DF00003A0FFF725FC1148C0F84C4310BD0000AC
:102E00002E2E5C2E2E5C2E2E5C2E2E5C647269762D
:102E10006572735C686333325F6C6C5F6472697691
:102E200065725C7372635C686333325F6C6C5F65A0
:102E3000666D2E6300000000000401400080204207
:102E400010B504460B480068012804D040F2062162
:102E500009A0FFF7F5FB40F23F1034EA000004D070
:102E600040F2072104A0FFF7EBFB02482430046086
:102E700010BD0000000401402E2E5C2E2E5C2E2E74
:102E80005C2E2E5C647269766572735C68633332A3
:102E90005F6C6C5F6472697665725C7372635C68A8
:102EA0006333325F6C6C5F65666D2E6300000000FB
:102EB00010B5040006D0012C04D040F2511108A036
:102EC000FFF7BEFB14480068012804D04FF4A97135
:102ED00003A0FFF7B5FB1148C0F8444310BD000044
:102EE0002E2E5C2E2E5C2E2E5C2E2E5C647269764D
:102EF0006572735C686333325F6C6C5F64726976B1
:102F000065725C7372635C686333325F6C6C5F65BF
:102F1000666D2E6300000000000401400080204226
:102F200010B530B1012809D040F2D63107A0FFF723
:102F300087FB1448016841F4803104E011481249CC
:102F400018380160C943016010BD00002E2E5C2EB0
:102F50002E5C2E2E5C2E2E5C647269766572735C1C
:102F6000686333325F6C6C5F6472697665725C7340
:102F700072635C686333325F6C6C5F65666D2E6391
:102F8000000000001C0401406745230110B5044601
:102F900040F23F1034EA000004D04FF4FC7105A069
:102FA000FFF74EFB11480068844301D0002010BD9C
:102FB000012010BD2E2E5C2E2E5C2E2E5C2E2E5C43
:102FC000647269766572735C686333325F6C6C5FE0
:102FD0006472697665725C7372635C686333325FD6
:102FE0006C6C5F65666D2E6300000000200401407C
:102FF00010B5040006D0012C04D040F25F1108A0E7
:10300000FFF71EFB14480068012804D04FF4B0718C
:1030100003A0FFF715FB1148C0F8404310BD0000A6
:103020002E2E5C2E2E5C2E2E5C2E2E5C647269760B
:103030006572735C686333325F6C6C5F647269766F
:1030400065725C7372635C686333325F6C6C5F657E
:10305000666D2E63000000000004014000802042E5
:1030600010B5040006D0012C04D040F2431108A092
:10307000FFF7E6FA14480068012804D04FF4A27163
:1030800003A0FFF7DDFA1148C0F8484310BD000067
:103090002E2E5C2E2E5C2E2E5C2E2E5C647269769B
:1030A0006572735C686333325F6C6C5F64726976FF
:1030B00065725C7372635C686333325F6C6C5F650E
:1030C000666D2E6300000000000401400080204275
:1030D0002DE9F04704463548894600260068012856
:1030E00004D040F2952132A0FFF7AAFA3E48D0F86A
:1030F000C00320B140F296212DA0FFF7A1FAB4F54C
:10310000003F0DD339482044B0F5806F08D33848CC
:1031100020440B2804D940F2972125A0FFF790FA0C
:10312000A00704D04FF4267121A0FFF789FA40F2DE
:103130003F10FFF785FEDFF8748008F11808D8F813
:10314000001001F47027D8F8001021F47021C8F89D
:10315000001008F10405286820F00700401C2860D2
:10316000C4F800902348006AC0F302612248006856
:10317000C84044F62061B0FBF1F1A81500F06AF9EF
:10318000083000D1461F1020FFF75AFE286820F0B3
:1031900007002860D8F8001007F4702221F470218D
:1031A0001143C8F800103046BDE8F0870004014024
:1031B0002E2E5C2E2E5C2E2E5C2E2E5C647269767A
:1031C0006572735C686333325F6C6C5F64726976DE
:1031D00065725C7372635C686333325F6C6C5F65ED
:1031E000666D2E63000000000080204200F4FFFCAA
:1031F000C0DFFFFC0040054000C0FF1F2DE9F0418B
:1032000000260546B0F5003F09D330482844B0F504
:10321000806F04D34FF459712DA0FFF711FAA8075E
:1032200004D040F265312AA0FFF70AFA3648006858
:10323000012804D040F2663125A0FFF701FA334897
:10324000D0F8C00320B140F2673121A0FFF7F8F9B0
:1032500040F23F10FFF7F4FDDFF8AC8008F11808EA
:10326000D8F8001001F47027D8F8001021F470216C
:10327000C8F8001008F10404206820F00700001DC1
:103280002060002028602248006AC0F302612148C3
:103290000068C8403221B0FBF1F1A01500F0DAF867
:1032A000083000D1461F1020FFF7CAFD206820F02B
:1032B00007002060D8F8001007F4702221F4702174
:1032C0001143C8F800103046BDE8F08100F4FFFC5F
:1032D0002E2E5C2E2E5C2E2E5C2E2E5C6472697659
:1032E0006572735C686333325F6C6C5F64726976BD
:1032F00065725C7372635C686333325F6C6C5F65CC
:10330000666D2E6300000000000401400080204232
:103310000040054000C0FF1F70B505461848002456
:103320000068012804D040F2211116A0FFF788F9A7
:103330000F2D04D94FF4917112A0FFF781F91049B4
:103340001831086865F3030008601D481B4A44F6FD
:10335000206300680CE0166AC6F3026620FA06F6DF
:10336000B6FBF3F6641CA64202D26FF0070070BDF4
:103370000E6806F00F06AE42EDD1002070BD0000D1
:10338000000401402E2E5C2E2E5C2E2E5C2E2E5C18
:10339000647269766572735C686333325F6C6C5F0C
:1033A0006472697665725C7372635C686333325F02
:1033B0006C6C5F65666D2E63000000000040054088
:1033C00000C0FF1F70B5064600F01F0511480C46EF
:1033D0000068012804D04FF48E610FA0FFF730F988
:1033E00034B1012C04D040F271410BA0FFF728F951
:1033F000202E04D340F2724107A0FFF721F91448B0
:1034000001680122AA40914304F00102AA4011433D
:10341000016070BD000401402E2E5C2E2E5C2E2E0D
:103420005C2E2E5C647269766572735C68633332FD
:103430005F6C6C5F6472697665725C7372635C6802
:103440006333325F6C6C5F65666D2E630000000055
:1034500090050140F8B5064600200D460446009050
:1034600007E00098401C0090A84202D96FF00704C2
:1034700004E03046FFF78AFD0128F2D12046F8BD6E
:1034800070B5044619480D46844223D017482030B1
:1034900084421FD01548403084421BD0134860300E
:1034A000844217D011488030844213D00F48A03096
:1034B00084420FD00D48C03084420BD00B48E0301E
:1034C000844207D00A48844204D040F2833109A0E4
:1034D000FFF7B6F815B11548054204D04FF46171F5
:1034E00004A0FFF7ADF8256170BD00000086034021
:1034F000008703402E2E5C2E2E5C2E2E5C2E2E5C22
:10350000647269766572735C686333325F6C6C5F9A
:103510006472697665725C7372635C686333325F90
:103520006C6C5F656D622E6300000000F1E007F8CF
:103530002DE9F04105460C006FF002007DD0FE48F9
:10354000854218D0FC482030854214D0FA484030DB
:10355000854210D0F848603085420CD0F648803063
:10356000854208D0F448A030854204D04FF43D7124
:10357000F2A0FFF765F82068012805D020B140F2DD
:10358000F621EEA0FFF75CF86068022805D020B1B4
:1035900040F2F721E9A0FFF753F8A068042805D00E
:1035A00020B14FF43E71E5A0FFF74AF8E068B0F5AE
:1035B000803F05D020B140F2FA21E0A0FFF740F8AB
:1035C0002069B0F5800F05D020B140F2FB21DBA0CF
:1035D000FFF736F8606930F4413004D04FF43F71A2
:1035E000D6A0FFF72DF8A0694FF48026B04205D091
:1035F00020B140F2FD21D1A0FFF722F8E069B0F53B
:10360000003F05D020B140F2FE21CCA0FFF718F812
:10361000206AB0F5000F05D020B140F2FF21C7A00D
:10362000FFF70EF8D349606A084204D04FF44071A6
:10363000C2A0FFF705F8A06A00E0C3E1B0F5001FE3
:1036400005D020B140F20131BCA0FEF7F9FFE06ADD
:10365000B04205D020B140F20231B8A0FEF7F0FF31
:10366000206B4FF08076B04205D020B140F203319C
:10367000B2A0FEF7E5FFC049606B084204D04FF4EA
:103680004171AEA0FEF7DCFFA06BB04205D020B1C7
:1036900040F20531A9A0FEF7D3FFE06BB0F5002F93
:1036A00005D020B140F20631A4A0FEF7C9FF206C7E
:1036B000B0F1007F05D020B140F207319FA0FEF7A6
:1036C000BFFFAE49606C084204D04FF442719BA02A
:1036D000FEF7B6FFA06C4FF00066B04205D020B1F7
:1036E00040F2093195A0FEF7ABFFE06CB0F5801F0A
:1036F00005D020B140F20A3190A0FEF7A1FF206D65
:10370000B0F1806F05D020B140F20B318BA0FEF7F5
:1037100097FF9B49606D084204D04FF4437187A026
:10372000FEF78EFFA06D4FF08047B84205D020B164
:1037300040F20D3181A0FEF783FFE06D38B1B0F5A6
:10374000004F04D040F20E317CA0FEF779FF206ECE
:10375000202805D020B14FF4447178A0FEF770FF07
:10376000606E30B1012804D040F2113173A0FEF731
:1037700067FFA06E402805D020B140F212316FA043
:10378000FEF75EFFE06E30B1022804D040F2133144
:103790006AA0FEF755FF206F802805D020B14FF4B6
:1037A000457166A0FEF74CFF606F30B1042804D06D
:1037B00040F2153161A0FEF743FFA06FB0F5807FA6
:1037C00005D020B140F216315CA0FEF739FFE06F62
:1037D00030B1082804D040F2173158A0FEF730FF6E
:1037E000D4F88000B0F5007F05D020B14FF44671C9
:1037F00052A0FEF725FFD4F8840030B1102804D081
:1038000040F219314DA0FEF71BFFD4F88800B0F547
:10381000806F05D020B140F21A3148A0FEF710FFAA
:10382000D4F88C0030B1202804D040F21B3143A0E2
:10383000FEF706FFD4F89000B04205D020B140F268
:103840001D313EA0FEF7FCFED4F89400B0F1805F7D
:1038500005D020B140F21E3138A0FEF7F1FED4F8B9
:103860009800B0F1005F05D020B140F21F3133A0C5
:10387000FEF7E6FED4F89C00B84205D020B14FF424
:1038800048712EA0FEF7DCFED4F8A000B0F1004F86
:1038900005D020B140F2213128A0FEF7D1FE216EE3
:1038A000A06EA26F0143206FE36F10430143D4F871
:1038B0008000E26E0143D4F888000143606E10433B
:1038C000626F1A431043D4F884201043D4F88C203C
:1038D0001043D4E900321343A2680A431343D4E9E6
:1038E00003210A43D4E9071631430A43E16A0A4334
:1038F000216B0A43E16B0A43216C0A43E16C0A43E2
:10390000216D0A431A43D4E905131943D4E9093652
:1039100033431943636B1943A36B1943636C194316
:10392000A36C1943636D1943A36D1943E36D1943E8
:103930000143D4F8900025E0008603402E2E5C2E33
:103940002E5C2E2E5C2E2E5C647269766572735C22
:10395000686333325F6C6C5F6472697665725C7346
:1039600072635C686333325F6C6C5F656D622E639B
:1039700000000000FFF7E7FFFFEF3FFFFFDFFFF969
:10398000FFBFFFCFD4E926C6D4F894E0070040EA91
:103990000E0046EA0C03D4F8A04040EA030040EAD7
:1039A000040040EA0200034607D1BCF1000F04D135
:1039B000BEF1000F01D106B90CB140F010036960EF
:1039C0002B600020BDE8F0816FF0020190B3002170
:1039D000016041608160C160016141618161C161DB
:1039E000016241628162C162016341638163C163BB
:1039F000016441648164C164016541658165C1659B
:103A000041660166C166816641670167C16781677A
:103A1000C0F88410C0F88010C0F88C10C0F888106E
:103A2000C0F89010C0F89410C0F89810C0F89C101E
:103A3000C0F8A0100846704770B5044621481646E5
:103A40000D46844223D01F48203084421FD01D4899
:103A5000403084421BD01B486030844217D0194844
:103A60008030844213D01748A03084420FD01548CC
:103A7000C03084420BD01348E030844207D0124853
:103A8000844204D040F2BA3110A0FEF7D9FD25B12E
:103A900041F60E7035EA000004D040F2BB310BA0B5
:103AA000FEF7CEFD4EB1012E04D04FF46F7107A08A
:103AB000FEF7C6FDA069284301E0A069A843A06104
:103AC00070BD000000860340008703402E2E5C2E50
:103AD0002E5C2E2E5C2E2E5C647269766572735C91
:103AE000686333325F6C6C5F6472697665725C73B5
:103AF00072635C686333325F6C6C5F656D622E630A
:103B00000000000010B50A4C0A20FEF7D9FD012183
:103B1000022000F00BFC28B1012000F03DF8FDF779
:103B200088F910BD206840F002002060ECE700003A
:103B300080C7FF1F10B50A4C0A20FEF7C1FD0821FF
:103B4000022000F0F3FB28B1082000F025F8FDF773
:103B50006FF910BD206840F001002060ECE7000024
:103B600080C7FF1F70B50B4C4FF400750A20FEF79D
:103B7000A7FD2946012000F0D9FB28B1284600F016
:103B80000BF8FDF757F970BD206840F00400206085
:103B9000ECE7000080C7FF1F10B5040001D0200C27
:103BA00004D040F2F91103A0FEF74AFD10488465E5
:103BB00010BD00002E2E5C2E2E5C2E2E5C2E2E5C58
:103BC000647269766572735C686333325F6C6C5FD4
:103BD0006472697665725C7372635C686333325FCA
:103BE0006C6C5F696E74657272757074732E6300AD
:103BF000001005402DE9F0430121ADB0C80300F0ED
:103C0000F7F829A801F0FAFA0024534E4FF40015F2
:103C100029A930462994CDE92A4501F0D7F94F4F1B
:103C200029A9384601F0D2F9DFF8348129A94046A4
:103C300001F0CCF9DFF82C9129A9484601F0C6F92A
:103C400029A9304601F04EFA29A9384601F04AFA6E
:103C500029A9404601F046FA29A9484601F042FA4E
:103C60006846FFF7B1FE6811CDE903048000CDE995
:103C700005404110CDE90714CDE90945CDE90B0414
:103C800085014000CDE90D45CDE90F040002CDE9E5
:103C90001140C011CDE913048002CDE91540012087
:103CA0000090022001901B9040201A9004201D904B
:103CB000179480201C9008204401CDE91E4020204C
:103CC00023904001284E229069463046FFF730FC91
:103CD00021463046FFF7D4FB670039463046FFF7F0
:103CE000CFFB4FF4805841463046FFF7C9FB2946C9
:103CF0003046FFF7C5FB61043046FFF7C1FB0421E6
:103D00003046FFF7BDFB02213046FFF7B9FB082123
:103D10003046FFF7B5FB002221463046FFF78CFE08
:103D2000002239463046FFF787FE002241463046E2
:103D3000FFF782FE002204213046FFF77DFE0022BD
:103D400002213046FFF778FE002208213046FFF7B7
:103D500073FE2DB0BDE8F08300C4034000C80340EB
:103D600000D4034000CC03400086034070B50E46EB
:103D7000050002D00E48054203D071210DA0FEF7C8
:103D80005FFC2EB1012E03D072210AA0FEF758FC71
:103D9000164C2069C00703D1732106A0FEF750FC22
:103DA0002068012E02D02843206070BDA843FBE7A5
:103DB000EEB378FF2E2E5C2E2E5C2E2E5C2E2E5C0B
:103DC000647269766572735C686333325F6C6C5FD2
:103DD0006472697665725C7372635C686333325FC8
:103DE0006C6C5F6663672E63000000000080044017
:103DF00070B50E46040002D00A48044203D0962152
:103E000009A0FEF71DFC164D2EB1012E06D09721FC
:103E100005A0FEF715FCA868204301E0A868A043B0
:103E2000A86070BD00480FFE2E2E5C2E2E5C2E2E3C
:103E30005C2E2E5C647269766572735C68633332E3
:103E40005F6C6C5F6472697665725C7372635C68E8
:103E50006333325F6C6C5F6663672E630000000043
:103E60000080044070B50E46040002D00A480442A7
:103E700003D0A82109A0FEF7E3FB164D2EB1012EB9
:103E800006D0A92105A0FEF7DBFBE868204301E08E
:103E9000E868A043E86070BDC8FC0FFF2E2E5C2EC2
:103EA0002E5C2E2E5C2E2E5C647269766572735CBD
:103EB000686333325F6C6C5F6472697665725C73E1
:103EC00072635C686333325F6C6C5F6663672E633A
:103ED000000000000080044070B504461B481646F0
:103EE0000D460088C00704D140F2A72118A0FEF7B4
:103EF000A7FB64B1012C0AD0022C08D0032C06D0F9
:103F0000052C04D04FF42A7111A0FEF799FB25B9B6
:103F100040F2A9210EA0FEF793FB0C4B0020A2015A
:103F20001B1DE90708D002EB80011944012E0C8803
:103F300009D0C4F30E040C806D0803D0401CC0B23D
:103F40001028EED370BD44F40044F4E7FC3B054078
:103F50002E2E5C2E2E5C2E2E5C2E2E5C64726976CC
:103F60006572735C686333325F6C6C5F6472697630
:103F700065725C7372635C686333325F6C6C5F673D
:103F800070696F2E63000000F0B587B00121042036
:103F900000F09AF80121082000F096F80121102085
:103FA00000F092F80121202000F08EF8012140203D
:103FB00000F08AF80121802000F086F801218E02AD
:103FC000304600F081F80121CF02384600F07CF83D
:103FD00005228021012000F02DFA0522082110463B
:103FE00000F028FA06228021022000F023FA0322A2
:103FF0000221012000F01EFA684600F0CBFA75019C
:10400000ADF816506A460421002000F0A1F86A4677
:104010000221002000F09CF86A460821022000F0EE
:1040200097F86A461021022000F092F801216A46B2
:10403000084600F08DF86A468021002000F088F8DC
:104040000024ADF800400220ADF80200ADF80640B3
:10405000ADF816406A46394600F07AF86A46E9102B
:10406000002000F075F80021082000F09DF9ADF85F
:104070000040ADF80240ADF80640ADF816406A4683
:104080000821012000F064F86A461021012000F0A8
:104090005FF80021042000F087F924223146022035
:1040A00000F0C8F925222946002000F0C3F96A462D
:1040B0002021002000F04CF86A464021002000F04A
:1040C00047F807B0F0BD000070B5054611480E4630
:1040D0000088C00704D140F2EE210FA0FEF7B0FA2D
:1040E0000DB1280B04D040F2EF210BA0FEF7A8FA87
:1040F000084C0C3C36B1012E07D04FF43C7106A0A1
:10410000FEF79EFA2068A84301E02068284320605B
:1041100070BD0000FC3B05402E2E5C2E2E5C2E2E2A
:104120005C2E2E5C647269766572735C68633332F0
:104130005F6C6C5F6472697665725C7372635C68F5
:104140006333325F6C6C5F6770696F2E63000000D1
:104150002DE9F04114000E4605464FF0000704D04B
:1041600063480088C00708D102E06FF00207BBE097
:1041700040F20F115FA0FEF763FA65B1012D0AD07E
:10418000022D08D0032D06D0052D04D04FF48871E0
:1041900058A0FEF755FA26B940F2111155A0FEF7C6
:1041A0004FFA208830B1012804D04FF4897151A012
:1041B000FEF746FA608830B1022804D040F21311AD
:1041C0004CA0FEF73DFAA08830B1042804D04FF48B
:1041D0008A7148A0FEF734FAE08840B1102806D072
:1041E000202804D040F2151142A0FEF729FA2089B8
:1041F00038B1B0F5804F04D04FF48B713DA0FEF77D
:104200001FFA608930B1402804D040F2171139A05C
:10421000FEF716FAA08930B1802804D04FF48C71D3
:1042200034A0FEF70DFAE08938B1B0F5005F04D094
:1042300040F219112FA0FEF703FA208A38B1B0F529
:10424000007F04D04FF48D712AA0FEF7F9F9608A3F
:1042500038B1B0F5805F04D040F21B1125A0FEF705
:10426000EFF9A08A38B1B0F5806F04D04FF48E71A9
:1042700020A0FEF7E5F9E08A38B1B0F5004F04D090
:1042800040F21D111BA0FEF7DBF90021F00725D03D
:1042900020886288E3881043A2884FF2F76C1A43A3
:1042A00010436289E3891043228A1043628A1043D3
:1042B00022891043E28A0243A08918431043A28A4C
:1042C0000B4B0243A80100EB81001B1D184403881F
:1042D00002EA0C0223EA0C0313430380760803D09E
:1042E000491CC9B21029D1D33846BDE8F08100007D
:1042F000FC3B05402E2E5C2E2E5C2E2E5C2E2E5C62
:10430000647269766572735C686333325F6C6C5F8C
:104310006472697665725C7372635C686333325F82
:104320006C6C5F6770696F2E6300000070B50D469E
:1043300004000CD0012C0AD0022C08D0032C06D08B
:10434000052C04D04FF4097108A0FEF779F925B9BE
:1043500040F2252105A0FEF773F9124901EB041084
:10436000B0F80008284000D0012070BD2E2E5C2E31
:104370002E5C2E2E5C2E2E5C647269766572735CE8
:10438000686333325F6C6C5F6472697665725C730C
:1043900072635C686333325F6C6C5F6770696F2E49
:1043A000630000000030054070B50C46050001D0E8
:1043B000680904D04FF4BE710FA0FEF741F934B183
:1043C000012C04D040F27D110BA0FEF739F91848FA
:1043D0000088C00704D14FF4BF7107A0FEF730F981
:1043E000134A05F01F00083A012C118802D08143BE
:1043F000118070BD0143FBE72E2E5C2E2E5C2E2E0D
:104400005C2E2E5C647269766572735C686333320D
:104410005F6C6C5F6472697665725C7372635C6812
:104420006333325F6C6C5F6770696F2E63000000EE
:10443000FC3B054070B515460E4604000CD0012C1F
:104440000AD0022C08D0032C06D0052C04D04FF43F
:10445000CA711AA0FEF7F4F826B940F2951117A018
:10446000FEF7EEF8112D0BD9A5F11400062807D997
:104470000C38192804D94FF4CB7110A0FEF7E0F8DE
:104480001C480088C00704D140F297110BA0FEF72A
:10449000D7F8184B0020A2019B1DF10706D002EBB4
:1044A000800119440C8865F305040C80760803D05C
:1044B000401CC0B21028F0D370BD00002E2E5C2E20
:1044C0002E5C2E2E5C2E2E5C647269766572735C97
:1044D000686333325F6C6C5F6472697665725C73BB
:1044E00072635C686333325F6C6C5F6770696F2EF8
:1044F00063000000FC3B054010B5040019D0B4F582
:10450000805F16D0B4F5005F13D0B4F5405F10D0D3
:10451000B4F5804F0DD0B4F5A04F0AD0B4F5C04F1C
:1045200007D0B4F5E04F04D04FF4F9710AA0FEF7BC
:1045300087F817480088C00704D140F2F31106A09D
:10454000FEF77EF81248001F018804F4E04221F4CF
:10455000E0411143018010BD2E2E5C2E2E5C2E2ECC
:104560005C2E2E5C647269766572735C68633332AC
:104570005F6C6C5F6472697665725C7372635C68B1
:104580006333325F6C6C5F6770696F2E630000008D
:10459000FC3B0540002270B1002101804180C180B8
:1045A000C1828181C18101814181018241828180F9
:1045B0008182104670476FF00202FAE76FF0020145
:1045C00018B1002101600171417108467047000077
:1045D00010B5040002D034F4407004D040F6B3119A
:1045E00007A0FEF72DF81448D0F8FC124FF44072E3
:1045F00021F44071A2431143C0F8FC1210BD000029
:104600002E2E5C2E2E5C2E2E5C2E2E5C6472697615
:104610006572735C686333325F6C6C5F6472697679
:1046200065725C696E635C686333325F6C6C5F6893
:104630007270776D2E68000000C0034010B5040052
:1046400002D034F4407004D040F6A71104A0FDF766
:10465000F7FF1148D0F8FC02204000D0012010BD27
:104660002E2E5C2E2E5C2E2E5C2E2E5C64726976B5
:104670006572735C686333325F6C6C5F6472697619
:1046800065725C696E635C686333325F6C6C5F6833
:104690007270776D2E68000000C003400448D0F8A7
:1046A000FC1221F0020141F44071C0F8FC12704785
:1046B00000C0034038B51A48006A0024C0F3026104
:1046C00018480068C8404FF47A71B0FBF1F00090D0
:1046D00000F02CF8FFF7E2FF4FF44070FFF778FF8F
:1046E0001148D0F8FC1240F201321143C0F8FC121C
:1046F000851506E00098411E009102D26FF0070474
:104700000BE02846FFF79AFF0028F3D04FF4007023
:10471000FFF794FF012800D1841E204638BD000019
:104720000040054000C0FF1F00C003400448D0F80F
:10473000FC1221F0010141F44071C0F8FC127047F5
:1047400000C003401C480021C0F8FC12C0F89C13B4
:10475000C0F8A013C0F8A413C0F8AC13C0F8B0138D
:104760003F22C0F8B423C0F8B813C0F8BC13C0F897
:10477000C013C0F8C4134FF6FF72C0F8C823C0F8C6
:10478000CC23C0F8D023C0F8D423C0F8D813C0F885
:10479000DC13C0F8E0138214C0F8E423C0F8E81377
:1047A000C0F8EC13C0F8F013C0F8F413C0F8F81315
:1047B000C0F8FC137047000000C003402DE9F04F23
:1047C000B1B001211020FFF713FB01212020FFF7DA
:1047D0000FFB01214020FFF70BFB01218020FFF799
:1047E00007FB01214802FFF703FBFFF7ABFFC348BC
:1047F00000F0DAF9C24800F0D7F9C24E304600F0B6
:10480000D3F9C14F384600F0CFF9DFF800834046B6
:1048100000F0CAF9FFF74EFF00B1FEE7B74800F01D
:10482000F7FCB74800F0F4FCB346304600F0F0FC6B
:10483000BA46384600F0ECFC4546404600F0E8FC3D
:1048400028A801F047FB684601F086FA24A801F089
:1048500079FA2EA8FFF7B2FE00244FF4963628947A
:10486000CDE9296428A9284600F0B8FE28A9A34864
:10487000299600F0B3FE28A9A14800F0AFFE28A9B0
:10488000584600F0ABFE28A9504600F0A7FE701075
:10489000CDE900044020CDE904044FF02009CDE922
:1048A0000249400106908000079080008701CDE911
:1048B00008070002CDE90A700C9080000D900E9060
:1048C00080000F90109069468C4800F0B7FF694651
:1048D0008B4800F0B3FF6946584600F0AFFF6946C9
:1048E000504600F0ABFF854800F0DAFC844800F049
:1048F000D7FC584600F0D4FC504600F0D1FC01260D
:104900008DF8BC402E968DF8BD402EA97B4800F056
:104910001BFA2EA97A4800F017FA2EA9584600F083
:1049200013FA2EA9504600F00FFA2BA800F044FB12
:104930004FF002081020CDF8B490CDE92B802BA9C0
:104940006E4800F081FA2BA96D4800F07DFA2BA982
:10495000584600F079FA2BA9504600F075FA4FF44A
:10496000C0694946654801F011FA4946644801F0BA
:104970000DFA4946584601F009FA4946504601F0F9
:1049800005FA49465D4801F053FA49465C4801F092
:104990004FFA4946584601F04BFA4946504601F055
:1049A00047FA564800F0C0FA554800F0BDFA58469C
:1049B00000F0BAFA504600F0B7FA249425942694F1
:1049C00024A94E48279401F045F924A94C4801F048
:1049D00041F924A9584601F03DF924A9504601F0B7
:1049E00039F9D5F8A40266F34A20C5F8A40248486C
:1049F000066017A805F5297500F016FF179418949E
:104A0000199417A93D481A9400F052FE17A93C4882
:104A1000179600F04DFE17A95846CDF85C8000F0BF
:104A200047FE0320179017A9504600F041FE334877
:104A300000F0B6FE324800F0B3FE584600F0B0FE7B
:104A4000504600F0ADFE2C61AC612C62AC626C6132
:104A5000EC616C62EC621CA8A5F5297500F0B0FD54
:104A6000CDE91C741420CDE91E400021CDE92211AE
:104A7000CDE920481CA800F05BFC11A800F094FDD3
:104A80003004CDE9120411961494159411A91B4811
:104A9000169400F017FD11A9194800F013FD11A993
:104AA000584600F00FFD11A9504600F00BFD11947F
:104AB00011A92846129400F005FD104801F03AF8BB
:104AC0000E4801F07FF80E4801F034F80C4801F070
:104AD00079F8584601F02EF8584601F073F8504620
:104AE00001F028F8504601F06DF8D5F8BC030949EB
:104AF0000843C5F8BC0331B0BDE8F08F00C40340E3
:104B000000C8034000D4034000CC034000C0034071
:104B1000A05478420100030010B504460E488442B8
:104B200013D00E48844210D00D4884420DD00D4859
:104B300084420AD00C48844207D00C48844204D0F6
:104B400040F6F2110AA0FDF77BFDD4F8400140F0D9
:104B50000100C4F8400110BD00C0034000C4034080
:104B600000C8034000CC034000D0034000D4034001
:104B70002E2E5C2E2E5C2E2E5C2E2E5C64726976A0
:104B80006572735C686333325F6C6C5F6472697604
:104B900065725C696E635C686333325F6C6C5F681E
:104BA0007270776D2E68000010B504464F4884423D
:104BB00012D04F4884420FD04E4884420CD04E4809
:104BC000844209D04D48844206D04D48844203D0E7
:104BD000B1214CA0FDF734FD0020C4F8400144F899
:104BE000EC0B44F8E80C554944F8AC1C44F8A81CFC
:104BF00044F86C1C44F8681C44F8641C44F8601CBD
:104C000044F85C1C44F8581C44F8541C44F8501CEC
:104C100044F82C1C44F8281C44F8241C44F8201C9C
:104C20006161A161E1612162A065E0652066A06625
:104C3000E06660674906A167E067C4F89400C4F8BD
:104C40009C00C4F8A400C4F8A800C4F8AC00C4F8E0
:104C5000B000C4F814013A49C4F81811C4F81C1182
:104C6000C4F82401C4F82C014FF48002C4F83421A4
:104C7000C4F83821C4F83C21C4F84021C4F84401E8
:104C8000C4F84801C4F84C11C4F85011C4F85401D8
:104C9000C4F85801C4F85C01C4F86001C4F86401A8
:104CA000C4F86811C4F86C11C4F87011C4F8741118
:104CB000C4F87801C4F87C01C4F8B401C4F8B801A0
:104CC0002048C4F8C801C4F8CC01C4F8D001C4F825
:104CD000D401C4F8D801C4F8DC01C4F8E001C4F878
:104CE000E401C4F8E801C4F8EC0110BD00C00340C1
:104CF00000C4034000C8034000CC034000D0034080
:104D000000D403402E2E5C2E2E5C2E2E5C2E2E5CAC
:104D1000647269766572735C686333325F6C6C5F72
:104D20006472697665725C7372635C686333325F68
:104D30006C6C5F687270776D2E630000C0FF3F007F
:104D4000AAAA0A00C0FF7F0070B504460D006FF0EC
:104D500002004FD0284EB44213D02848844210D0CD
:104D6000274884420DD0274884420AD026488442EE
:104D700007D02648844204D040F24D4124A0FDF7DC
:104D80005FFC286850B1012808D0022806D003280B
:104D900004D040F24E411EA0FDF752FCB44211D0A7
:104DA000287930B1012804D04FF48A6118A0FDF7AA
:104DB00047FC687930B1012804D040F2514114A079
:104DC000FDF73EFC2978D4F84C0161F38710C4F854
:104DD0004C01B4420DD028796979000740EA41506E
:104DE000D4F8001200F0815021F081510843C4F83A
:104DF0000002002070BD000000C0034000C403405A
:104E000000C8034000CC034000D0034000D403405E
:104E10002E2E5C2E2E5C2E2E5C2E2E5C64726976FD
:104E20006572735C686333325F6C6C5F6472697661
:104E300065725C7372635C686333325F6C6C5F686D
:104E40007270776D2E63000070B504460D006FF030
:104E5000020040D02048844213D02048844210D021
:104E60001F4884420DD01F4884420AD01E48844205
:104E700007D01E48844204D040F209311CA0FDF73F
:104E8000DFFB286830B1022804D040F20A3118A0B4
:104E9000FDF7D6FB686830B1102804D040F20B3122
:104EA00013A0FDF7CDFBA86830B1202804D04FF443
:104EB00043710FA0FDF7C4FB287829790843297AAC
:104EC0000843D4F84C1100F0320021F032010843BD
:104ED000C4F84C01002070BD00C0034000C4034072
:104EE00000C8034000CC034000D0034000D403407E
:104EF0002E2E5C2E2E5C2E2E5C2E2E5C647269761D
:104F00006572735C686333325F6C6C5F6472697680
:104F100065725C7372635C686333325F6C6C5F688C
:104F20007270776D2E63000010B504460E488442FF
:104F300013D00E48844210D00D4884420DD00D4845
:104F400084420AD00C48844207D00C48844204D0E2
:104F500041F285010AA0FDF773FBD4F84C0140F043
:104F60000100C4F84C0110BD00C0034000C4034060
:104F700000C8034000CC034000D0034000D40340ED
:104F80002E2E5C2E2E5C2E2E5C2E2E5C647269768C
:104F90006572735C686333325F6C6C5F64726976F0
:104FA00065725C696E635C686333325F6C6C5F680A
:104FB0007270776D2E6800006FF0020118B1002149
:104FC00001604160816008467047000070B504468A
:104FD0000D006FF002005BD02E48844213D02E48A3
:104FE000844210D02D4884420DD02D4884420AD0EE
:104FF0002C48844207D02C48844204D040F2B4614B
:105000002AA0FDF71DFB286898B1B0F1807F10D071
:10501000B0F1007F0DD0B0F1407F0AD0B0F1806FC9
:1050200007D0B0F1A06F04D040F2B5611FA0FDF72A
:1050300007FB686868B1B0F5800F0AD0B0F5000FC3
:1050400007D0B0F5400F04D040F2B66117A0FDF7CD
:10505000F7FAA86868B1B0F5801F0AD0B0F5001F54
:1050600007D0B0F5401F04D040F2B7610FA0FDF7A4
:10507000E7FAD5E900010843A9680843D4F85411B8
:1050800000F0FE6021F0FE610843C4F854010020E6
:1050900070BD000000C0034000C4034000C80340CE
:1050A00000CC034000D0034000D403402E2E5C2EE1
:1050B0002E5C2E2E5C2E2E5C647269766572735C9B
:1050C000686333325F6C6C5F6472697665725C73BF
:1050D00072635C686333325F6C6C5F687270776DAB
:1050E0002E63000070B504460D006FF002005BD027
:1050F0002E48844213D02E48844210D02D4884423A
:105100000DD02D4884420AD02C48844207D02C4828
:10511000844204D040F2E6612AA0FDF791FA2868A3
:1051200098B1B0F1807F10D0B0F1007F0DD0B0F118
:10513000407F0AD0B0F1806F07D0B0F1A06F04D0EB
:1051400040F2E7611FA0FDF77BFA686868B1B0F52F
:10515000800F0AD0B0F5000F07D0B0F5400F04D093
:105160004FF4DD6117A0FDF76BFAA86868B1B0F5E0
:10517000801F0AD0B0F5001F07D0B0F5401F04D043
:1051800040F2E9610FA0FDF75BFAD5E900010843A1
:10519000A9680843D4F8581100F0FE6021F0FE61C0
:1051A0000843C4F85801002070BD000000C003404F
:1051B00000C4034000C8034000CC034000D00340BB
:1051C00000D403402E2E5C2E2E5C2E2E5C2E2E5CE8
:1051D000647269766572735C686333325F6C6C5FAE
:1051E0006472697665725C7372635C686333325FA4
:1051F0006C6C5F687270776D2E6300006FF0020157
:1052000018B10021016041608160084670470000CC
:1052100010B504460E48844213D00E48844210D084
:105220000D4884420DD00D4884420AD00C48844277
:1052300007D00C48844204D040F6BF110AA0FDF705
:10524000FFF9D4F8A00240F00800C4F8A00210BD95
:1052500000C0034000C4034000C8034000CC03402A
:1052600000D0034000D403402E2E5C2E2E5C2E2E48
:105270005C2E2E5C647269766572735C686333328F
:105280005F6C6C5F6472697665725C696E635C68A2
:105290006333325F6C6C5F687270776D2E680000EC
:1052A00010B504460E48844213D00E48844210D0F4
:1052B0000D4884420DD00D4884420AD00C488442E7
:1052C00007D00C48844204D040F6C3710AA0FDF711
:1052D000B7F9D4F8440240F01000C4F8440210BDFD
:1052E00000C0034000C4034000C8034000CC03409A
:1052F00000D0034000D403402E2E5C2E2E5C2E2EB8
:105300005C2E2E5C647269766572735C68633332FE
:105310005F6C6C5F6472697665725C696E635C6811
:105320006333325F6C6C5F687270776D2E6800005B
:1053300070B504006FF002007ED0206838B1B0F57F
:10534000001F04D04FF497614DA0FDF779F9606814
:10535000C0B1042816D0082814D00C2812D0102868
:1053600010D014280ED018280CD01C280AD02028C1
:1053700008D0242806D0282804D040F2B94140A003
:10538000FDF75EF9A06870B340282CD080282AD0A1
:10539000C02828D0B0F5807F25D0B0F5A07F22D0DE
:1053A000B0F5C07F1FD0B0F5E07F1CD0B0F5007F16
:1053B00019D0B0F5107F16D0B0F5207F13D0B0F51E
:1053C000307F10D0B0F5407F0DD0B0F5507F0AD0BF
:1053D000B0F5607F07D0B0F5707F04D040F2BA41DD
:1053E00027A0FDF72DF9E0684FF48035A84204D3DB
:1053F00040F2BB4122A0FDF723F92069A84204D363
:1054000040F2BC411EA0FDF71BF96069022805D0DF
:1054100020B140F2BD411AA0FDF712F9D4E906010E
:10542000254A21F0FF011040084304D040F2BE415C
:1054300013A0FDF705F900E020E0D4E900010843DE
:105440006269A1681143084340F440311B480140A0
:105450001B48D0F8BC23194BDB431A401143C0F85A
:10546000BC13E168C0F8C8132169C0F8D013A16962
:10547000C0F8C013E169C0F8C413002070BD00007B
:105480002E2E5C2E2E5C2E2E5C2E2E5C6472697687
:105490006572735C686333325F6C6C5F64726976EB
:1054A00065725C7372635C686333325F6C6C5F68F7
:1054B0007270776D2E63000001000080FE032300F0
:1054C00000C0034070B505460C006FF002004CD0E0
:1054D000206830B1012804D040F2F34123A0FDF749
:1054E000AFF860684FF4803630B1B04204D040F27B
:1054F000F4411EA0FDF7A4F8A06830B1042804D040
:1055000040F2F54119A0FDF79BF8E06838B1B0F51D
:10551000802F04D040F2F64114A0FDF791F82069E5
:1055200030B1B04204D040F2F74110A0FDF788F846
:10553000606930B1012804D04FF49F610BA0FDF7E2
:105540007FF8D4E900100143D4E90202104301437B
:105550002069014313480140D5F84002114AD24363
:1055600010400143C5F84012002070BD2E2E5C2E65
:105570002E5C2E2E5C2E2E5C647269766572735CD6
:10558000686333325F6C6C5F6472697665725C73FA
:1055900072635C686333325F6C6C5F687270776DE6
:1055A0002E630000050005026FF0020130B10021FA
:1055B000016041608160C1600161416108467047DE
:1055C0006FF0020140B10021016041608160C16063
:1055D00001614161C0E906110846704770B5044693
:1055E0000D006FF0020037D01C48844212D01C48D6
:1055F00084420FD01B4884420CD01B48844209D0FF
:105600001A48844206D01A48844203D09C2119A02B
:10561000FDF716F8286828B1042803D09D2115A0AD
:10562000FDF70EF8A86830B1B0F5807F03D09E2159
:1056300010A0FDF705F868681C49C138884203D9F5
:105640009F210CA0FCF7FCFF68682064A96828680B
:105650000843C4F84001002070BD000000C00340B2
:1056600000C4034000C8034000CC034000D0034006
:1056700000D403402E2E5C2E2E5C2E2E5C2E2E5C33
:10568000647269766572735C686333325F6C6C5FF9
:105690006472697665725C7372635C686333325FEF
:1056A0006C6C5F687270776D2E630000FFFE3F00C8
:1056B00070B505460C006FF0020049D025488542C0
:1056C00010D0254885420DD0244885420AD0244870
:1056D000854207D02348854204D040F2846122A04D
:1056E000FCF7AEFF2068042804D940F285611EA0B3
:1056F000FCF7A6FF606830B1402804D040F2866114
:1057000019A0FCF79DFFA06830B1802804D040F2BA
:10571000876115A0FCF794FFE06830B1202804D021
:105720004FF4D16110A0FCF78BFFD4E901010843CD
:10573000216840EA4100C5F8A402D5F84402217B63
:1057400020F0200001F020010843C5F844020020A9
:1057500070BD000000C4034000C8034000CC0340FB
:1057600000D0034000D403402E2E5C2E2E5C2E2E43
:105770005C2E2E5C647269766572735C686333328A
:105780005F6C6C5F6472697665725C7372635C688F
:105790006333325F6C6C5F687270776D2E630000EC
:1057A00010B504460D48844210D00D4884420DD0F7
:1057B0000C4884420AD00C48844207D00B488442EB
:1057C00004D041F261710AA0FCF73AFFD4F8A402B8
:1057D00040F00100C4F8A40210BD000000C4034062
:1057E00000C8034000CC034000D0034000D4034075
:1057F0002E2E5C2E2E5C2E2E5C2E2E5C6472697614
:105800006572735C686333325F6C6C5F6472697677
:1058100065725C696E635C686333325F6C6C5F6891
:105820007270776D2E6800006FF0020120B10021C8
:10583000016041608160C160084670472DE9F04118
:1058400005460C006FF002007ED0A548854213D0BB
:10585000A448854210D0A44885420DD0A348854273
:105860000AD0A348854207D0A248854204D040F21E
:105870005711A1A0FCF7E4FE2068AD49C138884269
:1058800004D94FF4AC719CA0FCF7DAFE606840B11B
:10589000012806D0022804D040F2591196A0FCF746
:1058A000CFFEA06840B1042806D0082804D04FF4E9
:1058B000AD7191A0FCF7C4FEE06850B1102808D08B
:1058C000202806D0302804D040F25B118AA0FCF7D3
:1058D000B7FE206950B1402808D0802806D0C028E3
:1058E00004D04FF4AE7184A0FCF7AAFE606968B1E1
:1058F000B0F5807F0AD0B0F5007F07D0B0F5407FCB
:1059000004D040F25D117CA0FCF79AFEA06968B15A
:10591000B0F5806F0AD0B0F5006F07D0B0F5406FDA
:1059200004D04FF4AF7174A0FCF78AFEE06978B13F
:10593000B0F5805F0CD0B0F5005F09D0B0F5405FE6
:1059400006D040F25F1100E0C7E06BA0FCF778FEE4
:10595000206A68B1B0F5804F0AD0B0F5004F07D08B
:10596000B0F5404F04D04FF4B07163A0FCF768FE6F
:105970004FF48016606A77004FF4401850B1B0427F
:1059800008D0B84206D0404504D040F261115AA078
:10599000FCF756FEA06A50B1B04208D0B84206D01B
:1059A000404504D04FF4B17153A0FCF749FE4FF4C9
:1059B0008006E06A77004FF4400850B1B04208D04A
:1059C000B84206D0404504D040F263114AA0FCF72B
:1059D00037FE206B50B1B04208D0B84206D04045E7
:1059E00004D04FF4B27144A0FCF72AFE4FF0807649
:1059F000606B77004FF0407850B1B04208D0B842A9
:105A000006D0404504D040F265113BA0FCF718FEDB
:105A1000A06B50B1B04208D0B84206D0404504D087
:105A20004FF4B37134A0FCF70BFE4FF08066E06BCF
:105A300077004FF0406850B1B04208D0B84206D06D
:105A4000404504D040F267112BA0FCF7F9FD206C13
:105A500050B1B04208D0B84206D0404504D04FF40F
:105A6000B47125A0FCF7ECFD2068C5F88000D4E9EE
:105A700001010843D4E90312114308436169084353
:105A8000A1690843E1690843216A0843D5F8541124
:105A9000C0EA0100C5F85401E16A606AE26B08439C
:105AA000616B11430843D5F8041200F07F6021F0C8
:105AB0007F610843C5F80402216BA06A226C084389
:105AC000A16B11430843D5F8381200F07F6021F034
:105AD0007F610843C5F838020020BDE8F08100006E
:105AE00000C0034000C4034000C8034000CC034092
:105AF00000D0034000D403402E2E5C2E2E5C2E2EB0
:105B00005C2E2E5C647269766572735C68633332F6
:105B10005F6C6C5F6472697665725C7372635C68FB
:105B20006333325F6C6C5F687270776D2E63000058
:105B3000FFFE3F0010B504460E48844213D00E48C5
:105B4000844210D00D4884420DD00D4884420AD0C2
:105B50000C48844207D00C48844204D04FF473614F
:105B60000AA0FCF76DFDD4F8540140F08050C4F851
:105B7000540110BD00C0034000C4034000C80340EE
:105B800000CC034000D0034000D403402E2E5C2EF6
:105B90002E5C2E2E5C2E2E5C647269766572735CB0
:105BA000686333325F6C6C5F6472697665725C69DE
:105BB0006E635C686333325F6C6C5F687270776DC4
:105BC0002E68000010B504460E48844213D00E48DB
:105BD000844210D00D4884420DD00D4884420AD032
:105BE0000C48844207D00C48844204D04FF47661BC
:105BF0000AA0FCF725FDD4F8580140F08050C4F805
:105C0000580110BD00C0034000C4034000C8034059
:105C100000CC034000D0034000D403402E2E5C2E65
:105C20002E5C2E2E5C2E2E5C647269766572735C1F
:105C3000686333325F6C6C5F6472697665725C694D
:105C40006E635C686333325F6C6C5F687270776D33
:105C50002E68000070B505460C006FF0020048D0B9
:105C60002448854213D02448854210D023488542D9
:105C70000DD0234885420AD02248854207D02248C9
:105C8000854204D04FF4167120A0FCF7D9FC20689F
:105C900030B1082804D040F259211CA0FCF7D0FCF8
:105CA000606830B1042804D040F25A2117A0FCF7F4
:105CB000C7FCA06830B1012804D040F25B2113A0DA
:105CC000FCF7BEFCE06830B1022804D04FF4177135
:105CD0000EA0FCF7B5FC20782179227B0843217ABD
:105CE00011430843D5F8441260F30301C5F8441288
:105CF000002070BD00C0034000C4034000C8034042
:105D000000CC034000D0034000D403402E2E5C2E74
:105D10002E5C2E2E5C2E2E5C647269766572735C2E
:105D2000686333325F6C6C5F6472697665725C7352
:105D300072635C686333325F6C6C5F687270776D3E
:105D40002E6300006FF0020120B10021016041606C
:105D50008160C160084670476FF0020190B10A4946
:105D60000160002141608160C16001614161816128
:105D7000C161016241628162C16201634163816309
:105D8000C163016408467047C0FF3F0070B5044618
:105D900012480D46844213D01148844210D0114855
:105DA00084420DD0104884420AD01048844207D063
:105DB0000F48844204D04FF4D0510EA0FCF740FCB1
:105DC0001A49A5F1C100884204D941F6012109A070
:105DD000FCF736FCC4F8005170BD000000C0034061
:105DE00000C4034000C8034000CC034000D003407F
:105DF00000D403402E2E5C2E2E5C2E2E5C2E2E5CAC
:105E0000647269766572735C686333325F6C6C5F71
:105E10006472697665725C696E635C686333325F75
:105E20006C6C5F687270776D2E680000FFFE3F003B
:105E300070B5044612480D46844213D0114884427E
:105E400010D0114884420DD0104884420AD0104826
:105E5000844207D00F48844204D041F60E210EA0A0
:105E6000FCF7EEFB1A49A5F1C100884204D941F6BE
:105E70000F2109A0FCF7E4FBC4F8085170BD000035
:105E800000C0034000C4034000C8034000CC0340EE
:105E900000D0034000D403402E2E5C2E2E5C2E2E0C
:105EA0005C2E2E5C647269766572735C6863333253
:105EB0005F6C6C5F6472697665725C696E635C6866
:105EC0006333325F6C6C5F687270776D2E680000B0
:105ED000FFFE3F006FF0020128B1002101608160E8
:105EE000024941600021084670470000C0FF3F00A2
:105EF0002DE9F04F99B04FF0000B6C4CCDF848B045
:105F0000CDF84CB0CDF850B0CDF854B0CDF858B075
:105F1000CDF85CB02146E079DFF894A1C978654FEF
:105F2000DFF89481DFF8949101265D4606287AD245
:105F3000DFE800F0030D2B367AB461483860FAF7D9
:105F40000DFAA8F8000089F80060E671A9E049B9E7
:105F50005B4854303860FAF701FAA8F8000089F875
:105F60000060E6706078412819D19AED020A02209B
:105F700084ED1B0AE071524894303860FAF7EEF96C
:105F8000A8F8000089F8006079E06078422806D11E
:105F90009AED020A032084ED1C0AE071657080E02E
:105FA000D4ED1C0A94ED1B0AF4EE400AF1EE10FA4F
:105FB00004D19FED440A84ED1D0A09E070EEC00A89
:105FC000BFEE001AC1EE201A30EEC00AC4ED1D1A51
:105FD00084ED1E0A94ED1D0A12A802F0C9FD94ED8D
:105FE0001E0A15A802F012FD8DF8005036496846C9
:105FF000FAF7A8F912A96846FAF7A4F932496846EF
:106000001431FAF79FF915A96846FAF79BF9C7F812
:1060100000D06846FAF7A2F9A8F8000089F80060F5
:106020000420E0713DE03BE0284A606F4FF0050A34
:106030001044274A904225D2264AA06F904221D987
:10604000254A90421ED241B924483860FAF786F9B1
:10605000A8F8000089F80060E6706078592802D03E
:106060004E280AD01DE01E48067094ED1D0A84EDEE
:10607000090A94ED1E0A84ED0A0A84F807A06570E7
:10608000E5700EE0154855303860FAF767F9A8F862
:10609000000089F8006084F807A002E04FF0010BCF
:1060A000E57119B05846BDE8F08F000098C0FF1F99
:1060B00044C8FF1F68C0FF1F56C0FF1F4FC0FF1F0F
:1060C00012C5FF1F000000004EC3FF1FF33198C42C
:1060D00051BB32000080F3C4004006C5BCC6FF1FA0
:1060E00045C0FF1F2DE9F04F99B04FF0000B6D4CEC
:1060F000CDF848B0CDF84CB0CDF850B0CDF854B094
:10610000CDF858B0CDF85CB021466079DFF898A1A1
:10611000C978664FDFF89881DFF8989101265D46CF
:1061200006287DD2DFE800F0030D2B367DB76248EC
:106130003860FAF713F9A8F8000089F80060667172
:10614000ACE049B95C4823303860FAF707F9A8F8A1
:10615000000089F80060E6706078412819D19AED56
:10616000020A022084ED130A6071534865303860DA
:10617000FAF7F4F8A8F8000089F800607CE060788D
:10618000422806D19AED020A032084ED140A6071B8
:10619000657083E0D4ED140A94ED130AF4EE400A1E
:1061A000F1EE10FA04D19FED450A84ED150A0BE0DB
:1061B00070EEC00A9FED421AC1EE201AB1EE0C1A21
:1061C00010EE810AC4ED151A84ED160A94ED150A35
:1061D00012A802F0CDFC94ED160A15A802F016FCE8
:1061E00035498DF80050A0396846FAF7ABF812A986
:1061F0006846FAF7A7F8304968468C39FAF7A2F8EA
:1062000015A96846FAF79EF8C7F800D06846FAF76D
:10621000A5F8A8F8000089F80060042060713DE04E
:106220003BE0284A606D4FF0050A1044264A904230
:1062300025D2264AA06D904221DA254A90421ED2EC
:1062400041B924483860FAF789F8A8F8000089F8BD
:106250000060E6706078592802D04E280AD01DE010
:106260001D48067094ED150A84ED070A94ED160A90
:1062700084ED080A84F805A06570E5700EE0154805
:1062800055303860FAF76AF8A8F8000089F800601D
:1062900084F805A002E04FF0010B657119B0584673
:1062A000BDE8F08F98C0FF1F24C8FF1F68C0FF1F04
:1062B00056C0FF1F4FC0FF1FC6C3FF1F00000000D6
:1062C000000048426DEB0CC20078210000004842FB
:1062D000000048C2BCC6FF1F45C0FF1F034810B5E1
:1062E00000688047BFF34F8F10BD000038C9FF1F03
:1062F000034810B540688047BFF34F8F10BD0000C2
:1063000038C9FF1F034810B580688047BFF34F8F1F
:1063100010BD000038C9FF1F034810B5C068804792
:10632000BFF34F8F10BD000038C9FF1F034810B5E1
:1063300000698047BFF34F8F10BD000038C9FF1FB1
:10634000034810B540698047BFF34F8F10BD000070
:1063500038C9FF1F034810B580698047BFF34F8FCE
:1063600010BD000038C9FF1F034810B5C069804741
:10637000BFF34F8F10BD000038C9FF1F034810B591
:10638000006A8047BFF34F8F10BD000038C9FF1F60
:10639000034810B5406A8047BFF34F8F10BD00001F
:1063A00038C9FF1F034810B5806A8047BFF34F8F7D
:1063B00010BD000038C9FF1F034810B5C06A8047F0
:1063C000BFF34F8F10BD000038C9FF1F034810B541
:1063D000006B8047BFF34F8F10BD000038C9FF1F0F
:1063E000034810B5406B8047BFF34F8F10BD0000CE
:1063F00038C9FF1F034810B5806B8047BFF34F8F2C
:1064000010BD000038C9FF1F034810B5C06B80479E
:10641000BFF34F8F10BD000038C9FF1F1748818B95
:10642000491C89B281830A2905D9417AC1F1010148
:106430004172002181830379114A9BB1911C022B87
:1064400002D0437A012B0DD00A8842F400620A8000
:106450000C49028C098891420FD0018439B1084857
:10646000203806E0118841F400611180F0E704480B
:106470001E38018841F480510180704744C0FF1FDD
:106480002838054094C0FF1FC10706D0154940F2C7
:1064900023120A6043F210220A60810702D5134AD0
:1064A00011491161410703D5114A4AF20151118086
:1064B0001049C20606D5B1F8FE234AF208531A4322
:1064C000A1F8FE23420606D5B1F8FE234AF2035393
:1064D0001A43A1F8FE23000602D507497720086079
:1064E00070470000000401400100A5A500800440A1
:1064F000FC3B0540004005400C0805402DE9F04FED
:106500009BB00020CDE912006C4C0546149015900C
:106510001690179018902146207ADFF8A4B1C97818
:10652000684FDFF8A491DFF8A4A1012604F18008E8
:1065300006287DD2DFE800F0030D2B367FBB6448D0
:106540003860F9F70BFFA9F800008AF8006026729E
:10655000B0E049B95E4854303860F9F7FFFEA9F859
:1065600000008AF80060E6706078412819D19BED40
:10657000020A022084ED1F0A2072554895303860C7
:10658000F9F7ECFEA9F800008AF8006081E0607875
:10659000422806D19BED020A032088ED000A2072F2
:1065A000657087E0D8ED000A94ED1F0AF4EE400A0A
:1065B000F1EE10FA04D19FED470A88ED010A09E0D7
:1065C00070EEC00AB2EE041AC1EE201A30EEC00A14
:1065D000C8ED011A88ED020A8DF84C508DF858501C
:1065E00098ED010A13A802F0C3FA98ED020A16A862
:1065F00002F00CFA8DF8005037496846F9F7A2FE10
:1066000013A96846F9F79EFE334968461431F9F735
:1066100099FE16A96846F9F795FEC7F800D06846B6
:10662000F9F79CFEA9F800008AF80060042100E058
:106630003FE021723EE0294AD8F804004FF0050BF4
:106640001044274A904227D2264AD8F808009042A0
:1066500022D9254A90421FD249B91D48D630386008
:10666000F9F77CFEA9F800008AF80060E67060780F
:10667000592802D04E280AD01CE01C48067098ED1C
:10668000010A84ED050A98ED020A84ED060A84F8F1
:1066900008B06570E5700DE015483860F9F75EFEEA
:1066A000A9F800008AF8006084F808B002E0012030
:1066B0001290257212981BB0BDE8F08F98C0FF1F92
:1066C00034C8FF1F68C0FF1F56C0FF1F4FC0FF1F09
:1066D000E6C5FF1F000000009EC3FF1FEB517DC3F6
:1066E0003D0A1D000080F3C4004006C545C0FF1FE1
:1066F00011C7FF1F2DE9F04F99B04FF0000B6D4C03
:10670000CDF848B0CDF84CB0CDF850B0CDF854B07D
:10671000CDF858B0CDF85CB02146A079DFF898A14B
:10672000C978664FDFF89881DFF8989101265D46B9
:1067300006287DD2DFE800F0030D2B367DB76248D6
:106740003860F9F70BFEA8F8000089F80060A67120
:10675000ACE049B95C4823303860F9F7FFFDA8F890
:10676000000089F80060E6706078412819D19AED40
:10677000020A022084ED170AA07153486430386081
:10678000F9F7ECFDA8F8000089F800607CE060787B
:10679000422806D19AED020A032084ED180AA0715E
:1067A000657083E0D4ED180A94ED170AF4EE400A00
:1067B000F1EE10FA04D19FED450A84ED190A0BE0C1
:1067C00070EEC00AB2EE041AC1EE201AB1EE001A41
:1067D00010EE810AC4ED191A84ED1A0A94ED190A13
:1067E00012A802F0C5F994ED1A0A15A802F00EF9E4
:1067F00035498DF80050F7396846F9F7A3FD12A91D
:106800006846F9F79FFD30496846E339F9F79AFD84
:1068100015A96846F9F796FDC7F800D06846F9F75C
:106820009DFDA8F8000089F800600420A0713DE0FB
:106830003BE0274A606E4FF0050A1044254A90421B
:1068400025D2254AA06E904221DA244A90421ED2D7
:1068500041B923483860F9F781FDA8F8000089F8AC
:106860000060E6706078592802D04E280AD01DE0FA
:106870001C48067094ED190A84ED030A94ED1A0A77
:1068800084ED040A84F806A06570E5700EE01448F3
:1068900055303860F9F762FDA8F8000089F800600B
:1068A00084F806A002E04FF0010BA57119B058461C
:1068B000BDE8F08F98C0FF1F14C8FF1F68C0FF1FFE
:1068C00056C0FF1F4FC0FF1F6DC4FF1F0000000018
:1068D000466194C31DC5330000004842000048C211
:1068E000BCC6FF1F45C0FF1F2DE9F0416B4D6C4F2B
:1068F000A5F160042DED028B04F59C7095ED020A64
:10690000E278397800F090FC04F15000654990ED90
:10691000020A10EE100ADFED648A884206DDF4EE0A
:10692000000A80EE801A84ED131A01E0C4ED138A88
:106930005A4894ED131AD8305C4990ED010A60EE84
:10694000010A10EE900AC4ED0B0A884206DDF7EE4C
:10695000001A81EEA02A84ED122A01E0C4ED128A09
:10696000D4ED120ADFED521A4C4860EEA10A203035
:1069700060EE810A60EE812AC4ED112AD0ED021A80
:106980009FED4C1AF0EE400A4B4841EEC10A95EDDE
:10699000023AD0ED003A31EEA31A30EEC32A9FED51
:1069A000474A3E4D21EE041AE83505F12C06B4EEB7
:1069B000C12AF1EE10FA04D910EE900A404988423B
:1069C00009DA20EE610A85ED022A86ED022A01200D
:1069D00020EE228A08E023EE230A85ED021A86EDD6
:1069E000021A002020EE228AE070364839780078BA
:1069F000A0B1354800F022FB96ED0A0A70EE080AB5
:106A0000C4ED0F0A96ED050AB4EEE00AF1EE10FAB5
:106A10002FD284ED0F0A30EE480A33E02A482C3892
:106A200000F00CFB95ED0A0A70EE080AC4ED0F0A9F
:106A300095ED050AB4EEE00AF1EE10FA04D284ED09
:106A40000F0A30EE480A08E0F5EEC00AF1EE10FA3F
:106A500009D238EEC80AC4ED0F8AD5ED030A30EE2C
:106A6000600A85ED040ABDEC028BBDE8F04100F040
:106A700015B9F5EEC00AF1EE10FA09D238EEC80ADF
:106A8000C4ED0F8AD6ED030A30EE600A86ED040AE3
:106A9000BDEC028BBDE8F04100F068B9E4C7FF1F10
:106AA0004BC0FF1F6F12833A000000000AD7233C3F
:106AB000000090420AD7A33B70C0FF1F000048426D
:106AC0000000F04147C0FF1FF8C8FF1F2DE9F0414B
:106AD000694D6A4FA5F150042DED028B04F1D000F1
:106AE00095ED020A6278397800F09EFB04F16000AF
:106AF000634990ED020AF7EE001A10EE100ADFED7E
:106B0000618A884204DDC1EE800AC4ED100A01E00A
:106B1000C4ED108A5848F2EE000A803094ED101A45
:106B200090ED010A584960EE200A60EE810A10EEED
:106B3000900AC4ED0B0A884204DD81EEA02A84EDA0
:106B4000122A01E0C4ED128AD4ED120ADFED4F1AC9
:106B5000494860EEA10A203060EE810A20EE812AC9
:106B600084ED112AD0ED020A9FED491A4948D5ED6E
:106B7000022A00EE810A90ED003AF0EE003A3E4D16
:106B800033EE601A903570EE621A05F12C0621EE94
:106B9000231AF4EEC11AF1EE10FA09D820EE800A99
:106BA000C5ED021AC6ED021A012020EE028A08E0A5
:106BB00022EE830A85ED021A86ED021A002020EEED
:106BC000028A6070344839780078A8B12A48BC300D
:106BD00000F034FA96ED0A0A70EE080AC4ED0F0AC6
:106BE00096ED050AB4EEE00AF1EE10FA2FD284ED2C
:106BF0000F0A30EE480A33E01F48903000F01EFACA
:106C000095ED0A0A70EE080AC4ED0F0A95ED050A23
:106C1000B4EEE00AF1EE10FA04D284ED0F0A30EE81
:106C2000480A08E0F5EEC00AF1EE10FA09D238EE93
:106C3000C80AC4ED0F8AD5ED030A30EE600A85ED6F
:106C4000040ABDEC028BBDE8F04100F027B8F5EE78
:106C5000C00AF1EE10FA09D238EEC80AC4ED0F8A64
:106C6000D6ED030A30EE600A86ED040ABDEC028B15
:106C7000BDE8F04100F07AB8D4C7FF1F4BC0FF1F3A
:106C80006F12833A000000000AD7233C00009042B4
:106C90006F12833A6CC0FF1F47C0FF1F2F4810B50B
:106CA00003782F4800242F490278F0EE001AF6EE00
:106CB000000A012B02D0012A28D02EE090ED0F0A05
:106CC00010EE103AB3F17C5F1DDAB3EE041A20EE39
:106CD000010A20EE210ABCEEC00A10EE103AC3F100
:106CE00014039BB2142B00D11523C1F8D033C0ED8F
:106CF0000F0A92B9D1F8C02342F00102C1F8C023B3
:106D00000121017009E0C1F8D04306E00470D1F818
:106D1000BC2322F48032C1F8BC2390ED0F0A10EEA0
:106D2000101AB1F17E5F08DC80ED0C0ADFED0E0A6F
:106D3000C0ED0D0A80ED0E0A10BD31EEC00AB7EEAF
:106D4000001A80ED0C1AF1EEC01AB0EE600A01EEE6
:106D5000E00A80ED0D0A80ED0E1A10BD4CC0FF1F39
:106D600084C7FF1F00C003400000000030B5A548E5
:106D7000A64901230578A4480022012D047802D0F9
:106D8000012C2DD033E0A24DD0ED0F0A95ED000A75
:106D9000F4EEC00AF1EE10FA1FD2B3EE041A9D4DC4
:106DA00060EE810A95ED001A60EE810AFCEEE00AC1
:106DB00010EE905AC5F11405ADB2142D00D1152571
:106DC000C1F8D05380ED0F0A8CB9D1F8C04344F01C
:106DD0000104C1F8C043037009E0C1F8D02306E004
:106DE0000270D1F8BC4324F48034C1F8BC438578E8
:106DF0000224B6EE002AF0EE003AB7EE000A9FED4C
:106E0000863A8149D1ED122AC96A35B1022D11D0D5
:106E1000012D7DD0022D44D0BFE0804A914201DD9A
:106E200084703EE07E4A914208DDDFED7E0AC0EDCF
:106E30000B0A03E07C4DA9422CDA8270D0ED0B0ADC
:106E4000D0ED0F4A794970EE601A21EEA31A80EE58
:106E5000014A20EE811ADFED763A0978F4EEC14A54
:106E6000F1EE10FA43D260EEA40A012920EE841A52
:106E7000F1EEC10AC0ED0C0A20EEA21A80ED0D3A27
:106E800080ED0E1A30D070EEE30A00BFC0ED0C0AA0
:106E9000438182E0674A914203DADFED670AC0ED81
:106EA0000B0AD0ED0B1A31EEC01A61EE230A80EE08
:106EB000204A60EEA20A60EEA20AD0ED0F2AF4EE9C
:106EC000E02AF1EE10FA48D862EE842A0421F1EEAD
:106ED000E20AC0ED0E0A21EE201A61EEA00A80ED52
:106EE0000D1AC0ED0C0A57E070EEA30ACEE770EE63
:106EF000642A70EE414A82EEA41AF1EEC12AB0EE85
:106F0000401A01EEE21A80ED0C1A71EE600A00E000
:106F100011E060EE840A0129C0ED0D0A80ED0E0A31
:106F200006D071EE630A00BFC0ED0C0A448134E064
:106F300071EE230AF8E780ED0C0AD0ED0F0A032169
:106F400070EE600AB1EEE01AF0EE420A41EE420A3B
:106F5000C0ED0D0A80ED0E0A1EE0F0EE400A05219C
:106F600070EEE24AF0EE602A41EE012A84EEA25A67
:106F7000F0EE602AF1EEC54A41EE642A33EEE11AE2
:106F8000C0ED0E2A51EE221AB7EE081A01EE841A4D
:106F900080ED0D1AC0ED0C0A4181D0ED0E0A4FF0C4
:106FA0007E5210EE901A914202DD80ED0E0A06E04C
:106FB000F5EEC00AF1EE10FA01D280ED0E3AD0EDF6
:106FC0000D0A10EE901AB1F17C5F02DD80ED0D2A02
:106FD00006E0F5EEC00AF1EE10FA01D280ED0D3AAE
:106FE000D0ED0C0A10EE901A914202DD80ED0C0AF1
:106FF00030BDF5EEC00AF1EE10FAF9D280ED0C3A90
:1070000030BD00004CC0FF1F84C7FF1F00C00340FD
:1070100074C0FF1F78C0FF1F00000000AE47813F13
:1070200072F97F3F72F97F3FA4707D3F46C0FF1F1A
:107030000AD7233D4703803F4703803F012924D0DF
:107040009FED1B0A80ED030A80ED040A90ED031A00
:1070500030EE010A80ED070AD0ED050AB4EEE00A31
:10706000F1EE10FA06DCD0ED060AB4EEE00AF1EE1D
:1070700010FA05D230EEC10AC0ED070A80ED040A0D
:1070800090ED070A80ED0A0A7047D0ED080A90EDEE
:10709000020A60EE800AC0ED030AD0ED040A90ED0A
:1070A000091A41EE000AC0ED040AB0EE600ACDE70D
:1070B000000000002A4927489FED270AD1ED020A67
:1070C00028498378DFED251A91ED021A4FF07E52A0
:1070D000012B09D010EE901A234B994224DAF3EEDB
:1070E000091A00EEA10A21E011EE101A1F4B994275
:1070F00004DADFED1F1A01EE210A01E0B0EE610AA9
:1071000010EE901AB3EE0A1A914204DDC0EE201A76
:10711000C0ED0A1A01E080ED0A1A164A816A91420E
:1071200001DD80ED0A1A7047B0EE610A11EE101A07
:10713000DFED110A914204DDC0EE011AC0ED0B1A19
:1071400001E0C0ED0B0A0D4AC16A9142EBDDC0EDD2
:107150000B0A704744C0FF1F0000484200409C4497
:10716000D4C7FF1FE4C7FF1F000040420000BE431A
:107170009A9949400000D04185EB514085EB514040
:1071800005480188C1F3C00204498A700088C0F331
:107190000010C870704700001038054044C0FF1F41
:1071A00070B54FF4F8351E4E2868B04201D1012069
:1071B00000E000201B4C207050B9FAF72FFA01F0C4
:1071C000BDF92868B04201D1012000E00020207004
:1071D000C0B2012822D195ED010A84ED0B0AD5ED4C
:1071E000020AC4ED0C0A95ED031A84ED0D1AD5EDD3
:1071F000041AC4ED0E1A95ED052A84ED0F2AD5ED7B
:10720000062AC4ED102A95ED073A84ED113AD5ED22
:10721000083AC4ED123A0C3484EC080A70BD000040
:1072200000409A4498C0FF1F012904D080ED010A54
:107230009FED170A29E0012A09D0D0ED030AF5EEE7
:10724000C00AF1EE10FA01D180ED010A7047D0EDCD
:10725000010AD0ED021A90ED000A30EEA11AB4EE48
:10726000C01AF1EE10FA02D280ED011A704770EEEA
:10727000E10AF4EEC00AF1EE10FA02DDC0ED010AF7
:10728000704780ED010AB7EE000A80ED030A7047EF
:10729000000000002DE9FF416A4D06460C462868B3
:1072A0000027009068680190A8680290E86811F0D3
:1072B000E06F039012D0C4F3026001280ED00228C0
:1072C0000CD003280AD0042808D0052806D00628A8
:1072D00004D040F22E215CA0FBF7B2F914F0700F3D
:1072E00012D0C4F3021001280ED002280CD00328BB
:1072F0000AD0042808D0052806D0062804D040F279
:107300002F2151A0FBF79CF914F4E02F12D0C4F305
:10731000024001280ED002280CD003280AD00428ED
:1073200008D0052806D0062804D04FF40C7146A0DA
:10733000FBF786F9600712D004F0070001280ED091
:1073400002280CD003280AD0042808D0052806D02B
:10735000062804D040F231213BA0FBF771F914F468
:10736000E06F12D0C4F3022001280ED002280CD006
:1073700003280AD0042808D0052806D0062804D0FF
:1073800040F2322130A0FBF75BF914F4E04F12D049
:10739000C4F3023001280ED002280CD003280AD0F2
:1073A000042808D0052806D0062804D040F233214E
:1073B00025A0FBF745F93248064204D14FF40D7180
:1073C00021A0FBF73DF9DFF8BC80B8F8FE03C00749
:1073D00004D140F235211CA0FBF732F998F82600C1
:1073E00000F00700052811D128690127C00704D142
:1073F0004FF40F7114A0FBF723F923482860C01243
:107400006860A860E8601E20FBF77AF9D8F82010C1
:107410003440B1432143C8F820101E20FBF770F917
:10742000002F0DD000982860019868600298A8602D
:107430000398E86004B01E20BDE8F041FBF760B996
:10744000BDE8FF81008004402E2E5C2E2E5C2E2E87
:107450005C2E2E5C647269766572735C686333328D
:107460005F6C6C5F6472697665725C7372635C6892
:107470006333325F6C6C5F636C6B2E6300000000E3
:1074800077770707004005400EFAFFFF2DE9FF411F
:107490002B4C05004FF000072068009060680190B9
:1074A000A0680290E06803900ED0012D0CD0022D50
:1074B0000AD0032D08D0042D06D0052D04D04FF49A
:1074C000E37120A0FBF7BCF82C4EB6F8FE03C00712
:1074D00004D140F2C7111BA0FBF7B2F896F82600C2
:1074E00000F00700052801D0052D11D120690127E2
:1074F000C00704D140F2CF1112A0FBF7A1F8204839
:107500002060C0126060A060E0601E20FBF7F8F809
:1075100086F826501E20FBF7F3F8002F0DD00098B8
:107520002060019860600298A0600398E06004B059
:107530001E20BDE8F041FBF7E3B8BDE8FF81000085
:10754000008004402E2E5C2E2E5C2E2E5C2E2E5C97
:10755000647269766572735C686333325F6C6C5F0A
:107560006472697665725C7372635C686333325F00
:107570006C6C5F636C6B2E63000000000040054084
:107580000EFAFFFF2DE9F04F5F4B0E462DED048BF9
:10759000074685B00FCB8DE80F005C484FF0FF39F0
:1075A000874204D040F2452159A0FBF749F8D6E9BB
:1075B0000045002C67D0002DFCD0786910F46007DE
:1075C00010D0B7F5001F0DD0B7F5C00F0AD0B7F532
:1075D000200F07D0B7F5400F04D040F24B214CA04C
:1075E000FBF72EF8780DB7EE009A3DF810704FF0CB
:1075F000000B05FB07F04FEA400AB4FBFAF0401E0F
:10760000FF2848D8B4FBFAF20AFB1241B060C9B3B4
:10761000FB194BEB0B01401CA3FB002801FB008076
:107620004BF1000C03FB0C03A2FB050C03FB05C391
:1076300002FB0B310902020241EA10615FEA5B03BF
:107640004FEA340010180491904659412246002315
:10765000F8F738FE80387F281DD8F0608030A0FB16
:1076600004534BF1000202FB043200FB0B244046A2
:107670000499F8F787FE41EC180B28462146F8F7E5
:1076800081FE2FE000E038E09FED2F0A4FF0000967
:1076900086ED040A31E004EB84004100B1FBFAF00E
:1076A0000A21401DB0FBF1F0401EFF2825D85946A5
:1076B000FA19B0604BEB0103401CA2FB007803FBFE
:1076C00000804BF1000C02FB0C02A7FB050302FB40
:1076D000053207FB0B21F8F755FE41EC180B20464D
:1076E000F8F743FE53EC182BF8F7BAFEF8F756FEFE
:1076F00000EE100A30EE490AC8E705B04846BDEC76
:10770000048BBDE8F08F0000B88C000000CC014075
:107710002E2E5C2E2E5C2E2E5C2E2E5C64726976D4
:107720006572735C686333325F6C6C5F6472697638
:1077300065725C7372635C686333325F6C6C5F7537
:10774000736172742E6300000000000030B51B48A6
:107750000068C1071A4801D01A4900E01A4941607F
:107760001A4991F826204FF4004402F00703184A02
:10777000062B07D2DFE803F0030507050709416878
:107780001AE0026030BD046030BDD1F80031C3F3AF
:107790000824D1F80031D1F800111B0F0D4D01F074
:1077A0001F01ED6905B14268491CB2FBF1F1641C8F
:1077B00061435B1CB1FBF3F1016030BD8406014005
:1077C00000C0FF1F0024F400002D310100400540DF
:1077D00000127A000020A842064800B5016841F472
:1077E00070010160FFF7B2FF024900208039086094
:1077F00000BD000088ED00E02DE9F04F934CDFF86C
:1078000050A20126607A934FDFF84C82DFF84C9249
:107810000025CBB007287DD2DFE800F004F8FBF5A7
:10782000F47CF300E07848B98848E670C8303860E6
:10783000F8F794FDA8F8000089F80060A0783128D6
:107840001CD04FF0020B32281ED033281FD0342812
:107850001FD035281FD0362821D0372825D05428CE
:107860000FD17F4865720570A5707E483860F8F7C3
:1078700075FDA8F8000089F8006001E066720CE070
:10788000E5704BB0BDE8F08F84F809B005E0032047
:1078900002E0042000E006206072A570F0E7A57009
:1078A000052060728AF80060EAE78DF800502079C0
:1078B000EA4630B1012854D06572A570E570257193
:1078C000DFE73F954095419542954395449594ED6A
:1078D000070A3FA801F04CF994ED090A42A801F00B
:1078E00047F9459546954795489549954A9594EDAC
:1078F000080A45A801F08AF894ED0A0A48A801F0A0
:1079000085F859496846F8F71DFD3FA96846F8F71C
:1079100019FD00E088E0544968461431F8F712FD7B
:1079200045A96846F8F70EFD4F4968462831F8F733
:1079300009FD42A96846F8F705FD4B4968463C3108
:10794000F8F700FD48A96846F8F7FCFC6846C7F858
:1079500000A0F8F703FDA8F8000089F80060267180
:107960008FE73F954095419542954395449594ED19
:10797000030A3FA801F0FCF894ED050A42A801F0C3
:10798000F7F8459546954795489549954A9594ED5C
:10799000040A45A801F03AF894ED060A48A801F057
:1079A00035F8314968465031F8F7CCFC3FA96846B4
:1079B000F8F7C8FC2C4968466431F8F7C3FC45A9C0
:1079C0006846F8F7BFFC284968467831F8F7BAFCF2
:1079D00042A96846F8F7B6FC234968468C31F8F7A7
:1079E000B1FC48A96846F8F7ADFC6846C7F800A0A6
:1079F000F8F7B4FCA8F8000089F8006084F804B037
:107A00003FE713E00DE009E003E0FFE7FEF76AFB64
:107A100001E0FEF76FFE012806D032E7FEF768FAB4
:107A2000F9E7FEF76BFDF6E7657229E7F9F7F6FD72
:107A300065720C488AF80060E5701C303860F8F711
:107A40008DFCA8F8000089F80060EDE798C0FF1FE2
:107A500045C0FF1F68C0FF1F56C0FF1F4FC0FF1F5C
:107A600050C0FF1F2CC7FF1F26C3FF1F104881896E
:107A7000632902D2491C8181704700218181C2891A
:107A8000632A02D2521CC2817047C181028A092A2C
:107A900002D2521C028270470182428A41F2707304
:107AA0009A4202D2521C42827047418270470000C3
:107AB00084C7FF1F2DE9F04F05465F480E462DEDA8
:107AC000048B83B04FF0FF3985420DD05B4885426F
:107AD0000AD05B48854207D05A48854204D04FF40B
:107AE000CE7159A0FAF7ACFDD6E90047002C6BD057
:107AF000002F69D0E868C0F3C032C2F102007843B9
:107B0000C0008246B4FBFAF1491EFF295CD8B4FBE1
:107B1000F0F30AFB1340B16080B34FF0000B022575
:107B20005846D2EB05056BEB0003DA0042EA5572CA
:107B3000ED00491CA5FB0138CDE9005202FB018193
:107B40004BF1000C05FB0C12A3FB071502FB0752BF
:107B500003FB002215020A0245EA116541084FEABB
:107B600034008018904669410022D0F1FF338A41E9
:107B700008D222460023F8F7A5FB05E0FFE79FEDBA
:107B8000400A1DE0B0FBF4F08038B7EE009A7F2881
:107B90001BD8294680254719F060A7FB040C4BF140
:107BA000000505FB04C407FB0B4407464046F8F7F5
:107BB000E9FB41EC180B38462146F8F7E3FB29E0D6
:107BC00086ED040A4FF000092FE004EB8400410029
:107BD000B1FBFAF00A21401DB0FBF1F0401EFF2876
:107BE00023D8B060DDE90052401CA5FB003802FB41
:107BF00000804BF1000C05FB0C02A3FB070502FB08
:107C0000075203FB0B21F8F7BDFB41EC180B204694
:107C1000F8F7ABFB53EC182BF8F722FCF8F7BEFB98
:107C200000EE100A30EE490ACAE703B04846BDEC40
:107C3000048BBDE8F08F000000CC014000D0014073
:107C400000D4014000D801402E2E5C2E2E5C2E2E3A
:107C50005C2E2E5C647269766572735C6863333285
:107C60005F6C6C5F6472697665725C7372635C688A
:107C70006333325F6C6C5F75736172742E630000E6
:107C8000000000002DE9F047DFF8BC90DFF8BCA051
:107C90002F4FDFF8C08016460D46044648450AD0EF
:107CA000544508D0BC4206D0444504D040F2AC4113
:107CB00029A0FAF7C5FC36B1012E04D040F2AD413F
:107CC00025A0FAF7BDFC15B13148054204D040F2B9
:107CD000AE4121A0FAF7B4FC54450DD0BC420BD004
:107CE000444518D02B48054204D040F2AF411AA0B9
:107CF000FAF7A6FC4C450ED054450CD0BC420AD035
:107D0000444508D04C4501D0A80704D04FF49661F3
:107D100011A0FAF795FC2804000C04D0E168012EAC
:107D20000DD08143E16044F21E1010EA154004D0EA
:107D30002169012E05D081432161BDE8F08701430F
:107D4000F0E70143F8E7000000CC014000D001401B
:107D500000D4014000D801402E2E5C2E2E5C2E2E29
:107D60005C2E2E5C647269766572735C6863333274
:107D70005F6C6C5F6472697665725C7372635C6879
:107D80006333325F6C6C5F75736172742E630000D5
:107D900010FEC1BE00001E410348006AC0F302117C
:107DA00002480068C84070470040054000C0FF1FFF
:107DB00070B504460F480D4684420DD00E488442EB
:107DC0000AD00E48844207D00D48844204D040F2C5
:107DD000EE410CA0FAF734FC15B11848054204D066
:107DE00040F2EF4107A0FAF72BFC2068284000D0B2
:107DF000012070BD00CC014000D0014000D4014002
:107E000000D801402E2E5C2E2E5C2E2E5C2E2E5C79
:107E1000647269766572735C686333325F6C6C5F41
:107E20006472697665725C7372635C686333325F37
:107E30006C6C5F75736172742E63000004F0FEFF5A
:107E400010B50446114884420DD0114884420AD02E
:107E50001048844207D01048844204D040F29B214D
:107E60000E48FAF7EDFB2046FFF796FF0146A069A2
:107E7000C006A06903D500F00302802002E080075D
:107E8000420F01209040B1FBF0F010BD00CC01404A
:107E900000D0014000D4014000D801403C7F0000E8
:107EA00070B504461448844213D0144E144DB442A5
:107EB00006D0AC420DD04FF4FD6112A0FAF7C0FB22
:107EC000B44206D0AC4204D040F2B6211BA0FAF76F
:107ED000B7FB2046FFF760FFA169C1F381020121D2
:107EE0009140B0FBF1F0E1690904090C02D0B0FB4C
:107EF000F1F070BD002070BD00D0014000D4014001
:107F000000D801402E2E5C2E2E5C2E2E5C2E2E5C78
:107F1000647269766572735C686333325F6C6C5F40
:107F20006472697665725C7372635C686333325F36
:107F30006C6C5F75736172742E6300002E2E5C2E64
:107F40002E5C2E2E5C2E2E5C647269766572735CDC
:107F5000686333325F6C6C5F6472697665725C7300
:107F600072635C686333325F6C6C5F7573617274EB
:107F70002E63000070B586B015460E00044604D18D
:107F800040F2C2612BA0FAF75BFB384884420DD067
:107F9000374884420AD03748844207D03648844262
:107FA00004D040F2C36123A0FAF74AFBE06810F066
:107FB0000C0F04D040F2C4611EA0FAF741FB20462A
:107FC000FFF73EFFCDE900069FED2C0AFF208DED67
:107FD000040A0390E06810F0807F05D069462046CF
:107FE000F9F748FB58B11CE06069694680062046F5
:107FF00002D4FFF75FFDF5E7FFF7C4FAF2E7DDE92A
:10800000022141EA02214FF67F72A3681140934397
:108010001943A1600399FF2903D0E16841F00051A1
:10802000E160002D03D09DED040A85ED000A06B045
:1080300070BD00002E2E5C2E2E5C2E2E5C2E2E5C33
:10804000647269766572735C686333325F6C6C5F0F
:108050006472697665725C7372635C686333325F05
:108060006C6C5F75736172742E63000000CC01400C
:1080700000D0014000D4014000D8014000000000C1
:1080800070B5044614480D4684420DD0134884420E
:108090000AD01348844207D01248844204D040F2E8
:1080A000EF5111A0FAF7CCFAE06810F00C0F04D0F1
:1080B0004FF4BE610CA0FAF7C3FA132D04D940F2B5
:1080C000F15109A0FAF7BCFAA06905F0130120F0FC
:1080D00013000843A06170BD00CC014000D00140F6
:1080E00000D4014000D801402E2E5C2E2E5C2E2E96
:1080F0005C2E2E5C647269766572735C68633332E1
:108100005F6C6C5F6472697665725C7372635C68E5
:108110006333325F6C6C5F75736172742E63000041
:108120002DE9F041054616460C006FF002007DD0A7
:108130004F4885420DD04F4885420AD04E4885426F
:1081400007D04E48854204D040F299314CA0FAF74E
:1081500077FA20684FF48057B84205D020B140F23A
:108160009A3147A0FAF76CFAA068B0F5006F05D015
:1081700020B140F29B3142A0FAF762FAA069B0F553
:10818000C06F08D0B0F5806F05D020B14FF4677193
:108190003BA0FAF755FA206930B1B84204D040F25A
:1081A0009D3137A0FAF74CFA606938B1B0F5005F3D
:1081B00004D040F29E3132A0FAF742FAE069B0F5FD
:1081C000004F05D020B140F29F312DA0FAF738FAC8
:1081D000206AB0F1805F05D020B14FF4687128A00B
:1081E000FAF72EFA606A38B1B0F1004F04D040F2CD
:1081F000A13123A0FAF724FAA06A68B1B0F5007F94
:108200000AD0B0F5807F07D0B0F5407F04D040F2AF
:10821000A2311BA0FAF714FA2169A0690843D4E936
:10822000072111430843616A084300E00DE0A2689A
:1082300021681143626942F4C0621143A26AE86096
:1082400029616A61206810B10020BDE8F081606892
:10825000132804D94FF46C7109A0FAF7F1F960689A
:10826000A86132462846E168BDE8F041FFF782BECA
:1082700000CC014000D0014000D4014000D80140B2
:108280002E2E5C2E2E5C2E2E5C2E2E5C6472697659
:108290006572735C686333325F6C6C5F64726976BD
:1082A00065725C7372635C686333325F6C6C5F75BC
:1082B000736172742E6300006FF0020180B10021BF
:1082C00001604FF416524160C0E902120161416140
:1082D0008161C161016211064162C90D81620021A3
:1082E0000846704770B50E4D0C46024601212846DF
:1082F000FAF744FC224601212846FAF7B7FC224649
:1083000001212846FAF770FC012211462846FAF7A7
:1083100017FABDE87040012208210248FFF7B2BCFD
:108320000030054000D001402DE9F0478CB05FEAF5
:10833000010982466FF0020437D001214805FBF79E
:1083400091FD6846FFF7B8FF4FF40040079000200A
:108350000A904FF4C0600690002269465046FFF72D
:10836000DFFE0025134FDFF85080A6102946504647
:10837000FFF786FE0BAA49465046FFF7FBFD0400B7
:108380000FD10B98B8420CD840450ADC01220821D5
:108390005046FFF777FC012204215046FFF772FC9C
:1083A00003E06D1C3446032DE0D90CB02046BDE837
:1083B000F0870000CDCCCCBCCDCCCC3C00B585B09A
:1083C00001200090202001904FF470600290002066
:1083D00003904FF000400490684600F00DF805B09F
:1083E00000BD0000034840F22311816043F21021D8
:1083F000816070470090044070B504004FF00005A4
:1084000079D0206848B1012807D0022805D0032878
:1084100003D09D2139A0FAF713F96068202811D004
:1084200060280FD070280DD080280BD0902809D05C
:10843000A02807D0B02805D0D02803D09E212FA097
:10844000FAF7FEF8A168B1F5706F2DD0B1F5807F15
:108450002AD0B1F5007F27D0B1F5407F24D0B1F507
:10846000806F21D0B1F5A06F1ED0B1F5C06F1BD0C9
:10847000B1F5E06F18D0B1F5006F15D0B1F5106F00
:1084800012D0B1F5206F0FD0B1F5306F0CD0B1F52F
:10849000406F09D0B1F5506F06D0B1F5606F03D0D1
:1084A0009F2116A0FAF7CCF8E06830B1B0F5803F14
:1084B00003D0A02111A0FAF7C3F8206930B1B0F1C0
:1084C000004F03D0A1210DA0FAF7BAF8D4E90001BA
:1084D0000843D4E9021211430843216908431549AE
:1084E000084015490A68134BDB431A4010430860E3
:1084F000284670BDFFE76FF00205F9E72E2E5C2ECF
:108500002E5C2E2E5C2E2E5C647269766572735C16
:10851000686333325F6C6C5F6472697665725C733A
:1085200072635C686333325F6C6C5F7764742E6374
:1085300000000000F30F01800090044070B5284D4A
:1085400040F22310286043F2102028600120FAF73F
:10855000E7FC01211F20FAF735FF4FF4F8342046DD
:10856000FAF74CFE1F492046FAF7B2FD1E4C1F4891
:10857000E168FAF7ADFD1D482169001DFAF7A8FD75
:108580001A4861690830FAF7A3FD1848A1690C3050
:10859000FAF79EFD1548E1691030FAF799FD134886
:1085A000216A1430FAF794FD1048616A1830FAF71E
:1085B0008FFD0E48A16A1C30FAF78AFD0020FAF7F9
:1085C000AFFC002028600A4904F18C000860F7F72E
:1085D000C5FE0849088008490120087070BD0000E8
:1085E0000004014000409A4498C0FF1F04F00100BD
:1085F00068C0FF1F56C0FF1F4FC0FF1F0FB4054BC1
:1086000010B503A9044A029800F018F810BC5DF8F0
:1086100014FB00004189000028C9FF1F02E008C8C0
:10862000121F08C1002AFAD170477047002001E0EC
:1086300001C1121F002AFBD1704700002DE9FF4F36
:108640008BB09A460F460546002606E025280BD03B
:1086500052460D9990476D1C761C28780028F5D15C
:108660000FB03046BDE8F08F0024A04601226049DB
:1086700000E0044315F8013F203B02FA03F00842F2
:10868000F7D128782E2817D115F8010F44F00404EB
:108690002A280ED06FF02F022878A0F13001092986
:1086A0000AD808EB880102EB410100EB01086D1CC0
:1086B000F2E757F8048B6D1C287869283ED006DC59
:1086C0000028CDD063280BD0642804D136E073286D
:1086D00010D075284BD052460D999047761C85E0F6
:1086E00017F8040B8DF8000000208DF80100E94612
:1086F000012003E057F8049B4FF0FF3061074FF073
:10870000000401D40AE0641C44450DDA8442FADB1B
:1087100019F804100029F6D106E0641C8442FCDB41
:1087200019F804100029F8D1264404E019F8010BC7
:1087300052460D999047641EF8D257E001CF4FF092
:108740000A0B002802DA40422D2102E0210504D55F
:108750002B218DF82410012103E0E10705D0202111
:10876000F7E70DF1200908910CE00021F9E701CFAE
:108770004FF00A0BF9E75946F7F72CFE01F13002EA
:1087800009F8012D0028F6D1ADEB090000F1200B0E
:10879000600701D44FF00108D84502DDA8EB0B00BB
:1087A00000E000208046002406E009A85246005D53
:1087B0000D999047641C761C08988442F5DB04E010
:1087C000302052460D999047761CB8F10001A8F16F
:1087D0000108F5DC05E019F8010B52460D999047A8
:1087E000761CBBF10001ABF1010BF4DC6D1C34E72E
:1087F00009280100F0B5474A1068C043800672D4CA
:10880000D0880024C1B2444801230546067B2D7957
:1088100076B1512930D0532930D0404B414E1F788A
:108820003F4B6FB331701C70C17A01292BD05AE0D5
:10883000412913D0532913D0432913D0442913D0ED
:10884000422912D0344C4929E48B10D04D2910D044
:108850005929E9D1012DE7D00373E5E7837104E0DD
:10886000847102E0837200E08472C3720DE06434AC
:1088700000E0323CC483D7E78371D5E78471D3E746
:1088800019703470D0E7017B69BB2749274BDFEDB6
:10889000290A0D701B881C0A4C708B708379CB7071
:1088A000234B93ED000A20EE200ABCEEC00A10EE26
:1088B000103AB2EE040A0B7183784B71C3788B7156
:1088C0001D4BD3ED020A20EE800ABCEEC00A10EE6A
:1088D000103A1B0ACB7110EE103A0B72837A4B726E
:1088E00041620A2141821548C168012903D1D1683A
:1088F00041F40021D1600168012903D1D16841F41C
:108900008031D1604068012803D1D06840F4003044
:10891000D060F0BD00D0014044C0FF1FA1C0FF1FC8
:108920009AC0FF1F99C0FF1F2CC9FF1F94C0FF1FD3
:10893000C0C7FF1F0000C842E4C7FF1F00003A4243
:1089400010B50446C0B2F9F79BFE10B14FF0FF30EE
:1089500010BD204610BD00004720FDF795FDF8F73B
:1089600015FA0120FAF744FB0120FAF7A1FA0120D9
:10897000FAF776FBFBF708FBF8F76AF9FBF71EFF3F
:10898000FBF738F9FAF7BEF9F8F73AFFF9F780FF85
:108990004FF4E1311348FFF7C7FCF8F7D5F9124857
:1089A000FCF7BAF81148FCF7B7F81148FCF7B4F82F
:1089B0001048FCF7B1F81048FCF7AEF8FEF7F0FBF2
:1089C0000F490E480860F7F7C9FC0E4908800E49A8
:1089D00001200870FFF7F2FCFFF704FDF9F7D0F96A
:1089E000FAE7000000D0014000C0034000C403408B
:1089F00000C8034000D4034000CC03400EC0FF1F5A
:108A000068C0FF1F56C0FF1F4FC0FF1F70B5B5EEF7
:108A1000C00A00232024F1EE10FA04D22D210170A7
:108A2000B1EE400A00E00470DFED4B0A60EE200A70
:108A3000FCEEE00A10EE901A0904090C7DD001F159
:108A4000300242705FF0010301EB81024FF6FF71CB
:108A500001EA4205DFED410A60EE200AFCEEE00A81
:108A600010EE902A521B92B252EA03066FD002F126
:108A7000300383700123DFED3A0A2A4402EB8202BD
:108A800060EE200A01EA4205FCEEE00A10EE902AB0
:108A9000521B92B213435CD002F13003C3702A44DC
:108AA000FCEEC00A02EB820201EA420310EE902AB9
:108AB000F2EE040A60EE200AD21A02F130041A44DF
:108AC000FCEEE00A02EB820201EA420310EE902A79
:108AD000DFED240A04712E2460EE200A4471D21ABC
:108AE00002F130041A44FCEEE00A02EB820201EAD1
:108AF000420310EE902ADFED1C0A8471D21A60EE58
:108B0000200A02F130041A4402EB8202FCEEE00A71
:108B100001EA4203C47110EE902ADFED140AD21A62
:108B200002F1300420EE200A1A4402EB82020472A1
:108B300001EA4201BCEEC00A01E006E007E010EEE7
:108B4000102A511A3031417270BD44707CE7847034
:108B500091E7C470A3E700006F12833A0AD7233C61
:108B6000CDCCCC3D0000C84200007A4400401C46F9
:108B7000B5EEC00A10B5F1EE10FA01D22D2100E0D9
:108B80002021F2EE040A017060EE200A30214170CB
:108B90002E21FCEEE00A817010EE901ADFED3D0A06
:108BA00001F1300260EE200AC27001EB81024FF643
:108BB000FF71FCEEE00A01EA420310EE902ADFEDBD
:108BC000360AD21A60EE200A02F130041A4402EB8F
:108BD0008202FCEEE00A01EA4203047110EE902AE0
:108BE000DFED2E0AD21A60EE200A02F130041A4498
:108BF00002EB8202FCEEE00A01EA4203447110EE4D
:108C0000902ADFED270AD21A60EE200A02F1300422
:108C10001A4402EB8202FCEEE00A01EA420384718C
:108C200010EE902ADFED1F0AD21A60EE200A02F140
:108C300030041A4402EB8202FCEEE00A01EA42032D
:108C4000C47110EE902ADFED180AD21A60EE200AE5
:108C500002F130041A4402EB8202FCEEE00A01EA5F
:108C60004203047210EE902ADFED100AD21A02F1CC
:108C700030041A4402EB8202447201EA420120EEFF
:108C8000200ABCEEC00A10EE102A511A303181724F
:108C900010BD00000000C84200007A4400401C469D
:108CA0000050C347002474498096184B20BCBE4C2A
:108CB0000010044000140440200040005D008000CB
:108CC000BA0000017401000200CC014000D0014054
:108CD00000D4014000D80140F88C000008C0FF1FFC
:108CE00024090000AC060000B08F00002CC9FF1F53
:108CF0004C0C00002C860000320001102769662011
:108D0000676F696E6720696E746F2043616C69627A
:108D1000726174696F6E204D6F64652C20506C65B4
:108D20006173651E000C2A70757420275927210D68
:108D30000A00010008ADC841CDCC4C40000124051B
:108D400057726974159406746865206314140C7066
:108D50006172616D6574657273202E1414666C61A6
:108D60007368206973207375636365737366756CCC
:108D70001EE4050D0A0D0A4821251408456E61629E
:108D80006C6564415554100953656C6563742054D7
:108D900064A578625064100A3A200D0A4856207380
:108DA00069408007566F6C7461678D33652001449C
:108DB000062D2D3E20499B1331272F02274C2F9340
:108DC00032275E00081963757272656E742FA233C4
:108DD0005E01202F22342F2545293A154BA7616CBF
:108DE0003BF12F82352F05156EB12F2236BC0408BA
:108DF00016446973706C61799F912F2237EBB0052F
:108E0000457869745D266D977101912F22545E1526
:108E1000C6300D48565F564F4C5F4741494E3A2980
:108E2000811470084F46465345543A14F004435594
:108E300052282114B12802114C5002114C50021139
:108E40004C5002114C50191B11A0B1D4298B38057C
:108E500074617274665E00BB032805636F6E6E6892
:108E600015ED1DE203180533353056831DF7035AFF
:108E700076241135BC066F6B2C2070E90303174173
:108E8000274203233430423242423993012BA75206
:108E90004C650137A64141022B35A5154C15C4017F
:108EA00018A5654B3C056865636B15041C0A706F5B
:108EB00077657220646972C203557A1C046E656717
:108EC00025049005766521219537736579215D1517
:108ED0007D4731417B6D41030120D5C140022232E3
:108EE000409579013FD4000513706F7369D4824CAB
:108EF000D4023330D58141032A3230D6E1CF2D7AE6
:108F000005336564D10C051953617665B205AE3F32
:108F1000E503000A125927206F7220274E27554C6F
:108F200004666169A905FE0031042DC8051D4A04C7
:108F3000211C6D24060E1049E10411440C052E6419
:108F40006F6E652C070D3CB40600051A1625723DA0
:108F50001000051A6BCB743E10000538C59D473BC9
:108F600010234042440C05196F12033B57072D088C
:108F70000822BFAC0C09180AD7A33CACC5A73838E7
:108F80000813803F04512C5006233D17B7512C2362
:108F9000BE43680004236C09F96800091CCDCCCCE1
:108FA0003CBD37863668A12CAF06377C0800000030
:04000005000002896C
:00000001FF
