Component: ARM Compiler 5.06 update 7 (build 960) Tool: armlink [4d3601]

==============================================================================

Section Cross References

    startup_hc32f334.o(RESET) refers to startup_hc32f334.o(STACK) for __initial_sp
    startup_hc32f334.o(RESET) refers to startup_hc32f334.o(.text) for Reset_Handler
    startup_hc32f334.o(RESET) refers to hc32_ll_interrupts.o(i.IRQ000_Handler) for IRQ000_Handler
    startup_hc32f334.o(RESET) refers to hc32_ll_interrupts.o(i.IRQ001_Handler) for IRQ001_Handler
    startup_hc32f334.o(RESET) refers to hc32_ll_interrupts.o(i.IRQ002_Handler) for IRQ002_Handler
    startup_hc32f334.o(RESET) refers to hc32_ll_interrupts.o(i.IRQ003_Handler) for IRQ003_Handler
    startup_hc32f334.o(RESET) refers to hc32_ll_interrupts.o(i.IRQ004_Handler) for IRQ004_Handler
    startup_hc32f334.o(RESET) refers to hc32_ll_interrupts.o(i.IRQ005_Handler) for IRQ005_Handler
    startup_hc32f334.o(RESET) refers to hc32_ll_interrupts.o(i.IRQ006_Handler) for IRQ006_Handler
    startup_hc32f334.o(RESET) refers to hc32_ll_interrupts.o(i.IRQ007_Handler) for IRQ007_Handler
    startup_hc32f334.o(RESET) refers to hc32_ll_interrupts.o(i.IRQ008_Handler) for IRQ008_Handler
    startup_hc32f334.o(RESET) refers to hc32_ll_interrupts.o(i.IRQ009_Handler) for IRQ009_Handler
    startup_hc32f334.o(RESET) refers to hc32_ll_interrupts.o(i.IRQ010_Handler) for IRQ010_Handler
    startup_hc32f334.o(RESET) refers to hc32_ll_interrupts.o(i.IRQ011_Handler) for IRQ011_Handler
    startup_hc32f334.o(RESET) refers to hc32_ll_interrupts.o(i.IRQ012_Handler) for IRQ012_Handler
    startup_hc32f334.o(RESET) refers to hc32_ll_interrupts.o(i.IRQ013_Handler) for IRQ013_Handler
    startup_hc32f334.o(RESET) refers to hc32_ll_interrupts.o(i.IRQ014_Handler) for IRQ014_Handler
    startup_hc32f334.o(RESET) refers to hc32_ll_interrupts.o(i.IRQ015_Handler) for IRQ015_Handler
==============================================================================

Removing Unused input sections from the image.

    Removing startup_hc32f334.o(HEAP), (1024 bytes).
    Removing system_hc32f334.o(.rev16_text), (4 bytes).
    Removing system_hc32f334.o(.revsh_text), (4 bytes).
    Removing system_hc32f334.o(.rrx_text), (6 bytes).
    Removing main.o(.rev16_text), (4 bytes).
    Removing main.o(.revsh_text), (4 bytes).
    Removing main.o(.rrx_text), (6 bytes).
    Removing main.o(.data), (4 bytes).
    Removing dab_main.o(.rev16_text), (4 bytes).
    Removing dab_main.o(.revsh_text), (4 bytes).
    Removing dab_main.o(.rrx_text), (6 bytes).
    Removing dab_main.o(.data), (1 bytes).
    Removing dab_main.o(.data), (1 bytes).
    Removing dab_main.o(.data), (1 bytes).
    Removing dab_main.o(.data), (1 bytes).
    Removing dab_main.o(.data), (1 bytes).
    Removing dab_main.o(.data), (2 bytes).
    Removing dab_protect.o(.rev16_text), (4 bytes).
==============================================================================

Image Symbol Table

    Local Symbols

    Symbol Name                              Value     Ov Type        Size  Object(Section)

    RESET                                    0x00000000   Section      648  startup_hc32f334.o(RESET)
    ../clib/../cmprslib/lz77c.c              0x00000000   Number         0  __dclz77c.o ABSOLUTE
    ../clib/microlib/division.c              0x00000000   Number         0  uidiv.o ABSOLUTE
    ../clib/microlib/division.c              0x00000000   Number         0  uldiv.o ABSOLUTE
    ../clib/microlib/init/entry.s            0x00000000   Number         0  entry7a.o ABSOLUTE
    ../clib/microlib/init/entry.s            0x00000000   Number         0  entry.o ABSOLUTE
    ../clib/microlib/init/entry.s            0x00000000   Number         0  entry7b.o ABSOLUTE
    ../clib/microlib/init/entry.s            0x00000000   Number         0  entry10a.o ABSOLUTE
    ../clib/microlib/init/entry.s            0x00000000   Number         0  entry5.o ABSOLUTE
    ../clib/microlib/init/entry.s            0x00000000   Number         0  entry12b.o ABSOLUTE
    ../clib/microlib/init/entry.s            0x00000000   Number         0  entry12a.o ABSOLUTE
    ../clib/microlib/init/entry.s            0x00000000   Number         0  entry11b.o ABSOLUTE
    ../clib/microlib/init/entry.s            0x00000000   Number         0  entry11a.o ABSOLUTE
    ../clib/microlib/init/entry.s            0x00000000   Number         0  entry10b.o ABSOLUTE
    ../clib/microlib/init/entry.s            0x00000000   Number         0  entry9b.o ABSOLUTE
    ../clib/microlib/init/entry.s            0x00000000   Number         0  entry9a.o ABSOLUTE
    ../clib/microlib/init/entry.s            0x00000000   Number         0  entry8b.o ABSOLUTE
    ../clib/microlib/init/entry.s            0x00000000   Number         0  entry2.o ABSOLUTE
    ../clib/microlib/init/entry.s            0x00000000   Number         0  entry8a.o ABSOLUTE
    ../clib/microlib/longlong.c              0x00000000   Number         0  llushr.o ABSOLUTE
    ../clib/microlib/longlong.c              0x00000000   Number         0  llsshr.o ABSOLUTE
    ../clib/microlib/longlong.c              0x00000000   Number         0  llshl.o ABSOLUTE
    ../clib/microlib/printf/printf.c         0x00000000   Number         0  printf3.o ABSOLUTE
    ../clib/microlib/printf/printf.c         0x00000000   Number         0  printf2.o ABSOLUTE
    ../clib/microlib/printf/printf.c         0x00000000   Number         0  printf0.o ABSOLUTE
    ../clib/microlib/printf/printf.c         0x00000000   Number         0  printfb.o ABSOLUTE
    ../clib/microlib/printf/printf.c         0x00000000   Number         0  printf7.o ABSOLUTE
    ../clib/microlib/printf/printf.c         0x00000000   Number         0  printf8.o ABSOLUTE
    ../clib/microlib/printf/printf.c         0x00000000   Number         0  printfa.o ABSOLUTE
    ../clib/microlib/printf/printf.c         0x00000000   Number         0  printf1.o ABSOLUTE
    ../clib/microlib/printf/printf.c         0x00000000   Number         0  printf6.o ABSOLUTE
    ../clib/microlib/printf/printf.c         0x00000000   Number         0  printf5.o ABSOLUTE
    ../clib/microlib/printf/printf.c         0x00000000   Number         0  printf4.o ABSOLUTE
    ../clib/microlib/printf/stubs.s          0x00000000   Number         0  stubs.o ABSOLUTE
    ../clib/microlib/stdio/streams.c         0x00000000   Number         0  stdout.o ABSOLUTE
    ../clib/microlib/string/strcat.c         0x00000000   Number         0  strcat.o ABSOLUTE
    ../clib/microlib/string/strlen.c         0x00000000   Number         0  strlen.o ABSOLUTE
    ../clib/microlib/stubs.s                 0x00000000   Number         0  iusefp.o ABSOLUTE
    ../fplib/microlib/d2f.c                  0x00000000   Number         0  d2f.o ABSOLUTE
    ../fplib/microlib/fpadd.c                0x00000000   Number         0  dadd.o ABSOLUTE
    ../fplib/microlib/fpdiv.c                0x00000000   Number         0  ddiv.o ABSOLUTE
    ../fplib/microlib/fpepilogue.c           0x00000000   Number         0  depilogue.o ABSOLUTE
    ../fplib/microlib/fpepilogue.c           0x00000000   Number         0  fepilogue.o ABSOLUTE
    ../fplib/microlib/fpfix.c                0x00000000   Number         0  dfixul.o ABSOLUTE
    ../fplib/microlib/fpflt.c                0x00000000   Number         0  dfltul.o ABSOLUTE
    ../fplib/microlib/fpflt.c                0x00000000   Number         0  dfltui.o ABSOLUTE
    ../fplib/microlib/fpmul.c                0x00000000   Number         0  dmul.o ABSOLUTE
    ..\..\..\..\drivers\bsp\ev_hc32f334_lqfp64\ev_hc32f334_lqfp64.c 0x00000000   Number         0  ev_hc32f334_lqfp64.o ABSOLUTE
    ..\..\..\..\drivers\cmsis\Device\HDSC\hc32f3xx\Source\system_hc32f334.c 0x00000000   Number         0  system_hc32f334.o ABSOLUTE
    ..\..\..\..\drivers\hc32_ll_driver\src\hc32_ll.c 0x00000000   Number         0  hc32_ll.o ABSOLUTE
    ..\..\..\..\drivers\hc32_ll_driver\src\hc32_ll_adc.c 0x00000000   Number         0  hc32_ll_adc.o ABSOLUTE
    ..\..\..\..\drivers\hc32_ll_driver\src\hc32_ll_aos.c 0x00000000   Number         0  hc32_ll_aos.o ABSOLUTE
    ..\..\..\..\drivers\hc32_ll_driver\src\hc32_ll_clk.c 0x00000000   Number         0  hc32_ll_clk.o ABSOLUTE
    ..\..\..\..\drivers\hc32_ll_driver\src\hc32_ll_cmp.c 0x00000000   Number         0  hc32_ll_cmp.o ABSOLUTE
    ..\..\..\..\drivers\hc32_ll_driver\src\hc32_ll_crc.c 0x00000000   Number         0  hc32_ll_crc.o ABSOLUTE
    ..\..\..\..\drivers\hc32_ll_driver\src\hc32_ll_ctc.c 0x00000000   Number         0  hc32_ll_ctc.o ABSOLUTE
    ..\..\..\..\drivers\hc32_ll_driver\src\hc32_ll_dac.c 0x00000000   Number         0  hc32_ll_dac.o ABSOLUTE
    ..\..\..\..\drivers\hc32_ll_driver\src\hc32_ll_dbgc.c 0x00000000   Number         0  hc32_ll_dbgc.o ABSOLUTE
    ..\..\..\..\drivers\hc32_ll_driver\src\hc32_ll_dma.c 0x00000000   Number         0  hc32_ll_dma.o ABSOLUTE
    ..\..\..\..\drivers\hc32_ll_driver\src\hc32_ll_efm.c 0x00000000   Number         0  hc32_ll_efm.o ABSOLUTE
    ..\..\..\..\drivers\hc32_ll_driver\src\hc32_ll_emb.c 0x00000000   Number         0  hc32_ll_emb.o ABSOLUTE
    ..\..\..\..\drivers\hc32_ll_driver\src\hc32_ll_event_port.c 0x00000000   Number         0  hc32_ll_event_port.o ABSOLUTE
    ..\..\..\..\drivers\hc32_ll_driver\src\hc32_ll_fcg.c 0x00000000   Number         0  hc32_ll_fcg.o ABSOLUTE
    ..\..\..\..\drivers\hc32_ll_driver\src\hc32_ll_fcm.c 0x00000000   Number         0  hc32_ll_fcm.o ABSOLUTE
    ..\..\..\..\drivers\hc32_ll_driver\src\hc32_ll_gpio.c 0x00000000   Number         0  hc32_ll_gpio.o ABSOLUTE
    ..\..\..\..\drivers\hc32_ll_driver\src\hc32_ll_hrpwm.c 0x00000000   Number         0  hc32_ll_hrpwm.o ABSOLUTE
    ..\..\..\..\drivers\hc32_ll_driver\src\hc32_ll_i2c.c 0x00000000   Number         0  hc32_ll_i2c.o ABSOLUTE
    ..\..\..\..\drivers\hc32_ll_driver\src\hc32_ll_icg.c 0x00000000   Number         0  hc32_ll_icg.o ABSOLUTE
    ..\..\..\..\drivers\hc32_ll_driver\src\hc32_ll_interrupts.c 0x00000000   Number         0  hc32_ll_interrupts.o ABSOLUTE
    ..\..\..\..\drivers\hc32_ll_driver\src\hc32_ll_mcan.c 0x00000000   Number         0  hc32_ll_mcan.o ABSOLUTE
    ..\..\..\..\drivers\hc32_ll_driver\src\hc32_ll_mpu.c 0x00000000   Number         0  hc32_ll_mpu.o ABSOLUTE
    ..\..\..\..\drivers\hc32_ll_driver\src\hc32_ll_pla.c 0x00000000   Number         0  hc32_ll_pla.o ABSOLUTE
    ..\..\..\..\drivers\hc32_ll_driver\src\hc32_ll_pwc.c 0x00000000   Number         0  hc32_ll_pwc.o ABSOLUTE
    ..\..\..\..\drivers\hc32_ll_driver\src\hc32_ll_rmu.c 0x00000000   Number         0  hc32_ll_rmu.o ABSOLUTE
    ..\..\..\..\drivers\hc32_ll_driver\src\hc32_ll_rtc.c 0x00000000   Number         0  hc32_ll_rtc.o ABSOLUTE
    ..\..\..\..\drivers\hc32_ll_driver\src\hc32_ll_spi.c 0x00000000   Number         0  hc32_ll_spi.o ABSOLUTE
    ..\..\..\..\drivers\hc32_ll_driver\src\hc32_ll_sram.c 0x00000000   Number         0  hc32_ll_sram.o ABSOLUTE
    ..\..\..\..\drivers\hc32_ll_driver\src\hc32_ll_swdt.c 0x00000000   Number         0  hc32_ll_swdt.o ABSOLUTE
    ..\..\..\..\drivers\hc32_ll_driver\src\hc32_ll_tmr0.c 0x00000000   Number         0  hc32_ll_tmr0.o ABSOLUTE
    ..\..\..\..\drivers\hc32_ll_driver\src\hc32_ll_tmr4.c 0x00000000   Number         0  hc32_ll_tmr4.o ABSOLUTE
    ..\..\..\..\drivers\hc32_ll_driver\src\hc32_ll_tmr6.c 0x00000000   Number         0  hc32_ll_tmr6.o ABSOLUTE
    ..\..\..\..\drivers\hc32_ll_driver\src\hc32_ll_tmra.c 0x00000000   Number         0  hc32_ll_tmra.o ABSOLUTE
    ..\..\..\..\drivers\hc32_ll_driver\src\hc32_ll_usart.c 0x00000000   Number         0  hc32_ll_usart.o ABSOLUTE
    ..\..\..\..\drivers\hc32_ll_driver\src\hc32_ll_utility.c 0x00000000   Number         0  hc32_ll_utility.o ABSOLUTE
    ..\..\..\..\drivers\hc32_ll_driver\src\hc32_ll_wdt.c 0x00000000   Number         0  hc32_ll_wdt.o ABSOLUTE
    ..\\..\\..\\..\\drivers\\bsp\\ev_hc32f334_lqfp64\\ev_hc32f334_lqfp64.c 0x00000000   Number         0  ev_hc32f334_lqfp64.o ABSOLUTE
    ..\\..\\..\\..\\drivers\\cmsis\\Device\\HDSC\\hc32f3xx\\Source\\system_hc32f334.c 0x00000000   Number         0  system_hc32f334.o ABSOLUTE
    ..\\..\\..\\..\\drivers\\hc32_ll_driver\\src\\hc32_ll.c 0x00000000   Number         0  hc32_ll.o ABSOLUTE
    ..\\..\\..\\..\\drivers\\hc32_ll_driver\\src\\hc32_ll_adc.c 0x00000000   Number         0  hc32_ll_adc.o ABSOLUTE
    ..\\..\\..\\..\\drivers\\hc32_ll_driver\\src\\hc32_ll_aos.c 0x00000000   Number         0  hc32_ll_aos.o ABSOLUTE
    ..\\..\\..\\..\\drivers\\hc32_ll_driver\\src\\hc32_ll_clk.c 0x00000000   Number         0  hc32_ll_clk.o ABSOLUTE
    ..\\..\\..\\..\\drivers\\hc32_ll_driver\\src\\hc32_ll_cmp.c 0x00000000   Number         0  hc32_ll_cmp.o ABSOLUTE
    ..\\..\\..\\..\\drivers\\hc32_ll_driver\\src\\hc32_ll_crc.c 0x00000000   Number         0  hc32_ll_crc.o ABSOLUTE
    ..\\..\\..\\..\\drivers\\hc32_ll_driver\\src\\hc32_ll_ctc.c 0x00000000   Number         0  hc32_ll_ctc.o ABSOLUTE
    ..\\..\\..\\..\\drivers\\hc32_ll_driver\\src\\hc32_ll_dac.c 0x00000000   Number         0  hc32_ll_dac.o ABSOLUTE
    ..\\..\\..\\..\\drivers\\hc32_ll_driver\\src\\hc32_ll_dbgc.c 0x00000000   Number         0  hc32_ll_dbgc.o ABSOLUTE
    ..\\..\\..\\..\\drivers\\hc32_ll_driver\\src\\hc32_ll_dma.c 0x00000000   Number         0  hc32_ll_dma.o ABSOLUTE
    ..\\..\\..\\..\\drivers\\hc32_ll_driver\\src\\hc32_ll_efm.c 0x00000000   Number         0  hc32_ll_efm.o ABSOLUTE
    ..\\..\\..\\..\\drivers\\hc32_ll_driver\\src\\hc32_ll_emb.c 0x00000000   Number         0  hc32_ll_emb.o ABSOLUTE
    ..\\..\\..\\..\\drivers\\hc32_ll_driver\\src\\hc32_ll_event_port.c 0x00000000   Number         0  hc32_ll_event_port.o ABSOLUTE
    ..\\..\\..\\..\\drivers\\hc32_ll_driver\\src\\hc32_ll_fcg.c 0x00000000   Number         0  hc32_ll_fcg.o ABSOLUTE
    ..\\..\\..\\..\\drivers\\hc32_ll_driver\\src\\hc32_ll_fcm.c 0x00000000   Number         0  hc32_ll_fcm.o ABSOLUTE
    ..\\..\\..\\..\\drivers\\hc32_ll_driver\\src\\hc32_ll_gpio.c 0x00000000   Number         0  hc32_ll_gpio.o ABSOLUTE
    ..\\..\\..\\..\\drivers\\hc32_ll_driver\\src\\hc32_ll_hrpwm.c 0x00000000   Number         0  hc32_ll_hrpwm.o ABSOLUTE
    ..\\..\\..\\..\\drivers\\hc32_ll_driver\\src\\hc32_ll_i2c.c 0x00000000   Number         0  hc32_ll_i2c.o ABSOLUTE
    ..\\..\\..\\..\\drivers\\hc32_ll_driver\\src\\hc32_ll_icg.c 0x00000000   Number         0  hc32_ll_icg.o ABSOLUTE
    ..\\..\\..\\..\\drivers\\hc32_ll_driver\\src\\hc32_ll_interrupts.c 0x00000000   Number         0  hc32_ll_interrupts.o ABSOLUTE
    ..\\..\\..\\..\\drivers\\hc32_ll_driver\\src\\hc32_ll_mcan.c 0x00000000   Number         0  hc32_ll_mcan.o ABSOLUTE
    ..\\..\\..\\..\\drivers\\hc32_ll_driver\\src\\hc32_ll_mpu.c 0x00000000   Number         0  hc32_ll_mpu.o ABSOLUTE
    ..\\..\\..\\..\\drivers\\hc32_ll_driver\\src\\hc32_ll_pla.c 0x00000000   Number         0  hc32_ll_pla.o ABSOLUTE
    ..\\..\\..\\..\\drivers\\hc32_ll_driver\\src\\hc32_ll_pwc.c 0x00000000   Number         0  hc32_ll_pwc.o ABSOLUTE
    ..\\..\\..\\..\\drivers\\hc32_ll_driver\\src\\hc32_ll_rmu.c 0x00000000   Number         0  hc32_ll_rmu.o ABSOLUTE
    ..\\..\\..\\..\\drivers\\hc32_ll_driver\\src\\hc32_ll_rtc.c 0x00000000   Number         0  hc32_ll_rtc.o ABSOLUTE
    ..\\..\\..\\..\\drivers\\hc32_ll_driver\\src\\hc32_ll_spi.c 0x00000000   Number         0  hc32_ll_spi.o ABSOLUTE
    ..\\..\\..\\..\\drivers\\hc32_ll_driver\\src\\hc32_ll_sram.c 0x00000000   Number         0  hc32_ll_sram.o ABSOLUTE
    ..\\..\\..\\..\\drivers\\hc32_ll_driver\\src\\hc32_ll_swdt.c 0x00000000   Number         0  hc32_ll_swdt.o ABSOLUTE
    ..\\..\\..\\..\\drivers\\hc32_ll_driver\\src\\hc32_ll_tmr0.c 0x00000000   Number         0  hc32_ll_tmr0.o ABSOLUTE
    ..\\..\\..\\..\\drivers\\hc32_ll_driver\\src\\hc32_ll_tmr4.c 0x00000000   Number         0  hc32_ll_tmr4.o ABSOLUTE
    ..\\..\\..\\..\\drivers\\hc32_ll_driver\\src\\hc32_ll_tmr6.c 0x00000000   Number         0  hc32_ll_tmr6.o ABSOLUTE
    ..\\..\\..\\..\\drivers\\hc32_ll_driver\\src\\hc32_ll_tmra.c 0x00000000   Number         0  hc32_ll_tmra.o ABSOLUTE
    ..\\..\\..\\..\\drivers\\hc32_ll_driver\\src\\hc32_ll_usart.c 0x00000000   Number         0  hc32_ll_usart.o ABSOLUTE
    ..\\..\\..\\..\\drivers\\hc32_ll_driver\\src\\hc32_ll_utility.c 0x00000000   Number         0  hc32_ll_utility.o ABSOLUTE
    ..\\..\\..\\..\\drivers\\hc32_ll_driver\\src\\hc32_ll_wdt.c 0x00000000   Number         0  hc32_ll_wdt.o ABSOLUTE
    ..\\source\\DAB_Calibration.c            0x00000000   Number         0  dab_calibration.o ABSOLUTE
    ..\\source\\DAB_Control.c                0x00000000   Number         0  dab_control.o ABSOLUTE
    ..\\source\\DAB_Protect.c                0x00000000   Number         0  dab_protect.o ABSOLUTE
    ..\\source\\DAB_main.c                   0x00000000   Number         0  dab_main.o ABSOLUTE
    ..\\source\\main.c                       0x00000000   Number         0  main.o ABSOLUTE
    ..\source\DAB_Calibration.c              0x00000000   Number         0  dab_calibration.o ABSOLUTE
    ..\source\DAB_Control.c                  0x00000000   Number         0  dab_control.o ABSOLUTE
    ..\source\DAB_Protect.c                  0x00000000   Number         0  dab_protect.o ABSOLUTE
    ..\source\DAB_main.c                     0x00000000   Number         0  dab_main.o ABSOLUTE
    ..\source\main.c                         0x00000000   Number         0  main.o ABSOLUTE
    cdrcmple.s                               0x00000000   Number         0  cdrcmple.o ABSOLUTE
    dc.s                                     0x00000000   Number         0  dc.o ABSOLUTE
    handlers.s                               0x00000000   Number         0  handlers.o ABSOLUTE
    init.s                                   0x00000000   Number         0  init.o ABSOLUTE
    startup_hc32f334.s                       0x00000000   Number         0  startup_hc32f334.o ABSOLUTE
    .ARM.Collect$$$$00000000                 0x00000288   Section        0  entry.o(.ARM.Collect$$$$00000000)
    .ARM.Collect$$$$00000001                 0x00000288   Section        4  entry2.o(.ARM.Collect$$$$00000001)
    .ARM.Collect$$$$00000004                 0x0000028c   Section        4  entry5.o(.ARM.Collect$$$$00000004)
    .ARM.Collect$$$$00000008                 0x00000290   Section        0  entry7b.o(.ARM.Collect$$$$00000008)
    .ARM.Collect$$$$0000000A                 0x00000290   Section        0  entry8b.o(.ARM.Collect$$$$0000000A)
    .ARM.Collect$$$$0000000B                 0x00000290   Section        8  entry9a.o(.ARM.Collect$$$$0000000B)
    .ARM.Collect$$$$0000000E                 0x00000298   Section        4  entry12b.o(.ARM.Collect$$$$0000000E)
    .ARM.Collect$$$$0000000F                 0x0000029c   Section        0  entry10a.o(.ARM.Collect$$$$0000000F)
    .ARM.Collect$$$$00000011                 0x0000029c   Section        0  entry11a.o(.ARM.Collect$$$$00000011)
    .ARM.Collect$$$$00002712                 0x0000029c   Section        4  entry2.o(.ARM.Collect$$$$00002712)
    __lit__00000000                          0x0000029c   Data           4  entry2.o(.ARM.Collect$$$$00002712)
    .text                                    0x000002a0   Section       36  startup_hc32f334.o(.text)
    $v0                                      0x000002a0   Number         0  startup_hc32f334.o(.text)
    .text                                    0x000002c4   Section        0  uldiv.o(.text)
    .text                                    0x00000326   Section        0  llshl.o(.text)
    .text                                    0x00000344   Section        0  strcat.o(.text)
    .text                                    0x0000035c   Section        0  strlen.o(.text)
    .text                                    0x0000036a   Section        0  dfltui.o(.text)
    .text                                    0x00000384   Section        0  dfltul.o(.text)
    .text                                    0x0000039c   Section        0  d2f.o(.text)
    .text                                    0x000003d4   Section        0  uidiv.o(.text)
    .ARM.__AT_0x00000400                     0x00000400   Section       96  hc32_ll_icg.o(.ARM.__AT_0x00000400)
    .text                                    0x00000460   Section        0  ddiv.o(.text)
    .text                                    0x0000053e   Section        0  llushr.o(.text)
    .text                                    0x0000055e   Section        0  iusefp.o(.text)
    .text                                    0x0000055e   Section        0  fepilogue.o(.text)
    .text                                    0x000005cc   Section        0  depilogue.o(.text)
    .text                                    0x00000688   Section       36  init.o(.text)
    .text                                    0x000006ac   Section        0  __dclz77c.o(.text)
    i.ADC1_Handler                           0x0000070c   Section        0  main.o(i.ADC1_Handler)
    i.ADC_ChCmd                              0x00000748   Section        0  hc32_ll_adc.o(i.ADC_ChCmd)
    i.ADC_Init                               0x000007fc   Section        0  hc32_ll_adc.o(i.ADC_Init)
    i.ADC_IntCmd                             0x000008c4   Section        0  hc32_ll_adc.o(i.ADC_IntCmd)
    i.ADC_Start                              0x00000960   Section        0  hc32_ll_adc.o(i.ADC_Start)
    i.ADC_StructInit                         0x000009dc   Section        0  hc32_ll_adc.o(i.ADC_StructInit)
    i.ADC_TriggerCmd                         0x000009f0   Section        0  hc32_ll_adc.o(i.ADC_TriggerCmd)
    i.ADC_TriggerConfig                      0x00000a8c   Section        0  hc32_ll_adc.o(i.ADC_TriggerConfig)
    i.AOS_SetTriggerEventSrc                 0x00000b34   Section        0  hc32_ll_aos.o(i.AOS_SetTriggerEventSrc)
    i.Adc_Config                             0x00000c50   Section        0  main.o(i.Adc_Config)
    i.AllPWM_Disable                         0x00000d48   Section        0  dab_main.o(i.AllPWM_Disable)
    i.AllPWM_Enable                          0x00000d74   Section        0  dab_main.o(i.AllPWM_Enable)
    i.BSP_CLK_Init                           0x00000d8c   Section        0  ev_hc32f334_lqfp64.o(i.BSP_CLK_Init)
    i.BSP_KEY_KEY1_IrqCallback               0x00000e30   Section        0  ev_hc32f334_lqfp64.o(i.BSP_KEY_KEY1_IrqCallback)
    i.BSP_KEY_KEY2_IrqCallback               0x00000e32   Section        0  ev_hc32f334_lqfp64.o(i.BSP_KEY_KEY2_IrqCallback)
    i.BSP_KEY_KEY3_IrqCallback               0x00000e34   Section        0  ev_hc32f334_lqfp64.o(i.BSP_KEY_KEY3_IrqCallback)
    i.CLK_GetStableStatus                    0x00000e38   Section        0  hc32_ll_clk.o(i.CLK_GetStableStatus)
    i.CLK_PLLCmd                             0x00000e98   Section        0  hc32_ll_clk.o(i.CLK_PLLCmd)
    i.CLK_PLLInit                            0x00000f4c   Section        0  hc32_ll_clk.o(i.CLK_PLLInit)
    i.CLK_PLLStructInit                      0x0000111c   Section        0  hc32_ll_clk.o(i.CLK_PLLStructInit)
    i.CLK_SetClockDiv                        0x0000114c   Section        0  hc32_ll_clk.o(i.CLK_SetClockDiv)
    i.CLK_SetSysClockSrc                     0x0000115a   Section        0  hc32_ll_clk.o(i.CLK_SetSysClockSrc)
    i.CLK_WaitStable                         0x00001168   Section        0  hc32_ll_clk.o(i.CLK_WaitStable)
    CLK_WaitStable                           0x00001169   Thumb Code    44  hc32_ll_clk.o(i.CLK_WaitStable)
    i.CLK_XtalCmd                            0x00001194   Section        0  hc32_ll_clk.o(i.CLK_XtalCmd)
    i.CLK_XtalInit                           0x00001240   Section        0  hc32_ll_clk.o(i.CLK_XtalInit)
    i.CLK_XtalStructInit                     0x00001338   Section        0  hc32_ll_clk.o(i.CLK_XtalStructInit)
    i.CMP_CompareOutCmd                      0x00001354   Section        0  hc32_ll_cmp.o(i.CMP_CompareOutCmd)
    i.CMP_DelayUS                            0x000013dc   Section        0  hc32_ll_cmp.o(i.CMP_DelayUS)
    CMP_DelayUS                              0x000013dd   Thumb Code    40  hc32_ll_cmp.o(i.CMP_DelayUS)
    i.CMP_NormalModeInit                     0x00001410   Section        0  hc32_ll_cmp.o(i.CMP_NormalModeInit)
    i.CMP_PinVcoutCmd                        0x0000157c   Section        0  hc32_ll_cmp.o(i.CMP_PinVcoutCmd)
    i.CMP_StructInit                         0x00001604   Section        0  hc32_ll_cmp.o(i.CMP_StructInit)
    i.CalPara_Init                           0x0000161c   Section        0  dab_calibration.o(i.CalPara_Init)
    i.ClockSync_CalculateBrr                 0x00001674   Section        0  hc32_ll_usart.o(i.ClockSync_CalculateBrr)
    ClockSync_CalculateBrr                   0x00001675   Thumb Code   318  hc32_ll_usart.o(i.ClockSync_CalculateBrr)
    i.Cmp_Config                             0x00001800   Section        0  main.o(i.Cmp_Config)
    i.DAB_Control                            0x0000187c   Section        0  dab_control.o(i.DAB_Control)
    i.DAB_SampleAndCondition                 0x00001980   Section        0  dab_control.o(i.DAB_SampleAndCondition)
    i.DAB_StateMachine                       0x00001b6c   Section        0  dab_main.o(i.DAB_StateMachine)
    i.DAB_main_function                      0x00001d80   Section        0  dab_main.o(i.DAB_main_function)
    i.DAB_protect                            0x00001e74   Section        0  dab_protect.o(i.DAB_protect)
    i.DAC_ADCPrioCmd                         0x00002260   Section        0  hc32_ll_dac.o(i.DAC_ADCPrioCmd)
    i.DAC_ADCPrioConfig                      0x000022dc   Section        0  hc32_ll_dac.o(i.DAC_ADCPrioConfig)
    i.DAC_DeInit                             0x00002364   Section        0  hc32_ll_dac.o(i.DAC_DeInit)
    i.DAC_Init                               0x00002444   Section        0  hc32_ll_dac.o(i.DAC_Init)
    i.DAC_OutputCmd                          0x00002504   Section        0  hc32_ll_dac.o(i.DAC_OutputCmd)
    i.DAC_Start                              0x0000259c   Section        0  hc32_ll_dac.o(i.DAC_Start)
    i.DAC_StructInit                         0x0000262c   Section        0  hc32_ll_dac.o(i.DAC_StructInit)
    i.DDL_AssertHandler                      0x00002640   Section        0  hc32_ll_utility.o(i.DDL_AssertHandler)
    i.DDL_ConsoleOutputChar                  0x00002680   Section        0  hc32_ll_utility.o(i.DDL_ConsoleOutputChar)
    i.DDL_DelayMS                            0x000026c0   Section        0  hc32_ll_utility.o(i.DDL_DelayMS)
    i.DDL_DelayUS                            0x00002700   Section        0  hc32_ll_utility.o(i.DDL_DelayUS)
    i.DMA_ChCmd                              0x00002740   Section        0  hc32_ll_dma.o(i.DMA_ChCmd)
    i.DMA_ClearTransCompleteStatus           0x000027c4   Section        0  hc32_ll_dma.o(i.DMA_ClearTransCompleteStatus)
    i.DMA_Cmd                                0x0000282c   Section        0  hc32_ll_dma.o(i.DMA_Cmd)
    i.DMA_Config                             0x00002890   Section        0  main.o(i.DMA_Config)
    i.DMA_GetTransCompleteStatus             0x00002918   Section        0  hc32_ll_dma.o(i.DMA_GetTransCompleteStatus)
    i.DMA_Init                               0x00002974   Section        0  hc32_ll_dma.o(i.DMA_Init)
    i.DMA_RepeatInit                         0x00002a8c   Section        0  hc32_ll_dma.o(i.DMA_RepeatInit)
    i.DMA_RepeatStructInit                   0x00002b64   Section        0  hc32_ll_dma.o(i.DMA_RepeatStructInit)
    i.DMA_SetSrcAddr                         0x00002b7c   Section        0  hc32_ll_dma.o(i.DMA_SetSrcAddr)
    i.DMA_SetSrcRepeatSize                   0x00002be8   Section        0  hc32_ll_dma.o(i.DMA_SetSrcRepeatSize)
    i.DMA_SetTransCount                      0x00002c6c   Section        0  hc32_ll_dma.o(i.DMA_SetTransCount)
    i.DMA_StructInit                         0x00002ce0   Section        0  hc32_ll_dma.o(i.DMA_StructInit)
    i.Dac_Config                             0x00002d04   Section        0  main.o(i.Dac_Config)
    i.EFM_CacheRamReset                      0x00002dd0   Section        0  hc32_ll_efm.o(i.EFM_CacheRamReset)
    i.EFM_ClearStatus                        0x00002e40   Section        0  hc32_ll_efm.o(i.EFM_ClearStatus)
    i.EFM_DCacheCmd                          0x00002eb0   Section        0  hc32_ll_efm.o(i.EFM_DCacheCmd)
    i.EFM_FWMC_Cmd                           0x00002f20   Section        0  hc32_ll_efm.o(i.EFM_FWMC_Cmd)
    i.EFM_GetStatus                          0x00002f8c   Section        0  hc32_ll_efm.o(i.EFM_GetStatus)
    i.EFM_ICacheCmd                          0x00002ff0   Section        0  hc32_ll_efm.o(i.EFM_ICacheCmd)
    i.EFM_PrefetchCmd                        0x00003060   Section        0  hc32_ll_efm.o(i.EFM_PrefetchCmd)
    i.EFM_ProgramWord                        0x000030d0   Section        0  hc32_ll_efm.o(i.EFM_ProgramWord)
    i.EFM_SectorErase                        0x000031fc   Section        0  hc32_ll_efm.o(i.EFM_SectorErase)
    i.EFM_SetWaitCycle                       0x00003318   Section        0  hc32_ll_efm.o(i.EFM_SetWaitCycle)
    i.EFM_SingleSectorOperateCmd             0x000033c4   Section        0  hc32_ll_efm.o(i.EFM_SingleSectorOperateCmd)
    i.EFM_WaitFlag                           0x00003454   Section        0  hc32_ll_efm.o(i.EFM_WaitFlag)
    EFM_WaitFlag                             0x00003455   Thumb Code    44  hc32_ll_efm.o(i.EFM_WaitFlag)
    i.EMB_ClearStatus                        0x00003480   Section        0  hc32_ll_emb.o(i.EMB_ClearStatus)
    i.EMB_HRPWM_Init                         0x00003530   Section        0  hc32_ll_emb.o(i.EMB_HRPWM_Init)
    i.EMB_HRPWM_StructInit                   0x000039c8   Section        0  hc32_ll_emb.o(i.EMB_HRPWM_StructInit)
    i.EMB_SetReleasePwmCond                  0x00003a38   Section        0  hc32_ll_emb.o(i.EMB_SetReleasePwmCond)
    i.EXTINT00_SWINT16_Handler               0x00003b04   Section        0  ev_hc32f334_lqfp64.o(i.EXTINT00_SWINT16_Handler)
    i.EXTINT03_SWINT19_Handler               0x00003b34   Section        0  ev_hc32f334_lqfp64.o(i.EXTINT03_SWINT19_Handler)
    i.EXTINT09_SWINT25_Handler               0x00003b64   Section        0  ev_hc32f334_lqfp64.o(i.EXTINT09_SWINT25_Handler)
    i.EXTINT_ClearExtIntStatus               0x00003b98   Section        0  hc32_ll_interrupts.o(i.EXTINT_ClearExtIntStatus)
    i.Emb_Config                             0x00003bf4   Section        0  main.o(i.Emb_Config)
    i.FCG_Fcg0PeriphClockCmd                 0x00003d6c   Section        0  hc32_ll_fcg.o(i.FCG_Fcg0PeriphClockCmd)
    i.FCG_Fcg2PeriphClockCmd                 0x00003df0   Section        0  hc32_ll_fcg.o(i.FCG_Fcg2PeriphClockCmd)
    i.FCG_Fcg3PeriphClockCmd                 0x00003e64   Section        0  hc32_ll_fcg.o(i.FCG_Fcg3PeriphClockCmd)
    i.GPIO_AnalogCmd                         0x00003ed8   Section        0  hc32_ll_gpio.o(i.GPIO_AnalogCmd)
    i.GPIO_Config                            0x00003f88   Section        0  main.o(i.GPIO_Config)
    i.GPIO_HrpwmPinCmd                       0x000040c8   Section        0  hc32_ll_gpio.o(i.GPIO_HrpwmPinCmd)
    i.GPIO_Init                              0x00004150   Section        0  hc32_ll_gpio.o(i.GPIO_Init)
    i.GPIO_ReadInputPins                     0x0000432c   Section        0  hc32_ll_gpio.o(i.GPIO_ReadInputPins)
    i.GPIO_SetDebugPort                      0x000043a8   Section        0  hc32_ll_gpio.o(i.GPIO_SetDebugPort)
    i.GPIO_SetFunc                           0x00004434   Section        0  hc32_ll_gpio.o(i.GPIO_SetFunc)
    i.GPIO_SetReadWaitCycle                  0x000044f8   Section        0  hc32_ll_gpio.o(i.GPIO_SetReadWaitCycle)
    i.GPIO_StructInit                        0x00004594   Section        0  hc32_ll_gpio.o(i.GPIO_StructInit)
    i.HRPWM_BufStructInit                    0x000045bc   Section        0  hc32_ll_hrpwm.o(i.HRPWM_BufStructInit)
    i.HRPWM_CALIB_ClearFlag                  0x000045d0   Section        0  hc32_ll_hrpwm.o(i.HRPWM_CALIB_ClearFlag)
    HRPWM_CALIB_ClearFlag                    0x000045d1   Thumb Code    46  hc32_ll_hrpwm.o(i.HRPWM_CALIB_ClearFlag)
    i.HRPWM_CALIB_GetStatus                  0x0000463c   Section        0  hc32_ll_hrpwm.o(i.HRPWM_CALIB_GetStatus)
    HRPWM_CALIB_GetStatus                    0x0000463d   Thumb Code    36  hc32_ll_hrpwm.o(i.HRPWM_CALIB_GetStatus)
    i.HRPWM_CALIB_PeriodDisable              0x0000469c   Section        0  hc32_ll_hrpwm.o(i.HRPWM_CALIB_PeriodDisable)
    HRPWM_CALIB_PeriodDisable                0x0000469d   Thumb Code    20  hc32_ll_hrpwm.o(i.HRPWM_CALIB_PeriodDisable)
    i.HRPWM_CALIB_ProcessSingle              0x000046b4   Section        0  hc32_ll_hrpwm.o(i.HRPWM_CALIB_ProcessSingle)
    i.HRPWM_CALIB_SingleDisable              0x0000472c   Section        0  hc32_ll_hrpwm.o(i.HRPWM_CALIB_SingleDisable)
    HRPWM_CALIB_SingleDisable                0x0000472d   Thumb Code    20  hc32_ll_hrpwm.o(i.HRPWM_CALIB_SingleDisable)
    i.HRPWM_CommonDeInit                     0x00004744   Section        0  hc32_ll_hrpwm.o(i.HRPWM_CommonDeInit)
    i.HRPWM_Config                           0x000047bc   Section        0  main.o(i.HRPWM_Config)
    i.HRPWM_CountStart                       0x00004b18   Section        0  main.o(i.HRPWM_CountStart)
    HRPWM_CountStart                         0x00004b19   Thumb Code    64  main.o(i.HRPWM_CountStart)
    i.HRPWM_DeInit                           0x00004ba8   Section        0  hc32_ll_hrpwm.o(i.HRPWM_DeInit)
    i.HRPWM_DeadTimeBufConfig                0x00004d48   Section        0  hc32_ll_hrpwm.o(i.HRPWM_DeadTimeBufConfig)
    i.HRPWM_DeadTimeConfig                   0x00004e48   Section        0  hc32_ll_hrpwm.o(i.HRPWM_DeadTimeConfig)
    i.HRPWM_DeadTimeEnable                   0x00004f28   Section        0  main.o(i.HRPWM_DeadTimeEnable)
    HRPWM_DeadTimeEnable                     0x00004f29   Thumb Code    64  main.o(i.HRPWM_DeadTimeEnable)
    i.HRPWM_DeadTimeStructInit               0x00004fb8   Section        0  hc32_ll_hrpwm.o(i.HRPWM_DeadTimeStructInit)
    i.HRPWM_EMB_ChAConfig                    0x00004fcc   Section        0  hc32_ll_hrpwm.o(i.HRPWM_EMB_ChAConfig)
    i.HRPWM_EMB_ChBConfig                    0x000050e4   Section        0  hc32_ll_hrpwm.o(i.HRPWM_EMB_ChBConfig)
    i.HRPWM_EMB_StructInit                   0x000051fc   Section        0  hc32_ll_hrpwm.o(i.HRPWM_EMB_StructInit)
    i.HRPWM_Enable                           0x00005210   Section        0  main.o(i.HRPWM_Enable)
    HRPWM_Enable                             0x00005211   Thumb Code    64  main.o(i.HRPWM_Enable)
    i.HRPWM_HalfWaveModeEnable               0x000052a0   Section        0  main.o(i.HRPWM_HalfWaveModeEnable)
    HRPWM_HalfWaveModeEnable                 0x000052a1   Thumb Code    64  main.o(i.HRPWM_HalfWaveModeEnable)
    i.HRPWM_IDLE_BM_Init                     0x00005330   Section        0  hc32_ll_hrpwm.o(i.HRPWM_IDLE_BM_Init)
    i.HRPWM_IDLE_BM_OutputInit               0x000054c4   Section        0  hc32_ll_hrpwm.o(i.HRPWM_IDLE_BM_OutputInit)
    i.HRPWM_IDLE_BM_OutputStructInit         0x000055a8   Section        0  hc32_ll_hrpwm.o(i.HRPWM_IDLE_BM_OutputStructInit)
    i.HRPWM_IDLE_BM_StructInit               0x000055c0   Section        0  hc32_ll_hrpwm.o(i.HRPWM_IDLE_BM_StructInit)
    i.HRPWM_Init                             0x000055dc   Section        0  hc32_ll_hrpwm.o(i.HRPWM_Init)
    i.HRPWM_PH_Config                        0x000056b0   Section        0  hc32_ll_hrpwm.o(i.HRPWM_PH_Config)
    i.HRPWM_PH_Enable                        0x000057a0   Section        0  main.o(i.HRPWM_PH_Enable)
    HRPWM_PH_Enable                          0x000057a1   Thumb Code    58  main.o(i.HRPWM_PH_Enable)
    i.HRPWM_PH_StructInit                    0x00005828   Section        0  hc32_ll_hrpwm.o(i.HRPWM_PH_StructInit)
    i.HRPWM_PWM_ChAInit                      0x0000583c   Section        0  hc32_ll_hrpwm.o(i.HRPWM_PWM_ChAInit)
    i.HRPWM_PWM_ChAOutputEnable              0x00005b34   Section        0  main.o(i.HRPWM_PWM_ChAOutputEnable)
    HRPWM_PWM_ChAOutputEnable                0x00005b35   Thumb Code    64  main.o(i.HRPWM_PWM_ChAOutputEnable)
    i.HRPWM_PWM_ChBOutputEnable              0x00005bc4   Section        0  main.o(i.HRPWM_PWM_ChBOutputEnable)
    HRPWM_PWM_ChBOutputEnable                0x00005bc5   Thumb Code    64  main.o(i.HRPWM_PWM_ChBOutputEnable)
    i.HRPWM_PWM_OutputInit                   0x00005c54   Section        0  hc32_ll_hrpwm.o(i.HRPWM_PWM_OutputInit)
    i.HRPWM_PWM_OutputStructInit             0x00005d44   Section        0  hc32_ll_hrpwm.o(i.HRPWM_PWM_OutputStructInit)
    i.HRPWM_PWM_StructInit                   0x00005d58   Section        0  hc32_ll_hrpwm.o(i.HRPWM_PWM_StructInit)
    i.HRPWM_SetDeadTimeUpValue               0x00005d8c   Section        0  main.o(i.HRPWM_SetDeadTimeUpValue)
    HRPWM_SetDeadTimeUpValue                 0x00005d8d   Thumb Code    78  main.o(i.HRPWM_SetDeadTimeUpValue)
    i.HRPWM_SetDeadTimeUpValue_Buf           0x00005e30   Section        0  main.o(i.HRPWM_SetDeadTimeUpValue_Buf)
    HRPWM_SetDeadTimeUpValue_Buf             0x00005e31   Thumb Code    78  main.o(i.HRPWM_SetDeadTimeUpValue_Buf)
    i.HRPWM_StructInit                       0x00005ed4   Section        0  hc32_ll_hrpwm.o(i.HRPWM_StructInit)
    i.HVCur_Cali_Rootine                     0x00005ef0   Section        0  dab_calibration.o(i.HVCur_Cali_Rootine)
    i.HVVol_Cali_Rootine                     0x000060e4   Section        0  dab_calibration.o(i.HVVol_Cali_Rootine)
    i.IRQ000_Handler                         0x000062dc   Section        0  hc32_ll_interrupts.o(i.IRQ000_Handler)
    i.IRQ001_Handler                         0x000062f0   Section        0  hc32_ll_interrupts.o(i.IRQ001_Handler)
    i.IRQ002_Handler                         0x00006304   Section        0  hc32_ll_interrupts.o(i.IRQ002_Handler)
    i.IRQ003_Handler                         0x00006318   Section        0  hc32_ll_interrupts.o(i.IRQ003_Handler)
    i.IRQ004_Handler                         0x0000632c   Section        0  hc32_ll_interrupts.o(i.IRQ004_Handler)
    i.IRQ005_Handler                         0x00006340   Section        0  hc32_ll_interrupts.o(i.IRQ005_Handler)
    i.IRQ006_Handler                         0x00006354   Section        0  hc32_ll_interrupts.o(i.IRQ006_Handler)
    i.IRQ007_Handler                         0x00006368   Section        0  hc32_ll_interrupts.o(i.IRQ007_Handler)
    i.IRQ008_Handler                         0x0000637c   Section        0  hc32_ll_interrupts.o(i.IRQ008_Handler)
    i.IRQ009_Handler                         0x00006390   Section        0  hc32_ll_interrupts.o(i.IRQ009_Handler)
    i.IRQ010_Handler                         0x000063a4   Section        0  hc32_ll_interrupts.o(i.IRQ010_Handler)
    i.IRQ011_Handler                         0x000063b8   Section        0  hc32_ll_interrupts.o(i.IRQ011_Handler)
    i.IRQ012_Handler                         0x000063cc   Section        0  hc32_ll_interrupts.o(i.IRQ012_Handler)
    i.IRQ013_Handler                         0x000063e0   Section        0  hc32_ll_interrupts.o(i.IRQ013_Handler)
    i.IRQ014_Handler                         0x000063f4   Section        0  hc32_ll_interrupts.o(i.IRQ014_Handler)
    i.IRQ015_Handler                         0x00006408   Section        0  hc32_ll_interrupts.o(i.IRQ015_Handler)
    i.LED_Control                            0x0000641c   Section        0  dab_main.o(i.LED_Control)
    i.LL_PERIPH_WE                           0x00006488   Section        0  hc32_ll.o(i.LL_PERIPH_WE)
    i.LVCur_Cali_Rootine                     0x000064fc   Section        0  dab_calibration.o(i.LVCur_Cali_Rootine)
    i.LVVol_Cali_Rootine                     0x000066f4   Section        0  dab_calibration.o(i.LVVol_Cali_Rootine)
    i.LoopCtrl_NegDir                        0x000068e8   Section        0  dab_control.o(i.LoopCtrl_NegDir)
    i.LoopCtrl_PosDir                        0x00006acc   Section        0  dab_control.o(i.LoopCtrl_PosDir)
    i.Modulate_1Ph_Calc                      0x00006c9c   Section        0  dab_control.o(i.Modulate_1Ph_Calc)
    i.Modulate_3Ph_Calc                      0x00006d6c   Section        0  dab_control.o(i.Modulate_3Ph_Calc)
    i.PI_Calc                                0x0000703c   Section        0  dab_control.o(i.PI_Calc)
    i.PowerLimit_cal                         0x000070b4   Section        0  dab_main.o(i.PowerLimit_cal)
    i.Power_Dir_Read                         0x00007180   Section        0  dab_main.o(i.Power_Dir_Read)
    i.Read_CalPar                            0x000071a0   Section        0  dab_calibration.o(i.Read_CalPar)
    i.RefRamp_Calc                           0x00007228   Section        0  dab_control.o(i.RefRamp_Calc)
    i.SetSysClockDiv                         0x00007294   Section        0  hc32_ll_clk.o(i.SetSysClockDiv)
    SetSysClockDiv                           0x00007295   Thumb Code   432  hc32_ll_clk.o(i.SetSysClockDiv)
    i.SetSysClockSrc                         0x0000748c   Section        0  hc32_ll_clk.o(i.SetSysClockSrc)
    SetSysClockSrc                           0x0000748d   Thumb Code   178  hc32_ll_clk.o(i.SetSysClockSrc)
    i.SmartCard_CalculateBrr                 0x00007584   Section        0  hc32_ll_usart.o(i.SmartCard_CalculateBrr)
    SmartCard_CalculateBrr                   0x00007585   Thumb Code   386  hc32_ll_usart.o(i.SmartCard_CalculateBrr)
    i.SystemCoreClockUpdate                  0x0000774c   Section        0  system_hc32f334.o(i.SystemCoreClockUpdate)
    i.SystemInit                             0x000077d8   Section        0  system_hc32f334.o(i.SystemInit)
    i.System_Calib_Statemachine              0x000077f8   Section        0  dab_calibration.o(i.System_Calib_Statemachine)
    i.Timer_Counter                          0x00007a6c   Section        0  dab_control.o(i.Timer_Counter)
    i.UART_CalculateBrr                      0x00007ab4   Section        0  hc32_ll_usart.o(i.UART_CalculateBrr)
    UART_CalculateBrr                        0x00007ab5   Thumb Code   386  hc32_ll_usart.o(i.UART_CalculateBrr)
    i.USART_FuncCmd                          0x00007c84   Section        0  hc32_ll_usart.o(i.USART_FuncCmd)
    i.USART_GetBusClockFreq                  0x00007d98   Section        0  hc32_ll_usart.o(i.USART_GetBusClockFreq)
    USART_GetBusClockFreq                    0x00007d99   Thumb Code    16  hc32_ll_usart.o(i.USART_GetBusClockFreq)
    i.USART_GetStatus                        0x00007db0   Section        0  hc32_ll_usart.o(i.USART_GetStatus)
    i.USART_GetUsartClockFreq                0x00007e40   Section        0  hc32_ll_usart.o(i.USART_GetUsartClockFreq)
    USART_GetUsartClockFreq                  0x00007e41   Thumb Code    76  hc32_ll_usart.o(i.USART_GetUsartClockFreq)
    i.USART_LIN_GetMeasureBaudrate           0x00007ea0   Section        0  hc32_ll_usart.o(i.USART_LIN_GetMeasureBaudrate)
    i.USART_SetBaudrate                      0x00007f74   Section        0  hc32_ll_usart.o(i.USART_SetBaudrate)
    i.USART_SetClockDiv                      0x00008080   Section        0  hc32_ll_usart.o(i.USART_SetClockDiv)
    i.USART_UART_Init                        0x00008120   Section        0  hc32_ll_usart.o(i.USART_UART_Init)
    i.USART_UART_StructInit                  0x000082b8   Section        0  hc32_ll_usart.o(i.USART_UART_StructInit)
    i.Usart2_TxEnable                        0x000082e4   Section        0  dab_main.o(i.Usart2_TxEnable)
    i.Usart_init                             0x00008328   Section        0  main.o(i.Usart_init)
    i.WDT_Config                             0x000083bc   Section        0  main.o(i.WDT_Config)
    i.WDT_FeedDog                            0x000083e4   Section        0  hc32_ll_wdt.o(i.WDT_FeedDog)
    i.WDT_Init                               0x000083f8   Section        0  hc32_ll_wdt.o(i.WDT_Init)
    i.Write_CalPar                           0x0000853c   Section        0  dab_calibration.o(i.Write_CalPar)
    i.__0printf$3                            0x000085fc   Section        0  printf3.o(i.__0printf$3)
    i.__scatterload_copy                     0x0000861c   Section       14  handlers.o(i.__scatterload_copy)
    i.__scatterload_null                     0x0000862a   Section        2  handlers.o(i.__scatterload_null)
    i.__scatterload_zeroinit                 0x0000862c   Section       14  handlers.o(i.__scatterload_zeroinit)
    i._printf_core                           0x0000863c   Section        0  printf3.o(i._printf_core)
    _printf_core                             0x0000863d   Thumb Code   436  printf3.o(i._printf_core)
    i.comm_uart                              0x000087f4   Section        0  dab_main.o(i.comm_uart)
    i.fputc                                  0x00008940   Section        0  hc32_ll_utility.o(i.fputc)
    i.main                                   0x00008958   Section        0  main.o(i.main)
    i.message_decimal                        0x00008a0c   Section        0  dab_calibration.o(i.message_decimal)
    i.message_fraction                       0x00008b70   Section        0  dab_calibration.o(i.message_fraction)
    .constdata                               0x00008cb0   Section        8  hc32_ll_dac.o(.constdata)
    .constdata                               0x00008cb8   Section       32  hc32_ll_usart.o(.constdata)
    .bss.noinit                              0x1fffc000   Section        8  system_hc32f334.o(.bss.noinit)
    .data                                    0x1fffc008   Section       58  main.o(.data)
    .data                                    0x1fffc044   Section       56  dab_main.o(.data)
    .data                                    0x1fffc07c   Section       26  dab_protect.o(.data)
    .data                                    0x1fffc098   Section     1750  dab_calibration.o(.data)
    displayMenu_flag                         0x1fffc09c   Data           1  dab_calibration.o(.data)
    .data                                    0x1fffc770   Section       16  hc32_ll_utility.o(.data)
    m_u32TickStep                            0x1fffc770   Data           4  hc32_ll_utility.o(.data)
    m_u32TickCount                           0x1fffc774   Data           4  hc32_ll_utility.o(.data)
    m_pvPrintDevice                          0x1fffc778   Data           4  hc32_ll_utility.o(.data)
    m_u32PrintTimeout                        0x1fffc77c   Data           4  hc32_ll_utility.o(.data)
    .data                                    0x1fffc780   Section        4  ev_hc32f334_lqfp64.o(.data)
    m_u32GlobalKey                           0x1fffc780   Data           4  ev_hc32f334_lqfp64.o(.data)
    .data                                    0x1fffc784   Section      416  dab_control.o(.data)
    .data                                    0x1fffc924   Section        2  dab_control.o(.data)
    .data                                    0x1fffc928   Section        4  stdout.o(.data)
    .bss                                     0x1fffc92c   Section       12  dab_main.o(.bss)
    .bss                                     0x1fffc938   Section       64  hc32_ll_interrupts.o(.bss)
    m_apfnIrqHandler                         0x1fffc938   Data          64  hc32_ll_interrupts.o(.bss)
    STACK                                    0x1fffc978   Section     3072  startup_hc32f334.o(STACK)

    Global Symbols

    Symbol Name                              Value     Ov Type        Size  Object(Section)

    BuildAttributes$$THM_ISAv4$E$P$D$K$B$S$7EM$VFPi3$EXTD16$VFPS$VFMA$PE$A:L22UL41UL21$X:L11$S22US41US21$IEEE1$IW$USESV6$~STKCKD$USESV7$~SHL$OTIME$ROPI$EBA8$MICROLIB$REQ8$PRES8$EABIv2 0x00000000   Number         0  anon$$obj.o ABSOLUTE
    __ARM_use_no_argv                        0x00000000   Number         0  main.o ABSOLUTE
    __Vectors                                0x00000000   Data           4  startup_hc32f334.o(RESET)
    _printf_a                                0x00000000   Number         0  stubs.o ABSOLUTE
    _printf_c                                0x00000000   Number         0  stubs.o ABSOLUTE
    _printf_charcount                        0x00000000   Number         0  stubs.o ABSOLUTE
    _printf_d                                0x00000000   Number         0  stubs.o ABSOLUTE
    _printf_e                                0x00000000   Number         0  stubs.o ABSOLUTE
    _printf_f                                0x00000000   Number         0  stubs.o ABSOLUTE
    _printf_flags                            0x00000000   Number         0  stubs.o ABSOLUTE
    _printf_fp_dec                           0x00000000   Number         0  stubs.o ABSOLUTE
    _printf_fp_hex                           0x00000000   Number         0  stubs.o ABSOLUTE
    _printf_g                                0x00000000   Number         0  stubs.o ABSOLUTE
    _printf_i                                0x00000000   Number         0  stubs.o ABSOLUTE
    _printf_int_dec                          0x00000000   Number         0  stubs.o ABSOLUTE
    _printf_l                                0x00000000   Number         0  stubs.o ABSOLUTE
    _printf_lc                               0x00000000   Number         0  stubs.o ABSOLUTE
    _printf_ll                               0x00000000   Number         0  stubs.o ABSOLUTE
    _printf_lld                              0x00000000   Number         0  stubs.o ABSOLUTE
    _printf_lli                              0x00000000   Number         0  stubs.o ABSOLUTE
    _printf_llo                              0x00000000   Number         0  stubs.o ABSOLUTE
    _printf_llu                              0x00000000   Number         0  stubs.o ABSOLUTE
    _printf_llx                              0x00000000   Number         0  stubs.o ABSOLUTE
    _printf_longlong_dec                     0x00000000   Number         0  stubs.o ABSOLUTE
    _printf_longlong_hex                     0x00000000   Number         0  stubs.o ABSOLUTE
    _printf_longlong_oct                     0x00000000   Number         0  stubs.o ABSOLUTE
    _printf_ls                               0x00000000   Number         0  stubs.o ABSOLUTE
    _printf_mbtowc                           0x00000000   Number         0  stubs.o ABSOLUTE
    _printf_n                                0x00000000   Number         0  stubs.o ABSOLUTE
    _printf_o                                0x00000000   Number         0  stubs.o ABSOLUTE
    _printf_p                                0x00000000   Number         0  stubs.o ABSOLUTE
    _printf_percent                          0x00000000   Number         0  stubs.o ABSOLUTE
    _printf_pre_padding                      0x00000000   Number         0  stubs.o ABSOLUTE
    _printf_return_value                     0x00000000   Number         0  stubs.o ABSOLUTE
    _printf_s                                0x00000000   Number         0  stubs.o ABSOLUTE
    _printf_sizespec                         0x00000000   Number         0  stubs.o ABSOLUTE
    _printf_str                              0x00000000   Number         0  stubs.o ABSOLUTE
    _printf_truncate_signed                  0x00000000   Number         0  stubs.o ABSOLUTE
    _printf_truncate_unsigned                0x00000000   Number         0  stubs.o ABSOLUTE
    _printf_u                                0x00000000   Number         0  stubs.o ABSOLUTE
    _printf_wc                               0x00000000   Number         0  stubs.o ABSOLUTE
    _printf_wctomb                           0x00000000   Number         0  stubs.o ABSOLUTE
    _printf_widthprec                        0x00000000   Number         0  stubs.o ABSOLUTE
    _printf_x                                0x00000000   Number         0  stubs.o ABSOLUTE
    __arm_fini_                               - Undefined Weak Reference
    __cpp_initialize__aeabi_                  - Undefined Weak Reference
    __cxa_finalize                            - Undefined Weak Reference
    _clock_init                               - Undefined Weak Reference
    _microlib_exit                            - Undefined Weak Reference
    __Vectors_End                            0x00000288   Data           0  startup_hc32f334.o(RESET)
    __Vectors_Size                           0x00000288   Number         0  startup_hc32f334.o ABSOLUTE
    __main                                   0x00000289   Thumb Code     0  entry.o(.ARM.Collect$$$$00000000)
    _main_stk                                0x00000289   Thumb Code     0  entry2.o(.ARM.Collect$$$$00000001)
    _main_scatterload                        0x0000028d   Thumb Code     0  entry5.o(.ARM.Collect$$$$00000004)
    __main_after_scatterload                 0x00000291   Thumb Code     0  entry5.o(.ARM.Collect$$$$00000004)
    _main_clock                              0x00000291   Thumb Code     0  entry7b.o(.ARM.Collect$$$$00000008)
    _main_cpp_init                           0x00000291   Thumb Code     0  entry8b.o(.ARM.Collect$$$$0000000A)
    _main_init                               0x00000291   Thumb Code     0  entry9a.o(.ARM.Collect$$$$0000000B)
    __rt_lib_shutdown_fini                   0x00000299   Thumb Code     0  entry12b.o(.ARM.Collect$$$$0000000E)
    __rt_final_cpp                           0x0000029d   Thumb Code     0  entry10a.o(.ARM.Collect$$$$0000000F)
    __rt_final_exit                          0x0000029d   Thumb Code     0  entry11a.o(.ARM.Collect$$$$00000011)
    Reset_Handler                            0x000002a1   Thumb Code     8  startup_hc32f334.o(.text)
    NMI_Handler                              0x000002a9   Thumb Code     2  startup_hc32f334.o(.text)
    HardFault_Handler                        0x000002ab   Thumb Code     2  startup_hc32f334.o(.text)
    MemManage_Handler                        0x000002ad   Thumb Code     2  startup_hc32f334.o(.text)
    BusFault_Handler                         0x000002af   Thumb Code     2  startup_hc32f334.o(.text)
    UsageFault_Handler                       0x000002b1   Thumb Code     2  startup_hc32f334.o(.text)
    SVC_Handler                              0x000002b3   Thumb Code     2  startup_hc32f334.o(.text)
    DebugMon_Handler                         0x000002b5   Thumb Code     2  startup_hc32f334.o(.text)
    PendSV_Handler                           0x000002b7   Thumb Code     2  startup_hc32f334.o(.text)
    SysTick_Handler                          0x000002b9   Thumb Code     2  startup_hc32f334.o(.text)
    ADC2_Handler                             0x000002bb   Thumb Code     0  startup_hc32f334.o(.text)
    ADC3_Handler                             0x000002bb   Thumb Code     0  startup_hc32f334.o(.text)
    CLK_XtalStop_Handler                     0x000002bb   Thumb Code     0  startup_hc32f334.o(.text)
    CMP1_Handler                             0x000002bb   Thumb Code     0  startup_hc32f334.o(.text)
    CMP2_Handler                             0x000002bb   Thumb Code     0  startup_hc32f334.o(.text)
    CMP3_Handler                             0x000002bb   Thumb Code     0  startup_hc32f334.o(.text)
    CTC_Handler                              0x000002bb   Thumb Code     0  startup_hc32f334.o(.text)
    DMA_Error_Handler                        0x000002bb   Thumb Code     0  startup_hc32f334.o(.text)
    DMA_TC0_BTC0_Handler                     0x000002bb   Thumb Code     0  startup_hc32f334.o(.text)
    DMA_TC1_BTC1_Handler                     0x000002bb   Thumb Code     0  startup_hc32f334.o(.text)
    DMA_TC2_BTC2_Handler                     0x000002bb   Thumb Code     0  startup_hc32f334.o(.text)
    DMA_TC3_BTC3_Handler                     0x000002bb   Thumb Code     0  startup_hc32f334.o(.text)
    DMA_TC4_BTC4_Handler                     0x000002bb   Thumb Code     0  startup_hc32f334.o(.text)
    DMA_TC5_BTC5_Handler                     0x000002bb   Thumb Code     0  startup_hc32f334.o(.text)
    DMA_TC6_BTC6_Handler                     0x000002bb   Thumb Code     0  startup_hc32f334.o(.text)
    DMA_TC7_BTC7_Handler                     0x000002bb   Thumb Code     0  startup_hc32f334.o(.text)
    EFM_OpEnd_Handler                        0x000002bb   Thumb Code     0  startup_hc32f334.o(.text)
    EFM_PEError_ReadCol_Handler              0x000002bb   Thumb Code     0  startup_hc32f334.o(.text)
    EMB_GR0_Handler                          0x000002bb   Thumb Code     0  startup_hc32f334.o(.text)
    EMB_GR1_Handler                          0x000002bb   Thumb Code     0  startup_hc32f334.o(.text)
    EMB_GR2_Handler                          0x000002bb   Thumb Code     0  startup_hc32f334.o(.text)
    EMB_GR3_Handler                          0x000002bb   Thumb Code     0  startup_hc32f334.o(.text)
    EMB_GR4_Handler                          0x000002bb   Thumb Code     0  startup_hc32f334.o(.text)
    EMB_GR5_Handler                          0x000002bb   Thumb Code     0  startup_hc32f334.o(.text)
    EMB_GR6_Handler                          0x000002bb   Thumb Code     0  startup_hc32f334.o(.text)
    EMB_GR7_Handler                          0x000002bb   Thumb Code     0  startup_hc32f334.o(.text)
    EMB_GR8_Handler                          0x000002bb   Thumb Code     0  startup_hc32f334.o(.text)
    EVENT_PORT1_Handler                      0x000002bb   Thumb Code     0  startup_hc32f334.o(.text)
    EVENT_PORT2_Handler                      0x000002bb   Thumb Code     0  startup_hc32f334.o(.text)
    EVENT_PORT3_Handler                      0x000002bb   Thumb Code     0  startup_hc32f334.o(.text)
    EVENT_PORT4_Handler                      0x000002bb   Thumb Code     0  startup_hc32f334.o(.text)
    EXTINT01_SWINT17_Handler                 0x000002bb   Thumb Code     0  startup_hc32f334.o(.text)
    EXTINT02_SWINT18_Handler                 0x000002bb   Thumb Code     0  startup_hc32f334.o(.text)
    EXTINT04_SWINT20_Handler                 0x000002bb   Thumb Code     0  startup_hc32f334.o(.text)
    EXTINT05_SWINT21_Handler                 0x000002bb   Thumb Code     0  startup_hc32f334.o(.text)
    EXTINT06_SWINT22_Handler                 0x000002bb   Thumb Code     0  startup_hc32f334.o(.text)
    EXTINT07_SWINT23_Handler                 0x000002bb   Thumb Code     0  startup_hc32f334.o(.text)
    EXTINT08_SWINT24_Handler                 0x000002bb   Thumb Code     0  startup_hc32f334.o(.text)
    EXTINT10_SWINT26_Handler                 0x000002bb   Thumb Code     0  startup_hc32f334.o(.text)
    EXTINT11_SWINT27_Handler                 0x000002bb   Thumb Code     0  startup_hc32f334.o(.text)
    EXTINT12_SWINT28_Handler                 0x000002bb   Thumb Code     0  startup_hc32f334.o(.text)
    EXTINT13_SWINT29_Handler                 0x000002bb   Thumb Code     0  startup_hc32f334.o(.text)
    EXTINT14_SWINT30_Handler                 0x000002bb   Thumb Code     0  startup_hc32f334.o(.text)
    EXTINT15_SWINT31_Handler                 0x000002bb   Thumb Code     0  startup_hc32f334.o(.text)
    FCM_Handler                              0x000002bb   Thumb Code     0  startup_hc32f334.o(.text)
    FPU_Error_Handler                        0x000002bb   Thumb Code     0  startup_hc32f334.o(.text)
    HRPWM_1_GCap_Handler                     0x000002bb   Thumb Code     0  startup_hc32f334.o(.text)
    HRPWM_1_GCmp_Handler                     0x000002bb   Thumb Code     0  startup_hc32f334.o(.text)
    HRPWM_1_Ovf_Udf_Handler                  0x000002bb   Thumb Code     0  startup_hc32f334.o(.text)
    HRPWM_1_SCmp_Handler                     0x000002bb   Thumb Code     0  startup_hc32f334.o(.text)
    HRPWM_2_GCap_Handler                     0x000002bb   Thumb Code     0  startup_hc32f334.o(.text)
    HRPWM_2_GCmp_Handler                     0x000002bb   Thumb Code     0  startup_hc32f334.o(.text)
    HRPWM_2_Ovf_Udf_Handler                  0x000002bb   Thumb Code     0  startup_hc32f334.o(.text)
    HRPWM_2_SCmp_Handler                     0x000002bb   Thumb Code     0  startup_hc32f334.o(.text)
    HRPWM_3_GCap_Handler                     0x000002bb   Thumb Code     0  startup_hc32f334.o(.text)
    HRPWM_3_GCmp_Handler                     0x000002bb   Thumb Code     0  startup_hc32f334.o(.text)
    HRPWM_3_Ovf_Udf_Handler                  0x000002bb   Thumb Code     0  startup_hc32f334.o(.text)
    HRPWM_3_SCmp_Handler                     0x000002bb   Thumb Code     0  startup_hc32f334.o(.text)
    HRPWM_4_GCap_Handler                     0x000002bb   Thumb Code     0  startup_hc32f334.o(.text)
    HRPWM_4_GCmp_Handler                     0x000002bb   Thumb Code     0  startup_hc32f334.o(.text)
    HRPWM_4_Ovf_Udf_Handler                  0x000002bb   Thumb Code     0  startup_hc32f334.o(.text)
    HRPWM_4_SCmp_Handler                     0x000002bb   Thumb Code     0  startup_hc32f334.o(.text)
    HRPWM_5_GCap_Handler                     0x000002bb   Thumb Code     0  startup_hc32f334.o(.text)
    HRPWM_5_GCmp_Handler                     0x000002bb   Thumb Code     0  startup_hc32f334.o(.text)
    HRPWM_5_Ovf_Udf_Handler                  0x000002bb   Thumb Code     0  startup_hc32f334.o(.text)
    HRPWM_5_SCmp_Handler                     0x000002bb   Thumb Code     0  startup_hc32f334.o(.text)
    HRPWM_6_GCap_Handler                     0x000002bb   Thumb Code     0  startup_hc32f334.o(.text)
    HRPWM_6_GCmp_Handler                     0x000002bb   Thumb Code     0  startup_hc32f334.o(.text)
    HRPWM_6_Ovf_Udf_Handler                  0x000002bb   Thumb Code     0  startup_hc32f334.o(.text)
    HRPWM_6_SCmp_Handler                     0x000002bb   Thumb Code     0  startup_hc32f334.o(.text)
    HRPWM_Handler                            0x000002bb   Thumb Code     0  startup_hc32f334.o(.text)
    I2C_Handler                              0x000002bb   Thumb Code     0  startup_hc32f334.o(.text)
    MCAN1_INT0_Handler                       0x000002bb   Thumb Code     0  startup_hc32f334.o(.text)
    MCAN1_INT1_Handler                       0x000002bb   Thumb Code     0  startup_hc32f334.o(.text)
    MCAN2_INT0_Handler                       0x000002bb   Thumb Code     0  startup_hc32f334.o(.text)
    MCAN2_INT1_Handler                       0x000002bb   Thumb Code     0  startup_hc32f334.o(.text)
    MCANRAM_ECCError_Handler                 0x000002bb   Thumb Code     0  startup_hc32f334.o(.text)
    PLA_Handler                              0x000002bb   Thumb Code     0  startup_hc32f334.o(.text)
    PWC_LVD1_Handler                         0x000002bb   Thumb Code     0  startup_hc32f334.o(.text)
    PWC_LVD2_Handler                         0x000002bb   Thumb Code     0  startup_hc32f334.o(.text)
    PWC_WKTM_Handler                         0x000002bb   Thumb Code     0  startup_hc32f334.o(.text)
    RTC_Handler                              0x000002bb   Thumb Code     0  startup_hc32f334.o(.text)
    SPI_Handler                              0x000002bb   Thumb Code     0  startup_hc32f334.o(.text)
    SWDT_Handler                             0x000002bb   Thumb Code     0  startup_hc32f334.o(.text)
    TMR0_1_Handler                           0x000002bb   Thumb Code     0  startup_hc32f334.o(.text)
    TMR0_2_Handler                           0x000002bb   Thumb Code     0  startup_hc32f334.o(.text)
    TMR4_GCmp_Handler                        0x000002bb   Thumb Code     0  startup_hc32f334.o(.text)
    TMR4_Ovf_Udf_Handler                     0x000002bb   Thumb Code     0  startup_hc32f334.o(.text)
    TMR4_Reload_Handler                      0x000002bb   Thumb Code     0  startup_hc32f334.o(.text)
    TMR4_SCmp_Handler                        0x000002bb   Thumb Code     0  startup_hc32f334.o(.text)
    TMR6_1_Dte_Handler                       0x000002bb   Thumb Code     0  startup_hc32f334.o(.text)
    TMR6_1_GCmp_Handler                      0x000002bb   Thumb Code     0  startup_hc32f334.o(.text)
    TMR6_1_Ovf_Udf_Handler                   0x000002bb   Thumb Code     0  startup_hc32f334.o(.text)
    TMR6_1_SCmp_Handler                      0x000002bb   Thumb Code     0  startup_hc32f334.o(.text)
    TMR6_2_Dte_Handler                       0x000002bb   Thumb Code     0  startup_hc32f334.o(.text)
    TMR6_2_GCmp_Handler                      0x000002bb   Thumb Code     0  startup_hc32f334.o(.text)
    TMR6_2_Ovf_Udf_Handler                   0x000002bb   Thumb Code     0  startup_hc32f334.o(.text)
    TMR6_2_SCmp_Handler                      0x000002bb   Thumb Code     0  startup_hc32f334.o(.text)
    TMR6_3_Dte_Handler                       0x000002bb   Thumb Code     0  startup_hc32f334.o(.text)
    TMR6_3_GCmp_Handler                      0x000002bb   Thumb Code     0  startup_hc32f334.o(.text)
    TMR6_3_Ovf_Udf_Handler                   0x000002bb   Thumb Code     0  startup_hc32f334.o(.text)
    TMR6_3_SCmp_Handler                      0x000002bb   Thumb Code     0  startup_hc32f334.o(.text)
    TMR6_4_Dte_Handler                       0x000002bb   Thumb Code     0  startup_hc32f334.o(.text)
    TMR6_4_GCmp_Handler                      0x000002bb   Thumb Code     0  startup_hc32f334.o(.text)
    TMR6_4_Ovf_Udf_Handler                   0x000002bb   Thumb Code     0  startup_hc32f334.o(.text)
    TMR6_4_SCmp_Handler                      0x000002bb   Thumb Code     0  startup_hc32f334.o(.text)
    TMRA_1_Cmp_Handler                       0x000002bb   Thumb Code     0  startup_hc32f334.o(.text)
    TMRA_1_Ovf_Udf_Handler                   0x000002bb   Thumb Code     0  startup_hc32f334.o(.text)
    TMRA_2_Cmp_Handler                       0x000002bb   Thumb Code     0  startup_hc32f334.o(.text)
    TMRA_2_Ovf_Udf_Handler                   0x000002bb   Thumb Code     0  startup_hc32f334.o(.text)
    TMRA_3_Cmp_Handler                       0x000002bb   Thumb Code     0  startup_hc32f334.o(.text)
    TMRA_3_Ovf_Udf_Handler                   0x000002bb   Thumb Code     0  startup_hc32f334.o(.text)
    TMRA_4_Cmp_Handler                       0x000002bb   Thumb Code     0  startup_hc32f334.o(.text)
    TMRA_4_Ovf_Udf_Handler                   0x000002bb   Thumb Code     0  startup_hc32f334.o(.text)
    TMRA_5_Cmp_Handler                       0x000002bb   Thumb Code     0  startup_hc32f334.o(.text)
    TMRA_5_Ovf_Udf_Handler                   0x000002bb   Thumb Code     0  startup_hc32f334.o(.text)
    USART1_Handler                           0x000002bb   Thumb Code     0  startup_hc32f334.o(.text)
    USART1_TCI_Handler                       0x000002bb   Thumb Code     0  startup_hc32f334.o(.text)
    USART1_WKUP_Handler                      0x000002bb   Thumb Code     0  startup_hc32f334.o(.text)
    USART2_Handler                           0x000002bb   Thumb Code     0  startup_hc32f334.o(.text)
    USART2_TxComplete_Handler                0x000002bb   Thumb Code     0  startup_hc32f334.o(.text)
    USART3_Handler                           0x000002bb   Thumb Code     0  startup_hc32f334.o(.text)
    USART3_TxComplete_Handler                0x000002bb   Thumb Code     0  startup_hc32f334.o(.text)
    USART4_Handler                           0x000002bb   Thumb Code     0  startup_hc32f334.o(.text)
    USART4_TxComplete_Handler                0x000002bb   Thumb Code     0  startup_hc32f334.o(.text)
    WDT_Handler                              0x000002bb   Thumb Code     0  startup_hc32f334.o(.text)
    __aeabi_uldivmod                         0x000002c5   Thumb Code    98  uldiv.o(.text)
    __aeabi_llsl                             0x00000327   Thumb Code    30  llshl.o(.text)
    _ll_shift_l                              0x00000327   Thumb Code     0  llshl.o(.text)
    strcat                                   0x00000345   Thumb Code    24  strcat.o(.text)
    strlen                                   0x0000035d   Thumb Code    14  strlen.o(.text)
    __aeabi_ui2d                             0x0000036b   Thumb Code    26  dfltui.o(.text)
    __aeabi_ul2d                             0x00000385   Thumb Code    24  dfltul.o(.text)
    __aeabi_d2f                              0x0000039d   Thumb Code    56  d2f.o(.text)
    __aeabi_uidiv                            0x000003d5   Thumb Code     0  uidiv.o(.text)
    __aeabi_uidivmod                         0x000003d5   Thumb Code    44  uidiv.o(.text)
    u32ICGValue                              0x00000400   Data          96  hc32_ll_icg.o(.ARM.__AT_0x00000400)
    __aeabi_ddiv                             0x00000461   Thumb Code   222  ddiv.o(.text)
    __aeabi_llsr                             0x0000053f   Thumb Code    32  llushr.o(.text)
    _ll_ushift_r                             0x0000053f   Thumb Code     0  llushr.o(.text)
    __I$use$fp                               0x0000055f   Thumb Code     0  iusefp.o(.text)
    _float_round                             0x0000055f   Thumb Code    18  fepilogue.o(.text)
    _float_epilogue                          0x00000571   Thumb Code    92  fepilogue.o(.text)
    _double_round                            0x000005cd   Thumb Code    30  depilogue.o(.text)
    _double_epilogue                         0x000005eb   Thumb Code   156  depilogue.o(.text)
    __scatterload                            0x00000689   Thumb Code    28  init.o(.text)
    __scatterload_rt2                        0x00000689   Thumb Code     0  init.o(.text)
    __decompress                             0x000006ad   Thumb Code     0  __dclz77c.o(.text)
    __decompress2                            0x000006ad   Thumb Code    94  __dclz77c.o(.text)
    ADC1_Handler                             0x0000070d   Thumb Code    46  main.o(i.ADC1_Handler)
    ADC_ChCmd                                0x00000749   Thumb Code   110  hc32_ll_adc.o(i.ADC_ChCmd)
    ADC_Init                                 0x000007fd   Thumb Code   130  hc32_ll_adc.o(i.ADC_Init)
    ADC_IntCmd                               0x000008c5   Thumb Code    86  hc32_ll_adc.o(i.ADC_IntCmd)
    ADC_Start                                0x00000961   Thumb Code    54  hc32_ll_adc.o(i.ADC_Start)
    ADC_StructInit                           0x000009dd   Thumb Code    18  hc32_ll_adc.o(i.ADC_StructInit)
    ADC_TriggerCmd                           0x000009f1   Thumb Code    88  hc32_ll_adc.o(i.ADC_TriggerCmd)
    ADC_TriggerConfig                        0x00000a8d   Thumb Code    98  hc32_ll_adc.o(i.ADC_TriggerConfig)
    AOS_SetTriggerEventSrc                   0x00000b35   Thumb Code   222  hc32_ll_aos.o(i.AOS_SetTriggerEventSrc)
    Adc_Config                               0x00000c51   Thumb Code   224  main.o(i.Adc_Config)
    AllPWM_Disable                           0x00000d49   Thumb Code    32  dab_main.o(i.AllPWM_Disable)
    AllPWM_Enable                            0x00000d75   Thumb Code    18  dab_main.o(i.AllPWM_Enable)
    BSP_CLK_Init                             0x00000d8d   Thumb Code   154  ev_hc32f334_lqfp64.o(i.BSP_CLK_Init)
    BSP_KEY_KEY1_IrqCallback                 0x00000e31   Thumb Code     2  ev_hc32f334_lqfp64.o(i.BSP_KEY_KEY1_IrqCallback)
    BSP_KEY_KEY2_IrqCallback                 0x00000e33   Thumb Code     2  ev_hc32f334_lqfp64.o(i.BSP_KEY_KEY2_IrqCallback)
    BSP_KEY_KEY3_IrqCallback                 0x00000e35   Thumb Code     2  ev_hc32f334_lqfp64.o(i.BSP_KEY_KEY3_IrqCallback)
    CLK_GetStableStatus                      0x00000e39   Thumb Code    36  hc32_ll_clk.o(i.CLK_GetStableStatus)
    CLK_PLLCmd                               0x00000e99   Thumb Code   118  hc32_ll_clk.o(i.CLK_PLLCmd)
    CLK_PLLInit                              0x00000f4d   Thumb Code   374  hc32_ll_clk.o(i.CLK_PLLInit)
    CLK_PLLStructInit                        0x0000111d   Thumb Code    48  hc32_ll_clk.o(i.CLK_PLLStructInit)
    CLK_SetClockDiv                          0x0000114d   Thumb Code    14  hc32_ll_clk.o(i.CLK_SetClockDiv)
    CLK_SetSysClockSrc                       0x0000115b   Thumb Code    14  hc32_ll_clk.o(i.CLK_SetSysClockSrc)
    CLK_XtalCmd                              0x00001195   Thumb Code   110  hc32_ll_clk.o(i.CLK_XtalCmd)
    CLK_XtalInit                             0x00001241   Thumb Code   182  hc32_ll_clk.o(i.CLK_XtalInit)
    CLK_XtalStructInit                       0x00001339   Thumb Code    28  hc32_ll_clk.o(i.CLK_XtalStructInit)
    CMP_CompareOutCmd                        0x00001355   Thumb Code    68  hc32_ll_cmp.o(i.CMP_CompareOutCmd)
    CMP_NormalModeInit                       0x00001411   Thumb Code   294  hc32_ll_cmp.o(i.CMP_NormalModeInit)
    CMP_PinVcoutCmd                          0x0000157d   Thumb Code    68  hc32_ll_cmp.o(i.CMP_PinVcoutCmd)
    CMP_StructInit                           0x00001605   Thumb Code    24  hc32_ll_cmp.o(i.CMP_StructInit)
    CalPara_Init                             0x0000161d   Thumb Code    60  dab_calibration.o(i.CalPara_Init)
    Cmp_Config                               0x00001801   Thumb Code   116  main.o(i.Cmp_Config)
    DAB_Control                              0x0000187d   Thumb Code   244  dab_control.o(i.DAB_Control)
    DAB_SampleAndCondition                   0x00001981   Thumb Code   438  dab_control.o(i.DAB_SampleAndCondition)
    DAB_StateMachine                         0x00001b6d   Thumb Code   436  dab_main.o(i.DAB_StateMachine)
    DAB_main_function                        0x00001d81   Thumb Code   214  dab_main.o(i.DAB_main_function)
    DAB_protect                              0x00001e75   Thumb Code   910  dab_protect.o(i.DAB_protect)
    DAC_ADCPrioCmd                           0x00002261   Thumb Code    58  hc32_ll_dac.o(i.DAC_ADCPrioCmd)
    DAC_ADCPrioConfig                        0x000022dd   Thumb Code    70  hc32_ll_dac.o(i.DAC_ADCPrioConfig)
    DAC_DeInit                               0x00002365   Thumb Code   146  hc32_ll_dac.o(i.DAC_DeInit)
    DAC_Init                                 0x00002445   Thumb Code   126  hc32_ll_dac.o(i.DAC_Init)
    DAC_OutputCmd                            0x00002505   Thumb Code    86  hc32_ll_dac.o(i.DAC_OutputCmd)
    DAC_Start                                0x0000259d   Thumb Code    80  hc32_ll_dac.o(i.DAC_Start)
    DAC_StructInit                           0x0000262d   Thumb Code    20  hc32_ll_dac.o(i.DAC_StructInit)
    DDL_AssertHandler                        0x00002641   Thumb Code    14  hc32_ll_utility.o(i.DDL_AssertHandler)
    DDL_ConsoleOutputChar                    0x00002681   Thumb Code    60  hc32_ll_utility.o(i.DDL_ConsoleOutputChar)
    DDL_DelayMS                              0x000026c1   Thumb Code    54  hc32_ll_utility.o(i.DDL_DelayMS)
    DDL_DelayUS                              0x00002701   Thumb Code    52  hc32_ll_utility.o(i.DDL_DelayUS)
    DMA_ChCmd                                0x00002741   Thumb Code    70  hc32_ll_dma.o(i.DMA_ChCmd)
    DMA_ClearTransCompleteStatus             0x000027c5   Thumb Code    44  hc32_ll_dma.o(i.DMA_ClearTransCompleteStatus)
    DMA_Cmd                                  0x0000282d   Thumb Code    38  hc32_ll_dma.o(i.DMA_Cmd)
    DMA_Config                               0x00002891   Thumb Code   120  main.o(i.DMA_Config)
    DMA_GetTransCompleteStatus               0x00002919   Thumb Code    34  hc32_ll_dma.o(i.DMA_GetTransCompleteStatus)
    DMA_Init                                 0x00002975   Thumb Code   220  hc32_ll_dma.o(i.DMA_Init)
    DMA_RepeatInit                           0x00002a8d   Thumb Code   154  hc32_ll_dma.o(i.DMA_RepeatInit)
    DMA_RepeatStructInit                     0x00002b65   Thumb Code    22  hc32_ll_dma.o(i.DMA_RepeatStructInit)
    DMA_SetSrcAddr                           0x00002b7d   Thumb Code    48  hc32_ll_dma.o(i.DMA_SetSrcAddr)
    DMA_SetSrcRepeatSize                     0x00002be9   Thumb Code    70  hc32_ll_dma.o(i.DMA_SetSrcRepeatSize)
    DMA_SetTransCount                        0x00002c6d   Thumb Code    54  hc32_ll_dma.o(i.DMA_SetTransCount)
    DMA_StructInit                           0x00002ce1   Thumb Code    34  hc32_ll_dma.o(i.DMA_StructInit)
    Dac_Config                               0x00002d05   Thumb Code   184  main.o(i.Dac_Config)
    EFM_CacheRamReset                        0x00002dd1   Thumb Code    46  hc32_ll_efm.o(i.EFM_CacheRamReset)
    EFM_ClearStatus                          0x00002e41   Thumb Code    50  hc32_ll_efm.o(i.EFM_ClearStatus)
    EFM_DCacheCmd                            0x00002eb1   Thumb Code    46  hc32_ll_efm.o(i.EFM_DCacheCmd)
    EFM_FWMC_Cmd                             0x00002f21   Thumb Code    42  hc32_ll_efm.o(i.EFM_FWMC_Cmd)
    EFM_GetStatus                            0x00002f8d   Thumb Code    40  hc32_ll_efm.o(i.EFM_GetStatus)
    EFM_ICacheCmd                            0x00002ff1   Thumb Code    46  hc32_ll_efm.o(i.EFM_ICacheCmd)
    EFM_PrefetchCmd                          0x00003061   Thumb Code    46  hc32_ll_efm.o(i.EFM_PrefetchCmd)
    EFM_ProgramWord                          0x000030d1   Thumb Code   220  hc32_ll_efm.o(i.EFM_ProgramWord)
    EFM_SectorErase                          0x000031fd   Thumb Code   208  hc32_ll_efm.o(i.EFM_SectorErase)
    EFM_SetWaitCycle                         0x00003319   Thumb Code   102  hc32_ll_efm.o(i.EFM_SetWaitCycle)
    EFM_SingleSectorOperateCmd               0x000033c5   Thumb Code    80  hc32_ll_efm.o(i.EFM_SingleSectorOperateCmd)
    EMB_ClearStatus                          0x00003481   Thumb Code   106  hc32_ll_emb.o(i.EMB_ClearStatus)
    EMB_HRPWM_Init                           0x00003531   Thumb Code  1176  hc32_ll_emb.o(i.EMB_HRPWM_Init)
    EMB_HRPWM_StructInit                     0x000039c9   Thumb Code   112  hc32_ll_emb.o(i.EMB_HRPWM_StructInit)
    EMB_SetReleasePwmCond                    0x00003a39   Thumb Code   138  hc32_ll_emb.o(i.EMB_SetReleasePwmCond)
    EXTINT00_SWINT16_Handler                 0x00003b05   Thumb Code    42  ev_hc32f334_lqfp64.o(i.EXTINT00_SWINT16_Handler)
    EXTINT03_SWINT19_Handler                 0x00003b35   Thumb Code    42  ev_hc32f334_lqfp64.o(i.EXTINT03_SWINT19_Handler)
    EXTINT09_SWINT25_Handler                 0x00003b65   Thumb Code    46  ev_hc32f334_lqfp64.o(i.EXTINT09_SWINT25_Handler)
    EXTINT_ClearExtIntStatus                 0x00003b99   Thumb Code    26  hc32_ll_interrupts.o(i.EXTINT_ClearExtIntStatus)
    Emb_Config                               0x00003bf5   Thumb Code   356  main.o(i.Emb_Config)
    FCG_Fcg0PeriphClockCmd                   0x00003d6d   Thumb Code    68  hc32_ll_fcg.o(i.FCG_Fcg0PeriphClockCmd)
    FCG_Fcg2PeriphClockCmd                   0x00003df1   Thumb Code    52  hc32_ll_fcg.o(i.FCG_Fcg2PeriphClockCmd)
    FCG_Fcg3PeriphClockCmd                   0x00003e65   Thumb Code    52  hc32_ll_fcg.o(i.FCG_Fcg3PeriphClockCmd)
    GPIO_AnalogCmd                           0x00003ed9   Thumb Code   116  hc32_ll_gpio.o(i.GPIO_AnalogCmd)
    GPIO_Config                              0x00003f89   Thumb Code   318  main.o(i.GPIO_Config)
    GPIO_HrpwmPinCmd                         0x000040c9   Thumb Code    74  hc32_ll_gpio.o(i.GPIO_HrpwmPinCmd)
    GPIO_Init                                0x00004151   Thumb Code   414  hc32_ll_gpio.o(i.GPIO_Init)
    GPIO_ReadInputPins                       0x0000432d   Thumb Code    64  hc32_ll_gpio.o(i.GPIO_ReadInputPins)
    GPIO_SetDebugPort                        0x000043a9   Thumb Code    80  hc32_ll_gpio.o(i.GPIO_SetDebugPort)
    GPIO_SetFunc                             0x00004435   Thumb Code   134  hc32_ll_gpio.o(i.GPIO_SetFunc)
    GPIO_SetReadWaitCycle                    0x000044f9   Thumb Code    96  hc32_ll_gpio.o(i.GPIO_SetReadWaitCycle)
    GPIO_StructInit                          0x00004595   Thumb Code    40  hc32_ll_gpio.o(i.GPIO_StructInit)
    HRPWM_BufStructInit                      0x000045bd   Thumb Code    18  hc32_ll_hrpwm.o(i.HRPWM_BufStructInit)
    HRPWM_CALIB_ProcessSingle                0x000046b5   Thumb Code   106  hc32_ll_hrpwm.o(i.HRPWM_CALIB_ProcessSingle)
    HRPWM_CommonDeInit                       0x00004745   Thumb Code   114  hc32_ll_hrpwm.o(i.HRPWM_CommonDeInit)
    HRPWM_Config                             0x000047bd   Thumb Code   832  main.o(i.HRPWM_Config)
    HRPWM_DeInit                             0x00004ba9   Thumb Code   324  hc32_ll_hrpwm.o(i.HRPWM_DeInit)
    HRPWM_DeadTimeBufConfig                  0x00004d49   Thumb Code   174  hc32_ll_hrpwm.o(i.HRPWM_DeadTimeBufConfig)
    HRPWM_DeadTimeConfig                     0x00004e49   Thumb Code   144  hc32_ll_hrpwm.o(i.HRPWM_DeadTimeConfig)
    HRPWM_DeadTimeStructInit                 0x00004fb9   Thumb Code    18  hc32_ll_hrpwm.o(i.HRPWM_DeadTimeStructInit)
    HRPWM_EMB_ChAConfig                      0x00004fcd   Thumb Code   198  hc32_ll_hrpwm.o(i.HRPWM_EMB_ChAConfig)
    HRPWM_EMB_ChBConfig                      0x000050e5   Thumb Code   198  hc32_ll_hrpwm.o(i.HRPWM_EMB_ChBConfig)
    HRPWM_EMB_StructInit                     0x000051fd   Thumb Code    18  hc32_ll_hrpwm.o(i.HRPWM_EMB_StructInit)
    HRPWM_IDLE_BM_Init                       0x00005331   Thumb Code   334  hc32_ll_hrpwm.o(i.HRPWM_IDLE_BM_Init)
    HRPWM_IDLE_BM_OutputInit                 0x000054c5   Thumb Code   168  hc32_ll_hrpwm.o(i.HRPWM_IDLE_BM_OutputInit)
    HRPWM_IDLE_BM_OutputStructInit           0x000055a9   Thumb Code    24  hc32_ll_hrpwm.o(i.HRPWM_IDLE_BM_OutputStructInit)
    HRPWM_IDLE_BM_StructInit                 0x000055c1   Thumb Code    28  hc32_ll_hrpwm.o(i.HRPWM_IDLE_BM_StructInit)
    HRPWM_Init                               0x000055dd   Thumb Code   126  hc32_ll_hrpwm.o(i.HRPWM_Init)
    HRPWM_PH_Config                          0x000056b1   Thumb Code   162  hc32_ll_hrpwm.o(i.HRPWM_PH_Config)
    HRPWM_PH_StructInit                      0x00005829   Thumb Code    20  hc32_ll_hrpwm.o(i.HRPWM_PH_StructInit)
    HRPWM_PWM_ChAInit                        0x0000583d   Thumb Code   674  hc32_ll_hrpwm.o(i.HRPWM_PWM_ChAInit)
    HRPWM_PWM_OutputInit                     0x00005c55   Thumb Code   160  hc32_ll_hrpwm.o(i.HRPWM_PWM_OutputInit)
    HRPWM_PWM_OutputStructInit               0x00005d45   Thumb Code    20  hc32_ll_hrpwm.o(i.HRPWM_PWM_OutputStructInit)
    HRPWM_PWM_StructInit                     0x00005d59   Thumb Code    48  hc32_ll_hrpwm.o(i.HRPWM_PWM_StructInit)
    HRPWM_StructInit                         0x00005ed5   Thumb Code    22  hc32_ll_hrpwm.o(i.HRPWM_StructInit)
    HVCur_Cali_Rootine                       0x00005ef1   Thumb Code   442  dab_calibration.o(i.HVCur_Cali_Rootine)
    HVVol_Cali_Rootine                       0x000060e5   Thumb Code   448  dab_calibration.o(i.HVVol_Cali_Rootine)
    IRQ000_Handler                           0x000062dd   Thumb Code    14  hc32_ll_interrupts.o(i.IRQ000_Handler)
    IRQ001_Handler                           0x000062f1   Thumb Code    14  hc32_ll_interrupts.o(i.IRQ001_Handler)
    IRQ002_Handler                           0x00006305   Thumb Code    14  hc32_ll_interrupts.o(i.IRQ002_Handler)
    IRQ003_Handler                           0x00006319   Thumb Code    14  hc32_ll_interrupts.o(i.IRQ003_Handler)
    IRQ004_Handler                           0x0000632d   Thumb Code    14  hc32_ll_interrupts.o(i.IRQ004_Handler)
    IRQ005_Handler                           0x00006341   Thumb Code    14  hc32_ll_interrupts.o(i.IRQ005_Handler)
    IRQ006_Handler                           0x00006355   Thumb Code    14  hc32_ll_interrupts.o(i.IRQ006_Handler)
    IRQ007_Handler                           0x00006369   Thumb Code    14  hc32_ll_interrupts.o(i.IRQ007_Handler)
    IRQ008_Handler                           0x0000637d   Thumb Code    14  hc32_ll_interrupts.o(i.IRQ008_Handler)
    IRQ009_Handler                           0x00006391   Thumb Code    14  hc32_ll_interrupts.o(i.IRQ009_Handler)
    IRQ010_Handler                           0x000063a5   Thumb Code    14  hc32_ll_interrupts.o(i.IRQ010_Handler)
    IRQ011_Handler                           0x000063b9   Thumb Code    14  hc32_ll_interrupts.o(i.IRQ011_Handler)
    IRQ012_Handler                           0x000063cd   Thumb Code    14  hc32_ll_interrupts.o(i.IRQ012_Handler)
    IRQ013_Handler                           0x000063e1   Thumb Code    14  hc32_ll_interrupts.o(i.IRQ013_Handler)
    IRQ014_Handler                           0x000063f5   Thumb Code    14  hc32_ll_interrupts.o(i.IRQ014_Handler)
    IRQ015_Handler                           0x00006409   Thumb Code    14  hc32_ll_interrupts.o(i.IRQ015_Handler)
    LED_Control                              0x0000641d   Thumb Code    96  dab_main.o(i.LED_Control)
    LL_PERIPH_WE                             0x00006489   Thumb Code    90  hc32_ll.o(i.LL_PERIPH_WE)
    LVCur_Cali_Rootine                       0x000064fd   Thumb Code   448  dab_calibration.o(i.LVCur_Cali_Rootine)
    LVVol_Cali_Rootine                       0x000066f5   Thumb Code   448  dab_calibration.o(i.LVVol_Cali_Rootine)
    LoopCtrl_NegDir                          0x000068e9   Thumb Code   436  dab_control.o(i.LoopCtrl_NegDir)
    LoopCtrl_PosDir                          0x00006acd   Thumb Code   428  dab_control.o(i.LoopCtrl_PosDir)
    Modulate_1Ph_Calc                        0x00006c9d   Thumb Code   192  dab_control.o(i.Modulate_1Ph_Calc)
    Modulate_3Ph_Calc                        0x00006d6d   Thumb Code   662  dab_control.o(i.Modulate_3Ph_Calc)
    PI_Calc                                  0x0000703d   Thumb Code   116  dab_control.o(i.PI_Calc)
    PowerLimit_cal                           0x000070b5   Thumb Code   160  dab_main.o(i.PowerLimit_cal)
    Power_Dir_Read                           0x00007181   Thumb Code    22  dab_main.o(i.Power_Dir_Read)
    Read_CalPar                              0x000071a1   Thumb Code   126  dab_calibration.o(i.Read_CalPar)
    RefRamp_Calc                             0x00007229   Thumb Code   104  dab_control.o(i.RefRamp_Calc)
    SystemCoreClockUpdate                    0x0000774d   Thumb Code   112  system_hc32f334.o(i.SystemCoreClockUpdate)
    SystemInit                               0x000077d9   Thumb Code    26  system_hc32f334.o(i.SystemInit)
    System_Calib_Statemachine                0x000077f9   Thumb Code   596  dab_calibration.o(i.System_Calib_Statemachine)
    Timer_Counter                            0x00007a6d   Thumb Code    66  dab_control.o(i.Timer_Counter)
    USART_FuncCmd                            0x00007c85   Thumb Code   194  hc32_ll_usart.o(i.USART_FuncCmd)
    USART_GetStatus                          0x00007db1   Thumb Code    68  hc32_ll_usart.o(i.USART_GetStatus)
    USART_LIN_GetMeasureBaudrate             0x00007ea1   Thumb Code    88  hc32_ll_usart.o(i.USART_LIN_GetMeasureBaudrate)
    USART_SetBaudrate                        0x00007f75   Thumb Code   190  hc32_ll_usart.o(i.USART_SetBaudrate)
    USART_SetClockDiv                        0x00008081   Thumb Code    88  hc32_ll_usart.o(i.USART_SetClockDiv)
    USART_UART_Init                          0x00008121   Thumb Code   336  hc32_ll_usart.o(i.USART_UART_Init)
    USART_UART_StructInit                    0x000082b9   Thumb Code    44  hc32_ll_usart.o(i.USART_UART_StructInit)
    Usart2_TxEnable                          0x000082e5   Thumb Code    60  dab_main.o(i.Usart2_TxEnable)
    Usart_init                               0x00008329   Thumb Code   138  main.o(i.Usart_init)
    WDT_Config                               0x000083bd   Thumb Code    38  main.o(i.WDT_Config)
    WDT_FeedDog                              0x000083e5   Thumb Code    16  hc32_ll_wdt.o(i.WDT_FeedDog)
    WDT_Init                                 0x000083f9   Thumb Code   260  hc32_ll_wdt.o(i.WDT_Init)
    Write_CalPar                             0x0000853d   Thumb Code   162  dab_calibration.o(i.Write_CalPar)
    __0printf$3                              0x000085fd   Thumb Code    22  printf3.o(i.__0printf$3)
    __1printf$3                              0x000085fd   Thumb Code     0  printf3.o(i.__0printf$3)
    __2printf                                0x000085fd   Thumb Code     0  printf3.o(i.__0printf$3)
    __scatterload_copy                       0x0000861d   Thumb Code    14  handlers.o(i.__scatterload_copy)
    __scatterload_null                       0x0000862b   Thumb Code     2  handlers.o(i.__scatterload_null)
    __scatterload_zeroinit                   0x0000862d   Thumb Code    14  handlers.o(i.__scatterload_zeroinit)
    comm_uart                                0x000087f5   Thumb Code   288  dab_main.o(i.comm_uart)
    fputc                                    0x00008941   Thumb Code    22  hc32_ll_utility.o(i.fputc)
    main                                     0x00008959   Thumb Code   138  main.o(i.main)
    message_decimal                          0x00008a0d   Thumb Code   330  dab_calibration.o(i.message_decimal)
    message_fraction                         0x00008b71   Thumb Code   290  dab_calibration.o(i.message_fraction)
    Region$$Table$$Base                      0x00008cd8   Number         0  anon$$obj.o(Region$$Table)
    Region$$Table$$Limit                     0x00008cf8   Number         0  anon$$obj.o(Region$$Table)
    SystemCoreClock                          0x1fffc000   Data           4  system_hc32f334.o(.bss.noinit)
    HRC_VALUE                                0x1fffc004   Data           4  system_hc32f334.o(.bss.noinit)
    Value1                                   0x1fffc008   Data           2  main.o(.data)
    Value2                                   0x1fffc00a   Data           2  main.o(.data)
    deltavalue                               0x1fffc00c   Data           2  main.o(.data)
    CaliModeInNote                           0x1fffc00e   Data          52  main.o(.data)
    Cali_1s_Cnt                              0x1fffc044   Data           1  dab_main.o(.data)
    Update_CalPar_cmd                        0x1fffc045   Data           1  dab_main.o(.data)
    Power_Dir_Flag                           0x1fffc046   Data           1  dab_main.o(.data)
    Ctrl_Sel_Flag                            0x1fffc047   Data           1  dab_main.o(.data)
    DAB_State                                0x1fffc048   Data           1  dab_main.o(.data)
    System_Ready_Flag                        0x1fffc049   Data           1  dab_main.o(.data)
    DAB_Start_Cmd                            0x1fffc04a   Data           1  dab_main.o(.data)
    DAB_RUN_Cmd                              0x1fffc04b   Data           1  dab_main.o(.data)
    SS_Finish_Flag                           0x1fffc04c   Data           1  dab_main.o(.data)
    twinkle_flag                             0x1fffc04d   Data           1  dab_main.o(.data)
    System_Fault_CLR_Cmd                     0x1fffc04e   Data           1  dab_main.o(.data)
    System_Status_Upload_Cmd                 0x1fffc04f   Data           1  dab_main.o(.data)
    SysCali_Cmd                              0x1fffc050   Data           1  dab_main.o(.data)
    Tx_1ms_Cnt                               0x1fffc052   Data           2  dab_main.o(.data)
    Tx_tmr_Cnt                               0x1fffc054   Data           2  dab_main.o(.data)
    Print_string_Length                      0x1fffc056   Data           2  dab_main.o(.data)
    System_Ready_cnt                         0x1fffc058   Data           2  dab_main.o(.data)
    SS_OverTimePro_Cnt                       0x1fffc05a   Data           2  dab_main.o(.data)
    Time_100ms_Cnt_SS_S1                     0x1fffc05c   Data           2  dab_main.o(.data)
    Vol_SS_Finish_Cnt                        0x1fffc05e   Data           2  dab_main.o(.data)
    Led_Green_Interval                       0x1fffc060   Data           2  dab_main.o(.data)
    TEST_TIME_THRESHOLD                      0x1fffc062   Data           2  dab_main.o(.data)
    DAB_Fault_Flag_pre                       0x1fffc064   Data           2  dab_main.o(.data)
    Print_string_addr                        0x1fffc068   Data           4  dab_main.o(.data)
    Io_max_ref                               0x1fffc06c   Data           4  dab_main.o(.data)
    Iin_max_ref                              0x1fffc070   Data           4  dab_main.o(.data)
    PREF_3PH_BM_ENTER_THRESHOLD              0x1fffc074   Data           4  dab_main.o(.data)
    PREF_3PH_BM_THRESHOLD_DIV                0x1fffc078   Data           4  dab_main.o(.data)
    OUTPUT_OVP_cnt                           0x1fffc07c   Data           2  dab_protect.o(.data)
    OUTPUT_OVP_Recover_cnt                   0x1fffc07e   Data           2  dab_protect.o(.data)
    OUTPUT_UVP_cnt                           0x1fffc080   Data           2  dab_protect.o(.data)
    OUTPUT_UVP_Recover_cnt                   0x1fffc082   Data           2  dab_protect.o(.data)
    INPUT_OVP_cnt                            0x1fffc084   Data           2  dab_protect.o(.data)
    INPUT_OVP_Recover_cnt                    0x1fffc086   Data           2  dab_protect.o(.data)
    INPUT_UVP_cnt                            0x1fffc088   Data           2  dab_protect.o(.data)
    INPUT_UVP_Recover_cnt                    0x1fffc08a   Data           2  dab_protect.o(.data)
    INPUT_OCP_cnt                            0x1fffc08c   Data           2  dab_protect.o(.data)
    INPUT_OCP_Recover_cnt                    0x1fffc08e   Data           2  dab_protect.o(.data)
    OUTPUT_OCP_cnt                           0x1fffc090   Data           2  dab_protect.o(.data)
    OUTPUT_OCP_Recover_cnt                   0x1fffc092   Data           2  dab_protect.o(.data)
    DAB_Fault_Flag                           0x1fffc094   Data           2  dab_protect.o(.data)
    CalibPara_Done_Flag                      0x1fffc098   Data           1  dab_calibration.o(.data)
    Cmd_cal                                  0x1fffc099   Data           1  dab_calibration.o(.data)
    Calib_Sel                                0x1fffc09a   Data           1  dab_calibration.o(.data)
    Print_flag                               0x1fffc09b   Data           1  dab_calibration.o(.data)
    HVVol_Cali_State                         0x1fffc09d   Data           1  dab_calibration.o(.data)
    LVVol_Cali_State                         0x1fffc09e   Data           1  dab_calibration.o(.data)
    HVCur_Cali_State                         0x1fffc09f   Data           1  dab_calibration.o(.data)
    LVCur_Cali_State                         0x1fffc0a0   Data           1  dab_calibration.o(.data)
    SysCali_State                            0x1fffc0a1   Data           1  dab_calibration.o(.data)
    VOUT_GAIN                                0x1fffc0a4   Data           4  dab_calibration.o(.data)
    VOUT_OFFSET                              0x1fffc0a8   Data           4  dab_calibration.o(.data)
    IOUT_GAIN                                0x1fffc0ac   Data           4  dab_calibration.o(.data)
    IOUT_OFFSET                              0x1fffc0b0   Data           4  dab_calibration.o(.data)
    VIN_GAIN                                 0x1fffc0b4   Data           4  dab_calibration.o(.data)
    VIN_OFFSET                               0x1fffc0b8   Data           4  dab_calibration.o(.data)
    IIN_GAIN                                 0x1fffc0bc   Data           4  dab_calibration.o(.data)
    IIN_OFFSET                               0x1fffc0c0   Data           4  dab_calibration.o(.data)
    Vout_Gain_par                            0x1fffc0c4   Data           4  dab_calibration.o(.data)
    Vout_Offset_par                          0x1fffc0c8   Data           4  dab_calibration.o(.data)
    Iout_Gain_par                            0x1fffc0cc   Data           4  dab_calibration.o(.data)
    Iout_Offset_par                          0x1fffc0d0   Data           4  dab_calibration.o(.data)
    Vin_Gain_par                             0x1fffc0d4   Data           4  dab_calibration.o(.data)
    Vin_Offset_par                           0x1fffc0d8   Data           4  dab_calibration.o(.data)
    Iin_Gain_par                             0x1fffc0dc   Data           4  dab_calibration.o(.data)
    Iin_Offset_par                           0x1fffc0e0   Data           4  dab_calibration.o(.data)
    HVVol_S1_Value_LSB                       0x1fffc0e4   Data           4  dab_calibration.o(.data)
    HVVol_S2_Value_LSB                       0x1fffc0e8   Data           4  dab_calibration.o(.data)
    HVVol_Cali_Gain                          0x1fffc0ec   Data           4  dab_calibration.o(.data)
    HVVol_Cali_Offset                        0x1fffc0f0   Data           4  dab_calibration.o(.data)
    LVVol_S1_Value_LSB                       0x1fffc0f4   Data           4  dab_calibration.o(.data)
    LVVol_S2_Value_LSB                       0x1fffc0f8   Data           4  dab_calibration.o(.data)
    LVVol_Cali_Gain                          0x1fffc0fc   Data           4  dab_calibration.o(.data)
    LVVol_Cali_Offset                        0x1fffc100   Data           4  dab_calibration.o(.data)
    HVCur_S1_Value_LSB                       0x1fffc104   Data           4  dab_calibration.o(.data)
    HVCur_S2_Value_LSB                       0x1fffc108   Data           4  dab_calibration.o(.data)
    HVCur_Cali_Gain                          0x1fffc10c   Data           4  dab_calibration.o(.data)
    HVCur_Cali_Offset                        0x1fffc110   Data           4  dab_calibration.o(.data)
    LVCur_S1_Value_LSB                       0x1fffc114   Data           4  dab_calibration.o(.data)
    LVCur_S2_Value_LSB                       0x1fffc118   Data           4  dab_calibration.o(.data)
    LVCur_Cali_Gain                          0x1fffc11c   Data           4  dab_calibration.o(.data)
    LVCur_Cali_Offset                        0x1fffc120   Data           4  dab_calibration.o(.data)
    WriteParOK                               0x1fffc124   Data          60  dab_calibration.o(.data)
    CalMenu                                  0x1fffc160   Data         454  dab_calibration.o(.data)
    DisplayMenu1                             0x1fffc326   Data          20  dab_calibration.o(.data)
    DisplayMenu2                             0x1fffc33a   Data          20  dab_calibration.o(.data)
    DisplayMenu3                             0x1fffc34e   Data          20  dab_calibration.o(.data)
    DisplayMenu4                             0x1fffc362   Data          20  dab_calibration.o(.data)
    DisplayMenu5                             0x1fffc376   Data          20  dab_calibration.o(.data)
    DisplayMenu6                             0x1fffc38a   Data          20  dab_calibration.o(.data)
    DisplayMenu7                             0x1fffc39e   Data          20  dab_calibration.o(.data)
    DisplayMenu8                             0x1fffc3b2   Data          20  dab_calibration.o(.data)
    HVVOL_caliStart                          0x1fffc3c6   Data          35  dab_calibration.o(.data)
    HVVOL_caliStep1                          0x1fffc3e9   Data          66  dab_calibration.o(.data)
    HVVOL_caliStep2                          0x1fffc42b   Data          66  dab_calibration.o(.data)
    LVVOL_caliStart                          0x1fffc46d   Data          35  dab_calibration.o(.data)
    LVVOL_caliStep1                          0x1fffc490   Data          65  dab_calibration.o(.data)
    LVVOL_caliStep2                          0x1fffc4d1   Data          65  dab_calibration.o(.data)
    HVCUR_caliStart                          0x1fffc512   Data          84  dab_calibration.o(.data)
    HVCUR_caliStep1                          0x1fffc566   Data          64  dab_calibration.o(.data)
    HVCUR_caliStep2                          0x1fffc5a6   Data          64  dab_calibration.o(.data)
    LVCUR_caliStart                          0x1fffc5e6   Data          84  dab_calibration.o(.data)
    LVCUR_caliStep1                          0x1fffc63a   Data          65  dab_calibration.o(.data)
    LVCUR_caliStep2                          0x1fffc67b   Data          65  dab_calibration.o(.data)
    Savepar                                  0x1fffc6bc   Data          85  dab_calibration.o(.data)
    CalFail                                  0x1fffc711   Data          27  dab_calibration.o(.data)
    CaliExit                                 0x1fffc72c   Data          28  dab_calibration.o(.data)
    WriteInitPar                             0x1fffc748   Data          38  dab_calibration.o(.data)
    Burst_mode_flag                          0x1fffc784   Data           1  dab_control.o(.data)
    VLoopPos_Flag                            0x1fffc785   Data           1  dab_control.o(.data)
    M_rang_status                            0x1fffc786   Data           1  dab_control.o(.data)
    VLoopNeg_Flag                            0x1fffc787   Data           1  dab_control.o(.data)
    Ph_pri                                   0x1fffc788   Data           2  dab_control.o(.data)
    Ph_sec                                   0x1fffc78a   Data           2  dab_control.o(.data)
    Ph_pri_sec                               0x1fffc78c   Data           2  dab_control.o(.data)
    Test_Flag                                0x1fffc78e   Data           2  dab_control.o(.data)
    Time_10us_Cnt                            0x1fffc790   Data           2  dab_control.o(.data)
    Time_1ms_Cnt                             0x1fffc792   Data           2  dab_control.o(.data)
    Time_100ms_Cnt                           0x1fffc794   Data           2  dab_control.o(.data)
    Time_1s_Cnt                              0x1fffc796   Data           2  dab_control.o(.data)
    Vout_LSB                                 0x1fffc798   Data           2  dab_control.o(.data)
    Vin_LSB                                  0x1fffc79a   Data           2  dab_control.o(.data)
    Iout_LSB                                 0x1fffc79c   Data           2  dab_control.o(.data)
    Iin_LSB                                  0x1fffc79e   Data           2  dab_control.o(.data)
    Vout                                     0x1fffc7a0   Data           4  dab_control.o(.data)
    Vin                                      0x1fffc7a4   Data           4  dab_control.o(.data)
    Iout                                     0x1fffc7a8   Data           4  dab_control.o(.data)
    Iin                                      0x1fffc7ac   Data           4  dab_control.o(.data)
    M                                        0x1fffc7b0   Data           4  dab_control.o(.data)
    Dp0                                      0x1fffc7b4   Data           4  dab_control.o(.data)
    Dps                                      0x1fffc7b8   Data           4  dab_control.o(.data)
    Ds0                                      0x1fffc7bc   Data           4  dab_control.o(.data)
    Pref                                     0x1fffc7c0   Data           4  dab_control.o(.data)
    Vin_LPF_Div                              0x1fffc7c4   Data           4  dab_control.o(.data)
    MaxPower_Div                             0x1fffc7c8   Data           4  dab_control.o(.data)
    M_Div                                    0x1fffc7cc   Data           4  dab_control.o(.data)
    Vout_LPF_N_Div                           0x1fffc7d0   Data           4  dab_control.o(.data)
    Vout_LPF                                 0x1fffc7d4   Data          16  dab_control.o(.data)
    Vin_LPF                                  0x1fffc7e4   Data          16  dab_control.o(.data)
    Iout_LPF                                 0x1fffc7f4   Data          16  dab_control.o(.data)
    Iin_LPF                                  0x1fffc804   Data          16  dab_control.o(.data)
    Vout_LSB_LPF                             0x1fffc814   Data          16  dab_control.o(.data)
    Vin_LSB_LPF                              0x1fffc824   Data          16  dab_control.o(.data)
    Iout_LSB_LPF                             0x1fffc834   Data          16  dab_control.o(.data)
    Iin_LSB_LPF                              0x1fffc844   Data          16  dab_control.o(.data)
    Vpos_Ramp                                0x1fffc854   Data          16  dab_control.o(.data)
    Vpos_PI_1Ph                              0x1fffc864   Data          44  dab_control.o(.data)
    Vpos_PI_3Ph                              0x1fffc890   Data          44  dab_control.o(.data)
    Vneg_Ramp                                0x1fffc8bc   Data          16  dab_control.o(.data)
    Vneg_PI_1Ph                              0x1fffc8cc   Data          44  dab_control.o(.data)
    Vneg_PI_3Ph                              0x1fffc8f8   Data          44  dab_control.o(.data)
    OPENLOOP_State_Flag                      0x1fffc924   Data           2  dab_control.o(.data)
    __stdout                                 0x1fffc928   Data           4  stdout.o(.data)
    TX_Frame                                 0x1fffc92c   Data          12  dab_main.o(.bss)
    __initial_sp                             0x1fffd578   Data           0  startup_hc32f334.o(STACK)



==============================================================================

Memory Map of the image

  Image Entry point : 0x00000289

  Load Region LR_IROM1 (Base: 0x00000000, Size: 0x0000961c, Max: 0x0001ffff, ABSOLUTE, COMPRESSED[0x00008fb0])

    Execution Region ER_IROM1 (Exec base: 0x00000000, Load base: 0x00000000, Size: 0x00008cf8, Max: 0x0001ffff, ABSOLUTE)

    Exec Addr    Load Addr    Size         Type   Attr      Idx    E Section Name        Object

    0x00000000   0x00000000   0x00000288   Data   RO            3    RESET               startup_hc32f334.o
    0x00000288   0x00000288   0x00000000   Code   RO         5215  * .ARM.Collect$$$$00000000  mc_w.l(entry.o)
    0x00000288   0x00000288   0x00000004   Code   RO         5495    .ARM.Collect$$$$00000001  mc_w.l(entry2.o)
    0x0000028c   0x0000028c   0x00000004   Code   RO         5498    .ARM.Collect$$$$00000004  mc_w.l(entry5.o)
    0x00000290   0x00000290   0x00000000   Code   RO         5500    .ARM.Collect$$$$00000008  mc_w.l(entry7b.o)
    0x00000290   0x00000290   0x00000000   Code   RO         5502    .ARM.Collect$$$$0000000A  mc_w.l(entry8b.o)
    0x00000290   0x00000290   0x00000008   Code   RO         5503    .ARM.Collect$$$$0000000B  mc_w.l(entry9a.o)
    0x00000298   0x00000298   0x00000004   Code   RO         5510    .ARM.Collect$$$$0000000E  mc_w.l(entry12b.o)
    0x0000029c   0x0000029c   0x00000000   Code   RO         5505    .ARM.Collect$$$$0000000F  mc_w.l(entry10a.o)
    0x0000029c   0x0000029c   0x00000000   Code   RO         5507    .ARM.Collect$$$$00000011  mc_w.l(entry11a.o)
    0x0000029c   0x0000029c   0x00000004   Code   RO         5496    .ARM.Collect$$$$00002712  mc_w.l(entry2.o)
    0x000002a0   0x000002a0   0x00000024   Code   RO            4    .text               startup_hc32f334.o
    0x000002c4   0x000002c4   0x00000062   Code   RO         5218    .text               mc_w.l(uldiv.o)
    0x00000326   0x00000326   0x0000001e   Code   RO         5220    .text               mc_w.l(llshl.o)
    0x00000344   0x00000344   0x00000018   Code   RO         5222    .text               mc_w.l(strcat.o)
    0x0000035c   0x0000035c   0x0000000e   Code   RO         5224    .text               mc_w.l(strlen.o)
    0x0000036a   0x0000036a   0x0000001a   Code   RO         5489    .text               mf_w.l(dfltui.o)
    0x00000384   0x00000384   0x00000018   Code   RO         5491    .text               mf_w.l(dfltul.o)
    0x0000039c   0x0000039c   0x00000038   Code   RO         5493    .text               mf_w.l(d2f.o)
    0x000003d4   0x000003d4   0x0000002c   Code   RO         5512    .text               mc_w.l(uidiv.o)
    0x00000400   0x00000400   0x00000060   Data   RO         3276    .ARM.__AT_0x00000400  hc32_ll_icg.o
    0x00000460   0x00000460   0x000000de   Code   RO         5487    .text               mf_w.l(ddiv.o)
    0x0000053e   0x0000053e   0x00000020   Code   RO         5514    .text               mc_w.l(llushr.o)
    0x0000055e   0x0000055e   0x00000000   Code   RO         5516    .text               mc_w.l(iusefp.o)
    0x0000055e   0x0000055e   0x0000006e   Code   RO         5517    .text               mf_w.l(fepilogue.o)
    0x000005cc   0x000005cc   0x000000ba   Code   RO         5519    .text               mf_w.l(depilogue.o)
    0x00000686   0x00000686   0x00000002   PAD
    0x00000688   0x00000688   0x00000024   Code   RO         5529    .text               mc_w.l(init.o)
    0x000006ac   0x000006ac   0x0000005e   Code   RO         5541    .text               mc_w.l(__dclz77c.o)
    0x0000070a   0x0000070a   0x00000002   PAD
    0x0000070c   0x0000070c   0x0000003c   Code   RO           84    i.ADC1_Handler      main.o
    0x00000748   0x00000748   0x000000b4   Code   RO          610    i.ADC_ChCmd         hc32_ll_adc.o
    0x000007fc   0x000007fc   0x000000c8   Code   RO          622    i.ADC_Init          hc32_ll_adc.o
    0x000008c4   0x000008c4   0x0000009c   Code   RO          623    i.ADC_IntCmd        hc32_ll_adc.o
    0x00000960   0x00000960   0x0000007c   Code   RO          631    i.ADC_Start         hc32_ll_adc.o
    0x000009dc   0x000009dc   0x00000012   Code   RO          633    i.ADC_StructInit    hc32_ll_adc.o
    0x000009ee   0x000009ee   0x00000002   PAD
    0x000009f0   0x000009f0   0x0000009c   Code   RO          636    i.ADC_TriggerCmd    hc32_ll_adc.o
    0x00000a8c   0x00000a8c   0x000000a8   Code   RO          637    i.ADC_TriggerConfig  hc32_ll_adc.o
    0x00000b34   0x00000b34   0x0000011c   Code   RO          848    i.AOS_SetTriggerEventSrc  hc32_ll_aos.o
    0x00000c50   0x00000c50   0x000000f8   Code   RO           85    i.Adc_Config        main.o
    0x00000d48   0x00000d48   0x0000002c   Code   RO          332    i.AllPWM_Disable    dab_main.o
    0x00000d74   0x00000d74   0x00000018   Code   RO          333    i.AllPWM_Enable     dab_main.o
    0x00000d8c   0x00000d8c   0x000000a4   Code   RO         4868    i.BSP_CLK_Init      ev_hc32f334_lqfp64.o
    0x00000e30   0x00000e30   0x00000002   Code   RO         4876    i.BSP_KEY_KEY1_IrqCallback  ev_hc32f334_lqfp64.o
    0x00000e32   0x00000e32   0x00000002   Code   RO         4877    i.BSP_KEY_KEY2_IrqCallback  ev_hc32f334_lqfp64.o
    0x00000e34   0x00000e34   0x00000002   Code   RO         4878    i.BSP_KEY_KEY3_IrqCallback  ev_hc32f334_lqfp64.o
    0x00000e36   0x00000e36   0x00000002   PAD
    0x00000e38   0x00000e38   0x00000060   Code   RO          886    i.CLK_GetStableStatus  hc32_ll_clk.o
    0x00000e98   0x00000e98   0x000000b4   Code   RO          896    i.CLK_PLLCmd        hc32_ll_clk.o
    0x00000f4c   0x00000f4c   0x000001d0   Code   RO          897    i.CLK_PLLInit       hc32_ll_clk.o
    0x0000111c   0x0000111c   0x00000030   Code   RO          898    i.CLK_PLLStructInit  hc32_ll_clk.o
    0x0000114c   0x0000114c   0x0000000e   Code   RO          900    i.CLK_SetClockDiv   hc32_ll_clk.o
    0x0000115a   0x0000115a   0x0000000e   Code   RO          903    i.CLK_SetSysClockSrc  hc32_ll_clk.o
    0x00001168   0x00001168   0x0000002c   Code   RO          907    i.CLK_WaitStable    hc32_ll_clk.o
    0x00001194   0x00001194   0x000000ac   Code   RO          911    i.CLK_XtalCmd       hc32_ll_clk.o
    0x00001240   0x00001240   0x000000f8   Code   RO          915    i.CLK_XtalInit      hc32_ll_clk.o
    0x00001338   0x00001338   0x0000001c   Code   RO          918    i.CLK_XtalStructInit  hc32_ll_clk.o
    0x00001354   0x00001354   0x00000088   Code   RO         1142    i.CMP_CompareOutCmd  hc32_ll_cmp.o
    0x000013dc   0x000013dc   0x00000034   Code   RO         1144    i.CMP_DelayUS       hc32_ll_cmp.o
    0x00001410   0x00001410   0x0000016c   Code   RO         1151    i.CMP_NormalModeInit  hc32_ll_cmp.o
    0x0000157c   0x0000157c   0x00000088   Code   RO         1152    i.CMP_PinVcoutCmd   hc32_ll_cmp.o
    0x00001604   0x00001604   0x00000018   Code   RO         1165    i.CMP_StructInit    hc32_ll_cmp.o
    0x0000161c   0x0000161c   0x00000058   Code   RO          463    i.CalPara_Init      dab_calibration.o
    0x00001674   0x00001674   0x0000018c   Code   RO         4333    i.ClockSync_CalculateBrr  hc32_ll_usart.o
    0x00001800   0x00001800   0x0000007c   Code   RO           86    i.Cmp_Config        main.o
    0x0000187c   0x0000187c   0x00000104   Code   RO         5078    i.DAB_Control       DP_F334_DAB_Ctrl_lib.lib(dab_control.o)
    0x00001980   0x00001980   0x000001ec   Code   RO         5066    i.DAB_SampleAndCondition  DP_F334_DAB_Ctrl_lib.lib(dab_control.o)
    0x00001b6c   0x00001b6c   0x00000214   Code   RO          388    i.DAB_StateMachine  dab_main.o
    0x00001d80   0x00001d80   0x000000f4   Code   RO          400    i.DAB_main_function  dab_main.o
    0x00001e74   0x00001e74   0x000003ec   Code   RO          433    i.DAB_protect       dab_protect.o
    0x00002260   0x00002260   0x0000007c   Code   RO         1397    i.DAC_ADCPrioCmd    hc32_ll_dac.o
    0x000022dc   0x000022dc   0x00000088   Code   RO         1398    i.DAC_ADCPrioConfig  hc32_ll_dac.o
    0x00002364   0x00002364   0x000000e0   Code   RO         1401    i.DAC_DeInit        hc32_ll_dac.o
    0x00002444   0x00002444   0x000000c0   Code   RO         1404    i.DAC_Init          hc32_ll_dac.o
    0x00002504   0x00002504   0x00000098   Code   RO         1405    i.DAC_OutputCmd     hc32_ll_dac.o
    0x0000259c   0x0000259c   0x00000090   Code   RO         1409    i.DAC_Start         hc32_ll_dac.o
    0x0000262c   0x0000262c   0x00000014   Code   RO         1413    i.DAC_StructInit    hc32_ll_dac.o
    0x00002640   0x00002640   0x00000040   Code   RO         4730    i.DDL_AssertHandler  hc32_ll_utility.o
    0x00002680   0x00002680   0x00000040   Code   RO         4731    i.DDL_ConsoleOutputChar  hc32_ll_utility.o
    0x000026c0   0x000026c0   0x00000040   Code   RO         4732    i.DDL_DelayMS       hc32_ll_utility.o
    0x00002700   0x00002700   0x00000040   Code   RO         4733    i.DDL_DelayUS       hc32_ll_utility.o
    0x00002740   0x00002740   0x00000084   Code   RO         1539    i.DMA_ChCmd         hc32_ll_dma.o
    0x000027c4   0x000027c4   0x00000068   Code   RO         1541    i.DMA_ClearTransCompleteStatus  hc32_ll_dma.o
    0x0000282c   0x0000282c   0x00000064   Code   RO         1542    i.DMA_Cmd           hc32_ll_dma.o
    0x00002890   0x00002890   0x00000088   Code   RO           87    i.DMA_Config        main.o
    0x00002918   0x00002918   0x0000005c   Code   RO         1556    i.DMA_GetTransCompleteStatus  hc32_ll_dma.o
    0x00002974   0x00002974   0x00000118   Code   RO         1559    i.DMA_Init          hc32_ll_dma.o
    0x00002a8c   0x00002a8c   0x000000d8   Code   RO         1573    i.DMA_RepeatInit    hc32_ll_dma.o
    0x00002b64   0x00002b64   0x00000016   Code   RO         1574    i.DMA_RepeatStructInit  hc32_ll_dma.o
    0x00002b7a   0x00002b7a   0x00000002   PAD
    0x00002b7c   0x00002b7c   0x0000006c   Code   RO         1585    i.DMA_SetSrcAddr    hc32_ll_dma.o
    0x00002be8   0x00002be8   0x00000084   Code   RO         1586    i.DMA_SetSrcRepeatSize  hc32_ll_dma.o
    0x00002c6c   0x00002c6c   0x00000074   Code   RO         1587    i.DMA_SetTransCount  hc32_ll_dma.o
    0x00002ce0   0x00002ce0   0x00000022   Code   RO         1588    i.DMA_StructInit    hc32_ll_dma.o
    0x00002d02   0x00002d02   0x00000002   PAD
    0x00002d04   0x00002d04   0x000000cc   Code   RO           88    i.Dac_Config        main.o
    0x00002dd0   0x00002dd0   0x00000070   Code   RO         1870    i.EFM_CacheRamReset  hc32_ll_efm.o
    0x00002e40   0x00002e40   0x00000070   Code   RO         1871    i.EFM_ClearStatus   hc32_ll_efm.o
    0x00002eb0   0x00002eb0   0x00000070   Code   RO         1873    i.EFM_DCacheCmd     hc32_ll_efm.o
    0x00002f20   0x00002f20   0x0000006c   Code   RO         1874    i.EFM_FWMC_Cmd      hc32_ll_efm.o
    0x00002f8c   0x00002f8c   0x00000064   Code   RO         1879    i.EFM_GetStatus     hc32_ll_efm.o
    0x00002ff0   0x00002ff0   0x00000070   Code   RO         1883    i.EFM_ICacheCmd     hc32_ll_efm.o
    0x00003060   0x00003060   0x00000070   Code   RO         1890    i.EFM_PrefetchCmd   hc32_ll_efm.o
    0x000030d0   0x000030d0   0x0000012c   Code   RO         1892    i.EFM_ProgramWord   hc32_ll_efm.o
    0x000031fc   0x000031fc   0x0000011c   Code   RO         1902    i.EFM_SectorErase   hc32_ll_efm.o
    0x00003318   0x00003318   0x000000ac   Code   RO         1907    i.EFM_SetWaitCycle  hc32_ll_efm.o
    0x000033c4   0x000033c4   0x00000090   Code   RO         1908    i.EFM_SingleSectorOperateCmd  hc32_ll_efm.o
    0x00003454   0x00003454   0x0000002c   Code   RO         1910    i.EFM_WaitFlag      hc32_ll_efm.o
    0x00003480   0x00003480   0x000000b0   Code   RO         2144    i.EMB_ClearStatus   hc32_ll_emb.o
    0x00003530   0x00003530   0x00000498   Code   RO         2147    i.EMB_HRPWM_Init    hc32_ll_emb.o
    0x000039c8   0x000039c8   0x00000070   Code   RO         2148    i.EMB_HRPWM_StructInit  hc32_ll_emb.o
    0x00003a38   0x00003a38   0x000000cc   Code   RO         2151    i.EMB_SetReleasePwmCond  hc32_ll_emb.o
    0x00003b04   0x00003b04   0x00000030   Code   RO         4885    i.EXTINT00_SWINT16_Handler  ev_hc32f334_lqfp64.o
    0x00003b34   0x00003b34   0x00000030   Code   RO         4886    i.EXTINT03_SWINT19_Handler  ev_hc32f334_lqfp64.o
    0x00003b64   0x00003b64   0x00000034   Code   RO         4887    i.EXTINT09_SWINT25_Handler  ev_hc32f334_lqfp64.o
    0x00003b98   0x00003b98   0x0000005c   Code   RO         3297    i.EXTINT_ClearExtIntStatus  hc32_ll_interrupts.o
    0x00003bf4   0x00003bf4   0x00000178   Code   RO           89    i.Emb_Config        main.o
    0x00003d6c   0x00003d6c   0x00000084   Code   RO         2324    i.FCG_Fcg0PeriphClockCmd  hc32_ll_fcg.o
    0x00003df0   0x00003df0   0x00000074   Code   RO         2326    i.FCG_Fcg2PeriphClockCmd  hc32_ll_fcg.o
    0x00003e64   0x00003e64   0x00000074   Code   RO         2327    i.FCG_Fcg3PeriphClockCmd  hc32_ll_fcg.o
    0x00003ed8   0x00003ed8   0x000000b0   Code   RO         2450    i.GPIO_AnalogCmd    hc32_ll_gpio.o
    0x00003f88   0x00003f88   0x0000013e   Code   RO           90    i.GPIO_Config       main.o
    0x000040c6   0x000040c6   0x00000002   PAD
    0x000040c8   0x000040c8   0x00000088   Code   RO         2453    i.GPIO_HrpwmPinCmd  hc32_ll_gpio.o
    0x00004150   0x00004150   0x000001dc   Code   RO         2455    i.GPIO_Init         hc32_ll_gpio.o
    0x0000432c   0x0000432c   0x0000007c   Code   RO         2458    i.GPIO_ReadInputPins  hc32_ll_gpio.o
    0x000043a8   0x000043a8   0x0000008c   Code   RO         2463    i.GPIO_SetDebugPort  hc32_ll_gpio.o
    0x00004434   0x00004434   0x000000c4   Code   RO         2464    i.GPIO_SetFunc      hc32_ll_gpio.o
    0x000044f8   0x000044f8   0x0000009c   Code   RO         2466    i.GPIO_SetReadWaitCycle  hc32_ll_gpio.o
    0x00004594   0x00004594   0x00000028   Code   RO         2468    i.GPIO_StructInit   hc32_ll_gpio.o
    0x000045bc   0x000045bc   0x00000012   Code   RO         2602    i.HRPWM_BufStructInit  hc32_ll_hrpwm.o
    0x000045ce   0x000045ce   0x00000002   PAD
    0x000045d0   0x000045d0   0x0000006c   Code   RO         2603    i.HRPWM_CALIB_ClearFlag  hc32_ll_hrpwm.o
    0x0000463c   0x0000463c   0x00000060   Code   RO         2604    i.HRPWM_CALIB_GetStatus  hc32_ll_hrpwm.o
    0x0000469c   0x0000469c   0x00000018   Code   RO         2605    i.HRPWM_CALIB_PeriodDisable  hc32_ll_hrpwm.o
    0x000046b4   0x000046b4   0x00000078   Code   RO         2607    i.HRPWM_CALIB_ProcessSingle  hc32_ll_hrpwm.o
    0x0000472c   0x0000472c   0x00000018   Code   RO         2608    i.HRPWM_CALIB_SingleDisable  hc32_ll_hrpwm.o
    0x00004744   0x00004744   0x00000078   Code   RO         2609    i.HRPWM_CommonDeInit  hc32_ll_hrpwm.o
    0x000047bc   0x000047bc   0x0000035c   Code   RO           91    i.HRPWM_Config      main.o
    0x00004b18   0x00004b18   0x00000090   Code   RO           92    i.HRPWM_CountStart  main.o
    0x00004ba8   0x00004ba8   0x000001a0   Code   RO         2613    i.HRPWM_DeInit      hc32_ll_hrpwm.o
    0x00004d48   0x00004d48   0x00000100   Code   RO         2614    i.HRPWM_DeadTimeBufConfig  hc32_ll_hrpwm.o
    0x00004e48   0x00004e48   0x000000e0   Code   RO         2615    i.HRPWM_DeadTimeConfig  hc32_ll_hrpwm.o
    0x00004f28   0x00004f28   0x00000090   Code   RO           93    i.HRPWM_DeadTimeEnable  main.o
    0x00004fb8   0x00004fb8   0x00000012   Code   RO         2616    i.HRPWM_DeadTimeStructInit  hc32_ll_hrpwm.o
    0x00004fca   0x00004fca   0x00000002   PAD
    0x00004fcc   0x00004fcc   0x00000118   Code   RO         2617    i.HRPWM_EMB_ChAConfig  hc32_ll_hrpwm.o
    0x000050e4   0x000050e4   0x00000118   Code   RO         2619    i.HRPWM_EMB_ChBConfig  hc32_ll_hrpwm.o
    0x000051fc   0x000051fc   0x00000012   Code   RO         2621    i.HRPWM_EMB_StructInit  hc32_ll_hrpwm.o
    0x0000520e   0x0000520e   0x00000002   PAD
    0x00005210   0x00005210   0x00000090   Code   RO           94    i.HRPWM_Enable      main.o
    0x000052a0   0x000052a0   0x00000090   Code   RO           95    i.HRPWM_HalfWaveModeEnable  main.o
    0x00005330   0x00005330   0x00000194   Code   RO         2632    i.HRPWM_IDLE_BM_Init  hc32_ll_hrpwm.o
    0x000054c4   0x000054c4   0x000000e4   Code   RO         2633    i.HRPWM_IDLE_BM_OutputInit  hc32_ll_hrpwm.o
    0x000055a8   0x000055a8   0x00000018   Code   RO         2634    i.HRPWM_IDLE_BM_OutputStructInit  hc32_ll_hrpwm.o
    0x000055c0   0x000055c0   0x0000001c   Code   RO         2635    i.HRPWM_IDLE_BM_StructInit  hc32_ll_hrpwm.o
    0x000055dc   0x000055dc   0x000000d4   Code   RO         2638    i.HRPWM_Init        hc32_ll_hrpwm.o
    0x000056b0   0x000056b0   0x000000f0   Code   RO         2639    i.HRPWM_PH_Config   hc32_ll_hrpwm.o
    0x000057a0   0x000057a0   0x00000088   Code   RO           96    i.HRPWM_PH_Enable   main.o
    0x00005828   0x00005828   0x00000014   Code   RO         2640    i.HRPWM_PH_StructInit  hc32_ll_hrpwm.o
    0x0000583c   0x0000583c   0x000002f8   Code   RO         2641    i.HRPWM_PWM_ChAInit  hc32_ll_hrpwm.o
    0x00005b34   0x00005b34   0x00000090   Code   RO           97    i.HRPWM_PWM_ChAOutputEnable  main.o
    0x00005bc4   0x00005bc4   0x00000090   Code   RO           98    i.HRPWM_PWM_ChBOutputEnable  main.o
    0x00005c54   0x00005c54   0x000000f0   Code   RO         2645    i.HRPWM_PWM_OutputInit  hc32_ll_hrpwm.o
    0x00005d44   0x00005d44   0x00000014   Code   RO         2647    i.HRPWM_PWM_OutputStructInit  hc32_ll_hrpwm.o
    0x00005d58   0x00005d58   0x00000034   Code   RO         2648    i.HRPWM_PWM_StructInit  hc32_ll_hrpwm.o
    0x00005d8c   0x00005d8c   0x000000a4   Code   RO           99    i.HRPWM_SetDeadTimeUpValue  main.o
    0x00005e30   0x00005e30   0x000000a4   Code   RO          100    i.HRPWM_SetDeadTimeUpValue_Buf  main.o
    0x00005ed4   0x00005ed4   0x0000001c   Code   RO         2654    i.HRPWM_StructInit  hc32_ll_hrpwm.o
    0x00005ef0   0x00005ef0   0x000001f4   Code   RO          464    i.HVCur_Cali_Rootine  dab_calibration.o
    0x000060e4   0x000060e4   0x000001f8   Code   RO          465    i.HVVol_Cali_Rootine  dab_calibration.o
    0x000062dc   0x000062dc   0x00000014   Code   RO         3311    i.IRQ000_Handler    hc32_ll_interrupts.o
    0x000062f0   0x000062f0   0x00000014   Code   RO         3312    i.IRQ001_Handler    hc32_ll_interrupts.o
    0x00006304   0x00006304   0x00000014   Code   RO         3313    i.IRQ002_Handler    hc32_ll_interrupts.o
    0x00006318   0x00006318   0x00000014   Code   RO         3314    i.IRQ003_Handler    hc32_ll_interrupts.o
    0x0000632c   0x0000632c   0x00000014   Code   RO         3315    i.IRQ004_Handler    hc32_ll_interrupts.o
    0x00006340   0x00006340   0x00000014   Code   RO         3316    i.IRQ005_Handler    hc32_ll_interrupts.o
    0x00006354   0x00006354   0x00000014   Code   RO         3317    i.IRQ006_Handler    hc32_ll_interrupts.o
    0x00006368   0x00006368   0x00000014   Code   RO         3318    i.IRQ007_Handler    hc32_ll_interrupts.o
    0x0000637c   0x0000637c   0x00000014   Code   RO         3319    i.IRQ008_Handler    hc32_ll_interrupts.o
    0x00006390   0x00006390   0x00000014   Code   RO         3320    i.IRQ009_Handler    hc32_ll_interrupts.o
    0x000063a4   0x000063a4   0x00000014   Code   RO         3321    i.IRQ010_Handler    hc32_ll_interrupts.o
    0x000063b8   0x000063b8   0x00000014   Code   RO         3322    i.IRQ011_Handler    hc32_ll_interrupts.o
    0x000063cc   0x000063cc   0x00000014   Code   RO         3323    i.IRQ012_Handler    hc32_ll_interrupts.o
    0x000063e0   0x000063e0   0x00000014   Code   RO         3324    i.IRQ013_Handler    hc32_ll_interrupts.o
    0x000063f4   0x000063f4   0x00000014   Code   RO         3325    i.IRQ014_Handler    hc32_ll_interrupts.o
    0x00006408   0x00006408   0x00000014   Code   RO         3326    i.IRQ015_Handler    hc32_ll_interrupts.o
    0x0000641c   0x0000641c   0x0000006c   Code   RO          382    i.LED_Control       dab_main.o
    0x00006488   0x00006488   0x00000074   Code   RO          550    i.LL_PERIPH_WE      hc32_ll.o
    0x000064fc   0x000064fc   0x000001f8   Code   RO          466    i.LVCur_Cali_Rootine  dab_calibration.o
    0x000066f4   0x000066f4   0x000001f4   Code   RO          467    i.LVVol_Cali_Rootine  dab_calibration.o
    0x000068e8   0x000068e8   0x000001e4   Code   RO         5054    i.LoopCtrl_NegDir   DP_F334_DAB_Ctrl_lib.lib(dab_control.o)
    0x00006acc   0x00006acc   0x000001d0   Code   RO         5060    i.LoopCtrl_PosDir   DP_F334_DAB_Ctrl_lib.lib(dab_control.o)
    0x00006c9c   0x00006c9c   0x000000d0   Code   RO         5042    i.Modulate_1Ph_Calc  DP_F334_DAB_Ctrl_lib.lib(dab_control.o)
    0x00006d6c   0x00006d6c   0x000002d0   Code   RO         5030    i.Modulate_3Ph_Calc  DP_F334_DAB_Ctrl_lib.lib(dab_control.o)
    0x0000703c   0x0000703c   0x00000078   Code   RO         5036    i.PI_Calc           DP_F334_DAB_Ctrl_lib.lib(dab_control.o)
    0x000070b4   0x000070b4   0x000000cc   Code   RO          394    i.PowerLimit_cal    dab_main.o
    0x00007180   0x00007180   0x00000020   Code   RO          377    i.Power_Dir_Read    dab_main.o
    0x000071a0   0x000071a0   0x00000088   Code   RO          468    i.Read_CalPar       dab_calibration.o
    0x00007228   0x00007228   0x0000006c   Code   RO         5048    i.RefRamp_Calc      DP_F334_DAB_Ctrl_lib.lib(dab_control.o)
    0x00007294   0x00007294   0x000001f8   Code   RO          920    i.SetSysClockDiv    hc32_ll_clk.o
    0x0000748c   0x0000748c   0x000000f8   Code   RO          921    i.SetSysClockSrc    hc32_ll_clk.o
    0x00007584   0x00007584   0x000001c8   Code   RO         4334    i.SmartCard_CalculateBrr  hc32_ll_usart.o
    0x0000774c   0x0000774c   0x0000008c   Code   RO           13    i.SystemCoreClockUpdate  system_hc32f334.o
    0x000077d8   0x000077d8   0x00000020   Code   RO           14    i.SystemInit        system_hc32f334.o
    0x000077f8   0x000077f8   0x00000274   Code   RO          469    i.System_Calib_Statemachine  dab_calibration.o
    0x00007a6c   0x00007a6c   0x00000048   Code   RO         5072    i.Timer_Counter     DP_F334_DAB_Ctrl_lib.lib(dab_control.o)
    0x00007ab4   0x00007ab4   0x000001d0   Code   RO         4335    i.UART_CalculateBrr  hc32_ll_usart.o
    0x00007c84   0x00007c84   0x00000114   Code   RO         4345    i.USART_FuncCmd     hc32_ll_usart.o
    0x00007d98   0x00007d98   0x00000018   Code   RO         4346    i.USART_GetBusClockFreq  hc32_ll_usart.o
    0x00007db0   0x00007db0   0x00000090   Code   RO         4353    i.USART_GetStatus   hc32_ll_usart.o
    0x00007e40   0x00007e40   0x00000060   Code   RO         4355    i.USART_GetUsartClockFreq  hc32_ll_usart.o
    0x00007ea0   0x00007ea0   0x000000d4   Code   RO         4358    i.USART_LIN_GetMeasureBaudrate  hc32_ll_usart.o
    0x00007f74   0x00007f74   0x0000010c   Code   RO         4372    i.USART_SetBaudrate  hc32_ll_usart.o
    0x00008080   0x00008080   0x000000a0   Code   RO         4373    i.USART_SetClockDiv  hc32_ll_usart.o
    0x00008120   0x00008120   0x00000198   Code   RO         4390    i.USART_UART_Init   hc32_ll_usart.o
    0x000082b8   0x000082b8   0x0000002c   Code   RO         4392    i.USART_UART_StructInit  hc32_ll_usart.o
    0x000082e4   0x000082e4   0x00000044   Code   RO          334    i.Usart2_TxEnable   dab_main.o
    0x00008328   0x00008328   0x00000094   Code   RO          101    i.Usart_init        main.o
    0x000083bc   0x000083bc   0x00000026   Code   RO          102    i.WDT_Config        main.o
    0x000083e2   0x000083e2   0x00000002   PAD
    0x000083e4   0x000083e4   0x00000014   Code   RO         4827    i.WDT_FeedDog       hc32_ll_wdt.o
    0x000083f8   0x000083f8   0x00000144   Code   RO         4829    i.WDT_Init          hc32_ll_wdt.o
    0x0000853c   0x0000853c   0x000000c0   Code   RO          470    i.Write_CalPar      dab_calibration.o
    0x000085fc   0x000085fc   0x00000020   Code   RO         5315    i.__0printf$3       mc_w.l(printf3.o)
    0x0000861c   0x0000861c   0x0000000e   Code   RO         5535    i.__scatterload_copy  mc_w.l(handlers.o)
    0x0000862a   0x0000862a   0x00000002   Code   RO         5536    i.__scatterload_null  mc_w.l(handlers.o)
    0x0000862c   0x0000862c   0x0000000e   Code   RO         5537    i.__scatterload_zeroinit  mc_w.l(handlers.o)
    0x0000863a   0x0000863a   0x00000002   PAD
    0x0000863c   0x0000863c   0x000001b8   Code   RO         5322    i._printf_core      mc_w.l(printf3.o)
    0x000087f4   0x000087f4   0x0000014c   Code   RO          371    i.comm_uart         dab_main.o
    0x00008940   0x00008940   0x00000016   Code   RO         4741    i.fputc             hc32_ll_utility.o
    0x00008956   0x00008956   0x00000002   PAD
    0x00008958   0x00008958   0x000000b4   Code   RO          103    i.main              main.o
    0x00008a0c   0x00008a0c   0x00000164   Code   RO          471    i.message_decimal   dab_calibration.o
    0x00008b70   0x00008b70   0x00000140   Code   RO          472    i.message_fraction  dab_calibration.o
    0x00008cb0   0x00008cb0   0x00000008   Data   RO         1414    .constdata          hc32_ll_dac.o
    0x00008cb8   0x00008cb8   0x00000020   Data   RO         4397    .constdata          hc32_ll_usart.o
    0x00008cd8   0x00008cd8   0x00000020   Data   RO         5533    Region$$Table       anon$$obj.o


    Execution Region RW_IRAM1 (Exec base: 0x1fffc000, Load base: 0x00008cf8, Size: 0x00000008, Max: 0x00000008, ABSOLUTE, UNINIT)

    Exec Addr    Load Addr    Size         Type   Attr      Idx    E Section Name        Object

    0x1fffc000        -       0x00000008   Zero   RW           15    .bss.noinit         system_hc32f334.o


    Execution Region RW_IRAM2 (Exec base: 0x1fffc008, Load base: 0x00008cf8, Size: 0x00001570, Max: 0x00007ff8, ABSOLUTE, COMPRESSED[0x000002b8])

    Exec Addr    Load Addr    Size         Type   Attr      Idx    E Section Name        Object

    0x1fffc008   COMPRESSED   0x0000003a   Data   RW          104    .data               main.o
    0x1fffc042   COMPRESSED   0x00000002   PAD
    0x1fffc044   COMPRESSED   0x00000038   Data   RW          340    .data               dab_main.o
    0x1fffc07c   COMPRESSED   0x0000001a   Data   RW          434    .data               dab_protect.o
    0x1fffc096   COMPRESSED   0x00000002   PAD
    0x1fffc098   COMPRESSED   0x000006d6   Data   RW          473    .data               dab_calibration.o
    0x1fffc76e   COMPRESSED   0x00000002   PAD
    0x1fffc770   COMPRESSED   0x00000010   Data   RW         4742    .data               hc32_ll_utility.o
    0x1fffc780   COMPRESSED   0x00000004   Data   RW         4889    .data               ev_hc32f334_lqfp64.o
    0x1fffc784   COMPRESSED   0x000001a0   Data   RW         5009    .data               DP_F334_DAB_Ctrl_lib.lib(dab_control.o)
    0x1fffc924   COMPRESSED   0x00000002   Data   RW         5011    .data               DP_F334_DAB_Ctrl_lib.lib(dab_control.o)
    0x1fffc926   COMPRESSED   0x00000002   PAD
    0x1fffc928   COMPRESSED   0x00000004   Data   RW         5511    .data               mc_w.l(stdout.o)
    0x1fffc92c        -       0x0000000c   Zero   RW          335    .bss                dab_main.o
    0x1fffc938        -       0x00000040   Zero   RW         3332    .bss                hc32_ll_interrupts.o
    0x1fffc978        -       0x00000c00   Zero   RW            1    STACK               startup_hc32f334.o


    Execution Region RW_IRAMB (Exec base: 0x200f0000, Load base: 0x00008fb0, Size: 0x00000000, Max: 0x00001000, ABSOLUTE)

    **** No section assigned to this execution region ****


==============================================================================

Image component sizes


      Code (inc. data)   RO Data    RW Data    ZI Data      Debug   Object Name

      3728        410          0       1750          0      20891   dab_calibration.o
      1588        262          0         56         12       9929   dab_main.o
      1004         94          0         26          0       4089   dab_protect.o
       318         28          0          4          0       5677   ev_hc32f334_lqfp64.o
       116         26          0          0          0      14503   hc32_ll.o
      1002        418          0          0          0       9954   hc32_ll_adc.o
       284         62          0          0          0        881   hc32_ll_aos.o
      2060        482          0          0          0      17034   hc32_ll_clk.o
       712        218          0          0          0       7316   hc32_ll_cmp.o
       992        406          8          0          0       7434   hc32_ll_dac.o
      1336        548          0          0          0      12262   hc32_ll_dma.o
      1712        742          0          0          0      12331   hc32_ll_efm.o
      1668        212          0          0          0      11206   hc32_ll_emb.o
       364        192          0          0          0       2315   hc32_ll_fcg.o
      1444        426          0          0          0      10622   hc32_ll_gpio.o
      4258       1038          0          0          0      93496   hc32_ll_hrpwm.o
         0          0         96          0          0        806   hc32_ll_icg.o
       412        162          0          0         64      13219   hc32_ll_interrupts.o
      2948        758         32          0          0      16767   hc32_ll_usart.o
       278         76          0         16          0       4944   hc32_ll_utility.o
       344         68          0          0          0       3265   hc32_ll_wdt.o
      4020        912          0         58          0     194893   main.o
        36          8        648          0       3072        900   startup_hc32f334.o
       172         40          0          0          8     394257   system_hc32f334.o

    ----------------------------------------------------------------------
     30816       7588        816       1916       3156     868991   Object Totals
         0          0         32          0          0          0   (incl. Generated)
        20          0          0          6          0          0   (incl. Padding)

    ----------------------------------------------------------------------

      Code (inc. data)   RO Data    RW Data    ZI Data      Debug   Library Member Name

      2928        242          0        418          0      13564   dab_control.o
        94          0          0          0          0          0   __dclz77c.o
         0          0          0          0          0          0   entry.o
         0          0          0          0          0          0   entry10a.o
         0          0          0          0          0          0   entry11a.o
         4          0          0          0          0          0   entry12b.o
         8          4          0          0          0          0   entry2.o
         4          0          0          0          0          0   entry5.o
         0          0          0          0          0          0   entry7b.o
         0          0          0          0          0          0   entry8b.o
         8          4          0          0          0          0   entry9a.o
        30          0          0          0          0          0   handlers.o
        36          8          0          0          0         68   init.o
         0          0          0          0          0          0   iusefp.o
        30          0          0          0          0         68   llshl.o
        32          0          0          0          0         68   llushr.o
       472         14          0          0          0        184   printf3.o
         0          0          0          4          0          0   stdout.o
        24          0          0          0          0         68   strcat.o
        14          0          0          0          0         68   strlen.o
        44          0          0          0          0         80   uidiv.o
        98          0          0          0          0         92   uldiv.o
        56          0          0          0          0         88   d2f.o
       222          0          0          0          0        100   ddiv.o
       186          0          0          0          0        176   depilogue.o
        26          0          0          0          0         76   dfltui.o
        24          0          0          0          0         76   dfltul.o
       110          0          0          0          0        168   fepilogue.o

    ----------------------------------------------------------------------
      4456        272          0        424          0      14944   Library Totals
         6          0          0          2          0          0   (incl. Padding)

    ----------------------------------------------------------------------

      Code (inc. data)   RO Data    RW Data    ZI Data      Debug   Library Name

      2928        242          0        418          0      13564   DP_F334_DAB_Ctrl_lib.lib
       898         30          0          4          0        696   mc_w.l
       624          0          0          0          0        684   mf_w.l

    ----------------------------------------------------------------------
      4456        272          0        424          0      14944   Library Totals

    ----------------------------------------------------------------------

==============================================================================


      Code (inc. data)   RO Data    RW Data    ZI Data      Debug   

     35272       7860        816       2340       3156     865195   Grand Totals
     35272       7860        816        696       3156     865195   ELF Image Totals (compressed)
     35272       7860        816        696          0          0   ROM Totals

==============================================================================

    Total RO  Size (Code + RO Data)                36088 (  35.24kB)
    Total RW  Size (RW Data + ZI Data)              5496 (   5.37kB)
    Total ROM Size (Code + RO Data + RW Data)      36784 (  35.92kB)

==============================================================================

