


ARM Macro Assembler    Page 1 


    1 00000000         ;/**
    2 00000000         ; ******************************************************
                       ************************
    3 00000000         ;  @file  startup_hc32f334.s
    4 00000000         ;  @brief Startup for MDK.
    5 00000000         ; verbatim
    6 00000000         ;  Change Logs:
    7 00000000         ;  Date             Author          Notes
    8 00000000         ;  2024-01-15       CDT             First version
    9 00000000         ; endverbatim
   10 00000000         ; ******************************************************
                       ***********************
   11 00000000         ; * Copyright (C) 2022-2024, Xiaohua Semiconductor Co., 
                       Ltd. All rights reserved.
   12 00000000         ; *
   13 00000000         ; * This software component is licensed by XHSC under BS
                       D 3-Clause license
   14 00000000         ; * (the "License"); You may not use this file except in
                        compliance with the
   15 00000000         ; * License. You may obtain a copy of the License at:
   16 00000000         ; *                    opensource.org/licenses/BSD-3-Cla
                       use
   17 00000000         ; *
   18 00000000         ; ******************************************************
                       ************************
   19 00000000         ; */
   20 00000000         
   21 00000000         ; Stack Configuration
   22 00000000         ; Stack Size (in Bytes) <0x0-0xFFFFFFFF:8>
   23 00000000         
   24 00000000 00000C00 
                       Stack_Size
                               EQU              0x00000C00
   25 00000000         
   26 00000000                 AREA             STACK, NOINIT, READWRITE, ALIGN
=3
   27 00000000         Stack_Mem
                               SPACE            Stack_Size
   28 00000C00         __initial_sp
   29 00000C00         
   30 00000C00         
   31 00000C00         ; Heap Configuration
   32 00000C00         ;  Heap Size (in Bytes) <0x0-0xFFFFFFFF:8>
   33 00000C00         
   34 00000C00 00000400 
                       Heap_Size
                               EQU              0x00000400
   35 00000C00         
   36 00000C00                 AREA             HEAP, NOINIT, READWRITE, ALIGN=
3
   37 00000000         __heap_base
   38 00000000         Heap_Mem
                               SPACE            Heap_Size
   39 00000400         __heap_limit
   40 00000400         
   41 00000400                 PRESERVE8
   42 00000400                 THUMB
   43 00000400         
   44 00000400         ; Vector Table Mapped to Address 0 at Reset



ARM Macro Assembler    Page 2 


   45 00000400         
   46 00000400                 AREA             RESET, DATA, READONLY
   47 00000000                 EXPORT           __Vectors
   48 00000000                 EXPORT           __Vectors_End
   49 00000000                 EXPORT           __Vectors_Size
   50 00000000         
   51 00000000 00000000 
                       __Vectors
                               DCD              __initial_sp ; Top of Stack
   52 00000004 00000000        DCD              Reset_Handler ; Reset Handler
   53 00000008 00000000        DCD              NMI_Handler ; NMI Handler
   54 0000000C 00000000        DCD              HardFault_Handler ; Hard Fault 
                                                            Handler
   55 00000010 00000000        DCD              MemManage_Handler 
                                                            ; MPU Fault Handler
                                                            
   56 00000014 00000000        DCD              BusFault_Handler 
                                                            ; Bus Fault Handler
                                                            
   57 00000018 00000000        DCD              UsageFault_Handler ; Usage Faul
                                                            t Handler
   58 0000001C 00000000        DCD              0           ; Reserved
   59 00000020 00000000        DCD              0           ; Reserved
   60 00000024 00000000        DCD              0           ; Reserved
   61 00000028 00000000        DCD              0           ; Reserved
   62 0000002C 00000000        DCD              SVC_Handler ; SVCall Handler
   63 00000030 00000000        DCD              DebugMon_Handler ; Debug Monito
                                                            r Handler
   64 00000034 00000000        DCD              0           ; Reserved
   65 00000038 00000000        DCD              PendSV_Handler ; PendSV Handler
                                                            
   66 0000003C 00000000        DCD              SysTick_Handler 
                                                            ; SysTick Handler
   67 00000040         
   68 00000040         ; Peripheral Interrupts
   69 00000040 00000000        DCD              IRQ000_Handler
   70 00000044 00000000        DCD              IRQ001_Handler
   71 00000048 00000000        DCD              IRQ002_Handler
   72 0000004C 00000000        DCD              IRQ003_Handler
   73 00000050 00000000        DCD              IRQ004_Handler
   74 00000054 00000000        DCD              IRQ005_Handler
   75 00000058 00000000        DCD              IRQ006_Handler
   76 0000005C 00000000        DCD              IRQ007_Handler
   77 00000060 00000000        DCD              IRQ008_Handler
   78 00000064 00000000        DCD              IRQ009_Handler
   79 00000068 00000000        DCD              IRQ010_Handler
   80 0000006C 00000000        DCD              IRQ011_Handler
   81 00000070 00000000        DCD              IRQ012_Handler
   82 00000074 00000000        DCD              IRQ013_Handler
   83 00000078 00000000        DCD              IRQ014_Handler
   84 0000007C 00000000        DCD              IRQ015_Handler
   85 00000080 00000000        DCD              EXTINT00_SWINT16_Handler
   86 00000084 00000000        DCD              EXTINT01_SWINT17_Handler
   87 00000088 00000000        DCD              EXTINT02_SWINT18_Handler
   88 0000008C 00000000        DCD              EXTINT03_SWINT19_Handler
   89 00000090 00000000        DCD              EXTINT04_SWINT20_Handler
   90 00000094 00000000        DCD              EXTINT05_SWINT21_Handler
   91 00000098 00000000        DCD              EXTINT06_SWINT22_Handler
   92 0000009C 00000000        DCD              EXTINT07_SWINT23_Handler



ARM Macro Assembler    Page 3 


   93 000000A0 00000000        DCD              EXTINT08_SWINT24_Handler
   94 000000A4 00000000        DCD              EXTINT09_SWINT25_Handler
   95 000000A8 00000000        DCD              EXTINT10_SWINT26_Handler
   96 000000AC 00000000        DCD              EXTINT11_SWINT27_Handler
   97 000000B0 00000000        DCD              EXTINT12_SWINT28_Handler
   98 000000B4 00000000        DCD              EXTINT13_SWINT29_Handler
   99 000000B8 00000000        DCD              EXTINT14_SWINT30_Handler
  100 000000BC 00000000        DCD              EXTINT15_SWINT31_Handler
  101 000000C0 00000000        DCD              DMA_Error_Handler
  102 000000C4 00000000        DCD              DMA_TC0_BTC0_Handler
  103 000000C8 00000000        DCD              DMA_TC1_BTC1_Handler
  104 000000CC 00000000        DCD              DMA_TC2_BTC2_Handler
  105 000000D0 00000000        DCD              DMA_TC3_BTC3_Handler
  106 000000D4 00000000        DCD              DMA_TC4_BTC4_Handler
  107 000000D8 00000000        DCD              DMA_TC5_BTC5_Handler
  108 000000DC 00000000        DCD              DMA_TC6_BTC6_Handler
  109 000000E0 00000000        DCD              DMA_TC7_BTC7_Handler
  110 000000E4 00000000        DCD              EFM_PEError_ReadCol_Handler
  111 000000E8 00000000        DCD              EFM_OpEnd_Handler
  112 000000EC 00000000        DCD              FPU_Error_Handler
  113 000000F0 00000000        DCD              TMR0_1_Handler
  114 000000F4 00000000        DCD              TMR0_2_Handler
  115 000000F8 00000000        DCD              RTC_Handler
  116 000000FC 00000000        DCD              CLK_XtalStop_Handler
  117 00000100 00000000        DCD              PWC_WKTM_Handler
  118 00000104 00000000        DCD              SWDT_Handler
  119 00000108 00000000        DCD              TMR6_1_GCmp_Handler
  120 0000010C 00000000        DCD              TMR6_1_Ovf_Udf_Handler
  121 00000110 00000000        DCD              TMR6_1_Dte_Handler
  122 00000114 00000000        DCD              TMR6_1_SCmp_Handler
  123 00000118 00000000        DCD              TMRA_1_Ovf_Udf_Handler
  124 0000011C 00000000        DCD              TMRA_1_Cmp_Handler
  125 00000120 00000000        DCD              TMR6_2_GCmp_Handler
  126 00000124 00000000        DCD              TMR6_2_Ovf_Udf_Handler
  127 00000128 00000000        DCD              TMR6_2_Dte_Handler
  128 0000012C 00000000        DCD              TMR6_2_SCmp_Handler
  129 00000130 00000000        DCD              TMRA_2_Ovf_Udf_Handler
  130 00000134 00000000        DCD              TMRA_2_Cmp_Handler
  131 00000138 00000000        DCD              TMR6_3_GCmp_Handler
  132 0000013C 00000000        DCD              TMR6_3_Ovf_Udf_Handler
  133 00000140 00000000        DCD              TMR6_3_Dte_Handler
  134 00000144 00000000        DCD              TMR6_3_SCmp_Handler
  135 00000148 00000000        DCD              TMRA_3_Ovf_Udf_Handler
  136 0000014C 00000000        DCD              TMRA_3_Cmp_Handler
  137 00000150 00000000        DCD              TMR6_4_GCmp_Handler
  138 00000154 00000000        DCD              TMR6_4_Ovf_Udf_Handler
  139 00000158 00000000        DCD              TMR6_4_Dte_Handler
  140 0000015C 00000000        DCD              TMR6_4_SCmp_Handler
  141 00000160 00000000        DCD              TMRA_4_Ovf_Udf_Handler
  142 00000164 00000000        DCD              TMRA_4_Cmp_Handler
  143 00000168 00000000        DCD              HRPWM_1_GCmp_Handler
  144 0000016C 00000000        DCD              HRPWM_1_Ovf_Udf_Handler
  145 00000170 00000000        DCD              HRPWM_1_SCmp_Handler
  146 00000174 00000000        DCD              HRPWM_1_GCap_Handler
  147 00000178 00000000        DCD              HRPWM_2_GCmp_Handler
  148 0000017C 00000000        DCD              HRPWM_2_Ovf_Udf_Handler
  149 00000180 00000000        DCD              HRPWM_2_SCmp_Handler
  150 00000184 00000000        DCD              HRPWM_2_GCap_Handler
  151 00000188 00000000        DCD              HRPWM_Handler



ARM Macro Assembler    Page 4 


  152 0000018C 00000000        DCD              EMB_GR0_Handler
  153 00000190 00000000        DCD              EMB_GR1_Handler
  154 00000194 00000000        DCD              EMB_GR2_Handler
  155 00000198 00000000        DCD              EMB_GR3_Handler
  156 0000019C 00000000        DCD              HRPWM_3_GCmp_Handler
  157 000001A0 00000000        DCD              HRPWM_3_Ovf_Udf_Handler
  158 000001A4 00000000        DCD              HRPWM_3_SCmp_Handler
  159 000001A8 00000000        DCD              HRPWM_3_GCap_Handler
  160 000001AC 00000000        DCD              HRPWM_4_GCmp_Handler
  161 000001B0 00000000        DCD              HRPWM_4_Ovf_Udf_Handler
  162 000001B4 00000000        DCD              HRPWM_4_SCmp_Handler
  163 000001B8 00000000        DCD              HRPWM_4_GCap_Handler
  164 000001BC 00000000        DCD              EMB_GR4_Handler
  165 000001C0 00000000        DCD              EMB_GR5_Handler
  166 000001C4 00000000        DCD              EMB_GR6_Handler
  167 000001C8 00000000        DCD              EMB_GR7_Handler
  168 000001CC 00000000        DCD              EMB_GR8_Handler
  169 000001D0 00000000        DCD              HRPWM_5_GCmp_Handler
  170 000001D4 00000000        DCD              HRPWM_5_Ovf_Udf_Handler
  171 000001D8 00000000        DCD              HRPWM_5_SCmp_Handler
  172 000001DC 00000000        DCD              HRPWM_5_GCap_Handler
  173 000001E0 00000000        DCD              HRPWM_6_GCmp_Handler
  174 000001E4 00000000        DCD              HRPWM_6_Ovf_Udf_Handler
  175 000001E8 00000000        DCD              HRPWM_6_SCmp_Handler
  176 000001EC 00000000        DCD              HRPWM_6_GCap_Handler
  177 000001F0 00000000        DCD              MCANRAM_ECCError_Handler
  178 000001F4 00000000        DCD              MCAN1_INT0_Handler
  179 000001F8 00000000        DCD              MCAN1_INT1_Handler
  180 000001FC 00000000        DCD              MCAN2_INT0_Handler
  181 00000200 00000000        DCD              MCAN2_INT1_Handler
  182 00000204 00000000        DCD              TMR4_GCmp_Handler
  183 00000208 00000000        DCD              TMR4_Ovf_Udf_Handler
  184 0000020C 00000000        DCD              TMR4_Reload_Handler
  185 00000210 00000000        DCD              TMR4_SCmp_Handler
  186 00000214 00000000        DCD              CMP1_Handler
  187 00000218 00000000        DCD              CMP2_Handler
  188 0000021C 00000000        DCD              CMP3_Handler
  189 00000220 00000000        DCD              I2C_Handler
  190 00000224 00000000        DCD              USART1_Handler
  191 00000228 00000000        DCD              USART1_TCI_Handler
  192 0000022C 00000000        DCD              SPI_Handler
  193 00000230 00000000        DCD              TMRA_5_Ovf_Udf_Handler
  194 00000234 00000000        DCD              TMRA_5_Cmp_Handler
  195 00000238 00000000        DCD              EVENT_PORT1_Handler
  196 0000023C 00000000        DCD              EVENT_PORT2_Handler
  197 00000240 00000000        DCD              EVENT_PORT3_Handler
  198 00000244 00000000        DCD              EVENT_PORT4_Handler
  199 00000248 00000000        DCD              USART2_Handler
  200 0000024C 00000000        DCD              USART2_TxComplete_Handler
  201 00000250 00000000        DCD              USART3_Handler
  202 00000254 00000000        DCD              USART3_TxComplete_Handler
  203 00000258 00000000        DCD              USART4_Handler
  204 0000025C 00000000        DCD              USART4_TxComplete_Handler
  205 00000260 00000000        DCD              PLA_Handler
  206 00000264 00000000        DCD              USART1_WKUP_Handler
  207 00000268 00000000        DCD              PWC_LVD1_Handler
  208 0000026C 00000000        DCD              PWC_LVD2_Handler
  209 00000270 00000000        DCD              FCM_Handler
  210 00000274 00000000        DCD              WDT_Handler



ARM Macro Assembler    Page 5 


  211 00000278 00000000        DCD              CTC_Handler
  212 0000027C 00000000        DCD              ADC1_Handler
  213 00000280 00000000        DCD              ADC2_Handler
  214 00000284 00000000        DCD              ADC3_Handler
  215 00000288         
  216 00000288         __Vectors_End
  217 00000288         
  218 00000288 00000288 
                       __Vectors_Size
                               EQU              __Vectors_End - __Vectors
  219 00000288         
  220 00000288                 AREA             |.text|, CODE, READONLY
  221 00000000         
  222 00000000         ; Reset Handler
  223 00000000         
  224 00000000         Reset_Handler
                               PROC
  225 00000000                 EXPORT           Reset_Handler             [WEAK
]
  226 00000000                 IMPORT           SystemInit
  227 00000000                 IMPORT           __main
  228 00000000         
  229 00000000 4806            LDR              R0, =SystemInit
  230 00000002 4780            BLX              R0
  231 00000004 4806            LDR              R0, =__main
  232 00000006 4700            BX               R0
  233 00000008                 ENDP
  234 00000008         
  235 00000008         ; Dummy Exception Handlers (infinite loops which can be 
                       modified)
  236 00000008         
  237 00000008         NMI_Handler
                               PROC
  238 00000008                 EXPORT           NMI_Handler               [WEAK
]
  239 00000008 E7FE            B                .
  240 0000000A                 ENDP
  242 0000000A         HardFault_Handler
                               PROC
  243 0000000A                 EXPORT           HardFault_Handler         [WEAK
]
  244 0000000A E7FE            B                .
  245 0000000C                 ENDP
  247 0000000C         MemManage_Handler
                               PROC
  248 0000000C                 EXPORT           MemManage_Handler         [WEAK
]
  249 0000000C E7FE            B                .
  250 0000000E                 ENDP
  252 0000000E         BusFault_Handler
                               PROC
  253 0000000E                 EXPORT           BusFault_Handler          [WEAK
]
  254 0000000E E7FE            B                .
  255 00000010                 ENDP
  257 00000010         UsageFault_Handler
                               PROC
  258 00000010                 EXPORT           UsageFault_Handler        [WEAK
]



ARM Macro Assembler    Page 6 


  259 00000010 E7FE            B                .
  260 00000012                 ENDP
  261 00000012         SVC_Handler
                               PROC
  262 00000012                 EXPORT           SVC_Handler               [WEAK
]
  263 00000012 E7FE            B                .
  264 00000014                 ENDP
  266 00000014         DebugMon_Handler
                               PROC
  267 00000014                 EXPORT           DebugMon_Handler          [WEAK
]
  268 00000014 E7FE            B                .
  269 00000016                 ENDP
  270 00000016         PendSV_Handler
                               PROC
  271 00000016                 EXPORT           PendSV_Handler            [WEAK
]
  272 00000016 E7FE            B                .
  273 00000018                 ENDP
  274 00000018         SysTick_Handler
                               PROC
  275 00000018                 EXPORT           SysTick_Handler           [WEAK
]
  276 00000018 E7FE            B                .
  277 0000001A                 ENDP
  278 0000001A         
  279 0000001A         Default_Handler
                               PROC
  280 0000001A                 EXPORT           IRQ000_Handler                 
 [WEAK]
  281 0000001A                 EXPORT           IRQ001_Handler                 
 [WEAK]
  282 0000001A                 EXPORT           IRQ002_Handler                 
 [WEAK]
  283 0000001A                 EXPORT           IRQ003_Handler                 
 [WEAK]
  284 0000001A                 EXPORT           IRQ004_Handler                 
 [WEAK]
  285 0000001A                 EXPORT           IRQ005_Handler                 
 [WEAK]
  286 0000001A                 EXPORT           IRQ006_Handler                 
 [WEAK]
  287 0000001A                 EXPORT           IRQ007_Handler                 
 [WEAK]
  288 0000001A                 EXPORT           IRQ008_Handler                 
 [WEAK]
  289 0000001A                 EXPORT           IRQ009_Handler                 
 [WEAK]
  290 0000001A                 EXPORT           IRQ010_Handler                 
 [WEAK]
  291 0000001A                 EXPORT           IRQ011_Handler                 
 [WEAK]
  292 0000001A                 EXPORT           IRQ012_Handler                 
 [WEAK]
  293 0000001A                 EXPORT           IRQ013_Handler                 
 [WEAK]
  294 0000001A                 EXPORT           IRQ014_Handler                 
 [WEAK]



ARM Macro Assembler    Page 7 


  295 0000001A                 EXPORT           IRQ015_Handler                 
 [WEAK]
  296 0000001A                 EXPORT           EXTINT00_SWINT16_Handler       
 [WEAK]
  297 0000001A                 EXPORT           EXTINT01_SWINT17_Handler       
 [WEAK]
  298 0000001A                 EXPORT           EXTINT02_SWINT18_Handler       
 [WEAK]
  299 0000001A                 EXPORT           EXTINT03_SWINT19_Handler       
 [WEAK]
  300 0000001A                 EXPORT           EXTINT04_SWINT20_Handler       
 [WEAK]
  301 0000001A                 EXPORT           EXTINT05_SWINT21_Handler       
 [WEAK]
  302 0000001A                 EXPORT           EXTINT06_SWINT22_Handler       
 [WEAK]
  303 0000001A                 EXPORT           EXTINT07_SWINT23_Handler       
 [WEAK]
  304 0000001A                 EXPORT           EXTINT08_SWINT24_Handler       
 [WEAK]
  305 0000001A                 EXPORT           EXTINT09_SWINT25_Handler       
 [WEAK]
  306 0000001A                 EXPORT           EXTINT10_SWINT26_Handler       
 [WEAK]
  307 0000001A                 EXPORT           EXTINT11_SWINT27_Handler       
 [WEAK]
  308 0000001A                 EXPORT           EXTINT12_SWINT28_Handler       
 [WEAK]
  309 0000001A                 EXPORT           EXTINT13_SWINT29_Handler       
 [WEAK]
  310 0000001A                 EXPORT           EXTINT14_SWINT30_Handler       
 [WEAK]
  311 0000001A                 EXPORT           EXTINT15_SWINT31_Handler       
 [WEAK]
  312 0000001A                 EXPORT           DMA_Error_Handler              
[WEAK]
  313 0000001A                 EXPORT           DMA_TC0_BTC0_Handler           
[WEAK]
  314 0000001A                 EXPORT           DMA_TC1_BTC1_Handler           
[WEAK]
  315 0000001A                 EXPORT           DMA_TC2_BTC2_Handler           
[WEAK]
  316 0000001A                 EXPORT           DMA_TC3_BTC3_Handler           
[WEAK]
  317 0000001A                 EXPORT           DMA_TC4_BTC4_Handler           
[WEAK]
  318 0000001A                 EXPORT           DMA_TC5_BTC5_Handler           
[WEAK]
  319 0000001A                 EXPORT           DMA_TC6_BTC6_Handler           
[WEAK]
  320 0000001A                 EXPORT           DMA_TC7_BTC7_Handler           
[WEAK]
  321 0000001A                 EXPORT           EFM_PEError_ReadCol_Handler    
 [WEAK]
  322 0000001A                 EXPORT           EFM_OpEnd_Handler              
 [WEAK]
  323 0000001A                 EXPORT           FPU_Error_Handler              
 [WEAK]
  324 0000001A                 EXPORT           TMR0_1_Handler                 



ARM Macro Assembler    Page 8 


 [WEAK]
  325 0000001A                 EXPORT           TMR0_2_Handler                 
 [WEAK]
  326 0000001A                 EXPORT           RTC_Handler                    
 [WEAK]
  327 0000001A                 EXPORT           CLK_XtalStop_Handler           
 [WEAK]
  328 0000001A                 EXPORT           PWC_WKTM_Handler               
 [WEAK]
  329 0000001A                 EXPORT           SWDT_Handler                   
 [WEAK]
  330 0000001A                 EXPORT           TMR6_1_GCmp_Handler            
 [WEAK]
  331 0000001A                 EXPORT           TMR6_1_Ovf_Udf_Handler         
 [WEAK]
  332 0000001A                 EXPORT           TMR6_1_Dte_Handler             
 [WEAK]
  333 0000001A                 EXPORT           TMR6_1_SCmp_Handler            
 [WEAK]
  334 0000001A                 EXPORT           TMRA_1_Ovf_Udf_Handler         
 [WEAK]
  335 0000001A                 EXPORT           TMRA_1_Cmp_Handler             
 [WEAK]
  336 0000001A                 EXPORT           TMR6_2_GCmp_Handler            
 [WEAK]
  337 0000001A                 EXPORT           TMR6_2_Ovf_Udf_Handler         
 [WEAK]
  338 0000001A                 EXPORT           TMR6_2_Dte_Handler             
 [WEAK]
  339 0000001A                 EXPORT           TMR6_2_SCmp_Handler            
 [WEAK]
  340 0000001A                 EXPORT           TMRA_2_Ovf_Udf_Handler         
 [WEAK]
  341 0000001A                 EXPORT           TMRA_2_Cmp_Handler             
 [WEAK]
  342 0000001A                 EXPORT           TMR6_3_GCmp_Handler            
 [WEAK]
  343 0000001A                 EXPORT           TMR6_3_Ovf_Udf_Handler         
 [WEAK]
  344 0000001A                 EXPORT           TMR6_3_Dte_Handler             
 [WEAK]
  345 0000001A                 EXPORT           TMR6_3_SCmp_Handler            
 [WEAK]
  346 0000001A                 EXPORT           TMRA_3_Ovf_Udf_Handler         
 [WEAK]
  347 0000001A                 EXPORT           TMRA_3_Cmp_Handler             
 [WEAK]
  348 0000001A                 EXPORT           TMR6_4_GCmp_Handler            
 [WEAK]
  349 0000001A                 EXPORT           TMR6_4_Ovf_Udf_Handler         
 [WEAK]
  350 0000001A                 EXPORT           TMR6_4_Dte_Handler             
 [WEAK]
  351 0000001A                 EXPORT           TMR6_4_SCmp_Handler            
 [WEAK]
  352 0000001A                 EXPORT           TMRA_4_Ovf_Udf_Handler         
 [WEAK]
  353 0000001A                 EXPORT           TMRA_4_Cmp_Handler             
 [WEAK]



ARM Macro Assembler    Page 9 


  354 0000001A                 EXPORT           HRPWM_1_GCmp_Handler           
 [WEAK]
  355 0000001A                 EXPORT           HRPWM_1_Ovf_Udf_Handler        
 [WEAK]
  356 0000001A                 EXPORT           HRPWM_1_SCmp_Handler           
 [WEAK]
  357 0000001A                 EXPORT           HRPWM_1_GCap_Handler           
 [WEAK]
  358 0000001A                 EXPORT           HRPWM_2_GCmp_Handler           
 [WEAK]
  359 0000001A                 EXPORT           HRPWM_2_Ovf_Udf_Handler        
 [WEAK]
  360 0000001A                 EXPORT           HRPWM_2_SCmp_Handler           
 [WEAK]
  361 0000001A                 EXPORT           HRPWM_2_GCap_Handler           
 [WEAK]
  362 0000001A                 EXPORT           HRPWM_Handler                  
 [WEAK]
  363 0000001A                 EXPORT           EMB_GR0_Handler                
 [WEAK]
  364 0000001A                 EXPORT           EMB_GR1_Handler                
 [WEAK]
  365 0000001A                 EXPORT           EMB_GR2_Handler                
 [WEAK]
  366 0000001A                 EXPORT           EMB_GR3_Handler                
 [WEAK]
  367 0000001A                 EXPORT           HRPWM_3_GCmp_Handler           
 [WEAK]
  368 0000001A                 EXPORT           HRPWM_3_Ovf_Udf_Handler        
 [WEAK]
  369 0000001A                 EXPORT           HRPWM_3_SCmp_Handler           
 [WEAK]
  370 0000001A                 EXPORT           HRPWM_3_GCap_Handler           
 [WEAK]
  371 0000001A                 EXPORT           HRPWM_4_GCmp_Handler           
 [WEAK]
  372 0000001A                 EXPORT           HRPWM_4_Ovf_Udf_Handler        
 [WEAK]
  373 0000001A                 EXPORT           HRPWM_4_SCmp_Handler           
 [WEAK]
  374 0000001A                 EXPORT           HRPWM_4_GCap_Handler           
 [WEAK]
  375 0000001A                 EXPORT           EMB_GR4_Handler                
 [WEAK]
  376 0000001A                 EXPORT           EMB_GR5_Handler                
 [WEAK]
  377 0000001A                 EXPORT           EMB_GR6_Handler                
 [WEAK]
  378 0000001A                 EXPORT           EMB_GR7_Handler                
 [WEAK]
  379 0000001A                 EXPORT           EMB_GR8_Handler                
 [WEAK]
  380 0000001A                 EXPORT           HRPWM_5_GCmp_Handler           
 [WEAK]
  381 0000001A                 EXPORT           HRPWM_5_Ovf_Udf_Handler        
 [WEAK]
  382 0000001A                 EXPORT           HRPWM_5_SCmp_Handler           
 [WEAK]
  383 0000001A                 EXPORT           HRPWM_5_GCap_Handler           



ARM Macro Assembler    Page 10 


 [WEAK]
  384 0000001A                 EXPORT           HRPWM_6_GCmp_Handler           
 [WEAK]
  385 0000001A                 EXPORT           HRPWM_6_Ovf_Udf_Handler        
 [WEAK]
  386 0000001A                 EXPORT           HRPWM_6_SCmp_Handler           
 [WEAK]
  387 0000001A                 EXPORT           HRPWM_6_GCap_Handler           
 [WEAK]
  388 0000001A                 EXPORT           MCANRAM_ECCError_Handler       
  [WEAK]
  389 0000001A                 EXPORT           MCAN1_INT0_Handler             
  [WEAK]
  390 0000001A                 EXPORT           MCAN1_INT1_Handler             
  [WEAK]
  391 0000001A                 EXPORT           MCAN2_INT0_Handler             
  [WEAK]
  392 0000001A                 EXPORT           MCAN2_INT1_Handler             
  [WEAK]
  393 0000001A                 EXPORT           TMR4_GCmp_Handler             [
WEAK]
  394 0000001A                 EXPORT           TMR4_Ovf_Udf_Handler          [
WEAK]
  395 0000001A                 EXPORT           TMR4_Reload_Handler           [
WEAK]
  396 0000001A                 EXPORT           TMR4_SCmp_Handler             [
WEAK]
  397 0000001A                 EXPORT           CMP1_Handler                   
 [WEAK]
  398 0000001A                 EXPORT           CMP2_Handler                   
 [WEAK]
  399 0000001A                 EXPORT           CMP3_Handler                   
 [WEAK]
  400 0000001A                 EXPORT           I2C_Handler                    
[WEAK]
  401 0000001A                 EXPORT           USART1_Handler                 
 [WEAK]
  402 0000001A                 EXPORT           USART1_TCI_Handler             
 [WEAK]
  403 0000001A                 EXPORT           SPI_Handler                    
[WEAK]
  404 0000001A                 EXPORT           TMRA_5_Ovf_Udf_Handler         
 [WEAK]
  405 0000001A                 EXPORT           TMRA_5_Cmp_Handler             
 [WEAK]
  406 0000001A                 EXPORT           EVENT_PORT1_Handler            
 [WEAK]
  407 0000001A                 EXPORT           EVENT_PORT2_Handler            
 [WEAK]
  408 0000001A                 EXPORT           EVENT_PORT3_Handler            
 [WEAK]
  409 0000001A                 EXPORT           EVENT_PORT4_Handler            
 [WEAK]
  410 0000001A                 EXPORT           USART2_Handler                 
 [WEAK]
  411 0000001A                 EXPORT           USART2_TxComplete_Handler      
 [WEAK]
  412 0000001A                 EXPORT           USART3_Handler                 
 [WEAK]



ARM Macro Assembler    Page 11 


  413 0000001A                 EXPORT           USART3_TxComplete_Handler      
 [WEAK]
  414 0000001A                 EXPORT           USART4_Handler                 
 [WEAK]
  415 0000001A                 EXPORT           USART4_TxComplete_Handler      
 [WEAK]
  416 0000001A                 EXPORT           PLA_Handler                    
 [WEAK]
  417 0000001A                 EXPORT           USART1_WKUP_Handler            
 [WEAK]
  418 0000001A                 EXPORT           PWC_LVD1_Handler               
 [WEAK]
  419 0000001A                 EXPORT           PWC_LVD2_Handler               
 [WEAK]
  420 0000001A                 EXPORT           FCM_Handler                    
 [WEAK]
  421 0000001A                 EXPORT           WDT_Handler                    
 [WEAK]
  422 0000001A                 EXPORT           CTC_Handler                    
 [WEAK]
  423 0000001A                 EXPORT           ADC1_Handler                   
 [WEAK]
  424 0000001A                 EXPORT           ADC2_Handler                   
 [WEAK]
  425 0000001A                 EXPORT           ADC3_Handler                   
 [WEAK]
  426 0000001A         
  427 0000001A         IRQ000_Handler
  428 0000001A         IRQ001_Handler
  429 0000001A         IRQ002_Handler
  430 0000001A         IRQ003_Handler
  431 0000001A         IRQ004_Handler
  432 0000001A         IRQ005_Handler
  433 0000001A         IRQ006_Handler
  434 0000001A         IRQ007_Handler
  435 0000001A         IRQ008_Handler
  436 0000001A         IRQ009_Handler
  437 0000001A         IRQ010_Handler
  438 0000001A         IRQ011_Handler
  439 0000001A         IRQ012_Handler
  440 0000001A         IRQ013_Handler
  441 0000001A         IRQ014_Handler
  442 0000001A         IRQ015_Handler
  443 0000001A         EXTINT00_SWINT16_Handler
  444 0000001A         EXTINT01_SWINT17_Handler
  445 0000001A         EXTINT02_SWINT18_Handler
  446 0000001A         EXTINT03_SWINT19_Handler
  447 0000001A         EXTINT04_SWINT20_Handler
  448 0000001A         EXTINT05_SWINT21_Handler
  449 0000001A         EXTINT06_SWINT22_Handler
  450 0000001A         EXTINT07_SWINT23_Handler
  451 0000001A         EXTINT08_SWINT24_Handler
  452 0000001A         EXTINT09_SWINT25_Handler
  453 0000001A         EXTINT10_SWINT26_Handler
  454 0000001A         EXTINT11_SWINT27_Handler
  455 0000001A         EXTINT12_SWINT28_Handler
  456 0000001A         EXTINT13_SWINT29_Handler
  457 0000001A         EXTINT14_SWINT30_Handler
  458 0000001A         EXTINT15_SWINT31_Handler



ARM Macro Assembler    Page 12 


  459 0000001A         DMA_Error_Handler
  460 0000001A         DMA_TC0_BTC0_Handler
  461 0000001A         DMA_TC1_BTC1_Handler
  462 0000001A         DMA_TC2_BTC2_Handler
  463 0000001A         DMA_TC3_BTC3_Handler
  464 0000001A         DMA_TC4_BTC4_Handler
  465 0000001A         DMA_TC5_BTC5_Handler
  466 0000001A         DMA_TC6_BTC6_Handler
  467 0000001A         DMA_TC7_BTC7_Handler
  468 0000001A         EFM_PEError_ReadCol_Handler
  469 0000001A         EFM_OpEnd_Handler
  470 0000001A         FPU_Error_Handler
  471 0000001A         TMR0_1_Handler
  472 0000001A         TMR0_2_Handler
  473 0000001A         RTC_Handler
  474 0000001A         CLK_XtalStop_Handler
  475 0000001A         PWC_WKTM_Handler
  476 0000001A         SWDT_Handler
  477 0000001A         TMR6_1_GCmp_Handler
  478 0000001A         TMR6_1_Ovf_Udf_Handler
  479 0000001A         TMR6_1_Dte_Handler
  480 0000001A         TMR6_1_SCmp_Handler
  481 0000001A         TMRA_1_Ovf_Udf_Handler
  482 0000001A         TMRA_1_Cmp_Handler
  483 0000001A         TMR6_2_GCmp_Handler
  484 0000001A         TMR6_2_Ovf_Udf_Handler
  485 0000001A         TMR6_2_Dte_Handler
  486 0000001A         TMR6_2_SCmp_Handler
  487 0000001A         TMRA_2_Ovf_Udf_Handler
  488 0000001A         TMRA_2_Cmp_Handler
  489 0000001A         TMR6_3_GCmp_Handler
  490 0000001A         TMR6_3_Ovf_Udf_Handler
  491 0000001A         TMR6_3_Dte_Handler
  492 0000001A         TMR6_3_SCmp_Handler
  493 0000001A         TMRA_3_Ovf_Udf_Handler
  494 0000001A         TMRA_3_Cmp_Handler
  495 0000001A         TMR6_4_GCmp_Handler
  496 0000001A         TMR6_4_Ovf_Udf_Handler
  497 0000001A         TMR6_4_Dte_Handler
  498 0000001A         TMR6_4_SCmp_Handler
  499 0000001A         TMRA_4_Ovf_Udf_Handler
  500 0000001A         TMRA_4_Cmp_Handler
  501 0000001A         HRPWM_1_GCmp_Handler
  502 0000001A         HRPWM_1_Ovf_Udf_Handler
  503 0000001A         HRPWM_1_SCmp_Handler
  504 0000001A         HRPWM_1_GCap_Handler
  505 0000001A         HRPWM_2_GCmp_Handler
  506 0000001A         HRPWM_2_Ovf_Udf_Handler
  507 0000001A         HRPWM_2_SCmp_Handler
  508 0000001A         HRPWM_2_GCap_Handler
  509 0000001A         HRPWM_Handler
  510 0000001A         EMB_GR0_Handler
  511 0000001A         EMB_GR1_Handler
  512 0000001A         EMB_GR2_Handler
  513 0000001A         EMB_GR3_Handler
  514 0000001A         HRPWM_3_GCmp_Handler
  515 0000001A         HRPWM_3_Ovf_Udf_Handler
  516 0000001A         HRPWM_3_SCmp_Handler
  517 0000001A         HRPWM_3_GCap_Handler



ARM Macro Assembler    Page 13 


  518 0000001A         HRPWM_4_GCmp_Handler
  519 0000001A         HRPWM_4_Ovf_Udf_Handler
  520 0000001A         HRPWM_4_SCmp_Handler
  521 0000001A         HRPWM_4_GCap_Handler
  522 0000001A         EMB_GR4_Handler
  523 0000001A         EMB_GR5_Handler
  524 0000001A         EMB_GR6_Handler
  525 0000001A         EMB_GR7_Handler
  526 0000001A         EMB_GR8_Handler
  527 0000001A         HRPWM_5_GCmp_Handler
  528 0000001A         HRPWM_5_Ovf_Udf_Handler
  529 0000001A         HRPWM_5_SCmp_Handler
  530 0000001A         HRPWM_5_GCap_Handler
  531 0000001A         HRPWM_6_GCmp_Handler
  532 0000001A         HRPWM_6_Ovf_Udf_Handler
  533 0000001A         HRPWM_6_SCmp_Handler
  534 0000001A         HRPWM_6_GCap_Handler
  535 0000001A         MCANRAM_ECCError_Handler
  536 0000001A         MCAN1_INT0_Handler
  537 0000001A         MCAN1_INT1_Handler
  538 0000001A         MCAN2_INT0_Handler
  539 0000001A         MCAN2_INT1_Handler
  540 0000001A         TMR4_GCmp_Handler
  541 0000001A         TMR4_Ovf_Udf_Handler
  542 0000001A         TMR4_Reload_Handler
  543 0000001A         TMR4_SCmp_Handler
  544 0000001A         CMP1_Handler
  545 0000001A         CMP2_Handler
  546 0000001A         CMP3_Handler
  547 0000001A         I2C_Handler
  548 0000001A         USART1_Handler
  549 0000001A         USART1_TCI_Handler
  550 0000001A         SPI_Handler
  551 0000001A         TMRA_5_Ovf_Udf_Handler
  552 0000001A         TMRA_5_Cmp_Handler
  553 0000001A         EVENT_PORT1_Handler
  554 0000001A         EVENT_PORT2_Handler
  555 0000001A         EVENT_PORT3_Handler
  556 0000001A         EVENT_PORT4_Handler
  557 0000001A         USART2_Handler
  558 0000001A         USART2_TxComplete_Handler
  559 0000001A         USART3_Handler
  560 0000001A         USART3_TxComplete_Handler
  561 0000001A         USART4_Handler
  562 0000001A         USART4_TxComplete_Handler
  563 0000001A         PLA_Handler
  564 0000001A         USART1_WKUP_Handler
  565 0000001A         PWC_LVD1_Handler
  566 0000001A         PWC_LVD2_Handler
  567 0000001A         FCM_Handler
  568 0000001A         WDT_Handler
  569 0000001A         CTC_Handler
  570 0000001A         ADC1_Handler
  571 0000001A         ADC2_Handler
  572 0000001A         ADC3_Handler
  573 0000001A         
  574 0000001A E7FE            B                .
  575 0000001C                 ENDP
  576 0000001C         



ARM Macro Assembler    Page 14 


  577 0000001C                 ALIGN
  578 0000001C         
  579 0000001C         
  580 0000001C         ; User Initial Stack & Heap
  581 0000001C         
  582 0000001C                 IF               :DEF:__MICROLIB
  583 0000001C         
  584 0000001C                 EXPORT           __initial_sp
  585 0000001C                 EXPORT           __heap_base
  586 0000001C                 EXPORT           __heap_limit
  587 0000001C         
  588 0000001C                 ELSE
  602                          ENDIF
  603 0000001C         
  604 0000001C         
  605 0000001C                 END
              00000000 
              00000000 
Command Line: --debug --xref --diag_suppress=9931 --cpu=Cortex-M4.fp.sp --apcs=
interwork --depend=.\output\debug\startup_hc32f334.d -o.\output\debug\startup_h
c32f334.o -IC:\Keil_v5\ARM\PACK\HDSC\HC32F334\1.0.0\Device\Include --predefine=
"__MICROLIB SETA 1" --predefine="__UVISION_VERSION SETA 535" --list=.\output\de
bug\startup_hc32f334.lst startup_hc32f334.s



ARM Macro Assembler    Page 1 Alphabetic symbol ordering
Relocatable symbols

STACK 00000000

Symbol: STACK
   Definitions
      At line 26 in file startup_hc32f334.s
   Uses
      None
Comment: STACK unused
Stack_Mem 00000000

Symbol: Stack_Mem
   Definitions
      At line 27 in file startup_hc32f334.s
   Uses
      None
Comment: Stack_Mem unused
__initial_sp 00000C00

Symbol: __initial_sp
   Definitions
      At line 28 in file startup_hc32f334.s
   Uses
      At line 51 in file startup_hc32f334.s
      At line 584 in file startup_hc32f334.s

3 symbols



ARM Macro Assembler    Page 1 Alphabetic symbol ordering
Relocatable symbols

HEAP 00000000

Symbol: HEAP
   Definitions
      At line 36 in file startup_hc32f334.s
   Uses
      None
Comment: HEAP unused
Heap_Mem 00000000

Symbol: Heap_Mem
   Definitions
      At line 38 in file startup_hc32f334.s
   Uses
      None
Comment: Heap_Mem unused
__heap_base 00000000

Symbol: __heap_base
   Definitions
      At line 37 in file startup_hc32f334.s
   Uses
      At line 585 in file startup_hc32f334.s
Comment: __heap_base used once
__heap_limit 00000400

Symbol: __heap_limit
   Definitions
      At line 39 in file startup_hc32f334.s
   Uses
      At line 586 in file startup_hc32f334.s
Comment: __heap_limit used once
4 symbols



ARM Macro Assembler    Page 1 Alphabetic symbol ordering
Relocatable symbols

RESET 00000000

Symbol: RESET
   Definitions
      At line 46 in file startup_hc32f334.s
   Uses
      None
Comment: RESET unused
__Vectors 00000000

Symbol: __Vectors
   Definitions
      At line 51 in file startup_hc32f334.s
   Uses
      At line 47 in file startup_hc32f334.s
      At line 218 in file startup_hc32f334.s

__Vectors_End 00000288

Symbol: __Vectors_End
   Definitions
      At line 216 in file startup_hc32f334.s
   Uses
      At line 48 in file startup_hc32f334.s
      At line 218 in file startup_hc32f334.s

3 symbols



ARM Macro Assembler    Page 1 Alphabetic symbol ordering
Relocatable symbols

.text 00000000

Symbol: .text
   Definitions
      At line 220 in file startup_hc32f334.s
   Uses
      None
Comment: .text unused
ADC1_Handler 0000001A

Symbol: ADC1_Handler
   Definitions
      At line 570 in file startup_hc32f334.s
   Uses
      At line 212 in file startup_hc32f334.s
      At line 423 in file startup_hc32f334.s

ADC2_Handler 0000001A

Symbol: ADC2_Handler
   Definitions
      At line 571 in file startup_hc32f334.s
   Uses
      At line 213 in file startup_hc32f334.s
      At line 424 in file startup_hc32f334.s

ADC3_Handler 0000001A

Symbol: ADC3_Handler
   Definitions
      At line 572 in file startup_hc32f334.s
   Uses
      At line 214 in file startup_hc32f334.s
      At line 425 in file startup_hc32f334.s

BusFault_Handler 0000000E

Symbol: BusFault_Handler
   Definitions
      At line 252 in file startup_hc32f334.s
   Uses
      At line 56 in file startup_hc32f334.s
      At line 253 in file startup_hc32f334.s

CLK_XtalStop_Handler 0000001A

Symbol: CLK_XtalStop_Handler
   Definitions
      At line 474 in file startup_hc32f334.s
   Uses
      At line 116 in file startup_hc32f334.s
      At line 327 in file startup_hc32f334.s

CMP1_Handler 0000001A

Symbol: CMP1_Handler
   Definitions
      At line 544 in file startup_hc32f334.s
   Uses



ARM Macro Assembler    Page 2 Alphabetic symbol ordering
Relocatable symbols

      At line 186 in file startup_hc32f334.s
      At line 397 in file startup_hc32f334.s

CMP2_Handler 0000001A

Symbol: CMP2_Handler
   Definitions
      At line 545 in file startup_hc32f334.s
   Uses
      At line 187 in file startup_hc32f334.s
      At line 398 in file startup_hc32f334.s

CMP3_Handler 0000001A

Symbol: CMP3_Handler
   Definitions
      At line 546 in file startup_hc32f334.s
   Uses
      At line 188 in file startup_hc32f334.s
      At line 399 in file startup_hc32f334.s

CTC_Handler 0000001A

Symbol: CTC_Handler
   Definitions
      At line 569 in file startup_hc32f334.s
   Uses
      At line 211 in file startup_hc32f334.s
      At line 422 in file startup_hc32f334.s

DMA_Error_Handler 0000001A

Symbol: DMA_Error_Handler
   Definitions
      At line 459 in file startup_hc32f334.s
   Uses
      At line 101 in file startup_hc32f334.s
      At line 312 in file startup_hc32f334.s

DMA_TC0_BTC0_Handler 0000001A

Symbol: DMA_TC0_BTC0_Handler
   Definitions
      At line 460 in file startup_hc32f334.s
   Uses
      At line 102 in file startup_hc32f334.s
      At line 313 in file startup_hc32f334.s

DMA_TC1_BTC1_Handler 0000001A

Symbol: DMA_TC1_BTC1_Handler
   Definitions
      At line 461 in file startup_hc32f334.s
   Uses
      At line 103 in file startup_hc32f334.s
      At line 314 in file startup_hc32f334.s

DMA_TC2_BTC2_Handler 0000001A




ARM Macro Assembler    Page 3 Alphabetic symbol ordering
Relocatable symbols

Symbol: DMA_TC2_BTC2_Handler
   Definitions
      At line 462 in file startup_hc32f334.s
   Uses
      At line 104 in file startup_hc32f334.s
      At line 315 in file startup_hc32f334.s

DMA_TC3_BTC3_Handler 0000001A

Symbol: DMA_TC3_BTC3_Handler
   Definitions
      At line 463 in file startup_hc32f334.s
   Uses
      At line 105 in file startup_hc32f334.s
      At line 316 in file startup_hc32f334.s

DMA_TC4_BTC4_Handler 0000001A

Symbol: DMA_TC4_BTC4_Handler
   Definitions
      At line 464 in file startup_hc32f334.s
   Uses
      At line 106 in file startup_hc32f334.s
      At line 317 in file startup_hc32f334.s

DMA_TC5_BTC5_Handler 0000001A

Symbol: DMA_TC5_BTC5_Handler
   Definitions
      At line 465 in file startup_hc32f334.s
   Uses
      At line 107 in file startup_hc32f334.s
      At line 318 in file startup_hc32f334.s

DMA_TC6_BTC6_Handler 0000001A

Symbol: DMA_TC6_BTC6_Handler
   Definitions
      At line 466 in file startup_hc32f334.s
   Uses
      At line 108 in file startup_hc32f334.s
      At line 319 in file startup_hc32f334.s

DMA_TC7_BTC7_Handler 0000001A

Symbol: DMA_TC7_BTC7_Handler
   Definitions
      At line 467 in file startup_hc32f334.s
   Uses
      At line 109 in file startup_hc32f334.s
      At line 320 in file startup_hc32f334.s

DebugMon_Handler 00000014

Symbol: DebugMon_Handler
   Definitions
      At line 266 in file startup_hc32f334.s
   Uses
      At line 63 in file startup_hc32f334.s



ARM Macro Assembler    Page 4 Alphabetic symbol ordering
Relocatable symbols

      At line 267 in file startup_hc32f334.s

Default_Handler 0000001A

Symbol: Default_Handler
   Definitions
      At line 279 in file startup_hc32f334.s
   Uses
      None
Comment: Default_Handler unused
EFM_OpEnd_Handler 0000001A

Symbol: EFM_OpEnd_Handler
   Definitions
      At line 469 in file startup_hc32f334.s
   Uses
      At line 111 in file startup_hc32f334.s
      At line 322 in file startup_hc32f334.s

EFM_PEError_ReadCol_Handler 0000001A

Symbol: EFM_PEError_ReadCol_Handler
   Definitions
      At line 468 in file startup_hc32f334.s
   Uses
      At line 110 in file startup_hc32f334.s
      At line 321 in file startup_hc32f334.s

EMB_GR0_Handler 0000001A

Symbol: EMB_GR0_Handler
   Definitions
      At line 510 in file startup_hc32f334.s
   Uses
      At line 152 in file startup_hc32f334.s
      At line 363 in file startup_hc32f334.s

EMB_GR1_Handler 0000001A

Symbol: EMB_GR1_Handler
   Definitions
      At line 511 in file startup_hc32f334.s
   Uses
      At line 153 in file startup_hc32f334.s
      At line 364 in file startup_hc32f334.s

EMB_GR2_Handler 0000001A

Symbol: EMB_GR2_Handler
   Definitions
      At line 512 in file startup_hc32f334.s
   Uses
      At line 154 in file startup_hc32f334.s
      At line 365 in file startup_hc32f334.s

EMB_GR3_Handler 0000001A

Symbol: EMB_GR3_Handler
   Definitions



ARM Macro Assembler    Page 5 Alphabetic symbol ordering
Relocatable symbols

      At line 513 in file startup_hc32f334.s
   Uses
      At line 155 in file startup_hc32f334.s
      At line 366 in file startup_hc32f334.s

EMB_GR4_Handler 0000001A

Symbol: EMB_GR4_Handler
   Definitions
      At line 522 in file startup_hc32f334.s
   Uses
      At line 164 in file startup_hc32f334.s
      At line 375 in file startup_hc32f334.s

EMB_GR5_Handler 0000001A

Symbol: EMB_GR5_Handler
   Definitions
      At line 523 in file startup_hc32f334.s
   Uses
      At line 165 in file startup_hc32f334.s
      At line 376 in file startup_hc32f334.s

EMB_GR6_Handler 0000001A

Symbol: EMB_GR6_Handler
   Definitions
      At line 524 in file startup_hc32f334.s
   Uses
      At line 166 in file startup_hc32f334.s
      At line 377 in file startup_hc32f334.s

EMB_GR7_Handler 0000001A

Symbol: EMB_GR7_Handler
   Definitions
      At line 525 in file startup_hc32f334.s
   Uses
      At line 167 in file startup_hc32f334.s
      At line 378 in file startup_hc32f334.s

EMB_GR8_Handler 0000001A

Symbol: EMB_GR8_Handler
   Definitions
      At line 526 in file startup_hc32f334.s
   Uses
      At line 168 in file startup_hc32f334.s
      At line 379 in file startup_hc32f334.s

EVENT_PORT1_Handler 0000001A

Symbol: EVENT_PORT1_Handler
   Definitions
      At line 553 in file startup_hc32f334.s
   Uses
      At line 195 in file startup_hc32f334.s
      At line 406 in file startup_hc32f334.s




ARM Macro Assembler    Page 6 Alphabetic symbol ordering
Relocatable symbols

EVENT_PORT2_Handler 0000001A

Symbol: EVENT_PORT2_Handler
   Definitions
      At line 554 in file startup_hc32f334.s
   Uses
      At line 196 in file startup_hc32f334.s
      At line 407 in file startup_hc32f334.s

EVENT_PORT3_Handler 0000001A

Symbol: EVENT_PORT3_Handler
   Definitions
      At line 555 in file startup_hc32f334.s
   Uses
      At line 197 in file startup_hc32f334.s
      At line 408 in file startup_hc32f334.s

EVENT_PORT4_Handler 0000001A

Symbol: EVENT_PORT4_Handler
   Definitions
      At line 556 in file startup_hc32f334.s
   Uses
      At line 198 in file startup_hc32f334.s
      At line 409 in file startup_hc32f334.s

EXTINT00_SWINT16_Handler 0000001A

Symbol: EXTINT00_SWINT16_Handler
   Definitions
      At line 443 in file startup_hc32f334.s
   Uses
      At line 85 in file startup_hc32f334.s
      At line 296 in file startup_hc32f334.s

EXTINT01_SWINT17_Handler 0000001A

Symbol: EXTINT01_SWINT17_Handler
   Definitions
      At line 444 in file startup_hc32f334.s
   Uses
      At line 86 in file startup_hc32f334.s
      At line 297 in file startup_hc32f334.s

EXTINT02_SWINT18_Handler 0000001A

Symbol: EXTINT02_SWINT18_Handler
   Definitions
      At line 445 in file startup_hc32f334.s
   Uses
      At line 87 in file startup_hc32f334.s
      At line 298 in file startup_hc32f334.s

EXTINT03_SWINT19_Handler 0000001A

Symbol: EXTINT03_SWINT19_Handler
   Definitions
      At line 446 in file startup_hc32f334.s



ARM Macro Assembler    Page 7 Alphabetic symbol ordering
Relocatable symbols

   Uses
      At line 88 in file startup_hc32f334.s
      At line 299 in file startup_hc32f334.s

EXTINT04_SWINT20_Handler 0000001A

Symbol: EXTINT04_SWINT20_Handler
   Definitions
      At line 447 in file startup_hc32f334.s
   Uses
      At line 89 in file startup_hc32f334.s
      At line 300 in file startup_hc32f334.s

EXTINT05_SWINT21_Handler 0000001A

Symbol: EXTINT05_SWINT21_Handler
   Definitions
      At line 448 in file startup_hc32f334.s
   Uses
      At line 90 in file startup_hc32f334.s
      At line 301 in file startup_hc32f334.s

EXTINT06_SWINT22_Handler 0000001A

Symbol: EXTINT06_SWINT22_Handler
   Definitions
      At line 449 in file startup_hc32f334.s
   Uses
      At line 91 in file startup_hc32f334.s
      At line 302 in file startup_hc32f334.s

EXTINT07_SWINT23_Handler 0000001A

Symbol: EXTINT07_SWINT23_Handler
   Definitions
      At line 450 in file startup_hc32f334.s
   Uses
      At line 92 in file startup_hc32f334.s
      At line 303 in file startup_hc32f334.s

EXTINT08_SWINT24_Handler 0000001A

Symbol: EXTINT08_SWINT24_Handler
   Definitions
      At line 451 in file startup_hc32f334.s
   Uses
      At line 93 in file startup_hc32f334.s
      At line 304 in file startup_hc32f334.s

EXTINT09_SWINT25_Handler 0000001A

Symbol: EXTINT09_SWINT25_Handler
   Definitions
      At line 452 in file startup_hc32f334.s
   Uses
      At line 94 in file startup_hc32f334.s
      At line 305 in file startup_hc32f334.s

EXTINT10_SWINT26_Handler 0000001A



ARM Macro Assembler    Page 8 Alphabetic symbol ordering
Relocatable symbols


Symbol: EXTINT10_SWINT26_Handler
   Definitions
      At line 453 in file startup_hc32f334.s
   Uses
      At line 95 in file startup_hc32f334.s
      At line 306 in file startup_hc32f334.s

EXTINT11_SWINT27_Handler 0000001A

Symbol: EXTINT11_SWINT27_Handler
   Definitions
      At line 454 in file startup_hc32f334.s
   Uses
      At line 96 in file startup_hc32f334.s
      At line 307 in file startup_hc32f334.s

EXTINT12_SWINT28_Handler 0000001A

Symbol: EXTINT12_SWINT28_Handler
   Definitions
      At line 455 in file startup_hc32f334.s
   Uses
      At line 97 in file startup_hc32f334.s
      At line 308 in file startup_hc32f334.s

EXTINT13_SWINT29_Handler 0000001A

Symbol: EXTINT13_SWINT29_Handler
   Definitions
      At line 456 in file startup_hc32f334.s
   Uses
      At line 98 in file startup_hc32f334.s
      At line 309 in file startup_hc32f334.s

EXTINT14_SWINT30_Handler 0000001A

Symbol: EXTINT14_SWINT30_Handler
   Definitions
      At line 457 in file startup_hc32f334.s
   Uses
      At line 99 in file startup_hc32f334.s
      At line 310 in file startup_hc32f334.s

EXTINT15_SWINT31_Handler 0000001A

Symbol: EXTINT15_SWINT31_Handler
   Definitions
      At line 458 in file startup_hc32f334.s
   Uses
      At line 100 in file startup_hc32f334.s
      At line 311 in file startup_hc32f334.s

FCM_Handler 0000001A

Symbol: FCM_Handler
   Definitions
      At line 567 in file startup_hc32f334.s
   Uses



ARM Macro Assembler    Page 9 Alphabetic symbol ordering
Relocatable symbols

      At line 209 in file startup_hc32f334.s
      At line 420 in file startup_hc32f334.s

FPU_Error_Handler 0000001A

Symbol: FPU_Error_Handler
   Definitions
      At line 470 in file startup_hc32f334.s
   Uses
      At line 112 in file startup_hc32f334.s
      At line 323 in file startup_hc32f334.s

HRPWM_1_GCap_Handler 0000001A

Symbol: HRPWM_1_GCap_Handler
   Definitions
      At line 504 in file startup_hc32f334.s
   Uses
      At line 146 in file startup_hc32f334.s
      At line 357 in file startup_hc32f334.s

HRPWM_1_GCmp_Handler 0000001A

Symbol: HRPWM_1_GCmp_Handler
   Definitions
      At line 501 in file startup_hc32f334.s
   Uses
      At line 143 in file startup_hc32f334.s
      At line 354 in file startup_hc32f334.s

HRPWM_1_Ovf_Udf_Handler 0000001A

Symbol: HRPWM_1_Ovf_Udf_Handler
   Definitions
      At line 502 in file startup_hc32f334.s
   Uses
      At line 144 in file startup_hc32f334.s
      At line 355 in file startup_hc32f334.s

HRPWM_1_SCmp_Handler 0000001A

Symbol: HRPWM_1_SCmp_Handler
   Definitions
      At line 503 in file startup_hc32f334.s
   Uses
      At line 145 in file startup_hc32f334.s
      At line 356 in file startup_hc32f334.s

HRPWM_2_GCap_Handler 0000001A

Symbol: HRPWM_2_GCap_Handler
   Definitions
      At line 508 in file startup_hc32f334.s
   Uses
      At line 150 in file startup_hc32f334.s
      At line 361 in file startup_hc32f334.s

HRPWM_2_GCmp_Handler 0000001A




ARM Macro Assembler    Page 10 Alphabetic symbol ordering
Relocatable symbols

Symbol: HRPWM_2_GCmp_Handler
   Definitions
      At line 505 in file startup_hc32f334.s
   Uses
      At line 147 in file startup_hc32f334.s
      At line 358 in file startup_hc32f334.s

HRPWM_2_Ovf_Udf_Handler 0000001A

Symbol: HRPWM_2_Ovf_Udf_Handler
   Definitions
      At line 506 in file startup_hc32f334.s
   Uses
      At line 148 in file startup_hc32f334.s
      At line 359 in file startup_hc32f334.s

HRPWM_2_SCmp_Handler 0000001A

Symbol: HRPWM_2_SCmp_Handler
   Definitions
      At line 507 in file startup_hc32f334.s
   Uses
      At line 149 in file startup_hc32f334.s
      At line 360 in file startup_hc32f334.s

HRPWM_3_GCap_Handler 0000001A

Symbol: HRPWM_3_GCap_Handler
   Definitions
      At line 517 in file startup_hc32f334.s
   Uses
      At line 159 in file startup_hc32f334.s
      At line 370 in file startup_hc32f334.s

HRPWM_3_GCmp_Handler 0000001A

Symbol: HRPWM_3_GCmp_Handler
   Definitions
      At line 514 in file startup_hc32f334.s
   Uses
      At line 156 in file startup_hc32f334.s
      At line 367 in file startup_hc32f334.s

HRPWM_3_Ovf_Udf_Handler 0000001A

Symbol: HRPWM_3_Ovf_Udf_Handler
   Definitions
      At line 515 in file startup_hc32f334.s
   Uses
      At line 157 in file startup_hc32f334.s
      At line 368 in file startup_hc32f334.s

HRPWM_3_SCmp_Handler 0000001A

Symbol: HRPWM_3_SCmp_Handler
   Definitions
      At line 516 in file startup_hc32f334.s
   Uses
      At line 158 in file startup_hc32f334.s



ARM Macro Assembler    Page 11 Alphabetic symbol ordering
Relocatable symbols

      At line 369 in file startup_hc32f334.s

HRPWM_4_GCap_Handler 0000001A

Symbol: HRPWM_4_GCap_Handler
   Definitions
      At line 521 in file startup_hc32f334.s
   Uses
      At line 163 in file startup_hc32f334.s
      At line 374 in file startup_hc32f334.s

HRPWM_4_GCmp_Handler 0000001A

Symbol: HRPWM_4_GCmp_Handler
   Definitions
      At line 518 in file startup_hc32f334.s
   Uses
      At line 160 in file startup_hc32f334.s
      At line 371 in file startup_hc32f334.s

HRPWM_4_Ovf_Udf_Handler 0000001A

Symbol: HRPWM_4_Ovf_Udf_Handler
   Definitions
      At line 519 in file startup_hc32f334.s
   Uses
      At line 161 in file startup_hc32f334.s
      At line 372 in file startup_hc32f334.s

HRPWM_4_SCmp_Handler 0000001A

Symbol: HRPWM_4_SCmp_Handler
   Definitions
      At line 520 in file startup_hc32f334.s
   Uses
      At line 162 in file startup_hc32f334.s
      At line 373 in file startup_hc32f334.s

HRPWM_5_GCap_Handler 0000001A

Symbol: HRPWM_5_GCap_Handler
   Definitions
      At line 530 in file startup_hc32f334.s
   Uses
      At line 172 in file startup_hc32f334.s
      At line 383 in file startup_hc32f334.s

HRPWM_5_GCmp_Handler 0000001A

Symbol: HRPWM_5_GCmp_Handler
   Definitions
      At line 527 in file startup_hc32f334.s
   Uses
      At line 169 in file startup_hc32f334.s
      At line 380 in file startup_hc32f334.s

HRPWM_5_Ovf_Udf_Handler 0000001A

Symbol: HRPWM_5_Ovf_Udf_Handler



ARM Macro Assembler    Page 12 Alphabetic symbol ordering
Relocatable symbols

   Definitions
      At line 528 in file startup_hc32f334.s
   Uses
      At line 170 in file startup_hc32f334.s
      At line 381 in file startup_hc32f334.s

HRPWM_5_SCmp_Handler 0000001A

Symbol: HRPWM_5_SCmp_Handler
   Definitions
      At line 529 in file startup_hc32f334.s
   Uses
      At line 171 in file startup_hc32f334.s
      At line 382 in file startup_hc32f334.s

HRPWM_6_GCap_Handler 0000001A

Symbol: HRPWM_6_GCap_Handler
   Definitions
      At line 534 in file startup_hc32f334.s
   Uses
      At line 176 in file startup_hc32f334.s
      At line 387 in file startup_hc32f334.s

HRPWM_6_GCmp_Handler 0000001A

Symbol: HRPWM_6_GCmp_Handler
   Definitions
      At line 531 in file startup_hc32f334.s
   Uses
      At line 173 in file startup_hc32f334.s
      At line 384 in file startup_hc32f334.s

HRPWM_6_Ovf_Udf_Handler 0000001A

Symbol: HRPWM_6_Ovf_Udf_Handler
   Definitions
      At line 532 in file startup_hc32f334.s
   Uses
      At line 174 in file startup_hc32f334.s
      At line 385 in file startup_hc32f334.s

HRPWM_6_SCmp_Handler 0000001A

Symbol: HRPWM_6_SCmp_Handler
   Definitions
      At line 533 in file startup_hc32f334.s
   Uses
      At line 175 in file startup_hc32f334.s
      At line 386 in file startup_hc32f334.s

HRPWM_Handler 0000001A

Symbol: HRPWM_Handler
   Definitions
      At line 509 in file startup_hc32f334.s
   Uses
      At line 151 in file startup_hc32f334.s
      At line 362 in file startup_hc32f334.s



ARM Macro Assembler    Page 13 Alphabetic symbol ordering
Relocatable symbols


HardFault_Handler 0000000A

Symbol: HardFault_Handler
   Definitions
      At line 242 in file startup_hc32f334.s
   Uses
      At line 54 in file startup_hc32f334.s
      At line 243 in file startup_hc32f334.s

I2C_Handler 0000001A

Symbol: I2C_Handler
   Definitions
      At line 547 in file startup_hc32f334.s
   Uses
      At line 189 in file startup_hc32f334.s
      At line 400 in file startup_hc32f334.s

IRQ000_Handler 0000001A

Symbol: IRQ000_Handler
   Definitions
      At line 427 in file startup_hc32f334.s
   Uses
      At line 69 in file startup_hc32f334.s
      At line 280 in file startup_hc32f334.s

IRQ001_Handler 0000001A

Symbol: IRQ001_Handler
   Definitions
      At line 428 in file startup_hc32f334.s
   Uses
      At line 70 in file startup_hc32f334.s
      At line 281 in file startup_hc32f334.s

IRQ002_Handler 0000001A

Symbol: IRQ002_Handler
   Definitions
      At line 429 in file startup_hc32f334.s
   Uses
      At line 71 in file startup_hc32f334.s
      At line 282 in file startup_hc32f334.s

IRQ003_Handler 0000001A

Symbol: IRQ003_Handler
   Definitions
      At line 430 in file startup_hc32f334.s
   Uses
      At line 72 in file startup_hc32f334.s
      At line 283 in file startup_hc32f334.s

IRQ004_Handler 0000001A

Symbol: IRQ004_Handler
   Definitions



ARM Macro Assembler    Page 14 Alphabetic symbol ordering
Relocatable symbols

      At line 431 in file startup_hc32f334.s
   Uses
      At line 73 in file startup_hc32f334.s
      At line 284 in file startup_hc32f334.s

IRQ005_Handler 0000001A

Symbol: IRQ005_Handler
   Definitions
      At line 432 in file startup_hc32f334.s
   Uses
      At line 74 in file startup_hc32f334.s
      At line 285 in file startup_hc32f334.s

IRQ006_Handler 0000001A

Symbol: IRQ006_Handler
   Definitions
      At line 433 in file startup_hc32f334.s
   Uses
      At line 75 in file startup_hc32f334.s
      At line 286 in file startup_hc32f334.s

IRQ007_Handler 0000001A

Symbol: IRQ007_Handler
   Definitions
      At line 434 in file startup_hc32f334.s
   Uses
      At line 76 in file startup_hc32f334.s
      At line 287 in file startup_hc32f334.s

IRQ008_Handler 0000001A

Symbol: IRQ008_Handler
   Definitions
      At line 435 in file startup_hc32f334.s
   Uses
      At line 77 in file startup_hc32f334.s
      At line 288 in file startup_hc32f334.s

IRQ009_Handler 0000001A

Symbol: IRQ009_Handler
   Definitions
      At line 436 in file startup_hc32f334.s
   Uses
      At line 78 in file startup_hc32f334.s
      At line 289 in file startup_hc32f334.s

IRQ010_Handler 0000001A

Symbol: IRQ010_Handler
   Definitions
      At line 437 in file startup_hc32f334.s
   Uses
      At line 79 in file startup_hc32f334.s
      At line 290 in file startup_hc32f334.s




ARM Macro Assembler    Page 15 Alphabetic symbol ordering
Relocatable symbols

IRQ011_Handler 0000001A

Symbol: IRQ011_Handler
   Definitions
      At line 438 in file startup_hc32f334.s
   Uses
      At line 80 in file startup_hc32f334.s
      At line 291 in file startup_hc32f334.s

IRQ012_Handler 0000001A

Symbol: IRQ012_Handler
   Definitions
      At line 439 in file startup_hc32f334.s
   Uses
      At line 81 in file startup_hc32f334.s
      At line 292 in file startup_hc32f334.s

IRQ013_Handler 0000001A

Symbol: IRQ013_Handler
   Definitions
      At line 440 in file startup_hc32f334.s
   Uses
      At line 82 in file startup_hc32f334.s
      At line 293 in file startup_hc32f334.s

IRQ014_Handler 0000001A

Symbol: IRQ014_Handler
   Definitions
      At line 441 in file startup_hc32f334.s
   Uses
      At line 83 in file startup_hc32f334.s
      At line 294 in file startup_hc32f334.s

IRQ015_Handler 0000001A

Symbol: IRQ015_Handler
   Definitions
      At line 442 in file startup_hc32f334.s
   Uses
      At line 84 in file startup_hc32f334.s
      At line 295 in file startup_hc32f334.s

MCAN1_INT0_Handler 0000001A

Symbol: MCAN1_INT0_Handler
   Definitions
      At line 536 in file startup_hc32f334.s
   Uses
      At line 178 in file startup_hc32f334.s
      At line 389 in file startup_hc32f334.s

MCAN1_INT1_Handler 0000001A

Symbol: MCAN1_INT1_Handler
   Definitions
      At line 537 in file startup_hc32f334.s



ARM Macro Assembler    Page 16 Alphabetic symbol ordering
Relocatable symbols

   Uses
      At line 179 in file startup_hc32f334.s
      At line 390 in file startup_hc32f334.s

MCAN2_INT0_Handler 0000001A

Symbol: MCAN2_INT0_Handler
   Definitions
      At line 538 in file startup_hc32f334.s
   Uses
      At line 180 in file startup_hc32f334.s
      At line 391 in file startup_hc32f334.s

MCAN2_INT1_Handler 0000001A

Symbol: MCAN2_INT1_Handler
   Definitions
      At line 539 in file startup_hc32f334.s
   Uses
      At line 181 in file startup_hc32f334.s
      At line 392 in file startup_hc32f334.s

MCANRAM_ECCError_Handler 0000001A

Symbol: MCANRAM_ECCError_Handler
   Definitions
      At line 535 in file startup_hc32f334.s
   Uses
      At line 177 in file startup_hc32f334.s
      At line 388 in file startup_hc32f334.s

MemManage_Handler 0000000C

Symbol: MemManage_Handler
   Definitions
      At line 247 in file startup_hc32f334.s
   Uses
      At line 55 in file startup_hc32f334.s
      At line 248 in file startup_hc32f334.s

NMI_Handler 00000008

Symbol: NMI_Handler
   Definitions
      At line 237 in file startup_hc32f334.s
   Uses
      At line 53 in file startup_hc32f334.s
      At line 238 in file startup_hc32f334.s

PLA_Handler 0000001A

Symbol: PLA_Handler
   Definitions
      At line 563 in file startup_hc32f334.s
   Uses
      At line 205 in file startup_hc32f334.s
      At line 416 in file startup_hc32f334.s

PWC_LVD1_Handler 0000001A



ARM Macro Assembler    Page 17 Alphabetic symbol ordering
Relocatable symbols


Symbol: PWC_LVD1_Handler
   Definitions
      At line 565 in file startup_hc32f334.s
   Uses
      At line 207 in file startup_hc32f334.s
      At line 418 in file startup_hc32f334.s

PWC_LVD2_Handler 0000001A

Symbol: PWC_LVD2_Handler
   Definitions
      At line 566 in file startup_hc32f334.s
   Uses
      At line 208 in file startup_hc32f334.s
      At line 419 in file startup_hc32f334.s

PWC_WKTM_Handler 0000001A

Symbol: PWC_WKTM_Handler
   Definitions
      At line 475 in file startup_hc32f334.s
   Uses
      At line 117 in file startup_hc32f334.s
      At line 328 in file startup_hc32f334.s

PendSV_Handler 00000016

Symbol: PendSV_Handler
   Definitions
      At line 270 in file startup_hc32f334.s
   Uses
      At line 65 in file startup_hc32f334.s
      At line 271 in file startup_hc32f334.s

RTC_Handler 0000001A

Symbol: RTC_Handler
   Definitions
      At line 473 in file startup_hc32f334.s
   Uses
      At line 115 in file startup_hc32f334.s
      At line 326 in file startup_hc32f334.s

Reset_Handler 00000000

Symbol: Reset_Handler
   Definitions
      At line 224 in file startup_hc32f334.s
   Uses
      At line 52 in file startup_hc32f334.s
      At line 225 in file startup_hc32f334.s

SPI_Handler 0000001A

Symbol: SPI_Handler
   Definitions
      At line 550 in file startup_hc32f334.s
   Uses



ARM Macro Assembler    Page 18 Alphabetic symbol ordering
Relocatable symbols

      At line 192 in file startup_hc32f334.s
      At line 403 in file startup_hc32f334.s

SVC_Handler 00000012

Symbol: SVC_Handler
   Definitions
      At line 261 in file startup_hc32f334.s
   Uses
      At line 62 in file startup_hc32f334.s
      At line 262 in file startup_hc32f334.s

SWDT_Handler 0000001A

Symbol: SWDT_Handler
   Definitions
      At line 476 in file startup_hc32f334.s
   Uses
      At line 118 in file startup_hc32f334.s
      At line 329 in file startup_hc32f334.s

SysTick_Handler 00000018

Symbol: SysTick_Handler
   Definitions
      At line 274 in file startup_hc32f334.s
   Uses
      At line 66 in file startup_hc32f334.s
      At line 275 in file startup_hc32f334.s

TMR0_1_Handler 0000001A

Symbol: TMR0_1_Handler
   Definitions
      At line 471 in file startup_hc32f334.s
   Uses
      At line 113 in file startup_hc32f334.s
      At line 324 in file startup_hc32f334.s

TMR0_2_Handler 0000001A

Symbol: TMR0_2_Handler
   Definitions
      At line 472 in file startup_hc32f334.s
   Uses
      At line 114 in file startup_hc32f334.s
      At line 325 in file startup_hc32f334.s

TMR4_GCmp_Handler 0000001A

Symbol: TMR4_GCmp_Handler
   Definitions
      At line 540 in file startup_hc32f334.s
   Uses
      At line 182 in file startup_hc32f334.s
      At line 393 in file startup_hc32f334.s

TMR4_Ovf_Udf_Handler 0000001A




ARM Macro Assembler    Page 19 Alphabetic symbol ordering
Relocatable symbols

Symbol: TMR4_Ovf_Udf_Handler
   Definitions
      At line 541 in file startup_hc32f334.s
   Uses
      At line 183 in file startup_hc32f334.s
      At line 394 in file startup_hc32f334.s

TMR4_Reload_Handler 0000001A

Symbol: TMR4_Reload_Handler
   Definitions
      At line 542 in file startup_hc32f334.s
   Uses
      At line 184 in file startup_hc32f334.s
      At line 395 in file startup_hc32f334.s

TMR4_SCmp_Handler 0000001A

Symbol: TMR4_SCmp_Handler
   Definitions
      At line 543 in file startup_hc32f334.s
   Uses
      At line 185 in file startup_hc32f334.s
      At line 396 in file startup_hc32f334.s

TMR6_1_Dte_Handler 0000001A

Symbol: TMR6_1_Dte_Handler
   Definitions
      At line 479 in file startup_hc32f334.s
   Uses
      At line 121 in file startup_hc32f334.s
      At line 332 in file startup_hc32f334.s

TMR6_1_GCmp_Handler 0000001A

Symbol: TMR6_1_GCmp_Handler
   Definitions
      At line 477 in file startup_hc32f334.s
   Uses
      At line 119 in file startup_hc32f334.s
      At line 330 in file startup_hc32f334.s

TMR6_1_Ovf_Udf_Handler 0000001A

Symbol: TMR6_1_Ovf_Udf_Handler
   Definitions
      At line 478 in file startup_hc32f334.s
   Uses
      At line 120 in file startup_hc32f334.s
      At line 331 in file startup_hc32f334.s

TMR6_1_SCmp_Handler 0000001A

Symbol: TMR6_1_SCmp_Handler
   Definitions
      At line 480 in file startup_hc32f334.s
   Uses
      At line 122 in file startup_hc32f334.s



ARM Macro Assembler    Page 20 Alphabetic symbol ordering
Relocatable symbols

      At line 333 in file startup_hc32f334.s

TMR6_2_Dte_Handler 0000001A

Symbol: TMR6_2_Dte_Handler
   Definitions
      At line 485 in file startup_hc32f334.s
   Uses
      At line 127 in file startup_hc32f334.s
      At line 338 in file startup_hc32f334.s

TMR6_2_GCmp_Handler 0000001A

Symbol: TMR6_2_GCmp_Handler
   Definitions
      At line 483 in file startup_hc32f334.s
   Uses
      At line 125 in file startup_hc32f334.s
      At line 336 in file startup_hc32f334.s

TMR6_2_Ovf_Udf_Handler 0000001A

Symbol: TMR6_2_Ovf_Udf_Handler
   Definitions
      At line 484 in file startup_hc32f334.s
   Uses
      At line 126 in file startup_hc32f334.s
      At line 337 in file startup_hc32f334.s

TMR6_2_SCmp_Handler 0000001A

Symbol: TMR6_2_SCmp_Handler
   Definitions
      At line 486 in file startup_hc32f334.s
   Uses
      At line 128 in file startup_hc32f334.s
      At line 339 in file startup_hc32f334.s

TMR6_3_Dte_Handler 0000001A

Symbol: TMR6_3_Dte_Handler
   Definitions
      At line 491 in file startup_hc32f334.s
   Uses
      At line 133 in file startup_hc32f334.s
      At line 344 in file startup_hc32f334.s

TMR6_3_GCmp_Handler 0000001A

Symbol: TMR6_3_GCmp_Handler
   Definitions
      At line 489 in file startup_hc32f334.s
   Uses
      At line 131 in file startup_hc32f334.s
      At line 342 in file startup_hc32f334.s

TMR6_3_Ovf_Udf_Handler 0000001A

Symbol: TMR6_3_Ovf_Udf_Handler



ARM Macro Assembler    Page 21 Alphabetic symbol ordering
Relocatable symbols

   Definitions
      At line 490 in file startup_hc32f334.s
   Uses
      At line 132 in file startup_hc32f334.s
      At line 343 in file startup_hc32f334.s

TMR6_3_SCmp_Handler 0000001A

Symbol: TMR6_3_SCmp_Handler
   Definitions
      At line 492 in file startup_hc32f334.s
   Uses
      At line 134 in file startup_hc32f334.s
      At line 345 in file startup_hc32f334.s

TMR6_4_Dte_Handler 0000001A

Symbol: TMR6_4_Dte_Handler
   Definitions
      At line 497 in file startup_hc32f334.s
   Uses
      At line 139 in file startup_hc32f334.s
      At line 350 in file startup_hc32f334.s

TMR6_4_GCmp_Handler 0000001A

Symbol: TMR6_4_GCmp_Handler
   Definitions
      At line 495 in file startup_hc32f334.s
   Uses
      At line 137 in file startup_hc32f334.s
      At line 348 in file startup_hc32f334.s

TMR6_4_Ovf_Udf_Handler 0000001A

Symbol: TMR6_4_Ovf_Udf_Handler
   Definitions
      At line 496 in file startup_hc32f334.s
   Uses
      At line 138 in file startup_hc32f334.s
      At line 349 in file startup_hc32f334.s

TMR6_4_SCmp_Handler 0000001A

Symbol: TMR6_4_SCmp_Handler
   Definitions
      At line 498 in file startup_hc32f334.s
   Uses
      At line 140 in file startup_hc32f334.s
      At line 351 in file startup_hc32f334.s

TMRA_1_Cmp_Handler 0000001A

Symbol: TMRA_1_Cmp_Handler
   Definitions
      At line 482 in file startup_hc32f334.s
   Uses
      At line 124 in file startup_hc32f334.s
      At line 335 in file startup_hc32f334.s



ARM Macro Assembler    Page 22 Alphabetic symbol ordering
Relocatable symbols


TMRA_1_Ovf_Udf_Handler 0000001A

Symbol: TMRA_1_Ovf_Udf_Handler
   Definitions
      At line 481 in file startup_hc32f334.s
   Uses
      At line 123 in file startup_hc32f334.s
      At line 334 in file startup_hc32f334.s

TMRA_2_Cmp_Handler 0000001A

Symbol: TMRA_2_Cmp_Handler
   Definitions
      At line 488 in file startup_hc32f334.s
   Uses
      At line 130 in file startup_hc32f334.s
      At line 341 in file startup_hc32f334.s

TMRA_2_Ovf_Udf_Handler 0000001A

Symbol: TMRA_2_Ovf_Udf_Handler
   Definitions
      At line 487 in file startup_hc32f334.s
   Uses
      At line 129 in file startup_hc32f334.s
      At line 340 in file startup_hc32f334.s

TMRA_3_Cmp_Handler 0000001A

Symbol: TMRA_3_Cmp_Handler
   Definitions
      At line 494 in file startup_hc32f334.s
   Uses
      At line 136 in file startup_hc32f334.s
      At line 347 in file startup_hc32f334.s

TMRA_3_Ovf_Udf_Handler 0000001A

Symbol: TMRA_3_Ovf_Udf_Handler
   Definitions
      At line 493 in file startup_hc32f334.s
   Uses
      At line 135 in file startup_hc32f334.s
      At line 346 in file startup_hc32f334.s

TMRA_4_Cmp_Handler 0000001A

Symbol: TMRA_4_Cmp_Handler
   Definitions
      At line 500 in file startup_hc32f334.s
   Uses
      At line 142 in file startup_hc32f334.s
      At line 353 in file startup_hc32f334.s

TMRA_4_Ovf_Udf_Handler 0000001A

Symbol: TMRA_4_Ovf_Udf_Handler
   Definitions



ARM Macro Assembler    Page 23 Alphabetic symbol ordering
Relocatable symbols

      At line 499 in file startup_hc32f334.s
   Uses
      At line 141 in file startup_hc32f334.s
      At line 352 in file startup_hc32f334.s

TMRA_5_Cmp_Handler 0000001A

Symbol: TMRA_5_Cmp_Handler
   Definitions
      At line 552 in file startup_hc32f334.s
   Uses
      At line 194 in file startup_hc32f334.s
      At line 405 in file startup_hc32f334.s

TMRA_5_Ovf_Udf_Handler 0000001A

Symbol: TMRA_5_Ovf_Udf_Handler
   Definitions
      At line 551 in file startup_hc32f334.s
   Uses
      At line 193 in file startup_hc32f334.s
      At line 404 in file startup_hc32f334.s

USART1_Handler 0000001A

Symbol: USART1_Handler
   Definitions
      At line 548 in file startup_hc32f334.s
   Uses
      At line 190 in file startup_hc32f334.s
      At line 401 in file startup_hc32f334.s

USART1_TCI_Handler 0000001A

Symbol: USART1_TCI_Handler
   Definitions
      At line 549 in file startup_hc32f334.s
   Uses
      At line 191 in file startup_hc32f334.s
      At line 402 in file startup_hc32f334.s

USART1_WKUP_Handler 0000001A

Symbol: USART1_WKUP_Handler
   Definitions
      At line 564 in file startup_hc32f334.s
   Uses
      At line 206 in file startup_hc32f334.s
      At line 417 in file startup_hc32f334.s

USART2_Handler 0000001A

Symbol: USART2_Handler
   Definitions
      At line 557 in file startup_hc32f334.s
   Uses
      At line 199 in file startup_hc32f334.s
      At line 410 in file startup_hc32f334.s




ARM Macro Assembler    Page 24 Alphabetic symbol ordering
Relocatable symbols

USART2_TxComplete_Handler 0000001A

Symbol: USART2_TxComplete_Handler
   Definitions
      At line 558 in file startup_hc32f334.s
   Uses
      At line 200 in file startup_hc32f334.s
      At line 411 in file startup_hc32f334.s

USART3_Handler 0000001A

Symbol: USART3_Handler
   Definitions
      At line 559 in file startup_hc32f334.s
   Uses
      At line 201 in file startup_hc32f334.s
      At line 412 in file startup_hc32f334.s

USART3_TxComplete_Handler 0000001A

Symbol: USART3_TxComplete_Handler
   Definitions
      At line 560 in file startup_hc32f334.s
   Uses
      At line 202 in file startup_hc32f334.s
      At line 413 in file startup_hc32f334.s

USART4_Handler 0000001A

Symbol: USART4_Handler
   Definitions
      At line 561 in file startup_hc32f334.s
   Uses
      At line 203 in file startup_hc32f334.s
      At line 414 in file startup_hc32f334.s

USART4_TxComplete_Handler 0000001A

Symbol: USART4_TxComplete_Handler
   Definitions
      At line 562 in file startup_hc32f334.s
   Uses
      At line 204 in file startup_hc32f334.s
      At line 415 in file startup_hc32f334.s

UsageFault_Handler 00000010

Symbol: UsageFault_Handler
   Definitions
      At line 257 in file startup_hc32f334.s
   Uses
      At line 57 in file startup_hc32f334.s
      At line 258 in file startup_hc32f334.s

WDT_Handler 0000001A

Symbol: WDT_Handler
   Definitions
      At line 568 in file startup_hc32f334.s



ARM Macro Assembler    Page 25 Alphabetic symbol ordering
Relocatable symbols

   Uses
      At line 210 in file startup_hc32f334.s
      At line 421 in file startup_hc32f334.s

158 symbols



ARM Macro Assembler    Page 1 Alphabetic symbol ordering
Absolute symbols

Heap_Size 00000400

Symbol: Heap_Size
   Definitions
      At line 34 in file startup_hc32f334.s
   Uses
      At line 38 in file startup_hc32f334.s
Comment: Heap_Size used once
Stack_Size 00000C00

Symbol: Stack_Size
   Definitions
      At line 24 in file startup_hc32f334.s
   Uses
      At line 27 in file startup_hc32f334.s
Comment: Stack_Size used once
__Vectors_Size 00000288

Symbol: __Vectors_Size
   Definitions
      At line 218 in file startup_hc32f334.s
   Uses
      At line 49 in file startup_hc32f334.s
Comment: __Vectors_Size used once
3 symbols



ARM Macro Assembler    Page 1 Alphabetic symbol ordering
External symbols

SystemInit 00000000

Symbol: SystemInit
   Definitions
      At line 226 in file startup_hc32f334.s
   Uses
      At line 229 in file startup_hc32f334.s
Comment: SystemInit used once
__main 00000000

Symbol: __main
   Definitions
      At line 227 in file startup_hc32f334.s
   Uses
      At line 231 in file startup_hc32f334.s
Comment: __main used once
2 symbols
508 symbols in table
