Component: ARM Compiler 5.06 update 6 (build 750) Tool: armlink [4d35ed]

==============================================================================

Section Cross References

    system_hc32f334.o(i.SystemCoreClockUpdate) refers to system_hc32f334.o(.bss.noinit) for .bss.noinit
    system_hc32f334.o(i.SystemInit) refers to system_hc32f334.o(i.SystemCoreClockUpdate) for SystemCoreClockUpdate
    startup_hc32f334.o(STACK) refers (Special) to heapauxi.o(.text) for __use_two_region_memory
    startup_hc32f334.o(HEAP) refers (Special) to heapauxi.o(.text) for __use_two_region_memory
    startup_hc32f334.o(RESET) refers (Special) to heapauxi.o(.text) for __use_two_region_memory
    startup_hc32f334.o(RESET) refers to startup_hc32f334.o(STACK) for __initial_sp
    startup_hc32f334.o(RESET) refers to startup_hc32f334.o(.text) for Reset_Handler
    startup_hc32f334.o(RESET) refers to hc32_ll_interrupts.o(i.IRQ000_Handler) for IRQ000_Handler
    startup_hc32f334.o(RESET) refers to hc32_ll_interrupts.o(i.IRQ001_Handler) for IRQ001_Handler
    startup_hc32f334.o(RESET) refers to hc32_ll_interrupts.o(i.IRQ002_Handler) for IRQ002_Handler
    startup_hc32f334.o(RESET) refers to hc32_ll_interrupts.o(i.IRQ003_Handler) for IRQ003_Handler
    startup_hc32f334.o(RESET) refers to hc32_ll_interrupts.o(i.IRQ004_Handler) for IRQ004_Handler
    startup_hc32f334.o(RESET) refers to hc32_ll_interrupts.o(i.IRQ005_Handler) for IRQ005_Handler
    startup_hc32f334.o(RESET) refers to hc32_ll_interrupts.o(i.IRQ006_Handler) for IRQ006_Handler
    startup_hc32f334.o(RESET) refers to hc32_ll_interrupts.o(i.IRQ007_Handler) for IRQ007_Handler
    startup_hc32f334.o(RESET) refers to hc32_ll_interrupts.o(i.IRQ008_Handler) for IRQ008_Handler
    startup_hc32f334.o(RESET) refers to hc32_ll_interrupts.o(i.IRQ009_Handler) for IRQ009_Handler
    startup_hc32f334.o(RESET) refers to hc32_ll_interrupts.o(i.IRQ010_Handler) for IRQ010_Handler
==============================================================================

Removing Unused input sections from the image.

    Removing system_hc32f334.o(.rev16_text), (4 bytes).
    Removing system_hc32f334.o(.revsh_text), (4 bytes).
    Removing system_hc32f334.o(.rrx_text), (6 bytes).
    Removing hc32_ll.o(.rev16_text), (4 bytes).
    Removing hc32_ll.o(.revsh_text), (4 bytes).
    Removing hc32_ll.o(.rrx_text), (6 bytes).
    Removing hc32_ll_clk.o(.rev16_text), (4 bytes).
    Removing hc32_ll_clk.o(.revsh_text), (4 bytes).
    Removing hc32_ll_clk.o(.rrx_text), (6 bytes).
    Removing hc32_ll_clk.o(i.CLK_ClearXtalStdStatus), (88 bytes).
    Removing hc32_ll_clk.o(i.CLK_GetBusClockFreq), (216 bytes).
    Removing hc32_ll_clk.o(i.CLK_GetClockFreq), (232 bytes).
    Removing hc32_ll_clk.o(i.CLK_GetPLLClockFreq), (152 bytes).
    Removing hc32_ll_clk.o(i.CLK_GetXtalStdStatus), (20 bytes).
    Removing hc32_ll_clk.o(i.CLK_HrcCmd), (160 bytes).
    Removing hc32_ll_clk.o(i.CLK_HrcTrim), (80 bytes).
    Removing hc32_ll_clk.o(i.CLK_LrcCmd), (144 bytes).
    Removing hc32_ll_clk.o(i.CLK_LrcTrim), (84 bytes).
==============================================================================

Image Symbol Table

    Local Symbols

    Symbol Name                              Value     Ov Type        Size  Object(Section)

    RESET                                    0x00000000   Section      648  startup_hc32f334.o(RESET)
    ../clib/angel/boardlib.s                 0x00000000   Number         0  boardshut.o ABSOLUTE
    ../clib/angel/boardlib.s                 0x00000000   Number         0  boardinit2.o ABSOLUTE
    ../clib/angel/boardlib.s                 0x00000000   Number         0  boardinit3.o ABSOLUTE
    ../clib/angel/boardlib.s                 0x00000000   Number         0  boardinit1.o ABSOLUTE
    ../clib/angel/dclz77c.s                  0x00000000   Number         0  __dclz77c.o ABSOLUTE
    ../clib/angel/handlers.s                 0x00000000   Number         0  __scatter_zi.o ABSOLUTE
    ../clib/angel/kernel.s                   0x00000000   Number         0  rtexit.o ABSOLUTE
    ../clib/angel/kernel.s                   0x00000000   Number         0  __rtentry.o ABSOLUTE
    ../clib/angel/kernel.s                   0x00000000   Number         0  rtexit2.o ABSOLUTE
    ../clib/angel/kernel.s                   0x00000000   Number         0  __rtentry2.o ABSOLUTE
    ../clib/angel/kernel.s                   0x00000000   Number         0  __rtentry4.o ABSOLUTE
    ../clib/angel/rt.s                       0x00000000   Number         0  rt_raise.o ABSOLUTE
    ../clib/angel/rt.s                       0x00000000   Number         0  aeabi_ldiv0.o ABSOLUTE
    ../clib/angel/rt.s                       0x00000000   Number         0  aeabi_ldiv0_sigfpe.o ABSOLUTE
    ../clib/angel/rt.s                       0x00000000   Number         0  rt_div0.o ABSOLUTE
    ../clib/angel/scatter.s                  0x00000000   Number         0  __scatter.o ABSOLUTE
    ../clib/angel/startup.s                  0x00000000   Number         0  __main.o ABSOLUTE
    ../clib/angel/sys.s                      0x00000000   Number         0  indicate_semi.o ABSOLUTE
    ../clib/angel/sys.s                      0x00000000   Number         0  use_no_semi.o ABSOLUTE
    ../clib/angel/sys.s                      0x00000000   Number         0  libspace.o ABSOLUTE
    ../clib/angel/sys.s                      0x00000000   Number         0  sys_stackheap_outer.o ABSOLUTE
    ../clib/angel/sysapp.c                   0x00000000   Number         0  sys_wrch.o ABSOLUTE
    ../clib/angel/sysapp.c                   0x00000000   Number         0  sys_command.o ABSOLUTE
    ../clib/angel/sysapp.c                   0x00000000   Number         0  sys_exit.o ABSOLUTE
    ../clib/armsys.c                         0x00000000   Number         0  no_argv.o ABSOLUTE
    ../clib/armsys.c                         0x00000000   Number         0  _get_argv_nomalloc.o ABSOLUTE
    ../clib/armsys.c                         0x00000000   Number         0  argv_veneer.o ABSOLUTE
    ../clib/armsys.c                         0x00000000   Number         0  argv_veneer.o ABSOLUTE
    ../clib/heapalloc.c                      0x00000000   Number         0  hrguard.o ABSOLUTE
    ../clib/heapaux.c                        0x00000000   Number         0  heapauxi.o ABSOLUTE
    ../clib/libinit.s                        0x00000000   Number         0  libshutdown.o ABSOLUTE
    ../clib/libinit.s                        0x00000000   Number         0  libshutdown2.o ABSOLUTE
    ../clib/libinit.s                        0x00000000   Number         0  libinit2.o ABSOLUTE
    ../clib/libinit.s                        0x00000000   Number         0  libinit.o ABSOLUTE
    ../clib/longlong.s                       0x00000000   Number         0  llshl.o ABSOLUTE
    ../clib/longlong.s                       0x00000000   Number         0  lludivv7m.o ABSOLUTE
    ../clib/signal.c                         0x00000000   Number         0  defsig_general.o ABSOLUTE
    ../clib/signal.c                         0x00000000   Number         0  defsig_exit.o ABSOLUTE
    ../clib/signal.c                         0x00000000   Number         0  defsig_fpe_inner.o ABSOLUTE
    ../clib/signal.c                         0x00000000   Number         0  defsig_fpe_formal.o ABSOLUTE
    ../clib/signal.c                         0x00000000   Number         0  defsig_fpe_outer.o ABSOLUTE
    ../clib/signal.c                         0x00000000   Number         0  defsig_segv_inner.o ABSOLUTE
    ../clib/signal.c                         0x00000000   Number         0  defsig_pvfn_inner.o ABSOLUTE
    ../clib/signal.c                         0x00000000   Number         0  defsig_stak_inner.o ABSOLUTE
    ../clib/signal.c                         0x00000000   Number         0  defsig_rtmem_formal.o ABSOLUTE
    ../clib/signal.c                         0x00000000   Number         0  defsig_rtmem_outer.o ABSOLUTE
    ../clib/signal.c                         0x00000000   Number         0  defsig_rtmem_inner.o ABSOLUTE
    ../clib/signal.c                         0x00000000   Number         0  defsig_rtred_inner.o ABSOLUTE
    ../clib/signal.c                         0x00000000   Number         0  defsig_abrt_inner.o ABSOLUTE
    ../clib/signal.c                         0x00000000   Number         0  defsig_other.o ABSOLUTE
    ../clib/signal.c                         0x00000000   Number         0  defsig_cppl_inner.o ABSOLUTE
    ../clib/signal.c                         0x00000000   Number         0  __raise.o ABSOLUTE
    ../clib/signal.s                         0x00000000   Number         0  defsig.o ABSOLUTE
    ../clib/stdlib.c                         0x00000000   Number         0  exit.o ABSOLUTE
    ../fplib/d2f.s                           0x00000000   Number         0  d2f.o ABSOLUTE
    ../fplib/daddsub.s                       0x00000000   Number         0  daddsub_clz.o ABSOLUTE
    ../fplib/ddiv.s                          0x00000000   Number         0  ddiv.o ABSOLUTE
    ../fplib/dfixu.s                         0x00000000   Number         0  dfixu.o ABSOLUTE
    ../fplib/dflt.s                          0x00000000   Number         0  dflt_clz.o ABSOLUTE
    ../fplib/dfltll.s                        0x00000000   Number         0  dfltll_clz.o ABSOLUTE
    ../fplib/dmul.s                          0x00000000   Number         0  dmul.o ABSOLUTE
    ../fplib/dnaninf.s                       0x00000000   Number         0  dnaninf.o ABSOLUTE
    ../fplib/dretinf.s                       0x00000000   Number         0  dretinf.o ABSOLUTE
    ../fplib/f2d.s                           0x00000000   Number         0  f2d.o ABSOLUTE
    ../fplib/fnaninf.s                       0x00000000   Number         0  fnaninf.o ABSOLUTE
    ../fplib/fpinit.s                        0x00000000   Number         0  fpinit.o ABSOLUTE
    ../fplib/fretinf.s                       0x00000000   Number         0  fretinf.o ABSOLUTE
    ../fplib/usenofp.s                       0x00000000   Number         0  usenofp.o ABSOLUTE
    ..\\drivers\\bsp\\ev_hc32f334_lqfp64\\ev_hc32f334_lqfp64.c 0x00000000   Number         0  ev_hc32f334_lqfp64.o ABSOLUTE
    ..\\drivers\\cmsis\\Device\\HDSC\\hc32f3xx\\Source\\system_hc32f334.c 0x00000000   Number         0  system_hc32f334.o ABSOLUTE
    ..\\drivers\\hc32_ll_driver\\src\\hc32_ll.c 0x00000000   Number         0  hc32_ll.o ABSOLUTE
    ..\\drivers\\hc32_ll_driver\\src\\hc32_ll_adc.c 0x00000000   Number         0  hc32_ll_adc.o ABSOLUTE
    ..\\drivers\\hc32_ll_driver\\src\\hc32_ll_aos.c 0x00000000   Number         0  hc32_ll_aos.o ABSOLUTE
    ..\\drivers\\hc32_ll_driver\\src\\hc32_ll_clk.c 0x00000000   Number         0  hc32_ll_clk.o ABSOLUTE
    ..\\drivers\\hc32_ll_driver\\src\\hc32_ll_cmp.c 0x00000000   Number         0  hc32_ll_cmp.o ABSOLUTE
    ..\\drivers\\hc32_ll_driver\\src\\hc32_ll_dac.c 0x00000000   Number         0  hc32_ll_dac.o ABSOLUTE
    ..\\drivers\\hc32_ll_driver\\src\\hc32_ll_dma.c 0x00000000   Number         0  hc32_ll_dma.o ABSOLUTE
    ..\\drivers\\hc32_ll_driver\\src\\hc32_ll_efm.c 0x00000000   Number         0  hc32_ll_efm.o ABSOLUTE
    ..\\drivers\\hc32_ll_driver\\src\\hc32_ll_emb.c 0x00000000   Number         0  hc32_ll_emb.o ABSOLUTE
    ..\\drivers\\hc32_ll_driver\\src\\hc32_ll_event_port.c 0x00000000   Number         0  hc32_ll_event_port.o ABSOLUTE
    ..\\drivers\\hc32_ll_driver\\src\\hc32_ll_fcg.c 0x00000000   Number         0  hc32_ll_fcg.o ABSOLUTE
    ..\\drivers\\hc32_ll_driver\\src\\hc32_ll_fcm.c 0x00000000   Number         0  hc32_ll_fcm.o ABSOLUTE
    ..\\drivers\\hc32_ll_driver\\src\\hc32_ll_gpio.c 0x00000000   Number         0  hc32_ll_gpio.o ABSOLUTE
    ..\\drivers\\hc32_ll_driver\\src\\hc32_ll_hrpwm.c 0x00000000   Number         0  hc32_ll_hrpwm.o ABSOLUTE
    ..\\drivers\\hc32_ll_driver\\src\\hc32_ll_i2c.c 0x00000000   Number         0  hc32_ll_i2c.o ABSOLUTE
    ..\\drivers\\hc32_ll_driver\\src\\hc32_ll_icg.c 0x00000000   Number         0  hc32_ll_icg.o ABSOLUTE
    ..\\drivers\\hc32_ll_driver\\src\\hc32_ll_interrupts.c 0x00000000   Number         0  hc32_ll_interrupts.o ABSOLUTE
    ..\\drivers\\hc32_ll_driver\\src\\hc32_ll_mcan.c 0x00000000   Number         0  hc32_ll_mcan.o ABSOLUTE
    ..\\drivers\\hc32_ll_driver\\src\\hc32_ll_pla.c 0x00000000   Number         0  hc32_ll_pla.o ABSOLUTE
    ..\\drivers\\hc32_ll_driver\\src\\hc32_ll_pwc.c 0x00000000   Number         0  hc32_ll_pwc.o ABSOLUTE
    ..\\drivers\\hc32_ll_driver\\src\\hc32_ll_spi.c 0x00000000   Number         0  hc32_ll_spi.o ABSOLUTE
    ..\\drivers\\hc32_ll_driver\\src\\hc32_ll_sram.c 0x00000000   Number         0  hc32_ll_sram.o ABSOLUTE
    ..\\drivers\\hc32_ll_driver\\src\\hc32_ll_tmr0.c 0x00000000   Number         0  hc32_ll_tmr0.o ABSOLUTE
    ..\\drivers\\hc32_ll_driver\\src\\hc32_ll_tmr4.c 0x00000000   Number         0  hc32_ll_tmr4.o ABSOLUTE
    ..\\drivers\\hc32_ll_driver\\src\\hc32_ll_tmr6.c 0x00000000   Number         0  hc32_ll_tmr6.o ABSOLUTE
    ..\\drivers\\hc32_ll_driver\\src\\hc32_ll_tmra.c 0x00000000   Number         0  hc32_ll_tmra.o ABSOLUTE
    ..\\drivers\\hc32_ll_driver\\src\\hc32_ll_usart.c 0x00000000   Number         0  hc32_ll_usart.o ABSOLUTE
    ..\\drivers\\hc32_ll_driver\\src\\hc32_ll_utility.c 0x00000000   Number         0  hc32_ll_utility.o ABSOLUTE
    ..\\user\\src\\adc.c                     0x00000000   Number         0  adc.o ABSOLUTE
    ..\\user\\src\\cmp.c                     0x00000000   Number         0  cmp.o ABSOLUTE
    ..\\user\\src\\control.c                 0x00000000   Number         0  control.o ABSOLUTE
    ..\\user\\src\\dac.c                     0x00000000   Number         0  dac.o ABSOLUTE
    ..\\user\\src\\data.c                    0x00000000   Number         0  data.o ABSOLUTE
    ..\\user\\src\\emb.c                     0x00000000   Number         0  emb.o ABSOLUTE
    ..\\user\\src\\ep.c                      0x00000000   Number         0  ep.o ABSOLUTE
    ..\\user\\src\\gpio.c                    0x00000000   Number         0  gpio.o ABSOLUTE
    ..\\user\\src\\hrtimer.c                 0x00000000   Number         0  hrtimer.o ABSOLUTE
    ..\\user\\src\\main.c                    0x00000000   Number         0  main.o ABSOLUTE
    ..\\user\\src\\pla.c                     0x00000000   Number         0  pla.o ABSOLUTE
    ..\\user\\src\\pwc.c                     0x00000000   Number         0  pwc.o ABSOLUTE
    ..\\user\\src\\table.c                   0x00000000   Number         0  table.o ABSOLUTE
    ..\\user\\src\\time.c                    0x00000000   Number         0  time.o ABSOLUTE
    ..\\user\\src\\variable.c                0x00000000   Number         0  variable.o ABSOLUTE
    ..\drivers\bsp\ev_hc32f334_lqfp64\ev_hc32f334_lqfp64.c 0x00000000   Number         0  ev_hc32f334_lqfp64.o ABSOLUTE
    ..\drivers\cmsis\Device\HDSC\hc32f3xx\Source\ARM\startup_hc32f334.s 0x00000000   Number         0  startup_hc32f334.o ABSOLUTE
    ..\drivers\cmsis\Device\HDSC\hc32f3xx\Source\system_hc32f334.c 0x00000000   Number         0  system_hc32f334.o ABSOLUTE
    ..\drivers\hc32_ll_driver\src\hc32_ll.c  0x00000000   Number         0  hc32_ll.o ABSOLUTE
    ..\drivers\hc32_ll_driver\src\hc32_ll_adc.c 0x00000000   Number         0  hc32_ll_adc.o ABSOLUTE
    ..\drivers\hc32_ll_driver\src\hc32_ll_aos.c 0x00000000   Number         0  hc32_ll_aos.o ABSOLUTE
    ..\drivers\hc32_ll_driver\src\hc32_ll_clk.c 0x00000000   Number         0  hc32_ll_clk.o ABSOLUTE
    ..\drivers\hc32_ll_driver\src\hc32_ll_cmp.c 0x00000000   Number         0  hc32_ll_cmp.o ABSOLUTE
    ..\drivers\hc32_ll_driver\src\hc32_ll_dac.c 0x00000000   Number         0  hc32_ll_dac.o ABSOLUTE
    ..\drivers\hc32_ll_driver\src\hc32_ll_dma.c 0x00000000   Number         0  hc32_ll_dma.o ABSOLUTE
    ..\drivers\hc32_ll_driver\src\hc32_ll_efm.c 0x00000000   Number         0  hc32_ll_efm.o ABSOLUTE
    ..\drivers\hc32_ll_driver\src\hc32_ll_emb.c 0x00000000   Number         0  hc32_ll_emb.o ABSOLUTE
    ..\drivers\hc32_ll_driver\src\hc32_ll_event_port.c 0x00000000   Number         0  hc32_ll_event_port.o ABSOLUTE
    ..\drivers\hc32_ll_driver\src\hc32_ll_fcg.c 0x00000000   Number         0  hc32_ll_fcg.o ABSOLUTE
    ..\drivers\hc32_ll_driver\src\hc32_ll_fcm.c 0x00000000   Number         0  hc32_ll_fcm.o ABSOLUTE
    ..\drivers\hc32_ll_driver\src\hc32_ll_gpio.c 0x00000000   Number         0  hc32_ll_gpio.o ABSOLUTE
    ..\drivers\hc32_ll_driver\src\hc32_ll_hrpwm.c 0x00000000   Number         0  hc32_ll_hrpwm.o ABSOLUTE
    ..\drivers\hc32_ll_driver\src\hc32_ll_i2c.c 0x00000000   Number         0  hc32_ll_i2c.o ABSOLUTE
    ..\drivers\hc32_ll_driver\src\hc32_ll_icg.c 0x00000000   Number         0  hc32_ll_icg.o ABSOLUTE
    ..\drivers\hc32_ll_driver\src\hc32_ll_interrupts.c 0x00000000   Number         0  hc32_ll_interrupts.o ABSOLUTE
    ..\drivers\hc32_ll_driver\src\hc32_ll_mcan.c 0x00000000   Number         0  hc32_ll_mcan.o ABSOLUTE
    ..\drivers\hc32_ll_driver\src\hc32_ll_pla.c 0x00000000   Number         0  hc32_ll_pla.o ABSOLUTE
    ..\drivers\hc32_ll_driver\src\hc32_ll_pwc.c 0x00000000   Number         0  hc32_ll_pwc.o ABSOLUTE
    ..\drivers\hc32_ll_driver\src\hc32_ll_spi.c 0x00000000   Number         0  hc32_ll_spi.o ABSOLUTE
    ..\drivers\hc32_ll_driver\src\hc32_ll_sram.c 0x00000000   Number         0  hc32_ll_sram.o ABSOLUTE
    ..\drivers\hc32_ll_driver\src\hc32_ll_tmr0.c 0x00000000   Number         0  hc32_ll_tmr0.o ABSOLUTE
    ..\drivers\hc32_ll_driver\src\hc32_ll_tmr4.c 0x00000000   Number         0  hc32_ll_tmr4.o ABSOLUTE
    ..\drivers\hc32_ll_driver\src\hc32_ll_tmr6.c 0x00000000   Number         0  hc32_ll_tmr6.o ABSOLUTE
    ..\drivers\hc32_ll_driver\src\hc32_ll_tmra.c 0x00000000   Number         0  hc32_ll_tmra.o ABSOLUTE
    ..\drivers\hc32_ll_driver\src\hc32_ll_usart.c 0x00000000   Number         0  hc32_ll_usart.o ABSOLUTE
    ..\drivers\hc32_ll_driver\src\hc32_ll_utility.c 0x00000000   Number         0  hc32_ll_utility.o ABSOLUTE
    ..\user\src\adc.c                        0x00000000   Number         0  adc.o ABSOLUTE
    ..\user\src\cmp.c                        0x00000000   Number         0  cmp.o ABSOLUTE
    ..\user\src\control.c                    0x00000000   Number         0  control.o ABSOLUTE
    ..\user\src\dac.c                        0x00000000   Number         0  dac.o ABSOLUTE
    ..\user\src\data.c                       0x00000000   Number         0  data.o ABSOLUTE
    ..\user\src\emb.c                        0x00000000   Number         0  emb.o ABSOLUTE
    ..\user\src\ep.c                         0x00000000   Number         0  ep.o ABSOLUTE
    ..\user\src\gpio.c                       0x00000000   Number         0  gpio.o ABSOLUTE
    ..\user\src\hrtimer.c                    0x00000000   Number         0  hrtimer.o ABSOLUTE
    ..\user\src\main.c                       0x00000000   Number         0  main.o ABSOLUTE
    ..\user\src\pla.c                        0x00000000   Number         0  pla.o ABSOLUTE
    ..\user\src\pwc.c                        0x00000000   Number         0  pwc.o ABSOLUTE
    ..\user\src\table.c                      0x00000000   Number         0  table.o ABSOLUTE
    ..\user\src\time.c                       0x00000000   Number         0  time.o ABSOLUTE
    ..\user\src\variable.c                   0x00000000   Number         0  variable.o ABSOLUTE
    dc.s                                     0x00000000   Number         0  dc.o ABSOLUTE
    !!!main                                  0x00000288   Section        8  __main.o(!!!main)
    !!!scatter                               0x00000290   Section       52  __scatter.o(!!!scatter)
    !!dclz77c                                0x000002c4   Section      100  __dclz77c.o(!!dclz77c)
    !!handler_zi                             0x00000328   Section       28  __scatter_zi.o(!!handler_zi)
    .ARM.Collect$$libinit$$00000000          0x00000344   Section        2  libinit.o(.ARM.Collect$$libinit$$00000000)
    .ARM.Collect$$libinit$$00000001          0x00000346   Section        4  libinit2.o(.ARM.Collect$$libinit$$00000001)
    .ARM.Collect$$libinit$$00000004          0x0000034a   Section        0  libinit2.o(.ARM.Collect$$libinit$$00000004)
    .ARM.Collect$$libinit$$0000000A          0x0000034a   Section        0  libinit2.o(.ARM.Collect$$libinit$$0000000A)
    .ARM.Collect$$libinit$$0000000C          0x0000034a   Section        0  libinit2.o(.ARM.Collect$$libinit$$0000000C)
    .ARM.Collect$$libinit$$0000000E          0x0000034a   Section        0  libinit2.o(.ARM.Collect$$libinit$$0000000E)
    .ARM.Collect$$libinit$$00000011          0x0000034a   Section        0  libinit2.o(.ARM.Collect$$libinit$$00000011)
    .ARM.Collect$$libinit$$00000013          0x0000034a   Section        0  libinit2.o(.ARM.Collect$$libinit$$00000013)
    .ARM.Collect$$libinit$$00000015          0x0000034a   Section        0  libinit2.o(.ARM.Collect$$libinit$$00000015)
    .ARM.Collect$$libinit$$00000017          0x0000034a   Section        0  libinit2.o(.ARM.Collect$$libinit$$00000017)
    .ARM.Collect$$libinit$$00000019          0x0000034a   Section        0  libinit2.o(.ARM.Collect$$libinit$$00000019)
    .ARM.Collect$$libinit$$0000001B          0x0000034a   Section        0  libinit2.o(.ARM.Collect$$libinit$$0000001B)
    .ARM.Collect$$libinit$$0000001D          0x0000034a   Section        0  libinit2.o(.ARM.Collect$$libinit$$0000001D)
    .ARM.Collect$$libinit$$0000001F          0x0000034a   Section        0  libinit2.o(.ARM.Collect$$libinit$$0000001F)
    .ARM.Collect$$libinit$$00000021          0x0000034a   Section        0  libinit2.o(.ARM.Collect$$libinit$$00000021)
    .ARM.Collect$$libinit$$00000023          0x0000034a   Section        0  libinit2.o(.ARM.Collect$$libinit$$00000023)
    .ARM.Collect$$libinit$$00000025          0x0000034a   Section        0  libinit2.o(.ARM.Collect$$libinit$$00000025)
    .ARM.Collect$$libinit$$0000002C          0x0000034a   Section        0  libinit2.o(.ARM.Collect$$libinit$$0000002C)
    .ARM.Collect$$libinit$$0000002E          0x0000034a   Section        0  libinit2.o(.ARM.Collect$$libinit$$0000002E)
    .ARM.Collect$$libinit$$00000030          0x0000034a   Section        0  libinit2.o(.ARM.Collect$$libinit$$00000030)
    .ARM.Collect$$libinit$$00000032          0x0000034a   Section        0  libinit2.o(.ARM.Collect$$libinit$$00000032)
    .ARM.Collect$$libinit$$00000033          0x0000034a   Section        2  libinit2.o(.ARM.Collect$$libinit$$00000033)
    .ARM.Collect$$libshutdown$$00000000      0x0000034c   Section        2  libshutdown.o(.ARM.Collect$$libshutdown$$00000000)
    .ARM.Collect$$libshutdown$$00000002      0x0000034e   Section        0  libshutdown2.o(.ARM.Collect$$libshutdown$$00000002)
    .ARM.Collect$$libshutdown$$00000004      0x0000034e   Section        0  libshutdown2.o(.ARM.Collect$$libshutdown$$00000004)
    .ARM.Collect$$libshutdown$$00000007      0x0000034e   Section        0  libshutdown2.o(.ARM.Collect$$libshutdown$$00000007)
    .ARM.Collect$$libshutdown$$0000000A      0x0000034e   Section        0  libshutdown2.o(.ARM.Collect$$libshutdown$$0000000A)
    .ARM.Collect$$libshutdown$$0000000C      0x0000034e   Section        0  libshutdown2.o(.ARM.Collect$$libshutdown$$0000000C)
    .ARM.Collect$$libshutdown$$0000000F      0x0000034e   Section        0  libshutdown2.o(.ARM.Collect$$libshutdown$$0000000F)
    .ARM.Collect$$libshutdown$$00000010      0x0000034e   Section        2  libshutdown2.o(.ARM.Collect$$libshutdown$$00000010)
    .ARM.Collect$$rtentry$$00000000          0x00000350   Section        0  __rtentry.o(.ARM.Collect$$rtentry$$00000000)
    .ARM.Collect$$rtentry$$00000002          0x00000350   Section        0  __rtentry2.o(.ARM.Collect$$rtentry$$00000002)
    .ARM.Collect$$rtentry$$00000004          0x00000350   Section        6  __rtentry4.o(.ARM.Collect$$rtentry$$00000004)
    .ARM.Collect$$rtentry$$00000009          0x00000356   Section        0  __rtentry2.o(.ARM.Collect$$rtentry$$00000009)
    .ARM.Collect$$rtentry$$0000000A          0x00000356   Section        4  __rtentry2.o(.ARM.Collect$$rtentry$$0000000A)
    .ARM.Collect$$rtentry$$0000000C          0x0000035a   Section        0  __rtentry2.o(.ARM.Collect$$rtentry$$0000000C)
    .ARM.Collect$$rtentry$$0000000D          0x0000035a   Section        8  __rtentry2.o(.ARM.Collect$$rtentry$$0000000D)
    .ARM.Collect$$rtexit$$00000000           0x00000362   Section        2  rtexit.o(.ARM.Collect$$rtexit$$00000000)
    .ARM.Collect$$rtexit$$00000002           0x00000364   Section        0  rtexit2.o(.ARM.Collect$$rtexit$$00000002)
    .ARM.Collect$$rtexit$$00000003           0x00000364   Section        4  rtexit2.o(.ARM.Collect$$rtexit$$00000003)
    .ARM.Collect$$rtexit$$00000004           0x00000368   Section        6  rtexit2.o(.ARM.Collect$$rtexit$$00000004)
    .text                                    0x00000370   Section       76  startup_hc32f334.o(.text)
    $v0                                      0x00000370   Number         0  startup_hc32f334.o(.text)
    .text                                    0x000003bc   Section        0  heapauxi.o(.text)
    .text                                    0x000003c2   Section        0  exit.o(.text)
    .text                                    0x000003d4   Section        8  libspace.o(.text)
    .text                                    0x000003dc   Section        0  sys_exit.o(.text)
    .text                                    0x000003e8   Section        2  use_no_semi.o(.text)
    .text                                    0x000003ea   Section        0  indicate_semi.o(.text)
    i.Adc_Init                               0x000003ea   Section        0  adc.o(i.Adc_Init)
    i.DDL_AssertHandler                      0x000003fc   Section        0  hc32_ll_utility.o(i.DDL_AssertHandler)
    x$fpl$usenofp                            0x000003fe   Section        0  usenofp.o(x$fpl$usenofp)
    .ARM.__AT_0x00000400                     0x00000400   Section       96  hc32_ll_icg.o(.ARM.__AT_0x00000400)
    .text                                    0x00000460   Section       74  sys_stackheap_outer.o(.text)
    RAMCODE                                  0x000004ac   Section        0  main.o(RAMCODE)
    RAMCODE                                  0x00000668   Section        0  control.o(RAMCODE)
    RAMCODE                                  0x00000840   Section        0  control.o(RAMCODE)
    i.ADC_Start                              0x00001bf0   Section        0  hc32_ll_adc.o(i.ADC_Start)
    i.BSP_CLK_Init                           0x00001c5c   Section        0  ev_hc32f334_lqfp64.o(i.BSP_CLK_Init)
    i.BandtrapInit                           0x00001d08   Section        0  main.o(i.BandtrapInit)
    i.CLK_GetStableStatus                    0x00001d78   Section        0  hc32_ll_clk.o(i.CLK_GetStableStatus)
    i.CLK_PLLCmd                             0x00001dcc   Section        0  hc32_ll_clk.o(i.CLK_PLLCmd)
    i.CLK_PLLInit                            0x00001e80   Section        0  hc32_ll_clk.o(i.CLK_PLLInit)
    i.CLK_PLLStructInit                      0x00002054   Section        0  hc32_ll_clk.o(i.CLK_PLLStructInit)
    i.CLK_SetClockDiv                        0x00002088   Section        0  hc32_ll_clk.o(i.CLK_SetClockDiv)
    i.CLK_SetSysClockSrc                     0x00002098   Section        0  hc32_ll_clk.o(i.CLK_SetSysClockSrc)
    i.CLK_WaitStable                         0x00002160   Section        0  hc32_ll_clk.o(i.CLK_WaitStable)
    CLK_WaitStable                           0x00002161   Thumb Code    68  hc32_ll_clk.o(i.CLK_WaitStable)
    i.CLK_XtalCmd                            0x000021ac   Section        0  hc32_ll_clk.o(i.CLK_XtalCmd)
    i.CLK_XtalInit                           0x00002250   Section        0  hc32_ll_clk.o(i.CLK_XtalInit)
    i.CLK_XtalStructInit                     0x00002348   Section        0  hc32_ll_clk.o(i.CLK_XtalStructInit)
    i.CMP_CompareOutCmd                      0x00002368   Section        0  hc32_ll_cmp.o(i.CMP_CompareOutCmd)
    i.CMP_DelayUS                            0x000023e4   Section        0  hc32_ll_cmp.o(i.CMP_DelayUS)
    CMP_DelayUS                              0x000023e5   Thumb Code    50  hc32_ll_cmp.o(i.CMP_DelayUS)
    i.CMP_NormalModeInit                     0x00002424   Section        0  hc32_ll_cmp.o(i.CMP_NormalModeInit)
    i.CMP_PinVcoutCmd                        0x00002588   Section        0  hc32_ll_cmp.o(i.CMP_PinVcoutCmd)
    i.CMP_StructInit                         0x00002604   Section        0  hc32_ll_cmp.o(i.CMP_StructInit)
    i.CURR_H_A_DAC1O1                        0x0000261c   Section        0  dac.o(i.CURR_H_A_DAC1O1)
    i.Cmp_Init                               0x00002628   Section        0  cmp.o(i.Cmp_Init)
    i.Cosine                                 0x000026f8   Section        0  table.o(i.Cosine)
    i.DDL_DelayMS                            0x00002774   Section        0  hc32_ll_utility.o(i.DDL_DelayMS)
    i.DDL_DelayUS                            0x000027b8   Section        0  hc32_ll_utility.o(i.DDL_DelayUS)
    i.Dac_Init                               0x000027fc   Section        0  dac.o(i.Dac_Init)
    i.EFM_CacheRamReset                      0x00002850   Section        0  hc32_ll_efm.o(i.EFM_CacheRamReset)
    i.EFM_DCacheCmd                          0x000028b4   Section        0  hc32_ll_efm.o(i.EFM_DCacheCmd)
    i.EFM_ICacheCmd                          0x00002918   Section        0  hc32_ll_efm.o(i.EFM_ICacheCmd)
    i.EFM_PrefetchCmd                        0x0000297c   Section        0  hc32_ll_efm.o(i.EFM_PrefetchCmd)
    i.EFM_SetWaitCycle                       0x000029e0   Section        0  hc32_ll_efm.o(i.EFM_SetWaitCycle)
    i.EMB_ClearStatus                        0x00002a8c   Section        0  hc32_ll_emb.o(i.EMB_ClearStatus)
    i.EMB_GR0_IrqHandler                     0x00002b3c   Section        0  emb.o(i.EMB_GR0_IrqHandler)
    i.EMB_GetStatus                          0x00002c10   Section        0  hc32_ll_emb.o(i.EMB_GetStatus)
    i.EMB_IntCmd                             0x00002cc4   Section        0  hc32_ll_emb.o(i.EMB_IntCmd)
    i.EMB_SetReleasePwmCond                  0x00002d90   Section        0  hc32_ll_emb.o(i.EMB_SetReleasePwmCond)
    i.Emb0_Init                              0x00002e5c   Section        0  emb.o(i.Emb0_Init)
    i.Emb_Init                               0x00002f38   Section        0  emb.o(i.Emb_Init)
    i.FCG_Fcg0PeriphClockCmd                 0x00002fb8   Section        0  hc32_ll_fcg.o(i.FCG_Fcg0PeriphClockCmd)
    i.FCG_Fcg2PeriphClockCmd                 0x00003038   Section        0  hc32_ll_fcg.o(i.FCG_Fcg2PeriphClockCmd)
    i.FCG_Fcg3PeriphClockCmd                 0x000030a0   Section        0  hc32_ll_fcg.o(i.FCG_Fcg3PeriphClockCmd)
    i.GPIO_AnalogCmd                         0x00003108   Section        0  hc32_ll_gpio.o(i.GPIO_AnalogCmd)
    i.GPIO_Init                              0x000031bc   Section        0  hc32_ll_gpio.o(i.GPIO_Init)
    i.GPIO_LLC_HB_outputs_Config             0x000033cc   Section        0  hrtimer.o(i.GPIO_LLC_HB_outputs_Config)
    i.GPIO_ResetPins                         0x0000346c   Section        0  hc32_ll_gpio.o(i.GPIO_ResetPins)
    i.GPIO_SetFunc                           0x000034dc   Section        0  hc32_ll_gpio.o(i.GPIO_SetFunc)
    i.GPIO_SetReadWaitCycle                  0x000035a0   Section        0  hc32_ll_gpio.o(i.GPIO_SetReadWaitCycle)
    i.GPIO_StructInit                        0x00003638   Section        0  hc32_ll_gpio.o(i.GPIO_StructInit)
    i.Gpio_Init                              0x00003664   Section        0  gpio.o(i.Gpio_Init)
    i.HRPWM_Calibrate_ProcessSingle          0x000037e4   Section        0  hrtimer.o(i.HRPWM_Calibrate_ProcessSingle)
    i.HRPWM_DeInit                           0x00003880   Section        0  hc32_ll_hrpwm.o(i.HRPWM_DeInit)
    i.HRPWM_Init                             0x00003a28   Section        0  hc32_ll_hrpwm.o(i.HRPWM_Init)
    i.HRPWM_PH_Config                        0x00003afc   Section        0  hc32_ll_hrpwm.o(i.HRPWM_PH_Config)
    i.HRPWM_PH_StructInit                    0x00003be8   Section        0  hc32_ll_hrpwm.o(i.HRPWM_PH_StructInit)
    i.HRPWM_PWM_StructInit                   0x00003bfc   Section        0  hc32_ll_hrpwm.o(i.HRPWM_PWM_StructInit)
    i.HRTIM_Config                           0x00003c30   Section        0  hrtimer.o(i.HRTIM_Config)
    i.INTC_IrqSignIn                         0x000051b4   Section        0  hc32_ll_interrupts.o(i.INTC_IrqSignIn)
    i.IRQ000_Handler                         0x00005254   Section        0  hc32_ll_interrupts.o(i.IRQ000_Handler)
    i.IRQ001_Handler                         0x00005268   Section        0  hc32_ll_interrupts.o(i.IRQ001_Handler)
    i.IRQ002_Handler                         0x0000527c   Section        0  hc32_ll_interrupts.o(i.IRQ002_Handler)
    i.IRQ003_Handler                         0x00005290   Section        0  hc32_ll_interrupts.o(i.IRQ003_Handler)
    i.IRQ004_Handler                         0x000052a4   Section        0  hc32_ll_interrupts.o(i.IRQ004_Handler)
    i.IRQ005_Handler                         0x000052b8   Section        0  hc32_ll_interrupts.o(i.IRQ005_Handler)
    i.IRQ006_Handler                         0x000052cc   Section        0  hc32_ll_interrupts.o(i.IRQ006_Handler)
    i.IRQ007_Handler                         0x000052e0   Section        0  hc32_ll_interrupts.o(i.IRQ007_Handler)
    i.IRQ008_Handler                         0x000052f4   Section        0  hc32_ll_interrupts.o(i.IRQ008_Handler)
    i.IRQ009_Handler                         0x00005308   Section        0  hc32_ll_interrupts.o(i.IRQ009_Handler)
    i.IRQ010_Handler                         0x0000531c   Section        0  hc32_ll_interrupts.o(i.IRQ010_Handler)
    i.IRQ011_Handler                         0x00005330   Section        0  hc32_ll_interrupts.o(i.IRQ011_Handler)
    i.IRQ012_Handler                         0x00005344   Section        0  hc32_ll_interrupts.o(i.IRQ012_Handler)
    i.IRQ013_Handler                         0x00005358   Section        0  hc32_ll_interrupts.o(i.IRQ013_Handler)
    i.IRQ014_Handler                         0x0000536c   Section        0  hc32_ll_interrupts.o(i.IRQ014_Handler)
    i.IRQ015_Handler                         0x00005380   Section        0  hc32_ll_interrupts.o(i.IRQ015_Handler)
    i.InitMcu_Adc1                           0x00005394   Section        0  adc.o(i.InitMcu_Adc1)
    i.InitMcu_Adc2                           0x000054a8   Section        0  adc.o(i.InitMcu_Adc2)
    i.InitMcu_Adc3                           0x000055d8   Section        0  adc.o(i.InitMcu_Adc3)
    i.LL_PERIPH_WE                           0x000056e0   Section        0  hc32_ll.o(i.LL_PERIPH_WE)
    i.LL_PERIPH_WP                           0x00005760   Section        0  hc32_ll.o(i.LL_PERIPH_WP)
    i.LL_TMR_SWSyncStart                     0x000057e4   Section        0  hc32_ll.o(i.LL_TMR_SWSyncStart)
    i.PWC_LVD_ClearStatus                    0x000057f8   Section        0  hc32_ll_pwc.o(i.PWC_LVD_ClearStatus)
    i.PWC_LVD_Init                           0x00005864   Section        0  hc32_ll_pwc.o(i.PWC_LVD_Init)
    i.PWC_LVD_StructInit                     0x00005a74   Section        0  hc32_ll_pwc.o(i.PWC_LVD_StructInit)
    i.Pwc_Init                               0x00005a98   Section        0  pwc.o(i.Pwc_Init)
    i.SetSysClockDiv                         0x00005af0   Section        0  hc32_ll_clk.o(i.SetSysClockDiv)
    SetSysClockDiv                           0x00005af1   Thumb Code   480  hc32_ll_clk.o(i.SetSysClockDiv)
    i.Sine                                   0x00005ce4   Section        0  table.o(i.Sine)
    i.SystemCoreClockUpdate                  0x00005d74   Section        0  system_hc32f334.o(i.SystemCoreClockUpdate)
    i.SystemInit                             0x00005e0c   Section        0  system_hc32f334.o(i.SystemInit)
    i.TMR0_HWStopCondCmd                     0x00005e2c   Section        0  hc32_ll_tmr0.o(i.TMR0_HWStopCondCmd)
    i.TMR0_Init                              0x00005ebc   Section        0  hc32_ll_tmr0.o(i.TMR0_Init)
    i.TMR0_IntCmd                            0x00005ff4   Section        0  hc32_ll_tmr0.o(i.TMR0_IntCmd)
    i.TMR0_Start                             0x0000607c   Section        0  hc32_ll_tmr0.o(i.TMR0_Start)
    i.TMR0_StructInit                        0x000060fc   Section        0  hc32_ll_tmr0.o(i.TMR0_StructInit)
    i.TMR0_WaitSyncDone                      0x0000611c   Section        0  hc32_ll_tmr0.o(i.TMR0_WaitSyncDone)
    TMR0_WaitSyncDone                        0x0000611d   Thumb Code    78  hc32_ll_tmr0.o(i.TMR0_WaitSyncDone)
    i.Tmr0_Init                              0x00006174   Section        0  time.o(i.Tmr0_Init)
    i.initMcu_CMP1                           0x0000623c   Section        0  cmp.o(i.initMcu_CMP1)
    i.main                                   0x000062b4   Section        0  main.o(i.main)
    x$fpl$dadd                               0x00006c0c   Section      336  daddsub_clz.o(x$fpl$dadd)
    $v0                                      0x00006c0c   Number         0  daddsub_clz.o(x$fpl$dadd)
    _dadd1                                   0x00006c1d   Thumb Code     0  daddsub_clz.o(x$fpl$dadd)
    x$fpl$dfixu                              0x00006d5c   Section       90  dfixu.o(x$fpl$dfixu)
    $v0                                      0x00006d5c   Number         0  dfixu.o(x$fpl$dfixu)
    x$fpl$dmul                               0x00006db8   Section      340  dmul.o(x$fpl$dmul)
    $v0                                      0x00006db8   Number         0  dmul.o(x$fpl$dmul)
    x$fpl$dnaninf                            0x00006f0c   Section      156  dnaninf.o(x$fpl$dnaninf)
    $v0                                      0x00006f0c   Number         0  dnaninf.o(x$fpl$dnaninf)
    x$fpl$dretinf                            0x00006fa8   Section       12  dretinf.o(x$fpl$dretinf)
    $v0                                      0x00006fa8   Number         0  dretinf.o(x$fpl$dretinf)
    x$fpl$dsub                               0x00006fb4   Section      468  daddsub_clz.o(x$fpl$dsub)
    $v0                                      0x00006fb4   Number         0  daddsub_clz.o(x$fpl$dsub)
    _dsub1                                   0x00006fc5   Thumb Code     0  daddsub_clz.o(x$fpl$dsub)
    x$fpl$f2d                                0x00007188   Section       86  f2d.o(x$fpl$f2d)
    $v0                                      0x00007188   Number         0  f2d.o(x$fpl$f2d)
    x$fpl$fnaninf                            0x000071de   Section      140  fnaninf.o(x$fpl$fnaninf)
    $v0                                      0x000071de   Number         0  fnaninf.o(x$fpl$fnaninf)
    x$fpl$fpinit                             0x0000726a   Section       10  fpinit.o(x$fpl$fpinit)
    $v0                                      0x0000726a   Number         0  fpinit.o(x$fpl$fpinit)
    .constdata                               0x00007274   Section    90004  data.o(.constdata)
    .data                                    0x1fffc000   Section        4  main.o(.data)
    Led_up1_cnt                              0x1fffc000   Data           2  main.o(.data)
    Led_low1_cnt                             0x1fffc002   Data           2  main.o(.data)
    .data                                    0x1fffc004   Section        4  variable.o(.data)
    .data                                    0x1fffc008   Section        4  variable.o(.data)
    .data                                    0x1fffc00c   Section        4  variable.o(.data)
    .data                                    0x1fffc010   Section        1  variable.o(.data)
    .data                                    0x1fffc012   Section        2  variable.o(.data)
    .data                                    0x1fffc014   Section        2  variable.o(.data)
    .data                                    0x1fffc016   Section        1  variable.o(.data)
    .data                                    0x1fffc017   Section        1  variable.o(.data)
    .data                                    0x1fffc018   Section        4  variable.o(.data)
    .data                                    0x1fffc01c   Section        4  variable.o(.data)
    .data                                    0x1fffc020   Section        2  variable.o(.data)
    .data                                    0x1fffc022   Section        2  variable.o(.data)
    .data                                    0x1fffc024   Section        2  variable.o(.data)
    .data                                    0x1fffc026   Section        2  variable.o(.data)
    .data                                    0x1fffc028   Section        2  variable.o(.data)
    .data                                    0x1fffc02a   Section        1  variable.o(.data)
    .data                                    0x1fffc02b   Section        1  variable.o(.data)
    .data                                    0x1fffc02c   Section        2  variable.o(.data)
    .data                                    0x1fffc02e   Section        2  variable.o(.data)
    .data                                    0x1fffc030   Section        1  variable.o(.data)
    .data                                    0x1fffc032   Section        2  variable.o(.data)
    .data                                    0x1fffc034   Section        1  variable.o(.data)
    .data                                    0x1fffc035   Section        1  variable.o(.data)
    .data                                    0x1fffc036   Section        1  variable.o(.data)
    .data                                    0x1fffc038   Section        2  variable.o(.data)
    .data                                    0x1fffc03a   Section        2  variable.o(.data)
    .data                                    0x1fffc03c   Section        2  variable.o(.data)
    .data                                    0x1fffc03e   Section        2  variable.o(.data)
    .data                                    0x1fffc040   Section        1  variable.o(.data)
    .data                                    0x1fffc041   Section        1  variable.o(.data)
    .data                                    0x1fffc042   Section        2  variable.o(.data)
    .data                                    0x1fffc044   Section        2  variable.o(.data)
    .data                                    0x1fffc048   Section        4  variable.o(.data)
    .data                                    0x1fffc04c   Section        1  variable.o(.data)
    .data                                    0x1fffc04e   Section        2  variable.o(.data)
    .data                                    0x1fffc050   Section        2  variable.o(.data)
    .data                                    0x1fffc054   Section        4  variable.o(.data)
    .data                                    0x1fffc058   Section        2  variable.o(.data)
    .data                                    0x1fffc05a   Section        1  variable.o(.data)
    .data                                    0x1fffc05c   Section        4  variable.o(.data)
    .data                                    0x1fffc060   Section        4  variable.o(.data)
    .data                                    0x1fffc064   Section        4  variable.o(.data)
    .data                                    0x1fffc068   Section        4  variable.o(.data)
    .data                                    0x1fffc06c   Section        2  variable.o(.data)
    .data                                    0x1fffc06e   Section        2  variable.o(.data)
    .data                                    0x1fffc070   Section        4  variable.o(.data)
    .data                                    0x1fffc074   Section        4  variable.o(.data)
    .data                                    0x1fffc078   Section        4  variable.o(.data)
    .data                                    0x1fffc07c   Section        4  variable.o(.data)
    .data                                    0x1fffc080   Section        4  variable.o(.data)
    .data                                    0x1fffc084   Section        4  variable.o(.data)
    .data                                    0x1fffc088   Section        4  variable.o(.data)
    .data                                    0x1fffc08c   Section        4  variable.o(.data)
    .data                                    0x1fffc090   Section        2  variable.o(.data)
    .data                                    0x1fffc094   Section        4  variable.o(.data)
    .data                                    0x1fffc098   Section        2  variable.o(.data)
    .data                                    0x1fffc09a   Section        1  variable.o(.data)
    .data                                    0x1fffc09b   Section        1  variable.o(.data)
    .data                                    0x1fffc09c   Section        4  variable.o(.data)
    .data                                    0x1fffc0a0   Section        2  variable.o(.data)
    .data                                    0x1fffc0a2   Section        2  variable.o(.data)
    .data                                    0x1fffc0a4   Section        2  variable.o(.data)
    .data                                    0x1fffc0a8   Section        4  variable.o(.data)
    .data                                    0x1fffc0ac   Section        2  variable.o(.data)
    .data                                    0x1fffc0ae   Section        2  variable.o(.data)
    .data                                    0x1fffc0b0   Section        2  variable.o(.data)
    .data                                    0x1fffc0b2   Section        1  variable.o(.data)
    .data                                    0x1fffc0b3   Section        1  variable.o(.data)
    .data                                    0x1fffc0b4   Section        1  variable.o(.data)
    .data                                    0x1fffc0b5   Section        1  variable.o(.data)
    .data                                    0x1fffc0b6   Section        1  variable.o(.data)
    .data                                    0x1fffc0b8   Section        2  variable.o(.data)
    .data                                    0x1fffc0ba   Section        2  variable.o(.data)
    .data                                    0x1fffc0bc   Section        4  variable.o(.data)
    .data                                    0x1fffc0c0   Section        2  variable.o(.data)
    .data                                    0x1fffc0c4   Section        4  variable.o(.data)
    .data                                    0x1fffc0c8   Section        4  variable.o(.data)
    .data                                    0x1fffc0cc   Section        2  variable.o(.data)
    .data                                    0x1fffc0ce   Section        2  variable.o(.data)
    .data                                    0x1fffc0d0   Section        1  variable.o(.data)
    .data                                    0x1fffc0d1   Section        1  variable.o(.data)
    .data                                    0x1fffc0d2   Section        1  variable.o(.data)
    .data                                    0x1fffc0d4   Section        2  variable.o(.data)
    .data                                    0x1fffc0d6   Section        2  variable.o(.data)
    .data                                    0x1fffc0d8   Section        1  variable.o(.data)
    .data                                    0x1fffc0d9   Section        1  variable.o(.data)
    .data                                    0x1fffc0da   Section        2  variable.o(.data)
    .data                                    0x1fffc0dc   Section        4  variable.o(.data)
    .data                                    0x1fffc0e0   Section        4  variable.o(.data)
    .data                                    0x1fffc0e4   Section        4  variable.o(.data)
    .data                                    0x1fffc0e8   Section        4  variable.o(.data)
    .data                                    0x1fffc0ec   Section        4  variable.o(.data)
    .data                                    0x1fffc0f0   Section        1  variable.o(.data)
    .data                                    0x1fffc0f4   Section        4  variable.o(.data)
    .data                                    0x1fffc0f8   Section        4  variable.o(.data)
    .data                                    0x1fffc0fc   Section        4  variable.o(.data)
    .data                                    0x1fffc100   Section        2  variable.o(.data)
    .data                                    0x1fffc102   Section        2  variable.o(.data)
    .data                                    0x1fffc104   Section        4  variable.o(.data)
    .data                                    0x1fffc108   Section        4  variable.o(.data)
    .data                                    0x1fffc10c   Section       36  variable.o(.data)
    .data                                    0x1fffc130   Section       56  variable.o(.data)
    .data                                    0x1fffc168   Section        2  variable.o(.data)
    .data                                    0x1fffc16a   Section        2  variable.o(.data)
    .data                                    0x1fffc16c   Section        4  variable.o(.data)
    .data                                    0x1fffc170   Section        4  variable.o(.data)
    .data                                    0x1fffc174   Section        4  variable.o(.data)
    .data                                    0x1fffc178   Section        4  variable.o(.data)
    .data                                    0x1fffc17c   Section        2  variable.o(.data)
    .data                                    0x1fffc17e   Section        2  variable.o(.data)
    .data                                    0x1fffc180   Section        2  variable.o(.data)
    .data                                    0x1fffc182   Section        2  variable.o(.data)
    .data                                    0x1fffc184   Section        4  variable.o(.data)
    .data                                    0x1fffc188   Section        4  variable.o(.data)
    .data                                    0x1fffc18c   Section        4  variable.o(.data)
    .data                                    0x1fffc190   Section        4  variable.o(.data)
    .data                                    0x1fffc194   Section        4  variable.o(.data)
    .data                                    0x1fffc198   Section        4  variable.o(.data)
    .data                                    0x1fffc19c   Section        4  variable.o(.data)
    .data                                    0x1fffc1a0   Section        4  variable.o(.data)
    .data                                    0x1fffc1a4   Section        4  variable.o(.data)
    .data                                    0x1fffc1a8   Section        4  variable.o(.data)
    .data                                    0x1fffc1ac   Section        4  variable.o(.data)
    .data                                    0x1fffc1b0   Section        4  variable.o(.data)
    .data                                    0x1fffc1b4   Section        4  variable.o(.data)
    .data                                    0x1fffc1b8   Section        4  variable.o(.data)
    .data                                    0x1fffc1bc   Section        4  variable.o(.data)
    .data                                    0x1fffc1c0   Section        4  variable.o(.data)
    .data                                    0x1fffc1c4   Section        4  variable.o(.data)
    .data                                    0x1fffc1c8   Section        4  variable.o(.data)
    .data                                    0x1fffc1cc   Section        4  variable.o(.data)
    .data                                    0x1fffc1d0   Section        4  variable.o(.data)
    .data                                    0x1fffc1d4   Section        4  variable.o(.data)
    .data                                    0x1fffc1d8   Section        1  variable.o(.data)
    .data                                    0x1fffc1dc   Section        4  variable.o(.data)
    .data                                    0x1fffc1e0   Section        4  variable.o(.data)
    .data                                    0x1fffc1e4   Section        4  variable.o(.data)
    .data                                    0x1fffc1e8   Section        4  variable.o(.data)
    .data                                    0x1fffc1ec   Section        4  variable.o(.data)
    .data                                    0x1fffc1f0   Section        4  variable.o(.data)
    .data                                    0x1fffc1f4   Section        4  variable.o(.data)
    .data                                    0x1fffc1f8   Section        2  variable.o(.data)
    .data                                    0x1fffc1fc   Section        4  variable.o(.data)
    .data                                    0x1fffc200   Section        4  variable.o(.data)
    .data                                    0x1fffc204   Section        2  variable.o(.data)
    .data                                    0x1fffc208   Section        4  variable.o(.data)
    .data                                    0x1fffc20c   Section       32  variable.o(.data)
    .data                                    0x1fffc22c   Section        4  variable.o(.data)
    .data                                    0x1fffc230   Section        4  variable.o(.data)
    .data                                    0x1fffc234   Section        4  variable.o(.data)
    .data                                    0x1fffc238   Section        1  variable.o(.data)
    .data                                    0x1fffc23c   Section        4  variable.o(.data)
    .data                                    0x1fffc240   Section        1  variable.o(.data)
    .data                                    0x1fffc241   Section        1  variable.o(.data)
    .data                                    0x1fffc242   Section        1  variable.o(.data)
    .data                                    0x1fffc244   Section     2056  table.o(.data)
    .data__ZZ18Two_phase_pfc_CTRLE23cap_pattern_change_cnt1 0x1fffca4c   Section        1  control.o(.data__ZZ18Two_phase_pfc_CTRLE23cap_pattern_change_cnt1)
    .data__ZZ18Two_phase_pfc_CTRLE23cap_pattern_change_cnt2 0x1fffca4d   Section        1  control.o(.data__ZZ18Two_phase_pfc_CTRLE23cap_pattern_change_cnt2)
    .bss                                     0x1fffca50   Section       64  hc32_ll_interrupts.o(.bss)
    m_apfnIrqHandler                         0x1fffca50   Data          64  hc32_ll_interrupts.o(.bss)
    .bss                                     0x1fffca90   Section       16  variable.o(.bss)
    .bss                                     0x1fffcaa0   Section       14  variable.o(.bss)
    .bss                                     0x1fffcab0   Section       72  variable.o(.bss)
    .bss                                     0x1fffcaf8   Section       96  libspace.o(.bss)
    .bss.noinit                              0x1fffcb58   Section        8  system_hc32f334.o(.bss.noinit)
    HEAP                                     0x1fffcb60   Section     1024  startup_hc32f334.o(HEAP)
    Heap_Mem                                 0x1fffcb60   Data        1024  startup_hc32f334.o(HEAP)
    STACK                                    0x1fffcf60   Section     3072  startup_hc32f334.o(STACK)
    Stack_Mem                                0x1fffcf60   Data        3072  startup_hc32f334.o(STACK)
    __initial_sp                             0x1fffdb60   Data           0  startup_hc32f334.o(STACK)

    Global Symbols

    Symbol Name                              Value     Ov Type        Size  Object(Section)

    BuildAttributes$$THM_ISAv4$E$P$D$K$B$S$7EM$VFPi3$EXTD16$VFPS$VFMA$PE$A:L22UL41UL21$X:L11$S22US41US21$IEEE1$IW$USESV6$~STKCKD$USESV7$~SHL$OTIME$ROPI$EBA8$UX$STANDARDLIB$REQ8$PRES8$EABIv2 0x00000000   Number         0  anon$$obj.o ABSOLUTE
    __ARM_use_no_argv                        0x00000000   Number         0  main.o ABSOLUTE
    __Vectors                                0x00000000   Data           4  startup_hc32f334.o(RESET)
    __ARM_exceptions_init                     - Undefined Weak Reference
    __alloca_initialize                       - Undefined Weak Reference
    __arm_preinit_                            - Undefined Weak Reference
    __cpp_initialize__aeabi_                  - Undefined Weak Reference
    __cxa_finalize                            - Undefined Weak Reference
    __rt_locale                               - Undefined Weak Reference
    __sigvec_lookup                           - Undefined Weak Reference
    _atexit_init                              - Undefined Weak Reference
    _call_atexit_fns                          - Undefined Weak Reference
    _clock_init                               - Undefined Weak Reference
    _fp_trap_init                             - Undefined Weak Reference
    _fp_trap_shutdown                         - Undefined Weak Reference
    _get_lc_collate                           - Undefined Weak Reference
    _get_lc_ctype                             - Undefined Weak Reference
    _get_lc_monetary                          - Undefined Weak Reference
    _get_lc_numeric                           - Undefined Weak Reference
    _get_lc_time                              - Undefined Weak Reference
    _getenv_init                              - Undefined Weak Reference
    _handle_redirection                       - Undefined Weak Reference
    _init_alloc                               - Undefined Weak Reference
    _init_user_alloc                          - Undefined Weak Reference
    _initio                                   - Undefined Weak Reference
    _rand_init                                - Undefined Weak Reference
    _signal_finish                            - Undefined Weak Reference
    _signal_init                              - Undefined Weak Reference
    _terminate_alloc                          - Undefined Weak Reference
    _terminate_user_alloc                     - Undefined Weak Reference
    _terminateio                              - Undefined Weak Reference
    __Vectors_End                            0x00000288   Data           0  startup_hc32f334.o(RESET)
    __Vectors_Size                           0x00000288   Number         0  startup_hc32f334.o ABSOLUTE
    __main                                   0x00000289   Thumb Code     8  __main.o(!!!main)
    __scatterload                            0x00000291   Thumb Code     0  __scatter.o(!!!scatter)
    __scatterload_rt2                        0x00000291   Thumb Code    44  __scatter.o(!!!scatter)
    __scatterload_rt2_thumb_only             0x00000291   Thumb Code     0  __scatter.o(!!!scatter)
    __scatterload_null                       0x0000029f   Thumb Code     0  __scatter.o(!!!scatter)
    __decompress                             0x000002c5   Thumb Code   100  __dclz77c.o(!!dclz77c)
    __decompress2                            0x000002c5   Thumb Code     0  __dclz77c.o(!!dclz77c)
    __scatterload_zeroinit                   0x00000329   Thumb Code    28  __scatter_zi.o(!!handler_zi)
    __rt_lib_init                            0x00000345   Thumb Code     0  libinit.o(.ARM.Collect$$libinit$$00000000)
    __rt_lib_init_fp_1                       0x00000347   Thumb Code     0  libinit2.o(.ARM.Collect$$libinit$$00000001)
    __rt_lib_init_alloca_1                   0x0000034b   Thumb Code     0  libinit2.o(.ARM.Collect$$libinit$$0000002E)
    __rt_lib_init_argv_1                     0x0000034b   Thumb Code     0  libinit2.o(.ARM.Collect$$libinit$$0000002C)
    __rt_lib_init_atexit_1                   0x0000034b   Thumb Code     0  libinit2.o(.ARM.Collect$$libinit$$0000001B)
    __rt_lib_init_clock_1                    0x0000034b   Thumb Code     0  libinit2.o(.ARM.Collect$$libinit$$00000021)
    __rt_lib_init_cpp_1                      0x0000034b   Thumb Code     0  libinit2.o(.ARM.Collect$$libinit$$00000032)
    __rt_lib_init_exceptions_1               0x0000034b   Thumb Code     0  libinit2.o(.ARM.Collect$$libinit$$00000030)
    __rt_lib_init_fp_trap_1                  0x0000034b   Thumb Code     0  libinit2.o(.ARM.Collect$$libinit$$0000001F)
    __rt_lib_init_getenv_1                   0x0000034b   Thumb Code     0  libinit2.o(.ARM.Collect$$libinit$$00000023)
    __rt_lib_init_heap_1                     0x0000034b   Thumb Code     0  libinit2.o(.ARM.Collect$$libinit$$0000000A)
    __rt_lib_init_lc_collate_1               0x0000034b   Thumb Code     0  libinit2.o(.ARM.Collect$$libinit$$00000011)
    __rt_lib_init_lc_ctype_1                 0x0000034b   Thumb Code     0  libinit2.o(.ARM.Collect$$libinit$$00000013)
    __rt_lib_init_lc_monetary_1              0x0000034b   Thumb Code     0  libinit2.o(.ARM.Collect$$libinit$$00000015)
    __rt_lib_init_lc_numeric_1               0x0000034b   Thumb Code     0  libinit2.o(.ARM.Collect$$libinit$$00000017)
    __rt_lib_init_lc_time_1                  0x0000034b   Thumb Code     0  libinit2.o(.ARM.Collect$$libinit$$00000019)
    __rt_lib_init_preinit_1                  0x0000034b   Thumb Code     0  libinit2.o(.ARM.Collect$$libinit$$00000004)
    __rt_lib_init_rand_1                     0x0000034b   Thumb Code     0  libinit2.o(.ARM.Collect$$libinit$$0000000E)
    __rt_lib_init_return                     0x0000034b   Thumb Code     0  libinit2.o(.ARM.Collect$$libinit$$00000033)
    __rt_lib_init_signal_1                   0x0000034b   Thumb Code     0  libinit2.o(.ARM.Collect$$libinit$$0000001D)
    __rt_lib_init_stdio_1                    0x0000034b   Thumb Code     0  libinit2.o(.ARM.Collect$$libinit$$00000025)
    __rt_lib_init_user_alloc_1               0x0000034b   Thumb Code     0  libinit2.o(.ARM.Collect$$libinit$$0000000C)
    __rt_lib_shutdown                        0x0000034d   Thumb Code     0  libshutdown.o(.ARM.Collect$$libshutdown$$00000000)
    __rt_lib_shutdown_cpp_1                  0x0000034f   Thumb Code     0  libshutdown2.o(.ARM.Collect$$libshutdown$$00000002)
    __rt_lib_shutdown_fp_trap_1              0x0000034f   Thumb Code     0  libshutdown2.o(.ARM.Collect$$libshutdown$$00000007)
    __rt_lib_shutdown_heap_1                 0x0000034f   Thumb Code     0  libshutdown2.o(.ARM.Collect$$libshutdown$$0000000F)
    __rt_lib_shutdown_return                 0x0000034f   Thumb Code     0  libshutdown2.o(.ARM.Collect$$libshutdown$$00000010)
    __rt_lib_shutdown_signal_1               0x0000034f   Thumb Code     0  libshutdown2.o(.ARM.Collect$$libshutdown$$0000000A)
    __rt_lib_shutdown_stdio_1                0x0000034f   Thumb Code     0  libshutdown2.o(.ARM.Collect$$libshutdown$$00000004)
    __rt_lib_shutdown_user_alloc_1           0x0000034f   Thumb Code     0  libshutdown2.o(.ARM.Collect$$libshutdown$$0000000C)
    __rt_entry                               0x00000351   Thumb Code     0  __rtentry.o(.ARM.Collect$$rtentry$$00000000)
    __rt_entry_presh_1                       0x00000351   Thumb Code     0  __rtentry2.o(.ARM.Collect$$rtentry$$00000002)
    __rt_entry_sh                            0x00000351   Thumb Code     0  __rtentry4.o(.ARM.Collect$$rtentry$$00000004)
    __rt_entry_li                            0x00000357   Thumb Code     0  __rtentry2.o(.ARM.Collect$$rtentry$$0000000A)
    __rt_entry_postsh_1                      0x00000357   Thumb Code     0  __rtentry2.o(.ARM.Collect$$rtentry$$00000009)
    __rt_entry_main                          0x0000035b   Thumb Code     0  __rtentry2.o(.ARM.Collect$$rtentry$$0000000D)
    __rt_entry_postli_1                      0x0000035b   Thumb Code     0  __rtentry2.o(.ARM.Collect$$rtentry$$0000000C)
    __rt_exit                                0x00000363   Thumb Code     0  rtexit.o(.ARM.Collect$$rtexit$$00000000)
    __rt_exit_ls                             0x00000365   Thumb Code     0  rtexit2.o(.ARM.Collect$$rtexit$$00000003)
    __rt_exit_prels_1                        0x00000365   Thumb Code     0  rtexit2.o(.ARM.Collect$$rtexit$$00000002)
    __rt_exit_exit                           0x00000369   Thumb Code     0  rtexit2.o(.ARM.Collect$$rtexit$$00000004)
    Reset_Handler                            0x00000371   Thumb Code    16  startup_hc32f334.o(.text)
    NMI_Handler                              0x00000381   Thumb Code     2  startup_hc32f334.o(.text)
    HardFault_Handler                        0x00000383   Thumb Code     2  startup_hc32f334.o(.text)
    MemManage_Handler                        0x00000385   Thumb Code     2  startup_hc32f334.o(.text)
    BusFault_Handler                         0x00000387   Thumb Code     2  startup_hc32f334.o(.text)
    UsageFault_Handler                       0x00000389   Thumb Code     2  startup_hc32f334.o(.text)
    SVC_Handler                              0x0000038b   Thumb Code     2  startup_hc32f334.o(.text)
    DebugMon_Handler                         0x0000038d   Thumb Code     2  startup_hc32f334.o(.text)
    PendSV_Handler                           0x0000038f   Thumb Code     2  startup_hc32f334.o(.text)
    SysTick_Handler                          0x00000391   Thumb Code     2  startup_hc32f334.o(.text)
    ADC1_Handler                             0x00000393   Thumb Code     0  startup_hc32f334.o(.text)
    ADC2_Handler                             0x00000393   Thumb Code     0  startup_hc32f334.o(.text)
    ADC3_Handler                             0x00000393   Thumb Code     0  startup_hc32f334.o(.text)
    CLK_XtalStop_Handler                     0x00000393   Thumb Code     0  startup_hc32f334.o(.text)
    CMP1_Handler                             0x00000393   Thumb Code     0  startup_hc32f334.o(.text)
    CMP2_Handler                             0x00000393   Thumb Code     0  startup_hc32f334.o(.text)
    CMP3_Handler                             0x00000393   Thumb Code     0  startup_hc32f334.o(.text)
    CTC_Handler                              0x00000393   Thumb Code     0  startup_hc32f334.o(.text)
    DMA_Error_Handler                        0x00000393   Thumb Code     0  startup_hc32f334.o(.text)
    DMA_TC0_BTC0_Handler                     0x00000393   Thumb Code     0  startup_hc32f334.o(.text)
    DMA_TC1_BTC1_Handler                     0x00000393   Thumb Code     0  startup_hc32f334.o(.text)
    DMA_TC2_BTC2_Handler                     0x00000393   Thumb Code     0  startup_hc32f334.o(.text)
    DMA_TC3_BTC3_Handler                     0x00000393   Thumb Code     0  startup_hc32f334.o(.text)
    DMA_TC4_BTC4_Handler                     0x00000393   Thumb Code     0  startup_hc32f334.o(.text)
    DMA_TC5_BTC5_Handler                     0x00000393   Thumb Code     0  startup_hc32f334.o(.text)
    DMA_TC6_BTC6_Handler                     0x00000393   Thumb Code     0  startup_hc32f334.o(.text)
    DMA_TC7_BTC7_Handler                     0x00000393   Thumb Code     0  startup_hc32f334.o(.text)
    EFM_OpEnd_Handler                        0x00000393   Thumb Code     0  startup_hc32f334.o(.text)
    EFM_PEError_ReadCol_Handler              0x00000393   Thumb Code     0  startup_hc32f334.o(.text)
    EMB_GR0_Handler                          0x00000393   Thumb Code     0  startup_hc32f334.o(.text)
    EMB_GR1_Handler                          0x00000393   Thumb Code     0  startup_hc32f334.o(.text)
    EMB_GR2_Handler                          0x00000393   Thumb Code     0  startup_hc32f334.o(.text)
    EMB_GR3_Handler                          0x00000393   Thumb Code     0  startup_hc32f334.o(.text)
    EMB_GR4_Handler                          0x00000393   Thumb Code     0  startup_hc32f334.o(.text)
    EMB_GR5_Handler                          0x00000393   Thumb Code     0  startup_hc32f334.o(.text)
    EMB_GR6_Handler                          0x00000393   Thumb Code     0  startup_hc32f334.o(.text)
    EMB_GR7_Handler                          0x00000393   Thumb Code     0  startup_hc32f334.o(.text)
    EMB_GR8_Handler                          0x00000393   Thumb Code     0  startup_hc32f334.o(.text)
    EVENT_PORT1_Handler                      0x00000393   Thumb Code     0  startup_hc32f334.o(.text)
    EVENT_PORT2_Handler                      0x00000393   Thumb Code     0  startup_hc32f334.o(.text)
    EVENT_PORT3_Handler                      0x00000393   Thumb Code     0  startup_hc32f334.o(.text)
    EVENT_PORT4_Handler                      0x00000393   Thumb Code     0  startup_hc32f334.o(.text)
    EXTINT00_SWINT16_Handler                 0x00000393   Thumb Code     0  startup_hc32f334.o(.text)
    EXTINT01_SWINT17_Handler                 0x00000393   Thumb Code     0  startup_hc32f334.o(.text)
    EXTINT02_SWINT18_Handler                 0x00000393   Thumb Code     0  startup_hc32f334.o(.text)
    EXTINT03_SWINT19_Handler                 0x00000393   Thumb Code     0  startup_hc32f334.o(.text)
    EXTINT04_SWINT20_Handler                 0x00000393   Thumb Code     0  startup_hc32f334.o(.text)
    EXTINT05_SWINT21_Handler                 0x00000393   Thumb Code     0  startup_hc32f334.o(.text)
    EXTINT06_SWINT22_Handler                 0x00000393   Thumb Code     0  startup_hc32f334.o(.text)
    EXTINT07_SWINT23_Handler                 0x00000393   Thumb Code     0  startup_hc32f334.o(.text)
    EXTINT08_SWINT24_Handler                 0x00000393   Thumb Code     0  startup_hc32f334.o(.text)
    EXTINT09_SWINT25_Handler                 0x00000393   Thumb Code     0  startup_hc32f334.o(.text)
    EXTINT10_SWINT26_Handler                 0x00000393   Thumb Code     0  startup_hc32f334.o(.text)
    EXTINT11_SWINT27_Handler                 0x00000393   Thumb Code     0  startup_hc32f334.o(.text)
    EXTINT12_SWINT28_Handler                 0x00000393   Thumb Code     0  startup_hc32f334.o(.text)
    EXTINT13_SWINT29_Handler                 0x00000393   Thumb Code     0  startup_hc32f334.o(.text)
    EXTINT14_SWINT30_Handler                 0x00000393   Thumb Code     0  startup_hc32f334.o(.text)
    EXTINT15_SWINT31_Handler                 0x00000393   Thumb Code     0  startup_hc32f334.o(.text)
    FCM_Handler                              0x00000393   Thumb Code     0  startup_hc32f334.o(.text)
    FPU_Error_Handler                        0x00000393   Thumb Code     0  startup_hc32f334.o(.text)
    HRPWM_1_GCap_Handler                     0x00000393   Thumb Code     0  startup_hc32f334.o(.text)
    HRPWM_1_GCmp_Handler                     0x00000393   Thumb Code     0  startup_hc32f334.o(.text)
    HRPWM_1_Ovf_Udf_Handler                  0x00000393   Thumb Code     0  startup_hc32f334.o(.text)
    HRPWM_1_SCmp_Handler                     0x00000393   Thumb Code     0  startup_hc32f334.o(.text)
    HRPWM_2_GCap_Handler                     0x00000393   Thumb Code     0  startup_hc32f334.o(.text)
    HRPWM_2_GCmp_Handler                     0x00000393   Thumb Code     0  startup_hc32f334.o(.text)
    HRPWM_2_Ovf_Udf_Handler                  0x00000393   Thumb Code     0  startup_hc32f334.o(.text)
    HRPWM_2_SCmp_Handler                     0x00000393   Thumb Code     0  startup_hc32f334.o(.text)
    HRPWM_3_GCap_Handler                     0x00000393   Thumb Code     0  startup_hc32f334.o(.text)
    HRPWM_3_GCmp_Handler                     0x00000393   Thumb Code     0  startup_hc32f334.o(.text)
    HRPWM_3_Ovf_Udf_Handler                  0x00000393   Thumb Code     0  startup_hc32f334.o(.text)
    HRPWM_3_SCmp_Handler                     0x00000393   Thumb Code     0  startup_hc32f334.o(.text)
    HRPWM_4_GCap_Handler                     0x00000393   Thumb Code     0  startup_hc32f334.o(.text)
    HRPWM_4_GCmp_Handler                     0x00000393   Thumb Code     0  startup_hc32f334.o(.text)
    HRPWM_4_Ovf_Udf_Handler                  0x00000393   Thumb Code     0  startup_hc32f334.o(.text)
    HRPWM_4_SCmp_Handler                     0x00000393   Thumb Code     0  startup_hc32f334.o(.text)
    HRPWM_5_GCap_Handler                     0x00000393   Thumb Code     0  startup_hc32f334.o(.text)
    HRPWM_5_GCmp_Handler                     0x00000393   Thumb Code     0  startup_hc32f334.o(.text)
    HRPWM_5_Ovf_Udf_Handler                  0x00000393   Thumb Code     0  startup_hc32f334.o(.text)
    HRPWM_5_SCmp_Handler                     0x00000393   Thumb Code     0  startup_hc32f334.o(.text)
    HRPWM_6_GCap_Handler                     0x00000393   Thumb Code     0  startup_hc32f334.o(.text)
    HRPWM_6_GCmp_Handler                     0x00000393   Thumb Code     0  startup_hc32f334.o(.text)
    HRPWM_6_Ovf_Udf_Handler                  0x00000393   Thumb Code     0  startup_hc32f334.o(.text)
    HRPWM_6_SCmp_Handler                     0x00000393   Thumb Code     0  startup_hc32f334.o(.text)
    HRPWM_Handler                            0x00000393   Thumb Code     0  startup_hc32f334.o(.text)
    I2C_Handler                              0x00000393   Thumb Code     0  startup_hc32f334.o(.text)
    MCAN1_INT0_Handler                       0x00000393   Thumb Code     0  startup_hc32f334.o(.text)
    MCAN1_INT1_Handler                       0x00000393   Thumb Code     0  startup_hc32f334.o(.text)
    MCAN2_INT0_Handler                       0x00000393   Thumb Code     0  startup_hc32f334.o(.text)
    MCAN2_INT1_Handler                       0x00000393   Thumb Code     0  startup_hc32f334.o(.text)
    MCANRAM_ECCError_Handler                 0x00000393   Thumb Code     0  startup_hc32f334.o(.text)
    PLA_Handler                              0x00000393   Thumb Code     0  startup_hc32f334.o(.text)
    PWC_LVD1_Handler                         0x00000393   Thumb Code     0  startup_hc32f334.o(.text)
    PWC_LVD2_Handler                         0x00000393   Thumb Code     0  startup_hc32f334.o(.text)
    PWC_WKTM_Handler                         0x00000393   Thumb Code     0  startup_hc32f334.o(.text)
    RTC_Handler                              0x00000393   Thumb Code     0  startup_hc32f334.o(.text)
    SPI_Handler                              0x00000393   Thumb Code     0  startup_hc32f334.o(.text)
    SWDT_Handler                             0x00000393   Thumb Code     0  startup_hc32f334.o(.text)
    TMR0_1_Handler                           0x00000393   Thumb Code     0  startup_hc32f334.o(.text)
    TMR4_GCmp_Handler                        0x00000393   Thumb Code     0  startup_hc32f334.o(.text)
    TMR4_Ovf_Udf_Handler                     0x00000393   Thumb Code     0  startup_hc32f334.o(.text)
    TMR4_Reload_Handler                      0x00000393   Thumb Code     0  startup_hc32f334.o(.text)
    TMR4_SCmp_Handler                        0x00000393   Thumb Code     0  startup_hc32f334.o(.text)
    TMR6_1_Dte_Handler                       0x00000393   Thumb Code     0  startup_hc32f334.o(.text)
    TMR6_1_GCmp_Handler                      0x00000393   Thumb Code     0  startup_hc32f334.o(.text)
    TMR6_1_Ovf_Udf_Handler                   0x00000393   Thumb Code     0  startup_hc32f334.o(.text)
    TMR6_1_SCmp_Handler                      0x00000393   Thumb Code     0  startup_hc32f334.o(.text)
    TMR6_2_Dte_Handler                       0x00000393   Thumb Code     0  startup_hc32f334.o(.text)
    TMR6_2_GCmp_Handler                      0x00000393   Thumb Code     0  startup_hc32f334.o(.text)
    TMR6_2_Ovf_Udf_Handler                   0x00000393   Thumb Code     0  startup_hc32f334.o(.text)
    TMR6_2_SCmp_Handler                      0x00000393   Thumb Code     0  startup_hc32f334.o(.text)
    TMR6_3_Dte_Handler                       0x00000393   Thumb Code     0  startup_hc32f334.o(.text)
    TMR6_3_GCmp_Handler                      0x00000393   Thumb Code     0  startup_hc32f334.o(.text)
    TMR6_3_Ovf_Udf_Handler                   0x00000393   Thumb Code     0  startup_hc32f334.o(.text)
    TMR6_3_SCmp_Handler                      0x00000393   Thumb Code     0  startup_hc32f334.o(.text)
    TMR6_4_Dte_Handler                       0x00000393   Thumb Code     0  startup_hc32f334.o(.text)
    TMR6_4_GCmp_Handler                      0x00000393   Thumb Code     0  startup_hc32f334.o(.text)
    TMR6_4_Ovf_Udf_Handler                   0x00000393   Thumb Code     0  startup_hc32f334.o(.text)
    TMR6_4_SCmp_Handler                      0x00000393   Thumb Code     0  startup_hc32f334.o(.text)
    TMRA_1_Cmp_Handler                       0x00000393   Thumb Code     0  startup_hc32f334.o(.text)
    TMRA_1_Ovf_Udf_Handler                   0x00000393   Thumb Code     0  startup_hc32f334.o(.text)
    TMRA_2_Cmp_Handler                       0x00000393   Thumb Code     0  startup_hc32f334.o(.text)
    TMRA_2_Ovf_Udf_Handler                   0x00000393   Thumb Code     0  startup_hc32f334.o(.text)
    TMRA_3_Cmp_Handler                       0x00000393   Thumb Code     0  startup_hc32f334.o(.text)
    TMRA_3_Ovf_Udf_Handler                   0x00000393   Thumb Code     0  startup_hc32f334.o(.text)
    TMRA_4_Cmp_Handler                       0x00000393   Thumb Code     0  startup_hc32f334.o(.text)
    TMRA_4_Ovf_Udf_Handler                   0x00000393   Thumb Code     0  startup_hc32f334.o(.text)
    TMRA_5_Cmp_Handler                       0x00000393   Thumb Code     0  startup_hc32f334.o(.text)
    TMRA_5_Ovf_Udf_Handler                   0x00000393   Thumb Code     0  startup_hc32f334.o(.text)
    USART1_Handler                           0x00000393   Thumb Code     0  startup_hc32f334.o(.text)
    USART1_TCI_Handler                       0x00000393   Thumb Code     0  startup_hc32f334.o(.text)
    USART1_WKUP_Handler                      0x00000393   Thumb Code     0  startup_hc32f334.o(.text)
    USART2_Handler                           0x00000393   Thumb Code     0  startup_hc32f334.o(.text)
    USART2_TxComplete_Handler                0x00000393   Thumb Code     0  startup_hc32f334.o(.text)
    USART3_Handler                           0x00000393   Thumb Code     0  startup_hc32f334.o(.text)
    USART3_TxComplete_Handler                0x00000393   Thumb Code     0  startup_hc32f334.o(.text)
    USART4_Handler                           0x00000393   Thumb Code     0  startup_hc32f334.o(.text)
    USART4_TxComplete_Handler                0x00000393   Thumb Code     0  startup_hc32f334.o(.text)
    WDT_Handler                              0x00000393   Thumb Code     0  startup_hc32f334.o(.text)
    __user_initial_stackheap                 0x00000395   Thumb Code     0  startup_hc32f334.o(.text)
    __use_two_region_memory                  0x000003bd   Thumb Code     2  heapauxi.o(.text)
    __rt_heap_escrow$2region                 0x000003bf   Thumb Code     2  heapauxi.o(.text)
    __rt_heap_expand$2region                 0x000003c1   Thumb Code     2  heapauxi.o(.text)
    exit                                     0x000003c3   Thumb Code    18  exit.o(.text)
    __user_libspace                          0x000003d5   Thumb Code     8  libspace.o(.text)
    __user_perproc_libspace                  0x000003d5   Thumb Code     0  libspace.o(.text)
    __user_perthread_libspace                0x000003d5   Thumb Code     0  libspace.o(.text)
    _sys_exit                                0x000003dd   Thumb Code     8  sys_exit.o(.text)
    __I$use$semihosting                      0x000003e9   Thumb Code     0  use_no_semi.o(.text)
    __use_no_semihosting_swi                 0x000003e9   Thumb Code     2  use_no_semi.o(.text)
    Adc_Init                                 0x000003eb   Thumb Code    18  adc.o(i.Adc_Init)
    __semihosting_library_function           0x000003eb   Thumb Code     0  indicate_semi.o(.text)
    DDL_AssertHandler                        0x000003fd   Thumb Code     2  hc32_ll_utility.o(i.DDL_AssertHandler)
    __I$use$fp                               0x000003fe   Number         0  usenofp.o(x$fpl$usenofp)
    u32ICGValue                              0x00000400   Data          96  hc32_ll_icg.o(.ARM.__AT_0x00000400)
    __user_setup_stackheap                   0x00000461   Thumb Code    74  sys_stackheap_outer.o(.text)
    TMR0_2_Handler                           0x000004ad   Thumb Code   352  main.o(RAMCODE)
    PLL_FUN                                  0x00000669   Thumb Code   380  control.o(RAMCODE)
    Two_phase_pfc_CTRL                       0x00000841   Thumb Code  5004  control.o(RAMCODE)
    ADC_Start                                0x00001bf1   Thumb Code    58  hc32_ll_adc.o(i.ADC_Start)
    BSP_CLK_Init                             0x00001c5d   Thumb Code   160  ev_hc32f334_lqfp64.o(i.BSP_CLK_Init)
    BandtrapInit                             0x00001d09   Thumb Code    80  main.o(i.BandtrapInit)
    CLK_GetStableStatus                      0x00001d79   Thumb Code    36  hc32_ll_clk.o(i.CLK_GetStableStatus)
    CLK_PLLCmd                               0x00001dcd   Thumb Code   132  hc32_ll_clk.o(i.CLK_PLLCmd)
    CLK_PLLInit                              0x00001e81   Thumb Code   390  hc32_ll_clk.o(i.CLK_PLLInit)
    CLK_PLLStructInit                        0x00002055   Thumb Code    52  hc32_ll_clk.o(i.CLK_PLLStructInit)
    CLK_SetClockDiv                          0x00002089   Thumb Code    14  hc32_ll_clk.o(i.CLK_SetClockDiv)
    CLK_SetSysClockSrc                       0x00002099   Thumb Code   182  hc32_ll_clk.o(i.CLK_SetSysClockSrc)
    CLK_XtalCmd                              0x000021ad   Thumb Code   114  hc32_ll_clk.o(i.CLK_XtalCmd)
    CLK_XtalInit                             0x00002251   Thumb Code   196  hc32_ll_clk.o(i.CLK_XtalInit)
    CLK_XtalStructInit                       0x00002349   Thumb Code    30  hc32_ll_clk.o(i.CLK_XtalStructInit)
    CMP_CompareOutCmd                        0x00002369   Thumb Code    74  hc32_ll_cmp.o(i.CMP_CompareOutCmd)
    CMP_NormalModeInit                       0x00002425   Thumb Code   306  hc32_ll_cmp.o(i.CMP_NormalModeInit)
    CMP_PinVcoutCmd                          0x00002589   Thumb Code    74  hc32_ll_cmp.o(i.CMP_PinVcoutCmd)
    CMP_StructInit                           0x00002605   Thumb Code    24  hc32_ll_cmp.o(i.CMP_StructInit)
    CURR_H_A_DAC1O1                          0x0000261d   Thumb Code     6  dac.o(i.CURR_H_A_DAC1O1)
    Cmp_Init                                 0x00002629   Thumb Code   198  cmp.o(i.Cmp_Init)
    Cosine                                   0x000026f9   Thumb Code    96  table.o(i.Cosine)
    DDL_DelayMS                              0x00002775   Thumb Code    58  hc32_ll_utility.o(i.DDL_DelayMS)
    DDL_DelayUS                              0x000027b9   Thumb Code    56  hc32_ll_utility.o(i.DDL_DelayUS)
    Dac_Init                                 0x000027fd   Thumb Code    72  dac.o(i.Dac_Init)
    EFM_CacheRamReset                        0x00002851   Thumb Code    46  hc32_ll_efm.o(i.EFM_CacheRamReset)
    EFM_DCacheCmd                            0x000028b5   Thumb Code    46  hc32_ll_efm.o(i.EFM_DCacheCmd)
    EFM_ICacheCmd                            0x00002919   Thumb Code    46  hc32_ll_efm.o(i.EFM_ICacheCmd)
    EFM_PrefetchCmd                          0x0000297d   Thumb Code    46  hc32_ll_efm.o(i.EFM_PrefetchCmd)
    EFM_SetWaitCycle                         0x000029e1   Thumb Code   112  hc32_ll_efm.o(i.EFM_SetWaitCycle)
    EMB_ClearStatus                          0x00002a8d   Thumb Code    90  hc32_ll_emb.o(i.EMB_ClearStatus)
    EMB_GR0_IrqHandler                       0x00002b3d   Thumb Code   174  emb.o(i.EMB_GR0_IrqHandler)
    EMB_GetStatus                            0x00002c11   Thumb Code    96  hc32_ll_emb.o(i.EMB_GetStatus)
    EMB_IntCmd                               0x00002cc5   Thumb Code   122  hc32_ll_emb.o(i.EMB_IntCmd)
    EMB_SetReleasePwmCond                    0x00002d91   Thumb Code   124  hc32_ll_emb.o(i.EMB_SetReleasePwmCond)
    Emb0_Init                                0x00002e5d   Thumb Code   204  emb.o(i.Emb0_Init)
    Emb_Init                                 0x00002f39   Thumb Code   116  emb.o(i.Emb_Init)
    FCG_Fcg0PeriphClockCmd                   0x00002fb9   Thumb Code    74  hc32_ll_fcg.o(i.FCG_Fcg0PeriphClockCmd)
    FCG_Fcg2PeriphClockCmd                   0x00003039   Thumb Code    52  hc32_ll_fcg.o(i.FCG_Fcg2PeriphClockCmd)
    FCG_Fcg3PeriphClockCmd                   0x000030a1   Thumb Code    52  hc32_ll_fcg.o(i.FCG_Fcg3PeriphClockCmd)
    GPIO_AnalogCmd                           0x00003109   Thumb Code   122  hc32_ll_gpio.o(i.GPIO_AnalogCmd)
    GPIO_Init                                0x000031bd   Thumb Code   472  hc32_ll_gpio.o(i.GPIO_Init)
    GPIO_LLC_HB_outputs_Config               0x000033cd   Thumb Code   138  hrtimer.o(i.GPIO_LLC_HB_outputs_Config)
    GPIO_ResetPins                           0x0000346d   Thumb Code    58  hc32_ll_gpio.o(i.GPIO_ResetPins)
    GPIO_SetFunc                             0x000034dd   Thumb Code   138  hc32_ll_gpio.o(i.GPIO_SetFunc)
    GPIO_SetReadWaitCycle                    0x000035a1   Thumb Code    96  hc32_ll_gpio.o(i.GPIO_SetReadWaitCycle)
    GPIO_StructInit                          0x00003639   Thumb Code    42  hc32_ll_gpio.o(i.GPIO_StructInit)
    Gpio_Init                                0x00003665   Thumb Code   370  gpio.o(i.Gpio_Init)
    HRPWM_Calibrate_ProcessSingle            0x000037e5   Thumb Code   142  hrtimer.o(i.HRPWM_Calibrate_ProcessSingle)
    HRPWM_DeInit                             0x00003881   Thumb Code   364  hc32_ll_hrpwm.o(i.HRPWM_DeInit)
    HRPWM_Init                               0x00003a29   Thumb Code   160  hc32_ll_hrpwm.o(i.HRPWM_Init)
    HRPWM_PH_Config                          0x00003afd   Thumb Code   188  hc32_ll_hrpwm.o(i.HRPWM_PH_Config)
    HRPWM_PH_StructInit                      0x00003be9   Thumb Code    20  hc32_ll_hrpwm.o(i.HRPWM_PH_StructInit)
    HRPWM_PWM_StructInit                     0x00003bfd   Thumb Code    48  hc32_ll_hrpwm.o(i.HRPWM_PWM_StructInit)
    HRTIM_Config                             0x00003c31   Thumb Code  5484  hrtimer.o(i.HRTIM_Config)
    INTC_IrqSignIn                           0x000051b5   Thumb Code    98  hc32_ll_interrupts.o(i.INTC_IrqSignIn)
    IRQ000_Handler                           0x00005255   Thumb Code    14  hc32_ll_interrupts.o(i.IRQ000_Handler)
    IRQ001_Handler                           0x00005269   Thumb Code    14  hc32_ll_interrupts.o(i.IRQ001_Handler)
    IRQ002_Handler                           0x0000527d   Thumb Code    14  hc32_ll_interrupts.o(i.IRQ002_Handler)
    IRQ003_Handler                           0x00005291   Thumb Code    14  hc32_ll_interrupts.o(i.IRQ003_Handler)
    IRQ004_Handler                           0x000052a5   Thumb Code    14  hc32_ll_interrupts.o(i.IRQ004_Handler)
    IRQ005_Handler                           0x000052b9   Thumb Code    14  hc32_ll_interrupts.o(i.IRQ005_Handler)
    IRQ006_Handler                           0x000052cd   Thumb Code    14  hc32_ll_interrupts.o(i.IRQ006_Handler)
    IRQ007_Handler                           0x000052e1   Thumb Code    14  hc32_ll_interrupts.o(i.IRQ007_Handler)
    IRQ008_Handler                           0x000052f5   Thumb Code    14  hc32_ll_interrupts.o(i.IRQ008_Handler)
    IRQ009_Handler                           0x00005309   Thumb Code    14  hc32_ll_interrupts.o(i.IRQ009_Handler)
    IRQ010_Handler                           0x0000531d   Thumb Code    14  hc32_ll_interrupts.o(i.IRQ010_Handler)
    IRQ011_Handler                           0x00005331   Thumb Code    14  hc32_ll_interrupts.o(i.IRQ011_Handler)
    IRQ012_Handler                           0x00005345   Thumb Code    14  hc32_ll_interrupts.o(i.IRQ012_Handler)
    IRQ013_Handler                           0x00005359   Thumb Code    14  hc32_ll_interrupts.o(i.IRQ013_Handler)
    IRQ014_Handler                           0x0000536d   Thumb Code    14  hc32_ll_interrupts.o(i.IRQ014_Handler)
    IRQ015_Handler                           0x00005381   Thumb Code    14  hc32_ll_interrupts.o(i.IRQ015_Handler)
    InitMcu_Adc1                             0x00005395   Thumb Code   246  adc.o(i.InitMcu_Adc1)
    InitMcu_Adc2                             0x000054a9   Thumb Code   258  adc.o(i.InitMcu_Adc2)
    InitMcu_Adc3                             0x000055d9   Thumb Code   224  adc.o(i.InitMcu_Adc3)
    LL_PERIPH_WE                             0x000056e1   Thumb Code   104  hc32_ll.o(i.LL_PERIPH_WE)
    LL_PERIPH_WP                             0x00005761   Thumb Code   108  hc32_ll.o(i.LL_PERIPH_WP)
    LL_TMR_SWSyncStart                       0x000057e5   Thumb Code    12  hc32_ll.o(i.LL_TMR_SWSyncStart)
    PWC_LVD_ClearStatus                      0x000057f9   Thumb Code    54  hc32_ll_pwc.o(i.PWC_LVD_ClearStatus)
    PWC_LVD_Init                             0x00005865   Thumb Code   468  hc32_ll_pwc.o(i.PWC_LVD_Init)
    PWC_LVD_StructInit                       0x00005a75   Thumb Code    36  hc32_ll_pwc.o(i.PWC_LVD_StructInit)
    Pwc_Init                                 0x00005a99   Thumb Code    84  pwc.o(i.Pwc_Init)
    Sine                                     0x00005ce5   Thumb Code   112  table.o(i.Sine)
    SystemCoreClockUpdate                    0x00005d75   Thumb Code   122  system_hc32f334.o(i.SystemCoreClockUpdate)
    SystemInit                               0x00005e0d   Thumb Code    24  system_hc32f334.o(i.SystemInit)
    TMR0_HWStopCondCmd                       0x00005e2d   Thumb Code    96  hc32_ll_tmr0.o(i.TMR0_HWStopCondCmd)
    TMR0_Init                                0x00005ebd   Thumb Code   264  hc32_ll_tmr0.o(i.TMR0_Init)
    TMR0_IntCmd                              0x00005ff5   Thumb Code    86  hc32_ll_tmr0.o(i.TMR0_IntCmd)
    TMR0_Start                               0x0000607d   Thumb Code    80  hc32_ll_tmr0.o(i.TMR0_Start)
    TMR0_StructInit                          0x000060fd   Thumb Code    30  hc32_ll_tmr0.o(i.TMR0_StructInit)
    Tmr0_Init                                0x00006175   Thumb Code   184  time.o(i.Tmr0_Init)
    initMcu_CMP1                             0x0000623d   Thumb Code   116  cmp.o(i.initMcu_CMP1)
    main                                     0x000062b5   Thumb Code  2200  main.o(i.main)
    __aeabi_dadd                             0x00006c0d   Thumb Code     0  daddsub_clz.o(x$fpl$dadd)
    _dadd                                    0x00006c0d   Thumb Code   332  daddsub_clz.o(x$fpl$dadd)
    __aeabi_d2uiz                            0x00006d5d   Thumb Code     0  dfixu.o(x$fpl$dfixu)
    _dfixu                                   0x00006d5d   Thumb Code    90  dfixu.o(x$fpl$dfixu)
    __aeabi_dmul                             0x00006db9   Thumb Code     0  dmul.o(x$fpl$dmul)
    _dmul                                    0x00006db9   Thumb Code   332  dmul.o(x$fpl$dmul)
    __fpl_dnaninf                            0x00006f0d   Thumb Code   156  dnaninf.o(x$fpl$dnaninf)
    __fpl_dretinf                            0x00006fa9   Thumb Code    12  dretinf.o(x$fpl$dretinf)
    __aeabi_dsub                             0x00006fb5   Thumb Code     0  daddsub_clz.o(x$fpl$dsub)
    _dsub                                    0x00006fb5   Thumb Code   464  daddsub_clz.o(x$fpl$dsub)
    __aeabi_f2d                              0x00007189   Thumb Code     0  f2d.o(x$fpl$f2d)
    _f2d                                     0x00007189   Thumb Code    86  f2d.o(x$fpl$f2d)
    __fpl_fnaninf                            0x000071df   Thumb Code   140  fnaninf.o(x$fpl$fnaninf)
    _fp_init                                 0x0000726b   Thumb Code    10  fpinit.o(x$fpl$fpinit)
    __fplib_config_fpu_vfp                   0x00007273   Thumb Code     0  fpinit.o(x$fpl$fpinit)
    __fplib_config_pureend_doubles           0x00007273   Thumb Code     0  fpinit.o(x$fpl$fpinit)
    Ton_table                                0x00007274   Data       90004  data.o(.constdata)
    Region$$Table$$Base                      0x0001d208   Number         0  anon$$obj.o(Region$$Table)
    Region$$Table$$Limit                     0x0001d228   Number         0  anon$$obj.o(Region$$Table)
    Temp_KVerr                               0x1fffc004   Data           4  variable.o(.data)
    cur_vos                                  0x1fffc008   Data           4  variable.o(.data)
    vos                                      0x1fffc00c   Data           4  variable.o(.data)
    apwr_ui_addr_state                       0x1fffc010   Data           1  variable.o(.data)
    fault_cnt                                0x1fffc012   Data           2  variable.o(.data)
    ok_cnt                                   0x1fffc014   Data           2  variable.o(.data)
    Vb_OV_low_flag                           0x1fffc016   Data           1  variable.o(.data)
    Vb_OV_high_flag                          0x1fffc017   Data           1  variable.o(.data)
    Temp_KVerr_delt                          0x1fffc018   Data           4  variable.o(.data)
    VotFltI32_delt                           0x1fffc01c   Data           4  variable.o(.data)
    VinU16                                   0x1fffc020   Data           2  variable.o(.data)
    VavU16                                   0x1fffc022   Data           2  variable.o(.data)
    VbusU16                                  0x1fffc024   Data           2  variable.o(.data)
    Vin_L_U16                                0x1fffc026   Data           2  variable.o(.data)
    Vin_N_U16                                0x1fffc028   Data           2  variable.o(.data)
    Si_GATE_H_flag                           0x1fffc02a   Data           1  variable.o(.data)
    Si_GATE_L_flag                           0x1fffc02b   Data           1  variable.o(.data)
    OffStateU16                              0x1fffc02c   Data           2  variable.o(.data)
    RunStateU16                              0x1fffc02e   Data           2  variable.o(.data)
    Start_ios_flag                           0x1fffc030   Data           1  variable.o(.data)
    Start_Delay                              0x1fffc032   Data           2  variable.o(.data)
    StartFlag                                0x1fffc034   Data           1  variable.o(.data)
    PreFlag                                  0x1fffc035   Data           1  variable.o(.data)
    OK_Flag                                  0x1fffc036   Data           1  variable.o(.data)
    VgainU16                                 0x1fffc038   Data           2  variable.o(.data)
    VpreU16                                  0x1fffc03a   Data           2  variable.o(.data)
    PreDlyU16                                0x1fffc03c   Data           2  variable.o(.data)
    SdLoopDly                                0x1fffc03e   Data           2  variable.o(.data)
    StartONFlag                              0x1fffc040   Data           1  variable.o(.data)
    Fault_Flag                               0x1fffc041   Data           1  variable.o(.data)
    VBUS_REF                                 0x1fffc042   Data           2  variable.o(.data)
    VBUS_REF_New                             0x1fffc044   Data           2  variable.o(.data)
    VotFltI32                                0x1fffc048   Data           4  variable.o(.data)
    SingleFlag                               0x1fffc04c   Data           1  variable.o(.data)
    Vbus_delay_cnt                           0x1fffc04e   Data           2  variable.o(.data)
    Vbus_gain_comm                           0x1fffc050   Data           2  variable.o(.data)
    Vinav_sum_sample                         0x1fffc054   Data           4  variable.o(.data)
    Vinav_sample_flt                         0x1fffc058   Data           2  variable.o(.data)
    Vref_Cnt                                 0x1fffc05a   Data           1  variable.o(.data)
    VotErrI32                                0x1fffc05c   Data           4  variable.o(.data)
    VotKiI32                                 0x1fffc060   Data           4  variable.o(.data)
    VotKpI32                                 0x1fffc064   Data           4  variable.o(.data)
    VotKpiI32                                0x1fffc068   Data           4  variable.o(.data)
    VotErrABS                                0x1fffc06c   Data           2  variable.o(.data)
    VgainU16_vin                             0x1fffc06e   Data           2  variable.o(.data)
    VotCtrlI32                               0x1fffc070   Data           4  variable.o(.data)
    VinU16_sample_flt                        0x1fffc074   Data           4  variable.o(.data)
    VinU16_sample_sum                        0x1fffc078   Data           4  variable.o(.data)
    DUTY_VALUE_LIMIT                         0x1fffc07c   Data           4  variable.o(.data)
    DUTY_VALUE_OPEN                          0x1fffc080   Data           4  variable.o(.data)
    DUTY_VALUE_LIMIT_MAX                     0x1fffc084   Data           4  variable.o(.data)
    DUTY_VALUE_B                             0x1fffc088   Data           4  variable.o(.data)
    DUTY_VALUE                               0x1fffc08c   Data           4  variable.o(.data)
    DUTY_VALUE_cnt                           0x1fffc090   Data           2  variable.o(.data)
    VinSumU32                                0x1fffc094   Data           4  variable.o(.data)
    VinCntU16                                0x1fffc098   Data           2  variable.o(.data)
    VinFreFlag                               0x1fffc09a   Data           1  variable.o(.data)
    VinDeadFlag                              0x1fffc09b   Data           1  variable.o(.data)
    Vinav_sum                                0x1fffc09c   Data           4  variable.o(.data)
    Vinav_flt                                0x1fffc0a0   Data           2  variable.o(.data)
    VinFreU16                                0x1fffc0a2   Data           2  variable.o(.data)
    VinDeadFlag_cnt                          0x1fffc0a4   Data           2  variable.o(.data)
    VinfreFltU32                             0x1fffc0a8   Data           4  variable.o(.data)
    VinFre_Send                              0x1fffc0ac   Data           2  variable.o(.data)
    VinFreJud                                0x1fffc0ae   Data           2  variable.o(.data)
    VinFreFltSave                            0x1fffc0b0   Data           2  variable.o(.data)
    Vin_dc_cnt                               0x1fffc0b2   Data           1  variable.o(.data)
    Vin_dc_flag                              0x1fffc0b3   Data           1  variable.o(.data)
    RelyON_Flag                              0x1fffc0b4   Data           1  variable.o(.data)
    RelyON_Active_flag                       0x1fffc0b5   Data           1  variable.o(.data)
    Rely_Delay                               0x1fffc0b6   Data           1  variable.o(.data)
    LED_Fre                                  0x1fffc0b8   Data           2  variable.o(.data)
    Vinav                                    0x1fffc0ba   Data           2  variable.o(.data)
    Sum_VbtFltU32                            0x1fffc0bc   Data           4  variable.o(.data)
    VbtFlt                                   0x1fffc0c0   Data           2  variable.o(.data)
    SUM_Vin_L_U16                            0x1fffc0c4   Data           4  variable.o(.data)
    SUM_Vin_N_U16                            0x1fffc0c8   Data           4  variable.o(.data)
    Vin_L_U16_Sample                         0x1fffc0cc   Data           2  variable.o(.data)
    Vin_N_U16_Sample                         0x1fffc0ce   Data           2  variable.o(.data)
    Vbus_over_cmp_flag                       0x1fffc0d0   Data           1  variable.o(.data)
    Ibus_over_port_flag                      0x1fffc0d1   Data           1  variable.o(.data)
    AC_cross_zero_flag                       0x1fffc0d2   Data           1  variable.o(.data)
    Vbus_value                               0x1fffc0d4   Data           2  variable.o(.data)
    Vin_value                                0x1fffc0d6   Data           2  variable.o(.data)
    Sup_flag                                 0x1fffc0d8   Data           1  variable.o(.data)
    Hrpwm_cnt                                0x1fffc0d9   Data           1  variable.o(.data)
    Notch_Vbus_sample                        0x1fffc0da   Data           2  variable.o(.data)
    DUTY_VALUE_X                             0x1fffc0dc   Data           4  variable.o(.data)
    DUTY_VALUE_AC                            0x1fffc0e0   Data           4  variable.o(.data)
    DUTY_VALUE_EG                            0x1fffc0e4   Data           4  variable.o(.data)
    DUTY_VALUE_X2                            0x1fffc0e8   Data           4  variable.o(.data)
    Vin_Ton_cmp                              0x1fffc0ec   Data           4  variable.o(.data)
    Burst_flag                               0x1fffc0f0   Data           1  variable.o(.data)
    Ton_single_value                         0x1fffc0f4   Data           4  variable.o(.data)
    Ton_double_value                         0x1fffc0f8   Data           4  variable.o(.data)
    Vin_ton_value                            0x1fffc0fc   Data           4  variable.o(.data)
    A_curr_sample                            0x1fffc100   Data           2  variable.o(.data)
    B_curr_sample                            0x1fffc102   Data           2  variable.o(.data)
    sintheta                                 0x1fffc104   Data           4  variable.o(.data)
    costheta                                 0x1fffc108   Data           4  variable.o(.data)
    U_alpha                                  0x1fffc10c   Data          36  variable.o(.data)
    Ug_info                                  0x1fffc130   Data          56  variable.o(.data)
    PLL_ok_cnt                               0x1fffc168   Data           2  variable.o(.data)
    PLL_ok_flag                              0x1fffc16a   Data           2  variable.o(.data)
    FLL_err                                  0x1fffc16c   Data           4  variable.o(.data)
    FLL_integrate                            0x1fffc170   Data           4  variable.o(.data)
    FLL_w                                    0x1fffc174   Data           4  variable.o(.data)
    sintheta_mod                             0x1fffc178   Data           4  variable.o(.data)
    Vin_sample_LSB                           0x1fffc17c   Data           2  variable.o(.data)
    Vin_sample_value                         0x1fffc17e   Data           2  variable.o(.data)
    IgainU16                                 0x1fffc180   Data           2  variable.o(.data)
    I_err_abs                                0x1fffc182   Data           2  variable.o(.data)
    I_err_A                                  0x1fffc184   Data           4  variable.o(.data)
    IotKiI32_A                               0x1fffc188   Data           4  variable.o(.data)
    IotKpiI32_A                              0x1fffc18c   Data           4  variable.o(.data)
    IotKpI32_A                               0x1fffc190   Data           4  variable.o(.data)
    Temp_KIerr_A                             0x1fffc194   Data           4  variable.o(.data)
    I_err_B                                  0x1fffc198   Data           4  variable.o(.data)
    IotKiI32_B                               0x1fffc19c   Data           4  variable.o(.data)
    IotKpiI32_B                              0x1fffc1a0   Data           4  variable.o(.data)
    IotKpI32_B                               0x1fffc1a4   Data           4  variable.o(.data)
    Temp_KIerr_B                             0x1fffc1a8   Data           4  variable.o(.data)
    Ic_ref                                   0x1fffc1ac   Data           4  variable.o(.data)
    DUTY_VALUE_SCMCR                         0x1fffc1b0   Data           4  variable.o(.data)
    DUTY_VALUE_B_SCMCR                       0x1fffc1b4   Data           4  variable.o(.data)
    DUTY_VALUE_LIMIT_A                       0x1fffc1b8   Data           4  variable.o(.data)
    DUTY_VALUE_LIMIT_B                       0x1fffc1bc   Data           4  variable.o(.data)
    IotU32_flt_sum_A                         0x1fffc1c0   Data           4  variable.o(.data)
    IotU32_flt_sum_B                         0x1fffc1c4   Data           4  variable.o(.data)
    DCM_CCM_Kd                               0x1fffc1c8   Data           4  variable.o(.data)
    DCM_CCM_Kdp                              0x1fffc1cc   Data           4  variable.o(.data)
    DCM_CCM_comp                             0x1fffc1d0   Data           4  variable.o(.data)
    DCM_CCM_comp_B                           0x1fffc1d4   Data           4  variable.o(.data)
    DCM_CCM_flag                             0x1fffc1d8   Data           1  variable.o(.data)
    CCM_SR_Value                             0x1fffc1dc   Data           4  variable.o(.data)
    SR_Value_now                             0x1fffc1e0   Data           4  variable.o(.data)
    DUTY_VALUE_last                          0x1fffc1e4   Data           4  variable.o(.data)
    SR_Value_now_B                           0x1fffc1e8   Data           4  variable.o(.data)
    DUTY_VALUE_last_B                        0x1fffc1ec   Data           4  variable.o(.data)
    Ts_Vin_zero                              0x1fffc1f0   Data           4  variable.o(.data)
    Phase_Vin_zero                           0x1fffc1f4   Data           4  variable.o(.data)
    Burst_SR_open_cnt                        0x1fffc1f8   Data           2  variable.o(.data)
    VotCtrl_sigle                            0x1fffc1fc   Data           4  variable.o(.data)
    Vin_rms_value                            0x1fffc200   Data           4  variable.o(.data)
    Vin_value_feedback                       0x1fffc204   Data           2  variable.o(.data)
    sintheta_pre                             0x1fffc208   Data           4  variable.o(.data)
    CUR_PILoop                               0x1fffc20c   Data          32  variable.o(.data)
    CUR_PI_K_var                             0x1fffc22c   Data           4  variable.o(.data)
    Ic_ref_single                            0x1fffc230   Data           4  variable.o(.data)
    Ic_ref_double                            0x1fffc234   Data           4  variable.o(.data)
    Ic_ref_single_abs                        0x1fffc238   Data           1  variable.o(.data)
    CUR_PI_K_var_vin                         0x1fffc23c   Data           4  variable.o(.data)
    Power_vin_K_var                          0x1fffc240   Data           1  variable.o(.data)
    Vb_OV_flag                               0x1fffc241   Data           1  variable.o(.data)
    Burst_time_cnt                           0x1fffc242   Data           1  variable.o(.data)
    sin_table                                0x1fffc244   Data        1028  table.o(.data)
    cos_table                                0x1fffc648   Data        1028  table.o(.data)
    Two_phase_pfc_CTRL::cap_pattern_change_cnt1 0x1fffca4c   Data           1  control.o(.data__ZZ18Two_phase_pfc_CTRLE23cap_pattern_change_cnt1)
    Two_phase_pfc_CTRL::cap_pattern_change_cnt2 0x1fffca4d   Data           1  control.o(.data__ZZ18Two_phase_pfc_CTRLE23cap_pattern_change_cnt2)
    t_state                                  0x1fffca90   Data          16  variable.o(.bss)
    state_buf                                0x1fffcaa0   Data          14  variable.o(.bss)
    BandtrapCtrl                             0x1fffcab0   Data          72  variable.o(.bss)
    __libspace_start                         0x1fffcaf8   Data          96  libspace.o(.bss)
    SystemCoreClock                          0x1fffcb58   Data           4  system_hc32f334.o(.bss.noinit)
    __temporary_stack_top$libspace           0x1fffcb58   Data           0  libspace.o(.bss)
    HRC_VALUE                                0x1fffcb5c   Data           4  system_hc32f334.o(.bss.noinit)



==============================================================================

Memory Map of the image

  Image Entry point : 0x00000289

  Load Region LR_IROM1 (Base: 0x00000000, Size: 0x0001dc78, Max: 0x00020000, ABSOLUTE, COMPRESSED[0x0001d960])

    Execution Region ER_IROM1 (Exec base: 0x00000000, Load base: 0x00000000, Size: 0x0001d228, Max: 0x00020000, ABSOLUTE)

    Exec Addr    Load Addr    Size         Type   Attr      Idx    E Section Name        Object

    0x00000000   0x00000000   0x00000288   Data   RO           76    RESET               startup_hc32f334.o
    0x00000288   0x00000288   0x00000008   Code   RO         5418  * !!!main             c_w.l(__main.o)
    0x00000290   0x00000290   0x00000034   Code   RO         5626    !!!scatter          c_w.l(__scatter.o)
    0x000002c4   0x000002c4   0x00000064   Code   RO         5624    !!dclz77c           c_w.l(__dclz77c.o)
    0x00000328   0x00000328   0x0000001c   Code   RO         5628    !!handler_zi        c_w.l(__scatter_zi.o)
    0x00000344   0x00000344   0x00000002   Code   RO         5494    .ARM.Collect$$libinit$$00000000  c_w.l(libinit.o)
    0x00000346   0x00000346   0x00000004   Code   RO         5506    .ARM.Collect$$libinit$$00000001  c_w.l(libinit2.o)
    0x0000034a   0x0000034a   0x00000000   Code   RO         5509    .ARM.Collect$$libinit$$00000004  c_w.l(libinit2.o)
    0x0000034a   0x0000034a   0x00000000   Code   RO         5512    .ARM.Collect$$libinit$$0000000A  c_w.l(libinit2.o)
    0x0000034a   0x0000034a   0x00000000   Code   RO         5514    .ARM.Collect$$libinit$$0000000C  c_w.l(libinit2.o)
    0x0000034a   0x0000034a   0x00000000   Code   RO         5516    .ARM.Collect$$libinit$$0000000E  c_w.l(libinit2.o)
    0x0000034a   0x0000034a   0x00000000   Code   RO         5519    .ARM.Collect$$libinit$$00000011  c_w.l(libinit2.o)
    0x0000034a   0x0000034a   0x00000000   Code   RO         5521    .ARM.Collect$$libinit$$00000013  c_w.l(libinit2.o)
    0x0000034a   0x0000034a   0x00000000   Code   RO         5523    .ARM.Collect$$libinit$$00000015  c_w.l(libinit2.o)
    0x0000034a   0x0000034a   0x00000000   Code   RO         5525    .ARM.Collect$$libinit$$00000017  c_w.l(libinit2.o)
    0x0000034a   0x0000034a   0x00000000   Code   RO         5527    .ARM.Collect$$libinit$$00000019  c_w.l(libinit2.o)
    0x0000034a   0x0000034a   0x00000000   Code   RO         5529    .ARM.Collect$$libinit$$0000001B  c_w.l(libinit2.o)
    0x0000034a   0x0000034a   0x00000000   Code   RO         5531    .ARM.Collect$$libinit$$0000001D  c_w.l(libinit2.o)
    0x0000034a   0x0000034a   0x00000000   Code   RO         5533    .ARM.Collect$$libinit$$0000001F  c_w.l(libinit2.o)
    0x0000034a   0x0000034a   0x00000000   Code   RO         5535    .ARM.Collect$$libinit$$00000021  c_w.l(libinit2.o)
    0x0000034a   0x0000034a   0x00000000   Code   RO         5537    .ARM.Collect$$libinit$$00000023  c_w.l(libinit2.o)
    0x0000034a   0x0000034a   0x00000000   Code   RO         5539    .ARM.Collect$$libinit$$00000025  c_w.l(libinit2.o)
    0x0000034a   0x0000034a   0x00000000   Code   RO         5543    .ARM.Collect$$libinit$$0000002C  c_w.l(libinit2.o)
    0x0000034a   0x0000034a   0x00000000   Code   RO         5545    .ARM.Collect$$libinit$$0000002E  c_w.l(libinit2.o)
    0x0000034a   0x0000034a   0x00000000   Code   RO         5547    .ARM.Collect$$libinit$$00000030  c_w.l(libinit2.o)
    0x0000034a   0x0000034a   0x00000000   Code   RO         5549    .ARM.Collect$$libinit$$00000032  c_w.l(libinit2.o)
    0x0000034a   0x0000034a   0x00000002   Code   RO         5550    .ARM.Collect$$libinit$$00000033  c_w.l(libinit2.o)
    0x0000034c   0x0000034c   0x00000002   Code   RO         5581    .ARM.Collect$$libshutdown$$00000000  c_w.l(libshutdown.o)
    0x0000034e   0x0000034e   0x00000000   Code   RO         5607    .ARM.Collect$$libshutdown$$00000002  c_w.l(libshutdown2.o)
    0x0000034e   0x0000034e   0x00000000   Code   RO         5609    .ARM.Collect$$libshutdown$$00000004  c_w.l(libshutdown2.o)
    0x0000034e   0x0000034e   0x00000000   Code   RO         5612    .ARM.Collect$$libshutdown$$00000007  c_w.l(libshutdown2.o)
    0x0000034e   0x0000034e   0x00000000   Code   RO         5615    .ARM.Collect$$libshutdown$$0000000A  c_w.l(libshutdown2.o)
    0x0000034e   0x0000034e   0x00000000   Code   RO         5617    .ARM.Collect$$libshutdown$$0000000C  c_w.l(libshutdown2.o)
    0x0000034e   0x0000034e   0x00000000   Code   RO         5620    .ARM.Collect$$libshutdown$$0000000F  c_w.l(libshutdown2.o)
    0x0000034e   0x0000034e   0x00000002   Code   RO         5621    .ARM.Collect$$libshutdown$$00000010  c_w.l(libshutdown2.o)
    0x00000350   0x00000350   0x00000000   Code   RO         5450    .ARM.Collect$$rtentry$$00000000  c_w.l(__rtentry.o)
    0x00000350   0x00000350   0x00000000   Code   RO         5465    .ARM.Collect$$rtentry$$00000002  c_w.l(__rtentry2.o)
    0x00000350   0x00000350   0x00000006   Code   RO         5477    .ARM.Collect$$rtentry$$00000004  c_w.l(__rtentry4.o)
    0x00000356   0x00000356   0x00000000   Code   RO         5467    .ARM.Collect$$rtentry$$00000009  c_w.l(__rtentry2.o)
    0x00000356   0x00000356   0x00000004   Code   RO         5468    .ARM.Collect$$rtentry$$0000000A  c_w.l(__rtentry2.o)
    0x0000035a   0x0000035a   0x00000000   Code   RO         5470    .ARM.Collect$$rtentry$$0000000C  c_w.l(__rtentry2.o)
    0x0000035a   0x0000035a   0x00000008   Code   RO         5471    .ARM.Collect$$rtentry$$0000000D  c_w.l(__rtentry2.o)
    0x00000362   0x00000362   0x00000002   Code   RO         5498    .ARM.Collect$$rtexit$$00000000  c_w.l(rtexit.o)
    0x00000364   0x00000364   0x00000000   Code   RO         5554    .ARM.Collect$$rtexit$$00000002  c_w.l(rtexit2.o)
    0x00000364   0x00000364   0x00000004   Code   RO         5555    .ARM.Collect$$rtexit$$00000003  c_w.l(rtexit2.o)
    0x00000368   0x00000368   0x00000006   Code   RO         5556    .ARM.Collect$$rtexit$$00000004  c_w.l(rtexit2.o)
    0x0000036e   0x0000036e   0x00000002   PAD
    0x00000370   0x00000370   0x0000004c   Code   RO           77    .text               startup_hc32f334.o
    0x000003bc   0x000003bc   0x00000006   Code   RO         5416    .text               c_w.l(heapauxi.o)
    0x000003c2   0x000003c2   0x00000012   Code   RO         5483    .text               c_w.l(exit.o)
    0x000003d4   0x000003d4   0x00000008   Code   RO         5495    .text               c_w.l(libspace.o)
    0x000003dc   0x000003dc   0x0000000c   Code   RO         5551    .text               c_w.l(sys_exit.o)
    0x000003e8   0x000003e8   0x00000002   Code   RO         5570    .text               c_w.l(use_no_semi.o)
    0x000003ea   0x000003ea   0x00000000   Code   RO         5572    .text               c_w.l(indicate_semi.o)
    0x000003ea   0x000003ea   0x00000012   Code   RO         5003    i.Adc_Init          adc.o
    0x000003fc   0x000003fc   0x00000002   Code   RO         1895    i.DDL_AssertHandler  hc32_ll_utility.o
    0x000003fe   0x000003fe   0x00000000   Code   RO         5463    x$fpl$usenofp       fz_wm.l(usenofp.o)
    0x000003fe   0x000003fe   0x00000002   PAD
    0x00000400   0x00000400   0x00000060   Data   RO         1283    .ARM.__AT_0x00000400  hc32_ll_icg.o
    0x00000460   0x00000460   0x0000004a   Code   RO         5481    .text               c_w.l(sys_stackheap_outer.o)
    0x000004aa   0x000004aa   0x00000002   PAD
    0x000004ac   0x000004ac   0x000001bc   Code   RO         4252    RAMCODE             main.o
    0x00000668   0x00000668   0x000001d8   Code   RO         5174    RAMCODE             control.lib(control.o)
    0x00000840   0x00000840   0x000013b0   Code   RO         5180    RAMCODE             control.lib(control.o)
    0x00001bf0   0x00001bf0   0x0000006c   Code   RO         2602    i.ADC_Start         hc32_ll_adc.o
    0x00001c5c   0x00001c5c   0x000000a8   Code   RO         5093    i.BSP_CLK_Init      ev_hc32f334_lqfp64.o
    0x00001d04   0x00001d04   0x00000004   PAD
    0x00001d08   0x00001d08   0x00000070   Code   RO         4253    i.BandtrapInit      main.o
    0x00001d78   0x00001d78   0x00000054   Code   RO          206    i.CLK_GetStableStatus  hc32_ll_clk.o
    0x00001dcc   0x00001dcc   0x000000b4   Code   RO          216    i.CLK_PLLCmd        hc32_ll_clk.o
    0x00001e80   0x00001e80   0x000001d4   Code   RO          217    i.CLK_PLLInit       hc32_ll_clk.o
    0x00002054   0x00002054   0x00000034   Code   RO          218    i.CLK_PLLStructInit  hc32_ll_clk.o
    0x00002088   0x00002088   0x0000000e   Code   RO          220    i.CLK_SetClockDiv   hc32_ll_clk.o
    0x00002096   0x00002096   0x00000002   PAD
    0x00002098   0x00002098   0x000000c8   Code   RO          223    i.CLK_SetSysClockSrc  hc32_ll_clk.o
    0x00002160   0x00002160   0x0000004c   Code   RO          227    i.CLK_WaitStable    hc32_ll_clk.o
    0x000021ac   0x000021ac   0x000000a4   Code   RO          231    i.CLK_XtalCmd       hc32_ll_clk.o
    0x00002250   0x00002250   0x000000f8   Code   RO          235    i.CLK_XtalInit      hc32_ll_clk.o
    0x00002348   0x00002348   0x0000001e   Code   RO          238    i.CLK_XtalStructInit  hc32_ll_clk.o
    0x00002366   0x00002366   0x00000002   PAD
    0x00002368   0x00002368   0x0000007c   Code   RO         2136    i.CMP_CompareOutCmd  hc32_ll_cmp.o
    0x000023e4   0x000023e4   0x00000040   Code   RO         2138    i.CMP_DelayUS       hc32_ll_cmp.o
    0x00002424   0x00002424   0x00000164   Code   RO         2145    i.CMP_NormalModeInit  hc32_ll_cmp.o
    0x00002588   0x00002588   0x0000007c   Code   RO         2146    i.CMP_PinVcoutCmd   hc32_ll_cmp.o
    0x00002604   0x00002604   0x00000018   Code   RO         2159    i.CMP_StructInit    hc32_ll_cmp.o
    0x0000261c   0x0000261c   0x0000000c   Code   RO         4821    i.CURR_H_A_DAC1O1   dac.o
    0x00002628   0x00002628   0x000000d0   Code   RO         4781    i.Cmp_Init          cmp.o
    0x000026f8   0x000026f8   0x0000007c   Code   RO         4671    i.Cosine            table.o
    0x00002774   0x00002774   0x00000044   Code   RO         1896    i.DDL_DelayMS       hc32_ll_utility.o
    0x000027b8   0x000027b8   0x00000044   Code   RO         1897    i.DDL_DelayUS       hc32_ll_utility.o
    0x000027fc   0x000027fc   0x00000054   Code   RO         4825    i.Dac_Init          dac.o
    0x00002850   0x00002850   0x00000064   Code   RO          446    i.EFM_CacheRamReset  hc32_ll_efm.o
    0x000028b4   0x000028b4   0x00000064   Code   RO          449    i.EFM_DCacheCmd     hc32_ll_efm.o
    0x00002918   0x00002918   0x00000064   Code   RO          459    i.EFM_ICacheCmd     hc32_ll_efm.o
    0x0000297c   0x0000297c   0x00000064   Code   RO          466    i.EFM_PrefetchCmd   hc32_ll_efm.o
    0x000029e0   0x000029e0   0x000000ac   Code   RO          483    i.EFM_SetWaitCycle  hc32_ll_efm.o
    0x00002a8c   0x00002a8c   0x000000b0   Code   RO         2344    i.EMB_ClearStatus   hc32_ll_emb.o
    0x00002b3c   0x00002b3c   0x000000d4   Code   RO         4881    i.EMB_GR0_IrqHandler  emb.o
    0x00002c10   0x00002c10   0x000000b4   Code   RO         2346    i.EMB_GetStatus     hc32_ll_emb.o
    0x00002cc4   0x00002cc4   0x000000cc   Code   RO         2349    i.EMB_IntCmd        hc32_ll_emb.o
    0x00002d90   0x00002d90   0x000000cc   Code   RO         2351    i.EMB_SetReleasePwmCond  hc32_ll_emb.o
    0x00002e5c   0x00002e5c   0x000000dc   Code   RO         4882    i.Emb0_Init         emb.o
    0x00002f38   0x00002f38   0x00000080   Code   RO         4885    i.Emb_Init          emb.o
    0x00002fb8   0x00002fb8   0x00000080   Code   RO          720    i.FCG_Fcg0PeriphClockCmd  hc32_ll_fcg.o
    0x00003038   0x00003038   0x00000068   Code   RO          722    i.FCG_Fcg2PeriphClockCmd  hc32_ll_fcg.o
    0x000030a0   0x000030a0   0x00000068   Code   RO          723    i.FCG_Fcg3PeriphClockCmd  hc32_ll_fcg.o
    0x00003108   0x00003108   0x000000b4   Code   RO          762    i.GPIO_AnalogCmd    hc32_ll_gpio.o
    0x000031bc   0x000031bc   0x00000210   Code   RO          767    i.GPIO_Init         hc32_ll_gpio.o
    0x000033cc   0x000033cc   0x000000a0   Code   RO         4718    i.GPIO_LLC_HB_outputs_Config  hrtimer.o
    0x0000346c   0x0000346c   0x00000070   Code   RO          774    i.GPIO_ResetPins    hc32_ll_gpio.o
    0x000034dc   0x000034dc   0x000000c4   Code   RO          776    i.GPIO_SetFunc      hc32_ll_gpio.o
    0x000035a0   0x000035a0   0x00000098   Code   RO          778    i.GPIO_SetReadWaitCycle  hc32_ll_gpio.o
    0x00003638   0x00003638   0x0000002a   Code   RO          780    i.GPIO_StructInit   hc32_ll_gpio.o
    0x00003662   0x00003662   0x00000002   PAD
    0x00003664   0x00003664   0x00000180   Code   RO         4979    i.Gpio_Init         gpio.o
    0x000037e4   0x000037e4   0x0000009c   Code   RO         4722    i.HRPWM_Calibrate_ProcessSingle  hrtimer.o
    0x00003880   0x00003880   0x000001a8   Code   RO          924    i.HRPWM_DeInit      hc32_ll_hrpwm.o
    0x00003a28   0x00003a28   0x000000d4   Code   RO          949    i.HRPWM_Init        hc32_ll_hrpwm.o
    0x00003afc   0x00003afc   0x000000ec   Code   RO          950    i.HRPWM_PH_Config   hc32_ll_hrpwm.o
    0x00003be8   0x00003be8   0x00000014   Code   RO          951    i.HRPWM_PH_StructInit  hc32_ll_hrpwm.o
    0x00003bfc   0x00003bfc   0x00000034   Code   RO          959    i.HRPWM_PWM_StructInit  hc32_ll_hrpwm.o
    0x00003c30   0x00003c30   0x00001584   Code   RO         4725    i.HRTIM_Config      hrtimer.o
    0x000051b4   0x000051b4   0x000000a0   Code   RO         1313    i.INTC_IrqSignIn    hc32_ll_interrupts.o
    0x00005254   0x00005254   0x00000014   Code   RO         1318    i.IRQ000_Handler    hc32_ll_interrupts.o
    0x00005268   0x00005268   0x00000014   Code   RO         1319    i.IRQ001_Handler    hc32_ll_interrupts.o
    0x0000527c   0x0000527c   0x00000014   Code   RO         1320    i.IRQ002_Handler    hc32_ll_interrupts.o
    0x00005290   0x00005290   0x00000014   Code   RO         1321    i.IRQ003_Handler    hc32_ll_interrupts.o
    0x000052a4   0x000052a4   0x00000014   Code   RO         1322    i.IRQ004_Handler    hc32_ll_interrupts.o
    0x000052b8   0x000052b8   0x00000014   Code   RO         1323    i.IRQ005_Handler    hc32_ll_interrupts.o
    0x000052cc   0x000052cc   0x00000014   Code   RO         1324    i.IRQ006_Handler    hc32_ll_interrupts.o
    0x000052e0   0x000052e0   0x00000014   Code   RO         1325    i.IRQ007_Handler    hc32_ll_interrupts.o
    0x000052f4   0x000052f4   0x00000014   Code   RO         1326    i.IRQ008_Handler    hc32_ll_interrupts.o
    0x00005308   0x00005308   0x00000014   Code   RO         1327    i.IRQ009_Handler    hc32_ll_interrupts.o
    0x0000531c   0x0000531c   0x00000014   Code   RO         1328    i.IRQ010_Handler    hc32_ll_interrupts.o
    0x00005330   0x00005330   0x00000014   Code   RO         1329    i.IRQ011_Handler    hc32_ll_interrupts.o
    0x00005344   0x00005344   0x00000014   Code   RO         1330    i.IRQ012_Handler    hc32_ll_interrupts.o
    0x00005358   0x00005358   0x00000014   Code   RO         1331    i.IRQ013_Handler    hc32_ll_interrupts.o
    0x0000536c   0x0000536c   0x00000014   Code   RO         1332    i.IRQ014_Handler    hc32_ll_interrupts.o
    0x00005380   0x00005380   0x00000014   Code   RO         1333    i.IRQ015_Handler    hc32_ll_interrupts.o
    0x00005394   0x00005394   0x00000114   Code   RO         5004    i.InitMcu_Adc1      adc.o
    0x000054a8   0x000054a8   0x00000130   Code   RO         5005    i.InitMcu_Adc2      adc.o
    0x000055d8   0x000055d8   0x00000108   Code   RO         5006    i.InitMcu_Adc3      adc.o
    0x000056e0   0x000056e0   0x00000080   Code   RO           84    i.LL_PERIPH_WE      hc32_ll.o
    0x00005760   0x00005760   0x00000084   Code   RO           85    i.LL_PERIPH_WP      hc32_ll.o
    0x000057e4   0x000057e4   0x00000014   Code   RO           86    i.LL_TMR_SWSyncStart  hc32_ll.o
    0x000057f8   0x000057f8   0x0000006c   Code   RO         1539    i.PWC_LVD_ClearStatus  hc32_ll_pwc.o
    0x00005864   0x00005864   0x00000210   Code   RO         1546    i.PWC_LVD_Init      hc32_ll_pwc.o
    0x00005a74   0x00005a74   0x00000024   Code   RO         1549    i.PWC_LVD_StructInit  hc32_ll_pwc.o
    0x00005a98   0x00005a98   0x00000058   Code   RO         4928    i.Pwc_Init          pwc.o
    0x00005af0   0x00005af0   0x000001f4   Code   RO          239    i.SetSysClockDiv    hc32_ll_clk.o
    0x00005ce4   0x00005ce4   0x00000090   Code   RO         4672    i.Sine              table.o
    0x00005d74   0x00005d74   0x00000098   Code   RO            4    i.SystemCoreClockUpdate  system_hc32f334.o
    0x00005e0c   0x00005e0c   0x00000020   Code   RO            5    i.SystemInit        system_hc32f334.o
    0x00005e2c   0x00005e2c   0x00000090   Code   RO         2442    i.TMR0_HWStopCondCmd  hc32_ll_tmr0.o
    0x00005ebc   0x00005ebc   0x00000138   Code   RO         2443    i.TMR0_Init         hc32_ll_tmr0.o
    0x00005ff4   0x00005ff4   0x00000088   Code   RO         2444    i.TMR0_IntCmd       hc32_ll_tmr0.o
    0x0000607c   0x0000607c   0x00000080   Code   RO         2450    i.TMR0_Start        hc32_ll_tmr0.o
    0x000060fc   0x000060fc   0x0000001e   Code   RO         2452    i.TMR0_StructInit   hc32_ll_tmr0.o
    0x0000611a   0x0000611a   0x00000002   PAD
    0x0000611c   0x0000611c   0x00000058   Code   RO         2453    i.TMR0_WaitSyncDone  hc32_ll_tmr0.o
    0x00006174   0x00006174   0x000000c8   Code   RO         4955    i.Tmr0_Init         time.o
    0x0000623c   0x0000623c   0x00000078   Code   RO         4782    i.initMcu_CMP1      cmp.o
    0x000062b4   0x000062b4   0x00000958   Code   RO         4254    i.main              main.o
    0x00006c0c   0x00006c0c   0x00000150   Code   RO         5422    x$fpl$dadd          fz_wm.l(daddsub_clz.o)
    0x00006d5c   0x00006d5c   0x0000005a   Code   RO         5432    x$fpl$dfixu         fz_wm.l(dfixu.o)
    0x00006db6   0x00006db6   0x00000002   PAD
    0x00006db8   0x00006db8   0x00000154   Code   RO         5446    x$fpl$dmul          fz_wm.l(dmul.o)
    0x00006f0c   0x00006f0c   0x0000009c   Code   RO         5455    x$fpl$dnaninf       fz_wm.l(dnaninf.o)
    0x00006fa8   0x00006fa8   0x0000000c   Code   RO         5457    x$fpl$dretinf       fz_wm.l(dretinf.o)
    0x00006fb4   0x00006fb4   0x000001d4   Code   RO         5424    x$fpl$dsub          fz_wm.l(daddsub_clz.o)
    0x00007188   0x00007188   0x00000056   Code   RO         5448    x$fpl$f2d           fz_wm.l(f2d.o)
    0x000071de   0x000071de   0x0000008c   Code   RO         5459    x$fpl$fnaninf       fz_wm.l(fnaninf.o)
    0x0000726a   0x0000726a   0x0000000a   Code   RO         5566    x$fpl$fpinit        fz_wm.l(fpinit.o)
    0x00007274   0x00007274   0x00015f94   Data   RO         5369    .constdata          data.lib(data.o)
    0x0001d208   0x0001d208   0x00000020   Data   RO         5622    Region$$Table       anon$$obj.o


    Execution Region RW_IRAM1 (Exec base: 0x1fffc000, Load base: 0x0001d228, Size: 0x00001b60, Max: 0x00008000, ABSOLUTE, COMPRESSED[0x00000738])

    Exec Addr    Load Addr    Size         Type   Attr      Idx    E Section Name        Object

    0x1fffc000   COMPRESSED   0x00000004   Data   RW         4255    .data               main.o
    0x1fffc004   COMPRESSED   0x00000004   Data   RW         4372    .data               variable.o
    0x1fffc008   COMPRESSED   0x00000004   Data   RW         4373    .data               variable.o
    0x1fffc00c   COMPRESSED   0x00000004   Data   RW         4374    .data               variable.o
    0x1fffc010   COMPRESSED   0x00000001   Data   RW         4378    .data               variable.o
    0x1fffc011   COMPRESSED   0x00000001   PAD
    0x1fffc012   COMPRESSED   0x00000002   Data   RW         4379    .data               variable.o
    0x1fffc014   COMPRESSED   0x00000002   Data   RW         4380    .data               variable.o
    0x1fffc016   COMPRESSED   0x00000001   Data   RW         4387    .data               variable.o
    0x1fffc017   COMPRESSED   0x00000001   Data   RW         4388    .data               variable.o
    0x1fffc018   COMPRESSED   0x00000004   Data   RW         4391    .data               variable.o
    0x1fffc01c   COMPRESSED   0x00000004   Data   RW         4392    .data               variable.o
    0x1fffc020   COMPRESSED   0x00000002   Data   RW         4399    .data               variable.o
    0x1fffc022   COMPRESSED   0x00000002   Data   RW         4400    .data               variable.o
    0x1fffc024   COMPRESSED   0x00000002   Data   RW         4401    .data               variable.o
    0x1fffc026   COMPRESSED   0x00000002   Data   RW         4402    .data               variable.o
    0x1fffc028   COMPRESSED   0x00000002   Data   RW         4403    .data               variable.o
    0x1fffc02a   COMPRESSED   0x00000001   Data   RW         4404    .data               variable.o
    0x1fffc02b   COMPRESSED   0x00000001   Data   RW         4405    .data               variable.o
    0x1fffc02c   COMPRESSED   0x00000002   Data   RW         4406    .data               variable.o
    0x1fffc02e   COMPRESSED   0x00000002   Data   RW         4407    .data               variable.o
    0x1fffc030   COMPRESSED   0x00000001   Data   RW         4408    .data               variable.o
    0x1fffc031   COMPRESSED   0x00000001   PAD
    0x1fffc032   COMPRESSED   0x00000002   Data   RW         4409    .data               variable.o
    0x1fffc034   COMPRESSED   0x00000001   Data   RW         4413    .data               variable.o
    0x1fffc035   COMPRESSED   0x00000001   Data   RW         4415    .data               variable.o
    0x1fffc036   COMPRESSED   0x00000001   Data   RW         4416    .data               variable.o
    0x1fffc037   COMPRESSED   0x00000001   PAD
    0x1fffc038   COMPRESSED   0x00000002   Data   RW         4417    .data               variable.o
    0x1fffc03a   COMPRESSED   0x00000002   Data   RW         4418    .data               variable.o
    0x1fffc03c   COMPRESSED   0x00000002   Data   RW         4423    .data               variable.o
    0x1fffc03e   COMPRESSED   0x00000002   Data   RW         4424    .data               variable.o
    0x1fffc040   COMPRESSED   0x00000001   Data   RW         4425    .data               variable.o
    0x1fffc041   COMPRESSED   0x00000001   Data   RW         4426    .data               variable.o
    0x1fffc042   COMPRESSED   0x00000002   Data   RW         4427    .data               variable.o
    0x1fffc044   COMPRESSED   0x00000002   Data   RW         4428    .data               variable.o
    0x1fffc046   COMPRESSED   0x00000002   PAD
    0x1fffc048   COMPRESSED   0x00000004   Data   RW         4429    .data               variable.o
    0x1fffc04c   COMPRESSED   0x00000001   Data   RW         4430    .data               variable.o
    0x1fffc04d   COMPRESSED   0x00000001   PAD
    0x1fffc04e   COMPRESSED   0x00000002   Data   RW         4431    .data               variable.o
    0x1fffc050   COMPRESSED   0x00000002   Data   RW         4432    .data               variable.o
    0x1fffc052   COMPRESSED   0x00000002   PAD
    0x1fffc054   COMPRESSED   0x00000004   Data   RW         4433    .data               variable.o
    0x1fffc058   COMPRESSED   0x00000002   Data   RW         4434    .data               variable.o
    0x1fffc05a   COMPRESSED   0x00000001   Data   RW         4435    .data               variable.o
    0x1fffc05b   COMPRESSED   0x00000001   PAD
    0x1fffc05c   COMPRESSED   0x00000004   Data   RW         4436    .data               variable.o
    0x1fffc060   COMPRESSED   0x00000004   Data   RW         4437    .data               variable.o
    0x1fffc064   COMPRESSED   0x00000004   Data   RW         4438    .data               variable.o
    0x1fffc068   COMPRESSED   0x00000004   Data   RW         4439    .data               variable.o
    0x1fffc06c   COMPRESSED   0x00000002   Data   RW         4440    .data               variable.o
    0x1fffc06e   COMPRESSED   0x00000002   Data   RW         4442    .data               variable.o
    0x1fffc070   COMPRESSED   0x00000004   Data   RW         4445    .data               variable.o
    0x1fffc074   COMPRESSED   0x00000004   Data   RW         4450    .data               variable.o
    0x1fffc078   COMPRESSED   0x00000004   Data   RW         4451    .data               variable.o
    0x1fffc07c   COMPRESSED   0x00000004   Data   RW         4452    .data               variable.o
    0x1fffc080   COMPRESSED   0x00000004   Data   RW         4455    .data               variable.o
    0x1fffc084   COMPRESSED   0x00000004   Data   RW         4457    .data               variable.o
    0x1fffc088   COMPRESSED   0x00000004   Data   RW         4466    .data               variable.o
    0x1fffc08c   COMPRESSED   0x00000004   Data   RW         4467    .data               variable.o
    0x1fffc090   COMPRESSED   0x00000002   Data   RW         4468    .data               variable.o
    0x1fffc092   COMPRESSED   0x00000002   PAD
    0x1fffc094   COMPRESSED   0x00000004   Data   RW         4469    .data               variable.o
    0x1fffc098   COMPRESSED   0x00000002   Data   RW         4470    .data               variable.o
    0x1fffc09a   COMPRESSED   0x00000001   Data   RW         4471    .data               variable.o
    0x1fffc09b   COMPRESSED   0x00000001   Data   RW         4472    .data               variable.o
    0x1fffc09c   COMPRESSED   0x00000004   Data   RW         4473    .data               variable.o
    0x1fffc0a0   COMPRESSED   0x00000002   Data   RW         4474    .data               variable.o
    0x1fffc0a2   COMPRESSED   0x00000002   Data   RW         4475    .data               variable.o
    0x1fffc0a4   COMPRESSED   0x00000002   Data   RW         4476    .data               variable.o
    0x1fffc0a6   COMPRESSED   0x00000002   PAD
    0x1fffc0a8   COMPRESSED   0x00000004   Data   RW         4479    .data               variable.o
    0x1fffc0ac   COMPRESSED   0x00000002   Data   RW         4480    .data               variable.o
    0x1fffc0ae   COMPRESSED   0x00000002   Data   RW         4481    .data               variable.o
    0x1fffc0b0   COMPRESSED   0x00000002   Data   RW         4482    .data               variable.o
    0x1fffc0b2   COMPRESSED   0x00000001   Data   RW         4483    .data               variable.o
    0x1fffc0b3   COMPRESSED   0x00000001   Data   RW         4484    .data               variable.o
    0x1fffc0b4   COMPRESSED   0x00000001   Data   RW         4485    .data               variable.o
    0x1fffc0b5   COMPRESSED   0x00000001   Data   RW         4486    .data               variable.o
    0x1fffc0b6   COMPRESSED   0x00000001   Data   RW         4487    .data               variable.o
    0x1fffc0b7   COMPRESSED   0x00000001   PAD
    0x1fffc0b8   COMPRESSED   0x00000002   Data   RW         4497    .data               variable.o
    0x1fffc0ba   COMPRESSED   0x00000002   Data   RW         4499    .data               variable.o
    0x1fffc0bc   COMPRESSED   0x00000004   Data   RW         4500    .data               variable.o
    0x1fffc0c0   COMPRESSED   0x00000002   Data   RW         4501    .data               variable.o
    0x1fffc0c2   COMPRESSED   0x00000002   PAD
    0x1fffc0c4   COMPRESSED   0x00000004   Data   RW         4502    .data               variable.o
    0x1fffc0c8   COMPRESSED   0x00000004   Data   RW         4503    .data               variable.o
    0x1fffc0cc   COMPRESSED   0x00000002   Data   RW         4504    .data               variable.o
    0x1fffc0ce   COMPRESSED   0x00000002   Data   RW         4505    .data               variable.o
    0x1fffc0d0   COMPRESSED   0x00000001   Data   RW         4508    .data               variable.o
    0x1fffc0d1   COMPRESSED   0x00000001   Data   RW         4509    .data               variable.o
    0x1fffc0d2   COMPRESSED   0x00000001   Data   RW         4510    .data               variable.o
    0x1fffc0d3   COMPRESSED   0x00000001   PAD
    0x1fffc0d4   COMPRESSED   0x00000002   Data   RW         4511    .data               variable.o
    0x1fffc0d6   COMPRESSED   0x00000002   Data   RW         4512    .data               variable.o
    0x1fffc0d8   COMPRESSED   0x00000001   Data   RW         4517    .data               variable.o
    0x1fffc0d9   COMPRESSED   0x00000001   Data   RW         4518    .data               variable.o
    0x1fffc0da   COMPRESSED   0x00000002   Data   RW         4530    .data               variable.o
    0x1fffc0dc   COMPRESSED   0x00000004   Data   RW         4531    .data               variable.o
    0x1fffc0e0   COMPRESSED   0x00000004   Data   RW         4533    .data               variable.o
    0x1fffc0e4   COMPRESSED   0x00000004   Data   RW         4534    .data               variable.o
    0x1fffc0e8   COMPRESSED   0x00000004   Data   RW         4537    .data               variable.o
    0x1fffc0ec   COMPRESSED   0x00000004   Data   RW         4544    .data               variable.o
    0x1fffc0f0   COMPRESSED   0x00000001   Data   RW         4546    .data               variable.o
    0x1fffc0f1   COMPRESSED   0x00000003   PAD
    0x1fffc0f4   COMPRESSED   0x00000004   Data   RW         4547    .data               variable.o
    0x1fffc0f8   COMPRESSED   0x00000004   Data   RW         4548    .data               variable.o
    0x1fffc0fc   COMPRESSED   0x00000004   Data   RW         4549    .data               variable.o
    0x1fffc100   COMPRESSED   0x00000002   Data   RW         4550    .data               variable.o
    0x1fffc102   COMPRESSED   0x00000002   Data   RW         4551    .data               variable.o
    0x1fffc104   COMPRESSED   0x00000004   Data   RW         4552    .data               variable.o
    0x1fffc108   COMPRESSED   0x00000004   Data   RW         4553    .data               variable.o
    0x1fffc10c   COMPRESSED   0x00000024   Data   RW         4554    .data               variable.o
    0x1fffc130   COMPRESSED   0x00000038   Data   RW         4555    .data               variable.o
    0x1fffc168   COMPRESSED   0x00000002   Data   RW         4556    .data               variable.o
    0x1fffc16a   COMPRESSED   0x00000002   Data   RW         4557    .data               variable.o
    0x1fffc16c   COMPRESSED   0x00000004   Data   RW         4560    .data               variable.o
    0x1fffc170   COMPRESSED   0x00000004   Data   RW         4561    .data               variable.o
    0x1fffc174   COMPRESSED   0x00000004   Data   RW         4562    .data               variable.o
    0x1fffc178   COMPRESSED   0x00000004   Data   RW         4564    .data               variable.o
    0x1fffc17c   COMPRESSED   0x00000002   Data   RW         4566    .data               variable.o
    0x1fffc17e   COMPRESSED   0x00000002   Data   RW         4567    .data               variable.o
    0x1fffc180   COMPRESSED   0x00000002   Data   RW         4568    .data               variable.o
    0x1fffc182   COMPRESSED   0x00000002   Data   RW         4569    .data               variable.o
    0x1fffc184   COMPRESSED   0x00000004   Data   RW         4570    .data               variable.o
    0x1fffc188   COMPRESSED   0x00000004   Data   RW         4572    .data               variable.o
    0x1fffc18c   COMPRESSED   0x00000004   Data   RW         4573    .data               variable.o
    0x1fffc190   COMPRESSED   0x00000004   Data   RW         4574    .data               variable.o
    0x1fffc194   COMPRESSED   0x00000004   Data   RW         4575    .data               variable.o
    0x1fffc198   COMPRESSED   0x00000004   Data   RW         4576    .data               variable.o
    0x1fffc19c   COMPRESSED   0x00000004   Data   RW         4578    .data               variable.o
    0x1fffc1a0   COMPRESSED   0x00000004   Data   RW         4579    .data               variable.o
    0x1fffc1a4   COMPRESSED   0x00000004   Data   RW         4580    .data               variable.o
    0x1fffc1a8   COMPRESSED   0x00000004   Data   RW         4581    .data               variable.o
    0x1fffc1ac   COMPRESSED   0x00000004   Data   RW         4582    .data               variable.o
    0x1fffc1b0   COMPRESSED   0x00000004   Data   RW         4588    .data               variable.o
    0x1fffc1b4   COMPRESSED   0x00000004   Data   RW         4589    .data               variable.o
    0x1fffc1b8   COMPRESSED   0x00000004   Data   RW         4590    .data               variable.o
    0x1fffc1bc   COMPRESSED   0x00000004   Data   RW         4591    .data               variable.o
    0x1fffc1c0   COMPRESSED   0x00000004   Data   RW         4597    .data               variable.o
    0x1fffc1c4   COMPRESSED   0x00000004   Data   RW         4598    .data               variable.o
    0x1fffc1c8   COMPRESSED   0x00000004   Data   RW         4606    .data               variable.o
    0x1fffc1cc   COMPRESSED   0x00000004   Data   RW         4607    .data               variable.o
    0x1fffc1d0   COMPRESSED   0x00000004   Data   RW         4608    .data               variable.o
    0x1fffc1d4   COMPRESSED   0x00000004   Data   RW         4609    .data               variable.o
    0x1fffc1d8   COMPRESSED   0x00000001   Data   RW         4610    .data               variable.o
    0x1fffc1d9   COMPRESSED   0x00000003   PAD
    0x1fffc1dc   COMPRESSED   0x00000004   Data   RW         4611    .data               variable.o
    0x1fffc1e0   COMPRESSED   0x00000004   Data   RW         4612    .data               variable.o
    0x1fffc1e4   COMPRESSED   0x00000004   Data   RW         4613    .data               variable.o
    0x1fffc1e8   COMPRESSED   0x00000004   Data   RW         4615    .data               variable.o
    0x1fffc1ec   COMPRESSED   0x00000004   Data   RW         4616    .data               variable.o
    0x1fffc1f0   COMPRESSED   0x00000004   Data   RW         4617    .data               variable.o
    0x1fffc1f4   COMPRESSED   0x00000004   Data   RW         4618    .data               variable.o
    0x1fffc1f8   COMPRESSED   0x00000002   Data   RW         4619    .data               variable.o
    0x1fffc1fa   COMPRESSED   0x00000002   PAD
    0x1fffc1fc   COMPRESSED   0x00000004   Data   RW         4621    .data               variable.o
    0x1fffc200   COMPRESSED   0x00000004   Data   RW         4622    .data               variable.o
    0x1fffc204   COMPRESSED   0x00000002   Data   RW         4623    .data               variable.o
    0x1fffc206   COMPRESSED   0x00000002   PAD
    0x1fffc208   COMPRESSED   0x00000004   Data   RW         4629    .data               variable.o
    0x1fffc20c   COMPRESSED   0x00000020   Data   RW         4631    .data               variable.o
    0x1fffc22c   COMPRESSED   0x00000004   Data   RW         4632    .data               variable.o
    0x1fffc230   COMPRESSED   0x00000004   Data   RW         4633    .data               variable.o
    0x1fffc234   COMPRESSED   0x00000004   Data   RW         4634    .data               variable.o
    0x1fffc238   COMPRESSED   0x00000001   Data   RW         4635    .data               variable.o
    0x1fffc239   COMPRESSED   0x00000003   PAD
    0x1fffc23c   COMPRESSED   0x00000004   Data   RW         4636    .data               variable.o
    0x1fffc240   COMPRESSED   0x00000001   Data   RW         4637    .data               variable.o
    0x1fffc241   COMPRESSED   0x00000001   Data   RW         4639    .data               variable.o
    0x1fffc242   COMPRESSED   0x00000001   Data   RW         4640    .data               variable.o
    0x1fffc243   COMPRESSED   0x00000001   PAD
    0x1fffc244   COMPRESSED   0x00000808   Data   RW         4674    .data               table.o
    0x1fffca4c   COMPRESSED   0x00000001   Data   RW         5186    .data__ZZ18Two_phase_pfc_CTRLE23cap_pattern_change_cnt1  control.lib(control.o)
    0x1fffca4d   COMPRESSED   0x00000001   Data   RW         5187    .data__ZZ18Two_phase_pfc_CTRLE23cap_pattern_change_cnt2  control.lib(control.o)
    0x1fffca4e   COMPRESSED   0x00000002   PAD
    0x1fffca50        -       0x00000040   Zero   RW         1339    .bss                hc32_ll_interrupts.o
    0x1fffca90        -       0x00000010   Zero   RW         4358    .bss                variable.o
    0x1fffcaa0        -       0x0000000e   Zero   RW         4359    .bss                variable.o
    0x1fffcaae   COMPRESSED   0x00000002   PAD
    0x1fffcab0        -       0x00000048   Zero   RW         4360    .bss                variable.o
    0x1fffcaf8        -       0x00000060   Zero   RW         5496    .bss                c_w.l(libspace.o)
    0x1fffcb58        -       0x00000008   Zero   RW            6    .bss.noinit         system_hc32f334.o
    0x1fffcb60        -       0x00000400   Zero   RW           75    HEAP                startup_hc32f334.o
    0x1fffcf60        -       0x00000c00   Zero   RW           74    STACK               startup_hc32f334.o


==============================================================================

Image component sizes


      Code (inc. data)   RO Data    RW Data    ZI Data      Debug   Object Name

       862        116          0          0          0       2512   adc.o
       328         14          0          0          0       1952   cmp.o
        96         18          0          0          0       1592   dac.o
       560         66          0          0          0       2722   emb.o
       168          8          0          0          0        751   ev_hc32f334_lqfp64.o
       384         14          0          0          0        816   gpio.o
       280         56          0          0          0      60127   hc32_ll.o
       108         50          0          0          0       4888   hc32_ll_adc.o
      2016        322          0          0          0      16264   hc32_ll_clk.o
       692        164          0          0          0       7116   hc32_ll_cmp.o
       572        276          0          0          0       3365   hc32_ll_efm.o
       764        332          0          0          0      10531   hc32_ll_emb.o
       336        158          0          0          0       2187   hc32_ll_fcg.o
      1210        282          0          0          0      13483   hc32_ll_gpio.o
       944        164          0          0          0      77351   hc32_ll_hrpwm.o
         0          0         96          0          0        714   hc32_ll_icg.o
       480        158          0          0         64      42656   hc32_ll_interrupts.o
       672        114          0          0          0      12670   hc32_ll_pwc.o
       838        204          0          0          0       6422   hc32_ll_tmr0.o
       138         22          0          0          0       2396   hc32_ll_utility.o
      5824        438          0          0          0      78455   hrtimer.o
      2948        532          0          4          0     102021   main.o
        88          4          0          0          0       7143   pwc.o
        76         30        648          0       4096        948   startup_hc32f334.o
       184         44          0          0          8     394153   system_hc32f334.o
       268         60          0       2056          0       2202   table.o
       200         16          0          0          0        792   time.o
         0          0          0        545        102      16982   variable.o

    ----------------------------------------------------------------------
     21048       3666        776       2636       4272     873211   Object Totals
         0          0         32          0          0          0   (incl. Generated)
        12          4          0         31          2          0   (incl. Padding)

    ----------------------------------------------------------------------

      Code (inc. data)   RO Data    RW Data    ZI Data      Debug   Library Member Name

       100          0          0          0          0          0   __dclz77c.o
         8          0          0          0          0         68   __main.o
         0          0          0          0          0          0   __rtentry.o
        12          0          0          0          0          0   __rtentry2.o
         6          0          0          0          0          0   __rtentry4.o
        52          8          0          0          0          0   __scatter.o
        28          0          0          0          0          0   __scatter_zi.o
        18          0          0          0          0         80   exit.o
         6          0          0          0          0        152   heapauxi.o
         0          0          0          0          0          0   indicate_semi.o
         2          0          0          0          0          0   libinit.o
         6          0          0          0          0          0   libinit2.o
         2          0          0          0          0          0   libshutdown.o
         2          0          0          0          0          0   libshutdown2.o
         8          4          0          0         96         68   libspace.o
         2          0          0          0          0          0   rtexit.o
        10          0          0          0          0          0   rtexit2.o
        12          4          0          0          0         68   sys_exit.o
        74          0          0          0          0         80   sys_stackheap_outer.o
         2          0          0          0          0         68   use_no_semi.o
      5512        818          0          2          0      23254   control.o
         0          0      90004          0          0      15804   data.o
       804         16          0          0          0        368   daddsub_clz.o
        90          4          0          0          0        140   dfixu.o
       340         12          0          0          0        152   dmul.o
       156          4          0          0          0        140   dnaninf.o
        12          0          0          0          0        116   dretinf.o
        86          4          0          0          0        132   f2d.o
       140          4          0          0          0        132   fnaninf.o
        10          0          0          0          0        116   fpinit.o
         0          0          0          0          0          0   usenofp.o

    ----------------------------------------------------------------------
      7508        878      90004          4         96      40938   Library Totals
         8          0          0          2          0          0   (incl. Padding)

    ----------------------------------------------------------------------

      Code (inc. data)   RO Data    RW Data    ZI Data      Debug   Library Name

       350         16          0          0         96        584   c_w.l
      5512        818          0          2          0      23254   control.lib
         0          0      90004          0          0      15804   data.lib
      1638         44          0          0          0       1296   fz_wm.l

    ----------------------------------------------------------------------
      7508        878      90004          4         96      40938   Library Totals

    ----------------------------------------------------------------------

==============================================================================


      Code (inc. data)   RO Data    RW Data    ZI Data      Debug   

     28556       4544      90780       2640       4368     904093   Grand Totals
     28556       4544      90780       1848       4368     904093   ELF Image Totals (compressed)
     28556       4544      90780       1848          0          0   ROM Totals

==============================================================================

    Total RO  Size (Code + RO Data)               119336 ( 116.54kB)
    Total RW  Size (RW Data + ZI Data)              7008 (   6.84kB)
    Total ROM Size (Code + RO Data + RW Data)     121184 ( 118.34kB)

==============================================================================

