:020000040800F2
:1000000000F40020750C0008DB06000893050008CA
:10001000D5060008BD0400083919000800000000DA
:10002000000000000000000000000000870C000835
:100030004F05000800000000AD0B0008450D00084A
:10004000990500089B0500080000000075110008D4
:10005000F11100081D120008810C0008830C000833
:100060009105000887050008AF0B0008411900083A
:10007000550500084D050008C3040008890500085F
:100080008B0500088D0500088F050008B5040008E1
:1000900000000000890C0008550D0008F50F00084D
:1000A0002D10000865100008000000007B0C0008FF
:1000B000C30B0008C50B0008C70B00087D0C000827
:1000C0007F0C0008430600089D0500089F050008F6
:1000D000A1050008810500088305000885050008C2
:1000E000850C0008750500087705000879050008EB
:1000F0007B0500087D0500087F0500085105000804
:100100003D06000847050008490500084B050008A2
:10011000C5040008B7040008B9040008BB040008BF
:10012000450500083F1900089D100008CD10000883
:10013000051100083D11000853050008DFF810D034
:1001400000F074F900480047A7040008AFF30080EE
:1001500000F40020401EFDD270472DE9F05F0546F7
:10016000002092469B4688460646814640241BE076
:10017000284641464746224600F0EBF853465A4689
:10018000C01A914110D311461846224600F0D2F809
:100190002D1A67EB01084F4622460120002100F08E
:1001A000C9F817EB00094E41201EA4F10104DFDC61
:1001B000484631462A464346BDE8F09F40EA0103DF
:1001C0009B0703D009E008C9121F08C0042AFAD20D
:1001D00003E011F8013B00F8013B521EF9D27047D1
:1001E000D2B201E000F8012B491EFBD27047002279
:1001F000F6E710B513460A4604461946FFF7F0FF26
:10020000204610BD2DE9FE4F81EA030404F00044AE
:1002100021F0004100944FF0000B23F0004350EA1E
:1002200001045ED052EA03045BD0C3F30A54C1F365
:100230000A552C44A4F2F3340194A0FB0254C1F3F8
:10024000130141F48011C3F3130343F4801301FB42
:10025000024400FB034E840A970A44EA815447EAA9
:100260008357A4FB076802958D0A05FB07854FEAB3
:10027000932C04FB0C542705029D4FEA065847EACD
:100280001637B5EB08056EEB070C870E920E47EAA2
:10029000811742EA8312A7FB0201B6EB0B0164EB64
:1002A00000042B0D43EA0C335E1844EB1C50DA4675
:1002B0005146E7FB0201C5F313044FEA0B3343EA4F
:1002C00014534FEA0432019C43EA0603A4F10C04E0
:1002D0000294009CCDE900B400F05AF803B0BDE8E8
:1002E000F08F00200146F9E70EB540F2334102914C
:1002F0000021CDE900110A460B4600F049F803B091
:1003000000BDC1F30A5210B5C1F3130140F2FF332F
:1003100041F480119A4201DA002010BD40F23343CB
:100320009A42A2F2334203DC524200F012F810BDAE
:10033000904010BD202A04DB203A00FA02F1002090
:1003400070479140C2F1200320FA03F31943904013
:100350007047202A04DB203A21FA02F0002170477E
:1003600021FA02F3D040C2F120029140084319461D
:10037000704710B5141E73F1000408DA401C41F1F7
:10038000000192185B411A4301D120F0010010BD19
:100390002DE9F04D92469B4611B1B1FA81F202E08F
:1003A000B0FA80F220329046FFF7C4FF04460F46B1
:1003B00040EA0A0041EA0B0153465A46084313D06B
:1003C000114653EA010019D0C8F140025046FFF728
:1003D000C0FF05460E46504659464246FFF7AAFF63
:1003E000084305D0012004E020463946BDE8F08DE1
:1003F0000020054346EAE0762C4337430A9863051C
:10040000E40AA0EB08000022FD0A44EA47540A303F
:1004100002D500200146E9E7010510196941DDE92F
:10042000084500196941BDE8F04DA2E7064C074DAB
:1004300006E0E06840F0010394E8070098471034B4
:10044000AC42F6D3FFF77EFE286A0008686A00080F
:1004500070B58C1810F8015B15F0070301D110F886
:10046000013B2A1106D110F8012B03E010F8016BB3
:1004700001F8016B5B1EF9D12B0705D40023521E36
:100480000DD401F8013BFAE710F8013BCB1A921C9E
:1004900003E013F8015B01F8015B521EF9D5A1429C
:1004A000D8D3002070BD10B505F07AFEBDE810402D
:1004B00004F002BC704770477047704701F0E8FFD6
:1004C000FEE7704770472DE9F0410E460746154696
:1004D0000421052000F02AF80021012001F03AFA59
:1004E00080210A2000F022FC002405E0395D09206B
:1004F00001F030FA641CE4B2B442F7D303210120C6
:1005000001F028FAFF24052000F05EFB641E14F0C1
:10051000FF0401D04007F6D5222000F055FB2870DB
:10052000212000F051FB6870BDE8F08170B50C46E9
:10053000054600F049FB20EA04012846BDE870406A
:1005400001F008BA704770477047704770477047AE
:100550007047704706494869CA6880B21204120C95
:1005600005D0002803D04A6942EA0040486170473C
:10057000007003407047704770477047704770477E
:1005800070477047704770477047704770477047B3
:10059000704701F07DFFFEE7704770477047704776
:1005A0007047000070B5094D04464FF48030A863D1
:1005B000F82000F023F804F0F00000F01FF8200706
:1005C000000E00F01BF80120A86370BD005002402F
:1005D00070B5094D04464FF48030A863FA2000F04E
:1005E0000DF804F0F00000F009F82007000E00F00C
:1005F00005F80120A86370BD005002402DE9F041CC
:100600000D4E054600244FF480270420B0632806D1
:1006100002D54FF4003000E00220B0636806050EFA
:10062000B763022001F0CCFD0420B063641CE4B287
:10063000082CEAD3BDE8F0810050024001F028FF09
:10064000FEE77047002100EB400000E0491CB1EBE1
:10065000400FFBD370470000194C1A4EDFF868902A
:100660001A4D1B4F4FF47A784FF00A0A05F004FC3C
:10067000207A032801D101F04DFC307989F800007F
:10068000F07889F80100B07889F80200618A298041
:10069000E18AA980BA694146B2FBF1F22A81238A34
:1006A000B3FBFAF26A807A68B2FBF8F1E980398824
:1006B000C1EB011100EB8100C5F80A00D6E700008C
:1006C000BC090020140B002025800020130000200E
:1006D000680A002001F0DCFEFEE701F0D9FEFEE72B
:1006E00070B50723C2780178012512B3164A126843
:1006F00002F4E062C2F5E062120A032A01D34278F2
:1007000007E0C2F10304D34046788278A6401A403D
:10071000324301F1E021520181F80024007800F019
:100720001F018D404009800000F1E020C0F8005119
:1007300070BD01F01F0085404809800000F1E020F5
:10074000C0F8805170BD00000CED00E010B5142021
:1007500000F03AFA800705D10321BDE810401420CB
:1007600000F0E4BA10BD70B50646082192B000242E
:100770000846FFF7DBFE00210D2001F0EBF8802199
:100780000E20FFF7D3FE93208DF8040020208DF873
:10079000050011A801AB0090022219460C2000F0C0
:1007A0005CF8050014D1387801AA442803D1787880
:1007B000A8B103281ED00020115C3154115C401CEC
:1007C0004C40C0B20828F7D3105CA04200D00225EC
:1007D00080210E2000F0AAFA12B0284670BD002138
:1007E000505C7054505C491C4440C9B20829F7D38E
:1007F000505CEAE70020115C3154115C401C4C4015
:10080000C0B20828F7D3DFE730B593B08DF8040005
:100810008DF80510002001A9145C0D18401CC0B211
:10082000AC700628F8D300200C181A5C401CC0B22B
:1008300022720628F8D311A800900B460C220E2035
:1008400000F00BF8040004D1082000F0BDF9000707
:1008500000D4022413B0204630BD2DE9FF5F0025EF
:10086000DDF838B017468A4681464FF002082E461A
:100870000C2805D0B9F10E0F04D11225102601E085
:100880007725302645F08001022001F063F88021B1
:100890000420FFF74BFE0021012001F05BF88021CE
:1008A0000A2000F043FA002405E01AF80410092099
:1008B00001F050F8641CBC42F7D34946012001F016
:1008C00049F8B9F10C0F03D180210D2000F02EFA68
:1008D0004FF4FA64042000F077F90746641E03D051
:1008E000F80701D13742F5D080210D20FFF71EFE19
:1008F0003CB1062000F068F910F01B0F0DD04FF04E
:10090000020880210C2000F011FA0021012001F0E2
:1009100021F804B04046BDE8F09F2F404FF000089A
:10092000F80701D04FF00108B9F10C0FE9D10A2006
:1009300000F04AF905460C2000F046F910F00700D7
:100940004FEAC50101D008390144CBF8001025B1A8
:10095000402D00D94025002408E00125FBE70920AF
:1009600000F032F9014603980155641CAC42F6D3FD
:10097000C7E730B593B00C4630218DF8041001ADB7
:100980008DF8050002212846AA1CFFF79CFD11A83E
:1009900001AB0090042219460C20FFF75EFF10B94E
:1009A0001199902902D0022013B030BD0023E95CD8
:1009B000E1545B1CDBB2102BF9D3F5E730B50C46E4
:1009C000054693B00F21012000F0C4FF272000F05E
:1009D000FBF88828FAD108210846FFF7A7FD072170
:1009E0000D2000F0B7FF0321142000F09FF98DF8CF
:1009F00004504FF47A7000F0DBF811A801AB0090BE
:100A0000012219460C20FFF728FF10B9119910296F
:100A100002D0022013B030BD9DF8041021709DF863
:100A200005106170F6E710B5012005F019FB4FF4D1
:100A3000FA742046FFF706FE002005F011FBC820DF
:100A4000FFF700FE012005F00BFB2046FFF7FAFD43
:100A50000F21012000F07EFFC820FFF7F3FD2720C3
:100A600000F0B2F88828FAD108210846FFF75EFDA9
:100A700080210220FFF75AFD3D21112000F06AFF7E
:100A80008821172000F066FF4021152000F062FF4A
:100A90000021122000F05EFF0021132000F05AFF19
:100AA000372000F091F804460021372000F052FF73
:100AB000372000F089F811282AD0122842D021D9F5
:100AC0004FF05E014FF0370000F044FF4821262030
:100AD00000F040FF8821172000F03CFF1221292060
:100AE00000F038FFED21352000F034FFA5213B2038
:100AF00000F030FFAE21372000F02CFF72213B20A8
:100B000000F028FF2146372000F024FF002010BD10
:100B10005E21372000F01EFF4821262000F01AFF3A
:100B20008821172000F016FF6B21382000F012FFFB
:100B300023213A2000F00EFF1221292000F00AFFA5
:100B4000A521DCE75E213720C2E710B592B09321E2
:100B50008DF8041070218DF8051000218DF80A1011
:100B600001AA5418435CA370445C9DF80A30491CE8
:100B70006340C9B28DF80A300429F2D3072101A8D5
:100B8000D21DFFF7A0FC08210846FFF7CFFC11A8F3
:100B900001AB0090092219460C20FFF75EFE10B948
:100BA0001199182900D0022012B010BD704770476B
:100BB000002100EB400000E0491CB1EB400FFBD3EB
:100BC00070477047704770472DE9F041284E044642
:100BD00000252A460221304603F099FC002201211B
:100BE000304603F094FC7E2000EA440040F0800789
:100BF0000824380601D5012200E0002204213046F5
:100C000003F085FC01220221304603F080FC7806C7
:100C1000070E00220221304603F079FC641E14F016
:100C2000FF04E6D1082401220221304603F06FFCC4
:100C30006806000E3168002511F0080F00D001256C
:100C4000054300220221304603F061FC641E14F0CB
:100C5000FF04E8D101221146304603F058FC01227E
:100C60000221304603F053FC2846BDE8F081000025
:100C700000200240FFF762FAFEE7704770477047B6
:100C8000704770477047704770470000F0B5C1B0BB
:100C9000144668228DF80020204B221D8DF801207B
:100CA0001B8D1D0A8DF802508DF8033000238DF83E
:100CB00004308DF8050001236D46601C04E0CE5C15
:100CC000EF185B1C7E719BB28342F8D3D1B2A81C93
:100CD00001F030FA29198871000AC87108341048E7
:100CE0006946A2B2002308E0D51A0D44CE5C15F87F
:100CF000017DCF545B1C2E709BB2B3EB520FF3D32C
:100D0000FFF75CFA0648FF38A0F8024205490120C7
:100D10004870054803F0BAFF41B0F0BDBC0900209F
:100D200073060020040000200030004070B50C461F
:100D30000546FFF749FF40EA04012846BDE8704038
:100D400000F008BE02480168491C016070470000BD
:100D5000D40200202DE9F05FDFF87482D8F800009B
:100D600080047DD5D8F8001040460904F9D5016803
:100D700041F40041016005F091FB964900250868A7
:100D8000401C0860B0F5FA6F02D90D6004F0C4F899
:100D900091490888401C80B20880B0F5C87F02D90C
:100DA0000D8004F005FA8D4F0421384603F0A8FBAE
:100DB0008B4C40B994F83910C82902D2491C84F8E8
:100DC000391084F83A500421384603F099FB012881
:100DD00006D194F83A10C82906D2491C84F83A1072
:100DE00094F83A00C82801D384F8395008213846CD
:100DF00003F086FB40B994F83610C82902D2491C8A
:100E000084F8361084F837500821384603F078FB10
:100E1000012806D194F83710C82906D2491C84F855
:100E2000371094F83700C82801D384F836501021C1
:100E3000384603F065FB40B994F83310C82902D254
:100E4000491C84F8331084F834501021384603F0DC
:100E500057FB0126012808D194F83400C82800E087
:100E6000A8E006D2401C84F8340094F83400C82866
:100E700002D384F833500DE094F83300C82809D326
:100E800094F83600C82805D394F83900C8280AD346
:100E9000A57203E094F83900C82804D394F834000C
:100EA000C82800D3A6722021B946384603F028FB93
:100EB000DFF830B14C4F41F2707A012813D1A08F86
:100EC000504505D2401C80B2A087642802D009E0BA
:100ED000A58707E0207A03280DD0267210203870ED
:100EE00084F83B60E5872021484603F009FB4FF07A
:100EF000020970B11EE001F0CDFD72218BF89E1049
:100F0000352000F0CDF93949032008700520207202
:100F1000E4E7E08FC82801D2401CE08780B2642853
:100F200007D13878C00604D584F8089084F83B507F
:100F30003D70A58710212E4803F0E2FAA8B9B4F855
:100F40004000504506D2401C80B2A4F840006428FE
:100F500003D008E0A4F8405005E0207A03280BD025
:100F6000267204203870A4F842501021204803F063
:100F7000C7FA012811D01DE001F08CFD75218BF816
:100F80009E10352000F08CF91849032008700520C8
:100F90002072C82001F0FEF8E3E7B4F84200C82848
:100FA00002D2401CA4F8420080B2642802D184F826
:100FB00008903D70D8F800104046C90406D5016875
:100FC000490403D5016841F480410160BDE8F09F08
:100FD0000050014018800020100000200040024016
:100FE000BC090020680A0020120000202480002094
:100FF000007002400B4801698A040B4906D502695A
:10100000120403D50A6842F400420A600269D2045D
:1010100006D50069400403D5086840F480400860A4
:101020007047000000500140105001400B48016A19
:101030008A040B4906D5026A120403D50A6842F4F1
:1010400000420A60026AD20406D5006A400403D551
:10105000086840F48040086070470000005001407C
:10106000205001400B48016B8A040B4906D5026BE6
:10107000120403D50A6842F400420A60026BD204EB
:1010800006D5006B400403D5086840F48040086032
:101090007047000000500140305001400A4801688C
:1010A000890406D50168090403D5016841F40041AB
:1010B00001600168C90406D50168490403D50168C7
:1010C00041F480410160704700D000400B48016945
:1010D0008A040B4906D50269120403D50A6842F452
:1010E00000420A600269D20406D50069400403D5B3
:1010F000086840F4804008607047000000D000405D
:1011000010D000400B48016A8A040B4906D5026AD8
:10111000120403D50A6842F400420A60026AD2044B
:1011200006D5006A400403D5086840F48040086092
:101130007047000000D0004020D000400B48016BF9
:101140008A040B4906D5026B120403D50A6842F4DF
:1011500000420A60026BD20406D5006B400403D53E
:10116000086840F4804008607047000000D00040EC
:1011700030D0004070B51C4DA86800F00F046868BE
:10118000C0071CD060071AD529681848012280F8CA
:10119000FE21B0F800228154B0F80012491CA0F8DA
:1011A00000120A21C0F80C124178B0F80022091D83
:1011B000914204D1002180F8FE11C0F80C12686839
:1011C000400704D514F0060F01D0686968616868AB
:1011D000800703D5A00701D504F00CFF600701D0FC
:1011E000E86FE867686870BD003000407405002053
:1011F0004FF0402188684A6800F00F004A685207A3
:1012000004D510F0060F01D04A694A614A684007C8
:1012100001D0C86FC8674868704700002DE9F041E9
:101220001C4EB06800F00F00062825D019DC58B31A
:10123000022827D0042818D17068174CC0074FF037
:10124000000512D0154F7069C0070ED03168208894
:101250003954401C80B220803978552907D0258028
:10126000F1E7072801D1F06FF067BDE8F08116289B
:10127000E9D903F051FFF2E770684007F5D57069CE
:101280007061F2E77068F0E770680007EDD5B0694B
:10129000B061EAE700500040020000200003002097
:1012A0002DE9FC5FFE4EDFF8FCC30127B17A019106
:1012B000BCF80010002401F0FF0A4FEA1129DCE914
:1012C0000113F94DDCF8182019287DD07DDC0528A4
:1012D0007CD012DC01287AD0032879D10020311883
:1012E0002A18401C4978C0B251700728F7D32F72D2
:1012F0001E226C72EC49032016E3092869D01328DA
:1013000066D10020E3460BEB000C05EB0008401C07
:101310009CF88EC0C0B288F801C01028F3D300201A
:1013200006EB000C05EB0008401C9CF801C0C0B2A5
:1013300088F811C00728F3D32F76307A6876022018
:10134000A8760198E876308A2877000A6877708A4C
:10135000A877000AE877307F85F8200000202F1852
:10136000401CC0B287F821400828F8D385F82940EE
:1013700085F82A4085F82BA085F82C9085F82D401B
:1013800085F82E400020C40021FA04F42F18401CD8
:10139000C0B287F82F400428F5D30020C40023FAF8
:1013A00004F12C18401CC0B284F833100428F5D383
:1013B0000020C10022FA01F12B18401CC0B283F8B2
:1013C00037100428F5D305E0ABE00CE06EE048E010
:1013D00032E09DE2B08905F83B0F000A68703C22BC
:1013E000B1491320A0E2DFF8C4923B2899F80380AA
:1013F000CDF8008099F804A099F805E099F806B0B6
:1014000099F807807ED019DC332865D0352813D1B0
:10141000002031182A18401C4978C0B251700728A2
:10142000F7D32F726F72AC720A229F493520FFF7F3
:101430002DFC9F4903200870BDE8FC9F55286FD004
:10144000E328F9D1002031182A18401C4978C0B28D
:1014500051700728F7D33078287208229249E32088
:1014600062E2002031182A18401C4978C0B251703D
:101470000728F7D32F726F720F20A872002031183F
:101480002A18401C91F82A10C0B2D1720728F6D34E
:10149000EF7400202918401CC0B20F750A28F9D338
:1014A0000420A8771E22804901203DE20020311847
:1014B0002A18401C4978C0B251700728F7D3002081
:1014C00031182A18401C4978C0B211720228F7D38B
:1014D0001E227549052027E200200CEB00012A1886
:1014E000401C91F88E10C0B251701028F5D3002026
:1014F00031182A18401C4978C0B251740728F7D314
:101500002F7600E03EE00198012806D06C76052099
:10151000A8761A226449332006E26F76AC76F8E7A3
:10152000DCE100200CEB00022B18401C92F88E200E
:10153000C0B25A701028F5D3002032182B18401C66
:101540005278C0B25A740728F7D32F7600202A1891
:10155000401CC0B254760728F9D385F820A085F83E
:10156000219085F82210080A85F823000020291808
:10157000401CC0B281F824400328F8D327224A49EE
:101580001920D1E1B9F800008CF88700000A8CF826
:10159000880000988CF889008CF88AA08CF88BE081
:1015A0008CF88CB08CF88D800020E14609EB000CA3
:1015B00005EB0008401C9CF88EC0C0B288F801C042
:1015C0001028F3D3002006EB000C05EB0008401CAC
:1015D0009CF801C0C0B288F811C00728F3D3BA46FE
:1015E0002F760020CC460CEB00062F18401C96F8F6
:1015F0008060C0B27E760728F5D300200CEB000691
:101600002F18401C96F88760C0B287F82060072822
:10161000F4D3DFF8A0900020D9F80C6006EB860622
:101620004FEA4608C60028FA06F62F18401CC0B23A
:1016300087F827600428F5D3DCF8207000204FEAF3
:10164000C00827FA08F605EB0008401CC0B288F86D
:101650002B600428F3D3DCF82C7000204FEAC0087C
:1016600027FA08F605EB0008401CC0B288F82F6086
:101670000428F3D3DCF8307000204FEAC00827FAC2
:1016800008F605EB0008401CC0B288F83360042857
:10169000F3D3D9F81860002006EB860677000BE03C
:1016A000BC090020680A00208E080020140B0020CE
:1016B00024800020040A0020C60027FA06F605EB65
:1016C0000008401CC0B288F837600428E7D3DCF873
:1016D000387000204FEAC00827FA08F605EB00082A
:1016E000401CC0B288F83B600428F3D3DCF8447097
:1016F00000204FEAC00827FA08F605EB0008401C56
:10170000C0B288F83F600428F3D3DCF848600020BA
:101710004FEAC00826FA08F705EB0008401CC0B2E3
:1017200088F843700428F3D3D9F82460002006EB2E
:1017300086067700C60027FA06F605EB0008401C6F
:10174000C0B288F847600428F4D3DCF85070002059
:101750004FEAC00827FA08F605EB0008401CC0B2A3
:1017600088F84B600428F3D3DCF85C7000204FEA63
:10177000C00827FA08F605EB0008401CC0B288F83C
:101780004F600428F3D3DCF8607000204FEAC008F3
:1017900027FA08F605EB0008401CC0B288F8536031
:1017A0000428F3D3D9F83060002006EB86067700D2
:1017B0004FEAC00827FA08F605EB0008401CC0B243
:1017C00088F857600428F3D3DCF8687000204FEAEB
:1017D000C00827FA08F605EB0008401CC0B288F8DC
:1017E0005B600428F3D3DCF8747000204FEAC00873
:1017F00027FA08F605EB0008401CC0B288F85F60C5
:101800000428F3D3DCF8787000204FEAC00827FAE8
:1018100008F605EB0008401CC0B288F86360042895
:10182000F3D300200CEB00062F18401C367BC0B20F
:1018300087F867600528F5D300200CEB00062F1809
:10184000401C767CC0B287F86C600528F5D3002078
:10185000C60021FA06F62F18401CC0B287F8716046
:101860000428F5D30020C60023FA06F12E18401CE8
:10187000C0B286F875100428F5D30020C30022FA00
:1018800003F12B18401CC0B283F879100428F5D35B
:1018900000202918401CC0B281F87D401128F8D3DF
:1018A00085F88EA000200CEB00012A18401C91F84E
:1018B0008710C0B282F88F100728F4D39CF89E00DE
:1018C00085F8960000202918401CC0B281F8974086
:1018D0000828F8D39E2217493B2025E00020311824
:1018E0002A18401C4978C0B251700728F7D399F8DC
:1018F000020068720098A87285F80BA085F80CE0C9
:1019000085F80DB00E2285F80E800A4955200BE0AF
:10191000002031182A18401C4978C0B2517007289D
:10192000F7D307220349092002B0BDE8F05FFFF7B3
:10193000ADB900008E08002000F0AAFDFEE7704758
:101940000348416941F00101416100F0A1FDFEE75A
:10195000003001402DE9F041284E0D46044600229A
:101960000221304602F0D3FD00220121304602F070
:10197000CEFD7E2000EA44070824380601D5012266
:1019800000E000220421304602F0C1FD01220221C4
:10199000304602F0BCFD7806070E002202213046D8
:1019A00002F0B5FD641E14F0FF04E6D108242806F9
:1019B00001D5012200E000220421304602F0A7FDFB
:1019C00001220221304602F0A2FD6806050E002227
:1019D0000221304602F09BFD641E14F0FF04E6D1A4
:1019E00001221146304602F092FD012202213046CA
:1019F00002F08DFD0120BDE8F081000000200240D2
:101A00000FB4054B10B503A9044A029800F018F86A
:101A100010BC5DF814FB0000DD2A00085080002097
:101A200002E008C8121F08C1002AFAD170477047A7
:101A3000002001E001C1121F002AFBD17047000005
:101A40002DE9FF4F8DB00F460546002606E02528FC
:101A50000BD0DDE90F1290476D1C761C287800280A
:101A6000F5D111B03046BDE8F08F0024A246A14662
:101A70000122E94900E0044315F8013F203B02FA46
:101A800003F00842F7D128782A2810D06FF02F02EF
:101A90002878A0F13001092914D80AEB8A0102EB59
:101AA000410144F0020400EB010A6D1CF0E701CF94
:101AB0005FEA000A03D544F40054CAF1000A44F076
:101AC00002046D1C28782E2817D115F8010F44F058
:101AD00004042A280ED06FF02F022878A0F13001DC
:101AE00009290AD809EB890102EB410100EB010940
:101AF0006D1CF2E757F8049B6D1C28786C280FD0FA
:101B000006DC4C2817D068280DD06A2814D104E0D0
:101B1000742810D07A280FD10DE044F400140AE0A4
:101B200044F4801401E044F440146978814202D105
:101B300004F580146D1C6D1C28786E281ED00CDCFA
:101B4000632830D004DC00288BD0582811D19FE0C6
:101B5000642867D069280CD164E073282DD004DC98
:101B60006F2872D0702804D194E075286ED0782840
:101B70006DD0DDE90F129047761C4BE1C4F30250A3
:101B8000022806D0032809D0042801CF09D0066016
:101B900040E101CFF117C0E900613BE101CF0680D0
:101BA00038E1067036E117F8040B8DF800000020CC
:101BB0008DF80100EB46012003E057F804BB4FF01D
:101BC000FF3061074FF0000102D40DE008F1010180
:101BD000884649450FDA8045F8DB1BF808100029D4
:101BE000F4D108E008F1010188468142FADB1BF8D4
:101BF00008100029F6D1DDE90F23AAEB0800814681
:101C0000214600F031F9304400EB080604E0DDE93C
:101C10000F121BF8010B9047B8F10108F7D22146CB
:101C20004846F2E00A21C4F302524FF0000B08913B
:101C3000022A04D001CFC117032A09D00AE0FF1DF0
:101C400027F00707F7E8020108E02CE01EE01FE09C
:101C500000B2C117042A01D140B2C117021E71F1AE
:101C6000000206DA0023D0EB030063EB01012D2212
:101C700002E0220504D52B228DF82420012203E066
:101C8000E20701D02022F7E7904653E00A210BE05B
:101C9000102109E010214FF0000B44F004044FF034
:101CA0000809089103E008214FF0000B0891C4F3E4
:101CB0000252022A04D001CF0021032A06D006E0F6
:101CC000FF1D27F00707F7E8020103E080B2042AAE
:101CD00000D1C0B24FF0000822072BD52A78702A15
:101CE00007D0DDF820C08CF0100C5CEA0B0C05D09E
:101CF0000EE040228DF82420012208E050EA010382
:101D000006D030238DF824308DF82520022290460D
:101D1000089B83F0080353EA0B030BD150EA01023E
:101D200001D1620706D530228DF824204FF001083A
:101D3000A9F101092A78582A04D038A20B9208AADE
:101D40000A920BE03AA2F9E75B46089AFEF705FA19
:101D50000B9B9B5C0A9A521E0A92137050EA010276
:101D6000F2D10A98ADEB000000F1200B600702D51C
:101D700024F4803401E04FF00109D94502DDA9EBDC
:101D80000B0000E0002000EB0B0141440890AAEB9F
:101D9000010AE00306D4DDE90F232146504600F096
:101DA00063F806444FF0000908E009A911F809009A
:101DB000DDE90F12904709F10109761CC145F4DBFA
:101DC000E0030CD5DDE90F232146504600F04CF826
:101DD000064404E0DDE90F1230209047761C089994
:101DE000481E08900029F5DC08E00A980A99007856
:101DF000491C0A91DDE90F129047761CBBF10001E6
:101E0000ABF1010BF1DC21465046DDE90F2300F078
:101E100019F806446D1C21E60928010030313233DF
:101E20003435363738396162636465660000000016
:101E30003031323334353637383941424344454600
:101E4000000000002DE9F041044600251E4617461B
:101E5000880404D405E039462020B0476D1C641E78
:101E6000F9D52846BDE8F0812DE9F041044600256A
:101E70001E469046C80301D5302700E0202788047D
:101E800004D505E041463846B0476D1C641EF9D5BF
:101E90002846BDE8F081000070B50478457800233D
:101EA0002C4454340C708478C5782C4441344C70E4
:101EB00004784578C6782C43857835432C434934DB
:101EC0008C7004784578C6782C40857835402C4055
:101ED0005734CC7004784578C6782C4485783544DE
:101EE0002C4345340C710578447825408478C078BB
:101EF00004402819493048710548CC5CC5181C4479
:101F0000AD792C40D4545B1CDBB2062BF5D370BDED
:101F1000AC02002070B54C490846CA7800791E2AE8
:101F200003D9012202EB400000E040000872C1B278
:101F3000454842F21076DC38A0F17C05095CA0F13E
:101F4000340300F13004A869002231B1012917D00F
:101F5000022928D003294BD138E0616B29B9E2640A
:101F60006266E2676063216A6162616B626A411A5C
:101F700011442162DA685143B1FBF6F1216337E085
:101F8000E16C29B962636266E267E064A16BE163B8
:101F9000E16CE26B411A1144A1639A695143B1FBB0
:101FA000F6F1A16424E0616E29B96263E264E2673C
:101FB0006066216D6165616E626D411A1144216533
:101FC0005A6A5143B1FBF6F1216611E0E16F29B97C
:101FD0006263E2646266E067A16EE166E16FE26EF1
:101FE000411A1144A1661A6B5143B1FBF6F1A16786
:101FF000A26B216AA36E1144226D1A4411446160E0
:10200000A26C216BA36F1144226E1A441144A1618A
:102010006074020AA274020CE274000E207564203F
:10202000B1FBF0F0E169323088420CD300F032FDB0
:102030006E2084F89E003520FFF732F90520034911
:1020400028720320087070BD140B0020248000202B
:1020500010B500F047F800F02BF80120FEF7A2FAC7
:10206000022000F097F8012110230CA2084600F08E
:10207000D4F9102309A20121022000F0CEF9102387
:1020800006A20121032000F0C8F910230121BDE8B8
:10209000104002A2042000F0C0B90000202020203F
:1020A00020202020202020202020202000000000B0
:1020B00070B52420FEF776FA002505F18000C0B245
:1020C000FEF770FA8020FEF76DFA00240020FEF77C
:1020D0007FFA641CE4B2202CF8D36D1CEDB2202DE5
:1020E000EBD370BD10B52420FEF75CFA2020FEF77C
:1020F0006FFA8020FEF76CFA00242020FEF768FAC1
:10210000641CE4B2402CF8D310BD000010B5074A9F
:10211000074B002032F8104019188C7102EB400474
:10212000A489401C0C730628F4DB10BDD8020020E3
:10213000D00F002070B50B4DFF22134605F58076B9
:1021400005E010F8014B54402A5D5A40335D491EAA
:10215000C9B2F6D24FF6FF7000EA0220184480B2EE
:1021600070BD00002D00002007490228087005D02E
:10217000032805D0042806D1044803E0044801E000
:102180004FF04020486070474480002000500040DD
:102190000030004010B5044601F0B4F9002C0DD019
:1021A0004FF47A71B0FBF1F0604303210838B0FBC3
:1021B000F1F0BDE810402D38FDF7CCBF10BD000098
:1021C00000280BD0064948430649B0FBF1F0032133
:1021D0000838B0FBF1F00D38FDF7BCBF70470000C8
:1021E000A0D9EA0440420F0070B50022084D072430
:1021F000B2FBF4F304FB1323C35CDB438B54AE5CF0
:1022000033448B54521CD2B2102AF1D370BD00005B
:10221000AC0200202DE9F0411646012826D0022804
:1022200026D0032826D0042829D1973101F0FF08B1
:1022300090272420FEF7B6F900257819C0B2FEF7E2
:10224000B1F94046FEF7AEF9002416F8010BFEF78F
:10225000BFF9641CE4B2022CF7D36D1CEDB2102D53
:10226000EBD3BDE8F0413620FEF79CB97F3102E0A8
:102270008F31DBE7873101F0FF088027D9E7BDE820
:10228000F0812DE9F04114460746012805D0022FC0
:1022900005D0032F58D1873102E07F3100E08F3124
:1022A00001F0FF082420FEF77DF9012F01D0032F54
:1022B00015D1002606F18000C0B2FEF773F9404642
:1022C000FEF770F9002514F8010BFEF781F96D1C7B
:1022D000EDB2022DF7D3761CF6B2202EEAD3022FF0
:1022E0002DD1002606F19000C0B2FEF75BF9404602
:1022F000FEF758F9002514F8010BFEF769F96D1C7B
:10230000EDB2022DF7D3761CF6B2102EEAD30026DA
:10231000A8F1080706F18000C0B2FEF743F9F8B251
:10232000FEF740F9002514F8010BFEF751F96D1C7A
:10233000EDB2022DF7D3761CF6B2102EEAD3BDE82B
:10234000F0413620FEF72EB9BDE8F08170B50646A3
:102350000C4600252420FEF725F916B1012E57D191
:102360002BE005F18000C0B2FEF71CF98020FEF7DB
:1023700019F9002614F8010BFEF72AF9761CF6B2BB
:10238000082EF7D36D1CEDB2202DEAD3002606F1FE
:102390008000C0B2FEF706F98820FEF703F9002599
:1023A00014F8010BFEF714F96D1CEDB2082DF7D3EC
:1023B000761CF6B2202EEAD32AE005F18000C0B2E6
:1023C000FEF7F0F88020FEF7EDF8082614F8010B70
:1023D000FEF7FEF8761CF6B2102EF7D36D1CEDB2A8
:1023E000202DEAD3002606F18000C0B2FEF7DAF80D
:1023F0008820FEF7D7F8082514F8010BFEF7E8F857
:102400006D1CEDB2102DF7D3761CF6B2202EEAD358
:10241000BDE870403620FEF7C5B82DE9F041002632
:102420001F46904634463546012806D0022809D07A
:10243000032814D004280BD116E07F31CCB2C4F1AC
:10244000880003E08F31CCB2C4F198004006050E3D
:102450002020FEF7A7F82046FEF7A4F813E0873106
:10246000CCB2C4F19000F1E79731CCB2C4F1A00036
:10247000ECE718F8010BFEF7ABF87F1E761CF6B2FE
:10248000FFB2AE4201D8002FF3D1BDE8F0810000C9
:1024900070B503F01AFE634806686248203004688D
:1024A000001D0068050C60A0FFF7AAFA60A0FFF706
:1024B000A7FA700201D560A100E060A161A0FFF75A
:1024C0009FFAC6F3083167A0FFF79AFAC6F308012E
:1024D0006CA0FFF795FA73A0FFF792FA51481430F9
:1024E0000078010972A0FFF78BFA4E48153000788A
:1024F000010974A0FFF784FA4A48163000780109F0
:1025000075A0FFF77DFA47481B300078010978A0D5
:10251000FFF776FA43481C300078010978A0FFF7EE
:102520006FFA40481E30007801097BA0FFF768FA77
:102530003C481F30007801097BA0FFF761FA7FA0BB
:10254000FFF75EFAC4F380417FA0FFF759FAC4F3A6
:10255000404184A0FFF754FAC4F3004187A0FFF77D
:102560004FFA3FA0FFF74CFAC4F3C03189A0FFF740
:1025700047FAC4F380318DA0FFF742FAC4F340312B
:1025800090A0FFF73DFAC4F3003194A0FFF738FAAA
:1025900033A0FFF735FAC4F3C02197A0FFF730FA54
:1025A000C4F380219AA0FFF72BFAC4F300219EA068
:1025B000FFF726FAC4F3C011A1A0FFF721FAC4F374
:1025C000C001A5A0FFF71CFAC4F34001A9A0FFF7C2
:1025D00017FA04F00101ADA0FFF712FAB1A0FFF75E
:1025E0000FFAC5F34021B1A0FFF70AFAC5F30021A5
:1025F000B4A0FFF705FAC5F3C001B9A0FFF700FAD0
:10260000C5F38001BCA0FFF7FBF9C5F34001C0A0F2
:10261000FFF7F6F905F00101CAA0FFF7F1F900BED6
:1026200070BD000004ED00E05E5F5E27270D0A002C
:10263000494353523A0D0A006973000069736E27CB
:102640007400000009207468657265202573206994
:102650006E746572727570742070656E64696E67F1
:102660000D0A0000092070656E64696E6720657848
:1026700063657074696F6E206E756D6265723A2560
:10268000750D0A00092061637469766520657863B9
:10269000657074696F6E206E756D6265723A25752E
:1026A0000D0A000053485052783A0D0A000000000D
:1026B00009204D656D204D616E6167653A2568683A
:1026C000640D0A000920427573204661756C743AE6
:1026D000256868640D0A000009205573616765204C
:1026E0004661756C743A256868640D0A0000000044
:1026F00009205356433A256868640D0A000000001B
:1027000009204465627567204D6F6E69746F723A77
:10271000256868640D0A0000092050656E645356F0
:102720003A256868640D0A00092053797354696377
:102730006B3A256868640D0A000000005348435353
:10274000523A0D0A000000000920557361676520A8
:102750004661756C7420656E61626C653A25750D15
:102760000A0000000920427573204661756C7420D0
:10277000656E61626C653A25750D0A0009204D652C
:102780006D204661756C7420656E61626C653A25DA
:10279000750D0A000920535643616C6C2070656EFC
:1027A0006465643A25750D0A000000000920427531
:1027B00073204661756C742070656E6465643A259B
:1027C000750D0A0009204D656D204661756C7420F9
:1027D00070656E6465643A25750D0A0009205573AD
:1027E000616765204661756C742070656E64656410
:1027F0003A25750D0A000000092053797354696366
:102800006B206163746976653A25750D0A000000D6
:10281000092050656E645356206163746976653A89
:1028200025750D0A0000000009204D6F6E69746F58
:1028300072206163746976653A25750D0A0000009F
:102840000920535643616C6C206163746976653A64
:1028500025750D0A00000000092055736167652089
:102860004661756C74206163746976653A25750DEF
:102870000A0000000920427573204661756C7420BF
:102880006163746976653A25750D0A0009204D6506
:102890006D204661756C74206163746976653A25B4
:1028A000750D0A00554653523A0D0A000920446935
:1028B00076696465206279207A65726F3A202564B2
:1028C0000D0A00000920556E616C69676E65642011
:1028D0006163636573733A2025640D0A000000008C
:1028E00009204E6F20636F70726F636573736F7230
:1028F0003A2025640D0A00000920496E7661696C52
:1029000064205043206C6F61643A2025640D0A00F6
:102910000920496E7661696C64207374617465285E
:10292000617474656D707420746F20656E74727953
:102930002041524D207374617465293A2025640D3D
:102940000A0000000920556E646566696E656420A2
:10295000696E737472756374696F6E3A2025640DC5
:102960000A00000070B50A4B03EB4224094B002219
:10297000DC605A608A4209D250F8225054F8226032
:10298000B54201D0012070BD521CF2E7002070BD9D
:1029900000E0010800800020084B10B503EB422244
:1029A000074BDA6000225A608A4206D2DC6854F88B
:1029B000222004C05A68521CF5E710BD00E001084F
:1029C000008000202DE9F04105460C480C4C00EB3E
:1029D00042200E46A06000200A4F60600AE0A16815
:1029E00055F8202001EB8001384600F0BFFF6068F9
:1029F000401C6060B042F2D3BDE8F08100E0010805
:102A0000008000200010034010B580211548FDF71C
:102A1000EEFB14480021042241708272C17142F61B
:102A2000D86202824182C17201220272017141F2B6
:102A30006C7343834FF47A73838301754175C17559
:102A40000176022380F82B3080F8292080F8253089
:102A500080F8212001700146BDE81040024800F0D6
:102A6000C3BF0000F40400200080034008B500202C
:102A700000900E208DF800006946024801F0A8FB86
:102A800008BD0000008003400121014801F008BC9E
:102A900000800340022301221146014801F044BC9A
:102AA00000800340F0B50B4E0B4F0023F5186878FB
:102AB000000900F04BF807EB43042071687800F040
:102AC0000F0000F043F85B1CDBB26071072BEDD305
:102AD000F0BD0000BC090020258000200E490A78C6
:102AE000012A06D94968C3B2CA6F9207FCD50B60A8
:102AF0007047FDD109490968C907F9D007498039EC
:102B00000968CA074FF0604101D1704700BF0A68E9
:102B1000002AFBD00870704744800020800E00E03F
:102B200010B50346002204E00478682C06D0401C4F
:102B3000521C8A42F8D30278682A05D14278194497
:102B4000091A121D914200D0002010BD092801D899
:102B5000303004E0A0F10A02052A01D83730C1B2B2
:102B60000846704703F0F0BB10B503F0A5FB03F077
:102B7000E1FBC820FFF70EFBBDE8104003F0B6BB39
:102B8000704700002DE9FF5F0026DFF824840C4623
:102B9000009601960296039698F80010DFF814A4A8
:102BA000DFF814940A250746B34601285AD0022FAD
:102BB0007ED0032F7DD1032938D0FFF749FA0623B1
:102BC000FEA219460420FFF728FC01210823FDA2DC
:102BD0000846FFF722FC0823FAA201210220FFF792
:102BE0001CFC0823F7A201210320FFF716FC082391
:102BF000F4A201210420FFF710FC0623EFA21946DE
:102C00000220FFF70AFC0623ECA219460320FFF777
:102C100004FC0823EEA205210120FFF7FEFB88F843
:102C20000070A9F500710020FFF790FBE0492078C3
:102C300098F802201F3190427BD088F80200C8F833
:102C40001FB00120A8F823B002462378034271D0B8
:102C5000082870D070DC01286FD002286ED00428BC
:102C600068D199E2012956D088F80070FFF7F0F991
:102C70006846A11909798155761CF6B20E2EF8D353
:102C800001210A23D5A20846FFF7C7FB0223D6A2DB
:102C900001210420FFF7C1FB0E236A460221042014
:102CA000FFF7BBFB9AF80000032838D1CF4A01E0B8
:102CB000BEE036E104210220FFF7E3FA98F80400B1
:102CC0000221B0FBF5F009EB80124E460846FFF7F3
:102CD000D8FA98F80400B0FBF5F105FB110006EBFB
:102CE000801203210220FFF7CCFA98F80300052197
:102CF000B0FBF5F006EB80120220FFF7C2FA98F85D
:102D00000300B0FBF5F105FB110006EB8012062174
:102D10000220FFF7B6FA9AF8000003280FD002212C
:102D20000C23B3A20846FFF778FB0C23B4A20221C0
:102D30004CE03FE22DE231E225E229E22AE220786E
:102D400098F804104646884214D03071B0FBF5F074
:102D500009EB801202214F460846FFF792FA3079BC
:102D6000B0FBF5F105FB110007EB801203210220F7
:102D7000FFF787FA6078F178884214D0F070B0FBE2
:102D8000F5F009EB80124F4605210220FFF779FA92
:102D9000F078B0FBF5F105FB110007EB801206217E
:102DA0000220FFF76EFAA0780223B0FBF5F0303076
:102DB0008DF80000A0786A46B0FBF5F105FB110024
:102DC00030308DF801008DF802B007210320FFF7A5
:102DD00024FB9AF808005446022805D106238CA249
:102DE00019460120FFF719FBA07A012804D1062318
:102DF00089A21946FFF711FB8948007840B920786D
:102E0000032805D1062387A219460120FFF705FBF9
:102E1000207A012804D1062384A21946FFF7FDFA7F
:102E2000207A03287DD1062382A219460120A6E13B
:102E300022880A20B2FBF0F3DFF874B100FB132202
:102E40000BF1080B30328BF8032022884FF47A7E86
:102E5000B2FBF0F2B2FBF0F300FB13228BF801207F
:102E600022886423B2FBF3F28BF800206288B2FB65
:102E7000F0F500FB15220BF104053032EA70628890
:102E8000B2FBF0F2B2FBF0F600FB16223032AA7071
:102E900062880BF10806B2FBF3F230326A70A28846
:102EA000B2FBF0F500FB15253035F570B2FBF0F5FF
:102EB000B5FBF0FC00FB1C553035B570B2FBF3F5EB
:102EC000B5FBF0FCB2FBFEF200FB1C553035757013
:102ED00030323270E288361DB2FBF0F500FB15256A
:102EE00030353571B2FBF0F5B5FBF0FC00FB1C553D
:102EF0003035B570B2FBF3F5B5FBF0FCB2FBFEF27A
:102F000000FB1C5530357570303232702289B2FBAF
:102F1000F0F500FB1525761D30357571B2FBF0F527
:102F200000E02EE1B2FBF3F3B5FBF0FC00FB1C5517
:102F30003035F570B3FBF0F5B2FBFEF200FB153354
:102F40003033B37030327270D4F80A204FF0060C70
:102F5000B2FBF0F300FB132506F10C033035DD71F5
:102F6000B2FBF0F5B5FBFCF60CFB165530359D7148
:102F70003C25B2FBF5F5B5FBF0F600FB1656B5FBAC
:102F8000F0F530361E71B5FBFCF60CFB16553035EE
:102F9000DD704FF46165B2FBF5F2B2FBF0F500FBBA
:102FA0001525B2FBF0F030355D703030187045E01B
:102FB0002E020020BC090020D86600082020202016
:102FC00020200000202020202020202000000000C1
:102FD000B9CAD5CFD0C5CFA200000000D4CBD0D085
:102FE000D7B4CCAC3A200000534E000098690008DA
:102FF000315FB2E5C8EBB3E4B5E7C7B90000000044
:10300000325FCBA2BFA8BFC9B3E4B5E700000000A0
:103010002020BFD5CFD00000D2D1B2E5C7B9000083
:10302000210000202020C0EBCFDF00002020B9CA03
:10303000D5CF00002020B3E4B5E70000022956D028
:10304000FFF706F80823AFF2840205210120FFF7FD
:10305000E4F90623AFF29C0219460320FFF7DDF9DD
:103060000623AFF2A80219460220FFF7D6F906237D
:10307000AFF2B80219460320FFF7CFF9624A0821E0
:103080000120FFF7FEF8022360A203210120FFF7D1
:10309000C4F902235EA203211846FFF7BEF90321FB
:1030A00004235CA20846FFF7B8F99AF80000032849
:1030B0000AD1554A06218032FFF7ACF8524A07215F
:1030C000A0320320FFF7A6F89BF800005D4609EB4D
:1030D00080124E4605210120FFF7D3F868780621BB
:1030E00006EB80120120FFF7CCF888F800702088EA
:1030F0000A21B0FBF1F3B8F80640A34214D0B0FBAC
:10310000F1F0A8F806009BF800005D4609EB80127C
:103110004C4605210120FFF7B4F86878062104EB3E
:1031200080120120FFF7ADF802230BF10202072104
:103130001846FFF772F901210423384A0846FFF7C1
:103140006CF9364A0423121D01210220FFF765F9AC
:10315000324A0523083201210320FFF75EF92F4A86
:103160000823193201210420FFF757F99AF80000CB
:10317000032806D1294A06230D3219460420FFF7F9
:103180004CF9BDE8FF9F10280AD020280BD109E098
:103190000A7008E04A7006E08A7004E0CA7002E033
:1031A0000A7100E04A714006761C000EF6B2062E47
:1031B000FFF44BAD00205C4698F801208B5CB3B166
:1031C0001649D0B200EB4000213101EB400206234A
:1031D00019460320FFF721F998F80100401CC0B2FE
:1031E00088F801000528CCD988F80140C9E7521CAD
:1031F000D2B288F80120052A01D988F80140401C84
:10320000C0B20628D8D3BCE7586900082056000091
:1032100020570000206B7768000000003A02002071
:1032200070B520484FF080642214017AD5035610FF
:103230001D481E4B032909D082631022826320227D
:1032400082634022826302290ED008E084635A78A8
:10325000521CD2B25A70032A01D100225A708663DE
:10326000134A127812B103E08563F9E7856384633A
:1032700003290CD159784FF4801249B15300012928
:103280000AD0022903D1490581638263836370BD3B
:1032900082632021816301E0836382634021816333
:1032A00070BD0000BC09002000500240000000205A
:1032B000210000202DE9F04100240D46654F661ED7
:1032C000214657F82130834201D2C21A00E01A1A6F
:1032D000B24201D216460C46491C0429F1D35E4A7B
:1032E000E5B1012D00D0D2100026810C80033346B9
:1032F000FCF733FF0A465949CB6BDFF864E1C3F3AF
:103300004133A3422FD1DEF80430070C47EA0247CD
:103310007B4086EA12473B4302D024E0514AE3E770
:10332000DEF808701FFA80FC87EA0C0786EA0603BD
:103330001F4318D1CB6BDB0415D50B68C3F3C13326
:10334000AB4210D115B1012D0DD106E0CB6B5B0165
:1033500009D40B6CDB077BD105E0CB6B5B0102D59D
:103360000B6CDB0374D4404B15B1012D36D118E042
:10337000EFF3108595B10025002D00D072B68B6556
:1033800000BF0D6825F4C0350D60CD6B25F080655C
:10339000CD630D6C45F001050D641CE04FF0010597
:1033A000EAE7EFF31085EDB34FF00005002D00D0F4
:1033B00072B68B6500BF0D6C45F480350D640D68E9
:1033C00025F4C0350D600D6845F400450D60CD6BEA
:1033D00045F08065CD638E6500D062B6EFF3108551
:1033E0009DB34FF00005002D00D072B68B6500BF75
:1033F000CB6B23F4C043CB63CB6B04F0030443EAF1
:103400004433CB634FEA024343EA1042CEF8042030
:1034100080B2CEF80800CEF80C60CEF800604FF015
:10342000010001E00FE013E0CEF80000C86B40F4AB
:103430008050C8638E6500D062B6BDE8F0414FF0A1
:10344000960000F053B80125B0E7FFE70125CAE771
:10345000BDE8F081186A000800127A00006002409E
:1034600000D0014080BA8C01E487AC3FF0B5EFF3A7
:10347000108191B1002100261A4D1B4C002900D06B
:1034800072B6A56500BF6168A66500D062B6027815
:1034900001F07F47FF2A02D002E00121EBE7FE2284
:1034A0004178FF2906D00B46807842EA0322FF28A4
:1034B00002D002E0FE23F7E7FE2142EA0141394350
:1034C000EFF3108050B10020002800D072B6A5653F
:1034D00000BF6160A66500D062B6F0BD4FF001008C
:1034E000F2E70000E487AC3F0060024008B51A2212
:1034F00004E011460092491E0091FCD1401EF8D212
:1035000008BD000070B5134C2068C0F3C120E0B1C5
:1035100001281CD0002010498D684968002213043E
:1035200043EA114345EA0141A1FB0056134303FB63
:10353000006001FB0200410441EAD530A16801F0BE
:103540000F01491CB0FBF1F070BD0448E3E70448EB
:10355000E1E700000060024000C0014080BA8C0139
:1035600000127A002DE9F0470025DFF80CA20F4683
:103570004FF0FF3C2B465AF823804FEA5804B4FB27
:10358000F0F1B4FBF0F200FB11410F2A05D9A0EBDA
:1035900000114FF00F02414405E004D2B1EB500F8F
:1035A00001D9411A521C614505D2561E42438C4630
:1035B0001D464FEA42095B1C042BDCD307B3012FE5
:1035C00020D06E4A48464FF00009810C80034B46DC
:1035D000FCF7C3FD6A4CE26BDFF8A8A1C2F341021D
:1035E000AA423ED1DAF804304FEA104C4CEA014CC2
:1035F00083EA0C0389EA114C53EA0C0304D030E04F
:10360000614ADFE7614ADDE7DAF808301FFA80FC3B
:1036100083EA0C0389EA0902134322D1226802F0EB
:103620000302022A1DD1A26802F00F02B24218D191
:10363000E26BD20715D02268C2F3C122BA4210D180
:1036400017B1012F0DD106E0226CD20709D0E26B31
:10365000D20165D505E0E26BD20102D5226CD2031E
:103660005ED44B4A17B1012F37D118E0EFF3108326
:1036700093B10023002B00D072B6A26500BF23686F
:1036800023F4C0532360E36B23F08073E363236C64
:1036900043F0010323641CE04FF00103EAE7EFF37A
:1036A0001083E3B34FF00003002B00D072B6A26585
:1036B00000BF236C43F480332364236823F4C05396
:1036C0002360236843F400632360E36B43F080735B
:1036D000E363C4F8589000D062B6EFF31083E3B30D
:1036E0004FF0000707B172B6A26500BF226822F052
:1036F00003022260E26B22F00602E263E26B05F055
:10370000030342EA4302E263A26822F00F02A260CE
:10371000A26806F00F0342EA0302A26001E027E07C
:1037200024E04FEA104242EA0142CAF8042080B283
:10373000CAF808004D46CAF80C90CAF800904FF03D
:103740000100CAF80000E06B40F00100E0634FF0B8
:103750000100FFF7CBFE206800E00BE020F0030043
:10376000801C2060A565002F00D062B6BDE8F08700
:10377000012399E70127B5E7186A000840420F00C6
:103780000060024000C0014080BA8C0100127A0043
:10379000E487AC3F70B5054616480C46854203D019
:1037A000632115A002F0D6FD22496068884201D24B
:1037B000002006E0B0FBF1F01D211C30B0FBF1F061
:1037C000401E1D4900F00F0008432863207B00B114
:1037D0008020617A01B120210843217A01B10821BA
:1037E0000843E17A01B101210843144908432860E4
:1037F00070BD0000001003402E2E5C2E2E5C2E2E7D
:103800005C2E2E5C4C69627261726965735C4472F5
:10381000697665725C736F757263655C4C4C5C7441
:10382000785F7068655F6C6C5F65666C6173682E4D
:103830006300000040420F008011010010000300EF
:1038400070B504460C480D46844203D09E210BA05F
:1038500002F080FDFF2D03D99F2108A002F07AFD20
:10386000A068C007FCD014486065C5F3080040F0AC
:103870008040206270BD0000001003402E2E5C2EA0
:103880002E5C2E2E5C2E2E5C4C6962726172696514
:10389000735C4472697665725C736F757263655CA4
:1038A0004C4C5C74785F7068655F6C6C5F65666CCF
:1038B0006173682E6300000030021720194910B5AB
:1038C000884203D0482118A002F044FDEFF3108095
:1038D00008B300200022234B2349002800D072B6F1
:1038E0008B6500BF086940F0020008618A6500D05E
:1038F00062B6EFF3108088B14FF00000002800D0CE
:1039000072B68B6500BF086A40F0800008628A6565
:1039100000D062B610BD4FF00100DBE74FF00100B0
:10392000ECE70000001003402E2E5C2E2E5C2E2EA5
:103930005C2E2E5C4C69627261726965735C4472C4
:10394000697665725C736F757263655C4C4C5C7410
:10395000785F7068655F6C6C5F65666C6173682E1C
:1039600063000000E487AC3F0060024070B504468D
:103970000C4816460D46844203D0B1210AA002F03D
:10398000E9FCA80703D0B22107A002F0E3FCA0687D
:103990004006FCD51348606505F100652561A66108
:1039A00070BD0000001003402E2E5C2E2E5C2E2ECB
:1039B0005C2E2E5C4C69627261726965735C447244
:1039C000697665725C736F757263655C4C4C5C7490
:1039D000785F7068655F6C6C5F65666C6173682E9C
:1039E00063000000300217202DE9F04F4FF000096E
:1039F00089B00546FE480C46CB464F46CDF80090B0
:103A0000CDF80490854203D08D21FAA002F0A2FCEB
:103A1000E08E4FF48066B04203D38E21F5A002F011
:103A200099FC208FB04203D38F21F2A002F092FCC8
:103A3000B4F86200B0F5805F03D39021EDA002F0EE
:103A400089FC2078072803D39121EAA002F082FCA8
:103A500002F086FBF648F5498165627801214FF056
:103A6000190C4FF01A0812234FF0130A22B1012A41
:103A700027D0022A46D135E02278032A0ED2436CA1
:103A80000CEB420201FA02F213434364426C2378C6
:103A900008EB430399400A43426433E0D0F848C03E
:103AA00003EB420201FA02F24CEA020CC0F848C0F1
:103AB000826C94F800C00AEB4C0399400A4382647C
:103AC00020E02278032A03D2436C0CEB42020FE081
:103AD000D0F848C003EB420291404CEA010CC0F818
:103AE00048C00FE02278032A06D2436C08EB42025A
:103AF00091400B43436405E0836C0AEB4202914022
:103B00000B4383640021816502F038FBA07808B183
:103B1000B44601E04FF0000C207900B130466179E5
:103B200009B14FF480710143A07A00F0070041EA27
:103B30004011A07900B110200843E17901B10821BA
:103B40000143E07A00F0030041EA4001207A00B12D
:103B5000012040EA010A207B4FF4801200F00701A7
:103B6000607B49EA415100B110460843A17B01F056
:103B7000070140EA4143E07B4FF4803100B1084641
:103B80001843238A03430793607A00B10846638A87
:103B900003430693207D00B11020E37D03F003036F
:103BA0000343607D00B120201843237E03F003030C
:103BB00040EA8303A07D00B130461843637E03F0E2
:103BC000030340EA0320059094F8200000F003036B
:103BD0004BEA836094F8213003F0030340EA03606A
:103BE00094F8223003F0030340EA835094F8233022
:103BF00003F0030340EA035094F8243003F0030376
:103C000040EA834094F8253003F0030340EA034080
:103C100094F8263003F0030340EA832094F8273019
:103C200003F0030340EA032094F8283003F0030371
:103C300040EA831094F8293003F0030340EA0310AC
:103C400094F82A3003F0030340EA830094F82B3001
:103C500003F003030343049394F82C0000B12020E5
:103C600094F82D3003F0030340EAC30394F82E00C8
:103C700000B10420184394F82F3003F003030343EA
:103C8000039394F8300000F00303009840EA8300A7
:103C900094F8313003F003030343009394F83200A7
:103CA00000B1402094F8333003F0030340EA0310DE
:103CB00094F8343003F0030340EA830094F835307D
:103CC00003F0030343EA000EE08E238FC0F30900E4
:103CD00047EA0040C3F3090343EA000994F83A00B5
:103CE0004FF0804300B1184694F83B7007F00F077F
:103CF00040EA876894F83C004FF0007700B13846FE
:103D000040EA080B94F83D0000F00F0894F83E00DC
:103D10004BEA485800B1104640EA080B94F83F00BF
:103D200000F00F0894F840004BEA084B00F003083D
:103D300094F841004BEA083B00F003084BEA0820E6
:103D400094F8428008F0030848EA0008CDF808809B
:103D500094F8460008B14FF4002094F84780B8F179
:103D6000000F01D04FF4802848EA000894F844007E
:103D700008B14FF4003040EA080094F84580B8F1EB
:103D8000000F00D0884648EA000894F8480008B1BF
:103D90004FF4004040EA080094F84980B8F1000F61
:103DA00001D04FF4804848EA000894F84C0008B16C
:103DB0004FF4005040EA080894F84D0008B14FF461
:103DC000805040EA080094F84A80B8F1000F01D012
:103DD0004FF4006848EA000894F84B0000B9002648
:103DE00094F84E0046EA080620B34FF4007823E02A
:103DF000008003402E2E5C2E2E5C2E2E5C2E2E5C20
:103E00004C69627261726965735C4472697665724D
:103E10005C736F757263655C4C4C5C74785F706842
:103E2000655F6C6C5F6570776D2E6300E487AC3FF7
:103E3000006002404FF0000894F84F0048EA06087E
:103E400008B14FF4807094F8506040EA080006F022
:103E5000030640EA861694F8510000B12020304352
:103E600094F8526006B11026064394F8530000F00F
:103E7000030046EA800694F8540000B10220304363
:103E800094F8556006B1012646EA000B94F85600F6
:103E900000F00706019840EA466094F8576006F083
:103EA000070640EA865094F8586006F0070640EA94
:103EB000C64094F8596006F0070640EA064094F8B8
:103EC0005A6006F00F0640EA063094F85B6006F090
:103ED0000F0640EA062094F85C6006F00F0640EA00
:103EE000061094F85D6006F00F06064394F864002F
:103EF00008B14FF0004094F86580B8F1000F00D091
:103F0000984648EA000894F8660008B14FF000505F
:103F100040EA080094F86780B8F1000F01D04FF034
:103F2000805848EA000894F8680008B14FF0006033
:103F300040EA080094F86980B8F1000F01D04FF012
:103F4000806848EA000894F86A0000B1384640EA00
:103F5000080094F86B80B8F1000F01D04FF0807822
:103F600048EA000894F86C0008B14FF4000040EAF9
:103F7000080094F86D80B8F1000F01D04FF480086C
:103F800048EA000894F86E0008B14FF4001040EAC7
:103F9000080094F86F80B8F1000F00D100220243AE
:103FA00094F8700008B14FF40020104394F8712089
:103FB0000AB14FF48022024394F8720008B14FF422
:103FC0000030104394F8732002B90021014394F8A3
:103FD0007A0000F0030041EA802094F87C1001F0A0
:103FE000030140EA012094F87B1001F0030140EA4C
:103FF000811094F87D1001F0030140EA011094F85B
:104000007E1001F0030140EA810094F87F1001F076
:104010000302024394F8740000B9002394F8750079
:1040200008B14FF0005094F87610184309B14FF0E2
:104030008051014394F8770008B14FF000600843C5
:1040400094F8781009B14FF08061014394F8790039
:1040500000B90027D5F84C020F4340EA0C00C5F820
:104060004C022078C0EBC00000EB400045F820A0D7
:1040700020780799C0EBC00000EB400005EB800002
:10408000416020780699C0EBC00000EB400005EBD2
:104090008000816020780599C0EBC00000EB4000F3
:1040A00005EB8000C1602078618BC0EBC00000EBA5
:1040B000400005EB800001612078A18BC0EBC000BF
:1040C00000EB400005EB800041612078E18BC0EB04
:1040D000C00000EB400005EB80008161207804996E
:1040E000C0EBC00000EB400005EB8000C161207810
:1040F0000399C0EBC00000EB400005EB80000162BB
:1041000020780099C0EBC00000EB400005EB800078
:1041100041622078C0EBC00000EB400005EB80005E
:10412000C0F828E02078C0EBC00000EB400005EBB1
:104130008000C0F82C9020780299C0EBC00000EB02
:10414000400005EB800001632078C0EBC00000EB6D
:10415000400005EB8000C0F838B02078C0EBC0000C
:1041600000EB400005EB8000C6632078B4F85E10D9
:10417000C0EBC00000EB400005EB8000016420783C
:10418000B4F86010C0EBC00000EB400005EB80000D
:104190004164B4F86200C0F30B012078C0EBC000AA
:1041A00000EB400005EB800081642078C0EBC0008C
:1041B00000EB400005EB8000C2642078C0EBC0003B
:1041C00000EB400005EB8000076509B0BDE8F08F0B
:1041D00070B50C461F49884203D054211EA002F03E
:1041E000B9F820780F2803D356211BA002F0B2F8AB
:1041F00000212748FFF75EF8EFF3108020B300227C
:104200000025244B2448002A00D072B6836500BFE5
:10421000016841F4C07101602278816862F30F3156
:104220008160856500D062B6EFF3108179B14FF0FF
:104230000001002900D072B6836500BF17494165AF
:10424000856500D062B670BD4FF00102D8E74FF02F
:104250000101EEE7008003402E2E5C2E2E5C2E2EF8
:104260005C2E2E5C4C69627261726965735C44728B
:10427000697665725C736F757263655C4C4C5C74D7
:10428000785F7068655F6C6C5F6570776D2E63003A
:10429000002A7515E487AC3F0060024053A3570025
:1042A00070B5054611480E46854204D04FF4DE71C4
:1042B0000FA002F04FF800223446E00709D0C2EB0D
:1042C000C20000EB400005EB8000016D41F480214D
:1042D0000165521C6408D2B2072AEED3D5F84C020D
:1042E00006F07F010843C5F84C0270BD0080034012
:1042F0002E2E5C2E2E5C2E2E5C2E2E5C4C69627255
:1043000061726965735C4472697665725C736F751E
:104310007263655C4C4C5C74785F7068655F6C6C54
:104320005F6570776D2E63002DE9F04104461A48F1
:104330001F4616460D46844204D040F2D91117A0FC
:1043400002F008F80020294607F00307CA0714D036
:10435000C0EBC00202EB420204EB8203DA6C22F0F3
:104360000F02DA64DA6CB44667F39F0C42EA0C027F
:10437000DA641A6D42F480621A65401C4908C0B2C2
:104380000728E3D3D4F84C0205F07F018843C4F832
:104390004C02BDE8F0810000008003402E2E5C2E10
:1043A0002E5C2E2E5C2E2E5C4C69627261726965E9
:1043B000735C4472697665725C736F757263655C79
:1043C0004C4C5C74785F7068655F6C6C5F6570778F
:1043D0006D2E630070B504460D4815460E468442A6
:1043E0000CD00C48844209D00B48844206D00B48BC
:1043F000844203D04E210AA001F0ACFF2DB1012D63
:1044000002D160683043606070BD6068B043FAE715
:104410000020024000400240005002400070024074
:104420002E2E5C2E2E5C2E2E5C2E2E5C4C69627223
:1044300061726965735C4472697665725C736F75ED
:104440007263655C4C4C5C74785F7068655F6C6C23
:104450005F6770696F2E630070B504461648164694
:104460000D4684420CD01548844209D01448844239
:1044700006D01448844203D0622113A001F06AFFE1
:104480003006E06A01D5284300E0A843E062F00767
:1044900005D0E068A843E060A069A84309E0B00740
:1044A00003D5E0682843E06070BD7007FCD5A069C3
:1044B0002843A06170BD000000200240004002407F
:1044C00000500240007002402E2E5C2E2E5C2E2EDC
:1044D0005C2E2E5C4C69627261726965735C447219
:1044E000697665725C736F757263655C4C4C5C7465
:1044F000785F7068655F6C6C5F6770696F2E6300D2
:104500000246002012680A4200D00120704703686A
:104510000AB10B4300E08B430360704770B5066837
:104520000D4604461F4884421FD01E481030844266
:104530001BD01C482030844217D01A4830308442A7
:1045400013D01948844210D01748103084420CD040
:1045500015482030844208D013483030844204D0BB
:1045600040F2911111A001F0F5FE2946204600F01D
:1045700081F8A97946F4404001F0070140EA0120A2
:10458000E97901F0030140EA8110697A01F007013D
:1045900001436888A06028886060A888E060216086
:1045A00070BD00000050014000D000402E2E5C2E57
:1045B0002E5C2E2E5C2E2E5C4C69627261726965D7
:1045C000735C4472697665725C736F757263655C67
:1045D0004C4C5C74785F7068655F6C6C5F74696D7F
:1045E00065722E6300000000114988421ED01049F8
:1045F000103188421AD00E492031884216D00C4919
:104600003031884212D00B4988420FD0094910310D
:1046100088420BD007492031884207D00549303104
:10462000884203D0782104A001F094BE70470000B6
:104630000050014000D000402E2E5C2E2E5C2E2E0D
:104640005C2E2E5C4C69627261726965735C4472A7
:10465000697665725C736F757263655C4C4C5C74F3
:10466000785F7068655F6C6C5F74696D65722E63EE
:10467000000000002DE9F05F0446984F9648DFF8EF
:1046800058B2DFF85882DFF854920025DFF84CA2C8
:1046900010370E460BF1100B08F1200809F1300914
:1046A000844215D05C4513D08B48203084420FD013
:1046B0008948303084420BD0544509D0BC4207D0E1
:1046C000444505D04C4503D0DD2185A001F042FED4
:1046D000544505D0BC4203D0444501D04C4506D1D9
:1046E000B07A022803D3EA217DA001F033FE01F065
:1046F00037FD8B4889498165774A944216D05C45DD
:104700000BD0754920318C420BD0734930318C422B
:104710000BD054450AD0BC4201D1012506E04445E6
:1047200001D1022502E04C4500D10325012194422C
:1047300009D05C4507D0684A2032944203D0664ACB
:104740003032944273D16A0001FA02F701EB45025C
:1047500001FA02F4082202EB450201FA02F30922EF
:1047600002EB450847EA040C01FA08F24CEA030C94
:10477000D0F848804CEA020C28EA0C08C0F84880BF
:1047800096F808C0BCF1020F06D0BCF1010F0FD0A3
:10479000BCF1030F0CD098E0B17AC90702D0816C4C
:1047A00019438164B17A89075CD5816C11435FE05C
:1047B000B27AD20713D0836C3B438364026822F43D
:1047C00000320260026842F480220260C26822F075
:1047D000FF02C260436A01FA05F213434362B27AF0
:1047E000920772D5826C224382640268022D0ED237
:1047F00022F400020260026842F080720260C26825
:1048000022F07F42C260826A1435A9405BE022F444
:1048100000120260026842F480020260C26822F460
:104820007F02C260826AC5F111034BE0FFE7544585
:1048300005D0BC4203D0444501D04C4545D105F1DB
:10484000100401FA04F3241D01FA04F4876C43EA0E
:10485000040297438764327A022A04D0012A09D0DD
:10486000032A07D031E0B17AC9072ED0816C2143E9
:1048700081642AE0B27AD20727D0826C1A4382641C
:104880000268022D10D222F400320260026842F463
:1048900080220260C26822F0FF02C260426A2D1DBF
:1048A000A9400A43426210E022F40012026002684A
:1048B00042F480020260C26822F47F02C260826A0F
:1048C000C5F10F0399400A43826200218165BDE86A
:1048D000F05F01F053BC00000050014000D00040E8
:1048E0002E2E5C2E2E5C2E2E5C2E2E5C4C6962725F
:1048F00061726965735C4472697665725C736F7529
:104900007263655C4C4C5C74785F7068655F6C6C5E
:104910005F74696D65722E6300000000E487AC3F30
:104920000060024002680B7813B142F4005201E0CB
:1049300022F40052497811B142F4805101E022F48E
:10494000805101607047000070B5044615480D465F
:1049500084421FD01348103084421BD011482030AD
:10496000844217D00F483030844213D00E4884421E
:1049700010D00D48103084420CD00B4820308442B7
:1049800008D009483030844204D04FF4DF7107A0CA
:1049900001F0E0FC206805F0030140EA011020600E
:1049A00070BD00000050014000D000402E2E5C2E53
:1049B0002E5C2E2E5C2E2E5C4C69627261726965D3
:1049C000735C4472697665725C736F757263655C63
:1049D0004C4C5C74785F7068655F6C6C5F74696D7B
:1049E00065722E630000000010B50446134884422F
:1049F0001FD01248103084421BD01048203084420F
:104A000017D00E483030844213D00D48844210D065
:104A10000B48103084420CD009482030844208D022
:104A200007483030844204D04FF4E87105A001F00B
:104A300091FC206820F03000206010BD0050014043
:104A400000D000402E2E5C2E2E5C2E2E5C2E2E5C76
:104A50004C69627261726965735C447269766572F1
:104A60005C736F757263655C4C4C5C74785F7068E6
:104A7000655F6C6C5F74696D65722E630000000089
:104A800070B504461C480D46844209D0B4F1402F4D
:104A900006D01A48844203D0DE2119A001F05AFC46
:104AA0002946204600F04AF8687800F0030128788B
:104AB00000B104200843A9782A7901F0030140EAF3
:104AC000C100072102F0030241EA0211EA7802F074
:104AD000030241EA8211002222618022E260AA7967
:104AE0002260EA88120A6260E26822F08002E260D4
:104AF000E060A16070BD0000003000400050004048
:104B00002E2E5C2E2E5C2E2E5C2E2E5C4C6962723C
:104B100061726965735C4472697665725C736F7506
:104B20007263655C4C4C5C74785F7068655F6C6C3C
:104B30005F75736172742E63000000002DE9F0410F
:104B4000264DDFF89C800F4604464FF04026A842D1
:104B500007D0B44209D0444503D0882121A001F0F8
:104B6000F9FBAC4201D0B44206D1387A022803D313
:104B70008C211CA001F0EEFB01F0F2FA2948284933
:104B80008165AC4207D1416C21F480414164416CA4
:104B900041F010011BE0B44207D1416C21F4004107
:104BA0004164416C41F0200111E0444510D1416C59
:104BB0001D4A11404164397ACA0703D0416C41F063
:104BC000400104E0890703D5416C41F080714164E4
:104BD00000218165BDE8F04101F0D0BA003000400D
:104BE000005000402E2E5C2E2E5C2E2E5C2E2E5C55
:104BF0004C69627261726965735C44726976657250
:104C00005C736F757263655C4C4C5C74785F706844
:104C1000655F6C6C5F75736172742E6300000000D9
:104C2000E487AC3F00600240BFFFFEFE06498842B9
:104C300009D0B0F1402F06D00449884203D04F215B
:104C400003A001F087BB70470030004000500040D7
:104C50002E2E5C2E2E5C2E2E5C2E2E5C4C696272EB
:104C600061726965735C4472697665725C736F75B5
:104C70007263655C4C4C5C74785F7068655F6C6CEB
:104C80005F75736172742E63000000000A7902B1CF
:104C90008022CB7803B1082313438A7802B104221F
:104CA0001A434B7803B102230978134301B1012160
:104CB00019434160704700002DE9F04762B60122B8
:104CC0008F4C02212046FFF785FB0122022120465E
:104CD000FFF7C2FB0221A163012204212046FFF756
:104CE00079FB012204212046FFF7B6FB4FF4802018
:104CF000A063844C012210212046FFF76BFB0122A8
:104D000010212046FFF7A8FB7F4D686B40F0400064
:104D10006863012240212846FFF75CFB0122402105
:104D20002846FFF799FB606B40F0080060630122A2
:104D300008212046FFF74EFB012208212046FFF7FD
:104D40008BFB606B40F01000606301221021204655
:104D5000FFF740FB012210212046FFF77DFB606B2F
:104D600040F020006063012220212046FFF732FB43
:104D7000012220212046FFF76FFB606B40F04000CE
:104D80006063012240212046FFF724FB01224021DD
:104D90002046FFF761FB606B40F0800060630122FA
:104DA00080212046FFF716FB012280212046FFF7D5
:104DB00053FB606B40F4807060634FF48079012294
:104DC00049462046FFF706FB012249462046FFF7E9
:104DD00043FB606B40F40070606301225702394668
:104DE0002046FFF7F7FA012239462046FFF734FB49
:104DF000606B40F4806060634FF48068012241463C
:104E00002046FFF7E7FA012241462046FFF724FB40
:104E1000606B40F007006063012207212046FFF726
:104E2000D9FA022207212046FFF716FB686B40F0F3
:104E300010006863002210212846FFF7CBFA0122F8
:104E400010212846FFF708FB686B40F020006863DC
:104E5000002220212846FFF7BDFA01222021284602
:104E6000FFF7FAFA294E706B40F0100070630022D1
:104E700010213046FFF7AEFA012210213046FFF72D
:104E8000EBFA7803A8631020A0632020A0634020E1
:104E9000A0638020A063C4F83890A763C4F838806A
:104EA0001B490120087000F01DFB01F0DFFA01F042
:104EB000B7FA01F087F801F05BF801F003FB01F0AD
:104EC0002FFA01F0F9F9FDF74DFEFDF7CFFDFDF7E3
:104ED0009BFDFDF7DFFD01F08BFA01F059FAFDF7BC
:104EE000E1FD0C4C2078032804D200F06FFA601C1E
:104EF00001F0AAF8FBF7B0FB0020BDE8F087000046
:104F00000020024000500240004002400070024079
:104F10002C000020BC0900202DE9F05F6B497620B1
:104F2000C8606B4D6B49287828B14FF400228A6322
:104F3000401E287001E00820886367490878401CFB
:104F4000087000F099FF00F029FCFDF719FE01F050
:104F500047F9FEF765F9614CDFF884910026207A65
:104F60004FF0030804280AD1FDF78EFD84F808806D
:104F70001320FCF795F900F08DFBA9F80060207A6A
:104F8000DFF860A1584F4FF0010B052802D003282D
:104F90000FD010E0207803280DD2FDF7E3FD3E701E
:104FA0009AF8000010B184F808B004E002202072E2
:104FB00001E0A07A18B1207803280ED00FE0FDF7A9
:104FC00069FD4A496B2081F89E003520FCF768F99D
:104FD00087F800800520207201E000F009F94449BB
:104FE000474A0888401C088042480188491C0180C3
:104FF00041480188491C018040480188491C0180C2
:105000001088401C81B21180B9F800305B1CA9F8EF
:1050100000303C4B1878401C18703B4BC00709D03F
:105020004FF480009863032900D91680207A022863
:1050300002D005E04020F5E734490120FDF7A2FD4C
:10504000207A032803D132490220FDF79BFD9AF80C
:10505000000018B123490320FDF794FD20782D4E60
:10506000032802D200F0BCF93070B14630781E2619
:1050700001281ED1207A02280ED1A07A012818D149
:105080002078032815D2FDF76FFD042020722E70C2
:1050900099F8000001280CD1207A032809D1207842
:1050A000032806D2FDF7F6FC052020722E7087F843
:1050B0000080E07A10B9A07A012803D0A07AE072CB
:1050C000BDE8F09F2E7084F80BB0F9E70030014086
:1050D0003A8000200050024000000020BC0900205F
:1050E000228000201200002024800020680A002076
:1050F0001C800020208000200C0000201E8000204A
:105100000A00002037800020004002402580002057
:10511000130000202300002010B522490020401C6D
:10512000C0B21628FBD3087855283AD18878CA78B7
:10513000000200EB02404A781B4C104445F2F50295
:10514000B0FBF2F0608248798A79000200EB0240FD
:105150000A7910444FF4BD62B0FBF2F02082C87AA5
:105160000A7B000200EB02408A7A1044B0F57F0F00
:1051700001D9002003E04FF4F572B0FBF2F0E082B9
:10518000887BCA7B0002497B00EB02400844FBF7A6
:10519000ABF84FF03332054BFBF734F8FBF7B1F8BF
:1051A000A06110BD00030020BC0900203333034080
:1051B0001EB50D49002008800C49C86F4007FCD57A
:1051C00048694006FCD558208DF80000AA208DF8CB
:1051D000010000206C46235CCA6F9207FCD50B606F
:1051E000401C0228F7DB1EBD0200002000500040DA
:1051F0002DE9F047654C4FF001092088A0B16449C2
:105200000988032903D06349098803290CD101289F
:1052100002D15120FCF744F82088401C80B2208045
:10522000AF2801D9A4F800905B48002401881E290A
:1052300000D9048059485A4D0188092906D90480AB
:10524000287804280FD05749802088635648574E45
:1052500001880E291CD904806420FCF79BFF287864
:1052600004280FD014E00320FCF71AF850490878FE
:10527000401CC0B208700528E8D94E482C70047054
:105280000C70E3E7307A032802D11320FCF708F80A
:10529000494F3888B0F5967F0BD93C8000F0FAF979
:1052A0002878042805D1307A022822D11320FBF770
:1052B000F7FF287888B9DFF8048198F8000010B962
:1052C0000120FBF7EDFF98F80000401CC0B288F801
:1052D0000000052801D988F800402878012802D16B
:1052E0000520FBF7DDFF2878022802D10920FBF713
:1052F000D7FF3349DFF8CC80087848B3401EC0B2EE
:1053000008708A4686F84490022804D13B20FBF7B7
:10531000C7FFFDF727FC9AF80000012816D198F87E
:10532000000010B186F8089001E002203072287861
:10533000042805D100F0A0F800F0ACF986F844404C
:105340001320FBF7ADFF4FF491703880BDE8F08774
:10535000307A1D4C012801D0022802D1717A88428E
:1053600008D198F800002178884203D1F07AB17A08
:10537000884205D06420FCF70DFF1320FBF790FF57
:10538000307A707298F800002070DFE70E0000207D
:10539000408000202A000020208000201E80002065
:1053A00021000020005002400C000020BC09002019
:1053B0003980002022000020228000203880002038
:1053C00024800020120000204380002010B500F04F
:1053D00055FDFBF728FBBDE81040FBF7B7B900000F
:1053E000F8B5002469465220FBF7E8FA204D012663
:1053F00040B169465220FBF7E1FA18B1002028704D
:105400006870F8BD2E70687878BB6E70281DFBF749
:10541000AAF9281DFBF799FB164A281D1646A2F18A
:105420000A01FCF739FD2B1D324604216120FBF7F0
:10543000EBF90F4904201039FBF79BFAA8B90C4986
:105440000C4820391138FCF7CFFE094900201039EB
:10545000A1F110020B5C155CAB4203D1401CC0B241
:105460001028F7D3102800D101242046F8BD0000F1
:1054700068100020960200200022184910468B1860
:10548000521CD2B283F88E00102AF8D300228B1857
:10549000521CD2B283F88000072AF8D300228B185E
:1054A000521CD2B283F88700072AF8D308804880BC
:1054B00008620863486288638864C8630865086690
:1054C000486588668867C8664863C864044A486651
:1054D000C86790618861486070470000680A0020D2
:1054E000BC09002070B500206649FF2221F8102079
:1054F00001EB40039881401C0628F7DBFCF706FE11
:10550000614E32204C21708031814FF4BE71318068
:1055100042F2D00171814FF4E161F18040F6C41193
:10552000B180A6F5A67501246870AC700620E870FD
:1055300029202871522068713620A8711420E87142
:10554000022028722C70562085F82A00342085F815
:105550002B002E2085F82C00312185F82D1085F8A0
:105560002E00352085F82F00302085F830000020EF
:1055700085F83100C82105F5B27000F0BFFC05F5D3
:10558000B2710888A0F52542A53A7AD1002001EB36
:1055900040022B189278401C5A700728F7DB087CD1
:1055A0002870C88A7080088B3081488B3080888B47
:1055B0007081C88BF080088CB080088D552860D130
:1055C000314A0020A03A01EB40031518401C93F823
:1055D0002A30C0B285F88E301028F4D3002001EBB9
:1055E00040031518401C93F84A30C0B285F880304B
:1055F0000728F4D3002001EB40031518401C93F852
:105600005830C0B285F887300728F4D3D1F8660047
:105610001062D1F86A001063D1F86E009063D1F87F
:1056200072009064D1F876001065D1F87A001066A7
:1056300051F87E0F90664868906788689061C868E6
:105640005060087C1073887C5073087D9073887D4F
:10565000D073087E5074887E9074087FD074887FE1
:1056600010750A484B6A03638B6A4362CB6A836195
:10567000096BC1608320064902F89E0F0320087061
:10568000547070BDD8020020080B0020040A0020CE
:10569000248000203F4930B44AF2A5500880A1F18F
:1056A00018004288CA8202890A8302884A83428992
:1056B0008A83C288CA83808808840020A1F5B272D8
:1056C000131801EB40045B78401C63800728F7DB6C
:1056D00010780882107A032806D00020088530BC94
:1056E000C8212C4800F010BC55200885294A00200C
:1056F000B83A131801EB4004401C93F88E30C0B246
:1057000063851028F5D30020131801EB4004401CDA
:1057100093F88030C0B2A4F84A300728F4D30020B0
:10572000131801EB4004401C93F88730C0B2A4F872
:1057300058300728F4D3106A41F8660F106B4860A0
:10574000906B8860906CC860106D0861106E486145
:10575000906E8861906FC861906908625068486275
:10576000107B0885507B4885907B8885D07BC885D9
:10577000507C0886907C4886D07C8886107DC886C0
:105780000548026BCA63426A0A6482694A64C06857
:105790008864A4E7200B0020040A00202DE9F05FB4
:1057A000804D814E287810B1B07B401CB073B07B27
:1057B00000240A2807D9B473022030722C70FDF738
:1057C00069F9FDF7CFF97949794F308A0880B988AE
:1057D000B146784B784A01268E4681420BD2198811
:1057E000032905D91C80118831B916802E7003E079
:1057F000491C198000E01C80B7F80680DFF8BCC1A6
:10580000DFF8BCA1804511D9BCF80010032909D9E3
:10581000ACF80040BAF800700FB9AAF8006008218F
:10582000297005E0491CACF8001001E0ACF800401C
:10583000DFF890B1032708F1320880450AD2AEF1B3
:105840003201814206DD108803280BD0BAF800002F
:10585000032807D01088DFF8708101280BD00328B7
:1058600016D027E01480AAF8004058481C80ACF8F5
:105870000040048047E0B8F80000401C80B2A8F85F
:105880000000022816D95148A8F800401780068069
:105890002E7099F8080003280CD1FDF7FBF86F2152
:1058A0008BF89E103520FBF7FBFC4948052189F851
:1058B00008100770BAF80000032812D108202870D9
:1058C00099F8080003281ED1FDF7E4F86F208BF843
:1058D0009E003520FBF7E4FC052089F808003C48D1
:1058E0000770BAF8000001280DD1B8F80000401C7C
:1058F00080B2A8F80000022805D93448A8F8004072
:10590000AAF8007006802A4AC846B9F81200118821
:10591000DFF8C090884210D998F81510491CC9B218
:1059200088F8151002290AD9A8F80C6002212970FC
:1059300098F80800032807D031E088F8154098F857
:10594000081003290ED02AE0FDF7A4F86F208BF889
:105950009E003520FBF7A4FC1D48052188F808109F
:1059600007701CE05188884219D299F80000401C49
:10597000C0B289F8000050280FD9022088F808002A
:10598000FDF788F841218BF89E103520FBF788FC45
:10599000052088F808000E480770BDE8F09F89F8D8
:1059A0000040FAE712000020BC0900203C800020E3
:1059B000080B002026000020408000203E800020B0
:1059C0002A000020680A0020280000200E00002085
:1059D00024800020240000202DE9FE4FFE4EFD4CC7
:1059E00096F8FE01002878D1B6F80002002874D09D
:1059F000D6F80C02002870D1B6F80072B6F8002272
:105A00003146204606F50076FAF7D8FB00253580AA
:105A100039462046FDF784F80446FF21EE48FAF7A0
:105A2000E6FB3580002C58D063790326DFF8ACA361
:105A3000EB4F0A21DFF8AC93EB48DFF8B0834FF06F
:105A4000020C362B7AD062DCE94A062B79D006DCD0
:105A5000022B69D0042B6FD1A07BE8B376E00A2B30
:105A60006ED0342B68D100204D4621182A18401CD6
:105A70008979C0B282F88E101028F6D314F82E0F50
:105A80006178E27800EB0120A178090401EB026162
:105A90000844E86198F80A0001285AD03320FBF73F
:105AA000FFFB6420FCF776FB4B2085F89E003B2033
:105AB000FBF7F6FBBAF8001005F8801F090A6970B9
:105AC0009AF80310A9709AF80410E9709AF8051072
:105AD00029719AF8061001E036E02DE069719AF814
:105AE0000700A871D8F8180005F8740C010A05F829
:105AF000731C010C05F8721C000E05F8710C03B044
:105B00006422BDE8F04FB849BA48FAF757BB562BA4
:105B10003CD0582B7ED0E12B7DD0E22B0CD1E32062
:105B2000BDE8FE4FFBF7BCBB607B002804D11078BA
:105B3000002801D101201070BDE8FE8F17E000E0C1
:105B400042E082F800C0F7E7AB480570AB4805704B
:105B5000F2E7FDF709F888F808603320FBF7A0FBAF
:105B60000420A74988F808001E200870A2E788F8DA
:105B700008C0FCF78FFF402189F89E103520FBF705
:105B80008FFB052088F808003E70D5E7607BA17B7D
:105B90004FF47A7200EB012081B2AAF80010B1FB39
:105BA000F2F18AF80210E17B8AF80310217C8AF86E
:105BB0000410617C8AF80510A17C8AF80610E17C4B
:105BC0008AF807105520ABE714F80F3F657894F872
:105BD00003C003EB0523A5782D0405EB0C652B44CE
:105BE00093FBF1F3436000932379657994F807C040
:105BF00003EB0523A5792D0405EB0C652B4493FBE2
:105C0000F1F585600195237A657A03EB0523A57A82
:105C10002D0401E07BE021E194F80BC005EB0C655D
:105C20002B4493FBF1F303610293237B657B94F890
:105C30000FC003EB0523A57B2D0405EB0C652B445E
:105C400093FBF1F54561AE46237C657C94F813C067
:105C500003EB0523A57C2D0405EB0C652B4493FB7E
:105C6000F1F3C3619B46237D657D94F817C003EB78
:105C70000523A57D2D0405EB0C652B4493FBF1F565
:105C80000562AA46237E657E94F81BC003EB0523BC
:105C9000A57E2D0405EB0C652B4493FBF1F3836289
:105CA0009946237F657F94F81FC003EB0523A57FEA
:105CB0002D0405EB0C652B4493FBF1F1C1624944C3
:105CC00001630BEB0A014162029B03EB0E01816150
:105CD000DDE900355919C16000210F3C63184518F2
:105CE000491C93F83030C9B285F834303029F5D3E7
:105CF0000420107098F84400012802D0387810B1C0
:105D0000A8E03E70A6E01320FBF7CAFAA2E014F860
:105D10000F2F6378E57802EB0322A3781B0403EBD3
:105D200005631A4492FBF1F242609346227963794B
:105D3000E57902EB0322A3791B0403EB05631A4404
:105D400092FBF1F383609946227A637AE57A02EB5B
:105D50000322A37A1B0403EB05631A4492FBF1F6BA
:105D60000661227B637BE57B02EB0322A37B1B04A2
:105D700003EB05631A4492FBF1F54561227C637CD9
:105D8000E77C02EB0322A37C1B0403EB07631A44AA
:105D900092FBF1F3C361227D677D94F817C002EB9B
:105DA0000722A77D3F0407EB0C673A4492FBF1F210
:105DB0000262277E94F819C094F81B8007EB0C2729
:105DC00094F81AC04FEA0C4C0CEB086C674497FB34
:105DD000F1F717E08E07002074050020140B002057
:105DE00024800020680A0020E40F0020BC09002065
:105DF00021000020040A0020220000203980002019
:105E00003A8000208762BA46277F94F81DC094F834
:105E10001F8007EB0C2794F81EC04FEA0C4C0CEBCC
:105E2000086C674497FBF1F1C16251440163991812
:105E30004162711981610BEB0901C16000210F3CC6
:105E400062184318491C92F83020C9B283F83420F4
:105E50003029F5D3BDE8FE4FFFF71CBC0020211808
:105E600008EB0002401C8979C0B251700728F6D3B4
:105E7000607B88F80000EDE7FFF7AEBD70B51D4D03
:105E8000012211462846FEF7A5FA012202212846E2
:105E9000FEF7A0FA012204212846FEF79BFA002211
:105EA00008212846FEF796FA134C606B40F4004038
:105EB00060630122D60331462046FEF78BFA0222A8
:105EC00001212846FEF7C8FA022211462846FEF7AD
:105ED000C3FA022204212846FEF7BEFA0222082154
:105EE0002846FEF7B9FA31462046BDE87040022246
:105EF000FEF7B2BA0020024000400240014A127888
:105F0000FCF74ABD008000202DE9F041124D0E46FD
:105F1000074600242A78FCF725FD012818D12878A7
:105F2000052801D90020287029780C4CF031204632
:105F3000FDF786FCA068C007FCD02A7831463846B9
:105F4000FCF740FD2A7831463846FCF70BFD044645
:105F50002046BDE8F08100000080002000100340D2
:105F60004FF404710148FAF742B9000074050020AB
:105F700070B5FFF7F5FF1048002401250461446166
:105F800004830E480E4E014604600571057044708E
:105F90003046FEF77BFE08492C201031C8800320D4
:105FA00048708C700C70CC700C710D723046BDE86E
:105FB0007040FEF765BD000074070020040000205B
:105FC000003000401CB503208DF8000005208DF83E
:105FD000010000248DF8024001208DF8030068467E
:105FE000FAF77EFB01A902480194FEF71FFE1CBDD3
:105FF0000030004070B5104DB5F802020F4C40B9AA
:106000000F480026014646702046FEF73FFE0D4829
:106010000670B5F8020200280DD0B5F80212064845
:10602000FE300A5CE16F8907FCD52260B5F80202F8
:10603000401EA5F8020270BD74050020003000402B
:10604000040000204280002004490268C1F80620B4
:1060500082884A8180790873704700007F0200209F
:10606000044A4FF4004110B10804906370479163F3
:1060700070470000004002401FB5002000900290D1
:1060800003218DF80B008DF8001008498DF80900E8
:1060900001918DF80A00039001218DF808108DF808
:1060A0000C0069460248FDF775FB1FBDA0D9EA0444
:1060B0000010034008B50020009069460148FDF734
:1060C000FDFB08BD0010034070477047EFF31080E0
:1060D000A0B10020002800D072B60A490A488165A4
:1060E00000BF0A494A686FF30B024A6008494165DC
:1060F0004FF00001816500D062B670474FF001009B
:10610000E8E70000E487AC3F006002400040024046
:1061100053A3570070B5FFF7CDFFFFF7ADFFEFF3C7
:106120001080B0B1002505B172B60B480B4CA065CC
:1061300000BF0026E661FF2020620120FCF740F846
:106140001F20E061701E2062A665002D00D062B69F
:1061500070BD0125E7E70000E487AC3F0060024026
:10616000EFF31080C1B272B60348426802B9017001
:106170004168491C41607047C002002007484168DF
:10618000002909D04168491E41604168002903D1B6
:106190000078002800D162B670470000C0020020DD
:1061A00008B5FFF7B7FF00210A48FDF7DBF900202B
:1061B0008DF800008DF801008DF802006846FDF7AB
:1061C00055F9FFF783FFFFF77FFF04490248086096
:1061D00008BD0000A0D9EA040000000808ED00E0B6
:1061E00070B5344C0021A078401CC0B2A0703C288F
:1061F0000DD3A170E078401CE070A4F5AC70007A7B
:10620000032804D1A4F1AC000288521C0280E0787B
:106210003C2803D3E1702079401C20712079182894
:1062200003D321716079401C6071A079421CD2B205
:1062300001280BD0032809D0052807D0072805D04E
:10624000082803D00A2801D00C2802D163791F2B1B
:106250000AD8042805D0062803D0092801D00A2826
:1062600005D163791E2B02D96171A27170BDE379EA
:106270004FF0030503F5FA629B0705D16423B2FBD7
:10628000F3F603FB162333B14FF4C873B2FBF3F6F6
:1062900003FB16220AB9022807D062791C2AE5D925
:1062A0000228E3D16171A57170BD60791D28F9D80C
:1062B00070BD0000140B00200A4800210222C160BA
:1062C000016141610C30042302724372817145F215
:1062D000910303804180591E8180827201460248E9
:1062E000FEF71CB954800020105001400A480021DC
:1062F0000222C160016141610C30042302724372C9
:10630000817145F29103038041805910818082722E
:1063100001460248FEF702B95480002010500140A7
:1063200008B50020009069460148FEF75DF908BDF8
:10633000105001400248017A0248FEF705BB0000F8
:1063400060800020105001400148FEF74DBB000066
:10635000105001400A46014601A0FBF751BB000066
:1063600057726F6E6720706172616D6574657273CC
:106370002076616C75653A2066696C65202573200E
:106380006F6E206C696E652025640D0A00000000A8
:1063900070B586B0002401250394144E04948DF842
:1063A0000C500094019402948DF810508DF80D500B
:1063B00003A93046FEF76AFC40F21920ADF806004A
:1063C00003208DF801008DF802408DF800408DF813
:1063D00003408DF804408DF8085069463046FEF7BA
:1063E0004FFB0420FBF7C0FE06B070BD005000401C
:1063F0001CB505208DF8000000248DF801408DF8B3
:10640000024001208DF803006846FAF769F901A9F6
:1064100002480194FEF70AFC1CBD00000050004039
:10642000F8B5104C0025012625606560A560009533
:106430000D4F8DF800608DF8015069463846FEF723
:1064400071FA2672042060720520A07140F2095092
:1064500020806580A580A57221463846FEF75EF84B
:10646000F8BD000054800020005001401CB51620EB
:106470008DF8000004208DF8010000248DF8024002
:1064800001208DF803006846FAF72AF901A90248AD
:106490000194FEF7A9F81CBD00500140084890F88F
:1064A000FE1100290BD0D0F80C1219B1D0F80C1243
:1064B000491E02E0002180F8FE11C0F80C1270475E
:1064C000740500200248017A0248FEF73DBA000038
:1064D0005480002000500140000000000000000037
:1064E00000000000000000000000000FF0000000AD
:1064F0000000003FFC0000000000007FFE000000E4
:10650000000000FFFF000000000001FFFF8000000E
:10651000000003FFFF800000000003FE7FC00000BA
:10652000000007F81FE00000000007F00FE0000087
:1065300000000FE00FF0000000000FE007F0000087
:1065400000001FC003F8000000001FC003F8000097
:1065500000003F8001FC000000007F8001FC000083
:1065600000007F0000FE00000000FF0000FF0000B0
:106570000000FE07E07F00000001FC0FF07F8000BC
:106580000001FC0FF03F80000003F81FF03FC00047
:106590000003F81FF81FC0000007F01FF80FE0000D
:1065A0000007F00FF00FE000000FE00FF007F00021
:1065B000001FE00FF007F000001FC007E003F80025
:1065C000003FC007E003FC00003F8007C001FC0063
:1065D000007F0003C001FE00007F0003C000FE003A
:1065E00000FE000180007F0000FE000180007F00AF
:1065F00001FC000180003F8003FC000000003F80A0
:1066000003F8000000001FC007F8000000001FE0B2
:1066100007F0000000000FE00FF00003C0000FF0D3
:106620000FE00007E00007F01FC0000FF00007F8C0
:106630001FC0000FF00003F83F80000FF00001FCC6
:106640003F80000FF00001FC3F000007E00000FC6D
:106650003F000003C00000FC7F000000000000FCC1
:106660007F000000000000FC7F000000000000FC34
:106670003F000000000000FC3F800000000001FC23
:106680003FC00000000003FC1FFFFFFFFFFFFFF8FB
:106690001FFFFFFFFFFFFFF80FFFFFFFFFFFFFF0F0
:1066A00007FFFFFFFFFFFFE003FFFFFFFFFFFFC04C
:1066B00001FFFFFFFFFFFF80003FFFFFFFFFFC0028
:1066C00000000000000000000000000000000000CA
:1066D000000000000000000000003FFC5FFA6FF6C1
:1066E000700E700E700E700E700E700E700E700EBA
:1066F000700E60064002000040026006700E700ED0
:10670000700E700E700E700E700E700E700E6FF6B2
:106710005FFA3FFC0000000000000020006000E085
:1067200000E000E000E000E000E000E000E000E069
:106730000060002000000020006000E000E000E0B9
:1067400000E000E000E000E000E000E000E00060C9
:10675000002000000000000000003FFC1FFA0FF6C0
:10676000000E000E000E000E000E000E000E000EB9
:10677000000E00061FFA3FFC5FF86000700070001A
:1067800070007000700070007000700070006FF892
:106790005FFC3FFE0000000000003FFC1FFA0FF608
:1067A000000E000E000E000E000E000E000E000E79
:1067B000000E00061FFA3FFC1FFA0006000E000E36
:1067C000000E000E000E000E000E000E000E0FF662
:1067D0001FFA3FFC00000000000040026006700E3F
:1067E000700E700E700E700E700E700E700E700EB9
:1067F000700E60065FFA3FFC1FFA0006000E000EE6
:10680000000E000E000E000E000E000E000E000E18
:10681000000600020000000000003FFC5FF86FF07F
:1068200070007000700070007000700070007000E8
:10683000700060005FF83FFC1FFA0006000E000EBB
:10684000000E000E000E000E000E000E000E0FF6E1
:106850001FFA3FFC0000000000003FFC5FF86FF0F3
:1068600070007000700070007000700070007000A8
:10687000700060005FF83FFC5FFA6006700E700EFB
:10688000700E700E700E700E700E700E700E6FF631
:106890005FFA3FFC0000000000003FFC1FFA0FF60B
:1068A000000E000E000E000E000E000E000E000E78
:1068B000000E00060002000000020006000E000E9E
:1068C000000E000E000E000E000E000E000E000660
:1068D000000200000000000000003FFC5FFA6FF6BD
:1068E000700E700E700E700E700E700E700E700EB8
:1068F000700E60065FFA3FFC5FFA6006700E700E65
:10690000700E700E700E700E700E700E700E6FF6B0
:106910005FFA3FFC0000000000003FFC5FFA6FF6EA
:10692000700E700E700E700E700E700E700E700E77
:10693000700E60065FFA3FFC1FFA0006000E000EA4
:10694000000E000E000E000E000E000E000E1FF6D0
:106950003FFA7FFC00000000000000000000000083
:106960000000000000000000000001C001E001E0A4
:1069700001E003E003F0037007300738073806181A
:106980000E1C0FFC0FFC1FFC1C0E1C0E380E3807D3
:106990003807380700000000000000000000000079
:1069A0000000000007E007E007E007E007E007E07D
:1069B00000000000000000000000000000000000D7
:1069C00007E007E007E007E007E007E0000000005D
:1069D00000000000000000000000700E381C1C3891
:1069E0000E7007E003C00FF00FF001803FFC3FFC8A
:1069F00001800180018003C0000000000000000051
:106A000000000000300030000000000000003000F6
:106A1000300000000000000000BE9812007B9A17B2
:106A20008098C61B0092FE1E686A00080080002045
:106A300054000000201A0008BC6A00080000002072
:106A4000D802000050040008BC6A000854800020EE
:106A500018000000301A0008606C0008D8020020FE
:106A6000285D0000301A000800000000000000004F
:106A70000000000000000000000000000000000016
:106A80000000000000000000000000000000000006
:106A90000133323031303630303230333030310043
:106AA00000000000000000000000000000000000E6
:106AB00000300040000000000000000001128225AC
:106AC00003110F272808C1814001C0804104690CCF
:106AD0002908E918A91C091A30091638093660096D
:106AE0002E70092F6000FF00C0C101C30302C2C69F
:106AF0000607C705C5C404CC0C0DCD0FCFCE0E0ABA
:106B0000CACB0BC90908C8D81819D91BDBDA1A1E59
:106B1000DEDF1FDD1D1CDC14D4D515D71716D6D229
:106B20001213D311D1D010F03031F133F3F23236E9
:106B3000F6F737F53534F43CFCFD3DFF3F3EFEFAF9
:106B40003A3BFB39F9F83828E8E929EB2B2AEAEE39
:106B50002E2FEF2DEDEC2CE42425E527E7E6262269
:106B6000E2E323E12120E0A06061A163A3A26266C9
:106B7000A6A767A56564A46CACAD6DAF6F6EAEAA39
:106B80006A6BAB69A9A86878B8B979BB7B7ABABED9
:106B90007E7FBF7DBDBC7CB47475B577B7B67672A9
:106BA000B2B373B17170B0509091519353529296A9
:106BB000565797559594549C5C5D9D5F9F9E5E5A79
:106BC0009A9B5B99595898884849894B8B8A4A4EB9
:106BD0008E8F4F8D4D4C8C448485458747468682E9
:106BE0004243834181809240601831362E302032FA
:106BF0003330373538343132332E34203939392E69
:106C000038281D30313A30303A3031B9FDD1B92110
:106C100020B9FDC1F72120C2A9B5E72120C7B712CD
:106C2000380EBCB1CDA32120CEB4B2E5C7B9FF0167
:106C30004808123456789ABCDE0D4CF87780092843
:106C400008FF54414957454910490A4F5A48554889
:106C500041490CD52140232423D60122E072700043
:0400000508000C756E
:00000001FF
