:020000040000FA
:10000000E8CEFF1FA1020000A9020000AB02000021
:10001000AD020000AF020000B102000000000000CD
:10002000000000000000000000000000B30200001B
:10003000B502000000000000B7020000B902000095
:10004000DD350000F13500000536000019360000EE
:100050002D3600004136000055360000693600009C
:100060007D36000091360000A5360000B93600004C
:10007000CD360000E1360000F536000009370000FB
:10008000FD1C0000BB020000BB0200002D1D000093
:10009000BB020000BB020000BB020000BB0200006C
:1000A000BB0200005D1D0000BB020000BB0200009F
:1000B000BB020000BB020000BB020000BB0200004C
:1000C000BB020000BB020000BB020000BB0200003C
:1000D000BB020000BB020000BB020000BB0200002C
:1000E000BB020000BB020000BB020000BB0200001C
:1000F000BB020000BB020000BB020000BB0200000C
:10010000BB020000BB020000BB020000BB020000FB
:10011000BB020000AD430000BB020000BB020000B8
:10012000BB020000BB020000BB020000BB020000DB
:10013000BB020000BB020000BB020000BB020000CB
:10014000BB020000BB020000BB020000BB020000BB
:10015000BB020000BB020000BB020000BB020000AB
:10016000BB020000BB020000BB020000BB0200009B
:10017000BB020000BB020000BB020000BB0200008B
:10018000BB020000BB020000BB020000BB0200007B
:10019000BB020000BB020000BB020000BB0200006B
:1001A000BB020000BB020000BB020000BB0200005B
:1001B000BB020000BB020000BB020000BB0200004B
:1001C000BB020000BB020000BB020000BB0200003B
:1001D000BB020000BB020000BB020000BB0200002B
:1001E000BB020000BB020000BB020000BB0200001B
:1001F000BB020000BB020000BB020000BB0200000B
:10020000BB020000BB020000BB020000BB020000FA
:10021000BB020000BB020000BB020000BB020000EA
:10022000BB020000BB020000BB020000BB020000DA
:10023000BB020000BB020000BB020000BB020000CA
:10024000BB020000BB020000BB020000BB020000BA
:10025000BB020000BB020000BB020000BB020000AA
:10026000BB020000BB020000BB020000BB0200009A
:10027000BB020000BB020000BB020000E50600005C
:10028000BB020000BB020000DFF810D000F0ECF968
:10029000004800476D4C0000AFF30080E8CEFF1F20
:1002A0000648804706480047FEE7FEE7FEE7FEE710
:1002B000FEE7FEE7FEE7FEE7FEE7FEE79942000005
:1002C000890200002DE9F05F0546002092469B461A
:1002D00088460646814640241BE02846414647465C
:1002E000224600F076F853465A46C01A914110D380
:1002F00011461846224600F016F82D1A67EB010841
:100300004F4622460120002100F00DF817EB0009AE
:100310004E41201EA4F10104DFDC484631462A4646
:100320004346BDE8F09F202A04DB203A00FA02F1A0
:10033000002070479140C2F1200320FA03F31943D3
:1003400090407047D2B201E000F8012B491EFBD269
:1003500070470022F6E710B513460A4604461946D0
:10036000FFF7F0FF204610BD0EB540F23341029179
:100370000021CDE900110A460B4600F026F903B032
:1003800000BD0EB540F2334202920022CDE90022B8
:10039000134600F01AF903B000BD01F0004330B479
:1003A00021F0004150EA010206D00A0DA2F5607268
:1003B000C1F31301002A02DC30BC00207047440F57
:1003C00044EAC104C100E01830BC00EBC25000F0A8
:1003D000B6B8202A04DB203A21FA02F00021704747
:1003E00021FA02F3D040C2F120029140084319469D
:1003F0007047084480F82020704770477047704766
:10040000BFFFDFFFFFFFFFFFFFFFFFFFFFFFEDFF6E
:10041000FFFFFFFFFFFFFFFFFFFFFFFFFFFFFFFFEC
:10042000FFFFFFFFFFFFFFFFFFFFFFFFFFFFFFFFDC
:10043000FFFFFFFFFFFFFFFFFFFFFFFFFFFFFFFFCC
:10044000FFFFFFFFFFFFFFFFFFFFFFFFFFFFFFFFBC
:10045000FFFFFFFFFFFFFFFFFFFFFFFFFFFFFFFFAC
:100460002DE9F04D81EA030404F0004B21F0004532
:1004700014464FF0000A23F0004150EA050220D054
:1004800054EA01021DD0C5F30A570246C5F313030F
:10049000C1F31300C1F30A5640F4801543F48013EE
:1004A000A7EB0608101BD64608F2FD3873EB0500D3
:1004B00002D308F1010801E092185B41B8F1000F86
:1004C00003DA00200146BDE8F08D00204FF48011D2
:1004D000064684460EE0171B73EB050705D3121B77
:1004E00063EB050306434CEA010C49084FEA300070
:1004F00092185B4150EA0107EDD152EA030012D095
:1005000082EA040083EA0501084305D0101BAB41D1
:1005100006D20122002306E000224FF0004302E051
:100520006FF0010253101AEB06004CEB085110EB70
:100530000A0041EB0B01BDE8F04D00F037B800298F
:10054000A8BF7047401C490008BF20F00100704759
:1005500010B4B0FA80FC00FA0CF050EA010404BFB9
:1005600010BC704749B1CCF1200421FA04F411FA0F
:100570000CF118BF012121430843A3EB0C01CB1D53
:100580004FEA00614FEA102042BF002010BC7047C4
:1005900000EBC35010440029A4BF10BC7047401C9E
:1005A000490008BF20F0010010BC704710B5141EB0
:1005B00073F1000408DA401C41F1000192185B411C
:1005C0001A4301D120F0010010BD2DE9F04D9246F3
:1005D0009B4611B1B1FA81F202E0B0FA80F220320A
:1005E0009046FFF7A0FE04460F4640EA0A0041EAA3
:1005F0000B0153465A46084313D0114653EA0100F3
:1006000019D0C8F140025046FFF7E3FE05460E46FA
:10061000504659464246FFF786FE084305D0012062
:1006200004E020463946BDE8F08D0020054346EA47
:10063000E0762C4337430A986305E40AA0EB0800F0
:100640000022FD0A44EA47540A3002D50020014640
:10065000E9E7010510196941DDE90845001969411B
:10066000BDE8F04DA2E70000064C074D06E0E0684B
:1006700040F0010394E8070098471034AC42F6D3E9
:10068000FFF706FE385300005853000070B58C1871
:1006900010F8015B15F0070301D110F8013B2A1196
:1006A00006D110F8012B03E010F8016B01F8016B83
:1006B0005B1EF9D12B0705D40023521E0DD401F87F
:1006C000013BFAE710F8013BCB1A921C03E013F848
:1006D000015B01F8015B521EF9D5A142D8D300207D
:1006E00070BD00002DE9F047854830F8505F854C1B
:1006F000A564428822658188E164C08820808248A0
:100700000088824B60641B886380814BB3F800C013
:10071000804EC4F854C041F69917336843F6F9285F
:100720007B4347F23337784303EB400003143360D5
:10073000794E4AF2D9006843356842F693777D4393
:1007400000EB4500051441F21B40414373483560FE
:10075000076807FB08F701EB87010914016041F204
:100760001B4042436E48076807FB08F702EB87020D
:100770001214026041F21B400CFB00F2694847462C
:10078000D0F800C00CFB07FC02EB8C0212140260D4
:10079000606FA26F584302EBE020634A1060E06F85
:1007A000D4F88020684312EBE020604A4FF0000547
:1007B00010607CD4D4F884004843D4F8881001EB4E
:1007C000E0205B49086040F23D314843594901EB64
:1007D00040005949001450280860A4BF5020086008
:1007E00003DA4428D8BF4420086002F0FBFF3068D9
:1007F000A065524840F28243D0F800C050484FEA0A
:100800006C01C4F8D01002684E48C4F8BC20C4F88B
:10081000C0200360C4F8C4504B48C4E93253066892
:10082000C4F8DC60D4F8B8000F184848C4F8E07089
:10083000006806EB0008C4F8D480884559D83844CD
:10084000ACF18008C4F8D800404555D84048D0F8ED
:10085000B8834FF02B0939EA080840D1D0F8B883A3
:1008600028F02B08C0F8B883C0F844C0C0F888103E
:10087000DFF8E0C0CCF80010DFF8DCC0CCF80010E6
:10088000DFF8D8C0D4F8D410CCF800100CF1040C68
:10089000D4F8D810CCF8001031490E60091D0F6053
:1008A000C0F8B822C0F8C022C0F8C85200E01DE06D
:1008B000C0F8D052C0F8D8322A4AD4F8A810116033
:1008C000121DD4F8B0101160274AD4F8AC10116092
:1008D000121DD4F8B41011602449C0F8B413D4F830
:1008E0009000401CC4F89000BDE8F0870F480560F8
:1008F00060E7C4F8D410A2E7C4F8D880A6E70000E7
:100900000000044008C0FF1F580404405C04044079
:100910005A0404407CC1FF1F90C1FF1FD4C1FF1FB8
:10092000D8C1FF1FDCC1FF1F94C1FF1F98C1FF1F6B
:10093000E0C1FF1F8D57D5FF78C2FF1FC0C1FF1F49
:10094000C4C1FF1FC8C1FF1FCCC1FF1FD0C1FF1F03
:1009500000C0034088C4034088D4034088CC0340CF
:1009600098CC034008C5034008D503402B0000C0C5
:1009700000EB81000121914050F80C2F012B0CBF9E
:10098000114322EA0101016070478B0800EB43002C
:100990008907038F090F4FF00F0C0CFA01FC02F0CE
:1009A0000F0223EA0C0302FA01F119430187704791
:1009B00002466FF00200002908BF704708884B8884
:1009C000898818430843508000207047012A90F816
:1009D00045200CBF114322EA010180F84510704701
:1009E0006FF0020118B1002101804180818008462A
:1009F0007047C900802303FA01F1012A42890CBF24
:100A0000114322EA0101418170474389C9004FF037
:100A1000030C0CFA01FC02F0030223EA0C0302FAB5
:100A200001F119434181704770B582B0012107205F
:100A300001F0CCF90121480401F0B0F96846FFF754
:100A4000CFFF00205C4CADF8000069462046FFF760
:100A5000AFFF5A4D69462846FFF7AAFF584E694630
:100A60003046FFF7A5FF032200212046FFF78DFF48
:100A70000D2201212046FFF788FF0F220221204688
:100A8000FFF783FF0A2203212046FFF77EFF09229A
:100A900004212846FFF779FF0C2205212846FFF79D
:100AA00074FF0B2206212846FFF76FFF0022012367
:100AB00011462046FFF75CFF01231A46002120461D
:100AC000FFF756FF0123022200212046FFF750FFC7
:100AD0000123032200212046FFF74AFF01230422BD
:100AE00000212846FFF744FF012305220021284664
:100AF000FFF73EFF0123062200212846FFF738FFBB
:100B00000B2200212046FFF774FC0B220121204616
:100B1000FFF76FFC0B2202212046FFF76AFC0B2235
:100B200003212046FFF765FC0B2204212846FFF72E
:100B300060FC0B2205212846FFF75BFC0B220621F7
:100B40002846FFF756FC012200212046FFF75DFFF3
:100B5000012200212846FFF758FF012200213046DC
:100B6000FFF753FF6121174800F034F86121164860
:100B700000F030F8012211462046FFF727FF134A04
:100B80004FF40041C2F88012114B402083F800045A
:100B90008432D167012200212046FFF72AFF01227B
:100BA00000212846FFF725FF012200213046FFF7EC
:100BB00020FF02B070BD00000000044000040440AB
:100BC00000080440680801407008014010E000E09F
:100BD0008FE000E0026861F30802026070470000E5
:100BE00010B584B02649274800F0D8F80122032127
:100BF000052001F0F7F8684600F0AAF900248DF806
:100C0000024030208DF801008DF8004005208DF85D
:100C10000300684600F080F902A800F0A5F88DF8FE
:100C200008406FF3102404F1405000F56C5020F0A0
:100C3000706000F1407020F4700000F5401020F06A
:100C40008000039002A800F071F8022000F07CFE02
:100C50004FF4005001F092F9052000F0E3F8012074
:100C600000F080FD002000F07DFD012000F0A0FDDF
:100C7000012000F07DFD012000F094FD04B010BDC6
:100C8000101101007777070718B4020026494FF0CA
:100C900000004FF001031AD0D1F800014FF000031B
:100CA00010F0800F0CBF082201224FF4805C6FF01F
:100CB0000700009317D000BF91F83C4014421DD1AB
:100CC000009C641C00946445F6D918BC704791F8E8
:100CD000262002F00702052A14BF81F82A306FF09F
:100CE000050018BC704791F83C40144206D1009CA6
:100CF000641C00946445F6D918BC704781F82A300A
:100D000020224FF4805C6FF00700009391F83C3094
:100D1000134202D018BC00207047009B5B1C00935C
:100D20006345F3D918BC704700400540002804BF54
:100D30006FF0020070470B49D1F80021037922F0CF
:100D40008002C3F3C01342EAC312C1F80021426813
:100D5000C1F80021007810B10020FFF795BF0120F5
:100D6000FFF792BF004005400021002808BF6FF048
:100D7000020111D000226FF3102202F1805202F51D
:100D8000985222F0706202F1807222F4700202F531
:100D90008012426001220270084670472DE9F0413E
:100DA0001D4C054684B020680E464FF000080090A8
:100DB00060680190A0680290E068184F039097F86F
:100DC000260000F0070005280AD115484FF0010859
:100DD0002060C0126060A060E0601E2000F094FB04
:100DE000386A06EA0501A843084338621E2000F06D
:100DF0008BFBB8F1000F0AD000982060019860606A
:100E00000298A0600398E0601E2000F07DFB04B013
:100E1000BDE8F04103F0F2B9008004400040054015
:100E20000EFAFFFFF0B51C4C054685B02068002681
:100E3000009060680190A0680290E068174F0390EE
:100E400097F8260000F00700052818BF052D0CD1E3
:100E500013484FF0010620604FF0FF306060A06043
:100E6000E0604FF01E0000F04FFB87F826501E2078
:100E700000F04AFB56B1009820600198606002982B
:100E8000A0600398E0601E2000F03EFB05B0BDE8C6
:100E9000F04003F0B3B9000000800440004005407A
:100EA0000EFAFFFF03001B4A81B04FF000004FF025
:100EB00001010DD082F8320008214B020090484217
:100EC00092F83CC01CEA010F19D0002001B0704715
:100ED00092F8263003F00703032B0CD0D2F8003130
:100EE00013F0800F07BF92F82A30002B82F83210DF
:100EF00001B018BF70476FF0050001B07047DDF812
:100F000000C00CF1010CCDF800C09C45D8D901B04F
:100F10007047000000400540002804BF6FF0020049
:100F20007047C178084A82F8A2104178827811434C
:100F3000064A41F080011170007810B10020FFF7DF
:100F4000B1BF0120FFF7AEBF0040054050CC0440C8
:100F50000021002808BF6FF0020106D001220270B4
:100F60000022827042700522C27008467047012933
:100F700081780CBF41F0010101F0FE0181707047E2
:100F800070B41E4982B0096A1D4AC1F30261126839
:100F900022FA01F11B4AB0F1010CB1FBF2F33EBFA2
:100FA00002B070BC704703F001045D1E5E1C00932C
:100FB0001800019314D0B0F1004F1AD20028D8BF06
:100FC000002002DD200018BF00953146401C8842F9
:100FD00006DA009A801C521E521E00928842F8DBEC
:100FE0000098401E0090BCF1010CE0D202B070BC31
:100FF00070470098401E0090FCD1F1E7004005408A
:1010000000C0FF1F8096980070B504460D006FF079
:10101000020008BF70BD207800F0FE002070286834
:101020004FEA304060602078A97A00F0F100C1F307
:10103000420140EA410020700120FFF7A1FF207823
:1010400040F0010020700120FFF79AFF287AA9796B
:10105000084360702879A070002070BD0129817854
:101060000CBF41F0040101F0FB01817070476FF08B
:10107000020130B10021018041808180C180018165
:10108000418108467047000008B5002100914FF4E7
:10109000F8300422694600F0D7FB0098B0F1FF3F1A
:1010A0001CBF1D4908601D480422694600F0CCFBA6
:1010B0000098B0F1FF3F1CBF19490860194804228D
:1010C000694600F0C1FB0098B0F1FF3F1CBF164914
:1010D000086016480422694600F0B6FB0098B0F19B
:1010E000FF3F1CBF1249086012480422694600F005
:1010F000ABFB0098B0F1FF3F1CBF0F4908600F48E1
:101100000422694600F0A0FB0098B0F1FF3F1CBF2D
:101110000B49086008BD00007CC0FF1F04F00100FF
:1011200080C0FF1F08F0010084C0FF1F0CF0010009
:1011300088C0FF1F10F001008CC0FF1F14F00100D9
:1011400090C0FF1F10B5012000F018FB01211F20E7
:1011500000F028FC4FF4F834204600F0ADFB1048B6
:101160000168204600F02AFB0E49201D096800F0A6
:1011700025FB0E490C48096800F020FB0D490C487E
:10118000096800F01BFB0D490B48096800F016FBCD
:101190000C490B480968BDE8104000F00FBB000087
:1011A0007CC0FF1F80C0FF1F08F0010084C0FF1F2C
:1011B0000CF0010088C0FF1F10F001008CC0FF1F61
:1011C00014F0010090C0FF1F10B520227F211B48A2
:1011D000FFF7B8F81A49012045F2B653C86000205D
:1011E00048220A6008616FF03F02C1E901204861AE
:1011F0008861C86188620862124A4862C1E90C23AA
:1012000011494FF4806CC1E903C040F6992CC1F834
:1012100000C0DFF838C0C1E901C048618861C86119
:10122000886208624862C1E90C23094908600949DB
:101230000860094908600949086010BDFDC0FF1F2A
:1012400078C2FF1F00770100B0C2FF1F9AF6FFFFB0
:10125000F4C1FF1FB8C1FF1FBCC1FF1FC0C1FF1FEA
:1012600010B5012184B0080300F0A4FD684603F026
:101270005FF8002000900190029040F25720074C48
:10128000ADF80C006A460121204603F015F8012153
:10129000204603F043F804B010BD000000400240B7
:1012A0000129C1880CBF41F40041C1F30E01C18086
:1012B0007047012AC2880CBF114322EA0101C18094
:1012C0007047828801F4807122F48072114381801A
:1012D000704700001B4A86B04FF0000CD2E90012A4
:1012E000CDE900128DF808C061466A4652F82130F7
:1012F000834219D1102000FA01F2022918D21249B2
:10130000086890430860086832EA000012D000BF05
:101310009DF80800401C8DF808009DF8080064281E
:101320000BD96FF0070C05E0491CC9B20229DDD3C7
:101330006FF0020C604606B07047086832EA0000A1
:10134000E6D1F7E7CC510000ECCC04406FF002038B
:10135000BAB18388B2F800C023F480730CF4807CA7
:1013600043EA0C038380927801230E3103FA01F1E2
:10137000012A828B89B20CBF22EA010111438183C9
:1013800000231846704701230E3103FA01F1012AA8
:10139000828B89B20CBF22EA01011143818370471D
:1013A000838820F811207047838841EA0241016058
:1013B00070478388002213F0010F18BF6FF00302FB
:1013C00006D10123491C03FA01F183881943818066
:1013D00010467047818841F00101818070476FF0AD
:1013E000020120B100210180012181700021084605
:1013F0007047000038B50121102000F0E7FC012102
:10140000202000F0E3FC2D4C2046FFF763FF2C4D1D
:101410002846FFF75FFF6846FFF7E1FF6A460021B5
:101420002046FFF793FF6A4601212046FFF78EFF13
:101430006A4600212846FFF789FF00212046FFF772
:1014400040FF00212846FFF73CFF012207212046EC
:10145000FFF72FFF012207212846FFF72AFF01216E
:101460002046FFF71DFF01212846FFF719FF40F630
:10147000C53240F61F412046FFF796FF40F68472C2
:1014800000212846FFF78CFF002211462046FFF777
:101490007AFF002201212046FFF775FF0022114646
:1014A0002846FFF770FF2046FFF794FF00212846EB
:1014B000FFF77FFF642000F027F838BD00100440DC
:1014C0000014044081B00E49096A0E4BC1F3026159
:1014D0001B6823FA01F142F210731944491EB1FB53
:1014E000F3F206E0009200BF00994B1E0093002922
:1014F000FAD1011EA0F10100F4D101B07047000043
:101500000040054000C0FF1F81B00D49096A0D4B26
:10151000C1F302611B6823FA01F10B4B1944491E08
:10152000B1FBF3F206E0009200BF00994B1E00935E
:101530000029FAD1011EA0F10100F4D101B07047D9
:101540000040054000C0FF1F80969800012303FA69
:1015500001F1C9B2012A0CBFC1614163002070478B
:101560008161704701607047F0B501218BB088033D
:1015700000F014FC0121880300F010FC0121480454
:1015800000F00CFC684600F0DAF800242F4802A9AD
:1015900001252D26009481E871002D48019004203A
:1015A000CDE906402B4F6A462146384600F063F8E5
:1015B00008A800F0ABF82020CDE9080408AA002113
:1015C0000A96384600F083F84FF4B1712248FFF7CD
:1015D00001FB01213846FFF7C5FF012200213846F3
:1015E000FFF7B4FF684600F0AAF81C4802A980265D
:1015F000009481E871001A480190CDE906546A46CA
:101600000121384600F037F840F263111548FFF722
:10161000E1FA01213846FFF7A5FF012211463846BD
:10162000FFF794FF08A800F071F81020CDE9080634
:1016300008AA01210A94384600F049F801220C2139
:10164000094802F0F7FF0BB0F0BD000038C2FF1FE1
:1016500006D00140003005400408014004D001409C
:10166000FCC0FF1F0808014000D00140806808400E
:1016700018BF0120704703460020002A04BF6FF006
:101680000200704703EB8111D2F804C0C1F840C0DA
:1016900093684B64138AB2F814C0C3F3090343EA96
:1016A0000C438B64D2F80CC0136843EA0C03D2E9F4
:1016B00006C24CEA02021A4341F20F331A40CB6DC4
:1016C00023F00F0323F498531A43CA657047034667
:1016D00010B40020002A02BF6FF0020010BC704757
:1016E00003EB8113D3F85CC014782CF0300C04F0B9
:1016F00030044CEA040CC3F85CC05168128941EA1A
:10170000024121F0FC21D96410BC7047002100285F
:1017100008BF6FF0020103D00022026042608260C5
:101720000846704700EB811002640020704700EB10
:101730008110816CC1EA024181640020704700225F
:10174000002808BF6FF0020209D00021016041604B
:1017500001238160C0E9031341618161C1611046C9
:10176000704700000149C1F84C03704700802042D7
:101770000149C1F84403704700802042012801BF9D
:10178000054906480160C9431EBF0548016841F488
:101790008031016070470000674523010404014067
:1017A0001C0401400149C1F84003704700802042F9
:1017B0000149C1F848037047008020422DE9F041FB
:1017C000DFF8748040F23F120026C8F800201B4C5E
:1017D000226802F47027226822F470222260251DFC
:1017E0002A6822F0070242F001022A6001601448D0
:1017F000006A1449C0F30260096821FA00F044F657
:101800002061B0FBF1F1A01500F0E0F810F1080F35
:1018100008BF6FF004061020C8F80000286820F008
:1018200007002860206807F4702120F47020084326
:1018300020603046BDE8F0812404014018040140D6
:101840000040054000C0FF1F70B505460E006FF058
:101850000200144608BF70BD1548006A1549C0F360
:101860000260096821FA00F044F62061B0FBF1F152
:101870004FF4807000F0AAF800281CBF6FF004003D
:1018800070BD64B1B4F1004F0BD20120012C06DB16
:1018900015F8011B401C06F8011B8442F8DA0020F1
:1018A00070BD15F8010B06F8010B641EF9D1F6E7BF
:1018B0000040054000C0FF1F2DE9F041DFF87480B3
:1018C00040F23F110026C8F800101B4C216801F4BB
:1018D0007027216821F470212160251D296821F0DD
:1018E000070141F00401296006601448006A1449A8
:1018F000C0F30260096821FA00F01249A1FB001050
:101900000109A01500F062F810F1080F08BF6FF090
:1019100004061020C8F80000286820F0070028609E
:10192000206807F4702120F47020084320603046BE
:10193000BDE8F08124040140180401400040054046
:1019400000C0FF1F1F85EB5130B4134C00212268EB
:1019500060F303022260226802F00F02824217D075
:101960000F4A0E4B44F6206C12681D6AC5F30265DF
:1019700022FA05F5B5FBFCF5491C8D4203D230BCBB
:101980006FF007007047256805F00F058542ECD120
:1019900030BC0020704700001804014000400540A2
:1019A00000C0FF1F084A00F01F0013684FF0010C31
:1019B0000CFA00FC01F0010123EA0C0301FA00F02B
:1019C00018431060704700009005014081B000226C
:1019D000DFF830C013460092DCF8002030EA020243
:1019E0000CD0009A521C00928A4202D96FF0070371
:1019F00004E0DCF8002030EA0202F2D1184601B01F
:101A00007047000020040140016170472DE9F0019A
:101A10006FF0020200297CD08B6E0A6ED1F878C07C
:101A20001A430B6FCC6F43EA0C031A43D1F8803092
:101A3000D1F86CC01A43D1F8883013434A6E42EA99
:101A40000C02D1F874C04CEA040C42EA0C02D1F842
:101A500084C042EA0C02D1F88CC042EA0C02D1E9FF
:101A600000C44CEA040C8C6823434CEA0303D1E91C
:101A700003C44CEA040CD1E907452C434CEA040C9E
:101A8000CC6A4CEA040C0C6B4CEA040CCC6B4CEAB0
:101A9000040C0C6C4CEA040CCC6C4CEA040C0C6D81
:101AA0004CEA040C4CEA0307D1E9053C43EA0C0379
:101AB000D1E909C44CEA040C43EA0C03D1F834C060
:101AC00043EA0C03D1F838C043EA0C03D1F844C010
:101AD00043EA0C03D1F848C043EA0C03D1F854C0E0
:101AE00043EA0C03D1F858C043EA0C03D1F85CC0B8
:101AF00043EA0C03D1E9244C43EA0205D1E9262349
:101B000044EA0C0643EA020846EA0808D1F8A06055
:101B100000E012E048EA06013943002C08BF002A21
:101B200005D1BCF1000F04BF002B002E01D041F005
:101B30001001456001604FF00002BDE8F001104661
:101B400070476FF00201002832D00021016041602F
:101B50008160C160016141618161C1610162416275
:101B60008162C162016341638163C1630164416455
:101B70008164C164016541658165C1654166016635
:101B8000C166816641670167C1678167C0F88410DB
:101B9000C0F88010C0F88C10C0F88810C0F8901001
:101BA000C0F89410C0F89810C0F89C10C0F8A010AD
:101BB000084670472DE9F0470121AAB0C80300F09C
:101BC000F9F86846FFF7BDFF4FF480250024049420
:101BD000CDE905454FF40038EF00CDF81C8008949E
:101BE000CDE9094768021094CDE911400012AE100A
:101BF0000F904FF004090120DFF8E8A0CDE902962C
:101C0000009069465046FFF701FF6846FFF799FFCD
:101C100003960494CDE90545CDF81C800894CDE9E0
:101C20000947A8010B950C94CDE90D400220CDE9A0
:101C300001092D4C69462046FFF7E8FE0022A11558
:101C4000504600F053F800226115504600F04EF85F
:101C50000022E114504600F049F8002204215046C9
:101C600000F044F80022A115204600F03FF80022C1
:101C70006115204600F03AF800222115204600F0B8
:101C800035F800220421204600F030F8A115504616
:101C9000FFF7BAFE61155046FFF7B6FEE114504655
:101CA000FFF7B2FEA9015046FFF7AEFE29025046EB
:101CB000FFF7AAFEA1152046FFF7A6FE61152046F4
:101CC000FFF7A2FE21152046FFF79EFEE901204600
:101CD000FFF79AFE29022046FFF796FE2AB0BDE8DC
:101CE000F08700000086034020860340002A8269B6
:101CF0000CBF22EA010111438161704710B50A4C03
:101D00000A20FFF7DFFB0121022000F0EDF828B1E7
:101D1000012000F03DF8FEF771FB10BD206840F097
:101D200002002060ECE70000F8C0FF1F10B50A4C6D
:101D30000A20FFF7C7FB0821022000F0D5F828B1E0
:101D4000082000F025F8FEF758FB10BD206840F091
:101D500001002060ECE70000F8C0FF1F10B50B4C3D
:101D60000A20FFF7AFFB4FF40071012000F0BCF830
:101D700030B14FF4007000F00BF8FEF740FB10BDDF
:101D8000206840F004002060EAE70000F8C0FF1F70
:101D9000014988657047000000100540044A012988
:101DA00011680CBF21EA0000084310607047000072
:101DB00000800440044A012991680CBF21EA000018
:101DC000084390607047000000800440044A0129E5
:101DD000D1680CBF21EA00000843D06070470000C2
:101DE0000080044030B40E4C00234FEA801C00BF3A
:101DF00011F0010F0AD00CEB83002044012A058862
:101E00000CBF45F40045C5F30E050580490804BF25
:101E100030BC7047581CC3B2102BE9D330BC70479C
:101E2000003C0540044A012911680CBF084321EA1F
:101E30000000106070470000F03B05402DE9F00104
:101E400084460020002A02BF6FF00200BDE8F001C6
:101E5000704700234FF2F7654FEA8C16214F00BF01
:101E600011F0010F32D0B2F800C05488B2F80680E9
:101E70004CEA040C948844EA08044CEA040C5489A3
:101E8000B2F80E804CEA040C148A4CEA040C548A12
:101E90004CEA040C14894CEA040CD48A44EA0C0C75
:101EA000948944EA080444EA0C0C948A44EA0C0439
:101EB00006EB830CBC44BCF800802C4028F0F708EB
:101EC00028F4764848EA0404ACF80040490804BF06
:101ED000BDE8F00170475B1CDBB2102BC0D3BDE83E
:101EE000F0017047003C0540000100F1804000F522
:101EF000A620B0F80008084018BF01207047000075
:101F0000034A02EB00100288114301807047000071
:101F10000A380540054A012900F01F0011880CBF4E
:101F2000084321EA0000108070470000F43B0540A0
:101F300030B40C4C00234FEA801C00BF11F0010F9D
:101F400006D00CEB83002044058862F3050505806C
:101F5000490804BF30BC7047581CC3B2102BEDD3E6
:101F600030BC7047023C0540034A02EB0010028877
:101F700011430180704700000838054004490A8871
:101F800000F4E04022F4E042104308807047000073
:101F9000F83B05400022002808BF6FF002020CD079
:101FA000002101804180C180C1828181C181018184
:101FB0004181018241828180818210467047000008
:101FC000034A02EB001002881143018070470000B1
:101FD0000C38054010B586B06846FFF7DBFF0024DB
:101FE000ADF816400220ADF80040ADF80200C10285
:101FF0006A462046FFF722FF6A464FF4006102203E
:10200000FFF71CFF0120ADF800006A4620210020E8
:10201000FFF714FF6A464FF480610120FFF70EFFBF
:10202000ADF800406A464FF480410220FFF706FFFA
:102030004FF40044ADF816406A4601210220FFF734
:10204000FDFE02216A460846FFF7F8FE6A460421B3
:102050000220FFF7F3FE6A4608210220FFF7EEFE9A
:102060006A4620210220FFF7E9FE6A46022101208C
:10207000FFF7E4FE6A4621110120FFF7DFFE6A4602
:1020800008210020FFF7DAFE6846FFF783FFADF86E
:1020900016406A4680210020FFF7D0FE6A460421E0
:1020A0000020FFF7CBFE022201210020FFF740FFB6
:1020B00001216A460846FFF7C1FE6A462111012048
:1020C000FFF7BCFE01210846FFF7ACFE012102200C
:1020D000FFF7A8FE01210420FFF7A4FE012108203C
:1020E000FFF7A0FE01211020FFF79CFE0121202018
:1020F000FFF798FE01214020FFF794FE0121802088
:10210000FFF790FE01210802FFF78CFE0121480233
:10211000FFF788FE01218802FFF784FE0121C80233
:10212000FFF780FE00210820FFF7F4FE252221465C
:102130000020FFF7FDFE242261110220FFF7F8FEC8
:10214000112202210020FFF7F3FE112201210020BD
:10215000FFF7EEFE052280210120FFF7E9FE0522B0
:1021600008211046FFF7E4FE0522E1110120FFF7E8
:10217000DFFE0522A1110120FFF7DAFE06B010BD37
:102180006FF0020118B10021016001714171084630
:1021900070470000234881B0006A2349C0F3026001
:1021A000224B096821FA00F04FF47A71B0FBF1F08C
:1021B0000090D3F8FC12002021F0010141F440719D
:1021C000C3F8FC12D3F8FC1221F0020141F4407173
:1021D000C3F8FC12D3F8FC1221F44071C3F8FC12CE
:1021E000D3F8FC1240F201321143C3F8FC12D3F8C9
:1021F000FC1211F4807F0CD100994A1E009203D288
:102200006FF0070001B07047D3F8FC1211F4807F23
:10221000F2D0D3F8FC1211F4007F18BF4FF0FF305A
:1022200001B070470040054000C0FF1F00C00340E0
:102230000021C0F8401101604160464A02644264D6
:10224000C0F88020C0F88420C0F88820C0F88C2016
:10225000C0F89020C0F89420C0F89820C0F89C20C6
:10226000C0F8C020C0F8C420C0F8C820C0F8CC20F6
:10227000C0F80021C0F80421C0F80821C0F80C21E2
:10228000C0F84411C0F84811C0F84C11C0F85411FE
:10229000C0F85811C0F860115206C0F86421C0F8A7
:1022A0006811C0F88011C0F88811C0F89011C0F80A
:1022B0009411C0F89811C0F89C11C0F80012264A79
:1022C000C0F80422C0F80822C0F81012C0F8181292
:1022D0004FF48003C0F82032C0F82432C0F828320E
:1022E000C0F82C32C0F83012C0F83412C0F83822CE
:1022F000C0F83C22C0F84012C0F84412C0F848129E
:10230000C0F84C12C0F85012C0F85422C0F858223D
:10231000C0F85C22C0F86022C0F86412C0F86812ED
:10232000C0F8A012C0F8A4120C49C0F8B412C0F84A
:10233000B812C0F8BC12C0F8C012C0F8C412C0F87D
:10234000C812C0F8CC12C0F8D012C0F8D412C0F82D
:10235000D8127047C0FF3F00AAAA0A00C0FF7F0042
:102360006FF00202D9B191F800C0D0F84C316CF393
:102370008713C0F84C31A0F18042B2F570320DD015
:102380000A794979120742EA4151D0F8002201F056
:10239000815122F081521143C0F8001200221046F0
:1023A00070476FF0020271B10A780B79097A1A430B
:1023B0001143D0F84C2101F0320122F032021143D6
:1023C000C0F84C110022104670476FF0020118B19E
:1023D0000021016041608160084670476FF0020291
:1023E00071B1D1E9002389681A431143D0F854210F
:1023F00001F0FE6122F0FE621143C0F85411002288
:10240000104670476FF0020271B1D1E9002389686C
:102410001A431143D0F8582101F0FE6122F0FE6208
:102420001143C0F858110022104670476FF00201A6
:1024300018B10021016041608160084670476FF06B
:102440000202D9B191F800C0D0F848316CF383038F
:10245000C0F84831A0F18042B2F570320DD00A794F
:102460004979D20542EA0141D0F8002201F4010184
:1024700022F401021143C0F80012002210467047F6
:102480006FF00202D9B191F800C0D0F848316CF376
:102490008713C0F84831A0F18042B2F570320DD0F8
:1024A0000A794979120642EA4141D0F8002201F046
:1024B000817122F081721143C0F80012002210468F
:1024C000704700006FF0020108B3D0E90012114319
:1024D000436982681A4311430E4A41F440310A406D
:1024E0000D49D1F8BC33DFF834C003EA0C031A43BA
:1024F000C1F8BC23C268C1F8C8230269C1F8D0235F
:102500008269C1F8C023C069C1F8C403002108462C
:1025100070470000FE03230000C0034001FCDCFF05
:1025200003B46FF00200002904BF02B07047D1E984
:1025300000021043D1E902231A4310430A691043F1
:10254000144A02400098D0F84032DFF84CC003EA49
:102550000C031A43C0F8402210484A6901150DF5D2
:1025600080439B0A9940002AD0F8BC2307D041F44D
:1025700040311143C0F8BC13002002B070474FF443
:102580007F3322F47F3223EA01011143C0F8BC13E8
:10259000F2E7000005000502FAFFFAFD00C0034063
:1025A0006FF0020130B10021016041608160C160C3
:1025B00001614161084670476FF0020140B100219E
:1025C000016041608160C16001614161C0E9061143
:1025D000084670476FF00202D1B18B680A681A434F
:1025E000CB681A430B4B1A40D0F84032DFF828C0B2
:1025F00003EA0C031A43C0F84022D0F84422898829
:1026000022F4C06201F4C0611143C0F844120022F8
:1026100010467047080E0800F7F1F7FF6FF002014F
:1026200020B10021016041608160C16008467047AF
:102630006FF0020239B14A6802640A68896811437E
:10264000C0F840110022104670476FF0020291B1AD
:10265000D1E901231A430B6842EA4302C0F8A422DD
:10266000D0F84422097B22F0200201F0200111431E
:10267000C0F844120022104670476FF0020120B1EA
:102680000021016041608160C160084670476FF0C1
:10269000020200293BD00A68C0F88020D1E901235A
:1026A0001A43D1E9033C43EA0C031A434B691A432A
:1026B0008B691A43CB691A430B6A1A43D0F8543119
:1026C000C2EA0302C0F85421CB6A4A6AD1F83CC07E
:1026D0001A434B6B43EA0C031A43D0F8043202F05E
:1026E0007F6223F07F631A43C0F804220B6B8A6A6F
:1026F0001A438B6B096C19431143D0F8382201F04F
:102700007F6122F07F621143C0F838120022104628
:1027100070476FF0020200293BD00A68C0F884209D
:10272000D1E901231A43D1E9033C43EA0C031A43DC
:102730004B691A438B691A43CB691A430B6A1A43D4
:10274000D0F85831C2EA0302C0F85821CB6A4A6A6D
:10275000D1F83CC01A434B6B43EA0C031A43D0F840
:10276000083202F07F6223F07F631A43C0F8082228
:102770000B6B8A6A1A438B6B096C19431143D0F8AF
:102780003C2201F07F6122F07F621143C0F83C12CD
:1027900000221046704700006FF0020190B10A4914
:1027A0000160002141608160C1600161416181611E
:1027B000C161016241628162C162016341638163FF
:1027C000C163016408467047C0FF3F006FF002021A
:1027D000D9B191F800C0D0F848316CF38B23C0F820
:1027E0004831A0F18042B2F570320DD00A794979B2
:1027F000520642EA8141D0F8002201F0017122F034
:1028000001721143C0F800120022104670476FF0A9
:102810000202D9B191F800C0D0F848316CF393436B
:10282000C0F84831A0F18042B2F570320DD00A797B
:102830004979920642EAC141D0F8002201F0816153
:1028400022F081621143C0F8001200221046704746
:102850006FF00202D9B191F800C0D0F848316CF3A2
:102860009753C0F84831A0F18042B2F570320DD0D4
:102870000A794979D20642EA0151D0F8002201F0E2
:10288000016122F001621143C0F8001200221046DB
:10289000704700006FF0020128B1002101608160E3
:1028A000024941600021084670470000C0FF3F0018
:1028B00070B58EB006A8FFF77FFE4FF4001000251C
:1028C000CDE906050220CDE90A50CDE90C551926BF
:1028D000099606A8FFF7F6FD224CD4F8BC0340F495
:1028E0009810C4F8BC03D4F8BC0340F43020C4F8FA
:1028F000BC036846FFF754FE042002900004CDE9B3
:1029000003050120009000040190694605952046CA
:10291000FFF706FE69461448FFF702FE69461348B2
:10292000FFF7FEFD69461248FFF7FAFD69461148B8
:10293000FFF7F6FD69461048FFF7F2FDC4F8C863DB
:10294000C4F8CC630D20C4F8D003C4F8D403D4F881
:10295000BC0340F0010040F44030C4F8BC030EB0AA
:1029600070BD000000C0034000C4034000C8034025
:1029700000CC034000D0034000D403402DE9F04FC9
:10298000A1B001214FF47C70FFF714FAFE4C2046F1
:10299000FFF74EFCFD48FFF74BFCFD48FFF748FCF6
:1029A000FC48FFF745FCFC4F3846FFF741FCFB486D
:1029B000FFF73EFCFFF7EEFBD4F8A00240F0080062
:1029C000C4F8A002F148D0F8A00240F00801EF4896
:1029D000C0F8A012EE48D0F8A00240F00801EC4880
:1029E000C0F8A012EB48D0F8A00240F00801E94876
:1029F000C0F8A012D7F8A00240F00800C7F8A00263
:102A0000E648D0F8A00240F00801E448C0F8A0125F
:102A10001BA8FFF73FFF00264FF4F048CDE91B68E5
:102A20001BA920461D96FFF703FE1BA9D748FFF7F9
:102A3000FFFD1BA9D648FFF7FBFD1BA9D548FFF7F3
:102A4000F7FD1BA93846FFF7F3FD1BA9D348FFF795
:102A5000EFFD6846FFF7A0FE4020CDE90406019691
:102A600040010690029680004FF020090790CDF8B3
:102A70000C9080004FF4001BCDE9080B0002CDE95B
:102A80000AB085004FF0006ACDE90C05CDE90E5A79
:102A900069462046CDF840A0FFF7F9FD6946BF48DA
:102AA000FFF7F5FDA015CDE904600196C000069082
:102AB000029680000790CDF80C908000CDE9080BBD
:102AC0000002CDE90AB0CDE90C05CDE90E5A694600
:102AD000AE48CDF840A0FFF7DAFD69463846FFF76B
:102AE000D6FD8020CDE904060196000106900296ED
:102AF00080000790CDF80C90800008904001CDE94F
:102B0000090BC000CDE90C050B90CDE90E5A6946C2
:102B1000A048CDF840A0FFF7BAFD69469C48FFF7F2
:102B2000F8FD6015CDE90460029601968000CDE9BC
:102B3000060603960001CDE9080BC001CDE90AB0F5
:102B40004000CDE90C05CDE90E5A69469148CDF813
:102B500040A0FFF7DEFD69468D48FFF798FDC4F8F9
:102B60004080C4F844804FF47050C4F88000C4F82A
:102B700088004110C4F8C010C4F8C810894A8849B8
:102B80001160121D1160884A1060884A1060884ADE
:102B90001160121D1160874A40F283751560864AE4
:102BA0001560864B44F283321A60854B1A601A1DF9
:102BB0001060844A1060121FC2F80080824AC2F876
:102BC0000080824A1160121D1160814A1060814AA2
:102BD000106039647964C7F88000C7F888007E4ABD
:102BE0001160121D11607D490D607D490D607D4AA7
:102BF00044F2833111607C4A1160111D08607B49E9
:102C00000860081FC0F80080081DC0F8008018A8E0
:102C1000FFF7DBFB022018901020CDE9190918A955
:102C20002046FFF7BEFBC4F80051C4F80851C4F8B1
:102C30000451C4F80C51D4F84C0140F00100C4F820
:102C40004C01022018901020CDE9190918A94F480D
:102C5000FFF7A7FB6648056066480560001F056032
:102C6000654805604948D0F84C0140F001014748EB
:102C7000C0F84C11022018901020CDE9190918A9AC
:102C80004648FFF78EFB5D4805605D480560001F04
:102C900005605C4805604148D0F84C0140F00101F6
:102CA0003E48C0F84C11022018901020CDE91909B7
:102CB00018A93846FFF775FBC7F80051C7F8085147
:102CC000C7F80451C7F80C51D7F84C0140F0010087
:102CD000C7F84C0112A8FFF753FA01208DF84C00F9
:102CE00012908DF84D6012A92046FFF76FFDD4F8C1
:102CF000480140F48070C4F8480112A92046FFF74B
:102D00009EFBD4F8480140F00100C4F8480112A924
:102D10002046FFF7B5FBD4F8480140F01000C4F896
:102D2000480112A92046FFF772FDD4F8480140F48B
:102D30008030C4F8480112A92046FFF789FDD4F875
:102D4000480140F48010C4F8480112A92046FFF75A
:102D500007FBD4F84C0140F01000C4F84C01D4F843
:102D60004C0140F02000C4F84C0127484FF0010905
:102D7000C0F80090D4F8B40340F00100C4F8B403E4
:102D8000D4F8440242E0000000C0034000C4034005
:102D900000C8034000CC034000D0034000D40340EF
:102DA000C0FF3F0040C4034080C4034088C40340C8
:102DB00040C8034080C8034088C8034084C803401B
:102DC0008CC8034098C803409CC8034040D40340CB
:102DD00080D4034088D4034040CC034080CC0340DF
:102DE00088CC034084CC03408CCC034098CC034077
:102DF00000C5034008C503400CC5034000D503408F
:102E000008D503400CD50340A054784220F470004C
:102E100040F48000C4F844024FF00008DFF8CCA46E
:102E20008DF84C90CDF848808DF84D8012A9504611
:102E3000FFF7CCFC5046D0F84801514640F4807072
:102E4000C1F8480112A95046FFF7F9FA5046D0F8E8
:102E50004801514640F00100C1F8480112A950460E
:102E6000FFF70EFB5046D0F84801514640F01000E5
:102E7000C1F8480112A95046FFF7C9FC5046D0F8E6
:102E80004801514640F48030C1F8480112A950462B
:102E9000FFF7DEFC5046D0F84801514640F4801060
:102EA000C1F8480112A95046FFF75AFA5046D0F827
:102EB0004C01514640F01000C1F84C01D1F84C01D2
:102EC00040F02000C1F84C01D4F8B40340F00200F7
:102ED000C4F8B403D1F8440220F4700040F4800038
:102EE000C1F8440201208DF84C00CDF848808DF8DF
:102EF0004D8012A9FE4E3046FFF768FCD6F8480117
:102F000040F48070C6F8480112A93046FFF797FADE
:102F1000D6F8480140F00100C6F8480112A9304631
:102F2000FFF7AEFAD6F8480140F01000C6F84801A5
:102F300012A93046FFF76BFCD6F8480140F4803008
:102F4000C6F8480112A93046FFF782FCD6F84801BE
:102F500040F48010C6F8480112A93046FFF700FA85
:102F6000D6F84C0140F01000C6F84C01D6F84C01E0
:102F700040F02000C6F84C01D4F8B40340F004003F
:102F8000C4F8B403D6F8440220F4700040F4800082
:102F9000C6F8440201208DF84C00D64FCDF8488089
:102FA0008DF84D8012A93846FFF710FCD7F848017C
:102FB00040F48070C7F8480112A93846FFF73FFA7D
:102FC000D7F8480140F00100C7F8480112A9384677
:102FD000FFF756FAD7F8480140F01000C7F848014B
:102FE00012A93846FFF713FCD7F8480140F48030A7
:102FF000C7F8480112A93846FFF72AFCD7F848015C
:1030000040F48010C7F8480112A93846FFF7A8F924
:10301000D7F84C0140F01000C7F84C01D7F84C012C
:1030200040F02000C7F84C01D4F8B40340F0080089
:10303000C4F8B403D7F8440220F4700040F48000D0
:10304000C7F8440201208DF84C00AB4DCDF8488004
:103050008DF84D8012A92846FFF7B8FBD5F8480136
:1030600040F48070C5F8480112A92846FFF7E7F937
:10307000D5F8480140F00100C5F8480112A92846DA
:10308000FFF7FEF9D5F8480140F01000C5F84801F7
:1030900012A92846FFF7BBFBD5F8480140F4803061
:1030A000C5F8480112A92846FFF7D2FBD5F8480118
:1030B00040F48010C5F8480112A92846FFF750F9DE
:1030C000D5F84C0140F01000C5F84C01D5F84C0182
:1030D00040F02000C5F84C01D4F8B40340F01000D3
:1030E000C4F8B403D5F8440220F4700040F4800022
:1030F000C5F8440201208DF84C00DFF800B2CDF88D
:1031000048808DF84D8012A95846FFF75FFBDBF829
:10311000480140F48070CBF8480112A95846FFF7E7
:103120008EF9DBF8480140F00100CBF8480112A904
:103130005846FFF7A5F9DBF8480140F01000CBF83E
:10314000480112A95846FFF762FBDBF8480140F43A
:103150008030CBF8480112A95846FFF779FBDBF81D
:10316000480140F48010CBF8480112A95846FFF7F7
:10317000F7F8DBF84C0140F01000CBF84C01DBF81D
:103180004C0140F02000CBF84C01D4F8B40340F0DF
:103190002000C4F8B403DBF8440220F4700040F4CB
:1031A0008000CBF8440214A8FFF767FA54494FF4A3
:1031B00070500860091D0860CDF8508014A9284699
:1031C000CDF85480FFF741FAD5F8A40240F0010091
:1031D000C5F8A4024B494FF470500860091D0860FF
:1031E000CDE9149814A93046CDF85880FFF72DFA90
:1031F000D6F8A40240F00100C6F8A40242494FF4F8
:10320000F0500860091D08600220CDE9140814A9D7
:103210005846FFF71AFADBF8A40240F00100CBF899
:10322000A4023A494FF4B4400860091D0860032025
:10323000CDE9140814A95046FFF707FA5046D0F814
:10324000A402514640F00100C1F8A40230494FF4F5
:10325000B4400860091D08600420CDE9140814A9D1
:103260003846CDF85880FFF7F0F9D7F8A40240F0BF
:103270000100C7F8A402D4F8B40340F48070C4F885
:10328000B403D4F8B40340F40070C4F8B403D4F821
:10329000B40340F48060C4F8B403D4F8B40340F439
:1032A0000060C4F8B403D4F8B40340F48050C4F808
:1032B000B403D4F8B40340F40050C4F8B403D4F811
:1032C000440240F48030C4F84402D4F8440240F48C
:1032D0008020C4F844025046D0F84402514640F4DD
:1032E0008030C1F84402D1F8440213E000C4034026
:1032F00000C8034000CC034000D0034000D403408A
:10330000B4C20340BCC20340C4C20340CCC20340A9
:10331000D4C2034040F48020C1F84402D6F84402ED
:1033200040F48030C6F84402D6F8440240F48020CD
:10333000C6F84402D7F8440240F48030C7F844028B
:10334000D7F8440240F48020C7F84402D5F844027C
:1033500040F48030C5F84402D5F8440240F480209F
:10336000C5F84402DBF8440240F48030CBF8440254
:10337000DBF8440240F48020CBF8440200F082F8ED
:10338000FFF796FA1EA8FFF751F84FF080701E90D5
:1033900040101F90801020901EA95046FFF71EF885
:1033A0001EA95046FFF72EF81EA93846FFF716F85B
:1033B0001EA93846FFF726F81EA95846FFF70EF853
:1033C0001EA95846FFF71EF8D4F8540140F080506B
:1033D000C4F85401D4F8580140F08050C4F85801A2
:1033E0005046D0F85401514640F08050C1F8540185
:1033F000D1F8580140F08050C1F85801D6F8540176
:1034000040F08050C6F85401D6F8580140F0805082
:10341000C6F85801D7F8540140F08050C7F854015D
:10342000D7F8580140F08050C7F85801D5F854013A
:1034300040F08050C5F85401D5F8580140F0805054
:10344000C5F85801DBF8540140F08050CBF8540126
:10345000DBF8580140F08050CBF85801D4F8B403A1
:1034600040F03F00C4F8B4030548C0F80090001FC6
:10347000C0F800903F20C4F8F00321B0BDE8F08F01
:10348000FC76784230B585B06846FFF7C7F808206B
:10349000029000040390002001904FF40060494C1A
:1034A000009069462046FFF795F8D4F8400220F0D6
:1034B0000200C4F84002D4F8400220F40030C4F8FE
:1034C0004002D4F8400240F48070C4F840023E4DFF
:1034D00069462846FFF77EF8D5F8400220F0020042
:1034E000C5F84002D5F8400220F40030C5F840028B
:1034F000D5F8400240F48070C5F84002334D69466B
:103500002846FFF767F8D5F8400220F00200C5F81A
:103510004002D5F8400220F40030C5F84002D5F84A
:10352000400240F48070C5F84002294D69462846A3
:10353000FFF750F8D5F8400220F00200C5F840022D
:10354000D5F8400220F40030C5F84002D5F840021A
:1035500040F48070C5F840021E4D69462846FFF7CA
:1035600039F8D5F8400220F00200C5F84002D5F83D
:10357000400220F40030C5F84002D5F8400240F483
:103580008070C5F84002144D69462846FFF722F8BE
:10359000D5F8400220F00200C5F84002D5F84002FC
:1035A00020F40030C5F84002D5F8400240F48070A5
:1035B000C5F84002D4F8AC0340F03F00C4F8AC03B7
:1035C00005B030BD00C0034000C4034000C8034044
:1035D00000CC034000D0034000D40340034810B5A2
:1035E00000688047BFF34F8F10BD0000F8C1FF1F78
:1035F000034810B540688047BFF34F8F10BD0000EF
:10360000F8C1FF1F034810B580688047BFF34F8F94
:1036100010BD0000F8C1FF1F034810B5C068804707
:10362000BFF34F8F10BD0000F8C1FF1F034810B556
:1036300000698047BFF34F8F10BD0000F8C1FF1F26
:10364000034810B540698047BFF34F8F10BD00009D
:10365000F8C1FF1F034810B580698047BFF34F8F43
:1036600010BD0000F8C1FF1F034810B5C0698047B6
:10367000BFF34F8F10BD0000F8C1FF1F034810B506
:10368000006A8047BFF34F8F10BD0000F8C1FF1FD5
:10369000034810B5406A8047BFF34F8F10BD00004C
:1036A000F8C1FF1F034810B5806A8047BFF34F8FF2
:1036B00010BD0000F8C1FF1F034810B5C06A804765
:1036C000BFF34F8F10BD0000F8C1FF1F034810B5B6
:1036D000006B8047BFF34F8F10BD0000F8C1FF1F84
:1036E000034810B5406B8047BFF34F8F10BD0000FB
:1036F000F8C1FF1F034810B5806B8047BFF34F8FA1
:1037000010BD0000F8C1FF1F034810B5C06B804713
:10371000BFF34F8F10BD0000F8C1FF1F30B42F4B17
:10372000DFF8BCC04FF47A74042A33D0052A1CBFDA
:1037300030BC704742F21072B1FBF2F202F1300578
:1037400005706FF41C756A4301EB0211B1FBF4F2D2
:1037500002F1300444706FF07C04624301EBC2015B
:10376000A3FB0132520902F1300383706FF018039A
:103770005A4301EB8201ACFB0132D20802F1300363
:10378000524202EB820201EB4201C37030310171FF
:1037900030BC7047B1FBF4F202F1300404706FF0FA
:1037A0007C04624301EBC201A3FB0132520902F126
:1037B000300343706FF018035A4301EB8201ACFBF6
:1037C0000132D20802F13003524202EB820201EBD5
:1037D000420183703031C17030BC70471F85EB519E
:1037E000CDCCCCCC2DE9F0079B489C499C4C05885E
:1037F00001F1380215F0010F4FF0000000F01381C5
:10380000D4F814C0636AA3EB0C032363B3F5A07F61
:10381000C8BF4FF4A07304DC13F5A07FB8BF914B71
:1038200000DA2363D1F818C0C1F81CC04E69C1E9A1
:1038300005360F6A4F62D1F82880C1F82080D1F890
:103840000090D1F804A003FB09F906FB0A96D1F811
:1038500008900CFB09FCD1F80C9008FB09CCB4448F
:103860000E6907FB06CCCE6AB444C1F828C00E6BC3
:10387000664502DB4E6B664500DD8E62D4F828C0DB
:10388000A669ACEB060CC4F834C0BCF1CD0FC8BFC0
:103890004FF0CD0C05DC1CF1CD0FB8BF6FF0CC0C98
:1038A00001DAC4F834C0D2F818C0C2F81CC0566996
:1038B0009661676B5761D2F82080C2F82480D2F8F5
:1038C0002890C2F82090D2F800A007FB0AF7D2F89F
:1038D00004A006FB0A7697680CFB07FCD76809FB77
:1038E00007CCB444166908FB06CCD66AB4444FEA48
:1038F000AC2CC2F828C0166B664502DB566B6645D9
:1039000000DD9662926A896A8A42B4BFE263E1632B
:103910005549E162E26B4FF0010C9142B8BFE1639F
:1039200002DBB2F5C84F05DB13F1C00FA4BFE08086
:10393000E16B07DAA188022924BFA4F806C0A080A1
:103940004FF4C84115F0020F21641DD0218941F0C8
:10395000020121812269C82AC8BF41F0010104DCAB
:10396000752AB8BF01F0FE0100DA21813C49226CC2
:103970004EF66023C96C9342DABF47F23052511AB7
:10398000C1EB6201216507E0206520812080E061B4
:103990002062A0636064A064E188344A69B134495C
:1039A0000B8843F480630B80D2F8AC1341F02A01FA
:1039B000C2F8AC13A081208127E0A18911B10129AF
:1039C00008D014E040F60801C2F8A413A4F80CC013
:1039D000A0800CE0A088401C80B2A080022806D302
:1039E0000220A080A08140F60C40C2F8A4032089E8
:1039F00003280FD01F48018841F020010180D2F830
:103A0000AC0340F00400C2F8AC0320896081BDE83B
:103A1000F00770471848018841F020010180C0205C
:103A2000C2F8A403F1E720816081E0809062106217
:103A3000506250619061D06188620862486248615A
:103A40008861C861A0636064A064E0612062206551
:103A5000BDE8F0077047000082C1FF1F78C2FF1F5A
:103A600080C1FF1FC0FEFFFF0077010000C00340C0
:103A700018380540083805400A38054070B501215E
:103A800084B00802FEF7A2F901214802FEF79EF970
:103A90006846FDF7ECFA012400211020ADF804106F
:103AA000ADF80040ADF808401C4DADF80200ADF88F
:103AB0000600ADF80A1069462846FDF7A5FAADF8EC
:103AC00000400820164EADF8020069463046FDF76A
:103AD0009BFAADF800400420124CADF80200694694
:103AE0002046FDF791FA01212046FDF740FA012119
:103AF0002046FDF7B3FA01213046FDF738FA0121DF
:103B00003046FDF7ABFA01212846FDF730FA0121D6
:103B10002846FDF7A3FA04B070BD000000B00340D2
:103B2000008503400084034010F0010F06D01C49BB
:103B300040F223120A6043F210220A6010F0020FD2
:103B400002D0194A1749116110F0040F03D0174A27
:103B50004AF20151118010F0200F03D0144A49F2AB
:103B6000A5619164134910F0100F06D0B1F8FE332F
:103B70004AF208521A43A1F8FE2310F0400F06D073
:103B8000B1F8FE334AF203521A43A1F8FE2310F0B3
:103B9000800F08BF70477720074908607047000012
:103BA000000401400100A5A500800440FC3B054045
:103BB00000000540004005400C08054070B5464C2B
:103BC0000025A08802280BD004280FD0E5864FF4EA
:103BD00000610220FEF7C8F94FF48051002043E055
:103BE0004FF400610220FEF7EBF93FE0D4F88C00BF
:103BF00010F0010F18BF142101D021870EE010F43E
:103C0000807F18BF2821F8D110F4805F18BF3C21B5
:103C1000F3D110F4803F18BF5021EED110F0020F05
:103C200018BFC82001D020870FE010F4007F18BF14
:103C3000DC20F8D110F4801F18BFF020F3D110F46D
:103C4000001F18BF4FF48270EDD1E08E411CE18659
:103C5000218F884205D3E5864FF480510020FEF77E
:103C6000AFF94FF400610220FEF74AF9608F401C63
:103C700080B26087E189884202D36587A089A087E6
:103C8000B4F91200E087B4F91410884220DB00BFB9
:103C9000B4F93E001928ACBF232840F22B150ADBEB
:103CA0002D28B8BF40F2572505DB3228B4BF40F2BB
:103CB000833540F24B45B4F84000854208BF70BDE3
:103CC0002A460121054800F00CFCA4F8405070BDC4
:103CD000A08AE087DCE7000008C0FF1F00A80340BF
:103CE00030B55E4D04460422401C696CFFF716FD9A
:103CF0005B4804220168E01DFFF710FD59480422CB
:103D0000016804F10C00FFF709FD042204F1110021
:103D1000296DFFF703FD042204F11600696DFFF71A
:103D2000FDFC3021E176D5F88C004FF0310210F027
:103D3000010F18BFE276217710F0020F18BF22772B
:103D4000617710F0040F18BF6277A17710F0200F91
:103D500018BFA277E17710F4807F18BFE27784F86C
:103D6000201010F4007F18BF84F8202084F8211060
:103D700010F4806F18BF84F8212084F8221010F40A
:103D8000805F18BF84F8222084F8231010F4005FAD
:103D900018BF84F8232084F8241010F4804F18BF33
:103DA00084F8242084F8251010F4803F18BF84F88C
:103DB000252084F8261010F4003F18BF84F8262030
:103DC00084F8271010F4802F18BF84F8272084F877
:103DD000281010F4801F18BF84F8282084F82910B8
:103DE00010F4001F18BF84F8292084F82A102879BD
:103DF0000422303084F82C001B48016804F12E00A6
:103E0000FFF78CFC194D042204F133002968FFF7F9
:103E100085FC052204F13800A96AFFF77FFC1448ED
:103E20000522816A04F13E00FFF778FC1148052263
:103E3000016804F14400FFF771FC0F480522016896
:103E400004F14A00FFF76AFC0C480522016804F1FE
:103E50005000BDE83040FFF761BC000008C0FF1F04
:103E600098C1FF1FE0C1FF1FA4C1FF1F78C2FF1F41
:103E7000B0C2FF1FC4C1FF1FC8C1FF1FD0C1FF1FB9
:103E8000834830B40146D0F85CC0B1F9201001235A
:103E90001422BCF5F03F07DD491C09B20184142946
:103EA000A8BF028415DB0EE00CF1CD0CBCF5F03F91
:103EB00006DA491E09B201840129B8BF038408DB70
:103EC000018C142905D1D0F88C1041F00201C0F802
:103ED0008C106F49D0F860C0B1F92210BCF52A3FB0
:103EE00007DD491C09B241841429A8BF428415DBAF
:103EF0000EE00CF1CD0CBCF52A3F06DA491E09B2E2
:103F000041840129B8BF438408DB418C142905D1C1
:103F1000D0F88C1041F40071C0F88C105C49D0F8D6
:103F200064C0B1F924300021BCF55C2F09DD5B1CB5
:103F3000C1841BB201858384142BA8BF82842EDA2E
:103F40001FE06FF42A24534D6444AC4209D28184AB
:103F5000C184038D5B1C1BB20385142BC8BF028573
:103F60000FE0BCF52A2F0ADA81840185C38C5B1C23
:103F70001BB2C384142BA8BFC28402DA09E0142B3D
:103F80000DD0C28C142A04BFD0F88C2042F4001249
:103F900010D0B0F92820B2F5522F07D00CE0D0F89D
:103FA0008C2042F48012C0F88C2005E0D0F88C20E0
:103FB00022F44012C0F88C20B0F900C040F659033A
:103FC00064229C450EDDC185B0F82AC00CF1010CBD
:103FD0000FFA8CFCA0F82AC0BCF1640FC8BF428560
:103FE00011DD20E0BCF5EF6F0DDC4185B0F82EC08F
:103FF0000CF1010C0FFA8CFCA0F82EC0BCF1640F80
:10400000C8BFC28504E0B0F82AC0BCF1640F0AD072
:10401000B0F82EC0BCF1640F04BFD0F88CC02CF4F3
:10402000800C06D103E0D0F88CC04CF4800CC0F8B2
:104030008CC0B0F902C09C4509DD0186818D491C08
:1040400009B281856429C8BF82850CDD1BE0BCF5FF
:10405000EF6F08DC8185018E491C09B20186642955
:10406000C8BF028602E0818D64290CD0018E6429CC
:1040700007BFD0F88C1021F4000130BC7047C0F8A5
:104080008C1030BC7047D0F88C1041F40001F6E77A
:1040900008C0FF1FFF7F02002DE9F00F5449504C6C
:1040A000504AB1F800B0A6884F4BDFF840C14FF03E
:1040B000010A2BF001004EB327464FF00409B7F870
:1040C0000880D7F88C507F89012E35D0022E5CD025
:1040D000042E1CBFBDE8F00F7047168846F48066BA
:1040E00016801A8842F020021A80DCF8AC2342F0D5
:1040F0003F02CCF8AC2320F00200088035F07F406E
:1041000008BFA4F804A0BDE8F00F7047158845F477
:10411000806515801A8842F020021A80DCF8AC23F2
:1041200042F03F02CCF8AC2320F002000880A4F853
:1041300004A0BDE8F00F7047168846F4806616802C
:104140001A8842F020021A80DCF8AC2342F03F02C9
:10415000CCF8AC2320F00200088035F07F421EBF6F
:10416000A4F80490BDE8F00F7047B8F1000F12BF3B
:10417000002FBDE8F00F704740F0010008804FF0BD
:104180000200A080BDE8F00F704735F07F4515D0E4
:10419000158845F4806515801A8842F020021A803F
:1041A000DCF8AC2342F03F02CCF8AC2320F0020054
:1041B0000880A4F80490BDE8F00F7047B8F1000F34
:1041C00018BF002FA2D00B480B4A0068126890421B
:1041D000A4BF4BF002000880BDE8F00F704700005C
:1041E00008C0FF1F183805400838054000C00340CC
:1041F00082C1FF1FA4C1FF1FE4C1FF1F1F4810B4ED
:10420000006810F0010F1E4814BF1E491E4941608E
:104210001E4991F826204FF4004C02F007031C4A77
:10422000062B24BF10BC7047DFE803F003070A0722
:104230000A0E4168016010BC7047026010BC7047F4
:10424000C0F800C010BC7047D1F80031C3F3082C8F
:10425000D1F80031D1F800111B0F0E4C01F01F01F5
:10426000E469002C18BF4268491CB2FBF1F10CF163
:10427000010251435A1CB1FBF2F1DBE78406014015
:1042800000C0FF1F0024F400002D31010040054054
:1042900000127A000020A842054800B5016841F4E8
:1042A00070010160FFF7AAFF02490020086000BD0D
:1042B00088ED00E008ED00E02DE9F041150006462C
:1042C0000F464FF0000808BF6FF0020823D006EB3E
:1042D000870400202060304600F03AF8A889A060EA
:1042E0003946304600F034F83269390148F2F2704C
:1042F00000FA01F39A43D5E9003C43EA0C03D5F8F0
:1043000008C043EA0C031840884010433061394626
:10431000304600F01DF84046BDE8F08102690B010F
:104320004FF0010C0CFA03F31A43026100F010B8CD
:104330000021002808BF6FF0020106D000220260B1
:10434000426082604FF6FF7282810846704700002B
:10435000144A10B4126A144BC2F302621B6823FAA7
:1043600002F2D20B02EB8202D2020023002907BF25
:104370004FF4807C61464FF0807C6146046914EA0A
:104380000C0F01D10AE000BF521E05D0D0F814C0B6
:104390001CEA010FF7D001E06FF0070310BC1846CC
:1043A000704700000040054000C0FF1F074801881B
:1043B00081F0010101800648D0F8641121F4006108
:1043C000C0F8641104210320FDF7FABDF0C0FF1FFF
:1043D00000C003400B4810B5D0F8B81311F0020F1D
:1043E00009D0D0F8B81321F00201C0F8B813411574
:1043F0000120FDF7E5FD0448016821F0400101605E
:1044000010BD000000C0034064C5034010B50B4C54
:10441000D4F8B80310F0010F09D0D4F8B80320F095
:104420000100C4F8B80304210320FDF7C9FDD4F846
:10443000640120F08000C4F8640110BD00C0034096
:104440006FF0020269B10A786AB18A88A0F8882000
:10445000CA88A0F88C200A7B80F881208968416096
:104460000022104670478A78CB781A434B781A435B
:1044700080F88020EFE703466FF00200002A08BFB3
:10448000704703EB8100136803641179937941EA63
:104490008301137A927A1B0143EA82121143B0F826
:1044A0004021C9B202F47F421143A0F8401100201C
:1044B000704700EB810000F5A070400100F18440DE
:1044C000026370476FF0020148B189100160012159
:1044D00081800021C18003210181418100210846A2
:1044E000704700EB81000264704790F8801041F043
:1044F000010180F8801070476FF0020150B1002177
:104500000170417081700222C2708180C1804A1E98
:1045100082600173084670470022A0236B283CBFCD
:104520006FF009007047B0F5326F2ABF9620DFF8B0
:1045300030C0704710B4991A02EB610109B23CF81F
:10454000114084423CBF4A1C12B284BF4B1E1BB2B6
:1045500001D09A42EFDDA1F10A0010BC00B2704711
:10456000F451000030B5012189B08805FDF722FC27
:1045700004A8FFF7C1FF00248DF8124002208DF837
:10458000130040F2AF401B4D069004A92846FFF7E8
:1045900057FF6846FFF796FF40F257200090ADF8AE
:1045A00008400120ADF80640ADF80A00ADF804401F
:1045B0006A4600212846FFF75EFF012200212846B7
:1045C000FFF777FF40F2F310009011220221002044
:1045D000FDF7AEFC6A4601212846FFF74CFF012299
:1045E00011462846FFF765FF2846FFF77EFF09B012
:1045F00030BD000000A8034000B501218BB0480584
:10460000FDF7E4FB684600F0ADFA032001904FF49B
:10461000006002904FF4E13003904FF400400790A7
:1046200000226946024800F070FA0BB000BD00009D
:1046300000D001400B041B0C08D0D0F80CC0012A9C
:104640000CBF4CEA03032CEA0303C360064B13EAD6
:10465000114108BF7047012A02690CBF114322EAC9
:1046600001010161704700001E41FFFF2DE9F74F76
:1046700081462DED048B86B0FE48006AFE4AC0F3E9
:104680000210126822FA00F0D9F8182012F0100F68
:104690004FF001021FBFD9F8182002F00302802357
:1046A00003FA02F201BFD9F8183003F003035B00EC
:1046B0009A40B0FBF2F50F469FEDF08AD9F80C0056
:1046C0004FF0FF0810F0807FF7EE008A5BD04FF0CC
:1046D000FF34002D18BF002F00F00B824FEA870A2D
:1046E000B5FBFAF0A0F10106FF2E00F20282B5FB45
:1046F000FAF00AFB1050002800F0A9810020711C7C
:1047000040F10002920042EA91738A00A2FB071C6A
:1047100003FB07C302FB0032120242EA11624FEAB6
:10472000012B41084FEA35001BEB0000009251417C
:104730002A460023FBF7C6FD80387F2800F28A81D5
:1047400010F18003A3FB057C002444F1000101FB70
:1047500005C1009A03FB0415804611465846FBF735
:1047600010FE41EC190B38462946FBF70AFE53ECC4
:10477000192BFBF775FEFBF710FE00EE100A30EE6A
:10478000688A00F09FB9D9F8140010F0200F7BD090
:10479000BB4B0DF1080A4FF0FF340FCB8AE80F0036
:1047A000002D18BF002F00F0A481D9F814004FF09D
:1047B000070101EA505002A931F810A007FB0AF0E6
:1047C0004FEA400BB5FBFBF0A0F10100FF2800F21F
:1047D0000781B5FBFBF10BFB11510646002908BF11
:1047E000002400F0328100211AEB0A03494116F13E
:1047F000010CA3FB0C2E002001FB0CE140F100009A
:1048000003FB0013A2FB070C03FB07C3002102FB01
:104810000131090241EA1061020200204308CDE99A
:1048200000214FEA3500101859412A460023FBF7B2
:1048300049FD80387F2800F2D380DDE900210B4656
:1048400010F180018046A1FB0507002444F1000C13
:104850000CFB057C01FB04C5074619461046FBF717
:1048600090FD41EC190B38462946FBF78AFD53ECC5
:10487000192BFBF7F5FDFBF790FD00EE100A30EE6B
:10488000688A00F01FB9FFE74FF0FF34002D18BF12
:10489000002F00F02E81D9F80C00C0F3C031C1F117
:1048A000020000FB07F04FEAC0000290B5FBF0F0F9
:1048B000A0F10106FF2E00F21C810298B5FBF0F278
:1048C00000FB125000287CD00020D1F1020160EBE7
:1048D0000002D20042EA5172CB00711CA3FB01CB53
:1048E000CDE9003202FB01B140F1000A03FB0A12DC
:1048F000ACFB071302FB07320CFB0022120242EA58
:10490000116B4FEA012A41084FEA350010EB0A000B
:1049100041EB0B010023D0F1FF3273EB010228BF02
:10492000B0FBF5F003D22A460023FBF7CBFC80381E
:104930007F2820D810F18001A1FB05728046002459
:1049400044F1000000FB052001FB040559465046D8
:10495000FBF717FD41EC190B38462946FBF711FD13
:1049600053EC192BFBF77CFDFBF717FD00EE100A4B
:1049700030EE688AA6E005EB850041000298B1FBA5
:10498000F0F0411D3F48A0FB0110C008461EFF2E5D
:104990007AD8DDE90010731CA1FB032A002400FB78
:1049A00003A044F1000C01FB0C01A2FB070301FB77
:1049B000073102FB0411FBF7E4FC41EC190B28461C
:1049C00000E044E0FBF7D0FC53EC192BFBF748FD6B
:1049D000FBF7E3FC00EE100A30EE688A72E000BFDD
:1049E00005EB85004000B0FBFBF0411D2548A0FB16
:1049F0000110C008401EFF2827D800241AEB0A0126
:104A000044EB040210F1010CA1FB0C3A064602FB38
:104A10000CA244F1000001FB0021A3FB070201FBF3
:104A2000072103FB0411FBF7ACFC41EC190B2846F2
:104A3000FBF79AFC53EC192BFBF712FDFBF7ADFCCF
:104A400000EE100A30EE688A3CE0ECB93AE000244F
:104A500038E000BF05EB85004000B0FBFAF0411DD7
:104A60000848A0FB0110C008461EFF2E41D80024B4
:104A7000701C0AE00040054000C0FF1F000000005D
:104A8000D4510000CDCCCCCC33E044F100018900FE
:104A900041EA90718200A2FB070301FB073102FB90
:104AA0000411FBF76EFC41EC190B2846FBF75CFC8C
:104AB00053EC192BFBF7D4FCFBF76FFC00EE100A4C
:104AC00030EE688A48EA06204FF67F710840D9F830
:104AD000081021F07F0121F47F410843C9F8080044
:104AE000B8F1FF0F05D0D9F80C0040F00050C9F81C
:104AF0000C000C98002818BF80ED008A204606B0F4
:104B0000BDEC048B03B0BDE8F08F10B56FF002036D
:104B1000F9B1D1F810C08B6943EA0C03D1E9074C15
:104B20004CEA040C43EA0C03D1F824C08C6843EA35
:104B30000C0C0B6823434C6944F4C06423438C6A17
:104B4000C0F80CC0036144610B68002B18BF002340
:104B500001D0184610BD4B688361C968FFF786FD18
:104B60000346F6E76FF0020180B1002101604FF4C7
:104B700016524160C0E90212016141618161C16167
:104B8000016211064162C90D816200210846704729
:104B900010B50C4C0A4A01212046FCF7C3FD8022C7
:104BA00001212046FCF7C3FD012211462046FCF7F7
:104BB000CDFC0122BDE8104008210348FFF73ABDB3
:104BC000FCC0FF1F0030054000D0014000B585B09B
:104BD00002200090A02001904FF4706002904FF4EA
:104BE00080300390C0030490684600F00DF805B0D3
:104BF00000BD0000034840F22311816043F2102100
:104C000081607047009004400021002808BF6FF0C9
:104C1000020113D0D0E900231A43D0E9023C43EA51
:104C20000C0300691A431043054A02400548036813
:104C3000DFF814C003EA0C031A4302600846704709
:104C4000F30F0180009004400CF0FE7F02E008C8E2
:104C5000121F08C1002AFAD170477047002001E0F6
:104C600001C1121F002AFBD170470000C720FEF7C8
:104C70005BFFFBF7B5FFFCF707FAFDF7ABF9FBF7B6
:104C8000D3FEFCF7B7FBFEF7F9FEFDF777FEFCF766
:104C900091FFFFF767FCFFF7AFFCFCF765FCFCF743
:104CA00093FAFCF7DDFAFFF791FFFFF7A3FFDFF8B8
:104CB000F8B3DFF8F883DFF8F8A3DFF8F893FE4DD8
:104CC0000026FE4CD4F89000C4F89400D4F8981054
:104CD0001E31884268D3C4F898009BF8001011F088
:104CE000010F17D0F649D8F800200968914206DD77
:104CF000121DC8F800208A4207DD00F05EBA121FBC
:104D0000C8F800208A42C0F25882EE490968CAF801
:104D1000001004E0616CC8F80010CAF80060EA49AD
:104D20000A68EA49096842EA010313F4807F05D062
:104D3000D4F88CC04CF0010CC4F88CC013F4007F84
:104D400005D0D4F88CC04CF4807CC4F88CC012F42C
:104D5000006F05D0D4F88CC04CF4805CC4F88CC0D3
:104D600011F4806F05D0D4F88CC04CF4803CC4F8AA
:104D70008CC012F0807F05D0D4F88C2042F48042A1
:104D8000C4F88C2011F0007F05D0D4F88C1041F4C9
:104D90008021C4F88C1013F0806F05D0D4F88C10EB
:104DA00041F48061C4F88C10D4F89C1069318842B9
:104DB00041D3C4F89C00C648C84F0168A06E484360
:104DC000E065C4480168E06E48432066C248216F30
:104DD00000684843606602213846FCF747FC40B152
:104DE00002213846FCF7BCFB00220821BC48FFF733
:104DF00021FCB9F80000C0B3012854D002286FD0BC
:104E00006686A686A9F80060608B2188084401B2F6
:104E10006183A28B6088104400B2A083E28B521C95
:104E200092B2E283102A06D90911E683E1820011C9
:104E300020836683A683D4F8A00000F5FF71D4F820
:104E400094008842FFF43DAFA44FC4F8A0000121B4
:104E50003846FCF70BFC002800F06E81E87831281A
:104E600058D032285ED000F058B9FFE79D4801883D
:104E700041F4804101802681606EB0F5703FD8BF5B
:104E80006686C1DD608E401C80B260866428BBD31C
:104E900095486686A686018841F4804101800120FC
:104EA000A9F80000B0E79048018841F480410180F2
:104EB0002681606EB0F5483F06DA608E401C80B2F5
:104EC00060861428A0D31CE06686A08E401C80B2A9
:104ED000A086322884BFA686022095D9E0E7FFE7A6
:104EE0008148018841F48041018001202081606E69
:104EF000B0F5483F88DA608E401C80B26086142886
:104F000082D378486686A9F80060018841F4804120
:104F1000018079E7287A312812BF668101206081FB
:104F200000F0FBB8287A312802D032287DD0EDE09D
:104F3000A87BE97B303800EB800040003038084423
:104F400000EB80004000297C3038084400EB8000F2
:104F50004000697C303808446067687DA97D30383E
:104F600000EB800040003038084400EB8000400037
:104F7000E97D3038084400EB80004000297E30385D
:104F8000084400EB80004000697E3038084400EBA4
:104F900080004000A97E30380844C4F8E400A067CF
:104FA000297D2D2904BF4042A06795F8200095F87F
:104FB0002110303800EB800040003038084400EB0E
:104FC0008000400095F822103038084400EB800043
:104FD000400095F8231030380844E06795F8270022
:104FE00095F82810303800EB800040003038084435
:104FF00000EB8000400095F829103038084400EBA1
:105000008000400095F82A103038084400EB8000FA
:10501000400095F82B103038084400EB8000400029
:1050200095F82C103038084400E00BE0C4F8E40098
:10503000C4F8800095F826102D2904BF4042C4F81A
:10504000800063E0A87BE97B303800EB8000400003
:105050003038084400EB80004000297C3038084498
:1050600000EB80004000697C30380844C4F88400BC
:10507000687DA97D303800EB80004000303808445E
:1050800000EB80004000E97D3038084400EB8000F0
:105090004000297E3038084400EB80004000697EE3
:1050A0003038084422E0000082C1FF1FA4C1FF1F66
:1050B000A8C1FF1FF0C1FF1F38C2FF1F08C0FF1F9C
:1050C000E4C1FF1FE8C1FF1F0C8603402C8603408C
:1050D00094C1FF1F98C1FF1FE0C1FF1F00300540B2
:1050E00000D001402A3805402838054000EB8000F8
:1050F0004000A97E30380844C4F8E400C4F88800B1
:10510000297D2D2904BF4042C4F88800E879312860
:1051100003D1208A40F00100208201213846FCF7AB
:105120001FFA2D2200213846FCF701FB0122002145
:105130003846FCF70BFA00BF214940F6F220086020
:1051400020490A688242A8BF40F6F2220A60FEF7B0
:1051500097FEFEF7A1FFFEF731FDFFF74BFDE0885C
:10516000401C80B2E080322818D0642821D0C828A2
:10517000FFF4A7ADE680D4F8A400401CC4F8A40056
:10518000208A10F0010F06D020F001002082FFF7E6
:1051900031FDFBF7D7FFFFF7FBFC92E5E08A80B219
:1051A000FFF7BAF96082208B80B2FFF7B5F9A082D1
:1051B00087E50548FEF794FD83E5C8F80010A4E5EF
:1051C000ECC1FF1FE8C1FF1FFCC0FF1F001004401F
:1051D00000140440200040005D008000BA0000017F
:1051E0007401000200CC014000D0014000D4014015
:1051F00000D801406B00710077007D0084008B00B7
:1052000092009A00A100AA00B200BB00C400CD0029
:10521000D700E200EC00F70002010E011A0127019D
:10522000340141014F015D016C017B018B019B0148
:10523000AB01BC01CE01E001F201050218022B0214
:105240004002540269027E029402AA02C102D802FC
:10525000EF0207031F0337035003690382039C0314
:10526000B603D003EA03050420043B04560471048A
:105270008D04A804C404E004FC04170533054F059D
:105280006B058705A205BE05D905F50510062B0699
:10529000460661067C069606B006CA06E406FE06C9
:1052A000170730074907610779079107A807C00763
:1052B000D607ED07030819082F08440859086D0898
:1052C00081089508A808BC08CE08E108F30805097C
:1052D000160927093809480958096809770986090C
:1052E0009509A409B209C009CD09DA09E709F40949
:1052F000000A0C0A180A240A2F0A3A0A450A500A18
:105300005A0A640A6E0A770A810A8A0A930A9C0A70
:10531000A40AAD0AB50ABD0AC40ACC0AD30ADB0A3C
:10532000E20AE90AEF0AF60AFC0A030B090B0E0B64
:10533000140B1A0B1F0B00005853000008C0FF1F6E
:10534000F00100008C060000AC530000F8C1FF1F04
:10535000F00C00005C4C0000A112011205320A1A88
:10536000190201223264292E0128321F322F42F401
:105370007208E908011B0B10830704115A3C043220
:105380001E5A5A041910691C33834302127804A967
:10539000233030331006031577015A020469F001F7
:0C53A0001023C90B4BF20A04810000002E
:04000005000002896C
:00000001FF
