Component: ARM Compiler 5.06 update 7 (build 960) Tool: armlink [4d3601]

==============================================================================

Section Cross References

    startup_hc32f334.o(RESET) refers to startup_hc32f334.o(STACK) for __initial_sp
    startup_hc32f334.o(RESET) refers to startup_hc32f334.o(.text) for Reset_Handler
    startup_hc32f334.o(RESET) refers to hc32_ll_interrupts.o(i.IRQ000_Handler) for IRQ000_Handler
    startup_hc32f334.o(RESET) refers to hc32_ll_interrupts.o(i.IRQ001_Handler) for IRQ001_Handler
    startup_hc32f334.o(RESET) refers to hc32_ll_interrupts.o(i.IRQ002_Handler) for IRQ002_Handler
    startup_hc32f334.o(RESET) refers to hc32_ll_interrupts.o(i.IRQ003_Handler) for IRQ003_Handler
    startup_hc32f334.o(RESET) refers to hc32_ll_interrupts.o(i.IRQ004_Handler) for IRQ004_Handler
    startup_hc32f334.o(RESET) refers to hc32_ll_interrupts.o(i.IRQ005_Handler) for IRQ005_Handler
    startup_hc32f334.o(RESET) refers to hc32_ll_interrupts.o(i.IRQ006_Handler) for IRQ006_Handler
    startup_hc32f334.o(RESET) refers to hc32_ll_interrupts.o(i.IRQ007_Handler) for IRQ007_Handler
    startup_hc32f334.o(RESET) refers to hc32_ll_interrupts.o(i.IRQ008_Handler) for IRQ008_Handler
    startup_hc32f334.o(RESET) refers to hc32_ll_interrupts.o(i.IRQ009_Handler) for IRQ009_Handler
    startup_hc32f334.o(RESET) refers to hc32_ll_interrupts.o(i.IRQ010_Handler) for IRQ010_Handler
    startup_hc32f334.o(RESET) refers to hc32_ll_interrupts.o(i.IRQ011_Handler) for IRQ011_Handler
    startup_hc32f334.o(RESET) refers to hc32_ll_interrupts.o(i.IRQ012_Handler) for IRQ012_Handler
    startup_hc32f334.o(RESET) refers to hc32_ll_interrupts.o(i.IRQ013_Handler) for IRQ013_Handler
    startup_hc32f334.o(RESET) refers to hc32_ll_interrupts.o(i.IRQ014_Handler) for IRQ014_Handler
    startup_hc32f334.o(RESET) refers to hc32_ll_interrupts.o(i.IRQ015_Handler) for IRQ015_Handler
==============================================================================

Removing Unused input sections from the image.

    Removing startup_hc32f334.o(HEAP), (1024 bytes).
    Removing system_hc32f334.o(.rev16_text), (4 bytes).
    Removing system_hc32f334.o(.revsh_text), (4 bytes).
    Removing system_hc32f334.o(.rrx_text), (6 bytes).
    Removing hc32_ll_icg.o(.rev16_text), (4 bytes).
    Removing hc32_ll_icg.o(.revsh_text), (4 bytes).
    Removing hc32_ll_icg.o(.rrx_text), (6 bytes).
    Removing hc32_ll.o(.rev16_text), (4 bytes).
    Removing hc32_ll.o(.revsh_text), (4 bytes).
    Removing hc32_ll.o(.rrx_text), (6 bytes).
    Removing hc32_ll.o(i.LL_PERIPH_WP), (152 bytes).
    Removing hc32_ll.o(i.LL_TMR_SWSyncStart), (20 bytes).
    Removing hc32_ll_adc.o(.rev16_text), (4 bytes).
    Removing hc32_ll_adc.o(.revsh_text), (4 bytes).
    Removing hc32_ll_adc.o(.rrx_text), (6 bytes).
    Removing hc32_ll_adc.o(i.ADC_AWD_ClearStatus), (6 bytes).
    Removing hc32_ll_adc.o(i.ADC_AWD_Cmd), (18 bytes).
    Removing hc32_ll_adc.o(i.ADC_AWD_Config), (74 bytes).
==============================================================================

Image Symbol Table

    Local Symbols

    Symbol Name                              Value     Ov Type        Size  Object(Section)

    RESET                                    0x00000000   Section      648  startup_hc32f334.o(RESET)
    ../clib/../cmprslib/zerorunl2.c          0x00000000   Number         0  __dczerorl2.o ABSOLUTE
    ../clib/microlib/division.c              0x00000000   Number         0  uldiv.o ABSOLUTE
    ../clib/microlib/init/entry.s            0x00000000   Number         0  entry10b.o ABSOLUTE
    ../clib/microlib/init/entry.s            0x00000000   Number         0  entry2.o ABSOLUTE
    ../clib/microlib/init/entry.s            0x00000000   Number         0  entry9a.o ABSOLUTE
    ../clib/microlib/init/entry.s            0x00000000   Number         0  entry7a.o ABSOLUTE
    ../clib/microlib/init/entry.s            0x00000000   Number         0  entry5.o ABSOLUTE
    ../clib/microlib/init/entry.s            0x00000000   Number         0  entry.o ABSOLUTE
    ../clib/microlib/init/entry.s            0x00000000   Number         0  entry12b.o ABSOLUTE
    ../clib/microlib/init/entry.s            0x00000000   Number         0  entry9b.o ABSOLUTE
    ../clib/microlib/init/entry.s            0x00000000   Number         0  entry7b.o ABSOLUTE
    ../clib/microlib/init/entry.s            0x00000000   Number         0  entry10a.o ABSOLUTE
    ../clib/microlib/init/entry.s            0x00000000   Number         0  entry12a.o ABSOLUTE
    ../clib/microlib/init/entry.s            0x00000000   Number         0  entry8a.o ABSOLUTE
    ../clib/microlib/init/entry.s            0x00000000   Number         0  entry11b.o ABSOLUTE
    ../clib/microlib/init/entry.s            0x00000000   Number         0  entry11a.o ABSOLUTE
    ../clib/microlib/init/entry.s            0x00000000   Number         0  entry8b.o ABSOLUTE
    ../clib/microlib/longlong.c              0x00000000   Number         0  llushr.o ABSOLUTE
    ../clib/microlib/longlong.c              0x00000000   Number         0  llshl.o ABSOLUTE
    ../clib/microlib/string/memset.c         0x00000000   Number         0  memseta.o ABSOLUTE
    ../clib/microlib/stubs.s                 0x00000000   Number         0  iusefp.o ABSOLUTE
    ../fplib/microlib/d2f.c                  0x00000000   Number         0  d2f.o ABSOLUTE
    ../fplib/microlib/fpdiv.c                0x00000000   Number         0  ddiv.o ABSOLUTE
    ../fplib/microlib/fpepilogue.c           0x00000000   Number         0  fepilogue.o ABSOLUTE
    ../fplib/microlib/fpepilogue.c           0x00000000   Number         0  depilogue.o ABSOLUTE
    ../fplib/microlib/fpflt.c                0x00000000   Number         0  dfltui.o ABSOLUTE
    ../fplib/microlib/fpflt.c                0x00000000   Number         0  dfltul.o ABSOLUTE
    ..\App_Drivers\Hc32F334_Drivers.c        0x00000000   Number         0  hc32f334_drivers.o ABSOLUTE
    ..\App_Drivers\hrtimer.c                 0x00000000   Number         0  hrtimer.o ABSOLUTE
    ..\App_Users\Ctrl_Lib.c                  0x00000000   Number         0  ctrl_lib.o ABSOLUTE
    ..\App_Users\main.c                      0x00000000   Number         0  main.o ABSOLUTE
    ..\\App_Drivers\\Hc32F334_Drivers.c      0x00000000   Number         0  hc32f334_drivers.o ABSOLUTE
    ..\\App_Drivers\\hrtimer.c               0x00000000   Number         0  hrtimer.o ABSOLUTE
    ..\\App_Users\\Ctrl_Lib.c                0x00000000   Number         0  ctrl_lib.o ABSOLUTE
    ..\\App_Users\\main.c                    0x00000000   Number         0  main.o ABSOLUTE
    ..\\drivers\\bsp\\ev_hc32f334_lqfp64\\ev_hc32f334_lqfp64.c 0x00000000   Number         0  ev_hc32f334_lqfp64.o ABSOLUTE
    ..\\drivers\\cmsis\\Device\\HDSC\\hc32f3xx\\Source\\system_hc32f334.c 0x00000000   Number         0  system_hc32f334.o ABSOLUTE
    ..\\drivers\\hc32_ll_driver\\src\\hc32_ll.c 0x00000000   Number         0  hc32_ll.o ABSOLUTE
    ..\\drivers\\hc32_ll_driver\\src\\hc32_ll_adc.c 0x00000000   Number         0  hc32_ll_adc.o ABSOLUTE
    ..\\drivers\\hc32_ll_driver\\src\\hc32_ll_aes.c 0x00000000   Number         0  hc32_ll_aes.o ABSOLUTE
    ..\\drivers\\hc32_ll_driver\\src\\hc32_ll_aos.c 0x00000000   Number         0  hc32_ll_aos.o ABSOLUTE
    ..\\drivers\\hc32_ll_driver\\src\\hc32_ll_clk.c 0x00000000   Number         0  hc32_ll_clk.o ABSOLUTE
    ..\\drivers\\hc32_ll_driver\\src\\hc32_ll_cmp.c 0x00000000   Number         0  hc32_ll_cmp.o ABSOLUTE
    ..\\drivers\\hc32_ll_driver\\src\\hc32_ll_crc.c 0x00000000   Number         0  hc32_ll_crc.o ABSOLUTE
    ..\\drivers\\hc32_ll_driver\\src\\hc32_ll_ctc.c 0x00000000   Number         0  hc32_ll_ctc.o ABSOLUTE
    ..\\drivers\\hc32_ll_driver\\src\\hc32_ll_dac.c 0x00000000   Number         0  hc32_ll_dac.o ABSOLUTE
    ..\\drivers\\hc32_ll_driver\\src\\hc32_ll_dbgc.c 0x00000000   Number         0  hc32_ll_dbgc.o ABSOLUTE
    ..\\drivers\\hc32_ll_driver\\src\\hc32_ll_dcu.c 0x00000000   Number         0  hc32_ll_dcu.o ABSOLUTE
    ..\\drivers\\hc32_ll_driver\\src\\hc32_ll_dma.c 0x00000000   Number         0  hc32_ll_dma.o ABSOLUTE
    ..\\drivers\\hc32_ll_driver\\src\\hc32_ll_efm.c 0x00000000   Number         0  hc32_ll_efm.o ABSOLUTE
    ..\\drivers\\hc32_ll_driver\\src\\hc32_ll_emb.c 0x00000000   Number         0  hc32_ll_emb.o ABSOLUTE
    ..\\drivers\\hc32_ll_driver\\src\\hc32_ll_event_port.c 0x00000000   Number         0  hc32_ll_event_port.o ABSOLUTE
    ..\\drivers\\hc32_ll_driver\\src\\hc32_ll_fcg.c 0x00000000   Number         0  hc32_ll_fcg.o ABSOLUTE
    ..\\drivers\\hc32_ll_driver\\src\\hc32_ll_fcm.c 0x00000000   Number         0  hc32_ll_fcm.o ABSOLUTE
    ..\\drivers\\hc32_ll_driver\\src\\hc32_ll_fmac.c 0x00000000   Number         0  hc32_ll_fmac.o ABSOLUTE
    ..\\drivers\\hc32_ll_driver\\src\\hc32_ll_gpio.c 0x00000000   Number         0  hc32_ll_gpio.o ABSOLUTE
    ..\\drivers\\hc32_ll_driver\\src\\hc32_ll_hrpwm.c 0x00000000   Number         0  hc32_ll_hrpwm.o ABSOLUTE
    ..\\drivers\\hc32_ll_driver\\src\\hc32_ll_i2c.c 0x00000000   Number         0  hc32_ll_i2c.o ABSOLUTE
    ..\\drivers\\hc32_ll_driver\\src\\hc32_ll_icg.c 0x00000000   Number         0  hc32_ll_icg.o ABSOLUTE
    ..\\drivers\\hc32_ll_driver\\src\\hc32_ll_interrupts.c 0x00000000   Number         0  hc32_ll_interrupts.o ABSOLUTE
    ..\\drivers\\hc32_ll_driver\\src\\hc32_ll_mau.c 0x00000000   Number         0  hc32_ll_mau.o ABSOLUTE
    ..\\drivers\\hc32_ll_driver\\src\\hc32_ll_mcan.c 0x00000000   Number         0  hc32_ll_mcan.o ABSOLUTE
    ..\\drivers\\hc32_ll_driver\\src\\hc32_ll_mpu.c 0x00000000   Number         0  hc32_ll_mpu.o ABSOLUTE
    ..\\drivers\\hc32_ll_driver\\src\\hc32_ll_pla.c 0x00000000   Number         0  hc32_ll_pla.o ABSOLUTE
    ..\\drivers\\hc32_ll_driver\\src\\hc32_ll_pwc.c 0x00000000   Number         0  hc32_ll_pwc.o ABSOLUTE
    ..\\drivers\\hc32_ll_driver\\src\\hc32_ll_rmu.c 0x00000000   Number         0  hc32_ll_rmu.o ABSOLUTE
    ..\\drivers\\hc32_ll_driver\\src\\hc32_ll_rtc.c 0x00000000   Number         0  hc32_ll_rtc.o ABSOLUTE
    ..\\drivers\\hc32_ll_driver\\src\\hc32_ll_smc.c 0x00000000   Number         0  hc32_ll_smc.o ABSOLUTE
    ..\\drivers\\hc32_ll_driver\\src\\hc32_ll_spi.c 0x00000000   Number         0  hc32_ll_spi.o ABSOLUTE
    ..\\drivers\\hc32_ll_driver\\src\\hc32_ll_sram.c 0x00000000   Number         0  hc32_ll_sram.o ABSOLUTE
    ..\\drivers\\hc32_ll_driver\\src\\hc32_ll_swdt.c 0x00000000   Number         0  hc32_ll_swdt.o ABSOLUTE
    ..\\drivers\\hc32_ll_driver\\src\\hc32_ll_tmr0.c 0x00000000   Number         0  hc32_ll_tmr0.o ABSOLUTE
    ..\\drivers\\hc32_ll_driver\\src\\hc32_ll_tmr4.c 0x00000000   Number         0  hc32_ll_tmr4.o ABSOLUTE
    ..\\drivers\\hc32_ll_driver\\src\\hc32_ll_tmr6.c 0x00000000   Number         0  hc32_ll_tmr6.o ABSOLUTE
    ..\\drivers\\hc32_ll_driver\\src\\hc32_ll_tmra.c 0x00000000   Number         0  hc32_ll_tmra.o ABSOLUTE
    ..\\drivers\\hc32_ll_driver\\src\\hc32_ll_usart.c 0x00000000   Number         0  hc32_ll_usart.o ABSOLUTE
    ..\\drivers\\hc32_ll_driver\\src\\hc32_ll_utility.c 0x00000000   Number         0  hc32_ll_utility.o ABSOLUTE
    ..\\drivers\\hc32_ll_driver\\src\\hc32_ll_wdt.c 0x00000000   Number         0  hc32_ll_wdt.o ABSOLUTE
    ..\drivers\bsp\ev_hc32f334_lqfp64\ev_hc32f334_lqfp64.c 0x00000000   Number         0  ev_hc32f334_lqfp64.o ABSOLUTE
    ..\drivers\cmsis\Device\HDSC\hc32f3xx\Source\system_hc32f334.c 0x00000000   Number         0  system_hc32f334.o ABSOLUTE
    ..\drivers\hc32_ll_driver\src\hc32_ll.c  0x00000000   Number         0  hc32_ll.o ABSOLUTE
    ..\drivers\hc32_ll_driver\src\hc32_ll_adc.c 0x00000000   Number         0  hc32_ll_adc.o ABSOLUTE
    ..\drivers\hc32_ll_driver\src\hc32_ll_aes.c 0x00000000   Number         0  hc32_ll_aes.o ABSOLUTE
    ..\drivers\hc32_ll_driver\src\hc32_ll_aos.c 0x00000000   Number         0  hc32_ll_aos.o ABSOLUTE
    ..\drivers\hc32_ll_driver\src\hc32_ll_clk.c 0x00000000   Number         0  hc32_ll_clk.o ABSOLUTE
    ..\drivers\hc32_ll_driver\src\hc32_ll_cmp.c 0x00000000   Number         0  hc32_ll_cmp.o ABSOLUTE
    ..\drivers\hc32_ll_driver\src\hc32_ll_crc.c 0x00000000   Number         0  hc32_ll_crc.o ABSOLUTE
    ..\drivers\hc32_ll_driver\src\hc32_ll_ctc.c 0x00000000   Number         0  hc32_ll_ctc.o ABSOLUTE
    ..\drivers\hc32_ll_driver\src\hc32_ll_dac.c 0x00000000   Number         0  hc32_ll_dac.o ABSOLUTE
    ..\drivers\hc32_ll_driver\src\hc32_ll_dbgc.c 0x00000000   Number         0  hc32_ll_dbgc.o ABSOLUTE
    ..\drivers\hc32_ll_driver\src\hc32_ll_dcu.c 0x00000000   Number         0  hc32_ll_dcu.o ABSOLUTE
    ..\drivers\hc32_ll_driver\src\hc32_ll_dma.c 0x00000000   Number         0  hc32_ll_dma.o ABSOLUTE
    ..\drivers\hc32_ll_driver\src\hc32_ll_efm.c 0x00000000   Number         0  hc32_ll_efm.o ABSOLUTE
    ..\drivers\hc32_ll_driver\src\hc32_ll_emb.c 0x00000000   Number         0  hc32_ll_emb.o ABSOLUTE
    ..\drivers\hc32_ll_driver\src\hc32_ll_event_port.c 0x00000000   Number         0  hc32_ll_event_port.o ABSOLUTE
    ..\drivers\hc32_ll_driver\src\hc32_ll_fcg.c 0x00000000   Number         0  hc32_ll_fcg.o ABSOLUTE
    ..\drivers\hc32_ll_driver\src\hc32_ll_fcm.c 0x00000000   Number         0  hc32_ll_fcm.o ABSOLUTE
    ..\drivers\hc32_ll_driver\src\hc32_ll_fmac.c 0x00000000   Number         0  hc32_ll_fmac.o ABSOLUTE
    ..\drivers\hc32_ll_driver\src\hc32_ll_gpio.c 0x00000000   Number         0  hc32_ll_gpio.o ABSOLUTE
    ..\drivers\hc32_ll_driver\src\hc32_ll_hrpwm.c 0x00000000   Number         0  hc32_ll_hrpwm.o ABSOLUTE
    ..\drivers\hc32_ll_driver\src\hc32_ll_i2c.c 0x00000000   Number         0  hc32_ll_i2c.o ABSOLUTE
    ..\drivers\hc32_ll_driver\src\hc32_ll_icg.c 0x00000000   Number         0  hc32_ll_icg.o ABSOLUTE
    ..\drivers\hc32_ll_driver\src\hc32_ll_interrupts.c 0x00000000   Number         0  hc32_ll_interrupts.o ABSOLUTE
    ..\drivers\hc32_ll_driver\src\hc32_ll_mau.c 0x00000000   Number         0  hc32_ll_mau.o ABSOLUTE
    ..\drivers\hc32_ll_driver\src\hc32_ll_mcan.c 0x00000000   Number         0  hc32_ll_mcan.o ABSOLUTE
    ..\drivers\hc32_ll_driver\src\hc32_ll_mpu.c 0x00000000   Number         0  hc32_ll_mpu.o ABSOLUTE
    ..\drivers\hc32_ll_driver\src\hc32_ll_pla.c 0x00000000   Number         0  hc32_ll_pla.o ABSOLUTE
    ..\drivers\hc32_ll_driver\src\hc32_ll_pwc.c 0x00000000   Number         0  hc32_ll_pwc.o ABSOLUTE
    ..\drivers\hc32_ll_driver\src\hc32_ll_rmu.c 0x00000000   Number         0  hc32_ll_rmu.o ABSOLUTE
    ..\drivers\hc32_ll_driver\src\hc32_ll_rtc.c 0x00000000   Number         0  hc32_ll_rtc.o ABSOLUTE
    ..\drivers\hc32_ll_driver\src\hc32_ll_smc.c 0x00000000   Number         0  hc32_ll_smc.o ABSOLUTE
    ..\drivers\hc32_ll_driver\src\hc32_ll_spi.c 0x00000000   Number         0  hc32_ll_spi.o ABSOLUTE
    ..\drivers\hc32_ll_driver\src\hc32_ll_sram.c 0x00000000   Number         0  hc32_ll_sram.o ABSOLUTE
    ..\drivers\hc32_ll_driver\src\hc32_ll_swdt.c 0x00000000   Number         0  hc32_ll_swdt.o ABSOLUTE
    ..\drivers\hc32_ll_driver\src\hc32_ll_tmr0.c 0x00000000   Number         0  hc32_ll_tmr0.o ABSOLUTE
    ..\drivers\hc32_ll_driver\src\hc32_ll_tmr4.c 0x00000000   Number         0  hc32_ll_tmr4.o ABSOLUTE
    ..\drivers\hc32_ll_driver\src\hc32_ll_tmr6.c 0x00000000   Number         0  hc32_ll_tmr6.o ABSOLUTE
    ..\drivers\hc32_ll_driver\src\hc32_ll_tmra.c 0x00000000   Number         0  hc32_ll_tmra.o ABSOLUTE
    ..\drivers\hc32_ll_driver\src\hc32_ll_usart.c 0x00000000   Number         0  hc32_ll_usart.o ABSOLUTE
    ..\drivers\hc32_ll_driver\src\hc32_ll_utility.c 0x00000000   Number         0  hc32_ll_utility.o ABSOLUTE
    ..\drivers\hc32_ll_driver\src\hc32_ll_wdt.c 0x00000000   Number         0  hc32_ll_wdt.o ABSOLUTE
    dc.s                                     0x00000000   Number         0  dc.o ABSOLUTE
    handlers.s                               0x00000000   Number         0  handlers.o ABSOLUTE
    init.s                                   0x00000000   Number         0  init.o ABSOLUTE
    startup_hc32f334.s                       0x00000000   Number         0  startup_hc32f334.o ABSOLUTE
    .ARM.Collect$$$$00000000                 0x00000288   Section        0  entry.o(.ARM.Collect$$$$00000000)
    .ARM.Collect$$$$00000001                 0x00000288   Section        4  entry2.o(.ARM.Collect$$$$00000001)
    .ARM.Collect$$$$00000004                 0x0000028c   Section        4  entry5.o(.ARM.Collect$$$$00000004)
    .ARM.Collect$$$$00000008                 0x00000290   Section        0  entry7b.o(.ARM.Collect$$$$00000008)
    .ARM.Collect$$$$0000000A                 0x00000290   Section        0  entry8b.o(.ARM.Collect$$$$0000000A)
    .ARM.Collect$$$$0000000B                 0x00000290   Section        8  entry9a.o(.ARM.Collect$$$$0000000B)
    .ARM.Collect$$$$0000000E                 0x00000298   Section        4  entry12b.o(.ARM.Collect$$$$0000000E)
    .ARM.Collect$$$$0000000F                 0x0000029c   Section        0  entry10a.o(.ARM.Collect$$$$0000000F)
    .ARM.Collect$$$$00000011                 0x0000029c   Section        0  entry11a.o(.ARM.Collect$$$$00000011)
    .ARM.Collect$$$$00002712                 0x0000029c   Section        4  entry2.o(.ARM.Collect$$$$00002712)
    __lit__00000000                          0x0000029c   Data           4  entry2.o(.ARM.Collect$$$$00002712)
    .text                                    0x000002a0   Section       36  startup_hc32f334.o(.text)
    $v0                                      0x000002a0   Number         0  startup_hc32f334.o(.text)
    .text                                    0x000002c4   Section        0  uldiv.o(.text)
    .text                                    0x00000326   Section        0  llshl.o(.text)
    .text                                    0x00000344   Section        0  memseta.o(.text)
    .text                                    0x00000368   Section        0  dfltui.o(.text)
    .text                                    0x00000382   Section        0  dfltul.o(.text)
    .text                                    0x0000039a   Section        0  d2f.o(.text)
    .text                                    0x000003d2   Section        0  llushr.o(.text)
    .text                                    0x000003f2   Section        0  iusefp.o(.text)
    i.ADC_SetSampleTime                      0x000003f2   Section        0  hc32_ll_adc.o(i.ADC_SetSampleTime)
    i.BSP_KEY_KEY1_IrqCallback               0x000003fa   Section        0  ev_hc32f334_lqfp64.o(i.BSP_KEY_KEY1_IrqCallback)
    i.BSP_KEY_KEY2_IrqCallback               0x000003fc   Section        0  ev_hc32f334_lqfp64.o(i.BSP_KEY_KEY2_IrqCallback)
    i.BSP_KEY_KEY3_IrqCallback               0x000003fe   Section        0  ev_hc32f334_lqfp64.o(i.BSP_KEY_KEY3_IrqCallback)
    .ARM.__AT_0x00000400                     0x00000400   Section       96  hc32_ll_icg.o(.ARM.__AT_0x00000400)
    .text                                    0x00000460   Section        0  ddiv.o(.text)
    .text                                    0x0000053e   Section        0  fepilogue.o(.text)
    .text                                    0x000005ac   Section        0  depilogue.o(.text)
    .text                                    0x00000668   Section       36  init.o(.text)
    .text                                    0x0000068c   Section        0  __dczerorl2.o(.text)
    i.ADC1_Handler                           0x000006e4   Section        0  main.o(i.ADC1_Handler)
    i.ADC_ChCmd                              0x00000970   Section        0  hc32_ll_adc.o(i.ADC_ChCmd)
    i.ADC_ChRemap                            0x0000098a   Section        0  hc32_ll_adc.o(i.ADC_ChRemap)
    i.ADC_Init                               0x000009b0   Section        0  hc32_ll_adc.o(i.ADC_Init)
    i.ADC_IntCmd                             0x000009cc   Section        0  hc32_ll_adc.o(i.ADC_IntCmd)
    i.ADC_StructInit                         0x000009e0   Section        0  hc32_ll_adc.o(i.ADC_StructInit)
    i.ADC_TriggerCmd                         0x000009f2   Section        0  hc32_ll_adc.o(i.ADC_TriggerCmd)
    i.ADC_TriggerConfig                      0x00000a0a   Section        0  hc32_ll_adc.o(i.ADC_TriggerConfig)
    i.ADCx_Init                              0x00000a28   Section        0  hc32f334_drivers.o(i.ADCx_Init)
    i.AOS_SetTriggerEventSrc                 0x00000bd4   Section        0  hc32_ll_aos.o(i.AOS_SetTriggerEventSrc)
    i.BSP_CLK_Init                           0x00000be0   Section        0  ev_hc32f334_lqfp64.o(i.BSP_CLK_Init)
    i.CLK_PLLCmd                             0x00000c88   Section        0  hc32_ll_clk.o(i.CLK_PLLCmd)
    i.CLK_PLLInit                            0x00000d2c   Section        0  hc32_ll_clk.o(i.CLK_PLLInit)
    i.CLK_PLLStructInit                      0x00000d68   Section        0  hc32_ll_clk.o(i.CLK_PLLStructInit)
    i.CLK_SetClockDiv                        0x00000d9c   Section        0  hc32_ll_clk.o(i.CLK_SetClockDiv)
    i.CLK_SetSysClockSrc                     0x00000e24   Section        0  hc32_ll_clk.o(i.CLK_SetSysClockSrc)
    i.CLK_XtalCmd                            0x00000ea4   Section        0  hc32_ll_clk.o(i.CLK_XtalCmd)
    i.CLK_XtalInit                           0x00000f18   Section        0  hc32_ll_clk.o(i.CLK_XtalInit)
    i.CLK_XtalStructInit                     0x00000f50   Section        0  hc32_ll_clk.o(i.CLK_XtalStructInit)
    i.CMP_CompareOutCmd                      0x00000f6e   Section        0  hc32_ll_cmp.o(i.CMP_CompareOutCmd)
    i.CMP_DelayUS                            0x00000f80   Section        0  hc32_ll_cmp.o(i.CMP_DelayUS)
    CMP_DelayUS                              0x00000f81   Thumb Code   124  hc32_ll_cmp.o(i.CMP_DelayUS)
    i.CMP_NormalModeInit                     0x00001008   Section        0  hc32_ll_cmp.o(i.CMP_NormalModeInit)
    i.CMP_PinVcoutCmd                        0x0000105c   Section        0  hc32_ll_cmp.o(i.CMP_PinVcoutCmd)
    i.CMP_StructInit                         0x0000106e   Section        0  hc32_ll_cmp.o(i.CMP_StructInit)
    i.CalibrationRead                        0x00001088   Section        0  hc32f334_drivers.o(i.CalibrationRead)
    i.CalibrationWrite                       0x00001144   Section        0  hc32f334_drivers.o(i.CalibrationWrite)
    i.ControllerInit                         0x000011c8   Section        0  main.o(i.ControllerInit)
    i.Ctrl_TMR0_Config                       0x00001260   Section        0  hc32f334_drivers.o(i.Ctrl_TMR0_Config)
    i.DAC_ADCPrioCmd                         0x000012a0   Section        0  hc32_ll_dac.o(i.DAC_ADCPrioCmd)
    i.DAC_ADCPrioConfig                      0x000012b2   Section        0  hc32_ll_dac.o(i.DAC_ADCPrioConfig)
    i.DAC_DataRegAlignConfig                 0x000012c2   Section        0  hc32_ll_dac.o(i.DAC_DataRegAlignConfig)
    i.DAC_DeInit                             0x000012d4   Section        0  hc32_ll_dac.o(i.DAC_DeInit)
    i.DAC_Init                               0x0000134c   Section        0  hc32_ll_dac.o(i.DAC_Init)
    i.DAC_OutputCmd                          0x00001386   Section        0  hc32_ll_dac.o(i.DAC_OutputCmd)
    i.DAC_SetChData                          0x000013a0   Section        0  hc32_ll_dac.o(i.DAC_SetChData)
    i.DAC_SetDualChData                      0x000013a8   Section        0  hc32_ll_dac.o(i.DAC_SetDualChData)
    i.DAC_Start                              0x000013b2   Section        0  hc32_ll_dac.o(i.DAC_Start)
    i.DAC_StartDualCh                        0x000013d4   Section        0  hc32_ll_dac.o(i.DAC_StartDualCh)
    i.DAC_StructInit                         0x000013de   Section        0  hc32_ll_dac.o(i.DAC_StructInit)
    i.DACx_ConversionInit                    0x000013f4   Section        0  hc32f334_drivers.o(i.DACx_ConversionInit)
    i.DDL_DelayMS                            0x000014c4   Section        0  hc32_ll_utility.o(i.DDL_DelayMS)
    i.DDL_DelayUS                            0x00001508   Section        0  hc32_ll_utility.o(i.DDL_DelayUS)
    i.DMA_ChCmd                              0x0000154c   Section        0  hc32_ll_dma.o(i.DMA_ChCmd)
    i.DMA_ClearTransCompleteStatus           0x00001560   Section        0  hc32_ll_dma.o(i.DMA_ClearTransCompleteStatus)
    i.DMA_Cmd                                0x00001564   Section        0  hc32_ll_dma.o(i.DMA_Cmd)
    i.DMA_Config                             0x00001568   Section        0  hc32f334_drivers.o(i.DMA_Config)
    i.DMA_GetTransCompleteStatus             0x0000166c   Section        0  hc32_ll_dma.o(i.DMA_GetTransCompleteStatus)
    i.DMA_Init                               0x00001676   Section        0  hc32_ll_dma.o(i.DMA_Init)
    i.DMA_RepeatInit                         0x000016ce   Section        0  hc32_ll_dma.o(i.DMA_RepeatInit)
    i.DMA_RepeatStructInit                   0x0000170c   Section        0  hc32_ll_dma.o(i.DMA_RepeatStructInit)
    i.DMA_SetSrcAddr                         0x00001724   Section        0  hc32_ll_dma.o(i.DMA_SetSrcAddr)
    i.DMA_SetTransCount                      0x0000172e   Section        0  hc32_ll_dma.o(i.DMA_SetTransCount)
    i.DMA_StructInit                         0x0000173e   Section        0  hc32_ll_dma.o(i.DMA_StructInit)
    i.EFM_CacheRamReset                      0x00001764   Section        0  hc32_ll_efm.o(i.EFM_CacheRamReset)
    i.EFM_DCacheCmd                          0x00001770   Section        0  hc32_ll_efm.o(i.EFM_DCacheCmd)
    i.EFM_FWMC_Cmd                           0x0000177c   Section        0  hc32_ll_efm.o(i.EFM_FWMC_Cmd)
    i.EFM_ICacheCmd                          0x000017a4   Section        0  hc32_ll_efm.o(i.EFM_ICacheCmd)
    i.EFM_PrefetchCmd                        0x000017b0   Section        0  hc32_ll_efm.o(i.EFM_PrefetchCmd)
    i.EFM_ProgramWord                        0x000017bc   Section        0  hc32_ll_efm.o(i.EFM_ProgramWord)
    i.EFM_ReadByte                           0x00001848   Section        0  hc32_ll_efm.o(i.EFM_ReadByte)
    i.EFM_SectorErase                        0x000018b8   Section        0  hc32_ll_efm.o(i.EFM_SectorErase)
    i.EFM_SetWaitCycle                       0x00001948   Section        0  hc32_ll_efm.o(i.EFM_SetWaitCycle)
    i.EFM_SingleSectorOperateCmd             0x000019a4   Section        0  hc32_ll_efm.o(i.EFM_SingleSectorOperateCmd)
    i.EFM_WaitFlag                           0x000019cc   Section        0  hc32_ll_efm.o(i.EFM_WaitFlag)
    EFM_WaitFlag                             0x000019cd   Thumb Code    54  hc32_ll_efm.o(i.EFM_WaitFlag)
    i.EMB_ClearStatus                        0x00001a08   Section        0  hc32_ll_emb.o(i.EMB_ClearStatus)
    i.EMB_HRPWM_Init                         0x00001a0c   Section        0  hc32_ll_emb.o(i.EMB_HRPWM_Init)
    i.EMB_HRPWM_StructInit                   0x00001b42   Section        0  hc32_ll_emb.o(i.EMB_HRPWM_StructInit)
    i.EMB_Init                               0x00001bb4   Section        0  hc32f334_drivers.o(i.EMB_Init)
    i.EMB_SetReleasePwmCond                  0x00001cec   Section        0  hc32_ll_emb.o(i.EMB_SetReleasePwmCond)
    i.EXTINT00_SWINT16_Handler               0x00001cfc   Section        0  ev_hc32f334_lqfp64.o(i.EXTINT00_SWINT16_Handler)
    i.EXTINT03_SWINT19_Handler               0x00001d2c   Section        0  ev_hc32f334_lqfp64.o(i.EXTINT03_SWINT19_Handler)
    i.EXTINT09_SWINT25_Handler               0x00001d5c   Section        0  ev_hc32f334_lqfp64.o(i.EXTINT09_SWINT25_Handler)
    i.EXTINT_ClearExtIntStatus               0x00001d90   Section        0  hc32_ll_interrupts.o(i.EXTINT_ClearExtIntStatus)
    i.FCG_Fcg0PeriphClockCmd                 0x00001d9c   Section        0  hc32_ll_fcg.o(i.FCG_Fcg0PeriphClockCmd)
    i.FCG_Fcg2PeriphClockCmd                 0x00001db4   Section        0  hc32_ll_fcg.o(i.FCG_Fcg2PeriphClockCmd)
    i.FCG_Fcg3PeriphClockCmd                 0x00001dcc   Section        0  hc32_ll_fcg.o(i.FCG_Fcg3PeriphClockCmd)
    i.GPIO_AnalogCmd                         0x00001de4   Section        0  hc32_ll_gpio.o(i.GPIO_AnalogCmd)
    i.GPIO_HrpwmPinCmd                       0x00001e24   Section        0  hc32_ll_gpio.o(i.GPIO_HrpwmPinCmd)
    i.GPIO_Init                              0x00001e3c   Section        0  hc32_ll_gpio.o(i.GPIO_Init)
    i.GPIO_ReadInputPins                     0x00001ee8   Section        0  hc32_ll_gpio.o(i.GPIO_ReadInputPins)
    i.GPIO_ResetPins                         0x00001f00   Section        0  hc32_ll_gpio.o(i.GPIO_ResetPins)
    i.GPIO_SetDebugPort                      0x00001f14   Section        0  hc32_ll_gpio.o(i.GPIO_SetDebugPort)
    i.GPIO_SetFunc                           0x00001f30   Section        0  hc32_ll_gpio.o(i.GPIO_SetFunc)
    i.GPIO_SetPins                           0x00001f68   Section        0  hc32_ll_gpio.o(i.GPIO_SetPins)
    i.GPIO_SetReadWaitCycle                  0x00001f7c   Section        0  hc32_ll_gpio.o(i.GPIO_SetReadWaitCycle)
    i.GPIO_StructInit                        0x00001f94   Section        0  hc32_ll_gpio.o(i.GPIO_StructInit)
    i.GPIO_TogglePins                        0x00001fc0   Section        0  hc32_ll_gpio.o(i.GPIO_TogglePins)
    i.Gpio_Init                              0x00001fd4   Section        0  hc32f334_drivers.o(i.Gpio_Init)
    i.HRPWM_BufStructInit                    0x00002180   Section        0  hc32_ll_hrpwm.o(i.HRPWM_BufStructInit)
    i.HRPWM_CALIB_ProcessSingle              0x00002194   Section        0  hc32_ll_hrpwm.o(i.HRPWM_CALIB_ProcessSingle)
    i.HRPWM_DeInit                           0x00002230   Section        0  hc32_ll_hrpwm.o(i.HRPWM_DeInit)
    i.HRPWM_DeadTimeBufConfig                0x00002360   Section        0  hc32_ll_hrpwm.o(i.HRPWM_DeadTimeBufConfig)
    i.HRPWM_DeadTimeConfig                   0x000023a2   Section        0  hc32_ll_hrpwm.o(i.HRPWM_DeadTimeConfig)
    i.HRPWM_DeadTimeStructInit               0x000023ca   Section        0  hc32_ll_hrpwm.o(i.HRPWM_DeadTimeStructInit)
    i.HRPWM_EMB_ChAConfig                    0x000023dc   Section        0  hc32_ll_hrpwm.o(i.HRPWM_EMB_ChAConfig)
    i.HRPWM_EMB_ChBConfig                    0x00002404   Section        0  hc32_ll_hrpwm.o(i.HRPWM_EMB_ChBConfig)
    i.HRPWM_EMB_StructInit                   0x0000242c   Section        0  hc32_ll_hrpwm.o(i.HRPWM_EMB_StructInit)
    i.HRPWM_GeneralAEBufConfig               0x0000243e   Section        0  hc32_ll_hrpwm.o(i.HRPWM_GeneralAEBufConfig)
    i.HRPWM_GeneralBFBufConfig               0x00002480   Section        0  hc32_ll_hrpwm.o(i.HRPWM_GeneralBFBufConfig)
    i.HRPWM_IDLE_BM_Init                     0x000024c4   Section        0  hc32_ll_hrpwm.o(i.HRPWM_IDLE_BM_Init)
    i.HRPWM_IDLE_BM_OutputInit               0x00002520   Section        0  hc32_ll_hrpwm.o(i.HRPWM_IDLE_BM_OutputInit)
    i.HRPWM_IDLE_BM_OutputStructInit         0x000025a0   Section        0  hc32_ll_hrpwm.o(i.HRPWM_IDLE_BM_OutputStructInit)
    i.HRPWM_IDLE_BM_StructInit               0x000025b8   Section        0  hc32_ll_hrpwm.o(i.HRPWM_IDLE_BM_StructInit)
    i.HRPWM_IDLE_DELAY_Init                  0x000025d4   Section        0  hc32_ll_hrpwm.o(i.HRPWM_IDLE_DELAY_Init)
    i.HRPWM_IDLE_DELAY_StructInit            0x0000261c   Section        0  hc32_ll_hrpwm.o(i.HRPWM_IDLE_DELAY_StructInit)
    i.HRPWM_Init                             0x00002630   Section        0  hc32_ll_hrpwm.o(i.HRPWM_Init)
    i.HRPWM_PH_Config                        0x0000264a   Section        0  hc32_ll_hrpwm.o(i.HRPWM_PH_Config)
    i.HRPWM_PH_StructInit                    0x0000267a   Section        0  hc32_ll_hrpwm.o(i.HRPWM_PH_StructInit)
    i.HRPWM_PWM_ChAInit                      0x0000268e   Section        0  hc32_ll_hrpwm.o(i.HRPWM_PWM_ChAInit)
    i.HRPWM_PWM_ChBInit                      0x00002712   Section        0  hc32_ll_hrpwm.o(i.HRPWM_PWM_ChBInit)
    i.HRPWM_PWM_StructInit                   0x00002798   Section        0  hc32_ll_hrpwm.o(i.HRPWM_PWM_StructInit)
    i.HRPWM_PeriodBufConfig                  0x000027cc   Section        0  hc32_ll_hrpwm.o(i.HRPWM_PeriodBufConfig)
    i.HRPWM_SpecialABufConfig                0x0000280e   Section        0  hc32_ll_hrpwm.o(i.HRPWM_SpecialABufConfig)
    i.HRPWM_SpecialBBufConfig                0x00002850   Section        0  hc32_ll_hrpwm.o(i.HRPWM_SpecialBBufConfig)
    i.HRPWM_StructInit                       0x00002894   Section        0  hc32_ll_hrpwm.o(i.HRPWM_StructInit)
    i.HRTIM_BM_Conf                          0x000028b0   Section        0  hrtimer.o(i.HRTIM_BM_Conf)
    i.HRTIM_Config                           0x0000297c   Section        0  hrtimer.o(i.HRTIM_Config)
    i.HRTIM_IDLE_Conf                        0x00003484   Section        0  hrtimer.o(i.HRTIM_IDLE_Conf)
    i.IRQ000_Handler                         0x000035dc   Section        0  hc32_ll_interrupts.o(i.IRQ000_Handler)
    i.IRQ001_Handler                         0x000035f0   Section        0  hc32_ll_interrupts.o(i.IRQ001_Handler)
    i.IRQ002_Handler                         0x00003604   Section        0  hc32_ll_interrupts.o(i.IRQ002_Handler)
    i.IRQ003_Handler                         0x00003618   Section        0  hc32_ll_interrupts.o(i.IRQ003_Handler)
    i.IRQ004_Handler                         0x0000362c   Section        0  hc32_ll_interrupts.o(i.IRQ004_Handler)
    i.IRQ005_Handler                         0x00003640   Section        0  hc32_ll_interrupts.o(i.IRQ005_Handler)
    i.IRQ006_Handler                         0x00003654   Section        0  hc32_ll_interrupts.o(i.IRQ006_Handler)
    i.IRQ007_Handler                         0x00003668   Section        0  hc32_ll_interrupts.o(i.IRQ007_Handler)
    i.IRQ008_Handler                         0x0000367c   Section        0  hc32_ll_interrupts.o(i.IRQ008_Handler)
    i.IRQ009_Handler                         0x00003690   Section        0  hc32_ll_interrupts.o(i.IRQ009_Handler)
    i.IRQ010_Handler                         0x000036a4   Section        0  hc32_ll_interrupts.o(i.IRQ010_Handler)
    i.IRQ011_Handler                         0x000036b8   Section        0  hc32_ll_interrupts.o(i.IRQ011_Handler)
    i.IRQ012_Handler                         0x000036cc   Section        0  hc32_ll_interrupts.o(i.IRQ012_Handler)
    i.IRQ013_Handler                         0x000036e0   Section        0  hc32_ll_interrupts.o(i.IRQ013_Handler)
    i.IRQ014_Handler                         0x000036f4   Section        0  hc32_ll_interrupts.o(i.IRQ014_Handler)
    i.IRQ015_Handler                         0x00003708   Section        0  hc32_ll_interrupts.o(i.IRQ015_Handler)
    i.Inter2Asciix                           0x0000371c   Section        0  main.o(i.Inter2Asciix)
    i.LLC_CTRL_Loop                          0x000037e4   Section        0  ctrl_lib.o(i.LLC_CTRL_Loop)
    i.LLC_CmpConfig                          0x00003a7c   Section        0  hc32f334_drivers.o(i.LLC_CmpConfig)
    i.LL_PERIPH_WE                           0x00003b28   Section        0  hc32_ll.o(i.LL_PERIPH_WE)
    i.LedDriverMang                          0x00003bbc   Section        0  main.o(i.LedDriverMang)
    i.LogoDataUpdate                         0x00003ce0   Section        0  main.o(i.LogoDataUpdate)
    i.SwFualtCheck                           0x00003e80   Section        0  main.o(i.SwFualtCheck)
    i.SysStateMachineMag                     0x00004098   Section        0  main.o(i.SysStateMachineMag)
    i.SystemCoreClockUpdate                  0x000041fc   Section        0  system_hc32f334.o(i.SystemCoreClockUpdate)
    i.SystemInit                             0x00004298   Section        0  system_hc32f334.o(i.SystemInit)
    i.TMR0_Init                              0x000042b8   Section        0  hc32_ll_tmr0.o(i.TMR0_Init)
    i.TMR0_Start                             0x0000431c   Section        0  hc32_ll_tmr0.o(i.TMR0_Start)
    i.TMR0_StructInit                        0x00004330   Section        0  hc32_ll_tmr0.o(i.TMR0_StructInit)
    i.TMR0_WaitSyncDone                      0x00004350   Section        0  hc32_ll_tmr0.o(i.TMR0_WaitSyncDone)
    TMR0_WaitSyncDone                        0x00004351   Thumb Code    82  hc32_ll_tmr0.o(i.TMR0_WaitSyncDone)
    i.TMR6_1_SCmp_Handler                    0x000043ac   Section        0  hrtimer.o(i.TMR6_1_SCmp_Handler)
    i.TMR6_2_IrqHandler                      0x000043d4   Section        0  hrtimer.o(i.TMR6_2_IrqHandler)
    i.TMR6_IrqHandler                        0x0000440c   Section        0  hrtimer.o(i.TMR6_IrqHandler)
    i.TMRA_Init                              0x00004440   Section        0  hc32_ll_tmra.o(i.TMRA_Init)
    i.TMRA_PWM_Init                          0x00004476   Section        0  hc32_ll_tmra.o(i.TMRA_PWM_Init)
    i.TMRA_PWM_OutputCmd                     0x000044b2   Section        0  hc32_ll_tmra.o(i.TMRA_PWM_OutputCmd)
    i.TMRA_PWM_StructInit                    0x000044c4   Section        0  hc32_ll_tmra.o(i.TMRA_PWM_StructInit)
    i.TMRA_SetCompareValue                   0x000044e2   Section        0  hc32_ll_tmra.o(i.TMRA_SetCompareValue)
    i.TMRA_Start                             0x000044ea   Section        0  hc32_ll_tmra.o(i.TMRA_Start)
    i.TMRA_StructInit                        0x000044f8   Section        0  hc32_ll_tmra.o(i.TMRA_StructInit)
    i.TemperatureBaseLookUpTable             0x00004518   Section        0  hc32f334_drivers.o(i.TemperatureBaseLookUpTable)
    i.TmrAConfig                             0x00004564   Section        0  hc32f334_drivers.o(i.TmrAConfig)
    i.USART2Config                           0x000045f8   Section        0  hc32f334_drivers.o(i.USART2Config)
    i.USART_FuncCmd                          0x00004634   Section        0  hc32_ll_usart.o(i.USART_FuncCmd)
    i.USART_SetBaudrate                      0x0000466c   Section        0  hc32_ll_usart.o(i.USART_SetBaudrate)
    i.USART_UART_Init                        0x00004b0a   Section        0  hc32_ll_usart.o(i.USART_UART_Init)
    i.USART_UART_StructInit                  0x00004b64   Section        0  hc32_ll_usart.o(i.USART_UART_StructInit)
    i.Usart2_TxEnable                        0x00004b90   Section        0  hc32f334_drivers.o(i.Usart2_TxEnable)
    i.WDT_Config                             0x00004bcc   Section        0  hc32f334_drivers.o(i.WDT_Config)
    i.WDT_FeedDog                            0x00004bf4   Section        0  hc32_ll_wdt.o(i.WDT_FeedDog)
    i.WDT_Init                               0x00004c08   Section        0  hc32_ll_wdt.o(i.WDT_Init)
    i.__scatterload_copy                     0x00004c4c   Section       14  handlers.o(i.__scatterload_copy)
    i.__scatterload_null                     0x00004c5a   Section        2  handlers.o(i.__scatterload_null)
    i.__scatterload_zeroinit                 0x00004c5c   Section       14  handlers.o(i.__scatterload_zeroinit)
    i.main                                   0x00004c6c   Section        0  main.o(i.main)
    .constdata                               0x000051cc   Section        8  hc32_ll_dac.o(.constdata)
    .constdata                               0x000051d4   Section       32  hc32_ll_usart.o(.constdata)
    .constdata                               0x000051f4   Section      322  hc32f334_drivers.o(.constdata)
    .bss.noinit                              0x1fffc000   Section        8  system_hc32f334.o(.bss.noinit)
    .data                                    0x1fffc008   Section      232  main.o(.data)
    s16VoutOvpTimes                          0x1fffc028   Data           2  main.o(.data)
    s16VoutOcpTimes                          0x1fffc02a   Data           2  main.o(.data)
    s16VinOvpTimes                           0x1fffc02c   Data           2  main.o(.data)
    s16VinUvpTimes                           0x1fffc02e   Data           2  main.o(.data)
    s16VinOvpRecoverTimes                    0x1fffc030   Data           2  main.o(.data)
    s16Temp1OTPTimes                         0x1fffc032   Data           2  main.o(.data)
    s16Temp2OTPTimes                         0x1fffc034   Data           2  main.o(.data)
    s16Temp1OTPRecoverTimes                  0x1fffc036   Data           2  main.o(.data)
    s16Temp2OTPRecoverTimes                  0x1fffc038   Data           2  main.o(.data)
    u16StartCnt                              0x1fffc03a   Data           2  main.o(.data)
    u16RelayDelayCnt                         0x1fffc03c   Data           2  main.o(.data)
    u16LedCnt                                0x1fffc03e   Data           2  main.o(.data)
    u16LedPrd                                0x1fffc040   Data           2  main.o(.data)
    u16FANCnt                                0x1fffc042   Data           2  main.o(.data)
    u16FANDuty_MAN                           0x1fffc044   Data           2  main.o(.data)
    u16FinalTemp                             0x1fffc046   Data           2  main.o(.data)
    u16FanSpeedPre                           0x1fffc048   Data           2  main.o(.data)
    .data                                    0x1fffc0f0   Section        8  hrtimer.o(.data)
    .data                                    0x1fffc0f8   Section        4  ev_hc32f334_lqfp64.o(.data)
    m_u32GlobalKey                           0x1fffc0f8   Data           4  ev_hc32f334_lqfp64.o(.data)
    .data                                    0x1fffc0fc   Section      128  hc32f334_drivers.o(.data)
    .data                                    0x1fffc17c   Section        4  ctrl_lib.o(.data)
    .data                                    0x1fffc180   Section       84  ctrl_lib.o(.data)
    .data                                    0x1fffc1d4   Section        4  ctrl_lib.o(.data)
    .data                                    0x1fffc1d8   Section        4  ctrl_lib.o(.data)
    .data                                    0x1fffc1dc   Section        4  ctrl_lib.o(.data)
    .data                                    0x1fffc1e0   Section        4  ctrl_lib.o(.data)
    .data                                    0x1fffc1e4   Section        4  ctrl_lib.o(.data)
    .data                                    0x1fffc1e8   Section        4  ctrl_lib.o(.data)
    .data                                    0x1fffc1ec   Section        4  ctrl_lib.o(.data)
    .data                                    0x1fffc1f0   Section        2  ctrl_lib.o(.data)
    .data                                    0x1fffc1f4   Section        4  ctrl_lib.o(.data)
    .bss                                     0x1fffc1f8   Section       64  hc32_ll_interrupts.o(.bss)
    m_apfnIrqHandler                         0x1fffc1f8   Data          64  hc32_ll_interrupts.o(.bss)
    .bss                                     0x1fffc238   Section       64  hc32f334_drivers.o(.bss)
    .bss                                     0x1fffc278   Section      112  ctrl_lib.o(.bss)
    STACK                                    0x1fffc2e8   Section     3072  startup_hc32f334.o(STACK)

    Global Symbols

    Symbol Name                              Value     Ov Type        Size  Object(Section)

    BuildAttributes$$THM_ISAv4$E$P$D$K$B$S$7EM$VFPi3$EXTD16$VFPS$VFMA$PE$A:L22UL41UL21$X:L11$S22US41US21$IEEE1$IW$USESV6$~STKCKD$USESV7$~SHL$OTIME$ROPI$EBA8$MICROLIB$REQ8$PRES8$EABIv2 0x00000000   Number         0  anon$$obj.o ABSOLUTE
    __ARM_use_no_argv                        0x00000000   Number         0  main.o ABSOLUTE
    __Vectors                                0x00000000   Data           4  startup_hc32f334.o(RESET)
    __arm_fini_                               - Undefined Weak Reference
    __cpp_initialize__aeabi_                  - Undefined Weak Reference
    __cxa_finalize                            - Undefined Weak Reference
    _clock_init                               - Undefined Weak Reference
    _microlib_exit                            - Undefined Weak Reference
    __Vectors_End                            0x00000288   Data           0  startup_hc32f334.o(RESET)
    __Vectors_Size                           0x00000288   Number         0  startup_hc32f334.o ABSOLUTE
    __main                                   0x00000289   Thumb Code     0  entry.o(.ARM.Collect$$$$00000000)
    _main_stk                                0x00000289   Thumb Code     0  entry2.o(.ARM.Collect$$$$00000001)
    _main_scatterload                        0x0000028d   Thumb Code     0  entry5.o(.ARM.Collect$$$$00000004)
    __main_after_scatterload                 0x00000291   Thumb Code     0  entry5.o(.ARM.Collect$$$$00000004)
    _main_clock                              0x00000291   Thumb Code     0  entry7b.o(.ARM.Collect$$$$00000008)
    _main_cpp_init                           0x00000291   Thumb Code     0  entry8b.o(.ARM.Collect$$$$0000000A)
    _main_init                               0x00000291   Thumb Code     0  entry9a.o(.ARM.Collect$$$$0000000B)
    __rt_lib_shutdown_fini                   0x00000299   Thumb Code     0  entry12b.o(.ARM.Collect$$$$0000000E)
    __rt_final_cpp                           0x0000029d   Thumb Code     0  entry10a.o(.ARM.Collect$$$$0000000F)
    __rt_final_exit                          0x0000029d   Thumb Code     0  entry11a.o(.ARM.Collect$$$$00000011)
    Reset_Handler                            0x000002a1   Thumb Code     8  startup_hc32f334.o(.text)
    NMI_Handler                              0x000002a9   Thumb Code     2  startup_hc32f334.o(.text)
    HardFault_Handler                        0x000002ab   Thumb Code     2  startup_hc32f334.o(.text)
    MemManage_Handler                        0x000002ad   Thumb Code     2  startup_hc32f334.o(.text)
    BusFault_Handler                         0x000002af   Thumb Code     2  startup_hc32f334.o(.text)
    UsageFault_Handler                       0x000002b1   Thumb Code     2  startup_hc32f334.o(.text)
    SVC_Handler                              0x000002b3   Thumb Code     2  startup_hc32f334.o(.text)
    DebugMon_Handler                         0x000002b5   Thumb Code     2  startup_hc32f334.o(.text)
    PendSV_Handler                           0x000002b7   Thumb Code     2  startup_hc32f334.o(.text)
    SysTick_Handler                          0x000002b9   Thumb Code     2  startup_hc32f334.o(.text)
    ADC2_Handler                             0x000002bb   Thumb Code     0  startup_hc32f334.o(.text)
    ADC3_Handler                             0x000002bb   Thumb Code     0  startup_hc32f334.o(.text)
    CLK_XtalStop_Handler                     0x000002bb   Thumb Code     0  startup_hc32f334.o(.text)
    CMP1_Handler                             0x000002bb   Thumb Code     0  startup_hc32f334.o(.text)
    CMP2_Handler                             0x000002bb   Thumb Code     0  startup_hc32f334.o(.text)
    CMP3_Handler                             0x000002bb   Thumb Code     0  startup_hc32f334.o(.text)
    CTC_Handler                              0x000002bb   Thumb Code     0  startup_hc32f334.o(.text)
    DMA_Error_Handler                        0x000002bb   Thumb Code     0  startup_hc32f334.o(.text)
    DMA_TC0_BTC0_Handler                     0x000002bb   Thumb Code     0  startup_hc32f334.o(.text)
    DMA_TC1_BTC1_Handler                     0x000002bb   Thumb Code     0  startup_hc32f334.o(.text)
    DMA_TC2_BTC2_Handler                     0x000002bb   Thumb Code     0  startup_hc32f334.o(.text)
    DMA_TC3_BTC3_Handler                     0x000002bb   Thumb Code     0  startup_hc32f334.o(.text)
    DMA_TC4_BTC4_Handler                     0x000002bb   Thumb Code     0  startup_hc32f334.o(.text)
    DMA_TC5_BTC5_Handler                     0x000002bb   Thumb Code     0  startup_hc32f334.o(.text)
    DMA_TC6_BTC6_Handler                     0x000002bb   Thumb Code     0  startup_hc32f334.o(.text)
    DMA_TC7_BTC7_Handler                     0x000002bb   Thumb Code     0  startup_hc32f334.o(.text)
    EFM_OpEnd_Handler                        0x000002bb   Thumb Code     0  startup_hc32f334.o(.text)
    EFM_PEError_ReadCol_Handler              0x000002bb   Thumb Code     0  startup_hc32f334.o(.text)
    EMB_GR0_Handler                          0x000002bb   Thumb Code     0  startup_hc32f334.o(.text)
    EMB_GR1_Handler                          0x000002bb   Thumb Code     0  startup_hc32f334.o(.text)
    EMB_GR2_Handler                          0x000002bb   Thumb Code     0  startup_hc32f334.o(.text)
    EMB_GR3_Handler                          0x000002bb   Thumb Code     0  startup_hc32f334.o(.text)
    EMB_GR4_Handler                          0x000002bb   Thumb Code     0  startup_hc32f334.o(.text)
    EMB_GR5_Handler                          0x000002bb   Thumb Code     0  startup_hc32f334.o(.text)
    EMB_GR6_Handler                          0x000002bb   Thumb Code     0  startup_hc32f334.o(.text)
    EMB_GR7_Handler                          0x000002bb   Thumb Code     0  startup_hc32f334.o(.text)
    EMB_GR8_Handler                          0x000002bb   Thumb Code     0  startup_hc32f334.o(.text)
    EVENT_PORT1_Handler                      0x000002bb   Thumb Code     0  startup_hc32f334.o(.text)
    EVENT_PORT2_Handler                      0x000002bb   Thumb Code     0  startup_hc32f334.o(.text)
    EVENT_PORT3_Handler                      0x000002bb   Thumb Code     0  startup_hc32f334.o(.text)
    EVENT_PORT4_Handler                      0x000002bb   Thumb Code     0  startup_hc32f334.o(.text)
    EXTINT01_SWINT17_Handler                 0x000002bb   Thumb Code     0  startup_hc32f334.o(.text)
    EXTINT02_SWINT18_Handler                 0x000002bb   Thumb Code     0  startup_hc32f334.o(.text)
    EXTINT04_SWINT20_Handler                 0x000002bb   Thumb Code     0  startup_hc32f334.o(.text)
    EXTINT05_SWINT21_Handler                 0x000002bb   Thumb Code     0  startup_hc32f334.o(.text)
    EXTINT06_SWINT22_Handler                 0x000002bb   Thumb Code     0  startup_hc32f334.o(.text)
    EXTINT07_SWINT23_Handler                 0x000002bb   Thumb Code     0  startup_hc32f334.o(.text)
    EXTINT08_SWINT24_Handler                 0x000002bb   Thumb Code     0  startup_hc32f334.o(.text)
    EXTINT10_SWINT26_Handler                 0x000002bb   Thumb Code     0  startup_hc32f334.o(.text)
    EXTINT11_SWINT27_Handler                 0x000002bb   Thumb Code     0  startup_hc32f334.o(.text)
    EXTINT12_SWINT28_Handler                 0x000002bb   Thumb Code     0  startup_hc32f334.o(.text)
    EXTINT13_SWINT29_Handler                 0x000002bb   Thumb Code     0  startup_hc32f334.o(.text)
    EXTINT14_SWINT30_Handler                 0x000002bb   Thumb Code     0  startup_hc32f334.o(.text)
    EXTINT15_SWINT31_Handler                 0x000002bb   Thumb Code     0  startup_hc32f334.o(.text)
    FCM_Handler                              0x000002bb   Thumb Code     0  startup_hc32f334.o(.text)
    FPU_Error_Handler                        0x000002bb   Thumb Code     0  startup_hc32f334.o(.text)
    HRPWM_1_GCap_Handler                     0x000002bb   Thumb Code     0  startup_hc32f334.o(.text)
    HRPWM_1_GCmp_Handler                     0x000002bb   Thumb Code     0  startup_hc32f334.o(.text)
    HRPWM_1_Ovf_Udf_Handler                  0x000002bb   Thumb Code     0  startup_hc32f334.o(.text)
    HRPWM_1_SCmp_Handler                     0x000002bb   Thumb Code     0  startup_hc32f334.o(.text)
    HRPWM_2_GCap_Handler                     0x000002bb   Thumb Code     0  startup_hc32f334.o(.text)
    HRPWM_2_GCmp_Handler                     0x000002bb   Thumb Code     0  startup_hc32f334.o(.text)
    HRPWM_2_Ovf_Udf_Handler                  0x000002bb   Thumb Code     0  startup_hc32f334.o(.text)
    HRPWM_2_SCmp_Handler                     0x000002bb   Thumb Code     0  startup_hc32f334.o(.text)
    HRPWM_3_GCap_Handler                     0x000002bb   Thumb Code     0  startup_hc32f334.o(.text)
    HRPWM_3_GCmp_Handler                     0x000002bb   Thumb Code     0  startup_hc32f334.o(.text)
    HRPWM_3_Ovf_Udf_Handler                  0x000002bb   Thumb Code     0  startup_hc32f334.o(.text)
    HRPWM_3_SCmp_Handler                     0x000002bb   Thumb Code     0  startup_hc32f334.o(.text)
    HRPWM_4_GCap_Handler                     0x000002bb   Thumb Code     0  startup_hc32f334.o(.text)
    HRPWM_4_GCmp_Handler                     0x000002bb   Thumb Code     0  startup_hc32f334.o(.text)
    HRPWM_4_Ovf_Udf_Handler                  0x000002bb   Thumb Code     0  startup_hc32f334.o(.text)
    HRPWM_4_SCmp_Handler                     0x000002bb   Thumb Code     0  startup_hc32f334.o(.text)
    HRPWM_5_GCap_Handler                     0x000002bb   Thumb Code     0  startup_hc32f334.o(.text)
    HRPWM_5_GCmp_Handler                     0x000002bb   Thumb Code     0  startup_hc32f334.o(.text)
    HRPWM_5_Ovf_Udf_Handler                  0x000002bb   Thumb Code     0  startup_hc32f334.o(.text)
    HRPWM_5_SCmp_Handler                     0x000002bb   Thumb Code     0  startup_hc32f334.o(.text)
    HRPWM_6_GCap_Handler                     0x000002bb   Thumb Code     0  startup_hc32f334.o(.text)
    HRPWM_6_GCmp_Handler                     0x000002bb   Thumb Code     0  startup_hc32f334.o(.text)
    HRPWM_6_Ovf_Udf_Handler                  0x000002bb   Thumb Code     0  startup_hc32f334.o(.text)
    HRPWM_6_SCmp_Handler                     0x000002bb   Thumb Code     0  startup_hc32f334.o(.text)
    HRPWM_Handler                            0x000002bb   Thumb Code     0  startup_hc32f334.o(.text)
    I2C_Handler                              0x000002bb   Thumb Code     0  startup_hc32f334.o(.text)
    MCAN1_INT0_Handler                       0x000002bb   Thumb Code     0  startup_hc32f334.o(.text)
    MCAN1_INT1_Handler                       0x000002bb   Thumb Code     0  startup_hc32f334.o(.text)
    MCAN2_INT0_Handler                       0x000002bb   Thumb Code     0  startup_hc32f334.o(.text)
    MCAN2_INT1_Handler                       0x000002bb   Thumb Code     0  startup_hc32f334.o(.text)
    MCANRAM_ECCError_Handler                 0x000002bb   Thumb Code     0  startup_hc32f334.o(.text)
    PLA_Handler                              0x000002bb   Thumb Code     0  startup_hc32f334.o(.text)
    PWC_LVD1_Handler                         0x000002bb   Thumb Code     0  startup_hc32f334.o(.text)
    PWC_LVD2_Handler                         0x000002bb   Thumb Code     0  startup_hc32f334.o(.text)
    PWC_WKTM_Handler                         0x000002bb   Thumb Code     0  startup_hc32f334.o(.text)
    RTC_Handler                              0x000002bb   Thumb Code     0  startup_hc32f334.o(.text)
    SPI_Handler                              0x000002bb   Thumb Code     0  startup_hc32f334.o(.text)
    SWDT_Handler                             0x000002bb   Thumb Code     0  startup_hc32f334.o(.text)
    TMR0_1_Handler                           0x000002bb   Thumb Code     0  startup_hc32f334.o(.text)
    TMR0_2_Handler                           0x000002bb   Thumb Code     0  startup_hc32f334.o(.text)
    TMR4_GCmp_Handler                        0x000002bb   Thumb Code     0  startup_hc32f334.o(.text)
    TMR4_Ovf_Udf_Handler                     0x000002bb   Thumb Code     0  startup_hc32f334.o(.text)
    TMR4_Reload_Handler                      0x000002bb   Thumb Code     0  startup_hc32f334.o(.text)
    TMR4_SCmp_Handler                        0x000002bb   Thumb Code     0  startup_hc32f334.o(.text)
    TMR6_1_Dte_Handler                       0x000002bb   Thumb Code     0  startup_hc32f334.o(.text)
    TMR6_1_GCmp_Handler                      0x000002bb   Thumb Code     0  startup_hc32f334.o(.text)
    TMR6_1_Ovf_Udf_Handler                   0x000002bb   Thumb Code     0  startup_hc32f334.o(.text)
    TMR6_2_Dte_Handler                       0x000002bb   Thumb Code     0  startup_hc32f334.o(.text)
    TMR6_2_GCmp_Handler                      0x000002bb   Thumb Code     0  startup_hc32f334.o(.text)
    TMR6_2_Ovf_Udf_Handler                   0x000002bb   Thumb Code     0  startup_hc32f334.o(.text)
    TMR6_2_SCmp_Handler                      0x000002bb   Thumb Code     0  startup_hc32f334.o(.text)
    TMR6_3_Dte_Handler                       0x000002bb   Thumb Code     0  startup_hc32f334.o(.text)
    TMR6_3_GCmp_Handler                      0x000002bb   Thumb Code     0  startup_hc32f334.o(.text)
    TMR6_3_Ovf_Udf_Handler                   0x000002bb   Thumb Code     0  startup_hc32f334.o(.text)
    TMR6_3_SCmp_Handler                      0x000002bb   Thumb Code     0  startup_hc32f334.o(.text)
    TMR6_4_Dte_Handler                       0x000002bb   Thumb Code     0  startup_hc32f334.o(.text)
    TMR6_4_GCmp_Handler                      0x000002bb   Thumb Code     0  startup_hc32f334.o(.text)
    TMR6_4_Ovf_Udf_Handler                   0x000002bb   Thumb Code     0  startup_hc32f334.o(.text)
    TMR6_4_SCmp_Handler                      0x000002bb   Thumb Code     0  startup_hc32f334.o(.text)
    TMRA_1_Cmp_Handler                       0x000002bb   Thumb Code     0  startup_hc32f334.o(.text)
    TMRA_1_Ovf_Udf_Handler                   0x000002bb   Thumb Code     0  startup_hc32f334.o(.text)
    TMRA_2_Cmp_Handler                       0x000002bb   Thumb Code     0  startup_hc32f334.o(.text)
    TMRA_2_Ovf_Udf_Handler                   0x000002bb   Thumb Code     0  startup_hc32f334.o(.text)
    TMRA_3_Cmp_Handler                       0x000002bb   Thumb Code     0  startup_hc32f334.o(.text)
    TMRA_3_Ovf_Udf_Handler                   0x000002bb   Thumb Code     0  startup_hc32f334.o(.text)
    TMRA_4_Cmp_Handler                       0x000002bb   Thumb Code     0  startup_hc32f334.o(.text)
    TMRA_4_Ovf_Udf_Handler                   0x000002bb   Thumb Code     0  startup_hc32f334.o(.text)
    TMRA_5_Cmp_Handler                       0x000002bb   Thumb Code     0  startup_hc32f334.o(.text)
    TMRA_5_Ovf_Udf_Handler                   0x000002bb   Thumb Code     0  startup_hc32f334.o(.text)
    USART1_Handler                           0x000002bb   Thumb Code     0  startup_hc32f334.o(.text)
    USART1_TCI_Handler                       0x000002bb   Thumb Code     0  startup_hc32f334.o(.text)
    USART1_WKUP_Handler                      0x000002bb   Thumb Code     0  startup_hc32f334.o(.text)
    USART2_Handler                           0x000002bb   Thumb Code     0  startup_hc32f334.o(.text)
    USART2_TxComplete_Handler                0x000002bb   Thumb Code     0  startup_hc32f334.o(.text)
    USART3_Handler                           0x000002bb   Thumb Code     0  startup_hc32f334.o(.text)
    USART3_TxComplete_Handler                0x000002bb   Thumb Code     0  startup_hc32f334.o(.text)
    USART4_Handler                           0x000002bb   Thumb Code     0  startup_hc32f334.o(.text)
    USART4_TxComplete_Handler                0x000002bb   Thumb Code     0  startup_hc32f334.o(.text)
    WDT_Handler                              0x000002bb   Thumb Code     0  startup_hc32f334.o(.text)
    __aeabi_uldivmod                         0x000002c5   Thumb Code    98  uldiv.o(.text)
    __aeabi_llsl                             0x00000327   Thumb Code    30  llshl.o(.text)
    _ll_shift_l                              0x00000327   Thumb Code     0  llshl.o(.text)
    __aeabi_memset                           0x00000345   Thumb Code    14  memseta.o(.text)
    __aeabi_memset4                          0x00000345   Thumb Code     0  memseta.o(.text)
    __aeabi_memset8                          0x00000345   Thumb Code     0  memseta.o(.text)
    __aeabi_memclr                           0x00000353   Thumb Code     4  memseta.o(.text)
    __aeabi_memclr4                          0x00000353   Thumb Code     0  memseta.o(.text)
    __aeabi_memclr8                          0x00000353   Thumb Code     0  memseta.o(.text)
    _memset$wrapper                          0x00000357   Thumb Code    18  memseta.o(.text)
    __aeabi_ui2d                             0x00000369   Thumb Code    26  dfltui.o(.text)
    __aeabi_ul2d                             0x00000383   Thumb Code    24  dfltul.o(.text)
    __aeabi_d2f                              0x0000039b   Thumb Code    56  d2f.o(.text)
    __aeabi_llsr                             0x000003d3   Thumb Code    32  llushr.o(.text)
    _ll_ushift_r                             0x000003d3   Thumb Code     0  llushr.o(.text)
    ADC_SetSampleTime                        0x000003f3   Thumb Code     8  hc32_ll_adc.o(i.ADC_SetSampleTime)
    __I$use$fp                               0x000003f3   Thumb Code     0  iusefp.o(.text)
    BSP_KEY_KEY1_IrqCallback                 0x000003fb   Thumb Code     2  ev_hc32f334_lqfp64.o(i.BSP_KEY_KEY1_IrqCallback)
    BSP_KEY_KEY2_IrqCallback                 0x000003fd   Thumb Code     2  ev_hc32f334_lqfp64.o(i.BSP_KEY_KEY2_IrqCallback)
    BSP_KEY_KEY3_IrqCallback                 0x000003ff   Thumb Code     2  ev_hc32f334_lqfp64.o(i.BSP_KEY_KEY3_IrqCallback)
    u32ICGValue                              0x00000400   Data          96  hc32_ll_icg.o(.ARM.__AT_0x00000400)
    __aeabi_ddiv                             0x00000461   Thumb Code   222  ddiv.o(.text)
    _float_round                             0x0000053f   Thumb Code    18  fepilogue.o(.text)
    _float_epilogue                          0x00000551   Thumb Code    92  fepilogue.o(.text)
    _double_round                            0x000005ad   Thumb Code    30  depilogue.o(.text)
    _double_epilogue                         0x000005cb   Thumb Code   156  depilogue.o(.text)
    __scatterload                            0x00000669   Thumb Code    28  init.o(.text)
    __scatterload_rt2                        0x00000669   Thumb Code     0  init.o(.text)
    __decompress                             0x0000068d   Thumb Code     0  __dczerorl2.o(.text)
    __decompress1                            0x0000068d   Thumb Code    86  __dczerorl2.o(.text)
    ADC1_Handler                             0x000006e5   Thumb Code   538  main.o(i.ADC1_Handler)
    ADC_ChCmd                                0x00000971   Thumb Code    26  hc32_ll_adc.o(i.ADC_ChCmd)
    ADC_ChRemap                              0x0000098b   Thumb Code    38  hc32_ll_adc.o(i.ADC_ChRemap)
    ADC_Init                                 0x000009b1   Thumb Code    28  hc32_ll_adc.o(i.ADC_Init)
    ADC_IntCmd                               0x000009cd   Thumb Code    20  hc32_ll_adc.o(i.ADC_IntCmd)
    ADC_StructInit                           0x000009e1   Thumb Code    18  hc32_ll_adc.o(i.ADC_StructInit)
    ADC_TriggerCmd                           0x000009f3   Thumb Code    24  hc32_ll_adc.o(i.ADC_TriggerCmd)
    ADC_TriggerConfig                        0x00000a0b   Thumb Code    30  hc32_ll_adc.o(i.ADC_TriggerConfig)
    ADCx_Init                                0x00000a29   Thumb Code   398  hc32f334_drivers.o(i.ADCx_Init)
    AOS_SetTriggerEventSrc                   0x00000bd5   Thumb Code    10  hc32_ll_aos.o(i.AOS_SetTriggerEventSrc)
    BSP_CLK_Init                             0x00000be1   Thumb Code   160  ev_hc32f334_lqfp64.o(i.BSP_CLK_Init)
    CLK_PLLCmd                               0x00000c89   Thumb Code   160  hc32_ll_clk.o(i.CLK_PLLCmd)
    CLK_PLLInit                              0x00000d2d   Thumb Code    56  hc32_ll_clk.o(i.CLK_PLLInit)
    CLK_PLLStructInit                        0x00000d69   Thumb Code    52  hc32_ll_clk.o(i.CLK_PLLStructInit)
    CLK_SetClockDiv                          0x00000d9d   Thumb Code   124  hc32_ll_clk.o(i.CLK_SetClockDiv)
    CLK_SetSysClockSrc                       0x00000e25   Thumb Code   114  hc32_ll_clk.o(i.CLK_SetSysClockSrc)
    CLK_XtalCmd                              0x00000ea5   Thumb Code   110  hc32_ll_clk.o(i.CLK_XtalCmd)
    CLK_XtalInit                             0x00000f19   Thumb Code    48  hc32_ll_clk.o(i.CLK_XtalInit)
    CLK_XtalStructInit                       0x00000f51   Thumb Code    30  hc32_ll_clk.o(i.CLK_XtalStructInit)
    CMP_CompareOutCmd                        0x00000f6f   Thumb Code    18  hc32_ll_cmp.o(i.CMP_CompareOutCmd)
    CMP_NormalModeInit                       0x00001009   Thumb Code    84  hc32_ll_cmp.o(i.CMP_NormalModeInit)
    CMP_PinVcoutCmd                          0x0000105d   Thumb Code    18  hc32_ll_cmp.o(i.CMP_PinVcoutCmd)
    CMP_StructInit                           0x0000106f   Thumb Code    24  hc32_ll_cmp.o(i.CMP_StructInit)
    CalibrationRead                          0x00001089   Thumb Code   142  hc32f334_drivers.o(i.CalibrationRead)
    CalibrationWrite                         0x00001145   Thumb Code    90  hc32f334_drivers.o(i.CalibrationWrite)
    ControllerInit                           0x000011c9   Thumb Code   116  main.o(i.ControllerInit)
    Ctrl_TMR0_Config                         0x00001261   Thumb Code    58  hc32f334_drivers.o(i.Ctrl_TMR0_Config)
    DAC_ADCPrioCmd                           0x000012a1   Thumb Code    18  hc32_ll_dac.o(i.DAC_ADCPrioCmd)
    DAC_ADCPrioConfig                        0x000012b3   Thumb Code    16  hc32_ll_dac.o(i.DAC_ADCPrioConfig)
    DAC_DataRegAlignConfig                   0x000012c3   Thumb Code    16  hc32_ll_dac.o(i.DAC_DataRegAlignConfig)
    DAC_DeInit                               0x000012d5   Thumb Code   112  hc32_ll_dac.o(i.DAC_DeInit)
    DAC_Init                                 0x0000134d   Thumb Code    58  hc32_ll_dac.o(i.DAC_Init)
    DAC_OutputCmd                            0x00001387   Thumb Code    26  hc32_ll_dac.o(i.DAC_OutputCmd)
    DAC_SetChData                            0x000013a1   Thumb Code     8  hc32_ll_dac.o(i.DAC_SetChData)
    DAC_SetDualChData                        0x000013a9   Thumb Code    10  hc32_ll_dac.o(i.DAC_SetDualChData)
    DAC_Start                                0x000013b3   Thumb Code    34  hc32_ll_dac.o(i.DAC_Start)
    DAC_StartDualCh                          0x000013d5   Thumb Code    10  hc32_ll_dac.o(i.DAC_StartDualCh)
    DAC_StructInit                           0x000013df   Thumb Code    20  hc32_ll_dac.o(i.DAC_StructInit)
    DACx_ConversionInit                      0x000013f5   Thumb Code   200  hc32f334_drivers.o(i.DACx_ConversionInit)
    DDL_DelayMS                              0x000014c5   Thumb Code    58  hc32_ll_utility.o(i.DDL_DelayMS)
    DDL_DelayUS                              0x00001509   Thumb Code    56  hc32_ll_utility.o(i.DDL_DelayUS)
    DMA_ChCmd                                0x0000154d   Thumb Code    20  hc32_ll_dma.o(i.DMA_ChCmd)
    DMA_ClearTransCompleteStatus             0x00001561   Thumb Code     4  hc32_ll_dma.o(i.DMA_ClearTransCompleteStatus)
    DMA_Cmd                                  0x00001565   Thumb Code     4  hc32_ll_dma.o(i.DMA_Cmd)
    DMA_Config                               0x00001569   Thumb Code   226  hc32f334_drivers.o(i.DMA_Config)
    DMA_GetTransCompleteStatus               0x0000166d   Thumb Code    10  hc32_ll_dma.o(i.DMA_GetTransCompleteStatus)
    DMA_Init                                 0x00001677   Thumb Code    88  hc32_ll_dma.o(i.DMA_Init)
    DMA_RepeatInit                           0x000016cf   Thumb Code    62  hc32_ll_dma.o(i.DMA_RepeatInit)
    DMA_RepeatStructInit                     0x0000170d   Thumb Code    24  hc32_ll_dma.o(i.DMA_RepeatStructInit)
    DMA_SetSrcAddr                           0x00001725   Thumb Code    10  hc32_ll_dma.o(i.DMA_SetSrcAddr)
    DMA_SetTransCount                        0x0000172f   Thumb Code    16  hc32_ll_dma.o(i.DMA_SetTransCount)
    DMA_StructInit                           0x0000173f   Thumb Code    36  hc32_ll_dma.o(i.DMA_StructInit)
    EFM_CacheRamReset                        0x00001765   Thumb Code     8  hc32_ll_efm.o(i.EFM_CacheRamReset)
    EFM_DCacheCmd                            0x00001771   Thumb Code     8  hc32_ll_efm.o(i.EFM_DCacheCmd)
    EFM_FWMC_Cmd                             0x0000177d   Thumb Code    26  hc32_ll_efm.o(i.EFM_FWMC_Cmd)
    EFM_ICacheCmd                            0x000017a5   Thumb Code     8  hc32_ll_efm.o(i.EFM_ICacheCmd)
    EFM_PrefetchCmd                          0x000017b1   Thumb Code     8  hc32_ll_efm.o(i.EFM_PrefetchCmd)
    EFM_ProgramWord                          0x000017bd   Thumb Code   124  hc32_ll_efm.o(i.EFM_ProgramWord)
    EFM_ReadByte                             0x00001849   Thumb Code   104  hc32_ll_efm.o(i.EFM_ReadByte)
    EFM_SectorErase                          0x000018b9   Thumb Code   124  hc32_ll_efm.o(i.EFM_SectorErase)
    EFM_SetWaitCycle                         0x00001949   Thumb Code    78  hc32_ll_efm.o(i.EFM_SetWaitCycle)
    EFM_SingleSectorOperateCmd               0x000019a5   Thumb Code    34  hc32_ll_efm.o(i.EFM_SingleSectorOperateCmd)
    EMB_ClearStatus                          0x00001a09   Thumb Code     4  hc32_ll_emb.o(i.EMB_ClearStatus)
    EMB_HRPWM_Init                           0x00001a0d   Thumb Code   310  hc32_ll_emb.o(i.EMB_HRPWM_Init)
    EMB_HRPWM_StructInit                     0x00001b43   Thumb Code   114  hc32_ll_emb.o(i.EMB_HRPWM_StructInit)
    EMB_Init                                 0x00001bb5   Thumb Code   302  hc32f334_drivers.o(i.EMB_Init)
    EMB_SetReleasePwmCond                    0x00001ced   Thumb Code    16  hc32_ll_emb.o(i.EMB_SetReleasePwmCond)
    EXTINT00_SWINT16_Handler                 0x00001cfd   Thumb Code    42  ev_hc32f334_lqfp64.o(i.EXTINT00_SWINT16_Handler)
    EXTINT03_SWINT19_Handler                 0x00001d2d   Thumb Code    42  ev_hc32f334_lqfp64.o(i.EXTINT03_SWINT19_Handler)
    EXTINT09_SWINT25_Handler                 0x00001d5d   Thumb Code    46  ev_hc32f334_lqfp64.o(i.EXTINT09_SWINT25_Handler)
    EXTINT_ClearExtIntStatus                 0x00001d91   Thumb Code     6  hc32_ll_interrupts.o(i.EXTINT_ClearExtIntStatus)
    FCG_Fcg0PeriphClockCmd                   0x00001d9d   Thumb Code    18  hc32_ll_fcg.o(i.FCG_Fcg0PeriphClockCmd)
    FCG_Fcg2PeriphClockCmd                   0x00001db5   Thumb Code    18  hc32_ll_fcg.o(i.FCG_Fcg2PeriphClockCmd)
    FCG_Fcg3PeriphClockCmd                   0x00001dcd   Thumb Code    18  hc32_ll_fcg.o(i.FCG_Fcg3PeriphClockCmd)
    GPIO_AnalogCmd                           0x00001de5   Thumb Code    60  hc32_ll_gpio.o(i.GPIO_AnalogCmd)
    GPIO_HrpwmPinCmd                         0x00001e25   Thumb Code    18  hc32_ll_gpio.o(i.GPIO_HrpwmPinCmd)
    GPIO_Init                                0x00001e3d   Thumb Code   168  hc32_ll_gpio.o(i.GPIO_Init)
    GPIO_ReadInputPins                       0x00001ee9   Thumb Code    22  hc32_ll_gpio.o(i.GPIO_ReadInputPins)
    GPIO_ResetPins                           0x00001f01   Thumb Code    14  hc32_ll_gpio.o(i.GPIO_ResetPins)
    GPIO_SetDebugPort                        0x00001f15   Thumb Code    22  hc32_ll_gpio.o(i.GPIO_SetDebugPort)
    GPIO_SetFunc                             0x00001f31   Thumb Code    52  hc32_ll_gpio.o(i.GPIO_SetFunc)
    GPIO_SetPins                             0x00001f69   Thumb Code    14  hc32_ll_gpio.o(i.GPIO_SetPins)
    GPIO_SetReadWaitCycle                    0x00001f7d   Thumb Code    18  hc32_ll_gpio.o(i.GPIO_SetReadWaitCycle)
    GPIO_StructInit                          0x00001f95   Thumb Code    42  hc32_ll_gpio.o(i.GPIO_StructInit)
    GPIO_TogglePins                          0x00001fc1   Thumb Code    14  hc32_ll_gpio.o(i.GPIO_TogglePins)
    Gpio_Init                                0x00001fd5   Thumb Code   428  hc32f334_drivers.o(i.Gpio_Init)
    HRPWM_BufStructInit                      0x00002181   Thumb Code    18  hc32_ll_hrpwm.o(i.HRPWM_BufStructInit)
    HRPWM_CALIB_ProcessSingle                0x00002195   Thumb Code   144  hc32_ll_hrpwm.o(i.HRPWM_CALIB_ProcessSingle)
    HRPWM_DeInit                             0x00002231   Thumb Code   292  hc32_ll_hrpwm.o(i.HRPWM_DeInit)
    HRPWM_DeadTimeBufConfig                  0x00002361   Thumb Code    66  hc32_ll_hrpwm.o(i.HRPWM_DeadTimeBufConfig)
    HRPWM_DeadTimeConfig                     0x000023a3   Thumb Code    40  hc32_ll_hrpwm.o(i.HRPWM_DeadTimeConfig)
    HRPWM_DeadTimeStructInit                 0x000023cb   Thumb Code    18  hc32_ll_hrpwm.o(i.HRPWM_DeadTimeStructInit)
    HRPWM_EMB_ChAConfig                      0x000023dd   Thumb Code    40  hc32_ll_hrpwm.o(i.HRPWM_EMB_ChAConfig)
    HRPWM_EMB_ChBConfig                      0x00002405   Thumb Code    40  hc32_ll_hrpwm.o(i.HRPWM_EMB_ChBConfig)
    HRPWM_EMB_StructInit                     0x0000242d   Thumb Code    18  hc32_ll_hrpwm.o(i.HRPWM_EMB_StructInit)
    HRPWM_GeneralAEBufConfig                 0x0000243f   Thumb Code    66  hc32_ll_hrpwm.o(i.HRPWM_GeneralAEBufConfig)
    HRPWM_GeneralBFBufConfig                 0x00002481   Thumb Code    66  hc32_ll_hrpwm.o(i.HRPWM_GeneralBFBufConfig)
    HRPWM_IDLE_BM_Init                       0x000024c5   Thumb Code    78  hc32_ll_hrpwm.o(i.HRPWM_IDLE_BM_Init)
    HRPWM_IDLE_BM_OutputInit                 0x00002521   Thumb Code   114  hc32_ll_hrpwm.o(i.HRPWM_IDLE_BM_OutputInit)
    HRPWM_IDLE_BM_OutputStructInit           0x000025a1   Thumb Code    24  hc32_ll_hrpwm.o(i.HRPWM_IDLE_BM_OutputStructInit)
    HRPWM_IDLE_BM_StructInit                 0x000025b9   Thumb Code    28  hc32_ll_hrpwm.o(i.HRPWM_IDLE_BM_StructInit)
    HRPWM_IDLE_DELAY_Init                    0x000025d5   Thumb Code    64  hc32_ll_hrpwm.o(i.HRPWM_IDLE_DELAY_Init)
    HRPWM_IDLE_DELAY_StructInit              0x0000261d   Thumb Code    20  hc32_ll_hrpwm.o(i.HRPWM_IDLE_DELAY_StructInit)
    HRPWM_Init                               0x00002631   Thumb Code    26  hc32_ll_hrpwm.o(i.HRPWM_Init)
    HRPWM_PH_Config                          0x0000264b   Thumb Code    48  hc32_ll_hrpwm.o(i.HRPWM_PH_Config)
    HRPWM_PH_StructInit                      0x0000267b   Thumb Code    20  hc32_ll_hrpwm.o(i.HRPWM_PH_StructInit)
    HRPWM_PWM_ChAInit                        0x0000268f   Thumb Code   132  hc32_ll_hrpwm.o(i.HRPWM_PWM_ChAInit)
    HRPWM_PWM_ChBInit                        0x00002713   Thumb Code   132  hc32_ll_hrpwm.o(i.HRPWM_PWM_ChBInit)
    HRPWM_PWM_StructInit                     0x00002799   Thumb Code    48  hc32_ll_hrpwm.o(i.HRPWM_PWM_StructInit)
    HRPWM_PeriodBufConfig                    0x000027cd   Thumb Code    66  hc32_ll_hrpwm.o(i.HRPWM_PeriodBufConfig)
    HRPWM_SpecialABufConfig                  0x0000280f   Thumb Code    66  hc32_ll_hrpwm.o(i.HRPWM_SpecialABufConfig)
    HRPWM_SpecialBBufConfig                  0x00002851   Thumb Code    66  hc32_ll_hrpwm.o(i.HRPWM_SpecialBBufConfig)
    HRPWM_StructInit                         0x00002895   Thumb Code    22  hc32_ll_hrpwm.o(i.HRPWM_StructInit)
    HRTIM_BM_Conf                            0x000028b1   Thumb Code   178  hrtimer.o(i.HRTIM_BM_Conf)
    HRTIM_Config                             0x0000297d   Thumb Code  2820  hrtimer.o(i.HRTIM_Config)
    HRTIM_IDLE_Conf                          0x00003485   Thumb Code   320  hrtimer.o(i.HRTIM_IDLE_Conf)
    IRQ000_Handler                           0x000035dd   Thumb Code    14  hc32_ll_interrupts.o(i.IRQ000_Handler)
    IRQ001_Handler                           0x000035f1   Thumb Code    14  hc32_ll_interrupts.o(i.IRQ001_Handler)
    IRQ002_Handler                           0x00003605   Thumb Code    14  hc32_ll_interrupts.o(i.IRQ002_Handler)
    IRQ003_Handler                           0x00003619   Thumb Code    14  hc32_ll_interrupts.o(i.IRQ003_Handler)
    IRQ004_Handler                           0x0000362d   Thumb Code    14  hc32_ll_interrupts.o(i.IRQ004_Handler)
    IRQ005_Handler                           0x00003641   Thumb Code    14  hc32_ll_interrupts.o(i.IRQ005_Handler)
    IRQ006_Handler                           0x00003655   Thumb Code    14  hc32_ll_interrupts.o(i.IRQ006_Handler)
    IRQ007_Handler                           0x00003669   Thumb Code    14  hc32_ll_interrupts.o(i.IRQ007_Handler)
    IRQ008_Handler                           0x0000367d   Thumb Code    14  hc32_ll_interrupts.o(i.IRQ008_Handler)
    IRQ009_Handler                           0x00003691   Thumb Code    14  hc32_ll_interrupts.o(i.IRQ009_Handler)
    IRQ010_Handler                           0x000036a5   Thumb Code    14  hc32_ll_interrupts.o(i.IRQ010_Handler)
    IRQ011_Handler                           0x000036b9   Thumb Code    14  hc32_ll_interrupts.o(i.IRQ011_Handler)
    IRQ012_Handler                           0x000036cd   Thumb Code    14  hc32_ll_interrupts.o(i.IRQ012_Handler)
    IRQ013_Handler                           0x000036e1   Thumb Code    14  hc32_ll_interrupts.o(i.IRQ013_Handler)
    IRQ014_Handler                           0x000036f5   Thumb Code    14  hc32_ll_interrupts.o(i.IRQ014_Handler)
    IRQ015_Handler                           0x00003709   Thumb Code    14  hc32_ll_interrupts.o(i.IRQ015_Handler)
    Inter2Asciix                             0x0000371d   Thumb Code   192  main.o(i.Inter2Asciix)
    LLC_CTRL_Loop                            0x000037e5   Thumb Code   626  ctrl_lib.o(i.LLC_CTRL_Loop)
    LLC_CmpConfig                            0x00003a7d   Thumb Code   158  hc32f334_drivers.o(i.LLC_CmpConfig)
    LL_PERIPH_WE                             0x00003b29   Thumb Code   118  hc32_ll.o(i.LL_PERIPH_WE)
    LedDriverMang                            0x00003bbd   Thumb Code   282  main.o(i.LedDriverMang)
    LogoDataUpdate                           0x00003ce1   Thumb Code   378  main.o(i.LogoDataUpdate)
    SwFualtCheck                             0x00003e81   Thumb Code   528  main.o(i.SwFualtCheck)
    SysStateMachineMag                       0x00004099   Thumb Code   326  main.o(i.SysStateMachineMag)
    SystemCoreClockUpdate                    0x000041fd   Thumb Code   128  system_hc32f334.o(i.SystemCoreClockUpdate)
    SystemInit                               0x00004299   Thumb Code    24  system_hc32f334.o(i.SystemInit)
    TMR0_Init                                0x000042b9   Thumb Code   100  hc32_ll_tmr0.o(i.TMR0_Init)
    TMR0_Start                               0x0000431d   Thumb Code    20  hc32_ll_tmr0.o(i.TMR0_Start)
    TMR0_StructInit                          0x00004331   Thumb Code    30  hc32_ll_tmr0.o(i.TMR0_StructInit)
    TMR6_1_SCmp_Handler                      0x000043ad   Thumb Code    32  hrtimer.o(i.TMR6_1_SCmp_Handler)
    TMR6_2_IrqHandler                        0x000043d5   Thumb Code    46  hrtimer.o(i.TMR6_2_IrqHandler)
    TMR6_IrqHandler                          0x0000440d   Thumb Code    48  hrtimer.o(i.TMR6_IrqHandler)
    TMRA_Init                                0x00004441   Thumb Code    54  hc32_ll_tmra.o(i.TMRA_Init)
    TMRA_PWM_Init                            0x00004477   Thumb Code    60  hc32_ll_tmra.o(i.TMRA_PWM_Init)
    TMRA_PWM_OutputCmd                       0x000044b3   Thumb Code    18  hc32_ll_tmra.o(i.TMRA_PWM_OutputCmd)
    TMRA_PWM_StructInit                      0x000044c5   Thumb Code    30  hc32_ll_tmra.o(i.TMRA_PWM_StructInit)
    TMRA_SetCompareValue                     0x000044e3   Thumb Code     8  hc32_ll_tmra.o(i.TMRA_SetCompareValue)
    TMRA_Start                               0x000044eb   Thumb Code    14  hc32_ll_tmra.o(i.TMRA_Start)
    TMRA_StructInit                          0x000044f9   Thumb Code    32  hc32_ll_tmra.o(i.TMRA_StructInit)
    TemperatureBaseLookUpTable               0x00004519   Thumb Code    72  hc32f334_drivers.o(i.TemperatureBaseLookUpTable)
    TmrAConfig                               0x00004565   Thumb Code   142  hc32f334_drivers.o(i.TmrAConfig)
    USART2Config                             0x000045f9   Thumb Code    54  hc32f334_drivers.o(i.USART2Config)
    USART_FuncCmd                            0x00004635   Thumb Code    50  hc32_ll_usart.o(i.USART_FuncCmd)
    USART_SetBaudrate                        0x0000466d   Thumb Code  1182  hc32_ll_usart.o(i.USART_SetBaudrate)
    USART_UART_Init                          0x00004b0b   Thumb Code    90  hc32_ll_usart.o(i.USART_UART_Init)
    USART_UART_StructInit                    0x00004b65   Thumb Code    44  hc32_ll_usart.o(i.USART_UART_StructInit)
    Usart2_TxEnable                          0x00004b91   Thumb Code    48  hc32f334_drivers.o(i.Usart2_TxEnable)
    WDT_Config                               0x00004bcd   Thumb Code    38  hc32f334_drivers.o(i.WDT_Config)
    WDT_FeedDog                              0x00004bf5   Thumb Code    16  hc32_ll_wdt.o(i.WDT_FeedDog)
    WDT_Init                                 0x00004c09   Thumb Code    56  hc32_ll_wdt.o(i.WDT_Init)
    __scatterload_copy                       0x00004c4d   Thumb Code    14  handlers.o(i.__scatterload_copy)
    __scatterload_null                       0x00004c5b   Thumb Code     2  handlers.o(i.__scatterload_null)
    __scatterload_zeroinit                   0x00004c5d   Thumb Code    14  handlers.o(i.__scatterload_zeroinit)
    main                                     0x00004c6d   Thumb Code  1364  main.o(i.main)
    u16Temperature                           0x000051f4   Data         322  hc32f334_drivers.o(.constdata)
    Region$$Table$$Base                      0x00005338   Number         0  anon$$obj.o(Region$$Table)
    Region$$Table$$Limit                     0x00005358   Number         0  anon$$obj.o(Region$$Table)
    SystemCoreClock                          0x1fffc000   Data           4  system_hc32f334.o(.bss.noinit)
    HRC_VALUE                                0x1fffc004   Data           4  system_hc32f334.o(.bss.noinit)
    int16Temp1ADCQ0                          0x1fffc008   Data           2  main.o(.data)
    int16Temp2ADCQ0                          0x1fffc00a   Data           2  main.o(.data)
    u16SysSM                                 0x1fffc00c   Data           2  main.o(.data)
    u16timerCnt                              0x1fffc00e   Data           2  main.o(.data)
    u8WorkEnable                             0x1fffc010   Data           2  main.o(.data)
    u8WorkEnable_USART                       0x1fffc012   Data           2  main.o(.data)
    u16FanDuty                               0x1fffc014   Data           2  main.o(.data)
    u16FANPrd                                0x1fffc016   Data           2  main.o(.data)
    u16EepromWriteEnable                     0x1fffc018   Data           2  main.o(.data)
    s16TempPhaseA                            0x1fffc01a   Data           2  main.o(.data)
    s16TempPhaseB                            0x1fffc01c   Data           2  main.o(.data)
    s16TempPhaseAADC                         0x1fffc01e   Data           2  main.o(.data)
    s16TempPhaseBADC                         0x1fffc020   Data           2  main.o(.data)
    s16TempPhaseASum                         0x1fffc022   Data           2  main.o(.data)
    s16TempPhaseBSum                         0x1fffc024   Data           2  main.o(.data)
    u16TempStoreCounter                      0x1fffc026   Data           2  main.o(.data)
    int32VoutADCQ0                           0x1fffc04c   Data           4  main.o(.data)
    int32IoutADCQ0                           0x1fffc050   Data           4  main.o(.data)
    int32VinADCQ0                            0x1fffc054   Data           4  main.o(.data)
    int32PriCurr1ADCQ0                       0x1fffc058   Data           4  main.o(.data)
    int32PriCurr2ADCQ0                       0x1fffc05c   Data           4  main.o(.data)
    int32IoutFilterADCQ0_PRE                 0x1fffc060   Data           4  main.o(.data)
    int32VoutRtdbQ11                         0x1fffc064   Data           4  main.o(.data)
    int32IoutRtdbQ11                         0x1fffc068   Data           4  main.o(.data)
    int32VinRtdbQ11                          0x1fffc06c   Data           4  main.o(.data)
    int32VoutScaleQ11                        0x1fffc070   Data           4  main.o(.data)
    int32IoutScaleQ11                        0x1fffc074   Data           4  main.o(.data)
    int32VinScaleQ11                         0x1fffc078   Data           4  main.o(.data)
    int32VoutCalibGainQ11                    0x1fffc07c   Data           4  main.o(.data)
    int32VoutCalibOffsentQ11                 0x1fffc080   Data           4  main.o(.data)
    int32IoutCalibGainQ11                    0x1fffc084   Data           4  main.o(.data)
    int32IoutCalibOffsentQ11                 0x1fffc088   Data           4  main.o(.data)
    int32VinCalibGainQ11                     0x1fffc08c   Data           4  main.o(.data)
    int32VinCalibOffsentQ11                  0x1fffc090   Data           4  main.o(.data)
    u32Faultflag                             0x1fffc094   Data           4  main.o(.data)
    u32SystimerCnt                           0x1fffc098   Data           4  main.o(.data)
    u32SysCurrTimerCnt                       0x1fffc09c   Data           4  main.o(.data)
    u32SysTask300USCnt                       0x1fffc0a0   Data           4  main.o(.data)
    u32SysTask1MSCnt                         0x1fffc0a4   Data           4  main.o(.data)
    u32SysTask5MSCnt                         0x1fffc0a8   Data           4  main.o(.data)
    u32SysTimer1SCnt                         0x1fffc0ac   Data           4  main.o(.data)
    u32HrPWMDTU2                             0x1fffc0b0   Data           4  main.o(.data)
    u32HrPWMDTU4                             0x1fffc0b4   Data           4  main.o(.data)
    u32HrPWMDTD2                             0x1fffc0b8   Data           4  main.o(.data)
    u32HrPWMDTD4                             0x1fffc0bc   Data           4  main.o(.data)
    u32HrPWMDTD5                             0x1fffc0c0   Data           4  main.o(.data)
    u32HrpwmPhase1                           0x1fffc0c4   Data           4  main.o(.data)
    u32HrpwmPhase2                           0x1fffc0c8   Data           4  main.o(.data)
    u32HrpwmPhase3                           0x1fffc0cc   Data           4  main.o(.data)
    u32HrpwmPhase4                           0x1fffc0d0   Data           4  main.o(.data)
    u32HrpwmPhase5                           0x1fffc0d4   Data           4  main.o(.data)
    u32HrpwmCMPA                             0x1fffc0d8   Data           4  main.o(.data)
    u32HrpwmCMPA_U4                          0x1fffc0dc   Data           4  main.o(.data)
    u32HrpwmCMPB_U4                          0x1fffc0e0   Data           4  main.o(.data)
    u32HrpwmCMPE_U4                          0x1fffc0e4   Data           4  main.o(.data)
    u32HrpwmCMPF_U4                          0x1fffc0e8   Data           4  main.o(.data)
    s32EepromTempData                        0x1fffc0ec   Data           4  main.o(.data)
    cmpcnt                                   0x1fffc0f0   Data           2  hrtimer.o(.data)
    u32ChyTest0601                           0x1fffc0f4   Data           4  hrtimer.o(.data)
    m_au8TxBuf                               0x1fffc0fc   Data         128  hc32f334_drivers.o(.data)
    int32VoutFilterADCQ0                     0x1fffc17c   Data           4  ctrl_lib.o(.data)
    u16IsrDivdeCnt                           0x1fffc180   Data           2  ctrl_lib.o(.data)
    sysFlagRtdb                              0x1fffc182   Data           2  ctrl_lib.o(.data)
    u16BM_EnableCounter                      0x1fffc184   Data           2  ctrl_lib.o(.data)
    u16BurstModeFlag                         0x1fffc186   Data           2  ctrl_lib.o(.data)
    u16SrModeFlag                            0x1fffc188   Data           2  ctrl_lib.o(.data)
    u16SrModeFlagPre                         0x1fffc18a   Data           2  ctrl_lib.o(.data)
    u16OneTimeFlag                           0x1fffc18c   Data           2  ctrl_lib.o(.data)
    int32IoutFilterADCQ0                     0x1fffc190   Data           4  ctrl_lib.o(.data)
    int32VoutCalibADCQ0                      0x1fffc194   Data           4  ctrl_lib.o(.data)
    int32IoutCalibADCQ0                      0x1fffc198   Data           4  ctrl_lib.o(.data)
    s32SumPriCurr1                           0x1fffc19c   Data           4  ctrl_lib.o(.data)
    s32SumPriCurr2                           0x1fffc1a0   Data           4  ctrl_lib.o(.data)
    int32VoutSlewQ0                          0x1fffc1a4   Data           4  ctrl_lib.o(.data)
    int32IoutSlewQ0                          0x1fffc1a8   Data           4  ctrl_lib.o(.data)
    int32FreLimitQ0                          0x1fffc1ac   Data           4  ctrl_lib.o(.data)
    int32VoltErr                             0x1fffc1b0   Data           4  ctrl_lib.o(.data)
    int32CurrErr                             0x1fffc1b4   Data           4  ctrl_lib.o(.data)
    int32PriCurrCtrlOut                      0x1fffc1b8   Data           4  ctrl_lib.o(.data)
    int32CtrlOut                             0x1fffc1bc   Data           4  ctrl_lib.o(.data)
    int32EpwmPrdUpdate                       0x1fffc1c0   Data           4  ctrl_lib.o(.data)
    int32P1Phase                             0x1fffc1c4   Data           4  ctrl_lib.o(.data)
    int32P2Phase                             0x1fffc1c8   Data           4  ctrl_lib.o(.data)
    u32HrPWMDTU5                             0x1fffc1cc   Data           4  ctrl_lib.o(.data)
    s32SRDuty                                0x1fffc1d0   Data           4  ctrl_lib.o(.data)
    int32VinFilterADCQ0                      0x1fffc1d4   Data           4  ctrl_lib.o(.data)
    int32PriCurr1FilterADCQ0                 0x1fffc1d8   Data           4  ctrl_lib.o(.data)
    int32PriCurr2FilterADCQ0                 0x1fffc1dc   Data           4  ctrl_lib.o(.data)
    int32VinCalibADCQ0                       0x1fffc1e0   Data           4  ctrl_lib.o(.data)
    int32VoutSetADCQ0                        0x1fffc1e4   Data           4  ctrl_lib.o(.data)
    int32IoutSetADCQ0                        0x1fffc1e8   Data           4  ctrl_lib.o(.data)
    int32IoutLimitQ0                         0x1fffc1ec   Data           4  ctrl_lib.o(.data)
    SysPowerONState                          0x1fffc1f0   Data           2  ctrl_lib.o(.data)
    int32PriCurrErr                          0x1fffc1f4   Data           4  ctrl_lib.o(.data)
    m_au8RxBuf                               0x1fffc238   Data          64  hc32f334_drivers.o(.bss)
    VloopCtrl                                0x1fffc278   Data          56  ctrl_lib.o(.bss)
    CloopCtrl                                0x1fffc2b0   Data          56  ctrl_lib.o(.bss)
    __initial_sp                             0x1fffcee8   Data           0  startup_hc32f334.o(STACK)



==============================================================================

Memory Map of the image

  Image Entry point : 0x00000289

  Load Region LR_IROM1 (Base: 0x00000000, Size: 0x00005548, Max: 0x0001ffff, ABSOLUTE, COMPRESSED[0x000053ac])

    Execution Region ER_IROM1 (Exec base: 0x00000000, Load base: 0x00000000, Size: 0x00005358, Max: 0x0001ffff, ABSOLUTE)

    Exec Addr    Load Addr    Size         Type   Attr      Idx    E Section Name        Object

    0x00000000   0x00000000   0x00000288   Data   RO            3    RESET               startup_hc32f334.o
    0x00000288   0x00000288   0x00000000   Code   RO         1225  * .ARM.Collect$$$$00000000  mc_w.l(entry.o)
    0x00000288   0x00000288   0x00000004   Code   RO         1235    .ARM.Collect$$$$00000001  mc_w.l(entry2.o)
    0x0000028c   0x0000028c   0x00000004   Code   RO         1238    .ARM.Collect$$$$00000004  mc_w.l(entry5.o)
    0x00000290   0x00000290   0x00000000   Code   RO         1240    .ARM.Collect$$$$00000008  mc_w.l(entry7b.o)
    0x00000290   0x00000290   0x00000000   Code   RO         1242    .ARM.Collect$$$$0000000A  mc_w.l(entry8b.o)
    0x00000290   0x00000290   0x00000008   Code   RO         1243    .ARM.Collect$$$$0000000B  mc_w.l(entry9a.o)
    0x00000298   0x00000298   0x00000004   Code   RO         1250    .ARM.Collect$$$$0000000E  mc_w.l(entry12b.o)
    0x0000029c   0x0000029c   0x00000000   Code   RO         1245    .ARM.Collect$$$$0000000F  mc_w.l(entry10a.o)
    0x0000029c   0x0000029c   0x00000000   Code   RO         1247    .ARM.Collect$$$$00000011  mc_w.l(entry11a.o)
    0x0000029c   0x0000029c   0x00000004   Code   RO         1236    .ARM.Collect$$$$00002712  mc_w.l(entry2.o)
    0x000002a0   0x000002a0   0x00000024   Code   RO            4    .text               startup_hc32f334.o
    0x000002c4   0x000002c4   0x00000062   Code   RO         1228    .text               mc_w.l(uldiv.o)
    0x00000326   0x00000326   0x0000001e   Code   RO         1229    .text               mc_w.l(llshl.o)
    0x00000344   0x00000344   0x00000024   Code   RO         1230    .text               mc_w.l(memseta.o)
    0x00000368   0x00000368   0x0000001a   Code   RO         1232    .text               mf_w.l(dfltui.o)
    0x00000382   0x00000382   0x00000018   Code   RO         1233    .text               mf_w.l(dfltul.o)
    0x0000039a   0x0000039a   0x00000038   Code   RO         1234    .text               mf_w.l(d2f.o)
    0x000003d2   0x000003d2   0x00000020   Code   RO         1251    .text               mc_w.l(llushr.o)
    0x000003f2   0x000003f2   0x00000000   Code   RO         1252    .text               mc_w.l(iusefp.o)
    0x000003f2   0x000003f2   0x00000008   Code   RO           53    i.ADC_SetSampleTime  hc32_ll_adc.o
    0x000003fa   0x000003fa   0x00000002   Code   RO         1167    i.BSP_KEY_KEY1_IrqCallback  ev_hc32f334_lqfp64.o
    0x000003fc   0x000003fc   0x00000002   Code   RO         1168    i.BSP_KEY_KEY2_IrqCallback  ev_hc32f334_lqfp64.o
    0x000003fe   0x000003fe   0x00000002   Code   RO         1169    i.BSP_KEY_KEY3_IrqCallback  ev_hc32f334_lqfp64.o
    0x00000400   0x00000400   0x00000060   Data   RO           14    .ARM.__AT_0x00000400  hc32_ll_icg.o
    0x00000460   0x00000460   0x000000de   Code   RO         1231    .text               mf_w.l(ddiv.o)
    0x0000053e   0x0000053e   0x0000006e   Code   RO         1253    .text               mf_w.l(fepilogue.o)
    0x000005ac   0x000005ac   0x000000ba   Code   RO         1254    .text               mf_w.l(depilogue.o)
    0x00000666   0x00000666   0x00000002   PAD
    0x00000668   0x00000668   0x00000024   Code   RO         1255    .text               mc_w.l(init.o)
    0x0000068c   0x0000068c   0x00000056   Code   RO         1261    .text               mc_w.l(__dczerorl2.o)
    0x000006e2   0x000006e2   0x00000002   PAD
    0x000006e4   0x000006e4   0x0000028c   Code   RO         1074    i.ADC1_Handler      main.o
    0x00000970   0x00000970   0x0000001a   Code   RO           34    i.ADC_ChCmd         hc32_ll_adc.o
    0x0000098a   0x0000098a   0x00000026   Code   RO           35    i.ADC_ChRemap       hc32_ll_adc.o
    0x000009b0   0x000009b0   0x0000001c   Code   RO           46    i.ADC_Init          hc32_ll_adc.o
    0x000009cc   0x000009cc   0x00000014   Code   RO           47    i.ADC_IntCmd        hc32_ll_adc.o
    0x000009e0   0x000009e0   0x00000012   Code   RO           57    i.ADC_StructInit    hc32_ll_adc.o
    0x000009f2   0x000009f2   0x00000018   Code   RO           60    i.ADC_TriggerCmd    hc32_ll_adc.o
    0x00000a0a   0x00000a0a   0x0000001e   Code   RO           61    i.ADC_TriggerConfig  hc32_ll_adc.o
    0x00000a28   0x00000a28   0x000001ac   Code   RO         1184    i.ADCx_Init         hc32f334_drivers.o
    0x00000bd4   0x00000bd4   0x0000000a   Code   RO           70    i.AOS_SetTriggerEventSrc  hc32_ll_aos.o
    0x00000bde   0x00000bde   0x00000002   PAD
    0x00000be0   0x00000be0   0x000000a8   Code   RO         1159    i.BSP_CLK_Init      ev_hc32f334_lqfp64.o
    0x00000c88   0x00000c88   0x000000a4   Code   RO           88    i.CLK_PLLCmd        hc32_ll_clk.o
    0x00000d2c   0x00000d2c   0x0000003c   Code   RO           89    i.CLK_PLLInit       hc32_ll_clk.o
    0x00000d68   0x00000d68   0x00000034   Code   RO           90    i.CLK_PLLStructInit  hc32_ll_clk.o
    0x00000d9c   0x00000d9c   0x00000088   Code   RO           92    i.CLK_SetClockDiv   hc32_ll_clk.o
    0x00000e24   0x00000e24   0x00000080   Code   RO           95    i.CLK_SetSysClockSrc  hc32_ll_clk.o
    0x00000ea4   0x00000ea4   0x00000074   Code   RO          102    i.CLK_XtalCmd       hc32_ll_clk.o
    0x00000f18   0x00000f18   0x00000038   Code   RO          106    i.CLK_XtalInit      hc32_ll_clk.o
    0x00000f50   0x00000f50   0x0000001e   Code   RO          109    i.CLK_XtalStructInit  hc32_ll_clk.o
    0x00000f6e   0x00000f6e   0x00000012   Code   RO          119    i.CMP_CompareOutCmd  hc32_ll_cmp.o
    0x00000f80   0x00000f80   0x00000088   Code   RO          121    i.CMP_DelayUS       hc32_ll_cmp.o
    0x00001008   0x00001008   0x00000054   Code   RO          128    i.CMP_NormalModeInit  hc32_ll_cmp.o
    0x0000105c   0x0000105c   0x00000012   Code   RO          129    i.CMP_PinVcoutCmd   hc32_ll_cmp.o
    0x0000106e   0x0000106e   0x00000018   Code   RO          142    i.CMP_StructInit    hc32_ll_cmp.o
    0x00001086   0x00001086   0x00000002   PAD
    0x00001088   0x00001088   0x000000bc   Code   RO         1185    i.CalibrationRead   hc32f334_drivers.o
    0x00001144   0x00001144   0x00000084   Code   RO         1186    i.CalibrationWrite  hc32f334_drivers.o
    0x000011c8   0x000011c8   0x00000098   Code   RO         1076    i.ControllerInit    main.o
    0x00001260   0x00001260   0x00000040   Code   RO         1187    i.Ctrl_TMR0_Config  hc32f334_drivers.o
    0x000012a0   0x000012a0   0x00000012   Code   RO          182    i.DAC_ADCPrioCmd    hc32_ll_dac.o
    0x000012b2   0x000012b2   0x00000010   Code   RO          183    i.DAC_ADCPrioConfig  hc32_ll_dac.o
    0x000012c2   0x000012c2   0x00000010   Code   RO          185    i.DAC_DataRegAlignConfig  hc32_ll_dac.o
    0x000012d2   0x000012d2   0x00000002   PAD
    0x000012d4   0x000012d4   0x00000078   Code   RO          186    i.DAC_DeInit        hc32_ll_dac.o
    0x0000134c   0x0000134c   0x0000003a   Code   RO          189    i.DAC_Init          hc32_ll_dac.o
    0x00001386   0x00001386   0x0000001a   Code   RO          190    i.DAC_OutputCmd     hc32_ll_dac.o
    0x000013a0   0x000013a0   0x00000008   Code   RO          191    i.DAC_SetChData     hc32_ll_dac.o
    0x000013a8   0x000013a8   0x0000000a   Code   RO          193    i.DAC_SetDualChData  hc32_ll_dac.o
    0x000013b2   0x000013b2   0x00000022   Code   RO          194    i.DAC_Start         hc32_ll_dac.o
    0x000013d4   0x000013d4   0x0000000a   Code   RO          195    i.DAC_StartDualCh   hc32_ll_dac.o
    0x000013de   0x000013de   0x00000014   Code   RO          198    i.DAC_StructInit    hc32_ll_dac.o
    0x000013f2   0x000013f2   0x00000002   PAD
    0x000013f4   0x000013f4   0x000000d0   Code   RO         1188    i.DACx_ConversionInit  hc32f334_drivers.o
    0x000014c4   0x000014c4   0x00000044   Code   RO         1053    i.DDL_DelayMS       hc32_ll_utility.o
    0x00001508   0x00001508   0x00000044   Code   RO         1054    i.DDL_DelayUS       hc32_ll_utility.o
    0x0000154c   0x0000154c   0x00000014   Code   RO          213    i.DMA_ChCmd         hc32_ll_dma.o
    0x00001560   0x00001560   0x00000004   Code   RO          215    i.DMA_ClearTransCompleteStatus  hc32_ll_dma.o
    0x00001564   0x00001564   0x00000004   Code   RO          216    i.DMA_Cmd           hc32_ll_dma.o
    0x00001568   0x00001568   0x00000104   Code   RO         1189    i.DMA_Config        hc32f334_drivers.o
    0x0000166c   0x0000166c   0x0000000a   Code   RO          230    i.DMA_GetTransCompleteStatus  hc32_ll_dma.o
    0x00001676   0x00001676   0x00000058   Code   RO          233    i.DMA_Init          hc32_ll_dma.o
    0x000016ce   0x000016ce   0x0000003e   Code   RO          247    i.DMA_RepeatInit    hc32_ll_dma.o
    0x0000170c   0x0000170c   0x00000018   Code   RO          248    i.DMA_RepeatStructInit  hc32_ll_dma.o
    0x00001724   0x00001724   0x0000000a   Code   RO          259    i.DMA_SetSrcAddr    hc32_ll_dma.o
    0x0000172e   0x0000172e   0x00000010   Code   RO          261    i.DMA_SetTransCount  hc32_ll_dma.o
    0x0000173e   0x0000173e   0x00000024   Code   RO          262    i.DMA_StructInit    hc32_ll_dma.o
    0x00001762   0x00001762   0x00000002   PAD
    0x00001764   0x00001764   0x0000000c   Code   RO          269    i.EFM_CacheRamReset  hc32_ll_efm.o
    0x00001770   0x00001770   0x0000000c   Code   RO          272    i.EFM_DCacheCmd     hc32_ll_efm.o
    0x0000177c   0x0000177c   0x00000028   Code   RO          273    i.EFM_FWMC_Cmd      hc32_ll_efm.o
    0x000017a4   0x000017a4   0x0000000c   Code   RO          282    i.EFM_ICacheCmd     hc32_ll_efm.o
    0x000017b0   0x000017b0   0x0000000c   Code   RO          289    i.EFM_PrefetchCmd   hc32_ll_efm.o
    0x000017bc   0x000017bc   0x0000008c   Code   RO          291    i.EFM_ProgramWord   hc32_ll_efm.o
    0x00001848   0x00001848   0x00000070   Code   RO          300    i.EFM_ReadByte      hc32_ll_efm.o
    0x000018b8   0x000018b8   0x00000090   Code   RO          301    i.EFM_SectorErase   hc32_ll_efm.o
    0x00001948   0x00001948   0x0000005c   Code   RO          306    i.EFM_SetWaitCycle  hc32_ll_efm.o
    0x000019a4   0x000019a4   0x00000028   Code   RO          307    i.EFM_SingleSectorOperateCmd  hc32_ll_efm.o
    0x000019cc   0x000019cc   0x0000003c   Code   RO          309    i.EFM_WaitFlag      hc32_ll_efm.o
    0x00001a08   0x00001a08   0x00000004   Code   RO          314    i.EMB_ClearStatus   hc32_ll_emb.o
    0x00001a0c   0x00001a0c   0x00000136   Code   RO          317    i.EMB_HRPWM_Init    hc32_ll_emb.o
    0x00001b42   0x00001b42   0x00000072   Code   RO          318    i.EMB_HRPWM_StructInit  hc32_ll_emb.o
    0x00001bb4   0x00001bb4   0x00000138   Code   RO         1190    i.EMB_Init          hc32f334_drivers.o
    0x00001cec   0x00001cec   0x00000010   Code   RO          321    i.EMB_SetReleasePwmCond  hc32_ll_emb.o
    0x00001cfc   0x00001cfc   0x00000030   Code   RO         1176    i.EXTINT00_SWINT16_Handler  ev_hc32f334_lqfp64.o
    0x00001d2c   0x00001d2c   0x00000030   Code   RO         1177    i.EXTINT03_SWINT19_Handler  ev_hc32f334_lqfp64.o
    0x00001d5c   0x00001d5c   0x00000034   Code   RO         1178    i.EXTINT09_SWINT25_Handler  ev_hc32f334_lqfp64.o
    0x00001d90   0x00001d90   0x0000000c   Code   RO          503    i.EXTINT_ClearExtIntStatus  hc32_ll_interrupts.o
    0x00001d9c   0x00001d9c   0x00000018   Code   RO          344    i.FCG_Fcg0PeriphClockCmd  hc32_ll_fcg.o
    0x00001db4   0x00001db4   0x00000018   Code   RO          346    i.FCG_Fcg2PeriphClockCmd  hc32_ll_fcg.o
    0x00001dcc   0x00001dcc   0x00000018   Code   RO          347    i.FCG_Fcg3PeriphClockCmd  hc32_ll_fcg.o
    0x00001de4   0x00001de4   0x00000040   Code   RO          368    i.GPIO_AnalogCmd    hc32_ll_gpio.o
    0x00001e24   0x00001e24   0x00000018   Code   RO          371    i.GPIO_HrpwmPinCmd  hc32_ll_gpio.o
    0x00001e3c   0x00001e3c   0x000000ac   Code   RO          373    i.GPIO_Init         hc32_ll_gpio.o
    0x00001ee8   0x00001ee8   0x00000016   Code   RO          376    i.GPIO_ReadInputPins  hc32_ll_gpio.o
    0x00001efe   0x00001efe   0x00000002   PAD
    0x00001f00   0x00001f00   0x00000014   Code   RO          380    i.GPIO_ResetPins    hc32_ll_gpio.o
    0x00001f14   0x00001f14   0x0000001c   Code   RO          381    i.GPIO_SetDebugPort  hc32_ll_gpio.o
    0x00001f30   0x00001f30   0x00000038   Code   RO          382    i.GPIO_SetFunc      hc32_ll_gpio.o
    0x00001f68   0x00001f68   0x00000014   Code   RO          383    i.GPIO_SetPins      hc32_ll_gpio.o
    0x00001f7c   0x00001f7c   0x00000018   Code   RO          384    i.GPIO_SetReadWaitCycle  hc32_ll_gpio.o
    0x00001f94   0x00001f94   0x0000002a   Code   RO          386    i.GPIO_StructInit   hc32_ll_gpio.o
    0x00001fbe   0x00001fbe   0x00000002   PAD
    0x00001fc0   0x00001fc0   0x00000014   Code   RO          388    i.GPIO_TogglePins   hc32_ll_gpio.o
    0x00001fd4   0x00001fd4   0x000001ac   Code   RO         1192    i.Gpio_Init         hc32f334_drivers.o
    0x00002180   0x00002180   0x00000012   Code   RO          394    i.HRPWM_BufStructInit  hc32_ll_hrpwm.o
    0x00002192   0x00002192   0x00000002   PAD
    0x00002194   0x00002194   0x0000009c   Code   RO          396    i.HRPWM_CALIB_ProcessSingle  hc32_ll_hrpwm.o
    0x00002230   0x00002230   0x00000130   Code   RO          401    i.HRPWM_DeInit      hc32_ll_hrpwm.o
    0x00002360   0x00002360   0x00000042   Code   RO          402    i.HRPWM_DeadTimeBufConfig  hc32_ll_hrpwm.o
    0x000023a2   0x000023a2   0x00000028   Code   RO          403    i.HRPWM_DeadTimeConfig  hc32_ll_hrpwm.o
    0x000023ca   0x000023ca   0x00000012   Code   RO          404    i.HRPWM_DeadTimeStructInit  hc32_ll_hrpwm.o
    0x000023dc   0x000023dc   0x00000028   Code   RO          405    i.HRPWM_EMB_ChAConfig  hc32_ll_hrpwm.o
    0x00002404   0x00002404   0x00000028   Code   RO          407    i.HRPWM_EMB_ChBConfig  hc32_ll_hrpwm.o
    0x0000242c   0x0000242c   0x00000012   Code   RO          409    i.HRPWM_EMB_StructInit  hc32_ll_hrpwm.o
    0x0000243e   0x0000243e   0x00000042   Code   RO          418    i.HRPWM_GeneralAEBufConfig  hc32_ll_hrpwm.o
    0x00002480   0x00002480   0x00000042   Code   RO          419    i.HRPWM_GeneralBFBufConfig  hc32_ll_hrpwm.o
    0x000024c2   0x000024c2   0x00000002   PAD
    0x000024c4   0x000024c4   0x0000005c   Code   RO          420    i.HRPWM_IDLE_BM_Init  hc32_ll_hrpwm.o
    0x00002520   0x00002520   0x00000080   Code   RO          421    i.HRPWM_IDLE_BM_OutputInit  hc32_ll_hrpwm.o
    0x000025a0   0x000025a0   0x00000018   Code   RO          422    i.HRPWM_IDLE_BM_OutputStructInit  hc32_ll_hrpwm.o
    0x000025b8   0x000025b8   0x0000001c   Code   RO          423    i.HRPWM_IDLE_BM_StructInit  hc32_ll_hrpwm.o
    0x000025d4   0x000025d4   0x00000048   Code   RO          424    i.HRPWM_IDLE_DELAY_Init  hc32_ll_hrpwm.o
    0x0000261c   0x0000261c   0x00000014   Code   RO          425    i.HRPWM_IDLE_DELAY_StructInit  hc32_ll_hrpwm.o
    0x00002630   0x00002630   0x0000001a   Code   RO          426    i.HRPWM_Init        hc32_ll_hrpwm.o
    0x0000264a   0x0000264a   0x00000030   Code   RO          427    i.HRPWM_PH_Config   hc32_ll_hrpwm.o
    0x0000267a   0x0000267a   0x00000014   Code   RO          428    i.HRPWM_PH_StructInit  hc32_ll_hrpwm.o
    0x0000268e   0x0000268e   0x00000084   Code   RO          429    i.HRPWM_PWM_ChAInit  hc32_ll_hrpwm.o
    0x00002712   0x00002712   0x00000084   Code   RO          431    i.HRPWM_PWM_ChBInit  hc32_ll_hrpwm.o
    0x00002796   0x00002796   0x00000002   PAD
    0x00002798   0x00002798   0x00000034   Code   RO          436    i.HRPWM_PWM_StructInit  hc32_ll_hrpwm.o
    0x000027cc   0x000027cc   0x00000042   Code   RO          437    i.HRPWM_PeriodBufConfig  hc32_ll_hrpwm.o
    0x0000280e   0x0000280e   0x00000042   Code   RO          440    i.HRPWM_SpecialABufConfig  hc32_ll_hrpwm.o
    0x00002850   0x00002850   0x00000042   Code   RO          441    i.HRPWM_SpecialBBufConfig  hc32_ll_hrpwm.o
    0x00002892   0x00002892   0x00000002   PAD
    0x00002894   0x00002894   0x0000001c   Code   RO          442    i.HRPWM_StructInit  hc32_ll_hrpwm.o
    0x000028b0   0x000028b0   0x000000cc   Code   RO         1139    i.HRTIM_BM_Conf     hrtimer.o
    0x0000297c   0x0000297c   0x00000b08   Code   RO         1140    i.HRTIM_Config      hrtimer.o
    0x00003484   0x00003484   0x00000158   Code   RO         1141    i.HRTIM_IDLE_Conf   hrtimer.o
    0x000035dc   0x000035dc   0x00000014   Code   RO          517    i.IRQ000_Handler    hc32_ll_interrupts.o
    0x000035f0   0x000035f0   0x00000014   Code   RO          518    i.IRQ001_Handler    hc32_ll_interrupts.o
    0x00003604   0x00003604   0x00000014   Code   RO          519    i.IRQ002_Handler    hc32_ll_interrupts.o
    0x00003618   0x00003618   0x00000014   Code   RO          520    i.IRQ003_Handler    hc32_ll_interrupts.o
    0x0000362c   0x0000362c   0x00000014   Code   RO          521    i.IRQ004_Handler    hc32_ll_interrupts.o
    0x00003640   0x00003640   0x00000014   Code   RO          522    i.IRQ005_Handler    hc32_ll_interrupts.o
    0x00003654   0x00003654   0x00000014   Code   RO          523    i.IRQ006_Handler    hc32_ll_interrupts.o
    0x00003668   0x00003668   0x00000014   Code   RO          524    i.IRQ007_Handler    hc32_ll_interrupts.o
    0x0000367c   0x0000367c   0x00000014   Code   RO          525    i.IRQ008_Handler    hc32_ll_interrupts.o
    0x00003690   0x00003690   0x00000014   Code   RO          526    i.IRQ009_Handler    hc32_ll_interrupts.o
    0x000036a4   0x000036a4   0x00000014   Code   RO          527    i.IRQ010_Handler    hc32_ll_interrupts.o
    0x000036b8   0x000036b8   0x00000014   Code   RO          528    i.IRQ011_Handler    hc32_ll_interrupts.o
    0x000036cc   0x000036cc   0x00000014   Code   RO          529    i.IRQ012_Handler    hc32_ll_interrupts.o
    0x000036e0   0x000036e0   0x00000014   Code   RO          530    i.IRQ013_Handler    hc32_ll_interrupts.o
    0x000036f4   0x000036f4   0x00000014   Code   RO          531    i.IRQ014_Handler    hc32_ll_interrupts.o
    0x00003708   0x00003708   0x00000014   Code   RO          532    i.IRQ015_Handler    hc32_ll_interrupts.o
    0x0000371c   0x0000371c   0x000000c8   Code   RO         1078    i.Inter2Asciix      main.o
    0x000037e4   0x000037e4   0x00000298   Code   RO         1206    i.LLC_CTRL_Loop     Ctrl_Lib.lib(ctrl_lib.o)
    0x00003a7c   0x00003a7c   0x000000ac   Code   RO         1193    i.LLC_CmpConfig     hc32f334_drivers.o
    0x00003b28   0x00003b28   0x00000094   Code   RO           18    i.LL_PERIPH_WE      hc32_ll.o
    0x00003bbc   0x00003bbc   0x00000124   Code   RO         1079    i.LedDriverMang     main.o
    0x00003ce0   0x00003ce0   0x000001a0   Code   RO         1080    i.LogoDataUpdate    main.o
    0x00003e80   0x00003e80   0x00000218   Code   RO         1081    i.SwFualtCheck      main.o
    0x00004098   0x00004098   0x00000164   Code   RO         1082    i.SysStateMachineMag  main.o
    0x000041fc   0x000041fc   0x0000009c   Code   RO            8    i.SystemCoreClockUpdate  system_hc32f334.o
    0x00004298   0x00004298   0x00000020   Code   RO            9    i.SystemInit        system_hc32f334.o
    0x000042b8   0x000042b8   0x00000064   Code   RO          795    i.TMR0_Init         hc32_ll_tmr0.o
    0x0000431c   0x0000431c   0x00000014   Code   RO          802    i.TMR0_Start        hc32_ll_tmr0.o
    0x00004330   0x00004330   0x0000001e   Code   RO          804    i.TMR0_StructInit   hc32_ll_tmr0.o
    0x0000434e   0x0000434e   0x00000002   PAD
    0x00004350   0x00004350   0x0000005c   Code   RO          805    i.TMR0_WaitSyncDone  hc32_ll_tmr0.o
    0x000043ac   0x000043ac   0x00000028   Code   RO         1152    i.TMR6_1_SCmp_Handler  hrtimer.o
    0x000043d4   0x000043d4   0x00000038   Code   RO         1153    i.TMR6_2_IrqHandler  hrtimer.o
    0x0000440c   0x0000440c   0x00000034   Code   RO         1154    i.TMR6_IrqHandler   hrtimer.o
    0x00004440   0x00004440   0x00000036   Code   RO          964    i.TMRA_Init         hc32_ll_tmra.o
    0x00004476   0x00004476   0x0000003c   Code   RO          966    i.TMRA_PWM_Init     hc32_ll_tmra.o
    0x000044b2   0x000044b2   0x00000012   Code   RO          967    i.TMRA_PWM_OutputCmd  hc32_ll_tmra.o
    0x000044c4   0x000044c4   0x0000001e   Code   RO          970    i.TMRA_PWM_StructInit  hc32_ll_tmra.o
    0x000044e2   0x000044e2   0x00000008   Code   RO          973    i.TMRA_SetCompareValue  hc32_ll_tmra.o
    0x000044ea   0x000044ea   0x0000000e   Code   RO          981    i.TMRA_Start        hc32_ll_tmra.o
    0x000044f8   0x000044f8   0x00000020   Code   RO          983    i.TMRA_StructInit   hc32_ll_tmra.o
    0x00004518   0x00004518   0x0000004c   Code   RO         1194    i.TemperatureBaseLookUpTable  hc32f334_drivers.o
    0x00004564   0x00004564   0x00000094   Code   RO         1195    i.TmrAConfig        hc32f334_drivers.o
    0x000045f8   0x000045f8   0x0000003c   Code   RO         1196    i.USART2Config      hc32f334_drivers.o
    0x00004634   0x00004634   0x00000038   Code   RO          998    i.USART_FuncCmd     hc32_ll_usart.o
    0x0000466c   0x0000466c   0x0000049e   Code   RO         1023    i.USART_SetBaudrate  hc32_ll_usart.o
    0x00004b0a   0x00004b0a   0x0000005a   Code   RO         1041    i.USART_UART_Init   hc32_ll_usart.o
    0x00004b64   0x00004b64   0x0000002c   Code   RO         1043    i.USART_UART_StructInit  hc32_ll_usart.o
    0x00004b90   0x00004b90   0x0000003c   Code   RO         1198    i.Usart2_TxEnable   hc32f334_drivers.o
    0x00004bcc   0x00004bcc   0x00000026   Code   RO         1199    i.WDT_Config        hc32f334_drivers.o
    0x00004bf2   0x00004bf2   0x00000002   PAD
    0x00004bf4   0x00004bf4   0x00000014   Code   RO         1068    i.WDT_FeedDog       hc32_ll_wdt.o
    0x00004c08   0x00004c08   0x00000044   Code   RO         1070    i.WDT_Init          hc32_ll_wdt.o
    0x00004c4c   0x00004c4c   0x0000000e   Code   RO         1258    i.__scatterload_copy  mc_w.l(handlers.o)
    0x00004c5a   0x00004c5a   0x00000002   Code   RO         1259    i.__scatterload_null  mc_w.l(handlers.o)
    0x00004c5c   0x00004c5c   0x0000000e   Code   RO         1260    i.__scatterload_zeroinit  mc_w.l(handlers.o)
    0x00004c6a   0x00004c6a   0x00000002   PAD
    0x00004c6c   0x00004c6c   0x00000560   Code   RO         1083    i.main              main.o
    0x000051cc   0x000051cc   0x00000008   Data   RO          199    .constdata          hc32_ll_dac.o
    0x000051d4   0x000051d4   0x00000020   Data   RO         1048    .constdata          hc32_ll_usart.o
    0x000051f4   0x000051f4   0x00000142   Data   RO         1201    .constdata          hc32f334_drivers.o
    0x00005336   0x00005336   0x00000002   PAD
    0x00005338   0x00005338   0x00000020   Data   RO         1256    Region$$Table       anon$$obj.o


    Execution Region RW_IRAM1 (Exec base: 0x1fffc000, Load base: 0x00005358, Size: 0x00000008, Max: 0x00000008, ABSOLUTE, UNINIT)

    Exec Addr    Load Addr    Size         Type   Attr      Idx    E Section Name        Object

    0x1fffc000        -       0x00000008   Zero   RW           10    .bss.noinit         system_hc32f334.o


    Execution Region RW_IRAM2 (Exec base: 0x1fffc008, Load base: 0x00005358, Size: 0x00000ee0, Max: 0x0000fff8, ABSOLUTE, COMPRESSED[0x00000054])

    Exec Addr    Load Addr    Size         Type   Attr      Idx    E Section Name        Object

    0x1fffc008   COMPRESSED   0x000000e8   Data   RW         1088    .data               main.o
    0x1fffc0f0   COMPRESSED   0x00000008   Data   RW         1155    .data               hrtimer.o
    0x1fffc0f8   COMPRESSED   0x00000004   Data   RW         1180    .data               ev_hc32f334_lqfp64.o
    0x1fffc0fc   COMPRESSED   0x00000080   Data   RW         1202    .data               hc32f334_drivers.o
    0x1fffc17c   COMPRESSED   0x00000004   Data   RW         1210    .data               Ctrl_Lib.lib(ctrl_lib.o)
    0x1fffc180   COMPRESSED   0x00000054   Data   RW         1211    .data               Ctrl_Lib.lib(ctrl_lib.o)
    0x1fffc1d4   COMPRESSED   0x00000004   Data   RW         1212    .data               Ctrl_Lib.lib(ctrl_lib.o)
    0x1fffc1d8   COMPRESSED   0x00000004   Data   RW         1213    .data               Ctrl_Lib.lib(ctrl_lib.o)
    0x1fffc1dc   COMPRESSED   0x00000004   Data   RW         1214    .data               Ctrl_Lib.lib(ctrl_lib.o)
    0x1fffc1e0   COMPRESSED   0x00000004   Data   RW         1215    .data               Ctrl_Lib.lib(ctrl_lib.o)
    0x1fffc1e4   COMPRESSED   0x00000004   Data   RW         1216    .data               Ctrl_Lib.lib(ctrl_lib.o)
    0x1fffc1e8   COMPRESSED   0x00000004   Data   RW         1217    .data               Ctrl_Lib.lib(ctrl_lib.o)
    0x1fffc1ec   COMPRESSED   0x00000004   Data   RW         1218    .data               Ctrl_Lib.lib(ctrl_lib.o)
    0x1fffc1f0   COMPRESSED   0x00000002   Data   RW         1220    .data               Ctrl_Lib.lib(ctrl_lib.o)
    0x1fffc1f2   COMPRESSED   0x00000002   PAD
    0x1fffc1f4   COMPRESSED   0x00000004   Data   RW         1224    .data               Ctrl_Lib.lib(ctrl_lib.o)
    0x1fffc1f8        -       0x00000040   Zero   RW          538    .bss                hc32_ll_interrupts.o
    0x1fffc238        -       0x00000040   Zero   RW         1200    .bss                hc32f334_drivers.o
    0x1fffc278        -       0x00000070   Zero   RW         1209    .bss                Ctrl_Lib.lib(ctrl_lib.o)
    0x1fffc2e8        -       0x00000c00   Zero   RW            1    STACK               startup_hc32f334.o


    Execution Region RW_IRAMB (Exec base: 0x200f0000, Load base: 0x000053ac, Size: 0x00000000, Max: 0x00001000, ABSOLUTE)

    **** No section assigned to this execution region ****


==============================================================================

Image component sizes


      Code (inc. data)   RO Data    RW Data    ZI Data      Debug   Object Name

       322         26          0          4          0          0   ev_hc32f334_lqfp64.o
       148         30          0          0          0          0   hc32_ll.o
       192          0          0          0          0          0   hc32_ll_adc.o
        10          0          0          0          0          0   hc32_ll_aos.o
       742         48          0          0          0          0   hc32_ll_clk.o
       280         12          0          0          0          0   hc32_ll_cmp.o
       336          8          8          0          0          0   hc32_ll_dac.o
       274          0          0          0          0          0   hc32_ll_dma.o
       676        100          0          0          0          0   hc32_ll_efm.o
       444          0          0          0          0          0   hc32_ll_emb.o
        72         18          0          0          0          0   hc32_ll_fcg.o
       492         48          0          0          0          0   hc32_ll_gpio.o
      1832         70          0          0          0          0   hc32_ll_hrpwm.o
         0          0         96          0          0          0   hc32_ll_icg.o
       332        102          0          0         64          0   hc32_ll_interrupts.o
       242         10          0          0          0          0   hc32_ll_tmr0.o
       216          0          0          0          0          0   hc32_ll_tmra.o
      1372         26         32          0          0          0   hc32_ll_usart.o
       136         22          0          0          0          0   hc32_ll_utility.o
        88         16          0          0          0          0   hc32_ll_wdt.o
      2574        218        322        128         64          0   hc32f334_drivers.o
      3520        250          0          8          0          0   hrtimer.o
      3980        326          0        232          0          0   main.o
        36          8        648          0       3072          0   startup_hc32f334.o
       188         42          0          0          8          0   system_hc32f334.o

    ----------------------------------------------------------------------
     18530       1380       1140        372       3208          0   Object Totals
         0          0         32          0          0          0   (incl. Generated)
        26          0          2          0          0          0   (incl. Padding)

    ----------------------------------------------------------------------

      Code (inc. data)   RO Data    RW Data    ZI Data      Debug   Library Member Name

       664         38          0        122        112          0   ctrl_lib.o
        86          0          0          0          0          0   __dczerorl2.o
         0          0          0          0          0          0   entry.o
         0          0          0          0          0          0   entry10a.o
         0          0          0          0          0          0   entry11a.o
         4          0          0          0          0          0   entry12b.o
         8          4          0          0          0          0   entry2.o
         4          0          0          0          0          0   entry5.o
         0          0          0          0          0          0   entry7b.o
         0          0          0          0          0          0   entry8b.o
         8          4          0          0          0          0   entry9a.o
        30          0          0          0          0          0   handlers.o
        36          8          0          0          0          0   init.o
         0          0          0          0          0          0   iusefp.o
        30          0          0          0          0          0   llshl.o
        32          0          0          0          0          0   llushr.o
        36          0          0          0          0          0   memseta.o
        98          0          0          0          0          0   uldiv.o
        56          0          0          0          0          0   d2f.o
       222          0          0          0          0          0   ddiv.o
       186          0          0          0          0          0   depilogue.o
        26          0          0          0          0          0   dfltui.o
        24          0          0          0          0          0   dfltul.o
       110          0          0          0          0          0   fepilogue.o

    ----------------------------------------------------------------------
      1666         54          0        124        112          0   Library Totals
         6          0          0          2          0          0   (incl. Padding)

    ----------------------------------------------------------------------

      Code (inc. data)   RO Data    RW Data    ZI Data      Debug   Library Name

       664         38          0        122        112          0   Ctrl_Lib.lib
       372         16          0          0          0          0   mc_w.l
       624          0          0          0          0          0   mf_w.l

    ----------------------------------------------------------------------
      1666         54          0        124        112          0   Library Totals

    ----------------------------------------------------------------------

==============================================================================


      Code (inc. data)   RO Data    RW Data    ZI Data      Debug   

     20196       1434       1140        496       3320          0   Grand Totals
     20196       1434       1140         84       3320          0   ELF Image Totals (compressed)
     20196       1434       1140         84          0          0   ROM Totals

==============================================================================

    Total RO  Size (Code + RO Data)                21336 (  20.84kB)
    Total RW  Size (RW Data + ZI Data)              3816 (   3.73kB)
    Total ROM Size (Code + RO Data + RW Data)      21420 (  20.92kB)

==============================================================================

