:020000040800F2
:10000000F0FF0020750A0008D10300089B030008D8
:10001000C9030008D7020008990B0008000000007F
:10002000000000000000000000000000890A000835
:10003000750300080000000097090008A90A0008DD
:10004000A3030008A503000800000000FD0A000843
:10005000950B0008970B0008830A0008850A000822
:10006000990300088F03000899090008A50B0008F0
:100070007B03000873030008DF02000891030008F7
:10008000930300089503000897030008CF020008B7
:10009000000000008B0A0008B90A0008ED0A0008F9
:1000A000EF0A0008F10A0008000000007D0A0008BD
:1000B000AD090008AF090008B10900087F0A00086F
:1000C000810A0008B5030008A7030008A903000877
:1000D000AB030008890300088B0300088D030008A8
:1000E000870A00087D0300087F03000881030008D9
:1000F00083030008850300088703000877030008CE
:10010000AD0300086D0300086F03000871030008C9
:10011000E1020008D1020008D3020008D50200085D
:100120006B030008A10B0008F30A0008F50A000899
:10013000F70A0008F90A000879030008DFF810D070
:1001400000F082F800480047C3020008AFF30080C7
:10015000F0FF00202DE9F05F0546002092469B4607
:1001600088460646814640241BE0284641464746CD
:10017000224600F059F853465A46C01A914110D30E
:1001800011461846224600F040F82D1A67EB010888
:100190004F4622460120002100F037F817EB0009F6
:1001A0004E41201EA4F10104DFDC484631462A46B8
:1001B0004346BDE8F09FA0F16101192900D820381D
:1001C000704740EA01039B0703D009E008C9121FEA
:1001D00008C0042AFAD203E011F8013B00F8013B01
:1001E000521EF9D27047D2B201E000F8012B491E2D
:1001F000FBD270470022F6E710B513460A460446C4
:100200001946FFF7F0FF204610BD202A04DB203AF4
:1002100000FA02F1002070479140C2F1200320FA59
:1002200003F3194390407047202A04DB203A21FA57
:1002300002F00021704721FA02F3D040C2F12002FF
:100240009140084319467047064C074D06E0E068A8
:1002500040F0010394E8070098471034AC42F6D30D
:10026000FFF770FFB0480008D048000870B58C1840
:1002700010F8015B15F0070301D110F8013B2A11BA
:1002800006D110F8012B03E010F8016B01F8016BA7
:100290005B1EF9D12B0705D40023521E0DD401F8A3
:1002A000013BFAE710F8013BCB1A921C03E013F86C
:1002B000015B01F8015B521EF9D5A142D8D30020A1
:1002C00070BD10B504F08AF803F0E8F810BD70476F
:1002D00070477047704700F0FFFF00BFFEE77047B0
:1002E00070472DE9F0410746884615460421052050
:1002F00000F02DF80021012000F062FC80210A208E
:1003000000F0C4FB002405E0395D092000F058FC32
:10031000601CC4B24445F7DB0321012000F050FC0F
:10032000FF2400BF052000F045FB0646601EC4B256
:100330001CB106F004000028F4D0222000F03AFBA3
:100340002870212000F036FB6870BDE8F08170B5A0
:1003500005460C460026284600F02CFB064626EAF9
:100360000401284600F02CFC70BD704770477047B0
:1003700070477047704770477047704770477047C5
:1003800070477047704770477047704770477047B5
:100390007047704770477047704700F09DFF00BF7F
:1003A000FEE77047704770477047704700F094FF52
:1003B00000BFFEE77047002100E0491C00EB40024F
:1003C00052008A42F9D8704700F086FF00BFFEE76E
:1003D00000F082FF00BFFEE710B5142000F0EAFA3B
:1003E000044604F0030018B90321142000F04EFB6A
:1003F00010BD2DE9704193B006460025082108463E
:10040000FFF7A5FF00210D2000F0DAFB80210E2070
:10041000FFF79DFF93208DF8080020208DF809003C
:1004200012A802AB022202A900900C2000F086F86C
:100430008046B8F1000F42D13878442814D178783A
:1004400090B9002407E002A8005D305502A8005DC5
:100450004540601CC4B2082CF5DB02A8005DA84230
:100460002DD04FF002082AE03878442815D178784A
:10047000032812D1002407E002A8005D305502A82D
:10048000005D4540601CC4B2082CF5DB02A8005D8D
:10049000A84214D04FF0020811E0002407E002A89F
:1004A000005D305502A8005D4540601CC4B2082CB8
:1004B000F5DB02A8005DA84201D04FF002088021C0
:1004C0000E2000F0E3FA404613B0BDE870812DE93C
:1004D000F04393B006460F46904699468DF8086063
:1004E0008DF80970002406E018F8041002AAA01C78
:1004F0001154601CC4B2062CF6DB002407E019F886
:10050000041002AA04F108001154601CC4B2062CA5
:10051000F5DB12A802AB0C2202A900900E2000F01D
:100520000DF805462DB9082000F044FA00F0080047
:1005300000B90225284613B0BDE8F0832DE9FE4F2F
:100540000646884691469A46DDF830B00220029071
:100550000020019000900C2E06D00E2E09D1122002
:1005600001901020009005E077200190302000904D
:1005700000E000BF00BF019840F08001022000F0C1
:100580001FFB80210420FFF7E2FE0021012000F084
:1005900017FB80210A2000F079FA002505E018F801
:1005A0000510092000F00CFB6D1C4D45F7D33146BA
:1005B000012000F005FB0C2E03D180210D2000F05E
:1005C00065FA4FF4FA6500BF042000F0F3F9044621
:1005D0006D1E35B104F0010018B9009820400028C4
:1005E000F2D080210D20FFF7B2FE95B3062000F077
:1005F000E1F900F01B0068BB002002900198204048
:1006000000F0010008B1012002900C2E24D10A2034
:1006100000F0D0F904460C2000F0CCF900F00707F8
:100620002FB1601E07EBC000CBF8000002E0E00035
:10063000CBF8000004B90124402C00DD4024002543
:1006400005E0092000F0B6F90AF805006D1CA54286
:10065000F7D301E00220029080210C2000F016FA6E
:100660000021012000F0ACFA0298BDE8FE8FF0B541
:1006700093B005460E4630208DF808008DF80950DD
:100680000DF10A02022102A8FFF72BFE12A802AB0D
:10069000042202A900900C20FFF750FF074667B91B
:1006A0001298902809D1002404E002A8005D30557A
:1006B000601CC4B2102CF8DB00E00227384613B0EF
:1006C000F0BD70B592B006460C460F21012000F037
:1006D00077FA00BF272000F06DF98828FAD10821A9
:1006E0000846FFF734FE07210D2000F069FA0321C8
:1006F000142000F0CBF98DF804604FF47A7000F00C
:100700004CF911A801AB012201A900900C20FFF7C0
:1007100015FF05464DB91198102806D19DF8040023
:1007200020709DF80500607000E00225284612B098
:1007300070BD70B5012003F099FC4FF4FA70FFF71B
:100740003AFE002003F092FCC820FFF734FE01209F
:1007500003F08CFC4FF4FA70FFF72DFE0F210120FF
:1007600000F02EFAC820FFF726FE00BF272000F079
:1007700021F98828FAD108210846FFF7E8FD8021F1
:100780000220FFF7E4FD3D21112000F019FA882135
:10079000172000F015FA4021152000F011FA002171
:1007A000122000F00DFA0021132000F009FA372082
:1007B00000F000F905460021372000F001FA37204B
:1007C00000F0F8F80446112C1CD15E21372000F00F
:1007D000F7F94821262000F0F3F98821172000F0CE
:1007E000EFF96B21382000F0EBF923213A2000F0DB
:1007F000E7F91221292000F0E3F9A5213B2000F0C0
:10080000DFF940E0122C1CD15E21372000F0D8F92E
:100810008821172000F0D4F91221292000F0D0F906
:10082000ED21352000F0CCF9A5213B2000F0C8F9DE
:10083000AE21372000F0C4F972213B2000F0C0F94E
:1008400021E0122C1FDD5E21372000F0B9F948218C
:10085000262000F0B5F98821172000F0B1F9122107
:10086000292000F0ADF9ED21352000F0A9F9A521EE
:100870003B2000F0A5F9AE21372000F0A1F972214C
:100880003B2000F09DF92946372000F099F900201F
:1008900070BD70B592B0054693208DF804007020AD
:1008A0008DF8050000208DF80A0000240BE0295D7A
:1008B00001AAA01C11549DF80A00295D48408DF83A
:1008C0000A00601CC4B2042CF1DB0DF10B020721FD
:1008D00001A8FFF706FD08210846FFF738FD11A81B
:1008E00001AB092201A900900C20FFF727FE064664
:1008F00026B91198182801D1002600E002263046BA
:1009000012B070BDF0B593B006460F46A0208DF82A
:1009100008008DF809600DF10A02022102A8FFF714
:10092000E0FC12A802AB042202A900900C20FFF701
:1009300005FE054645B91298042805D19DF8080022
:1009400000F00F000A2800D002250DBB002404E0AF
:10095000385D02A90855601CC4B2102CF8DB06AA49
:10096000102102A8FFF7BDFC12A802AB122202A9B7
:1009700000900C20FFF7E2FD054645B912980428C7
:1009800005D19DF8080000F00F000A2800D00225CC
:10099000284613B0F0BD70477047002100E0491CA5
:1009A00000EB400252008A42F9D870477047704706
:1009B000704700002DE9F041064600250022022183
:1009C0002B4802F01DF800220121294802F018F8F6
:1009D0007E2000EA460040F0800708241CE007F073
:1009E0008000802805D101220421214802F008F866
:1009F00004E0002204211E4802F002F80122022134
:100A00001B4801F0FDFF7806070E0022022118485E
:100A100001F0F6FF601EC4B2002CE0DC082418E0F0
:100A200001220221124801F0EBFF6806050E0820A2
:100A300000210F4A126802400AB1012100E00021A2
:100A400000BF0D4300220221094801F0D9FF601EBA
:100A5000C4B2002CE4DC01221146054801F0D0FFAD
:100A600001220221024801F0CBFF2846BDE8F081B7
:100A700000500240FFF762FB00BFFEE7704770477F
:100A800070477047704770477047704770B50546AC
:100A90000C4600262846FFF78DFF064646EA04016D
:100AA000284600F08DF870BD02480068401C0149DE
:100AB000086070472401012010B50B48006800F45D
:100AC000005078B10848006800F4004050B103F0CD
:100AD0007FFD00BF0448006840F400400249086000
:100AE00000BF00BF10BD00000050014070477047BC
:100AF00070477047704770477047000010B5244832
:100B0000806800F00F04062C14D005DC7CB3022CA6
:100B10001DD0042C39D104E0072C1BD00C2C34D16F
:100B20001FE01B48406800F0010010B1012003F0F5
:100B300027FE2BE01648406800F0040030B100BFEB
:100B4000134840691249486100BF00BF1EE01048C9
:100B500040681BE000BF0E48C06F0D49C86700BF6A
:100B600014E0002003F00CFE03F004FE0EE0FFE7AB
:100B70000748406800F0080030B100BF04488069B1
:100B80000349886100BF00BF00E000BF00BF10BD87
:100B9000003000407047704700F09EFB00BFFEE74A
:100BA0007047000000BF0548406940F0010003495C
:100BB000486100BF00F090FB00BFFEE7003001403D
:100BC0002DE9F04106460D46002202212C4801F095
:100BD00017FF002201212A4801F012FF7E2000EABF
:100BE000460708241CE007F08000802805D1012278
:100BF0000421234801F004FF04E0002204212048DE
:100C000001F0FEFE012202211D4801F0F9FE7806E6
:100C1000070E002202211A4801F0F2FE601EC4B243
:100C2000002CE0DC08241CE005F08000802805D1C1
:100C300001220421124801F0E3FE04E00022042115
:100C40000F4801F0DDFE012202210D4801F0D8FE1F
:100C50006806050E00220221094801F0D1FE601E3F
:100C6000C4B2002CE0DC01221146054801F0C8FEA8
:100C700001220221024801F0C3FE0120BDE8F081FB
:100C8000005002400FB4054B10B503A9044A029866
:100C900000F01EF810BC5DF814FB0000B11700084E
:100CA00010010120EFF310807047EFF310807047C0
:100CB00002E008C8121F08C1002AFAD17047704725
:100CC000002001E001C1121F002AFBD17047000083
:100CD0002DE9FF4F8DB00F460546002606E025287A
:100CE0000BD0DDE90F1290476D1C761C2878002888
:100CF000F5D111B03046BDE8F08F0024A246A146E0
:100D00000122E94900E0044315F8013F203B02FAC3
:100D100003F00842F7D128782A2810D06FF02F026C
:100D20002878A0F13001092914D80AEB8A0102EBD6
:100D3000410144F0020400EB010A6D1CF0E701CF11
:100D40005FEA000A03D544F40054CAF1000A44F0F3
:100D500002046D1C28782E2817D115F8010F44F0D5
:100D600004042A280ED06FF02F022878A0F1300159
:100D700009290AD809EB890102EB410100EB0109BD
:100D80006D1CF2E757F8049B6D1C28786C280FD077
:100D900006DC4C2817D068280DD06A2814D104E04E
:100DA000742810D07A280FD10DE044F400140AE022
:100DB00044F4801401E044F440146978814202D183
:100DC00004F580146D1C6D1C28786E281ED00CDC78
:100DD000632830D004DC00288BD0582811D19FE044
:100DE000642867D069280CD164E073282DD004DC16
:100DF0006F2872D0702804D194E075286ED07828BE
:100E00006DD0DDE90F129047761C4BE1C4F3025020
:100E1000022806D0032809D0042801CF09D0066093
:100E200040E101CFF117C0E900613BE101CF06804D
:100E300038E1067036E117F8040B8DF80000002049
:100E40008DF80100EB46012003E057F804BB4FF09A
:100E5000FF3061074FF0000102D40DE008F10101FD
:100E6000884649450FDA8045F8DB1BF80810002951
:100E7000F4D108E008F1010188468142FADB1BF851
:100E800008100029F6D1DDE90F23AAEB08008146FE
:100E9000214600F031F9304400EB080604E0DDE9BA
:100EA0000F121BF8010B9047B8F10108F7D2214649
:100EB0004846F2E00A21C4F302524FF0000B0891B9
:100EC000022A04D001CFC117032A09D00AE0FF1D6E
:100ED00027F00707F7E8020108E02CE01EE01FE01A
:100EE00000B2C117042A01D140B2C117021E71F12C
:100EF000000206DA0023D0EB030063EB01012D2290
:100F000002E0220504D52B228DF82420012203E0E3
:100F1000E20701D02022F7E7904653E00A210BE0D8
:100F2000102109E010214FF0000B44F004044FF0B1
:100F30000809089103E008214FF0000B0891C4F361
:100F40000252022A04D001CF0021032A06D006E073
:100F5000FF1D27F00707F7E8020103E080B2042A2B
:100F600000D1C0B24FF0000822072BD52A78702A92
:100F700007D0DDF820C08CF0100C5CEA0B0C05D01B
:100F80000EE040228DF82420012208E050EA0103FF
:100F900006D030238DF824308DF82520022290468B
:100FA000089B83F0080353EA0B030BD150EA0102BC
:100FB00001D1620706D530228DF824204FF00108B8
:100FC000A9F101092A78582A04D038A20B9208AA5C
:100FD0000A920BE03AA2F9E75B46089AFFF7BAF8E3
:100FE0000B9B9B5C0A9A521E0A92137050EA0102F4
:100FF000F2D10A98ADEB000000F1200B600702D59A
:1010000024F4803401E04FF00109D94502DDA9EB59
:101010000B0000E0002000EB0B0141440890AAEB1C
:10102000010AE00306D4DDE90F232146504600F013
:1010300063F806444FF0000908E009A911F8090017
:10104000DDE90F12904709F10109761CC145F4DB77
:10105000E0030CD5DDE90F232146504600F04CF8A3
:10106000064404E0DDE90F1230209047761C089911
:10107000481E08900029F5DC08E00A980A990078D3
:10108000491C0A91DDE90F129047761CBBF1000163
:10109000ABF1010BF1DC21465046DDE90F2300F0F6
:1010A00019F806446D1C21E609280100303132335D
:1010B0003435363738396162636465660000000094
:1010C000303132333435363738394142434445467E
:1010D000000000002DE9F041044600251E46174699
:1010E000880404D405E039462020B0476D1C641EF6
:1010F000F9D52846BDE8F0812DE9F04104460025E8
:101100001E469046C80301D5302700E020278804FA
:1011100004D505E041463846B0476D1C641EF9D53C
:101120002846BDE8F081000070B51346002204781F
:1011300045782C4454340C708478C5782C44413460
:101140004C70047845782C4385782C43C5782C4323
:1011500049348C70047845782C4085782C40C578CB
:101160002C405734CC70047845782C448578C67868
:1011700035442C4345340C71047845782C408578EF
:10118000C67835402C4449344C7100BF08E08C5C73
:101190001444054E951D755D2C409C54541CE2B2C0
:1011A000062AF4DB70BD00005500012008B50021BF
:1011B0000A4801F065F9022001F048F900210848C9
:1011C00000F02AFF00208DF800008DF801008DF856
:1011D0000200684601F052F808BD00008038E304C0
:1011E000002A75150A490870022803D109490A4ADC
:1011F00011600BE0032804D14FF04021064A116032
:1012000004E0042802D10549034A11607047000038
:101210001C0101200030004020010120005000404E
:101220002DE9F05F06468846914600241CE016F83A
:1012300014A06000401C16F800B05046FEF7BBFF3B
:101240003038C5B2092D01DDE81FC5B25846FEF79A
:10125000B2FF3038C7B2092F01DDF81FC7B207EB64
:10126000051008F80400641C4C45E0DBBDE8F09F65
:1012700010B50246002000BF0EE0135C084C245C51
:101280001B1B1354072390FBF3F403FB1403D35CE1
:10129000DB430B54431CD8B21028EEDB10BD00001A
:1012A0005500012010B50246002000BF0EE00723C4
:1012B00090FBF3F403FB1403D35CDB430B540B5C94
:1012C000044C245C23440B54431CD8B21028EEDB9E
:1012D00010BD00005500012070B503F02AF86448E5
:1012E0000668634820300468001D0068050C61A092
:1012F000FFF7C8FC61A0FFF7C5FC06F4800008B149
:1013000060A000E060A0014661A0FFF7BBFCC6F34F
:10131000083167A0FFF7B6FCC6F308016CA0FFF721
:10132000B1FC73A0FFF7AEFC5148143000780109FE
:1013300072A0FFF7A7FC4E48001F407E010974A071
:10134000FFF7A0FC4A48001F807E010975A0FFF747
:1013500099FC4748001FC07F010978A0FFF792FC65
:1013600043481430007A010978A0FFF78BFC40480D
:101370001430807A01097BA0FFF784FC3C481430CC
:10138000C07A01097BA0FFF77DFC7FA0FFF77AFC04
:10139000C4F380417FA0FFF775FCC4F3404184A0F3
:1013A000FFF770FCC4F3004187A0FFF76BFC3FA080
:1013B000FFF768FCC4F3C03189A0FFF763FCC4F3F6
:1013C00080318DA0FFF75EFCC4F3403190A0FFF7A1
:1013D00059FCC4F3003194A0FFF754FC33A0FFF78D
:1013E00051FCC4F3C02197A0FFF74CFCC4F380214B
:1013F0009AA0FFF747FCC4F300219EA0FFF742FC30
:10140000C4F3C011A1A0FFF73DFCC4F3C001A5A027
:10141000FFF738FCC4F34001A9A0FFF733FC04F048
:101420000101ADA0FFF72EFCB1A0FFF72BFCC5F327
:101430004021B1A0FFF726FCC5F30021B4A0FFF7BF
:1014400021FCC5F3C001B9A0FFF71CFCC5F3800166
:10145000BCA0FFF717FCC5F34001C0A0FFF712FCCA
:1014600005F00101CAA0FFF70DFC00BE70BD000031
:1014700004ED00E05E5F5E27270D0A0049435352EA
:101480003A0D0A006973000069736E27740000004A
:101490000920746865726520257320696E74657211
:1014A000727570742070656E64696E670D0A000055
:1014B000092070656E64696E672065786365707475
:1014C000696F6E206E756D6265723A25750D0A0042
:1014D0000920616374697665206578636570746955
:1014E0006F6E206E756D6265723A25750D0A00008B
:1014F00053485052783A0D0A0000000009204D650B
:101500006D204D616E6167653A256868640D0A005B
:101510000920427573204661756C743A25686864C9
:101520000D0A000009205573616765204661756CDE
:10153000743A256868640D0A0000000009205356BB
:10154000433A256868640D0A0000000009204465DC
:10155000627567204D6F6E69746F723A25686864B2
:101560000D0A0000092050656E6453563A256868DC
:10157000640D0A0009205379735469636B3A256836
:1015800068640D0A0000000053484353523A0D0AA4
:101590000000000009205573616765204661756C85
:1015A0007420656E61626C653A25750D0A00000055
:1015B0000920427573204661756C7420656E616206
:1015C0006C653A25750D0A0009204D656D20466150
:1015D000756C7420656E61626C653A25750D0A0044
:1015E0000920535643616C6C2070656E6465643AE3
:1015F00025750D0A00000000092042757320466120
:10160000756C742070656E6465643A25750D0A000A
:1016100009204D656D204661756C742070656E649F
:1016200065643A25750D0A000920557361676520C8
:101630004661756C742070656E6465643A25750D3D
:101640000A00000009205379735469636B206163B9
:10165000746976653A25750D0A0000000920506509
:101660006E645356206163746976653A25750D0A78
:101670000000000009204D6F6E69746F7220616375
:10168000746976653A25750D0A00000009205356E5
:1016900043616C6C206163746976653A25750D0A47
:1016A0000000000009205573616765204661756C74
:1016B00074206163746976653A25750D0A0000002F
:1016C0000920427573204661756C742061637469EA
:1016D00076653A25750D0A0009204D656D20466135
:1016E000756C74206163746976653A25750D0A001E
:1016F000554653523A0D0A000920446976696465DB
:10170000206279207A65726F3A2025640D0A000004
:101710000920556E616C69676E656420616363655D
:1017200073733A2025640D0A0000000009204E6FF3
:1017300020636F70726F636573736F723A202564F4
:101740000D0A00000920496E7661696C64205043DF
:10175000206C6F61643A2025640D0A000920496EEF
:101760007661696C64207374617465286174746552
:101770006D707420746F20656E7472792041524DC3
:10178000207374617465293A2025640D0A000000F5
:101790000920556E646566696E656420696E7374B0
:1017A00072756374696F6E3A2025640D0A0000003B
:1017B00010B50B461649097801290BDD154CC2B24C
:1017C000216800BF00BFCC6F04F00204002CFAD0E7
:1017D0000A601BE00E490978012917D101460E4A1B
:1017E000126802F001027AB10B4A803A126802F0E4
:1017F00001024AB100E000BF4FF060421268002AC7
:10180000F9D04FF06044217000BF00BF10BD000050
:101810001C01012020010120800E00E070B505466A
:10182000002420480078002815D000201D490870A9
:101830001DA0FFF727FA1DA0FFF724FA29A0FFF744
:1018400021FA19A0FFF71EFA33A0FFF71BFA16A022
:10185000FFF718FA25E001201249087012A0FFF7DF
:1018600011FA37A0FFF70EFA43A0FFF70BFA0EA00C
:10187000FFF708FA4C48FFF705FA4CA0FFF702FA09
:101880004F4801F013FF002406E04D48015D4DA0D4
:10189000FFF7F8F9601CC4B2072CF6DB02A0FFF7D3
:1018A000F1F970BD070001200D0A00002A2A2A2A3A
:1018B0002A2A2A2A2A2A2A2A2A2A2A2A2A204E4652
:1018C000432052454144204D4F4445202A2A2A2A8C
:1018D0002A2A2A2A2A2A2A2A2A2A2A2A2A2A2A0D85
:1018E0000A0000002D2D2D2D2D2D2D20636C6963F8
:1018F0006B206B657932206368616E676520746F59
:10190000207772697465206D6F6465202D2D2D2DF3
:101910002D2D0D0A000000002D2D2D2D2D2D2D3EDD
:1019200020506C656163652073776970696E67200C
:101930004E464320636172642021210D0A0000009D
:101940002A2A2A2A2A2A2A2A2A2A2A2A2A2A2A2AF7
:101950002A20204E4643205752495445204D4F449B
:1019600045202A2A2A2A2A2A2A2A2A2A2A2A2A2AC6
:101970002A2A2A2A2A0D0A002D2D2D2D2D2D2D2023
:10198000636C69636B206B657932206368616E6795
:101990006520746F2072656164206D6F6465202D11
:1019A0002D2D2D2D0D0A00006C4800084375727214
:1019B000656E7420534E2069733A0D0A00000000D2
:1019C0000000012025303258200000000020704720
:1019D00010B5002400BF1DE004EB8402154B03EB9F
:1019E0008202D18804EB840203EB82029068002219
:1019F00000F06EFF04EB84020E4B03EB8202D188F1
:101A000004EB840203EB82029068022200F0A0FF44
:101A1000601CC4B2012CDFDB07480068074942693B
:101A20000020904706480068064942690020904718
:101A300010BD0000DC00012078000120C80001205A
:101A40006C0001206D1A0008024611B94FF0FF30FA
:101A500070471AB9034801610020F9E74FF0FF30E1
:101A6000F6E70000DC0001200020704710B50446B6
:101A70006078012804D0022806D003280CD107E0A2
:101A800007A0FFF7FFF808E009A0FFF7FBF804E064
:101A90000CA0FFF7F7F800E000BF00BF10BD00008A
:101AA0004B45593220434C49434B0D0A000000007E
:101AB0004B45593220444F55424C4520434C4943F5
:101AC0004B0D0A004B455932204C4F4E4720505287
:101AD0004553530D0A00000070B505460024002050
:101AE0000446C7E004EB8402644B03EB8202906877
:101AF00004EB840203EB8202D188002203680B40CE
:101B00000BB1012200E0002200BF9AB95C48005DE1
:101B100018B15B48005D022804D15A48005D401CA2
:101B2000584908550120564908550020564941F8A2
:101B300024000AE05248005D012806D102205049E5
:101B400008550020514941F824004D48005D002807
:101B500071D0012802D002286ED136E04848005DDD
:101B600004EB8401454A02EB81018870474850F834
:101B70002400401C454941F82400084650F8240040
:101B8000C82812D94248007890B903204149085525
:101B90000846005D04EB840102EB810148700120DE
:101BA0003D4908553A49087002E001203949085575
:101BB0003448005D012807DD344850F82400C82867
:101BC00002D202203349085537E02F4850F824004C
:101BD000401C2D4941F82400084650F824003228C2
:101BE00026D92748005D04EB8401244A02EB8101D9
:101BF00088702848005D04EB840102EB8101487085
:101C000000201F490855234908551F4941F8240061
:101C10001C49085504EB8400114601EB8000407814
:101C2000032802D001201C490855002018490870DB
:101C300003E000E000E000E000BF00BF1648005DE8
:101C4000012814D104EB84000C4901EB80000069E9
:101C500068B104EB84020B4603EB820004EB8402C0
:101C600003EB82021169884700200B490855601C6C
:101C7000C0B20446012CFFF635AF70BDDC00012078
:101C8000F2000120F4000120FC000120F8000120F6
:101C9000F0000120F1000120F30001200020704736
:101CA0001CB504460020324908705CE030490978D0
:101CB0004DF821402E4909785DF8210000782C4923
:101CC000097801EB41012B4A12F83110884245D1C5
:101CD000274909785DF8210080682549097801EBDA
:101CE000410102EBC1018860214909785DF82100BA
:101CF00040881F49097801EB410102EBC10148808E
:101D00001B4909785DF8210080881949097801EBA1
:101D1000410102EBC10188801548007800EB4000CA
:101D2000114601EBC0008068C0B1114A127802EB85
:101D300042020B4613F8322002EB420203EBC202CE
:101D400091890B4A127802EB420213F8322002EB1F
:101D5000420203EBC202106900F0B4FD04480078AF
:101D6000401C034908700248007802289EDB1CBD15
:101D7000C40001207C0001200CB50021134A117021
:101D80001EE0124A12784DF82200104A12785DF8CF
:101D9000221009780D4A127802EB42020C4B13F81C
:101DA0003220914207D10021084A127802EB420208
:101DB00003EBC202916005490978491C034A11707E
:101DC000024909780229DCDB0CBD0000C5000120B6
:101DD0007C00012070B505460E46002400BF93E04C
:101DE00004EB44004A4901EBC0008068002807DC8E
:101DF00004EB440001EBC0008068401C00287CD14B
:101E0000444850F82400E8B301287AD1424850F8F9
:101E1000241004EB44003E4A02EBC0004088401E00
:101E2000814207DA3C4850F82400401C3A4941F806
:101E3000240031E004EB4400354901EBC000806828
:101E400000280BDD04EB440001EBC0008068401E5D
:101E500004EB44012E4A02EBC101886000202D49A9
:101E600041F824002C4941F8240004EB4402284B9B
:101E700013F8322002EB420203EBC202918904EB19
:101E8000440200E009E013F8322002EB420203EBC7
:101E9000C202106900F019FD33E0204850F8241008
:101EA00004EB44001A4A02EBC0008088401E8142C5
:101EB00007DA1A4850F82400401C184941F8240059
:101EC0001EE00120134941F824000020134941F885
:101ED000240004EB44020E4B13F8322002EB4202C2
:101EE00003EBC202918904EB440213F8322002EBA7
:101EF000420203EBC202106900E003E000F0E2FCE2
:101F000000BF00BF601CC4B2022CFFF669AF70BDF9
:101F10007C000120AC000120B4000120BC000120A5
:101F200010B5002400BF2AE004EB4402184B03EB79
:101F3000C202918904EB440203EBC2021069012240
:101F400000F0C6FC04EB4402114B03EBC202918982
:101F500004EB440203EBC2021069022200F0F8FC19
:101F600004EB44020A4B03EBC202918904EB4402E6
:101F700003EBC202106900F0A8FC601CC4B2022C82
:101F8000D2DB04480068044942690020904710BD34
:101F90007C00012074000120D51D000870B50546A5
:101FA0000C4635B1012D15D0022D24D0032D2CD196
:101FB00026E0227802EB4202154B03EBC202918924
:101FC000227802EB420203EBC202106900F07AFCB5
:101FD000002070BD227802EB42020D4B03EBC202DF
:101FE0009189227802EB420203EBC202106900F0F1
:101FF0006CFC0020EDE72046FFF752FE0020E8E7EA
:102000002046FFF7B9FE0020E3E74FF0FF30E0E79E
:102010007C000120002070472DE9FC5F06468846C1
:1020200000200190401E0090002716E08C4850F8D8
:102030002700B04205D28A4850F82700A6EB000AD4
:1020400004E0874850F82700A0EB060A0098824574
:1020500002D2CDF800A001977F1C042FE6D3B8F17F
:10206000000F03D0B8F1010F06D102E0DFF8F491C0
:1020700005E0DFF8F49102E0DFF8F09100BF00BF67
:102080000020800340EA96414FEA863B4A460023FF
:102090005846FEF75FF804460D467548C06BC0F31E
:1020A0004131019881423FD172484068210C41EA98
:1020B00005412B0C4840184336D16E4880680023F8
:1020C000A1B205EA03024840534018432CD16848A6
:1020D000C06B00F4805038B365480068C0F3C1306D
:1020E000404521D1B8F1000F03D0B8F1010F19D14B
:1020F0000CE05F48C06B00F0806030B95C48006C59
:1021000000F0010008B1BDE8FC9F0CE05848C06B2E
:1021100000F0806028B15648006C00F4803000B1B7
:10212000F1E700E000BF00BFB8F1000F03D0B8F145
:10213000010F55D127E000BFFEF7B4FD08B901201B
:1021400000E000208346BBF1000F00D072B64A4881
:102150004749886500BF4648006820F4C0304449BC
:1021600008600846C06B20F08060C8630846006CB9
:1021700040F00100086400208865BBF1000F00D02A
:1021800062B600BF2DE000BFFEF78CFD08B901204C
:1021900000E000208346BBF1000F00D072B6364845
:1021A0003349886500BF3248006C40F480303049C4
:1021B00008640846006820F4C030086008460068DB
:1021C00040F4004008600846C06B40F08060C8637F
:1021D00000208865BBF1000F00D062B600BF00E0B0
:1021E00000BF00BF00BFFEF75DFD08B9012000E0A1
:1021F00000208346BBF1000F00D072B61E481C4978
:10220000886500BF1A48C06B20F4C0401849C863F5
:102210000846C16B019800F0030041EA40301449C0
:10222000C863200C40EA054012494860A0B28860AB
:102230000020C8600860012008600D48C06B40F4B1
:1022400080500B49C86300208865BBF1000F00D0A7
:1022500062B600BF962000F09DF800BF53E7000073
:102260005C48000880BA8C0100127A0040420F00DE
:102270000060024000D00140E487AC3F70B50446E6
:1022800000BFFEF70FFD08B9012000E00020064660
:1022900006B172B61E481F49886500BF1D484568D3
:1022A00000201C49886506B162B600BF05F07F4575
:1022B0006078FF2801D1FE2000E06078C1B220786C
:1022C000FF2801D1FE2000E0207861F31F20A178D3
:1022D000FF2901D1FE2100E0A178C9B240EA014006
:1022E000054300BFFEF7DEFC08B9012000E0002036
:1022F000064606B172B606480649886500BF05481D
:10230000456000200349886506B162B600BF70BD14
:10231000E487AC3F0060024070B50446092C19D137
:1023200000BFFEF7C2FC08B9012000E0002005460E
:1023300005B172B615481649886500BF1448406952
:102340000121A1400843124948610020886505B178
:1023500062B619E000BFFEF7A8FC08B9012000E052
:102360000020054605B172B608480949886500BFD6
:10237000074800690121A140084305490861002080
:10238000886505B162B600BF70BD0000E487AC3F50
:102390000060024008B508E01A21009102E00099AF
:1023A000491E009100990029F9D1011EA0F10100F8
:1023B000F2D108BDF0B52148006800F0030030B14B
:1023C000012807D0022807D003282DD12AE04FF496
:1023D000FA4229E01A4A27E018480068C0F3C120F1
:1023E00010B1012804D101E0154903E0154901E0CD
:1023F000002100BF00BF1448836800244068002506
:102400002D0445EA104543EA00432C4300201D46B5
:10241000A5FB017C04FB01C603FB0060450445EA03
:10242000D73201E0074A00BF00BF0448806800F0CF
:102430000F00401CB2FBF0F0F0BD00000060024055
:1024400080BA8C0100127A0000C0014010B5044629
:102450000948006800F00300A04205D00648006863
:1024600064F3010004490860FFF7A4FF0349086012
:1024700001F086FF10BD0000006002403401012021
:102480002DE9F04F87B00646884600200390401E95
:102490000290002736E0AE4850F827004008B0FB15
:1024A000F6FAAB4850F827004008B0FBF6F106FBFF
:1024B00011000490BAF10F0F09D94FF00F0AA44888
:1024C00050F827000F2101FB160004900BE0BAF131
:1024D0000F0F08D20498B0EB560F04D90498301AA5
:1024E00004900AF1010A02990498884209D20498DA
:1024F00002900397AAF1010005900AFB06F04FEA4B
:10250000400B7F1C042FC6D3B8F1000F03D0B8F1E5
:10251000010F06D102E0DFF83C9205E0DFF83892C7
:1025200002E0DFF8389200BF00BF0020800340EADD
:102530009B404FEA8B314A460023CDE90010084604
:102540000199FDF707FE04460D468548C06BC0F3B0
:102550004101039881424DD182484068210C41EAF3
:1025600005412B0C4840184344D17E488068002226
:10257000A1B205EA020348405A4010433AD17848D4
:10258000006800F00300022834D17548806800F02C
:102590000F01059881422DD17148C06B00F00100F8
:1025A00040B36F480068C0F3C120404522D1B8F164
:1025B000000F03D0B8F1010F1AD10DE06848006C8C
:1025C00000F0010038B16648C06B00F0807010B9AF
:1025D00007B0BDE8F08F0CE06148C06B00F0807080
:1025E00028B15F48006C00F4803000B1F0E700E0F3
:1025F00000BF00BFB8F1000F03D0B8F1010F51D1F7
:1026000025E000BFFEF74EFB08B9012000E00020E6
:102610000190019800B172B653485149886500BFD6
:102620004F48006820F4C0504D4908600846C06B10
:1026300020F08070C8630846006C40F00100086418
:1026400000208865019800B162B600BF2BE000BF92
:10265000FEF728FB08B9012000E000200190019856
:1026600000B172B640483E49886500BF3C48006CE6
:1026700040F480303A4908640846006820F4C050AD
:1026800008600846006840F4006008600846C06BB7
:1026900040F08070C86300208865019800B162B680
:1026A00000BF00E000BF00BF00BFFEF7FBFA08B9A3
:1026B000012000E000200190019800B172B62A4884
:1026C0002749886500BF2648006820F00300244998
:1026D00008600846C06B20F00600C8630846C16B5E
:1026E000039800F0030041EA40001D49C863084612
:1026F000806820F00F00886008468068059901F026
:102700000F01084316498860200C40EA054015492E
:102710004860A0B288600020C8600860012008609E
:102720000F48C06B40F001000D49C8630120FFF75E
:1027300031FE0B48006820F00300801C0849086047
:1027400000208865019800B162B600BF00BF3FE776
:102750005C48000880BA8C0100127A0040420F00E9
:102760000060024000C00140E487AC3F70B5054600
:102770000C461E48854200D103E063211CA001F0F5
:102780003BFF28496068884201D2002008E02549C3
:102790006068B0FBF1F01C301D21B0FBF1F0401E71
:1027A000064606F00F0040F48C5040F48030286359
:1027B000207B08B1802000E0002040F44030617AA6
:1027C00009B1202100E00021084340F01000217AE7
:1027D00009B1082100E000210843E17A09B1012193
:1027E00000E000210843286070BD00000010034095
:1027F0002E2E5C4C69627261726965735C44726909
:102800007665725C736F757263655C4C4C5C747852
:102810005F7068655F6C6C5F65666C6173682E6382
:102820000000000040420F002DE9F04104460F4631
:102830001448844200D103E0482113A001F0DCFEDB
:102840000120FFF769FD072500BF00BFFEF72DFA45
:1028500008B9012000E00020064606B172B617480C
:102860001749886500BF1648006A0121A94008433E
:10287000134908620020886506B162B600BF00BF38
:10288000BDE8F081001003402E2E5C4C696272613D
:10289000726965735C4472697665725C736F757298
:1028A00063655C4C4C5C74785F7068655F6C6C5FF2
:1028B00065666C6173682E6300000000E487AC3FBE
:1028C000006002408AB2826370470A0482637047E4
:1028D00070B504460D4616460D48844208D00D4892
:1028E000844205D00C48844202D00C48844200D176
:1028F00003E04E210AA001F07FFE1EB96068A843E4
:10290000606004E0012E02D160682843606070BD01
:10291000002002400040024000500240007002408F
:102920002E2E5C4C69627261726965735C447269D7
:102930007665725C736F757263655C4C4C5C747821
:102940005F7068655F6C6C5F6770696F2E63000015
:1029500070B504460D4616461948844208D01948F9
:10296000844205D01848844202D01848844200D1DD
:1029700003E0622116A001F03FFE06F0800018B1CE
:10298000E06A2843E06202E0E06AA843E06206F001
:10299000010030B1E068A843E060A069A843A061ED
:1029A0000CE006F0020018B1E0682843E06005E0A2
:1029B00006F0040010B1A0692843A06170BD0000BA
:1029C00000200240004002400050024000700240DF
:1029D0002E2E5C4C69627261726965735C44726927
:1029E0007665725C736F757263655C4C4C5C747871
:1029F0005F7068655F6C6C5F6770696F2E63000065
:102A000010B5134602680BB10A4300E08A43026026
:102A100010BD000070B504460D4626681F4884426C
:102A20001AD01E481030844216D01C4820308442F0
:102A300012D01A48303084420ED0194884420BD04C
:102A400017481030844207D015482030844203D004
:102A500013483030844200D104E040F2911111A0BB
:102A600001F0CAFD2946204600F068F946F44046C8
:102A7000A87900F0070046EA0026E87900F0030094
:102A800046EA8016687A00F0070006436888A0606E
:102A900028886060A888E060266070BD0050014012
:102AA00000D000402E2E5C4C6962726172696573C1
:102AB0005C4472697665725C736F757263655C4CB9
:102AC0004C5C74785F7068655F6C6C5F74696D6591
:102AD000722E630070B504460025664884421AD001
:102AE00064481030844216D062482030844212D0AC
:102AF0006048303084420ED05F4884420BD05E483C
:102B00001030844207D05C482030844203D05A48B9
:102B10003030844200D103E08B2158A001F06CFDDD
:102B20005448844201D1002527E0524810308442A5
:102B300001D1012521E04F482030844201D10225F6
:102B40001BE04C483030844201D1032515E04A484F
:102B5000844201D1002510E047481030844201D161
:102B600001250AE044482030844201D1022504E0D6
:102B700041483030844200D1032501F007FC4B4826
:102B80004B4988653B4884420BD03A481030844218
:102B900007D038482030844203D036483030844251
:102BA00031D16900012088406900491C01228A4016
:102BB00010436900083101228A401043690009313D
:102BC00001228A4010433A49896C81433848816424
:102BD000416A0120A840814335484162022D08DA4C
:102BE000816A05F1140001228240914330488162DC
:102BF0003AE02F48806AC5F1110101228A409043D2
:102C00002B49886230E01C4884420BD01A481030AF
:102C1000844207D018482030844203D01648303010
:102C2000844221D105F11000012101FA00F005F1E3
:102C3000140101228A4010431D49896C81431C48BC
:102C40008164022D07DA406A291D01228A409043DF
:102C50001749486208E01648806AC5F10F01012251
:102C60008A4090431249886200201149886501F02A
:102C7000A1FB70BD0050014000D000402E2E5C4CE6
:102C800069627261726965735C4472697665725CCF
:102C9000736F757263655C4C4C5C74785F706865CB
:102CA0005F6C6C5F74696D65722E6300E487AC3F86
:102CB0000060024070B504460D46124884421AD0A6
:102CC00010481030844216D00E482030844212D072
:102CD0000C48303084420ED00B4884420BD00A4856
:102CE0001030844207D008482030844203D0064880
:102CF0003030844200D103E0782104A001F07CFC54
:102D000070BD00000050014000D000402E2E5C4CF1
:102D100069627261726965735C4472697665725C3E
:102D2000736F757263655C4C4C5C74785F7068653A
:102D30005F6C6C5F74696D65722E630070B50446DC
:102D40000E460025CC4884421AD0CB48103084422D
:102D500016D0C9482030844212D0C748303084424F
:102D60000ED0C64884420BD0C4481030844207D0ED
:102D7000C2482030844203D0C0483030844200D161
:102D800003E0DD21BEA001F037FCBC4884420BD03B
:102D9000BA481030844207D0B8482030844203D06B
:102DA000B6483030844207D1B07A022800DA03E016
:102DB000EA21B3A001F020FC01F0E8FABC48BD49CB
:102DC0008865AD48844201D1002527E0AA4810302B
:102DD000844201D1012521E0A7482030844201D15D
:102DE00002251BE0A4483030844201D1032515E0C0
:102DF000A248844201D1002510E0A048103084424E
:102E000001D101250AE09D482030844201D10225EC
:102E100004E09A483030844200D103259648844229
:102E20000BD095481030844207D09348203084421C
:102E300003D09148303084427ED16900012088401F
:102E40006900491C01228A401043690008310122AF
:102E50008A4010436900093101228A401043954994
:102E6000896C814393488164307A02281BD1B07AFF
:102E700000F0010040B18F48806C690008310122E8
:102E80008A4010438B498864B07A00F00200002821
:102E900008D08848806C6900093101228A401043BB
:102EA00084498864E1E0307A012802D0307A03282E
:102EB000F8D1B07A00F00100E8B17E48806C6A0079
:102EC0000121914008437B4988640846006820F44A
:102ED000003008600846006840F48020086008461A
:102EE000C06820F0FF00C8600846406A0121A94080
:102EF000084370494862B07A00F002000028D1D03F
:102F00006C48806C6900491C01228A401043694961
:102F10008864022D1ADA0846006820F40000086070
:102F20000846006840F0807008600846C06820F0DD
:102F30007F40C860084600E022E0816A05F1140085
:102F40000122824011435B4881628EE0594800684B
:102F500020F40010574908600846006840F48000DB
:102F600008600846C06820F47F00C8600846806A90
:102F7000C5F1110101228A4010434E49886274E074
:102F80003E4884420BD03D481030844207D03B4835
:102F90002030844203D039483030844265D105F175
:102FA0001000012101FA00F005F1140101228A400C
:102FB00010434049896C81433E488164307A02283D
:102FC0000DD1B07A00F00100A8B33A48806C05F149
:102FD000140101228A4010433649886445E0307A62
:102FE000012802D0307A03283FD1B07A00F00100E6
:102FF00008B33048806C05F1100101228A4010436B
:103000002C498864022D17DA0846006820F4003045
:1030100008600846006840F4802008600846C068E0
:1030200020F0FF00C8600846406A291D01228A403E
:1030300010432049486218E01E48006820F4001040
:103040001C4908600846006840F480000860084693
:10305000C06820F47F00C8600846806AC5F10F018F
:1030600001228A4010431349886200201149886573
:1030700001F0A0F970BD00000050014000D00040F8
:103080002E2E5C4C69627261726965735C44726970
:103090007665725C736F757263655C4C4C5C7478BA
:1030A0005F7068655F6C6C5F74696D65722E63003C
:1030B000E487AC3F00600240024610680B7813B111
:1030C00040F4005301E020F4005318464B7813B14C
:1030D00040F4805301E020F480531846106070479C
:1030E00070B504460D46154884421AD01348103076
:1030F000844216D011482030844212D00F4830301C
:1031000084420ED00E4884420BD00D4810308442C9
:1031100007D00B482030844203D009483030844225
:1031200000D104E04FF4DF7106A001F065FA2068D9
:1031300005F0030140EA0110206070BD005001401D
:1031400000D000402E2E5C4C69627261726965731A
:103150005C4472697665725C736F757263655C4C12
:103160004C5C74785F7068655F6C6C5F74696D65EA
:10317000722E63002DE9F04104460D461F4884423B
:1031800005D0B4F1402F02D01D48844200D103E0A5
:10319000DE211CA001F030FA002700262946204637
:1031A00000F048F8687800F003000743287808B179
:1031B000042000E000200743A87800F0030047EA5D
:1031C000C00746F00706287900F0030046EA00161B
:1031D000E87800F0030046EA801600202061802095
:1031E000E060A8792060E888000A6060E06820F06C
:1031F0008000E060E760A660BDE8F081003000403C
:10320000005000402E2E5C4C6962726172696573D9
:103210005C4472697665725C736F757263655C4C51
:103220004C5C74785F7068655F6C6C5F757361721D
:10323000742E630070B504460D463048844205D0B4
:10324000B4F1402F02D02E48844200D103E08821FF
:103250002CA001F0D1F92948844202D0B4F1402FCA
:1032600007D1287A022800DA03E08C2125A001F09A
:10327000C3F901F08BF82F482F4988651F48844215
:103280000AD10846406C20F4804048640846406CEF
:1032900040F0100048642BE0B4F1402F0BD12648D9
:1032A000406C20F40040244948640846406C40F0DB
:1032B000200048641CE01248844219D11E48406C2A
:1032C0001E4908401C494864287A00F0010028B1D2
:1032D0000846406C40F04000486409E0287A00F05D
:1032E000020028B11448406C40F0807012494864D4
:1032F00000201149886501F05DF870BD0030004084
:10330000005000402E2E5C4C6962726172696573D8
:103310005C4472697665725C736F757263655C4C50
:103320004C5C74785F7068655F6C6C5F757361721C
:10333000742E6300E487AC3F00600240BFFFFEFED6
:1033400010B504461B48844205D0B4F1402F02D08A
:103350001948844200D103E05A2118A001F04CF929
:1033600001F014F82148224988651248844207D1A7
:103370000846406C44F2100188431D49486413E03C
:10338000B4F1402F07D11A48406C48F2200188431D
:103390001749486408E00848844205D11448406C45
:1033A000144908401249486400201149886501F019
:1033B00001F810BD00300040005000402E2E5C4C43
:1033C00069627261726965735C4472697665725C88
:1033D000736F757263655C4C4C5C74785F70686584
:1033E0005F6C6C5F75736172742E6300E487AC3F31
:1033F00000600240BFFFFEFE70B504460D46074860
:10340000844205D0B4F1402F02D00548844200D157
:1034100003E04F2103A001F0EFF870BD0030004041
:10342000005000402E2E5C4C6962726172696573B7
:103430005C4472697665725C736F757263655C4C2F
:103440004C5C74785F7068655F6C6C5F75736172FB
:10345000742E6300024600200B790BB1802300E03C
:1034600000231843CB780BB1082300E00023184356
:103470008B780BB1042300E0002318434B780BB189
:10348000022300E0002318430B780BB1012300E076
:1034900000231843C3B25360704700000024FDF7B7
:1034A00085FE62B649490968086880474849096845
:1034B000086880474749096808688047464909689D
:1034C000086880474549096808688047434800689C
:1034D00043494269002090473F480068414942699A
:1034E000022090473B4800683F49426900209047CE
:1034F0003E4800F0DBF83EA0FDF7C4FB3DA0FDF721
:10350000C1FB4AA0FDF7BEFB39A0FDF7BBFB53484A
:10351000FDF7B8FB52A0FDF7B5FB002406E03348E9
:10352000015D54A0FDF7AEFB601CC4B2072CF6DBB6
:103530002FA0FDF7A7FB00F0C3F845E02548006881
:103540000021426902209047204800681122002192
:10355000C3684A489847002836D04848007853281E
:1035600032D1464840784E282ED1444880783D28B4
:103570002AD107221D494148C01CFDF751FE1B48B6
:1035800000F006FA1AA0FDF77DFB3DA0FDF77AFBDF
:10359000002411E0204604EBD0714910A4EB410156
:1035A00011B935A0FDF76EFBE01C344A115C37A061
:1035B000FDF768FB601CC4B20E2CEBDB0CA0FDF722
:1035C00061FB33A0FDF75EFBB8E70000700001204F
:1035D0007400012078000120680001206C000120A7
:1035E0001D1800080800012014000120000001201F
:1035F0000D0A00002A2A2A2A2A2A2A2A2A2A2A2ABC
:103600002A2A2A2A2A20204E464320575249544526
:10361000204D4F4445202A2A2A2A2A2A2A2A2A2AA1
:103620002A2A2A2A2A2A2A2A2A0D0A002D2D2D2D55
:103630002D2D2D20636C69636B206B6579322063BF
:1036400068616E676520746F2072656164206D6FBC
:103650006465202D2D2D2D2D0D0A00006C480008CD
:1036600043757272656E7420534E2069733A0D0A69
:1036700000000000253032582000000040010120E9
:1036800053455420534E3A200000000025630000AB
:10369000506C656163652073776970696E6720633C
:1036A0006172642021210D0A0000000003490A68AC
:1036B00002608A8882808979817170474800012080
:1036C00010B500F099FCFDF734F8FCF785FE10BD4D
:1036D0007CB5002501A95220FCF7F3FF60B101A9D8
:1036E0005220FCF7EEFF18B100205A49087006E09E
:1036F00001205849087002E00120564908705548D9
:103700000078002870D05348407800286DD1514887
:1037100000785049487050A0FDF7B4FA4D48007841
:103720004C4948709DF805009DF8041040EA0125B9
:10373000294657A0FDF7A6FAB5F5006F1CD006DCA8
:10374000B5F5007F14D0B5F5806F1DD10CE0B5F54F
:10375000884F05D0A5F588400338002814D10FE024
:1037600051A0FDF78FFA13E054A0FDF78BFA0FE09C
:1037700057A0FDF787FA0BE05AA0FDF783FA07E0A0
:103780005CA0FDF77FFA03E05EA0FDF77BFA00BFC7
:1037900000BF3048001DFCF72CFE2E48C079009079
:1037A0002C488379427901795AA0FDF76BFA2948B0
:1037B000001DFDF76EF8604AA2F10A012548001DC0
:1037C000FDF7B2FC234B1B1D5B4A04216120FCF773
:1037D0007EFE5A490420FCF74AFF00282AD158A04F
:1037E000FDF750FA002408E025E031E05348015D80
:1037F0005AA0FDF747FA601CC4B2102CF6DB59A0A2
:10380000FDF740FA57A0FDF73DFA57494B48FDF741
:103810002FFD56A0FDF736FA002406E05248015D60
:103820004EA0FDF72FFA601CC4B2072CF6DB4DA0AA
:10383000FDF728FA0CE007484078012805D14FA091
:10384000FDF720FA47A0FDF71DFA00200149487056
:103850007CBD0000600101203D3D3D3D3D3D3D3DC5
:103860003D3D3D3D20535441525420544F2052453C
:103870004144204E46432043415244203D3D3D3D7E
:103880003D3D3D3D3D3D3D3D3D3D3D0D0A00000082
:103890004361726420547970653A28307825303459
:1038A00058295F5F5F0000004D69666172652055B1
:1038B0006C7472614C696768740D0A004D696661C9
:1038C0007265204F6E6528533530290D0A000000BF
:1038D0004D6966617265204F6E6528533730290D3A
:1038E0000A0000004D69666172652050726F2858A9
:1038F000290D0A004D69666172652044454669726A
:10390000650D0A00556E6B6E6F7720436172640D12
:103910000A00000053657269616C204E756D626526
:10392000723A2530325825303258253032582530F9
:1039300032580D0A00000000320001207C010120F5
:10394000726561642066726F6D20534543544F5217
:10395000315F424C4F434B303A0D0A00253032580C
:10396000200000000D0A00006C0101204445562093
:10397000534E2069733A0D0A000000002D2D2D2DA5
:103980002D3E43617264204F75742E0D0A000000B5
:10399000034902680A6082888A8082798A71704746
:1039A0004800012010B50448007810B100F006F876
:1039B00001E0FFF78DFE10BD070001207CB5012559
:1039C000002401A95220FCF77CFE60B101A952201D
:1039D000FCF777FE18B100208D49087006E0012041
:1039E0008B49087002E001208949087088480078F6
:1039F00000286BD086484078002868D185A0FDF764
:103A000041F983480078824948709DF805009DF887
:103A1000041040EA012421468CA0FDF733F9B4F5E7
:103A2000006F1CD006DCB4F5007F14D0B4F5806FB5
:103A30001DD10CE0B4F5884F05D0A4F588400338BB
:103A4000002814D10FE087A0FDF71CF913E08AA02D
:103A5000FDF718F90FE08DA0FDF714F90BE090A029
:103A6000FDF710F907E092A0FDF70CF903E094A030
:103A7000FDF708F900BF00BF6548001DFCF7B9FC61
:103A80006348C0790090624883794279017990A0B7
:103A9000FDF7F8F85E48001DFCF7FBFE20B995A184
:103AA00096A0FDF7EFF804E099A194A0FDF7EAF8DD
:103AB0000025574B1B1D984A03216120FCF707FD89
:103AC00096490320FCF71EFF30B901E08EE09DE02F
:103AD00093A0FDF7D7F822E0FCF72BFE01A95220B6
:103AE000FCF7EFFD4A48001DFCF783FC4848001D29
:103AF000FCF7CFFE464B1B1D884A0A32032161208A
:103B0000FCF7E5FC85490320FCF7FCFE18B991A001
:103B1000FDF7B8F803E09CA0FDF7B4F80025A64A2D
:103B2000A2F10A013A48001DFDF7FEFAA349A44894
:103B3000FDF7B8FB364B1B1D774A04216120FCF7CB
:103B4000C6FC9E490420FCF7DDFE002811D19DA093
:103B5000FDF798F898490A390720FCF7D3FE18B901
:103B6000A7A0FDF78FF835E0B5A0FDF78BF800258D
:103B700030E0FCF7DEFD01A95220FCF7A2FD24484D
:103B8000001DFCF736FC2248001DFCF782FE204B8E
:103B90001B1D894A07216120FCF799FC87490420F5
:103BA000FCF7B0FE002811D1B4A0FDF76BF88249F4
:103BB0000A390720FCF7A6FE18B9BFA0FDF762F886
:103BC00008E0CDA0FDF75EF8002503E0D9A0FDF7E1
:103BD00059F800251CA0FDF755F81DB1DFA0FDF731
:103BE00051F813E0E5A0FDF74DF80FE008484078E4
:103BF000012808D1EDA0FDF745F8F1A0FDF742F846
:103C000011A0FDF73FF80020014948707CBD00007D
:103C1000600101203D3D3D3D3D3D3D3D3D3D3D3D46
:103C200020535441525420544F2057524954452058
:103C30004E46432043415244203D3D3D3D3D3D3DA8
:103C40003D3D3D3D3D3D3D3D0D0A000043617264FB
:103C500020547970653A28307825303458295F5FD0
:103C60005F0000004D696661726520556C74726179
:103C70004C696768740D0A004D6966617265204F72
:103C80006E6528533530290D0A0000004D696661C4
:103C90007265204F6E6528533730290D0A000000E9
:103CA0004D69666172652050726F2858290D0A00AF
:103CB0004D6966617265204445466972650D0A006A
:103CC000556E6B6E6F7720436172640D0A000000C1
:103CD00053657269616C204E756D6265723A25306C
:103CE00032582530325825303258253032580D0A96
:103CF00000000000537563636573730025732073C0
:103D0000656C65637420636172640D0A00000000D5
:103D10004572726F720000004F00012038000120D0
:103D20004973204E657743617264202D2D2D3E53DB
:103D300075636365737320696E207772697465209B
:103D4000736563746F723020626C6F636B330D0A3E
:103D5000000000004973204F6C6443617264202DA1
:103D60002D2D3E5375636365737320696E207772E2
:103D700069746520736563746F723020626C6F6361
:103D80006B330D0A000000004973204F6C644361DF
:103D90007264202D2D2D3E3E4572726F7220746F1D
:103DA00020777269746520736563746F7230206266
:103DB0006C6F636B330D0A00320001206C0101202F
:103DC000480001204973204E6577436172642D2DB0
:103DD0002D3E5375636365737320696E2077726936
:103DE000746520646576534E20746F207365637428
:103DF0006F723120626C6F636B300D0A000000003F
:103E00002020202020202020202020202D2D2D3E6D
:103E10005375636365737320696E20777269746587
:103E20002070617373776F726420746F20736563A1
:103E3000746F723120626C6F636B330D0A00000087
:103E40002020202020202020202020202D2D2D3E2D
:103E50004572726F7220746F20777269746520707A
:103E6000617373776F726420746F20736563746F0E
:103E7000723120626C6F636B330D0A004973204FFF
:103E80006C6443617264202D2D2D3E537563636510
:103E9000737320696E207772697465206465765348
:103EA0004E20746F20736563746F723120626C6F83
:103EB000636B300D0A0000002020202020202020ED
:103EC0002020202D2D2D3E5375636365737320696B
:103ED0006E2077726974652070617373776F726496
:103EE00020746F20736563746F723120626C6F632E
:103EF0006B330D0A0000000020202020202020200D
:103F00002020202D2D2D3E4572726F7220746F205F
:103F100077726974652070617373776F726420744F
:103F20006F20736563746F723120626C6F636B33E3
:103F30000D0A00004973204F6C6443617264202DA8
:103F40002D2D3E4572726F7220746F2077726974E6
:103F50006520646576534E0D0A0000005375636357
:103F600065737320696E205772697465204E4643ED
:103F7000204361726420210D0A0000004572726FB7
:103F80007220696E205772697465204E4643204343
:103F9000617264202120506C6561636520547279E0
:103FA00020616761696E20210D0A00002D2D2D2DE5
:103FB0002D3E43617264204F75742E0D0A0000007F
:103FC0003D3D3D3D3D3D3D3D3D3D3D3D20454E441E
:103FD000204F46205752495445204E4643204341E6
:103FE0005244203D3D3D3D3D3D3D3D3D3D3D3D3D02
:103FF0003D3D3D3D0D0A000010B501221146184817
:10400000FEF766FC012202211548FEF761FC012241
:1040100004211348FEF75CFC002208211048FEF73B
:1040200057FC012210210E48FEF752FC022201210A
:104030000B48FEF78DFC022211460948FEF788FC6A
:10404000022204210648FEF783FC022208210448CC
:10405000FEF77EFC022210210148FEF779FC10BD1C
:104060000050024010B500F063F910BD014629B1BF
:1040700010200204044B9A6300BF04E01020024A9F
:10408000906300BF00BF70470050024070B5054606
:104090000C4625B1012D06D0022D0BD107E020469C
:1040A00000F04CF807E0204600F008F803E000F0CC
:1040B000ABF800E000BF00BF012070BD70B5054641
:1040C00000F064F910480468002616E0AC4212D1F2
:1040D000206928B1206900682968084421690860BE
:1040E0001EB909492069086001E02069306100F0CB
:1040F00061F9002070BD26462469002CE6D100F04D
:1041000059F9601EF6E7000004010120014800682B
:10411000704700000C01012010B500200449086020
:1041200004480068044942690020904710BD00001F
:104130000401012074000120694200082DE9F041CA
:1041400004464FF0000800260027FFF7DFFF064671
:1041500000F01CF92A48006850B92A48066028482F
:1041600004600020206100F025F90020BDE8F08106
:1041700024480068A6EB00082768206840442060B7
:104180001F4800680068216888420DD91C480068F3
:1041900000682168401A1A490968086018480068D0
:1041A00020611748046026E01548056820E0206873
:1041B0002968401A2060286920B1286900682168B0
:1041C000884214D9286930B1286900682168401AEA
:1041D0002969086007E02068B84204D908480068E7
:1041E000006838442060286920612C6102E02D6954
:1041F000002DDCD100BF00F0DDF80020B6E70000A4
:10420000040101200801012070B515480468FFF77A
:104210007DFF14490968451A1CE020682D1A00F03A
:10422000B5F810492068096808440E4908600C492F
:104230002069086000F0BEF8606820B16068206006
:104240002046FFF77BFFE06810B1D4E90201884700
:104250000348046814B12068A842DED970BD00008C
:10426000040101200801012002480068401C0149A6
:10427000086070470C01012008B500BF00BFEFF3D4
:10428000108109B9012100E00021084600B172B691
:104290000F49104A916500BF00210E4AD161FF21EC
:1042A00011624FF47A71009102E00099491E009169
:1042B00000990029F9DC1F21064AD1614FF0FF3136
:1042C00011620021916500B162B600BF08BD000017
:1042D000E487AC3F006002401FB5002000900190D1
:1042E000029003908DF80B0003208DF80000094820
:1042F0000068019000208DF809008DF80A00012067
:104300008DF8080000208DF80C0069460248FEF781
:104310002DFA1FBD340101200010034008B5002014
:10432000009069460148FEF77FFA08BD001003407F
:104330007047704700BF00BFEFF3108109B901213A
:1043400000E00021084600B172B60949094A9165AA
:1043500000BF094949686FF30B01074A51600749DB
:10436000044A51650021916500B162B600BF7047F3
:10437000E487AC3F006002400040024053A3570076
:1043800010B5FFF7CBFFFFF7A7FF10BD00BFEFF39E
:104390001081C8B272B60549096809B904490870A4
:1043A00002490968491C014A11607047280101202F
:1043B0002C0101200748006858B106480068401EDB
:1043C000044908600846006818B90348007800B935
:1043D00062B67047280101202C01012008B5FFF7C3
:1043E000CFFFFFF749FF00210E48FEF749F80220F2
:1043F000FEF72CF800210C48FDF70EFE00208DF88A
:1044000000008DF801008DF802006846FDF736FFC8
:10441000FFF7B6FFFFF78EFFFFF724FE03480449BE
:10442000086008BD8038E304002A75150000000804
:1044300008ED00E008B5144800210160416081608A
:104440000020009001208DF8000000208DF8010070
:1044500069460E48FEF730FE01200B490872042021
:104460004872052088710A48006840094FF47A7143
:10447000B0FBF1F0044908800020488088808872F1
:104480000248FEF7C7FA08BDC801012000500140EC
:104490003401012010B51620002817DB00F01F02A0
:1044A000012191400C4A430942F8231000BF00BF8C
:1044B00000BFBFF34F8F00BF00BF00BF00BF00BFF2
:1044C00000BFBFF36F8F00BF00BF00BF00BF034836
:1044D000FEF700FB10BD000080E100E0005001404D
:1044E00038B5FFF7D7FF16200021002804DB4A0764
:1044F000130E144A135406E04A07140E124A00F031
:104500000F031B1FD45400BF1620002809DB00F046
:104510001F02012191404209920002F1E022C2F8FB
:10452000001100BF002000900848002101600171C7
:1045300069460748FEF7BEFBFFF77CFF00F036F840
:1045400038BD000000E400E018ED00E0B4010120F7
:104550000050014003460A4612B94FF0FF30704741
:10456000F3B9002108E0104850F82100904201D131
:104570000020F4E7481CC1B20529F4DB00210AE061
:10458000094850F8210020B9074840F821200020B0
:10459000E5E7481CC1B20529F2DB4FF0FF30DEE74A
:1045A0004FF0FF30DBE70000B401012010B501221D
:1045B00011030448FEF78CF90348017A0348FEF71B
:1045C0008FFD10BD00400240C80101200050014095
:1045D00010B500240BE0074850F8240028B1054826
:1045E00050F82420002108469047601CC4B2052CD6
:1045F000F1DB10BDB401012070B504460D462A461A
:10460000214602A0FCF73EFB00BFFEE757726F6E2B
:104610006720706172616D65746572732076616C7C
:1046200075653A2066696C65202573206F6E206C75
:10463000696E652025640D0A0000000000B585B094
:1046400000200290039004900090019028211748C8
:10465000FBF7D0FD01208DF804008DF800006946BD
:104660001348FEF7F7FE1348006800094FF4E131E4
:10467000B0FBF1F080B2ADF80E0003208DF8090018
:1046800000208DF80A008DF8080003208DF80B003B
:1046900001208DF80C008DF8100002A90448FEF7E7
:1046A00069FD0220FCF79EFD05B000BD8C010120D4
:1046B000003000403401012010B50248FEF740FEF2
:1046C00010BD00000030004038B5002000900320ED
:1046D0000021002804DB4A07130E114A135406E098
:1046E0004A07140E0F4A00F00F031B1FD45400BFDB
:1046F0000320002809DB00F01F020121914042093C
:10470000920002F1E022C2F8001100BFFFF7D4FFCF
:1047100069460548FEF770FEFFF790FF38BD0000C0
:1047200000E400E018ED00E0003000400246002008
:104730007047000070B505460E4614460B480078D9
:1047400090B10B484068A04201D209484468224613
:10475000074908312846FBF734FD0020044948602A
:1047600002490870012070BD0020FCE70001012013
:104770008C010120012001490870704700010120CF
:1047800030B501460B4B1A680B4B58680CE0521EB3
:10479000084B843B1B68DDB20346401C064C0834C2
:1047A000E554202800D300208A42F0D8024B5860FC
:1047B00030BD0000843000408C010120211F000822
:1047C00015200008000000000000000000000000AC
:1047D0009D1F00089D1C000800000000D119000862
:1047E000691A00080000000000000000000000003E
:1047F000491A0008CD19000800000000C946000849
:104800000000000000000000354700080000000024
:104810002D4700080000000000000000E1440008EF
:104820000000000000000000000000000000000088
:104830005545000800000000000000001941000874
:104840000000000000000000000000000000000068
:104850008D400008000000000000000000BE98121B
:10486000007B9A178098C61B0092FE1E2D2D2D2DC1
:104870002D2D2D3E20506C6561636520496E70754D
:104880007420534E2C2074686520666F726D6174BD
:1048900020697320534E3D78787878202831342071
:1048A000436861726163746572290D0A000000003B
:1048B000D048000800000120400100006C02000800
:1048C000504900084001012094000000C00C00087D
:1048D0007113010125F401F4011AFF0141290C4172
:1048E00013A539420829184EFFFFF87780092808D8
:1048F000FF54414957454910490A114F0102030429
:1049000005061D4F5A485548414919352140232471
:1049100013BC471B08DC041AFC04131C481B083C8E
:1049200004D132103C4002408DC10A1520180113F9
:10493000720A8BD91A5C19346A804001351230C969
:104940003C13D601158038E30422E03270000000E9
:0400000508000A7570
:00000001FF
