:020000040000FA
:1000000058CFFF1FA1020000A9020000AB020000B0
:10001000AD020000AF020000B102000000000000CD
:10002000000000000000000000000000B30200001B
:10003000B502000000000000B7020000B902000095
:100040004D3B0000613B0000753B0000893B000018
:100050009D3B0000B13B0000C53B0000D93B0000C8
:10006000ED3B0000013C0000153C0000293C000075
:100070003D3C0000513C0000653C0000793C000024
:100080001D220000BB020000BB0200004D22000048
:10009000BB020000BB020000BB020000BB0200006C
:1000A000BB0200007D220000BB020000BB0200007A
:1000B000BB020000BB020000BB020000BB0200004C
:1000C000BB020000BB020000BB020000BB0200003C
:1000D000BB020000BB020000BB020000BB0200002C
:1000E000BB020000BB020000BB020000BB0200001C
:1000F000BB020000BB020000BB020000BB0200000C
:10010000BB020000BB020000BB020000BB020000FB
:10011000BB0200002D450000BB020000BB02000036
:10012000BB020000BB020000BB020000BB020000DB
:10013000BB020000BB020000BB020000BB020000CB
:10014000BB020000BB020000BB020000BB020000BB
:10015000BB020000BB020000BB020000BB020000AB
:10016000BB020000BB020000BB020000BB0200009B
:10017000BB020000BB020000BB020000BB0200008B
:10018000BB020000BB020000BB020000BB0200007B
:10019000BB020000BB020000BB020000BB0200006B
:1001A000BB020000BB020000BB020000BB0200005B
:1001B000BB020000BB020000BB020000BB0200004B
:1001C000BB020000BB020000BB020000BB0200003B
:1001D000BB020000BB020000BB020000BB0200002B
:1001E000BB020000BB020000BB020000BB0200001B
:1001F000BB020000BB020000BB020000BB0200000B
:10020000BB020000BB020000BB020000BB020000FA
:10021000BB020000BB020000BB020000BB020000EA
:10022000BB020000BB020000BB020000BB020000DA
:10023000BB020000BB020000BB020000BB020000CA
:10024000BB020000BB020000BB020000BB020000BA
:10025000BB020000BB020000BB020000BB020000AA
:10026000BB020000BB020000BB020000BB0200009A
:10027000BB020000BB020000BB02000095070000AB
:10028000BB020000BB020000DFF810D000F044FA0F
:1002900000480047E14D0000AFF3008058CFFF1F3A
:1002A0000648804706480047FEE7FEE7FEE7FEE710
:1002B000FEE7FEE7FEE7FEE7FEE7FEE72544000077
:1002C000890200002DE9F05F0546002092469B461A
:1002D00088460646814640241BE02846414647465C
:1002E000224600F076F853465A46C01A914110D380
:1002F00011461846224600F016F82D1A67EB010841
:100300004F4622460120002100F00DF817EB0009AE
:100310004E41201EA4F10104DFDC484631462A4646
:100320004346BDE8F09F202A04DB203A00FA02F1A0
:10033000002070479140C2F1200320FA03F31943D3
:1003400090407047D2B201E000F8012B491EFBD269
:1003500070470022F6E710B513460A4604461946D0
:10036000FFF7F0FF204610BD0EB540F23341029179
:100370000021CDE900110A460B4600F07EF903B0DA
:1003800000BD0EB540F2334202920022CDE90022B8
:10039000134600F072F903B000BD01F0004330B421
:1003A00021F0004150EA010206D00A0DA2F5607268
:1003B000C1F31301002A02DC30BC00207047440F57
:1003C00044EAC104C100E01830BC00EBC25000F0A8
:1003D0000EB9202A04DB203A21FA02F000217047EE
:1003E00021FA02F3D040C2F120029140084319469D
:1003F0007047084480F82020704770477047704766
:10040000BFFFDFFFFFFFFFFFFFFFFFFFFFFFEDFF6E
:10041000FFFFFFFFFFFFFFFFFFFFFFFFFFFFFFFFEC
:10042000FFFFFFFFFFFFFFFFFFFFFFFFFFFFFFFFDC
:10043000FFFFFFFFFFFFFFFFFFFFFFFFFFFFFFFFCC
:10044000FFFFFFFFFFFFFFFFFFFFFFFFFFFFFFFFBC
:10045000FFFFFFFFFFFFFFFFFFFFFFFFFFFFFFFFAC
:10046000F0B480EA0102D40F4200B2EB410F02D295
:100470000246084611464A0042D0C30DDDB2C1F320
:10048000C752AD1A202D35DAC1F3160141F400022E
:1004900004B15242C5F1200602FA06F12A41104485
:1004A000B3EBD05F23D0C4B1012DA0EBC35009DC66
:1004B000F0BC4FF0004202EAC352DBB200F500008C
:1004C00000F09EB8400000F1807000EBC350A0F136
:1004D000807040EAD170490009E0490841EAC071E2
:1004E000A0EBC35000F50000400800EBC350F0BC87
:1004F00000F07DB86142012202EB4101001BF6E7EA
:10050000F0BC704781F00041AAE780F00040A7E707
:100510002DE9F04D81EA030404F0004B21F0004581
:1005200014464FF0000A23F0004150EA050220D0A3
:1005300054EA01021DD0C5F30A570246C5F313035E
:10054000C1F31300C1F30A5640F4801543F480133D
:10055000A7EB0608101BD64608F2FD3873EB050022
:1005600002D308F1010801E092185B41B8F1000FD5
:1005700003DA00200146BDE8F08D00204FF4801121
:10058000064684460EE0171B73EB050705D3121BC6
:1005900063EB050306434CEA010C49084FEA3000BF
:1005A00092185B4150EA0107EDD152EA030012D0E4
:1005B00082EA040083EA0501084305D0101BAB4121
:1005C00006D20122002306E000224FF0004302E0A1
:1005D0006FF0010253101AEB06004CEB085110EBC0
:1005E0000A0041EB0B01BDE8F04D00F037B80029DF
:1005F000A8BF7047401C490008BF20F001007047A9
:1006000010B4B0FA80FC00FA0CF050EA010404BF08
:1006100010BC704749B1CCF1200421FA04F411FA5E
:100620000CF118BF012121430843A3EB0C01CB1DA2
:100630004FEA00614FEA102042BF002010BC704713
:1006400000EBC35010440029A4BF10BC7047401CED
:10065000490008BF20F0010010BC704710B5141EFF
:1006600073F1000408DA401C41F1000192185B416B
:100670001A4301D120F0010010BD2DE9F04D924642
:100680009B4611B1B1FA81F202E0B0FA80F2203259
:100690009046FFF748FE04460F4640EA0A0041EA4A
:1006A0000B0153465A46084313D0114653EA010042
:1006B00019D0C8F140025046FFF78BFE05460E46A2
:1006C000504659464246FFF72EFE084305D001200A
:1006D00004E020463946BDE8F08D0020054346EA97
:1006E000E0762C4337430A986305E40AA0EB080040
:1006F0000022FD0A44EA47540A3002D50020014690
:10070000E9E7010510196941DDE90845001969416A
:10071000BDE8F04DA2E70000064C074D06E0E0689A
:1007200040F0010394E8070098471034AC42F6D338
:10073000FFF7AEFDD4540000F454000070B58C18DF
:1007400010F8015B15F0070301D110F8013B2A11E5
:1007500006D110F8012B03E010F8016B01F8016BD2
:100760005B1EF9D12B0705D40023521E0DD401F8CE
:10077000013BFAE710F8013BCB1A921C03E013F897
:10078000015B01F8015B521EF9D5A142D8D30020CC
:1007900070BD00002DE9F04FFE4982B031F8504F96
:1007A000FD48C4654D8845668B880366C98801800D
:1007B000FA490988FA4A816512884280F94AB2F8F2
:1007C00000C0C0F868C0C26E41F69916724347F285
:1007D0003336714302EB41010A144AF2D9016143F5
:1007E000C266046F42F69376744301EB44010C1425
:1007F00041F21B4159430467836F43F6F926734363
:1008000001EB8301091441F21B436B438167C56F00
:10081000754303EB85031B14C367009341F21B432D
:100820000CFB03F3D0F880C00CFB06FC03EB8C033D
:100830004FEA234EC0F880E0D0F8B0305A43D0F8E9
:10084000B43003EBE226C0F88460D0F8B820D0F8CA
:10085000BC30624313EBE2234FF00002C0F8883053
:1008600000F1E182D0F8C0305943D0F8C43003EB36
:10087000E12140F23D334B43C0F88C10CA4901EBF3
:100880004301CA4B0912B1F53C5F1960A4BF4FF494
:100890003C51196005DAB1F51A5FD8BF4FF41A510F
:1008A0001960DFF80CC301894CF82160491C89B23A
:1008B0000181042928BF0281BE49B1F800C04CF073
:1008C00001050D80DFF8F0C2BC4915F0010F00F002
:1008D000C981C0F8F020D0F8D070BE1BC0F8E46029
:1008E000B6F5A07FC8BF4FF4A07604DC16F5A07F54
:1008F00003DA00F09CBAC0F8E460D3F81890C3F8AB
:100900001C90D3F81480B246C3E905681F6A5F6281
:100910009E6A1E62D3F800B00AFB0BFAD3F804B04B
:1009200008FB0BA8D3F808A009FB0AF9D3F80CA020
:1009300006FB0A964644D3F8108007FB0866DF6A78
:100940003E4436129E621F6BB742B8BF9F6204DB03
:100950005F6BBE42D8BF3E469E62D0F88870D0F82A
:10096000D460F61BC0F8E860CD2EC8BFCD2604DCED
:1009700016F1CD0F03DA00F05DBAC0F8E860DCF8DC
:100980001870CCF81C70DCF81480B146CCE905680E
:10099000DCF820B0CCF824B0DCF82860CCF820607B
:1009A000DCF800A009FB0AF9DCF804A008FB0A98AF
:1009B000DCF8089007FB09F7DCF80C9006FB0976D9
:1009C000DCF8107046440BFB0766DCF82C703E44E4
:1009D000B612CCF82860DCF83070B742B8BFCCF85B
:1009E000287006DBDCF83470BE42D8BF3E46CCF837
:1009F0002860DCF828C09B6A9C45B4BFC0F8FCC0E6
:100A0000C0F8FC30DFF8B8C1C0F8DCC0D0F8FC603A
:100A10000123B445C0F21182B6F5C84F7DDAB0F8B3
:100A20000AC0BCF1020F24BF838142814FF4C84C3D
:100A300015F0020FC0F800C16ED0B0F80EC040F241
:100A40002E354CF0020CA0F80EC0AC42C8BF4CF0E2
:100A5000010C06DC40F2A625AC42B8BF0CF0FE0C3F
:100A600001DAA0F80EC0D0F800C14DF63865AC45EB
:100A7000AEBF46F21735534D05EB6C05C0F88C51EF
:100A8000D0F8A860009D3544C0F8A850D0F8AC60FC
:100A90007644C0F8AC6087887F1CBFB28780B7F50A
:100AA000007F64D3AD1B6D128280C0F8F450642DBA
:100AB00004DA6435002DC8BFC0F8F420C0F8A820BF
:100AC000C0F8AC20D0E93D6505EB460546F2666707
:100AD00042F61256C0F8F850AF42B8BFC0F8F870EE
:100AE00006DB46F26667FD42C0F2AC81002D18DDE0
:100AF000D0F8F85005FB0CFC4FEA2C4CC0F814C1A0
:100B0000BCF1000FD2BFC0F81421B445C0F8146185
:100B1000C0F818212BE000E015E08281D0F8FCC07D
:100B200086E76D4205FB0CFC4FEA2C4CC0F818C15F
:100B3000BCF1000FD2BFC0F81821B445C0F818614D
:100B4000C0F8142113E0C0F88C21C2818280C0F863
:100B5000A820C0F8AC20C0F8F820C0F8142140F656
:100B6000031CC0F804C1C0F808C1C0F8182140F641
:100B7000031CC0F80CC1C0F810C18689124DDFF803
:100B80004CC036B12B8843F020032B80BCF80030DA
:100B90001EE02AE00000044008C0FF1F5804044083
:100BA0005C0404405A0404408D57D5FFA8C2FF1FBF
:100BB00068C2FF1F24C0FF1FE0C2FF1F00C0034028
:100BC00000770100FCF6FFFF0838054018380540A3
:100BD00043F48063ACF80030D1F8AC3343F03F030A
:100BE000C1F8AC334282C2812BE0468A16B1012E95
:100BF00007D013E040F60916C1F8A463438242818E
:100C00000CE04289521C92B24281022A06D302228F
:100C10004281428240F60F72C1F8A423C289032A9E
:100C200012D02A8842F020022A80BCF8002042F428
:100C30008062ACF80020D1F8AC2342F00C02C1F87D
:100C4000AC23C289028238E0864A138843F020032D
:100C50001380854A138843F480631380F022C1F81F
:100C6000A423EEE7C28102828281CCF82820CCF84E
:100C70002020CCF82420CCF81420CCF81820CCF874
:100C80001C209A621A625A625A619A61DA61C0F84B
:100C9000F820C0F81421C0F81821C0F8A820C0F826
:100CA000AC20C0F88C2140F60312C0F80421C0F833
:100CB0000821C0F80C21C0F810214467D0F800C109
:100CC0004FEA6C02C0F86821D0F814B14FEAAC05C5
:100CD000C0F854B1C0E956B5D0F81831EC18C0F8D6
:100CE0006041C0F86441D0F80431C0F87431019318
:100CF000D0F8083102EB0309C0F87891D0F8383108
:100D00000093D0F88C713B44C0F86C3193427CD88E
:100D100009EB0703ACF18006C0F87031B34275D817
:100D2000D0F84031C0F88431D0F850E103EB070A25
:100D300002EB0E08C0F87CA1C0F88881924566D805
:100D40004744C0F88071B74270D800BFD1F8B8638B
:100D50003F2737EA060656D1D1F8B86326F03F069A
:100D6000C1F8B863C1F844C0C1F88820C1F8C850C0
:100D7000DFF8F8C0CCF888203D4E32603D4E32603E
:100D80003D4ED0F87C213260361DD0F88021326093
:100D90003A4E3360321DC2F80080394ED0F86C21D3
:100DA0003260361DD0F870213260364E019A3260C2
:100DB000321DC2F80090C1F8B8B2C1F8C0B2C1F893
:100DC000C852C1F8D042C1F8D842D0F83421C1F895
:100DD0000821D0F84421C1F80C21CCF80831CCF816
:100DE0000CE1294B009A1A601B1DD0F848211A60AB
:100DF000264BD0F83C211A601B1DD0F84C211A60FC
:100E0000234AC1F8B423234A02E01FE021E023E093
:100E1000D0F8EC101160D0F81C11491CC0F81C115E
:100E200002B0BDE8F08FC0F888201BE517E01A4E2D
:100E300061E500BF6FF0CC069FE5DFF860C0C0F849
:100E4000FCC06AE6164DC0F8F8506AE6C0F86C219E
:100E50005EE7C0F8706163E7C0F87C2170E7C0F816
:100E6000806173E70A3805401A38054000D0034016
:100E700088C4034088D4034088CC034098CC034006
:100E800088C8034098C8034008C5034008D50340FC
:100E90003F0000C040A80340C0FEFFFF00770100F4
:100EA0009A99FFFF00EB81000121914050F80C2F2F
:100EB000012B0CBF114322EA0101016070478B082E
:100EC00000EB43008907038F090F4FF00F0C0CFA5A
:100ED00001FC02F00F0223EA0C0302FA01F11943AC
:100EE0000187704702466FF00200002908BF704773
:100EF00008884B8889881843084350800020704731
:100F0000012A90F845200CBF114322EA010180F824
:100F1000451070476FF0020118B100210180418037
:100F2000818008467047C900802303FA01F1012A35
:100F300042890CBF114322EA010141817047438974
:100F4000C9004FF0030C0CFA01FC02F0030223EA83
:100F50000C0302FA01F119434181704770B582B068
:100F60000121072001F0C2F90121480401F0A6F98E
:100F70006846FFF7CFFF0020594CADF800006946E6
:100F80002046FFF7AFFF574D69462846FFF7AAFFF7
:100F9000554E69463046FFF7A5FF03220021204643
:100FA000FFF78DFF0D2201212046FFF788FF0F225A
:100FB00002212046FFF783FF0A2203212046FFF784
:100FC0007EFF092204212846FFF779FF0C22052124
:100FD0002846FFF774FF0B2206212846FFF76FFF14
:100FE0000022012311462046FFF75CFF01231A4629
:100FF00000212046FFF756FF012302220021204650
:10100000FFF750FF0123032200212046FFF74AFF8C
:101010000123042200212846FFF744FF0123052273
:1010200000212846FFF73EFF012306220021284623
:10103000FFF738FF0B2200212046FFF7DAF90B22D9
:1010400001212046FFF7D5F90B2202212046FFF7A8
:10105000D0F90B2203212046FFF7CBF90B22042104
:101060002846FFF7C6F90B2205212846FFF7C1F9EC
:101070000B2206212846FFF7BCF901220021204659
:10108000FFF75DFF012200212846FFF758FF61218D
:10109000164800F033F86121154800F02FF80122BE
:1010A00011462046FFF72CFF124A4FF40041C2F8C8
:1010B0008012114B402083F800048432D167012252
:1010C00000212046FFF72FFF012200212846FFF7CD
:1010D0002AFF012200213046FFF725FF02B070BD34
:1010E0000000044000040440000804406808014077
:1010F0007008014010E000E08FE000E0026861F35A
:10110000080202607047000010B584B026492748E5
:1011100000F0D8F801220321052001F0F3F8684619
:1011200000F0AAF900248DF8024030208DF801006B
:101130008DF8004005208DF80300684600F080F926
:1011400002A800F0A5F88DF808406FF3102404F110
:10115000405000F56C5020F0706000F1407020F4B9
:10116000700000F5401020F08000039002A800F00D
:1011700071F8022000F078FE4FF4005001F08EF973
:10118000052000F0E3F8012000F07CFD002000F0D5
:1011900079FD012000F09CFD012000F079FD012087
:1011A00000F090FD04B010BD101101007777070723
:1011B00018B4020026494FF000004FF001031AD086
:1011C000D1F800014FF0000310F0800F0CBF08228F
:1011D00001224FF4805C6FF00700009317D000BF2E
:1011E00091F83C4014421DD1009C641C009464455D
:1011F000F6D918BC704791F8262002F00702052A9C
:1012000014BF81F82A306FF0050018BC704791F8C0
:101210003C40144206D1009C641C00946445F6D9FD
:1012200018BC704781F82A3020224FF4805C6FF0A0
:101230000700009391F83C30134202D018BC002004
:101240007047009B5B1C00936345F3D918BC704743
:1012500000400540002804BF6FF0020070470B49B2
:10126000D1F80021037922F08002C3F3C01342EACF
:10127000C312C1F800214268C1F80021007810B102
:101280000020FFF795BF0120FFF792BF0040054007
:101290000021002808BF6FF0020111D000226FF377
:1012A000102202F1805202F5985222F0706202F18F
:1012B000807222F4700202F58012426001220270F4
:1012C000084670472DE9F0411D4C054684B0206862
:1012D0000E464FF00008009060680190A0680290F0
:1012E000E068184F039097F8260000F007000528E3
:1012F0000AD115484FF001082060C0126060A0605C
:10130000E0601E2000F090FB386A06EA0501A84361
:10131000084338621E2000F087FBB8F1000F0AD0A6
:1013200000982060019860600298A0600398E060D7
:101330001E2000F079FB04B0BDE8F04103F024B8B2
:1013400000800440004005400EFAFFFFF0B51C4C41
:10135000054685B020680026009060680190A0686E
:101360000290E068174F039097F8260000F00700FE
:10137000052818BF052D0CD113484FF00106206039
:101380004FF0FF306060A060E0604FF01E0000F0A2
:101390004BFB87F826501E2000F046FB56B1009804
:1013A0002060019860600298A0600398E0601E20B1
:1013B00000F03AFB05B0BDE8F04002F0E5BF0000E8
:1013C00000800440004005400EFAFFFF03001B4A66
:1013D00081B04FF000004FF001010DD082F83200D3
:1013E00008214B020090484292F83CC01CEA010FD1
:1013F00019D0002001B0704792F8263003F007039F
:10140000032B0CD0D2F8003113F0800F07BF92F8F5
:101410002A30002B82F8321001B018BF70476FF0ED
:10142000050001B07047DDF800C00CF1010CCDF8EB
:1014300000C09C45D8D901B070470000004005406D
:10144000002804BF6FF002007047C178084A82F894
:10145000A210417882781143064A41F08001117050
:10146000007810B10020FFF7B1BF0120FFF7AEBF39
:101470000040054050CC04400021002808BF6FF018
:10148000020106D001220270002282704270052201
:10149000C27008467047012981780CBF41F00101F4
:1014A00001F0FE018170704770B41E4982B0096A74
:1014B0001D4AC1F30261126822FA01F11B4AB0F120
:1014C000010CB1FBF2F33EBF02B070BC704703F0F9
:1014D00001045D1E5E1C00931800019314D0B0F14E
:1014E000004F1AD20028D8BF002002DD200018BF0C
:1014F00000953146401C884206DA009A801C521E34
:10150000521E00928842F8DB0098401E0090BCF109
:10151000010CE0D202B070BC70470098401E0090F1
:10152000FCD1F1E70040054000C0FF1F8096980005
:1015300070B504460D006FF0020008BF70BD207842
:1015400000F0FE00207028684FEA3040606020788C
:10155000A97A00F0F100C1F3420140EA4100207095
:101560000120FFF7A1FF207840F00100207001204A
:10157000FFF79AFF287AA979084360702879A0704C
:10158000002070BD012981780CBF41F0040101F0F9
:10159000FB01817070476FF0020130B100210180C2
:1015A00041808180C18001814181084670470000EF
:1015B00008B5002100914FF4F8300422694600F08C
:1015C000D3FB0098B0F1FF3F1CBF1D4908601D48C8
:1015D0000422694600F0C8FB0098B0F1FF3F1CBF31
:1015E0001949086019480422694600F0BDFB0098BB
:1015F000B0F1FF3F1CBF1649086016480422694637
:1016000000F0B2FB0098B0F1FF3F1CBF1249086028
:1016100012480422694600F0A7FB0098B0F1FF3F92
:101620001CBF0F4908600F480422694600F09CFB6C
:101630000098B0F1FF3F1CBF0B49086008BD0000D7
:10164000B8C0FF1F04F00100BCC0FF1F08F001007C
:10165000C0C0FF1F0CF00100C4C0FF1F10F001004C
:10166000C8C0FF1F14F00100CCC0FF1F10B501203F
:1016700000F014FB01211F2000F024FC4FF4F8348B
:10168000204600F0A9FB10480168204600F026FB28
:101690000E49201D096800F021FB0E490C4809681D
:1016A00000F01CFB0D490C48096800F017FB0D49C0
:1016B0000B48096800F012FB0C490B480968BDE8AB
:1016C000104000F00BBB0000B8C0FF1FBCC0FF1FE4
:1016D00008F00100C0C0FF1F0CF00100C4C0FF1FD4
:1016E00010F00100C8C0FF1F14F00100CCC0FF1FA4
:1016F00010B520227F211C48FEF724FE1B494FF421
:1017000080704FF42052C8600A6000200861184AB7
:10171000C1E9012048618861C86188620862154A90
:1017200045F2B6534862C1E90C2338314FF4806C5E
:10173000C1E903C040F6992CC1F800C0DFF838C0F9
:10174000C1E901C048618861C86188620862486275
:10175000C1E90C230949C1F8F400C1F8F800C1F847
:10176000FC00C1F8000110BDA9C1FF1FA8C2FF1FE6
:1017700000DCFFFF007701009AF6FFFF08C0FF1FA3
:1017800010B5012184B0080300F0A4FD684602F002
:101790008FFE002000900190029040F25720074CED
:1017A000ADF80C006A460121204602F045FE0121F9
:1017B000204602F073FE04B010BD0000004002405D
:1017C0000129C1880CBF41F40041C1F30E01C18061
:1017D0007047012AC2880CBF114322EA0101C1806F
:1017E0007047828801F4807122F4807211438180F5
:1017F000704700001B4A86B04FF0000CD2E900127F
:10180000CDE900128DF808C061466A4652F82130D1
:10181000834219D1102000FA01F2022918D212498C
:10182000086890430860086832EA000012D000BFE0
:101830009DF80800401C8DF808009DF808006428F9
:101840000BD96FF0070C05E0491CC9B20229DDD3A2
:101850006FF0020C604606B07047086832EA00007C
:10186000E6D1F7E768530000ECCC04406FF00203C8
:10187000BAB18388B2F800C023F480730CF4807C82
:1018800043EA0C038380927801230E3103FA01F1BD
:10189000012A828B89B20CBF22EA010111438183A4
:1018A00000231846704701230E3103FA01F1012A83
:1018B000828B89B20CBF22EA0101114381837047F8
:1018C000838820F811207047838841EA0241016033
:1018D00070478388002213F0010F18BF6FF00302D6
:1018E00006D10123491C03FA01F183881943818041
:1018F00010467047818841F00101818070476FF088
:10190000020120B1002101800121817000210846DF
:101910007047000038B50121102000F0E7FC0121DC
:10192000202000F0E3FC2D4C2046FFF763FF2C4DF8
:101930002846FFF75FFF6846FFF7E1FF6A46002190
:101940002046FFF793FF6A4601212046FFF78EFFEE
:101950006A4600212846FFF789FF00212046FFF74D
:1019600040FF00212846FFF73CFF012207212046C7
:10197000FFF72FFF012207212846FFF72AFF012149
:101980002046FFF71DFF01212846FFF719FF40F60B
:10199000C53240F61F412046FFF796FF40F684729D
:1019A00000212846FFF78CFF002211462046FFF752
:1019B0007AFF002201212046FFF775FF0022114621
:1019C0002846FFF770FF2046FFF794FF00212846C6
:1019D000FFF77FFF642000F027F838BD00100440B7
:1019E0000014044081B00E49096A0E4BC1F3026134
:1019F0001B6823FA01F142F210731944491EB1FB2E
:101A0000F3F206E0009200BF00994B1E00930029FC
:101A1000FAD1011EA0F10100F4D101B0704700001D
:101A20000040054000C0FF1F81B00D49096A0D4B01
:101A3000C1F302611B6823FA01F10B4B1944491EE3
:101A4000B1FBF3F206E0009200BF00994B1E009339
:101A50000029FAD1011EA0F10100F4D101B07047B4
:101A60000040054000C0FF1F80969800012303FA44
:101A700001F1C9B2012A0CBFC16141630020704766
:101A80008161704701607047F0B501218BB0880318
:101A900000F014FC0121880300F010FC012148042F
:101AA00000F00CFC684600F0DAF800242F4802A988
:101AB00001252D26009481E871002D480190042015
:101AC000CDE906402B4F6A462146384600F063F8C0
:101AD00008A800F0ABF82020CDE9080408AA0021EE
:101AE0000A96384600F083F84FF4B1712248FFF7A8
:101AF00005FB01213846FFF7C5FF012200213846CA
:101B0000FFF7B4FF684600F0AAF81C4802A9802637
:101B1000009481E871001A480190CDE906546A46A4
:101B20000121384600F037F840F263111548FFF7FD
:101B3000E5FA01213846FFF7A5FF01221146384694
:101B4000FFF794FF08A800F071F81020CDE908060F
:101B500008AA01210A94384600F049F801220C2114
:101B6000094802F027FE0BB0F0BD000018C3FF1FAC
:101B700006D00140003005400408014004D0014077
:101B8000A8C1FF1F0808014000D00140806808403C
:101B900018BF0120704703460020002A04BF6FF0E1
:101BA0000200704703EB8111D2F804C0C1F840C0B5
:101BB00093684B64138AB2F814C0C3F3090343EA71
:101BC0000C438B64D2F80CC0136843EA0C03D2E9CF
:101BD00006C24CEA02021A4341F20F331A40CB6D9F
:101BE00023F00F0323F498531A43CA657047034642
:101BF00010B40020002A02BF6FF0020010BC704732
:101C000003EB8113D3F85CC014782CF0300C04F093
:101C100030044CEA040CC3F85CC05168128941EAF4
:101C2000024121F0FC21D96410BC7047002100283A
:101C300008BF6FF0020103D00022026042608260A0
:101C40000846704700EB811002640020704700EBEB
:101C50008110816CC1EA024181640020704700223A
:101C6000002808BF6FF0020209D000210160416026
:101C700001238160C0E9031341618161C1611046A4
:101C8000704700000149C1F84C03704700802042B2
:101C90000149C1F84403704700802042012801BF78
:101CA000054906480160C9431EBF0548016841F463
:101CB0008031016070470000674523010404014042
:101CC0001C0401400149C1F84003704700802042D4
:101CD0000149C1F848037047008020422DE9F041D6
:101CE000DFF8748040F23F120026C8F800201B4C39
:101CF000226802F47027226822F470222260251DD7
:101D00002A6822F0070242F001022A6001601448AA
:101D1000006A1449C0F30260096821FA00F044F631
:101D20002061B0FBF1F1A01500F0E0F810F1080F10
:101D300008BF6FF004061020C8F80000286820F0E3
:101D400007002860206807F4702120F47020084301
:101D500020603046BDE8F0812404014018040140B1
:101D60000040054000C0FF1F70B505460E006FF033
:101D70000200144608BF70BD1548006A1549C0F33B
:101D80000260096821FA00F044F62061B0FBF1F12D
:101D90004FF4807000F0AAF800281CBF6FF0040018
:101DA00070BD64B1B4F1004F0BD20120012C06DBF1
:101DB00015F8011B401C06F8011B8442F8DA0020CC
:101DC00070BD15F8010B06F8010B641EF9D1F6E79A
:101DD0000040054000C0FF1F2DE9F041DFF874808E
:101DE00040F23F110026C8F800101B4C216801F496
:101DF0007027216821F470212160251D296821F0B8
:101E0000070141F00401296006601448006A144982
:101E1000C0F30260096821FA00F01249A1FB00102A
:101E20000109A01500F062F810F1080F08BF6FF06B
:101E300004061020C8F80000286820F00700286079
:101E4000206807F4702120F4702008432060304699
:101E5000BDE8F08124040140180401400040054021
:101E600000C0FF1F1F85EB5130B4134C00212268C6
:101E700060F303022260226802F00F02824217D050
:101E80000F4A0E4B44F6206C12681D6AC5F30265BA
:101E900022FA05F5B5FBFCF5491C8D4203D230BC96
:101EA0006FF007007047256805F00F058542ECD1FB
:101EB00030BC00207047000018040140004005407D
:101EC00000C0FF1F084A00F01F0013684FF0010C0C
:101ED0000CFA00FC01F0010123EA0C0301FA00F006
:101EE00018431060704700009005014081B0002247
:101EF000DFF830C013460092DCF8002030EA02021E
:101F00000CD0009A521C00928A4202D96FF007034B
:101F100004E0DCF8002030EA0202F2D1184601B0F9
:101F20007047000020040140016170472DE9F00175
:101F30006FF0020200297CD08B6E0A6ED1F878C057
:101F40001A430B6FCC6F43EA0C031A43D1F880306D
:101F5000D1F86CC01A43D1F8883013434A6E42EA74
:101F60000C02D1F874C04CEA040C42EA0C02D1F81D
:101F700084C042EA0C02D1F88CC042EA0C02D1E9DA
:101F800000C44CEA040C8C6823434CEA0303D1E9F7
:101F900003C44CEA040CD1E907452C434CEA040C79
:101FA000CC6A4CEA040C0C6B4CEA040CCC6B4CEA8B
:101FB000040C0C6C4CEA040CCC6C4CEA040C0C6D5C
:101FC0004CEA040C4CEA0307D1E9053C43EA0C0354
:101FD000D1E909C44CEA040C43EA0C03D1F834C03B
:101FE00043EA0C03D1F838C043EA0C03D1F844C0EB
:101FF00043EA0C03D1F848C043EA0C03D1F854C0BB
:1020000043EA0C03D1F858C043EA0C03D1F85CC092
:1020100043EA0C03D1E9244C43EA0205D1E9262323
:1020200044EA0C0643EA020846EA0808D1F8A06030
:1020300000E012E048EA06013943002C08BF002AFC
:1020400005D1BCF1000F04BF002B002E01D041F0E0
:102050001001456001604FF00002BDE8F00110463C
:1020600070476FF00201002832D00021016041600A
:102070008160C160016141618161C1610162416250
:102080008162C162016341638163C1630164416430
:102090008164C164016541658165C1654166016610
:1020A000C166816641670167C1678167C0F88410B6
:1020B000C0F88010C0F88C10C0F88810C0F89010DC
:1020C000C0F89410C0F89810C0F89C10C0F8A01088
:1020D000084670472DE9F0470121AAB0C80300F077
:1020E000F9F86846FFF7BDFF4FF4802500240494FB
:1020F000CDE905454FF40038EF00CDF81C80089479
:10210000CDE9094768021094CDE911400012AE10E4
:102110000F904FF004090120DFF8E8A0CDE9029606
:10212000009069465046FFF701FF6846FFF799FFA8
:1021300003960494CDE90545CDF81C800894CDE9BB
:102140000947A8010B950C94CDE90D400220CDE97B
:1021500001092D4C69462046FFF7E8FE0022A11533
:10216000504600F053F800226115504600F04EF83A
:102170000022E114504600F049F8002204215046A4
:1021800000F044F80022A115204600F03FF800229C
:102190006115204600F03AF800222115204600F093
:1021A00035F800220421204600F030F8A1155046F1
:1021B000FFF7BAFE61155046FFF7B6FEE114504630
:1021C000FFF7B2FEA9015046FFF7AEFE29025046C6
:1021D000FFF7AAFEA1152046FFF7A6FE61152046CF
:1021E000FFF7A2FE21152046FFF79EFEE9012046DB
:1021F000FFF79AFE29022046FFF796FE2AB0BDE8B7
:10220000F08700000086034020860340002A826990
:102210000CBF22EA010111438161704710B50A4CDD
:102220000A20FFF7DFFB0121022000F0EDF828B1C2
:10223000012000F03DF8FEF7E1F810BD206840F005
:1022400002002060ECE70000A4C1FF1F10B50A4C9B
:102250000A20FFF7C7FB0821022000F0D5F828B1BB
:10226000082000F025F8FEF7C8F810BD206840F0FF
:1022700001002060ECE70000A4C1FF1F10B50B4C6B
:102280000A20FFF7AFFB4FF40071012000F0BCF80B
:1022900030B14FF4007000F00BF8FEF7B0F810BD4D
:1022A000206840F004002060EAE70000A4C1FF1F9E
:1022B000014988657047000000100540044A012963
:1022C00011680CBF21EA000008431060704700004D
:1022D00000800440044A012991680CBF21EA0000F3
:1022E000084390607047000000800440044A0129C0
:1022F000D1680CBF21EA00000843D060704700009D
:102300000080044030B40E4C00234FEA801C00BF14
:1023100011F0010F0AD00CEB83002044012A05883C
:102320000CBF45F40045C5F30E050580490804BF00
:1023300030BC7047581CC3B2102BE9D330BC704777
:10234000003C0540044A012911680CBF084321EAFA
:102350000000106070470000F03B05402DE9F001DF
:1023600084460020002A02BF6FF00200BDE8F001A1
:10237000704700234FF2F7654FEA8C16214F00BFDC
:1023800011F0010F32D0B2F800C05488B2F80680C4
:102390004CEA040C948844EA08044CEA040C54897E
:1023A000B2F80E804CEA040C148A4CEA040C548AED
:1023B0004CEA040C14894CEA040CD48A44EA0C0C50
:1023C000948944EA080444EA0C0C948A44EA0C0414
:1023D00006EB830CBC44BCF800802C4028F0F708C6
:1023E00028F4764848EA0404ACF80040490804BFE1
:1023F000BDE8F00170475B1CDBB2102BC0D3BDE819
:10240000F0017047003C0540000100F1804000F5FC
:10241000A620B0F80008084018BF0120704700004F
:10242000034A02EB0010028811430180704700004C
:102430000A380540054A012900F01F0011880CBF29
:10244000084321EA0000108070470000F43B05407B
:1024500030B40C4C00234FEA801C00BF11F0010F78
:1024600006D00CEB83002044058862F30505058047
:10247000490804BF30BC7047581CC3B2102BEDD3C1
:1024800030BC7047023C0540034A02EB0010028852
:1024900011430180704700000838054004490A884C
:1024A00000F4E04022F4E04210430880704700004E
:1024B000F83B05400022002808BF6FF002020CD054
:1024C000002101804180C180C1828181C18101815F
:1024D00041810182418281808182104670470000E3
:1024E000034A02EB0010028811430180704700008C
:1024F0000C38054010B586B06846FFF7DBFF0024B6
:10250000ADF816400220ADF80040ADF80200C1025F
:102510006A462046FFF722FF6A464FF40061022018
:10252000FFF71CFF0120ADF800006A4620210020C3
:10253000FFF714FF6A464FF480610120FFF70EFF9A
:10254000ADF800406A464FF480410220FFF706FFD5
:102550004FF40044ADF816406A4601210220FFF70F
:10256000FDFE02216A460846FFF7F8FE6A4604218E
:102570000220FFF7F3FE6A4608210220FFF7EEFE75
:102580006A4620210220FFF7E9FE6A460221012067
:10259000FFF7E4FE6A4621110120FFF7DFFE6A46DD
:1025A00008210020FFF7DAFE6846FFF783FFADF849
:1025B00016406A4680210020FFF7D0FE6A460421BB
:1025C0000020FFF7CBFE022201210020FFF740FF91
:1025D00001216A460846FFF7C1FE6A462111012023
:1025E000FFF7BCFE01210846FFF7ACFE01210220E7
:1025F000FFF7A8FE01210420FFF7A4FE0121082017
:10260000FFF7A0FE01211020FFF79CFE01212020F2
:10261000FFF798FE01214020FFF794FE0121802062
:10262000FFF790FE01210802FFF78CFE012148020E
:10263000FFF788FE01218802FFF784FE0121C8020E
:10264000FFF780FE00210820FFF7F4FE2522214637
:102650000020FFF7FDFE242261110220FFF7F8FEA3
:10266000112202210020FFF7F3FE11220121002098
:10267000FFF7EEFE052280210120FFF7E9FE05228B
:1026800008211046FFF7E4FE0522E1110120FFF7C3
:10269000DFFE0522A1110120FFF7DAFE06B010BD12
:1026A0006FF0020118B1002101600171417108460B
:1026B00070470000234881B0006A2349C0F30260DC
:1026C000224B096821FA00F04FF47A71B0FBF1F067
:1026D0000090D3F8FC12002021F0010141F4407178
:1026E000C3F8FC12D3F8FC1221F0020141F440714E
:1026F000C3F8FC12D3F8FC1221F44071C3F8FC12A9
:10270000D3F8FC1240F201321143C3F8FC12D3F8A3
:10271000FC1211F4807F0CD100994A1E009203D262
:102720006FF0070001B07047D3F8FC1211F4807FFE
:10273000F2D0D3F8FC1211F4007F18BF4FF0FF3035
:1027400001B070470040054000C0FF1F00C00340BB
:102750000021C0F8401101604160464A02644264B1
:10276000C0F88020C0F88420C0F88820C0F88C20F1
:10277000C0F89020C0F89420C0F89820C0F89C20A1
:10278000C0F8C020C0F8C420C0F8C820C0F8CC20D1
:10279000C0F80021C0F80421C0F80821C0F80C21BD
:1027A000C0F84411C0F84811C0F84C11C0F85411D9
:1027B000C0F85811C0F860115206C0F86421C0F882
:1027C0006811C0F88011C0F88811C0F89011C0F8E5
:1027D0009411C0F89811C0F89C11C0F80012264A54
:1027E000C0F80422C0F80822C0F81012C0F818126D
:1027F0004FF48003C0F82032C0F82432C0F82832E9
:10280000C0F82C32C0F83012C0F83412C0F83822A8
:10281000C0F83C22C0F84012C0F84412C0F8481278
:10282000C0F84C12C0F85012C0F85422C0F8582218
:10283000C0F85C22C0F86022C0F86412C0F86812C8
:10284000C0F8A012C0F8A4120C49C0F8B412C0F825
:10285000B812C0F8BC12C0F8C012C0F8C412C0F858
:10286000C812C0F8CC12C0F8D012C0F8D412C0F808
:10287000D8127047C0FF3F00AAAA0A00C0FF7F001D
:102880006FF00202D9B191F800C0D0F84C316CF36E
:102890008713C0F84C31A0F18042B2F570320DD0F0
:1028A0000A794979120742EA4151D0F8002201F031
:1028B000815122F081521143C0F8001200221046CB
:1028C00070476FF0020271B10A780B79097A1A43E6
:1028D0001143D0F84C2101F0320122F032021143B1
:1028E000C0F84C110022104670476FF0020118B179
:1028F0000021016041608160084670476FF002026C
:1029000071B1D1E9002389681A431143D0F85421E9
:1029100001F0FE6122F0FE621143C0F85411002262
:10292000104670476FF0020271B1D1E90023896847
:102930001A431143D0F8582101F0FE6122F0FE62E3
:102940001143C0F858110022104670476FF0020181
:1029500018B10021016041608160084670476FF046
:102960000202D9B191F800C0D0F848316CF383036A
:10297000C0F84831A0F18042B2F570320DD00A792A
:102980004979D20542EA0141D0F8002201F401015F
:1029900022F401021143C0F80012002210467047D1
:1029A0006FF00202D9B191F800C0D0F848316CF351
:1029B0008713C0F84831A0F18042B2F570320DD0D3
:1029C0000A794979120642EA4141D0F8002201F021
:1029D000817122F081721143C0F80012002210466A
:1029E000704700006FF0020108B3D0E900121143F4
:1029F000436982681A4311430E4A41F440310A4048
:102A00000D49D1F8BC33DFF834C003EA0C031A4394
:102A1000C1F8BC23C268C1F8C8230269C1F8D02339
:102A20008269C1F8C023C069C1F8C4030021084607
:102A300070470000FE03230000C0034001FCDCFFE0
:102A400003B46FF00200002904BF02B07047D1E95F
:102A500000021043D1E902231A4310430A691043CC
:102A6000144A02400098D0F84032DFF84CC003EA24
:102A70000C031A43C0F8402210484A6901150DF5AD
:102A800080439B0A9940002AD0F8BC2307D041F428
:102A900040311143C0F8BC13002002B070474FF41E
:102AA0007F3322F47F3223EA01011143C0F8BC13C3
:102AB000F2E7000005000502FAFFFAFD00C003403E
:102AC0006FF0020130B10021016041608160C1609E
:102AD00001614161084670476FF0020140B1002179
:102AE000016041608160C16001614161C0E906111E
:102AF000084670476FF00202D1B18B680A681A432A
:102B0000CB681A430B4B1A40D0F84032DFF828C08C
:102B100003EA0C031A43C0F84022D0F84422898803
:102B200022F4C06201F4C0611143C0F844120022D3
:102B300010467047080E0800F7F1F7FF6FF002012A
:102B400020B10021016041608160C160084670478A
:102B50006FF0020239B14A6802640A688968114359
:102B6000C0F840110022104670476FF0020291B188
:102B7000D1E901231A430B6842EA4302C0F8A422B8
:102B8000D0F84422097B22F0200201F020011143F9
:102B9000C0F844120022104670476FF0020120B1C5
:102BA0000021016041608160C160084670476FF09C
:102BB000020200293BD00A68C0F88020D1E9012335
:102BC0001A43D1E9033C43EA0C031A434B691A4305
:102BD0008B691A43CB691A430B6A1A43D0F85431F4
:102BE000C2EA0302C0F85421CB6A4A6AD1F83CC059
:102BF0001A434B6B43EA0C031A43D0F8043202F039
:102C00007F6223F07F631A43C0F804220B6B8A6A49
:102C10001A438B6B096C19431143D0F8382201F029
:102C20007F6122F07F621143C0F838120022104603
:102C300070476FF0020200293BD00A68C0F8842078
:102C4000D1E901231A43D1E9033C43EA0C031A43B7
:102C50004B691A438B691A43CB691A430B6A1A43AF
:102C6000D0F85831C2EA0302C0F85821CB6A4A6A48
:102C7000D1F83CC01A434B6B43EA0C031A43D0F81B
:102C8000083202F07F6223F07F631A43C0F8082203
:102C90000B6B8A6A1A438B6B096C19431143D0F88A
:102CA0003C2201F07F6122F07F621143C0F83C12A8
:102CB00000221046704700006FF0020190B10A49EF
:102CC0000160002141608160C160016141618161F9
:102CD000C161016241628162C162016341638163DA
:102CE000C163016408467047C0FF3F006FF00202F5
:102CF000D9B191F800C0D0F848316CF38B23C0F8FB
:102D00004831A0F18042B2F570320DD00A7949798C
:102D1000520642EA8141D0F8002201F0017122F00E
:102D200001721143C0F800120022104670476FF084
:102D30000202D9B191F800C0D0F848316CF3934346
:102D4000C0F84831A0F18042B2F570320DD00A7956
:102D50004979920642EAC141D0F8002201F081612E
:102D600022F081621143C0F8001200221046704721
:102D70006FF00202D9B191F800C0D0F848316CF37D
:102D80009753C0F84831A0F18042B2F570320DD0AF
:102D90000A794979D20642EA0151D0F8002201F0BD
:102DA000016122F001621143C0F8001200221046B6
:102DB000704700006FF0020128B1002101608160BE
:102DC000024941600021084670470000C0FF3F00F3
:102DD00070B58EB006A8FFF77FFE4FF400100025F7
:102DE000CDE906050220CDE90A50CDE90C5519269A
:102DF000099606A8FFF7F6FD224CD4F8BC0340F470
:102E00009810C4F8BC03D4F8BC0340F43020C4F8D4
:102E1000BC036846FFF754FE042002900004CDE98D
:102E200003050120009000040190694605952046A5
:102E3000FFF706FE69461448FFF702FE694613488D
:102E4000FFF7FEFD69461248FFF7FAFD6946114893
:102E5000FFF7F6FD69461048FFF7F2FDC4F8C863B6
:102E6000C4F8CC630D20C4F8D003C4F8D403D4F85C
:102E7000BC0340F0010040F44030C4F8BC030EB085
:102E800070BD000000C0034000C4034000C8034000
:102E900000CC034000D0034000D403402DE9F04FA4
:102EA000A3B001214FF47C70FFF714FAFE4C2046CA
:102EB000FFF74EFCFD48FFF74BFCFD48FFF748FCD1
:102EC000FC48FFF745FCFC4F3846FFF741FCFB4848
:102ED000FFF73EFCFFF7EEFBD4F8A00240F008003D
:102EE000C4F8A002F148D0F8A00240F00801EF4871
:102EF000C0F8A012EE48D0F8A00240F00801EC485B
:102F0000C0F8A012EB48D0F8A00240F00801E94850
:102F1000C0F8A012D7F8A00240F00800C7F8A0023D
:102F2000E648D0F8A00240F00801E448C0F8A0123A
:102F30001FA8FFF73FFF00264FF4F048CDE91F68B8
:102F40001FA920462196FFF703FE1FA9D748FFF7C8
:102F5000FFFD1FA9D648FFF7FBFD1FA9D548FFF7C6
:102F6000F7FD1FA93846FFF7F3FD1FA9D348FFF768
:102F7000EFFD6846FFF7A0FE4020CDE9040601966C
:102F800040010690029680004FF020090790CDF88E
:102F90000C9080004FF4001BCDE9080B0002CDE936
:102FA0000AB085004FF0006ACDE90C05CDE90E5A54
:102FB00069462046CDF840A0FFF7F9FD6946BF48B5
:102FC000FFF7F5FDA015CDE904600196C00006905D
:102FD000029680000790CDF80C908000CDE9080B98
:102FE0000002CDE90AB0CDE90C05CDE90E5A6946DB
:102FF000AE48CDF840A0FFF7DAFD69463846FFF746
:10300000D6FD8020CDE904060196000106900296C7
:1030100080000790CDF80C90800008904001CDE929
:10302000090BC000CDE90C050B90CDE90E5A69469D
:10303000A048CDF840A0FFF7BAFD69469C48FFF7CD
:10304000F8FD6015CDE90460029601968000CDE997
:10305000060603960001CDE9080BC001CDE90AB0D0
:103060004000CDE90C05CDE90E5A69469148CDF8EE
:1030700040A0FFF7DEFD69468D48FFF798FDC4F8D4
:103080004080C4F844804FF47050C4F88000C4F805
:1030900088004110C4F8C010C4F8C810894A884993
:1030A0001160121D1160884A1060884A1060884AB9
:1030B0001160121D1160874A40F283751560864ABF
:1030C0001560864B44F283321A60854B1A601A1DD4
:1030D0001060844A1060121FC2F80080824AC2F851
:1030E0000080824A1160121D1160814A1060814A7D
:1030F000106039647964C7F88000C7F888007E4A98
:103100001160121D11607D490D607D490D607D4A81
:1031100044F2833111607C4A1160111D08607B49C3
:103120000860081FC0F80080081DC0F800801CA8B7
:10313000FFF7DBFB02201C901020CDE91D091CA924
:103140002046FFF7BEFBC4F80051C4F80851C4F88C
:103150000451C4F80C51D4F84C0140F00100C4F8FB
:103160004C0102201C901020CDE91D091CA94F48DC
:10317000FFF7A7FB6648056066480560001F05600D
:10318000654805604948D0F84C0140F001014748C6
:10319000C0F84C1102201C901020CDE91D091CA97B
:1031A0004648FFF78EFB5D4805605D480560001FDF
:1031B00005605C4805604148D0F84C0140F00101D1
:1031C0003E48C0F84C1102201C901020CDE91D098A
:1031D0001CA93846FFF775FBC7F80051C7F808511E
:1031E000C7F80451C7F80C51D7F84C0140F0010062
:1031F000C7F84C0112A8FFF753FA01208DF84C00D4
:1032000012908DF84D6012A92046FFF76FFDD4F89B
:10321000480140F48070C4F8480112A92046FFF725
:103220009EFBD4F8480140F00100C4F8480112A9FF
:103230002046FFF7B5FBD4F8480140F01000C4F871
:10324000480112A92046FFF772FDD4F8480140F466
:103250008030C4F8480112A92046FFF789FDD4F850
:10326000480140F48010C4F8480112A92046FFF735
:1032700007FBD4F84C0140F01000C4F84C01D4F81E
:103280004C0140F02000C4F84C0127484FF00109E0
:10329000C0F80090D4F8B40340F00100C4F8B403BF
:1032A000D4F8440242E0000000C0034000C40340E0
:1032B00000C8034000CC034000D0034000D40340CA
:1032C000C0FF3F0040C4034080C4034088C40340A3
:1032D00040C8034080C8034088C8034084C80340F6
:1032E0008CC8034098C803409CC8034040D40340A6
:1032F00080D4034088D4034040CC034080CC0340BA
:1033000088CC034084CC03408CCC034098CC034051
:1033100000C5034008C503400CC5034000D5034069
:1033200008D503400CD50340A054784220F4700027
:1033300040F48000C4F844024FF00008DFF8CCA449
:103340008DF84C90CDF848808DF84D8012A95046EC
:10335000FFF7CCFC5046D0F84801514640F480704D
:10336000C1F8480112A95046FFF7F9FA5046D0F8C3
:103370004801514640F00100C1F8480112A95046E9
:10338000FFF70EFB5046D0F84801514640F01000C0
:10339000C1F8480112A95046FFF7C9FC5046D0F8C1
:1033A0004801514640F48030C1F8480112A9504606
:1033B000FFF7DEFC5046D0F84801514640F480103B
:1033C000C1F8480112A95046FFF75AFA5046D0F802
:1033D0004C01514640F01000C1F84C01D1F84C01AD
:1033E00040F02000C1F84C01D4F8B40340F00200D2
:1033F000C4F8B403D1F8440220F4700040F4800013
:10340000C1F8440201208DF84C00CDF848808DF8B9
:103410004D8012A9FE4F3846FFF768FCD7F84801E7
:1034200040F48070C7F8480112A93846FFF797FAB0
:10343000D7F8480140F00100C7F8480112A9384602
:10344000FFF7AEFAD7F8480140F01000C7F848017E
:1034500012A93846FFF76BFCD7F8480140F48030DA
:10346000C7F8480112A93846FFF782FCD7F848018F
:1034700040F48010C7F8480112A93846FFF700FA57
:10348000D7F84C0140F01000C7F84C01D7F84C01B8
:1034900040F02000C7F84C01D4F8B40340F0040019
:1034A000C4F8B403D7F8440220F4700040F480005C
:1034B000C7F8440201208DF84C00D64DCDF8488065
:1034C0008DF84D8012A92846FFF710FCD5F8480169
:1034D00040F48070C5F8480112A92846FFF73FFA6A
:1034E000D5F8480140F00100C5F8480112A9284666
:1034F000FFF756FAD5F8480140F01000C5F848012A
:1035000012A92846FFF713FCD5F8480140F4803093
:10351000C5F8480112A92846FFF72AFCD5F848014A
:1035200040F48010C5F8480112A92846FFF7A8F911
:10353000D5F84C0140F01000C5F84C01D5F84C010D
:1035400040F02000C5F84C01D4F8B40340F0080066
:10355000C4F8B403D5F8440220F4700040F48000AD
:10356000C5F8440201208DF84C00AB4ECDF84880E0
:103570008DF84D8012A93046FFF7B8FBD6F8480108
:1035800040F48070C6F8480112A93046FFF7E7F909
:10359000D6F8480140F00100C6F8480112A93046AB
:1035A000FFF7FEF9D6F8480140F01000C6F84801D0
:1035B00012A93046FFF7BBFBD6F8480140F4803033
:1035C000C6F8480112A93046FFF7D2FBD6F84801E9
:1035D00040F48010C6F8480112A93046FFF750F9B0
:1035E000D6F84C0140F01000C6F84C01D6F84C015A
:1035F00040F02000C6F84C01D4F8B40340F01000AD
:10360000C4F8B403D6F8440220F4700040F48000FB
:10361000C6F8440201208DF84C00DFF800B2CDF866
:1036200048808DF84D8012A95846FFF75FFBDBF804
:10363000480140F48070CBF8480112A95846FFF7C2
:103640008EF9DBF8480140F00100CBF8480112A9DF
:103650005846FFF7A5F9DBF8480140F01000CBF819
:10366000480112A95846FFF762FBDBF8480140F415
:103670008030CBF8480112A95846FFF779FBDBF8F8
:10368000480140F48010CBF8480112A95846FFF7D2
:10369000F7F8DBF84C0140F01000CBF84C01DBF8F8
:1036A0004C0140F02000CBF84C01D4F8B40340F0BA
:1036B0002000C4F8B403DBF8440220F4700040F4A6
:1036C0008000CBF8440218A8FFF767FA54494FF47A
:1036D00070500860091D08600020CDE9188018A905
:1036E0003046FFF742FA3046D0F8A402314640F0A7
:1036F0000100C1F8A4024B494FF470500860091D45
:1037000008600020CDE918901A9018A93846FFF7F4
:103710002CFA3846D0F8A402394640F00100C1F82E
:10372000A40241494FF4F0500860091D08600220CE
:1037300018900020199018A95846FFF716FADBF8E0
:10374000A40240F00100CBF8A40238494FF4B44081
:103750000860091D0860032018900020199018A91E
:103760005046FFF702FADAF8A40240F00100CAF866
:10377000A4022F494FF4B4400860091D08600420DA
:103780001890002019901A9018A92846FFF7EDF913
:10379000D5F8A40240F00100C5F8A402D4F8B4039F
:1037A00040F48070C4F8B403D4F8B40340F400705B
:1037B000C4F8B403D4F8B40340F48060C4F8B4038C
:1037C000D4F8B40340F40060C4F8B403D4F8B403EC
:1037D00040F48050C4F8B403D4F8B40340F400506B
:1037E000C4F8B403D4F8440240F48030C4F844026E
:1037F000D4F8440240F48020C4F84402DAF84402C9
:1038000040F48030CAF8440214E0000000C40340D1
:1038100000C8034000CC034000D0034000D4034064
:10382000B4C20340BCC20340C4C20340CCC2034084
:10383000D4C20340DAF8440240F48020CAF84402BB
:103840003846D0F84402394640F48030C1F844028A
:10385000D1F8440240F48020C1F84402D5F8440273
:1038600040F48030C5F84402D5F8440240F480208A
:10387000C5F844023046D0F84402314640F4803066
:10388000C1F84402D1F8440240F48020C1F8440257
:10389000DBF8440240F48030CBF84402DBF8440209
:1038A00040F48020CBF8440200F0A4F8FFF790FA2F
:1038B00014A8FFF74BF84FF400060020CDE91406DA
:1038C000B71014A916972046FFF718F814A9204638
:1038D000FFF728F814A94448FFF710F814A9424844
:1038E000FFF720F814A94148FFF708F814A93F484A
:1038F000FFF718F87000CDE9140614A91697504682
:10390000FEF7FCFF14A95046FFF70CF814A928464F
:10391000FEF7F4FF14A92846FFF704F814A9584647
:10392000FEF7ECFF14A95846FEF7FCFFD4F854014B
:1039300040F08050C4F85401D4F8580140F0805051
:10394000C4F85801DAF8540140F08050CAF8540124
:10395000DAF8580140F08050CAF858012348D0F8EE
:103960005401224940F08050C1F85401D1F8580167
:1039700040F08050C1F85801D5F8540140F0805013
:10398000C5F85401D5F8580140F08050C5F85801E9
:103990001548D0F85401144940F08050C1F8540142
:1039A000D1F8580140F08050C1F85801DBF85401BB
:1039B00040F08050CBF85401DBF8580140F08050C3
:1039C000CBF85801D4F8B40340F03F00C4F8B40376
:1039D0000748C0F80090001FC0F800903F20C4F8CE
:1039E000F00323B0BDE8F08F00D0034000C80340CF
:1039F000FC76784230B585B06846FFF79FF808201E
:103A0000029000040390002001904FF40060494CA4
:103A1000009069462046FFF76DF8D4F8400220F088
:103A20000200C4F84002D4F8400220F40030C4F888
:103A30004002D4F8400240F48070C4F840023E4D89
:103A400069462846FFF756F8D5F8400220F00200F4
:103A5000C5F84002D5F8400220F40030C5F8400215
:103A6000D5F8400240F48070C5F84002334D6946F5
:103A70002846FFF73FF8D5F8400220F00200C5F8CD
:103A80004002D5F8400220F40030C5F84002D5F8D5
:103A9000400240F48070C5F84002294D694628462E
:103AA000FFF728F8D5F8400220F00200C5F84002E0
:103AB000D5F8400220F40030C5F84002D5F84002A5
:103AC00040F48070C5F840021E4D69462846FFF755
:103AD00011F8D5F8400220F00200C5F84002D5F8F0
:103AE000400220F40030C5F84002D5F8400240F40E
:103AF0008070C5F84002144D69462846FEF7FAFF6B
:103B0000D5F8400220F00200C5F84002D5F8400286
:103B100020F40030C5F84002D5F8400240F480702F
:103B2000C5F84002D4F8AC0340F03F00C4F8AC0341
:103B300005B030BD00C0034000C4034000C80340CE
:103B400000CC034000D0034000D40340034810B52C
:103B500000688047BFF34F8F10BD000028C2FF1FD1
:103B6000034810B540688047BFF34F8F10BD000079
:103B700028C2FF1F034810B580688047BFF34F8FEE
:103B800010BD000028C2FF1F034810B5C068804761
:103B9000BFF34F8F10BD000028C2FF1F034810B5B0
:103BA00000698047BFF34F8F10BD000028C2FF1F80
:103BB000034810B540698047BFF34F8F10BD000028
:103BC00028C2FF1F034810B580698047BFF34F8F9D
:103BD00010BD000028C2FF1F034810B5C069804710
:103BE000BFF34F8F10BD000028C2FF1F034810B560
:103BF000006A8047BFF34F8F10BD000028C2FF1F2F
:103C0000034810B5406A8047BFF34F8F10BD0000D6
:103C100028C2FF1F034810B5806A8047BFF34F8F4B
:103C200010BD000028C2FF1F034810B5C06A8047BE
:103C3000BFF34F8F10BD000028C2FF1F034810B50F
:103C4000006B8047BFF34F8F10BD000028C2FF1FDD
:103C5000034810B5406B8047BFF34F8F10BD000085
:103C600028C2FF1F034810B5806B8047BFF34F8FFA
:103C700010BD000028C2FF1F034810B5C06B80476D
:103C8000BFF34F8F10BD000028C2FF1F30B42F4B71
:103C9000DFF8BCC04FF47A74042A33D0052A1CBF65
:103CA00030BC704742F21072B1FBF2F202F1300503
:103CB00005706FF41C756A4301EB0211B1FBF4F25D
:103CC00002F1300444706FF07C04624301EBC201E6
:103CD000A3FB0132520902F1300383706FF0180325
:103CE0005A4301EB8201ACFB0132D20802F13003EE
:103CF000524202EB820201EB4201C370303101718A
:103D000030BC7047B1FBF4F202F1300404706FF084
:103D10007C04624301EBC201A3FB0132520902F1B0
:103D2000300343706FF018035A4301EB8201ACFB80
:103D30000132D20802F13003524202EB820201EB5F
:103D4000420183703031C17030BC70471F85EB5128
:103D5000CDCCCCCC70B5012184B00802FEF7C6FAF8
:103D600001214802FEF7C2FA6846FDF714FC01245F
:103D700000211020ADF80410ADF80040ADF8084067
:103D80001C4DADF80200ADF80600ADF80A1069460A
:103D90002846FDF7CDFBADF800400820164EADF8E3
:103DA000020069463046FDF7C3FBADF80040042031
:103DB000124CADF8020069462046FDF7B9FB01211F
:103DC0002046FDF768FB01212046FDF7DBFB0121C2
:103DD0003046FDF760FB01213046FDF7D3FB0121A2
:103DE0002846FDF758FB01212846FDF7CBFB04B020
:103DF00070BD000000B00340008503400084034014
:103E000010F0010F06D01C4940F223120A6043F261
:103E100010220A6010F0020F02D0194A17491161EE
:103E200010F0040F03D0174A4AF20151118010F02C
:103E3000200F03D0144A49F2A5619164134910F090
:103E4000100F06D0B1F8FE334AF208521A43A1F817
:103E5000FE2310F0400F06D0B1F8FE334AF20352B1
:103E60001A43A1F8FE2310F0800F08BF7047772097
:103E70000749086070470000000401400100A5A543
:103E800000800440FC3B0540000005400040054028
:103E90000C08054070B54C4C0025A08A02280CD0B7
:103EA000042810D0A4F84A504FF400610220FEF715
:103EB000EBFA4FF4805100204AE04FF400610220F9
:103EC000FEF70EFB46E0D4F8E00010F0010F18BF3B
:103ED000142102D0A4F84C100EE010F4807F18BF1B
:103EE0002821F7D110F4805F18BF3C21F2D110F4E3
:103EF000803F18BF5021EDD110F0020F18BFC8202D
:103F000003D000BFA4F84C000FE010F4007F18BFEE
:103F1000DC20F7D110F4801F18BFF020F2D110F48C
:103F2000001F18BF4FF48270ECD1B4F84A00411C56
:103F3000A4F84A10B4F84C10884206D3A4F84A50AA
:103F40004FF480510020FEF7CBFA4FF400610220BD
:103F5000FEF766FAB4F84E00401C80B2A4F84E009A
:103F6000218C884204D3A4F84E50E08BA4F8500072
:103F7000B4F92600A4F85200B4F9281088421FDBD7
:103F8000B4F952001928ACBF232840F22B150ADBE4
:103F90002D28B8BF40F2572505DB3228B4BF40F2C8
:103FA000833540F24B45B4F85400854208BF70BDDC
:103FB0002A460121054800F054FBA4F8545070BD76
:103FC000208DA4F85200DBE708C0FF1F00A80340C3
:103FD00070B55F4D04460422401CA96DFFF756FEE4
:103FE0000422E01DD5F88810FFF750FE042204F1EA
:103FF0000C00D5F88C10FFF749FE042204F11100E3
:10400000696EFFF743FE042204F11600A96EFFF764
:104010003DFE3021E176D5F8E0004FF0310210F09E
:10402000010F18BFE276217710F0020F18BF227738
:10403000617710F0040F18BF6277A17710F0200F9E
:1040400018BFA277E17710F4807F18BFE27784F879
:10405000201010F4007F18BF84F8202084F821106D
:1040600010F4806F18BF84F8212084F8221010F417
:10407000805F18BF84F8222084F8231010F4005FBA
:1040800018BF84F8232084F8241010F4804F18BF40
:1040900084F8242084F8251010F4803F18BF84F899
:1040A000252084F8261010F4003F18BF84F826203D
:1040B00084F8271010F4802F18BF84F8272084F884
:1040C000281010F4801F18BF84F8282084F82910C5
:1040D00010F4001F18BF84F8292084F82A10287DC6
:1040E0000422303084F82C0004F12E00D5F8D010D2
:1040F000FFF7CCFD174E04223068011204F13300A3
:10410000FFF7C4FD052204F13800B16AFFF7BEFDD8
:1041100006F138000522816A04F13E00FFF7B6FD82
:10412000052204F14400D5F81411FFF7AFFD052274
:1041300004F14A00D5F81811FFF7A8FD04F150006A
:10414000D5F88C11BDE870400522FFF79FBD000037
:1041500008C0FF1FA8C2FF1F894830B40146D0F82D
:1041600090C0B1F9341001231422BCF5F03F07DDF3
:10417000491C09B281861429A8BF828615DB0EE08E
:104180000CF1CD0CBCF5F03F06DA491E09B2818670
:104190000129B8BF838608DB818E142905D1D0F8A8
:1041A000E01041F00201C0F8E0107549D0F894C069
:1041B000B1F93610BCF52A3F07DD491C09B2C186AA
:1041C0001429A8BFC28615DB0EE00CF1CD0CBCF59E
:1041D0002A3F06DA491E09B2C1860129B8BFC38643
:1041E00008DBC18E142905D1D0F8E01041F400712C
:1041F000C0F8E0106249D0F898C0B1F93830002119
:10420000BCF55C2F09DD5B1C41871BB281870387EE
:10421000142BA8BF02872EDA1FE06FF42A24594D11
:104220006444AC4209D201874187838F5B1C1BB277
:104230008387142BC8BF82870FE0BCF52A2F0ADAC8
:1042400001878187438F5B1C1BB24387142BA8BF58
:10425000428702DA09E0142B0DD0428F142A04BFE2
:10426000D0F8E02042F4001210D0B0F93C20B2F5B2
:10427000522F07D00CE0D0F8E02042F48012C0F8B2
:10428000E02005E0D0F8E02022F44012C0F8E02061
:10429000B0F900C040F6590364229C450FDDA0F838
:1042A0004210B0F83EC00CF1010C0FFA8CFCA0F8E3
:1042B0003EC0BCF1640FC8BFC28712DD21E0BCF56F
:1042C000EF6F0EDCC187B0F842C00CF1010C0FFAA1
:1042D0008CFCA0F842C0BCF1640FC8BFA0F842201B
:1042E00004E0B0F83EC0BCF1640F0AD0B0F842C0A0
:1042F000BCF1640F04BFD0F8E0C02CF4800C06D1F0
:1043000003E0D0F8E0C04CF4800CC0F8E0C0B0F995
:1043100002C09C450DDDA0F84410B0F84010491CC7
:1043200009B2A0F840106429C8BFA0F8402010DDF1
:1043300021E0BCF5EF6F0CDCA0F84010B0F84410A1
:10434000491C09B2A0F844106429C8BFA0F8442051
:1043500003E0B0F8401064290DD0B0F8441064298F
:1043600007BFD0F8E01021F4000130BC7047C0F85E
:10437000E01030BC7047D0F8E01041F40001F6E7DF
:1043800008C0FF1FFF7F02001F4810B4006810F034
:10439000010F1E4814BF1E491E4941601E4991F875
:1043A00026204FF4004C02F007031C4A062B24BFC2
:1043B00010BC7047DFE803F003070A070A0E4168E4
:1043C000016010BC7047026010BC7047C0F800C0AC
:1043D00010BC7047D1F80031C3F3082CD1F800317C
:1043E000D1F800111B0F0E4C01F01F01E469002CE5
:1043F00018BF4268491CB2FBF1F10CF101025143B4
:104400005A1CB1FBF2F1DBE78406014000C0FF1F3C
:104410000024F400002D31010040054000127A0014
:104420000020A84200B5FFF7AFFF02490020086056
:1044300000BD000008ED00E02DE9F0411500064642
:104440000F464FF0000808BF6FF0020823D006EBBC
:10445000870400202060304600F03AF8A889A06068
:104460003946304600F034F83269390148F2F270CA
:1044700000FA01F39A43D5E9003C43EA0C03D5F86E
:1044800008C043EA0C0318408840104330613946A5
:10449000304600F01DF84046BDE8F08102690B018E
:1044A0004FF0010C0CFA03F31A43026100F010B84C
:1044B0000021002808BF6FF0020106D00022026030
:1044C000426082604FF6FF728281084670470000AA
:1044D000144A10B4126A144BC2F302621B6823FA26
:1044E00002F2D20B02EB8202D2020023002907BFA4
:1044F0004FF4807C61464FF0807C6146046914EA89
:104500000C0F01D10AE000BF521E05D0D0F814C034
:104510001CEA010FF7D001E06FF0070310BC18464A
:10452000704700000040054000C0FF1F0748018899
:1045300081F0010101800648D0F8641121F4006186
:10454000C0F8641104210320FDF7CABF9CC1FF1FFE
:1045500000C003400B4810B5D0F8B81311F0020F9B
:1045600009D0D0F8B81321F00201C0F8B8134115F2
:104570000120FDF7B5FF0448016821F0400101600A
:1045800010BD000000C0034064C5034010B50B4CD3
:10459000D4F8B80310F0010F09D0D4F8B80320F014
:1045A0000100C4F8B80304210320FDF799FFD4F8F3
:1045B000640120F08000C4F8640110BD00C0034015
:1045C0006FF0020269B10A786AB18A88A0F888207F
:1045D000CA88A0F88C200A7B80F881208968416015
:1045E0000022104670478A78CB781A434B781A43DA
:1045F00080F88020EFE703466FF00200002A08BF32
:10460000704703EB8100136803641179937941EAE1
:104610008301137A927A1B0143EA82121143B0F8A4
:104620004021C9B202F47F421143A0F8401100209A
:10463000704700EB810000F5A070400100F184405C
:10464000026370476FF0020148B1891001600121D7
:1046500081800021C1800321018141810021084620
:10466000704700EB81000264704790F8801041F0C1
:10467000010180F8801070476FF0020150B10021F5
:104680000170417081700222C2708180C1804A1E17
:1046900082600173084670470022A0236B283CBF4C
:1046A0006FF009007047B0F5326F2ABF9620DFF82F
:1046B00030C0704710B4991A02EB610109B23CF89E
:1046C000114084423CBF4A1C12B284BF4B1E1BB235
:1046D00001D09A42EFDDA1F10A0010BC00B2704790
:1046E0009053000030B5012189B08805FDF7F2FD37
:1046F00004A8FFF7C1FF00248DF8124002208DF8B6
:10470000130040F2AF401B4D069004A92846FFF766
:1047100057FF6846FFF796FF40F257200090ADF82C
:1047200008400120ADF80640ADF80A00ADF804409D
:104730006A4600212846FFF75EFF01220021284635
:10474000FFF777FF40F2F3100090112202210020C2
:10475000FDF77EFE6A4601212846FFF74CFF012245
:1047600011462846FFF765FF2846FFF77EFF09B090
:1047700030BD000000A8034000B501218BB0480502
:10478000FDF7B4FD684600F0A7FA032001904FF44E
:10479000006002904FF4E13003904FF40040079026
:1047A00000226946024800F06AFA0BB000BD000022
:1047B00000D001400B041B0C08D0D0F80CC0012A1B
:1047C0000CBF4CEA03032CEA0303C360064B13EA55
:1047D000114108BF7047012A02690CBF114322EA48
:1047E00001010161704700001E41FFFF2DE9F74FF5
:1047F0008246FF4890B0006AFE4AC0F30210126879
:1048000022FA00F0DAF8182012F0100F4FF001022F
:104810001FBFDAF8182002F00302802303FA02F225
:1048200001BFDAF8183003F003035B009A40B0FBD5
:10483000F2F5DAF80C000F464FF000094FF0FF08D0
:1048400010F0807F5AD04FF0FF34002D18BF002F9A
:1048500000F00C824FEA870BB5FBFBF0A0F10106DC
:10486000FF2E00F20382B5FBFBF00BFB105000287B
:1048700000F0AB810020711C40F10002920042EA7E
:1048800091738A00A2FB071C03FB07C302FB0032E3
:10489000120242EA116209024308CDE906124FEA08
:1048A0003500081842EB03012A460023FBF70AFDF6
:1048B00080387F2800F28C8180468030A0FB057C08
:1048C000002444F1000303FB05C300FB0435DDE9CC
:1048D0000601FBF756FD81468B4638462946FBF715
:1048E00050FD5B464A46FBF713FEFBF756FD4FF0C3
:1048F0007E51FBF707FE814600F0A1B9DAF81400FB
:1049000010F0200F78D0BC4B0DF1300B4FF0FF347E
:104910000FCB8BE80F00002D18BF002F00F0A681F1
:10492000DAF814004FF0070101EA50500CA931F8F1
:1049300010B007FB0BF04FEA40000190B5FBF0F020
:10494000A0F10101FF2900F2078101980E46B5FB95
:10495000F0F200FB1250002808BF002400F0338161
:1049600000221BEB0B005241491CA0FB01CE00238F
:1049700002FB01E143F1000300FB0312ACFB070360
:1049800002FB073200210CFB0121090241EA106100
:104990000202002043084FEA3500101809910792DF
:1049A00059412A460023FBF78DFC80387F287DD8AB
:1049B00080468030A0FB057C002444F1000303FB0B
:1049C00005C3079A00FB043509991046FBF7D9FC8B
:1049D00081468B4638462946FBF7D3FC4A465B4660
:1049E000FBF796FDFBF7D9FC4FF07E51FBF78AFDF4
:1049F000814600F024B9FFE74FF0FF34002D18BFC7
:104A0000002F00F03381DAF80C00C0F3C030C0F1A1
:104A1000020101FB07F14FEAC1010791B5FBF1F17A
:104A2000A1F10106FF2E00F221810799B5FBF1F2F9
:104A300001FB125100297DD00021D0F1020061EB71
:104A40000102D20042EA5072C300701CA3FB00CEE8
:104A500002FB00E041F1000BCDE9082303FB0B0250
:104A6000ACFB070302FB07320CFB0122120242EAF5
:104A700010624FEA002B49084FEA350010EB0B009B
:104A8000059251410023D0F1FF3273EB010228BFA0
:104A9000B0FBF5F003D22A460023FBF713FC803865
:104AA0007F2823D880460024059900E054E010F1C7
:104AB0008002A2FB057C44F1000303FB05C302FB5B
:104AC00004355846FBF75DFC81468B46384629463F
:104AD000FBF757FC4A465B46FBF71AFDFBF75DFC0C
:104AE0004FF07E51FBF70EFD8146A8E005EB8500F7
:104AF00041000798B1FBF0F0411D4048A0FB0110B8
:104B0000C008461EFF2E7BD8DDE9081016F1010C07
:104B1000A0FB0C29002401FB0C9144F1000300FBD5
:104B20000311A2FB070301FB073102FB0411FBF792
:104B300028FC00E049E081460F462846FBF714FCBC
:104B40004A463B46FBF7E4FCFBF727FC4FF07E515F
:104B5000FBF7D8FC814672E005EB85004100019827
:104B6000B1FBF0F0411D2548A0FB0110C008401E1C
:104B7000FF2828D84C461BEB0B0149EB04020646E4
:104B800010F1010C49F10000A1FB0C3902FB0C9261
:104B900001FB0021A3FB070201FB072103FB04111A
:104BA000FBF7EFFB81460F462846FBF7DDFB4A4645
:104BB0003B46FBF7ADFCFBF7F0FB4FF07E51FBF7FC
:104BC000A1FC81463BE0DCB939E04C4637E000BF50
:104BD00005EB85004000B0FBFBF0411D0748A0FB42
:104BE0000110C008461EFF2E40D80024701C08E0AB
:104BF0000040054000C0FF1F70530000CDCCCCCC5E
:104C000034E044F10001890041EA90728100A1FB87
:104C1000070302FB073201FB0421FBF7B2FB8146CD
:104C20000F462846FBF7A0FB4A463B46FBF770FCC5
:104C3000FBF7B3FB4FF07E51FBF764FC814648EA7B
:104C400006204FF67F710840DAF8081021F07F0146
:104C500021F47F410843CAF80800B8F1FF0F05D0DE
:104C6000DAF80C0040F00050CAF80C001298002846
:104C700018BFC0F80090204613B0BDE8F08F10B503
:104C80006FF00203F9B1D1F810C08B6943EA0C034D
:104C9000D1E9074C4CEA040C43EA0C03D1F824C0D8
:104CA0008C6843EA0C0C0B6823434C6944F4C064E1
:104CB00023438C6AC0F80CC0036144610B68002B6D
:104CC00018BF002301D0184610BD4B688361C96826
:104CD000FFF78CFD0346F6E76FF0020180B100217B
:104CE00001604FF416524160C0E902120161416156
:104CF0008161C161016211064162C90D81620021B9
:104D00000846704710B50C4C0A4A01212046FCF7B2
:104D100099FF802201212046FCF799FF01221146CC
:104D20002046FCF7A3FE0122BDE8104008210348FD
:104D3000FFF740BDA8C1FF1F0030054000D0014073
:104D400000B585B002200090A02001904FF4706063
:104D500002904FF480300390C0030490684600F046
:104D60000DF805B000BD0000034840F2231181603A
:104D700043F2102181607047009004400021002818
:104D800008BF6FF0020113D0D0E900231A43D0E925
:104D9000023C43EA0C0300691A431043054A0240EF
:104DA00005480368DFF814C003EA0C031A430260E5
:104DB00008467047F30F0180009004400CF0FE7F1E
:104DC00002E008C8121F08C1002AFAD170477047D4
:104DD000002001E001C1121F002AFBD17047000032
:104DE000C720FFF70DF8FCF78FF9FCF7E1FBFDF7A3
:104DF00081FBFCF7B3F8FCF78DFDFEF7ABFFFEF788
:104E00004DF8FDF767F9FFF76DFCFFF7B5FCFCF710
:104E10003BFEFCF76DFCFCF7B3FCFFF791FFFFF7DF
:104E2000A3FFDFF8EC93DFF8ECA3DFF8ECB3FB4D66
:104E3000FB4F40F6F2280026A9F11C04D4F81C010F
:104E4000C4F82001D4F824111E31884266D3C4F876
:104E5000240199F8001011F0010F04BFA16DC4E9FD
:104E6000341616D0D4F8D020D4F8C810914206DDFC
:104E7000121DC4F8D0208A4207DD00F06FBA121F5D
:104E8000C4F8D0208A42C0F26982D4F8CC10C4F8A9
:104E9000D410DAF80020DBF8001042EA010313F422
:104EA000807F05D0D4F8E0C04CF0010CC4F8E0C01D
:104EB00013F4007F05D0D4F8E0C04CF4807CC4F833
:104EC000E0C012F4006F05D0D4F8E0C04CF4805C70
:104ED000C4F8E0C011F4806F05D0D4F8E0C04CF401
:104EE000803CC4F8E0C012F0807F05D0D4F8E02008
:104EF00042F48042C4F8E02011F0007F05D0D4F8DD
:104F0000E01041F48021C4F8E01013F0806F05D068
:104F1000D4F8E01041F48061C4F8E010D4F828110E
:104F2000693188425AD3C4F82801E08868B1608C9E
:104F3000142838BF401C07D307D1BA4840F6FF7188
:104F4000C0F8A4134FF015006084D4F89C10D4F876
:104F5000840000FB01F0C4F89000D4F88810D4F865
:104F6000A00001FB00F0C4F89400D4F88C10D4F831
:104F7000A40001FB00F0C4F898004FF0020138468D
:104F8000FCF704FE40B102213846FCF779FD00220F
:104F90000821A548FFF70EFCE088C0B3012859D0CE
:104FA00002287BD0A4F84660A4F84860E680E18D32
:104FB0002088084401B2E185208E6288104400B246
:104FC0002086628E521C92B26286102A06D909117E
:104FD000668661850011A085E6852686D4F82C01B9
:104FE00000F5FF71D4F820018842FFF427AFC4F820
:104FF0002C0101213846FCF7C9FD002800F0708122
:10500000E878312869D032286ED000F05AB9FFE72D
:105010008648018841F4804101802683D4F89800B5
:10502000B0F5703FD8BFA4F84660C0DDB4F84600C4
:10503000401C80B2A4F846006428B8D37C48A4F889
:105040004660A4F84860018841F480410180012055
:10505000E080ACE77648018841F4804101802683F6
:10506000D4F89800B0F5483F08DAB4F84600401C80
:1050700080B2A4F84600142899D325E0A4F846602D
:10508000B4F84800401C80B2A4F84800322884BF1D
:10509000A4F8486002208AD9DAE7FFE7644801886B
:1050A00041F48041018001202083D4F89800B0F5BC
:1050B000483FBFF67CAFB4F84600401C80B2A4F86D
:1050C00046001428FFF473AF5848A4F84660E68001
:1050D000018841F48041018069E7287A312812BFB4
:1050E000668301206083ECE0287A312802D03228E0
:1050F0007DD0DFE0A87BE97B303800EB800040000A
:105100003038084400EB80004000297C30380844E7
:1051100000EB80004000697C30380844C4F8B000DF
:10512000687DA97D303800EB8000400030380844AD
:1051300000EB80004000E97D3038084400EB80003F
:105140004000297E3038084400EB80004000697E32
:105150003038084400EB80004000A97E3038084415
:10516000C4F89001C4F8B400297D2D2904BF404241
:10517000C4F8B40095F8200095F82110303800EB01
:10518000800040003038084400EB8000400095F873
:1051900022103038084400EB8000400095F82310BE
:1051A00030380844C4F8B80095F8270095F828105E
:1051B000303800EB800040003038084400EB8000BD
:1051C000400095F829103038084400EB800040007A
:1051D00095F82A103038084400EB8000400095F81C
:1051E0002B103038084400EB8000400000E021E044
:1051F00095F82C1030380844C4F89001C4F8BC006D
:1052000095F826102D2904BF4042C4F8BC0051E097
:1052100024C0FF1F0C8603402C86034018C3FF1FC9
:105220000030054000C0034000D001402A3805404E
:1052300028380540A87BE97B303800EB800040002F
:105240003038084400EB80004000297C30380844A6
:1052500000EB80004000697C30380844C4F8C0008E
:10526000687DA97D303800EB80004000303808446C
:1052700000EB80004000E97D3038084400EB8000FE
:105280004000297E3038084400EB80004000697EF1
:105290003038084400EB80004000A97E30380844D4
:1052A000C4F89001C4F8C400297D2D2904BF4042F0
:1052B000C4F8C400E879312803D1A08C40F0010083
:1052C000A08401213846FCF7DBFB2D220021384663
:1052D000FCF7BDFC012200213846FCF7C7FB00BFEC
:1052E000C4F8D880D4F8CC004045A8BF40F6F220DE
:1052F000C4F8CC00FEF730FFFEF7CCFDFFF734FD1D
:10530000E08A401C80B2E082322818D0642821D084
:10531000C828FFF493ADE682D4F83001401CC4F8ED
:105320003001A08C10F0010F06D020F00100A08405
:10533000FFF71AFDFCF79AF9FFF7E4FC7EE5608DB4
:1053400080B2FFF7A9F9E084A08D80B2FFF7A4F93D
:10535000208573E50348FEF73BFE6FE5C4F8D010E7
:1053600093E50000A8C1FF1F001004400014044092
:10537000200040005D008000BA00000174010002BE
:1053800000CC014000D0014000D4014000D80140D1
:105390006B00710077007D0084008B0092009A0002
:1053A000A100AA00B200BB00C400CD00D700E200FB
:1053B000EC00F70002010E011A012701340141013E
:1053C0004F015D016C017B018B019B01AB01BC01B5
:1053D000CE01E001F201050218022B024002540244
:1053E00069027E029402AA02C102D802EF020703F8
:1053F0001F0337035003690382039C03B603D003E2
:10540000EA03050420043B04560471048D04A80437
:10541000C404E004FC04170533054F056B0587053C
:10542000A205BE05D905F50510062B064606610640
:105430007C069606B006CA06E406FE061707300785
:105440004907610779079107A807C007D607ED0745
:10545000030819082F08440859086D0881089508A1
:10546000A808BC08CE08E108F308050916092709B1
:105470003809480958096809770986099509A4096E
:10548000B209C009CD09DA09E709F409000A0C0AD2
:10549000180A240A2F0A3A0A450A500A5A0A640AC4
:1054A0006E0A770A810A8A0A930A9C0AA40AAD0A3C
:1054B000B50ABD0AC40ACC0AD30ADB0AE20AE90A21
:1054C000EF0AF60AFC0A030B090B0E0B140B1A0B5E
:1054D0001F0B0000F454000008C0FF1F2002000052
:1054E0003C0700004C55000028C2FF1F300D000093
:1054F000D04D0000011A32011205520A1A19020198
:1055000022326449300146321F322FC2F40A140895
:105510000823C90B5AF27D5B10060C2A77C40122BE
:10552000CB0309043202290401180B1C8307041160
:105530005A3C04321E5A5A041910691C3383430A18
:0C5540001078103934F1047D2330300065
:04000005000002896C
:00000001FF
