Component: ARM Compiler 5.06 update 7 (build 960) Tool: armlink [4d3601]

==============================================================================

Section Cross References

    startup_hc32f334.o(RESET) refers to startup_hc32f334.o(STACK) for __initial_sp
    startup_hc32f334.o(RESET) refers to startup_hc32f334.o(.text) for Reset_Handler
    startup_hc32f334.o(RESET) refers to hc32_ll_interrupts.o(i.IRQ000_Handler) for IRQ000_Handler
    startup_hc32f334.o(RESET) refers to hc32_ll_interrupts.o(i.IRQ001_Handler) for IRQ001_Handler
    startup_hc32f334.o(RESET) refers to hc32_ll_interrupts.o(i.IRQ002_Handler) for IRQ002_Handler
    startup_hc32f334.o(RESET) refers to hc32_ll_interrupts.o(i.IRQ003_Handler) for IRQ003_Handler
    startup_hc32f334.o(RESET) refers to hc32_ll_interrupts.o(i.IRQ004_Handler) for IRQ004_Handler
    startup_hc32f334.o(RESET) refers to hc32_ll_interrupts.o(i.IRQ005_Handler) for IRQ005_Handler
    startup_hc32f334.o(RESET) refers to hc32_ll_interrupts.o(i.IRQ006_Handler) for IRQ006_Handler
    startup_hc32f334.o(RESET) refers to hc32_ll_interrupts.o(i.IRQ007_Handler) for IRQ007_Handler
    startup_hc32f334.o(RESET) refers to hc32_ll_interrupts.o(i.IRQ008_Handler) for IRQ008_Handler
    startup_hc32f334.o(RESET) refers to hc32_ll_interrupts.o(i.IRQ009_Handler) for IRQ009_Handler
    startup_hc32f334.o(RESET) refers to hc32_ll_interrupts.o(i.IRQ010_Handler) for IRQ010_Handler
    startup_hc32f334.o(RESET) refers to hc32_ll_interrupts.o(i.IRQ011_Handler) for IRQ011_Handler
    startup_hc32f334.o(RESET) refers to hc32_ll_interrupts.o(i.IRQ012_Handler) for IRQ012_Handler
    startup_hc32f334.o(RESET) refers to hc32_ll_interrupts.o(i.IRQ013_Handler) for IRQ013_Handler
    startup_hc32f334.o(RESET) refers to hc32_ll_interrupts.o(i.IRQ014_Handler) for IRQ014_Handler
    startup_hc32f334.o(RESET) refers to hc32_ll_interrupts.o(i.IRQ015_Handler) for IRQ015_Handler
==============================================================================

Removing Unused input sections from the image.

    Removing startup_hc32f334.o(HEAP), (1024 bytes).
    Removing system_hc32f334.o(.rev16_text), (4 bytes).
    Removing system_hc32f334.o(.revsh_text), (4 bytes).
    Removing system_hc32f334.o(.rrx_text), (6 bytes).
    Removing hc32_ll_icg.o(.rev16_text), (4 bytes).
    Removing hc32_ll_icg.o(.revsh_text), (4 bytes).
    Removing hc32_ll_icg.o(.rrx_text), (6 bytes).
    Removing hc32_ll.o(.rev16_text), (4 bytes).
    Removing hc32_ll.o(.revsh_text), (4 bytes).
    Removing hc32_ll.o(.rrx_text), (6 bytes).
    Removing hc32_ll.o(i.LL_PERIPH_WP), (152 bytes).
    Removing hc32_ll.o(i.LL_TMR_SWSyncStart), (20 bytes).
    Removing hc32_ll_adc.o(.rev16_text), (4 bytes).
    Removing hc32_ll_adc.o(.revsh_text), (4 bytes).
    Removing hc32_ll_adc.o(.rrx_text), (6 bytes).
    Removing hc32_ll_adc.o(i.ADC_AWD_ClearStatus), (112 bytes).
    Removing hc32_ll_adc.o(i.ADC_AWD_Cmd), (140 bytes).
    Removing hc32_ll_adc.o(i.ADC_AWD_Config), (216 bytes).
==============================================================================

Image Symbol Table

    Local Symbols

    Symbol Name                              Value     Ov Type        Size  Object(Section)

    RESET                                    0x00000000   Section      648  startup_hc32f334.o(RESET)
    ../clib/../cmprslib/zerorunl2.c          0x00000000   Number         0  __dczerorl2.o ABSOLUTE
    ../clib/microlib/division.c              0x00000000   Number         0  uldiv.o ABSOLUTE
    ../clib/microlib/division.c              0x00000000   Number         0  uidiv.o ABSOLUTE
    ../clib/microlib/init/entry.s            0x00000000   Number         0  entry.o ABSOLUTE
    ../clib/microlib/init/entry.s            0x00000000   Number         0  entry10a.o ABSOLUTE
    ../clib/microlib/init/entry.s            0x00000000   Number         0  entry10b.o ABSOLUTE
    ../clib/microlib/init/entry.s            0x00000000   Number         0  entry12a.o ABSOLUTE
    ../clib/microlib/init/entry.s            0x00000000   Number         0  entry12b.o ABSOLUTE
    ../clib/microlib/init/entry.s            0x00000000   Number         0  entry11a.o ABSOLUTE
    ../clib/microlib/init/entry.s            0x00000000   Number         0  entry11b.o ABSOLUTE
    ../clib/microlib/init/entry.s            0x00000000   Number         0  entry9b.o ABSOLUTE
    ../clib/microlib/init/entry.s            0x00000000   Number         0  entry9a.o ABSOLUTE
    ../clib/microlib/init/entry.s            0x00000000   Number         0  entry7b.o ABSOLUTE
    ../clib/microlib/init/entry.s            0x00000000   Number         0  entry8b.o ABSOLUTE
    ../clib/microlib/init/entry.s            0x00000000   Number         0  entry8a.o ABSOLUTE
    ../clib/microlib/init/entry.s            0x00000000   Number         0  entry7a.o ABSOLUTE
    ../clib/microlib/init/entry.s            0x00000000   Number         0  entry5.o ABSOLUTE
    ../clib/microlib/init/entry.s            0x00000000   Number         0  entry2.o ABSOLUTE
    ../clib/microlib/longlong.c              0x00000000   Number         0  llsshr.o ABSOLUTE
    ../clib/microlib/longlong.c              0x00000000   Number         0  llshl.o ABSOLUTE
    ../clib/microlib/longlong.c              0x00000000   Number         0  llushr.o ABSOLUTE
    ../clib/microlib/printf/printf.c         0x00000000   Number         0  printf6.o ABSOLUTE
    ../clib/microlib/printf/printf.c         0x00000000   Number         0  printfa.o ABSOLUTE
    ../clib/microlib/printf/printf.c         0x00000000   Number         0  printfb.o ABSOLUTE
    ../clib/microlib/printf/printf.c         0x00000000   Number         0  printf8.o ABSOLUTE
    ../clib/microlib/printf/printf.c         0x00000000   Number         0  printf4.o ABSOLUTE
    ../clib/microlib/printf/printf.c         0x00000000   Number         0  printf3.o ABSOLUTE
    ../clib/microlib/printf/printf.c         0x00000000   Number         0  printf5.o ABSOLUTE
    ../clib/microlib/printf/printf.c         0x00000000   Number         0  printf7.o ABSOLUTE
    ../clib/microlib/printf/printf.c         0x00000000   Number         0  printf2.o ABSOLUTE
    ../clib/microlib/printf/printf.c         0x00000000   Number         0  printf1.o ABSOLUTE
    ../clib/microlib/printf/printf.c         0x00000000   Number         0  printf0.o ABSOLUTE
    ../clib/microlib/printf/stubs.s          0x00000000   Number         0  stubs.o ABSOLUTE
    ../clib/microlib/stdio/streams.c         0x00000000   Number         0  stdout.o ABSOLUTE
    ../clib/microlib/stubs.s                 0x00000000   Number         0  iusefp.o ABSOLUTE
    ../fplib/microlib/d2f.c                  0x00000000   Number         0  d2f.o ABSOLUTE
    ../fplib/microlib/fpadd.c                0x00000000   Number         0  dadd.o ABSOLUTE
    ../fplib/microlib/fpdiv.c                0x00000000   Number         0  ddiv.o ABSOLUTE
    ../fplib/microlib/fpepilogue.c           0x00000000   Number         0  depilogue.o ABSOLUTE
    ../fplib/microlib/fpepilogue.c           0x00000000   Number         0  fepilogue.o ABSOLUTE
    ../fplib/microlib/fpfix.c                0x00000000   Number         0  dfixul.o ABSOLUTE
    ../fplib/microlib/fpflt.c                0x00000000   Number         0  dfltui.o ABSOLUTE
    ../fplib/microlib/fpflt.c                0x00000000   Number         0  dfltul.o ABSOLUTE
    ../fplib/microlib/fpmul.c                0x00000000   Number         0  dmul.o ABSOLUTE
    ..\App_Drivers\Hc32F334_Drivers.c        0x00000000   Number         0  hc32f334_drivers.o ABSOLUTE
    ..\App_Drivers\hrtimer.c                 0x00000000   Number         0  hrtimer.o ABSOLUTE
    ..\App_Users\main.c                      0x00000000   Number         0  main.o ABSOLUTE
    ..\\App_Drivers\\Hc32F334_Drivers.c      0x00000000   Number         0  hc32f334_drivers.o ABSOLUTE
    ..\\App_Drivers\\hrtimer.c               0x00000000   Number         0  hrtimer.o ABSOLUTE
    ..\\App_Users\\main.c                    0x00000000   Number         0  main.o ABSOLUTE
    ..\\drivers\\bsp\\ev_hc32f334_lqfp64\\ev_hc32f334_lqfp64.c 0x00000000   Number         0  ev_hc32f334_lqfp64.o ABSOLUTE
    ..\\drivers\\cmsis\\Device\\HDSC\\hc32f3xx\\Source\\system_hc32f334.c 0x00000000   Number         0  system_hc32f334.o ABSOLUTE
    ..\\drivers\\hc32_ll_driver\\src\\hc32_ll.c 0x00000000   Number         0  hc32_ll.o ABSOLUTE
    ..\\drivers\\hc32_ll_driver\\src\\hc32_ll_adc.c 0x00000000   Number         0  hc32_ll_adc.o ABSOLUTE
    ..\\drivers\\hc32_ll_driver\\src\\hc32_ll_aes.c 0x00000000   Number         0  hc32_ll_aes.o ABSOLUTE
    ..\\drivers\\hc32_ll_driver\\src\\hc32_ll_aos.c 0x00000000   Number         0  hc32_ll_aos.o ABSOLUTE
    ..\\drivers\\hc32_ll_driver\\src\\hc32_ll_clk.c 0x00000000   Number         0  hc32_ll_clk.o ABSOLUTE
    ..\\drivers\\hc32_ll_driver\\src\\hc32_ll_cmp.c 0x00000000   Number         0  hc32_ll_cmp.o ABSOLUTE
    ..\\drivers\\hc32_ll_driver\\src\\hc32_ll_crc.c 0x00000000   Number         0  hc32_ll_crc.o ABSOLUTE
    ..\\drivers\\hc32_ll_driver\\src\\hc32_ll_ctc.c 0x00000000   Number         0  hc32_ll_ctc.o ABSOLUTE
    ..\\drivers\\hc32_ll_driver\\src\\hc32_ll_dac.c 0x00000000   Number         0  hc32_ll_dac.o ABSOLUTE
    ..\\drivers\\hc32_ll_driver\\src\\hc32_ll_dbgc.c 0x00000000   Number         0  hc32_ll_dbgc.o ABSOLUTE
    ..\\drivers\\hc32_ll_driver\\src\\hc32_ll_dcu.c 0x00000000   Number         0  hc32_ll_dcu.o ABSOLUTE
    ..\\drivers\\hc32_ll_driver\\src\\hc32_ll_dma.c 0x00000000   Number         0  hc32_ll_dma.o ABSOLUTE
    ..\\drivers\\hc32_ll_driver\\src\\hc32_ll_efm.c 0x00000000   Number         0  hc32_ll_efm.o ABSOLUTE
    ..\\drivers\\hc32_ll_driver\\src\\hc32_ll_emb.c 0x00000000   Number         0  hc32_ll_emb.o ABSOLUTE
    ..\\drivers\\hc32_ll_driver\\src\\hc32_ll_event_port.c 0x00000000   Number         0  hc32_ll_event_port.o ABSOLUTE
    ..\\drivers\\hc32_ll_driver\\src\\hc32_ll_fcg.c 0x00000000   Number         0  hc32_ll_fcg.o ABSOLUTE
    ..\\drivers\\hc32_ll_driver\\src\\hc32_ll_fcm.c 0x00000000   Number         0  hc32_ll_fcm.o ABSOLUTE
    ..\\drivers\\hc32_ll_driver\\src\\hc32_ll_fmac.c 0x00000000   Number         0  hc32_ll_fmac.o ABSOLUTE
    ..\\drivers\\hc32_ll_driver\\src\\hc32_ll_gpio.c 0x00000000   Number         0  hc32_ll_gpio.o ABSOLUTE
    ..\\drivers\\hc32_ll_driver\\src\\hc32_ll_hrpwm.c 0x00000000   Number         0  hc32_ll_hrpwm.o ABSOLUTE
    ..\\drivers\\hc32_ll_driver\\src\\hc32_ll_i2c.c 0x00000000   Number         0  hc32_ll_i2c.o ABSOLUTE
    ..\\drivers\\hc32_ll_driver\\src\\hc32_ll_icg.c 0x00000000   Number         0  hc32_ll_icg.o ABSOLUTE
    ..\\drivers\\hc32_ll_driver\\src\\hc32_ll_interrupts.c 0x00000000   Number         0  hc32_ll_interrupts.o ABSOLUTE
    ..\\drivers\\hc32_ll_driver\\src\\hc32_ll_mau.c 0x00000000   Number         0  hc32_ll_mau.o ABSOLUTE
    ..\\drivers\\hc32_ll_driver\\src\\hc32_ll_mcan.c 0x00000000   Number         0  hc32_ll_mcan.o ABSOLUTE
    ..\\drivers\\hc32_ll_driver\\src\\hc32_ll_mpu.c 0x00000000   Number         0  hc32_ll_mpu.o ABSOLUTE
    ..\\drivers\\hc32_ll_driver\\src\\hc32_ll_pla.c 0x00000000   Number         0  hc32_ll_pla.o ABSOLUTE
    ..\\drivers\\hc32_ll_driver\\src\\hc32_ll_pwc.c 0x00000000   Number         0  hc32_ll_pwc.o ABSOLUTE
    ..\\drivers\\hc32_ll_driver\\src\\hc32_ll_rmu.c 0x00000000   Number         0  hc32_ll_rmu.o ABSOLUTE
    ..\\drivers\\hc32_ll_driver\\src\\hc32_ll_rtc.c 0x00000000   Number         0  hc32_ll_rtc.o ABSOLUTE
    ..\\drivers\\hc32_ll_driver\\src\\hc32_ll_smc.c 0x00000000   Number         0  hc32_ll_smc.o ABSOLUTE
    ..\\drivers\\hc32_ll_driver\\src\\hc32_ll_spi.c 0x00000000   Number         0  hc32_ll_spi.o ABSOLUTE
    ..\\drivers\\hc32_ll_driver\\src\\hc32_ll_sram.c 0x00000000   Number         0  hc32_ll_sram.o ABSOLUTE
    ..\\drivers\\hc32_ll_driver\\src\\hc32_ll_swdt.c 0x00000000   Number         0  hc32_ll_swdt.o ABSOLUTE
    ..\\drivers\\hc32_ll_driver\\src\\hc32_ll_tmr0.c 0x00000000   Number         0  hc32_ll_tmr0.o ABSOLUTE
    ..\\drivers\\hc32_ll_driver\\src\\hc32_ll_tmr4.c 0x00000000   Number         0  hc32_ll_tmr4.o ABSOLUTE
    ..\\drivers\\hc32_ll_driver\\src\\hc32_ll_tmr6.c 0x00000000   Number         0  hc32_ll_tmr6.o ABSOLUTE
    ..\\drivers\\hc32_ll_driver\\src\\hc32_ll_tmra.c 0x00000000   Number         0  hc32_ll_tmra.o ABSOLUTE
    ..\\drivers\\hc32_ll_driver\\src\\hc32_ll_usart.c 0x00000000   Number         0  hc32_ll_usart.o ABSOLUTE
    ..\\drivers\\hc32_ll_driver\\src\\hc32_ll_utility.c 0x00000000   Number         0  hc32_ll_utility.o ABSOLUTE
    ..\\drivers\\hc32_ll_driver\\src\\hc32_ll_wdt.c 0x00000000   Number         0  hc32_ll_wdt.o ABSOLUTE
    ..\drivers\bsp\ev_hc32f334_lqfp64\ev_hc32f334_lqfp64.c 0x00000000   Number         0  ev_hc32f334_lqfp64.o ABSOLUTE
    ..\drivers\cmsis\Device\HDSC\hc32f3xx\Source\system_hc32f334.c 0x00000000   Number         0  system_hc32f334.o ABSOLUTE
    ..\drivers\hc32_ll_driver\src\hc32_ll.c  0x00000000   Number         0  hc32_ll.o ABSOLUTE
    ..\drivers\hc32_ll_driver\src\hc32_ll_adc.c 0x00000000   Number         0  hc32_ll_adc.o ABSOLUTE
    ..\drivers\hc32_ll_driver\src\hc32_ll_aes.c 0x00000000   Number         0  hc32_ll_aes.o ABSOLUTE
    ..\drivers\hc32_ll_driver\src\hc32_ll_aos.c 0x00000000   Number         0  hc32_ll_aos.o ABSOLUTE
    ..\drivers\hc32_ll_driver\src\hc32_ll_clk.c 0x00000000   Number         0  hc32_ll_clk.o ABSOLUTE
    ..\drivers\hc32_ll_driver\src\hc32_ll_cmp.c 0x00000000   Number         0  hc32_ll_cmp.o ABSOLUTE
    ..\drivers\hc32_ll_driver\src\hc32_ll_crc.c 0x00000000   Number         0  hc32_ll_crc.o ABSOLUTE
    ..\drivers\hc32_ll_driver\src\hc32_ll_ctc.c 0x00000000   Number         0  hc32_ll_ctc.o ABSOLUTE
    ..\drivers\hc32_ll_driver\src\hc32_ll_dac.c 0x00000000   Number         0  hc32_ll_dac.o ABSOLUTE
    ..\drivers\hc32_ll_driver\src\hc32_ll_dbgc.c 0x00000000   Number         0  hc32_ll_dbgc.o ABSOLUTE
    ..\drivers\hc32_ll_driver\src\hc32_ll_dcu.c 0x00000000   Number         0  hc32_ll_dcu.o ABSOLUTE
    ..\drivers\hc32_ll_driver\src\hc32_ll_dma.c 0x00000000   Number         0  hc32_ll_dma.o ABSOLUTE
    ..\drivers\hc32_ll_driver\src\hc32_ll_efm.c 0x00000000   Number         0  hc32_ll_efm.o ABSOLUTE
    ..\drivers\hc32_ll_driver\src\hc32_ll_emb.c 0x00000000   Number         0  hc32_ll_emb.o ABSOLUTE
    ..\drivers\hc32_ll_driver\src\hc32_ll_event_port.c 0x00000000   Number         0  hc32_ll_event_port.o ABSOLUTE
    ..\drivers\hc32_ll_driver\src\hc32_ll_fcg.c 0x00000000   Number         0  hc32_ll_fcg.o ABSOLUTE
    ..\drivers\hc32_ll_driver\src\hc32_ll_fcm.c 0x00000000   Number         0  hc32_ll_fcm.o ABSOLUTE
    ..\drivers\hc32_ll_driver\src\hc32_ll_fmac.c 0x00000000   Number         0  hc32_ll_fmac.o ABSOLUTE
    ..\drivers\hc32_ll_driver\src\hc32_ll_gpio.c 0x00000000   Number         0  hc32_ll_gpio.o ABSOLUTE
    ..\drivers\hc32_ll_driver\src\hc32_ll_hrpwm.c 0x00000000   Number         0  hc32_ll_hrpwm.o ABSOLUTE
    ..\drivers\hc32_ll_driver\src\hc32_ll_i2c.c 0x00000000   Number         0  hc32_ll_i2c.o ABSOLUTE
    ..\drivers\hc32_ll_driver\src\hc32_ll_icg.c 0x00000000   Number         0  hc32_ll_icg.o ABSOLUTE
    ..\drivers\hc32_ll_driver\src\hc32_ll_interrupts.c 0x00000000   Number         0  hc32_ll_interrupts.o ABSOLUTE
    ..\drivers\hc32_ll_driver\src\hc32_ll_mau.c 0x00000000   Number         0  hc32_ll_mau.o ABSOLUTE
    ..\drivers\hc32_ll_driver\src\hc32_ll_mcan.c 0x00000000   Number         0  hc32_ll_mcan.o ABSOLUTE
    ..\drivers\hc32_ll_driver\src\hc32_ll_mpu.c 0x00000000   Number         0  hc32_ll_mpu.o ABSOLUTE
    ..\drivers\hc32_ll_driver\src\hc32_ll_pla.c 0x00000000   Number         0  hc32_ll_pla.o ABSOLUTE
    ..\drivers\hc32_ll_driver\src\hc32_ll_pwc.c 0x00000000   Number         0  hc32_ll_pwc.o ABSOLUTE
    ..\drivers\hc32_ll_driver\src\hc32_ll_rmu.c 0x00000000   Number         0  hc32_ll_rmu.o ABSOLUTE
    ..\drivers\hc32_ll_driver\src\hc32_ll_rtc.c 0x00000000   Number         0  hc32_ll_rtc.o ABSOLUTE
    ..\drivers\hc32_ll_driver\src\hc32_ll_smc.c 0x00000000   Number         0  hc32_ll_smc.o ABSOLUTE
    ..\drivers\hc32_ll_driver\src\hc32_ll_spi.c 0x00000000   Number         0  hc32_ll_spi.o ABSOLUTE
    ..\drivers\hc32_ll_driver\src\hc32_ll_sram.c 0x00000000   Number         0  hc32_ll_sram.o ABSOLUTE
    ..\drivers\hc32_ll_driver\src\hc32_ll_swdt.c 0x00000000   Number         0  hc32_ll_swdt.o ABSOLUTE
    ..\drivers\hc32_ll_driver\src\hc32_ll_tmr0.c 0x00000000   Number         0  hc32_ll_tmr0.o ABSOLUTE
    ..\drivers\hc32_ll_driver\src\hc32_ll_tmr4.c 0x00000000   Number         0  hc32_ll_tmr4.o ABSOLUTE
    ..\drivers\hc32_ll_driver\src\hc32_ll_tmr6.c 0x00000000   Number         0  hc32_ll_tmr6.o ABSOLUTE
    ..\drivers\hc32_ll_driver\src\hc32_ll_tmra.c 0x00000000   Number         0  hc32_ll_tmra.o ABSOLUTE
    ..\drivers\hc32_ll_driver\src\hc32_ll_usart.c 0x00000000   Number         0  hc32_ll_usart.o ABSOLUTE
    ..\drivers\hc32_ll_driver\src\hc32_ll_utility.c 0x00000000   Number         0  hc32_ll_utility.o ABSOLUTE
    ..\drivers\hc32_ll_driver\src\hc32_ll_wdt.c 0x00000000   Number         0  hc32_ll_wdt.o ABSOLUTE
    cdrcmple.s                               0x00000000   Number         0  cdrcmple.o ABSOLUTE
    dc.s                                     0x00000000   Number         0  dc.o ABSOLUTE
    handlers.s                               0x00000000   Number         0  handlers.o ABSOLUTE
    init.s                                   0x00000000   Number         0  init.o ABSOLUTE
    startup_hc32f334.s                       0x00000000   Number         0  startup_hc32f334.o ABSOLUTE
    .ARM.Collect$$$$00000000                 0x00000288   Section        0  entry.o(.ARM.Collect$$$$00000000)
    .ARM.Collect$$$$00000001                 0x00000288   Section        4  entry2.o(.ARM.Collect$$$$00000001)
    .ARM.Collect$$$$00000004                 0x0000028c   Section        4  entry5.o(.ARM.Collect$$$$00000004)
    .ARM.Collect$$$$00000008                 0x00000290   Section        0  entry7b.o(.ARM.Collect$$$$00000008)
    .ARM.Collect$$$$0000000A                 0x00000290   Section        0  entry8b.o(.ARM.Collect$$$$0000000A)
    .ARM.Collect$$$$0000000B                 0x00000290   Section        8  entry9a.o(.ARM.Collect$$$$0000000B)
    .ARM.Collect$$$$0000000E                 0x00000298   Section        4  entry12b.o(.ARM.Collect$$$$0000000E)
    .ARM.Collect$$$$0000000F                 0x0000029c   Section        0  entry10a.o(.ARM.Collect$$$$0000000F)
    .ARM.Collect$$$$00000011                 0x0000029c   Section        0  entry11a.o(.ARM.Collect$$$$00000011)
    .ARM.Collect$$$$00002712                 0x0000029c   Section        4  entry2.o(.ARM.Collect$$$$00002712)
    __lit__00000000                          0x0000029c   Data           4  entry2.o(.ARM.Collect$$$$00002712)
    .text                                    0x000002a0   Section       36  startup_hc32f334.o(.text)
    $v0                                      0x000002a0   Number         0  startup_hc32f334.o(.text)
    .text                                    0x000002c4   Section        0  uldiv.o(.text)
    .text                                    0x00000326   Section        0  llshl.o(.text)
    .text                                    0x00000344   Section        0  dfltui.o(.text)
    .text                                    0x0000035e   Section        0  dfltul.o(.text)
    .text                                    0x00000376   Section        0  d2f.o(.text)
    .text                                    0x000003ae   Section        0  uidiv.o(.text)
    .text                                    0x000003da   Section        0  llushr.o(.text)
    .text                                    0x000003fa   Section        0  iusefp.o(.text)
    i.BSP_KEY_KEY1_IrqCallback               0x000003fa   Section        0  ev_hc32f334_lqfp64.o(i.BSP_KEY_KEY1_IrqCallback)
    i.BSP_KEY_KEY2_IrqCallback               0x000003fc   Section        0  ev_hc32f334_lqfp64.o(i.BSP_KEY_KEY2_IrqCallback)
    i.BSP_KEY_KEY3_IrqCallback               0x000003fe   Section        0  ev_hc32f334_lqfp64.o(i.BSP_KEY_KEY3_IrqCallback)
    .ARM.__AT_0x00000400                     0x00000400   Section       96  hc32_ll_icg.o(.ARM.__AT_0x00000400)
    .text                                    0x00000460   Section        0  ddiv.o(.text)
    .text                                    0x0000053e   Section        0  fepilogue.o(.text)
    .text                                    0x000005ac   Section        0  depilogue.o(.text)
    .text                                    0x00000668   Section       36  init.o(.text)
    .text                                    0x0000068c   Section        0  __dczerorl2.o(.text)
    i.ADC1_Handler                           0x000006e4   Section        0  main.o(i.ADC1_Handler)
    i.ADC_ChCmd                              0x00000c3c   Section        0  hc32_ll_adc.o(i.ADC_ChCmd)
    i.ADC_ChRemap                            0x00000ce8   Section        0  hc32_ll_adc.o(i.ADC_ChRemap)
    i.ADC_Init                               0x00000da4   Section        0  hc32_ll_adc.o(i.ADC_Init)
    i.ADC_IntCmd                             0x00000e64   Section        0  hc32_ll_adc.o(i.ADC_IntCmd)
    i.ADC_StructInit                         0x00000ef4   Section        0  hc32_ll_adc.o(i.ADC_StructInit)
    i.ADC_TriggerCmd                         0x00000f08   Section        0  hc32_ll_adc.o(i.ADC_TriggerCmd)
    i.ADC_TriggerConfig                      0x00000f9c   Section        0  hc32_ll_adc.o(i.ADC_TriggerConfig)
    i.ADCx_Init                              0x00001038   Section        0  hc32f334_drivers.o(i.ADCx_Init)
    i.AOS_SetTriggerEventSrc                 0x0000119c   Section        0  hc32_ll_aos.o(i.AOS_SetTriggerEventSrc)
    i.BSP_CLK_Init                           0x0000132c   Section        0  ev_hc32f334_lqfp64.o(i.BSP_CLK_Init)
    i.CLK_GetStableStatus                    0x000013d4   Section        0  hc32_ll_clk.o(i.CLK_GetStableStatus)
    i.CLK_PLLCmd                             0x00001428   Section        0  hc32_ll_clk.o(i.CLK_PLLCmd)
    i.CLK_PLLInit                            0x000014dc   Section        0  hc32_ll_clk.o(i.CLK_PLLInit)
    i.CLK_PLLStructInit                      0x000016b0   Section        0  hc32_ll_clk.o(i.CLK_PLLStructInit)
    i.CLK_SetClockDiv                        0x000016e4   Section        0  hc32_ll_clk.o(i.CLK_SetClockDiv)
    i.CLK_SetSysClockSrc                     0x000016f4   Section        0  hc32_ll_clk.o(i.CLK_SetSysClockSrc)
    i.CLK_WaitStable                         0x000017bc   Section        0  hc32_ll_clk.o(i.CLK_WaitStable)
    CLK_WaitStable                           0x000017bd   Thumb Code    68  hc32_ll_clk.o(i.CLK_WaitStable)
    i.CLK_XtalCmd                            0x00001808   Section        0  hc32_ll_clk.o(i.CLK_XtalCmd)
    i.CLK_XtalInit                           0x000018ac   Section        0  hc32_ll_clk.o(i.CLK_XtalInit)
    i.CLK_XtalStructInit                     0x000019a4   Section        0  hc32_ll_clk.o(i.CLK_XtalStructInit)
    i.CMP_CompareOutCmd                      0x000019c4   Section        0  hc32_ll_cmp.o(i.CMP_CompareOutCmd)
    i.CMP_DelayUS                            0x00001a40   Section        0  hc32_ll_cmp.o(i.CMP_DelayUS)
    CMP_DelayUS                              0x00001a41   Thumb Code    50  hc32_ll_cmp.o(i.CMP_DelayUS)
    i.CMP_NormalModeInit                     0x00001a80   Section        0  hc32_ll_cmp.o(i.CMP_NormalModeInit)
    i.CMP_PinVcoutCmd                        0x00001be4   Section        0  hc32_ll_cmp.o(i.CMP_PinVcoutCmd)
    i.CMP_StructInit                         0x00001c60   Section        0  hc32_ll_cmp.o(i.CMP_StructInit)
    i.CalibrationRead                        0x00001c78   Section        0  hc32f334_drivers.o(i.CalibrationRead)
    i.CalibrationWrite                       0x00001d34   Section        0  hc32f334_drivers.o(i.CalibrationWrite)
    i.ControllerInit                         0x00001db8   Section        0  main.o(i.ControllerInit)
    i.Ctrl_TMR0_Config                       0x00001e48   Section        0  hc32f334_drivers.o(i.Ctrl_TMR0_Config)
    i.DAC_ADCPrioCmd                         0x00001e88   Section        0  hc32_ll_dac.o(i.DAC_ADCPrioCmd)
    i.DAC_ADCPrioConfig                      0x00001ef8   Section        0  hc32_ll_dac.o(i.DAC_ADCPrioConfig)
    i.DAC_DataRegAlignConfig                 0x00001f78   Section        0  hc32_ll_dac.o(i.DAC_DataRegAlignConfig)
    i.DAC_DeInit                             0x00001fec   Section        0  hc32_ll_dac.o(i.DAC_DeInit)
    i.DAC_Init                               0x000020c8   Section        0  hc32_ll_dac.o(i.DAC_Init)
    i.DAC_OutputCmd                          0x00002190   Section        0  hc32_ll_dac.o(i.DAC_OutputCmd)
    i.DAC_SetChData                          0x00002234   Section        0  hc32_ll_dac.o(i.DAC_SetChData)
    i.DAC_SetDualChData                      0x000022d8   Section        0  hc32_ll_dac.o(i.DAC_SetDualChData)
    i.DAC_Start                              0x00002370   Section        0  hc32_ll_dac.o(i.DAC_Start)
    i.DAC_StartDualCh                        0x0000240c   Section        0  hc32_ll_dac.o(i.DAC_StartDualCh)
    i.DAC_StructInit                         0x0000245c   Section        0  hc32_ll_dac.o(i.DAC_StructInit)
    i.DACx_ConversionInit                    0x00002470   Section        0  hc32f334_drivers.o(i.DACx_ConversionInit)
    i.DDL_AssertHandler                      0x00002540   Section        0  hc32_ll_utility.o(i.DDL_AssertHandler)
    i.DDL_ConsoleOutputChar                  0x00002580   Section        0  hc32_ll_utility.o(i.DDL_ConsoleOutputChar)
    i.DDL_DelayMS                            0x000025cc   Section        0  hc32_ll_utility.o(i.DDL_DelayMS)
    i.DDL_DelayUS                            0x00002610   Section        0  hc32_ll_utility.o(i.DDL_DelayUS)
    i.DMA_ChCmd                              0x00002654   Section        0  hc32_ll_dma.o(i.DMA_ChCmd)
    i.DMA_ClearTransCompleteStatus           0x000026cc   Section        0  hc32_ll_dma.o(i.DMA_ClearTransCompleteStatus)
    i.DMA_Cmd                                0x00002728   Section        0  hc32_ll_dma.o(i.DMA_Cmd)
    i.DMA_Config                             0x00002784   Section        0  hc32f334_drivers.o(i.DMA_Config)
    i.DMA_GetTransCompleteStatus             0x0000288c   Section        0  hc32_ll_dma.o(i.DMA_GetTransCompleteStatus)
    i.DMA_Init                               0x000028dc   Section        0  hc32_ll_dma.o(i.DMA_Init)
    i.DMA_RepeatInit                         0x000029f0   Section        0  hc32_ll_dma.o(i.DMA_RepeatInit)
    i.DMA_RepeatStructInit                   0x00002abc   Section        0  hc32_ll_dma.o(i.DMA_RepeatStructInit)
    i.DMA_SetSrcAddr                         0x00002ad4   Section        0  hc32_ll_dma.o(i.DMA_SetSrcAddr)
    i.DMA_SetTransCount                      0x00002b34   Section        0  hc32_ll_dma.o(i.DMA_SetTransCount)
    i.DMA_StructInit                         0x00002b9c   Section        0  hc32_ll_dma.o(i.DMA_StructInit)
    i.EFM_CacheRamReset                      0x00002bc0   Section        0  hc32_ll_efm.o(i.EFM_CacheRamReset)
    i.EFM_ClearStatus                        0x00002c24   Section        0  hc32_ll_efm.o(i.EFM_ClearStatus)
    i.EFM_DCacheCmd                          0x00002c60   Section        0  hc32_ll_efm.o(i.EFM_DCacheCmd)
    i.EFM_FWMC_Cmd                           0x00002cc4   Section        0  hc32_ll_efm.o(i.EFM_FWMC_Cmd)
    i.EFM_GetStatus                          0x00002d24   Section        0  hc32_ll_efm.o(i.EFM_GetStatus)
    i.EFM_ICacheCmd                          0x00002d7c   Section        0  hc32_ll_efm.o(i.EFM_ICacheCmd)
    i.EFM_PrefetchCmd                        0x00002de0   Section        0  hc32_ll_efm.o(i.EFM_PrefetchCmd)
    i.EFM_ProgramWord                        0x00002e44   Section        0  hc32_ll_efm.o(i.EFM_ProgramWord)
    i.EFM_ReadByte                           0x00002f70   Section        0  hc32_ll_efm.o(i.EFM_ReadByte)
    i.EFM_SectorErase                        0x00003050   Section        0  hc32_ll_efm.o(i.EFM_SectorErase)
    i.EFM_SetWaitCycle                       0x0000316c   Section        0  hc32_ll_efm.o(i.EFM_SetWaitCycle)
    i.EFM_SingleSectorOperateCmd             0x00003218   Section        0  hc32_ll_efm.o(i.EFM_SingleSectorOperateCmd)
    i.EFM_WaitFlag                           0x00003278   Section        0  hc32_ll_efm.o(i.EFM_WaitFlag)
    EFM_WaitFlag                             0x00003279   Thumb Code    96  hc32_ll_efm.o(i.EFM_WaitFlag)
    i.EXTINT00_SWINT16_Handler               0x000032e0   Section        0  ev_hc32f334_lqfp64.o(i.EXTINT00_SWINT16_Handler)
    i.EXTINT03_SWINT19_Handler               0x00003310   Section        0  ev_hc32f334_lqfp64.o(i.EXTINT03_SWINT19_Handler)
    i.EXTINT09_SWINT25_Handler               0x00003340   Section        0  ev_hc32f334_lqfp64.o(i.EXTINT09_SWINT25_Handler)
    i.EXTINT_ClearExtIntStatus               0x00003374   Section        0  hc32_ll_interrupts.o(i.EXTINT_ClearExtIntStatus)
    i.ExternEventConfig                      0x000033c8   Section        0  hrtimer.o(i.ExternEventConfig)
    i.FCG_Fcg0PeriphClockCmd                 0x000034ac   Section        0  hc32_ll_fcg.o(i.FCG_Fcg0PeriphClockCmd)
    i.FCG_Fcg2PeriphClockCmd                 0x0000352c   Section        0  hc32_ll_fcg.o(i.FCG_Fcg2PeriphClockCmd)
    i.FCG_Fcg3PeriphClockCmd                 0x00003594   Section        0  hc32_ll_fcg.o(i.FCG_Fcg3PeriphClockCmd)
    i.GPIO_AnalogCmd                         0x000035fc   Section        0  hc32_ll_gpio.o(i.GPIO_AnalogCmd)
    i.GPIO_HrpwmPinCmd                       0x000036b0   Section        0  hc32_ll_gpio.o(i.GPIO_HrpwmPinCmd)
    i.GPIO_Init                              0x00003734   Section        0  hc32_ll_gpio.o(i.GPIO_Init)
    i.GPIO_ReadInputPins                     0x00003944   Section        0  hc32_ll_gpio.o(i.GPIO_ReadInputPins)
    i.GPIO_ResetPins                         0x000039b8   Section        0  hc32_ll_gpio.o(i.GPIO_ResetPins)
    i.GPIO_SetDebugPort                      0x00003a28   Section        0  hc32_ll_gpio.o(i.GPIO_SetDebugPort)
    i.GPIO_SetFunc                           0x00003ab4   Section        0  hc32_ll_gpio.o(i.GPIO_SetFunc)
    i.GPIO_SetPins                           0x00003b78   Section        0  hc32_ll_gpio.o(i.GPIO_SetPins)
    i.GPIO_SetReadWaitCycle                  0x00003be8   Section        0  hc32_ll_gpio.o(i.GPIO_SetReadWaitCycle)
    i.GPIO_StructInit                        0x00003c80   Section        0  hc32_ll_gpio.o(i.GPIO_StructInit)
    i.GPIO_TogglePins                        0x00003cac   Section        0  hc32_ll_gpio.o(i.GPIO_TogglePins)
    i.Gpio_Init                              0x00003d1c   Section        0  hc32f334_drivers.o(i.Gpio_Init)
    i.HRPWM_BufStructInit                    0x00003ec8   Section        0  hc32_ll_hrpwm.o(i.HRPWM_BufStructInit)
    i.HRPWM_CALIB_ProcessSingle              0x00003edc   Section        0  hc32_ll_hrpwm.o(i.HRPWM_CALIB_ProcessSingle)
    i.HRPWM_DeInit                           0x00003f80   Section        0  hc32_ll_hrpwm.o(i.HRPWM_DeInit)
    i.HRPWM_DeadTimeBufConfig                0x00004128   Section        0  hc32_ll_hrpwm.o(i.HRPWM_DeadTimeBufConfig)
    i.HRPWM_DeadTimeConfig                   0x00004228   Section        0  hc32_ll_hrpwm.o(i.HRPWM_DeadTimeConfig)
    i.HRPWM_DeadTimeDownBufEnable            0x00004308   Section        0  hrtimer.o(i.HRPWM_DeadTimeDownBufEnable)
    HRPWM_DeadTimeDownBufEnable              0x00004309   Thumb Code    88  hrtimer.o(i.HRPWM_DeadTimeDownBufEnable)
    i.HRPWM_DeadTimeStructInit               0x00004364   Section        0  hc32_ll_hrpwm.o(i.HRPWM_DeadTimeStructInit)
    i.HRPWM_DeadTimeUpBufEnable              0x00004378   Section        0  hrtimer.o(i.HRPWM_DeadTimeUpBufEnable)
    HRPWM_DeadTimeUpBufEnable                0x00004379   Thumb Code    88  hrtimer.o(i.HRPWM_DeadTimeUpBufEnable)
    i.HRPWM_EMB_ChAConfig                    0x000043d4   Section        0  hc32_ll_hrpwm.o(i.HRPWM_EMB_ChAConfig)
    i.HRPWM_EMB_ChBConfig                    0x000044ec   Section        0  hc32_ll_hrpwm.o(i.HRPWM_EMB_ChBConfig)
    i.HRPWM_EMB_StructInit                   0x00004604   Section        0  hc32_ll_hrpwm.o(i.HRPWM_EMB_StructInit)
    i.HRPWM_EVT_Config                       0x00004618   Section        0  hc32_ll_hrpwm.o(i.HRPWM_EVT_Config)
    i.HRPWM_EVT_FilterConfig                 0x00004804   Section        0  hc32_ll_hrpwm.o(i.HRPWM_EVT_FilterConfig)
    i.HRPWM_EVT_FilterSignalConfig           0x0000496c   Section        0  hc32_ll_hrpwm.o(i.HRPWM_EVT_FilterSignalConfig)
    i.HRPWM_EVT_FilterSignalStructInit       0x00004a84   Section        0  hc32_ll_hrpwm.o(i.HRPWM_EVT_FilterSignalStructInit)
    i.HRPWM_EVT_FilterStructInit             0x00004a9a   Section        0  hc32_ll_hrpwm.o(i.HRPWM_EVT_FilterStructInit)
    i.HRPWM_EVT_StructInit                   0x00004aac   Section        0  hc32_ll_hrpwm.o(i.HRPWM_EVT_StructInit)
    i.HRPWM_Enable                           0x00004ac8   Section        0  hrtimer.o(i.HRPWM_Enable)
    HRPWM_Enable                             0x00004ac9   Thumb Code    88  hrtimer.o(i.HRPWM_Enable)
    i.HRPWM_GeneralAEBufConfig               0x00004b24   Section        0  hc32_ll_hrpwm.o(i.HRPWM_GeneralAEBufConfig)
    i.HRPWM_GeneralAEBufEnable               0x00004c24   Section        0  hrtimer.o(i.HRPWM_GeneralAEBufEnable)
    HRPWM_GeneralAEBufEnable                 0x00004c25   Thumb Code    88  hrtimer.o(i.HRPWM_GeneralAEBufEnable)
    i.HRPWM_GeneralBFBufConfig               0x00004c80   Section        0  hc32_ll_hrpwm.o(i.HRPWM_GeneralBFBufConfig)
    i.HRPWM_GeneralBFBufEnable               0x00004d80   Section        0  hrtimer.o(i.HRPWM_GeneralBFBufEnable)
    HRPWM_GeneralBFBufEnable                 0x00004d81   Thumb Code    88  hrtimer.o(i.HRPWM_GeneralBFBufEnable)
    i.HRPWM_IDLE_BM_Init                     0x00004ddc   Section        0  hc32_ll_hrpwm.o(i.HRPWM_IDLE_BM_Init)
    i.HRPWM_IDLE_BM_OutputInit               0x00004f6c   Section        0  hc32_ll_hrpwm.o(i.HRPWM_IDLE_BM_OutputInit)
    i.HRPWM_IDLE_BM_OutputStructInit         0x00005094   Section        0  hc32_ll_hrpwm.o(i.HRPWM_IDLE_BM_OutputStructInit)
    i.HRPWM_IDLE_BM_StructInit               0x000050ac   Section        0  hc32_ll_hrpwm.o(i.HRPWM_IDLE_BM_StructInit)
    i.HRPWM_IDLE_DELAY_Enable                0x000050c8   Section        0  hrtimer.o(i.HRPWM_IDLE_DELAY_Enable)
    HRPWM_IDLE_DELAY_Enable                  0x000050c9   Thumb Code    88  hrtimer.o(i.HRPWM_IDLE_DELAY_Enable)
    i.HRPWM_IDLE_DELAY_Init                  0x00005124   Section        0  hc32_ll_hrpwm.o(i.HRPWM_IDLE_DELAY_Init)
    i.HRPWM_IDLE_DELAY_StructInit            0x00005258   Section        0  hc32_ll_hrpwm.o(i.HRPWM_IDLE_DELAY_StructInit)
    i.HRPWM_IDLE_SetChAIdleLevel             0x0000526c   Section        0  hrtimer.o(i.HRPWM_IDLE_SetChAIdleLevel)
    HRPWM_IDLE_SetChAIdleLevel               0x0000526d   Thumb Code   114  hrtimer.o(i.HRPWM_IDLE_SetChAIdleLevel)
    i.HRPWM_IDLE_SetChBIdleLevel             0x000052e4   Section        0  hrtimer.o(i.HRPWM_IDLE_SetChBIdleLevel)
    HRPWM_IDLE_SetChBIdleLevel               0x000052e5   Thumb Code   116  hrtimer.o(i.HRPWM_IDLE_SetChBIdleLevel)
    i.HRPWM_Init                             0x0000535c   Section        0  hc32_ll_hrpwm.o(i.HRPWM_Init)
    i.HRPWM_MatchSpecialEventEnable          0x00005430   Section        0  hrtimer.o(i.HRPWM_MatchSpecialEventEnable)
    HRPWM_MatchSpecialEventEnable            0x00005431   Thumb Code   122  hrtimer.o(i.HRPWM_MatchSpecialEventEnable)
    i.HRPWM_PH_Config                        0x000054dc   Section        0  hc32_ll_hrpwm.o(i.HRPWM_PH_Config)
    i.HRPWM_PH_Enable                        0x000055c8   Section        0  hrtimer.o(i.HRPWM_PH_Enable)
    HRPWM_PH_Enable                          0x000055c9   Thumb Code    76  hrtimer.o(i.HRPWM_PH_Enable)
    i.HRPWM_PH_StructInit                    0x00005618   Section        0  hc32_ll_hrpwm.o(i.HRPWM_PH_StructInit)
    i.HRPWM_PWM_ChAInit                      0x0000562c   Section        0  hc32_ll_hrpwm.o(i.HRPWM_PWM_ChAInit)
    i.HRPWM_PWM_ChAOutputEnable              0x00005938   Section        0  hrtimer.o(i.HRPWM_PWM_ChAOutputEnable)
    HRPWM_PWM_ChAOutputEnable                0x00005939   Thumb Code    88  hrtimer.o(i.HRPWM_PWM_ChAOutputEnable)
    i.HRPWM_PWM_ChBInit                      0x00005994   Section        0  hc32_ll_hrpwm.o(i.HRPWM_PWM_ChBInit)
    i.HRPWM_PWM_ChBOutputEnable              0x00005c9c   Section        0  hrtimer.o(i.HRPWM_PWM_ChBOutputEnable)
    HRPWM_PWM_ChBOutputEnable                0x00005c9d   Thumb Code    88  hrtimer.o(i.HRPWM_PWM_ChBOutputEnable)
    i.HRPWM_PWM_StructInit                   0x00005cf8   Section        0  hc32_ll_hrpwm.o(i.HRPWM_PWM_StructInit)
    i.HRPWM_PeriodBufConfig                  0x00005d2c   Section        0  hc32_ll_hrpwm.o(i.HRPWM_PeriodBufConfig)
    i.HRPWM_PeriodBufEnable                  0x00005e2c   Section        0  hrtimer.o(i.HRPWM_PeriodBufEnable)
    HRPWM_PeriodBufEnable                    0x00005e2d   Thumb Code    88  hrtimer.o(i.HRPWM_PeriodBufEnable)
    i.HRPWM_SetCompareAValue                 0x00005e88   Section        0  hrtimer.o(i.HRPWM_SetCompareAValue)
    HRPWM_SetCompareAValue                   0x00005e89   Thumb Code   102  hrtimer.o(i.HRPWM_SetCompareAValue)
    i.HRPWM_SetCompareAValue_Buf             0x00005ef8   Section        0  hrtimer.o(i.HRPWM_SetCompareAValue_Buf)
    HRPWM_SetCompareAValue_Buf               0x00005ef9   Thumb Code   102  hrtimer.o(i.HRPWM_SetCompareAValue_Buf)
    i.HRPWM_SetDeadTimeDownValue             0x00005f68   Section        0  hrtimer.o(i.HRPWM_SetDeadTimeDownValue)
    HRPWM_SetDeadTimeDownValue               0x00005f69   Thumb Code   102  hrtimer.o(i.HRPWM_SetDeadTimeDownValue)
    i.HRPWM_SetDeadTimeDownValue_Buf         0x00005fd8   Section        0  hrtimer.o(i.HRPWM_SetDeadTimeDownValue_Buf)
    HRPWM_SetDeadTimeDownValue_Buf           0x00005fd9   Thumb Code   102  hrtimer.o(i.HRPWM_SetDeadTimeDownValue_Buf)
    i.HRPWM_SetDeadTimeUpValue               0x00006048   Section        0  hrtimer.o(i.HRPWM_SetDeadTimeUpValue)
    HRPWM_SetDeadTimeUpValue                 0x00006049   Thumb Code   102  hrtimer.o(i.HRPWM_SetDeadTimeUpValue)
    i.HRPWM_SetDeadTimeUpValue_Buf           0x000060b8   Section        0  hrtimer.o(i.HRPWM_SetDeadTimeUpValue_Buf)
    HRPWM_SetDeadTimeUpValue_Buf             0x000060b9   Thumb Code   102  hrtimer.o(i.HRPWM_SetDeadTimeUpValue_Buf)
    i.HRPWM_SetPeriodValue                   0x00006128   Section        0  hrtimer.o(i.HRPWM_SetPeriodValue)
    HRPWM_SetPeriodValue                     0x00006129   Thumb Code   100  hrtimer.o(i.HRPWM_SetPeriodValue)
    i.HRPWM_SetPeriodValue_Buf               0x00006194   Section        0  hrtimer.o(i.HRPWM_SetPeriodValue_Buf)
    HRPWM_SetPeriodValue_Buf                 0x00006195   Thumb Code   100  hrtimer.o(i.HRPWM_SetPeriodValue_Buf)
    i.HRPWM_SetUnitGlobalBufFlagSrc          0x00006200   Section        0  hrtimer.o(i.HRPWM_SetUnitGlobalBufFlagSrc)
    HRPWM_SetUnitGlobalBufFlagSrc            0x00006201   Thumb Code   134  hrtimer.o(i.HRPWM_SetUnitGlobalBufFlagSrc)
    i.HRPWM_SpecialABufConfig                0x000062bc   Section        0  hc32_ll_hrpwm.o(i.HRPWM_SpecialABufConfig)
    i.HRPWM_SpecialABufEnable                0x000063bc   Section        0  hrtimer.o(i.HRPWM_SpecialABufEnable)
    HRPWM_SpecialABufEnable                  0x000063bd   Thumb Code    88  hrtimer.o(i.HRPWM_SpecialABufEnable)
    i.HRPWM_SpecialBBufConfig                0x00006418   Section        0  hc32_ll_hrpwm.o(i.HRPWM_SpecialBBufConfig)
    i.HRPWM_SpecialBBufEnable                0x00006518   Section        0  hrtimer.o(i.HRPWM_SpecialBBufEnable)
    HRPWM_SpecialBBufEnable                  0x00006519   Thumb Code    88  hrtimer.o(i.HRPWM_SpecialBBufEnable)
    i.HRPWM_StructInit                       0x00006574   Section        0  hc32_ll_hrpwm.o(i.HRPWM_StructInit)
    i.HRTIM_BM_Conf                          0x00006590   Section        0  hrtimer.o(i.HRTIM_BM_Conf)
    i.HRTIM_Config                           0x0000665c   Section        0  hrtimer.o(i.HRTIM_Config)
    i.HRTIM_IDLE_Conf                        0x00006f74   Section        0  hrtimer.o(i.HRTIM_IDLE_Conf)
    i.IRQ000_Handler                         0x00007078   Section        0  hc32_ll_interrupts.o(i.IRQ000_Handler)
    i.IRQ001_Handler                         0x0000708c   Section        0  hc32_ll_interrupts.o(i.IRQ001_Handler)
    i.IRQ002_Handler                         0x000070a0   Section        0  hc32_ll_interrupts.o(i.IRQ002_Handler)
    i.IRQ003_Handler                         0x000070b4   Section        0  hc32_ll_interrupts.o(i.IRQ003_Handler)
    i.IRQ004_Handler                         0x000070c8   Section        0  hc32_ll_interrupts.o(i.IRQ004_Handler)
    i.IRQ005_Handler                         0x000070dc   Section        0  hc32_ll_interrupts.o(i.IRQ005_Handler)
    i.IRQ006_Handler                         0x000070f0   Section        0  hc32_ll_interrupts.o(i.IRQ006_Handler)
    i.IRQ007_Handler                         0x00007104   Section        0  hc32_ll_interrupts.o(i.IRQ007_Handler)
    i.IRQ008_Handler                         0x00007118   Section        0  hc32_ll_interrupts.o(i.IRQ008_Handler)
    i.IRQ009_Handler                         0x0000712c   Section        0  hc32_ll_interrupts.o(i.IRQ009_Handler)
    i.IRQ010_Handler                         0x00007140   Section        0  hc32_ll_interrupts.o(i.IRQ010_Handler)
    i.IRQ011_Handler                         0x00007154   Section        0  hc32_ll_interrupts.o(i.IRQ011_Handler)
    i.IRQ012_Handler                         0x00007168   Section        0  hc32_ll_interrupts.o(i.IRQ012_Handler)
    i.IRQ013_Handler                         0x0000717c   Section        0  hc32_ll_interrupts.o(i.IRQ013_Handler)
    i.IRQ014_Handler                         0x00007190   Section        0  hc32_ll_interrupts.o(i.IRQ014_Handler)
    i.IRQ015_Handler                         0x000071a4   Section        0  hc32_ll_interrupts.o(i.IRQ015_Handler)
    i.Inter2Asciix                           0x000071b8   Section        0  main.o(i.Inter2Asciix)
    i.LLC_CmpConfig                          0x00007288   Section        0  hc32f334_drivers.o(i.LLC_CmpConfig)
    i.LL_PERIPH_WE                           0x00007334   Section        0  hc32_ll.o(i.LL_PERIPH_WE)
    i.LedDriverMang                          0x000073c8   Section        0  main.o(i.LedDriverMang)
    i.LogoDataUpdate                         0x00007500   Section        0  main.o(i.LogoDataUpdate)
    i.SetSysClockDiv                         0x00007684   Section        0  hc32_ll_clk.o(i.SetSysClockDiv)
    SetSysClockDiv                           0x00007685   Thumb Code   480  hc32_ll_clk.o(i.SetSysClockDiv)
    i.SwFualtCheck                           0x00007878   Section        0  main.o(i.SwFualtCheck)
    i.SystemCoreClockUpdate                  0x00007a9c   Section        0  system_hc32f334.o(i.SystemCoreClockUpdate)
    i.SystemInit                             0x00007b34   Section        0  system_hc32f334.o(i.SystemInit)
    i.TMR0_Init                              0x00007b54   Section        0  hc32_ll_tmr0.o(i.TMR0_Init)
    i.TMR0_Start                             0x00007c8c   Section        0  hc32_ll_tmr0.o(i.TMR0_Start)
    i.TMR0_StructInit                        0x00007d0c   Section        0  hc32_ll_tmr0.o(i.TMR0_StructInit)
    i.TMR0_WaitSyncDone                      0x00007d2c   Section        0  hc32_ll_tmr0.o(i.TMR0_WaitSyncDone)
    TMR0_WaitSyncDone                        0x00007d2d   Thumb Code    78  hc32_ll_tmr0.o(i.TMR0_WaitSyncDone)
    i.TMR6_1_SCmp_Handler                    0x00007d84   Section        0  hrtimer.o(i.TMR6_1_SCmp_Handler)
    i.TMR6_2_IrqHandler                      0x00007dac   Section        0  hrtimer.o(i.TMR6_2_IrqHandler)
    i.TMR6_IrqHandler                        0x00007de4   Section        0  hrtimer.o(i.TMR6_IrqHandler)
    i.TMRA_Init                              0x00007e18   Section        0  hc32_ll_tmra.o(i.TMRA_Init)
    i.TMRA_PWM_Init                          0x00007fa0   Section        0  hc32_ll_tmra.o(i.TMRA_PWM_Init)
    i.TMRA_PWM_OutputCmd                     0x000080b8   Section        0  hc32_ll_tmra.o(i.TMRA_PWM_OutputCmd)
    i.TMRA_PWM_StructInit                    0x00008154   Section        0  hc32_ll_tmra.o(i.TMRA_PWM_StructInit)
    i.TMRA_SetCompareValue                   0x00008174   Section        0  hc32_ll_tmra.o(i.TMRA_SetCompareValue)
    i.TMRA_SetPeriodValue                    0x000081f4   Section        0  hc32_ll_tmra.o(i.TMRA_SetPeriodValue)
    i.TMRA_Start                             0x00008268   Section        0  hc32_ll_tmra.o(i.TMRA_Start)
    i.TMRA_StructInit                        0x000082e4   Section        0  hc32_ll_tmra.o(i.TMRA_StructInit)
    i.TemperatureBaseLookUpTable             0x00008304   Section        0  hc32f334_drivers.o(i.TemperatureBaseLookUpTable)
    i.TmrAConfig                             0x00008350   Section        0  hc32f334_drivers.o(i.TmrAConfig)
    i.USART2Config                           0x000083e4   Section        0  hc32f334_drivers.o(i.USART2Config)
    i.USART_FuncCmd                          0x00008420   Section        0  hc32_ll_usart.o(i.USART_FuncCmd)
    i.USART_GetStatus                        0x00008530   Section        0  hc32_ll_usart.o(i.USART_GetStatus)
    i.USART_SetBaudrate                      0x000085b8   Section        0  hc32_ll_usart.o(i.USART_SetBaudrate)
    i.USART_UART_Init                        0x00008b80   Section        0  hc32_ll_usart.o(i.USART_UART_Init)
    i.USART_UART_StructInit                  0x00008d20   Section        0  hc32_ll_usart.o(i.USART_UART_StructInit)
    i.Usart2_TxEnable                        0x00008d4c   Section        0  hc32f334_drivers.o(i.Usart2_TxEnable)
    i.WDT_Config                             0x00008d88   Section        0  hc32f334_drivers.o(i.WDT_Config)
    i.WDT_FeedDog                            0x00008db0   Section        0  hc32_ll_wdt.o(i.WDT_FeedDog)
    i.WDT_Init                               0x00008dc4   Section        0  hc32_ll_wdt.o(i.WDT_Init)
    i.__0printf$3                            0x00008f0c   Section        0  printf3.o(i.__0printf$3)
    i.__scatterload_copy                     0x00008f2c   Section       14  handlers.o(i.__scatterload_copy)
    i.__scatterload_null                     0x00008f3a   Section        2  handlers.o(i.__scatterload_null)
    i.__scatterload_zeroinit                 0x00008f3c   Section       14  handlers.o(i.__scatterload_zeroinit)
    i._printf_core                           0x00008f4c   Section        0  printf3.o(i._printf_core)
    _printf_core                             0x00008f4d   Thumb Code   436  printf3.o(i._printf_core)
    i.fputc                                  0x00009104   Section        0  hc32_ll_utility.o(i.fputc)
    i.main                                   0x0000911c   Section        0  main.o(i.main)
    .constdata                               0x00009690   Section        8  hc32_ll_dac.o(.constdata)
    .constdata                               0x00009698   Section       32  hc32_ll_usart.o(.constdata)
    .constdata                               0x000096b8   Section      322  hc32f334_drivers.o(.constdata)
    .bss.noinit                              0x1fffc000   Section        8  system_hc32f334.o(.bss.noinit)
    .data                                    0x1fffc008   Section       16  hc32_ll_utility.o(.data)
    m_u32TickStep                            0x1fffc008   Data           4  hc32_ll_utility.o(.data)
    m_u32TickCount                           0x1fffc00c   Data           4  hc32_ll_utility.o(.data)
    m_pvPrintDevice                          0x1fffc010   Data           4  hc32_ll_utility.o(.data)
    m_u32PrintTimeout                        0x1fffc014   Data           4  hc32_ll_utility.o(.data)
    .data                                    0x1fffc018   Section      368  main.o(.data)
    s16VoutOvpTimes                          0x1fffc04c   Data           2  main.o(.data)
    s16VoutOcpTimes                          0x1fffc04e   Data           2  main.o(.data)
    s16VinOvpTimes                           0x1fffc050   Data           2  main.o(.data)
    s16VinUvpTimes                           0x1fffc052   Data           2  main.o(.data)
    s16VinOvpRecoverTimes                    0x1fffc054   Data           2  main.o(.data)
    s16Temp1OTPTimes                         0x1fffc056   Data           2  main.o(.data)
    s16Temp2OTPTimes                         0x1fffc058   Data           2  main.o(.data)
    s16Temp1OTPRecoverTimes                  0x1fffc05a   Data           2  main.o(.data)
    s16Temp2OTPRecoverTimes                  0x1fffc05c   Data           2  main.o(.data)
    u16StartCnt                              0x1fffc05e   Data           2  main.o(.data)
    u16RelayDelayCnt                         0x1fffc060   Data           2  main.o(.data)
    u16LedCnt                                0x1fffc062   Data           2  main.o(.data)
    u16LedPrd                                0x1fffc064   Data           2  main.o(.data)
    u16FANCnt                                0x1fffc066   Data           2  main.o(.data)
    u16FANDuty_MAN                           0x1fffc068   Data           2  main.o(.data)
    u16FinalTemp                             0x1fffc06a   Data           2  main.o(.data)
    u16FanSpeedPre                           0x1fffc06c   Data           2  main.o(.data)
    .data                                    0x1fffc188   Section        8  hrtimer.o(.data)
    .data                                    0x1fffc190   Section        4  ev_hc32f334_lqfp64.o(.data)
    m_u32GlobalKey                           0x1fffc190   Data           4  ev_hc32f334_lqfp64.o(.data)
    .data                                    0x1fffc194   Section      128  hc32f334_drivers.o(.data)
    .data                                    0x1fffc214   Section        4  stdout.o(.data)
    .bss                                     0x1fffc218   Section       64  hc32_ll_interrupts.o(.bss)
    m_apfnIrqHandler                         0x1fffc218   Data          64  hc32_ll_interrupts.o(.bss)
    .bss                                     0x1fffc258   Section      176  main.o(.bss)
    .bss                                     0x1fffc308   Section       64  hc32f334_drivers.o(.bss)
    STACK                                    0x1fffc348   Section     3072  startup_hc32f334.o(STACK)

    Global Symbols

    Symbol Name                              Value     Ov Type        Size  Object(Section)

    BuildAttributes$$THM_ISAv4$E$P$D$K$B$S$7EM$VFPi3$EXTD16$VFPS$VFMA$PE$A:L22UL41UL21$X:L11$S22US41US21$IEEE1$IW$USESV6$~STKCKD$USESV7$~SHL$OTIME$ROPI$EBA8$MICROLIB$REQ8$PRES8$EABIv2 0x00000000   Number         0  anon$$obj.o ABSOLUTE
    __ARM_use_no_argv                        0x00000000   Number         0  main.o ABSOLUTE
    __Vectors                                0x00000000   Data           4  startup_hc32f334.o(RESET)
    _printf_a                                0x00000000   Number         0  stubs.o ABSOLUTE
    _printf_c                                0x00000000   Number         0  stubs.o ABSOLUTE
    _printf_charcount                        0x00000000   Number         0  stubs.o ABSOLUTE
    _printf_d                                0x00000000   Number         0  stubs.o ABSOLUTE
    _printf_e                                0x00000000   Number         0  stubs.o ABSOLUTE
    _printf_f                                0x00000000   Number         0  stubs.o ABSOLUTE
    _printf_flags                            0x00000000   Number         0  stubs.o ABSOLUTE
    _printf_fp_dec                           0x00000000   Number         0  stubs.o ABSOLUTE
    _printf_fp_hex                           0x00000000   Number         0  stubs.o ABSOLUTE
    _printf_g                                0x00000000   Number         0  stubs.o ABSOLUTE
    _printf_i                                0x00000000   Number         0  stubs.o ABSOLUTE
    _printf_int_dec                          0x00000000   Number         0  stubs.o ABSOLUTE
    _printf_l                                0x00000000   Number         0  stubs.o ABSOLUTE
    _printf_lc                               0x00000000   Number         0  stubs.o ABSOLUTE
    _printf_ll                               0x00000000   Number         0  stubs.o ABSOLUTE
    _printf_lld                              0x00000000   Number         0  stubs.o ABSOLUTE
    _printf_lli                              0x00000000   Number         0  stubs.o ABSOLUTE
    _printf_llo                              0x00000000   Number         0  stubs.o ABSOLUTE
    _printf_llu                              0x00000000   Number         0  stubs.o ABSOLUTE
    _printf_llx                              0x00000000   Number         0  stubs.o ABSOLUTE
    _printf_longlong_dec                     0x00000000   Number         0  stubs.o ABSOLUTE
    _printf_longlong_hex                     0x00000000   Number         0  stubs.o ABSOLUTE
    _printf_longlong_oct                     0x00000000   Number         0  stubs.o ABSOLUTE
    _printf_ls                               0x00000000   Number         0  stubs.o ABSOLUTE
    _printf_mbtowc                           0x00000000   Number         0  stubs.o ABSOLUTE
    _printf_n                                0x00000000   Number         0  stubs.o ABSOLUTE
    _printf_o                                0x00000000   Number         0  stubs.o ABSOLUTE
    _printf_p                                0x00000000   Number         0  stubs.o ABSOLUTE
    _printf_percent                          0x00000000   Number         0  stubs.o ABSOLUTE
    _printf_pre_padding                      0x00000000   Number         0  stubs.o ABSOLUTE
    _printf_return_value                     0x00000000   Number         0  stubs.o ABSOLUTE
    _printf_s                                0x00000000   Number         0  stubs.o ABSOLUTE
    _printf_sizespec                         0x00000000   Number         0  stubs.o ABSOLUTE
    _printf_str                              0x00000000   Number         0  stubs.o ABSOLUTE
    _printf_truncate_signed                  0x00000000   Number         0  stubs.o ABSOLUTE
    _printf_truncate_unsigned                0x00000000   Number         0  stubs.o ABSOLUTE
    _printf_u                                0x00000000   Number         0  stubs.o ABSOLUTE
    _printf_wc                               0x00000000   Number         0  stubs.o ABSOLUTE
    _printf_wctomb                           0x00000000   Number         0  stubs.o ABSOLUTE
    _printf_widthprec                        0x00000000   Number         0  stubs.o ABSOLUTE
    _printf_x                                0x00000000   Number         0  stubs.o ABSOLUTE
    __arm_fini_                               - Undefined Weak Reference
    __cpp_initialize__aeabi_                  - Undefined Weak Reference
    __cxa_finalize                            - Undefined Weak Reference
    _clock_init                               - Undefined Weak Reference
    _microlib_exit                            - Undefined Weak Reference
    __Vectors_End                            0x00000288   Data           0  startup_hc32f334.o(RESET)
    __Vectors_Size                           0x00000288   Number         0  startup_hc32f334.o ABSOLUTE
    __main                                   0x00000289   Thumb Code     0  entry.o(.ARM.Collect$$$$00000000)
    _main_stk                                0x00000289   Thumb Code     0  entry2.o(.ARM.Collect$$$$00000001)
    _main_scatterload                        0x0000028d   Thumb Code     0  entry5.o(.ARM.Collect$$$$00000004)
    __main_after_scatterload                 0x00000291   Thumb Code     0  entry5.o(.ARM.Collect$$$$00000004)
    _main_clock                              0x00000291   Thumb Code     0  entry7b.o(.ARM.Collect$$$$00000008)
    _main_cpp_init                           0x00000291   Thumb Code     0  entry8b.o(.ARM.Collect$$$$0000000A)
    _main_init                               0x00000291   Thumb Code     0  entry9a.o(.ARM.Collect$$$$0000000B)
    __rt_lib_shutdown_fini                   0x00000299   Thumb Code     0  entry12b.o(.ARM.Collect$$$$0000000E)
    __rt_final_cpp                           0x0000029d   Thumb Code     0  entry10a.o(.ARM.Collect$$$$0000000F)
    __rt_final_exit                          0x0000029d   Thumb Code     0  entry11a.o(.ARM.Collect$$$$00000011)
    Reset_Handler                            0x000002a1   Thumb Code     8  startup_hc32f334.o(.text)
    NMI_Handler                              0x000002a9   Thumb Code     2  startup_hc32f334.o(.text)
    HardFault_Handler                        0x000002ab   Thumb Code     2  startup_hc32f334.o(.text)
    MemManage_Handler                        0x000002ad   Thumb Code     2  startup_hc32f334.o(.text)
    BusFault_Handler                         0x000002af   Thumb Code     2  startup_hc32f334.o(.text)
    UsageFault_Handler                       0x000002b1   Thumb Code     2  startup_hc32f334.o(.text)
    SVC_Handler                              0x000002b3   Thumb Code     2  startup_hc32f334.o(.text)
    DebugMon_Handler                         0x000002b5   Thumb Code     2  startup_hc32f334.o(.text)
    PendSV_Handler                           0x000002b7   Thumb Code     2  startup_hc32f334.o(.text)
    SysTick_Handler                          0x000002b9   Thumb Code     2  startup_hc32f334.o(.text)
    ADC2_Handler                             0x000002bb   Thumb Code     0  startup_hc32f334.o(.text)
    ADC3_Handler                             0x000002bb   Thumb Code     0  startup_hc32f334.o(.text)
    CLK_XtalStop_Handler                     0x000002bb   Thumb Code     0  startup_hc32f334.o(.text)
    CMP1_Handler                             0x000002bb   Thumb Code     0  startup_hc32f334.o(.text)
    CMP2_Handler                             0x000002bb   Thumb Code     0  startup_hc32f334.o(.text)
    CMP3_Handler                             0x000002bb   Thumb Code     0  startup_hc32f334.o(.text)
    CTC_Handler                              0x000002bb   Thumb Code     0  startup_hc32f334.o(.text)
    DMA_Error_Handler                        0x000002bb   Thumb Code     0  startup_hc32f334.o(.text)
    DMA_TC0_BTC0_Handler                     0x000002bb   Thumb Code     0  startup_hc32f334.o(.text)
    DMA_TC1_BTC1_Handler                     0x000002bb   Thumb Code     0  startup_hc32f334.o(.text)
    DMA_TC2_BTC2_Handler                     0x000002bb   Thumb Code     0  startup_hc32f334.o(.text)
    DMA_TC3_BTC3_Handler                     0x000002bb   Thumb Code     0  startup_hc32f334.o(.text)
    DMA_TC4_BTC4_Handler                     0x000002bb   Thumb Code     0  startup_hc32f334.o(.text)
    DMA_TC5_BTC5_Handler                     0x000002bb   Thumb Code     0  startup_hc32f334.o(.text)
    DMA_TC6_BTC6_Handler                     0x000002bb   Thumb Code     0  startup_hc32f334.o(.text)
    DMA_TC7_BTC7_Handler                     0x000002bb   Thumb Code     0  startup_hc32f334.o(.text)
    EFM_OpEnd_Handler                        0x000002bb   Thumb Code     0  startup_hc32f334.o(.text)
    EFM_PEError_ReadCol_Handler              0x000002bb   Thumb Code     0  startup_hc32f334.o(.text)
    EMB_GR0_Handler                          0x000002bb   Thumb Code     0  startup_hc32f334.o(.text)
    EMB_GR1_Handler                          0x000002bb   Thumb Code     0  startup_hc32f334.o(.text)
    EMB_GR2_Handler                          0x000002bb   Thumb Code     0  startup_hc32f334.o(.text)
    EMB_GR3_Handler                          0x000002bb   Thumb Code     0  startup_hc32f334.o(.text)
    EMB_GR4_Handler                          0x000002bb   Thumb Code     0  startup_hc32f334.o(.text)
    EMB_GR5_Handler                          0x000002bb   Thumb Code     0  startup_hc32f334.o(.text)
    EMB_GR6_Handler                          0x000002bb   Thumb Code     0  startup_hc32f334.o(.text)
    EMB_GR7_Handler                          0x000002bb   Thumb Code     0  startup_hc32f334.o(.text)
    EMB_GR8_Handler                          0x000002bb   Thumb Code     0  startup_hc32f334.o(.text)
    EVENT_PORT1_Handler                      0x000002bb   Thumb Code     0  startup_hc32f334.o(.text)
    EVENT_PORT2_Handler                      0x000002bb   Thumb Code     0  startup_hc32f334.o(.text)
    EVENT_PORT3_Handler                      0x000002bb   Thumb Code     0  startup_hc32f334.o(.text)
    EVENT_PORT4_Handler                      0x000002bb   Thumb Code     0  startup_hc32f334.o(.text)
    EXTINT01_SWINT17_Handler                 0x000002bb   Thumb Code     0  startup_hc32f334.o(.text)
    EXTINT02_SWINT18_Handler                 0x000002bb   Thumb Code     0  startup_hc32f334.o(.text)
    EXTINT04_SWINT20_Handler                 0x000002bb   Thumb Code     0  startup_hc32f334.o(.text)
    EXTINT05_SWINT21_Handler                 0x000002bb   Thumb Code     0  startup_hc32f334.o(.text)
    EXTINT06_SWINT22_Handler                 0x000002bb   Thumb Code     0  startup_hc32f334.o(.text)
    EXTINT07_SWINT23_Handler                 0x000002bb   Thumb Code     0  startup_hc32f334.o(.text)
    EXTINT08_SWINT24_Handler                 0x000002bb   Thumb Code     0  startup_hc32f334.o(.text)
    EXTINT10_SWINT26_Handler                 0x000002bb   Thumb Code     0  startup_hc32f334.o(.text)
    EXTINT11_SWINT27_Handler                 0x000002bb   Thumb Code     0  startup_hc32f334.o(.text)
    EXTINT12_SWINT28_Handler                 0x000002bb   Thumb Code     0  startup_hc32f334.o(.text)
    EXTINT13_SWINT29_Handler                 0x000002bb   Thumb Code     0  startup_hc32f334.o(.text)
    EXTINT14_SWINT30_Handler                 0x000002bb   Thumb Code     0  startup_hc32f334.o(.text)
    EXTINT15_SWINT31_Handler                 0x000002bb   Thumb Code     0  startup_hc32f334.o(.text)
    FCM_Handler                              0x000002bb   Thumb Code     0  startup_hc32f334.o(.text)
    FPU_Error_Handler                        0x000002bb   Thumb Code     0  startup_hc32f334.o(.text)
    HRPWM_1_GCap_Handler                     0x000002bb   Thumb Code     0  startup_hc32f334.o(.text)
    HRPWM_1_GCmp_Handler                     0x000002bb   Thumb Code     0  startup_hc32f334.o(.text)
    HRPWM_1_Ovf_Udf_Handler                  0x000002bb   Thumb Code     0  startup_hc32f334.o(.text)
    HRPWM_1_SCmp_Handler                     0x000002bb   Thumb Code     0  startup_hc32f334.o(.text)
    HRPWM_2_GCap_Handler                     0x000002bb   Thumb Code     0  startup_hc32f334.o(.text)
    HRPWM_2_GCmp_Handler                     0x000002bb   Thumb Code     0  startup_hc32f334.o(.text)
    HRPWM_2_Ovf_Udf_Handler                  0x000002bb   Thumb Code     0  startup_hc32f334.o(.text)
    HRPWM_2_SCmp_Handler                     0x000002bb   Thumb Code     0  startup_hc32f334.o(.text)
    HRPWM_3_GCap_Handler                     0x000002bb   Thumb Code     0  startup_hc32f334.o(.text)
    HRPWM_3_GCmp_Handler                     0x000002bb   Thumb Code     0  startup_hc32f334.o(.text)
    HRPWM_3_Ovf_Udf_Handler                  0x000002bb   Thumb Code     0  startup_hc32f334.o(.text)
    HRPWM_3_SCmp_Handler                     0x000002bb   Thumb Code     0  startup_hc32f334.o(.text)
    HRPWM_4_GCap_Handler                     0x000002bb   Thumb Code     0  startup_hc32f334.o(.text)
    HRPWM_4_GCmp_Handler                     0x000002bb   Thumb Code     0  startup_hc32f334.o(.text)
    HRPWM_4_Ovf_Udf_Handler                  0x000002bb   Thumb Code     0  startup_hc32f334.o(.text)
    HRPWM_4_SCmp_Handler                     0x000002bb   Thumb Code     0  startup_hc32f334.o(.text)
    HRPWM_5_GCap_Handler                     0x000002bb   Thumb Code     0  startup_hc32f334.o(.text)
    HRPWM_5_GCmp_Handler                     0x000002bb   Thumb Code     0  startup_hc32f334.o(.text)
    HRPWM_5_Ovf_Udf_Handler                  0x000002bb   Thumb Code     0  startup_hc32f334.o(.text)
    HRPWM_5_SCmp_Handler                     0x000002bb   Thumb Code     0  startup_hc32f334.o(.text)
    HRPWM_6_GCap_Handler                     0x000002bb   Thumb Code     0  startup_hc32f334.o(.text)
    HRPWM_6_GCmp_Handler                     0x000002bb   Thumb Code     0  startup_hc32f334.o(.text)
    HRPWM_6_Ovf_Udf_Handler                  0x000002bb   Thumb Code     0  startup_hc32f334.o(.text)
    HRPWM_6_SCmp_Handler                     0x000002bb   Thumb Code     0  startup_hc32f334.o(.text)
    HRPWM_Handler                            0x000002bb   Thumb Code     0  startup_hc32f334.o(.text)
    I2C_Handler                              0x000002bb   Thumb Code     0  startup_hc32f334.o(.text)
    MCAN1_INT0_Handler                       0x000002bb   Thumb Code     0  startup_hc32f334.o(.text)
    MCAN1_INT1_Handler                       0x000002bb   Thumb Code     0  startup_hc32f334.o(.text)
    MCAN2_INT0_Handler                       0x000002bb   Thumb Code     0  startup_hc32f334.o(.text)
    MCAN2_INT1_Handler                       0x000002bb   Thumb Code     0  startup_hc32f334.o(.text)
    MCANRAM_ECCError_Handler                 0x000002bb   Thumb Code     0  startup_hc32f334.o(.text)
    PLA_Handler                              0x000002bb   Thumb Code     0  startup_hc32f334.o(.text)
    PWC_LVD1_Handler                         0x000002bb   Thumb Code     0  startup_hc32f334.o(.text)
    PWC_LVD2_Handler                         0x000002bb   Thumb Code     0  startup_hc32f334.o(.text)
    PWC_WKTM_Handler                         0x000002bb   Thumb Code     0  startup_hc32f334.o(.text)
    RTC_Handler                              0x000002bb   Thumb Code     0  startup_hc32f334.o(.text)
    SPI_Handler                              0x000002bb   Thumb Code     0  startup_hc32f334.o(.text)
    SWDT_Handler                             0x000002bb   Thumb Code     0  startup_hc32f334.o(.text)
    TMR0_1_Handler                           0x000002bb   Thumb Code     0  startup_hc32f334.o(.text)
    TMR0_2_Handler                           0x000002bb   Thumb Code     0  startup_hc32f334.o(.text)
    TMR4_GCmp_Handler                        0x000002bb   Thumb Code     0  startup_hc32f334.o(.text)
    TMR4_Ovf_Udf_Handler                     0x000002bb   Thumb Code     0  startup_hc32f334.o(.text)
    TMR4_Reload_Handler                      0x000002bb   Thumb Code     0  startup_hc32f334.o(.text)
    TMR4_SCmp_Handler                        0x000002bb   Thumb Code     0  startup_hc32f334.o(.text)
    TMR6_1_Dte_Handler                       0x000002bb   Thumb Code     0  startup_hc32f334.o(.text)
    TMR6_1_GCmp_Handler                      0x000002bb   Thumb Code     0  startup_hc32f334.o(.text)
    TMR6_1_Ovf_Udf_Handler                   0x000002bb   Thumb Code     0  startup_hc32f334.o(.text)
    TMR6_2_Dte_Handler                       0x000002bb   Thumb Code     0  startup_hc32f334.o(.text)
    TMR6_2_GCmp_Handler                      0x000002bb   Thumb Code     0  startup_hc32f334.o(.text)
    TMR6_2_Ovf_Udf_Handler                   0x000002bb   Thumb Code     0  startup_hc32f334.o(.text)
    TMR6_2_SCmp_Handler                      0x000002bb   Thumb Code     0  startup_hc32f334.o(.text)
    TMR6_3_Dte_Handler                       0x000002bb   Thumb Code     0  startup_hc32f334.o(.text)
    TMR6_3_GCmp_Handler                      0x000002bb   Thumb Code     0  startup_hc32f334.o(.text)
    TMR6_3_Ovf_Udf_Handler                   0x000002bb   Thumb Code     0  startup_hc32f334.o(.text)
    TMR6_3_SCmp_Handler                      0x000002bb   Thumb Code     0  startup_hc32f334.o(.text)
    TMR6_4_Dte_Handler                       0x000002bb   Thumb Code     0  startup_hc32f334.o(.text)
    TMR6_4_GCmp_Handler                      0x000002bb   Thumb Code     0  startup_hc32f334.o(.text)
    TMR6_4_Ovf_Udf_Handler                   0x000002bb   Thumb Code     0  startup_hc32f334.o(.text)
    TMR6_4_SCmp_Handler                      0x000002bb   Thumb Code     0  startup_hc32f334.o(.text)
    TMRA_1_Cmp_Handler                       0x000002bb   Thumb Code     0  startup_hc32f334.o(.text)
    TMRA_1_Ovf_Udf_Handler                   0x000002bb   Thumb Code     0  startup_hc32f334.o(.text)
    TMRA_2_Cmp_Handler                       0x000002bb   Thumb Code     0  startup_hc32f334.o(.text)
    TMRA_2_Ovf_Udf_Handler                   0x000002bb   Thumb Code     0  startup_hc32f334.o(.text)
    TMRA_3_Cmp_Handler                       0x000002bb   Thumb Code     0  startup_hc32f334.o(.text)
    TMRA_3_Ovf_Udf_Handler                   0x000002bb   Thumb Code     0  startup_hc32f334.o(.text)
    TMRA_4_Cmp_Handler                       0x000002bb   Thumb Code     0  startup_hc32f334.o(.text)
    TMRA_4_Ovf_Udf_Handler                   0x000002bb   Thumb Code     0  startup_hc32f334.o(.text)
    TMRA_5_Cmp_Handler                       0x000002bb   Thumb Code     0  startup_hc32f334.o(.text)
    TMRA_5_Ovf_Udf_Handler                   0x000002bb   Thumb Code     0  startup_hc32f334.o(.text)
    USART1_Handler                           0x000002bb   Thumb Code     0  startup_hc32f334.o(.text)
    USART1_TCI_Handler                       0x000002bb   Thumb Code     0  startup_hc32f334.o(.text)
    USART1_WKUP_Handler                      0x000002bb   Thumb Code     0  startup_hc32f334.o(.text)
    USART2_Handler                           0x000002bb   Thumb Code     0  startup_hc32f334.o(.text)
    USART2_TxComplete_Handler                0x000002bb   Thumb Code     0  startup_hc32f334.o(.text)
    USART3_Handler                           0x000002bb   Thumb Code     0  startup_hc32f334.o(.text)
    USART3_TxComplete_Handler                0x000002bb   Thumb Code     0  startup_hc32f334.o(.text)
    USART4_Handler                           0x000002bb   Thumb Code     0  startup_hc32f334.o(.text)
    USART4_TxComplete_Handler                0x000002bb   Thumb Code     0  startup_hc32f334.o(.text)
    WDT_Handler                              0x000002bb   Thumb Code     0  startup_hc32f334.o(.text)
    __aeabi_uldivmod                         0x000002c5   Thumb Code    98  uldiv.o(.text)
    __aeabi_llsl                             0x00000327   Thumb Code    30  llshl.o(.text)
    _ll_shift_l                              0x00000327   Thumb Code     0  llshl.o(.text)
    __aeabi_ui2d                             0x00000345   Thumb Code    26  dfltui.o(.text)
    __aeabi_ul2d                             0x0000035f   Thumb Code    24  dfltul.o(.text)
    __aeabi_d2f                              0x00000377   Thumb Code    56  d2f.o(.text)
    __aeabi_uidiv                            0x000003af   Thumb Code     0  uidiv.o(.text)
    __aeabi_uidivmod                         0x000003af   Thumb Code    44  uidiv.o(.text)
    __aeabi_llsr                             0x000003db   Thumb Code    32  llushr.o(.text)
    _ll_ushift_r                             0x000003db   Thumb Code     0  llushr.o(.text)
    BSP_KEY_KEY1_IrqCallback                 0x000003fb   Thumb Code     2  ev_hc32f334_lqfp64.o(i.BSP_KEY_KEY1_IrqCallback)
    __I$use$fp                               0x000003fb   Thumb Code     0  iusefp.o(.text)
    BSP_KEY_KEY2_IrqCallback                 0x000003fd   Thumb Code     2  ev_hc32f334_lqfp64.o(i.BSP_KEY_KEY2_IrqCallback)
    BSP_KEY_KEY3_IrqCallback                 0x000003ff   Thumb Code     2  ev_hc32f334_lqfp64.o(i.BSP_KEY_KEY3_IrqCallback)
    u32ICGValue                              0x00000400   Data          96  hc32_ll_icg.o(.ARM.__AT_0x00000400)
    __aeabi_ddiv                             0x00000461   Thumb Code   222  ddiv.o(.text)
    _float_round                             0x0000053f   Thumb Code    18  fepilogue.o(.text)
    _float_epilogue                          0x00000551   Thumb Code    92  fepilogue.o(.text)
    _double_round                            0x000005ad   Thumb Code    30  depilogue.o(.text)
    _double_epilogue                         0x000005cb   Thumb Code   156  depilogue.o(.text)
    __scatterload                            0x00000669   Thumb Code    28  init.o(.text)
    __scatterload_rt2                        0x00000669   Thumb Code     0  init.o(.text)
    __decompress                             0x0000068d   Thumb Code     0  __dczerorl2.o(.text)
    __decompress1                            0x0000068d   Thumb Code    86  __dczerorl2.o(.text)
    ADC1_Handler                             0x000006e5   Thumb Code  1350  main.o(i.ADC1_Handler)
    ADC_ChCmd                                0x00000c3d   Thumb Code   124  hc32_ll_adc.o(i.ADC_ChCmd)
    ADC_ChRemap                              0x00000ce9   Thumb Code   130  hc32_ll_adc.o(i.ADC_ChRemap)
    ADC_Init                                 0x00000da5   Thumb Code   142  hc32_ll_adc.o(i.ADC_Init)
    ADC_IntCmd                               0x00000e65   Thumb Code    96  hc32_ll_adc.o(i.ADC_IntCmd)
    ADC_StructInit                           0x00000ef5   Thumb Code    18  hc32_ll_adc.o(i.ADC_StructInit)
    ADC_TriggerCmd                           0x00000f09   Thumb Code    98  hc32_ll_adc.o(i.ADC_TriggerCmd)
    ADC_TriggerConfig                        0x00000f9d   Thumb Code   108  hc32_ll_adc.o(i.ADC_TriggerConfig)
    ADCx_Init                                0x00001039   Thumb Code   328  hc32f334_drivers.o(i.ADCx_Init)
    AOS_SetTriggerEventSrc                   0x0000119d   Thumb Code   222  hc32_ll_aos.o(i.AOS_SetTriggerEventSrc)
    BSP_CLK_Init                             0x0000132d   Thumb Code   160  ev_hc32f334_lqfp64.o(i.BSP_CLK_Init)
    CLK_GetStableStatus                      0x000013d5   Thumb Code    36  hc32_ll_clk.o(i.CLK_GetStableStatus)
    CLK_PLLCmd                               0x00001429   Thumb Code   132  hc32_ll_clk.o(i.CLK_PLLCmd)
    CLK_PLLInit                              0x000014dd   Thumb Code   390  hc32_ll_clk.o(i.CLK_PLLInit)
    CLK_PLLStructInit                        0x000016b1   Thumb Code    52  hc32_ll_clk.o(i.CLK_PLLStructInit)
    CLK_SetClockDiv                          0x000016e5   Thumb Code    14  hc32_ll_clk.o(i.CLK_SetClockDiv)
    CLK_SetSysClockSrc                       0x000016f5   Thumb Code   182  hc32_ll_clk.o(i.CLK_SetSysClockSrc)
    CLK_XtalCmd                              0x00001809   Thumb Code   114  hc32_ll_clk.o(i.CLK_XtalCmd)
    CLK_XtalInit                             0x000018ad   Thumb Code   196  hc32_ll_clk.o(i.CLK_XtalInit)
    CLK_XtalStructInit                       0x000019a5   Thumb Code    30  hc32_ll_clk.o(i.CLK_XtalStructInit)
    CMP_CompareOutCmd                        0x000019c5   Thumb Code    74  hc32_ll_cmp.o(i.CMP_CompareOutCmd)
    CMP_NormalModeInit                       0x00001a81   Thumb Code   306  hc32_ll_cmp.o(i.CMP_NormalModeInit)
    CMP_PinVcoutCmd                          0x00001be5   Thumb Code    74  hc32_ll_cmp.o(i.CMP_PinVcoutCmd)
    CMP_StructInit                           0x00001c61   Thumb Code    24  hc32_ll_cmp.o(i.CMP_StructInit)
    CalibrationRead                          0x00001c79   Thumb Code   142  hc32f334_drivers.o(i.CalibrationRead)
    CalibrationWrite                         0x00001d35   Thumb Code    90  hc32f334_drivers.o(i.CalibrationWrite)
    ControllerInit                           0x00001db9   Thumb Code   122  main.o(i.ControllerInit)
    Ctrl_TMR0_Config                         0x00001e49   Thumb Code    58  hc32f334_drivers.o(i.Ctrl_TMR0_Config)
    DAC_ADCPrioCmd                           0x00001e89   Thumb Code    64  hc32_ll_dac.o(i.DAC_ADCPrioCmd)
    DAC_ADCPrioConfig                        0x00001ef9   Thumb Code    78  hc32_ll_dac.o(i.DAC_ADCPrioConfig)
    DAC_DataRegAlignConfig                   0x00001f79   Thumb Code    68  hc32_ll_dac.o(i.DAC_DataRegAlignConfig)
    DAC_DeInit                               0x00001fed   Thumb Code   158  hc32_ll_dac.o(i.DAC_DeInit)
    DAC_Init                                 0x000020c9   Thumb Code   148  hc32_ll_dac.o(i.DAC_Init)
    DAC_OutputCmd                            0x00002191   Thumb Code   112  hc32_ll_dac.o(i.DAC_OutputCmd)
    DAC_SetChData                            0x00002235   Thumb Code   112  hc32_ll_dac.o(i.DAC_SetChData)
    DAC_SetDualChData                        0x000022d9   Thumb Code   106  hc32_ll_dac.o(i.DAC_SetDualChData)
    DAC_Start                                0x00002371   Thumb Code   104  hc32_ll_dac.o(i.DAC_Start)
    DAC_StartDualCh                          0x0000240d   Thumb Code    34  hc32_ll_dac.o(i.DAC_StartDualCh)
    DAC_StructInit                           0x0000245d   Thumb Code    20  hc32_ll_dac.o(i.DAC_StructInit)
    DACx_ConversionInit                      0x00002471   Thumb Code   200  hc32f334_drivers.o(i.DACx_ConversionInit)
    DDL_AssertHandler                        0x00002541   Thumb Code    14  hc32_ll_utility.o(i.DDL_AssertHandler)
    DDL_ConsoleOutputChar                    0x00002581   Thumb Code    70  hc32_ll_utility.o(i.DDL_ConsoleOutputChar)
    DDL_DelayMS                              0x000025cd   Thumb Code    58  hc32_ll_utility.o(i.DDL_DelayMS)
    DDL_DelayUS                              0x00002611   Thumb Code    56  hc32_ll_utility.o(i.DDL_DelayUS)
    DMA_ChCmd                                0x00002655   Thumb Code    74  hc32_ll_dma.o(i.DMA_ChCmd)
    DMA_ClearTransCompleteStatus             0x000026cd   Thumb Code    48  hc32_ll_dma.o(i.DMA_ClearTransCompleteStatus)
    DMA_Cmd                                  0x00002729   Thumb Code    46  hc32_ll_dma.o(i.DMA_Cmd)
    DMA_Config                               0x00002785   Thumb Code   230  hc32f334_drivers.o(i.DMA_Config)
    DMA_GetTransCompleteStatus               0x0000288d   Thumb Code    34  hc32_ll_dma.o(i.DMA_GetTransCompleteStatus)
    DMA_Init                                 0x000028dd   Thumb Code   232  hc32_ll_dma.o(i.DMA_Init)
    DMA_RepeatInit                           0x000029f1   Thumb Code   160  hc32_ll_dma.o(i.DMA_RepeatInit)
    DMA_RepeatStructInit                     0x00002abd   Thumb Code    24  hc32_ll_dma.o(i.DMA_RepeatStructInit)
    DMA_SetSrcAddr                           0x00002ad5   Thumb Code    52  hc32_ll_dma.o(i.DMA_SetSrcAddr)
    DMA_SetTransCount                        0x00002b35   Thumb Code    58  hc32_ll_dma.o(i.DMA_SetTransCount)
    DMA_StructInit                           0x00002b9d   Thumb Code    36  hc32_ll_dma.o(i.DMA_StructInit)
    EFM_CacheRamReset                        0x00002bc1   Thumb Code    46  hc32_ll_efm.o(i.EFM_CacheRamReset)
    EFM_ClearStatus                          0x00002c25   Thumb Code    48  hc32_ll_efm.o(i.EFM_ClearStatus)
    EFM_DCacheCmd                            0x00002c61   Thumb Code    46  hc32_ll_efm.o(i.EFM_DCacheCmd)
    EFM_FWMC_Cmd                             0x00002cc5   Thumb Code    40  hc32_ll_efm.o(i.EFM_FWMC_Cmd)
    EFM_GetStatus                            0x00002d25   Thumb Code    40  hc32_ll_efm.o(i.EFM_GetStatus)
    EFM_ICacheCmd                            0x00002d7d   Thumb Code    46  hc32_ll_efm.o(i.EFM_ICacheCmd)
    EFM_PrefetchCmd                          0x00002de1   Thumb Code    46  hc32_ll_efm.o(i.EFM_PrefetchCmd)
    EFM_ProgramWord                          0x00002e45   Thumb Code   234  hc32_ll_efm.o(i.EFM_ProgramWord)
    EFM_ReadByte                             0x00002f71   Thumb Code   164  hc32_ll_efm.o(i.EFM_ReadByte)
    EFM_SectorErase                          0x00003051   Thumb Code   216  hc32_ll_efm.o(i.EFM_SectorErase)
    EFM_SetWaitCycle                         0x0000316d   Thumb Code   112  hc32_ll_efm.o(i.EFM_SetWaitCycle)
    EFM_SingleSectorOperateCmd               0x00003219   Thumb Code    82  hc32_ll_efm.o(i.EFM_SingleSectorOperateCmd)
    EXTINT00_SWINT16_Handler                 0x000032e1   Thumb Code    42  ev_hc32f334_lqfp64.o(i.EXTINT00_SWINT16_Handler)
    EXTINT03_SWINT19_Handler                 0x00003311   Thumb Code    42  ev_hc32f334_lqfp64.o(i.EXTINT03_SWINT19_Handler)
    EXTINT09_SWINT25_Handler                 0x00003341   Thumb Code    46  ev_hc32f334_lqfp64.o(i.EXTINT09_SWINT25_Handler)
    EXTINT_ClearExtIntStatus                 0x00003375   Thumb Code    26  hc32_ll_interrupts.o(i.EXTINT_ClearExtIntStatus)
    ExternEventConfig                        0x000033c9   Thumb Code   176  hrtimer.o(i.ExternEventConfig)
    FCG_Fcg0PeriphClockCmd                   0x000034ad   Thumb Code    74  hc32_ll_fcg.o(i.FCG_Fcg0PeriphClockCmd)
    FCG_Fcg2PeriphClockCmd                   0x0000352d   Thumb Code    52  hc32_ll_fcg.o(i.FCG_Fcg2PeriphClockCmd)
    FCG_Fcg3PeriphClockCmd                   0x00003595   Thumb Code    52  hc32_ll_fcg.o(i.FCG_Fcg3PeriphClockCmd)
    GPIO_AnalogCmd                           0x000035fd   Thumb Code   122  hc32_ll_gpio.o(i.GPIO_AnalogCmd)
    GPIO_HrpwmPinCmd                         0x000036b1   Thumb Code    74  hc32_ll_gpio.o(i.GPIO_HrpwmPinCmd)
    GPIO_Init                                0x00003735   Thumb Code   472  hc32_ll_gpio.o(i.GPIO_Init)
    GPIO_ReadInputPins                       0x00003945   Thumb Code    66  hc32_ll_gpio.o(i.GPIO_ReadInputPins)
    GPIO_ResetPins                           0x000039b9   Thumb Code    58  hc32_ll_gpio.o(i.GPIO_ResetPins)
    GPIO_SetDebugPort                        0x00003a29   Thumb Code    84  hc32_ll_gpio.o(i.GPIO_SetDebugPort)
    GPIO_SetFunc                             0x00003ab5   Thumb Code   138  hc32_ll_gpio.o(i.GPIO_SetFunc)
    GPIO_SetPins                             0x00003b79   Thumb Code    58  hc32_ll_gpio.o(i.GPIO_SetPins)
    GPIO_SetReadWaitCycle                    0x00003be9   Thumb Code    96  hc32_ll_gpio.o(i.GPIO_SetReadWaitCycle)
    GPIO_StructInit                          0x00003c81   Thumb Code    42  hc32_ll_gpio.o(i.GPIO_StructInit)
    GPIO_TogglePins                          0x00003cad   Thumb Code    58  hc32_ll_gpio.o(i.GPIO_TogglePins)
    Gpio_Init                                0x00003d1d   Thumb Code   428  hc32f334_drivers.o(i.Gpio_Init)
    HRPWM_BufStructInit                      0x00003ec9   Thumb Code    18  hc32_ll_hrpwm.o(i.HRPWM_BufStructInit)
    HRPWM_CALIB_ProcessSingle                0x00003edd   Thumb Code   152  hc32_ll_hrpwm.o(i.HRPWM_CALIB_ProcessSingle)
    HRPWM_DeInit                             0x00003f81   Thumb Code   364  hc32_ll_hrpwm.o(i.HRPWM_DeInit)
    HRPWM_DeadTimeBufConfig                  0x00004129   Thumb Code   202  hc32_ll_hrpwm.o(i.HRPWM_DeadTimeBufConfig)
    HRPWM_DeadTimeConfig                     0x00004229   Thumb Code   176  hc32_ll_hrpwm.o(i.HRPWM_DeadTimeConfig)
    HRPWM_DeadTimeStructInit                 0x00004365   Thumb Code    18  hc32_ll_hrpwm.o(i.HRPWM_DeadTimeStructInit)
    HRPWM_EMB_ChAConfig                      0x000043d5   Thumb Code   230  hc32_ll_hrpwm.o(i.HRPWM_EMB_ChAConfig)
    HRPWM_EMB_ChBConfig                      0x000044ed   Thumb Code   230  hc32_ll_hrpwm.o(i.HRPWM_EMB_ChBConfig)
    HRPWM_EMB_StructInit                     0x00004605   Thumb Code    18  hc32_ll_hrpwm.o(i.HRPWM_EMB_StructInit)
    HRPWM_EVT_Config                         0x00004619   Thumb Code   440  hc32_ll_hrpwm.o(i.HRPWM_EVT_Config)
    HRPWM_EVT_FilterConfig                   0x00004805   Thumb Code   310  hc32_ll_hrpwm.o(i.HRPWM_EVT_FilterConfig)
    HRPWM_EVT_FilterSignalConfig             0x0000496d   Thumb Code   230  hc32_ll_hrpwm.o(i.HRPWM_EVT_FilterSignalConfig)
    HRPWM_EVT_FilterSignalStructInit         0x00004a85   Thumb Code    22  hc32_ll_hrpwm.o(i.HRPWM_EVT_FilterSignalStructInit)
    HRPWM_EVT_FilterStructInit               0x00004a9b   Thumb Code    18  hc32_ll_hrpwm.o(i.HRPWM_EVT_FilterStructInit)
    HRPWM_EVT_StructInit                     0x00004aad   Thumb Code    26  hc32_ll_hrpwm.o(i.HRPWM_EVT_StructInit)
    HRPWM_GeneralAEBufConfig                 0x00004b25   Thumb Code   202  hc32_ll_hrpwm.o(i.HRPWM_GeneralAEBufConfig)
    HRPWM_GeneralBFBufConfig                 0x00004c81   Thumb Code   202  hc32_ll_hrpwm.o(i.HRPWM_GeneralBFBufConfig)
    HRPWM_IDLE_BM_Init                       0x00004ddd   Thumb Code   336  hc32_ll_hrpwm.o(i.HRPWM_IDLE_BM_Init)
    HRPWM_IDLE_BM_OutputInit                 0x00004f6d   Thumb Code   236  hc32_ll_hrpwm.o(i.HRPWM_IDLE_BM_OutputInit)
    HRPWM_IDLE_BM_OutputStructInit           0x00005095   Thumb Code    24  hc32_ll_hrpwm.o(i.HRPWM_IDLE_BM_OutputStructInit)
    HRPWM_IDLE_BM_StructInit                 0x000050ad   Thumb Code    28  hc32_ll_hrpwm.o(i.HRPWM_IDLE_BM_StructInit)
    HRPWM_IDLE_DELAY_Init                    0x00005125   Thumb Code   252  hc32_ll_hrpwm.o(i.HRPWM_IDLE_DELAY_Init)
    HRPWM_IDLE_DELAY_StructInit              0x00005259   Thumb Code    20  hc32_ll_hrpwm.o(i.HRPWM_IDLE_DELAY_StructInit)
    HRPWM_Init                               0x0000535d   Thumb Code   160  hc32_ll_hrpwm.o(i.HRPWM_Init)
    HRPWM_PH_Config                          0x000054dd   Thumb Code   188  hc32_ll_hrpwm.o(i.HRPWM_PH_Config)
    HRPWM_PH_StructInit                      0x00005619   Thumb Code    20  hc32_ll_hrpwm.o(i.HRPWM_PH_StructInit)
    HRPWM_PWM_ChAInit                        0x0000562d   Thumb Code   728  hc32_ll_hrpwm.o(i.HRPWM_PWM_ChAInit)
    HRPWM_PWM_ChBInit                        0x00005995   Thumb Code   726  hc32_ll_hrpwm.o(i.HRPWM_PWM_ChBInit)
    HRPWM_PWM_StructInit                     0x00005cf9   Thumb Code    48  hc32_ll_hrpwm.o(i.HRPWM_PWM_StructInit)
    HRPWM_PeriodBufConfig                    0x00005d2d   Thumb Code   202  hc32_ll_hrpwm.o(i.HRPWM_PeriodBufConfig)
    HRPWM_SpecialABufConfig                  0x000062bd   Thumb Code   202  hc32_ll_hrpwm.o(i.HRPWM_SpecialABufConfig)
    HRPWM_SpecialBBufConfig                  0x00006419   Thumb Code   202  hc32_ll_hrpwm.o(i.HRPWM_SpecialBBufConfig)
    HRPWM_StructInit                         0x00006575   Thumb Code    22  hc32_ll_hrpwm.o(i.HRPWM_StructInit)
    HRTIM_BM_Conf                            0x00006591   Thumb Code   180  hrtimer.o(i.HRTIM_BM_Conf)
    HRTIM_Config                             0x0000665d   Thumb Code  2324  hrtimer.o(i.HRTIM_Config)
    HRTIM_IDLE_Conf                          0x00006f75   Thumb Code   236  hrtimer.o(i.HRTIM_IDLE_Conf)
    IRQ000_Handler                           0x00007079   Thumb Code    14  hc32_ll_interrupts.o(i.IRQ000_Handler)
    IRQ001_Handler                           0x0000708d   Thumb Code    14  hc32_ll_interrupts.o(i.IRQ001_Handler)
    IRQ002_Handler                           0x000070a1   Thumb Code    14  hc32_ll_interrupts.o(i.IRQ002_Handler)
    IRQ003_Handler                           0x000070b5   Thumb Code    14  hc32_ll_interrupts.o(i.IRQ003_Handler)
    IRQ004_Handler                           0x000070c9   Thumb Code    14  hc32_ll_interrupts.o(i.IRQ004_Handler)
    IRQ005_Handler                           0x000070dd   Thumb Code    14  hc32_ll_interrupts.o(i.IRQ005_Handler)
    IRQ006_Handler                           0x000070f1   Thumb Code    14  hc32_ll_interrupts.o(i.IRQ006_Handler)
    IRQ007_Handler                           0x00007105   Thumb Code    14  hc32_ll_interrupts.o(i.IRQ007_Handler)
    IRQ008_Handler                           0x00007119   Thumb Code    14  hc32_ll_interrupts.o(i.IRQ008_Handler)
    IRQ009_Handler                           0x0000712d   Thumb Code    14  hc32_ll_interrupts.o(i.IRQ009_Handler)
    IRQ010_Handler                           0x00007141   Thumb Code    14  hc32_ll_interrupts.o(i.IRQ010_Handler)
    IRQ011_Handler                           0x00007155   Thumb Code    14  hc32_ll_interrupts.o(i.IRQ011_Handler)
    IRQ012_Handler                           0x00007169   Thumb Code    14  hc32_ll_interrupts.o(i.IRQ012_Handler)
    IRQ013_Handler                           0x0000717d   Thumb Code    14  hc32_ll_interrupts.o(i.IRQ013_Handler)
    IRQ014_Handler                           0x00007191   Thumb Code    14  hc32_ll_interrupts.o(i.IRQ014_Handler)
    IRQ015_Handler                           0x000071a5   Thumb Code    14  hc32_ll_interrupts.o(i.IRQ015_Handler)
    Inter2Asciix                             0x000071b9   Thumb Code   200  main.o(i.Inter2Asciix)
    LLC_CmpConfig                            0x00007289   Thumb Code   160  hc32f334_drivers.o(i.LLC_CmpConfig)
    LL_PERIPH_WE                             0x00007335   Thumb Code   118  hc32_ll.o(i.LL_PERIPH_WE)
    LedDriverMang                            0x000073c9   Thumb Code   302  main.o(i.LedDriverMang)
    LogoDataUpdate                           0x00007501   Thumb Code   380  main.o(i.LogoDataUpdate)
    SwFualtCheck                             0x00007879   Thumb Code   538  main.o(i.SwFualtCheck)
    SystemCoreClockUpdate                    0x00007a9d   Thumb Code   122  system_hc32f334.o(i.SystemCoreClockUpdate)
    SystemInit                               0x00007b35   Thumb Code    24  system_hc32f334.o(i.SystemInit)
    TMR0_Init                                0x00007b55   Thumb Code   264  hc32_ll_tmr0.o(i.TMR0_Init)
    TMR0_Start                               0x00007c8d   Thumb Code    80  hc32_ll_tmr0.o(i.TMR0_Start)
    TMR0_StructInit                          0x00007d0d   Thumb Code    30  hc32_ll_tmr0.o(i.TMR0_StructInit)
    TMR6_1_SCmp_Handler                      0x00007d85   Thumb Code    32  hrtimer.o(i.TMR6_1_SCmp_Handler)
    TMR6_2_IrqHandler                        0x00007dad   Thumb Code    46  hrtimer.o(i.TMR6_2_IrqHandler)
    TMR6_IrqHandler                          0x00007de5   Thumb Code    48  hrtimer.o(i.TMR6_IrqHandler)
    TMRA_Init                                0x00007e19   Thumb Code   320  hc32_ll_tmra.o(i.TMRA_Init)
    TMRA_PWM_Init                            0x00007fa1   Thumb Code   232  hc32_ll_tmra.o(i.TMRA_PWM_Init)
    TMRA_PWM_OutputCmd                       0x000080b9   Thumb Code   106  hc32_ll_tmra.o(i.TMRA_PWM_OutputCmd)
    TMRA_PWM_StructInit                      0x00008155   Thumb Code    30  hc32_ll_tmra.o(i.TMRA_PWM_StructInit)
    TMRA_SetCompareValue                     0x00008175   Thumb Code    78  hc32_ll_tmra.o(i.TMRA_SetCompareValue)
    TMRA_SetPeriodValue                      0x000081f5   Thumb Code    68  hc32_ll_tmra.o(i.TMRA_SetPeriodValue)
    TMRA_Start                               0x00008269   Thumb Code    76  hc32_ll_tmra.o(i.TMRA_Start)
    TMRA_StructInit                          0x000082e5   Thumb Code    32  hc32_ll_tmra.o(i.TMRA_StructInit)
    TemperatureBaseLookUpTable               0x00008305   Thumb Code    72  hc32f334_drivers.o(i.TemperatureBaseLookUpTable)
    TmrAConfig                               0x00008351   Thumb Code   142  hc32f334_drivers.o(i.TmrAConfig)
    USART2Config                             0x000083e5   Thumb Code    54  hc32f334_drivers.o(i.USART2Config)
    USART_FuncCmd                            0x00008421   Thumb Code   194  hc32_ll_usart.o(i.USART_FuncCmd)
    USART_GetStatus                          0x00008531   Thumb Code    84  hc32_ll_usart.o(i.USART_GetStatus)
    USART_SetBaudrate                        0x000085b9   Thumb Code  1476  hc32_ll_usart.o(i.USART_SetBaudrate)
    USART_UART_Init                          0x00008b81   Thumb Code   366  hc32_ll_usart.o(i.USART_UART_Init)
    USART_UART_StructInit                    0x00008d21   Thumb Code    44  hc32_ll_usart.o(i.USART_UART_StructInit)
    Usart2_TxEnable                          0x00008d4d   Thumb Code    48  hc32f334_drivers.o(i.Usart2_TxEnable)
    WDT_Config                               0x00008d89   Thumb Code    38  hc32f334_drivers.o(i.WDT_Config)
    WDT_FeedDog                              0x00008db1   Thumb Code    16  hc32_ll_wdt.o(i.WDT_FeedDog)
    WDT_Init                                 0x00008dc5   Thumb Code   272  hc32_ll_wdt.o(i.WDT_Init)
    __0printf$3                              0x00008f0d   Thumb Code    22  printf3.o(i.__0printf$3)
    __1printf$3                              0x00008f0d   Thumb Code     0  printf3.o(i.__0printf$3)
    __2printf                                0x00008f0d   Thumb Code     0  printf3.o(i.__0printf$3)
    __scatterload_copy                       0x00008f2d   Thumb Code    14  handlers.o(i.__scatterload_copy)
    __scatterload_null                       0x00008f3b   Thumb Code     2  handlers.o(i.__scatterload_null)
    __scatterload_zeroinit                   0x00008f3d   Thumb Code    14  handlers.o(i.__scatterload_zeroinit)
    fputc                                    0x00009105   Thumb Code    22  hc32_ll_utility.o(i.fputc)
    main                                     0x0000911d   Thumb Code  1392  main.o(i.main)
    u16Temperature                           0x000096b8   Data         322  hc32f334_drivers.o(.constdata)
    Region$$Table$$Base                      0x000097fc   Number         0  anon$$obj.o(Region$$Table)
    Region$$Table$$Limit                     0x0000981c   Number         0  anon$$obj.o(Region$$Table)
    SystemCoreClock                          0x1fffc000   Data           4  system_hc32f334.o(.bss.noinit)
    HRC_VALUE                                0x1fffc004   Data           4  system_hc32f334.o(.bss.noinit)
    int16Temp1ADCQ0                          0x1fffc018   Data           2  main.o(.data)
    int16Temp2ADCQ0                          0x1fffc01a   Data           2  main.o(.data)
    u16IsrDivdeCnt                           0x1fffc01c   Data           2  main.o(.data)
    SysPowerONState                          0x1fffc01e   Data           2  main.o(.data)
    u16VoltStoreIndex                        0x1fffc020   Data           2  main.o(.data)
    u16BM_EnableCounter                      0x1fffc022   Data           2  main.o(.data)
    u16BurstModeFlag                         0x1fffc024   Data           2  main.o(.data)
    u16SrModeFlag                            0x1fffc026   Data           2  main.o(.data)
    u16SrModeFlagPre                         0x1fffc028   Data           2  main.o(.data)
    u16OneTimeFlag                           0x1fffc02a   Data           2  main.o(.data)
    u16SysSM                                 0x1fffc02c   Data           2  main.o(.data)
    u16timerCnt                              0x1fffc02e   Data           2  main.o(.data)
    u8WorkEnable                             0x1fffc030   Data           2  main.o(.data)
    u8WorkEnable_USART                       0x1fffc032   Data           2  main.o(.data)
    sysFlagRtdb                              0x1fffc034   Data           2  main.o(.data)
    u16FanDuty                               0x1fffc036   Data           2  main.o(.data)
    u16FANPrd                                0x1fffc038   Data           2  main.o(.data)
    u16DebugDelayCNt                         0x1fffc03a   Data           2  main.o(.data)
    u16EepromWriteEnable                     0x1fffc03c   Data           2  main.o(.data)
    s16TempPhaseA                            0x1fffc03e   Data           2  main.o(.data)
    s16TempPhaseB                            0x1fffc040   Data           2  main.o(.data)
    s16TempPhaseAADC                         0x1fffc042   Data           2  main.o(.data)
    s16TempPhaseBADC                         0x1fffc044   Data           2  main.o(.data)
    s16TempPhaseASum                         0x1fffc046   Data           2  main.o(.data)
    s16TempPhaseBSum                         0x1fffc048   Data           2  main.o(.data)
    u16TempStoreCounter                      0x1fffc04a   Data           2  main.o(.data)
    int32VoutADCQ0                           0x1fffc070   Data           4  main.o(.data)
    int32IoutADCQ0                           0x1fffc074   Data           4  main.o(.data)
    int32VinADCQ0                            0x1fffc078   Data           4  main.o(.data)
    int32PriCurr1ADCQ0                       0x1fffc07c   Data           4  main.o(.data)
    int32PriCurr2ADCQ0                       0x1fffc080   Data           4  main.o(.data)
    int32VoutFilterADCQ0                     0x1fffc084   Data           4  main.o(.data)
    int32IoutFilterADCQ0                     0x1fffc088   Data           4  main.o(.data)
    int32IoutFilterADCQ0_PRE                 0x1fffc08c   Data           4  main.o(.data)
    int32VinFilterADCQ0                      0x1fffc090   Data           4  main.o(.data)
    int32PriCurr1FilterADCQ0                 0x1fffc094   Data           4  main.o(.data)
    int32PriCurr2FilterADCQ0                 0x1fffc098   Data           4  main.o(.data)
    int32VoutCalibADCQ0                      0x1fffc09c   Data           4  main.o(.data)
    int32IoutCalibADCQ0                      0x1fffc0a0   Data           4  main.o(.data)
    int32VinCalibADCQ0                       0x1fffc0a4   Data           4  main.o(.data)
    int32VoutRtdbQ11                         0x1fffc0a8   Data           4  main.o(.data)
    int32IoutRtdbQ11                         0x1fffc0ac   Data           4  main.o(.data)
    int32VinRtdbQ11                          0x1fffc0b0   Data           4  main.o(.data)
    int32VoutScaleQ11                        0x1fffc0b4   Data           4  main.o(.data)
    int32IoutScaleQ11                        0x1fffc0b8   Data           4  main.o(.data)
    int32VinScaleQ11                         0x1fffc0bc   Data           4  main.o(.data)
    s32SumPriCurr1                           0x1fffc0c0   Data           4  main.o(.data)
    s32SumPriCurr2                           0x1fffc0c4   Data           4  main.o(.data)
    int32VoutCalibGainQ11                    0x1fffc0c8   Data           4  main.o(.data)
    int32VoutCalibOffsentQ11                 0x1fffc0cc   Data           4  main.o(.data)
    int32IoutCalibGainQ11                    0x1fffc0d0   Data           4  main.o(.data)
    int32IoutCalibOffsentQ11                 0x1fffc0d4   Data           4  main.o(.data)
    int32VinCalibGainQ11                     0x1fffc0d8   Data           4  main.o(.data)
    int32VinCalibOffsentQ11                  0x1fffc0dc   Data           4  main.o(.data)
    int32VoutSetADCQ0                        0x1fffc0e0   Data           4  main.o(.data)
    int32IoutSetADCQ0                        0x1fffc0e4   Data           4  main.o(.data)
    int32VoutSlewQ0                          0x1fffc0e8   Data           4  main.o(.data)
    int32IoutSlewQ0                          0x1fffc0ec   Data           4  main.o(.data)
    int32IoutLimitQ0                         0x1fffc0f0   Data           4  main.o(.data)
    int32FreLimitQ0                          0x1fffc0f4   Data           4  main.o(.data)
    u32Faultflag                             0x1fffc0f8   Data           4  main.o(.data)
    int32VoltErr                             0x1fffc0fc   Data           4  main.o(.data)
    int32CurrErr                             0x1fffc100   Data           4  main.o(.data)
    int32PriCurrErr                          0x1fffc104   Data           4  main.o(.data)
    int32PriCurrCtrlOut                      0x1fffc108   Data           4  main.o(.data)
    int32CtrlOut                             0x1fffc10c   Data           4  main.o(.data)
    int32EpwmPrdUpdate                       0x1fffc110   Data           4  main.o(.data)
    int32EPWM1DT_UP                          0x1fffc114   Data           4  main.o(.data)
    int32EPWM1DT_DOWN                        0x1fffc118   Data           4  main.o(.data)
    int32EPWM4DT_UP                          0x1fffc11c   Data           4  main.o(.data)
    int32EPWM4DT_DOWN                        0x1fffc120   Data           4  main.o(.data)
    int32P1Phase                             0x1fffc124   Data           4  main.o(.data)
    int32P2Phase                             0x1fffc128   Data           4  main.o(.data)
    u32SystimerCnt                           0x1fffc12c   Data           4  main.o(.data)
    u32SysCurrTimerCnt                       0x1fffc130   Data           4  main.o(.data)
    u32SysTask300USCnt                       0x1fffc134   Data           4  main.o(.data)
    u32SysTask1MSCnt                         0x1fffc138   Data           4  main.o(.data)
    u32SysTask5MSCnt                         0x1fffc13c   Data           4  main.o(.data)
    u32SysTimer1SCnt                         0x1fffc140   Data           4  main.o(.data)
    u32HrPWMDTU1                             0x1fffc144   Data           4  main.o(.data)
    u32HrPWMDTU2                             0x1fffc148   Data           4  main.o(.data)
    u32HrPWMDTU5                             0x1fffc14c   Data           4  main.o(.data)
    u32HrPWMDTD1                             0x1fffc150   Data           4  main.o(.data)
    u32HrPWMDTD5                             0x1fffc154   Data           4  main.o(.data)
    u32HrpwmPhase1                           0x1fffc158   Data           4  main.o(.data)
    u32HrpwmPhase2                           0x1fffc15c   Data           4  main.o(.data)
    u32HrpwmPhase3                           0x1fffc160   Data           4  main.o(.data)
    u32HrpwmPhase4                           0x1fffc164   Data           4  main.o(.data)
    u32HrpwmPhase5                           0x1fffc168   Data           4  main.o(.data)
    u32HrpwmCMPA                             0x1fffc16c   Data           4  main.o(.data)
    u32HrpwmCMPA_U3                          0x1fffc170   Data           4  main.o(.data)
    u32HrpwmCMPB_U3                          0x1fffc174   Data           4  main.o(.data)
    u32HrpwmCMPE_U3                          0x1fffc178   Data           4  main.o(.data)
    u32HrpwmCMPF_U3                          0x1fffc17c   Data           4  main.o(.data)
    s32SRDuty                                0x1fffc180   Data           4  main.o(.data)
    s32EepromTempData                        0x1fffc184   Data           4  main.o(.data)
    cmpcnt                                   0x1fffc188   Data           2  hrtimer.o(.data)
    u32ChyTest0601                           0x1fffc18c   Data           4  hrtimer.o(.data)
    m_au8TxBuf                               0x1fffc194   Data         128  hc32f334_drivers.o(.data)
    __stdout                                 0x1fffc214   Data           4  stdout.o(.data)
    int32VoltAdcBuffer                       0x1fffc258   Data          64  main.o(.bss)
    VloopCtrl                                0x1fffc298   Data          56  main.o(.bss)
    CloopCtrl                                0x1fffc2d0   Data          56  main.o(.bss)
    m_au8RxBuf                               0x1fffc308   Data          64  hc32f334_drivers.o(.bss)
    __initial_sp                             0x1fffcf48   Data           0  startup_hc32f334.o(STACK)



==============================================================================

Memory Map of the image

  Image Entry point : 0x00000289

  Load Region LR_IROM1 (Base: 0x00000000, Size: 0x00009a2c, Max: 0x0000ffff, ABSOLUTE, COMPRESSED[0x00009870])

    Execution Region ER_IROM1 (Exec base: 0x00000000, Load base: 0x00000000, Size: 0x0000981c, Max: 0x0000ffff, ABSOLUTE)

    Exec Addr    Load Addr    Size         Type   Attr      Idx    E Section Name        Object

    0x00000000   0x00000000   0x00000288   Data   RO            3    RESET               startup_hc32f334.o
    0x00000288   0x00000288   0x00000000   Code   RO         7273  * .ARM.Collect$$$$00000000  mc_w.l(entry.o)
    0x00000288   0x00000288   0x00000004   Code   RO         7549    .ARM.Collect$$$$00000001  mc_w.l(entry2.o)
    0x0000028c   0x0000028c   0x00000004   Code   RO         7552    .ARM.Collect$$$$00000004  mc_w.l(entry5.o)
    0x00000290   0x00000290   0x00000000   Code   RO         7554    .ARM.Collect$$$$00000008  mc_w.l(entry7b.o)
    0x00000290   0x00000290   0x00000000   Code   RO         7556    .ARM.Collect$$$$0000000A  mc_w.l(entry8b.o)
    0x00000290   0x00000290   0x00000008   Code   RO         7557    .ARM.Collect$$$$0000000B  mc_w.l(entry9a.o)
    0x00000298   0x00000298   0x00000004   Code   RO         7564    .ARM.Collect$$$$0000000E  mc_w.l(entry12b.o)
    0x0000029c   0x0000029c   0x00000000   Code   RO         7559    .ARM.Collect$$$$0000000F  mc_w.l(entry10a.o)
    0x0000029c   0x0000029c   0x00000000   Code   RO         7561    .ARM.Collect$$$$00000011  mc_w.l(entry11a.o)
    0x0000029c   0x0000029c   0x00000004   Code   RO         7550    .ARM.Collect$$$$00002712  mc_w.l(entry2.o)
    0x000002a0   0x000002a0   0x00000024   Code   RO            4    .text               startup_hc32f334.o
    0x000002c4   0x000002c4   0x00000062   Code   RO         7276    .text               mc_w.l(uldiv.o)
    0x00000326   0x00000326   0x0000001e   Code   RO         7278    .text               mc_w.l(llshl.o)
    0x00000344   0x00000344   0x0000001a   Code   RO         7543    .text               mf_w.l(dfltui.o)
    0x0000035e   0x0000035e   0x00000018   Code   RO         7545    .text               mf_w.l(dfltul.o)
    0x00000376   0x00000376   0x00000038   Code   RO         7547    .text               mf_w.l(d2f.o)
    0x000003ae   0x000003ae   0x0000002c   Code   RO         7566    .text               mc_w.l(uidiv.o)
    0x000003da   0x000003da   0x00000020   Code   RO         7568    .text               mc_w.l(llushr.o)
    0x000003fa   0x000003fa   0x00000000   Code   RO         7570    .text               mc_w.l(iusefp.o)
    0x000003fa   0x000003fa   0x00000002   Code   RO         7018    i.BSP_KEY_KEY1_IrqCallback  ev_hc32f334_lqfp64.o
    0x000003fc   0x000003fc   0x00000002   Code   RO         7019    i.BSP_KEY_KEY2_IrqCallback  ev_hc32f334_lqfp64.o
    0x000003fe   0x000003fe   0x00000002   Code   RO         7020    i.BSP_KEY_KEY3_IrqCallback  ev_hc32f334_lqfp64.o
    0x00000400   0x00000400   0x00000060   Data   RO           84    .ARM.__AT_0x00000400  hc32_ll_icg.o
    0x00000460   0x00000460   0x000000de   Code   RO         7541    .text               mf_w.l(ddiv.o)
    0x0000053e   0x0000053e   0x0000006e   Code   RO         7571    .text               mf_w.l(fepilogue.o)
    0x000005ac   0x000005ac   0x000000ba   Code   RO         7573    .text               mf_w.l(depilogue.o)
    0x00000666   0x00000666   0x00000002   PAD
    0x00000668   0x00000668   0x00000024   Code   RO         7583    .text               mc_w.l(init.o)
    0x0000068c   0x0000068c   0x00000056   Code   RO         7595    .text               mc_w.l(__dczerorl2.o)
    0x000006e2   0x000006e2   0x00000002   PAD
    0x000006e4   0x000006e4   0x00000558   Code   RO         6575    i.ADC1_Handler      main.o
    0x00000c3c   0x00000c3c   0x000000ac   Code   RO          267    i.ADC_ChCmd         hc32_ll_adc.o
    0x00000ce8   0x00000ce8   0x000000bc   Code   RO          268    i.ADC_ChRemap       hc32_ll_adc.o
    0x00000da4   0x00000da4   0x000000c0   Code   RO          279    i.ADC_Init          hc32_ll_adc.o
    0x00000e64   0x00000e64   0x00000090   Code   RO          280    i.ADC_IntCmd        hc32_ll_adc.o
    0x00000ef4   0x00000ef4   0x00000012   Code   RO          290    i.ADC_StructInit    hc32_ll_adc.o
    0x00000f06   0x00000f06   0x00000002   PAD
    0x00000f08   0x00000f08   0x00000094   Code   RO          293    i.ADC_TriggerCmd    hc32_ll_adc.o
    0x00000f9c   0x00000f9c   0x0000009c   Code   RO          294    i.ADC_TriggerConfig  hc32_ll_adc.o
    0x00001038   0x00001038   0x00000164   Code   RO         7154    i.ADCx_Init         hc32f334_drivers.o
    0x0000119c   0x0000119c   0x00000190   Code   RO          526    i.AOS_SetTriggerEventSrc  hc32_ll_aos.o
    0x0000132c   0x0000132c   0x000000a8   Code   RO         7010    i.BSP_CLK_Init      ev_hc32f334_lqfp64.o
    0x000013d4   0x000013d4   0x00000054   Code   RO          564    i.CLK_GetStableStatus  hc32_ll_clk.o
    0x00001428   0x00001428   0x000000b4   Code   RO          574    i.CLK_PLLCmd        hc32_ll_clk.o
    0x000014dc   0x000014dc   0x000001d4   Code   RO          575    i.CLK_PLLInit       hc32_ll_clk.o
    0x000016b0   0x000016b0   0x00000034   Code   RO          576    i.CLK_PLLStructInit  hc32_ll_clk.o
    0x000016e4   0x000016e4   0x0000000e   Code   RO          578    i.CLK_SetClockDiv   hc32_ll_clk.o
    0x000016f2   0x000016f2   0x00000002   PAD
    0x000016f4   0x000016f4   0x000000c8   Code   RO          581    i.CLK_SetSysClockSrc  hc32_ll_clk.o
    0x000017bc   0x000017bc   0x0000004c   Code   RO          585    i.CLK_WaitStable    hc32_ll_clk.o
    0x00001808   0x00001808   0x000000a4   Code   RO          589    i.CLK_XtalCmd       hc32_ll_clk.o
    0x000018ac   0x000018ac   0x000000f8   Code   RO          593    i.CLK_XtalInit      hc32_ll_clk.o
    0x000019a4   0x000019a4   0x0000001e   Code   RO          596    i.CLK_XtalStructInit  hc32_ll_clk.o
    0x000019c2   0x000019c2   0x00000002   PAD
    0x000019c4   0x000019c4   0x0000007c   Code   RO          809    i.CMP_CompareOutCmd  hc32_ll_cmp.o
    0x00001a40   0x00001a40   0x00000040   Code   RO          811    i.CMP_DelayUS       hc32_ll_cmp.o
    0x00001a80   0x00001a80   0x00000164   Code   RO          818    i.CMP_NormalModeInit  hc32_ll_cmp.o
    0x00001be4   0x00001be4   0x0000007c   Code   RO          819    i.CMP_PinVcoutCmd   hc32_ll_cmp.o
    0x00001c60   0x00001c60   0x00000018   Code   RO          832    i.CMP_StructInit    hc32_ll_cmp.o
    0x00001c78   0x00001c78   0x000000bc   Code   RO         7155    i.CalibrationRead   hc32f334_drivers.o
    0x00001d34   0x00001d34   0x00000084   Code   RO         7156    i.CalibrationWrite  hc32f334_drivers.o
    0x00001db8   0x00001db8   0x00000090   Code   RO         6577    i.ControllerInit    main.o
    0x00001e48   0x00001e48   0x00000040   Code   RO         7157    i.Ctrl_TMR0_Config  hc32f334_drivers.o
    0x00001e88   0x00001e88   0x00000070   Code   RO         1217    i.DAC_ADCPrioCmd    hc32_ll_dac.o
    0x00001ef8   0x00001ef8   0x00000080   Code   RO         1218    i.DAC_ADCPrioConfig  hc32_ll_dac.o
    0x00001f78   0x00001f78   0x00000074   Code   RO         1220    i.DAC_DataRegAlignConfig  hc32_ll_dac.o
    0x00001fec   0x00001fec   0x000000dc   Code   RO         1221    i.DAC_DeInit        hc32_ll_dac.o
    0x000020c8   0x000020c8   0x000000c8   Code   RO         1224    i.DAC_Init          hc32_ll_dac.o
    0x00002190   0x00002190   0x000000a4   Code   RO         1225    i.DAC_OutputCmd     hc32_ll_dac.o
    0x00002234   0x00002234   0x000000a4   Code   RO         1226    i.DAC_SetChData     hc32_ll_dac.o
    0x000022d8   0x000022d8   0x00000098   Code   RO         1228    i.DAC_SetDualChData  hc32_ll_dac.o
    0x00002370   0x00002370   0x0000009c   Code   RO         1229    i.DAC_Start         hc32_ll_dac.o
    0x0000240c   0x0000240c   0x00000050   Code   RO         1230    i.DAC_StartDualCh   hc32_ll_dac.o
    0x0000245c   0x0000245c   0x00000014   Code   RO         1233    i.DAC_StructInit    hc32_ll_dac.o
    0x00002470   0x00002470   0x000000d0   Code   RO         7158    i.DACx_ConversionInit  hc32f334_drivers.o
    0x00002540   0x00002540   0x00000040   Code   RO         6437    i.DDL_AssertHandler  hc32_ll_utility.o
    0x00002580   0x00002580   0x0000004c   Code   RO         6438    i.DDL_ConsoleOutputChar  hc32_ll_utility.o
    0x000025cc   0x000025cc   0x00000044   Code   RO         6439    i.DDL_DelayMS       hc32_ll_utility.o
    0x00002610   0x00002610   0x00000044   Code   RO         6440    i.DDL_DelayUS       hc32_ll_utility.o
    0x00002654   0x00002654   0x00000078   Code   RO         1401    i.DMA_ChCmd         hc32_ll_dma.o
    0x000026cc   0x000026cc   0x0000005c   Code   RO         1403    i.DMA_ClearTransCompleteStatus  hc32_ll_dma.o
    0x00002728   0x00002728   0x0000005c   Code   RO         1404    i.DMA_Cmd           hc32_ll_dma.o
    0x00002784   0x00002784   0x00000108   Code   RO         7159    i.DMA_Config        hc32f334_drivers.o
    0x0000288c   0x0000288c   0x00000050   Code   RO         1418    i.DMA_GetTransCompleteStatus  hc32_ll_dma.o
    0x000028dc   0x000028dc   0x00000114   Code   RO         1421    i.DMA_Init          hc32_ll_dma.o
    0x000029f0   0x000029f0   0x000000cc   Code   RO         1435    i.DMA_RepeatInit    hc32_ll_dma.o
    0x00002abc   0x00002abc   0x00000018   Code   RO         1436    i.DMA_RepeatStructInit  hc32_ll_dma.o
    0x00002ad4   0x00002ad4   0x00000060   Code   RO         1447    i.DMA_SetSrcAddr    hc32_ll_dma.o
    0x00002b34   0x00002b34   0x00000068   Code   RO         1449    i.DMA_SetTransCount  hc32_ll_dma.o
    0x00002b9c   0x00002b9c   0x00000024   Code   RO         1450    i.DMA_StructInit    hc32_ll_dma.o
    0x00002bc0   0x00002bc0   0x00000064   Code   RO         1732    i.EFM_CacheRamReset  hc32_ll_efm.o
    0x00002c24   0x00002c24   0x0000003c   Code   RO         1733    i.EFM_ClearStatus   hc32_ll_efm.o
    0x00002c60   0x00002c60   0x00000064   Code   RO         1735    i.EFM_DCacheCmd     hc32_ll_efm.o
    0x00002cc4   0x00002cc4   0x00000060   Code   RO         1736    i.EFM_FWMC_Cmd      hc32_ll_efm.o
    0x00002d24   0x00002d24   0x00000058   Code   RO         1741    i.EFM_GetStatus     hc32_ll_efm.o
    0x00002d7c   0x00002d7c   0x00000064   Code   RO         1745    i.EFM_ICacheCmd     hc32_ll_efm.o
    0x00002de0   0x00002de0   0x00000064   Code   RO         1752    i.EFM_PrefetchCmd   hc32_ll_efm.o
    0x00002e44   0x00002e44   0x0000012c   Code   RO         1754    i.EFM_ProgramWord   hc32_ll_efm.o
    0x00002f70   0x00002f70   0x000000e0   Code   RO         1763    i.EFM_ReadByte      hc32_ll_efm.o
    0x00003050   0x00003050   0x0000011c   Code   RO         1764    i.EFM_SectorErase   hc32_ll_efm.o
    0x0000316c   0x0000316c   0x000000ac   Code   RO         1769    i.EFM_SetWaitCycle  hc32_ll_efm.o
    0x00003218   0x00003218   0x00000060   Code   RO         1770    i.EFM_SingleSectorOperateCmd  hc32_ll_efm.o
    0x00003278   0x00003278   0x00000068   Code   RO         1772    i.EFM_WaitFlag      hc32_ll_efm.o
    0x000032e0   0x000032e0   0x00000030   Code   RO         7027    i.EXTINT00_SWINT16_Handler  ev_hc32f334_lqfp64.o
    0x00003310   0x00003310   0x00000030   Code   RO         7028    i.EXTINT03_SWINT19_Handler  ev_hc32f334_lqfp64.o
    0x00003340   0x00003340   0x00000034   Code   RO         7029    i.EXTINT09_SWINT25_Handler  ev_hc32f334_lqfp64.o
    0x00003374   0x00003374   0x00000054   Code   RO         3138    i.EXTINT_ClearExtIntStatus  hc32_ll_interrupts.o
    0x000033c8   0x000033c8   0x000000e4   Code   RO         6737    i.ExternEventConfig  hrtimer.o
    0x000034ac   0x000034ac   0x00000080   Code   RO         2186    i.FCG_Fcg0PeriphClockCmd  hc32_ll_fcg.o
    0x0000352c   0x0000352c   0x00000068   Code   RO         2188    i.FCG_Fcg2PeriphClockCmd  hc32_ll_fcg.o
    0x00003594   0x00003594   0x00000068   Code   RO         2189    i.FCG_Fcg3PeriphClockCmd  hc32_ll_fcg.o
    0x000035fc   0x000035fc   0x000000b4   Code   RO         2333    i.GPIO_AnalogCmd    hc32_ll_gpio.o
    0x000036b0   0x000036b0   0x00000084   Code   RO         2336    i.GPIO_HrpwmPinCmd  hc32_ll_gpio.o
    0x00003734   0x00003734   0x00000210   Code   RO         2338    i.GPIO_Init         hc32_ll_gpio.o
    0x00003944   0x00003944   0x00000074   Code   RO         2341    i.GPIO_ReadInputPins  hc32_ll_gpio.o
    0x000039b8   0x000039b8   0x00000070   Code   RO         2345    i.GPIO_ResetPins    hc32_ll_gpio.o
    0x00003a28   0x00003a28   0x0000008c   Code   RO         2346    i.GPIO_SetDebugPort  hc32_ll_gpio.o
    0x00003ab4   0x00003ab4   0x000000c4   Code   RO         2347    i.GPIO_SetFunc      hc32_ll_gpio.o
    0x00003b78   0x00003b78   0x00000070   Code   RO         2348    i.GPIO_SetPins      hc32_ll_gpio.o
    0x00003be8   0x00003be8   0x00000098   Code   RO         2349    i.GPIO_SetReadWaitCycle  hc32_ll_gpio.o
    0x00003c80   0x00003c80   0x0000002a   Code   RO         2351    i.GPIO_StructInit   hc32_ll_gpio.o
    0x00003caa   0x00003caa   0x00000002   PAD
    0x00003cac   0x00003cac   0x00000070   Code   RO         2353    i.GPIO_TogglePins   hc32_ll_gpio.o
    0x00003d1c   0x00003d1c   0x000001ac   Code   RO         7162    i.Gpio_Init         hc32f334_drivers.o
    0x00003ec8   0x00003ec8   0x00000012   Code   RO         2488    i.HRPWM_BufStructInit  hc32_ll_hrpwm.o
    0x00003eda   0x00003eda   0x00000002   PAD
    0x00003edc   0x00003edc   0x000000a4   Code   RO         2490    i.HRPWM_CALIB_ProcessSingle  hc32_ll_hrpwm.o
    0x00003f80   0x00003f80   0x000001a8   Code   RO         2495    i.HRPWM_DeInit      hc32_ll_hrpwm.o
    0x00004128   0x00004128   0x00000100   Code   RO         2496    i.HRPWM_DeadTimeBufConfig  hc32_ll_hrpwm.o
    0x00004228   0x00004228   0x000000e0   Code   RO         2497    i.HRPWM_DeadTimeConfig  hc32_ll_hrpwm.o
    0x00004308   0x00004308   0x0000005c   Code   RO         6739    i.HRPWM_DeadTimeDownBufEnable  hrtimer.o
    0x00004364   0x00004364   0x00000012   Code   RO         2498    i.HRPWM_DeadTimeStructInit  hc32_ll_hrpwm.o
    0x00004376   0x00004376   0x00000002   PAD
    0x00004378   0x00004378   0x0000005c   Code   RO         6740    i.HRPWM_DeadTimeUpBufEnable  hrtimer.o
    0x000043d4   0x000043d4   0x00000118   Code   RO         2499    i.HRPWM_EMB_ChAConfig  hc32_ll_hrpwm.o
    0x000044ec   0x000044ec   0x00000118   Code   RO         2501    i.HRPWM_EMB_ChBConfig  hc32_ll_hrpwm.o
    0x00004604   0x00004604   0x00000012   Code   RO         2503    i.HRPWM_EMB_StructInit  hc32_ll_hrpwm.o
    0x00004616   0x00004616   0x00000002   PAD
    0x00004618   0x00004618   0x000001ec   Code   RO         2504    i.HRPWM_EVT_Config  hc32_ll_hrpwm.o
    0x00004804   0x00004804   0x00000168   Code   RO         2505    i.HRPWM_EVT_FilterConfig  hc32_ll_hrpwm.o
    0x0000496c   0x0000496c   0x00000118   Code   RO         2506    i.HRPWM_EVT_FilterSignalConfig  hc32_ll_hrpwm.o
    0x00004a84   0x00004a84   0x00000016   Code   RO         2507    i.HRPWM_EVT_FilterSignalStructInit  hc32_ll_hrpwm.o
    0x00004a9a   0x00004a9a   0x00000012   Code   RO         2508    i.HRPWM_EVT_FilterStructInit  hc32_ll_hrpwm.o
    0x00004aac   0x00004aac   0x0000001a   Code   RO         2510    i.HRPWM_EVT_StructInit  hc32_ll_hrpwm.o
    0x00004ac6   0x00004ac6   0x00000002   PAD
    0x00004ac8   0x00004ac8   0x0000005c   Code   RO         6742    i.HRPWM_Enable      hrtimer.o
    0x00004b24   0x00004b24   0x00000100   Code   RO         2512    i.HRPWM_GeneralAEBufConfig  hc32_ll_hrpwm.o
    0x00004c24   0x00004c24   0x0000005c   Code   RO         6743    i.HRPWM_GeneralAEBufEnable  hrtimer.o
    0x00004c80   0x00004c80   0x00000100   Code   RO         2513    i.HRPWM_GeneralBFBufConfig  hc32_ll_hrpwm.o
    0x00004d80   0x00004d80   0x0000005c   Code   RO         6744    i.HRPWM_GeneralBFBufEnable  hrtimer.o
    0x00004ddc   0x00004ddc   0x00000190   Code   RO         2514    i.HRPWM_IDLE_BM_Init  hc32_ll_hrpwm.o
    0x00004f6c   0x00004f6c   0x00000128   Code   RO         2515    i.HRPWM_IDLE_BM_OutputInit  hc32_ll_hrpwm.o
    0x00005094   0x00005094   0x00000018   Code   RO         2516    i.HRPWM_IDLE_BM_OutputStructInit  hc32_ll_hrpwm.o
    0x000050ac   0x000050ac   0x0000001c   Code   RO         2517    i.HRPWM_IDLE_BM_StructInit  hc32_ll_hrpwm.o
    0x000050c8   0x000050c8   0x0000005c   Code   RO         6745    i.HRPWM_IDLE_DELAY_Enable  hrtimer.o
    0x00005124   0x00005124   0x00000134   Code   RO         2518    i.HRPWM_IDLE_DELAY_Init  hc32_ll_hrpwm.o
    0x00005258   0x00005258   0x00000014   Code   RO         2519    i.HRPWM_IDLE_DELAY_StructInit  hc32_ll_hrpwm.o
    0x0000526c   0x0000526c   0x00000078   Code   RO         6746    i.HRPWM_IDLE_SetChAIdleLevel  hrtimer.o
    0x000052e4   0x000052e4   0x00000078   Code   RO         6747    i.HRPWM_IDLE_SetChBIdleLevel  hrtimer.o
    0x0000535c   0x0000535c   0x000000d4   Code   RO         2520    i.HRPWM_Init        hc32_ll_hrpwm.o
    0x00005430   0x00005430   0x000000ac   Code   RO         6748    i.HRPWM_MatchSpecialEventEnable  hrtimer.o
    0x000054dc   0x000054dc   0x000000ec   Code   RO         2521    i.HRPWM_PH_Config   hc32_ll_hrpwm.o
    0x000055c8   0x000055c8   0x00000050   Code   RO         6749    i.HRPWM_PH_Enable   hrtimer.o
    0x00005618   0x00005618   0x00000014   Code   RO         2522    i.HRPWM_PH_StructInit  hc32_ll_hrpwm.o
    0x0000562c   0x0000562c   0x0000030c   Code   RO         2523    i.HRPWM_PWM_ChAInit  hc32_ll_hrpwm.o
    0x00005938   0x00005938   0x0000005c   Code   RO         6750    i.HRPWM_PWM_ChAOutputEnable  hrtimer.o
    0x00005994   0x00005994   0x00000308   Code   RO         2525    i.HRPWM_PWM_ChBInit  hc32_ll_hrpwm.o
    0x00005c9c   0x00005c9c   0x0000005c   Code   RO         6751    i.HRPWM_PWM_ChBOutputEnable  hrtimer.o
    0x00005cf8   0x00005cf8   0x00000034   Code   RO         2530    i.HRPWM_PWM_StructInit  hc32_ll_hrpwm.o
    0x00005d2c   0x00005d2c   0x00000100   Code   RO         2531    i.HRPWM_PeriodBufConfig  hc32_ll_hrpwm.o
    0x00005e2c   0x00005e2c   0x0000005c   Code   RO         6752    i.HRPWM_PeriodBufEnable  hrtimer.o
    0x00005e88   0x00005e88   0x00000070   Code   RO         6753    i.HRPWM_SetCompareAValue  hrtimer.o
    0x00005ef8   0x00005ef8   0x00000070   Code   RO         6754    i.HRPWM_SetCompareAValue_Buf  hrtimer.o
    0x00005f68   0x00005f68   0x00000070   Code   RO         6755    i.HRPWM_SetDeadTimeDownValue  hrtimer.o
    0x00005fd8   0x00005fd8   0x00000070   Code   RO         6756    i.HRPWM_SetDeadTimeDownValue_Buf  hrtimer.o
    0x00006048   0x00006048   0x00000070   Code   RO         6757    i.HRPWM_SetDeadTimeUpValue  hrtimer.o
    0x000060b8   0x000060b8   0x00000070   Code   RO         6758    i.HRPWM_SetDeadTimeUpValue_Buf  hrtimer.o
    0x00006128   0x00006128   0x0000006c   Code   RO         6759    i.HRPWM_SetPeriodValue  hrtimer.o
    0x00006194   0x00006194   0x0000006c   Code   RO         6760    i.HRPWM_SetPeriodValue_Buf  hrtimer.o
    0x00006200   0x00006200   0x000000bc   Code   RO         6761    i.HRPWM_SetUnitGlobalBufFlagSrc  hrtimer.o
    0x000062bc   0x000062bc   0x00000100   Code   RO         2534    i.HRPWM_SpecialABufConfig  hc32_ll_hrpwm.o
    0x000063bc   0x000063bc   0x0000005c   Code   RO         6762    i.HRPWM_SpecialABufEnable  hrtimer.o
    0x00006418   0x00006418   0x00000100   Code   RO         2535    i.HRPWM_SpecialBBufConfig  hc32_ll_hrpwm.o
    0x00006518   0x00006518   0x0000005c   Code   RO         6763    i.HRPWM_SpecialBBufEnable  hrtimer.o
    0x00006574   0x00006574   0x0000001c   Code   RO         2536    i.HRPWM_StructInit  hc32_ll_hrpwm.o
    0x00006590   0x00006590   0x000000cc   Code   RO         6765    i.HRTIM_BM_Conf     hrtimer.o
    0x0000665c   0x0000665c   0x00000918   Code   RO         6766    i.HRTIM_Config      hrtimer.o
    0x00006f74   0x00006f74   0x00000104   Code   RO         6767    i.HRTIM_IDLE_Conf   hrtimer.o
    0x00007078   0x00007078   0x00000014   Code   RO         3152    i.IRQ000_Handler    hc32_ll_interrupts.o
    0x0000708c   0x0000708c   0x00000014   Code   RO         3153    i.IRQ001_Handler    hc32_ll_interrupts.o
    0x000070a0   0x000070a0   0x00000014   Code   RO         3154    i.IRQ002_Handler    hc32_ll_interrupts.o
    0x000070b4   0x000070b4   0x00000014   Code   RO         3155    i.IRQ003_Handler    hc32_ll_interrupts.o
    0x000070c8   0x000070c8   0x00000014   Code   RO         3156    i.IRQ004_Handler    hc32_ll_interrupts.o
    0x000070dc   0x000070dc   0x00000014   Code   RO         3157    i.IRQ005_Handler    hc32_ll_interrupts.o
    0x000070f0   0x000070f0   0x00000014   Code   RO         3158    i.IRQ006_Handler    hc32_ll_interrupts.o
    0x00007104   0x00007104   0x00000014   Code   RO         3159    i.IRQ007_Handler    hc32_ll_interrupts.o
    0x00007118   0x00007118   0x00000014   Code   RO         3160    i.IRQ008_Handler    hc32_ll_interrupts.o
    0x0000712c   0x0000712c   0x00000014   Code   RO         3161    i.IRQ009_Handler    hc32_ll_interrupts.o
    0x00007140   0x00007140   0x00000014   Code   RO         3162    i.IRQ010_Handler    hc32_ll_interrupts.o
    0x00007154   0x00007154   0x00000014   Code   RO         3163    i.IRQ011_Handler    hc32_ll_interrupts.o
    0x00007168   0x00007168   0x00000014   Code   RO         3164    i.IRQ012_Handler    hc32_ll_interrupts.o
    0x0000717c   0x0000717c   0x00000014   Code   RO         3165    i.IRQ013_Handler    hc32_ll_interrupts.o
    0x00007190   0x00007190   0x00000014   Code   RO         3166    i.IRQ014_Handler    hc32_ll_interrupts.o
    0x000071a4   0x000071a4   0x00000014   Code   RO         3167    i.IRQ015_Handler    hc32_ll_interrupts.o
    0x000071b8   0x000071b8   0x000000d0   Code   RO         6579    i.Inter2Asciix      main.o
    0x00007288   0x00007288   0x000000ac   Code   RO         7163    i.LLC_CmpConfig     hc32f334_drivers.o
    0x00007334   0x00007334   0x00000094   Code   RO          112    i.LL_PERIPH_WE      hc32_ll.o
    0x000073c8   0x000073c8   0x00000138   Code   RO         6580    i.LedDriverMang     main.o
    0x00007500   0x00007500   0x00000184   Code   RO         6581    i.LogoDataUpdate    main.o
    0x00007684   0x00007684   0x000001f4   Code   RO          597    i.SetSysClockDiv    hc32_ll_clk.o
    0x00007878   0x00007878   0x00000224   Code   RO         6582    i.SwFualtCheck      main.o
    0x00007a9c   0x00007a9c   0x00000098   Code   RO           13    i.SystemCoreClockUpdate  system_hc32f334.o
    0x00007b34   0x00007b34   0x00000020   Code   RO           14    i.SystemInit        system_hc32f334.o
    0x00007b54   0x00007b54   0x00000138   Code   RO         4864    i.TMR0_Init         hc32_ll_tmr0.o
    0x00007c8c   0x00007c8c   0x00000080   Code   RO         4871    i.TMR0_Start        hc32_ll_tmr0.o
    0x00007d0c   0x00007d0c   0x0000001e   Code   RO         4873    i.TMR0_StructInit   hc32_ll_tmr0.o
    0x00007d2a   0x00007d2a   0x00000002   PAD
    0x00007d2c   0x00007d2c   0x00000058   Code   RO         4874    i.TMR0_WaitSyncDone  hc32_ll_tmr0.o
    0x00007d84   0x00007d84   0x00000028   Code   RO         6778    i.TMR6_1_SCmp_Handler  hrtimer.o
    0x00007dac   0x00007dac   0x00000038   Code   RO         6779    i.TMR6_2_IrqHandler  hrtimer.o
    0x00007de4   0x00007de4   0x00000034   Code   RO         6780    i.TMR6_IrqHandler   hrtimer.o
    0x00007e18   0x00007e18   0x00000188   Code   RO         5836    i.TMRA_Init         hc32_ll_tmra.o
    0x00007fa0   0x00007fa0   0x00000118   Code   RO         5838    i.TMRA_PWM_Init     hc32_ll_tmra.o
    0x000080b8   0x000080b8   0x0000009c   Code   RO         5839    i.TMRA_PWM_OutputCmd  hc32_ll_tmra.o
    0x00008154   0x00008154   0x0000001e   Code   RO         5842    i.TMRA_PWM_StructInit  hc32_ll_tmra.o
    0x00008172   0x00008172   0x00000002   PAD
    0x00008174   0x00008174   0x00000080   Code   RO         5845    i.TMRA_SetCompareValue  hc32_ll_tmra.o
    0x000081f4   0x000081f4   0x00000074   Code   RO         5851    i.TMRA_SetPeriodValue  hc32_ll_tmra.o
    0x00008268   0x00008268   0x0000007c   Code   RO         5853    i.TMRA_Start        hc32_ll_tmra.o
    0x000082e4   0x000082e4   0x00000020   Code   RO         5855    i.TMRA_StructInit   hc32_ll_tmra.o
    0x00008304   0x00008304   0x0000004c   Code   RO         7164    i.TemperatureBaseLookUpTable  hc32f334_drivers.o
    0x00008350   0x00008350   0x00000094   Code   RO         7165    i.TmrAConfig        hc32f334_drivers.o
    0x000083e4   0x000083e4   0x0000003c   Code   RO         7166    i.USART2Config      hc32f334_drivers.o
    0x00008420   0x00008420   0x00000110   Code   RO         6076    i.USART_FuncCmd     hc32_ll_usart.o
    0x00008530   0x00008530   0x00000088   Code   RO         6083    i.USART_GetStatus   hc32_ll_usart.o
    0x000085b8   0x000085b8   0x000005c8   Code   RO         6101    i.USART_SetBaudrate  hc32_ll_usart.o
    0x00008b80   0x00008b80   0x000001a0   Code   RO         6119    i.USART_UART_Init   hc32_ll_usart.o
    0x00008d20   0x00008d20   0x0000002c   Code   RO         6121    i.USART_UART_StructInit  hc32_ll_usart.o
    0x00008d4c   0x00008d4c   0x0000003c   Code   RO         7168    i.Usart2_TxEnable   hc32f334_drivers.o
    0x00008d88   0x00008d88   0x00000026   Code   RO         7169    i.WDT_Config        hc32f334_drivers.o
    0x00008dae   0x00008dae   0x00000002   PAD
    0x00008db0   0x00008db0   0x00000014   Code   RO         6534    i.WDT_FeedDog       hc32_ll_wdt.o
    0x00008dc4   0x00008dc4   0x00000148   Code   RO         6536    i.WDT_Init          hc32_ll_wdt.o
    0x00008f0c   0x00008f0c   0x00000020   Code   RO         7369    i.__0printf$3       mc_w.l(printf3.o)
    0x00008f2c   0x00008f2c   0x0000000e   Code   RO         7589    i.__scatterload_copy  mc_w.l(handlers.o)
    0x00008f3a   0x00008f3a   0x00000002   Code   RO         7590    i.__scatterload_null  mc_w.l(handlers.o)
    0x00008f3c   0x00008f3c   0x0000000e   Code   RO         7591    i.__scatterload_zeroinit  mc_w.l(handlers.o)
    0x00008f4a   0x00008f4a   0x00000002   PAD
    0x00008f4c   0x00008f4c   0x000001b8   Code   RO         7376    i._printf_core      mc_w.l(printf3.o)
    0x00009104   0x00009104   0x00000016   Code   RO         6448    i.fputc             hc32_ll_utility.o
    0x0000911a   0x0000911a   0x00000002   PAD
    0x0000911c   0x0000911c   0x00000574   Code   RO         6584    i.main              main.o
    0x00009690   0x00009690   0x00000008   Data   RO         1234    .constdata          hc32_ll_dac.o
    0x00009698   0x00009698   0x00000020   Data   RO         6126    .constdata          hc32_ll_usart.o
    0x000096b8   0x000096b8   0x00000142   Data   RO         7171    .constdata          hc32f334_drivers.o
    0x000097fa   0x000097fa   0x00000002   PAD
    0x000097fc   0x000097fc   0x00000020   Data   RO         7587    Region$$Table       anon$$obj.o


    Execution Region RW_IRAM1 (Exec base: 0x1fffc000, Load base: 0x0000981c, Size: 0x00000008, Max: 0x00000008, ABSOLUTE, UNINIT)

    Exec Addr    Load Addr    Size         Type   Attr      Idx    E Section Name        Object

    0x1fffc000        -       0x00000008   Zero   RW           15    .bss.noinit         system_hc32f334.o


    Execution Region RW_IRAM2 (Exec base: 0x1fffc008, Load base: 0x0000981c, Size: 0x00000f40, Max: 0x0000fff8, ABSOLUTE, COMPRESSED[0x00000054])

    Exec Addr    Load Addr    Size         Type   Attr      Idx    E Section Name        Object

    0x1fffc008   COMPRESSED   0x00000010   Data   RW         6449    .data               hc32_ll_utility.o
    0x1fffc018   COMPRESSED   0x00000170   Data   RW         6591    .data               main.o
    0x1fffc188   COMPRESSED   0x00000008   Data   RW         6781    .data               hrtimer.o
    0x1fffc190   COMPRESSED   0x00000004   Data   RW         7031    .data               ev_hc32f334_lqfp64.o
    0x1fffc194   COMPRESSED   0x00000080   Data   RW         7172    .data               hc32f334_drivers.o
    0x1fffc214   COMPRESSED   0x00000004   Data   RW         7565    .data               mc_w.l(stdout.o)
    0x1fffc218        -       0x00000040   Zero   RW         3173    .bss                hc32_ll_interrupts.o
    0x1fffc258        -       0x000000b0   Zero   RW         6585    .bss                main.o
    0x1fffc308        -       0x00000040   Zero   RW         7170    .bss                hc32f334_drivers.o
    0x1fffc348        -       0x00000c00   Zero   RW            1    STACK               startup_hc32f334.o


    Execution Region RW_IRAMB (Exec base: 0x200f0000, Load base: 0x00009870, Size: 0x00000000, Max: 0x00001000, ABSOLUTE)

    **** No section assigned to this execution region ****


==============================================================================

Image component sizes


      Code (inc. data)   RO Data    RW Data    ZI Data      Debug   Object Name

       322         26          0          4          0       5293   ev_hc32f334_lqfp64.o
       148         30          0          0          0      76591   hc32_ll.o
      1018        302          0          0          0       9640   hc32_ll_adc.o
       400        178          0          0          0        837   hc32_ll_aos.o
      2016        322          0          0          0      16260   hc32_ll_clk.o
       692        164          0          0          0       7116   hc32_ll_cmp.o
      1512        508          8          0          0      10161   hc32_ll_dac.o
      1124        360          0          0          0      10695   hc32_ll_dma.o
      1824        608          0          0          0      18588   hc32_ll_efm.o
       336        158          0          0          0       2187   hc32_ll_fcg.o
      1822        554          0          0          0      17084   hc32_ll_gpio.o
      7340       1088          0          0          0      99989   hc32_ll_hrpwm.o
         0          0         96          0          0        714   hc32_ll_icg.o
       404        154          0          0         64      42438   hc32_ll_interrupts.o
       558        106          0          0          0       4867   hc32_ll_tmr0.o
      1258        316          0          0          0      11071   hc32_ll_tmra.o
      2348        266         32          0          0      12167   hc32_ll_usart.o
       298         78          0         16          0       4756   hc32_ll_utility.o
       348         60          0          0          0       3041   hc32_ll_wdt.o
      2194        204        322        128         64      10142   hc32f334_drivers.o
      5748        416          0          8          0      96058   hrtimer.o
      4364        178          0        368        176      20278   main.o
        36          8        648          0       3072        872   startup_hc32f334.o
       184         44          0          0          8     394109   system_hc32f334.o

    ----------------------------------------------------------------------
     36318       6128       1140        524       3384     874954   Object Totals
         0          0         32          0          0          0   (incl. Generated)
        24          0          2          0          0          0   (incl. Padding)

    ----------------------------------------------------------------------

      Code (inc. data)   RO Data    RW Data    ZI Data      Debug   Library Member Name

        86          0          0          0          0          0   __dczerorl2.o
         0          0          0          0          0          0   entry.o
         0          0          0          0          0          0   entry10a.o
         0          0          0          0          0          0   entry11a.o
         4          0          0          0          0          0   entry12b.o
         8          4          0          0          0          0   entry2.o
         4          0          0          0          0          0   entry5.o
         0          0          0          0          0          0   entry7b.o
         0          0          0          0          0          0   entry8b.o
         8          4          0          0          0          0   entry9a.o
        30          0          0          0          0          0   handlers.o
        36          8          0          0          0         68   init.o
         0          0          0          0          0          0   iusefp.o
        30          0          0          0          0         68   llshl.o
        32          0          0          0          0         68   llushr.o
       472         14          0          0          0        184   printf3.o
         0          0          0          4          0          0   stdout.o
        44          0          0          0          0         80   uidiv.o
        98          0          0          0          0         92   uldiv.o
        56          0          0          0          0         88   d2f.o
       222          0          0          0          0        100   ddiv.o
       186          0          0          0          0        176   depilogue.o
        26          0          0          0          0         76   dfltui.o
        24          0          0          0          0         76   dfltul.o
       110          0          0          0          0        168   fepilogue.o

    ----------------------------------------------------------------------
      1482         30          0          4          0       1244   Library Totals
         6          0          0          0          0          0   (incl. Padding)

    ----------------------------------------------------------------------

      Code (inc. data)   RO Data    RW Data    ZI Data      Debug   Library Name

       852         30          0          4          0        560   mc_w.l
       624          0          0          0          0        684   mf_w.l

    ----------------------------------------------------------------------
      1482         30          0          4          0       1244   Library Totals

    ----------------------------------------------------------------------

==============================================================================


      Code (inc. data)   RO Data    RW Data    ZI Data      Debug   

     37800       6158       1140        528       3384     855710   Grand Totals
     37800       6158       1140         84       3384     855710   ELF Image Totals (compressed)
     37800       6158       1140         84          0          0   ROM Totals

==============================================================================

    Total RO  Size (Code + RO Data)                38940 (  38.03kB)
    Total RW  Size (RW Data + ZI Data)              3912 (   3.82kB)
    Total ROM Size (Code + RO Data + RW Data)      39024 (  38.11kB)

==============================================================================

