:020000040000FA
:1000000048CFFF1FA1020000A9020000AB020000C0
:10001000AD020000AF020000B102000000000000CD
:10002000000000000000000000000000B30200001B
:10003000B502000000000000B7020000B902000095
:10004000797000008D700000A1700000B570000094
:10005000C9700000DD700000F17000000571000043
:10006000197100002D7100004171000055710000F0
:10007000697100007D71000091710000A5710000A0
:10008000E1320000BB020000BB020000113300009F
:10009000BB020000BB020000BB020000BB0200006C
:1000A000BB02000041330000BB020000BB020000A5
:1000B000BB020000BB020000BB020000BB0200004C
:1000C000BB020000BB020000BB020000BB0200003C
:1000D000BB020000BB020000BB020000BB0200002C
:1000E000BB020000BB020000BB020000BB0200001C
:1000F000BB020000BB020000BB020000BB0200000C
:10010000BB020000BB020000BB020000BB020000FB
:10011000BB020000857D0000BB020000BB020000A6
:10012000BB020000BB020000BB020000BB020000DB
:10013000BB020000BB020000BB020000BB020000CB
:10014000BB020000BB020000BB020000BB020000BB
:10015000BB020000BB020000BB020000BB020000AB
:10016000BB020000BB020000BB020000BB0200009B
:10017000BB020000BB020000BB020000BB0200008B
:10018000BB020000BB020000BB020000BB0200007B
:10019000BB020000BB020000BB020000BB0200006B
:1001A000BB020000BB020000BB020000BB0200005B
:1001B000BB020000BB020000BB020000BB0200004B
:1001C000BB020000BB020000BB020000BB0200003B
:1001D000BB020000BB020000BB020000BB0200002B
:1001E000BB020000BB020000BB020000BB0200001B
:1001F000BB020000BB020000BB020000BB0200000B
:10020000BB020000BB020000BB020000BB020000FA
:10021000BB020000BB020000BB020000BB020000EA
:10022000BB020000BB020000BB020000BB020000DA
:10023000BB020000BB020000BB020000BB020000CA
:10024000BB020000BB020000BB020000BB020000BA
:10025000BB020000BB020000BB020000BB020000AA
:10026000BB020000BB020000BB020000BB0200009A
:10027000BB020000BB020000BB020000E50600005C
:10028000BB020000BB020000DFF810D000F0ECF968
:10029000004800471D910000AFF3008048CFFF1FCA
:1002A0000648804706480047FEE7FEE7FEE7FEE710
:1002B000FEE7FEE7FEE7FEE7FEE7FEE7357B000030
:1002C000890200002DE9F05F0546002092469B461A
:1002D00088460646814640241BE02846414647465C
:1002E000224600F07AF853465A46C01A914110D37C
:1002F00011461846224600F016F82D1A67EB010841
:100300004F4622460120002100F00DF817EB0009AE
:100310004E41201EA4F10104DFDC484631462A4646
:100320004346BDE8F09F202A04DB203A00FA02F1A0
:10033000002070479140C2F1200320FA03F31943D3
:10034000904070470EB540F2334102910021CDE953
:1003500000110A460B4600F038F903B000BD0EB597
:1003600040F2334202920022CDE90022134600F00F
:100370002CF903B000BD01F0004330B421F000417E
:1003800050EA010206D00A0DA2F56072C1F3130112
:10039000002A02DC30BC00207047440F44EAC1044C
:1003A000C100E01830BC00EBC25000F0C8B830B556
:1003B0000B46014600202022012409E021FA02F523
:1003C0009D4205D303FA02F5491B04FA02F52844BD
:1003D000151EA2F10102F1DC30BD202A04DB203A17
:1003E00021FA02F00021704721FA02F3D040C2F155
:1003F0002002914008431946704770477047704784
:10040000BFFFDFFFFFFFFFFFFFFFFFFFFFFFEDFF6E
:10041000FFFFFFFFFFFFFFFFFFFFFFFFFFFFFFFFEC
:10042000FFFFFFFFFFFFFFFFFFFFFFFFFFFFFFFFDC
:10043000FFFFFFFFFFFFFFFFFFFFFFFFFFFFFFFFCC
:10044000FFFFFFFFFFFFFFFFFFFFFFFFFFFFFFFFBC
:10045000FFFFFFFFFFFFFFFFFFFFFFFFFFFFFFFFAC
:100460002DE9F04D81EA030404F0004B21F0004532
:1004700014464FF0000A23F0004150EA050220D054
:1004800054EA01021DD0C5F30A570246C5F313030F
:10049000C1F31300C1F30A5640F4801543F48013EE
:1004A000A7EB0608101BD64608F2FD3873EB0500D3
:1004B00002D308F1010801E092185B41B8F1000F86
:1004C00003DA00200146BDE8F08D00204FF48011D2
:1004D000064684460EE0171B73EB050705D3121B77
:1004E00063EB050306434CEA010C49084FEA300070
:1004F00092185B4150EA0107EDD152EA030012D095
:1005000082EA040083EA0501084305D0101BAB41D1
:1005100006D20122002306E000224FF0004302E051
:100520006FF0010253101AEB06004CEB085110EB70
:100530000A0041EB0B01BDE8F04D00F037B800298F
:10054000A8BF7047401C490008BF20F00100704759
:1005500010B4B0FA80FC00FA0CF050EA010404BFB9
:1005600010BC704749B1CCF1200421FA04F411FA0F
:100570000CF118BF012121430843A3EB0C01CB1D53
:100580004FEA00614FEA102042BF002010BC7047C4
:1005900000EBC35010440029A4BF10BC7047401C9E
:1005A000490008BF20F0010010BC704710B5141EB0
:1005B00073F1000408DA401C41F1000192185B411C
:1005C0001A4301D120F0010010BD2DE9F04D9246F3
:1005D0009B4611B1B1FA81F202E0B0FA80F220320A
:1005E0009046FFF7A0FE04460F4640EA0A0041EAA3
:1005F0000B0153465A46084313D0114653EA0100F3
:1006000019D0C8F140025046FFF7E7FE05460E46F6
:10061000504659464246FFF786FE084305D0012062
:1006200004E020463946BDE8F08D0020054346EA47
:10063000E0762C4337430A986305E40AA0EB0800F0
:100640000022FD0A44EA47540A3002D50020014640
:10065000E9E7010510196941DDE90845001969411B
:10066000BDE8F04DA2E70000064C074D06E0E0684B
:1006700040F0010394E8070098471034AC42F6D3E9
:10068000FFF706FEFC9700001C98000070B58C1860
:1006900010F8015B15F0070301D110F8013B2A1196
:1006A00006D110F8012B03E010F8016B01F8016B83
:1006B0005B1EF9D12B0705D40023521E0DD401F87F
:1006C000013BFAE710F8013BCB1A921C03E013F848
:1006D000015B01F8015B521EF9D5A142D8D300207D
:1006E00070BD00002DE9F04FFE4931F8500FDFF8E2
:1006F000F8C3CCF85C004A88CCF864208D88CCF82C
:100700006050C988ACF80010F8490988F84BCCF85B
:1007100058101B88ACF80230F64B1C88CCF86840A7
:10072000DCF86C3041F69916734347F23336714367
:1007300003EB41010B144AF2D901CCF86C30484369
:10074000DCF8706042F69371714300EB41000114D4
:1007500041F21B406843CCF87010DCF8785043F647
:10076000F926754300EB8500001441F21B45554303
:10077000CCF87800DCF87C20724305EB820212147E
:10078000CCF87C2041F21B425443DCF880207243B9
:1007900004EB82021214CCF88020DCF8B0205A431B
:1007A000DCF8B43003EBE225CCF88450DCF8B82058
:1007B000DCF8BC304A4313EBE2234FF00002CCF8E4
:1007C000883048BFCCF88820DCF8C030CB4C584388
:1007D000DCF8C43003EBE02040F23D13CCF88C0091
:1007E0005843C54B03EBC000001420605028A8BF3D
:1007F000502003DA4428D8BF442000DC2060C04BDE
:10080000BCF8080043F82050401C80B2ACF8080047
:10081000042828BFACF80820BA48BC4BB0F800E068
:10082000B9481EF0010F00F03C81DCF8D060751B68
:10083000CCF8E450B5F5A07FC8BF4FF4A07504DC38
:1008400015F5A07FB8BFB24D01DACCF8E450D4F86A
:100850001880C4F81C80D4F81490C4E90559276A9C
:100860006762A66A2662D4F800A0D4F804B005FB3B
:100870000AFA09FB0BA9D4F808A008FB0AF8D4F877
:100880000CA006FB0A86D4F810804E4407FB0866CD
:10089000E76A3E44A662276BB74202DB676BB7424A
:1008A00000DDA762DCF88870DCF8D460F61BCCF8B9
:1008B000E860CD2EC8BFCD2605DC16F1CD0FB8BF40
:1008C0006FF0CC0601DACCF8E8608769C761D0F830
:1008D0001480B146C0E90568D0F820B0C0F824B053
:1008E000866A0662D0F800A009FB0AF9D0F804A0D5
:1008F00008FB0A98D0F8089007FB09F7D0F80C908D
:1009000006FB0976076946440BFB0766C76A3E4447
:10091000B6128662076BB74202DB476BB74200DD57
:100920008762806AA46AA042B4BFCCF8F400CCF815
:10093000F4407848CCF8DC00DCF8F4400126A04212
:10094000B8BFCCF8F40002DBB4F5C84F07DB15F1F3
:10095000C00FA4BFACF80C20DCF8F40009DABCF836
:100960000A00022824BFACF80C60ACF80A204FF44F
:10097000C8401EF0020FCCF8F80023D0BCF80E00DF
:1009800040F22E3440F00200ACF80E00A142C8BF85
:1009900040F0010006DC40F2A624A142B8BF00F0FE
:1009A000FE0001DAACF80E00DCF8F8004DF6386411
:1009B000A042AEBF46F21730574C04EB6000CCF8B3
:1009C000680119E0CCF86821ACF80E20ACF80420DE
:1009D000CCF8A820CCF8AC20CCF8F020CCF80C2136
:1009E00040F60310CCF8FC00CCF80001CCF8040170
:1009F000CCF81021CCF8080140F60310CCF8040123
:100A0000CCF80801BCF80C00444C70B1208840F0D0
:100A100020002080D3F8AC0340F01500C3F8AC03ED
:100A2000ACF81220ACF80E202DE0BCF8120010B18A
:100A3000012809D019E040F20110C3F8A403ACF872
:100A40001260ACF80A2010E0BCF80A00401C80B22A
:100A5000ACF80A00022808D30220ACF80A00ACF86F
:100A6000120040F20330C3F8A403BCF80E000328C0
:100A70000ED0208840F020002080D3F8AC0340F056
:100A80000400C3F8AC03BCF80E00ACF8100051E051
:100A90002348048844F0200404803020C3F8A403D1
:100AA000F1E7ACF80E20ACF81020ACF80C20826214
:100AB0000262426242618261C261A2622262626239
:100AC0006261A261E261CCF8F020CCF80C21CCF894
:100AD0001021CCF8A820CCF8AC2040F60310CCF8BC
:100AE000FC001FE00000044018C0FF1F5804044031
:100AF0005C0404405A0404400000C8FF98C2FF1F71
:100B000058C2FF1F34C0FF1FD0C2FF1F00C00340E8
:100B1000C0FEFFFF00770100FCF6FFFF083805402C
:100B20000A380540CCF80001CCF80401CCF8682163
:100B3000CCF808014FF4C844CCF80C216010CCF874
:100B40006801CCF81021CCF84021CCF8F840CCF862
:100B50004421CCF87410CCF85401DCF8FC50CCF8EB
:100B60006051DCF8001101F54851CCF86411DCF853
:100B7000306106F54856CCF85861B6F5485F88BF35
:100B8000CCF8580101F548564FF4C747CCF85C61E2
:100B9000B6F5C74F88BFCCF85C71D3F8B86315279A
:100BA00037EA06063AD1D3F8B86326F01506C3F83B
:100BB000B8635C64C3F888001C4CC4F888001C4E01
:100BC000DCF858013060361DDCF85C0130601948F3
:100BD0000560001D0160C3F8B822C3F8C022DCF82C
:100BE0004801C3F8C802DCF84C01C3F8D002DCF8B5
:100BF0005001C3F8D802DCF82C01C3F80801DCF876
:100C00003801C3F80C01DCF83401C4F80801DCF841
:100C10003C01C4F80C010848C3F8B403DCF8140123
:100C2000401CCCF81401BDE8F08F000000D0034058
:100C300088C8034098C80340150000C02DE9F04162
:100C40000546A0F180401E4614460F46B0F58020B0
:100C500001D10F2C10D91848854201D10F2C0BD986
:100C6000A5F18040B0F5812001D10B2C04D94FF4BF
:100C7000AC7112A001F064FC002F18BF012F04D04A
:100C800040F259110DA001F05BFC002E18BF012E9F
:100C900004D04FF4AD7109A001F052FC05EB8700C0
:100CA0000121A14050F80C2F012E0CBF114322EA64
:100CB00001010160BDE8F081000404402E2E5C6457
:100CC0007269766572735C686333325F6C6C5F6403
:100CD00072697665725C7372635C686333325F6CF1
:100CE0006C5F6164632E63002DE9F0471F4FDFF8EE
:100CF0008080DFF8809015460E460446B84201D148
:100D00000F2E0CD9444501D10F2E08D94C4501D1E5
:100D10000B2E04D94FF4397117A001F011FCBC421D
:100D200001D10F2D11D9444503D1042D01D30F2D2D
:100D30000BD94C4504D1032D84BFA81F052804D925
:100D400040F2E5210CA001F0FBFBB00804EB4000F1
:100D5000B107038F090F0F228A4005FA01F193436F
:100D6000114019430187BDE8F087000000000440EE
:100D700000040440000804402E2E5C64726976650D
:100D800072735C686333325F6C6C5F647269766542
:100D9000725C7372635C686333325F6C6C5F616456
:100DA000632E630070B50546A0F180400C466FF0DD
:100DB0000206B0F580201FBF1E488542A5F1804085
:100DC000B0F5812003D0FC211BA001F0B9FB002C61
:100DD0002DD02188002918BF01290CD0022918BF65
:100DE000032908D0042918BF062904D04FF0FF01B9
:100DF00011A001F0A5FB608820281CBF1028002846
:100E000004D04FF480710CA001F09AFBA088002858
:100E100018BF802804D040F2011107A001F090FB18
:100E2000208861880843A1880843688000263046EE
:100E300070BD0000000404402E2E5C64726976656B
:100E400072735C686333325F6C6C5F647269766581
:100E5000725C7372635C686333325F6C6C5F616495
:100E6000632E630070B50446A0F1804016460D461F
:100E7000B0F580201FBF13488442A4F18040B0F534
:100E8000812004D04FF418710FA001F059FB15B167
:100E900035F0030004D040F261210BA001F050FBBB
:100EA00056B1012E04BF94F84500284307D040F204
:100EB000622105A001F044FB94F84500A84384F8A2
:100EC000450070BD000404402E2E5C647269766596
:100ED00072735C686333325F6C6C5F6472697665F1
:100EE000725C7372635C686333325F6C6C5F616405
:100EF000632E63006FF0020118B100210180418070
:100F0000818008467047000070B50446A0F180401B
:100F100016460D46B0F580201FBF14488442A4F148
:100F20008040B0F5812004D040F2472110A001F0AC
:100F300007FB002D18BF012D04D04FF412710CA037
:100F400001F0FEFAE800802101FA00F54EB1012E11
:100F500004BF6089284306D040F2492104A001F073
:100F6000EFFA6089A843608170BD0000000404406E
:100F70002E2E5C647269766572735C686333325FCF
:100F80006C6C5F6472697665725C7372635C6863D3
:100F900033325F6C6C5F6164632E630070B505462D
:100FA000A0F1804014460E46B0F580201FBF1648C1
:100FB0008542A5F18040B0F5812004D04FF40C713A
:100FC00012A001F0BDFA002E18BF012E04D040F28D
:100FD00031210EA001F0B4FA002C18BF012C08D06A
:100FE000022C18BF032C04D040F2322107A001F0DC
:100FF000A7FA6A89F0000321814004FA00F08A43CD
:1010000008401043688170BD000404402E2E5C64CB
:101010007269766572735C686333325F6C6C5F64AF
:1010200072697665725C7372635C686333325F6C9D
:101030006C5F6164632E630070B582B0012107208C
:1010400002F0A8FA0121480402F030FA6846FFF7DE
:1010500051FF00204A4CADF8000069462046FFF7DA
:10106000A1FE484D69462846FFF79CFE464E69465C
:101070003046FFF797FE032200212046FFF734FE9B
:101080000D2201212046FFF72FFE0F2202212046CC
:10109000FFF72AFE0A2203212046FFF725FE092238
:1010A00004212846FFF720FE0C2205212846FFF7E1
:1010B0001BFE0B2206212846FFF716FE0022012305
:1010C00011462046FFF7BAFD01231A4600212046AB
:1010D000FFF7B4FD0123022200212046FFF7AEFDF9
:1010E0000123032200212046FFF7A8FD012304224B
:1010F00000212846FFF7A2FD0123052200212846F2
:10110000FFF79CFD0123062200212846FFF796FDEC
:10111000012200212046FFF741FF0122002128463D
:10112000FFF73CFF012200213046FFF737FF612126
:10113000164800F033F86121154800F02FF801221D
:1011400011462046FFF78EFE124A4FF40041C2F8C6
:1011500080121148402380F800348432D167012284
:1011600000212046FFF7D0FE012200212846FFF78C
:10117000CBFE012200213046FFF7C6FE02B070BD53
:1011800000000440000404400008044068080140D6
:101190007008014010E000E08FE000E070B5044608
:1011A00036480D4684421CBF3548844260D03548DD
:1011B00084421CBF344884425AD0344884421CBF05
:1011C0003348844254D0334884421CBF324884425E
:1011D0004ED0324884421CBF3148844248D0314806
:1011E00084421CBF3048844242D0304884421CBFF5
:1011F0002F4884423CD02F4884421CBF2E48844252
:1012000036D02E4884421CBF2D48844230D02D4811
:1012100084421CBF2C4884422AD02C4884421CBFE4
:101220002B48844224D02B4884421CBF2A48844245
:101230001ED02A4884421CBF2948844218D029481D
:1012400084421CBF2848844212D0284884421CBFD4
:10125000274884420CD0274884421FBF2648844236
:101260002648844204D04FF0C40125A001F068F95B
:10127000206865F30800206070BD0000040801408C
:10128000080801400C080140100801401408014002
:10129000180801401C0801402008014024080140B2
:1012A000280801402C080140300801403408014062
:1012B000380801403C080140400801404408014012
:1012C000480801404C0801405008014054080140C2
:1012D000580801405C080140600801406408014072
:1012E000680801406C080140700801407408014022
:1012F000780801407C0801408008014084080140D2
:101300002E2E5C647269766572735C686333325F3B
:101310006C6C5F6472697665725C7372635C68633F
:1013200033325F6C6C5F616F732E630010B584B0F5
:101330002649274800F0D6F901220321052002F0B2
:101340005DF9684600F02EFB00248DF80240302045
:101350008DF801008DF8004005208DF803006846E7
:1013600000F0A4FA02A800F0A3F98DF808406FF38A
:10137000102404F1405000F56C5020F0706000F132
:10138000407020F4700000F5401020F080000390C1
:1013900002A800F0A3F8022001F0E8FE4FF400508C
:1013A00002F022FC052000F0A5F9012001F008FC64
:1013B000002001F005FC012001F012FD012001F0E8
:1013C0004FFC012001F0DAFC04B010BD1011010047
:1013D0007777070710B5040002D034F0290004D055
:1013E00040F2FD4104A001F0ABF80E4890F83C003B
:1013F000204018BF012010BD2E2E5C6472697665F6
:1014000072735C686333325F6C6C5F6472697665BB
:10141000725C7372635C686333325F6C6C5F636CC5
:101420006B2E63000040054070B504004FF00005CE
:1014300018BF012C04D040F2B3411CA001F080F889
:10144000254EB6F8FE0310F0010F04D140F2B4416E
:1014500016A001F075F86CB1D6F800014FF4805178
:1014600010F0800F12D04FF0010000F0A7F90546F0
:10147000D5B910E096F8260000F0070005281ABF3D
:10148000012086F82A006FF005050DE0082000F025
:1014900095F90546ECE7002086F82A004FF48051C4
:1014A000202000F08BF90546284670BD2E2E5C6486
:1014B0007269766572735C686333325F6C6C5F640B
:1014C00072697665725C7372635C686333325F6CF9
:1014D0006C5F636C6B2E630000400540002804BF06
:1014E0006FF0020070472DE9F0410446007900F0EA
:1014F0001F00172804D940F287415AA001F020F8B4
:101500006068C0F308201338B0F5E67F04D94FF4C3
:10151000916154A001F014F860684FF0FF3101EBC5
:1015200010700E2804D940F289414EA001F008F84D
:10153000616811F0800F0EBF55485648006801F0F1
:101540001F02521CB0FBF2F0C1F30821491C01FB41
:1015500000F55149A0F57420A0F51070884204D917
:1015600040F28E413FA000F0EBFF4C484C4928442C
:10157000884204D940F28F413AA000F0E1FF606850
:10158000012101EB1070B5FBF0F0464E464F3044A0
:10159000B84204D94FF4926132A000F0D1FF6068E4
:1015A000C0F30360401E0E2804D940F291412DA0E3
:1015B00000F0C6FF6068C0F30350401E0E2804D937
:1015C00040F2924127A000F0BBFF6068C0F30350D7
:1015D000401CB5FBF0F03044B84204D940F29341CE
:1015E00020A000F0ADFF6068C0F30360401CB5FBB5
:1015F000F0F03044B84204D940F2944119A000F010
:101600009FFF2078012818BF002804D040F296419F
:1016100014A000F095FF254DB5F8FE0310F0010F62
:1016200005D1FFE740F297410EA000F089FFD5F801
:101630000001217920F08000C1F3C01140EAC110FF
:10164000C5F800016068C5F80001207820B1BDE848
:10165000F0410020FFF7E8BEBDE8F0410120FFF7B0
:10166000E3BE00002E2E5C647269766572735C685E
:101670006333325F6C6C5F6472697665725C73723F
:10168000635C686333325F6C6C5F636C6B2E63000A
:1016900000127A0004C0FF1F00366E0100E4B1F1B1
:1016A000001C4E0E401E1BFF402C42060040054011
:1016B0000021002808BF6FF0020111D000226FF353
:1016C000102202F1805202F5985222F0706202F16B
:1016D000807222F4700202F58012426001220270D0
:1016E0000846704710B505F0CDFFBDE8104006F084
:1016F000D5B90000F0B52D4E040085B030684FF02C
:101700000005009070680190B0680290F068039046
:1017100018BF012C0CD0022C18BF032C08D0042CAD
:1017200018BF052C04D04FF4E371214800F008FFE6
:10173000204FB7F8FE0310F0010F04D140F2C7119B
:101740001B4800F0FDFE97F8260000F00700052872
:1017500018BF052C13D130694FF0010510F0010FAF
:1017600004D140F2CF11124800F0EAFE1248306076
:10177000C0127060B060F0601E2000F049FF87F872
:1017800026401E2000F044FF55B1009830600198BB
:1017900070600298B0600398F0601E2000F038FF7F
:1017A00005B0BDE8F04006F079B9000000800440C3
:1017B000F8130000004005400EFAFFFF2DE9F84342
:1017C000804600200E4D0E466FF0070700905FEA3E
:1017D000080402D034F0290004D040F2FD41094849
:1017E00000F0AEFE95F83C00204201D0002704E056
:1017F0000098401C0090B042E9D93846BDE8F88313
:1018000000400540F813000070B504004FF00005DB
:1018100018BF012C04D040F2263118A000F090FE31
:10182000214EB6F8FE0310F0010F04D140F227312B
:1018300012A000F085FE54B1002086F832004FF46B
:1018400080510820FFF7BAFF0546284670BD96F87C
:10185000260000F0070003280CD0D6F8000110F095
:10186000800F4FF0010006BF96F82A10002986F875
:101870003200EAD16FF00505E7E700002E2E5C6428
:101880007269766572735C686333325F6C6C5F6437
:1018900072697665725C7372635C686333325F6C25
:1018A0006C5F636C6B2E630000400540002804BF32
:1018B0006FF00200704770B504460078012818BF29
:1018C000002804D040F2073129A000F039FE6078EA
:1018D000002818BF102808D0202818BF302804D0AE
:1018E0004FF4427122A000F02BFEA078002818BF10
:1018F000082804D040F209311DA000F021FEE07854
:10190000012818BF022811D0032818BF04280DD0C1
:10191000052818BF062809D007281CBF0828092851
:1019200004D040F20A3112A000F00AFE1B4DB5F8B7
:10193000FE0310F0010F05D1FFE740F20B310CA0C0
:1019400000F0FEFDE07885F8A2006078A1780843F9
:10195000134940F080000870207820B1BDE8704045
:101960000020FFF751BFBDE870400120FFF74CBFDA
:101970002E2E5C647269766572735C686333325FC5
:101980006C6C5F6472697665725C7372635C6863C9
:1019900033325F6C6C5F636C6B2E630000400540FC
:1019A00050CC04400021002808BF6FF0020106D08F
:1019B000012202700022827042700522C270084625
:1019C0007047000070B50446A0F180400D46B0F5A8
:1019D00061301FBF0E488442A4F18040B0F56C30E6
:1019E00004D040F2C3110BA000F0AAFD55B1012DA7
:1019F00004BFA07840F0010007D04FF4E27105A0C9
:101A000000F09EFDA07800F0FE00A07070BD000008
:101A1000008503402E2E5C647269766572735C6883
:101A20006333325F6C6C5F6472697665725C73728B
:101A3000635C686333325F6C6C5F636D702E630050
:101A40000C4981B0096A0C4AC1F30261126822FA9A
:101A500001F10A4AB1FBF2F3421E3CBF01B07047EC
:101A600000930098411E0091FBD2521EF8D201B0A3
:101A7000704700000040054000C0FF1F809698009E
:101A800070B505460C006FF0020008BF70BDA5F1EF
:101A90008040B0F561301FBF46488542A5F18040C7
:101AA000B0F56C3004D04FF4B87143A000F048FD9D
:101AB000A088002818BF022804D040F271113EA06F
:101AC00000F03EFDE088002818BF102808D020282C
:101AD00018BF302804D04FF4B97137A000F030FDA2
:101AE0002089002818BF01280DD0022818BF03281C
:101AF00009D004281CBF0528062804D040F2731121
:101B00002DA000F01DFD208800281CBF0128022800
:101B100004D04FF4BA7128A000F012FD60880028AC
:101B200018BF01280CD0022818BF042808D00828A4
:101B300018BF102804D040F275111FA000F000FD5E
:101B40006089002818BF022810D0042818BF062872
:101B50000CD0082818BF0A2808D00C2818BF0E2857
:101B600004D04FF4BB7114A000F0EAFC287800F018
:101B7000FE00287020684FEA304068602878A17A1B
:101B800000F0F100C1F3420140EA41002870012059
:101B9000FFF756FF287840F0010028700120FFF77A
:101BA0004FFF207AA179084368702079A87000203F
:101BB00070BD0000008503402E2E5C64726976655E
:101BC00072735C686333325F6C6C5F6472697665F4
:101BD000725C7372635C686333325F6C6C5F636DFD
:101BE000702E630070B50446A0F180400D46B0F53C
:101BF00061301FBF0E488442A4F18040B0F56C30C4
:101C000004D040F2D7110BA000F09AFC55B1012D81
:101C100004BFA07840F0040007D04FF4EC7105A099
:101C200000F08EFCA07800F0FB00A07070BD0000FA
:101C3000008503402E2E5C647269766572735C6861
:101C40006333325F6C6C5F6472697665725C737269
:101C5000635C686333325F6C6C5F636D702E63002E
:101C60006FF0020130B10021018041808180C1808C
:101C7000018141810846704708B5002100914FF469
:101C8000F8300422694601F073F90098B0F1FF3F83
:101C90001CBF1D4908601D480422694601F068F90F
:101CA0000098B0F1FF3F1CBF194908601948042291
:101CB000694601F05DF90098B0F1FF3F1CBF16497D
:101CC000086016480422694601F052F90098B0F104
:101CD000FF3F1CBF1249086012480422694601F008
:101CE00047F90098B0F1FF3F1CBF0F4908600F484B
:101CF0000422694601F03CF90098B0F1FF3F1CBF97
:101D00000B49086008BD0000C8C0FF1F04F00100B7
:101D1000CCC0FF1F08F00100D0C0FF1F0CF0010075
:101D2000D4C0FF1F10F00100D8C0FF1F14F0010045
:101D3000DCC0FF1F10B5012000F0C4FF01211F20EF
:101D400001F06AFA4FF4F834204601F081F91049A5
:101D50002046096801F076F80E49201D096801F057
:101D600071F80E490C48096801F06CF80D490C48EF
:101D7000096801F067F80D490B48096801F062F83D
:101D80000C490B480968BDE8104001F05BB8000041
:101D9000C8C0FF1FCCC0FF1F08F00100D0C0FF1F4C
:101DA0000CF00100D4C0FF1F10F00100D8C0FF1FCD
:101DB00014F00100DCC0FF1F01201E4A2021115435
:101DC000401CC0B28028FAD31B4901204822C860B9
:101DD0000A60002008616FF03F02C1E901204861FC
:101DE0008861C86188620862144B45F2B652486245
:101DF000C1E90C3238314FF4806CC1E903C040F6C0
:101E0000992CC1F800C0DFF838C0C1E901C04861B1
:101E10008861C861886208624862C1E90C32094978
:101E2000C1F8EC00C1F8F000C1F8F400C1F8F80006
:101E30007047000094C1FF1F98C2FF1F0077010088
:101E40009AF6FFFF18C0FF1F10B5012184B00803E8
:101E500001F06CFB684605F059FF002000900190EE
:101E6000029040F25720074CADF80C006A46012161
:101E7000204605F06FFE0121204605F007FF04B063
:101E800010BD00000040024070B50446A0F1804043
:101E90000D46B0F582201CBF0B48844204D04FF0A1
:101EA000CB010AA000F04CFB4DB1012D04BFE0882E
:101EB00040F4004006D0CC2104A000F041FBE088B3
:101EC000C0F30E00E08070BD001404402E2E5C6450
:101ED0007269766572735C686333325F6C6C5F64E1
:101EE00072697665725C7372635C686333325F6CCF
:101EF0006C5F6461632E630070B50446A0F180409E
:101F000016460D46B0F582201CBF0F48844204D00F
:101F10004FF0E5010DA000F013FB15B135F00700FF
:101F200003D0E62109A000F00BFB46B1012E04BF4F
:101F3000E088284305D0E72104A000F001FBE088F9
:101F4000A843E08070BD0000001404402E2E5C64A5
:101F50007269766572735C686333325F6C6C5F6460
:101F600072697665725C7372635C686333325F6C4E
:101F70006C5F6461632E630070B50446A0F180401D
:101F80000D46B0F582201CBF0C48844204D04FF0AF
:101F900080010BA000F0D4FAB5F5807F18BF002DAA
:101FA00004D04FF0810106A000F0CAFAA08805F421
:101FB000807120F480700843A08070BD001404403C
:101FC0002E2E5C647269766572735C686333325F6F
:101FD0006C6C5F6472697665725C7372635C686373
:101FE00033325F6C6C5F6461632E630030B504460E
:101FF000264885B00025D0E90010CDE902108DF803
:102000000050A4F18040B0F582201CBF20488442DB
:1020100004D04FF4F7711FA000F092FA2848B0F8EE
:10202000FE0310F0020F04D140F2EF1119A000F0EE
:1020300087FA002102A850F82120A24217D11020CF
:102040008840022917D21F490A6882430A600A6839
:1020500030EA020211D09DF80020521C8DF80020B9
:102060009DF80020642A0BD96FF0070505E0491C94
:10207000C9B20229DFD36FF0020505B0284630BD92
:102080000A6830EA0202E6D1F7E700009096000005
:10209000001404402E2E5C647269766572735C686D
:1020A0006333325F6C6C5F6472697665725C737205
:1020B000635C686333325F6C6C5F6461632E6300E2
:1020C00000400540ECCC04402DE9F04104461500E9
:1020D0000E466FF0020008BFBDE8F0811F4FDFF829
:1020E0008080BC4218BF444504D04FF4E9711DA064
:1020F00000F026FABC4203D1002E18BF012E08D0F2
:10210000444508BF002E04D040F2D31115A000F0C2
:1021100017FAA878002818BF012804D04FF4EA71F4
:1021200010A000F00DFA2888B0F5807F18BF0028B5
:1021300004D040F2D5110BA000F002FAA088298843
:1021400020F4807001F480710843A080AA783146A1
:10215000204600F01DF80020BDE8F081001004408A
:10216000001404402E2E5C647269766572735C689C
:102170006333325F6C6C5F6472697665725C737234
:10218000635C686333325F6C6C5F6461632E630011
:102190002DE9F0411A4FDFF86C8016460D460446D3
:1021A000B84218BF444504D04FF0960116A000F085
:1021B000C7F9BC4203D1002D18BF012D08D04445FA
:1021C00008BF002D04D04FF097010FA000F0B8F920
:1021D000002E18BF012E04D04FF098010AA000F085
:1021E000AFF905F10E00012101FA00F0A18B80B2D8
:1021F000012E0CBF21EA00000843A083BDE8F08156
:1022000000100440001404402E2E5C647269766550
:1022100072735C686333325F6C6C5F64726976659D
:10222000725C7372635C686333325F6C6C5F6461B1
:10223000632E63002DE9F041DFF868801A4F1646DF
:102240000D460446404518BFBC4204D04FF4AF7160
:1022500016A000F075F9444503D1002D18BF012DDB
:1022600008D0BC4208BF002D04D040F25F110FA07F
:1022700000F066F9A08810F4807F08D016F00F0FE8
:102280000CD04FF4B17109A000F05AF906E0700BC0
:1022900004D04FF4B27105A000F052F924F8156093
:1022A000BDE8F08100100440001404402E2E5C6450
:1022B0007269766572735C686333325F6C6C5F64FD
:1022C00072697665725C7372635C686333325F6CEB
:1022D0006C5F6461632E630070B50446A0F18040BA
:1022E00015460E46B0F5822004D040F2791115A0B3
:1022F00000F026F9A08810F4807F10D016F00F0FA0
:1023000004D04FF4BE710FA000F01AF915F00F0FB2
:1023100013D040F27D110BA000F012F90DE0700B0C
:1023200004D040F27F1107A000F00AF9680B04D036
:102330004FF4C07103A000F003F946EA05402060A5
:1023400070BD00002E2E5C647269766572735C68E5
:102350006333325F6C6C5F6472697665725C737252
:10236000635C686333325F6C6C5F6461632E63002F
:102370002DE9F041DFF860800026184F0D46044635
:10238000404518BFBC4204D04FF4827114A000F045
:10239000D7F8444503D1002D18BF012D08D0BC4209
:1023A00008BF002D04D040F205110DA000F0C8F8C0
:1023B000A08810F0010F18BF6FF0030609D105F1D6
:1023C00001004FF0010101FA00F0A18841EA00008C
:1023D000A0803046BDE8F0810010044000140440A5
:1023E0002E2E5C647269766572735C686333325F4B
:1023F0006C6C5F6472697665725C7372635C68634F
:1024000033325F6C6C5F6461632E630010B5044609
:10241000A0F18040B0F5822004D040F23B1104A02E
:1024200000F08EF8A08840F00100A08010BD0000F0
:102430002E2E5C647269766572735C686333325FFA
:102440006C6C5F6472697665725C7372635C6863FE
:1024500033325F6C6C5F6461632E63006FF0020166
:1024600020B10021018001218170002108467047C0
:1024700038B50121102001F08DF80121202001F054
:1024800089F82D4C2046FFF7B1FD2C4D2846FFF76B
:10249000ADFD6846FFF7E2FF6A4600212046FFF7E0
:1024A00013FE6A4601212046FFF70EFE6A46002110
:1024B0002846FFF709FE00212046FFF75DFD0021B9
:1024C0002846FFF759FD012207212046FFF714FD9A
:1024D000012207212846FFF70FFD01212046FFF7C3
:1024E000D3FC01212846FFF7CFFC40F6C53240F669
:1024F0001F412046FFF7F0FE40F684720021284677
:10250000FFF798FE002211462046FFF741FE002209
:1025100001212046FFF73CFE002211462846FFF726
:1025200037FE2046FFF772FF00212846FFF720FF05
:10253000642000F06DF838BD001004400014044021
:1025400010B50A46014602A006F0E0FCFEE70000D6
:1025500057726F6E6720706172616D65746572731A
:102560002076616C75653A2066696C65202573205C
:102570006F6E206C696E652025640D0A00000000F6
:1025800081B0114A00210091D36884469268C81E28
:10259000002A18BF009807D101B07047106800F0FA
:1025A00080010098401C0090984201D831B9F5E7AD
:1025B000002902BF6FF0070001B07047A2F804C005
:1025C000002001B07047000008C0FF1F81B00E4915
:1025D000096A0E4BC1F302611B6823FA01F142F252
:1025E00010731944491EB1FBF3F206E0009200BFDC
:1025F00000994B1E00930029FAD1011EA0F10100A1
:10260000F4D101B0704700000040054000C0FF1F3A
:1026100081B00D49096A0D4BC1F302611B6823FAB1
:1026200001F10B4B1944491EB1FBF3F206E0009295
:1026300000BF00994B1E00930029FAD1011EA0F1A2
:102640000100F4D101B070470040054000C0FF1FF9
:102650008096980070B50446A0F1804016460D465D
:10266000B0F5A62004D040F26F110DA0FFF768FF6F
:10267000072D04D94FF4B87109A0FFF761FF0120BD
:10268000A840C5B246B1012E08BFE56105D040F2B1
:10269000711103A0FFF754FF6563002070BD0000B7
:1026A0002E2E5C647269766572735C686333325F88
:1026B0006C6C5F6472697665725C7372635C68638C
:1026C00033325F6C6C5F646D612E630070B50546DC
:1026D000A0F180400C46B0F5A62004D04FF4A571BF
:1026E00006A0FFF72DFF14B114F0FF2F04D040F225
:1026F0004B1102A0FFF724FFAC6170BD2E2E5C646D
:102700007269766572735C686333325F6C6C5F64A8
:1027100072697665725C7372635C686333325F6C96
:102720006C5F646D612E630070B50546A0F180405A
:102730000C46B0F5A62003D0E12107A0FFF700FF6B
:10274000002C18BF012C04D04FF0E20102A0FFF7CB
:10275000F7FE2C6070BD00002E2E5C6472697665F9
:1027600072735C686333325F6C6C5F647269766548
:10277000725C7372635C686333325F6C6C5F646D50
:10278000612E6300F0B501218BB0880300F08EFE4E
:102790000121880300F08AFE0121480400F086FE32
:1027A000684600F0FBF900243048CDE902043048C7
:1027B0000190042001272D250094CDE906402D4EDF
:1027C000CDE904756A462146304600F087F808A82E
:1027D00000F074F92020CDE9080408AA00210A9528
:1027E000304600F005F94FF4B1712348FEF7D6FCEE
:1027F00001213046FFF798FF012200213046FFF704
:1028000029FF684600F0CAF91C48CDE902041C48BB
:10281000019080250094CDE90475CDE906746A46DF
:102820000121304600F05AF840F263111548FEF7D6
:10283000B5FC01213046FFF777FF012211463046F3
:10284000FFF708FF08A800F039F91020CDE90805C6
:1028500008AA01210A94304600F0CAF801220C218E
:10286000094805F0DDFD0BB0F0BD000008C3FF1FF7
:1028700006D00140003005400408014004D001406A
:1028800094C1FF1F0808014000D0014070B50C0042
:10289000054602D014F0FF2F04D04FF49E7104A01F
:1028A000FFF74EFEA868204018BF012070BD000051
:1028B0002E2E5C647269766572735C686333325F76
:1028C0006C6C5F6472697665725C7372635C68637A
:1028D00033325F6C6C5F646D612E63002DE9F041F3
:1028E00007460025A0F1804014460E46B0F5A6200C
:1028F00004D040F2EA2133A0FFF722FE072E04D9CC
:1029000040F2EB212FA0FFF71BFE002C08BF6FF059
:10291000020554D0E268002A1CBFB2F5807FB2F5F0
:10292000007F04D04FF43C7126A0FFF709FEA26996
:10293000002A1CBF012A022A04D040F2F12121A062
:10294000FFF7FEFDE269002A1CBF042A082A04D012
:1029500040F2F2211BA0FFF7F3FD2069B0F5806F74
:1029600004D940F2F32117A0FFF7EAFD2068B0F583
:10297000805F18BF002804D04FF43D7111A0FFF70D
:10298000DFFD07EB861160680864A0684864208A50
:10299000A28AC0F3090040EA02408864E268206825
:1029A0001043D4E906231A43104341F20F3210407A
:1029B000CA6D22F00F0222F498521043C8652846CF
:1029C000BDE8F0812E2E5C647269766572735C6876
:1029D0006333325F6C6C5F6472697665725C7372CC
:1029E000635C686333325F6C6C5F646D612E63009F
:1029F0002DE9F04106460027A0F1804014460D461F
:102A0000B0F5A62004D040F2293121A0FFF798FDAF
:102A1000072D04D940F22A311DA0FFF791FD002CAB
:102A200008BF6FF0020730D02268002A18BF102AB2
:102A300008D0202A18BF302A04D040F22F3114A029
:102A4000FFF77EFDA068B0F5806F04D94FF44C719C
:102A50000FA0FFF775FD6068B0F5806F04D940F2F4
:102A600031310BA0FFF76CFD06EB8511CA6D2378A1
:102A700022F0300203F030031A43CA6522896068ED
:102A800040EA024020F0FC20C8643846BDE8F081EE
:102A90002E2E5C647269766572735C686333325F94
:102AA0006C6C5F6472697665725C7372635C686398
:102AB00033325F6C6C5F646D612E6300002100280F
:102AC00008BF6FF0020103D0002202604260826002
:102AD0000846704770B50546A0F1804016460C4682
:102AE000B0F5A62004D04FF4D27107A0FFF728FD5F
:102AF000072C04D940F2A51103A0FFF721FD05EB37
:102B000084100664002070BD2E2E5C6472697665A8
:102B100072735C686333325F6C6C5F647269766594
:102B2000725C7372635C686333325F6C6C5F646D9C
:102B3000612E630070B50546A0F1804016460C4634
:102B4000B0F5A62004D040F2C91109A0FFF7F8FCA7
:102B5000072C04D94FF4E57105A0FFF7F1FC05EB54
:102B60008410816CC1EA06418164002070BD0000C0
:102B70002E2E5C647269766572735C686333325FB3
:102B80006C6C5F6472697665725C7372635C6863B7
:102B900033325F6C6C5F646D612E6300002200282D
:102BA00008BF6FF0020209D00021016041600123DB
:102BB0008160C0E9031341618161C16110467047C2
:102BC00010B5040018BF012C04D040F2351108A044
:102BD000FFF7B6FC11480068012804D04FF49B7140
:102BE00003A0FFF7ADFC0E48C0F84C4310BD000039
:102BF0002E2E5C647269766572735C686333325F33
:102C00006C6C5F6472697665725C7372635C686336
:102C100033325F6C6C5F65666D2E630000040140AB
:102C20000080204210B504460A480068012804D0FC
:102C300040F206210848FFF783FC24F03F0030F4FF
:102C4000807004D040F207210348FFF779FC034865
:102C5000046010BD000401404C2D0000240401401C
:102C600010B5040018BF012C04D040F2511108A087
:102C7000FFF766FC11480068012804D04FF4A971E1
:102C800003A0FFF75DFC0E48C0F8444310BD0000F0
:102C90002E2E5C647269766572735C686333325F92
:102CA0006C6C5F6472697665725C7372635C686396
:102CB00033325F6C6C5F65666D2E6300000401400B
:102CC0000080204210B530B101280AD040F2D63140
:102CD00006A0FFF735FC1048016841F4803101601F
:102CE00010BD0F480D490160C943F8E72E2E5C6402
:102CF0007269766572735C686333325F6C6C5F64B3
:102D000072697665725C7372635C686333325F6CA0
:102D10006C5F65666D2E63001C04014067452301EE
:102D20000404014010B5044620F03F0030F48070E8
:102D300004D04FF4FC7105A0FFF702FC0E480068B8
:102D400034EA00000CBF0120002010BD2E2E5C6470
:102D50007269766572735C686333325F6C6C5F6452
:102D600072697665725C7372635C686333325F6C40
:102D70006C5F65666D2E63002004014010B5040091
:102D800018BF012C04D040F25F1108A0FFF7D8FB58
:102D900011480068012804D04FF4B07103A0FFF778
:102DA000CFFB0E48C0F8404310BD00002E2E5C64DF
:102DB0007269766572735C686333325F6C6C5F64F2
:102DC00072697665725C7372635C686333325F6CE0
:102DD0006C5F65666D2E6300000401400080204238
:102DE00010B5040018BF012C04D040F2431108A014
:102DF000FFF7A6FB11480068012804D04FF4A27128
:102E000003A0FFF79DFB0E48C0F8484310BD00002B
:102E10002E2E5C647269766572735C686333325F10
:102E20006C6C5F6472697665725C7372635C686314
:102E300033325F6C6C5F65666D2E63000004014089
:102E4000008020422DE9F047044639488946002594
:102E50000068012804D040F2952136A0FFF770FBEE
:102E60003F48D0F8C00320B140F2962131A0FFF7CF
:102E700067FBB4F5003F21BFA4F14070A0F54060AE
:102E8000B0F5806FA4F1407024BFA0F501500B286D
:102E900004D940F2972127A0FFF752FB14F0030F4B
:102EA00004D04FF4267123A0FFF74AFB40F23F10F5
:102EB000FFF7B8FEDFF8AC80D8F8000000F4702609
:102EC000D8F8000020F47020C8F8000008F10407CA
:102ED000386820F0070040F001003860C4F8009026
:102EE0002148006A2149C0F30260096821FA00F014
:102EF00044F62061B0FBF1F1B81500F0BDF910F116
:102F0000080F08BF6FF004051020FFF78BFE38682C
:102F100020F007003860D8F8000006F4702120F493
:102F200070200843C8F800002846BDE8F08700007C
:102F3000000401402E2E5C647269766572735C68D1
:102F40006333325F6C6C5F6472697665725C737256
:102F5000635C686333325F6C6C5F65666D2E630023
:102F600000802042180401400040054000C0FF1FBF
:102F70002DE9F04114460D4606466FF002074FF466
:102F80008078B0F5003F21BFA6F14070A0F5406009
:102F9000B0F5806FA6F1407024BFA0F501500B285A
:102FA00004D940F22E211BA0FFF7CAFA3019411EA6
:102FB000B1F5003F0DD322490144B1F5806F08D32C
:102FC000204908440B2804D940F22F2111A0FFF713
:102FD000B7FA9DB11C48006A1C49C0F30260096839
:102FE00021FA00F044F62061B0FBF1F1404600F018
:102FF00043F9002818BF6FF0040702D03846BDE837
:10300000F0812CB116F8010B05F8010B641EF9D103
:103010000027F3E72E2E5C647269766572735C6834
:103020006333325F6C6C5F6472697665725C737275
:10303000635C686333325F6C6C5F65666D2E630042
:10304000FFF3FFFCBFDFFFFC0040054000C0FF1F97
:103050002DE9F04100250446B0F5003F22BFA4F160
:103060004070A0F54060B0F5806F04D34FF4597103
:103070002DA0FFF765FA14F0030F04D040F265317C
:1030800029A0FFF75DFA33480068012804D040F218
:10309000663125A0FFF754FA2F48D0F8C00320B1BD
:1030A00040F2673120A0FFF74BFA40F23F10FFF7E4
:1030B000B9FD2A4F386800F47026386820F4702073
:1030C000386007F10408D8F8000020F0070040F04D
:1030D0000400C8F80000002020602148006A21494F
:1030E000C0F30260096821FA00F01F49A1FB00103B
:1030F0000109B81500F0C0F810F1080F08BF6FF013
:1031000004051020FFF78EFDD8F8000020F007001E
:10311000C8F80000386806F4702120F470200843D5
:1031200038602846BDE8F0812E2E5C6472697665B1
:1031300072735C686333325F6C6C5F64726976656E
:10314000725C7372635C686333325F6C6C5F65667C
:103150006D2E6300000401400080204218040140ED
:103160000040054000C0FF1F1F85EB5170B50546AC
:103170001A4800240068012804D040F2211118A048
:10318000FFF7DEF90F2D04D94FF4917114A0FFF76A
:10319000D7F91E48016865F303010160016801F079
:1031A0000F01A94218D01B49194A44F62063096847
:1031B000D2F820C0CCF3026C21FA0CFCBCFBF3FC6F
:1031C000641CA44502D26FF0070070BDD0F800C0A7
:1031D0000CF00F0CAC45EBD1002070BD0004014099
:1031E0002E2E5C647269766572735C686333325F3D
:1031F0006C6C5F6472697665725C7372635C686341
:1032000033325F6C6C5F65666D2E6300180401409D
:103210000040054000C0FF1F70B5064600F01F05C6
:1032200012480C460068012804D04FF48E61104803
:10323000FFF786F9002C18BF012C04D040F2714131
:103240000B48FFF77DF9202E04D340F27241084865
:10325000FFF776F9074801680122AA40914304F07C
:103260000102AA401143016070BD0000000401404A
:103270004C2D0000900501402DE9F84380460020C8
:103280000746009028F03F000E4630F4807004D0CE
:103290004FF4FC711048FFF753F9104D296838EAD4
:1032A000010016D00098401C0090B04202D96FF087
:1032B00007070EE028F03F00444630F4807004D049
:1032C0004FF4FC710448FFF73BF9286834EA00002A
:1032D000E8D13846BDE8F8834C2D000020040140B9
:1032E00010B50A4C0A20FFF771F90121022000F005
:1032F00029FB28B1012000F03DF8FDF77FF810BD53
:10330000206840F002002060ECE7000090C1FF1F41
:1033100010B50A4C0A20FFF759F90821022000F0E5
:1033200011FB28B1082000F025F8FDF766F810BD64
:10333000206840F001002060ECE7000090C1FF1F12
:1033400010B50B4C0A20FFF741F94FF40071012032
:1033500000F0F8FA30B14FF4007000F00BF8FDF710
:103360004EF810BD206840F004002060EAE700003D
:1033700090C1FF1F10B5040001D0200C04D040F212
:10338000F91103A0FFF7DCF80E48846510BD0000BA
:103390002E2E5C647269766572735C686333325F8B
:1033A0006C6C5F6472697665725C7372635C68638F
:1033B00033325F6C6C5F696E7465727275707473B2
:1033C0002E6300000010054030B58FB0684601F054
:1033D0006DFB00240094012001940494CDE9054084
:1033E000029469462046039401F016F90CA801F0F6
:1033F00054FB0220CDE90C041F4D0CAA00212846E5
:103400000E9401F0FFF907A801F03CFB41F2707146
:10341000CDE907414FF4800143F69822CDE9091226
:103420000B9107A9284601F0A1FAD5F8240240F42F
:103430008000C5F82402D5F82C0240F48000C5F8BD
:103440002C02D5F8242241F2707161F31502C5F8FF
:103450002422D5F82C2243F6982161F31502C5F8F1
:103460002C2240F63D4105A0FFF76AF8D5F804028A
:10347000C5F804020FB030BD00C003402E2E5C64BE
:103480007269766572735C686333325F6C6C5F641B
:1034900072697665725C696E635C686333325F6C17
:1034A0006C5F687270776D2E6800000070B50D4615
:1034B000040002D01048044203D071210FA0FFF78E
:1034C0003FF8002D18BF012D04D04FF072010BA062
:1034D000FFF736F8144E306910F0010F04D14FF0A9
:1034E000730106A0FFF72CF83068012D0CBFA04334
:1034F0002043306070BD0000EEB378FF2E2E5C6478
:103500007269766572735C686333325F6C6C5F649A
:1035100072697665725C7372635C686333325F6C88
:103520006C5F6663672E63000080044070B50D46D3
:10353000040002D00A48044203D0962109A0FEF7F5
:10354000FFFF134E45B1012D04BFB068A04305D065
:10355000972104A0FEF7F4FFB0682043B06070BD6F
:1035600000480FFE2E2E5C647269766572735C688B
:103570006333325F6C6C5F6472697665725C737220
:10358000635C686333325F6C6C5F6663672E6300F5
:103590000080044070B50D46040002D00A48044281
:1035A00003D0A82109A0FEF7CBFF134E45B1012D92
:1035B00004BFF068A04305D0A92104A0FEF7C0FF16
:1035C000F0682043F06070BDC8FC0FFF2E2E5C64D5
:1035D0007269766572735C686333325F6C6C5F64CA
:1035E00072697665725C7372635C686333325F6CB8
:1035F0006C5F6663672E63000080044070B505460B
:103600001D4816460C46008810F0010F04D140F208
:10361000A7211AA0FEF794FF002D18BF012D09D095
:10362000022D1CBF032D052D04D04FF42A7113A0C9
:10363000FEF786FF24B940F2A92110A0FEF780FF13
:1036400000211A4AAB0114F0010F0CD003EB8100EA
:103650001044012EB0F800C00CBF4CF4004CCCF369
:103660000E0CA0F800C0640808BF70BD481CC1B2B1
:103670001029E8D370BD0000FC3B05402E2E5C6491
:103680007269766572735C686333325F6C6C5F6419
:1036900072697665725C7372635C686333325F6C07
:1036A0006C5F6770696F2E6300000000003C05408E
:1036B00070B5044611480D46008810F0010F04D182
:1036C00040F2EE210EA0FEF73BFF0CB1200B04D020
:1036D00040F2EF210AA0FEF733FF154E4DB1012D48
:1036E00004BF3068204306D04FF43C7104A0FEF7BD
:1036F00027FF3068A043306070BD0000FC3B0540F0
:103700002E2E5C647269766572735C686333325F17
:103710006C6C5F6472697665725C7372635C68631B
:1037200033325F6C6C5F6770696F2E63000000005E
:10373000F03B05402DE9F04114000D4606464FF0E0
:10374000000708BF6FF0020700F0DD806F480088B7
:1037500010F0010F04D140F20F116DA0FEF7F0FE42
:10376000002E18BF012E09D0022E1CBF032E052EDD
:1037700004D04FF4887166A0FEF7E2FE25B940F24E
:10378000111163A0FEF7DCFE2088002818BF012875
:1037900004D04FF489715EA0FEF7D2FE6088002845
:1037A00018BF022804D040F2131159A0FEF7C8FE3A
:1037B000A088002818BF042804D04FF48A7154A0B0
:1037C000FEF7BEFEE08800281CBF1028202804D089
:1037D00040F215114EA0FEF7B3FE2089002818BF55
:1037E000B0F5804F04D04FF48B7149A0FEF7A8FECE
:1037F0006089002818BF402804D040F2171144A067
:10380000FEF79EFEA089002818BF802804D04FF440
:103810008C713FA0FEF794FEE089002818BFB0F538
:10382000005F04D040F2191139A0FEF789FE208A0A
:10383000002818BFB0F5007F04D04FF48D7134A07C
:10384000FEF77EFE608A002818BFB0F5805F04D0C6
:1038500040F21B112EA0FEF773FEA08A002818BFAD
:10386000B0F5806F04D04FF48E7129A0FEF768FE8A
:10387000E08A002818BFB0F5004F04D040F21D11B7
:1038800023A0FEF75DFE0021B3012D4E4FF2F76C31
:1038900015F0010F31D020886288B4F8068040EA24
:1038A0000200A28842EA080240EA02006289B4F8F3
:1038B0000E8040EA0200228A40EA0200628A40EA60
:1038C0000200228940EA0200E28A42EA0000A2895C
:1038D00042EA080242EA0000A28A42EA000203EB3E
:1038E00081003044B0F8008002EA0C0228F0F708AA
:1038F00028F4764848EA020202806D0803D0481C8A
:10390000C1B21029C4D33846BDE8F081FC3B054064
:103910002E2E5C647269766572735C686333325F05
:103920006C6C5F6472697665725C7372635C686309
:1039300033325F6C6C5F6770696F2E63000000004C
:10394000003C054070B50D46040018BF012C09D09D
:10395000022C1CBF032C052C04D04FF409710AA0C3
:10396000FEF7EEFD25B940F2252107A0FEF7E8FDA0
:10397000200100F1804000F5A620B0F800082840A2
:1039800018BF012070BD00002E2E5C647269766540
:1039900072735C686333325F6C6C5F647269766506
:1039A000725C7372635C686333325F6C6C5F677008
:1039B000696F2E630000000070B50D46040018BF4B
:1039C000012C09D0022C1CBF032C052C04D04FF471
:1039D0001C7108A0FEF7B4FD25B940F2712105A0C5
:1039E000FEF7AEFD0F4800EB04100188294301806B
:1039F00070BD00002E2E5C647269766572735C681F
:103A00006333325F6C6C5F6472697665725C73728B
:103A1000635C686333325F6C6C5F6770696F2E63E1
:103A2000000000000A38054070B50C46050002D0C1
:103A300035F01F0004D04FF4BE7110A0FEF780FDDA
:103A4000002C18BF012C04D040F27D110BA0FEF712
:103A500077FD1648008810F0010F04D14FF4BF71B4
:103A600006A0FEF76DFD124905F01F00012C0A8823
:103A70000CBF104322EA0000088070BD2E2E5C644B
:103A80007269766572735C686333325F6C6C5F6415
:103A900072697665725C7372635C686333325F6C03
:103AA0006C5F6770696F2E6300000000FC3B05408F
:103AB000F43B054070B516460C46050018BF012DB5
:103AC00009D0022D1CBF032D052D04D04FF4CA715F
:103AD0001BA0FEF735FD24B940F2951118A0FEF7A2
:103AE0002FFD112E81BFA6F114000628A6F120009B
:103AF000192804D94FF4CB7111A0FEF721FD1C4801
:103B0000008810F0010F04D140F297110CA0FEF7CD
:103B100017FD0021DFF85CC0AA0114F0010F06D0E8
:103B200002EB81006044038866F3050303806408A8
:103B300008BF70BD481CC1B21029EED370BD000093
:103B40002E2E5C647269766572735C686333325FD3
:103B50006C6C5F6472697665725C7372635C6863D7
:103B600033325F6C6C5F6770696F2E63000000001A
:103B7000FC3B0540023C054070B50D46040018BFF3
:103B8000012C09D0022C1CBF032C052C04D040F2C0
:103B90005E2108A0FEF7D4FC25B940F25F2105A004
:103BA000FEF7CEFC0F4800EB04100188294301808A
:103BB00070BD00002E2E5C647269766572735C685D
:103BC0006333325F6C6C5F6472697665725C7372CA
:103BD000635C686333325F6C6C5F6770696F2E6320
:103BE000000000000838054010B5040018BFB4F507
:103BF000805F16D0B4F5005F18BFB4F5405F10D0F9
:103C0000B4F5804F18BFB4F5A04F0AD0B4F5C04F3B
:103C100018BFB4F5E04F04D04FF4F9710AA0FEF7D5
:103C20008FFC1548008810F0010F04D140F2F31109
:103C300005A0FEF785FC1148018804F4E04221F458
:103C4000E0411143018010BD2E2E5C6472697665DF
:103C500072735C686333325F6C6C5F647269766543
:103C6000725C7372635C686333325F6C6C5F677045
:103C7000696F2E6300000000FC3B0540F83B0540E7
:103C80000022002808BF6FF002020CD00021018042
:103C90004180C180C1828181C181018141810182D4
:103CA00041828180818210467047000070B50D46C8
:103CB000040018BF012C09D0022C1CBF032C052CBA
:103CC00004D040F2932108A0FEF73AFC25B94FF446
:103CD000257105A0FEF734FC0F4800EB04100188A5
:103CE0002943018070BD00002E2E5C6472697665E8
:103CF00072735C686333325F6C6C5F6472697665A3
:103D0000725C7372635C686333325F6C6C5F6770A4
:103D1000696F2E63000000000C38054010B586B0B6
:103D20006846FFF7ADFF0024ADF816400220ADF85D
:103D30000040ADF80200C1026A462046FFF7FAFCD7
:103D40006A464FF400610220FFF7F4FC0120ADF851
:103D500000006A4620210020FFF7ECFC6A464FF481
:103D600080610120FFF7E6FCADF800406A464FF4A1
:103D700080410220FFF7DEFC4FF40044ADF816400E
:103D80006A4601210220FFF7D5FC02216A46084657
:103D9000FFF7D0FC6A4604210220FFF7CBFC6A46FD
:103DA00008210220FFF7C6FC6A4620210220FFF707
:103DB000C1FC6A4602210120FFF7BCFC6A462111C2
:103DC0000120FFF7B7FC6A4608210020FFF7B2FC8C
:103DD0006846FFF755FFADF816406A46802100207F
:103DE000FFF7A8FC6A4604210020FFF7A3FC02228B
:103DF00001210020FFF75EFE01216A460846FFF719
:103E000099FC6A4621110120FFF794FC0121084624
:103E1000FFF74EFC01210220FFF74AFC012104209C
:103E2000FFF746FC01210820FFF742FC012110208A
:103E3000FFF73EFC01212020FFF73AFC0121402042
:103E4000FFF736FC01218020FFF732FC0121080238
:103E5000FFF72EFC01214802FFF72AFC012188020E
:103E6000FFF726FC0121C802FFF722FC00210820F1
:103E7000FFF7DAFD252221460020FFF71BFE242252
:103E800061110220FFF716FE112202210020FFF728
:103E900011FE112201210020FFF70CFE05228021D6
:103EA0000120FFF707FE052208211046FFF702FE5A
:103EB0000522E1110120FFF7FDFD0522A1110120DE
:103EC000FFF7F8FD06B010BD6FF0020118B1002138
:103ED000016001714171084670470000254881B0BA
:103EE000006A2549C0F30260244A096821FA00F0FB
:103EF0004FF47A71B0FBF1F00090D2F8FC12002080
:103F000021F0010141F44071C2F8FC12D2F8FC1218
:103F100021F0020141F44071C2F8FC12D2F8FC1207
:103F200021F44071C2F8FC12D2F8FC1240F20133C5
:103F30001943C2F8FC12D2F8FC1211F4807F10D1A0
:103F400000994B1E009303D26FF0070001B0704739
:103F5000D2F8FC1211F4807FF2D000281CBF01B00F
:103F60007047D2F8FC1211F4007F18BF4FF0FF30F9
:103F700001B070470040054000C0FF1F00C0034073
:103F800010B50446A0F18040B0F570301CBFA4F11C
:103F90008040B0F5713017D0A4F18040B0F5723098
:103FA0001CBFA4F18040B0F573300DD0A4F1804067
:103FB000B0F574301CBFA4F18040B0F5753003D06B
:103FC000B1214AA0FEF7BCFA0020C4F840012060ED
:103FD0006060524921646164C4F88010C4F88410A0
:103FE000C4F88810C4F88C10C4F89010C4F8941069
:103FF000C4F89810C4F89C10C4F8C010C4F8C410D9
:10400000C4F8C810C4F8CC10C4F80011C4F80411E6
:10401000C4F80811C4F80C11C4F84401C4F84801EC
:10402000C4F84C01C4F85401C4F85801C4F8600144
:104030004906C4F86411C4F86801C4F88001C4F8E2
:104040008801C4F89001C4F89401C4F89801C4F838
:104050009C01C4F800023249C4F80412C4F80812E2
:10406000C4F81002C4F818024FF48002C4F82022E9
:10407000C4F82422C4F82822C4F82C22C4F8300240
:10408000C4F83402C4F83812C4F83C12C4F8400230
:10409000C4F84402C4F84802C4F84C02C4F8500200
:1040A000C4F85412C4F85812C4F85C12C4F8601270
:1040B000C4F86402C4F86802C4F8A002C4F8A402F8
:1040C0001848C4F8B402C4F8B802C4F8BC02C4F872
:1040D000C002C4F8C402C4F8C802C4F8CC02C4F8D0
:1040E000D002C4F8D402C4F8D80210BD2E2E5C64ED
:1040F0007269766572735C686333325F6C6C5F649F
:1041000072697665725C7372635C686333325F6C8C
:104110006C5F687270776D2E63000000C0FF3F0017
:10412000AAAA0A00C0FF7F0070B504460D006FF018
:10413000020008BF70BD2F4EB4421CBFA4F18040E6
:10414000B0F5713018D0A4F18040B0F572301CBFCA
:10415000A4F18040B0F573300ED0A4F18040B0F5EA
:1041600074301CBFA4F18040B0F5753004D040F22B
:104170004D4121A0FEF7E4F92868002818BF012866
:1041800008D0022818BF032804D040F24E411AA0DC
:10419000FEF7D6F9B44213D02879002818BF0128B9
:1041A00004D04FF48A6114A0FEF7CAF96879002898
:1041B00018BF012804D040F251410FA0FEF7C0F90A
:1041C0002978D4F84C0161F38710C4F84C01B4424B
:1041D0000DD028796979000740EA4150D4F80012DF
:1041E00000F0815021F081510843C4F80002002002
:1041F00070BD000000C003402E2E5C6472697665BD
:1042000072735C686333325F6C6C5F64726976658D
:10421000725C7372635C686333325F6C6C5F68728C
:1042200070776D2E6300000070B504460D006FF0CE
:10423000020008BF70BDA4F18040B0F570301CBF13
:10424000A4F18040B0F5713018D0A4F18040B0F5F1
:1042500072301CBFA4F18040B0F573300ED0A4F1D1
:104260008040B0F574301CBFA4F18040B0F57530CB
:1042700004D040F2093118A0FEF762F9286800283E
:1042800018BF022804D040F20A3113A0FEF758F9F3
:104290006868002818BF102804D040F20B310EA027
:1042A000FEF74EF9A868002818BF202804D04FF464
:1042B000437109A0FEF744F9287829790843297A3F
:1042C0000843D4F84C1100F0320021F032010843C9
:1042D000C4F84C01002070BD2E2E5C6472697665B6
:1042E00072735C686333325F6C6C5F6472697665AD
:1042F000725C7372635C686333325F6C6C5F6872AC
:1043000070776D2E6300000010B50446A0F1804068
:10431000B0F570301CBFA4F18040B0F5713018D0FA
:10432000A4F18040B0F572301CBFA4F18040B0F51C
:1043300073300ED0A4F18040B0F574301CBFA4F1EE
:104340008040B0F5753004D041F296110448FEF774
:10435000F7F8D4F84C0140F02000C4F84C0110BD2F
:104360007C3400006FF0020118B10021016041604F
:10437000816008467047000010B50446A0F18040F7
:10438000B0F570301CBFA4F18040B0F5713018D08A
:10439000A4F18040B0F572301CBFA4F18040B0F5AC
:1043A00073300ED0A4F18040B0F574301CBFA4F17E
:1043B0008040B0F5753004D041F27C110448FEF71E
:1043C000BFF8D4F84C0140F01000C4F84C0110BD07
:1043D0007C34000070B504460D006FF0020008BF89
:1043E00070BDA4F18040B0F570301CBFA4F18040D6
:1043F000B0F5713018D0A4F18040B0F572301CBF18
:10440000A4F18040B0F573300ED0A4F18040B0F537
:1044100074301CBFA4F18040B0F5753004D040F278
:10442000B46126A0FEF78CF82868002818BFB0F108
:10443000807F10D0B0F1007F18BFB0F1407F0AD06C
:10444000B0F1806F18BFB0F1A06F04D040F2B56139
:104450001AA0FEF775F86868002818BFB0F5800F3D
:104460000AD0B0F5000F18BFB0F5400F04D040F2ED
:10447000B66112A0FEF764F8A868002818BFB0F56E
:10448000801F0AD0B0F5001F18BFB0F5401F04D040
:1044900040F2B76109A0FEF753F8D5E900010843DF
:1044A000A9680843D4F8541100F0FE6021F0FE61C1
:1044B0000843C4F85401002070BD00002E2E5C6437
:1044C0007269766572735C686333325F6C6C5F64CB
:1044D00072697665725C7372635C686333325F6CB9
:1044E0006C5F687270776D2E6300000070B50446D3
:1044F0000D006FF0020008BF70BDA4F18040B0F560
:1045000070301CBFA4F18040B0F5713018D0A4F118
:104510008040B0F572301CBFA4F18040B0F573301C
:104520000ED0A4F18040B0F574301CBFA4F18040DF
:10453000B0F5753004D040F2E66126A0FEF700F831
:104540002868002818BFB0F1807F10D0B0F1007F3C
:1045500018BFB0F1407F0AD0B0F1806F18BFB0F142
:10456000A06F04D040F2E7611AA0FDF7E9FF686888
:10457000002818BFB0F5800F0AD0B0F5000F18BFA3
:10458000B0F5400F04D04FF4DD6112A0FDF7D8FF65
:10459000A868002818BFB0F5801F0AD0B0F5001F2A
:1045A00018BFB0F5401F04D040F2E96109A0FDF743
:1045B000C7FFD5E900010843A9680843D4F858119A
:1045C00000F0FE6021F0FE610843C4F858010020AD
:1045D00070BD00002E2E5C647269766572735C6833
:1045E0006333325F6C6C5F6472697665725C7372A0
:1045F000635C686333325F6C6C5F687270776D2EDA
:10460000630000006FF0020118B1002101604160F9
:10461000816008467047000070B505460C006FF0D9
:10462000020008BF70BD092D04D940F2655168A091
:10463000FDF786FF2068002818BF012808D002284F
:1046400018BF032804D040F2665161A0FDF778FF3F
:10465000A068002818BF082808D0102818BF1828FC
:1046600004D040F267515AA0FDF76AFFE0680028C5
:1046700018BF042804D04FF4AD6155A0FDF760FFCA
:10468000206801280DD16068002818BF012808D0D3
:10469000022818BF032804D040F26A514CA0FDF74D
:1046A0004FFF2069042D09D8002818BF202813D0F7
:1046B00040F26D5146A0FDF743FF0DE020B140F2FE
:1046C0006F5143A0FDF73CFF60690F2804D94FF4F8
:1046D000AE613FA0FDF734FFA069002818BF012894
:1046E00004D040F272513AA0FDF72AFF4449042D4C
:1046F00018D82078227B237C1043227A1A43104357
:1047000000F03F0205EB45004000D1F8D83382406D
:104710004FF03F0C0CFA00F023EA00001043C1F800
:10472000D80324E0D1F8DC23681F00EB40004000F0
:104730001F2383409A43237894F80CC043EA0C0368
:1047400094F808C043EA0C0303F01F0383401A43A4
:10475000C1F8DC23D1F8E0230F2383409A43237D63
:1047600003F00F0303FA00F01043C1F8E0032068E0
:1047700001281FD10322D1F8B033012D0CD86800D5
:10478000824023EA0202237903F0030303FA00F0D4
:104790001043C1F8B0030DE00C2000EB450082404F
:1047A00023EA0202237903F0030303FA00F0104323
:1047B000C1F8B003D1F8E8030122AA409043227E59
:1047C00002F00102AA401043C1F8E803002070BDC6
:1047D0002E2E5C647269766572735C686333325F37
:1047E0006C6C5F6472697665725C7372635C68633B
:1047F00033325F6C6C5F687270776D2E63000000FF
:1048000000C0034070B5054614000E466FF002006C
:1048100008BF70BDA5F18040B0F570301CBFA5F198
:104820008040B0F5713018D0A5F18040B0F57230FD
:104830001CBFA5F18040B0F573300ED0A5F18040CB
:10484000B0F574301CBFA5F18040B0F5753004D0D0
:1048500040F2B75139A0FDF773FE092E04D94FF489
:10486000B76136A0FDF76CFE2368002B18BF022B42
:1048700020D0042B18BF062B1CD0082B18BF0A2BE6
:1048800018D00C2B18BF0E2B14D0102B18BF122BC6
:1048900010D0142B18BF162B0CD0182B18BF1A2BA6
:1048A00008D01C2B18BF1E2B04D040F2B95123A0F6
:1048B000FDF746FE6068002818BF012804D040F2CA
:1048C000BA511EA0FDF73CFEA068002818BF2028A2
:1048D00004D040F2BB5119A0FDF732FE3F21042E57
:1048E00014D8D5F8302206EB46004000814022EA79
:1048F0000101227823791A43237A1A4302F03F02F6
:1049000002FA00F00843C5F8300214E0D5F834226A
:10491000701F00EB40004000814022EA0101227834
:1049200023791A43237A1A4302F03F0202FA00F075
:104930000843C5F83402002070BD00002E2E5C64D0
:104940007269766572735C686333325F6C6C5F6446
:1049500072697665725C7372635C686333325F6C34
:104960006C5F687270776D2E6300000070B50C008C
:1049700005466FF0020600F06A80A5F18040B0F5B0
:1049800070301CBFA5F18040B0F5713018D0A5F192
:104990008040B0F572301CBFA5F18040B0F5733097
:1049A0000ED0A5F18040B0F574301CBFA5F1804059
:1049B000B0F5753004D040F2F55126A0FDF7C0FDEA
:1049C0002068002818BFB0F1804F04D040F2F651A3
:1049D00020A0FDF7B5FD6068B0F5800F04D340F26C
:1049E000F7511CA0FDF7ACFDA068002818BFB0F57A
:1049F000800F04D04FF4BF6116A0FDF7A1FDE06861
:104A0000B0F5800F04D340F2F95112A0FDF798FDE4
:104A10002069002818BFB0F5800F04D040F2FA5189
:104A20000CA0FDF78DFDD5F83002216820F0804004
:104A300001F080410843C5F83002D4E90101084380
:104A4000C5F82002D4E903010843C5F8280230461E
:104A500070BD00002E2E5C647269766572735C68AE
:104A60006333325F6C6C5F6472697665725C73721B
:104A7000635C686333325F6C6C5F687270776D2E55
:104A8000630000006FF0020128B100210160416065
:104A90008160C1600161084670476FF0020118B182
:104AA0000021016041608160084670476FF002019B
:104AB00038B1002101604160C160816001614161E4
:104AC000816108467047000010B50446A0F180409F
:104AD000B0F570301CBFA4F18040B0F5713018D033
:104AE000A4F18040B0F572301CBFA4F18040B0F555
:104AF00073300ED0A4F18040B0F574301CBFA4F127
:104B00008040B0F5753004D040F6BF110448FDF781
:104B100017FDD4F8A00240F00800C4F8A00210BDB0
:104B20007C34000070B504460D006FF0020008BF31
:104B300070BD2F4EB4421CBFA4F18040B0F571305F
:104B400018D0A4F18040B0F572301CBFA4F18040B1
:104B5000B0F573300ED0A4F18040B0F574301CBFB6
:104B6000A4F18040B0F5753004D04FF44E7121A00F
:104B7000FDF7E6FC2868002818BF012808D00228A5
:104B800018BF032804D040F239311AA0FDF7D8FC31
:104B9000B44213D02879002818BF012804D040F26D
:104BA0003B3114A0FDF7CCFC6879002818BF012820
:104BB00004D04FF44F710FA0FDF7C2FC2978D4F850
:104BC000480161F38300C4F84801B4420DD028794C
:104BD0006979C00540EA0140D4F8001200F40100F0
:104BE00021F401010843C4F80002002070BD000058
:104BF00000C003402E2E5C647269766572735C6837
:104C00006333325F6C6C5F6472697665725C737279
:104C1000635C686333325F6C6C5F687270776D2EB3
:104C20006300000010B50446A0F18040B0F570307C
:104C30001CBFA4F18040B0F5713018D0A4F18040C1
:104C4000B0F572301CBFA4F18040B0F573300ED0C7
:104C5000A4F18040B0F574301CBFA4F18040B0F5E1
:104C6000753004D041F2AC010448FDF769FCD4F87A
:104C7000480140F00100C4F8480110BD7C34000038
:104C800070B504460D006FF0020008BF70BD2F4ED6
:104C9000B4421CBFA4F18040B0F5713018D0A4F12B
:104CA0008040B0F572301CBFA4F18040B0F5733085
:104CB0000ED0A4F18040B0F574301CBFA4F1804048
:104CC000B0F5753004D040F25A3121A0FDF738FC20
:104CD0002868002818BF012808D0022818BF032818
:104CE00004D040F25B311AA0FDF72AFCB44213D085
:104CF0002879002818BF012804D040F25D3114A0A3
:104D0000FDF71EFC6879002818BF012804D040F286
:104D10005E310FA0FDF714FC2978D4F8480161F347
:104D20008710C4F84801B4420DD02879697900068B
:104D300040EA4140D4F8001200F0817021F0817106
:104D40000843C4F80002002070BD000000C003400A
:104D50002E2E5C647269766572735C686333325FB1
:104D60006C6C5F6472697665725C7372635C6863B5
:104D700033325F6C6C5F687270776D2E6300000079
:104D800010B50446A0F18040B0F570301CBFA4F10E
:104D90008040B0F5713018D0A4F18040B0F5723089
:104DA0001CBFA4F18040B0F573300ED0A4F1804058
:104DB000B0F574301CBFA4F18040B0F5753004D05C
:104DC00041F2C6010448FDF7BBFBD4F8480140F0AE
:104DD0001000C4F8480110BD7C34000010B5040078
:104DE0006FF0020008BF10BD2068002818BFB0F5A2
:104DF000001F04D04FF497614CA0FDF7A1FB606841
:104E0000002818BF042815D0082818BF0C2811D076
:104E1000102818BF14280DD0182818BF1C2809D036
:104E200020281CBF2428282804D040F2B9413FA0E4
:104E3000FDF786FBA068002818BF40282CD08028EA
:104E400018BFC02828D0B0F5807F18BFB0F5A07F6C
:104E500022D0B0F5C07F18BFB0F5E07F1CD0B0F510
:104E6000007F18BFB0F5107F16D0B0F5207F18BFB7
:104E7000B0F5307F10D0B0F5407F18BFB0F5507F4F
:104E80000AD0B0F5607F18BFB0F5707F04D040F253
:104E9000BA4126A0FDF754FBE068B0F5803F04D38B
:104EA00040F2BB4121A0FDF74BFB2069B0F5803FEC
:104EB00004D340F2BC411DA0FDF742FB606902280B
:104EC00018BF002804D040F2BD4118A0FDF738FB00
:104ED000D4E90601214A21F0FF011040084304D023
:104EE00040F2BE4111A0FDF72BFBD4E900010843BD
:104EF0006269A16811430843194940F440300140F8
:104F00001848D0F8BC23184B1A401143C0F8BC1302
:104F1000E168C0F8C8132169C0F8D013A169C0F8CE
:104F2000C013E169C0F8C413002010BD2E2E5C64CC
:104F30007269766572735C686333325F6C6C5F6450
:104F400072697665725C7372635C686333325F6C3E
:104F50006C5F687270776D2E630000000100008046
:104F6000FE03230000C0034001FCDCFF13B50C006E
:104F70006FF0020004BF02B010BD2068002818BF07
:104F8000012804D040F2F34133A0FDF7D9FA60685C
:104F9000002818BFB0F5803F04D040F2F4412EA0A5
:104FA000FDF7CEFAA068002818BF042804D040F20C
:104FB000F54129A0FDF7C4FAE068002818BFB0F554
:104FC000802F04D040F2F64123A0FDF7B9FA206902
:104FD000002818BFB0F5803F04D040F2F7411EA072
:104FE000FDF7AEFA6069002818BF012804D04FF41D
:104FF0009F6119A0FDF7A4FAD4E900010843D4E9A0
:10500000021211430843216908431F4901400098D7
:10501000D0F840221D4B1A401143C0F840121C49E1
:105020000DF5804308159B0A62699840002AD1F863
:10503000BC2307D040F440301043C1F8BC0302B099
:10504000002010BD4FF47F3322F47F3223EA0000AA
:105050001043C1F8BC03F2E72E2E5C6472697665DA
:1050600072735C686333325F6C6C5F64726976651F
:10507000725C7372635C686333325F6C6C5F68721E
:1050800070776D2E6300000005000502FAFFFAFD3F
:1050900000C003406FF0020130B1002101604160A7
:1050A0008160C16001614161084670476FF0020193
:1050B00040B10021016041608160C16001614161D6
:1050C000C0E906110846704710B50446A0F18040BB
:1050D000B0F570301CBFA4F18040B0F5713018D02D
:1050E000A4F18040B0F572301CBFA4F18040B0F54F
:1050F00073300ED0A4F18040B0F574301CBFA4F121
:105100008040B0F5753004D041F2F4210448FDF739
:1051100017FAD4F8400240F48070C4F8400210BD81
:105120007C34000070B50446A0F180400D466FF05D
:105130000206B0F570301CBFA4F18040B0F57130AC
:1051400018D0A4F18040B0F572301CBFA4F18040AB
:10515000B0F573300ED0A4F18040B0F574301CBFB0
:10516000A4F18040B0F5753004D040F282412CA00B
:10517000FDF7E6F9002D51D02868002818BFB0F5DA
:10518000007F0CD0B0F5806F1CBFB0F5C06FB0F5DC
:10519000006F04D040F2854121A0FDF7D1F9686885
:1051A000002818BFB0F5007F0AD0B0F5806F18BF97
:1051B000B0F5C06F04D040F2864119A0FDF7C0F9E8
:1051C000A868002818BF082804D040F2874114A01E
:1051D000FDF7B6F9E868002818BFB0F5002F04D035
:1051E0004FF491610EA0FDF7ABF9A9682868084358
:1051F000E968084316490840D4F84012154A11409E
:105200000843C4F84002D4F84402A98820F4C060DE
:1052100001F4C0610843C4F844020026304670BD62
:105220002E2E5C647269766572735C686333325FDC
:105230006C6C5F6472697665725C7372635C6863E0
:1052400033325F6C6C5F687270776D2E63000000A4
:10525000080E0800F7F1F7FF6FF0020120B10021FE
:10526000016041608160C1600846704770B50446C6
:10527000A0F180400D46B0F570301CBFA4F1804015
:10528000B0F5713018D0A4F18040B0F572301CBF79
:10529000A4F18040B0F573300ED0A4F18040B0F599
:1052A00074301CBFA4F18040B0F5753004D041F2D9
:1052B00097210B48FDF744F9002D18BF022D04D0AB
:1052C00041F298210648FDF73BF9D4F8400205F079
:1052D000020120F002000843C4F8400270BD000043
:1052E0007C34000070B50446A0F180400D46B0F556
:1052F00070301CBFA4F18040B0F5713018D0A4F11B
:105300008040B0F572301CBFA4F18040B0F573301E
:105310000ED0A4F18040B0F574301CBFA4F18040E1
:10532000B0F5753004D041F2A5210B48FDF708F91E
:10533000002D18BFB5F5003F04D041F2A621064864
:10534000FDF7FEF8D4F8400205F4003120F40030F7
:105350000843C4F8400270BD7C34000070B50446B8
:105360000D006FF0020008BF70BDA4F18040B0F5E1
:1053700070301CBFA4F18040B0F5713017D0A4F19B
:105380008040B0F572301CBFA4F18040B0F573309E
:105390000DD0A4F18040B0F574301CBFA4F1804062
:1053A000B0F5753003D09C2114A0FDF7C9F828682A
:1053B000002818BF042804D04FF09D010FA0FDF76E
:1053C000BFF8A868002818BFB0F5807F04D04FF060
:1053D0009E010AA0FDF7B4F868681449C1388842F4
:1053E00003D99F2105A0FDF7ABF868682064A96880
:1053F00028680843C4F84001002070BD2E2E5C646C
:105400007269766572735C686333325F6C6C5F647B
:1054100072697665725C7372635C686333325F6C69
:105420006C5F687270776D2E63000000FFFE3F00B6
:1054300070B50446A0F180400D46B0F570301CBF39
:10544000A4F18040B0F5713018D0A4F18040B0F5DF
:1054500072301CBFA4F18040B0F573300ED0A4F1BF
:105460008040B0F574301CBFA4F18040B0F57530B9
:1054700004D041F230010DA0FDF762F8B5F5803F90
:1054800018BFB5F5003F0AD0B5F5802F18BFB5F5A8
:10549000002F04D041F2310104A0FDF751F8D4F8F7
:1054A00044022843C4F8440270BD00002E2E5C6400
:1054B0007269766572735C686333325F6C6C5F64CB
:1054C00072697665725C696E635C686333325F6CC7
:1054D0006C5F687270776D2E6800000070B50546CD
:1054E0000C006FF0020008BF70BDA5F18040B0F560
:1054F00071301CBFA5F18040B0F5723012D0A5F11B
:105500008040B0F573301FBFA5F18040B0F5743016
:10551000A5F18040B0F5753004D040F284611EA042
:10552000FDF70EF82068042804D940F285611AA01E
:10553000FDF706F86068002818BF402804D040F244
:10554000866115A0FCF7FCFFA068002818BF802822
:1055500004D040F2876110A0FCF7F2FFE068002859
:1055600018BF202804D04FF4D1610BA0FCF7E8FF4E
:10557000D4E901010843216840EA4100C5F8A402CA
:10558000D5F84402217B20F0200001F020010843DF
:10559000C5F84402002070BD2E2E5C6472697665E9
:1055A00072735C686333325F6C6C5F6472697665DA
:1055B000725C7372635C686333325F6C6C5F6872D9
:1055C00070776D2E6300000010B50446A0F1804096
:1055D000B0F571301CBFA4F18040B0F5723012D02C
:1055E000A4F18040B0F573301FBFA4F18040B0F546
:1055F0007430A4F18040B0F5753004D041F261718F
:105600000448FCF79DFFD4F8A40240F00100C4F860
:10561000A40210BD7C3400006FF0020120B1002113
:10562000016041608160C1600846704770B5054601
:105630000C006FF0020008BF70BDA5F18040B0F50E
:1056400070301CBFA5F18040B0F5713018D0A5F1C5
:105650008040B0F572301CBFA5F18040B0F57330CA
:105660000ED0A5F18040B0F574301CBFA5F180408C
:10567000B0F5753004D040F25711A2A0FCF760FFDE
:105680002068AC49C138884204D94FF4AC719DA060
:10569000FCF756FF606800281CBF0128022804D0D0
:1056A00040F2591197A0FCF74BFFA06800281CBFDF
:1056B0000428082804D04FF4AD7192A0FCF740FFF5
:1056C000E068002818BF102808D0202818BF30280C
:1056D00004D040F25B118BA0FCF732FF2069002858
:1056E00018BF402808D0802818BFC02804D04FF425
:1056F000AE7184A0FCF724FF6069002818BFB0F5E4
:10570000807F0AD0B0F5007F18BFB0F5407F04D08D
:1057100040F25D117BA0FCF713FFA069002818BFC1
:10572000B0F5806F0AD0B0F5006F18BFB0F5406FCC
:1057300004D04FF4AF7173A0FCF702FFE0690028BA
:1057400018BFB0F5805F0AD0B0F5005F18BFB0F5A4
:10575000405F04D040F25F116AA0FCF7F1FE206ABE
:10576000002818BFB0F5804F0AD0B0F5004F18BF21
:10577000B0F5404F04D04FF4B07162A0FCF7E0FEEA
:10578000606A002818BFB0F5801F0AD0B0F5001F6E
:1057900018BFB0F5401F04D040F2611159A0FCF7CA
:1057A000CFFEA06A002818BFB0F5801F0AD0B0F560
:1057B000001F18BFB0F5401F04D04FF4B17151A0C5
:1057C000FCF7BEFEE06A002818BFB0F5800F0AD0D3
:1057D000B0F5000F18BFB0F5400F04D040F26311D0
:1057E00048A0FCF7ADFE206B002818BFB0F5800F75
:1057F0000AD0B0F5000F18BFB0F5400F04D04FF439
:10580000B27140A0FCF79CFE606B002818BFB0F19D
:10581000807F0AD0B0F1007F18BFB0F1407F04D084
:1058200040F2651137A0FCF78BFEA06B002818BF73
:10583000B0F1807F0AD0B0F1007F18BFB0F1407F97
:1058400004D04FF4B3712FA0FCF77AFEE06B002870
:1058500018BFB0F1806F0AD0B0F1006F18BFB0F17F
:10586000406F04D040F2671126A0FCF769FE206C5F
:10587000002818BFB0F1806F0AD0B0F1006F18BFD8
:10588000B0F1406F04D04FF4B4711EA0FCF758FE85
:105890002068C5F88000D4E901010843D4E9031267
:1058A0001143084361690843A1690843E16908435A
:1058B000216A0843D5F85411C0EA0100C5F8540123
:1058C000E16A606AE26B0843616B11430843D5F8F3
:1058D000041200F07F6021F07F610843C5F80402E4
:1058E000216BA06A226C0843A16B11430843D5F8D1
:1058F000381200F07F6021F07F610843C5F838025C
:10590000002070BD2E2E5C647269766572735C68CF
:105910006333325F6C6C5F6472697665725C73725C
:10592000635C686333325F6C6C5F687270776D2E96
:1059300063000000FFFE3F0010B50446A0F1804068
:10594000B0F570301CBFA4F18040B0F5713018D0B4
:10595000A4F18040B0F572301CBFA4F18040B0F5D6
:1059600073300ED0A4F18040B0F574301CBFA4F1A8
:105970008040B0F5753004D04FF473610448FCF7F3
:10598000DFFDD4F8540140F08050C4F8540110BD3C
:105990007C34000070B505460C006FF0020008BFB3
:1059A00070BDA5F18040B0F570301CBFA5F18040FE
:1059B000B0F5713018D0A5F18040B0F572301CBF41
:1059C000A5F18040B0F573300ED0A5F18040B0F560
:1059D00074301CBFA5F18040B0F5753004D040F2A2
:1059E000CD11A2A0FCF7ACFD2068B0F5800F04D368
:1059F0004FF4E7719DA0FCF7A3FD606800281CBF71
:105A00000128022804D040F2CF1198A0FCF798FD9D
:105A1000A06800281CBF0428082804D04FF4E871AF
:105A200092A0FCF78DFDE068002818BF102808D070
:105A3000202818BF302804D040F2D1118BA0FCF7E9
:105A40007FFD2069002818BF402808D0802818BF93
:105A5000C02804D04FF4E97184A0FCF771FD60699F
:105A6000002818BFB0F5807F0AD0B0F5007F18BFBE
:105A7000B0F5407F04D040F2D3117CA0FCF760FD6C
:105A8000A069002818BFB0F5806F0AD0B0F5006F8C
:105A900018BFB0F5406F04D04FF4EA7173A0FCF763
:105AA0004FFDE069002818BFB0F5805F0AD0B0F55F
:105AB000005F18BFB0F5405F04D040F2D5116BA075
:105AC000FCF73EFD206A002818BFB0F5804F0AD0D1
:105AD000B0F5004F18BFB0F5404F04D04FF4EB7154
:105AE00062A0FCF72DFD606A002818BFB0F5801F8A
:105AF0000AD0B0F5001F18BFB0F5401F04D040F227
:105B0000D7115AA0FCF71CFDA06A002818BFB0F5F9
:105B1000801F0AD0B0F5001F18BFB0F5401F04D099
:105B20004FF4EC7151A0FCF70BFDE06A002818BFA0
:105B3000B0F5800F0AD0B0F5000F18BFB0F5400FD8
:105B400004D040F2D91149A0FCF7FAFC206B0028E0
:105B500018BFB0F5800F0AD0B0F5000F18BFB0F530
:105B6000400F04D04FF4ED7140A0FCF7E9FC606BEE
:105B7000002818BFB0F1807F0AD0B0F1007F18BFB5
:105B8000B0F1407F04D040F2DB1138A0FCF7D8FC24
:105B9000A06B002818BFB0F1807F0AD0B0F1007F61
:105BA00018BFB0F1407F04D04FF4EE712FA0FCF786
:105BB000C7FCE06B002818BFB0F1806F0AD0B0F1CD
:105BC000006F18BFB0F1406F04D040F2DD1127A084
:105BD000FCF7B6FC206C002818BFB0F1806F0AD02B
:105BE000B0F1006F18BFB0F1406F04D04FF4EF7107
:105BF0001EA0FCF7A5FC2068C5F88400D4E90101CB
:105C00000843D4E903121143084361690843A169B9
:105C10000843E1690843216A0843D5F85811C0EAEE
:105C20000100C5F85801E16A606AE26B0843616BE4
:105C300011430843D5F8081200F07F6021F07F611E
:105C40000843C5F80802216BA06A226C0843A16BC7
:105C500011430843D5F83C1200F07F6021F07F61CA
:105C60000843C5F83C02002070BD00002E2E5C6485
:105C70007269766572735C686333325F6C6C5F6403
:105C800072697665725C7372635C686333325F6CF1
:105C90006C5F687270776D2E6300000010B504466B
:105CA000A0F18040B0F570301CBFA4F18040B0F589
:105CB000713018D0A4F18040B0F572301CBFA4F14F
:105CC0008040B0F573300ED0A4F18040B0F5743050
:105CD0001CBFA4F18040B0F5753004D04FF476615C
:105CE0000448FCF72DFCD4F8580140F08050C4F86B
:105CF000580110BD7C3400006FF0020190B10A49D8
:105D00000160002141608160C16001614161816188
:105D1000C161016241628162C16201634163816369
:105D2000C163016408467047C0FF3F0070B5044678
:105D30000D006FF0020008BF70BD2F4EB4421CBFB3
:105D4000A4F18040B0F5713018D0A4F18040B0F5D6
:105D500072301CBFA4F18040B0F573300ED0A4F1B6
:105D60008040B0F574301CBFA4F18040B0F57530B0
:105D700004D040F27D3121A0FCF7E2FB2868002826
:105D800018BF012808D0022818BF032804D040F209
:105D90007E311AA0FCF7D4FBB44213D02879002836
:105DA00018BF012804D04FF4607114A0FCF7C8FBA1
:105DB0006879002818BF012804D040F281310FA073
:105DC000FCF7BEFB2978D4F8480161F38B20C4F8B6
:105DD0004801B4420DD028796979400640EA8140F3
:105DE000D4F8001200F0017021F001710843C4F8EA
:105DF0000002002070BD000000C003402E2E5C6435
:105E00007269766572735C686333325F6C6C5F6471
:105E100072697665725C7372635C686333325F6C5F
:105E20006C5F687270776D2E6300000010B50446D9
:105E3000A0F18040B0F570301CBFA4F18040B0F5F7
:105E4000713018D0A4F18040B0F572301CBFA4F1BD
:105E50008040B0F573300ED0A4F18040B0F57430BE
:105E60001CBFA4F18040B0F5753004D04FF48751C9
:105E70000448FCF765FBD4F8480140F48070C4F88E
:105E8000480110BD7C34000070B50446A0F180408C
:105E90000D46B0F570301CBFA4F18040B0F57130F4
:105EA00018D0A4F18040B0F572301CBFA4F180403E
:105EB000B0F573300ED0A4F18040B0F574301CBF43
:105EC000A4F18040B0F5753004D04FF4CB510848B0
:105ED000FCF736FB0749A5F1C100884204D941F619
:105EE00061110348FCF72CFBC4F8805070BD000022
:105EF0007C340000FFFE3F0070B50446A0F18040F6
:105F00000D46B0F570301CBFA4F18040B0F5713083
:105F100018D0A4F18040B0F572301CBFA4F18040CD
:105F2000B0F573300ED0A4F18040B0F574301CBFD2
:105F3000A4F18040B0F5753004D041F66E110848E8
:105F4000FCF7FEFA0749A5F1C100884204D941F6E1
:105F50006F110348FCF7F4FAC4F8885070BD0000D4
:105F60007C340000FFFE3F0070B50446A0F1804085
:105F70000D46B0F570301CBFA4F18040B0F5713013
:105F800018D0A4F18040B0F572301CBFA4F180405D
:105F9000B0F573300ED0A4F18040B0F574301CBF62
:105FA000A4F18040B0F5753004D041F628210848AE
:105FB000FCF7C6FA0749A5F1C100884204D941F6A9
:105FC00029210348FCF7BCFAC4F8045170BD000055
:105FD0007C340000FFFE3F0070B50446A0F1804015
:105FE0000D46B0F570301CBFA4F18040B0F57130A3
:105FF00018D0A4F18040B0F572301CBFA4F18040ED
:10600000B0F573300ED0A4F18040B0F574301CBFF1
:10601000A4F18040B0F5753004D041F6362108482F
:10602000FCF78EFA0749A5F1C100884204D941F670
:1060300037210348FCF784FAC4F80C5170BD000006
:106040007C340000FFFE3F0070B50446A0F18040A4
:106050000D46B0F570301CBFA4F18040B0F5713032
:1060600018D0A4F18040B0F572301CBFA4F180407C
:10607000B0F573300ED0A4F18040B0F574301CBF81
:10608000A4F18040B0F5753004D04FF4D0510848E9
:10609000FCF756FA0749A5F1C100884204D941F638
:1060A00001210348FCF74CFAC4F8005170BD000010
:1060B0007C340000FFFE3F0070B50446A0F1804034
:1060C0000D46B0F570301CBFA4F18040B0F57130C2
:1060D00018D0A4F18040B0F572301CBFA4F180400C
:1060E000B0F573300ED0A4F18040B0F574301CBF11
:1060F000A4F18040B0F5753004D041F60E21084877
:10610000FCF71EFA0749A5F1C100884204D941F6FF
:106110000F210348FCF714FAC4F8085170BD0000C1
:106120007C340000FFFE3F0070B50446A0F18040C3
:106130000D46B0F570301CBFA4F18040B0F5713051
:1061400018D0A4F18040B0F572301CBFA4F180409B
:10615000B0F573300ED0A4F18040B0F574301CBFA0
:10616000A4F18040B0F5753004D041F638110748ED
:10617000FCF7E6F90649A5F1C100884204D941F6C9
:1061800039110248FCF7DCF9256470BD7C3400004D
:10619000FFFE3F0070B50446A0F180400D46B0F50B
:1061A00070301CBFA4F18040B0F5713018D0A4F15C
:1061B0008040B0F572301CBFA4F18040B0F5733060
:1061C0000ED0A4F18040B0F574301CBFA4F1804023
:1061D000B0F5753004D041F646110748FCF7B0F928
:1061E0000649A5F1C100884204D941F64711024889
:1061F000FCF7A6F9656470BD7C340000FFFE3F002B
:1062000070B5214E0D460446B0421CBFA4F180403B
:10621000B0F5713018D0A4F18040B0F572301CBFD9
:10622000A4F18040B0F573300ED0A4F18040B0F5F9
:1062300074301CBFA4F18040B0F5753004D041F239
:106240005C2112A0FCF77CF9B44209D115B135F4F8
:10625000E0000ED041F25E210CA0FCF771F908E0DD
:1062600015B135F4700004D04FF4935107A0FCF73A
:1062700067F9D4F8440205F4700120F47000084373
:10628000C4F8440270BD000000C003402E2E5C64C0
:106290007269766572735C686333325F6C6C5F64DD
:1062A00072697665725C696E635C686333325F6CD9
:1062B0006C5F687270776D2E6800000070B50446E0
:1062C0000D006FF0020008BF70BD2F4EB4421CBF1E
:1062D000A4F18040B0F5713018D0A4F18040B0F541
:1062E00072301CBFA4F18040B0F573300ED0A4F121
:1062F0008040B0F574301CBFA4F18040B0F575301B
:1063000004D040F29F3121A0FCF71AF92868002838
:1063100018BF012808D0022818BF032804D04FF462
:1063200068711AA0FCF70CF9B44213D02879002840
:1063300018BF012804D040F2A23114A0FCF700F9E4
:106340006879002818BF012804D040F2A3310FA0BB
:10635000FCF7F6F82978D4F8480161F39340C4F8C3
:106360004801B4420DD028796979800640EAC140DD
:10637000D4F8001200F0816021F081610843C4F874
:106380000002002070BD000000C003402E2E5C649F
:106390007269766572735C686333325F6C6C5F64DC
:1063A00072697665725C7372635C686333325F6CCA
:1063B0006C5F687270776D2E6300000010B5044644
:1063C000A0F18040B0F570301CBFA4F18040B0F562
:1063D000713018D0A4F18040B0F572301CBFA4F128
:1063E0008040B0F573300ED0A4F18040B0F5743029
:1063F0001CBFA4F18040B0F5753004D041F2FA0121
:106400000448FCF79DF8D4F8480140F48030C4F803
:10641000480110BD7C34000070B504460D006FF0DB
:10642000020008BF70BD2F4EB4421CBFA4F18040D3
:10643000B0F5713018D0A4F18040B0F572301CBFB7
:10644000A4F18040B0F573300ED0A4F18040B0F5D7
:1064500074301CBFA4F18040B0F5753004D040F218
:10646000C13121A0FCF76CF82868002818BF01286A
:1064700008D0022818BF032804D040F2C2311AA065
:10648000FCF75EF8B44213D02879002818BF012821
:1064900004D04FF4717114A0FCF752F86879002809
:1064A00018BF012804D040F2C5310FA0FCF748F80E
:1064B0002978D4F8480161F39750C4F84801B442F0
:1064C0000DD028796979C00640EA0150D4F800124D
:1064D00000F0016021F001610843C4F800020020CF
:1064E00070BD000000C003402E2E5C6472697665AA
:1064F00072735C686333325F6C6C5F64726976657B
:10650000725C7372635C686333325F6C6C5F687279
:1065100070776D2E6300000010B50446A0F1804036
:10652000B0F570301CBFA4F18040B0F5713018D0C8
:10653000A4F18040B0F572301CBFA4F18040B0F5EA
:1065400073300ED0A4F18040B0F574301CBFA4F1BC
:106550008040B0F5753004D041F214110448FBF7C7
:10656000EFFFD4F8480140F48010C4F8480110BD92
:106570007C3400006FF0020128B1002101608160CD
:10658000024941600021084670470000C0FF3F00FB
:1065900030B58FB006A8FEF789FD4FF40010002536
:1065A000CDE906050220CDE90A501920CDE90C55A8
:1065B000099006A8FEF712FC224CD4F8BC0340F464
:1065C0009810C4F8BC03D4F8BC0340F43020C4F8DD
:1065D000BC036846FEF75EFD042002900004CDE98E
:1065E00003050120009000040190694605952046AE
:1065F000FEF7BCFC69461448FEF7B8FC6946134830
:10660000FEF7B4FC69461248FEF7B0FC6946114833
:10661000FEF7ACFC69461048FEF7A8FC1920C4F848
:10662000C803C4F8CC030D20C4F8D003C4F8D403C5
:10663000D4F8BC0340F0010040F44030C4F8BC037F
:106640000FB030BD00C0034000C4034000C8034089
:1066500000CC034000D0034000D403402DE9F04FAC
:10666000A1B001214FF47C70FCF760FFDFF8FCA3C0
:106670005046FDF785FCFE48FDF782FCFD48FDF71E
:106680007FFCFD48FDF77CFCFC48FDF779FCDFF85A
:10669000F0B35846FDF774FCFDF720FC5046FEF7BA
:1066A00013FAF348FEF710FAF248FEF70DFAF24833
:1066B000FEF70AFAF148FEF707FA5846FEF704FA21
:1066C0001BA8FFF757FF00264FF4F040CDE91B60F1
:1066D0001BA950461D96FEF741FE1BA9E448FEF794
:1066E0003DFE1BA9E348FEF739FE1BA9E248FEF771
:1066F00035FE1BA9E148FEF731FE1BA95846FEF7FF
:106700002DFE6846FFF7F8FA2024402004A90296DF
:1067100047014FF400590196039481E8C102C00378
:106720004FF40048CDE908800A9080000B900C904F
:1067300080008500CDE90E050D9069465046109504
:10674000FEF774FF69465846FEF770FFE000CDE99A
:10675000046040030394CDE908800A90800001960C
:1067600002960B900C908000CDE90E051095CDE9B6
:1067700006790D906946BE48FEF758FF6946BF4846
:10678000FEF754FF04A9029680200196039481E845
:10679000C1024003CDE9088040000A9080000B90C0
:1067A0000C908000CDE90E050D906946B248109519
:1067B000FEF73CFF6946AF48FFF7ECF82001CDE952
:1067C000046000030396CDE908800A90019640001A
:1067D0000B90029640000C908000CDE90E051095BC
:1067E000CDE906760D906946A348FFF7D3F86946D0
:1067F000A048FEF71BFF4FF4F0415046FFF794FC12
:106800004FF4F0415046FFF7C5FC4FF4705150462D
:10681000FFF73AFB4FF470515046FFF76DFB4FF412
:10682000F050CAF8C000D346CBF8C800954DDFF849
:10683000409229464846FFF777FC29464846FFF72D
:10684000A9FC4FF470514846FFF71EFB4FF47051FE
:106850004846FFF751FB874F29463846FFF764FC4F
:1068600029463846FFF796FC40F283713846FFF719
:106870000BFB40F283713846FFF73EFB44F2833056
:10688000C7F88400C7F88C004FF47050C7F8900028
:10689000C7F898004000C7F89400C7F89C00DFF8DC
:1068A000E0A129465046FFF73FFC29465046FFF736
:1068B00071FC4FF470515046FFF7E6FA4FF47051F7
:1068C0005046FFF719FBDFF8B48129464046FFF731
:1068D0002BFC29464046FFF75DFC4FF470514046C3
:1068E000FFF7D2FA4FF470514046FFF705FBDFF88F
:1068F000888129464046FFF717FC29464046FFF7A6
:1069000049FC40F283714046FFF7BEFA40F28371C2
:106910004046FFF7F1FA44F28330C8F88400C8F823
:106920008C004FF47050C8F89000C8F898004000F0
:10693000C8F89400C8F89C0018A8FDF713FD0225BC
:1069400010201895CDE9190418A95846FDF76CFCDC
:1069500040F283715846FFF777FB40F28371584647
:10696000FFF7AAFB40F283715846FFF7FDFA40F2A9
:1069700083715846FFF730FBDBF84C0140F0010013
:10698000CBF84C0102201025CDE9180518A91A945E
:106990004846FDF749FC40F283714846FFF754FB37
:1069A00040F283714846FFF787FB40F28371484607
:1069B000FFF7DAFA40F283714846FFF70DFBD9F88A
:1069C0004C0140F00100C9F84C014FF0020BCDF82A
:1069D00060B0CDE9195418A95046FDF725FC40F2E6
:1069E00083715046FFF730FB40F283715046FFF74A
:1069F00063FB40F283715046FFF7B6FA40F28371B1
:106A00005046FFF7E9FADAF84C0140F00100CAF805
:106A10004C010220CDE91805DFF860B018A91A94DE
:106A20005846FDF701FC40F283715846FFF70CFB16
:106A300040F283715846FFF73FFB40F2837158469E
:106A4000FFF792FA40F283715846FFF7C5FA074DF7
:106A5000DBF84C0140F00100CBF84C0112A8FDF727
:106A600033FA012412948DF84C400DE000C003402D
:106A700000C4034000C8034000CC034000D00340E2
:106A800000D40340C0FF3F008DF84D6012A9284696
:106A9000FFF74CF92846FFF7C9F912A92846FEF777
:106AA00041F82846FEF7BEF812A92846FEF7E8F896
:106AB0002846FEF765F912A92846FFF7FFFB28468E
:106AC000FFF77CFC12A92846FFF7A6FC2846FFF733
:106AD00023FD12A92846FDF727FB2846FDF74CFCAD
:106AE0002846FDF711FCFE480460D5F8B41328468B
:106AF00041F00101C5F8B413A105FFF781FB8DF842
:106B00004C4012968DF84D6012A94846FFF70EF9D9
:106B10004846FFF78BF912A94846FEF703F84846A6
:106B2000FEF780F812A94846FEF7AAF84846FEF795
:106B300027F912A94846FFF7C1FB4846FFF73EFC7C
:106B400012A94846FFF768FC4846FFF7E5FC12A982
:106B50004846FDF7E9FA4846FDF70EFC4846FDF7C2
:106B6000D3FBD5F8B40340F00200C5F8B403A10587
:106B70004846FFF745FB8DF84C4012968DF84D6066
:106B800012A93846FFF7D2F83846FFF74FF912A995
:106B90003846FDF7C7FF3846FEF744F812A93846D5
:106BA000FEF76EF83846FEF7EBF812A93846FFF705
:106BB00085FB3846FFF702FC12A93846FFF72CFC8C
:106BC0003846FFF7A9FC12A93846FDF7ADFA38465A
:106BD000FDF7D2FB3846FDF797FBD5F8B40340F03C
:106BE0000400C5F8B403A1053846FFF709FB8DF88A
:106BF0004C4012968DF84D6012A94046FFF796F86A
:106C00004046FFF713F912A94046FDF78BFF4046B7
:106C1000FEF708F812A94046FEF732F84046FEF7A4
:106C2000AFF812A94046FFF749FB4046FFF7C6FB05
:106C300012A94046FFF7F0FB4046FFF76DFC12A992
:106C40004046FDF771FA4046FDF796FB4046FDF7DA
:106C50005BFBD5F8B40340F00800C5F8B403A10508
:106C60004046FFF7CDFA8DF84C4012968DF84D60F6
:106C700012A95846FFF75AF85846FFF7D7F812A955
:106C80005846FDF74FFF5846FDF7CCFF12A958466E
:106C9000FDF7F6FF5846FEF773F812A95846FFF7BE
:106CA0000DFB5846FFF78AFB12A95846FFF7B4FBC5
:106CB0005846FFF731FC12A95846FDF735FA5846F9
:106CC000FDF75AFB5846FDF71FFBD5F8B40340F01B
:106CD0001000C5F8B403A1055846FFF791FA8DF8E6
:106CE0004C4012968DF84D6012A95046FFF71EF8E1
:106CF0005046FFF79BF812A95046FDF713FF504688
:106D0000FDF790FF12A95046FDF7BAFF5046FEF777
:106D100037F812A95046FFF7D1FA5046FFF74EFB5D
:106D200012A95046FFF778FB5046FFF7F5FB12A972
:106D30005046FDF7F9F95046FDF71EFB5046FDF7AA
:106D4000E3FAD5F8B40340F02000C5F8B403A10578
:106D50005046FFF755FA14A8FEF75EFC61494FF460
:106D600070500860091D0860149614A958461596BD
:106D7000FEF7B4FB5846FEF727FC5B494FF4705012
:106D80000860091D0860CDE9144614A93846169616
:106D9000FEF7A4FB3846FEF717FC54494FF4F050B9
:106DA0000860091D08600220CDE9140614A95046A8
:106DB000FEF794FB5046FEF707FC4D494FF4B440F4
:106DC0000860091D08600320CDE9140614A948468F
:106DD000FEF784FB4846FEF7F7FB46494FF4B44004
:106DE0000860091D08600420CDE9140614A9404676
:106DF0001696FEF773FB4046FEF7E6FBD5F8B403A4
:106E000040F48070C5F8B403D5F8B40340F40070C2
:106E1000C5F8B403D5F8B40340F48060C5F8B403F2
:106E2000D5F8B40340F40060C5F8B403D5F8B40352
:106E300040F48050C5F8B403D5F8B40340F40050D2
:106E4000C5F8B40321042846FEF7F2FAA104284647
:106E5000FEF7EEFA21044846FEF7EAFAA104484696
:106E6000FEF7E6FA21043846FEF7E2FAA1043846B6
:106E7000FEF7DEFA21044046FEF7DAFAA1044046A6
:106E8000FEF7D6FA21045846FEF7D2FAA104584676
:106E9000FEF7CEFA21045046FEF7CAFAA104504686
:106EA000FEF7C6FA00F066F8FFF772FB1EA8FDF7C2
:106EB000A9FBE005CDE91E60801020901EA92846A0
:106EC000FDF788FA1EA92846FDF710FB1EA95846B3
:106ED000FDF780FA1EA95846FDF708FB1EA90BE036
:106EE000A0547842B4C20340BCC20340C4C20340B1
:106EF000CCC20340D4C203403846FDF76BFA1EA94A
:106F00003846FDF7F3FA2846FEF716FD2846FEF749
:106F1000C5FE4846FEF710FD4846FEF7BFFE384660
:106F2000FEF70AFD3846FEF7B9FE4046FEF704FDBF
:106F30004046FEF7B3FE5846FEF7FEFC5846FEF705
:106F4000ADFE5046FEF7F8FC5046FEF7A7FED5F81A
:106F5000B40340F03F00C5F8B403054901200860C0
:106F6000081F04603F20C5F8F00321B0BDE8F08F92
:106F7000FC76784230B585B06846FEF76DF908209A
:106F8000029000040390002001904FF40060344C04
:106F9000009069462046FEF7C5F800212046FEF71E
:106FA00065F900212046FEF79DF92046FEF78CF892
:106FB0002C4D69462846FEF7B5F800212846FEF715
:106FC00055F900212846FEF78DF92846FEF77CF892
:106FD000254D69462846FEF7A5F800212846FEF70C
:106FE00045F900212846FEF77DF92846FEF76CF8A2
:106FF0001E4D69462846FEF795F800212846FEF703
:1070000035F900212846FEF76DF92846FEF75CF8B1
:10701000174D69462846FEF785F800212846FEF7F9
:1070200025F900212846FEF75DF92846FEF74CF8C1
:10703000104D69462846FEF775F800212846FEF7F0
:1070400015F900212846FEF74DF92846FEF73CF8D1
:10705000D4F8AC1341F03F01C4F8AC1305B030BD17
:1070600000C0034000C4034000C8034000CC0340FC
:1070700000D0034000D40340034810B500688047A7
:10708000BFF34F8F10BD000018C2FF1F034810B59B
:1070900040688047BFF34F8F10BD000018C2FF1F2C
:1070A000034810B580688047BFF34F8F10BD0000C4
:1070B00018C2FF1F034810B5C0688047BFF34F8F49
:1070C00010BD000018C2FF1F034810B500698047BB
:1070D000BFF34F8F10BD000018C2FF1F034810B54B
:1070E00040698047BFF34F8F10BD000018C2FF1FDB
:1070F000034810B580698047BFF34F8F10BD000073
:1071000018C2FF1F034810B5C0698047BFF34F8FF7
:1071100010BD000018C2FF1F034810B5006A804769
:10712000BFF34F8F10BD000018C2FF1F034810B5FA
:10713000406A8047BFF34F8F10BD000018C2FF1F89
:10714000034810B5806A8047BFF34F8F10BD000021
:1071500018C2FF1F034810B5C06A8047BFF34F8FA6
:1071600010BD000018C2FF1F034810B5006B804718
:10717000BFF34F8F10BD000018C2FF1F034810B5AA
:10718000406B8047BFF34F8F10BD000018C2FF1F38
:10719000034810B5806B8047BFF34F8F10BD0000D0
:1071A00018C2FF1F034810B5C06B8047BFF34F8F55
:1071B00010BD000018C2FF1F30B4DFF8C4C0314B4F
:1071C0004FF47A75042A35D0052A1CBF30BC7047AD
:1071D00042F21072B1FBF2F202F1300404706FF46B
:1071E0001C74624301EB0212B2FBF5F101F13004B1
:1071F00044706FF07C04614302EBC102ACFB02C13E
:10720000490901F1300C80F802C06FF0180C01FB45
:107210000CF102EB8102A3FB0231C90801F130033A
:10722000494201EB810102EB4101C3703031017130
:1072300030BC7047B1FBF5F202F1300404706FF01E
:107240007C04624301EBC202ACFB02C1490901F1BB
:10725000300C80F801C06FF0180C01FB0CF102EB50
:107260008102A3FB0231C90801F13003494201EB5D
:10727000810102EB410183703031C17030BC704735
:107280001F85EB51CDCCCCCC70B5012184B0080268
:10729000FCF780F901214802FCF77CF96846FAF70F
:1072A000DFFC022410200021ADF80040ADF80410EE
:1072B000ADF80200ADF806000120ADF808001A4D47
:1072C000ADF80A1069462846FAF7DAFBADF8004037
:1072D0000821164EADF8021069463046FAF7D0FB89
:1072E000ADF800400421124CADF80210694620466A
:1072F000FAF7C6FB01212046FAF764FB012120467C
:10730000FAF770FC01213046FAF75CFB01213046A8
:10731000FAF768FC01212846FAF754FB01212846B8
:10732000FAF760FC04B070BD00B003400085034074
:107330000084034010F0010F06D01C4940F22312D4
:107340000A6043F210220A6010F0020F02D01949BD
:10735000174A0A6110F0040F03D017494AF201528C
:107360000A8010F0200F03D0144A49F2A5619164FD
:10737000134A10F0100F06D0B2F8FE334AF208514B
:107380001943A2F8FE1310F0400F06D0B2F8FE33F6
:107390004AF203511943A2F8FE1310F0800F08BF00
:1073A00070477720074908607047000000040140DB
:1073B0000100A5A500800440FC3B054000000540FD
:1073C000004005400C08054070B54B4D0024A88ACC
:1073D00002280CD0042810D0A5F84A404FF40061D0
:1073E0000220FCF7C9FB4FF48051002049E04FF424
:1073F00000610220FCF75AFC45E0D5F8E00010F0EF
:10740000010F18BF142102D0A5F84C100EE010F4A3
:10741000807F18BF2821F7D110F4805F18BF3C216E
:10742000F2D110F4803F18BF5021EDD110F0020FBF
:1074300018BFC82002D0A5F84C000FE010F4007F60
:1074400018BFDC20F7D110F4801F18BFF020F2D154
:1074500010F4001F18BF4FF48270ECD1B5F84A0049
:10746000411CA5F84A10B5F84C10884206D3A5F87F
:107470004A404FF480510020FCF718FC4FF40061A3
:107480000220FCF799FAB5F84E00401C80B2A5F82E
:107490004E00298C884204D3A5F84E40E88BA5F80D
:1074A0005000B5F92600A5F85200B5F92810884219
:1074B000B8BFA5F85210B5F952001928ACBF23285F
:1074C00040F22B140ADB2D28B8BF40F2572405DB0D
:1074D0003228B4BF40F2833440F24B44B5F8540034
:1074E000844208BF70BD22460121044800F042FEDC
:1074F000A5F8544070BD000018C0FF1F00A803404D
:1075000070B55E4D04460422401CA96DFFF754FE81
:107510000422E01DD5F88810FFF74EFE042204F186
:107520000C00D5F88C10FFF747FE042204F111007F
:10753000696EFFF741FE042204F11600A96EFFF701
:107540003BFE3022E276D5F8E0004FF0310110F03A
:10755000010F18BFE176227710F0020F18BF2177D4
:10756000627710F0040F18BF6177A27710F0200F38
:1075700018BFA177E27710F4807F18BFE17784F815
:10758000202010F4007F18BF84F8201084F82120F8
:1075900010F4806F18BF84F8211084F8222010F4B2
:1075A000805F18BF84F8221084F8232010F4005F55
:1075B00018BF84F8231084F8242010F4804F18BFDB
:1075C00084F8241084F8252010F4803F18BF84F834
:1075D000251084F8262010F4003F18BF84F82610E8
:1075E00084F8272010F4802F18BF84F8271084F81F
:1075F000282010F4801F18BF84F8281084F8292050
:1076000010F4001F18BF84F8291084F82A20287D60
:107610000422303084F82C0004F12E00D5F8D0106C
:10762000FFF7CAFD164E042204F133003168FFF75C
:10763000C3FD052204F13800B16AFFF7BDFD06F174
:1076400038000522816A04F13E00FFF7B5FD0522EE
:1076500004F14400D5F80C11FFF7AEFD052204F14A
:107660004A00D5F81011FFF7A7FD04F15000D5F836
:107670006811BDE870400522FFF79EBD18C0FF1FCE
:1076800098C2FF1F2DE9F041764F054684B0386857
:107690000C460026009078680190B8680290F8685F
:1076A00011F0E06F03901CBF04F0E060B0F1807F48
:1076B00012D0B0F1007F18BFB0F1407F0CD0B0F114
:1076C000806F1CBFB0F1A06FB0F1C06F04D040F26A
:1076D0002E216548FAF734FF14F0700F1CBF04F038
:1076E000700010280DD0202818BF302809D040285D
:1076F0001CBF5028602804D040F22F215A48FAF7C6
:107700001FFF14F4E02F1CBF04F4E021B1F5803F0B
:1077100012D0B1F5003F18BFB1F5403F0CD0B1F524
:10772000802F1CBFB1F5A02FB1F5C02F04D04FF4AE
:107730000C714D48FAF704FF14F0070F1CBF04F05A
:10774000070101290DD0022918BF032909D00429F6
:107750001CBF0529062904D040F231214248FAF71E
:10776000EFFE14F4E06F1CBF04F4E061B1F5807F1C
:1077700012D0B1F5007F18BFB1F5407F0CD0B1F544
:10778000806F1CBFB1F5A06FB1F5C06F04D040F29F
:1077900032213548FAF7D4FE14F4E04F1CBF04F44C
:1077A000E041B1F5805F12D0B1F5005F18BFB1F5CF
:1077B000405F0CD0B1F5804F1CBFB1F5A04FB1F5C3
:1077C000C04F04D040F233212748FAF7B9FE2748CA
:1077D000054204D14FF40D712348FAF7B1FEDFF8EA
:1077E0009080B8F8FE0310F0010F04D140F235216B
:1077F0001D48FAF7A5FE98F8260000F007000528B6
:1078000012D13869012610F0010F04D14FF40F7125
:107810001548FAF795FE17483860C0127860B860CE
:10782000F8601E20FAF7F4FED8F8200004EA0501FB
:10783000A8430843C8F820001E20FAF7E9FE002EEE
:1078400004BF04B0BDE8F08100983860019878600A
:107850000298B8600398F86004B01E20BDE8F041BB
:10786000FAF7D6BE00800440F813000077770707C8
:10787000004005400EFAFFFF864830B40146D0F8BC
:107880009020B1F9341001234FF0140CB2F5F03F01
:1078900008DD491C09B281861429A8BFA0F834C0AC
:1078A00014DB0DE0CD32B2F5F03F06DA491E09B225
:1078B00081860129B8BF838608DB818E142905D112
:1078C000D0F8E01041F00201C0F8E0107149D0F8A2
:1078D0009420B1F93610B2F52A3F08DD491C09B2EF
:1078E000C1861429A8BFA0F836C014DB0DE0CD3244
:1078F000B2F52A3F06DA491E09B2C1860129B8BF8E
:10790000C38608DBC18E142905D1D0F8E01041F4FC
:107910000071C0F8E0105F49D0F89830B1F9382014
:107920000021B3F55C2F0ADD521C418712B281871A
:107930000287142AA8BFA0F838C030DA21E06FF41B
:107940002A24554D1C44AC420AD201874187828FBC
:10795000521C12B28287142AC8BFA0F83CC010E0A3
:10796000B3F52A2F0BDA01878187428F521C12B29E
:107970004287142AA8BFA0F83AC002DA09E0142A04
:107980000DD0428F142A04BFD0F8E02042F4001238
:1079900010D0B0F93C20B2F5522F07D00CE0D0F84F
:1079A000E02042F48012C0F8E02005E0D0F8E020AA
:1079B00022F44012C0F8E020B0F9002040F6590C43
:1079C000642362450ADDA0F84210C28F521C12B235
:1079D000C287642AC8BFC3870FDD1BE0B2F5EF6F13
:1079E0000BDCC187B0F84220521C12B2A0F8422032
:1079F000642AC8BFA0F8423002E0C28F642A09D0CE
:107A0000B0F84220642A04BFD0F8E02022F48002BB
:107A100006D103E0D0F8E02042F48002C0F8E02074
:107A2000B0F9022062450DDDA0F84410B0F8401016
:107A3000491C09B2A0F840106429C8BFA0F8403022
:107A400010DD21E0B2F5EF6F0CDCA0F84010B0F8CB
:107A50004410491C09B2A0F844106429C8BFA0F81A
:107A6000443003E0B0F8401064290DD0B0F8441061
:107A7000642907BFD0F8E01021F4000130BC704742
:107A8000C0F8E01030BC7047D0F8E01041F40001BD
:107A9000F6E7000018C0FF1FFF7F02001E4810B469
:107AA000006810F0010F1D4814BF1D491D49DFF883
:107AB00078C041609CF826104FF4004301F00702A3
:107AC0001A49062A24BF10BC7047DFE802F00304FD
:107AD0000704070A4168016010BC7047036010BCCE
:107AE0007047DCF80021C2F30823DCF80021DCF841
:107AF00000C1120F0E4C0CF01F0CE469002C18BFD3
:107B000041680CF1010CB1FBFCF15B1C5943521CA8
:107B1000B1FBF2F1DFE700008406014000C0FF1F67
:107B20000024F400002D31010040054000127A00CD
:107B30000020A842054800B5016841F470010160C9
:107B4000FFF7ACFF02490020086000BD88ED00E0AF
:107B500008ED00E02DE9F04114000E4605464FF017
:107B6000000808BF6FF0020800F07580A5F18040A2
:107B7000B0F510301CBFA5F18040B0F5113003D036
:107B8000F62136A0FAF7DCFC002E18BF012E04D037
:107B90004FF0F70131A0FAF7D3FC2068002818BF96
:107BA000B0F5007F0AD0B0F5807F18BFB0F5A06FA8
:107BB00004D04FF0F80129A0FAF7C2FC6368002B4B
:107BC00018BF102B15D0202B18BF302B11D0402BF5
:107BD00018BF502B0DD0602B18BF702B09D0802BF5
:107BE0001CBF902BA02B04D04FF0F9011BA0FAF77B
:107BF000A7FCA06800281CBFA0F50041B1F102015C
:107C000003D0FA2115A0FAF79BFC05EB86070020AC
:107C100038603146284600F089F8A089B8603146BE
:107C2000284600F083F82A69300148F2F27101FA1F
:107C300000F39A43D4E9003C43EA0C03D4F808C0AB
:107C400043EA0C03194001FA00F010432861314661
:107C5000284600F06BF84046BDE8F0812E2E5C64AB
:107C60007269766572735C686333325F6C6C5F64F3
:107C700072697665725C7372635C686333325F6CE1
:107C80006C5F746D72302E630000000070B50446A6
:107C9000A0F180400D46B0F510301CBFA4F180402B
:107CA000B0F5113004D04FF497710CA0FAF748FCEE
:107CB000002D18BF012D04D040F22F1107A0FAF7B4
:107CC0003FFC20692901012202FA01F108432061E9
:107CD00029462046BDE8704000F028B82E2E5C648E
:107CE0007269766572735C686333325F6C6C5F6473
:107CF00072697665725C7372635C686333325F6C61
:107D00006C5F746D72302E6300000000002100284B
:107D100008BF6FF0020106D000220260426082605C
:107D20004FF6FF728281084670470000134A10B474
:107D3000126A134BC2F302624FF0000C1B6823FA65
:107D400002F2D20B02EB8202D202002907BF4FF4EB
:107D5000807319464FF08073194604691C4201D1A3
:107D600008E000BF521E03D043690B42F9D001E086
:107D70006FF0070C10BC60467047000000400540E3
:107D800000C0FF1F0748018881F0010101800648FB
:107D9000D0F8641121F40061C0F8641104210320BB
:107DA000FBF784BF88C1FF1F00C003400B4810B51C
:107DB000D0F8B81311F0020F09D0D0F8B81321F0A1
:107DC0000201C0F8B81341150120FBF76FFF04480A
:107DD000016821F04001016010BD000000C00340B7
:107DE00064C5034010B50B4CD4F8B80310F0010F74
:107DF00009D0D4F8B80320F00100C4F8B803042176
:107E00000320FBF753FFD4F8640120F08000C4F88E
:107E1000640110BD00C003402DE9F05F4E4E4F4F8E
:107E2000DFF83C81DFF83C91DFF83CA10C460546C9
:107E30006FF0020BB04218BFBD4209D045451CBFD0
:107E40004D45554504D04FF48E7148A0FAF778FBA4
:107E5000002C47D02078002847D0012807D04FF4C5
:107E60008F7142A0FAF76CFB207800283DD0A088E3
:107E7000002818BF10F4604F04D040F229113BA035
:107E8000FAF75EFBE088002818BF10F4604F04D0BA
:107E900040F22B1135A0FAF753FBA088A5F8880013
:107EA000E088A5F88C00207B012818BF002804D0AA
:107EB0004FF499712DA0FAF743FB207B85F88100E0
:107EC000A468B54218BFBD4209D045451CBF4D4509
:107ED000554504D040F255313048FAF731FB6C601B
:107EE0004FF0000B5846BDE8F09FA078002818BF5F
:107EF000042804D040F221111CA0FAF721FBE078FD
:107F0000002818BF022804D04FF4917117A0FAF787
:107F100017FB6178002918BF102915D0202918BF38
:107F2000302911D0402918BF50290DD0602918BF21
:107F3000702909D080291CBF9029A02904D040F2C3
:107F400023110AA0FAF7FCFAA078E17808436178D7
:107F5000084385F88000A6E700A0034000A4034082
:107F600000A8034000AC0340006002402E2E5C6479
:107F70007269766572735C686333325F6C6C5F64E0
:107F800072697665725C7372635C686333325F6CCE
:107F90006C5F746D72612E63000000003882000017
:107FA0002DE9F0410546A0F1804014460E466FF0E1
:107FB0000207B0F568301CBFA5F18040B0F569300C
:107FC0000DD0A5F18040B0F56A301FBFA5F180400B
:107FD000B0F56B30A5F18040B0F5183001D1032E1B
:107FE00004D940F2E51128A0FAF7AAFA002C48D0EB
:107FF000A08800281CBF0128022804D04FF4F47187
:1080000021A0FAF79DFAE08800281CBF0128022869
:1080100004D040F2E9111CA0FAF792FA2089002856
:1080200018BF012808D0022818BF032804D04FF435
:10803000F57115A0FAF784FA6089002818BF0128A5
:1080400008D0022818BF032804D040F2EB110EA07C
:10805000FAF776FA05EB8600226802642179A279A4
:10806000A37A41EA8201227A120142EA8312114381
:10807000B0F84021C9B202F47F421143A0F8401188
:1080800000273846BDE8F0812E2E5C647269766563
:1080900072735C686333325F6C6C5F6472697665BF
:1080A000725C7372635C686333325F6C6C5F746DB7
:1080B00072612E630000000070B50446A0F180409C
:1080C00015460E46B0F568301CBFA4F18040B0F5EF
:1080D00069300DD0A4F18040B0F56A301FBFA4F123
:1080E0008040B0F56B30A4F18040B0F5183001D17C
:1080F000032E04D940F223210AA0FAF721FA002D19
:1081000018BF012D04D04FF4097106A0FAF718FA30
:1081100004EB860000F5A070400100F18440056387
:1081200070BD00002E2E5C647269766572735C68A7
:108130006333325F6C6C5F6472697665725C737214
:10814000635C686333325F6C6C5F746D72612E6365
:10815000000000006FF0020148B1891001600121A8
:1081600081800021C18003210181418100210846D5
:108170007047000070B50446A0F1804016460D46D9
:10818000B0F568301CBFA4F18040B0F569300DD067
:10819000A4F18040B0F56A301FBFA4F18040B0F573
:1081A0006B30A4F18040B0F5183001D1032D04D913
:1081B00040F2993103A0FAF7C3F904EB8500066495
:1081C00070BD00002E2E5C647269766572735C6807
:1081D0006333325F6C6C5F6472697665725C737274
:1081E000635C686333325F6C6C5F746D72612E63C5
:1081F0000000000070B50446A0F180400D46B0F5C7
:1082000068301CBFA4F18040B0F5693012D0A4F1F1
:108210008040B0F56A301FBFA4F18040B0F56B30EC
:10822000A4F18040B0F5183004D040F2553102A0DE
:10823000FAF786F9656070BD2E2E5C64726976650A
:1082400072735C686333325F6C6C5F64726976650D
:10825000725C7372635C686333325F6C6C5F746D05
:1082600072612E630000000010B50446A0F180404A
:10827000B0F568301CBFA4F18040B0F5693012D071
:10828000A4F18040B0F56A301FBFA4F18040B0F582
:108290006B30A4F18040B0F5183004D040F29C411E
:1082A00004A0FAF74DF994F8800040F0010084F83A
:1082B000800010BD2E2E5C647269766572735C68F6
:1082C0006333325F6C6C5F6472697665725C737283
:1082D000635C686333325F6C6C5F746D72612E63D4
:1082E000000000006FF0020150B1002101704170E8
:1082F00081700222C2708180C1804A1E8260017337
:10830000084670470022A0236B283CBF6FF009008D
:108310007047B0F5326F2ABF9620DFF830C0704743
:1083200010B4991A02EB610109B23CF81140844281
:108330003CBF4A1C12B284BF4B1E1BB201D09A42F2
:10834000EFDDA1F10A0010BC00B27047B896000042
:1083500030B5012189B08805FBF7E8F804A8FFF7DC
:10836000C1FF00248DF8124002208DF8130040F266
:10837000AF401B4D069004A92846FFF74DFD684607
:10838000FFF7E8FE40F257210091ADF808400121C7
:10839000ADF80640ADF80A10ADF804406A46002179
:1083A0002846FFF7FDFD012200212846FFF784FE45
:1083B00040F2F3110091112202210020FBF77AFB19
:1083C0006A4601212846FFF7EBFD012211462846A7
:1083D000FFF772FE2846FFF747FF09B030BD0000E7
:1083E00000A8034000B501218BB04805FBF7D2F887
:1083F000684600F095FC032001904FF40060029065
:108400004FF4E13003904FF400400790002269469A
:10841000024800F0B5FB0BB000BD000000D00140E9
:108420002DE9F0472F4FDFF8C0A0DFF8C080DFF85C
:10843000C09016460D460446B84218BF544508D0B1
:10844000444518BF4C4504D040F2AC4129A0FAF78E
:1084500077F8002E18BF012E04D040F2AD4125A0C0
:10846000FAF76EF815B12F48054204D040F2AE413C
:1084700020A0FAF765F8544518BF444509D04C458B
:108480001CBF2948054204D040F2AF4119A0FAF7B9
:1084900057F8BC4218BF54450AD044451CBF4C4550
:1084A00015F0030F04D04FF4966112A0FAF748F8C4
:1084B0002804000C06D0E168012E0CBF084321EA15
:1084C0000000E060194810EA154008BFBDE8F087D9
:1084D000012E21690CBF084321EA00002061BDE89C
:1084E000F087000000CC014000D0014000D40140E2
:1084F00000D801402E2E5C647269766572735C68E8
:108500006333325F6C6C5F6472697665725C737240
:10851000635C686333325F6C6C5F75736172742E79
:108520006300000010FEC1BE00001E411E41FFFF9F
:1085300070B50446A0F180400D46B0F5E6301CBF92
:10854000A4F18040B0F5E8300ED0A4F18040B0F541
:10855000EA301CBFA4F18040B0F5EC3004D040F20A
:10856000EE4108A0F9F7ECFF15B11248054204D01E
:1085700040F2EF4103A0F9F7E3FF2068284018BF5D
:10858000012070BD2E2E5C647269766572735C6822
:108590006333325F6C6C5F6472697665725C7372B0
:1085A000635C686333325F6C6C5F75736172742EE9
:1085B0006300000004F0FEFF2DE9F74F5FEA0108B9
:1085C0002DED048B86B0044604D140F2C261FEA0BA
:1085D000F9F7B6FFDFF820A4DFF820B4544518BF40
:1085E0005C450ED0A4F18040B0F5EA301CBFA4F188
:1085F0008040B0F5EC3004D040F2C361F2A0F9F74E
:108600009FFFE06810F00C0F04D040F2C461EEA0B0
:10861000F9F796FF544518BF5C450ED0A4F1804091
:10862000B0F5EA301CBFA4F18040B0F5EC3004D0C6
:1086300040F29B21F248F9F783FFF248006AF249C1
:10864000C0F302100968C140A06910F0100FA069C2
:1086500000F0030012BF80224000012202FA00F065
:10866000B1FBF0F59FEDE98AE068FF2710F0807F0D
:10867000B7EE009A73D04FF0FF39544518BF5C45F0
:108680000FD0A4F18040B0F5EA301EBF2046A4F11F
:108690008041B1F5EC3104D040F2F511D848F9F73A
:1086A0004FFF002D18BFB8F1000F00F046824FEACF
:1086B000880AB5FBFAF0A0F10100FF2800F23D8224
:1086C000B5FBFAF10AFB11510646002900F00282BF
:1086D0000022401C42F10001890041EA907C8100A7
:1086E000A1FB08030CFB083301FB0231090241EA3C
:1086F00010614FEA002B52084FEA350000911BEB46
:10870000000051412A460023F7F7DCFD80387F281E
:1087100000F2E38107468030A0FB058C002141F187
:10872000000303FB05C300FB0135009A58461146C0
:10873000F7F715FE41EC180B29464046F7F70FFEF8
:1087400053EC182BF7F78CFEF7F715FE00EE100A26
:108750004FF0000930EE498A00F0EFB9FFE7606999
:1087600010F0200F7DD0AA484FF0FF3954450FC8B4
:108770008DE80F0004D040F24521A148F9F7E0FE52
:10878000002D18BFB8F1000F00F0D781606910F418
:10879000600A18BFBAF5001F0CD0BAF5C00F1CBF95
:1087A000BAF5200FBAF5400F04D040F24B2194489F
:1087B000F9F7C6FE4FEA5A503DF810A008FB0AF040
:1087C0004FEA400BB5FBFBF0401EFF2858D8B5FB25
:1087D000FBF10BFB11510646002908BF4FF00009C1
:1087E0004ED000211AEB0A0241EB0103401C41F17B
:1087F000000CA2FB001E03FB00E002FB0C02A1FB2D
:10880000080C02FB08C2002301FB0321090241EA14
:10881000106100025A084FEA3503CDE90401C0187F
:1088200051412A460023F7F74DFD80387F2827D88D
:1088300007468030A0FB05CEDDE904310A46002161
:1088400041F1000909FB05E900FB019911461846B1
:10885000CDF810C0F7F783FD41EC180B494604989A
:1088600000E012E0F7F77BFD53EC182BF7F7F8FD6B
:10887000F7F781FD00EE100A4FF0000930EE498A4B
:10888000B9F1FF3F40F05981EDE04FF0FF39544519
:1088900018BF5C450ED0A4F18040B0F5EA301CBF93
:1088A000A4F18040B0F5EC3004D04FF4CE715448C0
:1088B000F9F746FE002D18BFB8F1000F00F03D811A
:1088C000E068C0F3C032C2F1020000FB08F04FEADA
:1088D000C0000290B5FBF0F0A0F10101FF2900F209
:1088E0002C8102980E46B5FBF0F300FB13500028D4
:1088F00068D0D2F10202002060EB0003DB004FEAF7
:10890000C20C491CACFB01AB43EA5273CDE9003CFD
:1089100003FB01B140F100020CFB0213AAFB081299
:1089200003FB08220AFB00231B0243EA116B4FEAF8
:10893000012A41084FEA350010EB0A0041EB0B0118
:108940000023D0F1FF3273EB010228BFB0FBF5F03A
:1089500003D22A460023F7F7B5FC80387F2821D8B8
:1089600007468030A0FB0583002141F1000202FB95
:10897000053200FB012550465946F7F7F0FC41EC63
:10898000180B29464046F7F7EAFC53EC182BF7F78B
:1089900067FDF7F7F0FC00EE100A4FF0000930EE2B
:1089A000498ACAE005EB850041000298B1FBF0F06E
:1089B000411D1848A0FB0110C008401EFF2851D8D7
:1089C000064629E086E000002E2E5C64726976651A
:1089D00072735C686333325F6C6C5F647269766576
:1089E000725C7372635C686333325F6C6C5F757367
:1089F0006172742E6300000000CC014000D0014081
:108A0000848500000040054000C0FF1F00000000FA
:108A100098960000CDCCCCCCDDE900C1421CA1FB76
:108A2000020A00230CFB02A243F1000901FB092109
:108A3000A0FB082C01FB08C100FB03111046F7F74F
:108A40008EFC41EC180B2846F7F77CFC53EC182BF6
:108A5000F7F706FDF7F78FFC00EE100A4FF000095C
:108A600030EE498A69E005EB85004000B0FBFBF081
:108A7000411D4248A0FB0110C008401EFF285CD8E1
:108A800000211AEB0A0241EB010C431C0646A2FB33
:108A9000030A0CFB03A341F1000902FB0933A0FB0D
:108AA000082C03FB08C300FB01311046F7F757FC05
:108AB00041EC180B2846F7F745FC53EC182BF7F759
:108AC000CFFCF7F758FC00EE100A4FF0000930EE2B
:108AD000498A32E04FF000092FE005EB85004000A5
:108AE000B0FBFAF0411D2548A0FB0110C008401E54
:108AF000FF2822D806460021401C41F100029200C6
:108B000042EA90738000A0FB082C03FB08C300FB23
:108B100001311046F7F723FC41EC180B2846F7F714
:108B200011FC53EC182BF7F79BFCF7F724FC00EE35
:108B3000100A4FF0000930EE498AB9F1000F11D147
:108B400047EA06204FF67F710840A16821F07F01B7
:108B500021F47F410843A060FF2F03D0E06840F07C
:108B60000050E0600C98002818BF80ED008A48464D
:108B700006B0BDEC048B03B0BDE8F08FCDCCCCCCFF
:108B800070B5054616460C006FF0020008BF70BDB8
:108B9000A5F18040B0F5E6301CBFA5F18040B0F5EE
:108BA000E8300ED0A5F18040B0F5EA301CBFA5F149
:108BB0008040B0F5EC3004D040F299314CA0F9F788
:108BC000BFFC2068B0F5805F18BF002804D040F2D9
:108BD0009A3147A0F9F7B4FCA068B0F5006F18BF50
:108BE000002804D040F29B3141A0F9F7A9FCA0690C
:108BF000B0F5C06F1CBFB0F5806F002804D04FF4F3
:108C000067713BA0F9F79CFC2069002818BFB0F5FC
:108C1000805F04D040F29D3135A0F9F791FC606986
:108C2000002818BFB0F5005F04D040F29E3130A09C
:108C3000F9F786FCE069B0F5004F18BF002804D0B2
:108C400040F29F312AA0F9F77BFC206AB0F1805FE7
:108C500018BF002804D04FF4687125A0F9F770FC04
:108C6000606A002818BFB0F1004F04D040F2A13173
:108C70001FA0F9F765FCA06A002818BFB0F5007FB7
:108C80000AD0B0F5807F18BFB0F5407F04D040F225
:108C9000A23117A0F9F754FC2169A0690843D4E96F
:108CA000072111430843616A40EA0102A168206874
:108CB0000843616941F4C0610143A06AEA60296127
:108CC0006861206800281CBF002070BD6068132800
:108CD00004D94FF46C7106A0F9F732FC6068A86102
:108CE00032462846E168BDE87040FFF765BC0000E9
:108CF0002E2E5C647269766572735C686333325FD2
:108D00006C6C5F6472697665725C7372635C6863D5
:108D100033325F6C6C5F75736172742E6300000098
:108D20006FF0020180B1002101604FF416524160E2
:108D3000C0E90212016141618161C16101621106F4
:108D40004162C90D816200210846704710B50C4C84
:108D50000A4A01212046F9F7BDFE80220121204662
:108D6000F9F7E8FE012211462046F9F773FC0122CB
:108D7000BDE8104008210348FFF752BB94C1FF1F14
:108D80000030054000D0014000B585B002200090C1
:108D9000A02001904FF4706002904FF48030039057
:108DA000C0030490684600F00DF805B000BD000057
:108DB000034840F22311816043F210218160704723
:108DC0000090044070B504004FF0000508BF6FF03C
:108DD000020500F07D802068002818BF012808D017
:108DE000022818BF032804D04FF09D0139A0F9F7DD
:108DF000A7FB6068202818BF602810D0702818BF13
:108E000080280CD0902818BFA02808D0B02818BF00
:108E1000D02804D04FF09E012EA0F9F791FBA16855
:108E2000B1F5706F18BFB1F5807F2AD0B1F5007F22
:108E300018BFB1F5407F24D0B1F5806F18BFB1F5F0
:108E4000A06F1ED0B1F5C06F18BFB1F5E06F18D09C
:108E5000B1F5006F18BFB1F5106F12D0B1F5206FEA
:108E600018BFB1F5306F0CD0B1F5406F1CBFB1F534
:108E7000506FB1F5606F04D04FF09F0115A0F9F766
:108E80005FFBE068002818BFB0F5803F04D04FF0CA
:108E9000A00110A0F9F754FB2069002818BFB0F119
:108EA000004F04D04FF0A1010AA0F9F749FBD4E923
:108EB00000010843D4E90212114308432169084321
:108EC0000F4901400F4802680F4B1A4011430160DF
:108ED000284670BD2E2E5C647269766572735C687C
:108EE0006333325F6C6C5F6472697665725C737257
:108EF000635C686333325F6C6C5F7764742E63000D
:108F0000F30F0180009004400CF0FE7F0FB4054B7E
:108F100010B503A9044A029800F018F810BC5DF8D7
:108F200014FB00000591000014C2FF1F02E008C8F6
:108F3000121F08C1002AFAD170477047002001E0D3
:108F400001C1121F002AFBD1704700002DE9FF4F1D
:108F50008BB09A460F460546002606E025280BD022
:108F600052460D9990476D1C761C28780028F5D143
:108F70000FB03046BDE8F08F0024A04601226049C2
:108F800000E0044315F8013F203B02FA03F00842D9
:108F9000F7D128782E2817D115F8010F44F00404D2
:108FA0002A280ED06FF02F022878A0F1300109296D
:108FB0000AD808EB880102EB410100EB01086D1CA7
:108FC000F2E757F8048B6D1C287869283ED006DC40
:108FD0000028CDD063280BD0642804D136E0732854
:108FE00010D075284BD052460D999047761C85E0DD
:108FF00017F8040B8DF8000000208DF80100E946F9
:10900000012003E057F8049B4FF0FF3061074FF059
:10901000000401D40AE0641C44450DDA8442FADB02
:1090200019F804100029F6D106E0641C8442FCDB28
:1090300019F804100029F8D1264404E019F8010BAE
:1090400052460D999047641EF8D257E001CF4FF079
:109050000A0B002802DA40422D2102E0210504D546
:109060002B218DF82410012103E0E10705D02021F8
:10907000F7E70DF1200908910CE00021F9E701CF95
:109080004FF00A0BF9E75946F7F791F901F1300271
:1090900009F8012D0028F6D1ADEB090000F1200BF5
:1090A000600701D44FF00108D84502DDA8EB0B00A2
:1090B00000E000208046002406E009A85246005D3A
:1090C0000D999047641C761C08988442F5DB04E0F7
:1090D000302052460D999047761CB8F10001A8F156
:1090E0000108F5DC05E019F8010B52460D9990478F
:1090F000761CBBF10001ABF1010BF4DC6D1C34E715
:109100000928010010B50446C0B2F9F739FA002861
:109110000CBF20464FF0FF3010BD0000C720FEF707
:1091200009F9F8F703F9F8F7A7FDFAF7F7FDF7F7EC
:1091300083FFF9F79DF9FEF7A7F8FDF78FFAFFF720
:1091400007F9FFF74FF9F9F71DFBF8F735FEF8F7C8
:109150007BFEFFF719FEFFF72BFEFB4FFB4CDFF802
:10916000F0A307F102084FF0010940F2795B0026F5
:10917000F84DD5F81411C5F81811D5F81C011E309A
:10918000814267D305F11C00C5F81C11007810F06E
:10919000010F04BFA86DC5E9340616D0D5F8D0205C
:1091A000D5F8C800904205DD121DC5F8D0209042C8
:1091B00005DD06E0121FC5F8D020824201DAC5F8AD
:1091C000D000D5F8CC00C5F8D400E3480268E348E5
:1091D000006842EA000313F4807F05D0D5F8E0C0B0
:1091E0004CF0010CC5F8E0C013F4007F05D0D5F8B1
:1091F000E0C04CF4807CC5F8E0C012F4006F05D0EC
:10920000D5F8E0C04CF4805CC5F8E0C010F4806F85
:1092100005D0D5F8E0C04CF4803CC5F8E0C012F0B1
:10922000807F05D0D5F8E02042F48042C5F8E020E8
:1092300010F0007F05D0D5F8E00040F48020C5F89C
:10924000E00013F0806F05D0D5F8E00040F48060B6
:10925000C5F8E000D5F82001693081425AD3C5F83D
:109260002011E88868B1688C142838BF401C07D3E7
:1092700007D1BB4940F23330C1F8A4034FF01500C9
:109280006884D5F89C10D5F8840000FB01F0C5F87F
:109290009000D5F8A010D5F8880000FB01F0C5F8C3
:1092A0009400D5F8A410D5F88C0000FB01F0C5F8A7
:1092B00098004FF002015046F9F7E8FA40B1022158
:1092C0005046F9F703FA00220821A648FFF7A8F84C
:1092D000E888C0B3012859D002287AD0A5F84660A2
:1092E000A5F84860EE80E88D2988084400B2E8853A
:1092F000298E6A88114409B229866A8E521C92B25C
:109300006A86102A06D96E86001168850811A8851C
:10931000EE852E86D5F8240100F5FF71D5F81801E9
:109320008842FFF425AFC5F8240101215046F9F722
:10933000ADFA002800F06D81E078312868D032283D
:109340006DD000F058B9FFE7B8F8000040F4804055
:10935000A8F800002E83D5F89800B0F5703FD8BF6C
:10936000A5F84660BFDDB5F84600401C80B2A5F800
:1093700046006428B7D3A5F84660A5F84860388849
:1093800040F480403880A5F80690ACE7388840F477
:10939000804038802E83D5F89800B0F5483F08DA31
:1093A000B5F84600401C80B2A5F8460014289AD3B0
:1093B00024E0A5F84660B5F84800401C80B2A5F846
:1093C000480032288FD9A5F848600220E8808AE753
:1093D000FFE7388840F480403880A5F81890D5F829
:1093E0009800B0F5483FBFF67EAFB5F84600401C88
:1093F00080B2A5F846001428FFF475AFA5F84660C2
:10940000EE80B8F8000040F48040A8F800006AE759
:10941000207A312814BF6E83A5F81A90EBE0207AE9
:10942000312802D032287DD0DEE0A07BE17B3038CD
:1094300000EB800040003038084400EB8000400022
:10944000217C3038084400EB80004000617C3038DB
:109450000844C5F8B000607DA17D303800EB800085
:1094600040003038084400EB80004000E17D303897
:10947000084400EB80004000217E3038084400EBB7
:1094800080004000617E3038084400EB80004000DE
:10949000A17E30380844C5F86C01C5F8B400217DC0
:1094A0002D2904BF4042C5F8B40094F8200094F878
:1094B0002110303800EB800040003038084400EBC9
:1094C0008000400094F822103038084400EB8000FF
:1094D000400094F8231030380844C5F8B80094F8D8
:1094E000270094F82810303800EB80004000303816
:1094F000084400EB8000400094F8291030380844FC
:1095000000EB8000400094F82A103038084400EB4B
:109510008000400094F82B103038084400EB8000A5
:10952000400000E020E094F82C1030380844C5F8E2
:109530006C01C5F8BC0094F826102D2904BF4042E8
:10954000C5F8BC0050E000002838054008C3FF1FE4
:109550000030054018C0FF1F0C8603402C860340D6
:1095600000C0034000D00140A07BE17B303800EB1D
:10957000800040003038084400EB80004000217C2F
:109580003038084400EB80004000617C30380844EB
:10959000C5F8C000607DA17D303800EB8000400040
:1095A0003038084400EB80004000E17D303808444A
:1095B00000EB80004000217E3038084400EB800042
:1095C0004000617E3038084400EB80004000A17EFE
:1095D00030380844C5F86C01C5F8C400217D2D2938
:1095E00004BF4042C5F8C400E079312803D1A88CFB
:1095F00040F00100A88401215046F9F767F82D22B8
:1096000000215046F9F796FA012200215046F9F759
:1096100021F8C5F8D8B0D5F8CC005845C4BF584695
:10962000C5F8CCB0FEF728F9FDF7CEFEFFF7C0FB7A
:10963000E88A401C80B2E882322818D0642821D001
:10964000C828FFF495ADEE82D5F82801401CC5F876
:109650002801A88C10F0010F06D020F00100A8848A
:10966000FFF7A6FBF8F766FBFFF770FB80E5688D58
:1096700080B2FEF747FEE884A88D80B2FEF742FE76
:10968000288575E50148FDF73BFF71E594C1FF1F93
:109690000010044000140440200040005D008000E1
:1096A000BA0000017401000200CC014000D001406A
:1096B00000D4014000D801406B00710077007D00AC
:1096C00084008B0092009A00A100AA00B200BB00A7
:1096D000C400CD00D700E200EC00F70002010E014B
:1096E0001A012701340141014F015D016C017B0129
:1096F0008B019B01AB01BC01CE01E001F20105022F
:1097000018022B024002540269027E029402AA024D
:10971000C102D802EF0207031F0337035003690396
:1097200082039C03B603D003EA03050420043B0430
:10973000560471048D04A804C404E004FC04170555
:1097400033054F056B058705A205BE05D905F5054F
:1097500010062B06460661067C069606B006CA066B
:10976000E406FE06170730074907610779079107E6
:10977000A807C007D607ED07030819082F084408F3
:1097800059086D0881089508A808BC08CE08E108AA
:10979000F30805091609270938094809580968090D
:1097A000770986099509A409B209C009CD09DA0922
:1097B000E709F409000A0C0A180A240A2F0A3A0ACF
:1097C000450A500A5A0A640A6E0A770A810A8A0A06
:1097D000930A9C0AA40AAD0AB50ABD0AC40ACC0AB7
:1097E000D30ADB0AE20AE90AEF0AF60AFC0A030BCB
:1097F000090B0E0B140B1A0B1F0B00001C9800001A
:1098000008C0FF1F100200008C06000070980000C6
:1098100018C2FF1F300D00003C8F0000012A3201EA
:109820001205520A1A1902012232644930014632E5
:109830001F322FC2F40A14080823C90B6379055B91
:1098400010060C2A77C4011ACB030904320229043A
:1098500001180B10830704115A3C04321E5A5A0493
:109860001910691C3383435A7824F1048123303062
:04000005000002896C
:00000001FF
