Component: ARM Compiler 5.06 update 7 (build 960) Tool: armlink [4d3601]

==============================================================================

Section Cross References

    app_soft_timer.o(i._softTimer_poll) refers to app_soft_timer.o(.bss) for SoftTimer
    app_soft_timer.o(i._softTimer_poll) refers to app_soft_timer.o(.data) for stmr_tick
    app_soft_timer.o(i._soft_timer_get_state) refers to app_soft_timer.o(.bss) for SoftTimer
    app_soft_timer.o(i._soft_timer_init) refers to app_soft_timer.o(.bss) for SoftTimer
    app_soft_timer.o(i._soft_timer_install) refers to app_soft_timer.o(.data) for stmr_tick
    app_soft_timer.o(i._soft_timer_install) refers to app_soft_timer.o(.bss) for SoftTimer
    app_soft_timer.o(i._soft_timer_stop) refers to app_soft_timer.o(.bss) for SoftTimer
    app_soft_timer.o(i._soft_timer_tick_update) refers to app_soft_timer.o(.data) for stmr_tick
    main.o(i.clk_config) refers to tx_phe_ll_cc_rst.o(i.ll_cc_syspll_set) for ll_cc_syspll_set
    main.o(i.clk_config) refers to tx_phe_ll_cc_rst.o(i.ll_cc_sysclk_select) for ll_cc_sysclk_select
    main.o(i.clk_config) refers to tx_phe_ll_cc_rst.o(i.ll_cc_adcpll_set) for ll_cc_adcpll_set
    main.o(i.clk_config) refers to tx_phe_ll_cc_rst.o(i.ll_cc_clk_div_config) for ll_cc_clk_div_config
    main.o(i.decode_usart_data) refers to toupper.o(.text) for toupper
    main.o(i.key_cb_switch_nfc_mode) refers to printf8.o(i.__0printf$8) for __2printf
    main.o(i.key_cb_switch_nfc_mode) refers to tsk_card.o(i.nfc_get_dev_sn) for nfc_get_dev_sn
    main.o(i.key_cb_switch_nfc_mode) refers to main.o(.data) for nfc_mode
    main.o(i.key_cb_switch_nfc_mode) refers to main.o(.conststring) for .conststring
    main.o(i.main) refers to main.o(i.clk_config) for clk_config
==============================================================================

Removing Unused input sections from the image.

    Removing app_soft_timer.o(i._softTimer_poll), (176 bytes).
    Removing app_soft_timer.o(i._soft_timer_get_state), (20 bytes).
    Removing app_soft_timer.o(i._soft_timer_init), (92 bytes).
    Removing app_soft_timer.o(i._soft_timer_install), (100 bytes).
    Removing app_soft_timer.o(i._soft_timer_stop), (20 bytes).
    Removing app_soft_timer.o(i._soft_timer_tick_update), (16 bytes).
    Removing app_soft_timer.o(.bss), (120 bytes).
    Removing app_soft_timer.o(.data), (4 bytes).
    Removing main.o(.rev16_text), (4 bytes).
    Removing main.o(.revsh_text), (4 bytes).
    Removing main.o(.rrx_text), (6 bytes).
    Removing tx_phe_irq.o(.rev16_text), (4 bytes).
    Removing tx_phe_irq.o(.revsh_text), (4 bytes).
    Removing tx_phe_irq.o(.rrx_text), (6 bytes).
    Removing rc523_cfg.o(.rev16_text), (4 bytes).
    Removing rc523_cfg.o(.revsh_text), (4 bytes).
    Removing rc523_cfg.o(.rrx_text), (6 bytes).
    Removing rc523_drv.o(.rev16_text), (4 bytes).
==============================================================================

Image Symbol Table

    Local Symbols

    Symbol Name                              Value     Ov Type        Size  Object(Section)

    ../clib/../cmprslib/zerorunl2.c          0x00000000   Number         0  __dczerorl2.o ABSOLUTE
    ../clib/microlib/ctype/toupper.c         0x00000000   Number         0  toupper.o ABSOLUTE
    ../clib/microlib/division.c              0x00000000   Number         0  uidiv.o ABSOLUTE
    ../clib/microlib/division.c              0x00000000   Number         0  uldiv.o ABSOLUTE
    ../clib/microlib/init/entry.s            0x00000000   Number         0  entry4.o ABSOLUTE
    ../clib/microlib/init/entry.s            0x00000000   Number         0  entry12a.o ABSOLUTE
    ../clib/microlib/init/entry.s            0x00000000   Number         0  entry11b.o ABSOLUTE
    ../clib/microlib/init/entry.s            0x00000000   Number         0  entry11a.o ABSOLUTE
    ../clib/microlib/init/entry.s            0x00000000   Number         0  entry10b.o ABSOLUTE
    ../clib/microlib/init/entry.s            0x00000000   Number         0  entry10a.o ABSOLUTE
    ../clib/microlib/init/entry.s            0x00000000   Number         0  entry9b.o ABSOLUTE
    ../clib/microlib/init/entry.s            0x00000000   Number         0  entry9a.o ABSOLUTE
    ../clib/microlib/init/entry.s            0x00000000   Number         0  entry8b.o ABSOLUTE
    ../clib/microlib/init/entry.s            0x00000000   Number         0  entry8a.o ABSOLUTE
    ../clib/microlib/init/entry.s            0x00000000   Number         0  entry7b.o ABSOLUTE
    ../clib/microlib/init/entry.s            0x00000000   Number         0  entry7a.o ABSOLUTE
    ../clib/microlib/init/entry.s            0x00000000   Number         0  entry.o ABSOLUTE
    ../clib/microlib/init/entry.s            0x00000000   Number         0  entry5.o ABSOLUTE
    ../clib/microlib/init/entry.s            0x00000000   Number         0  entry12b.o ABSOLUTE
    ../clib/microlib/longlong.c              0x00000000   Number         0  llushr.o ABSOLUTE
    ../clib/microlib/longlong.c              0x00000000   Number         0  llshl.o ABSOLUTE
    ../clib/microlib/longlong.c              0x00000000   Number         0  llsshr.o ABSOLUTE
    ../clib/microlib/printf/printf.c         0x00000000   Number         0  printfa.o ABSOLUTE
    ../clib/microlib/printf/printf.c         0x00000000   Number         0  printf7.o ABSOLUTE
    ../clib/microlib/printf/printf.c         0x00000000   Number         0  printf8.o ABSOLUTE
    ../clib/microlib/printf/printf.c         0x00000000   Number         0  printf6.o ABSOLUTE
    ../clib/microlib/printf/printf.c         0x00000000   Number         0  printf5.o ABSOLUTE
    ../clib/microlib/printf/printf.c         0x00000000   Number         0  printf4.o ABSOLUTE
    ../clib/microlib/printf/printf.c         0x00000000   Number         0  printf3.o ABSOLUTE
    ../clib/microlib/printf/printf.c         0x00000000   Number         0  printf2.o ABSOLUTE
    ../clib/microlib/printf/printf.c         0x00000000   Number         0  printf1.o ABSOLUTE
    ../clib/microlib/printf/printf.c         0x00000000   Number         0  printf0.o ABSOLUTE
    ../clib/microlib/printf/printf.c         0x00000000   Number         0  printfb.o ABSOLUTE
    ../clib/microlib/printf/stubs.s          0x00000000   Number         0  stubs.o ABSOLUTE
    ../clib/microlib/string/memcpy.c         0x00000000   Number         0  memcpya.o ABSOLUTE
    ../clib/microlib/string/memcpy.c         0x00000000   Number         0  memcpyb.o ABSOLUTE
    ../clib/microlib/string/memset.c         0x00000000   Number         0  memseta.o ABSOLUTE
    ../clib/microlib/stubs.s                 0x00000000   Number         0  iusefp.o ABSOLUTE
    ../clib/microlib/stubs.s                 0x00000000   Number         0  useno.o ABSOLUTE
    ../fplib/microlib/fpadd.c                0x00000000   Number         0  dadd.o ABSOLUTE
    ../fplib/microlib/fpdiv.c                0x00000000   Number         0  ddiv.o ABSOLUTE
    ../fplib/microlib/fpdiv.c                0x00000000   Number         0  fdiv.o ABSOLUTE
    ../fplib/microlib/fpepilogue.c           0x00000000   Number         0  fepilogue.o ABSOLUTE
    ../fplib/microlib/fpepilogue.c           0x00000000   Number         0  depilogue.o ABSOLUTE
    ../fplib/microlib/fpfix.c                0x00000000   Number         0  dfixul.o ABSOLUTE
    ../fplib/microlib/fpflt.c                0x00000000   Number         0  ffltui.o ABSOLUTE
    ../fplib/microlib/fpmul.c                0x00000000   Number         0  dmul.o ABSOLUTE
    ..\Application\nfc\rc523_cfg.c           0x00000000   Number         0  rc523_cfg.o ABSOLUTE
    ..\Application\nfc\rc523_drv.c           0x00000000   Number         0  rc523_drv.o ABSOLUTE
    ..\Application\nfc\tsk_card.c            0x00000000   Number         0  tsk_card.o ABSOLUTE
    ..\Application\softTimer\app_soft_timer.c 0x00000000   Number         0  app_soft_timer.o ABSOLUTE
    ..\Board_Drivers\dev.c                   0x00000000   Number         0  dev.o ABSOLUTE
    ..\Board_Drivers\drv_key.c               0x00000000   Number         0  drv_key.o ABSOLUTE
    ..\Board_Drivers\drv_led.c               0x00000000   Number         0  drv_led.o ABSOLUTE
    ..\Board_Drivers\drv_soft_timer.c        0x00000000   Number         0  drv_soft_timer.o ABSOLUTE
    ..\Board_Drivers\drv_timer0.c            0x00000000   Number         0  drv_timer0.o ABSOLUTE
    ..\Board_Drivers\drv_usart.c             0x00000000   Number         0  drv_usart.o ABSOLUTE
    ..\Libraries\Device\Phoenix\source\startup\arm\tx_phe_startup.c 0x00000000   Number         0  tx_phe_startup.o ABSOLUTE
    ..\Libraries\Device\Phoenix\source\tx_phe_assert.c 0x00000000   Number         0  tx_phe_assert.o ABSOLUTE
    ..\Libraries\Device\Phoenix\source\tx_phe_debug.c 0x00000000   Number         0  tx_phe_debug.o ABSOLUTE
    ..\Libraries\Device\Phoenix\source\tx_phe_itm.c 0x00000000   Number         0  tx_phe_itm.o ABSOLUTE
    ..\Libraries\Device\Phoenix\source\tx_phe_misc.c 0x00000000   Number         0  tx_phe_misc.o ABSOLUTE
    ..\Libraries\Device\Phoenix\source\tx_phe_system.c 0x00000000   Number         0  tx_phe_system.o ABSOLUTE
    ..\Libraries\Device\Phoenix\source\txf5200.c 0x00000000   Number         0  txf5200.o ABSOLUTE
    ..\Libraries\Device\Phoenix\source\txf6200.c 0x00000000   Number         0  txf6200.o ABSOLUTE
    ..\Libraries\Driver\source\LL\tx_phe_ll_arctan.c 0x00000000   Number         0  tx_phe_ll_arctan.o ABSOLUTE
    ..\Libraries\Driver\source\LL\tx_phe_ll_can.c 0x00000000   Number         0  tx_phe_ll_can.o ABSOLUTE
    ..\Libraries\Driver\source\LL\tx_phe_ll_cc_rst.c 0x00000000   Number         0  tx_phe_ll_cc_rst.o ABSOLUTE
    ..\Libraries\Driver\source\LL\tx_phe_ll_crc.c 0x00000000   Number         0  tx_phe_ll_crc.o ABSOLUTE
    ..\Libraries\Driver\source\LL\tx_phe_ll_datadma.c 0x00000000   Number         0  tx_phe_ll_datadma.o ABSOLUTE
    ..\Libraries\Driver\source\LL\tx_phe_ll_dftrans.c 0x00000000   Number         0  tx_phe_ll_dftrans.o ABSOLUTE
    ..\Libraries\Driver\source\LL\tx_phe_ll_dmac.c 0x00000000   Number         0  tx_phe_ll_dmac.o ABSOLUTE
    ..\Libraries\Driver\source\LL\tx_phe_ll_eflash.c 0x00000000   Number         0  tx_phe_ll_eflash.o ABSOLUTE
    ..\Libraries\Driver\source\LL\tx_phe_ll_epwm.c 0x00000000   Number         0  tx_phe_ll_epwm.o ABSOLUTE
    ..\Libraries\Driver\source\LL\tx_phe_ll_evsys.c 0x00000000   Number         0  tx_phe_ll_evsys.o ABSOLUTE
    ..\Libraries\Driver\source\LL\tx_phe_ll_fadc.c 0x00000000   Number         0  tx_phe_ll_fadc.o ABSOLUTE
    ..\Libraries\Driver\source\LL\tx_phe_ll_fft.c 0x00000000   Number         0  tx_phe_ll_fft.o ABSOLUTE
    ..\Libraries\Driver\source\LL\tx_phe_ll_fir.c 0x00000000   Number         0  tx_phe_ll_fir.o ABSOLUTE
    ..\Libraries\Driver\source\LL\tx_phe_ll_gpio.c 0x00000000   Number         0  tx_phe_ll_gpio.o ABSOLUTE
    ..\Libraries\Driver\source\LL\tx_phe_ll_hcc.c 0x00000000   Number         0  tx_phe_ll_hcc.o ABSOLUTE
    ..\Libraries\Driver\source\LL\tx_phe_ll_iic.c 0x00000000   Number         0  tx_phe_ll_iic.o ABSOLUTE
    ..\Libraries\Driver\source\LL\tx_phe_ll_iir.c 0x00000000   Number         0  tx_phe_ll_iir.o ABSOLUTE
    ..\Libraries\Driver\source\LL\tx_phe_ll_mac.c 0x00000000   Number         0  tx_phe_ll_mac.o ABSOLUTE
    ..\Libraries\Driver\source\LL\tx_phe_ll_matrix.c 0x00000000   Number         0  tx_phe_ll_matrix.o ABSOLUTE
    ..\Libraries\Driver\source\LL\tx_phe_ll_qei.c 0x00000000   Number         0  tx_phe_ll_qei.o ABSOLUTE
    ..\Libraries\Driver\source\LL\tx_phe_ll_rms.c 0x00000000   Number         0  tx_phe_ll_rms.o ABSOLUTE
    ..\Libraries\Driver\source\LL\tx_phe_ll_saradc.c 0x00000000   Number         0  tx_phe_ll_saradc.o ABSOLUTE
    ..\Libraries\Driver\source\LL\tx_phe_ll_sincos.c 0x00000000   Number         0  tx_phe_ll_sincos.o ABSOLUTE
    ..\Libraries\Driver\source\LL\tx_phe_ll_spi.c 0x00000000   Number         0  tx_phe_ll_spi.o ABSOLUTE
    ..\Libraries\Driver\source\LL\tx_phe_ll_spwm.c 0x00000000   Number         0  tx_phe_ll_spwm.o ABSOLUTE
    ..\Libraries\Driver\source\LL\tx_phe_ll_svpwm.c 0x00000000   Number         0  tx_phe_ll_svpwm.o ABSOLUTE
    ..\Libraries\Driver\source\LL\tx_phe_ll_timer.c 0x00000000   Number         0  tx_phe_ll_timer.o ABSOLUTE
    ..\Libraries\Driver\source\LL\tx_phe_ll_usart.c 0x00000000   Number         0  tx_phe_ll_usart.o ABSOLUTE
    ..\Libraries\Driver\source\LL\tx_phe_ll_wdt.c 0x00000000   Number         0  tx_phe_ll_wdt.o ABSOLUTE
    ..\User\main.c                           0x00000000   Number         0  main.o ABSOLUTE
    ..\User\tx_phe_irq.c                     0x00000000   Number         0  tx_phe_irq.o ABSOLUTE
    ..\\Application\\nfc\\rc523_cfg.c        0x00000000   Number         0  rc523_cfg.o ABSOLUTE
    ..\\Application\\nfc\\rc523_drv.c        0x00000000   Number         0  rc523_drv.o ABSOLUTE
    ..\\Application\\nfc\\tsk_card.c         0x00000000   Number         0  tsk_card.o ABSOLUTE
    ..\\Board_Drivers\\dev.c                 0x00000000   Number         0  dev.o ABSOLUTE
    ..\\Board_Drivers\\drv_key.c             0x00000000   Number         0  drv_key.o ABSOLUTE
    ..\\Board_Drivers\\drv_led.c             0x00000000   Number         0  drv_led.o ABSOLUTE
    ..\\Board_Drivers\\drv_soft_timer.c      0x00000000   Number         0  drv_soft_timer.o ABSOLUTE
    ..\\Board_Drivers\\drv_timer0.c          0x00000000   Number         0  drv_timer0.o ABSOLUTE
    ..\\Board_Drivers\\drv_usart.c           0x00000000   Number         0  drv_usart.o ABSOLUTE
    ..\\Libraries\\Device\\Phoenix\\source\\startup\\arm\\tx_phe_startup.c 0x00000000   Number         0  tx_phe_startup.o ABSOLUTE
    ..\\Libraries\\Device\\Phoenix\\source\\tx_phe_assert.c 0x00000000   Number         0  tx_phe_assert.o ABSOLUTE
    ..\\Libraries\\Device\\Phoenix\\source\\tx_phe_debug.c 0x00000000   Number         0  tx_phe_debug.o ABSOLUTE
    ..\\Libraries\\Device\\Phoenix\\source\\tx_phe_misc.c 0x00000000   Number         0  tx_phe_misc.o ABSOLUTE
    ..\\Libraries\\Device\\Phoenix\\source\\tx_phe_system.c 0x00000000   Number         0  tx_phe_system.o ABSOLUTE
    ..\\Libraries\\Device\\Phoenix\\source\\txf5200.c 0x00000000   Number         0  txf5200.o ABSOLUTE
    ..\\Libraries\\Device\\Phoenix\\source\\txf6200.c 0x00000000   Number         0  txf6200.o ABSOLUTE
    ..\\Libraries\\Driver\\source\\LL\\tx_phe_ll_arctan.c 0x00000000   Number         0  tx_phe_ll_arctan.o ABSOLUTE
    ..\\Libraries\\Driver\\source\\LL\\tx_phe_ll_can.c 0x00000000   Number         0  tx_phe_ll_can.o ABSOLUTE
    ..\\Libraries\\Driver\\source\\LL\\tx_phe_ll_cc_rst.c 0x00000000   Number         0  tx_phe_ll_cc_rst.o ABSOLUTE
    ..\\Libraries\\Driver\\source\\LL\\tx_phe_ll_crc.c 0x00000000   Number         0  tx_phe_ll_crc.o ABSOLUTE
    ..\\Libraries\\Driver\\source\\LL\\tx_phe_ll_datadma.c 0x00000000   Number         0  tx_phe_ll_datadma.o ABSOLUTE
    ..\\Libraries\\Driver\\source\\LL\\tx_phe_ll_dftrans.c 0x00000000   Number         0  tx_phe_ll_dftrans.o ABSOLUTE
    ..\\Libraries\\Driver\\source\\LL\\tx_phe_ll_dmac.c 0x00000000   Number         0  tx_phe_ll_dmac.o ABSOLUTE
    ..\\Libraries\\Driver\\source\\LL\\tx_phe_ll_eflash.c 0x00000000   Number         0  tx_phe_ll_eflash.o ABSOLUTE
    ..\\Libraries\\Driver\\source\\LL\\tx_phe_ll_epwm.c 0x00000000   Number         0  tx_phe_ll_epwm.o ABSOLUTE
    ..\\Libraries\\Driver\\source\\LL\\tx_phe_ll_evsys.c 0x00000000   Number         0  tx_phe_ll_evsys.o ABSOLUTE
    ..\\Libraries\\Driver\\source\\LL\\tx_phe_ll_fadc.c 0x00000000   Number         0  tx_phe_ll_fadc.o ABSOLUTE
    ..\\Libraries\\Driver\\source\\LL\\tx_phe_ll_fft.c 0x00000000   Number         0  tx_phe_ll_fft.o ABSOLUTE
    ..\\Libraries\\Driver\\source\\LL\\tx_phe_ll_fir.c 0x00000000   Number         0  tx_phe_ll_fir.o ABSOLUTE
    ..\\Libraries\\Driver\\source\\LL\\tx_phe_ll_gpio.c 0x00000000   Number         0  tx_phe_ll_gpio.o ABSOLUTE
    ..\\Libraries\\Driver\\source\\LL\\tx_phe_ll_hcc.c 0x00000000   Number         0  tx_phe_ll_hcc.o ABSOLUTE
    ..\\Libraries\\Driver\\source\\LL\\tx_phe_ll_iic.c 0x00000000   Number         0  tx_phe_ll_iic.o ABSOLUTE
    ..\\Libraries\\Driver\\source\\LL\\tx_phe_ll_iir.c 0x00000000   Number         0  tx_phe_ll_iir.o ABSOLUTE
    ..\\Libraries\\Driver\\source\\LL\\tx_phe_ll_mac.c 0x00000000   Number         0  tx_phe_ll_mac.o ABSOLUTE
    ..\\Libraries\\Driver\\source\\LL\\tx_phe_ll_matrix.c 0x00000000   Number         0  tx_phe_ll_matrix.o ABSOLUTE
    ..\\Libraries\\Driver\\source\\LL\\tx_phe_ll_qei.c 0x00000000   Number         0  tx_phe_ll_qei.o ABSOLUTE
    ..\\Libraries\\Driver\\source\\LL\\tx_phe_ll_rms.c 0x00000000   Number         0  tx_phe_ll_rms.o ABSOLUTE
    ..\\Libraries\\Driver\\source\\LL\\tx_phe_ll_saradc.c 0x00000000   Number         0  tx_phe_ll_saradc.o ABSOLUTE
    ..\\Libraries\\Driver\\source\\LL\\tx_phe_ll_sincos.c 0x00000000   Number         0  tx_phe_ll_sincos.o ABSOLUTE
    ..\\Libraries\\Driver\\source\\LL\\tx_phe_ll_spi.c 0x00000000   Number         0  tx_phe_ll_spi.o ABSOLUTE
    ..\\Libraries\\Driver\\source\\LL\\tx_phe_ll_spwm.c 0x00000000   Number         0  tx_phe_ll_spwm.o ABSOLUTE
    ..\\Libraries\\Driver\\source\\LL\\tx_phe_ll_svpwm.c 0x00000000   Number         0  tx_phe_ll_svpwm.o ABSOLUTE
    ..\\Libraries\\Driver\\source\\LL\\tx_phe_ll_timer.c 0x00000000   Number         0  tx_phe_ll_timer.o ABSOLUTE
    ..\\Libraries\\Driver\\source\\LL\\tx_phe_ll_usart.c 0x00000000   Number         0  tx_phe_ll_usart.o ABSOLUTE
    ..\\Libraries\\Driver\\source\\LL\\tx_phe_ll_wdt.c 0x00000000   Number         0  tx_phe_ll_wdt.o ABSOLUTE
    ..\\User\\main.c                         0x00000000   Number         0  main.o ABSOLUTE
    ..\\User\\tx_phe_irq.c                   0x00000000   Number         0  tx_phe_irq.o ABSOLUTE
    cdrcmple.s                               0x00000000   Number         0  cdrcmple.o ABSOLUTE
    dc.s                                     0x00000000   Number         0  dc.o ABSOLUTE
    handlers.s                               0x00000000   Number         0  handlers.o ABSOLUTE
    init.s                                   0x00000000   Number         0  init.o ABSOLUTE
    RESET                                    0x08000000   Section      316  tx_phe_startup.o(RESET)
    .ARM.Collect$$$$00000000                 0x0800013c   Section        0  entry.o(.ARM.Collect$$$$00000000)
    .ARM.Collect$$$$00000003                 0x0800013c   Section        4  entry4.o(.ARM.Collect$$$$00000003)
    .ARM.Collect$$$$00000004                 0x08000140   Section        4  entry5.o(.ARM.Collect$$$$00000004)
    .ARM.Collect$$$$00000008                 0x08000144   Section        0  entry7b.o(.ARM.Collect$$$$00000008)
    .ARM.Collect$$$$0000000A                 0x08000144   Section        0  entry8b.o(.ARM.Collect$$$$0000000A)
    .ARM.Collect$$$$0000000B                 0x08000144   Section        8  entry9a.o(.ARM.Collect$$$$0000000B)
    .ARM.Collect$$$$0000000E                 0x0800014c   Section        4  entry12b.o(.ARM.Collect$$$$0000000E)
    .ARM.Collect$$$$0000000F                 0x08000150   Section        0  entry10a.o(.ARM.Collect$$$$0000000F)
    .ARM.Collect$$$$00000011                 0x08000150   Section        0  entry11a.o(.ARM.Collect$$$$00000011)
    .ARM.Collect$$$$00002714                 0x08000150   Section        4  entry4.o(.ARM.Collect$$$$00002714)
    __lit__00000000                          0x08000150   Data           4  entry4.o(.ARM.Collect$$$$00002714)
    .text                                    0x08000154   Section        0  uldiv.o(.text)
    .text                                    0x080001b6   Section        0  toupper.o(.text)
    .text                                    0x080001c2   Section        0  memcpya.o(.text)
    .text                                    0x080001e6   Section        0  memseta.o(.text)
    .text                                    0x0800020a   Section        0  llshl.o(.text)
    .text                                    0x08000228   Section        0  llushr.o(.text)
    .text                                    0x08000248   Section       36  init.o(.text)
    .text                                    0x0800026c   Section        0  __dczerorl2.o(.text)
    i.$Sub$$main                             0x080002c2   Section        0  tx_phe_startup.o(i.$Sub$$main)
    i.ADTIM0_IRQHandler                      0x080002ce   Section        0  tx_phe_irq.o(i.ADTIM0_IRQHandler)
    i.ARCTAN0_IRQHandler                     0x080002d0   Section        0  tx_phe_irq.o(i.ARCTAN0_IRQHandler)
    i.ARCTAN1_IRQHandler                     0x080002d2   Section        0  tx_phe_irq.o(i.ARCTAN1_IRQHandler)
    i.ARCTAN2_IRQHandler                     0x080002d4   Section        0  tx_phe_irq.o(i.ARCTAN2_IRQHandler)
    i.BusFault_Handler                       0x080002d6   Section        0  tx_phe_irq.o(i.BusFault_Handler)
    i.CAN_IRQHandler                         0x080002de   Section        0  tx_phe_irq.o(i.CAN_IRQHandler)
    i.CRC_IRQHandler                         0x080002e0   Section        0  tx_phe_irq.o(i.CRC_IRQHandler)
    i.CalulateCRC                            0x080002e2   Section        0  rc523_drv.o(i.CalulateCRC)
    i.ClearBitMask                           0x0800034e   Section        0  rc523_drv.o(i.ClearBitMask)
    i.DATADMA_IRQHandler                     0x0800036a   Section        0  tx_phe_irq.o(i.DATADMA_IRQHandler)
    i.DFTRANS0_IRQHandler                    0x0800036c   Section        0  tx_phe_irq.o(i.DFTRANS0_IRQHandler)
    i.DFTRANS1_IRQHandler                    0x0800036e   Section        0  tx_phe_irq.o(i.DFTRANS1_IRQHandler)
    i.DFTRANS2_IRQHandler                    0x08000370   Section        0  tx_phe_irq.o(i.DFTRANS2_IRQHandler)
    i.DMA0_IRQHandler                        0x08000372   Section        0  tx_phe_irq.o(i.DMA0_IRQHandler)
    i.DebugMon_Handler                       0x08000374   Section        0  tx_phe_irq.o(i.DebugMon_Handler)
    i.EPWM_IRQHandler                        0x08000376   Section        0  tx_phe_irq.o(i.EPWM_IRQHandler)
    i.EVSYS_IRQHandler                       0x08000378   Section        0  tx_phe_irq.o(i.EVSYS_IRQHandler)
    i.FADC_IRQHandler                        0x0800037a   Section        0  tx_phe_irq.o(i.FADC_IRQHandler)
    i.FFT0_IRQHandler                        0x0800037c   Section        0  tx_phe_irq.o(i.FFT0_IRQHandler)
    i.FFT0_PREPROCESS_IRQHandler             0x0800037e   Section        0  tx_phe_irq.o(i.FFT0_PREPROCESS_IRQHandler)
    i.FFT1_IRQHandler                        0x08000380   Section        0  tx_phe_irq.o(i.FFT1_IRQHandler)
    i.FFT1_PREPROCESS_IRQHandler             0x08000382   Section        0  tx_phe_irq.o(i.FFT1_PREPROCESS_IRQHandler)
    i.FFT2_IRQHandler                        0x08000384   Section        0  tx_phe_irq.o(i.FFT2_IRQHandler)
    i.FFT2_PREPROCESS_IRQHandler             0x08000386   Section        0  tx_phe_irq.o(i.FFT2_PREPROCESS_IRQHandler)
    i.FIR0_IRQHandler                        0x08000388   Section        0  tx_phe_irq.o(i.FIR0_IRQHandler)
    i.FIR1_IRQHandler                        0x0800038a   Section        0  tx_phe_irq.o(i.FIR1_IRQHandler)
    i.FIR2_IRQHandler                        0x0800038c   Section        0  tx_phe_irq.o(i.FIR2_IRQHandler)
    i.GMAC_IRQHandler                        0x0800038e   Section        0  tx_phe_irq.o(i.GMAC_IRQHandler)
    i.GPIOA_IRQHandler                       0x08000390   Section        0  tx_phe_irq.o(i.GPIOA_IRQHandler)
    i.GPIOB_IRQHandler                       0x08000392   Section        0  tx_phe_irq.o(i.GPIOB_IRQHandler)
    i.GPIOC_IRQHandler                       0x08000394   Section        0  tx_phe_irq.o(i.GPIOC_IRQHandler)
    i.GPIOD_IRQHandler                       0x08000396   Section        0  tx_phe_irq.o(i.GPIOD_IRQHandler)
    i.HCC_IRQHandler                         0x08000398   Section        0  tx_phe_irq.o(i.HCC_IRQHandler)
    i.HardFault_Handler                      0x0800039a   Section        0  tx_phe_irq.o(i.HardFault_Handler)
    i.IIC0_IRQHandler                        0x080003a2   Section        0  tx_phe_irq.o(i.IIC0_IRQHandler)
    i.IIC1_IRQHandler                        0x080003a4   Section        0  tx_phe_irq.o(i.IIC1_IRQHandler)
    i.IIR0_IRQHandler                        0x080003a6   Section        0  tx_phe_irq.o(i.IIR0_IRQHandler)
    i.IIR1_IRQHandler                        0x080003a8   Section        0  tx_phe_irq.o(i.IIR1_IRQHandler)
    i.IIR2_IRQHandler                        0x080003aa   Section        0  tx_phe_irq.o(i.IIR2_IRQHandler)
    i.LVD_IRQHandler                         0x080003ac   Section        0  tx_phe_irq.o(i.LVD_IRQHandler)
    i.MATRIX_MULT_IRQHandler                 0x080003b4   Section        0  tx_phe_irq.o(i.MATRIX_MULT_IRQHandler)
    i.MFRC522_SleepUS                        0x080003b6   Section        0  rc523_drv.o(i.MFRC522_SleepUS)
    i.MemManage_Handler                      0x080003c8   Section        0  tx_phe_irq.o(i.MemManage_Handler)
    i.NMI_Handler                            0x080003d0   Section        0  tx_phe_irq.o(i.NMI_Handler)
    i.PcdAntennaOn                           0x080003d8   Section        0  rc523_drv.o(i.PcdAntennaOn)
    i.PcdAnticoll                            0x080003f2   Section        0  rc523_drv.o(i.PcdAnticoll)
    i.PcdAuthState                           0x080004ce   Section        0  rc523_drv.o(i.PcdAuthState)
    i.PcdComMF522                            0x0800053c   Section        0  rc523_drv.o(i.PcdComMF522)
    i.PcdRead                                0x0800066e   Section        0  rc523_drv.o(i.PcdRead)
    i.PcdRequest                             0x080006c2   Section        0  rc523_drv.o(i.PcdRequest)
    i.PcdReset                               0x08000732   Section        0  rc523_drv.o(i.PcdReset)
    i.PcdSelect                              0x08000892   Section        0  rc523_drv.o(i.PcdSelect)
    i.PcdWrite                               0x08000904   Section        0  rc523_drv.o(i.PcdWrite)
    i.PendSV_Handler                         0x08000996   Section        0  tx_phe_irq.o(i.PendSV_Handler)
    i.QEI_IRQHandler                         0x08000998   Section        0  tx_phe_irq.o(i.QEI_IRQHandler)
    i.RC523_Delay_Us                         0x0800099a   Section        0  rc523_drv.o(i.RC523_Delay_Us)
    i.RMS0_IRQHandler                        0x080009ac   Section        0  tx_phe_irq.o(i.RMS0_IRQHandler)
    i.RMS1_IRQHandler                        0x080009ae   Section        0  tx_phe_irq.o(i.RMS1_IRQHandler)
    i.RMS2_IRQHandler                        0x080009b0   Section        0  tx_phe_irq.o(i.RMS2_IRQHandler)
    i.ReadRawRC                              0x080009b4   Section        0  rc523_cfg.o(i.ReadRawRC)
    i.Reset_Handler                          0x08000a74   Section        0  tx_phe_startup.o(i.Reset_Handler)
    __tagsym$$used                           0x08000a75   Number         0  tx_phe_startup.o(i.Reset_Handler)
    i.SARADC_IRQHandler                      0x08000a7c   Section        0  tx_phe_irq.o(i.SARADC_IRQHandler)
    i.SINCOS0_IRQHandler                     0x08000a7e   Section        0  tx_phe_irq.o(i.SINCOS0_IRQHandler)
    i.SINCOS1_IRQHandler                     0x08000a80   Section        0  tx_phe_irq.o(i.SINCOS1_IRQHandler)
    i.SPI0_IRQHandler                        0x08000a82   Section        0  tx_phe_irq.o(i.SPI0_IRQHandler)
    i.SPI1_IRQHandler                        0x08000a84   Section        0  tx_phe_irq.o(i.SPI1_IRQHandler)
    i.SPWM_IRQHandler                        0x08000a86   Section        0  tx_phe_irq.o(i.SPWM_IRQHandler)
    i.SVC_Handler                            0x08000a88   Section        0  tx_phe_irq.o(i.SVC_Handler)
    i.SVPWM_IRQHandler                       0x08000a8a   Section        0  tx_phe_irq.o(i.SVPWM_IRQHandler)
    i.SetBitMask                             0x08000a8c   Section        0  rc523_drv.o(i.SetBitMask)
    i.SysTick_Handler                        0x08000aa8   Section        0  tx_phe_irq.o(i.SysTick_Handler)
    i.TIM0_IRQHandler                        0x08000ab8   Section        0  tx_phe_irq.o(i.TIM0_IRQHandler)
    i.TIM1_IRQHandler                        0x08000aec   Section        0  tx_phe_irq.o(i.TIM1_IRQHandler)
    i.TIM2_IRQHandler                        0x08000aee   Section        0  tx_phe_irq.o(i.TIM2_IRQHandler)
    i.TIM3_IRQHandler                        0x08000af0   Section        0  tx_phe_irq.o(i.TIM3_IRQHandler)
    i.TIM4_IRQHandler                        0x08000af2   Section        0  tx_phe_irq.o(i.TIM4_IRQHandler)
    i.TIM5_IRQHandler                        0x08000af4   Section        0  tx_phe_irq.o(i.TIM5_IRQHandler)
    i.TIM6_IRQHandler                        0x08000af6   Section        0  tx_phe_irq.o(i.TIM6_IRQHandler)
    i.TIM7_IRQHandler                        0x08000af8   Section        0  tx_phe_irq.o(i.TIM7_IRQHandler)
    i.USART0_IRQHandler                      0x08000afc   Section        0  tx_phe_irq.o(i.USART0_IRQHandler)
    i.USART1_IRQHandler                      0x08000b94   Section        0  tx_phe_irq.o(i.USART1_IRQHandler)
    i.USART2_IRQHandler                      0x08000b96   Section        0  tx_phe_irq.o(i.USART2_IRQHandler)
    i.UsageFault_Handler                     0x08000b98   Section        0  tx_phe_irq.o(i.UsageFault_Handler)
    i.WAKEUP_IRQHandler                      0x08000ba0   Section        0  tx_phe_irq.o(i.WAKEUP_IRQHandler)
    i.WDT_IRQHandler                         0x08000ba4   Section        0  tx_phe_irq.o(i.WDT_IRQHandler)
    i.WriteRawRC                             0x08000bc0   Section        0  rc523_cfg.o(i.WriteRawRC)
    i.__0printf$8                            0x08000c84   Section        0  printf8.o(i.__0printf$8)
    i.__get_PRIMASK                          0x08000ca4   Section        0  tx_phe_ll_cc_rst.o(i.__get_PRIMASK)
    __get_PRIMASK                            0x08000ca5   Thumb Code     6  tx_phe_ll_cc_rst.o(i.__get_PRIMASK)
    i.__get_PRIMASK                          0x08000caa   Section        0  tx_phe_ll_eflash.o(i.__get_PRIMASK)
    __get_PRIMASK                            0x08000cab   Thumb Code     6  tx_phe_ll_eflash.o(i.__get_PRIMASK)
    i.__scatterload_copy                     0x08000cb0   Section       14  handlers.o(i.__scatterload_copy)
    i.__scatterload_null                     0x08000cbe   Section        2  handlers.o(i.__scatterload_null)
    i.__scatterload_zeroinit                 0x08000cc0   Section       14  handlers.o(i.__scatterload_zeroinit)
    i._printf_core                           0x08000cd0   Section        0  printf8.o(i._printf_core)
    _printf_core                             0x08000cd1   Thumb Code   984  printf8.o(i._printf_core)
    i._printf_post_padding                   0x080010d4   Section        0  printf8.o(i._printf_post_padding)
    _printf_post_padding                     0x080010d5   Thumb Code    36  printf8.o(i._printf_post_padding)
    i._printf_pre_padding                    0x080010f8   Section        0  printf8.o(i._printf_pre_padding)
    _printf_pre_padding                      0x080010f9   Thumb Code    46  printf8.o(i._printf_pre_padding)
    i.card_id_encryption                     0x08001128   Section        0  tsk_card.o(i.card_id_encryption)
    i.clk_config                             0x080011ac   Section        0  main.o(i.clk_config)
    clk_config                               0x080011ad   Thumb Code    46  main.o(i.clk_config)
    i.debug_select_interface                 0x080011e4   Section        0  tx_phe_debug.o(i.debug_select_interface)
    i.decode_usart_data                      0x08001220   Section        0  main.o(i.decode_usart_data)
    i.dev_sn_deciphering                     0x08001270   Section        0  tsk_card.o(i.dev_sn_deciphering)
    i.dev_sn_encryption                      0x080012a4   Section        0  tsk_card.o(i.dev_sn_encryption)
    i.dump_fault_state                       0x080012d8   Section        0  tx_phe_system.o(i.dump_fault_state)
    i.fputc                                  0x080017b0   Section        0  tx_phe_debug.o(i.fputc)
    i.key_cb_switch_nfc_mode                 0x0800181c   Section        0  main.o(i.key_cb_switch_nfc_mode)
    i.key_close                              0x080019cc   Section        0  drv_key.o(i.key_close)
    key_close                                0x080019cd   Thumb Code     4  drv_key.o(i.key_close)
    i.key_init                               0x080019d0   Section        0  drv_key.o(i.key_init)
    key_init                                 0x080019d1   Thumb Code    98  drv_key.o(i.key_init)
    i.key_ioctl                              0x08001a48   Section        0  drv_key.o(i.key_ioctl)
    key_ioctl                                0x08001a49   Thumb Code    26  drv_key.o(i.key_ioctl)
    i.key_open                               0x08001a68   Section        0  drv_key.o(i.key_open)
    key_open                                 0x08001a69   Thumb Code     4  drv_key.o(i.key_open)
    i.key_test_event_callback                0x08001a6c   Section        0  drv_key.o(i.key_test_event_callback)
    i.key_tmr_cb                             0x08001ad8   Section        0  drv_key.o(i.key_tmr_cb)
    key_tmr_cb                               0x08001ad9   Thumb Code   420  drv_key.o(i.key_tmr_cb)
    i.led_close                              0x08001c9c   Section        0  drv_led.o(i.led_close)
    led_close                                0x08001c9d   Thumb Code     4  drv_led.o(i.led_close)
    i.led_flash_cfg                          0x08001ca0   Section        0  drv_led.o(i.led_flash_cfg)
    led_flash_cfg                            0x08001ca1   Thumb Code   208  drv_led.o(i.led_flash_cfg)
    i.led_flash_stop                         0x08001d78   Section        0  drv_led.o(i.led_flash_stop)
    led_flash_stop                           0x08001d79   Thumb Code    82  drv_led.o(i.led_flash_stop)
    i.led_flash_tmr                          0x08001dd4   Section        0  drv_led.o(i.led_flash_tmr)
    led_flash_tmr                            0x08001dd5   Thumb Code   316  drv_led.o(i.led_flash_tmr)
    i.led_init                               0x08001f20   Section        0  drv_led.o(i.led_init)
    led_init                                 0x08001f21   Thumb Code   112  drv_led.o(i.led_init)
    i.led_ioctl                              0x08001f9c   Section        0  drv_led.o(i.led_ioctl)
    led_ioctl                                0x08001f9d   Thumb Code   116  drv_led.o(i.led_ioctl)
    i.led_open                               0x08002014   Section        0  drv_led.o(i.led_open)
    led_open                                 0x08002015   Thumb Code     4  drv_led.o(i.led_open)
    i.ll_cc_adcpll_set                       0x08002018   Section        0  tx_phe_ll_cc_rst.o(i.ll_cc_adcpll_set)
    i.ll_cc_clk_div_config                   0x0800227c   Section        0  tx_phe_ll_cc_rst.o(i.ll_cc_clk_div_config)
    i.ll_cc_rst_apb2_peripheral_clk_enable   0x08002318   Section        0  tx_phe_ll_eflash.o(i.ll_cc_rst_apb2_peripheral_clk_enable)
    ll_cc_rst_apb2_peripheral_clk_enable     0x08002319   Thumb Code   114  tx_phe_ll_eflash.o(i.ll_cc_rst_apb2_peripheral_clk_enable)
    i.ll_cc_rst_delay5ms_32khz               0x08002394   Section        0  tx_phe_ll_cc_rst.o(i.ll_cc_rst_delay5ms_32khz)
    i.ll_cc_sys_clk_get                      0x080023b4   Section        0  tx_phe_ll_cc_rst.o(i.ll_cc_sys_clk_get)
    i.ll_cc_sysclk_select                    0x0800244c   Section        0  tx_phe_ll_cc_rst.o(i.ll_cc_sysclk_select)
    i.ll_cc_syspll_set                       0x08002480   Section        0  tx_phe_ll_cc_rst.o(i.ll_cc_syspll_set)
    i.ll_eflash_config                       0x0800276c   Section        0  tx_phe_ll_eflash.o(i.ll_eflash_config)
    i.ll_eflash_init                         0x08002828   Section        0  tx_phe_ll_eflash.o(i.ll_eflash_init)
    i.ll_gpio_bit_reset                      0x080028c4   Section        0  drv_led.o(i.ll_gpio_bit_reset)
    ll_gpio_bit_reset                        0x080028c5   Thumb Code     6  drv_led.o(i.ll_gpio_bit_reset)
    i.ll_gpio_bit_set                        0x080028ca   Section        0  drv_led.o(i.ll_gpio_bit_set)
    ll_gpio_bit_set                          0x080028cb   Thumb Code     6  drv_led.o(i.ll_gpio_bit_set)
    i.ll_gpio_dir                            0x080028d0   Section        0  tx_phe_ll_gpio.o(i.ll_gpio_dir)
    i.ll_gpio_pull                           0x08002950   Section        0  tx_phe_ll_gpio.o(i.ll_gpio_pull)
    i.ll_gpio_write_data_bit                 0x08002a00   Section        0  rc523_cfg.o(i.ll_gpio_write_data_bit)
    ll_gpio_write_data_bit                   0x08002a01   Thumb Code    18  rc523_cfg.o(i.ll_gpio_write_data_bit)
    i.ll_timer_config                        0x08002a14   Section        0  tx_phe_ll_timer.o(i.ll_timer_config)
    i.ll_timer_deinit                        0x08002ad4   Section        0  tx_phe_ll_timer.o(i.ll_timer_deinit)
    i.ll_timer_init                          0x08002cb4   Section        0  tx_phe_ll_timer.o(i.ll_timer_init)
    i.ll_timer_io_map                        0x08002d3c   Section        0  tx_phe_ll_timer.o(i.ll_timer_io_map)
    i.ll_timer_irq_config                    0x080030b8   Section        0  tx_phe_ll_timer.o(i.ll_timer_irq_config)
    i.ll_timer_start                         0x080030e0   Section        0  tx_phe_ll_timer.o(i.ll_timer_start)
    i.ll_usart232_config                     0x08003174   Section        0  tx_phe_ll_usart.o(i.ll_usart232_config)
    i.ll_usart232_io_map                     0x08003234   Section        0  tx_phe_ll_usart.o(i.ll_usart232_io_map)
    i.ll_usart_deinit                        0x08003340   Section        0  tx_phe_ll_usart.o(i.ll_usart_deinit)
    i.ll_usart_init                          0x080033f8   Section        0  tx_phe_ll_usart.o(i.ll_usart_init)
    i.ll_usart_irq_config                    0x08003454   Section        0  tx_phe_ll_usart.o(i.ll_usart_irq_config)
    i.main                                   0x0800349c   Section        0  main.o(i.main)
    i.nfc_get_dev_sn                         0x080036ac   Section        0  tsk_card.o(i.nfc_get_dev_sn)
    i.nfc_init                               0x080036c0   Section        0  tsk_card.o(i.nfc_init)
    i.nfc_read_card                          0x080036d0   Section        0  tsk_card.o(i.nfc_read_card)
    i.nfc_set_dev_sn                         0x08003990   Section        0  tsk_card.o(i.nfc_set_dev_sn)
    i.nfc_task                               0x080039a4   Section        0  main.o(i.nfc_task)
    i.nfc_write_card                         0x080039bc   Section        0  tsk_card.o(i.nfc_write_card)
    i.rc523_cfg_init                         0x08003ff8   Section        0  rc523_cfg.o(i.rc523_cfg_init)
    i.recover_fault_state                    0x08004064   Section        0  tx_phe_system.o(i.recover_fault_state)
    i.set_rst                                0x0800406c   Section        0  rc523_cfg.o(i.set_rst)
    i.soft_timer_ioctl                       0x0800408c   Section        0  drv_soft_timer.o(i.soft_timer_ioctl)
    soft_timer_ioctl                         0x0800408d   Thumb Code    48  drv_soft_timer.o(i.soft_timer_ioctl)
    i.soft_tmr_delete                        0x080040bc   Section        0  drv_soft_timer.o(i.soft_tmr_delete)
    soft_tmr_delete                          0x080040bd   Thumb Code    74  drv_soft_timer.o(i.soft_tmr_delete)
    i.soft_tmr_get_tick                      0x0800410c   Section        0  drv_soft_timer.o(i.soft_tmr_get_tick)
    soft_tmr_get_tick                        0x0800410d   Thumb Code     6  drv_soft_timer.o(i.soft_tmr_get_tick)
    i.soft_tmr_init                          0x08004118   Section        0  drv_soft_timer.o(i.soft_tmr_init)
    soft_tmr_init                            0x08004119   Thumb Code    22  drv_soft_timer.o(i.soft_tmr_init)
    i.soft_tmr_install                       0x0800413c   Section        0  drv_soft_timer.o(i.soft_tmr_install)
    i.soft_tmr_poll                          0x08004208   Section        0  drv_soft_timer.o(i.soft_tmr_poll)
    i.soft_tmr_tick_update                   0x08004268   Section        0  drv_soft_timer.o(i.soft_tmr_tick_update)
    soft_tmr_tick_update                     0x08004269   Thumb Code    12  drv_soft_timer.o(i.soft_tmr_tick_update)
    i.sys_cpu_init                           0x08004278   Section        0  tx_phe_system.o(i.sys_cpu_init)
    i.sys_eflash_config                      0x080042d8   Section        0  tx_phe_system.o(i.sys_eflash_config)
    i.sys_eflash_init                        0x0800431c   Section        0  tx_phe_system.o(i.sys_eflash_init)
    i.sys_fault_recover_context              0x08004330   Section        0  tx_phe_system.o(i.sys_fault_recover_context)
    i.sys_fault_save_context                 0x08004332   Section        0  tx_phe_system.o(i.sys_fault_save_context)
    i.sys_module_init                        0x08004334   Section        0  tx_phe_system.o(i.sys_module_init)
    i.sys_peripheral_init                    0x08004380   Section        0  tx_phe_system.o(i.sys_peripheral_init)
    i.system_critical_section_enter          0x0800438c   Section        0  tx_phe_system.o(i.system_critical_section_enter)
    i.system_critical_section_exit           0x080043b4   Section        0  tx_phe_system.o(i.system_critical_section_exit)
    i.system_init                            0x080043dc   Section        0  tx_phe_system.o(i.system_init)
    i.timer_config                           0x08004434   Section        0  drv_timer0.o(i.timer_config)
    timer_config                             0x08004435   Thumb Code    84  drv_timer0.o(i.timer_config)
    i.timer_deinit                           0x08004494   Section        0  drv_timer0.o(i.timer_deinit)
    timer_deinit                             0x08004495   Thumb Code    66  drv_timer0.o(i.timer_deinit)
    i.timer_init                             0x080044e0   Section        0  drv_timer0.o(i.timer_init)
    timer_init                               0x080044e1   Thumb Code    98  drv_timer0.o(i.timer_init)
    i.timer_ioctl                            0x08004554   Section        0  drv_timer0.o(i.timer_ioctl)
    timer_ioctl                              0x08004555   Thumb Code    82  drv_timer0.o(i.timer_ioctl)
    i.timer_start                            0x080045ac   Section        0  drv_timer0.o(i.timer_start)
    timer_start                              0x080045ad   Thumb Code    24  drv_timer0.o(i.timer_start)
    i.tmr0_irq_handle                        0x080045d0   Section        0  drv_timer0.o(i.tmr0_irq_handle)
    i.tx_assert_false                        0x080045f8   Section        0  tx_phe_assert.o(i.tx_assert_false)
    i.usart_config                           0x0800463c   Section        0  drv_usart.o(i.usart_config)
    usart_config                             0x0800463d   Thumb Code   112  drv_usart.o(i.usart_config)
    i.usart_deinit                           0x080046b8   Section        0  drv_usart.o(i.usart_deinit)
    usart_deinit                             0x080046b9   Thumb Code    10  drv_usart.o(i.usart_deinit)
    i.usart_init                             0x080046c8   Section        0  drv_usart.o(i.usart_init)
    usart_init                               0x080046c9   Thumb Code    86  drv_usart.o(i.usart_init)
    i.usart_ioctl                            0x0800472c   Section        0  drv_usart.o(i.usart_ioctl)
    usart_ioctl                              0x0800472d   Thumb Code     6  drv_usart.o(i.usart_ioctl)
    i.usart_read                             0x08004734   Section        0  drv_usart.o(i.usart_read)
    i.usart_rx_cmd_over                      0x08004774   Section        0  drv_usart.o(i.usart_rx_cmd_over)
    i.usart_rx_data_handle                   0x08004780   Section        0  drv_usart.o(i.usart_rx_data_handle)
    .constdata                               0x080047bc   Section       32  drv_led.o(.constdata)
    .constdata                               0x080047dc   Section       32  drv_key.o(.constdata)
    .constdata                               0x080047fc   Section       32  drv_usart.o(.constdata)
    .constdata                               0x0800481c   Section       32  drv_timer0.o(.constdata)
    .constdata                               0x0800483c   Section       32  drv_soft_timer.o(.constdata)
    .constdata                               0x0800485c   Section       16  tx_phe_ll_cc_rst.o(.constdata)
    __ll_pll_center_freq                     0x0800485c   Data          16  tx_phe_ll_cc_rst.o(.constdata)
    .conststring                             0x0800486c   Section       65  main.o(.conststring)
    .data                                    0x20010000   Section       40  main.o(.data)
    .data                                    0x20010028   Section       62  tsk_card.o(.data)
    .data                                    0x20010068   Section       20  dev.o(.data)
    .data                                    0x2001007c   Section       74  drv_led.o(.data)
    led_hw_cfg                               0x2001007c   Data          48  drv_led.o(.data)
    led_state                                0x200100ac   Data           8  drv_led.o(.data)
    on_time                                  0x200100b4   Data           8  drv_led.o(.data)
    off_time                                 0x200100bc   Data           8  drv_led.o(.data)
    i                                        0x200100c4   Data           1  drv_led.o(.data)
    i                                        0x200100c5   Data           1  drv_led.o(.data)
    .data                                    0x200100c8   Section       56  drv_key.o(.data)
    KeyHwCfg                                 0x200100dc   Data          20  drv_key.o(.data)
    LongKeyRelease                           0x200100f0   Data           1  drv_key.o(.data)
    KeyType                                  0x200100f1   Data           1  drv_key.o(.data)
    KeyState                                 0x200100f2   Data           1  drv_key.o(.data)
    KeyUpdataFlag                            0x200100f3   Data           1  drv_key.o(.data)
    KeyPressCnt                              0x200100f4   Data           1  drv_key.o(.data)
    Time_PressCnt                            0x200100f8   Data           4  drv_key.o(.data)
    Time_ReleaseCnt                          0x200100fc   Data           4  drv_key.o(.data)
    .data                                    0x20010100   Section        1  drv_usart.o(.data)
    .data                                    0x20010104   Section       12  drv_soft_timer.o(.data)
    pStmr_list_header                        0x20010104   Data           4  drv_soft_timer.o(.data)
    stmr_last_time                           0x20010108   Data           4  drv_soft_timer.o(.data)
    stmr_tick                                0x2001010c   Data           4  drv_soft_timer.o(.data)
    .data                                    0x20010110   Section       20  tx_phe_debug.o(.data)
    __debug_interface                        0x2001011c   Data           1  tx_phe_debug.o(.data)
    __p_debug_usart                          0x20010120   Data           4  tx_phe_debug.o(.data)
    .data                                    0x20010124   Section       28  tx_phe_system.o(.data)
    sys_ie_enable_counter                    0x20010128   Data           4  tx_phe_system.o(.data)
    sys_critical_ie_disabled                 0x2001012c   Data           1  tx_phe_system.o(.data)
    sys_param_address                        0x20010130   Data           4  tx_phe_system.o(.data)
    firmware_update_addr                     0x20010138   Data           4  tx_phe_system.o(.data)
    firmware_update_sectors                  0x2001013c   Data           4  tx_phe_system.o(.data)
    .bss                                     0x20010140   Section       32  main.o(.bss)
    .bss                                     0x20010160   Section       44  tsk_card.o(.bss)
    .bss                                     0x2001018c   Section       40  drv_usart.o(.bss)
    .bss                                     0x200101b4   Section       32  drv_timer0.o(.bss)
    func1ms                                  0x200101b4   Data          20  drv_timer0.o(.bss)
    .ARM.__AT_0x40000000                     0x40000000   Section      224  txf5200.o(.ARM.__AT_0x40000000)
    __tagsym$$used                           0x40000000   Number         0  txf5200.o(.ARM.__AT_0x40000000)
    .ARM.__AT_0x40001000                     0x40001000   Section      224  txf5200.o(.ARM.__AT_0x40001000)
    __tagsym$$used                           0x40001000   Number         0  txf5200.o(.ARM.__AT_0x40001000)
    .ARM.__AT_0x40003000                     0x40003000   Section      208  txf5200.o(.ARM.__AT_0x40003000)
    __tagsym$$used                           0x40003000   Number         0  txf5200.o(.ARM.__AT_0x40003000)
    .ARM.__AT_0x40004000                     0x40004000   Section      208  txf5200.o(.ARM.__AT_0x40004000)
    __tagsym$$used                           0x40004000   Number         0  txf5200.o(.ARM.__AT_0x40004000)
    .ARM.__AT_0x40005000                     0x40005000   Section      208  txf5200.o(.ARM.__AT_0x40005000)
    __tagsym$$used                           0x40005000   Number         0  txf5200.o(.ARM.__AT_0x40005000)
    .ARM.__AT_0x40006000                     0x40006000   Section       44  txf5200.o(.ARM.__AT_0x40006000)
    __tagsym$$used                           0x40006000   Number         0  txf5200.o(.ARM.__AT_0x40006000)
    .ARM.__AT_0x40007000                     0x40007000   Section       44  txf5200.o(.ARM.__AT_0x40007000)
    __tagsym$$used                           0x40007000   Number         0  txf5200.o(.ARM.__AT_0x40007000)
    .ARM.__AT_0x40009000                     0x40009000   Section        4  txf5200.o(.ARM.__AT_0x40009000)
    __tagsym$$used                           0x40009000   Number         0  txf5200.o(.ARM.__AT_0x40009000)
    .ARM.__AT_0x4000A000                     0x4000a000   Section      104  txf5200.o(.ARM.__AT_0x4000A000)
    __tagsym$$used                           0x4000a000   Number         0  txf5200.o(.ARM.__AT_0x4000A000)
    .ARM.__AT_0x4000D000                     0x4000d000   Section       16  txf5200.o(.ARM.__AT_0x4000D000)
    __tagsym$$used                           0x4000d000   Number         0  txf5200.o(.ARM.__AT_0x4000D000)
    .ARM.__AT_0x4000D010                     0x4000d010   Section       16  txf5200.o(.ARM.__AT_0x4000D010)
    __tagsym$$used                           0x4000d010   Number         0  txf5200.o(.ARM.__AT_0x4000D010)
    .ARM.__AT_0x4000D020                     0x4000d020   Section       16  txf5200.o(.ARM.__AT_0x4000D020)
    __tagsym$$used                           0x4000d020   Number         0  txf5200.o(.ARM.__AT_0x4000D020)
    .ARM.__AT_0x4000D030                     0x4000d030   Section       16  txf5200.o(.ARM.__AT_0x4000D030)
    __tagsym$$used                           0x4000d030   Number         0  txf5200.o(.ARM.__AT_0x4000D030)
    .ARM.__AT_0x40012000                     0x40012000   Section       60  txf5200.o(.ARM.__AT_0x40012000)
    __tagsym$$used                           0x40012000   Number         0  txf5200.o(.ARM.__AT_0x40012000)
    .ARM.__AT_0x40013000                     0x40013000   Section      256  txf5200.o(.ARM.__AT_0x40013000)
    __tagsym$$used                           0x40013000   Number         0  txf5200.o(.ARM.__AT_0x40013000)
    .ARM.__AT_0x40014000                     0x40014000   Section        8  txf5200.o(.ARM.__AT_0x40014000)
    __tagsym$$used                           0x40014000   Number         0  txf5200.o(.ARM.__AT_0x40014000)
    .ARM.__AT_0x40015000                     0x40015000   Section       16  txf5200.o(.ARM.__AT_0x40015000)
    __tagsym$$used                           0x40015000   Number         0  txf5200.o(.ARM.__AT_0x40015000)
    .ARM.__AT_0x40015010                     0x40015010   Section       16  txf5200.o(.ARM.__AT_0x40015010)
    __tagsym$$used                           0x40015010   Number         0  txf5200.o(.ARM.__AT_0x40015010)
    .ARM.__AT_0x40015020                     0x40015020   Section       16  txf5200.o(.ARM.__AT_0x40015020)
    __tagsym$$used                           0x40015020   Number         0  txf5200.o(.ARM.__AT_0x40015020)
    .ARM.__AT_0x40015030                     0x40015030   Section       16  txf5200.o(.ARM.__AT_0x40015030)
    __tagsym$$used                           0x40015030   Number         0  txf5200.o(.ARM.__AT_0x40015030)
    .ARM.__AT_0x40017000                     0x40017000   Section       40  txf5200.o(.ARM.__AT_0x40017000)
    __tagsym$$used                           0x40017000   Number         0  txf5200.o(.ARM.__AT_0x40017000)
    .ARM.__AT_0x4001C000                     0x4001c000   Section       16  txf5200.o(.ARM.__AT_0x4001C000)
    __tagsym$$used                           0x4001c000   Number         0  txf5200.o(.ARM.__AT_0x4001C000)
    .ARM.__AT_0x4001D000                     0x4001d000   Section       16  txf5200.o(.ARM.__AT_0x4001D000)
    __tagsym$$used                           0x4001d000   Number         0  txf5200.o(.ARM.__AT_0x4001D000)
    .ARM.__AT_0x40020000                     0x40020000   Section      952  txf5200.o(.ARM.__AT_0x40020000)
    __tagsym$$used                           0x40020000   Number         0  txf5200.o(.ARM.__AT_0x40020000)
    .ARM.__AT_0x40021000                     0x40021000   Section       96  txf5200.o(.ARM.__AT_0x40021000)
    __tagsym$$used                           0x40021000   Number         0  txf5200.o(.ARM.__AT_0x40021000)
    .ARM.__AT_0x40022000                     0x40022000   Section       60  txf5200.o(.ARM.__AT_0x40022000)
    __tagsym$$used                           0x40022000   Number         0  txf5200.o(.ARM.__AT_0x40022000)
    .ARM.__AT_0x40024000                     0x40024000   Section       60  txf5200.o(.ARM.__AT_0x40024000)
    __tagsym$$used                           0x40024000   Number         0  txf5200.o(.ARM.__AT_0x40024000)
    .ARM.__AT_0x40025000                     0x40025000   Section       60  txf5200.o(.ARM.__AT_0x40025000)
    __tagsym$$used                           0x40025000   Number         0  txf5200.o(.ARM.__AT_0x40025000)
    .ARM.__AT_0x40026000                     0x40026000   Section      132  txf5200.o(.ARM.__AT_0x40026000)
    __tagsym$$used                           0x40026000   Number         0  txf5200.o(.ARM.__AT_0x40026000)
    .ARM.__AT_0x40027000                     0x40027000   Section       60  txf5200.o(.ARM.__AT_0x40027000)
    __tagsym$$used                           0x40027000   Number         0  txf5200.o(.ARM.__AT_0x40027000)
    .ARM.__AT_0x40029000                     0x40029000   Section      176  txf5200.o(.ARM.__AT_0x40029000)
    __tagsym$$used                           0x40029000   Number         0  txf5200.o(.ARM.__AT_0x40029000)
    .ARM.__AT_0x40030000                     0x40030000   Section       20  txf5200.o(.ARM.__AT_0x40030000)
    __tagsym$$used                           0x40030000   Number         0  txf5200.o(.ARM.__AT_0x40030000)
    .ARM.__AT_0x40031000                     0x40031000   Section      124  txf5200.o(.ARM.__AT_0x40031000)
    __tagsym$$used                           0x40031000   Number         0  txf5200.o(.ARM.__AT_0x40031000)
    .ARM.__AT_0x40032000                     0x40032000   Section      224  txf5200.o(.ARM.__AT_0x40032000)
    __tagsym$$used                           0x40032000   Number         0  txf5200.o(.ARM.__AT_0x40032000)
    .ARM.__AT_0x40033000                     0x40033000   Section       52  txf5200.o(.ARM.__AT_0x40033000)
    __tagsym$$used                           0x40033000   Number         0  txf5200.o(.ARM.__AT_0x40033000)
    .ARM.__AT_0x40035000                     0x40035000   Section       64  txf5200.o(.ARM.__AT_0x40035000)
    __tagsym$$used                           0x40035000   Number         0  txf5200.o(.ARM.__AT_0x40035000)
    .ARM.__AT_0x40035040                     0x40035040   Section       64  txf5200.o(.ARM.__AT_0x40035040)
    __tagsym$$used                           0x40035040   Number         0  txf5200.o(.ARM.__AT_0x40035040)
    .ARM.__AT_0x40035080                     0x40035080   Section       64  txf5200.o(.ARM.__AT_0x40035080)
    __tagsym$$used                           0x40035080   Number         0  txf5200.o(.ARM.__AT_0x40035080)
    .ARM.__AT_0x400350C0                     0x400350c0   Section       64  txf5200.o(.ARM.__AT_0x400350C0)
    __tagsym$$used                           0x400350c0   Number         0  txf5200.o(.ARM.__AT_0x400350C0)
    .ARM.__AT_0x40035100                     0x40035100   Section       64  txf5200.o(.ARM.__AT_0x40035100)
    __tagsym$$used                           0x40035100   Number         0  txf5200.o(.ARM.__AT_0x40035100)
    .ARM.__AT_0x40035140                     0x40035140   Section      320  txf5200.o(.ARM.__AT_0x40035140)
    __tagsym$$used                           0x40035140   Number         0  txf5200.o(.ARM.__AT_0x40035140)
    .ARM.__AT_0x40035280                     0x40035280   Section       64  txf5200.o(.ARM.__AT_0x40035280)
    __tagsym$$used                           0x40035280   Number         0  txf5200.o(.ARM.__AT_0x40035280)
    .ARM.__AT_0x400352C0                     0x400352c0   Section       64  txf5200.o(.ARM.__AT_0x400352C0)
    __tagsym$$used                           0x400352c0   Number         0  txf5200.o(.ARM.__AT_0x400352C0)
    .ARM.__AT_0x40035300                     0x40035300   Section       64  txf5200.o(.ARM.__AT_0x40035300)
    __tagsym$$used                           0x40035300   Number         0  txf5200.o(.ARM.__AT_0x40035300)
    .ARM.__AT_0x40035340                     0x40035340   Section       64  txf5200.o(.ARM.__AT_0x40035340)
    __tagsym$$used                           0x40035340   Number         0  txf5200.o(.ARM.__AT_0x40035340)
    .ARM.__AT_0x40035380                     0x40035380   Section       64  txf5200.o(.ARM.__AT_0x40035380)
    __tagsym$$used                           0x40035380   Number         0  txf5200.o(.ARM.__AT_0x40035380)
    .ARM.__AT_0x400353C0                     0x400353c0   Section       64  txf5200.o(.ARM.__AT_0x400353C0)
    __tagsym$$used                           0x400353c0   Number         0  txf5200.o(.ARM.__AT_0x400353C0)
    .ARM.__AT_0x40035400                     0x40035400   Section       64  txf5200.o(.ARM.__AT_0x40035400)
    __tagsym$$used                           0x40035400   Number         0  txf5200.o(.ARM.__AT_0x40035400)
    .ARM.__AT_0x40035440                     0x40035440   Section       64  txf5200.o(.ARM.__AT_0x40035440)
    __tagsym$$used                           0x40035440   Number         0  txf5200.o(.ARM.__AT_0x40035440)
    .ARM.__AT_0x40035480                     0x40035480   Section       64  txf5200.o(.ARM.__AT_0x40035480)
    __tagsym$$used                           0x40035480   Number         0  txf5200.o(.ARM.__AT_0x40035480)
    .ARM.__AT_0x400354C0                     0x400354c0   Section       64  txf5200.o(.ARM.__AT_0x400354C0)
    __tagsym$$used                           0x400354c0   Number         0  txf5200.o(.ARM.__AT_0x400354C0)
    .ARM.__AT_0x40035500                     0x40035500   Section       64  txf5200.o(.ARM.__AT_0x40035500)
    __tagsym$$used                           0x40035500   Number         0  txf5200.o(.ARM.__AT_0x40035500)
    .ARM.__AT_0x40036000                     0x40036000   Section      612  txf5200.o(.ARM.__AT_0x40036000)
    __tagsym$$used                           0x40036000   Number         0  txf5200.o(.ARM.__AT_0x40036000)
    .ARM.__AT_0x40036300                     0x40036300   Section       96  txf5200.o(.ARM.__AT_0x40036300)
    __tagsym$$used                           0x40036300   Number         0  txf5200.o(.ARM.__AT_0x40036300)
    .ARM.__AT_0x40036360                     0x40036360   Section       96  txf5200.o(.ARM.__AT_0x40036360)
    __tagsym$$used                           0x40036360   Number         0  txf5200.o(.ARM.__AT_0x40036360)
    .ARM.__AT_0x400363C0                     0x400363c0   Section       96  txf5200.o(.ARM.__AT_0x400363C0)
    __tagsym$$used                           0x400363c0   Number         0  txf5200.o(.ARM.__AT_0x400363C0)
    .ARM.__AT_0x40036420                     0x40036420   Section       48  txf5200.o(.ARM.__AT_0x40036420)
    __tagsym$$used                           0x40036420   Number         0  txf5200.o(.ARM.__AT_0x40036420)
    .ARM.__AT_0x40036450                     0x40036450   Section       48  txf5200.o(.ARM.__AT_0x40036450)
    __tagsym$$used                           0x40036450   Number         0  txf5200.o(.ARM.__AT_0x40036450)
    .ARM.__AT_0x40036480                     0x40036480   Section       48  txf5200.o(.ARM.__AT_0x40036480)
    __tagsym$$used                           0x40036480   Number         0  txf5200.o(.ARM.__AT_0x40036480)
    .ARM.__AT_0x40037000                     0x40037000   Section      320  txf5200.o(.ARM.__AT_0x40037000)
    __tagsym$$used                           0x40037000   Number         0  txf5200.o(.ARM.__AT_0x40037000)
    .ARM.__AT_0x40038000                     0x40038000   Section      600  txf5200.o(.ARM.__AT_0x40038000)
    __tagsym$$used                           0x40038000   Number         0  txf5200.o(.ARM.__AT_0x40038000)

    Global Symbols

    Symbol Name                              Value     Ov Type        Size  Object(Section)

    BuildAttributes$$THM_ISAv4$P$D$K$B$S$PE$A:L22UL41UL21$X:L11$S22US41US21$IEEE1$IW$USESV6$~STKCKD$USESV7$~SHL$OTIME$ROPI$EBA8$MICROLIB$REQ8$PRES8$EABIv2 0x00000000   Number         0  anon$$obj.o ABSOLUTE
    __ARM_use_no_argv                        0x00000000   Number         0  main.o ABSOLUTE
    __use_no_errno                           0x00000000   Number         0  useno.o ABSOLUTE
    __use_no_exception_handling              0x00000000   Number         0  useno.o ABSOLUTE
    __use_no_fp                              0x00000000   Number         0  useno.o ABSOLUTE
    __use_no_heap                            0x00000000   Number         0  useno.o ABSOLUTE
    __use_no_heap_region                     0x00000000   Number         0  useno.o ABSOLUTE
    __use_no_semihosting                     0x00000000   Number         0  useno.o ABSOLUTE
    __use_no_semihosting_swi                 0x00000000   Number         0  useno.o ABSOLUTE
    __use_no_signal_handling                 0x00000000   Number         0  useno.o ABSOLUTE
    _printf_a                                0x00000000   Number         0  stubs.o ABSOLUTE
    _printf_c                                0x00000000   Number         0  stubs.o ABSOLUTE
    _printf_charcount                        0x00000000   Number         0  stubs.o ABSOLUTE
    _printf_d                                0x00000000   Number         0  stubs.o ABSOLUTE
    _printf_e                                0x00000000   Number         0  stubs.o ABSOLUTE
    _printf_f                                0x00000000   Number         0  stubs.o ABSOLUTE
    _printf_flags                            0x00000000   Number         0  stubs.o ABSOLUTE
    _printf_fp_dec                           0x00000000   Number         0  stubs.o ABSOLUTE
    _printf_fp_hex                           0x00000000   Number         0  stubs.o ABSOLUTE
    _printf_g                                0x00000000   Number         0  stubs.o ABSOLUTE
    _printf_i                                0x00000000   Number         0  stubs.o ABSOLUTE
    _printf_int_dec                          0x00000000   Number         0  stubs.o ABSOLUTE
    _printf_l                                0x00000000   Number         0  stubs.o ABSOLUTE
    _printf_lc                               0x00000000   Number         0  stubs.o ABSOLUTE
    _printf_ll                               0x00000000   Number         0  stubs.o ABSOLUTE
    _printf_lld                              0x00000000   Number         0  stubs.o ABSOLUTE
    _printf_lli                              0x00000000   Number         0  stubs.o ABSOLUTE
    _printf_llo                              0x00000000   Number         0  stubs.o ABSOLUTE
    _printf_llu                              0x00000000   Number         0  stubs.o ABSOLUTE
    _printf_llx                              0x00000000   Number         0  stubs.o ABSOLUTE
    _printf_longlong_dec                     0x00000000   Number         0  stubs.o ABSOLUTE
    _printf_longlong_hex                     0x00000000   Number         0  stubs.o ABSOLUTE
    _printf_longlong_oct                     0x00000000   Number         0  stubs.o ABSOLUTE
    _printf_ls                               0x00000000   Number         0  stubs.o ABSOLUTE
    _printf_mbtowc                           0x00000000   Number         0  stubs.o ABSOLUTE
    _printf_n                                0x00000000   Number         0  stubs.o ABSOLUTE
    _printf_o                                0x00000000   Number         0  stubs.o ABSOLUTE
    _printf_p                                0x00000000   Number         0  stubs.o ABSOLUTE
    _printf_percent                          0x00000000   Number         0  stubs.o ABSOLUTE
    _printf_pre_padding                      0x00000000   Number         0  stubs.o ABSOLUTE
    _printf_return_value                     0x00000000   Number         0  stubs.o ABSOLUTE
    _printf_s                                0x00000000   Number         0  stubs.o ABSOLUTE
    _printf_sizespec                         0x00000000   Number         0  stubs.o ABSOLUTE
    _printf_str                              0x00000000   Number         0  stubs.o ABSOLUTE
    _printf_truncate_signed                  0x00000000   Number         0  stubs.o ABSOLUTE
    _printf_truncate_unsigned                0x00000000   Number         0  stubs.o ABSOLUTE
    _printf_u                                0x00000000   Number         0  stubs.o ABSOLUTE
    _printf_wc                               0x00000000   Number         0  stubs.o ABSOLUTE
    _printf_wctomb                           0x00000000   Number         0  stubs.o ABSOLUTE
    _printf_widthprec                        0x00000000   Number         0  stubs.o ABSOLUTE
    _printf_x                                0x00000000   Number         0  stubs.o ABSOLUTE
    __arm_fini_                               - Undefined Weak Reference
    __cpp_initialize__aeabi_                  - Undefined Weak Reference
    __cxa_finalize                            - Undefined Weak Reference
    _clock_init                               - Undefined Weak Reference
    _microlib_exit                            - Undefined Weak Reference
    __vector_handlers                        0x08000000   Data         316  tx_phe_startup.o(RESET)
    __main                                   0x0800013d   Thumb Code     0  entry.o(.ARM.Collect$$$$00000000)
    _main_stk                                0x0800013d   Thumb Code     0  entry4.o(.ARM.Collect$$$$00000003)
    _main_scatterload                        0x08000141   Thumb Code     0  entry5.o(.ARM.Collect$$$$00000004)
    __main_after_scatterload                 0x08000145   Thumb Code     0  entry5.o(.ARM.Collect$$$$00000004)
    _main_clock                              0x08000145   Thumb Code     0  entry7b.o(.ARM.Collect$$$$00000008)
    _main_cpp_init                           0x08000145   Thumb Code     0  entry8b.o(.ARM.Collect$$$$0000000A)
    _main_init                               0x08000145   Thumb Code     0  entry9a.o(.ARM.Collect$$$$0000000B)
    __rt_lib_shutdown_fini                   0x0800014d   Thumb Code     0  entry12b.o(.ARM.Collect$$$$0000000E)
    __rt_final_cpp                           0x08000151   Thumb Code     0  entry10a.o(.ARM.Collect$$$$0000000F)
    __rt_final_exit                          0x08000151   Thumb Code     0  entry11a.o(.ARM.Collect$$$$00000011)
    __aeabi_uldivmod                         0x08000155   Thumb Code    98  uldiv.o(.text)
    toupper                                  0x080001b7   Thumb Code    12  toupper.o(.text)
    __aeabi_memcpy                           0x080001c3   Thumb Code    36  memcpya.o(.text)
    __aeabi_memcpy4                          0x080001c3   Thumb Code     0  memcpya.o(.text)
    __aeabi_memcpy8                          0x080001c3   Thumb Code     0  memcpya.o(.text)
    __aeabi_memset                           0x080001e7   Thumb Code    14  memseta.o(.text)
    __aeabi_memset4                          0x080001e7   Thumb Code     0  memseta.o(.text)
    __aeabi_memset8                          0x080001e7   Thumb Code     0  memseta.o(.text)
    __aeabi_memclr                           0x080001f5   Thumb Code     4  memseta.o(.text)
    __aeabi_memclr4                          0x080001f5   Thumb Code     0  memseta.o(.text)
    __aeabi_memclr8                          0x080001f5   Thumb Code     0  memseta.o(.text)
    _memset$wrapper                          0x080001f9   Thumb Code    18  memseta.o(.text)
    __aeabi_llsl                             0x0800020b   Thumb Code    30  llshl.o(.text)
    _ll_shift_l                              0x0800020b   Thumb Code     0  llshl.o(.text)
    __aeabi_llsr                             0x08000229   Thumb Code    32  llushr.o(.text)
    _ll_ushift_r                             0x08000229   Thumb Code     0  llushr.o(.text)
    __scatterload                            0x08000249   Thumb Code    28  init.o(.text)
    __scatterload_rt2                        0x08000249   Thumb Code     0  init.o(.text)
    __decompress                             0x0800026d   Thumb Code     0  __dczerorl2.o(.text)
    __decompress1                            0x0800026d   Thumb Code    86  __dczerorl2.o(.text)
    main                                     0x080002c3   Thumb Code    12  tx_phe_startup.o(i.$Sub$$main)
    ADTIM0_IRQHandler                        0x080002cf   Thumb Code     2  tx_phe_irq.o(i.ADTIM0_IRQHandler)
    ARCTAN0_IRQHandler                       0x080002d1   Thumb Code     2  tx_phe_irq.o(i.ARCTAN0_IRQHandler)
    ARCTAN1_IRQHandler                       0x080002d3   Thumb Code     2  tx_phe_irq.o(i.ARCTAN1_IRQHandler)
    ARCTAN2_IRQHandler                       0x080002d5   Thumb Code     2  tx_phe_irq.o(i.ARCTAN2_IRQHandler)
    BusFault_Handler                         0x080002d7   Thumb Code     8  tx_phe_irq.o(i.BusFault_Handler)
    CAN_IRQHandler                           0x080002df   Thumb Code     2  tx_phe_irq.o(i.CAN_IRQHandler)
    CRC_IRQHandler                           0x080002e1   Thumb Code     2  tx_phe_irq.o(i.CRC_IRQHandler)
    CalulateCRC                              0x080002e3   Thumb Code   108  rc523_drv.o(i.CalulateCRC)
    ClearBitMask                             0x0800034f   Thumb Code    28  rc523_drv.o(i.ClearBitMask)
    DATADMA_IRQHandler                       0x0800036b   Thumb Code     2  tx_phe_irq.o(i.DATADMA_IRQHandler)
    DFTRANS0_IRQHandler                      0x0800036d   Thumb Code     2  tx_phe_irq.o(i.DFTRANS0_IRQHandler)
    DFTRANS1_IRQHandler                      0x0800036f   Thumb Code     2  tx_phe_irq.o(i.DFTRANS1_IRQHandler)
    DFTRANS2_IRQHandler                      0x08000371   Thumb Code     2  tx_phe_irq.o(i.DFTRANS2_IRQHandler)
    DMA0_IRQHandler                          0x08000373   Thumb Code     2  tx_phe_irq.o(i.DMA0_IRQHandler)
    DebugMon_Handler                         0x08000375   Thumb Code     2  tx_phe_irq.o(i.DebugMon_Handler)
    EPWM_IRQHandler                          0x08000377   Thumb Code     2  tx_phe_irq.o(i.EPWM_IRQHandler)
    EVSYS_IRQHandler                         0x08000379   Thumb Code     2  tx_phe_irq.o(i.EVSYS_IRQHandler)
    FADC_IRQHandler                          0x0800037b   Thumb Code     2  tx_phe_irq.o(i.FADC_IRQHandler)
    FFT0_IRQHandler                          0x0800037d   Thumb Code     2  tx_phe_irq.o(i.FFT0_IRQHandler)
    FFT0_PREPROCESS_IRQHandler               0x0800037f   Thumb Code     2  tx_phe_irq.o(i.FFT0_PREPROCESS_IRQHandler)
    FFT1_IRQHandler                          0x08000381   Thumb Code     2  tx_phe_irq.o(i.FFT1_IRQHandler)
    FFT1_PREPROCESS_IRQHandler               0x08000383   Thumb Code     2  tx_phe_irq.o(i.FFT1_PREPROCESS_IRQHandler)
    FFT2_IRQHandler                          0x08000385   Thumb Code     2  tx_phe_irq.o(i.FFT2_IRQHandler)
    FFT2_PREPROCESS_IRQHandler               0x08000387   Thumb Code     2  tx_phe_irq.o(i.FFT2_PREPROCESS_IRQHandler)
    FIR0_IRQHandler                          0x08000389   Thumb Code     2  tx_phe_irq.o(i.FIR0_IRQHandler)
    FIR1_IRQHandler                          0x0800038b   Thumb Code     2  tx_phe_irq.o(i.FIR1_IRQHandler)
    FIR2_IRQHandler                          0x0800038d   Thumb Code     2  tx_phe_irq.o(i.FIR2_IRQHandler)
    GMAC_IRQHandler                          0x0800038f   Thumb Code     2  tx_phe_irq.o(i.GMAC_IRQHandler)
    GPIOA_IRQHandler                         0x08000391   Thumb Code     2  tx_phe_irq.o(i.GPIOA_IRQHandler)
    GPIOB_IRQHandler                         0x08000393   Thumb Code     2  tx_phe_irq.o(i.GPIOB_IRQHandler)
    GPIOC_IRQHandler                         0x08000395   Thumb Code     2  tx_phe_irq.o(i.GPIOC_IRQHandler)
    GPIOD_IRQHandler                         0x08000397   Thumb Code     2  tx_phe_irq.o(i.GPIOD_IRQHandler)
    HCC_IRQHandler                           0x08000399   Thumb Code     2  tx_phe_irq.o(i.HCC_IRQHandler)
    HardFault_Handler                        0x0800039b   Thumb Code     8  tx_phe_irq.o(i.HardFault_Handler)
    IIC0_IRQHandler                          0x080003a3   Thumb Code     2  tx_phe_irq.o(i.IIC0_IRQHandler)
    IIC1_IRQHandler                          0x080003a5   Thumb Code     2  tx_phe_irq.o(i.IIC1_IRQHandler)
    IIR0_IRQHandler                          0x080003a7   Thumb Code     2  tx_phe_irq.o(i.IIR0_IRQHandler)
    IIR1_IRQHandler                          0x080003a9   Thumb Code     2  tx_phe_irq.o(i.IIR1_IRQHandler)
    IIR2_IRQHandler                          0x080003ab   Thumb Code     2  tx_phe_irq.o(i.IIR2_IRQHandler)
    LVD_IRQHandler                           0x080003ad   Thumb Code     8  tx_phe_irq.o(i.LVD_IRQHandler)
    MATRIX_MULT_IRQHandler                   0x080003b5   Thumb Code     2  tx_phe_irq.o(i.MATRIX_MULT_IRQHandler)
    MFRC522_SleepUS                          0x080003b7   Thumb Code    18  rc523_drv.o(i.MFRC522_SleepUS)
    MemManage_Handler                        0x080003c9   Thumb Code     8  tx_phe_irq.o(i.MemManage_Handler)
    NMI_Handler                              0x080003d1   Thumb Code     8  tx_phe_irq.o(i.NMI_Handler)
    PcdAntennaOn                             0x080003d9   Thumb Code    26  rc523_drv.o(i.PcdAntennaOn)
    PcdAnticoll                              0x080003f3   Thumb Code   220  rc523_drv.o(i.PcdAnticoll)
    PcdAuthState                             0x080004cf   Thumb Code   110  rc523_drv.o(i.PcdAuthState)
    PcdComMF522                              0x0800053d   Thumb Code   306  rc523_drv.o(i.PcdComMF522)
    PcdRead                                  0x0800066f   Thumb Code    84  rc523_drv.o(i.PcdRead)
    PcdRequest                               0x080006c3   Thumb Code   112  rc523_drv.o(i.PcdRequest)
    PcdReset                                 0x08000733   Thumb Code   352  rc523_drv.o(i.PcdReset)
    PcdSelect                                0x08000893   Thumb Code   114  rc523_drv.o(i.PcdSelect)
    PcdWrite                                 0x08000905   Thumb Code   146  rc523_drv.o(i.PcdWrite)
    PendSV_Handler                           0x08000997   Thumb Code     2  tx_phe_irq.o(i.PendSV_Handler)
    QEI_IRQHandler                           0x08000999   Thumb Code     2  tx_phe_irq.o(i.QEI_IRQHandler)
    RC523_Delay_Us                           0x0800099b   Thumb Code    18  rc523_drv.o(i.RC523_Delay_Us)
    RMS0_IRQHandler                          0x080009ad   Thumb Code     2  tx_phe_irq.o(i.RMS0_IRQHandler)
    RMS1_IRQHandler                          0x080009af   Thumb Code     2  tx_phe_irq.o(i.RMS1_IRQHandler)
    RMS2_IRQHandler                          0x080009b1   Thumb Code     2  tx_phe_irq.o(i.RMS2_IRQHandler)
    ReadRawRC                                0x080009b5   Thumb Code   188  rc523_cfg.o(i.ReadRawRC)
    Reset_Handler                            0x08000a75   Thumb Code     8  tx_phe_startup.o(i.Reset_Handler)
    SARADC_IRQHandler                        0x08000a7d   Thumb Code     2  tx_phe_irq.o(i.SARADC_IRQHandler)
    SINCOS0_IRQHandler                       0x08000a7f   Thumb Code     2  tx_phe_irq.o(i.SINCOS0_IRQHandler)
    SINCOS1_IRQHandler                       0x08000a81   Thumb Code     2  tx_phe_irq.o(i.SINCOS1_IRQHandler)
    SPI0_IRQHandler                          0x08000a83   Thumb Code     2  tx_phe_irq.o(i.SPI0_IRQHandler)
    SPI1_IRQHandler                          0x08000a85   Thumb Code     2  tx_phe_irq.o(i.SPI1_IRQHandler)
    SPWM_IRQHandler                          0x08000a87   Thumb Code     2  tx_phe_irq.o(i.SPWM_IRQHandler)
    SVC_Handler                              0x08000a89   Thumb Code     2  tx_phe_irq.o(i.SVC_Handler)
    SVPWM_IRQHandler                         0x08000a8b   Thumb Code     2  tx_phe_irq.o(i.SVPWM_IRQHandler)
    SetBitMask                               0x08000a8d   Thumb Code    28  rc523_drv.o(i.SetBitMask)
    SysTick_Handler                          0x08000aa9   Thumb Code    12  tx_phe_irq.o(i.SysTick_Handler)
    TIM0_IRQHandler                          0x08000ab9   Thumb Code    46  tx_phe_irq.o(i.TIM0_IRQHandler)
    TIM1_IRQHandler                          0x08000aed   Thumb Code     2  tx_phe_irq.o(i.TIM1_IRQHandler)
    TIM2_IRQHandler                          0x08000aef   Thumb Code     2  tx_phe_irq.o(i.TIM2_IRQHandler)
    TIM3_IRQHandler                          0x08000af1   Thumb Code     2  tx_phe_irq.o(i.TIM3_IRQHandler)
    TIM4_IRQHandler                          0x08000af3   Thumb Code     2  tx_phe_irq.o(i.TIM4_IRQHandler)
    TIM5_IRQHandler                          0x08000af5   Thumb Code     2  tx_phe_irq.o(i.TIM5_IRQHandler)
    TIM6_IRQHandler                          0x08000af7   Thumb Code     2  tx_phe_irq.o(i.TIM6_IRQHandler)
    TIM7_IRQHandler                          0x08000af9   Thumb Code     2  tx_phe_irq.o(i.TIM7_IRQHandler)
    USART0_IRQHandler                        0x08000afd   Thumb Code   148  tx_phe_irq.o(i.USART0_IRQHandler)
    USART1_IRQHandler                        0x08000b95   Thumb Code     2  tx_phe_irq.o(i.USART1_IRQHandler)
    USART2_IRQHandler                        0x08000b97   Thumb Code     2  tx_phe_irq.o(i.USART2_IRQHandler)
    UsageFault_Handler                       0x08000b99   Thumb Code     8  tx_phe_irq.o(i.UsageFault_Handler)
    WAKEUP_IRQHandler                        0x08000ba1   Thumb Code     2  tx_phe_irq.o(i.WAKEUP_IRQHandler)
    WDT_IRQHandler                           0x08000ba5   Thumb Code    24  tx_phe_irq.o(i.WDT_IRQHandler)
    WriteRawRC                               0x08000bc1   Thumb Code   192  rc523_cfg.o(i.WriteRawRC)
    __0printf$8                              0x08000c85   Thumb Code    22  printf8.o(i.__0printf$8)
    __1printf$8                              0x08000c85   Thumb Code     0  printf8.o(i.__0printf$8)
    __2printf                                0x08000c85   Thumb Code     0  printf8.o(i.__0printf$8)
    __scatterload_copy                       0x08000cb1   Thumb Code    14  handlers.o(i.__scatterload_copy)
    __scatterload_null                       0x08000cbf   Thumb Code     2  handlers.o(i.__scatterload_null)
    __scatterload_zeroinit                   0x08000cc1   Thumb Code    14  handlers.o(i.__scatterload_zeroinit)
    card_id_encryption                       0x08001129   Thumb Code   126  tsk_card.o(i.card_id_encryption)
    debug_select_interface                   0x080011e5   Thumb Code    42  tx_phe_debug.o(i.debug_select_interface)
    decode_usart_data                        0x08001221   Thumb Code    80  main.o(i.decode_usart_data)
    dev_sn_deciphering                       0x08001271   Thumb Code    46  tsk_card.o(i.dev_sn_deciphering)
    dev_sn_encryption                        0x080012a5   Thumb Code    46  tsk_card.o(i.dev_sn_encryption)
    dump_fault_state                         0x080012d9   Thumb Code   406  tx_phe_system.o(i.dump_fault_state)
    fputc                                    0x080017b1   Thumb Code    94  tx_phe_debug.o(i.fputc)
    key_cb_switch_nfc_mode                   0x0800181d   Thumb Code   136  main.o(i.key_cb_switch_nfc_mode)
    key_test_event_callback                  0x08001a6d   Thumb Code    50  drv_key.o(i.key_test_event_callback)
    ll_cc_adcpll_set                         0x08002019   Thumb Code   582  tx_phe_ll_cc_rst.o(i.ll_cc_adcpll_set)
    ll_cc_clk_div_config                     0x0800227d   Thumb Code   148  tx_phe_ll_cc_rst.o(i.ll_cc_clk_div_config)
    ll_cc_rst_delay5ms_32khz                 0x08002395   Thumb Code    32  tx_phe_ll_cc_rst.o(i.ll_cc_rst_delay5ms_32khz)
    ll_cc_sys_clk_get                        0x080023b5   Thumb Code   134  tx_phe_ll_cc_rst.o(i.ll_cc_sys_clk_get)
    ll_cc_sysclk_select                      0x0800244d   Thumb Code    42  tx_phe_ll_cc_rst.o(i.ll_cc_sysclk_select)
    ll_cc_syspll_set                         0x08002481   Thumb Code   720  tx_phe_ll_cc_rst.o(i.ll_cc_syspll_set)
    ll_eflash_config                         0x0800276d   Thumb Code   126  tx_phe_ll_eflash.o(i.ll_eflash_config)
    ll_eflash_init                           0x08002829   Thumb Code    92  tx_phe_ll_eflash.o(i.ll_eflash_init)
    ll_gpio_dir                              0x080028d1   Thumb Code    64  tx_phe_ll_gpio.o(i.ll_gpio_dir)
    ll_gpio_pull                             0x08002951   Thumb Code   110  tx_phe_ll_gpio.o(i.ll_gpio_pull)
    ll_timer_config                          0x08002a15   Thumb Code   136  tx_phe_ll_timer.o(i.ll_timer_config)
    ll_timer_deinit                          0x08002ad5   Thumb Code   416  tx_phe_ll_timer.o(i.ll_timer_deinit)
    ll_timer_init                            0x08002cb5   Thumb Code    78  tx_phe_ll_timer.o(i.ll_timer_init)
    ll_timer_io_map                          0x08002d3d   Thumb Code   826  tx_phe_ll_timer.o(i.ll_timer_io_map)
    ll_timer_irq_config                      0x080030b9   Thumb Code    40  tx_phe_ll_timer.o(i.ll_timer_irq_config)
    ll_timer_start                           0x080030e1   Thumb Code    92  tx_phe_ll_timer.o(i.ll_timer_start)
    ll_usart232_config                       0x08003175   Thumb Code   136  tx_phe_ll_usart.o(i.ll_usart232_config)
    ll_usart232_io_map                       0x08003235   Thumb Code   200  tx_phe_ll_usart.o(i.ll_usart232_io_map)
    ll_usart_deinit                          0x08003341   Thumb Code   116  tx_phe_ll_usart.o(i.ll_usart_deinit)
    ll_usart_init                            0x080033f9   Thumb Code    36  tx_phe_ll_usart.o(i.ll_usart_init)
    ll_usart_irq_config                      0x08003455   Thumb Code    70  tx_phe_ll_usart.o(i.ll_usart_irq_config)
    $Super$$main                             0x0800349d   Thumb Code   302  main.o(i.main)
    nfc_get_dev_sn                           0x080036ad   Thumb Code    16  tsk_card.o(i.nfc_get_dev_sn)
    nfc_init                                 0x080036c1   Thumb Code    16  tsk_card.o(i.nfc_init)
    nfc_read_card                            0x080036d1   Thumb Code   386  tsk_card.o(i.nfc_read_card)
    nfc_set_dev_sn                           0x08003991   Thumb Code    16  tsk_card.o(i.nfc_set_dev_sn)
    nfc_task                                 0x080039a5   Thumb Code    20  main.o(i.nfc_task)
    nfc_write_card                           0x080039bd   Thumb Code   594  tsk_card.o(i.nfc_write_card)
    rc523_cfg_init                           0x08003ff9   Thumb Code   104  rc523_cfg.o(i.rc523_cfg_init)
    recover_fault_state                      0x08004065   Thumb Code     8  tx_phe_system.o(i.recover_fault_state)
    set_rst                                  0x0800406d   Thumb Code    28  rc523_cfg.o(i.set_rst)
    soft_tmr_install                         0x0800413d   Thumb Code   194  drv_soft_timer.o(i.soft_tmr_install)
    soft_tmr_poll                            0x08004209   Thumb Code    86  drv_soft_timer.o(i.soft_tmr_poll)
    sys_cpu_init                             0x08004279   Thumb Code    86  tx_phe_system.o(i.sys_cpu_init)
    sys_eflash_config                        0x080042d9   Thumb Code    60  tx_phe_system.o(i.sys_eflash_config)
    sys_eflash_init                          0x0800431d   Thumb Code    16  tx_phe_system.o(i.sys_eflash_init)
    sys_fault_recover_context                0x08004331   Thumb Code     2  tx_phe_system.o(i.sys_fault_recover_context)
    sys_fault_save_context                   0x08004333   Thumb Code     2  tx_phe_system.o(i.sys_fault_save_context)
    sys_module_init                          0x08004335   Thumb Code    60  tx_phe_system.o(i.sys_module_init)
    sys_peripheral_init                      0x08004381   Thumb Code    12  tx_phe_system.o(i.sys_peripheral_init)
    system_critical_section_enter            0x0800438d   Thumb Code    32  tx_phe_system.o(i.system_critical_section_enter)
    system_critical_section_exit             0x080043b5   Thumb Code    32  tx_phe_system.o(i.system_critical_section_exit)
    system_init                              0x080043dd   Thumb Code    72  tx_phe_system.o(i.system_init)
    tmr0_irq_handle                          0x080045d1   Thumb Code    36  drv_timer0.o(i.tmr0_irq_handle)
    tx_assert_false                          0x080045f9   Thumb Code    20  tx_phe_assert.o(i.tx_assert_false)
    usart_read                               0x08004735   Thumb Code    56  drv_usart.o(i.usart_read)
    usart_rx_cmd_over                        0x08004775   Thumb Code     8  drv_usart.o(i.usart_rx_cmd_over)
    usart_rx_data_handle                     0x08004781   Thumb Code    50  drv_usart.o(i.usart_rx_data_handle)
    stDevFileLed                             0x080047bc   Data          32  drv_led.o(.constdata)
    stDevFileKey                             0x080047dc   Data          32  drv_key.o(.constdata)
    stDevFileUsart                           0x080047fc   Data          32  drv_usart.o(.constdata)
    stDevFileTimer0                          0x0800481c   Data          32  drv_timer0.o(.constdata)
    stDevFileSotfTimer                       0x0800483c   Data          32  drv_soft_timer.o(.constdata)
    Region$$Table$$Base                      0x080048b0   Number         0  anon$$obj.o(Region$$Table)
    Region$$Table$$Limit                     0x080048d0   Number         0  anon$$obj.o(Region$$Table)
    Image$$ARM_LIB_STACK$$ZI$$Limit          0x2000fff0   Number         0  anon$$obj.o ABSOLUTE
    dev_sn_buf                               0x20010000   Data           7  main.o(.data)
    nfc_mode                                 0x20010007   Data           1  main.o(.data)
    led6Cfg                                  0x20010008   Data          12  main.o(.data)
    nfc_task_tcb                             0x20010014   Data          20  main.o(.data)
    devSn_block                              0x20010028   Data          16  tsk_card.o(.data)
    cardID_block                             0x20010038   Data          16  tsk_card.o(.data)
    devSnData                                0x20010048   Data           7  tsk_card.o(.data)
    NewCardkey                               0x2001004f   Data           6  tsk_card.o(.data)
    secret_key                               0x20010055   Data          17  tsk_card.o(.data)
    LedDev                                   0x20010068   Data           4  dev.o(.data)
    KeyDev                                   0x2001006c   Data           4  dev.o(.data)
    UsartDev                                 0x20010070   Data           4  dev.o(.data)
    TimerMsDev                               0x20010074   Data           4  dev.o(.data)
    SoftTimeDev                              0x20010078   Data           4  dev.o(.data)
    s_led_tmr                                0x200100c8   Data          20  drv_key.o(.data)
    is_rx_cmd                                0x20010100   Data           1  drv_usart.o(.data)
    __stdout                                 0x20010110   Data           4  tx_phe_debug.o(.data)
    __stdin                                  0x20010114   Data           4  tx_phe_debug.o(.data)
    ITM_RxBuffer                             0x20010118   Data           4  tx_phe_debug.o(.data)
    SysTickCnt                               0x20010124   Data           4  tx_phe_system.o(.data)
    SYS_CLK                                  0x20010134   Data           4  tx_phe_system.o(.data)
    usart_recv_buf                           0x20010140   Data          32  main.o(.bss)
    card_info                                0x20010160   Data          12  tsk_card.o(.bss)
    devSnCiphertext                          0x2001016c   Data          16  tsk_card.o(.bss)
    NFC_readBlockBuf                         0x2001017c   Data          16  tsk_card.o(.bss)
    usart_buf                                0x2001018c   Data          40  drv_usart.o(.bss)
    timer_cfg                                0x200101c8   Data          12  drv_timer0.o(.bss)
    ___IIC0__                                0x40000000   Data         224  txf5200.o(.ARM.__AT_0x40000000)
    ___IIC1__                                0x40001000   Data         224  txf5200.o(.ARM.__AT_0x40001000)
    ___USART0__                              0x40003000   Data         208  txf5200.o(.ARM.__AT_0x40003000)
    ___USART1__                              0x40004000   Data         208  txf5200.o(.ARM.__AT_0x40004000)
    ___USART2__                              0x40005000   Data         208  txf5200.o(.ARM.__AT_0x40005000)
    ___SPI0__                                0x40006000   Data          44  txf5200.o(.ARM.__AT_0x40006000)
    ___SPI1__                                0x40007000   Data          44  txf5200.o(.ARM.__AT_0x40007000)
    ___LVD__                                 0x40009000   Data           4  txf5200.o(.ARM.__AT_0x40009000)
    ___ADVTMR0__                             0x4000a000   Data         104  txf5200.o(.ARM.__AT_0x4000A000)
    ___TIMER4__                              0x4000d000   Data          16  txf5200.o(.ARM.__AT_0x4000D000)
    ___TIMER5__                              0x4000d010   Data          16  txf5200.o(.ARM.__AT_0x4000D010)
    ___TIMER6__                              0x4000d020   Data          16  txf5200.o(.ARM.__AT_0x4000D020)
    ___TIMER7__                              0x4000d030   Data          16  txf5200.o(.ARM.__AT_0x4000D030)
    ___QEI__                                 0x40012000   Data          60  txf5200.o(.ARM.__AT_0x40012000)
    ___WDT__                                 0x40013000   Data         256  txf5200.o(.ARM.__AT_0x40013000)
    ___WDT1__                                0x40014000   Data           8  txf5200.o(.ARM.__AT_0x40014000)
    ___TIMER0__                              0x40015000   Data          16  txf5200.o(.ARM.__AT_0x40015000)
    ___TIMER1__                              0x40015010   Data          16  txf5200.o(.ARM.__AT_0x40015010)
    ___TIMER2__                              0x40015020   Data          16  txf5200.o(.ARM.__AT_0x40015020)
    ___TIMER3__                              0x40015030   Data          16  txf5200.o(.ARM.__AT_0x40015030)
    ___CRC__                                 0x40017000   Data          40  txf5200.o(.ARM.__AT_0x40017000)
    ___FPLL0__                               0x4001c000   Data          16  txf5200.o(.ARM.__AT_0x4001C000)
    ___FPLL1__                               0x4001d000   Data          16  txf5200.o(.ARM.__AT_0x4001D000)
    ___DMAC__                                0x40020000   Data         952  txf5200.o(.ARM.__AT_0x40020000)
    ___GMAC__                                0x40021000   Data          96  txf5200.o(.ARM.__AT_0x40021000)
    ___GPIOA__                               0x40022000   Data          60  txf5200.o(.ARM.__AT_0x40022000)
    ___GPIOB__                               0x40024000   Data          60  txf5200.o(.ARM.__AT_0x40024000)
    ___GPIOC__                               0x40025000   Data          60  txf5200.o(.ARM.__AT_0x40025000)
    ___SYSCTRL__                             0x40026000   Data         132  txf5200.o(.ARM.__AT_0x40026000)
    ___GPIOD__                               0x40027000   Data          60  txf5200.o(.ARM.__AT_0x40027000)
    ___CAN__                                 0x40029000   Data         176  txf5200.o(.ARM.__AT_0x40029000)
    ___HCC__                                 0x40030000   Data          20  txf5200.o(.ARM.__AT_0x40030000)
    ___EFLASH__                              0x40031000   Data         124  txf5200.o(.ARM.__AT_0x40031000)
    ___EVSYS__                               0x40032000   Data         224  txf5200.o(.ARM.__AT_0x40032000)
    ___SVPWM__                               0x40033000   Data          52  txf5200.o(.ARM.__AT_0x40033000)
    ___SINCOS0__                             0x40035000   Data          64  txf5200.o(.ARM.__AT_0x40035000)
    ___SINCOS1__                             0x40035040   Data          64  txf5200.o(.ARM.__AT_0x40035040)
    ___RMS0__                                0x40035080   Data          64  txf5200.o(.ARM.__AT_0x40035080)
    ___RMS1__                                0x400350c0   Data          64  txf5200.o(.ARM.__AT_0x400350C0)
    ___RMS2__                                0x40035100   Data          64  txf5200.o(.ARM.__AT_0x40035100)
    ___MATRIX__                              0x40035140   Data         320  txf5200.o(.ARM.__AT_0x40035140)
    ___SPWM__                                0x40035280   Data          64  txf5200.o(.ARM.__AT_0x40035280)
    ___FFT0__                                0x400352c0   Data          64  txf5200.o(.ARM.__AT_0x400352C0)
    ___FFT1__                                0x40035300   Data          64  txf5200.o(.ARM.__AT_0x40035300)
    ___FFT2__                                0x40035340   Data          64  txf5200.o(.ARM.__AT_0x40035340)
    ___DFTRAN0__                             0x40035380   Data          64  txf5200.o(.ARM.__AT_0x40035380)
    ___DFTRAN1__                             0x400353c0   Data          64  txf5200.o(.ARM.__AT_0x400353C0)
    ___DFTRAN2__                             0x40035400   Data          64  txf5200.o(.ARM.__AT_0x40035400)
    ___ARCTAN0__                             0x40035440   Data          64  txf5200.o(.ARM.__AT_0x40035440)
    ___ARCTAN1__                             0x40035480   Data          64  txf5200.o(.ARM.__AT_0x40035480)
    ___ARCTAN2__                             0x400354c0   Data          64  txf5200.o(.ARM.__AT_0x400354C0)
    ___DATADMA__                             0x40035500   Data          64  txf5200.o(.ARM.__AT_0x40035500)
    ___ADC__                                 0x40036000   Data         612  txf5200.o(.ARM.__AT_0x40036000)
    ___IIR0__                                0x40036300   Data          96  txf5200.o(.ARM.__AT_0x40036300)
    ___IIR1__                                0x40036360   Data          96  txf5200.o(.ARM.__AT_0x40036360)
    ___IIR2__                                0x400363c0   Data          96  txf5200.o(.ARM.__AT_0x400363C0)
    ___FIR0__                                0x40036420   Data          48  txf5200.o(.ARM.__AT_0x40036420)
    ___FIR1__                                0x40036450   Data          48  txf5200.o(.ARM.__AT_0x40036450)
    ___FIR2__                                0x40036480   Data          48  txf5200.o(.ARM.__AT_0x40036480)
    ___FADC__                                0x40037000   Data         320  txf5200.o(.ARM.__AT_0x40037000)
    ___EPWM__                                0x40038000   Data         600  txf5200.o(.ARM.__AT_0x40038000)



==============================================================================

Memory Map of the image

  Image Entry point : 0x08000a75

  Load Region LR_EFLASH (Base: 0x08000000, Size: 0x00004a10, Max: 0x0001f000, ABSOLUTE, COMPRESSED[0x00004950])

    Execution Region ER_EFLASH (Exec base: 0x08000000, Load base: 0x08000000, Size: 0x000048d0, Max: 0x0001f000, ABSOLUTE)

    Exec Addr    Load Addr    Size         Type   Attr      Idx    E Section Name        Object

    0x08000000   0x08000000   0x0000013c   Data   RO         3830    RESET               tx_phe_startup.o
    0x0800013c   0x0800013c   0x00000000   Code   RO         3868  * .ARM.Collect$$$$00000000  mc_w.l(entry.o)
    0x0800013c   0x0800013c   0x00000004   Code   RO         4146    .ARM.Collect$$$$00000003  mc_w.l(entry4.o)
    0x08000140   0x08000140   0x00000004   Code   RO         4149    .ARM.Collect$$$$00000004  mc_w.l(entry5.o)
    0x08000144   0x08000144   0x00000000   Code   RO         4151    .ARM.Collect$$$$00000008  mc_w.l(entry7b.o)
    0x08000144   0x08000144   0x00000000   Code   RO         4153    .ARM.Collect$$$$0000000A  mc_w.l(entry8b.o)
    0x08000144   0x08000144   0x00000008   Code   RO         4154    .ARM.Collect$$$$0000000B  mc_w.l(entry9a.o)
    0x0800014c   0x0800014c   0x00000004   Code   RO         4161    .ARM.Collect$$$$0000000E  mc_w.l(entry12b.o)
    0x08000150   0x08000150   0x00000000   Code   RO         4156    .ARM.Collect$$$$0000000F  mc_w.l(entry10a.o)
    0x08000150   0x08000150   0x00000000   Code   RO         4158    .ARM.Collect$$$$00000011  mc_w.l(entry11a.o)
    0x08000150   0x08000150   0x00000004   Code   RO         4147    .ARM.Collect$$$$00002714  mc_w.l(entry4.o)
    0x08000154   0x08000154   0x00000062   Code   RO         3871    .text               mc_w.l(uldiv.o)
    0x080001b6   0x080001b6   0x0000000c   Code   RO         3873    .text               mc_w.l(toupper.o)
    0x080001c2   0x080001c2   0x00000024   Code   RO         3875    .text               mc_w.l(memcpya.o)
    0x080001e6   0x080001e6   0x00000024   Code   RO         3877    .text               mc_w.l(memseta.o)
    0x0800020a   0x0800020a   0x0000001e   Code   RO         4164    .text               mc_w.l(llshl.o)
    0x08000228   0x08000228   0x00000020   Code   RO         4166    .text               mc_w.l(llushr.o)
    0x08000248   0x08000248   0x00000024   Code   RO         4181    .text               mc_w.l(init.o)
    0x0800026c   0x0800026c   0x00000056   Code   RO         4195    .text               mc_w.l(__dczerorl2.o)
    0x080002c2   0x080002c2   0x0000000c   Code   RO         3827    i.$Sub$$main        tx_phe_startup.o
    0x080002ce   0x080002ce   0x00000002   Code   RO          306    i.ADTIM0_IRQHandler  tx_phe_irq.o
    0x080002d0   0x080002d0   0x00000002   Code   RO          307    i.ARCTAN0_IRQHandler  tx_phe_irq.o
    0x080002d2   0x080002d2   0x00000002   Code   RO          308    i.ARCTAN1_IRQHandler  tx_phe_irq.o
    0x080002d4   0x080002d4   0x00000002   Code   RO          309    i.ARCTAN2_IRQHandler  tx_phe_irq.o
    0x080002d6   0x080002d6   0x00000008   Code   RO          310    i.BusFault_Handler  tx_phe_irq.o
    0x080002de   0x080002de   0x00000002   Code   RO          311    i.CAN_IRQHandler    tx_phe_irq.o
    0x080002e0   0x080002e0   0x00000002   Code   RO          312    i.CRC_IRQHandler    tx_phe_irq.o
    0x080002e2   0x080002e2   0x0000006c   Code   RO          813    i.CalulateCRC       rc523_drv.o
    0x0800034e   0x0800034e   0x0000001c   Code   RO          814    i.ClearBitMask      rc523_drv.o
    0x0800036a   0x0800036a   0x00000002   Code   RO          313    i.DATADMA_IRQHandler  tx_phe_irq.o
    0x0800036c   0x0800036c   0x00000002   Code   RO          314    i.DFTRANS0_IRQHandler  tx_phe_irq.o
    0x0800036e   0x0800036e   0x00000002   Code   RO          315    i.DFTRANS1_IRQHandler  tx_phe_irq.o
    0x08000370   0x08000370   0x00000002   Code   RO          316    i.DFTRANS2_IRQHandler  tx_phe_irq.o
    0x08000372   0x08000372   0x00000002   Code   RO          317    i.DMA0_IRQHandler   tx_phe_irq.o
    0x08000374   0x08000374   0x00000002   Code   RO          318    i.DebugMon_Handler  tx_phe_irq.o
    0x08000376   0x08000376   0x00000002   Code   RO          319    i.EPWM_IRQHandler   tx_phe_irq.o
    0x08000378   0x08000378   0x00000002   Code   RO          320    i.EVSYS_IRQHandler  tx_phe_irq.o
    0x0800037a   0x0800037a   0x00000002   Code   RO          321    i.FADC_IRQHandler   tx_phe_irq.o
    0x0800037c   0x0800037c   0x00000002   Code   RO          322    i.FFT0_IRQHandler   tx_phe_irq.o
    0x0800037e   0x0800037e   0x00000002   Code   RO          323    i.FFT0_PREPROCESS_IRQHandler  tx_phe_irq.o
    0x08000380   0x08000380   0x00000002   Code   RO          324    i.FFT1_IRQHandler   tx_phe_irq.o
    0x08000382   0x08000382   0x00000002   Code   RO          325    i.FFT1_PREPROCESS_IRQHandler  tx_phe_irq.o
    0x08000384   0x08000384   0x00000002   Code   RO          326    i.FFT2_IRQHandler   tx_phe_irq.o
    0x08000386   0x08000386   0x00000002   Code   RO          327    i.FFT2_PREPROCESS_IRQHandler  tx_phe_irq.o
    0x08000388   0x08000388   0x00000002   Code   RO          328    i.FIR0_IRQHandler   tx_phe_irq.o
    0x0800038a   0x0800038a   0x00000002   Code   RO          329    i.FIR1_IRQHandler   tx_phe_irq.o
    0x0800038c   0x0800038c   0x00000002   Code   RO          330    i.FIR2_IRQHandler   tx_phe_irq.o
    0x0800038e   0x0800038e   0x00000002   Code   RO          331    i.GMAC_IRQHandler   tx_phe_irq.o
    0x08000390   0x08000390   0x00000002   Code   RO          332    i.GPIOA_IRQHandler  tx_phe_irq.o
    0x08000392   0x08000392   0x00000002   Code   RO          333    i.GPIOB_IRQHandler  tx_phe_irq.o
    0x08000394   0x08000394   0x00000002   Code   RO          334    i.GPIOC_IRQHandler  tx_phe_irq.o
    0x08000396   0x08000396   0x00000002   Code   RO          335    i.GPIOD_IRQHandler  tx_phe_irq.o
    0x08000398   0x08000398   0x00000002   Code   RO          336    i.HCC_IRQHandler    tx_phe_irq.o
    0x0800039a   0x0800039a   0x00000008   Code   RO          337    i.HardFault_Handler  tx_phe_irq.o
    0x080003a2   0x080003a2   0x00000002   Code   RO          338    i.IIC0_IRQHandler   tx_phe_irq.o
    0x080003a4   0x080003a4   0x00000002   Code   RO          339    i.IIC1_IRQHandler   tx_phe_irq.o
    0x080003a6   0x080003a6   0x00000002   Code   RO          340    i.IIR0_IRQHandler   tx_phe_irq.o
    0x080003a8   0x080003a8   0x00000002   Code   RO          341    i.IIR1_IRQHandler   tx_phe_irq.o
    0x080003aa   0x080003aa   0x00000002   Code   RO          342    i.IIR2_IRQHandler   tx_phe_irq.o
    0x080003ac   0x080003ac   0x00000008   Code   RO          343    i.LVD_IRQHandler    tx_phe_irq.o
    0x080003b4   0x080003b4   0x00000002   Code   RO          344    i.MATRIX_MULT_IRQHandler  tx_phe_irq.o
    0x080003b6   0x080003b6   0x00000012   Code   RO          815    i.MFRC522_SleepUS   rc523_drv.o
    0x080003c8   0x080003c8   0x00000008   Code   RO          345    i.MemManage_Handler  tx_phe_irq.o
    0x080003d0   0x080003d0   0x00000008   Code   RO          346    i.NMI_Handler       tx_phe_irq.o
    0x080003d8   0x080003d8   0x0000001a   Code   RO          817    i.PcdAntennaOn      rc523_drv.o
    0x080003f2   0x080003f2   0x000000dc   Code   RO          818    i.PcdAnticoll       rc523_drv.o
    0x080004ce   0x080004ce   0x0000006e   Code   RO          819    i.PcdAuthState      rc523_drv.o
    0x0800053c   0x0800053c   0x00000132   Code   RO          821    i.PcdComMF522       rc523_drv.o
    0x0800066e   0x0800066e   0x00000054   Code   RO          823    i.PcdRead           rc523_drv.o
    0x080006c2   0x080006c2   0x00000070   Code   RO          824    i.PcdRequest        rc523_drv.o
    0x08000732   0x08000732   0x00000160   Code   RO          825    i.PcdReset          rc523_drv.o
    0x08000892   0x08000892   0x00000072   Code   RO          826    i.PcdSelect         rc523_drv.o
    0x08000904   0x08000904   0x00000092   Code   RO          828    i.PcdWrite          rc523_drv.o
    0x08000996   0x08000996   0x00000002   Code   RO          347    i.PendSV_Handler    tx_phe_irq.o
    0x08000998   0x08000998   0x00000002   Code   RO          348    i.QEI_IRQHandler    tx_phe_irq.o
    0x0800099a   0x0800099a   0x00000012   Code   RO          829    i.RC523_Delay_Us    rc523_drv.o
    0x080009ac   0x080009ac   0x00000002   Code   RO          349    i.RMS0_IRQHandler   tx_phe_irq.o
    0x080009ae   0x080009ae   0x00000002   Code   RO          350    i.RMS1_IRQHandler   tx_phe_irq.o
    0x080009b0   0x080009b0   0x00000002   Code   RO          351    i.RMS2_IRQHandler   tx_phe_irq.o
    0x080009b2   0x080009b2   0x00000002   PAD
    0x080009b4   0x080009b4   0x000000c0   Code   RO          763    i.ReadRawRC         rc523_cfg.o
    0x08000a74   0x08000a74   0x00000008   Code   RO         3829  * i.Reset_Handler     tx_phe_startup.o
    0x08000a7c   0x08000a7c   0x00000002   Code   RO          352    i.SARADC_IRQHandler  tx_phe_irq.o
    0x08000a7e   0x08000a7e   0x00000002   Code   RO          353    i.SINCOS0_IRQHandler  tx_phe_irq.o
    0x08000a80   0x08000a80   0x00000002   Code   RO          354    i.SINCOS1_IRQHandler  tx_phe_irq.o
    0x08000a82   0x08000a82   0x00000002   Code   RO          355    i.SPI0_IRQHandler   tx_phe_irq.o
    0x08000a84   0x08000a84   0x00000002   Code   RO          356    i.SPI1_IRQHandler   tx_phe_irq.o
    0x08000a86   0x08000a86   0x00000002   Code   RO          357    i.SPWM_IRQHandler   tx_phe_irq.o
    0x08000a88   0x08000a88   0x00000002   Code   RO          358    i.SVC_Handler       tx_phe_irq.o
    0x08000a8a   0x08000a8a   0x00000002   Code   RO          359    i.SVPWM_IRQHandler  tx_phe_irq.o
    0x08000a8c   0x08000a8c   0x0000001c   Code   RO          830    i.SetBitMask        rc523_drv.o
    0x08000aa8   0x08000aa8   0x00000010   Code   RO          360    i.SysTick_Handler   tx_phe_irq.o
    0x08000ab8   0x08000ab8   0x00000034   Code   RO          361    i.TIM0_IRQHandler   tx_phe_irq.o
    0x08000aec   0x08000aec   0x00000002   Code   RO          362    i.TIM1_IRQHandler   tx_phe_irq.o
    0x08000aee   0x08000aee   0x00000002   Code   RO          363    i.TIM2_IRQHandler   tx_phe_irq.o
    0x08000af0   0x08000af0   0x00000002   Code   RO          364    i.TIM3_IRQHandler   tx_phe_irq.o
    0x08000af2   0x08000af2   0x00000002   Code   RO          365    i.TIM4_IRQHandler   tx_phe_irq.o
    0x08000af4   0x08000af4   0x00000002   Code   RO          366    i.TIM5_IRQHandler   tx_phe_irq.o
    0x08000af6   0x08000af6   0x00000002   Code   RO          367    i.TIM6_IRQHandler   tx_phe_irq.o
    0x08000af8   0x08000af8   0x00000002   Code   RO          368    i.TIM7_IRQHandler   tx_phe_irq.o
    0x08000afa   0x08000afa   0x00000002   PAD
    0x08000afc   0x08000afc   0x00000098   Code   RO          369    i.USART0_IRQHandler  tx_phe_irq.o
    0x08000b94   0x08000b94   0x00000002   Code   RO          370    i.USART1_IRQHandler  tx_phe_irq.o
    0x08000b96   0x08000b96   0x00000002   Code   RO          371    i.USART2_IRQHandler  tx_phe_irq.o
    0x08000b98   0x08000b98   0x00000008   Code   RO          372    i.UsageFault_Handler  tx_phe_irq.o
    0x08000ba0   0x08000ba0   0x00000002   Code   RO          373    i.WAKEUP_IRQHandler  tx_phe_irq.o
    0x08000ba2   0x08000ba2   0x00000002   PAD
    0x08000ba4   0x08000ba4   0x0000001c   Code   RO          374    i.WDT_IRQHandler    tx_phe_irq.o
    0x08000bc0   0x08000bc0   0x000000c4   Code   RO          764    i.WriteRawRC        rc523_cfg.o
    0x08000c84   0x08000c84   0x00000020   Code   RO         4088    i.__0printf$8       mc_w.l(printf8.o)
    0x08000ca4   0x08000ca4   0x00000006   Code   RO         1521    i.__get_PRIMASK     tx_phe_ll_cc_rst.o
    0x08000caa   0x08000caa   0x00000006   Code   RO         1832    i.__get_PRIMASK     tx_phe_ll_eflash.o
    0x08000cb0   0x08000cb0   0x0000000e   Code   RO         4189    i.__scatterload_copy  mc_w.l(handlers.o)
    0x08000cbe   0x08000cbe   0x00000002   Code   RO         4190    i.__scatterload_null  mc_w.l(handlers.o)
    0x08000cc0   0x08000cc0   0x0000000e   Code   RO         4191    i.__scatterload_zeroinit  mc_w.l(handlers.o)
    0x08000cce   0x08000cce   0x00000002   PAD
    0x08000cd0   0x08000cd0   0x00000404   Code   RO         4095    i._printf_core      mc_w.l(printf8.o)
    0x080010d4   0x080010d4   0x00000024   Code   RO         4096    i._printf_post_padding  mc_w.l(printf8.o)
    0x080010f8   0x080010f8   0x0000002e   Code   RO         4097    i._printf_pre_padding  mc_w.l(printf8.o)
    0x08001126   0x08001126   0x00000002   PAD
    0x08001128   0x08001128   0x00000084   Code   RO          939    i.card_id_encryption  tsk_card.o
    0x080011ac   0x080011ac   0x00000038   Code   RO           55    i.clk_config        main.o
    0x080011e4   0x080011e4   0x0000003c   Code   RO         3461    i.debug_select_interface  tx_phe_debug.o
    0x08001220   0x08001220   0x00000050   Code   RO           56    i.decode_usart_data  main.o
    0x08001270   0x08001270   0x00000034   Code   RO          940    i.dev_sn_deciphering  tsk_card.o
    0x080012a4   0x080012a4   0x00000034   Code   RO          941    i.dev_sn_encryption  tsk_card.o
    0x080012d8   0x080012d8   0x000004d8   Code   RO         3570    i.dump_fault_state  tx_phe_system.o
    0x080017b0   0x080017b0   0x0000006c   Code   RO         3463    i.fputc             tx_phe_debug.o
    0x0800181c   0x0800181c   0x000001b0   Code   RO           57    i.key_cb_switch_nfc_mode  main.o
    0x080019cc   0x080019cc   0x00000004   Code   RO         1129    i.key_close         drv_key.o
    0x080019d0   0x080019d0   0x00000078   Code   RO         1130    i.key_init          drv_key.o
    0x08001a48   0x08001a48   0x00000020   Code   RO         1131    i.key_ioctl         drv_key.o
    0x08001a68   0x08001a68   0x00000004   Code   RO         1132    i.key_open          drv_key.o
    0x08001a6c   0x08001a6c   0x0000006c   Code   RO         1133    i.key_test_event_callback  drv_key.o
    0x08001ad8   0x08001ad8   0x000001c4   Code   RO         1134    i.key_tmr_cb        drv_key.o
    0x08001c9c   0x08001c9c   0x00000004   Code   RO         1056    i.led_close         drv_led.o
    0x08001ca0   0x08001ca0   0x000000d8   Code   RO         1057    i.led_flash_cfg     drv_led.o
    0x08001d78   0x08001d78   0x0000005c   Code   RO         1058    i.led_flash_stop    drv_led.o
    0x08001dd4   0x08001dd4   0x0000014c   Code   RO         1059    i.led_flash_tmr     drv_led.o
    0x08001f20   0x08001f20   0x0000007c   Code   RO         1060    i.led_init          drv_led.o
    0x08001f9c   0x08001f9c   0x00000078   Code   RO         1061    i.led_ioctl         drv_led.o
    0x08002014   0x08002014   0x00000004   Code   RO         1062    i.led_open          drv_led.o
    0x08002018   0x08002018   0x00000264   Code   RO         1523    i.ll_cc_adcpll_set  tx_phe_ll_cc_rst.o
    0x0800227c   0x0800227c   0x0000009c   Code   RO         1524    i.ll_cc_clk_div_config  tx_phe_ll_cc_rst.o
    0x08002318   0x08002318   0x0000007c   Code   RO         1834    i.ll_cc_rst_apb2_peripheral_clk_enable  tx_phe_ll_eflash.o
    0x08002394   0x08002394   0x00000020   Code   RO         1525    i.ll_cc_rst_delay5ms_32khz  tx_phe_ll_cc_rst.o
    0x080023b4   0x080023b4   0x00000098   Code   RO         1526    i.ll_cc_sys_clk_get  tx_phe_ll_cc_rst.o
    0x0800244c   0x0800244c   0x00000034   Code   RO         1527    i.ll_cc_sysclk_select  tx_phe_ll_cc_rst.o
    0x08002480   0x08002480   0x000002ec   Code   RO         1528    i.ll_cc_syspll_set  tx_phe_ll_cc_rst.o
    0x0800276c   0x0800276c   0x000000bc   Code   RO         1835    i.ll_eflash_config  tx_phe_ll_eflash.o
    0x08002828   0x08002828   0x0000009c   Code   RO         1840    i.ll_eflash_init    tx_phe_ll_eflash.o
    0x080028c4   0x080028c4   0x00000006   Code   RO         1063    i.ll_gpio_bit_reset  drv_led.o
    0x080028ca   0x080028ca   0x00000006   Code   RO         1064    i.ll_gpio_bit_set   drv_led.o
    0x080028d0   0x080028d0   0x00000080   Code   RO         2315    i.ll_gpio_dir       tx_phe_ll_gpio.o
    0x08002950   0x08002950   0x000000b0   Code   RO         2316    i.ll_gpio_pull      tx_phe_ll_gpio.o
    0x08002a00   0x08002a00   0x00000012   Code   RO          765    i.ll_gpio_write_data_bit  rc523_cfg.o
    0x08002a12   0x08002a12   0x00000002   PAD
    0x08002a14   0x08002a14   0x000000c0   Code   RO         3247    i.ll_timer_config   tx_phe_ll_timer.o
    0x08002ad4   0x08002ad4   0x000001e0   Code   RO         3248    i.ll_timer_deinit   tx_phe_ll_timer.o
    0x08002cb4   0x08002cb4   0x00000088   Code   RO         3249    i.ll_timer_init     tx_phe_ll_timer.o
    0x08002d3c   0x08002d3c   0x0000037c   Code   RO         3250    i.ll_timer_io_map   tx_phe_ll_timer.o
    0x080030b8   0x080030b8   0x00000028   Code   RO         3251    i.ll_timer_irq_config  tx_phe_ll_timer.o
    0x080030e0   0x080030e0   0x00000094   Code   RO         3252    i.ll_timer_start    tx_phe_ll_timer.o
    0x08003174   0x08003174   0x000000c0   Code   RO         3307    i.ll_usart232_config  tx_phe_ll_usart.o
    0x08003234   0x08003234   0x0000010c   Code   RO         3308    i.ll_usart232_io_map  tx_phe_ll_usart.o
    0x08003340   0x08003340   0x000000b8   Code   RO         3311    i.ll_usart_deinit   tx_phe_ll_usart.o
    0x080033f8   0x080033f8   0x0000005c   Code   RO         3312    i.ll_usart_init     tx_phe_ll_usart.o
    0x08003454   0x08003454   0x00000046   Code   RO         3313    i.ll_usart_irq_config  tx_phe_ll_usart.o
    0x0800349a   0x0800349a   0x00000002   PAD
    0x0800349c   0x0800349c   0x00000210   Code   RO           58    i.main              main.o
    0x080036ac   0x080036ac   0x00000014   Code   RO          942    i.nfc_get_dev_sn    tsk_card.o
    0x080036c0   0x080036c0   0x00000010   Code   RO          943    i.nfc_init          tsk_card.o
    0x080036d0   0x080036d0   0x000002c0   Code   RO          944    i.nfc_read_card     tsk_card.o
    0x08003990   0x08003990   0x00000014   Code   RO          945    i.nfc_set_dev_sn    tsk_card.o
    0x080039a4   0x080039a4   0x00000018   Code   RO           59    i.nfc_task          main.o
    0x080039bc   0x080039bc   0x0000063c   Code   RO          946    i.nfc_write_card    tsk_card.o
    0x08003ff8   0x08003ff8   0x0000006c   Code   RO          766    i.rc523_cfg_init    rc523_cfg.o
    0x08004064   0x08004064   0x00000008   Code   RO         3574    i.recover_fault_state  tx_phe_system.o
    0x0800406c   0x0800406c   0x00000020   Code   RO          767    i.set_rst           rc523_cfg.o
    0x0800408c   0x0800408c   0x00000030   Code   RO         1321    i.soft_timer_ioctl  drv_soft_timer.o
    0x080040bc   0x080040bc   0x00000050   Code   RO         1322    i.soft_tmr_delete   drv_soft_timer.o
    0x0800410c   0x0800410c   0x0000000c   Code   RO         1323    i.soft_tmr_get_tick  drv_soft_timer.o
    0x08004118   0x08004118   0x00000024   Code   RO         1324    i.soft_tmr_init     drv_soft_timer.o
    0x0800413c   0x0800413c   0x000000cc   Code   RO         1325    i.soft_tmr_install  drv_soft_timer.o
    0x08004208   0x08004208   0x00000060   Code   RO         1326    i.soft_tmr_poll     drv_soft_timer.o
    0x08004268   0x08004268   0x00000010   Code   RO         1327    i.soft_tmr_tick_update  drv_soft_timer.o
    0x08004278   0x08004278   0x00000060   Code   RO         3575    i.sys_cpu_init      tx_phe_system.o
    0x080042d8   0x080042d8   0x00000044   Code   RO         3576    i.sys_eflash_config  tx_phe_system.o
    0x0800431c   0x0800431c   0x00000014   Code   RO         3577    i.sys_eflash_init   tx_phe_system.o
    0x08004330   0x08004330   0x00000002   Code   RO         3578    i.sys_fault_recover_context  tx_phe_system.o
    0x08004332   0x08004332   0x00000002   Code   RO         3579    i.sys_fault_save_context  tx_phe_system.o
    0x08004334   0x08004334   0x0000004c   Code   RO         3580    i.sys_module_init   tx_phe_system.o
    0x08004380   0x08004380   0x0000000c   Code   RO         3581    i.sys_peripheral_init  tx_phe_system.o
    0x0800438c   0x0800438c   0x00000028   Code   RO         3585    i.system_critical_section_enter  tx_phe_system.o
    0x080043b4   0x080043b4   0x00000028   Code   RO         3586    i.system_critical_section_exit  tx_phe_system.o
    0x080043dc   0x080043dc   0x00000058   Code   RO         3587    i.system_init       tx_phe_system.o
    0x08004434   0x08004434   0x00000060   Code   RO         1256    i.timer_config      drv_timer0.o
    0x08004494   0x08004494   0x0000004c   Code   RO         1257    i.timer_deinit      drv_timer0.o
    0x080044e0   0x080044e0   0x00000074   Code   RO         1258    i.timer_init        drv_timer0.o
    0x08004554   0x08004554   0x00000058   Code   RO         1259    i.timer_ioctl       drv_timer0.o
    0x080045ac   0x080045ac   0x00000024   Code   RO         1260    i.timer_start       drv_timer0.o
    0x080045d0   0x080045d0   0x00000028   Code   RO         1262    i.tmr0_irq_handle   drv_timer0.o
    0x080045f8   0x080045f8   0x00000044   Code   RO         3430    i.tx_assert_false   tx_phe_assert.o
    0x0800463c   0x0800463c   0x0000007c   Code   RO         1188    i.usart_config      drv_usart.o
    0x080046b8   0x080046b8   0x00000010   Code   RO         1189    i.usart_deinit      drv_usart.o
    0x080046c8   0x080046c8   0x00000064   Code   RO         1190    i.usart_init        drv_usart.o
    0x0800472c   0x0800472c   0x00000006   Code   RO         1191    i.usart_ioctl       drv_usart.o
    0x08004732   0x08004732   0x00000002   PAD
    0x08004734   0x08004734   0x00000040   Code   RO         1192    i.usart_read        drv_usart.o
    0x08004774   0x08004774   0x0000000c   Code   RO         1193    i.usart_rx_cmd_over  drv_usart.o
    0x08004780   0x08004780   0x0000003c   Code   RO         1194    i.usart_rx_data_handle  drv_usart.o
    0x080047bc   0x080047bc   0x00000020   Data   RO         1065    .constdata          drv_led.o
    0x080047dc   0x080047dc   0x00000020   Data   RO         1135    .constdata          drv_key.o
    0x080047fc   0x080047fc   0x00000020   Data   RO         1196    .constdata          drv_usart.o
    0x0800481c   0x0800481c   0x00000020   Data   RO         1264    .constdata          drv_timer0.o
    0x0800483c   0x0800483c   0x00000020   Data   RO         1328    .constdata          drv_soft_timer.o
    0x0800485c   0x0800485c   0x00000010   Data   RO         1530    .constdata          tx_phe_ll_cc_rst.o
    0x0800486c   0x0800486c   0x00000041   Data   RO           61    .conststring        main.o
    0x080048ad   0x080048ad   0x00000003   PAD
    0x080048b0   0x080048b0   0x00000020   Data   RO         4187    Region$$Table       anon$$obj.o


    Execution Region RW_SRAM0 (Exec base: 0x20000000, Load base: 0x080048d0, Size: 0x00000000, Max: 0x00008000, ABSOLUTE)

    **** No section assigned to this execution region ****


    Execution Region RW_SRAM10 (Exec base: 0x20008000, Load base: 0x080048d0, Size: 0x00000000, Max: 0x00007000, ABSOLUTE)

    **** No section assigned to this execution region ****


    Execution Region ARM_LIB_STACK (Exec base: 0x2000f000, Load base: 0x080048d0, Size: 0x00000ff0, Max: 0x00000ff0, ABSOLUTE)

    Exec Addr    Load Addr    Size         Type   Attr      Idx    E Section Name        Object

    0x2000f000        -       0x00000ff0   Zero   RW            1    ARM_LIB_STACK.bss   anon$$obj.o


    Execution Region RW_SRAM1_RW_SRAM16 (Exec base: 0x20010000, Load base: 0x080048d0, Size: 0x000001d4, Max: 0x0000c000, ABSOLUTE, COMPRESSED[0x00000080])

    Exec Addr    Load Addr    Size         Type   Attr      Idx    E Section Name        Object

    0x20010000   COMPRESSED   0x00000028   Data   RW           62    .data               main.o
    0x20010028   COMPRESSED   0x0000003e   Data   RW          948    .data               tsk_card.o
    0x20010066   COMPRESSED   0x00000002   PAD
    0x20010068   COMPRESSED   0x00000014   Data   RW         1012    .data               dev.o
    0x2001007c   COMPRESSED   0x0000004a   Data   RW         1066    .data               drv_led.o
    0x200100c6   COMPRESSED   0x00000002   PAD
    0x200100c8   COMPRESSED   0x00000038   Data   RW         1136    .data               drv_key.o
    0x20010100   COMPRESSED   0x00000001   Data   RW         1197    .data               drv_usart.o
    0x20010101   COMPRESSED   0x00000003   PAD
    0x20010104   COMPRESSED   0x0000000c   Data   RW         1329    .data               drv_soft_timer.o
    0x20010110   COMPRESSED   0x00000014   Data   RW         3465    .data               tx_phe_debug.o
    0x20010124   COMPRESSED   0x0000001c   Data   RW         3589    .data               tx_phe_system.o
    0x20010140        -       0x00000020   Zero   RW           60    .bss                main.o
    0x20010160        -       0x0000002c   Zero   RW          947    .bss                tsk_card.o
    0x2001018c        -       0x00000028   Zero   RW         1195    .bss                drv_usart.o
    0x200101b4        -       0x00000020   Zero   RW         1263    .bss                drv_timer0.o



  Load Region LR$$.ARM.__AT_0x40000000 (Base: 0x40000000, Size: 0x00000000, Max: 0x000000e0, ABSOLUTE)

    Execution Region ER$$.ARM.__AT_0x40000000 (Exec base: 0x40000000, Load base: 0x40000000, Size: 0x000000e0, Max: 0x000000e0, ABSOLUTE, UNINIT)

    Exec Addr    Load Addr    Size         Type   Attr      Idx    E Section Name        Object

    0x40000000        -       0x000000e0   Zero   RW         3728    .ARM.__AT_0x40000000  txf5200.o



  Load Region LR$$.ARM.__AT_0x40001000 (Base: 0x40001000, Size: 0x00000000, Max: 0x000000e0, ABSOLUTE)

    Execution Region ER$$.ARM.__AT_0x40001000 (Exec base: 0x40001000, Load base: 0x40001000, Size: 0x000000e0, Max: 0x000000e0, ABSOLUTE, UNINIT)

    Exec Addr    Load Addr    Size         Type   Attr      Idx    E Section Name        Object

    0x40001000        -       0x000000e0   Zero   RW         3729    .ARM.__AT_0x40001000  txf5200.o



  Load Region LR$$.ARM.__AT_0x40003000 (Base: 0x40003000, Size: 0x00000000, Max: 0x000000d0, ABSOLUTE)

    Execution Region ER$$.ARM.__AT_0x40003000 (Exec base: 0x40003000, Load base: 0x40003000, Size: 0x000000d0, Max: 0x000000d0, ABSOLUTE, UNINIT)

    Exec Addr    Load Addr    Size         Type   Attr      Idx    E Section Name        Object

    0x40003000        -       0x000000d0   Zero   RW         3730    .ARM.__AT_0x40003000  txf5200.o



  Load Region LR$$.ARM.__AT_0x40004000 (Base: 0x40004000, Size: 0x00000000, Max: 0x000000d0, ABSOLUTE)

    Execution Region ER$$.ARM.__AT_0x40004000 (Exec base: 0x40004000, Load base: 0x40004000, Size: 0x000000d0, Max: 0x000000d0, ABSOLUTE, UNINIT)

    Exec Addr    Load Addr    Size         Type   Attr      Idx    E Section Name        Object

    0x40004000        -       0x000000d0   Zero   RW         3731    .ARM.__AT_0x40004000  txf5200.o



  Load Region LR$$.ARM.__AT_0x40005000 (Base: 0x40005000, Size: 0x00000000, Max: 0x000000d0, ABSOLUTE)

    Execution Region ER$$.ARM.__AT_0x40005000 (Exec base: 0x40005000, Load base: 0x40005000, Size: 0x000000d0, Max: 0x000000d0, ABSOLUTE, UNINIT)

    Exec Addr    Load Addr    Size         Type   Attr      Idx    E Section Name        Object

    0x40005000        -       0x000000d0   Zero   RW         3732    .ARM.__AT_0x40005000  txf5200.o



  Load Region LR$$.ARM.__AT_0x40006000 (Base: 0x40006000, Size: 0x00000000, Max: 0x0000002c, ABSOLUTE)

    Execution Region ER$$.ARM.__AT_0x40006000 (Exec base: 0x40006000, Load base: 0x40006000, Size: 0x0000002c, Max: 0x0000002c, ABSOLUTE, UNINIT)

    Exec Addr    Load Addr    Size         Type   Attr      Idx    E Section Name        Object

    0x40006000        -       0x0000002c   Zero   RW         3733    .ARM.__AT_0x40006000  txf5200.o



  Load Region LR$$.ARM.__AT_0x40007000 (Base: 0x40007000, Size: 0x00000000, Max: 0x0000002c, ABSOLUTE)

    Execution Region ER$$.ARM.__AT_0x40007000 (Exec base: 0x40007000, Load base: 0x40007000, Size: 0x0000002c, Max: 0x0000002c, ABSOLUTE, UNINIT)

    Exec Addr    Load Addr    Size         Type   Attr      Idx    E Section Name        Object

    0x40007000        -       0x0000002c   Zero   RW         3734    .ARM.__AT_0x40007000  txf5200.o



  Load Region LR$$.ARM.__AT_0x40009000 (Base: 0x40009000, Size: 0x00000000, Max: 0x00000004, ABSOLUTE)

    Execution Region ER$$.ARM.__AT_0x40009000 (Exec base: 0x40009000, Load base: 0x40009000, Size: 0x00000004, Max: 0x00000004, ABSOLUTE, UNINIT)

    Exec Addr    Load Addr    Size         Type   Attr      Idx    E Section Name        Object

    0x40009000        -       0x00000004   Zero   RW         3735    .ARM.__AT_0x40009000  txf5200.o



  Load Region LR$$.ARM.__AT_0x4000A000 (Base: 0x4000a000, Size: 0x00000000, Max: 0x00000068, ABSOLUTE)

    Execution Region ER$$.ARM.__AT_0x4000A000 (Exec base: 0x4000a000, Load base: 0x4000a000, Size: 0x00000068, Max: 0x00000068, ABSOLUTE, UNINIT)

    Exec Addr    Load Addr    Size         Type   Attr      Idx    E Section Name        Object

    0x4000a000        -       0x00000068   Zero   RW         3736    .ARM.__AT_0x4000A000  txf5200.o



  Load Region LR$$.ARM.__AT_0x4000D000 (Base: 0x4000d000, Size: 0x00000000, Max: 0x00000010, ABSOLUTE)

    Execution Region ER$$.ARM.__AT_0x4000D000 (Exec base: 0x4000d000, Load base: 0x4000d000, Size: 0x00000010, Max: 0x00000010, ABSOLUTE, UNINIT)

    Exec Addr    Load Addr    Size         Type   Attr      Idx    E Section Name        Object

    0x4000d000        -       0x00000010   Zero   RW         3737    .ARM.__AT_0x4000D000  txf5200.o



  Load Region LR$$.ARM.__AT_0x4000D010 (Base: 0x4000d010, Size: 0x00000000, Max: 0x00000010, ABSOLUTE)

    Execution Region ER$$.ARM.__AT_0x4000D010 (Exec base: 0x4000d010, Load base: 0x4000d010, Size: 0x00000010, Max: 0x00000010, ABSOLUTE, UNINIT)

    Exec Addr    Load Addr    Size         Type   Attr      Idx    E Section Name        Object

    0x4000d010        -       0x00000010   Zero   RW         3738    .ARM.__AT_0x4000D010  txf5200.o



  Load Region LR$$.ARM.__AT_0x4000D020 (Base: 0x4000d020, Size: 0x00000000, Max: 0x00000010, ABSOLUTE)

    Execution Region ER$$.ARM.__AT_0x4000D020 (Exec base: 0x4000d020, Load base: 0x4000d020, Size: 0x00000010, Max: 0x00000010, ABSOLUTE, UNINIT)

    Exec Addr    Load Addr    Size         Type   Attr      Idx    E Section Name        Object

    0x4000d020        -       0x00000010   Zero   RW         3739    .ARM.__AT_0x4000D020  txf5200.o



  Load Region LR$$.ARM.__AT_0x4000D030 (Base: 0x4000d030, Size: 0x00000000, Max: 0x00000010, ABSOLUTE)

    Execution Region ER$$.ARM.__AT_0x4000D030 (Exec base: 0x4000d030, Load base: 0x4000d030, Size: 0x00000010, Max: 0x00000010, ABSOLUTE, UNINIT)

    Exec Addr    Load Addr    Size         Type   Attr      Idx    E Section Name        Object

    0x4000d030        -       0x00000010   Zero   RW         3740    .ARM.__AT_0x4000D030  txf5200.o



  Load Region LR$$.ARM.__AT_0x40012000 (Base: 0x40012000, Size: 0x00000000, Max: 0x0000003c, ABSOLUTE)

    Execution Region ER$$.ARM.__AT_0x40012000 (Exec base: 0x40012000, Load base: 0x40012000, Size: 0x0000003c, Max: 0x0000003c, ABSOLUTE, UNINIT)

    Exec Addr    Load Addr    Size         Type   Attr      Idx    E Section Name        Object

    0x40012000        -       0x0000003c   Zero   RW         3741    .ARM.__AT_0x40012000  txf5200.o



  Load Region LR$$.ARM.__AT_0x40013000 (Base: 0x40013000, Size: 0x00000000, Max: 0x00000100, ABSOLUTE)

    Execution Region ER$$.ARM.__AT_0x40013000 (Exec base: 0x40013000, Load base: 0x40013000, Size: 0x00000100, Max: 0x00000100, ABSOLUTE, UNINIT)

    Exec Addr    Load Addr    Size         Type   Attr      Idx    E Section Name        Object

    0x40013000        -       0x00000100   Zero   RW         3742    .ARM.__AT_0x40013000  txf5200.o



  Load Region LR$$.ARM.__AT_0x40014000 (Base: 0x40014000, Size: 0x00000000, Max: 0x00000008, ABSOLUTE)

    Execution Region ER$$.ARM.__AT_0x40014000 (Exec base: 0x40014000, Load base: 0x40014000, Size: 0x00000008, Max: 0x00000008, ABSOLUTE, UNINIT)

    Exec Addr    Load Addr    Size         Type   Attr      Idx    E Section Name        Object

    0x40014000        -       0x00000008   Zero   RW         3743    .ARM.__AT_0x40014000  txf5200.o



  Load Region LR$$.ARM.__AT_0x40015000 (Base: 0x40015000, Size: 0x00000000, Max: 0x00000010, ABSOLUTE)

    Execution Region ER$$.ARM.__AT_0x40015000 (Exec base: 0x40015000, Load base: 0x40015000, Size: 0x00000010, Max: 0x00000010, ABSOLUTE, UNINIT)

    Exec Addr    Load Addr    Size         Type   Attr      Idx    E Section Name        Object

    0x40015000        -       0x00000010   Zero   RW         3744    .ARM.__AT_0x40015000  txf5200.o



  Load Region LR$$.ARM.__AT_0x40015010 (Base: 0x40015010, Size: 0x00000000, Max: 0x00000010, ABSOLUTE)

    Execution Region ER$$.ARM.__AT_0x40015010 (Exec base: 0x40015010, Load base: 0x40015010, Size: 0x00000010, Max: 0x00000010, ABSOLUTE, UNINIT)

    Exec Addr    Load Addr    Size         Type   Attr      Idx    E Section Name        Object

    0x40015010        -       0x00000010   Zero   RW         3745    .ARM.__AT_0x40015010  txf5200.o



  Load Region LR$$.ARM.__AT_0x40015020 (Base: 0x40015020, Size: 0x00000000, Max: 0x00000010, ABSOLUTE)

    Execution Region ER$$.ARM.__AT_0x40015020 (Exec base: 0x40015020, Load base: 0x40015020, Size: 0x00000010, Max: 0x00000010, ABSOLUTE, UNINIT)

    Exec Addr    Load Addr    Size         Type   Attr      Idx    E Section Name        Object

    0x40015020        -       0x00000010   Zero   RW         3746    .ARM.__AT_0x40015020  txf5200.o



  Load Region LR$$.ARM.__AT_0x40015030 (Base: 0x40015030, Size: 0x00000000, Max: 0x00000010, ABSOLUTE)

    Execution Region ER$$.ARM.__AT_0x40015030 (Exec base: 0x40015030, Load base: 0x40015030, Size: 0x00000010, Max: 0x00000010, ABSOLUTE, UNINIT)

    Exec Addr    Load Addr    Size         Type   Attr      Idx    E Section Name        Object

    0x40015030        -       0x00000010   Zero   RW         3747    .ARM.__AT_0x40015030  txf5200.o



  Load Region LR$$.ARM.__AT_0x40017000 (Base: 0x40017000, Size: 0x00000000, Max: 0x00000028, ABSOLUTE)

    Execution Region ER$$.ARM.__AT_0x40017000 (Exec base: 0x40017000, Load base: 0x40017000, Size: 0x00000028, Max: 0x00000028, ABSOLUTE, UNINIT)

    Exec Addr    Load Addr    Size         Type   Attr      Idx    E Section Name        Object

    0x40017000        -       0x00000028   Zero   RW         3748    .ARM.__AT_0x40017000  txf5200.o



  Load Region LR$$.ARM.__AT_0x4001C000 (Base: 0x4001c000, Size: 0x00000000, Max: 0x00000010, ABSOLUTE)

    Execution Region ER$$.ARM.__AT_0x4001C000 (Exec base: 0x4001c000, Load base: 0x4001c000, Size: 0x00000010, Max: 0x00000010, ABSOLUTE, UNINIT)

    Exec Addr    Load Addr    Size         Type   Attr      Idx    E Section Name        Object

    0x4001c000        -       0x00000010   Zero   RW         3749    .ARM.__AT_0x4001C000  txf5200.o



  Load Region LR$$.ARM.__AT_0x4001D000 (Base: 0x4001d000, Size: 0x00000000, Max: 0x00000010, ABSOLUTE)

    Execution Region ER$$.ARM.__AT_0x4001D000 (Exec base: 0x4001d000, Load base: 0x4001d000, Size: 0x00000010, Max: 0x00000010, ABSOLUTE, UNINIT)

    Exec Addr    Load Addr    Size         Type   Attr      Idx    E Section Name        Object

    0x4001d000        -       0x00000010   Zero   RW         3750    .ARM.__AT_0x4001D000  txf5200.o



  Load Region LR$$.ARM.__AT_0x40020000 (Base: 0x40020000, Size: 0x00000000, Max: 0x000003b8, ABSOLUTE)

    Execution Region ER$$.ARM.__AT_0x40020000 (Exec base: 0x40020000, Load base: 0x40020000, Size: 0x000003b8, Max: 0x000003b8, ABSOLUTE, UNINIT)

    Exec Addr    Load Addr    Size         Type   Attr      Idx    E Section Name        Object

    0x40020000        -       0x000003b8   Zero   RW         3751    .ARM.__AT_0x40020000  txf5200.o



  Load Region LR$$.ARM.__AT_0x40021000 (Base: 0x40021000, Size: 0x00000000, Max: 0x00000060, ABSOLUTE)

    Execution Region ER$$.ARM.__AT_0x40021000 (Exec base: 0x40021000, Load base: 0x40021000, Size: 0x00000060, Max: 0x00000060, ABSOLUTE, UNINIT)

    Exec Addr    Load Addr    Size         Type   Attr      Idx    E Section Name        Object

    0x40021000        -       0x00000060   Zero   RW         3752    .ARM.__AT_0x40021000  txf5200.o



  Load Region LR$$.ARM.__AT_0x40022000 (Base: 0x40022000, Size: 0x00000000, Max: 0x0000003c, ABSOLUTE)

    Execution Region ER$$.ARM.__AT_0x40022000 (Exec base: 0x40022000, Load base: 0x40022000, Size: 0x0000003c, Max: 0x0000003c, ABSOLUTE, UNINIT)

    Exec Addr    Load Addr    Size         Type   Attr      Idx    E Section Name        Object

    0x40022000        -       0x0000003c   Zero   RW         3753    .ARM.__AT_0x40022000  txf5200.o



  Load Region LR$$.ARM.__AT_0x40024000 (Base: 0x40024000, Size: 0x00000000, Max: 0x0000003c, ABSOLUTE)

    Execution Region ER$$.ARM.__AT_0x40024000 (Exec base: 0x40024000, Load base: 0x40024000, Size: 0x0000003c, Max: 0x0000003c, ABSOLUTE, UNINIT)

    Exec Addr    Load Addr    Size         Type   Attr      Idx    E Section Name        Object

    0x40024000        -       0x0000003c   Zero   RW         3754    .ARM.__AT_0x40024000  txf5200.o



  Load Region LR$$.ARM.__AT_0x40025000 (Base: 0x40025000, Size: 0x00000000, Max: 0x0000003c, ABSOLUTE)

    Execution Region ER$$.ARM.__AT_0x40025000 (Exec base: 0x40025000, Load base: 0x40025000, Size: 0x0000003c, Max: 0x0000003c, ABSOLUTE, UNINIT)

    Exec Addr    Load Addr    Size         Type   Attr      Idx    E Section Name        Object

    0x40025000        -       0x0000003c   Zero   RW         3755    .ARM.__AT_0x40025000  txf5200.o



  Load Region LR$$.ARM.__AT_0x40026000 (Base: 0x40026000, Size: 0x00000000, Max: 0x00000084, ABSOLUTE)

    Execution Region ER$$.ARM.__AT_0x40026000 (Exec base: 0x40026000, Load base: 0x40026000, Size: 0x00000084, Max: 0x00000084, ABSOLUTE, UNINIT)

    Exec Addr    Load Addr    Size         Type   Attr      Idx    E Section Name        Object

    0x40026000        -       0x00000084   Zero   RW         3756    .ARM.__AT_0x40026000  txf5200.o



  Load Region LR$$.ARM.__AT_0x40027000 (Base: 0x40027000, Size: 0x00000000, Max: 0x0000003c, ABSOLUTE)

    Execution Region ER$$.ARM.__AT_0x40027000 (Exec base: 0x40027000, Load base: 0x40027000, Size: 0x0000003c, Max: 0x0000003c, ABSOLUTE, UNINIT)

    Exec Addr    Load Addr    Size         Type   Attr      Idx    E Section Name        Object

    0x40027000        -       0x0000003c   Zero   RW         3757    .ARM.__AT_0x40027000  txf5200.o



  Load Region LR$$.ARM.__AT_0x40029000 (Base: 0x40029000, Size: 0x00000000, Max: 0x000000b0, ABSOLUTE)

    Execution Region ER$$.ARM.__AT_0x40029000 (Exec base: 0x40029000, Load base: 0x40029000, Size: 0x000000b0, Max: 0x000000b0, ABSOLUTE, UNINIT)

    Exec Addr    Load Addr    Size         Type   Attr      Idx    E Section Name        Object

    0x40029000        -       0x000000b0   Zero   RW         3758    .ARM.__AT_0x40029000  txf5200.o



  Load Region LR$$.ARM.__AT_0x40030000 (Base: 0x40030000, Size: 0x00000000, Max: 0x00000014, ABSOLUTE)

    Execution Region ER$$.ARM.__AT_0x40030000 (Exec base: 0x40030000, Load base: 0x40030000, Size: 0x00000014, Max: 0x00000014, ABSOLUTE, UNINIT)

    Exec Addr    Load Addr    Size         Type   Attr      Idx    E Section Name        Object

    0x40030000        -       0x00000014   Zero   RW         3759    .ARM.__AT_0x40030000  txf5200.o



  Load Region LR$$.ARM.__AT_0x40031000 (Base: 0x40031000, Size: 0x00000000, Max: 0x0000007c, ABSOLUTE)

    Execution Region ER$$.ARM.__AT_0x40031000 (Exec base: 0x40031000, Load base: 0x40031000, Size: 0x0000007c, Max: 0x0000007c, ABSOLUTE, UNINIT)

    Exec Addr    Load Addr    Size         Type   Attr      Idx    E Section Name        Object

    0x40031000        -       0x0000007c   Zero   RW         3760    .ARM.__AT_0x40031000  txf5200.o



  Load Region LR$$.ARM.__AT_0x40032000 (Base: 0x40032000, Size: 0x00000000, Max: 0x000000e0, ABSOLUTE)

    Execution Region ER$$.ARM.__AT_0x40032000 (Exec base: 0x40032000, Load base: 0x40032000, Size: 0x000000e0, Max: 0x000000e0, ABSOLUTE, UNINIT)

    Exec Addr    Load Addr    Size         Type   Attr      Idx    E Section Name        Object

    0x40032000        -       0x000000e0   Zero   RW         3761    .ARM.__AT_0x40032000  txf5200.o



  Load Region LR$$.ARM.__AT_0x40033000 (Base: 0x40033000, Size: 0x00000000, Max: 0x00000034, ABSOLUTE)

    Execution Region ER$$.ARM.__AT_0x40033000 (Exec base: 0x40033000, Load base: 0x40033000, Size: 0x00000034, Max: 0x00000034, ABSOLUTE, UNINIT)

    Exec Addr    Load Addr    Size         Type   Attr      Idx    E Section Name        Object

    0x40033000        -       0x00000034   Zero   RW         3762    .ARM.__AT_0x40033000  txf5200.o



  Load Region LR$$.ARM.__AT_0x40035000 (Base: 0x40035000, Size: 0x00000000, Max: 0x00000040, ABSOLUTE)

    Execution Region ER$$.ARM.__AT_0x40035000 (Exec base: 0x40035000, Load base: 0x40035000, Size: 0x00000040, Max: 0x00000040, ABSOLUTE, UNINIT)

    Exec Addr    Load Addr    Size         Type   Attr      Idx    E Section Name        Object

    0x40035000        -       0x00000040   Zero   RW         3763    .ARM.__AT_0x40035000  txf5200.o



  Load Region LR$$.ARM.__AT_0x40035040 (Base: 0x40035040, Size: 0x00000000, Max: 0x00000040, ABSOLUTE)

    Execution Region ER$$.ARM.__AT_0x40035040 (Exec base: 0x40035040, Load base: 0x40035040, Size: 0x00000040, Max: 0x00000040, ABSOLUTE, UNINIT)

    Exec Addr    Load Addr    Size         Type   Attr      Idx    E Section Name        Object

    0x40035040        -       0x00000040   Zero   RW         3764    .ARM.__AT_0x40035040  txf5200.o



  Load Region LR$$.ARM.__AT_0x40035080 (Base: 0x40035080, Size: 0x00000000, Max: 0x00000040, ABSOLUTE)

    Execution Region ER$$.ARM.__AT_0x40035080 (Exec base: 0x40035080, Load base: 0x40035080, Size: 0x00000040, Max: 0x00000040, ABSOLUTE, UNINIT)

    Exec Addr    Load Addr    Size         Type   Attr      Idx    E Section Name        Object

    0x40035080        -       0x00000040   Zero   RW         3765    .ARM.__AT_0x40035080  txf5200.o



  Load Region LR$$.ARM.__AT_0x400350C0 (Base: 0x400350c0, Size: 0x00000000, Max: 0x00000040, ABSOLUTE)

    Execution Region ER$$.ARM.__AT_0x400350C0 (Exec base: 0x400350c0, Load base: 0x400350c0, Size: 0x00000040, Max: 0x00000040, ABSOLUTE, UNINIT)

    Exec Addr    Load Addr    Size         Type   Attr      Idx    E Section Name        Object

    0x400350c0        -       0x00000040   Zero   RW         3766    .ARM.__AT_0x400350C0  txf5200.o



  Load Region LR$$.ARM.__AT_0x40035100 (Base: 0x40035100, Size: 0x00000000, Max: 0x00000040, ABSOLUTE)

    Execution Region ER$$.ARM.__AT_0x40035100 (Exec base: 0x40035100, Load base: 0x40035100, Size: 0x00000040, Max: 0x00000040, ABSOLUTE, UNINIT)

    Exec Addr    Load Addr    Size         Type   Attr      Idx    E Section Name        Object

    0x40035100        -       0x00000040   Zero   RW         3767    .ARM.__AT_0x40035100  txf5200.o



  Load Region LR$$.ARM.__AT_0x40035140 (Base: 0x40035140, Size: 0x00000000, Max: 0x00000140, ABSOLUTE)

    Execution Region ER$$.ARM.__AT_0x40035140 (Exec base: 0x40035140, Load base: 0x40035140, Size: 0x00000140, Max: 0x00000140, ABSOLUTE, UNINIT)

    Exec Addr    Load Addr    Size         Type   Attr      Idx    E Section Name        Object

    0x40035140        -       0x00000140   Zero   RW         3768    .ARM.__AT_0x40035140  txf5200.o



  Load Region LR$$.ARM.__AT_0x40035280 (Base: 0x40035280, Size: 0x00000000, Max: 0x00000040, ABSOLUTE)

    Execution Region ER$$.ARM.__AT_0x40035280 (Exec base: 0x40035280, Load base: 0x40035280, Size: 0x00000040, Max: 0x00000040, ABSOLUTE, UNINIT)

    Exec Addr    Load Addr    Size         Type   Attr      Idx    E Section Name        Object

    0x40035280        -       0x00000040   Zero   RW         3769    .ARM.__AT_0x40035280  txf5200.o



  Load Region LR$$.ARM.__AT_0x400352C0 (Base: 0x400352c0, Size: 0x00000000, Max: 0x00000040, ABSOLUTE)

    Execution Region ER$$.ARM.__AT_0x400352C0 (Exec base: 0x400352c0, Load base: 0x400352c0, Size: 0x00000040, Max: 0x00000040, ABSOLUTE, UNINIT)

    Exec Addr    Load Addr    Size         Type   Attr      Idx    E Section Name        Object

    0x400352c0        -       0x00000040   Zero   RW         3770    .ARM.__AT_0x400352C0  txf5200.o



  Load Region LR$$.ARM.__AT_0x40035300 (Base: 0x40035300, Size: 0x00000000, Max: 0x00000040, ABSOLUTE)

    Execution Region ER$$.ARM.__AT_0x40035300 (Exec base: 0x40035300, Load base: 0x40035300, Size: 0x00000040, Max: 0x00000040, ABSOLUTE, UNINIT)

    Exec Addr    Load Addr    Size         Type   Attr      Idx    E Section Name        Object

    0x40035300        -       0x00000040   Zero   RW         3771    .ARM.__AT_0x40035300  txf5200.o



  Load Region LR$$.ARM.__AT_0x40035340 (Base: 0x40035340, Size: 0x00000000, Max: 0x00000040, ABSOLUTE)

    Execution Region ER$$.ARM.__AT_0x40035340 (Exec base: 0x40035340, Load base: 0x40035340, Size: 0x00000040, Max: 0x00000040, ABSOLUTE, UNINIT)

    Exec Addr    Load Addr    Size         Type   Attr      Idx    E Section Name        Object

    0x40035340        -       0x00000040   Zero   RW         3772    .ARM.__AT_0x40035340  txf5200.o



  Load Region LR$$.ARM.__AT_0x40035380 (Base: 0x40035380, Size: 0x00000000, Max: 0x00000040, ABSOLUTE)

    Execution Region ER$$.ARM.__AT_0x40035380 (Exec base: 0x40035380, Load base: 0x40035380, Size: 0x00000040, Max: 0x00000040, ABSOLUTE, UNINIT)

    Exec Addr    Load Addr    Size         Type   Attr      Idx    E Section Name        Object

    0x40035380        -       0x00000040   Zero   RW         3773    .ARM.__AT_0x40035380  txf5200.o



  Load Region LR$$.ARM.__AT_0x400353C0 (Base: 0x400353c0, Size: 0x00000000, Max: 0x00000040, ABSOLUTE)

    Execution Region ER$$.ARM.__AT_0x400353C0 (Exec base: 0x400353c0, Load base: 0x400353c0, Size: 0x00000040, Max: 0x00000040, ABSOLUTE, UNINIT)

    Exec Addr    Load Addr    Size         Type   Attr      Idx    E Section Name        Object

    0x400353c0        -       0x00000040   Zero   RW         3774    .ARM.__AT_0x400353C0  txf5200.o



  Load Region LR$$.ARM.__AT_0x40035400 (Base: 0x40035400, Size: 0x00000000, Max: 0x00000040, ABSOLUTE)

    Execution Region ER$$.ARM.__AT_0x40035400 (Exec base: 0x40035400, Load base: 0x40035400, Size: 0x00000040, Max: 0x00000040, ABSOLUTE, UNINIT)

    Exec Addr    Load Addr    Size         Type   Attr      Idx    E Section Name        Object

    0x40035400        -       0x00000040   Zero   RW         3775    .ARM.__AT_0x40035400  txf5200.o



  Load Region LR$$.ARM.__AT_0x40035440 (Base: 0x40035440, Size: 0x00000000, Max: 0x00000040, ABSOLUTE)

    Execution Region ER$$.ARM.__AT_0x40035440 (Exec base: 0x40035440, Load base: 0x40035440, Size: 0x00000040, Max: 0x00000040, ABSOLUTE, UNINIT)

    Exec Addr    Load Addr    Size         Type   Attr      Idx    E Section Name        Object

    0x40035440        -       0x00000040   Zero   RW         3776    .ARM.__AT_0x40035440  txf5200.o



  Load Region LR$$.ARM.__AT_0x40035480 (Base: 0x40035480, Size: 0x00000000, Max: 0x00000040, ABSOLUTE)

    Execution Region ER$$.ARM.__AT_0x40035480 (Exec base: 0x40035480, Load base: 0x40035480, Size: 0x00000040, Max: 0x00000040, ABSOLUTE, UNINIT)

    Exec Addr    Load Addr    Size         Type   Attr      Idx    E Section Name        Object

    0x40035480        -       0x00000040   Zero   RW         3777    .ARM.__AT_0x40035480  txf5200.o



  Load Region LR$$.ARM.__AT_0x400354C0 (Base: 0x400354c0, Size: 0x00000000, Max: 0x00000040, ABSOLUTE)

    Execution Region ER$$.ARM.__AT_0x400354C0 (Exec base: 0x400354c0, Load base: 0x400354c0, Size: 0x00000040, Max: 0x00000040, ABSOLUTE, UNINIT)

    Exec Addr    Load Addr    Size         Type   Attr      Idx    E Section Name        Object

    0x400354c0        -       0x00000040   Zero   RW         3778    .ARM.__AT_0x400354C0  txf5200.o



  Load Region LR$$.ARM.__AT_0x40035500 (Base: 0x40035500, Size: 0x00000000, Max: 0x00000040, ABSOLUTE)

    Execution Region ER$$.ARM.__AT_0x40035500 (Exec base: 0x40035500, Load base: 0x40035500, Size: 0x00000040, Max: 0x00000040, ABSOLUTE, UNINIT)

    Exec Addr    Load Addr    Size         Type   Attr      Idx    E Section Name        Object

    0x40035500        -       0x00000040   Zero   RW         3779    .ARM.__AT_0x40035500  txf5200.o



  Load Region LR$$.ARM.__AT_0x40036000 (Base: 0x40036000, Size: 0x00000000, Max: 0x00000264, ABSOLUTE)

    Execution Region ER$$.ARM.__AT_0x40036000 (Exec base: 0x40036000, Load base: 0x40036000, Size: 0x00000264, Max: 0x00000264, ABSOLUTE, UNINIT)

    Exec Addr    Load Addr    Size         Type   Attr      Idx    E Section Name        Object

    0x40036000        -       0x00000264   Zero   RW         3780    .ARM.__AT_0x40036000  txf5200.o



  Load Region LR$$.ARM.__AT_0x40036300 (Base: 0x40036300, Size: 0x00000000, Max: 0x00000060, ABSOLUTE)

    Execution Region ER$$.ARM.__AT_0x40036300 (Exec base: 0x40036300, Load base: 0x40036300, Size: 0x00000060, Max: 0x00000060, ABSOLUTE, UNINIT)

    Exec Addr    Load Addr    Size         Type   Attr      Idx    E Section Name        Object

    0x40036300        -       0x00000060   Zero   RW         3781    .ARM.__AT_0x40036300  txf5200.o



  Load Region LR$$.ARM.__AT_0x40036360 (Base: 0x40036360, Size: 0x00000000, Max: 0x00000060, ABSOLUTE)

    Execution Region ER$$.ARM.__AT_0x40036360 (Exec base: 0x40036360, Load base: 0x40036360, Size: 0x00000060, Max: 0x00000060, ABSOLUTE, UNINIT)

    Exec Addr    Load Addr    Size         Type   Attr      Idx    E Section Name        Object

    0x40036360        -       0x00000060   Zero   RW         3782    .ARM.__AT_0x40036360  txf5200.o



  Load Region LR$$.ARM.__AT_0x400363C0 (Base: 0x400363c0, Size: 0x00000000, Max: 0x00000060, ABSOLUTE)

    Execution Region ER$$.ARM.__AT_0x400363C0 (Exec base: 0x400363c0, Load base: 0x400363c0, Size: 0x00000060, Max: 0x00000060, ABSOLUTE, UNINIT)

    Exec Addr    Load Addr    Size         Type   Attr      Idx    E Section Name        Object

    0x400363c0        -       0x00000060   Zero   RW         3783    .ARM.__AT_0x400363C0  txf5200.o



  Load Region LR$$.ARM.__AT_0x40036420 (Base: 0x40036420, Size: 0x00000000, Max: 0x00000030, ABSOLUTE)

    Execution Region ER$$.ARM.__AT_0x40036420 (Exec base: 0x40036420, Load base: 0x40036420, Size: 0x00000030, Max: 0x00000030, ABSOLUTE, UNINIT)

    Exec Addr    Load Addr    Size         Type   Attr      Idx    E Section Name        Object

    0x40036420        -       0x00000030   Zero   RW         3784    .ARM.__AT_0x40036420  txf5200.o



  Load Region LR$$.ARM.__AT_0x40036450 (Base: 0x40036450, Size: 0x00000000, Max: 0x00000030, ABSOLUTE)

    Execution Region ER$$.ARM.__AT_0x40036450 (Exec base: 0x40036450, Load base: 0x40036450, Size: 0x00000030, Max: 0x00000030, ABSOLUTE, UNINIT)

    Exec Addr    Load Addr    Size         Type   Attr      Idx    E Section Name        Object

    0x40036450        -       0x00000030   Zero   RW         3785    .ARM.__AT_0x40036450  txf5200.o



  Load Region LR$$.ARM.__AT_0x40036480 (Base: 0x40036480, Size: 0x00000000, Max: 0x00000030, ABSOLUTE)

    Execution Region ER$$.ARM.__AT_0x40036480 (Exec base: 0x40036480, Load base: 0x40036480, Size: 0x00000030, Max: 0x00000030, ABSOLUTE, UNINIT)

    Exec Addr    Load Addr    Size         Type   Attr      Idx    E Section Name        Object

    0x40036480        -       0x00000030   Zero   RW         3786    .ARM.__AT_0x40036480  txf5200.o



  Load Region LR$$.ARM.__AT_0x40037000 (Base: 0x40037000, Size: 0x00000000, Max: 0x00000140, ABSOLUTE)

    Execution Region ER$$.ARM.__AT_0x40037000 (Exec base: 0x40037000, Load base: 0x40037000, Size: 0x00000140, Max: 0x00000140, ABSOLUTE, UNINIT)

    Exec Addr    Load Addr    Size         Type   Attr      Idx    E Section Name        Object

    0x40037000        -       0x00000140   Zero   RW         3787    .ARM.__AT_0x40037000  txf5200.o



  Load Region LR$$.ARM.__AT_0x40038000 (Base: 0x40038000, Size: 0x00000000, Max: 0x00000258, ABSOLUTE)

    Execution Region ER$$.ARM.__AT_0x40038000 (Exec base: 0x40038000, Load base: 0x40038000, Size: 0x00000258, Max: 0x00000258, ABSOLUTE, UNINIT)

    Exec Addr    Load Addr    Size         Type   Attr      Idx    E Section Name        Object

    0x40038000        -       0x00000258   Zero   RW         3788    .ARM.__AT_0x40038000  txf5200.o


==============================================================================

Image component sizes


      Code (inc. data)   RO Data    RW Data    ZI Data      Debug   Object Name

         0          0          0          0          0       1444   app_soft_timer.o
         0          0          0         20          0       2608   dev.o
       720        118         32         56          0       7059   drv_key.o
       904         50         32         74          0       8359   drv_led.o
       492         50         32         12          0       5808   drv_soft_timer.o
       452         62         32          0         32      29609   drv_timer0.o
       382         54         32          1         40      30088   drv_usart.o
      1120        536         65         40         32      63152   main.o
       546         16          0          0          0       5040   rc523_cfg.o
      1670          0          0          0          0      10632   rc523_drv.o
      2592       1346          0         62         44       6846   tsk_card.o
        68         48          0          0          0       1134   tx_phe_assert.o
       168         32          0         20          0      37512   tx_phe_debug.o
       414         18          0          0          0      44752   tx_phe_irq.o
         0          0          0          0          0       3432   tx_phe_ll_can.o
      1758         94         16          0          0       6862   tx_phe_ll_cc_rst.o
       474        136          0          0          0      14612   tx_phe_ll_eflash.o
       304        130          0          0          0       1857   tx_phe_ll_gpio.o
      1888        300          0          0          0       5057   tx_phe_ll_timer.o
       806        248          0          0          0       4006   tx_phe_ll_usart.o
        20          0        316          0          0       1959   tx_phe_startup.o
      1692        904          0         28          0      41133   tx_phe_system.o
         0          0          0          0       7116       2616   txf5200.o

    ----------------------------------------------------------------------
     16482       4142        592        320      11344     335577   Object Totals
         0          0         32          0       4080          0   (incl. Generated)
        12          0          3          7          0          0   (incl. Padding)

    ----------------------------------------------------------------------

      Code (inc. data)   RO Data    RW Data    ZI Data      Debug   Library Member Name

        86          0          0          0          0          0   __dczerorl2.o
         0          0          0          0          0          0   entry.o
         0          0          0          0          0          0   entry10a.o
         0          0          0          0          0          0   entry11a.o
         4          0          0          0          0          0   entry12b.o
         8          4          0          0          0          0   entry4.o
         4          0          0          0          0          0   entry5.o
         0          0          0          0          0          0   entry7b.o
         0          0          0          0          0          0   entry8b.o
         8          4          0          0          0          0   entry9a.o
        30          0          0          0          0          0   handlers.o
        36          8          0          0          0         68   init.o
        30          0          0          0          0         68   llshl.o
        32          0          0          0          0         68   llushr.o
        36          0          0          0          0         68   memcpya.o
        36          0          0          0          0        108   memseta.o
      1142         54          0          0          0        352   printf8.o
        12          0          0          0          0         68   toupper.o
        98          0          0          0          0         92   uldiv.o

    ----------------------------------------------------------------------
      1566         70          0          0          0        892   Library Totals
         4          0          0          0          0          0   (incl. Padding)

    ----------------------------------------------------------------------

      Code (inc. data)   RO Data    RW Data    ZI Data      Debug   Library Name

      1562         70          0          0          0        892   mc_w.l

    ----------------------------------------------------------------------
      1566         70          0          0          0        892   Library Totals

    ----------------------------------------------------------------------

==============================================================================


      Code (inc. data)   RO Data    RW Data    ZI Data      Debug   

     18048       4212        592        320      11344     327341   Grand Totals
     18048       4212        592        128      11344     327341   ELF Image Totals (compressed)
     18048       4212        592        128          0          0   ROM Totals

==============================================================================

    Total RO  Size (Code + RO Data)                18640 (  18.20kB)
    Total RW  Size (RW Data + ZI Data)             11664 (  11.39kB)
    Total ROM Size (Code + RO Data + RW Data)      18768 (  18.33kB)

==============================================================================

