Component: ARM Compiler 5.06 update 7 (build 960) Tool: armlink [4d3601]

==============================================================================

Section Cross References

    main.o(i.ledprocess) refers to chead.o(.bss) for ev7kw
    main.o(i.ledprocess) refers to main.o(.data) for .data
    main.o(i.ledprocess) refers to chead.o(.data) for login_ok
    main.o(i.main) refers to tx_phe_ll_gpio.o(i.ll_gpio_dir) for ll_gpio_dir
    main.o(i.main) refers to tx_phe_ll_gpio.o(i.ll_gpio_pull) for ll_gpio_pull
    main.o(i.main) refers to chead.o(i.param_init) for param_init
    main.o(i.main) refers to utimer.o(i.utimer_init) for utimer_init
    main.o(i.main) refers to utimer.o(i.utimer_config) for utimer_config
    main.o(i.main) refers to serial.o(i.serial_init) for serial_init
    main.o(i.main) refers to serial.o(i.serial_config) for serial_config
    main.o(i.main) refers to utimer.o(i.utimer_start) for utimer_start
    main.o(i.main) refers to utimer.o(i.timer1_init) for timer1_init
    main.o(i.main) refers to utimer.o(i.timer1_config) for timer1_config
    main.o(i.main) refers to chead.o(i.km1_off) for km1_off
    main.o(i.main) refers to modules_init.o(i.epwm_init) for epwm_init
    main.o(i.main) refers to modules_init.o(i.epwm_config) for epwm_config
    main.o(i.main) refers to modules_init.o(i.epwm_stop) for epwm_stop
    main.o(i.main) refers to user.o(i.usart2_init) for usart2_init
==============================================================================

Removing Unused input sections from the image.

    Removing main.o(.rev16_text), (4 bytes).
    Removing main.o(.revsh_text), (4 bytes).
    Removing main.o(.rrx_text), (6 bytes).
    Removing tx_phe_irq.o(.rev16_text), (4 bytes).
    Removing tx_phe_irq.o(.revsh_text), (4 bytes).
    Removing tx_phe_irq.o(.rrx_text), (6 bytes).
    Removing user.o(.rev16_text), (4 bytes).
    Removing user.o(.revsh_text), (4 bytes).
    Removing user.o(.rrx_text), (6 bytes).
    Removing user.o(i.modbus_config), (2 bytes).
    Removing user.o(i.modbus_deinit), (2 bytes).
    Removing user.o(i.modbus_handle), (6 bytes).
    Removing user.o(i.modbus_init), (56 bytes).
    Removing user.o(i.modbus_start), (48 bytes).
    Removing user.o(i.modbus_stop), (48 bytes).
    Removing user.o(i.usart_config), (64 bytes).
    Removing user.o(i.usart_deinit), (12 bytes).
    Removing user.o(i.usart_init), (20 bytes).
==============================================================================

Image Symbol Table

    Local Symbols

    Symbol Name                              Value     Ov Type        Size  Object(Section)

    ../clib/../cmprslib/zerorunl2.c          0x00000000   Number         0  __dczerorl2.o ABSOLUTE
    ../clib/microlib/division.c              0x00000000   Number         0  uidiv.o ABSOLUTE
    ../clib/microlib/division.c              0x00000000   Number         0  uldiv.o ABSOLUTE
    ../clib/microlib/init/entry.s            0x00000000   Number         0  entry9a.o ABSOLUTE
    ../clib/microlib/init/entry.s            0x00000000   Number         0  entry8b.o ABSOLUTE
    ../clib/microlib/init/entry.s            0x00000000   Number         0  entry9b.o ABSOLUTE
    ../clib/microlib/init/entry.s            0x00000000   Number         0  entry8a.o ABSOLUTE
    ../clib/microlib/init/entry.s            0x00000000   Number         0  entry10a.o ABSOLUTE
    ../clib/microlib/init/entry.s            0x00000000   Number         0  entry7b.o ABSOLUTE
    ../clib/microlib/init/entry.s            0x00000000   Number         0  entry7a.o ABSOLUTE
    ../clib/microlib/init/entry.s            0x00000000   Number         0  entry10b.o ABSOLUTE
    ../clib/microlib/init/entry.s            0x00000000   Number         0  entry.o ABSOLUTE
    ../clib/microlib/init/entry.s            0x00000000   Number         0  entry11a.o ABSOLUTE
    ../clib/microlib/init/entry.s            0x00000000   Number         0  entry5.o ABSOLUTE
    ../clib/microlib/init/entry.s            0x00000000   Number         0  entry11b.o ABSOLUTE
    ../clib/microlib/init/entry.s            0x00000000   Number         0  entry12a.o ABSOLUTE
    ../clib/microlib/init/entry.s            0x00000000   Number         0  entry4.o ABSOLUTE
    ../clib/microlib/init/entry.s            0x00000000   Number         0  entry12b.o ABSOLUTE
    ../clib/microlib/longlong.c              0x00000000   Number         0  llshl.o ABSOLUTE
    ../clib/microlib/longlong.c              0x00000000   Number         0  llushr.o ABSOLUTE
    ../clib/microlib/longlong.c              0x00000000   Number         0  llsshr.o ABSOLUTE
    ../clib/microlib/printf/printf.c         0x00000000   Number         0  printf5.o ABSOLUTE
    ../clib/microlib/printf/printf.c         0x00000000   Number         0  printf7.o ABSOLUTE
    ../clib/microlib/printf/printf.c         0x00000000   Number         0  printf8.o ABSOLUTE
    ../clib/microlib/printf/printf.c         0x00000000   Number         0  printf3.o ABSOLUTE
    ../clib/microlib/printf/printf.c         0x00000000   Number         0  printfa.o ABSOLUTE
    ../clib/microlib/printf/printf.c         0x00000000   Number         0  printf6.o ABSOLUTE
    ../clib/microlib/printf/printf.c         0x00000000   Number         0  printfb.o ABSOLUTE
    ../clib/microlib/printf/printf.c         0x00000000   Number         0  printf0.o ABSOLUTE
    ../clib/microlib/printf/printf.c         0x00000000   Number         0  printf1.o ABSOLUTE
    ../clib/microlib/printf/printf.c         0x00000000   Number         0  printf2.o ABSOLUTE
    ../clib/microlib/printf/printf.c         0x00000000   Number         0  printf4.o ABSOLUTE
    ../clib/microlib/printf/stubs.s          0x00000000   Number         0  stubs.o ABSOLUTE
    ../clib/microlib/string/memcpy.c         0x00000000   Number         0  memcpyb.o ABSOLUTE
    ../clib/microlib/string/memcpy.c         0x00000000   Number         0  memcpya.o ABSOLUTE
    ../clib/microlib/string/memset.c         0x00000000   Number         0  memseta.o ABSOLUTE
    ../clib/microlib/stubs.s                 0x00000000   Number         0  iusefp.o ABSOLUTE
    ../clib/microlib/stubs.s                 0x00000000   Number         0  useno.o ABSOLUTE
    ../fplib/microlib/fpadd.c                0x00000000   Number         0  dadd.o ABSOLUTE
    ../fplib/microlib/fpdiv.c                0x00000000   Number         0  fdiv.o ABSOLUTE
    ../fplib/microlib/fpdiv.c                0x00000000   Number         0  ddiv.o ABSOLUTE
    ../fplib/microlib/fpepilogue.c           0x00000000   Number         0  depilogue.o ABSOLUTE
    ../fplib/microlib/fpepilogue.c           0x00000000   Number         0  fepilogue.o ABSOLUTE
    ../fplib/microlib/fpfix.c                0x00000000   Number         0  dfixui.o ABSOLUTE
    ../fplib/microlib/fpfix.c                0x00000000   Number         0  dfixul.o ABSOLUTE
    ../fplib/microlib/fpflt.c                0x00000000   Number         0  ffltui.o ABSOLUTE
    ../fplib/microlib/fpflt.c                0x00000000   Number         0  dfltui.o ABSOLUTE
    ../fplib/microlib/fpmul.c                0x00000000   Number         0  dmul.o ABSOLUTE
    ..\..\..\..\Libraries\Device\Phoenix\source\startup\arm\tx_phe_startup.c 0x00000000   Number         0  tx_phe_startup.o ABSOLUTE
    ..\..\..\..\Libraries\Device\Phoenix\source\tx_phe_assert.c 0x00000000   Number         0  tx_phe_assert.o ABSOLUTE
    ..\..\..\..\Libraries\Device\Phoenix\source\tx_phe_debug.c 0x00000000   Number         0  tx_phe_debug.o ABSOLUTE
    ..\..\..\..\Libraries\Device\Phoenix\source\tx_phe_itm.c 0x00000000   Number         0  tx_phe_itm.o ABSOLUTE
    ..\..\..\..\Libraries\Device\Phoenix\source\tx_phe_misc.c 0x00000000   Number         0  tx_phe_misc.o ABSOLUTE
    ..\..\..\..\Libraries\Device\Phoenix\source\tx_phe_system.c 0x00000000   Number         0  tx_phe_system.o ABSOLUTE
    ..\..\..\..\Libraries\Device\Phoenix\source\txf5200.c 0x00000000   Number         0  txf5200.o ABSOLUTE
    ..\..\..\..\Libraries\Device\Phoenix\source\txf6200.c 0x00000000   Number         0  txf6200.o ABSOLUTE
    ..\..\..\..\Libraries\Driver\source\LL\tx_phe_ll_arctan.c 0x00000000   Number         0  tx_phe_ll_arctan.o ABSOLUTE
    ..\..\..\..\Libraries\Driver\source\LL\tx_phe_ll_can.c 0x00000000   Number         0  tx_phe_ll_can.o ABSOLUTE
    ..\..\..\..\Libraries\Driver\source\LL\tx_phe_ll_cc_rst.c 0x00000000   Number         0  tx_phe_ll_cc_rst.o ABSOLUTE
    ..\..\..\..\Libraries\Driver\source\LL\tx_phe_ll_crc.c 0x00000000   Number         0  tx_phe_ll_crc.o ABSOLUTE
    ..\..\..\..\Libraries\Driver\source\LL\tx_phe_ll_datadma.c 0x00000000   Number         0  tx_phe_ll_datadma.o ABSOLUTE
    ..\..\..\..\Libraries\Driver\source\LL\tx_phe_ll_dftrans.c 0x00000000   Number         0  tx_phe_ll_dftrans.o ABSOLUTE
    ..\..\..\..\Libraries\Driver\source\LL\tx_phe_ll_dmac.c 0x00000000   Number         0  tx_phe_ll_dmac.o ABSOLUTE
    ..\..\..\..\Libraries\Driver\source\LL\tx_phe_ll_eflash.c 0x00000000   Number         0  tx_phe_ll_eflash.o ABSOLUTE
    ..\..\..\..\Libraries\Driver\source\LL\tx_phe_ll_epwm.c 0x00000000   Number         0  tx_phe_ll_epwm.o ABSOLUTE
    ..\..\..\..\Libraries\Driver\source\LL\tx_phe_ll_evsys.c 0x00000000   Number         0  tx_phe_ll_evsys.o ABSOLUTE
    ..\..\..\..\Libraries\Driver\source\LL\tx_phe_ll_fadc.c 0x00000000   Number         0  tx_phe_ll_fadc.o ABSOLUTE
    ..\..\..\..\Libraries\Driver\source\LL\tx_phe_ll_fft.c 0x00000000   Number         0  tx_phe_ll_fft.o ABSOLUTE
    ..\..\..\..\Libraries\Driver\source\LL\tx_phe_ll_fir.c 0x00000000   Number         0  tx_phe_ll_fir.o ABSOLUTE
    ..\..\..\..\Libraries\Driver\source\LL\tx_phe_ll_gpio.c 0x00000000   Number         0  tx_phe_ll_gpio.o ABSOLUTE
    ..\..\..\..\Libraries\Driver\source\LL\tx_phe_ll_hcc.c 0x00000000   Number         0  tx_phe_ll_hcc.o ABSOLUTE
    ..\..\..\..\Libraries\Driver\source\LL\tx_phe_ll_iic.c 0x00000000   Number         0  tx_phe_ll_iic.o ABSOLUTE
    ..\..\..\..\Libraries\Driver\source\LL\tx_phe_ll_iir.c 0x00000000   Number         0  tx_phe_ll_iir.o ABSOLUTE
    ..\..\..\..\Libraries\Driver\source\LL\tx_phe_ll_mac.c 0x00000000   Number         0  tx_phe_ll_mac.o ABSOLUTE
    ..\..\..\..\Libraries\Driver\source\LL\tx_phe_ll_matrix.c 0x00000000   Number         0  tx_phe_ll_matrix.o ABSOLUTE
    ..\..\..\..\Libraries\Driver\source\LL\tx_phe_ll_qei.c 0x00000000   Number         0  tx_phe_ll_qei.o ABSOLUTE
    ..\..\..\..\Libraries\Driver\source\LL\tx_phe_ll_rms.c 0x00000000   Number         0  tx_phe_ll_rms.o ABSOLUTE
    ..\..\..\..\Libraries\Driver\source\LL\tx_phe_ll_saradc.c 0x00000000   Number         0  tx_phe_ll_saradc.o ABSOLUTE
    ..\..\..\..\Libraries\Driver\source\LL\tx_phe_ll_sincos.c 0x00000000   Number         0  tx_phe_ll_sincos.o ABSOLUTE
    ..\..\..\..\Libraries\Driver\source\LL\tx_phe_ll_spi.c 0x00000000   Number         0  tx_phe_ll_spi.o ABSOLUTE
    ..\..\..\..\Libraries\Driver\source\LL\tx_phe_ll_spwm.c 0x00000000   Number         0  tx_phe_ll_spwm.o ABSOLUTE
    ..\..\..\..\Libraries\Driver\source\LL\tx_phe_ll_svpwm.c 0x00000000   Number         0  tx_phe_ll_svpwm.o ABSOLUTE
    ..\..\..\..\Libraries\Driver\source\LL\tx_phe_ll_timer.c 0x00000000   Number         0  tx_phe_ll_timer.o ABSOLUTE
    ..\..\..\..\Libraries\Driver\source\LL\tx_phe_ll_usart.c 0x00000000   Number         0  tx_phe_ll_usart.o ABSOLUTE
    ..\..\..\..\Libraries\Driver\source\LL\tx_phe_ll_wdt.c 0x00000000   Number         0  tx_phe_ll_wdt.o ABSOLUTE
    ..\..\..\..\Libraries\Protocol\Modbus\Trans_mode\mbascii.c 0x00000000   Number         0  mbascii.o ABSOLUTE
    ..\..\..\..\Libraries\Protocol\Modbus\Trans_mode\mbcrc.c 0x00000000   Number         0  mbcrc.o ABSOLUTE
    ..\..\..\..\Libraries\Protocol\Modbus\Trans_mode\mbrtu.c 0x00000000   Number         0  mbrtu.o ABSOLUTE
    ..\..\..\..\Libraries\Protocol\Modbus\Trans_mode\mbtcp.c 0x00000000   Number         0  mbtcp.o ABSOLUTE
    ..\..\..\..\Libraries\Protocol\Modbus\functions\mbfunccoils.c 0x00000000   Number         0  mbfunccoils.o ABSOLUTE
    ..\..\..\..\Libraries\Protocol\Modbus\functions\mbfuncdiag.c 0x00000000   Number         0  mbfuncdiag.o ABSOLUTE
    ..\..\..\..\Libraries\Protocol\Modbus\functions\mbfuncdisc.c 0x00000000   Number         0  mbfuncdisc.o ABSOLUTE
    ..\..\..\..\Libraries\Protocol\Modbus\functions\mbfuncholding.c 0x00000000   Number         0  mbfuncholding.o ABSOLUTE
    ..\..\..\..\Libraries\Protocol\Modbus\functions\mbfuncinput.c 0x00000000   Number         0  mbfuncinput.o ABSOLUTE
    ..\..\..\..\Libraries\Protocol\Modbus\functions\mbfuncother.c 0x00000000   Number         0  mbfuncother.o ABSOLUTE
    ..\..\..\..\Libraries\Protocol\Modbus\functions\mbutils.c 0x00000000   Number         0  mbutils.o ABSOLUTE
    ..\..\..\..\Libraries\Protocol\Modbus\mb.c 0x00000000   Number         0  mb.o ABSOLUTE
    ..\..\..\..\Libraries\Protocol\Modbus\port\mbportevent.c 0x00000000   Number         0  mbportevent.o ABSOLUTE
    ..\..\..\..\Libraries\Protocol\net\phy\phy.c 0x00000000   Number         0  phy.o ABSOLUTE
    ..\..\..\..\Libraries\Protocol\net\phy\phy_device.c 0x00000000   Number         0  phy_device.o ABSOLUTE
    ..\..\..\..\User\LL\chead.c              0x00000000   Number         0  chead.o ABSOLUTE
    ..\..\..\..\User\LL\crccheck.c           0x00000000   Number         0  crccheck.o ABSOLUTE
    ..\..\..\..\User\LL\eflash.c             0x00000000   Number         0  eflash.o ABSOLUTE
    ..\..\..\..\User\LL\lcd12864_app.c       0x00000000   Number         0  lcd12864_app.o ABSOLUTE
    ..\..\..\..\User\LL\lcd12864_drv.c       0x00000000   Number         0  lcd12864_drv.o ABSOLUTE
    ..\..\..\..\User\LL\main.c               0x00000000   Number         0  main.o ABSOLUTE
    ..\..\..\..\User\LL\modules_init.c       0x00000000   Number         0  modules_init.o ABSOLUTE
    ..\..\..\..\User\LL\nfc_app.c            0x00000000   Number         0  nfc_app.o ABSOLUTE
    ..\..\..\..\User\LL\proto.c              0x00000000   Number         0  proto.o ABSOLUTE
    ..\..\..\..\User\LL\rc523_cfg.c          0x00000000   Number         0  rc523_cfg.o ABSOLUTE
    ..\..\..\..\User\LL\rc523_drv.c          0x00000000   Number         0  rc523_drv.o ABSOLUTE
    ..\..\..\..\User\LL\save_printf.c        0x00000000   Number         0  save_printf.o ABSOLUTE
    ..\..\..\..\User\LL\serial.c             0x00000000   Number         0  serial.o ABSOLUTE
    ..\..\..\..\User\LL\slave.c              0x00000000   Number         0  slave.o ABSOLUTE
    ..\..\..\..\User\LL\tx_phe_irq.c         0x00000000   Number         0  tx_phe_irq.o ABSOLUTE
    ..\..\..\..\User\LL\user.c               0x00000000   Number         0  user.o ABSOLUTE
    ..\..\..\..\User\LL\utimer.c             0x00000000   Number         0  utimer.o ABSOLUTE
    ..\\..\\..\\..\\Libraries\\Device\\Phoenix\\source\\startup\\arm\\tx_phe_startup.c 0x00000000   Number         0  tx_phe_startup.o ABSOLUTE
    ..\\..\\..\\..\\Libraries\\Device\\Phoenix\\source\\tx_phe_assert.c 0x00000000   Number         0  tx_phe_assert.o ABSOLUTE
    ..\\..\\..\\..\\Libraries\\Device\\Phoenix\\source\\tx_phe_debug.c 0x00000000   Number         0  tx_phe_debug.o ABSOLUTE
    ..\\..\\..\\..\\Libraries\\Device\\Phoenix\\source\\tx_phe_misc.c 0x00000000   Number         0  tx_phe_misc.o ABSOLUTE
    ..\\..\\..\\..\\Libraries\\Device\\Phoenix\\source\\tx_phe_system.c 0x00000000   Number         0  tx_phe_system.o ABSOLUTE
    ..\\..\\..\\..\\Libraries\\Device\\Phoenix\\source\\txf5200.c 0x00000000   Number         0  txf5200.o ABSOLUTE
    ..\\..\\..\\..\\Libraries\\Device\\Phoenix\\source\\txf6200.c 0x00000000   Number         0  txf6200.o ABSOLUTE
    ..\\..\\..\\..\\Libraries\\Driver\\source\\LL\\tx_phe_ll_arctan.c 0x00000000   Number         0  tx_phe_ll_arctan.o ABSOLUTE
    ..\\..\\..\\..\\Libraries\\Driver\\source\\LL\\tx_phe_ll_can.c 0x00000000   Number         0  tx_phe_ll_can.o ABSOLUTE
    ..\\..\\..\\..\\Libraries\\Driver\\source\\LL\\tx_phe_ll_cc_rst.c 0x00000000   Number         0  tx_phe_ll_cc_rst.o ABSOLUTE
    ..\\..\\..\\..\\Libraries\\Driver\\source\\LL\\tx_phe_ll_crc.c 0x00000000   Number         0  tx_phe_ll_crc.o ABSOLUTE
    ..\\..\\..\\..\\Libraries\\Driver\\source\\LL\\tx_phe_ll_datadma.c 0x00000000   Number         0  tx_phe_ll_datadma.o ABSOLUTE
    ..\\..\\..\\..\\Libraries\\Driver\\source\\LL\\tx_phe_ll_dftrans.c 0x00000000   Number         0  tx_phe_ll_dftrans.o ABSOLUTE
    ..\\..\\..\\..\\Libraries\\Driver\\source\\LL\\tx_phe_ll_dmac.c 0x00000000   Number         0  tx_phe_ll_dmac.o ABSOLUTE
    ..\\..\\..\\..\\Libraries\\Driver\\source\\LL\\tx_phe_ll_eflash.c 0x00000000   Number         0  tx_phe_ll_eflash.o ABSOLUTE
    ..\\..\\..\\..\\Libraries\\Driver\\source\\LL\\tx_phe_ll_epwm.c 0x00000000   Number         0  tx_phe_ll_epwm.o ABSOLUTE
    ..\\..\\..\\..\\Libraries\\Driver\\source\\LL\\tx_phe_ll_evsys.c 0x00000000   Number         0  tx_phe_ll_evsys.o ABSOLUTE
    ..\\..\\..\\..\\Libraries\\Driver\\source\\LL\\tx_phe_ll_fadc.c 0x00000000   Number         0  tx_phe_ll_fadc.o ABSOLUTE
    ..\\..\\..\\..\\Libraries\\Driver\\source\\LL\\tx_phe_ll_fft.c 0x00000000   Number         0  tx_phe_ll_fft.o ABSOLUTE
    ..\\..\\..\\..\\Libraries\\Driver\\source\\LL\\tx_phe_ll_fir.c 0x00000000   Number         0  tx_phe_ll_fir.o ABSOLUTE
    ..\\..\\..\\..\\Libraries\\Driver\\source\\LL\\tx_phe_ll_gpio.c 0x00000000   Number         0  tx_phe_ll_gpio.o ABSOLUTE
    ..\\..\\..\\..\\Libraries\\Driver\\source\\LL\\tx_phe_ll_hcc.c 0x00000000   Number         0  tx_phe_ll_hcc.o ABSOLUTE
    ..\\..\\..\\..\\Libraries\\Driver\\source\\LL\\tx_phe_ll_iic.c 0x00000000   Number         0  tx_phe_ll_iic.o ABSOLUTE
    ..\\..\\..\\..\\Libraries\\Driver\\source\\LL\\tx_phe_ll_iir.c 0x00000000   Number         0  tx_phe_ll_iir.o ABSOLUTE
    ..\\..\\..\\..\\Libraries\\Driver\\source\\LL\\tx_phe_ll_mac.c 0x00000000   Number         0  tx_phe_ll_mac.o ABSOLUTE
    ..\\..\\..\\..\\Libraries\\Driver\\source\\LL\\tx_phe_ll_matrix.c 0x00000000   Number         0  tx_phe_ll_matrix.o ABSOLUTE
    ..\\..\\..\\..\\Libraries\\Driver\\source\\LL\\tx_phe_ll_qei.c 0x00000000   Number         0  tx_phe_ll_qei.o ABSOLUTE
    ..\\..\\..\\..\\Libraries\\Driver\\source\\LL\\tx_phe_ll_rms.c 0x00000000   Number         0  tx_phe_ll_rms.o ABSOLUTE
    ..\\..\\..\\..\\Libraries\\Driver\\source\\LL\\tx_phe_ll_saradc.c 0x00000000   Number         0  tx_phe_ll_saradc.o ABSOLUTE
    ..\\..\\..\\..\\Libraries\\Driver\\source\\LL\\tx_phe_ll_sincos.c 0x00000000   Number         0  tx_phe_ll_sincos.o ABSOLUTE
    ..\\..\\..\\..\\Libraries\\Driver\\source\\LL\\tx_phe_ll_spi.c 0x00000000   Number         0  tx_phe_ll_spi.o ABSOLUTE
    ..\\..\\..\\..\\Libraries\\Driver\\source\\LL\\tx_phe_ll_spwm.c 0x00000000   Number         0  tx_phe_ll_spwm.o ABSOLUTE
    ..\\..\\..\\..\\Libraries\\Driver\\source\\LL\\tx_phe_ll_svpwm.c 0x00000000   Number         0  tx_phe_ll_svpwm.o ABSOLUTE
    ..\\..\\..\\..\\Libraries\\Driver\\source\\LL\\tx_phe_ll_timer.c 0x00000000   Number         0  tx_phe_ll_timer.o ABSOLUTE
    ..\\..\\..\\..\\Libraries\\Driver\\source\\LL\\tx_phe_ll_usart.c 0x00000000   Number         0  tx_phe_ll_usart.o ABSOLUTE
    ..\\..\\..\\..\\Libraries\\Driver\\source\\LL\\tx_phe_ll_wdt.c 0x00000000   Number         0  tx_phe_ll_wdt.o ABSOLUTE
    ..\\..\\..\\..\\Libraries\\Protocol\\Modbus\\Trans_mode\\mbascii.c 0x00000000   Number         0  mbascii.o ABSOLUTE
    ..\\..\\..\\..\\Libraries\\Protocol\\Modbus\\Trans_mode\\mbrtu.c 0x00000000   Number         0  mbrtu.o ABSOLUTE
    ..\\..\\..\\..\\Libraries\\Protocol\\Modbus\\Trans_mode\\mbtcp.c 0x00000000   Number         0  mbtcp.o ABSOLUTE
    ..\\..\\..\\..\\Libraries\\Protocol\\Modbus\\functions\\mbfunccoils.c 0x00000000   Number         0  mbfunccoils.o ABSOLUTE
    ..\\..\\..\\..\\Libraries\\Protocol\\Modbus\\functions\\mbfuncdisc.c 0x00000000   Number         0  mbfuncdisc.o ABSOLUTE
    ..\\..\\..\\..\\Libraries\\Protocol\\Modbus\\functions\\mbfuncholding.c 0x00000000   Number         0  mbfuncholding.o ABSOLUTE
    ..\\..\\..\\..\\Libraries\\Protocol\\Modbus\\functions\\mbfuncinput.c 0x00000000   Number         0  mbfuncinput.o ABSOLUTE
    ..\\..\\..\\..\\Libraries\\Protocol\\Modbus\\functions\\mbfuncother.c 0x00000000   Number         0  mbfuncother.o ABSOLUTE
    ..\\..\\..\\..\\Libraries\\Protocol\\Modbus\\functions\\mbutils.c 0x00000000   Number         0  mbutils.o ABSOLUTE
    ..\\..\\..\\..\\Libraries\\Protocol\\Modbus\\mb.c 0x00000000   Number         0  mb.o ABSOLUTE
    ..\\..\\..\\..\\Libraries\\Protocol\\Modbus\\port\\mbportevent.c 0x00000000   Number         0  mbportevent.o ABSOLUTE
    ..\\..\\..\\..\\Libraries\\Protocol\\net\\phy\\phy.c 0x00000000   Number         0  phy.o ABSOLUTE
    ..\\..\\..\\..\\Libraries\\Protocol\\net\\phy\\phy_device.c 0x00000000   Number         0  phy_device.o ABSOLUTE
    ..\\..\\..\\..\\User\\LL\\chead.c        0x00000000   Number         0  chead.o ABSOLUTE
    ..\\..\\..\\..\\User\\LL\\crccheck.c     0x00000000   Number         0  crccheck.o ABSOLUTE
    ..\\..\\..\\..\\User\\LL\\eflash.c       0x00000000   Number         0  eflash.o ABSOLUTE
    ..\\..\\..\\..\\User\\LL\\lcd12864_app.c 0x00000000   Number         0  lcd12864_app.o ABSOLUTE
    ..\\..\\..\\..\\User\\LL\\lcd12864_drv.c 0x00000000   Number         0  lcd12864_drv.o ABSOLUTE
    ..\\..\\..\\..\\User\\LL\\main.c         0x00000000   Number         0  main.o ABSOLUTE
    ..\\..\\..\\..\\User\\LL\\modules_init.c 0x00000000   Number         0  modules_init.o ABSOLUTE
    ..\\..\\..\\..\\User\\LL\\nfc_app.c      0x00000000   Number         0  nfc_app.o ABSOLUTE
    ..\\..\\..\\..\\User\\LL\\proto.c        0x00000000   Number         0  proto.o ABSOLUTE
    ..\\..\\..\\..\\User\\LL\\rc523_cfg.c    0x00000000   Number         0  rc523_cfg.o ABSOLUTE
    ..\\..\\..\\..\\User\\LL\\rc523_drv.c    0x00000000   Number         0  rc523_drv.o ABSOLUTE
    ..\\..\\..\\..\\User\\LL\\save_printf.c  0x00000000   Number         0  save_printf.o ABSOLUTE
    ..\\..\\..\\..\\User\\LL\\serial.c       0x00000000   Number         0  serial.o ABSOLUTE
    ..\\..\\..\\..\\User\\LL\\slave.c        0x00000000   Number         0  slave.o ABSOLUTE
    ..\\..\\..\\..\\User\\LL\\tx_phe_irq.c   0x00000000   Number         0  tx_phe_irq.o ABSOLUTE
    ..\\..\\..\\..\\User\\LL\\user.c         0x00000000   Number         0  user.o ABSOLUTE
    ..\\..\\..\\..\\User\\LL\\utimer.c       0x00000000   Number         0  utimer.o ABSOLUTE
    cdrcmple.s                               0x00000000   Number         0  cdrcmple.o ABSOLUTE
    dc.s                                     0x00000000   Number         0  dc.o ABSOLUTE
    handlers.s                               0x00000000   Number         0  handlers.o ABSOLUTE
    init.s                                   0x00000000   Number         0  init.o ABSOLUTE
    RESET                                    0x08000000   Section      316  tx_phe_startup.o(RESET)
    .ARM.Collect$$$$00000000                 0x0800013c   Section        0  entry.o(.ARM.Collect$$$$00000000)
    .ARM.Collect$$$$00000003                 0x0800013c   Section        4  entry4.o(.ARM.Collect$$$$00000003)
    .ARM.Collect$$$$00000004                 0x08000140   Section        4  entry5.o(.ARM.Collect$$$$00000004)
    .ARM.Collect$$$$00000008                 0x08000144   Section        0  entry7b.o(.ARM.Collect$$$$00000008)
    .ARM.Collect$$$$0000000A                 0x08000144   Section        0  entry8b.o(.ARM.Collect$$$$0000000A)
    .ARM.Collect$$$$0000000B                 0x08000144   Section        8  entry9a.o(.ARM.Collect$$$$0000000B)
    .ARM.Collect$$$$0000000E                 0x0800014c   Section        4  entry12b.o(.ARM.Collect$$$$0000000E)
    .ARM.Collect$$$$0000000F                 0x08000150   Section        0  entry10a.o(.ARM.Collect$$$$0000000F)
    .ARM.Collect$$$$00000011                 0x08000150   Section        0  entry11a.o(.ARM.Collect$$$$00000011)
    .ARM.Collect$$$$00002714                 0x08000150   Section        4  entry4.o(.ARM.Collect$$$$00002714)
    __lit__00000000                          0x08000150   Data           4  entry4.o(.ARM.Collect$$$$00002714)
    .emb_text                                0x08000154   Section        6  tx_phe_system.o(.emb_text)
    .text                                    0x0800015a   Section        0  uldiv.o(.text)
    .text                                    0x080001bc   Section        0  memcpya.o(.text)
    .text                                    0x080001e0   Section        0  memseta.o(.text)
    .text                                    0x08000204   Section        0  dmul.o(.text)
    .text                                    0x080002e8   Section        0  dfltui.o(.text)
    .text                                    0x08000302   Section        0  dfixui.o(.text)
    .text                                    0x08000334   Section        0  llshl.o(.text)
    .text                                    0x08000352   Section        0  llushr.o(.text)
    .text                                    0x08000372   Section        0  iusefp.o(.text)
    .text                                    0x08000372   Section        0  depilogue.o(.text)
    .text                                    0x0800042c   Section       36  init.o(.text)
    .text                                    0x08000450   Section        0  __dczerorl2.o(.text)
    i.$Sub$$main                             0x080004a6   Section        0  tx_phe_startup.o(i.$Sub$$main)
    i.ADTIM0_IRQHandler                      0x080004b4   Section        0  tx_phe_irq.o(i.ADTIM0_IRQHandler)
    i.ARCTAN0_IRQHandler                     0x080004b6   Section        0  tx_phe_irq.o(i.ARCTAN0_IRQHandler)
    i.ARCTAN1_IRQHandler                     0x080004b8   Section        0  tx_phe_irq.o(i.ARCTAN1_IRQHandler)
    i.ARCTAN2_IRQHandler                     0x080004ba   Section        0  tx_phe_irq.o(i.ARCTAN2_IRQHandler)
    i.BusFault_Handler                       0x080004bc   Section        0  tx_phe_irq.o(i.BusFault_Handler)
    i.CAN_IRQHandler                         0x080004c2   Section        0  tx_phe_irq.o(i.CAN_IRQHandler)
    i.CRC_IRQHandler                         0x080004c4   Section        0  tx_phe_irq.o(i.CRC_IRQHandler)
    i.CalulateCRC                            0x080004c6   Section        0  rc523_drv.o(i.CalulateCRC)
    i.ClearBitMask                           0x0800052c   Section        0  rc523_drv.o(i.ClearBitMask)
    i.DATADMA_IRQHandler                     0x08000544   Section        0  tx_phe_irq.o(i.DATADMA_IRQHandler)
    i.DFTRANS0_IRQHandler                    0x08000546   Section        0  tx_phe_irq.o(i.DFTRANS0_IRQHandler)
    i.DFTRANS1_IRQHandler                    0x08000548   Section        0  tx_phe_irq.o(i.DFTRANS1_IRQHandler)
    i.DFTRANS2_IRQHandler                    0x0800054a   Section        0  tx_phe_irq.o(i.DFTRANS2_IRQHandler)
    i.DMA0_IRQHandler                        0x0800054c   Section        0  tx_phe_irq.o(i.DMA0_IRQHandler)
    i.DebugMon_Handler                       0x0800054e   Section        0  tx_phe_irq.o(i.DebugMon_Handler)
    i.EPWM_IRQHandler                        0x08000550   Section        0  tx_phe_irq.o(i.EPWM_IRQHandler)
    i.EVSYS_IRQHandler                       0x08000552   Section        0  tx_phe_irq.o(i.EVSYS_IRQHandler)
    i.FADC_IRQHandler                        0x08000554   Section        0  tx_phe_irq.o(i.FADC_IRQHandler)
    i.FFT0_IRQHandler                        0x08000574   Section        0  tx_phe_irq.o(i.FFT0_IRQHandler)
    i.FFT0_PREPROCESS_IRQHandler             0x08000576   Section        0  tx_phe_irq.o(i.FFT0_PREPROCESS_IRQHandler)
    i.FFT1_IRQHandler                        0x08000578   Section        0  tx_phe_irq.o(i.FFT1_IRQHandler)
    i.FFT1_PREPROCESS_IRQHandler             0x0800057a   Section        0  tx_phe_irq.o(i.FFT1_PREPROCESS_IRQHandler)
    i.FFT2_IRQHandler                        0x0800057c   Section        0  tx_phe_irq.o(i.FFT2_IRQHandler)
    i.FFT2_PREPROCESS_IRQHandler             0x0800057e   Section        0  tx_phe_irq.o(i.FFT2_PREPROCESS_IRQHandler)
    i.FIR0_IRQHandler                        0x08000580   Section        0  tx_phe_irq.o(i.FIR0_IRQHandler)
    i.FIR1_IRQHandler                        0x08000582   Section        0  tx_phe_irq.o(i.FIR1_IRQHandler)
    i.FIR2_IRQHandler                        0x08000584   Section        0  tx_phe_irq.o(i.FIR2_IRQHandler)
    i.GMAC_IRQHandler                        0x08000586   Section        0  tx_phe_irq.o(i.GMAC_IRQHandler)
    i.GPIOA_IRQHandler                       0x08000588   Section        0  tx_phe_irq.o(i.GPIOA_IRQHandler)
    i.GPIOB_IRQHandler                       0x0800058a   Section        0  tx_phe_irq.o(i.GPIOB_IRQHandler)
    i.GPIOC_IRQHandler                       0x0800058c   Section        0  tx_phe_irq.o(i.GPIOC_IRQHandler)
    i.GPIOD_IRQHandler                       0x0800058e   Section        0  tx_phe_irq.o(i.GPIOD_IRQHandler)
    i.HCC_IRQHandler                         0x08000590   Section        0  tx_phe_irq.o(i.HCC_IRQHandler)
    i.HardFault_Handler                      0x08000592   Section        0  tx_phe_irq.o(i.HardFault_Handler)
    i.IIC0_IRQHandler                        0x08000598   Section        0  tx_phe_irq.o(i.IIC0_IRQHandler)
    i.IIC1_IRQHandler                        0x0800059a   Section        0  tx_phe_irq.o(i.IIC1_IRQHandler)
    i.IIR0_IRQHandler                        0x0800059c   Section        0  tx_phe_irq.o(i.IIR0_IRQHandler)
    i.IIR1_IRQHandler                        0x0800059e   Section        0  tx_phe_irq.o(i.IIR1_IRQHandler)
    i.IIR2_IRQHandler                        0x080005a0   Section        0  tx_phe_irq.o(i.IIR2_IRQHandler)
    i.LCD_WriteCmd                           0x080005a4   Section        0  lcd12864_drv.o(i.LCD_WriteCmd)
    LCD_WriteCmd                             0x080005a5   Thumb Code    40  lcd12864_drv.o(i.LCD_WriteCmd)
    i.LCD_WriteData                          0x080005d0   Section        0  lcd12864_drv.o(i.LCD_WriteData)
    LCD_WriteData                            0x080005d1   Thumb Code    40  lcd12864_drv.o(i.LCD_WriteData)
    i.LCD_send_byte                          0x080005fc   Section        0  lcd12864_drv.o(i.LCD_send_byte)
    i.LVD_IRQHandler                         0x0800063c   Section        0  tx_phe_irq.o(i.LVD_IRQHandler)
    i.MATRIX_MULT_IRQHandler                 0x08000642   Section        0  tx_phe_irq.o(i.MATRIX_MULT_IRQHandler)
    i.MFRC522_SleepUS                        0x08000644   Section        0  rc523_drv.o(i.MFRC522_SleepUS)
    i.Main_Poll                              0x08000658   Section        0  user.o(i.Main_Poll)
    i.MemManage_Handler                      0x080006d4   Section        0  tx_phe_irq.o(i.MemManage_Handler)
    i.NMI_Handler                            0x080006da   Section        0  tx_phe_irq.o(i.NMI_Handler)
    i.NVIC_Init                              0x080006e0   Section        0  tx_phe_misc.o(i.NVIC_Init)
    i.PcdAntennaOn                           0x0800074c   Section        0  rc523_drv.o(i.PcdAntennaOn)
    i.PcdAnticoll                            0x08000766   Section        0  rc523_drv.o(i.PcdAnticoll)
    i.PcdAuthState                           0x08000808   Section        0  rc523_drv.o(i.PcdAuthState)
    i.PcdComMF522                            0x0800085a   Section        0  rc523_drv.o(i.PcdComMF522)
    i.PcdRead                                0x08000972   Section        0  rc523_drv.o(i.PcdRead)
    i.PcdRequest                             0x080009bc   Section        0  rc523_drv.o(i.PcdRequest)
    i.PcdReset                               0x08000a26   Section        0  rc523_drv.o(i.PcdReset)
    i.PcdSelect                              0x08000b4a   Section        0  rc523_drv.o(i.PcdSelect)
    i.PendSV_Handler                         0x08000bac   Section        0  tx_phe_irq.o(i.PendSV_Handler)
    i.QEI_IRQHandler                         0x08000bae   Section        0  tx_phe_irq.o(i.QEI_IRQHandler)
    i.RC523_Delay_Us                         0x08000bb0   Section        0  rc523_drv.o(i.RC523_Delay_Us)
    i.RMS0_IRQHandler                        0x08000bc2   Section        0  tx_phe_irq.o(i.RMS0_IRQHandler)
    i.RMS1_IRQHandler                        0x08000bc4   Section        0  tx_phe_irq.o(i.RMS1_IRQHandler)
    i.RMS2_IRQHandler                        0x08000bc6   Section        0  tx_phe_irq.o(i.RMS2_IRQHandler)
    i.ReadRawRC                              0x08000bc8   Section        0  rc523_cfg.o(i.ReadRawRC)
    i.Reset_Handler                          0x08000c74   Section        0  tx_phe_startup.o(i.Reset_Handler)
    __tagsym$$used                           0x08000c75   Number         0  tx_phe_startup.o(i.Reset_Handler)
    i.SARADC_IRQHandler                      0x08000c7a   Section        0  tx_phe_irq.o(i.SARADC_IRQHandler)
    i.SINCOS0_IRQHandler                     0x08000c7c   Section        0  tx_phe_irq.o(i.SINCOS0_IRQHandler)
    i.SINCOS1_IRQHandler                     0x08000c7e   Section        0  tx_phe_irq.o(i.SINCOS1_IRQHandler)
    i.SPI0_IRQHandler                        0x08000c80   Section        0  tx_phe_irq.o(i.SPI0_IRQHandler)
    i.SPI1_IRQHandler                        0x08000c82   Section        0  tx_phe_irq.o(i.SPI1_IRQHandler)
    i.SPWM_IRQHandler                        0x08000c84   Section        0  tx_phe_irq.o(i.SPWM_IRQHandler)
    i.SVC_Handler                            0x08000c86   Section        0  tx_phe_irq.o(i.SVC_Handler)
    i.SVPWM_IRQHandler                       0x08000c88   Section        0  tx_phe_irq.o(i.SVPWM_IRQHandler)
    i.Senddata                               0x08000c8c   Section        0  proto.o(i.Senddata)
    i.SetBitMask                             0x08000d2c   Section        0  rc523_drv.o(i.SetBitMask)
    i.SysTick_Handler                        0x08000d44   Section        0  tx_phe_irq.o(i.SysTick_Handler)
    i.TIM0_IRQHandler                        0x08000d54   Section        0  tx_phe_irq.o(i.TIM0_IRQHandler)
    i.TIM1_IRQHandler                        0x08000ff4   Section        0  tx_phe_irq.o(i.TIM1_IRQHandler)
    i.TIM2_IRQHandler                        0x0800102c   Section        0  tx_phe_irq.o(i.TIM2_IRQHandler)
    i.TIM3_IRQHandler                        0x08001064   Section        0  tx_phe_irq.o(i.TIM3_IRQHandler)
    i.TIM4_IRQHandler                        0x0800109c   Section        0  tx_phe_irq.o(i.TIM4_IRQHandler)
    i.TIM5_IRQHandler                        0x080010cc   Section        0  tx_phe_irq.o(i.TIM5_IRQHandler)
    i.TIM6_IRQHandler                        0x08001104   Section        0  tx_phe_irq.o(i.TIM6_IRQHandler)
    i.TIM7_IRQHandler                        0x0800113c   Section        0  tx_phe_irq.o(i.TIM7_IRQHandler)
    i.USART0_IRQHandler                      0x08001174   Section        0  tx_phe_irq.o(i.USART0_IRQHandler)
    i.USART1_IRQHandler                      0x080011f0   Section        0  tx_phe_irq.o(i.USART1_IRQHandler)
    i.USART2_IRQHandler                      0x0800121c   Section        0  tx_phe_irq.o(i.USART2_IRQHandler)
    i.Upload_server                          0x080012a0   Section        0  proto.o(i.Upload_server)
    i.UsageFault_Handler                     0x08001938   Section        0  tx_phe_irq.o(i.UsageFault_Handler)
    i.WAKEUP_IRQHandler                      0x0800193e   Section        0  tx_phe_irq.o(i.WAKEUP_IRQHandler)
    i.WDT_IRQHandler                         0x08001940   Section        0  tx_phe_irq.o(i.WDT_IRQHandler)
    i.WriteRawRC                             0x08001954   Section        0  rc523_cfg.o(i.WriteRawRC)
    i.__0printf$8                            0x08001a00   Section        0  printf8.o(i.__0printf$8)
    i.__scatterload_copy                     0x08001a20   Section       14  handlers.o(i.__scatterload_copy)
    i.__scatterload_null                     0x08001a2e   Section        2  handlers.o(i.__scatterload_null)
    i.__scatterload_zeroinit                 0x08001a30   Section       14  handlers.o(i.__scatterload_zeroinit)
    i._printf_core                           0x08001a40   Section        0  printf8.o(i._printf_core)
    _printf_core                             0x08001a41   Thumb Code   984  printf8.o(i._printf_core)
    i._printf_post_padding                   0x08001e44   Section        0  printf8.o(i._printf_post_padding)
    _printf_post_padding                     0x08001e45   Thumb Code    36  printf8.o(i._printf_post_padding)
    i._printf_pre_padding                    0x08001e68   Section        0  printf8.o(i._printf_pre_padding)
    _printf_pre_padding                      0x08001e69   Thumb Code    46  printf8.o(i._printf_pre_padding)
    i.card_id_encryption                     0x08001e98   Section        0  nfc_app.o(i.card_id_encryption)
    card_id_encryption                       0x08001e99   Thumb Code   120  nfc_app.o(i.card_id_encryption)
    i.charge_process                         0x08001f14   Section        0  chead.o(i.charge_process)
    i.clr_all                                0x08002050   Section        0  lcd12864_drv.o(i.clr_all)
    i.clr_bmp                                0x080020b0   Section        0  lcd12864_drv.o(i.clr_bmp)
    i.clr_txt                                0x080020e4   Section        0  lcd12864_drv.o(i.clr_txt)
    i.constant_parameter_updata              0x0800210c   Section        0  chead.o(i.constant_parameter_updata)
    i.crccheck                               0x08002134   Section        0  crccheck.o(i.crccheck)
    i.debug_select_interface                 0x08002168   Section        0  tx_phe_debug.o(i.debug_select_interface)
    i.delay_ms                               0x08002194   Section        0  tx_phe_system.o(i.delay_ms)
    i.delay_us                               0x080021c0   Section        0  tx_phe_system.o(i.delay_us)
    i.dev_sn_encryption                      0x080021e8   Section        0  nfc_app.o(i.dev_sn_encryption)
    dev_sn_encryption                        0x080021e9   Thumb Code    38  nfc_app.o(i.dev_sn_encryption)
    i.display_16x16graphic                   0x08002214   Section        0  lcd12864_drv.o(i.display_16x16graphic)
    i.display_16x32graphic                   0x08002282   Section        0  lcd12864_drv.o(i.display_16x32graphic)
    i.display_64x64graphic                   0x0800234c   Section        0  lcd12864_drv.o(i.display_64x64graphic)
    i.display_chinese                        0x0800241a   Section        0  lcd12864_drv.o(i.display_chinese)
    i.dump_fault_state                       0x08002490   Section        0  tx_phe_system.o(i.dump_fault_state)
    i.eflash_read_check                      0x08002964   Section        0  eflash.o(i.eflash_read_check)
    i.eflash_read_sector                     0x08002998   Section        0  eflash.o(i.eflash_read_sector)
    i.eflash_write_sector                    0x080029c4   Section        0  eflash.o(i.eflash_write_sector)
    i.epwm_config                            0x08002a08   Section        0  modules_init.o(i.epwm_config)
    i.epwm_init                              0x08002a6c   Section        0  modules_init.o(i.epwm_init)
    i.epwm_start                             0x08002a88   Section        0  modules_init.o(i.epwm_start)
    i.epwm_stop                              0x08002a94   Section        0  modules_init.o(i.epwm_stop)
    i.ev7kw_numtrans                         0x08002aa4   Section        0  lcd12864_app.o(i.ev7kw_numtrans)
    i.fputc                                  0x08002adc   Section        0  tx_phe_debug.o(i.fputc)
    i.frame_get                              0x08002b20   Section        0  proto.o(i.frame_get)
    i.hex_2_char                             0x08002b4c   Section        0  lcd12864_app.o(i.hex_2_char)
    i.km1_off                                0x08002b64   Section        0  chead.o(i.km1_off)
    i.km1_on                                 0x08002b68   Section        0  chead.o(i.km1_on)
    i.km_control                             0x08002b80   Section        0  slave.o(i.km_control)
    i.lcd_updata                             0x08002b84   Section        0  lcd12864_app.o(i.lcd_updata)
    i.ledprocess                             0x08003220   Section        0  main.o(i.ledprocess)
    i.ll_cc_adcpll_set                       0x080032b4   Section        0  tx_phe_ll_cc_rst.o(i.ll_cc_adcpll_set)
    i.ll_cc_clk_div_config                   0x0800346c   Section        0  tx_phe_ll_cc_rst.o(i.ll_cc_clk_div_config)
    i.ll_cc_rst_delay5ms_32khz               0x080034ec   Section        0  tx_phe_ll_cc_rst.o(i.ll_cc_rst_delay5ms_32khz)
    i.ll_cc_sys_clk_get                      0x08003504   Section        0  tx_phe_ll_cc_rst.o(i.ll_cc_sys_clk_get)
    i.ll_cc_syspll_set                       0x08003564   Section        0  tx_phe_ll_cc_rst.o(i.ll_cc_syspll_set)
    i.ll_eflash_config                       0x08003794   Section        0  tx_phe_ll_eflash.o(i.ll_eflash_config)
    i.ll_eflash_erase_sector                 0x08003840   Section        0  tx_phe_ll_eflash.o(i.ll_eflash_erase_sector)
    i.ll_eflash_init                         0x080038bc   Section        0  tx_phe_ll_eflash.o(i.ll_eflash_init)
    i.ll_eflash_prog_word                    0x0800396c   Section        0  tx_phe_ll_eflash.o(i.ll_eflash_prog_word)
    i.ll_epwm_config                         0x080039e8   Section        0  tx_phe_ll_epwm.o(i.ll_epwm_config)
    i.ll_epwm_init                           0x080041d0   Section        0  tx_phe_ll_epwm.o(i.ll_epwm_init)
    i.ll_epwm_start                          0x080042a0   Section        0  tx_phe_ll_epwm.o(i.ll_epwm_start)
    i.ll_epwm_stop                           0x08004328   Section        0  tx_phe_ll_epwm.o(i.ll_epwm_stop)
    i.ll_gpio_dir                            0x080043d4   Section        0  tx_phe_ll_gpio.o(i.ll_gpio_dir)
    i.ll_gpio_pull                           0x08004458   Section        0  tx_phe_ll_gpio.o(i.ll_gpio_pull)
    i.ll_gpio_read_data_bit                  0x08004500   Section        0  tx_phe_irq.o(i.ll_gpio_read_data_bit)
    ll_gpio_read_data_bit                    0x08004501   Thumb Code    14  tx_phe_irq.o(i.ll_gpio_read_data_bit)
    i.ll_gpio_write_data_bit                 0x0800450e   Section        0  rc523_cfg.o(i.ll_gpio_write_data_bit)
    ll_gpio_write_data_bit                   0x0800450f   Thumb Code    14  rc523_cfg.o(i.ll_gpio_write_data_bit)
    i.ll_timer_config                        0x0800451c   Section        0  tx_phe_ll_timer.o(i.ll_timer_config)
    i.ll_timer_init                          0x080045e8   Section        0  tx_phe_ll_timer.o(i.ll_timer_init)
    i.ll_timer_io_map                        0x08004674   Section        0  tx_phe_ll_timer.o(i.ll_timer_io_map)
    i.ll_timer_irq_config                    0x08004924   Section        0  tx_phe_ll_timer.o(i.ll_timer_irq_config)
    i.ll_timer_start                         0x08004948   Section        0  tx_phe_ll_timer.o(i.ll_timer_start)
    i.ll_timer_stop                          0x080049e8   Section        0  tx_phe_ll_timer.o(i.ll_timer_stop)
    i.ll_usart232_config                     0x08004a80   Section        0  tx_phe_ll_usart.o(i.ll_usart232_config)
    i.ll_usart232_io_map                     0x08004b3c   Section        0  tx_phe_ll_usart.o(i.ll_usart232_io_map)
    i.ll_usart_init                          0x08004c2c   Section        0  tx_phe_ll_usart.o(i.ll_usart_init)
    i.ll_usart_irq_config                    0x08004c8c   Section        0  tx_phe_ll_usart.o(i.ll_usart_irq_config)
    i.main                                   0x08004cb8   Section        0  main.o(i.main)
    i.main_loop                              0x08004f18   Section        0  main.o(i.main_loop)
    i.meterdata_process                      0x08005118   Section        0  slave.o(i.meterdata_process)
    i.meterread_process                      0x080051b0   Section        0  slave.o(i.meterread_process)
    i.network                                0x080051f0   Section        0  main.o(i.network)
    i.nfc_init                               0x080053cc   Section        0  nfc_app.o(i.nfc_init)
    i.nfc_read_card                          0x080053e0   Section        0  nfc_app.o(i.nfc_read_card)
    i.order_clear                            0x08005478   Section        0  main.o(i.order_clear)
    i.param_init                             0x080054e4   Section        0  chead.o(i.param_init)
    i.param_save                             0x08005694   Section        0  chead.o(i.param_save)
    i.protect_process                        0x0800579c   Section        0  slave.o(i.protect_process)
    i.proto_check                            0x080059d8   Section        0  proto.o(i.proto_check)
    proto_check                              0x080059d9   Thumb Code  1184  proto.o(i.proto_check)
    i.proto_run                              0x08005e78   Section        0  proto.o(i.proto_run)
    i.rc523_io_cfg_init                      0x08005e7c   Section        0  rc523_cfg.o(i.rc523_io_cfg_init)
    i.read_data_eflash                       0x08005efc   Section        0  eflash.o(i.read_data_eflash)
    i.save_data_eflash                       0x08005f08   Section        0  eflash.o(i.save_data_eflash)
    i.serial_buf_init                        0x08005f60   Section        0  serial.o(i.serial_buf_init)
    i.serial_config                          0x08005f70   Section        0  serial.o(i.serial_config)
    i.serial_init                            0x08005fc4   Section        0  serial.o(i.serial_init)
    i.serial_tx_handle                       0x08005ff4   Section        0  serial.o(i.serial_tx_handle)
    i.set_dev_sn_to_nfc                      0x08006048   Section        0  nfc_app.o(i.set_dev_sn_to_nfc)
    i.set_rst                                0x08006060   Section        0  rc523_cfg.o(i.set_rst)
    i.sys_eflash_config                      0x08006078   Section        0  tx_phe_system.o(i.sys_eflash_config)
    i.sys_eflash_init                        0x080060b4   Section        0  tx_phe_system.o(i.sys_eflash_init)
    i.sys_fault_recover_context              0x080060c8   Section        0  tx_phe_system.o(i.sys_fault_recover_context)
    i.sys_fault_save_context                 0x080060ca   Section        0  tx_phe_system.o(i.sys_fault_save_context)
    i.sys_module_init                        0x080060cc   Section        0  tx_phe_system.o(i.sys_module_init)
    i.sys_peripheral_init                    0x08006114   Section        0  tx_phe_system.o(i.sys_peripheral_init)
    i.system_critical_section_enter          0x08006160   Section        0  tx_phe_system.o(i.system_critical_section_enter)
    i.system_critical_section_exit           0x0800617c   Section        0  tx_phe_system.o(i.system_critical_section_exit)
    i.system_init                            0x080061a0   Section        0  tx_phe_system.o(i.system_init)
    i.time_process                           0x080061e0   Section        0  chead.o(i.time_process)
    i.timer1_config                          0x080062b8   Section        0  utimer.o(i.timer1_config)
    i.timer1_config2                         0x080062ec   Section        0  utimer.o(i.timer1_config2)
    i.timer1_init                            0x08006320   Section        0  utimer.o(i.timer1_init)
    i.timer1_start                           0x08006334   Section        0  utimer.o(i.timer1_start)
    i.timer1_stop                            0x08006348   Section        0  utimer.o(i.timer1_stop)
    i.tx_assert_false                        0x08006354   Section        0  tx_phe_assert.o(i.tx_assert_false)
    i.usart2_config                          0x08006390   Section        0  user.o(i.usart2_config)
    i.usart2_init                            0x080063f0   Section        0  user.o(i.usart2_init)
    i.utimer_config                          0x08006420   Section        0  utimer.o(i.utimer_config)
    i.utimer_init                            0x0800646c   Section        0  utimer.o(i.utimer_init)
    i.utimer_interput_handle                 0x0800649c   Section        0  utimer.o(i.utimer_interput_handle)
    i.utimer_start                           0x080064c4   Section        0  utimer.o(i.utimer_start)
    .constdata                               0x080064d8   Section     1344  lcd12864_app.o(.constdata)
    .constdata                               0x08006a18   Section       16  tx_phe_ll_cc_rst.o(.constdata)
    __ll_pll_center_freq                     0x08006a18   Data          16  tx_phe_ll_cc_rst.o(.constdata)
    .data                                    0x20000000   Section        2  main.o(.data)
    .data                                    0x20000002   Section        2  user.o(.data)
    .data                                    0x20000004   Section        5  serial.o(.data)
    .data                                    0x2000000a   Section        2  chead.o(.data)
    .data                                    0x2000000c   Section        2  chead.o(.data)
    .data                                    0x2000000e   Section        2  chead.o(.data)
    .data                                    0x20000010   Section        2  chead.o(.data)
    .data                                    0x20000012   Section        1  chead.o(.data)
    .data                                    0x20000013   Section       14  chead.o(.data)
    .data                                    0x20000021   Section        1  chead.o(.data)
    .data                                    0x20000022   Section        1  chead.o(.data)
    .data                                    0x20000023   Section        1  chead.o(.data)
    .data                                    0x20000024   Section        1  chead.o(.data)
    .data                                    0x20000026   Section        2  chead.o(.data)
    .data                                    0x20000028   Section        2  chead.o(.data)
    .data                                    0x2000002a   Section        2  chead.o(.data)
    .data                                    0x2000002c   Section        1  chead.o(.data)
    .data                                    0x2000002d   Section      512  crccheck.o(.data)
    .data                                    0x2000022e   Section       81  lcd12864_app.o(.data)
    currentPage                              0x2000022e   Data           1  lcd12864_app.o(.data)
    WarningPos                               0x2000022f   Data           1  lcd12864_app.o(.data)
    old_warningData                          0x20000230   Data           1  lcd12864_app.o(.data)
    devTimeMin                               0x20000231   Data           1  lcd12864_app.o(.data)
    devTimeHour                              0x20000232   Data           1  lcd12864_app.o(.data)
    lastCurrentValue                         0x20000234   Data           2  lcd12864_app.o(.data)
    subWarningPage                           0x2000024d   Data           6  lcd12864_app.o(.data)
    warning_text                             0x2000025b   Data          36  lcd12864_app.o(.data)
    .data                                    0x2000027f   Section       62  nfc_app.o(.data)
    NewCardkey                               0x2000027f   Data           6  nfc_app.o(.data)
    devSn_block                              0x2000028c   Data          16  nfc_app.o(.data)
    cardID_block                             0x2000029c   Data          16  nfc_app.o(.data)
    secret_key                               0x200002ac   Data          17  nfc_app.o(.data)
    .data                                    0x200002c0   Section       24  tx_phe_system.o(.data)
    sys_critical_ie_disabled                 0x200002c0   Data           1  tx_phe_system.o(.data)
    sys_ie_enable_counter                    0x200002c4   Data           4  tx_phe_system.o(.data)
    sys_param_address                        0x200002c8   Data           4  tx_phe_system.o(.data)
    firmware_update_addr                     0x200002cc   Data           4  tx_phe_system.o(.data)
    firmware_update_sectors                  0x200002d0   Data           4  tx_phe_system.o(.data)
    .bss                                     0x200002d8   Section       40  main.o(.bss)
    .bss                                     0x20000300   Section      500  user.o(.bss)
    .bss                                     0x200004f4   Section      128  modules_init.o(.bss)
    .bss                                     0x20000574   Section      538  serial.o(.bss)
    .bss                                     0x2000078e   Section      556  proto.o(.bss)
    .bss                                     0x200009bc   Section     1574  chead.o(.bss)
    .bss                                     0x20000fe4   Section      100  chead.o(.bss)
    .bss                                     0x20001048   Section       44  nfc_app.o(.bss)
    devSnCiphertext                          0x20001048   Data          16  nfc_app.o(.bss)
    NFC_readBlockBuf                         0x20001058   Data          16  nfc_app.o(.bss)
    .ARM.__AT_0x20005000                     0x20005000   Section     4096  save_printf.o(.ARM.__AT_0x20005000)
    watch_buf                                0x20005000   Data        4096  save_printf.o(.ARM.__AT_0x20005000)
    .data                                    0x20008000   Section       24  eflash.o(.data)
    .data                                    0x20008018   Section        4  chead.o(.data)
    .data                                    0x2000801c   Section        2  chead.o(.data)
    .data                                    0x2000801e   Section        2  chead.o(.data)
    .data                                    0x20008020   Section        2  chead.o(.data)
    .data                                    0x20008022   Section        2  chead.o(.data)
    .data                                    0x20008024   Section        1  chead.o(.data)
    .data                                    0x20008025   Section       18  chead.o(.data)
    .data                                    0x20008037   Section        1  chead.o(.data)
    .data                                    0x20008038   Section        1  chead.o(.data)
    .data                                    0x20008039   Section        1  chead.o(.data)
    .data                                    0x2000803a   Section        1  chead.o(.data)
    .data                                    0x2000803c   Section        2  chead.o(.data)
    .data                                    0x2000803e   Section        2  chead.o(.data)
    .data                                    0x20008040   Section        2  chead.o(.data)
    .data                                    0x20008042   Section        1  chead.o(.data)
    .data                                    0x20008043   Section        1  chead.o(.data)
    .data                                    0x20008044   Section       12  tx_phe_debug.o(.data)
    __debug_interface                        0x20008044   Data           1  tx_phe_debug.o(.data)
    __p_debug_usart                          0x20008048   Data           4  tx_phe_debug.o(.data)
    .data                                    0x20008050   Section        4  tx_phe_debug.o(.data)
    .bss                                     0x20008054   Section       24  utimer.o(.bss)
    .ARM.__AT_0x40000000                     0x40000000   Section      224  txf5200.o(.ARM.__AT_0x40000000)
    __tagsym$$used                           0x40000000   Number         0  txf5200.o(.ARM.__AT_0x40000000)
    .ARM.__AT_0x40001000                     0x40001000   Section      224  txf5200.o(.ARM.__AT_0x40001000)
    __tagsym$$used                           0x40001000   Number         0  txf5200.o(.ARM.__AT_0x40001000)
    .ARM.__AT_0x40003000                     0x40003000   Section      208  txf5200.o(.ARM.__AT_0x40003000)
    __tagsym$$used                           0x40003000   Number         0  txf5200.o(.ARM.__AT_0x40003000)
    .ARM.__AT_0x40004000                     0x40004000   Section      208  txf5200.o(.ARM.__AT_0x40004000)
    __tagsym$$used                           0x40004000   Number         0  txf5200.o(.ARM.__AT_0x40004000)
    .ARM.__AT_0x40005000                     0x40005000   Section      208  txf5200.o(.ARM.__AT_0x40005000)
    __tagsym$$used                           0x40005000   Number         0  txf5200.o(.ARM.__AT_0x40005000)
    .ARM.__AT_0x40006000                     0x40006000   Section       44  txf5200.o(.ARM.__AT_0x40006000)
    __tagsym$$used                           0x40006000   Number         0  txf5200.o(.ARM.__AT_0x40006000)
    .ARM.__AT_0x40007000                     0x40007000   Section       44  txf5200.o(.ARM.__AT_0x40007000)
    __tagsym$$used                           0x40007000   Number         0  txf5200.o(.ARM.__AT_0x40007000)
    .ARM.__AT_0x40009000                     0x40009000   Section        4  txf5200.o(.ARM.__AT_0x40009000)
    __tagsym$$used                           0x40009000   Number         0  txf5200.o(.ARM.__AT_0x40009000)
    .ARM.__AT_0x4000A000                     0x4000a000   Section      104  txf5200.o(.ARM.__AT_0x4000A000)
    __tagsym$$used                           0x4000a000   Number         0  txf5200.o(.ARM.__AT_0x4000A000)
    .ARM.__AT_0x4000D000                     0x4000d000   Section       16  txf5200.o(.ARM.__AT_0x4000D000)
    __tagsym$$used                           0x4000d000   Number         0  txf5200.o(.ARM.__AT_0x4000D000)
    .ARM.__AT_0x4000D010                     0x4000d010   Section       16  txf5200.o(.ARM.__AT_0x4000D010)
    __tagsym$$used                           0x4000d010   Number         0  txf5200.o(.ARM.__AT_0x4000D010)
    .ARM.__AT_0x4000D020                     0x4000d020   Section       16  txf5200.o(.ARM.__AT_0x4000D020)
    __tagsym$$used                           0x4000d020   Number         0  txf5200.o(.ARM.__AT_0x4000D020)
    .ARM.__AT_0x4000D030                     0x4000d030   Section       16  txf5200.o(.ARM.__AT_0x4000D030)
    __tagsym$$used                           0x4000d030   Number         0  txf5200.o(.ARM.__AT_0x4000D030)
    .ARM.__AT_0x40012000                     0x40012000   Section       60  txf5200.o(.ARM.__AT_0x40012000)
    __tagsym$$used                           0x40012000   Number         0  txf5200.o(.ARM.__AT_0x40012000)
    .ARM.__AT_0x40013000                     0x40013000   Section      256  txf5200.o(.ARM.__AT_0x40013000)
    __tagsym$$used                           0x40013000   Number         0  txf5200.o(.ARM.__AT_0x40013000)
    .ARM.__AT_0x40014000                     0x40014000   Section        8  txf5200.o(.ARM.__AT_0x40014000)
    __tagsym$$used                           0x40014000   Number         0  txf5200.o(.ARM.__AT_0x40014000)
    .ARM.__AT_0x40015000                     0x40015000   Section       16  txf5200.o(.ARM.__AT_0x40015000)
    __tagsym$$used                           0x40015000   Number         0  txf5200.o(.ARM.__AT_0x40015000)
    .ARM.__AT_0x40015010                     0x40015010   Section       16  txf5200.o(.ARM.__AT_0x40015010)
    __tagsym$$used                           0x40015010   Number         0  txf5200.o(.ARM.__AT_0x40015010)
    .ARM.__AT_0x40015020                     0x40015020   Section       16  txf5200.o(.ARM.__AT_0x40015020)
    __tagsym$$used                           0x40015020   Number         0  txf5200.o(.ARM.__AT_0x40015020)
    .ARM.__AT_0x40015030                     0x40015030   Section       16  txf5200.o(.ARM.__AT_0x40015030)
    __tagsym$$used                           0x40015030   Number         0  txf5200.o(.ARM.__AT_0x40015030)
    .ARM.__AT_0x40017000                     0x40017000   Section       40  txf5200.o(.ARM.__AT_0x40017000)
    __tagsym$$used                           0x40017000   Number         0  txf5200.o(.ARM.__AT_0x40017000)
    .ARM.__AT_0x4001C000                     0x4001c000   Section       16  txf5200.o(.ARM.__AT_0x4001C000)
    __tagsym$$used                           0x4001c000   Number         0  txf5200.o(.ARM.__AT_0x4001C000)
    .ARM.__AT_0x4001D000                     0x4001d000   Section       16  txf5200.o(.ARM.__AT_0x4001D000)
    __tagsym$$used                           0x4001d000   Number         0  txf5200.o(.ARM.__AT_0x4001D000)
    .ARM.__AT_0x40020000                     0x40020000   Section      952  txf5200.o(.ARM.__AT_0x40020000)
    __tagsym$$used                           0x40020000   Number         0  txf5200.o(.ARM.__AT_0x40020000)
    .ARM.__AT_0x40021000                     0x40021000   Section       96  txf5200.o(.ARM.__AT_0x40021000)
    __tagsym$$used                           0x40021000   Number         0  txf5200.o(.ARM.__AT_0x40021000)
    .ARM.__AT_0x40022000                     0x40022000   Section       60  txf5200.o(.ARM.__AT_0x40022000)
    __tagsym$$used                           0x40022000   Number         0  txf5200.o(.ARM.__AT_0x40022000)
    .ARM.__AT_0x40024000                     0x40024000   Section       60  txf5200.o(.ARM.__AT_0x40024000)
    __tagsym$$used                           0x40024000   Number         0  txf5200.o(.ARM.__AT_0x40024000)
    .ARM.__AT_0x40025000                     0x40025000   Section       60  txf5200.o(.ARM.__AT_0x40025000)
    __tagsym$$used                           0x40025000   Number         0  txf5200.o(.ARM.__AT_0x40025000)
    .ARM.__AT_0x40026000                     0x40026000   Section      132  txf5200.o(.ARM.__AT_0x40026000)
    __tagsym$$used                           0x40026000   Number         0  txf5200.o(.ARM.__AT_0x40026000)
    .ARM.__AT_0x40027000                     0x40027000   Section       60  txf5200.o(.ARM.__AT_0x40027000)
    __tagsym$$used                           0x40027000   Number         0  txf5200.o(.ARM.__AT_0x40027000)
    .ARM.__AT_0x40029000                     0x40029000   Section      176  txf5200.o(.ARM.__AT_0x40029000)
    __tagsym$$used                           0x40029000   Number         0  txf5200.o(.ARM.__AT_0x40029000)
    .ARM.__AT_0x40030000                     0x40030000   Section       20  txf5200.o(.ARM.__AT_0x40030000)
    __tagsym$$used                           0x40030000   Number         0  txf5200.o(.ARM.__AT_0x40030000)
    .ARM.__AT_0x40031000                     0x40031000   Section      124  txf5200.o(.ARM.__AT_0x40031000)
    __tagsym$$used                           0x40031000   Number         0  txf5200.o(.ARM.__AT_0x40031000)
    .ARM.__AT_0x40032000                     0x40032000   Section      224  txf5200.o(.ARM.__AT_0x40032000)
    __tagsym$$used                           0x40032000   Number         0  txf5200.o(.ARM.__AT_0x40032000)
    .ARM.__AT_0x40033000                     0x40033000   Section       52  txf5200.o(.ARM.__AT_0x40033000)
    __tagsym$$used                           0x40033000   Number         0  txf5200.o(.ARM.__AT_0x40033000)
    .ARM.__AT_0x40035000                     0x40035000   Section       64  txf5200.o(.ARM.__AT_0x40035000)
    __tagsym$$used                           0x40035000   Number         0  txf5200.o(.ARM.__AT_0x40035000)
    .ARM.__AT_0x40035040                     0x40035040   Section       64  txf5200.o(.ARM.__AT_0x40035040)
    __tagsym$$used                           0x40035040   Number         0  txf5200.o(.ARM.__AT_0x40035040)
    .ARM.__AT_0x40035080                     0x40035080   Section       64  txf5200.o(.ARM.__AT_0x40035080)
    __tagsym$$used                           0x40035080   Number         0  txf5200.o(.ARM.__AT_0x40035080)
    .ARM.__AT_0x400350C0                     0x400350c0   Section       64  txf5200.o(.ARM.__AT_0x400350C0)
    __tagsym$$used                           0x400350c0   Number         0  txf5200.o(.ARM.__AT_0x400350C0)
    .ARM.__AT_0x40035100                     0x40035100   Section       64  txf5200.o(.ARM.__AT_0x40035100)
    __tagsym$$used                           0x40035100   Number         0  txf5200.o(.ARM.__AT_0x40035100)
    .ARM.__AT_0x40035140                     0x40035140   Section      320  txf5200.o(.ARM.__AT_0x40035140)
    __tagsym$$used                           0x40035140   Number         0  txf5200.o(.ARM.__AT_0x40035140)
    .ARM.__AT_0x40035280                     0x40035280   Section       64  txf5200.o(.ARM.__AT_0x40035280)
    __tagsym$$used                           0x40035280   Number         0  txf5200.o(.ARM.__AT_0x40035280)
    .ARM.__AT_0x400352C0                     0x400352c0   Section       64  txf5200.o(.ARM.__AT_0x400352C0)
    __tagsym$$used                           0x400352c0   Number         0  txf5200.o(.ARM.__AT_0x400352C0)
    .ARM.__AT_0x40035300                     0x40035300   Section       64  txf5200.o(.ARM.__AT_0x40035300)
    __tagsym$$used                           0x40035300   Number         0  txf5200.o(.ARM.__AT_0x40035300)
    .ARM.__AT_0x40035340                     0x40035340   Section       64  txf5200.o(.ARM.__AT_0x40035340)
    __tagsym$$used                           0x40035340   Number         0  txf5200.o(.ARM.__AT_0x40035340)
    .ARM.__AT_0x40035380                     0x40035380   Section       64  txf5200.o(.ARM.__AT_0x40035380)
    __tagsym$$used                           0x40035380   Number         0  txf5200.o(.ARM.__AT_0x40035380)
    .ARM.__AT_0x400353C0                     0x400353c0   Section       64  txf5200.o(.ARM.__AT_0x400353C0)
    __tagsym$$used                           0x400353c0   Number         0  txf5200.o(.ARM.__AT_0x400353C0)
    .ARM.__AT_0x40035400                     0x40035400   Section       64  txf5200.o(.ARM.__AT_0x40035400)
    __tagsym$$used                           0x40035400   Number         0  txf5200.o(.ARM.__AT_0x40035400)
    .ARM.__AT_0x40035440                     0x40035440   Section       64  txf5200.o(.ARM.__AT_0x40035440)
    __tagsym$$used                           0x40035440   Number         0  txf5200.o(.ARM.__AT_0x40035440)
    .ARM.__AT_0x40035480                     0x40035480   Section       64  txf5200.o(.ARM.__AT_0x40035480)
    __tagsym$$used                           0x40035480   Number         0  txf5200.o(.ARM.__AT_0x40035480)
    .ARM.__AT_0x400354C0                     0x400354c0   Section       64  txf5200.o(.ARM.__AT_0x400354C0)
    __tagsym$$used                           0x400354c0   Number         0  txf5200.o(.ARM.__AT_0x400354C0)
    .ARM.__AT_0x40035500                     0x40035500   Section       64  txf5200.o(.ARM.__AT_0x40035500)
    __tagsym$$used                           0x40035500   Number         0  txf5200.o(.ARM.__AT_0x40035500)
    .ARM.__AT_0x40036000                     0x40036000   Section      612  txf5200.o(.ARM.__AT_0x40036000)
    __tagsym$$used                           0x40036000   Number         0  txf5200.o(.ARM.__AT_0x40036000)
    .ARM.__AT_0x40036300                     0x40036300   Section       96  txf5200.o(.ARM.__AT_0x40036300)
    __tagsym$$used                           0x40036300   Number         0  txf5200.o(.ARM.__AT_0x40036300)
    .ARM.__AT_0x40036360                     0x40036360   Section       96  txf5200.o(.ARM.__AT_0x40036360)
    __tagsym$$used                           0x40036360   Number         0  txf5200.o(.ARM.__AT_0x40036360)
    .ARM.__AT_0x400363C0                     0x400363c0   Section       96  txf5200.o(.ARM.__AT_0x400363C0)
    __tagsym$$used                           0x400363c0   Number         0  txf5200.o(.ARM.__AT_0x400363C0)
    .ARM.__AT_0x40036420                     0x40036420   Section       48  txf5200.o(.ARM.__AT_0x40036420)
    __tagsym$$used                           0x40036420   Number         0  txf5200.o(.ARM.__AT_0x40036420)
    .ARM.__AT_0x40036450                     0x40036450   Section       48  txf5200.o(.ARM.__AT_0x40036450)
    __tagsym$$used                           0x40036450   Number         0  txf5200.o(.ARM.__AT_0x40036450)
    .ARM.__AT_0x40036480                     0x40036480   Section       48  txf5200.o(.ARM.__AT_0x40036480)
    __tagsym$$used                           0x40036480   Number         0  txf5200.o(.ARM.__AT_0x40036480)
    .ARM.__AT_0x40037000                     0x40037000   Section      320  txf5200.o(.ARM.__AT_0x40037000)
    __tagsym$$used                           0x40037000   Number         0  txf5200.o(.ARM.__AT_0x40037000)
    .ARM.__AT_0x40038000                     0x40038000   Section      600  txf5200.o(.ARM.__AT_0x40038000)
    __tagsym$$used                           0x40038000   Number         0  txf5200.o(.ARM.__AT_0x40038000)

    Global Symbols

    Symbol Name                              Value     Ov Type        Size  Object(Section)

    BuildAttributes$$THM_ISAv4$P$D$K$B$S$PE$A:L22UL41UL21$X:L11$S22US41US21$IEEE1$IW$USESV6$~STKCKD$USESV7$~SHL$OTIME$ROPI$EBA8$MICROLIB$REQ8$PRES8$EABIv2 0x00000000   Number         0  anon$$obj.o ABSOLUTE
    __ARM_use_no_argv                        0x00000000   Number         0  main.o ABSOLUTE
    __use_no_errno                           0x00000000   Number         0  useno.o ABSOLUTE
    __use_no_exception_handling              0x00000000   Number         0  useno.o ABSOLUTE
    __use_no_fp                              0x00000000   Number         0  useno.o ABSOLUTE
    __use_no_heap                            0x00000000   Number         0  useno.o ABSOLUTE
    __use_no_heap_region                     0x00000000   Number         0  useno.o ABSOLUTE
    __use_no_semihosting                     0x00000000   Number         0  useno.o ABSOLUTE
    __use_no_semihosting_swi                 0x00000000   Number         0  useno.o ABSOLUTE
    __use_no_signal_handling                 0x00000000   Number         0  useno.o ABSOLUTE
    _printf_a                                0x00000000   Number         0  stubs.o ABSOLUTE
    _printf_c                                0x00000000   Number         0  stubs.o ABSOLUTE
    _printf_charcount                        0x00000000   Number         0  stubs.o ABSOLUTE
    _printf_d                                0x00000000   Number         0  stubs.o ABSOLUTE
    _printf_e                                0x00000000   Number         0  stubs.o ABSOLUTE
    _printf_f                                0x00000000   Number         0  stubs.o ABSOLUTE
    _printf_flags                            0x00000000   Number         0  stubs.o ABSOLUTE
    _printf_fp_dec                           0x00000000   Number         0  stubs.o ABSOLUTE
    _printf_fp_hex                           0x00000000   Number         0  stubs.o ABSOLUTE
    _printf_g                                0x00000000   Number         0  stubs.o ABSOLUTE
    _printf_i                                0x00000000   Number         0  stubs.o ABSOLUTE
    _printf_int_dec                          0x00000000   Number         0  stubs.o ABSOLUTE
    _printf_l                                0x00000000   Number         0  stubs.o ABSOLUTE
    _printf_lc                               0x00000000   Number         0  stubs.o ABSOLUTE
    _printf_ll                               0x00000000   Number         0  stubs.o ABSOLUTE
    _printf_lld                              0x00000000   Number         0  stubs.o ABSOLUTE
    _printf_lli                              0x00000000   Number         0  stubs.o ABSOLUTE
    _printf_llo                              0x00000000   Number         0  stubs.o ABSOLUTE
    _printf_llu                              0x00000000   Number         0  stubs.o ABSOLUTE
    _printf_llx                              0x00000000   Number         0  stubs.o ABSOLUTE
    _printf_longlong_dec                     0x00000000   Number         0  stubs.o ABSOLUTE
    _printf_longlong_hex                     0x00000000   Number         0  stubs.o ABSOLUTE
    _printf_longlong_oct                     0x00000000   Number         0  stubs.o ABSOLUTE
    _printf_ls                               0x00000000   Number         0  stubs.o ABSOLUTE
    _printf_mbtowc                           0x00000000   Number         0  stubs.o ABSOLUTE
    _printf_n                                0x00000000   Number         0  stubs.o ABSOLUTE
    _printf_o                                0x00000000   Number         0  stubs.o ABSOLUTE
    _printf_p                                0x00000000   Number         0  stubs.o ABSOLUTE
    _printf_percent                          0x00000000   Number         0  stubs.o ABSOLUTE
    _printf_pre_padding                      0x00000000   Number         0  stubs.o ABSOLUTE
    _printf_return_value                     0x00000000   Number         0  stubs.o ABSOLUTE
    _printf_s                                0x00000000   Number         0  stubs.o ABSOLUTE
    _printf_sizespec                         0x00000000   Number         0  stubs.o ABSOLUTE
    _printf_str                              0x00000000   Number         0  stubs.o ABSOLUTE
    _printf_truncate_signed                  0x00000000   Number         0  stubs.o ABSOLUTE
    _printf_truncate_unsigned                0x00000000   Number         0  stubs.o ABSOLUTE
    _printf_u                                0x00000000   Number         0  stubs.o ABSOLUTE
    _printf_wc                               0x00000000   Number         0  stubs.o ABSOLUTE
    _printf_wctomb                           0x00000000   Number         0  stubs.o ABSOLUTE
    _printf_widthprec                        0x00000000   Number         0  stubs.o ABSOLUTE
    _printf_x                                0x00000000   Number         0  stubs.o ABSOLUTE
    __arm_fini_                               - Undefined Weak Reference
    __cpp_initialize__aeabi_                  - Undefined Weak Reference
    __cxa_finalize                            - Undefined Weak Reference
    _clock_init                               - Undefined Weak Reference
    _microlib_exit                            - Undefined Weak Reference
    __vector_handlers                        0x08000000   Data         316  tx_phe_startup.o(RESET)
    __main                                   0x0800013d   Thumb Code     0  entry.o(.ARM.Collect$$$$00000000)
    _main_stk                                0x0800013d   Thumb Code     0  entry4.o(.ARM.Collect$$$$00000003)
    _main_scatterload                        0x08000141   Thumb Code     0  entry5.o(.ARM.Collect$$$$00000004)
    __main_after_scatterload                 0x08000145   Thumb Code     0  entry5.o(.ARM.Collect$$$$00000004)
    _main_clock                              0x08000145   Thumb Code     0  entry7b.o(.ARM.Collect$$$$00000008)
    _main_cpp_init                           0x08000145   Thumb Code     0  entry8b.o(.ARM.Collect$$$$0000000A)
    _main_init                               0x08000145   Thumb Code     0  entry9a.o(.ARM.Collect$$$$0000000B)
    __rt_lib_shutdown_fini                   0x0800014d   Thumb Code     0  entry12b.o(.ARM.Collect$$$$0000000E)
    __rt_final_cpp                           0x08000151   Thumb Code     0  entry10a.o(.ARM.Collect$$$$0000000F)
    __rt_final_exit                          0x08000151   Thumb Code     0  entry11a.o(.ARM.Collect$$$$00000011)
    __asm___15_tx_phe_system_c_37adac22____delay_asm 0x08000155   Thumb Code     6  tx_phe_system.o(.emb_text)
    __aeabi_uldivmod                         0x0800015b   Thumb Code    98  uldiv.o(.text)
    __aeabi_memcpy                           0x080001bd   Thumb Code    36  memcpya.o(.text)
    __aeabi_memcpy4                          0x080001bd   Thumb Code     0  memcpya.o(.text)
    __aeabi_memcpy8                          0x080001bd   Thumb Code     0  memcpya.o(.text)
    __aeabi_memset                           0x080001e1   Thumb Code    14  memseta.o(.text)
    __aeabi_memset4                          0x080001e1   Thumb Code     0  memseta.o(.text)
    __aeabi_memset8                          0x080001e1   Thumb Code     0  memseta.o(.text)
    __aeabi_memclr                           0x080001ef   Thumb Code     4  memseta.o(.text)
    __aeabi_memclr4                          0x080001ef   Thumb Code     0  memseta.o(.text)
    __aeabi_memclr8                          0x080001ef   Thumb Code     0  memseta.o(.text)
    _memset$wrapper                          0x080001f3   Thumb Code    18  memseta.o(.text)
    __aeabi_dmul                             0x08000205   Thumb Code   228  dmul.o(.text)
    __aeabi_ui2d                             0x080002e9   Thumb Code    26  dfltui.o(.text)
    __aeabi_d2uiz                            0x08000303   Thumb Code    50  dfixui.o(.text)
    __aeabi_llsl                             0x08000335   Thumb Code    30  llshl.o(.text)
    _ll_shift_l                              0x08000335   Thumb Code     0  llshl.o(.text)
    __aeabi_llsr                             0x08000353   Thumb Code    32  llushr.o(.text)
    _ll_ushift_r                             0x08000353   Thumb Code     0  llushr.o(.text)
    __I$use$fp                               0x08000373   Thumb Code     0  iusefp.o(.text)
    _double_round                            0x08000373   Thumb Code    30  depilogue.o(.text)
    _double_epilogue                         0x08000391   Thumb Code   156  depilogue.o(.text)
    __scatterload                            0x0800042d   Thumb Code    28  init.o(.text)
    __scatterload_rt2                        0x0800042d   Thumb Code     0  init.o(.text)
    __decompress                             0x08000451   Thumb Code     0  __dczerorl2.o(.text)
    __decompress1                            0x08000451   Thumb Code    86  __dczerorl2.o(.text)
    main                                     0x080004a7   Thumb Code    14  tx_phe_startup.o(i.$Sub$$main)
    ADTIM0_IRQHandler                        0x080004b5   Thumb Code     2  tx_phe_irq.o(i.ADTIM0_IRQHandler)
    ARCTAN0_IRQHandler                       0x080004b7   Thumb Code     2  tx_phe_irq.o(i.ARCTAN0_IRQHandler)
    ARCTAN1_IRQHandler                       0x080004b9   Thumb Code     2  tx_phe_irq.o(i.ARCTAN1_IRQHandler)
    ARCTAN2_IRQHandler                       0x080004bb   Thumb Code     2  tx_phe_irq.o(i.ARCTAN2_IRQHandler)
    BusFault_Handler                         0x080004bd   Thumb Code     6  tx_phe_irq.o(i.BusFault_Handler)
    CAN_IRQHandler                           0x080004c3   Thumb Code     2  tx_phe_irq.o(i.CAN_IRQHandler)
    CRC_IRQHandler                           0x080004c5   Thumb Code     2  tx_phe_irq.o(i.CRC_IRQHandler)
    CalulateCRC                              0x080004c7   Thumb Code   102  rc523_drv.o(i.CalulateCRC)
    ClearBitMask                             0x0800052d   Thumb Code    24  rc523_drv.o(i.ClearBitMask)
    DATADMA_IRQHandler                       0x08000545   Thumb Code     2  tx_phe_irq.o(i.DATADMA_IRQHandler)
    DFTRANS0_IRQHandler                      0x08000547   Thumb Code     2  tx_phe_irq.o(i.DFTRANS0_IRQHandler)
    DFTRANS1_IRQHandler                      0x08000549   Thumb Code     2  tx_phe_irq.o(i.DFTRANS1_IRQHandler)
    DFTRANS2_IRQHandler                      0x0800054b   Thumb Code     2  tx_phe_irq.o(i.DFTRANS2_IRQHandler)
    DMA0_IRQHandler                          0x0800054d   Thumb Code     2  tx_phe_irq.o(i.DMA0_IRQHandler)
    DebugMon_Handler                         0x0800054f   Thumb Code     2  tx_phe_irq.o(i.DebugMon_Handler)
    EPWM_IRQHandler                          0x08000551   Thumb Code     2  tx_phe_irq.o(i.EPWM_IRQHandler)
    EVSYS_IRQHandler                         0x08000553   Thumb Code     2  tx_phe_irq.o(i.EVSYS_IRQHandler)
    FADC_IRQHandler                          0x08000555   Thumb Code    28  tx_phe_irq.o(i.FADC_IRQHandler)
    FFT0_IRQHandler                          0x08000575   Thumb Code     2  tx_phe_irq.o(i.FFT0_IRQHandler)
    FFT0_PREPROCESS_IRQHandler               0x08000577   Thumb Code     2  tx_phe_irq.o(i.FFT0_PREPROCESS_IRQHandler)
    FFT1_IRQHandler                          0x08000579   Thumb Code     2  tx_phe_irq.o(i.FFT1_IRQHandler)
    FFT1_PREPROCESS_IRQHandler               0x0800057b   Thumb Code     2  tx_phe_irq.o(i.FFT1_PREPROCESS_IRQHandler)
    FFT2_IRQHandler                          0x0800057d   Thumb Code     2  tx_phe_irq.o(i.FFT2_IRQHandler)
    FFT2_PREPROCESS_IRQHandler               0x0800057f   Thumb Code     2  tx_phe_irq.o(i.FFT2_PREPROCESS_IRQHandler)
    FIR0_IRQHandler                          0x08000581   Thumb Code     2  tx_phe_irq.o(i.FIR0_IRQHandler)
    FIR1_IRQHandler                          0x08000583   Thumb Code     2  tx_phe_irq.o(i.FIR1_IRQHandler)
    FIR2_IRQHandler                          0x08000585   Thumb Code     2  tx_phe_irq.o(i.FIR2_IRQHandler)
    GMAC_IRQHandler                          0x08000587   Thumb Code     2  tx_phe_irq.o(i.GMAC_IRQHandler)
    GPIOA_IRQHandler                         0x08000589   Thumb Code     2  tx_phe_irq.o(i.GPIOA_IRQHandler)
    GPIOB_IRQHandler                         0x0800058b   Thumb Code     2  tx_phe_irq.o(i.GPIOB_IRQHandler)
    GPIOC_IRQHandler                         0x0800058d   Thumb Code     2  tx_phe_irq.o(i.GPIOC_IRQHandler)
    GPIOD_IRQHandler                         0x0800058f   Thumb Code     2  tx_phe_irq.o(i.GPIOD_IRQHandler)
    HCC_IRQHandler                           0x08000591   Thumb Code     2  tx_phe_irq.o(i.HCC_IRQHandler)
    HardFault_Handler                        0x08000593   Thumb Code     6  tx_phe_irq.o(i.HardFault_Handler)
    IIC0_IRQHandler                          0x08000599   Thumb Code     2  tx_phe_irq.o(i.IIC0_IRQHandler)
    IIC1_IRQHandler                          0x0800059b   Thumb Code     2  tx_phe_irq.o(i.IIC1_IRQHandler)
    IIR0_IRQHandler                          0x0800059d   Thumb Code     2  tx_phe_irq.o(i.IIR0_IRQHandler)
    IIR1_IRQHandler                          0x0800059f   Thumb Code     2  tx_phe_irq.o(i.IIR1_IRQHandler)
    IIR2_IRQHandler                          0x080005a1   Thumb Code     2  tx_phe_irq.o(i.IIR2_IRQHandler)
    LCD_send_byte                            0x080005fd   Thumb Code    60  lcd12864_drv.o(i.LCD_send_byte)
    LVD_IRQHandler                           0x0800063d   Thumb Code     6  tx_phe_irq.o(i.LVD_IRQHandler)
    MATRIX_MULT_IRQHandler                   0x08000643   Thumb Code     2  tx_phe_irq.o(i.MATRIX_MULT_IRQHandler)
    MFRC522_SleepUS                          0x08000645   Thumb Code    18  rc523_drv.o(i.MFRC522_SleepUS)
    Main_Poll                                0x08000659   Thumb Code   102  user.o(i.Main_Poll)
    MemManage_Handler                        0x080006d5   Thumb Code     6  tx_phe_irq.o(i.MemManage_Handler)
    NMI_Handler                              0x080006db   Thumb Code     6  tx_phe_irq.o(i.NMI_Handler)
    NVIC_Init                                0x080006e1   Thumb Code   102  tx_phe_misc.o(i.NVIC_Init)
    PcdAntennaOn                             0x0800074d   Thumb Code    26  rc523_drv.o(i.PcdAntennaOn)
    PcdAnticoll                              0x08000767   Thumb Code   162  rc523_drv.o(i.PcdAnticoll)
    PcdAuthState                             0x08000809   Thumb Code    82  rc523_drv.o(i.PcdAuthState)
    PcdComMF522                              0x0800085b   Thumb Code   280  rc523_drv.o(i.PcdComMF522)
    PcdRead                                  0x08000973   Thumb Code    74  rc523_drv.o(i.PcdRead)
    PcdRequest                               0x080009bd   Thumb Code   106  rc523_drv.o(i.PcdRequest)
    PcdReset                                 0x08000a27   Thumb Code   292  rc523_drv.o(i.PcdReset)
    PcdSelect                                0x08000b4b   Thumb Code    98  rc523_drv.o(i.PcdSelect)
    PendSV_Handler                           0x08000bad   Thumb Code     2  tx_phe_irq.o(i.PendSV_Handler)
    QEI_IRQHandler                           0x08000baf   Thumb Code     2  tx_phe_irq.o(i.QEI_IRQHandler)
    RC523_Delay_Us                           0x08000bb1   Thumb Code    18  rc523_drv.o(i.RC523_Delay_Us)
    RMS0_IRQHandler                          0x08000bc3   Thumb Code     2  tx_phe_irq.o(i.RMS0_IRQHandler)
    RMS1_IRQHandler                          0x08000bc5   Thumb Code     2  tx_phe_irq.o(i.RMS1_IRQHandler)
    RMS2_IRQHandler                          0x08000bc7   Thumb Code     2  tx_phe_irq.o(i.RMS2_IRQHandler)
    ReadRawRC                                0x08000bc9   Thumb Code   166  rc523_cfg.o(i.ReadRawRC)
    Reset_Handler                            0x08000c75   Thumb Code     6  tx_phe_startup.o(i.Reset_Handler)
    SARADC_IRQHandler                        0x08000c7b   Thumb Code     2  tx_phe_irq.o(i.SARADC_IRQHandler)
    SINCOS0_IRQHandler                       0x08000c7d   Thumb Code     2  tx_phe_irq.o(i.SINCOS0_IRQHandler)
    SINCOS1_IRQHandler                       0x08000c7f   Thumb Code     2  tx_phe_irq.o(i.SINCOS1_IRQHandler)
    SPI0_IRQHandler                          0x08000c81   Thumb Code     2  tx_phe_irq.o(i.SPI0_IRQHandler)
    SPI1_IRQHandler                          0x08000c83   Thumb Code     2  tx_phe_irq.o(i.SPI1_IRQHandler)
    SPWM_IRQHandler                          0x08000c85   Thumb Code     2  tx_phe_irq.o(i.SPWM_IRQHandler)
    SVC_Handler                              0x08000c87   Thumb Code     2  tx_phe_irq.o(i.SVC_Handler)
    SVPWM_IRQHandler                         0x08000c89   Thumb Code     2  tx_phe_irq.o(i.SVPWM_IRQHandler)
    Senddata                                 0x08000c8d   Thumb Code   144  proto.o(i.Senddata)
    SetBitMask                               0x08000d2d   Thumb Code    24  rc523_drv.o(i.SetBitMask)
    SysTick_Handler                          0x08000d45   Thumb Code    10  tx_phe_irq.o(i.SysTick_Handler)
    TIM0_IRQHandler                          0x08000d55   Thumb Code   636  tx_phe_irq.o(i.TIM0_IRQHandler)
    TIM1_IRQHandler                          0x08000ff5   Thumb Code    46  tx_phe_irq.o(i.TIM1_IRQHandler)
    TIM2_IRQHandler                          0x0800102d   Thumb Code    46  tx_phe_irq.o(i.TIM2_IRQHandler)
    TIM3_IRQHandler                          0x08001065   Thumb Code    46  tx_phe_irq.o(i.TIM3_IRQHandler)
    TIM4_IRQHandler                          0x0800109d   Thumb Code    44  tx_phe_irq.o(i.TIM4_IRQHandler)
    TIM5_IRQHandler                          0x080010cd   Thumb Code    46  tx_phe_irq.o(i.TIM5_IRQHandler)
    TIM6_IRQHandler                          0x08001105   Thumb Code    46  tx_phe_irq.o(i.TIM6_IRQHandler)
    TIM7_IRQHandler                          0x0800113d   Thumb Code    46  tx_phe_irq.o(i.TIM7_IRQHandler)
    USART0_IRQHandler                        0x08001175   Thumb Code   116  tx_phe_irq.o(i.USART0_IRQHandler)
    USART1_IRQHandler                        0x080011f1   Thumb Code    42  tx_phe_irq.o(i.USART1_IRQHandler)
    USART2_IRQHandler                        0x0800121d   Thumb Code   120  tx_phe_irq.o(i.USART2_IRQHandler)
    Upload_server                            0x080012a1   Thumb Code  1682  proto.o(i.Upload_server)
    UsageFault_Handler                       0x08001939   Thumb Code     6  tx_phe_irq.o(i.UsageFault_Handler)
    WAKEUP_IRQHandler                        0x0800193f   Thumb Code     2  tx_phe_irq.o(i.WAKEUP_IRQHandler)
    WDT_IRQHandler                           0x08001941   Thumb Code    16  tx_phe_irq.o(i.WDT_IRQHandler)
    WriteRawRC                               0x08001955   Thumb Code   166  rc523_cfg.o(i.WriteRawRC)
    __0printf$8                              0x08001a01   Thumb Code    22  printf8.o(i.__0printf$8)
    __1printf$8                              0x08001a01   Thumb Code     0  printf8.o(i.__0printf$8)
    __2printf                                0x08001a01   Thumb Code     0  printf8.o(i.__0printf$8)
    __scatterload_copy                       0x08001a21   Thumb Code    14  handlers.o(i.__scatterload_copy)
    __scatterload_null                       0x08001a2f   Thumb Code     2  handlers.o(i.__scatterload_null)
    __scatterload_zeroinit                   0x08001a31   Thumb Code    14  handlers.o(i.__scatterload_zeroinit)
    charge_process                           0x08001f15   Thumb Code   308  chead.o(i.charge_process)
    clr_all                                  0x08002051   Thumb Code    74  lcd12864_drv.o(i.clr_all)
    clr_bmp                                  0x080020b1   Thumb Code    52  lcd12864_drv.o(i.clr_bmp)
    clr_txt                                  0x080020e5   Thumb Code    38  lcd12864_drv.o(i.clr_txt)
    constant_parameter_updata                0x0800210d   Thumb Code    32  chead.o(i.constant_parameter_updata)
    crccheck                                 0x08002135   Thumb Code    46  crccheck.o(i.crccheck)
    debug_select_interface                   0x08002169   Thumb Code    32  tx_phe_debug.o(i.debug_select_interface)
    delay_ms                                 0x08002195   Thumb Code    42  tx_phe_system.o(i.delay_ms)
    delay_us                                 0x080021c1   Thumb Code    30  tx_phe_system.o(i.delay_us)
    display_16x16graphic                     0x08002215   Thumb Code   110  lcd12864_drv.o(i.display_16x16graphic)
    display_16x32graphic                     0x08002283   Thumb Code   202  lcd12864_drv.o(i.display_16x32graphic)
    display_64x64graphic                     0x0800234d   Thumb Code   206  lcd12864_drv.o(i.display_64x64graphic)
    display_chinese                          0x0800241b   Thumb Code   116  lcd12864_drv.o(i.display_chinese)
    dump_fault_state                         0x08002491   Thumb Code   402  tx_phe_system.o(i.dump_fault_state)
    eflash_read_check                        0x08002965   Thumb Code    44  eflash.o(i.eflash_read_check)
    eflash_read_sector                       0x08002999   Thumb Code    36  eflash.o(i.eflash_read_sector)
    eflash_write_sector                      0x080029c5   Thumb Code    56  eflash.o(i.eflash_write_sector)
    epwm_config                              0x08002a09   Thumb Code    90  modules_init.o(i.epwm_config)
    epwm_init                                0x08002a6d   Thumb Code    22  modules_init.o(i.epwm_init)
    epwm_start                               0x08002a89   Thumb Code     8  modules_init.o(i.epwm_start)
    epwm_stop                                0x08002a95   Thumb Code    12  modules_init.o(i.epwm_stop)
    ev7kw_numtrans                           0x08002aa5   Thumb Code    46  lcd12864_app.o(i.ev7kw_numtrans)
    fputc                                    0x08002add   Thumb Code    60  tx_phe_debug.o(i.fputc)
    frame_get                                0x08002b21   Thumb Code    44  proto.o(i.frame_get)
    hex_2_char                               0x08002b4d   Thumb Code    24  lcd12864_app.o(i.hex_2_char)
    km1_off                                  0x08002b65   Thumb Code     4  chead.o(i.km1_off)
    km1_on                                   0x08002b69   Thumb Code    24  chead.o(i.km1_on)
    km_control                               0x08002b81   Thumb Code     2  slave.o(i.km_control)
    lcd_updata                               0x08002b85   Thumb Code  1668  lcd12864_app.o(i.lcd_updata)
    ledprocess                               0x08003221   Thumb Code   130  main.o(i.ledprocess)
    ll_cc_adcpll_set                         0x080032b5   Thumb Code   416  tx_phe_ll_cc_rst.o(i.ll_cc_adcpll_set)
    ll_cc_clk_div_config                     0x0800346d   Thumb Code   118  tx_phe_ll_cc_rst.o(i.ll_cc_clk_div_config)
    ll_cc_rst_delay5ms_32khz                 0x080034ed   Thumb Code    22  tx_phe_ll_cc_rst.o(i.ll_cc_rst_delay5ms_32khz)
    ll_cc_sys_clk_get                        0x08003505   Thumb Code    78  tx_phe_ll_cc_rst.o(i.ll_cc_sys_clk_get)
    ll_cc_syspll_set                         0x08003565   Thumb Code   532  tx_phe_ll_cc_rst.o(i.ll_cc_syspll_set)
    ll_eflash_config                         0x08003795   Thumb Code    94  tx_phe_ll_eflash.o(i.ll_eflash_config)
    ll_eflash_erase_sector                   0x08003841   Thumb Code    54  tx_phe_ll_eflash.o(i.ll_eflash_erase_sector)
    ll_eflash_init                           0x080038bd   Thumb Code   102  tx_phe_ll_eflash.o(i.ll_eflash_init)
    ll_eflash_prog_word                      0x0800396d   Thumb Code    54  tx_phe_ll_eflash.o(i.ll_eflash_prog_word)
    ll_epwm_config                           0x080039e9   Thumb Code  2024  tx_phe_ll_epwm.o(i.ll_epwm_config)
    ll_epwm_init                             0x080041d1   Thumb Code   132  tx_phe_ll_epwm.o(i.ll_epwm_init)
    ll_epwm_start                            0x080042a1   Thumb Code    76  tx_phe_ll_epwm.o(i.ll_epwm_start)
    ll_epwm_stop                             0x08004329   Thumb Code   110  tx_phe_ll_epwm.o(i.ll_epwm_stop)
    ll_gpio_dir                              0x080043d5   Thumb Code    60  tx_phe_ll_gpio.o(i.ll_gpio_dir)
    ll_gpio_pull                             0x08004459   Thumb Code    94  tx_phe_ll_gpio.o(i.ll_gpio_pull)
    ll_timer_config                          0x0800451d   Thumb Code   134  tx_phe_ll_timer.o(i.ll_timer_config)
    ll_timer_init                            0x080045e9   Thumb Code    70  tx_phe_ll_timer.o(i.ll_timer_init)
    ll_timer_io_map                          0x08004675   Thumb Code   610  tx_phe_ll_timer.o(i.ll_timer_io_map)
    ll_timer_irq_config                      0x08004925   Thumb Code    34  tx_phe_ll_timer.o(i.ll_timer_irq_config)
    ll_timer_start                           0x08004949   Thumb Code    90  tx_phe_ll_timer.o(i.ll_timer_start)
    ll_timer_stop                            0x080049e9   Thumb Code    84  tx_phe_ll_timer.o(i.ll_timer_stop)
    ll_usart232_config                       0x08004a81   Thumb Code   118  tx_phe_ll_usart.o(i.ll_usart232_config)
    ll_usart232_io_map                       0x08004b3d   Thumb Code   160  tx_phe_ll_usart.o(i.ll_usart232_io_map)
    ll_usart_init                            0x08004c2d   Thumb Code    28  tx_phe_ll_usart.o(i.ll_usart_init)
    ll_usart_irq_config                      0x08004c8d   Thumb Code    42  tx_phe_ll_usart.o(i.ll_usart_irq_config)
    $Super$$main                             0x08004cb9   Thumb Code   582  main.o(i.main)
    main_loop                                0x08004f19   Thumb Code   436  main.o(i.main_loop)
    meterdata_process                        0x08005119   Thumb Code   140  slave.o(i.meterdata_process)
    meterread_process                        0x080051b1   Thumb Code    56  slave.o(i.meterread_process)
    network                                  0x080051f1   Thumb Code   412  main.o(i.network)
    nfc_init                                 0x080053cd   Thumb Code    18  nfc_app.o(i.nfc_init)
    nfc_read_card                            0x080053e1   Thumb Code   142  nfc_app.o(i.nfc_read_card)
    order_clear                              0x08005479   Thumb Code    98  main.o(i.order_clear)
    param_init                               0x080054e5   Thumb Code   416  chead.o(i.param_init)
    param_save                               0x08005695   Thumb Code   256  chead.o(i.param_save)
    protect_process                          0x0800579d   Thumb Code   520  slave.o(i.protect_process)
    proto_run                                0x08005e79   Thumb Code     4  proto.o(i.proto_run)
    rc523_io_cfg_init                        0x08005e7d   Thumb Code   120  rc523_cfg.o(i.rc523_io_cfg_init)
    read_data_eflash                         0x08005efd   Thumb Code     8  eflash.o(i.read_data_eflash)
    save_data_eflash                         0x08005f09   Thumb Code    78  eflash.o(i.save_data_eflash)
    serial_buf_init                          0x08005f61   Thumb Code    10  serial.o(i.serial_buf_init)
    serial_config                            0x08005f71   Thumb Code    70  serial.o(i.serial_config)
    serial_init                              0x08005fc5   Thumb Code    44  serial.o(i.serial_init)
    serial_tx_handle                         0x08005ff5   Thumb Code    68  serial.o(i.serial_tx_handle)
    set_dev_sn_to_nfc                        0x08006049   Thumb Code    18  nfc_app.o(i.set_dev_sn_to_nfc)
    set_rst                                  0x08006061   Thumb Code    18  rc523_cfg.o(i.set_rst)
    sys_eflash_config                        0x08006079   Thumb Code    52  tx_phe_system.o(i.sys_eflash_config)
    sys_eflash_init                          0x080060b5   Thumb Code    16  tx_phe_system.o(i.sys_eflash_init)
    sys_fault_recover_context                0x080060c9   Thumb Code     2  tx_phe_system.o(i.sys_fault_recover_context)
    sys_fault_save_context                   0x080060cb   Thumb Code     2  tx_phe_system.o(i.sys_fault_save_context)
    sys_module_init                          0x080060cd   Thumb Code    54  tx_phe_system.o(i.sys_module_init)
    sys_peripheral_init                      0x08006115   Thumb Code    66  tx_phe_system.o(i.sys_peripheral_init)
    system_critical_section_enter            0x08006161   Thumb Code    24  tx_phe_system.o(i.system_critical_section_enter)
    system_critical_section_exit             0x0800617d   Thumb Code    30  tx_phe_system.o(i.system_critical_section_exit)
    system_init                              0x080061a1   Thumb Code    50  tx_phe_system.o(i.system_init)
    time_process                             0x080061e1   Thumb Code   210  chead.o(i.time_process)
    timer1_config                            0x080062b9   Thumb Code    44  utimer.o(i.timer1_config)
    timer1_config2                           0x080062ed   Thumb Code    44  utimer.o(i.timer1_config2)
    timer1_init                              0x08006321   Thumb Code    16  utimer.o(i.timer1_init)
    timer1_start                             0x08006335   Thumb Code    10  utimer.o(i.timer1_start)
    timer1_stop                              0x08006349   Thumb Code     6  utimer.o(i.timer1_stop)
    tx_assert_false                          0x08006355   Thumb Code    10  tx_phe_assert.o(i.tx_assert_false)
    usart2_config                            0x08006391   Thumb Code    92  user.o(i.usart2_config)
    usart2_init                              0x080063f1   Thumb Code    42  user.o(i.usart2_init)
    utimer_config                            0x08006421   Thumb Code    66  utimer.o(i.utimer_config)
    utimer_init                              0x0800646d   Thumb Code    44  utimer.o(i.utimer_init)
    utimer_interput_handle                   0x0800649d   Thumb Code    36  utimer.o(i.utimer_interput_handle)
    utimer_start                             0x080064c5   Thumb Code    10  utimer.o(i.utimer_start)
    Warning                                  0x080064d8   Data         512  lcd12864_app.o(.constdata)
    Num_16x32                                0x080066d8   Data         768  lcd12864_app.o(.constdata)
    string_16x16                             0x080069d8   Data          64  lcd12864_app.o(.constdata)
    Region$$Table$$Base                      0x08006a28   Number         0  anon$$obj.o(Region$$Table)
    Region$$Table$$Limit                     0x08006a68   Number         0  anon$$obj.o(Region$$Table)
    test_time                                0x20000000   Data           1  main.o(.data)
    led_cnt                                  0x20000001   Data           1  main.o(.data)
    reccnt                                   0x20000002   Data           2  user.o(.data)
    serial_irq_cfg                           0x20000004   Data           5  serial.o(.data)
    sec_cnt3                                 0x2000000a   Data           2  chead.o(.data)
    sec_cnt15                                0x2000000c   Data           2  chead.o(.data)
    sec_cnt180                               0x2000000e   Data           2  chead.o(.data)
    delay_200ms                              0x20000010   Data           2  chead.o(.data)
    warningState                             0x20000012   Data           1  chead.o(.data)
    lcd_recharging                           0x20000013   Data          14  chead.o(.data)
    login_ok                                 0x20000021   Data           1  chead.o(.data)
    heart_cnt                                0x20000022   Data           1  chead.o(.data)
    nfc_sta                                  0x20000023   Data           1  chead.o(.data)
    current_below_cnt                        0x20000024   Data           1  chead.o(.data)
    voltage_cnt1                             0x20000026   Data           2  chead.o(.data)
    voltage_cnt                              0x20000028   Data           2  chead.o(.data)
    voltage_fau2                             0x2000002a   Data           2  chead.o(.data)
    power_up                                 0x2000002c   Data           1  chead.o(.data)
    gabyCRCHi                                0x2000002d   Data         256  crccheck.o(.data)
    gabyCRCLo                                0x2000012d   Data         256  crccheck.o(.data)
    lcd_current_data                         0x20000236   Data           4  lcd12864_app.o(.data)
    lcd_voltage_data                         0x2000023a   Data           4  lcd12864_app.o(.data)
    lcd_pwr_data                             0x2000023e   Data           4  lcd12864_app.o(.data)
    lcd_kwh_data                             0x20000242   Data           5  lcd12864_app.o(.data)
    lcd_cost_data                            0x20000247   Data           6  lcd12864_app.o(.data)
    lcd_time_data                            0x20000253   Data           8  lcd12864_app.o(.data)
    devSnData                                0x20000285   Data           7  nfc_app.o(.data)
    SysTickCnt                               0x200002d4   Data           4  tx_phe_system.o(.data)
    constant_parameter                       0x200002d8   Data          40  main.o(.bss)
    recvbuf                                  0x20000300   Data         500  user.o(.bss)
    epwm_cfg                                 0x200004f4   Data         128  modules_init.o(.bss)
    serial_buf                               0x20000574   Data         528  serial.o(.bss)
    serial_cfg                               0x20000784   Data          10  serial.o(.bss)
    buf_temp                                 0x2000078e   Data         256  proto.o(.bss)
    buf_senddata                             0x2000088e   Data         300  proto.o(.bss)
    ev7kw                                    0x200009bc   Data          72  chead.o(.bss)
    charge                                   0x20000a04   Data         100  chead.o(.bss)
    order                                    0x20000a68   Data         160  chead.o(.bss)
    setup                                    0x20000b08   Data          12  chead.o(.bss)
    time                                     0x20000b14   Data          10  chead.o(.bss)
    Gar                                      0x20000b20   Data        1200  chead.o(.bss)
    control_param                            0x20000fd0   Data          18  chead.o(.bss)
    charge1                                  0x20000fe4   Data         100  chead.o(.bss)
    card_info                                0x20001068   Data          12  nfc_app.o(.bss)
    sector_index                             0x20008000   Data           1  eflash.o(.data)
    i                                        0x20008004   Data           4  eflash.o(.data)
    p_write_addr                             0x20008008   Data           4  eflash.o(.data)
    p_read_addr                              0x2000800c   Data           4  eflash.o(.data)
    buf_write                                0x20008010   Data           4  eflash.o(.data)
    buf_read                                 0x20008014   Data           4  eflash.o(.data)
    tmr_cnt0                                 0x20008018   Data           4  chead.o(.data)
    sec_cnt                                  0x2000801c   Data           2  chead.o(.data)
    sec_cnt9                                 0x2000801e   Data           2  chead.o(.data)
    sec_cnt30                                0x20008020   Data           2  chead.o(.data)
    sec_cnt300                               0x20008022   Data           2  chead.o(.data)
    stop_cnt                                 0x20008024   Data           1  chead.o(.data)
    lcd_DevInfo                              0x20008025   Data          18  chead.o(.data)
    led_sta                                  0x20008037   Data           1  chead.o(.data)
    login_cnt                                0x20008038   Data           1  chead.o(.data)
    heart_sta                                0x20008039   Data           1  chead.o(.data)
    lcdon_cnt                                0x2000803a   Data           1  chead.o(.data)
    voltage_tmp                              0x2000803c   Data           2  chead.o(.data)
    voltage_cnt2                             0x2000803e   Data           2  chead.o(.data)
    voltage_fau1                             0x20008040   Data           2  chead.o(.data)
    uart0_busy                               0x20008042   Data           1  chead.o(.data)
    warningState_old                         0x20008043   Data           1  chead.o(.data)
    ITM_RxBuffer                             0x2000804c   Data           4  tx_phe_debug.o(.data)
    __stdout                                 0x20008050   Data           4  tx_phe_debug.o(.data)
    utimer_cfg                               0x20008054   Data          12  utimer.o(.bss)
    timer_cfg                                0x20008060   Data          12  utimer.o(.bss)
    Image$$ARM_LIB_STACK$$ZI$$Limit          0x2000f400   Number         0  anon$$obj.o ABSOLUTE
    ___IIC0__                                0x40000000   Data         224  txf5200.o(.ARM.__AT_0x40000000)
    ___IIC1__                                0x40001000   Data         224  txf5200.o(.ARM.__AT_0x40001000)
    ___USART0__                              0x40003000   Data         208  txf5200.o(.ARM.__AT_0x40003000)
    ___USART1__                              0x40004000   Data         208  txf5200.o(.ARM.__AT_0x40004000)
    ___USART2__                              0x40005000   Data         208  txf5200.o(.ARM.__AT_0x40005000)
    ___SPI0__                                0x40006000   Data          44  txf5200.o(.ARM.__AT_0x40006000)
    ___SPI1__                                0x40007000   Data          44  txf5200.o(.ARM.__AT_0x40007000)
    ___LVD__                                 0x40009000   Data           4  txf5200.o(.ARM.__AT_0x40009000)
    ___ADVTMR0__                             0x4000a000   Data         104  txf5200.o(.ARM.__AT_0x4000A000)
    ___TIMER4__                              0x4000d000   Data          16  txf5200.o(.ARM.__AT_0x4000D000)
    ___TIMER5__                              0x4000d010   Data          16  txf5200.o(.ARM.__AT_0x4000D010)
    ___TIMER6__                              0x4000d020   Data          16  txf5200.o(.ARM.__AT_0x4000D020)
    ___TIMER7__                              0x4000d030   Data          16  txf5200.o(.ARM.__AT_0x4000D030)
    ___QEI__                                 0x40012000   Data          60  txf5200.o(.ARM.__AT_0x40012000)
    ___WDT__                                 0x40013000   Data         256  txf5200.o(.ARM.__AT_0x40013000)
    ___WDT1__                                0x40014000   Data           8  txf5200.o(.ARM.__AT_0x40014000)
    ___TIMER0__                              0x40015000   Data          16  txf5200.o(.ARM.__AT_0x40015000)
    ___TIMER1__                              0x40015010   Data          16  txf5200.o(.ARM.__AT_0x40015010)
    ___TIMER2__                              0x40015020   Data          16  txf5200.o(.ARM.__AT_0x40015020)
    ___TIMER3__                              0x40015030   Data          16  txf5200.o(.ARM.__AT_0x40015030)
    ___CRC__                                 0x40017000   Data          40  txf5200.o(.ARM.__AT_0x40017000)
    ___FPLL0__                               0x4001c000   Data          16  txf5200.o(.ARM.__AT_0x4001C000)
    ___FPLL1__                               0x4001d000   Data          16  txf5200.o(.ARM.__AT_0x4001D000)
    ___DMAC__                                0x40020000   Data         952  txf5200.o(.ARM.__AT_0x40020000)
    ___GMAC__                                0x40021000   Data          96  txf5200.o(.ARM.__AT_0x40021000)
    ___GPIOA__                               0x40022000   Data          60  txf5200.o(.ARM.__AT_0x40022000)
    ___GPIOB__                               0x40024000   Data          60  txf5200.o(.ARM.__AT_0x40024000)
    ___GPIOC__                               0x40025000   Data          60  txf5200.o(.ARM.__AT_0x40025000)
    ___SYSCTRL__                             0x40026000   Data         132  txf5200.o(.ARM.__AT_0x40026000)
    ___GPIOD__                               0x40027000   Data          60  txf5200.o(.ARM.__AT_0x40027000)
    ___CAN__                                 0x40029000   Data         176  txf5200.o(.ARM.__AT_0x40029000)
    ___HCC__                                 0x40030000   Data          20  txf5200.o(.ARM.__AT_0x40030000)
    ___EFLASH__                              0x40031000   Data         124  txf5200.o(.ARM.__AT_0x40031000)
    ___EVSYS__                               0x40032000   Data         224  txf5200.o(.ARM.__AT_0x40032000)
    ___SVPWM__                               0x40033000   Data          52  txf5200.o(.ARM.__AT_0x40033000)
    ___SINCOS0__                             0x40035000   Data          64  txf5200.o(.ARM.__AT_0x40035000)
    ___SINCOS1__                             0x40035040   Data          64  txf5200.o(.ARM.__AT_0x40035040)
    ___RMS0__                                0x40035080   Data          64  txf5200.o(.ARM.__AT_0x40035080)
    ___RMS1__                                0x400350c0   Data          64  txf5200.o(.ARM.__AT_0x400350C0)
    ___RMS2__                                0x40035100   Data          64  txf5200.o(.ARM.__AT_0x40035100)
    ___MATRIX__                              0x40035140   Data         320  txf5200.o(.ARM.__AT_0x40035140)
    ___SPWM__                                0x40035280   Data          64  txf5200.o(.ARM.__AT_0x40035280)
    ___FFT0__                                0x400352c0   Data          64  txf5200.o(.ARM.__AT_0x400352C0)
    ___FFT1__                                0x40035300   Data          64  txf5200.o(.ARM.__AT_0x40035300)
    ___FFT2__                                0x40035340   Data          64  txf5200.o(.ARM.__AT_0x40035340)
    ___DFTRAN0__                             0x40035380   Data          64  txf5200.o(.ARM.__AT_0x40035380)
    ___DFTRAN1__                             0x400353c0   Data          64  txf5200.o(.ARM.__AT_0x400353C0)
    ___DFTRAN2__                             0x40035400   Data          64  txf5200.o(.ARM.__AT_0x40035400)
    ___ARCTAN0__                             0x40035440   Data          64  txf5200.o(.ARM.__AT_0x40035440)
    ___ARCTAN1__                             0x40035480   Data          64  txf5200.o(.ARM.__AT_0x40035480)
    ___ARCTAN2__                             0x400354c0   Data          64  txf5200.o(.ARM.__AT_0x400354C0)
    ___DATADMA__                             0x40035500   Data          64  txf5200.o(.ARM.__AT_0x40035500)
    ___ADC__                                 0x40036000   Data         612  txf5200.o(.ARM.__AT_0x40036000)
    ___IIR0__                                0x40036300   Data          96  txf5200.o(.ARM.__AT_0x40036300)
    ___IIR1__                                0x40036360   Data          96  txf5200.o(.ARM.__AT_0x40036360)
    ___IIR2__                                0x400363c0   Data          96  txf5200.o(.ARM.__AT_0x400363C0)
    ___FIR0__                                0x40036420   Data          48  txf5200.o(.ARM.__AT_0x40036420)
    ___FIR1__                                0x40036450   Data          48  txf5200.o(.ARM.__AT_0x40036450)
    ___FIR2__                                0x40036480   Data          48  txf5200.o(.ARM.__AT_0x40036480)
    ___FADC__                                0x40037000   Data         320  txf5200.o(.ARM.__AT_0x40037000)
    ___EPWM__                                0x40038000   Data         600  txf5200.o(.ARM.__AT_0x40038000)



==============================================================================

Memory Map of the image

  Image Entry point : 0x08000c75

  Load Region LR_EFLASH (Base: 0x08000000, Size: 0x00006d94, Max: 0x0001f000, ABSOLUTE, COMPRESSED[0x00006c60])

    Execution Region ER_EFLASH (Exec base: 0x08000000, Load base: 0x08000000, Size: 0x00006a68, Max: 0x0001f000, ABSOLUTE)

    Exec Addr    Load Addr    Size         Type   Attr      Idx    E Section Name        Object

    0x08000000   0x08000000   0x0000013c   Data   RO         4840    RESET               tx_phe_startup.o
    0x0800013c   0x0800013c   0x00000000   Code   RO         4977  * .ARM.Collect$$$$00000000  mc_w.l(entry.o)
    0x0800013c   0x0800013c   0x00000004   Code   RO         5259    .ARM.Collect$$$$00000003  mc_w.l(entry4.o)
    0x08000140   0x08000140   0x00000004   Code   RO         5262    .ARM.Collect$$$$00000004  mc_w.l(entry5.o)
    0x08000144   0x08000144   0x00000000   Code   RO         5264    .ARM.Collect$$$$00000008  mc_w.l(entry7b.o)
    0x08000144   0x08000144   0x00000000   Code   RO         5266    .ARM.Collect$$$$0000000A  mc_w.l(entry8b.o)
    0x08000144   0x08000144   0x00000008   Code   RO         5267    .ARM.Collect$$$$0000000B  mc_w.l(entry9a.o)
    0x0800014c   0x0800014c   0x00000004   Code   RO         5274    .ARM.Collect$$$$0000000E  mc_w.l(entry12b.o)
    0x08000150   0x08000150   0x00000000   Code   RO         5269    .ARM.Collect$$$$0000000F  mc_w.l(entry10a.o)
    0x08000150   0x08000150   0x00000000   Code   RO         5271    .ARM.Collect$$$$00000011  mc_w.l(entry11a.o)
    0x08000150   0x08000150   0x00000004   Code   RO         5260    .ARM.Collect$$$$00002714  mc_w.l(entry4.o)
    0x08000154   0x08000154   0x00000006   Code   RO         4683    .emb_text           tx_phe_system.o
    0x0800015a   0x0800015a   0x00000062   Code   RO         4980    .text               mc_w.l(uldiv.o)
    0x080001bc   0x080001bc   0x00000024   Code   RO         4982    .text               mc_w.l(memcpya.o)
    0x080001e0   0x080001e0   0x00000024   Code   RO         4984    .text               mc_w.l(memseta.o)
    0x08000204   0x08000204   0x000000e4   Code   RO         5251    .text               mf_w.l(dmul.o)
    0x080002e8   0x080002e8   0x0000001a   Code   RO         5255    .text               mf_w.l(dfltui.o)
    0x08000302   0x08000302   0x00000032   Code   RO         5257    .text               mf_w.l(dfixui.o)
    0x08000334   0x08000334   0x0000001e   Code   RO         5277    .text               mc_w.l(llshl.o)
    0x08000352   0x08000352   0x00000020   Code   RO         5279    .text               mc_w.l(llushr.o)
    0x08000372   0x08000372   0x00000000   Code   RO         5281    .text               mc_w.l(iusefp.o)
    0x08000372   0x08000372   0x000000ba   Code   RO         5284    .text               mf_w.l(depilogue.o)
    0x0800042c   0x0800042c   0x00000024   Code   RO         5294    .text               mc_w.l(init.o)
    0x08000450   0x08000450   0x00000056   Code   RO         5306    .text               mc_w.l(__dczerorl2.o)
    0x080004a6   0x080004a6   0x0000000e   Code   RO         4837    i.$Sub$$main        tx_phe_startup.o
    0x080004b4   0x080004b4   0x00000002   Code   RO          299    i.ADTIM0_IRQHandler  tx_phe_irq.o
    0x080004b6   0x080004b6   0x00000002   Code   RO          300    i.ARCTAN0_IRQHandler  tx_phe_irq.o
    0x080004b8   0x080004b8   0x00000002   Code   RO          301    i.ARCTAN1_IRQHandler  tx_phe_irq.o
    0x080004ba   0x080004ba   0x00000002   Code   RO          302    i.ARCTAN2_IRQHandler  tx_phe_irq.o
    0x080004bc   0x080004bc   0x00000006   Code   RO          303    i.BusFault_Handler  tx_phe_irq.o
    0x080004c2   0x080004c2   0x00000002   Code   RO          304    i.CAN_IRQHandler    tx_phe_irq.o
    0x080004c4   0x080004c4   0x00000002   Code   RO          305    i.CRC_IRQHandler    tx_phe_irq.o
    0x080004c6   0x080004c6   0x00000066   Code   RO         1779    i.CalulateCRC       rc523_drv.o
    0x0800052c   0x0800052c   0x00000018   Code   RO         1780    i.ClearBitMask      rc523_drv.o
    0x08000544   0x08000544   0x00000002   Code   RO          306    i.DATADMA_IRQHandler  tx_phe_irq.o
    0x08000546   0x08000546   0x00000002   Code   RO          307    i.DFTRANS0_IRQHandler  tx_phe_irq.o
    0x08000548   0x08000548   0x00000002   Code   RO          308    i.DFTRANS1_IRQHandler  tx_phe_irq.o
    0x0800054a   0x0800054a   0x00000002   Code   RO          309    i.DFTRANS2_IRQHandler  tx_phe_irq.o
    0x0800054c   0x0800054c   0x00000002   Code   RO          310    i.DMA0_IRQHandler   tx_phe_irq.o
    0x0800054e   0x0800054e   0x00000002   Code   RO          311    i.DebugMon_Handler  tx_phe_irq.o
    0x08000550   0x08000550   0x00000002   Code   RO          312    i.EPWM_IRQHandler   tx_phe_irq.o
    0x08000552   0x08000552   0x00000002   Code   RO          313    i.EVSYS_IRQHandler  tx_phe_irq.o
    0x08000554   0x08000554   0x00000020   Code   RO          314    i.FADC_IRQHandler   tx_phe_irq.o
    0x08000574   0x08000574   0x00000002   Code   RO          315    i.FFT0_IRQHandler   tx_phe_irq.o
    0x08000576   0x08000576   0x00000002   Code   RO          316    i.FFT0_PREPROCESS_IRQHandler  tx_phe_irq.o
    0x08000578   0x08000578   0x00000002   Code   RO          317    i.FFT1_IRQHandler   tx_phe_irq.o
    0x0800057a   0x0800057a   0x00000002   Code   RO          318    i.FFT1_PREPROCESS_IRQHandler  tx_phe_irq.o
    0x0800057c   0x0800057c   0x00000002   Code   RO          319    i.FFT2_IRQHandler   tx_phe_irq.o
    0x0800057e   0x0800057e   0x00000002   Code   RO          320    i.FFT2_PREPROCESS_IRQHandler  tx_phe_irq.o
    0x08000580   0x08000580   0x00000002   Code   RO          321    i.FIR0_IRQHandler   tx_phe_irq.o
    0x08000582   0x08000582   0x00000002   Code   RO          322    i.FIR1_IRQHandler   tx_phe_irq.o
    0x08000584   0x08000584   0x00000002   Code   RO          323    i.FIR2_IRQHandler   tx_phe_irq.o
    0x08000586   0x08000586   0x00000002   Code   RO          324    i.GMAC_IRQHandler   tx_phe_irq.o
    0x08000588   0x08000588   0x00000002   Code   RO          325    i.GPIOA_IRQHandler  tx_phe_irq.o
    0x0800058a   0x0800058a   0x00000002   Code   RO          326    i.GPIOB_IRQHandler  tx_phe_irq.o
    0x0800058c   0x0800058c   0x00000002   Code   RO          327    i.GPIOC_IRQHandler  tx_phe_irq.o
    0x0800058e   0x0800058e   0x00000002   Code   RO          328    i.GPIOD_IRQHandler  tx_phe_irq.o
    0x08000590   0x08000590   0x00000002   Code   RO          329    i.HCC_IRQHandler    tx_phe_irq.o
    0x08000592   0x08000592   0x00000006   Code   RO          330    i.HardFault_Handler  tx_phe_irq.o
    0x08000598   0x08000598   0x00000002   Code   RO          331    i.IIC0_IRQHandler   tx_phe_irq.o
    0x0800059a   0x0800059a   0x00000002   Code   RO          332    i.IIC1_IRQHandler   tx_phe_irq.o
    0x0800059c   0x0800059c   0x00000002   Code   RO          333    i.IIR0_IRQHandler   tx_phe_irq.o
    0x0800059e   0x0800059e   0x00000002   Code   RO          334    i.IIR1_IRQHandler   tx_phe_irq.o
    0x080005a0   0x080005a0   0x00000002   Code   RO          335    i.IIR2_IRQHandler   tx_phe_irq.o
    0x080005a2   0x080005a2   0x00000002   PAD
    0x080005a4   0x080005a4   0x0000002c   Code   RO         1636    i.LCD_WriteCmd      lcd12864_drv.o
    0x080005d0   0x080005d0   0x0000002c   Code   RO         1637    i.LCD_WriteData     lcd12864_drv.o
    0x080005fc   0x080005fc   0x00000040   Code   RO         1638    i.LCD_send_byte     lcd12864_drv.o
    0x0800063c   0x0800063c   0x00000006   Code   RO          336    i.LVD_IRQHandler    tx_phe_irq.o
    0x08000642   0x08000642   0x00000002   Code   RO          337    i.MATRIX_MULT_IRQHandler  tx_phe_irq.o
    0x08000644   0x08000644   0x00000012   Code   RO         1781    i.MFRC522_SleepUS   rc523_drv.o
    0x08000656   0x08000656   0x00000002   PAD
    0x08000658   0x08000658   0x0000007c   Code   RO          762    i.Main_Poll         user.o
    0x080006d4   0x080006d4   0x00000006   Code   RO          338    i.MemManage_Handler  tx_phe_irq.o
    0x080006da   0x080006da   0x00000006   Code   RO          339    i.NMI_Handler       tx_phe_irq.o
    0x080006e0   0x080006e0   0x0000006c   Code   RO         4635    i.NVIC_Init         tx_phe_misc.o
    0x0800074c   0x0800074c   0x0000001a   Code   RO         1783    i.PcdAntennaOn      rc523_drv.o
    0x08000766   0x08000766   0x000000a2   Code   RO         1784    i.PcdAnticoll       rc523_drv.o
    0x08000808   0x08000808   0x00000052   Code   RO         1785    i.PcdAuthState      rc523_drv.o
    0x0800085a   0x0800085a   0x00000118   Code   RO         1787    i.PcdComMF522       rc523_drv.o
    0x08000972   0x08000972   0x0000004a   Code   RO         1789    i.PcdRead           rc523_drv.o
    0x080009bc   0x080009bc   0x0000006a   Code   RO         1790    i.PcdRequest        rc523_drv.o
    0x08000a26   0x08000a26   0x00000124   Code   RO         1791    i.PcdReset          rc523_drv.o
    0x08000b4a   0x08000b4a   0x00000062   Code   RO         1792    i.PcdSelect         rc523_drv.o
    0x08000bac   0x08000bac   0x00000002   Code   RO          340    i.PendSV_Handler    tx_phe_irq.o
    0x08000bae   0x08000bae   0x00000002   Code   RO          341    i.QEI_IRQHandler    tx_phe_irq.o
    0x08000bb0   0x08000bb0   0x00000012   Code   RO         1795    i.RC523_Delay_Us    rc523_drv.o
    0x08000bc2   0x08000bc2   0x00000002   Code   RO          342    i.RMS0_IRQHandler   tx_phe_irq.o
    0x08000bc4   0x08000bc4   0x00000002   Code   RO          343    i.RMS1_IRQHandler   tx_phe_irq.o
    0x08000bc6   0x08000bc6   0x00000002   Code   RO          344    i.RMS2_IRQHandler   tx_phe_irq.o
    0x08000bc8   0x08000bc8   0x000000ac   Code   RO         1729    i.ReadRawRC         rc523_cfg.o
    0x08000c74   0x08000c74   0x00000006   Code   RO         4839  * i.Reset_Handler     tx_phe_startup.o
    0x08000c7a   0x08000c7a   0x00000002   Code   RO          345    i.SARADC_IRQHandler  tx_phe_irq.o
    0x08000c7c   0x08000c7c   0x00000002   Code   RO          346    i.SINCOS0_IRQHandler  tx_phe_irq.o
    0x08000c7e   0x08000c7e   0x00000002   Code   RO          347    i.SINCOS1_IRQHandler  tx_phe_irq.o
    0x08000c80   0x08000c80   0x00000002   Code   RO          348    i.SPI0_IRQHandler   tx_phe_irq.o
    0x08000c82   0x08000c82   0x00000002   Code   RO          349    i.SPI1_IRQHandler   tx_phe_irq.o
    0x08000c84   0x08000c84   0x00000002   Code   RO          350    i.SPWM_IRQHandler   tx_phe_irq.o
    0x08000c86   0x08000c86   0x00000002   Code   RO          351    i.SVC_Handler       tx_phe_irq.o
    0x08000c88   0x08000c88   0x00000002   Code   RO          352    i.SVPWM_IRQHandler  tx_phe_irq.o
    0x08000c8a   0x08000c8a   0x00000002   PAD
    0x08000c8c   0x08000c8c   0x000000a0   Code   RO         1154    i.Senddata          proto.o
    0x08000d2c   0x08000d2c   0x00000018   Code   RO         1796    i.SetBitMask        rc523_drv.o
    0x08000d44   0x08000d44   0x00000010   Code   RO          353    i.SysTick_Handler   tx_phe_irq.o
    0x08000d54   0x08000d54   0x000002a0   Code   RO          354    i.TIM0_IRQHandler   tx_phe_irq.o
    0x08000ff4   0x08000ff4   0x00000038   Code   RO          355    i.TIM1_IRQHandler   tx_phe_irq.o
    0x0800102c   0x0800102c   0x00000038   Code   RO          356    i.TIM2_IRQHandler   tx_phe_irq.o
    0x08001064   0x08001064   0x00000038   Code   RO          357    i.TIM3_IRQHandler   tx_phe_irq.o
    0x0800109c   0x0800109c   0x00000030   Code   RO          358    i.TIM4_IRQHandler   tx_phe_irq.o
    0x080010cc   0x080010cc   0x00000038   Code   RO          359    i.TIM5_IRQHandler   tx_phe_irq.o
    0x08001104   0x08001104   0x00000038   Code   RO          360    i.TIM6_IRQHandler   tx_phe_irq.o
    0x0800113c   0x0800113c   0x00000038   Code   RO          361    i.TIM7_IRQHandler   tx_phe_irq.o
    0x08001174   0x08001174   0x0000007c   Code   RO          362    i.USART0_IRQHandler  tx_phe_irq.o
    0x080011f0   0x080011f0   0x0000002a   Code   RO          363    i.USART1_IRQHandler  tx_phe_irq.o
    0x0800121a   0x0800121a   0x00000002   PAD
    0x0800121c   0x0800121c   0x00000084   Code   RO          364    i.USART2_IRQHandler  tx_phe_irq.o
    0x080012a0   0x080012a0   0x00000698   Code   RO         1155    i.Upload_server     proto.o
    0x08001938   0x08001938   0x00000006   Code   RO          365    i.UsageFault_Handler  tx_phe_irq.o
    0x0800193e   0x0800193e   0x00000002   Code   RO          366    i.WAKEUP_IRQHandler  tx_phe_irq.o
    0x08001940   0x08001940   0x00000014   Code   RO          367    i.WDT_IRQHandler    tx_phe_irq.o
    0x08001954   0x08001954   0x000000ac   Code   RO         1730    i.WriteRawRC        rc523_cfg.o
    0x08001a00   0x08001a00   0x00000020   Code   RO         5195    i.__0printf$8       mc_w.l(printf8.o)
    0x08001a20   0x08001a20   0x0000000e   Code   RO         5300    i.__scatterload_copy  mc_w.l(handlers.o)
    0x08001a2e   0x08001a2e   0x00000002   Code   RO         5301    i.__scatterload_null  mc_w.l(handlers.o)
    0x08001a30   0x08001a30   0x0000000e   Code   RO         5302    i.__scatterload_zeroinit  mc_w.l(handlers.o)
    0x08001a3e   0x08001a3e   0x00000002   PAD
    0x08001a40   0x08001a40   0x00000404   Code   RO         5202    i._printf_core      mc_w.l(printf8.o)
    0x08001e44   0x08001e44   0x00000024   Code   RO         5203    i._printf_post_padding  mc_w.l(printf8.o)
    0x08001e68   0x08001e68   0x0000002e   Code   RO         5204    i._printf_pre_padding  mc_w.l(printf8.o)
    0x08001e96   0x08001e96   0x00000002   PAD
    0x08001e98   0x08001e98   0x0000007c   Code   RO         1902    i.card_id_encryption  nfc_app.o
    0x08001f14   0x08001f14   0x0000013c   Code   RO         1419    i.charge_process    chead.o
    0x08002050   0x08002050   0x00000060   Code   RO         1639    i.clr_all           lcd12864_drv.o
    0x080020b0   0x080020b0   0x00000034   Code   RO         1640    i.clr_bmp           lcd12864_drv.o
    0x080020e4   0x080020e4   0x00000026   Code   RO         1641    i.clr_txt           lcd12864_drv.o
    0x0800210a   0x0800210a   0x00000002   PAD
    0x0800210c   0x0800210c   0x00000028   Code   RO         1420    i.constant_parameter_updata  chead.o
    0x08002134   0x08002134   0x00000034   Code   RO         1561    i.crccheck          crccheck.o
    0x08002168   0x08002168   0x0000002c   Code   RO         4575    i.debug_select_interface  tx_phe_debug.o
    0x08002194   0x08002194   0x0000002a   Code   RO         4684    i.delay_ms          tx_phe_system.o
    0x080021be   0x080021be   0x00000002   PAD
    0x080021c0   0x080021c0   0x00000028   Code   RO         4685    i.delay_us          tx_phe_system.o
    0x080021e8   0x080021e8   0x0000002c   Code   RO         1903    i.dev_sn_encryption  nfc_app.o
    0x08002214   0x08002214   0x0000006e   Code   RO         1642    i.display_16x16graphic  lcd12864_drv.o
    0x08002282   0x08002282   0x000000ca   Code   RO         1643    i.display_16x32graphic  lcd12864_drv.o
    0x0800234c   0x0800234c   0x000000ce   Code   RO         1644    i.display_64x64graphic  lcd12864_drv.o
    0x0800241a   0x0800241a   0x00000074   Code   RO         1645    i.display_chinese   lcd12864_drv.o
    0x0800248e   0x0800248e   0x00000002   PAD
    0x08002490   0x08002490   0x000004d4   Code   RO         4686    i.dump_fault_state  tx_phe_system.o
    0x08002964   0x08002964   0x00000034   Code   RO         1214    i.eflash_read_check  eflash.o
    0x08002998   0x08002998   0x0000002c   Code   RO         1215    i.eflash_read_sector  eflash.o
    0x080029c4   0x080029c4   0x00000044   Code   RO         1220    i.eflash_write_sector  eflash.o
    0x08002a08   0x08002a08   0x00000064   Code   RO          892    i.epwm_config       modules_init.o
    0x08002a6c   0x08002a6c   0x0000001c   Code   RO          893    i.epwm_init         modules_init.o
    0x08002a88   0x08002a88   0x0000000c   Code   RO          894    i.epwm_start        modules_init.o
    0x08002a94   0x08002a94   0x00000010   Code   RO          895    i.epwm_stop         modules_init.o
    0x08002aa4   0x08002aa4   0x00000038   Code   RO         1588    i.ev7kw_numtrans    lcd12864_app.o
    0x08002adc   0x08002adc   0x00000044   Code   RO         4577    i.fputc             tx_phe_debug.o
    0x08002b20   0x08002b20   0x0000002c   Code   RO         1156    i.frame_get         proto.o
    0x08002b4c   0x08002b4c   0x00000018   Code   RO         1589    i.hex_2_char        lcd12864_app.o
    0x08002b64   0x08002b64   0x00000004   Code   RO         1421    i.km1_off           chead.o
    0x08002b68   0x08002b68   0x00000018   Code   RO         1422    i.km1_on            chead.o
    0x08002b80   0x08002b80   0x00000002   Code   RO         1334    i.km_control        slave.o
    0x08002b82   0x08002b82   0x00000002   PAD
    0x08002b84   0x08002b84   0x0000069c   Code   RO         1591    i.lcd_updata        lcd12864_app.o
    0x08003220   0x08003220   0x00000094   Code   RO            5    i.ledprocess        main.o
    0x080032b4   0x080032b4   0x000001b8   Code   RO         2097    i.ll_cc_adcpll_set  tx_phe_ll_cc_rst.o
    0x0800346c   0x0800346c   0x00000080   Code   RO         2098    i.ll_cc_clk_div_config  tx_phe_ll_cc_rst.o
    0x080034ec   0x080034ec   0x00000016   Code   RO         2099    i.ll_cc_rst_delay5ms_32khz  tx_phe_ll_cc_rst.o
    0x08003502   0x08003502   0x00000002   PAD
    0x08003504   0x08003504   0x00000060   Code   RO         2100    i.ll_cc_sys_clk_get  tx_phe_ll_cc_rst.o
    0x08003564   0x08003564   0x00000230   Code   RO         2101    i.ll_cc_syspll_set  tx_phe_ll_cc_rst.o
    0x08003794   0x08003794   0x000000ac   Code   RO         2393    i.ll_eflash_config  tx_phe_ll_eflash.o
    0x08003840   0x08003840   0x0000007c   Code   RO         2397    i.ll_eflash_erase_sector  tx_phe_ll_eflash.o
    0x080038bc   0x080038bc   0x000000b0   Code   RO         2399    i.ll_eflash_init    tx_phe_ll_eflash.o
    0x0800396c   0x0800396c   0x0000007c   Code   RO         2400    i.ll_eflash_prog_word  tx_phe_ll_eflash.o
    0x080039e8   0x080039e8   0x000007e8   Code   RO         2471    i.ll_epwm_config    tx_phe_ll_epwm.o
    0x080041d0   0x080041d0   0x000000d0   Code   RO         2474    i.ll_epwm_init      tx_phe_ll_epwm.o
    0x080042a0   0x080042a0   0x00000088   Code   RO         2476    i.ll_epwm_start     tx_phe_ll_epwm.o
    0x08004328   0x08004328   0x000000ac   Code   RO         2477    i.ll_epwm_stop      tx_phe_ll_epwm.o
    0x080043d4   0x080043d4   0x00000084   Code   RO         2846    i.ll_gpio_dir       tx_phe_ll_gpio.o
    0x08004458   0x08004458   0x000000a8   Code   RO         2847    i.ll_gpio_pull      tx_phe_ll_gpio.o
    0x08004500   0x08004500   0x0000000e   Code   RO          368    i.ll_gpio_read_data_bit  tx_phe_irq.o
    0x0800450e   0x0800450e   0x0000000e   Code   RO         1731    i.ll_gpio_write_data_bit  rc523_cfg.o
    0x0800451c   0x0800451c   0x000000cc   Code   RO         3755    i.ll_timer_config   tx_phe_ll_timer.o
    0x080045e8   0x080045e8   0x0000008c   Code   RO         3757    i.ll_timer_init     tx_phe_ll_timer.o
    0x08004674   0x08004674   0x000002b0   Code   RO         3758    i.ll_timer_io_map   tx_phe_ll_timer.o
    0x08004924   0x08004924   0x00000022   Code   RO         3759    i.ll_timer_irq_config  tx_phe_ll_timer.o
    0x08004946   0x08004946   0x00000002   PAD
    0x08004948   0x08004948   0x000000a0   Code   RO         3760    i.ll_timer_start    tx_phe_ll_timer.o
    0x080049e8   0x080049e8   0x00000098   Code   RO         3761    i.ll_timer_stop     tx_phe_ll_timer.o
    0x08004a80   0x08004a80   0x000000bc   Code   RO         3815    i.ll_usart232_config  tx_phe_ll_usart.o
    0x08004b3c   0x08004b3c   0x000000f0   Code   RO         3816    i.ll_usart232_io_map  tx_phe_ll_usart.o
    0x08004c2c   0x08004c2c   0x00000060   Code   RO         3820    i.ll_usart_init     tx_phe_ll_usart.o
    0x08004c8c   0x08004c8c   0x0000002a   Code   RO         3821    i.ll_usart_irq_config  tx_phe_ll_usart.o
    0x08004cb6   0x08004cb6   0x00000002   PAD
    0x08004cb8   0x08004cb8   0x00000260   Code   RO            6    i.main              main.o
    0x08004f18   0x08004f18   0x00000200   Code   RO            7    i.main_loop         main.o
    0x08005118   0x08005118   0x00000098   Code   RO         1335    i.meterdata_process  slave.o
    0x080051b0   0x080051b0   0x00000040   Code   RO         1336    i.meterread_process  slave.o
    0x080051f0   0x080051f0   0x000001dc   Code   RO            8    i.network           main.o
    0x080053cc   0x080053cc   0x00000012   Code   RO         1904    i.nfc_init          nfc_app.o
    0x080053de   0x080053de   0x00000002   PAD
    0x080053e0   0x080053e0   0x00000098   Code   RO         1905    i.nfc_read_card     nfc_app.o
    0x08005478   0x08005478   0x0000006c   Code   RO            9    i.order_clear       main.o
    0x080054e4   0x080054e4   0x000001b0   Code   RO         1423    i.param_init        chead.o
    0x08005694   0x08005694   0x00000108   Code   RO         1424    i.param_save        chead.o
    0x0800579c   0x0800579c   0x0000023c   Code   RO         1337    i.protect_process   slave.o
    0x080059d8   0x080059d8   0x000004a0   Code   RO         1157    i.proto_check       proto.o
    0x08005e78   0x08005e78   0x00000004   Code   RO         1158    i.proto_run         proto.o
    0x08005e7c   0x08005e7c   0x00000080   Code   RO         1732    i.rc523_io_cfg_init  rc523_cfg.o
    0x08005efc   0x08005efc   0x0000000c   Code   RO         1221    i.read_data_eflash  eflash.o
    0x08005f08   0x08005f08   0x00000058   Code   RO         1222    i.save_data_eflash  eflash.o
    0x08005f60   0x08005f60   0x00000010   Code   RO          997    i.serial_buf_init   serial.o
    0x08005f70   0x08005f70   0x00000054   Code   RO          998    i.serial_config     serial.o
    0x08005fc4   0x08005fc4   0x00000030   Code   RO         1000    i.serial_init       serial.o
    0x08005ff4   0x08005ff4   0x00000054   Code   RO         1002    i.serial_tx_handle  serial.o
    0x08006048   0x08006048   0x00000018   Code   RO         1907    i.set_dev_sn_to_nfc  nfc_app.o
    0x08006060   0x08006060   0x00000018   Code   RO         1733    i.set_rst           rc523_cfg.o
    0x08006078   0x08006078   0x0000003c   Code   RO         4691    i.sys_eflash_config  tx_phe_system.o
    0x080060b4   0x080060b4   0x00000014   Code   RO         4692    i.sys_eflash_init   tx_phe_system.o
    0x080060c8   0x080060c8   0x00000002   Code   RO         4693    i.sys_fault_recover_context  tx_phe_system.o
    0x080060ca   0x080060ca   0x00000002   Code   RO         4694    i.sys_fault_save_context  tx_phe_system.o
    0x080060cc   0x080060cc   0x00000048   Code   RO         4695    i.sys_module_init   tx_phe_system.o
    0x08006114   0x08006114   0x0000004c   Code   RO         4696    i.sys_peripheral_init  tx_phe_system.o
    0x08006160   0x08006160   0x0000001c   Code   RO         4700    i.system_critical_section_enter  tx_phe_system.o
    0x0800617c   0x0800617c   0x00000024   Code   RO         4701    i.system_critical_section_exit  tx_phe_system.o
    0x080061a0   0x080061a0   0x00000040   Code   RO         4702    i.system_init       tx_phe_system.o
    0x080061e0   0x080061e0   0x000000d8   Code   RO         1425    i.time_process      chead.o
    0x080062b8   0x080062b8   0x00000034   Code   RO         1061    i.timer1_config     utimer.o
    0x080062ec   0x080062ec   0x00000034   Code   RO         1062    i.timer1_config2    utimer.o
    0x08006320   0x08006320   0x00000014   Code   RO         1064    i.timer1_init       utimer.o
    0x08006334   0x08006334   0x00000014   Code   RO         1065    i.timer1_start      utimer.o
    0x08006348   0x08006348   0x0000000c   Code   RO         1066    i.timer1_stop       utimer.o
    0x08006354   0x08006354   0x0000003c   Code   RO         4544    i.tx_assert_false   tx_phe_assert.o
    0x08006390   0x08006390   0x00000060   Code   RO          769    i.usart2_config     user.o
    0x080063f0   0x080063f0   0x00000030   Code   RO          770    i.usart2_init       user.o
    0x08006420   0x08006420   0x0000004c   Code   RO         1067    i.utimer_config     utimer.o
    0x0800646c   0x0800646c   0x00000030   Code   RO         1069    i.utimer_init       utimer.o
    0x0800649c   0x0800649c   0x00000028   Code   RO         1070    i.utimer_interput_handle  utimer.o
    0x080064c4   0x080064c4   0x00000014   Code   RO         1071    i.utimer_start      utimer.o
    0x080064d8   0x080064d8   0x00000540   Data   RO         1593    .constdata          lcd12864_app.o
    0x08006a18   0x08006a18   0x00000010   Data   RO         2103    .constdata          tx_phe_ll_cc_rst.o
    0x08006a28   0x08006a28   0x00000040   Data   RO         5298    Region$$Table       anon$$obj.o


    Execution Region RW_SRAM0 (Exec base: 0x20000000, Load base: 0x08006abc, Size: 0x00006000, Max: 0x00008000, ABSOLUTE, COMPRESSED[0x000001a4])

    Exec Addr    Load Addr    Size         Type   Attr      Idx    E Section Name        Object

    0x20000000   COMPRESSED   0x00000002   Data   RW           11    .data               main.o
    0x20000002   COMPRESSED   0x00000002   Data   RW          781    .data               user.o
    0x20000004   COMPRESSED   0x00000005   Data   RW         1004    .data               serial.o
    0x20000009   COMPRESSED   0x00000001   PAD
    0x2000000a   COMPRESSED   0x00000002   Data   RW         1433    .data               chead.o
    0x2000000c   COMPRESSED   0x00000002   Data   RW         1435    .data               chead.o
    0x2000000e   COMPRESSED   0x00000002   Data   RW         1438    .data               chead.o
    0x20000010   COMPRESSED   0x00000002   Data   RW         1442    .data               chead.o
    0x20000012   COMPRESSED   0x00000001   Data   RW         1445    .data               chead.o
    0x20000013   COMPRESSED   0x0000000e   Data   RW         1446    .data               chead.o
    0x20000021   COMPRESSED   0x00000001   Data   RW         1451    .data               chead.o
    0x20000022   COMPRESSED   0x00000001   Data   RW         1453    .data               chead.o
    0x20000023   COMPRESSED   0x00000001   Data   RW         1460    .data               chead.o
    0x20000024   COMPRESSED   0x00000001   Data   RW         1477    .data               chead.o
    0x20000025   COMPRESSED   0x00000001   PAD
    0x20000026   COMPRESSED   0x00000002   Data   RW         1480    .data               chead.o
    0x20000028   COMPRESSED   0x00000002   Data   RW         1482    .data               chead.o
    0x2000002a   COMPRESSED   0x00000002   Data   RW         1484    .data               chead.o
    0x2000002c   COMPRESSED   0x00000001   Data   RW         1487    .data               chead.o
    0x2000002d   COMPRESSED   0x00000200   Data   RW         1562    .data               crccheck.o
    0x2000022d   COMPRESSED   0x00000001   PAD
    0x2000022e   COMPRESSED   0x00000051   Data   RW         1594    .data               lcd12864_app.o
    0x2000027f   COMPRESSED   0x0000003e   Data   RW         1909    .data               nfc_app.o
    0x200002bd   COMPRESSED   0x00000003   PAD
    0x200002c0   COMPRESSED   0x00000018   Data   RW         4704    .data               tx_phe_system.o
    0x200002d8        -       0x00000028   Zero   RW           10    .bss                main.o
    0x20000300        -       0x000001f4   Zero   RW          777    .bss                user.o
    0x200004f4        -       0x00000080   Zero   RW          903    .bss                modules_init.o
    0x20000574        -       0x0000021a   Zero   RW         1003    .bss                serial.o
    0x2000078e        -       0x0000022c   Zero   RW         1159    .bss                proto.o
    0x200009ba   COMPRESSED   0x00000002   PAD
    0x200009bc        -       0x00000626   Zero   RW         1426    .bss                chead.o
    0x20000fe2   COMPRESSED   0x00000002   PAD
    0x20000fe4        -       0x00000064   Zero   RW         1427    .bss                chead.o
    0x20001048        -       0x0000002c   Zero   RW         1908    .bss                nfc_app.o
    0x20001074   COMPRESSED   0x00003f8c   PAD
    0x20005000        -       0x00001000   Zero   RW          971    .ARM.__AT_0x20005000  save_printf.o


    Execution Region RW_SRAM10 (Exec base: 0x20008000, Load base: 0x08006a68, Size: 0x0000006c, Max: 0x00007000, ABSOLUTE)

    Exec Addr    Load Addr    Size         Type   Attr      Idx    E Section Name        Object

    0x20008000   0x08006a68   0x00000018   Data   RW         1224    .data               eflash.o
    0x20008018   0x08006a80   0x00000004   Data   RW         1431    .data               chead.o
    0x2000801c   0x08006a84   0x00000002   Data   RW         1432    .data               chead.o
    0x2000801e   0x08006a86   0x00000002   Data   RW         1434    .data               chead.o
    0x20008020   0x08006a88   0x00000002   Data   RW         1436    .data               chead.o
    0x20008022   0x08006a8a   0x00000002   Data   RW         1439    .data               chead.o
    0x20008024   0x08006a8c   0x00000001   Data   RW         1440    .data               chead.o
    0x20008025   0x08006a8d   0x00000012   Data   RW         1447    .data               chead.o
    0x20008037   0x08006a9f   0x00000001   Data   RW         1450    .data               chead.o
    0x20008038   0x08006aa0   0x00000001   Data   RW         1452    .data               chead.o
    0x20008039   0x08006aa1   0x00000001   Data   RW         1454    .data               chead.o
    0x2000803a   0x08006aa2   0x00000001   Data   RW         1461    .data               chead.o
    0x2000803b   0x08006aa3   0x00000001   PAD
    0x2000803c   0x08006aa4   0x00000002   Data   RW         1479    .data               chead.o
    0x2000803e   0x08006aa6   0x00000002   Data   RW         1481    .data               chead.o
    0x20008040   0x08006aa8   0x00000002   Data   RW         1483    .data               chead.o
    0x20008042   0x08006aaa   0x00000001   Data   RW         1485    .data               chead.o
    0x20008043   0x08006aab   0x00000001   Data   RW         1494    .data               chead.o
    0x20008044   0x08006aac   0x0000000c   Data   RW         4579    .data               tx_phe_debug.o
    0x20008050   0x08006ab8   0x00000004   Data   RW         4580    .data               tx_phe_debug.o
    0x20008054        -       0x00000018   Zero   RW         1073    .bss                utimer.o


    Execution Region ARM_LIB_STACK (Exec base: 0x2000f000, Load base: 0x08006a68, Size: 0x00000400, Max: 0x00000400, ABSOLUTE)

    Exec Addr    Load Addr    Size         Type   Attr      Idx    E Section Name        Object

    0x2000f000        -       0x00000400   Zero   RW            1    ARM_LIB_STACK.bss   anon$$obj.o


    Execution Region RW_SRAM1 (Exec base: 0x20010000, Load base: 0x08006c60, Size: 0x00000000, Max: 0x00002000, ABSOLUTE)

    **** No section assigned to this execution region ****


    Execution Region RW_SRAM2 (Exec base: 0x20012000, Load base: 0x08006c60, Size: 0x00000000, Max: 0x00002000, ABSOLUTE)

    **** No section assigned to this execution region ****


    Execution Region RW_SRAM3 (Exec base: 0x20014000, Load base: 0x08006c60, Size: 0x00000000, Max: 0x00002000, ABSOLUTE)

    **** No section assigned to this execution region ****


    Execution Region RW_SRAM4_5 (Exec base: 0x20016000, Load base: 0x08006c60, Size: 0x00000000, Max: 0x00001000, ABSOLUTE)

    **** No section assigned to this execution region ****


    Execution Region RW_SRAM6_7 (Exec base: 0x20017000, Load base: 0x08006c60, Size: 0x00000000, Max: 0x00001000, ABSOLUTE)

    **** No section assigned to this execution region ****


    Execution Region RW_SRAM8_9 (Exec base: 0x20018000, Load base: 0x08006c60, Size: 0x00000000, Max: 0x00001000, ABSOLUTE)

    **** No section assigned to this execution region ****


    Execution Region RW_SRAM11 (Exec base: 0x20019000, Load base: 0x08006c60, Size: 0x00000000, Max: 0x00000800, ABSOLUTE)

    **** No section assigned to this execution region ****


    Execution Region RW_SRAM12_13 (Exec base: 0x20019800, Load base: 0x08006c60, Size: 0x00000000, Max: 0x00001000, ABSOLUTE)

    **** No section assigned to this execution region ****


    Execution Region RW_SRAM14 (Exec base: 0x2001a800, Load base: 0x08006c60, Size: 0x00000000, Max: 0x00000800, ABSOLUTE)

    **** No section assigned to this execution region ****


    Execution Region RW_SRAM15 (Exec base: 0x2001b000, Load base: 0x08006c60, Size: 0x00000000, Max: 0x00000800, ABSOLUTE)

    **** No section assigned to this execution region ****


    Execution Region RW_SRAM16 (Exec base: 0x2001b800, Load base: 0x08006c60, Size: 0x00000000, Max: 0x00000800, ABSOLUTE)

    **** No section assigned to this execution region ****



  Load Region LR$$.ARM.__AT_0x40000000 (Base: 0x40000000, Size: 0x00000000, Max: 0x000000e0, ABSOLUTE)

    Execution Region ER$$.ARM.__AT_0x40000000 (Exec base: 0x40000000, Load base: 0x40000000, Size: 0x000000e0, Max: 0x000000e0, ABSOLUTE, UNINIT)

    Exec Addr    Load Addr    Size         Type   Attr      Idx    E Section Name        Object

    0x40000000        -       0x000000e0   Zero   RW         4881    .ARM.__AT_0x40000000  txf5200.o



  Load Region LR$$.ARM.__AT_0x40001000 (Base: 0x40001000, Size: 0x00000000, Max: 0x000000e0, ABSOLUTE)

    Execution Region ER$$.ARM.__AT_0x40001000 (Exec base: 0x40001000, Load base: 0x40001000, Size: 0x000000e0, Max: 0x000000e0, ABSOLUTE, UNINIT)

    Exec Addr    Load Addr    Size         Type   Attr      Idx    E Section Name        Object

    0x40001000        -       0x000000e0   Zero   RW         4882    .ARM.__AT_0x40001000  txf5200.o



  Load Region LR$$.ARM.__AT_0x40003000 (Base: 0x40003000, Size: 0x00000000, Max: 0x000000d0, ABSOLUTE)

    Execution Region ER$$.ARM.__AT_0x40003000 (Exec base: 0x40003000, Load base: 0x40003000, Size: 0x000000d0, Max: 0x000000d0, ABSOLUTE, UNINIT)

    Exec Addr    Load Addr    Size         Type   Attr      Idx    E Section Name        Object

    0x40003000        -       0x000000d0   Zero   RW         4883    .ARM.__AT_0x40003000  txf5200.o



  Load Region LR$$.ARM.__AT_0x40004000 (Base: 0x40004000, Size: 0x00000000, Max: 0x000000d0, ABSOLUTE)

    Execution Region ER$$.ARM.__AT_0x40004000 (Exec base: 0x40004000, Load base: 0x40004000, Size: 0x000000d0, Max: 0x000000d0, ABSOLUTE, UNINIT)

    Exec Addr    Load Addr    Size         Type   Attr      Idx    E Section Name        Object

    0x40004000        -       0x000000d0   Zero   RW         4884    .ARM.__AT_0x40004000  txf5200.o



  Load Region LR$$.ARM.__AT_0x40005000 (Base: 0x40005000, Size: 0x00000000, Max: 0x000000d0, ABSOLUTE)

    Execution Region ER$$.ARM.__AT_0x40005000 (Exec base: 0x40005000, Load base: 0x40005000, Size: 0x000000d0, Max: 0x000000d0, ABSOLUTE, UNINIT)

    Exec Addr    Load Addr    Size         Type   Attr      Idx    E Section Name        Object

    0x40005000        -       0x000000d0   Zero   RW         4885    .ARM.__AT_0x40005000  txf5200.o



  Load Region LR$$.ARM.__AT_0x40006000 (Base: 0x40006000, Size: 0x00000000, Max: 0x0000002c, ABSOLUTE)

    Execution Region ER$$.ARM.__AT_0x40006000 (Exec base: 0x40006000, Load base: 0x40006000, Size: 0x0000002c, Max: 0x0000002c, ABSOLUTE, UNINIT)

    Exec Addr    Load Addr    Size         Type   Attr      Idx    E Section Name        Object

    0x40006000        -       0x0000002c   Zero   RW         4886    .ARM.__AT_0x40006000  txf5200.o



  Load Region LR$$.ARM.__AT_0x40007000 (Base: 0x40007000, Size: 0x00000000, Max: 0x0000002c, ABSOLUTE)

    Execution Region ER$$.ARM.__AT_0x40007000 (Exec base: 0x40007000, Load base: 0x40007000, Size: 0x0000002c, Max: 0x0000002c, ABSOLUTE, UNINIT)

    Exec Addr    Load Addr    Size         Type   Attr      Idx    E Section Name        Object

    0x40007000        -       0x0000002c   Zero   RW         4887    .ARM.__AT_0x40007000  txf5200.o



  Load Region LR$$.ARM.__AT_0x40009000 (Base: 0x40009000, Size: 0x00000000, Max: 0x00000004, ABSOLUTE)

    Execution Region ER$$.ARM.__AT_0x40009000 (Exec base: 0x40009000, Load base: 0x40009000, Size: 0x00000004, Max: 0x00000004, ABSOLUTE, UNINIT)

    Exec Addr    Load Addr    Size         Type   Attr      Idx    E Section Name        Object

    0x40009000        -       0x00000004   Zero   RW         4888    .ARM.__AT_0x40009000  txf5200.o



  Load Region LR$$.ARM.__AT_0x4000A000 (Base: 0x4000a000, Size: 0x00000000, Max: 0x00000068, ABSOLUTE)

    Execution Region ER$$.ARM.__AT_0x4000A000 (Exec base: 0x4000a000, Load base: 0x4000a000, Size: 0x00000068, Max: 0x00000068, ABSOLUTE, UNINIT)

    Exec Addr    Load Addr    Size         Type   Attr      Idx    E Section Name        Object

    0x4000a000        -       0x00000068   Zero   RW         4889    .ARM.__AT_0x4000A000  txf5200.o



  Load Region LR$$.ARM.__AT_0x4000D000 (Base: 0x4000d000, Size: 0x00000000, Max: 0x00000010, ABSOLUTE)

    Execution Region ER$$.ARM.__AT_0x4000D000 (Exec base: 0x4000d000, Load base: 0x4000d000, Size: 0x00000010, Max: 0x00000010, ABSOLUTE, UNINIT)

    Exec Addr    Load Addr    Size         Type   Attr      Idx    E Section Name        Object

    0x4000d000        -       0x00000010   Zero   RW         4890    .ARM.__AT_0x4000D000  txf5200.o



  Load Region LR$$.ARM.__AT_0x4000D010 (Base: 0x4000d010, Size: 0x00000000, Max: 0x00000010, ABSOLUTE)

    Execution Region ER$$.ARM.__AT_0x4000D010 (Exec base: 0x4000d010, Load base: 0x4000d010, Size: 0x00000010, Max: 0x00000010, ABSOLUTE, UNINIT)

    Exec Addr    Load Addr    Size         Type   Attr      Idx    E Section Name        Object

    0x4000d010        -       0x00000010   Zero   RW         4891    .ARM.__AT_0x4000D010  txf5200.o



  Load Region LR$$.ARM.__AT_0x4000D020 (Base: 0x4000d020, Size: 0x00000000, Max: 0x00000010, ABSOLUTE)

    Execution Region ER$$.ARM.__AT_0x4000D020 (Exec base: 0x4000d020, Load base: 0x4000d020, Size: 0x00000010, Max: 0x00000010, ABSOLUTE, UNINIT)

    Exec Addr    Load Addr    Size         Type   Attr      Idx    E Section Name        Object

    0x4000d020        -       0x00000010   Zero   RW         4892    .ARM.__AT_0x4000D020  txf5200.o



  Load Region LR$$.ARM.__AT_0x4000D030 (Base: 0x4000d030, Size: 0x00000000, Max: 0x00000010, ABSOLUTE)

    Execution Region ER$$.ARM.__AT_0x4000D030 (Exec base: 0x4000d030, Load base: 0x4000d030, Size: 0x00000010, Max: 0x00000010, ABSOLUTE, UNINIT)

    Exec Addr    Load Addr    Size         Type   Attr      Idx    E Section Name        Object

    0x4000d030        -       0x00000010   Zero   RW         4893    .ARM.__AT_0x4000D030  txf5200.o



  Load Region LR$$.ARM.__AT_0x40012000 (Base: 0x40012000, Size: 0x00000000, Max: 0x0000003c, ABSOLUTE)

    Execution Region ER$$.ARM.__AT_0x40012000 (Exec base: 0x40012000, Load base: 0x40012000, Size: 0x0000003c, Max: 0x0000003c, ABSOLUTE, UNINIT)

    Exec Addr    Load Addr    Size         Type   Attr      Idx    E Section Name        Object

    0x40012000        -       0x0000003c   Zero   RW         4894    .ARM.__AT_0x40012000  txf5200.o



  Load Region LR$$.ARM.__AT_0x40013000 (Base: 0x40013000, Size: 0x00000000, Max: 0x00000100, ABSOLUTE)

    Execution Region ER$$.ARM.__AT_0x40013000 (Exec base: 0x40013000, Load base: 0x40013000, Size: 0x00000100, Max: 0x00000100, ABSOLUTE, UNINIT)

    Exec Addr    Load Addr    Size         Type   Attr      Idx    E Section Name        Object

    0x40013000        -       0x00000100   Zero   RW         4895    .ARM.__AT_0x40013000  txf5200.o



  Load Region LR$$.ARM.__AT_0x40014000 (Base: 0x40014000, Size: 0x00000000, Max: 0x00000008, ABSOLUTE)

    Execution Region ER$$.ARM.__AT_0x40014000 (Exec base: 0x40014000, Load base: 0x40014000, Size: 0x00000008, Max: 0x00000008, ABSOLUTE, UNINIT)

    Exec Addr    Load Addr    Size         Type   Attr      Idx    E Section Name        Object

    0x40014000        -       0x00000008   Zero   RW         4896    .ARM.__AT_0x40014000  txf5200.o



  Load Region LR$$.ARM.__AT_0x40015000 (Base: 0x40015000, Size: 0x00000000, Max: 0x00000010, ABSOLUTE)

    Execution Region ER$$.ARM.__AT_0x40015000 (Exec base: 0x40015000, Load base: 0x40015000, Size: 0x00000010, Max: 0x00000010, ABSOLUTE, UNINIT)

    Exec Addr    Load Addr    Size         Type   Attr      Idx    E Section Name        Object

    0x40015000        -       0x00000010   Zero   RW         4897    .ARM.__AT_0x40015000  txf5200.o



  Load Region LR$$.ARM.__AT_0x40015010 (Base: 0x40015010, Size: 0x00000000, Max: 0x00000010, ABSOLUTE)

    Execution Region ER$$.ARM.__AT_0x40015010 (Exec base: 0x40015010, Load base: 0x40015010, Size: 0x00000010, Max: 0x00000010, ABSOLUTE, UNINIT)

    Exec Addr    Load Addr    Size         Type   Attr      Idx    E Section Name        Object

    0x40015010        -       0x00000010   Zero   RW         4898    .ARM.__AT_0x40015010  txf5200.o



  Load Region LR$$.ARM.__AT_0x40015020 (Base: 0x40015020, Size: 0x00000000, Max: 0x00000010, ABSOLUTE)

    Execution Region ER$$.ARM.__AT_0x40015020 (Exec base: 0x40015020, Load base: 0x40015020, Size: 0x00000010, Max: 0x00000010, ABSOLUTE, UNINIT)

    Exec Addr    Load Addr    Size         Type   Attr      Idx    E Section Name        Object

    0x40015020        -       0x00000010   Zero   RW         4899    .ARM.__AT_0x40015020  txf5200.o



  Load Region LR$$.ARM.__AT_0x40015030 (Base: 0x40015030, Size: 0x00000000, Max: 0x00000010, ABSOLUTE)

    Execution Region ER$$.ARM.__AT_0x40015030 (Exec base: 0x40015030, Load base: 0x40015030, Size: 0x00000010, Max: 0x00000010, ABSOLUTE, UNINIT)

    Exec Addr    Load Addr    Size         Type   Attr      Idx    E Section Name        Object

    0x40015030        -       0x00000010   Zero   RW         4900    .ARM.__AT_0x40015030  txf5200.o



  Load Region LR$$.ARM.__AT_0x40017000 (Base: 0x40017000, Size: 0x00000000, Max: 0x00000028, ABSOLUTE)

    Execution Region ER$$.ARM.__AT_0x40017000 (Exec base: 0x40017000, Load base: 0x40017000, Size: 0x00000028, Max: 0x00000028, ABSOLUTE, UNINIT)

    Exec Addr    Load Addr    Size         Type   Attr      Idx    E Section Name        Object

    0x40017000        -       0x00000028   Zero   RW         4901    .ARM.__AT_0x40017000  txf5200.o



  Load Region LR$$.ARM.__AT_0x4001C000 (Base: 0x4001c000, Size: 0x00000000, Max: 0x00000010, ABSOLUTE)

    Execution Region ER$$.ARM.__AT_0x4001C000 (Exec base: 0x4001c000, Load base: 0x4001c000, Size: 0x00000010, Max: 0x00000010, ABSOLUTE, UNINIT)

    Exec Addr    Load Addr    Size         Type   Attr      Idx    E Section Name        Object

    0x4001c000        -       0x00000010   Zero   RW         4902    .ARM.__AT_0x4001C000  txf5200.o



  Load Region LR$$.ARM.__AT_0x4001D000 (Base: 0x4001d000, Size: 0x00000000, Max: 0x00000010, ABSOLUTE)

    Execution Region ER$$.ARM.__AT_0x4001D000 (Exec base: 0x4001d000, Load base: 0x4001d000, Size: 0x00000010, Max: 0x00000010, ABSOLUTE, UNINIT)

    Exec Addr    Load Addr    Size         Type   Attr      Idx    E Section Name        Object

    0x4001d000        -       0x00000010   Zero   RW         4903    .ARM.__AT_0x4001D000  txf5200.o



  Load Region LR$$.ARM.__AT_0x40020000 (Base: 0x40020000, Size: 0x00000000, Max: 0x000003b8, ABSOLUTE)

    Execution Region ER$$.ARM.__AT_0x40020000 (Exec base: 0x40020000, Load base: 0x40020000, Size: 0x000003b8, Max: 0x000003b8, ABSOLUTE, UNINIT)

    Exec Addr    Load Addr    Size         Type   Attr      Idx    E Section Name        Object

    0x40020000        -       0x000003b8   Zero   RW         4904    .ARM.__AT_0x40020000  txf5200.o



  Load Region LR$$.ARM.__AT_0x40021000 (Base: 0x40021000, Size: 0x00000000, Max: 0x00000060, ABSOLUTE)

    Execution Region ER$$.ARM.__AT_0x40021000 (Exec base: 0x40021000, Load base: 0x40021000, Size: 0x00000060, Max: 0x00000060, ABSOLUTE, UNINIT)

    Exec Addr    Load Addr    Size         Type   Attr      Idx    E Section Name        Object

    0x40021000        -       0x00000060   Zero   RW         4905    .ARM.__AT_0x40021000  txf5200.o



  Load Region LR$$.ARM.__AT_0x40022000 (Base: 0x40022000, Size: 0x00000000, Max: 0x0000003c, ABSOLUTE)

    Execution Region ER$$.ARM.__AT_0x40022000 (Exec base: 0x40022000, Load base: 0x40022000, Size: 0x0000003c, Max: 0x0000003c, ABSOLUTE, UNINIT)

    Exec Addr    Load Addr    Size         Type   Attr      Idx    E Section Name        Object

    0x40022000        -       0x0000003c   Zero   RW         4906    .ARM.__AT_0x40022000  txf5200.o



  Load Region LR$$.ARM.__AT_0x40024000 (Base: 0x40024000, Size: 0x00000000, Max: 0x0000003c, ABSOLUTE)

    Execution Region ER$$.ARM.__AT_0x40024000 (Exec base: 0x40024000, Load base: 0x40024000, Size: 0x0000003c, Max: 0x0000003c, ABSOLUTE, UNINIT)

    Exec Addr    Load Addr    Size         Type   Attr      Idx    E Section Name        Object

    0x40024000        -       0x0000003c   Zero   RW         4907    .ARM.__AT_0x40024000  txf5200.o



  Load Region LR$$.ARM.__AT_0x40025000 (Base: 0x40025000, Size: 0x00000000, Max: 0x0000003c, ABSOLUTE)

    Execution Region ER$$.ARM.__AT_0x40025000 (Exec base: 0x40025000, Load base: 0x40025000, Size: 0x0000003c, Max: 0x0000003c, ABSOLUTE, UNINIT)

    Exec Addr    Load Addr    Size         Type   Attr      Idx    E Section Name        Object

    0x40025000        -       0x0000003c   Zero   RW         4908    .ARM.__AT_0x40025000  txf5200.o



  Load Region LR$$.ARM.__AT_0x40026000 (Base: 0x40026000, Size: 0x00000000, Max: 0x00000084, ABSOLUTE)

    Execution Region ER$$.ARM.__AT_0x40026000 (Exec base: 0x40026000, Load base: 0x40026000, Size: 0x00000084, Max: 0x00000084, ABSOLUTE, UNINIT)

    Exec Addr    Load Addr    Size         Type   Attr      Idx    E Section Name        Object

    0x40026000        -       0x00000084   Zero   RW         4909    .ARM.__AT_0x40026000  txf5200.o



  Load Region LR$$.ARM.__AT_0x40027000 (Base: 0x40027000, Size: 0x00000000, Max: 0x0000003c, ABSOLUTE)

    Execution Region ER$$.ARM.__AT_0x40027000 (Exec base: 0x40027000, Load base: 0x40027000, Size: 0x0000003c, Max: 0x0000003c, ABSOLUTE, UNINIT)

    Exec Addr    Load Addr    Size         Type   Attr      Idx    E Section Name        Object

    0x40027000        -       0x0000003c   Zero   RW         4910    .ARM.__AT_0x40027000  txf5200.o



  Load Region LR$$.ARM.__AT_0x40029000 (Base: 0x40029000, Size: 0x00000000, Max: 0x000000b0, ABSOLUTE)

    Execution Region ER$$.ARM.__AT_0x40029000 (Exec base: 0x40029000, Load base: 0x40029000, Size: 0x000000b0, Max: 0x000000b0, ABSOLUTE, UNINIT)

    Exec Addr    Load Addr    Size         Type   Attr      Idx    E Section Name        Object

    0x40029000        -       0x000000b0   Zero   RW         4911    .ARM.__AT_0x40029000  txf5200.o



  Load Region LR$$.ARM.__AT_0x40030000 (Base: 0x40030000, Size: 0x00000000, Max: 0x00000014, ABSOLUTE)

    Execution Region ER$$.ARM.__AT_0x40030000 (Exec base: 0x40030000, Load base: 0x40030000, Size: 0x00000014, Max: 0x00000014, ABSOLUTE, UNINIT)

    Exec Addr    Load Addr    Size         Type   Attr      Idx    E Section Name        Object

    0x40030000        -       0x00000014   Zero   RW         4912    .ARM.__AT_0x40030000  txf5200.o



  Load Region LR$$.ARM.__AT_0x40031000 (Base: 0x40031000, Size: 0x00000000, Max: 0x0000007c, ABSOLUTE)

    Execution Region ER$$.ARM.__AT_0x40031000 (Exec base: 0x40031000, Load base: 0x40031000, Size: 0x0000007c, Max: 0x0000007c, ABSOLUTE, UNINIT)

    Exec Addr    Load Addr    Size         Type   Attr      Idx    E Section Name        Object

    0x40031000        -       0x0000007c   Zero   RW         4913    .ARM.__AT_0x40031000  txf5200.o



  Load Region LR$$.ARM.__AT_0x40032000 (Base: 0x40032000, Size: 0x00000000, Max: 0x000000e0, ABSOLUTE)

    Execution Region ER$$.ARM.__AT_0x40032000 (Exec base: 0x40032000, Load base: 0x40032000, Size: 0x000000e0, Max: 0x000000e0, ABSOLUTE, UNINIT)

    Exec Addr    Load Addr    Size         Type   Attr      Idx    E Section Name        Object

    0x40032000        -       0x000000e0   Zero   RW         4914    .ARM.__AT_0x40032000  txf5200.o



  Load Region LR$$.ARM.__AT_0x40033000 (Base: 0x40033000, Size: 0x00000000, Max: 0x00000034, ABSOLUTE)

    Execution Region ER$$.ARM.__AT_0x40033000 (Exec base: 0x40033000, Load base: 0x40033000, Size: 0x00000034, Max: 0x00000034, ABSOLUTE, UNINIT)

    Exec Addr    Load Addr    Size         Type   Attr      Idx    E Section Name        Object

    0x40033000        -       0x00000034   Zero   RW         4915    .ARM.__AT_0x40033000  txf5200.o



  Load Region LR$$.ARM.__AT_0x40035000 (Base: 0x40035000, Size: 0x00000000, Max: 0x00000040, ABSOLUTE)

    Execution Region ER$$.ARM.__AT_0x40035000 (Exec base: 0x40035000, Load base: 0x40035000, Size: 0x00000040, Max: 0x00000040, ABSOLUTE, UNINIT)

    Exec Addr    Load Addr    Size         Type   Attr      Idx    E Section Name        Object

    0x40035000        -       0x00000040   Zero   RW         4916    .ARM.__AT_0x40035000  txf5200.o



  Load Region LR$$.ARM.__AT_0x40035040 (Base: 0x40035040, Size: 0x00000000, Max: 0x00000040, ABSOLUTE)

    Execution Region ER$$.ARM.__AT_0x40035040 (Exec base: 0x40035040, Load base: 0x40035040, Size: 0x00000040, Max: 0x00000040, ABSOLUTE, UNINIT)

    Exec Addr    Load Addr    Size         Type   Attr      Idx    E Section Name        Object

    0x40035040        -       0x00000040   Zero   RW         4917    .ARM.__AT_0x40035040  txf5200.o



  Load Region LR$$.ARM.__AT_0x40035080 (Base: 0x40035080, Size: 0x00000000, Max: 0x00000040, ABSOLUTE)

    Execution Region ER$$.ARM.__AT_0x40035080 (Exec base: 0x40035080, Load base: 0x40035080, Size: 0x00000040, Max: 0x00000040, ABSOLUTE, UNINIT)

    Exec Addr    Load Addr    Size         Type   Attr      Idx    E Section Name        Object

    0x40035080        -       0x00000040   Zero   RW         4918    .ARM.__AT_0x40035080  txf5200.o



  Load Region LR$$.ARM.__AT_0x400350C0 (Base: 0x400350c0, Size: 0x00000000, Max: 0x00000040, ABSOLUTE)

    Execution Region ER$$.ARM.__AT_0x400350C0 (Exec base: 0x400350c0, Load base: 0x400350c0, Size: 0x00000040, Max: 0x00000040, ABSOLUTE, UNINIT)

    Exec Addr    Load Addr    Size         Type   Attr      Idx    E Section Name        Object

    0x400350c0        -       0x00000040   Zero   RW         4919    .ARM.__AT_0x400350C0  txf5200.o



  Load Region LR$$.ARM.__AT_0x40035100 (Base: 0x40035100, Size: 0x00000000, Max: 0x00000040, ABSOLUTE)

    Execution Region ER$$.ARM.__AT_0x40035100 (Exec base: 0x40035100, Load base: 0x40035100, Size: 0x00000040, Max: 0x00000040, ABSOLUTE, UNINIT)

    Exec Addr    Load Addr    Size         Type   Attr      Idx    E Section Name        Object

    0x40035100        -       0x00000040   Zero   RW         4920    .ARM.__AT_0x40035100  txf5200.o



  Load Region LR$$.ARM.__AT_0x40035140 (Base: 0x40035140, Size: 0x00000000, Max: 0x00000140, ABSOLUTE)

    Execution Region ER$$.ARM.__AT_0x40035140 (Exec base: 0x40035140, Load base: 0x40035140, Size: 0x00000140, Max: 0x00000140, ABSOLUTE, UNINIT)

    Exec Addr    Load Addr    Size         Type   Attr      Idx    E Section Name        Object

    0x40035140        -       0x00000140   Zero   RW         4921    .ARM.__AT_0x40035140  txf5200.o



  Load Region LR$$.ARM.__AT_0x40035280 (Base: 0x40035280, Size: 0x00000000, Max: 0x00000040, ABSOLUTE)

    Execution Region ER$$.ARM.__AT_0x40035280 (Exec base: 0x40035280, Load base: 0x40035280, Size: 0x00000040, Max: 0x00000040, ABSOLUTE, UNINIT)

    Exec Addr    Load Addr    Size         Type   Attr      Idx    E Section Name        Object

    0x40035280        -       0x00000040   Zero   RW         4922    .ARM.__AT_0x40035280  txf5200.o



  Load Region LR$$.ARM.__AT_0x400352C0 (Base: 0x400352c0, Size: 0x00000000, Max: 0x00000040, ABSOLUTE)

    Execution Region ER$$.ARM.__AT_0x400352C0 (Exec base: 0x400352c0, Load base: 0x400352c0, Size: 0x00000040, Max: 0x00000040, ABSOLUTE, UNINIT)

    Exec Addr    Load Addr    Size         Type   Attr      Idx    E Section Name        Object

    0x400352c0        -       0x00000040   Zero   RW         4923    .ARM.__AT_0x400352C0  txf5200.o



  Load Region LR$$.ARM.__AT_0x40035300 (Base: 0x40035300, Size: 0x00000000, Max: 0x00000040, ABSOLUTE)

    Execution Region ER$$.ARM.__AT_0x40035300 (Exec base: 0x40035300, Load base: 0x40035300, Size: 0x00000040, Max: 0x00000040, ABSOLUTE, UNINIT)

    Exec Addr    Load Addr    Size         Type   Attr      Idx    E Section Name        Object

    0x40035300        -       0x00000040   Zero   RW         4924    .ARM.__AT_0x40035300  txf5200.o



  Load Region LR$$.ARM.__AT_0x40035340 (Base: 0x40035340, Size: 0x00000000, Max: 0x00000040, ABSOLUTE)

    Execution Region ER$$.ARM.__AT_0x40035340 (Exec base: 0x40035340, Load base: 0x40035340, Size: 0x00000040, Max: 0x00000040, ABSOLUTE, UNINIT)

    Exec Addr    Load Addr    Size         Type   Attr      Idx    E Section Name        Object

    0x40035340        -       0x00000040   Zero   RW         4925    .ARM.__AT_0x40035340  txf5200.o



  Load Region LR$$.ARM.__AT_0x40035380 (Base: 0x40035380, Size: 0x00000000, Max: 0x00000040, ABSOLUTE)

    Execution Region ER$$.ARM.__AT_0x40035380 (Exec base: 0x40035380, Load base: 0x40035380, Size: 0x00000040, Max: 0x00000040, ABSOLUTE, UNINIT)

    Exec Addr    Load Addr    Size         Type   Attr      Idx    E Section Name        Object

    0x40035380        -       0x00000040   Zero   RW         4926    .ARM.__AT_0x40035380  txf5200.o



  Load Region LR$$.ARM.__AT_0x400353C0 (Base: 0x400353c0, Size: 0x00000000, Max: 0x00000040, ABSOLUTE)

    Execution Region ER$$.ARM.__AT_0x400353C0 (Exec base: 0x400353c0, Load base: 0x400353c0, Size: 0x00000040, Max: 0x00000040, ABSOLUTE, UNINIT)

    Exec Addr    Load Addr    Size         Type   Attr      Idx    E Section Name        Object

    0x400353c0        -       0x00000040   Zero   RW         4927    .ARM.__AT_0x400353C0  txf5200.o



  Load Region LR$$.ARM.__AT_0x40035400 (Base: 0x40035400, Size: 0x00000000, Max: 0x00000040, ABSOLUTE)

    Execution Region ER$$.ARM.__AT_0x40035400 (Exec base: 0x40035400, Load base: 0x40035400, Size: 0x00000040, Max: 0x00000040, ABSOLUTE, UNINIT)

    Exec Addr    Load Addr    Size         Type   Attr      Idx    E Section Name        Object

    0x40035400        -       0x00000040   Zero   RW         4928    .ARM.__AT_0x40035400  txf5200.o



  Load Region LR$$.ARM.__AT_0x40035440 (Base: 0x40035440, Size: 0x00000000, Max: 0x00000040, ABSOLUTE)

    Execution Region ER$$.ARM.__AT_0x40035440 (Exec base: 0x40035440, Load base: 0x40035440, Size: 0x00000040, Max: 0x00000040, ABSOLUTE, UNINIT)

    Exec Addr    Load Addr    Size         Type   Attr      Idx    E Section Name        Object

    0x40035440        -       0x00000040   Zero   RW         4929    .ARM.__AT_0x40035440  txf5200.o



  Load Region LR$$.ARM.__AT_0x40035480 (Base: 0x40035480, Size: 0x00000000, Max: 0x00000040, ABSOLUTE)

    Execution Region ER$$.ARM.__AT_0x40035480 (Exec base: 0x40035480, Load base: 0x40035480, Size: 0x00000040, Max: 0x00000040, ABSOLUTE, UNINIT)

    Exec Addr    Load Addr    Size         Type   Attr      Idx    E Section Name        Object

    0x40035480        -       0x00000040   Zero   RW         4930    .ARM.__AT_0x40035480  txf5200.o



  Load Region LR$$.ARM.__AT_0x400354C0 (Base: 0x400354c0, Size: 0x00000000, Max: 0x00000040, ABSOLUTE)

    Execution Region ER$$.ARM.__AT_0x400354C0 (Exec base: 0x400354c0, Load base: 0x400354c0, Size: 0x00000040, Max: 0x00000040, ABSOLUTE, UNINIT)

    Exec Addr    Load Addr    Size         Type   Attr      Idx    E Section Name        Object

    0x400354c0        -       0x00000040   Zero   RW         4931    .ARM.__AT_0x400354C0  txf5200.o



  Load Region LR$$.ARM.__AT_0x40035500 (Base: 0x40035500, Size: 0x00000000, Max: 0x00000040, ABSOLUTE)

    Execution Region ER$$.ARM.__AT_0x40035500 (Exec base: 0x40035500, Load base: 0x40035500, Size: 0x00000040, Max: 0x00000040, ABSOLUTE, UNINIT)

    Exec Addr    Load Addr    Size         Type   Attr      Idx    E Section Name        Object

    0x40035500        -       0x00000040   Zero   RW         4932    .ARM.__AT_0x40035500  txf5200.o



  Load Region LR$$.ARM.__AT_0x40036000 (Base: 0x40036000, Size: 0x00000000, Max: 0x00000264, ABSOLUTE)

    Execution Region ER$$.ARM.__AT_0x40036000 (Exec base: 0x40036000, Load base: 0x40036000, Size: 0x00000264, Max: 0x00000264, ABSOLUTE, UNINIT)

    Exec Addr    Load Addr    Size         Type   Attr      Idx    E Section Name        Object

    0x40036000        -       0x00000264   Zero   RW         4933    .ARM.__AT_0x40036000  txf5200.o



  Load Region LR$$.ARM.__AT_0x40036300 (Base: 0x40036300, Size: 0x00000000, Max: 0x00000060, ABSOLUTE)

    Execution Region ER$$.ARM.__AT_0x40036300 (Exec base: 0x40036300, Load base: 0x40036300, Size: 0x00000060, Max: 0x00000060, ABSOLUTE, UNINIT)

    Exec Addr    Load Addr    Size         Type   Attr      Idx    E Section Name        Object

    0x40036300        -       0x00000060   Zero   RW         4934    .ARM.__AT_0x40036300  txf5200.o



  Load Region LR$$.ARM.__AT_0x40036360 (Base: 0x40036360, Size: 0x00000000, Max: 0x00000060, ABSOLUTE)

    Execution Region ER$$.ARM.__AT_0x40036360 (Exec base: 0x40036360, Load base: 0x40036360, Size: 0x00000060, Max: 0x00000060, ABSOLUTE, UNINIT)

    Exec Addr    Load Addr    Size         Type   Attr      Idx    E Section Name        Object

    0x40036360        -       0x00000060   Zero   RW         4935    .ARM.__AT_0x40036360  txf5200.o



  Load Region LR$$.ARM.__AT_0x400363C0 (Base: 0x400363c0, Size: 0x00000000, Max: 0x00000060, ABSOLUTE)

    Execution Region ER$$.ARM.__AT_0x400363C0 (Exec base: 0x400363c0, Load base: 0x400363c0, Size: 0x00000060, Max: 0x00000060, ABSOLUTE, UNINIT)

    Exec Addr    Load Addr    Size         Type   Attr      Idx    E Section Name        Object

    0x400363c0        -       0x00000060   Zero   RW         4936    .ARM.__AT_0x400363C0  txf5200.o



  Load Region LR$$.ARM.__AT_0x40036420 (Base: 0x40036420, Size: 0x00000000, Max: 0x00000030, ABSOLUTE)

    Execution Region ER$$.ARM.__AT_0x40036420 (Exec base: 0x40036420, Load base: 0x40036420, Size: 0x00000030, Max: 0x00000030, ABSOLUTE, UNINIT)

    Exec Addr    Load Addr    Size         Type   Attr      Idx    E Section Name        Object

    0x40036420        -       0x00000030   Zero   RW         4937    .ARM.__AT_0x40036420  txf5200.o



  Load Region LR$$.ARM.__AT_0x40036450 (Base: 0x40036450, Size: 0x00000000, Max: 0x00000030, ABSOLUTE)

    Execution Region ER$$.ARM.__AT_0x40036450 (Exec base: 0x40036450, Load base: 0x40036450, Size: 0x00000030, Max: 0x00000030, ABSOLUTE, UNINIT)

    Exec Addr    Load Addr    Size         Type   Attr      Idx    E Section Name        Object

    0x40036450        -       0x00000030   Zero   RW         4938    .ARM.__AT_0x40036450  txf5200.o



  Load Region LR$$.ARM.__AT_0x40036480 (Base: 0x40036480, Size: 0x00000000, Max: 0x00000030, ABSOLUTE)

    Execution Region ER$$.ARM.__AT_0x40036480 (Exec base: 0x40036480, Load base: 0x40036480, Size: 0x00000030, Max: 0x00000030, ABSOLUTE, UNINIT)

    Exec Addr    Load Addr    Size         Type   Attr      Idx    E Section Name        Object

    0x40036480        -       0x00000030   Zero   RW         4939    .ARM.__AT_0x40036480  txf5200.o



  Load Region LR$$.ARM.__AT_0x40037000 (Base: 0x40037000, Size: 0x00000000, Max: 0x00000140, ABSOLUTE)

    Execution Region ER$$.ARM.__AT_0x40037000 (Exec base: 0x40037000, Load base: 0x40037000, Size: 0x00000140, Max: 0x00000140, ABSOLUTE, UNINIT)

    Exec Addr    Load Addr    Size         Type   Attr      Idx    E Section Name        Object

    0x40037000        -       0x00000140   Zero   RW         4940    .ARM.__AT_0x40037000  txf5200.o



  Load Region LR$$.ARM.__AT_0x40038000 (Base: 0x40038000, Size: 0x00000000, Max: 0x00000258, ABSOLUTE)

    Execution Region ER$$.ARM.__AT_0x40038000 (Exec base: 0x40038000, Load base: 0x40038000, Size: 0x00000258, Max: 0x00000258, ABSOLUTE, UNINIT)

    Exec Addr    Load Addr    Size         Type   Attr      Idx    E Section Name        Object

    0x40038000        -       0x00000258   Zero   RW         4941    .ARM.__AT_0x40038000  txf5200.o


==============================================================================

Image component sizes


      Code (inc. data)   RO Data    RW Data    ZI Data      Debug   Object Name

      1296         46          0         77       1674      14776   chead.o
        52          6          0        512          0       1485   crccheck.o
       264         42          0         24          0       9305   eflash.o
      1772        174       1344         81          0       5228   lcd12864_app.o
       972         34          0          0          0       8581   lcd12864_drv.o
      1852        194          0          2         40      98463   main.o
       156         24          0          0        128       2933   modules_init.o
       362         26          0         62         44       4461   nfc_app.o
      3080         94          0          0        556       9454   proto.o
       510         26          0          0          0       5395   rc523_cfg.o
      1306          0          0          0          0      11191   rc523_drv.o
         0          0          0          0       4096        740   save_printf.o
       232         40          0          5        538       3846   serial.o
       790         72          0          0          0      11951   slave.o
        60         50          0          0          0       1194   tx_phe_assert.o
       112         20          0         16          0      37848   tx_phe_debug.o
      1570        134          0          0          0      63568   tx_phe_irq.o
         0          0          0          0          0       3484   tx_phe_ll_can.o
      1246         80         16          0          0       6644   tx_phe_ll_cc_rst.o
       596        292          0          0          0      15763   tx_phe_ll_eflash.o
      2540        266          0          0          0       6251   tx_phe_ll_epwm.o
       300        146          0          0          0       2073   tx_phe_ll_gpio.o
      1378        356          0          0          0       5379   tx_phe_ll_timer.o
       566        218          0          0          0       3668   tx_phe_ll_usart.o
       108          6          0          0          0       1276   tx_phe_misc.o
        20          0        316          0          0       2171   tx_phe_startup.o
      1684        908          0         24          0      42848   tx_phe_system.o
         0          0          0          0       7116       2660   txf5200.o
       268         32          0          2        500       5611   user.o
       340         64          0          0         24       5077   utimer.o

    ----------------------------------------------------------------------
     23456       3350       1740        812      32012     393324   Object Totals
         0          0         64          0       1024          0   (incl. Generated)
        24          0          0          7      16272          0   (incl. Padding)

    ----------------------------------------------------------------------

      Code (inc. data)   RO Data    RW Data    ZI Data      Debug   Library Member Name

        86          0          0          0          0          0   __dczerorl2.o
         0          0          0          0          0          0   entry.o
         0          0          0          0          0          0   entry10a.o
         0          0          0          0          0          0   entry11a.o
         4          0          0          0          0          0   entry12b.o
         8          4          0          0          0          0   entry4.o
         4          0          0          0          0          0   entry5.o
         0          0          0          0          0          0   entry7b.o
         0          0          0          0          0          0   entry8b.o
         8          4          0          0          0          0   entry9a.o
        30          0          0          0          0          0   handlers.o
        36          8          0          0          0         68   init.o
         0          0          0          0          0          0   iusefp.o
        30          0          0          0          0         68   llshl.o
        32          0          0          0          0         68   llushr.o
        36          0          0          0          0         68   memcpya.o
        36          0          0          0          0        108   memseta.o
      1142         54          0          0          0        352   printf8.o
        98          0          0          0          0         92   uldiv.o
       186          0          0          0          0        176   depilogue.o
        50          0          0          0          0         76   dfixui.o
        26          0          0          0          0         76   dfltui.o
       228          0          0          0          0         96   dmul.o

    ----------------------------------------------------------------------
      2044         70          0          0          0       1248   Library Totals
         4          0          0          0          0          0   (incl. Padding)

    ----------------------------------------------------------------------

      Code (inc. data)   RO Data    RW Data    ZI Data      Debug   Library Name

      1550         70          0          0          0        824   mc_w.l
       490          0          0          0          0        424   mf_w.l

    ----------------------------------------------------------------------
      2044         70          0          0          0       1248   Library Totals

    ----------------------------------------------------------------------

==============================================================================


      Code (inc. data)   RO Data    RW Data    ZI Data      Debug   

     25500       3420       1740        812      32012     384144   Grand Totals
     25500       3420       1740        504      32012     384144   ELF Image Totals (compressed)
     25500       3420       1740        504          0          0   ROM Totals

==============================================================================

    Total RO  Size (Code + RO Data)                27240 (  26.60kB)
    Total RW  Size (RW Data + ZI Data)             32824 (  32.05kB)
    Total ROM Size (Code + RO Data + RW Data)      27744 (  27.09kB)

==============================================================================

