:020000040000FA
:10000000A8D2FF1F69030000790300007B030000F2
:100010007D0300007F03000081030000000000005A
:10002000000000000000000000000000830300004A
:100030008503000000000000870300008903000022
:10004000E9370000FD3700001138000025380000B6
:10005000393800004D380000613800007538000064
:10006000893800009D380000B1380000C538000014
:10007000D9380000ED3800000139000015390000C2
:100080008B0300008B0300008B0300008B03000038
:100090008B0300008B0300008B0300008B03000028
:1000A0008B0300008B0300008B0300008B03000018
:1000B0008B0300008B0300008B0300008B03000008
:1000C0008B0300008B0300008B0300008B030000F8
:1000D0008B0300008B0300008B0300008B030000E8
:1000E0008B0300008B0300008B0300008B030000D8
:1000F0008B030000D14200008B0300008B03000043
:100100008B0300008B0300008B0300008B030000B7
:100110008B0300008B0300008B0300008B030000A7
:100120008B0300008B0300008B0300008B03000097
:100130008B0300008B0300008B0300008B03000087
:100140008B0300008B0300008B0300008B03000077
:100150008B0300008B0300008B0300008B03000067
:100160008B0300008B0300008B0300008B03000057
:100170008B0300008B0300008B0300008B03000047
:100180008B0300008B0300008B0300008B03000037
:100190008B0300008B0300008B0300008B03000027
:1001A0008B0300008B0300008B0300008B03000017
:1001B0008B0300008B0300008B0300008B03000007
:1001C0008B0300008B0300008B0300008B030000F7
:1001D0008B0300008B0300008B0300008B030000E7
:1001E0008B0300008B0300008B0300008B030000D7
:1001F0008B0300008B0300008B0300008B030000C7
:100200008B0300008B0300008B0300008B030000B6
:100210008B0300008B0300008B0300008B030000A6
:100220008B0300008B0300008B0300008B03000096
:100230008B0300008B0300008B0300008B03000086
:100240008B0300008B0300008B0300008B03000076
:100250008B0300008B0300008B0300008B03000066
:100260008B0300008B0300008B0300008B03000056
:100270008B0300008B0300008B0300008B03000046
:100280008B0300008B03000000F002F800F05CF824
:100290000AA090E8000C82448344AAF10107DA45E1
:1002A00001D100F051F8AFF2090EBAE80F0013F0D7
:1002B000010F18BFFB1A43F001031847083901006A
:1002C000283901000A444FF0000C10F8013B13F0EC
:1002D000070408BF10F8014B1D1108BF10F8015B9F
:1002E000641E05D010F8016B641E01F8016BF9D192
:1002F00013F0080F1EBF10F8014BAD1C0C1B09D1E9
:100300006D1E58BF01F801CBFAD505E014F8016B5A
:1003100001F8016B6D1EF9D59142D6D370470000EC
:100320000023002400250026103A28BF78C1FBD8FE
:10033000520728BF30C148BF0B6070471FB506F099
:100340007CFA1FBD10B510BD00F08AF81146FFF70A
:10035000F5FF05F0B7FB00F030F803B4FFF7F2FF4C
:1003600003BC00F037F800000B484FF4FC7101604B
:100370000A4880470A480047FEE7FEE7FEE7FEE737
:10038000FEE7FEE7FEE7FEE7FEE7FEE70548064973
:10039000064A074B7047000010080540B1420000B4
:1003A00089020000A8C2FF1FA8D2FF1FA8C6FF1F16
:1003B000A8C6FF1F70477047704710B50446AFF3DB
:1003C00000802046BDE81040FFF7C7BF00487047D7
:1003D00040C2FF1F01491820ABBEFEE72600020005
:1003E000704703F0A1BA10B503F056FDBDE8104008
:1003F00003F008BF01490880704700000010044066
:10040000BFFFDFFFFFFFFFFFFFFFFFFFFFFFEDFF6E
:10041000FFFFFFFFFFFFFFFFFFFFFFFFFFFFFFFFEC
:10042000FFFFFFFFFFFFFFFFFFFFFFFFFFFFFFFFDC
:10043000FFFFFFFFFFFFFFFFFFFFFFFFFFFFFFFFCC
:10044000FFFFFFFFFFFFFFFFFFFFFFFFFFFFFFFFBC
:10045000FFFFFFFFFFFFFFFFFFFFFFFFFFFFFFFFAC
:100460007546FFF7B3FFAE4605006946534620F0D8
:100470000700854618B020B5FFF788FFBDE820408B
:100480004FF000064FF000074FF000084FF0000B50
:1004900021F00701AC46ACE8C009ACE8C009ACE803
:1004A000C009ACE8C0098D467047000010B584B0A3
:1004B0002B492C48FFF797FF01220321052001F06B
:1004C00011F902A800F006FB00248DF80A40302044
:1004D0008DF809008DF8084005208DF80B0002A862
:1004E00000F07EFA684600F0EBF98DF800406FF3FB
:1004F000102404F56C500190019820F0704000F138
:1005000040500190019820F0706000F1407001901F
:10051000019820F4700000F540100190019820F03F
:1005200080000190684600F0DFF8022000F026FD10
:100530004FF4005001F00CFB052000F0DBF9012026
:1005400000F054FC002000F051FC012000F0E4FC1D
:10055000012000F07DFC012000F0ACFC04B010BDD7
:10056000101101007777070714489FED130A80EDFB
:10057000000A9FED130A80ED010ADFED120AC0EDBB
:10058000020A80ED030A9FED100A80ED040A9FED38
:100590000F1A80ED051A80ED061A80ED071A9FEDFF
:1005A0000C0B80ED0C0B80ED080B80ED0A0B80ED41
:1005B0000F1A80ED101A7047013F753FF8C1FF1FF9
:1005C0002932F53F3A2F753F3B6E6A3F000000002D
:1005D000000000000000000010B50446002C02D00E
:1005E00034F0290004D040F2FD4105A000F0AAFB40
:1005F0000E480078204201D0012010BD002010BD1F
:100600002E2E5C647269766572735C686333325F48
:100610006C6C5F6472697665725C7372635C68634C
:1006200033325F6C6C5F636C6B2E63003C40054043
:1006300070B504460025002C06D0012C04D040F2F1
:10064000B3411DA000F07EFB264EB6F8FE0310F06D
:10065000010F04D140F2B44117A000F073FB64B164
:10066000D6F8000110F0800F14D04FF48051012013
:1006700000F047F90546A5B11CE096F8260000F009
:100680000700052803D0012086F82A0012E06FF049
:1006900005050FE04FF48051082000F032F90546BF
:1006A000E9E7002086F82A004FF48051202000F06E
:1006B00028F90546284670BD2E2E5C647269766561
:1006C00072735C686333325F6C6C5F647269766509
:1006D000725C7372635C686333325F6C6C5F636C13
:1006E0006B2E6300004005402DE9F0410446002CCC
:1006F00000F09B80606800F01F00172804D940F2CA
:1007000087415CA000F01EFB6068C0F3082013382E
:10071000B0F5E67F04D94FF4916156A000F012FBCA
:1007200060684FF0FF3101EB10700E2804D940F2E1
:10073000894150A000F006FB616811F0800F00F0C5
:1007400078805748006801F01F02521CB0FBF2F09D
:10075000C1F30821491C01FB00F5A0F574205149A3
:10076000A0F51070884204D940F28E4141A000F0FB
:10077000E9FA4D484D492844884204D940F28F4156
:100780003CA000F0DFFA6068012101EB1070B5FBBE
:10079000F0F0474E474F3044B84204D94FF49261CD
:1007A00034A000F0CFFA6068C0F30360401E0E284A
:1007B00004D940F291412FA000F0C4FA6068C0F360
:1007C0000350401E0E2804D940F2924129A000F0A7
:1007D000B9FA6068C0F30350401CB5FBF0F0304438
:1007E000B84204D940F2934122A000F0ABFA60680D
:1007F000C0F30360401CB5FBF0F03044B84204D9AC
:1008000040F294411BA000F09DFA2078012805D009
:1008100020B140F2964117A000F094FA264DB5F8A9
:10082000FE0310F0010F0BD105E06FF00200BDE8F0
:10083000F081224887E740F297410EA000F082FA4B
:10084000D5F80001217920F08000C1F3C01140EA01
:10085000C110C5F800016068C5F80001207820B11A
:10086000BDE8F0410020FFF7E3BEBDE8F041012004
:10087000FFF7DEBE2E2E5C647269766572735C686B
:100880006333325F6C6C5F6472697665725C73723D
:10089000635C686333325F6C6C5F636C6B2E630008
:1008A000A4C2FF1F00366E0100E4B1F1001C4E0E21
:1008B000401E1BFF402C42060040054000127A00FB
:1008C0000021002813D000226FF3102202F5985265
:1008D00002F1805222F0706202F1807222F4700202
:1008E00002F58012426001220270084670476FF0E4
:1008F0000201FAE710B503F0E3FBBDE8104003F096
:1009000081BCF8B506460C46002000906FF0070544
:100910003046FFF761FE012807D00098401C009088
:100920000098A042F4D92846F8BD0025FBE7000056
:1009300070B504460025002C06D0012C04D040F2EE
:1009400026311BA000F0FEF9244EB6F8FE0310F08D
:10095000010F04D140F2273115A000F0F3F954B192
:10096000002086F832004FF480510820FFF7C9FFBD
:100970000546284670BD96F8260000F007000328BB
:1009800009D0D6F8000110F0800F4FF0010005D01B
:1009900086F83200EDE76FF00505EAE796F82A10D1
:1009A00011B186F83200E4E76FF00505E1E70000D9
:1009B0002E2E5C647269766572735C686333325F95
:1009C0006C6C5F6472697665725C7372635C686399
:1009D00033325F6C6C5F636C6B2E630000400540CC
:1009E00070B50446002C3DD02078012805D020B1F8
:1009F00040F207312AA000F0A5F9607850B1102824
:100A000008D0202806D0302804D04FF4427124A00A
:100A100000F098F9A07830B1082804D040F20931EC
:100A20001FA000F08FF9E078012814D0022812D01E
:100A3000032810D004280ED005280CD006280AD090
:100A4000072808D0082806D0092804D040F20A3127
:100A500013A000F077F91D4DB5F8FE0310F0010F5B
:100A600008D102E06FF0020070BD40F20B310CA023
:100A700000F068F9E07885F8A2006078A178084372
:100A8000134940F080000870207820B1BDE8704024
:100A90000020FFF74DBFBDE870400120FFF748BFC1
:100AA0002E2E5C647269766572735C686333325FA4
:100AB0006C6C5F6472697665725C7372635C6863A8
:100AC00033325F6C6C5F636C6B2E630000400540DB
:100AD00050CC04400021002808D0012202700022DE
:100AE000827042700522C270084670476FF00201A2
:100AF000FAE7000070B504460D46A4F18040B0F559
:100B000061300CD01048844209D0A4F18040B0F587
:100B10006C3004D040F2C3110CA000F013F935B1D1
:100B2000012D04D04FF4E27108A000F00BF9012D63
:100B300004D0A07800F0FE00A07070BDA07840F056
:100B40000100A07070BD0000008503402E2E5C6483
:100B50007269766572735C686333325F6C6C5F6474
:100B600072697665725C7372635C686333325F6C62
:100B70006C5F636D702E630081B00B49096A0B4A8C
:100B8000C1F30261126822FA01F1094AB1FBF2F3E2
:100B9000421E06D300930098411E0091FBD2521EC4
:100BA000F8D201B07047000000400540A0C2FF1F0E
:100BB0008096980070B505460C466FF00200002C38
:100BC0007ED0A5F18040B0F561300CD0464885421A
:100BD00009D0A5F18040B0F56C3004D04FF4B87165
:100BE00042A000F0AFF8A08830B1022804D040F253
:100BF00071113EA000F0A6F8E08850B1102808D08E
:100C0000202806D0302804D04FF4B97137A000F066
:100C100099F8208980B101280ED002280CD0032831
:100C20000AD0042808D0052806D0062804D040F2AF
:100C300073112EA000F086F8208840B1012806D05C
:100C4000022804D04FF4BA7128A000F07BF8608825
:100C500070B101280CD002280AD0042808D0082836
:100C600006D0102804D040F2751120A000F06AF8D8
:100C7000608990B1022810D004280ED006280CD02C
:100C800008280AD00A2808D00C2806D00E2804D03C
:100C90004FF4BB7115A000F055F8287800F0FE0065
:100CA00028706088218840EA014068602878A17A2D
:100CB00000F0F100C1F3420140EA4100287000E079
:100CC00010E00120FFF758FF287840F0010028705D
:100CD0000120FFF751FF207AA1790843687020793D
:100CE000A870002070BD0000008503402E2E5C64BB
:100CF0007269766572735C686333325F6C6C5F64D3
:100D000072697665725C7372635C686333325F6CC0
:100D10006C5F636D702E63006FF00201002806D0D7
:100D20000021018041808180C1800181418108468C
:100D3000704700000149088070470000001404401B
:100D400004F04ABEFEE7000081B00E49096A0E4B6E
:100D5000C1F302611B6823FA01F142F210731944D6
:100D6000491EB1FBF3F206E0009200BF00994B1E52
:100D700000930029FAD1011EA0F10100F4D101B0C5
:100D80007047000000400540A0C2FF1F81B00D4920
:100D9000096A0D4BC1F302611B6823FA01F10B4B89
:100DA0001944491EB1FBF3F206E0009200BF00991E
:100DB0004B1E00930029FAD1011EA0F10100F4D1CD
:100DC00001B0704700400540A0C2FF1F8096980008
:100DD00000B540F6ED5140F6B21004F031FE40F699
:100DE000B2105DF804EB04F051BE000010B50446EB
:100DF000002C06D0012C04D040F2351107A0FFF7DB
:100E0000A1FF11480068012804D04FF49B7103A092
:100E1000FFF798FF0D48046010BD00002E2E5C64A3
:100E20007269766572735C686333325F6C6C5F64A1
:100E300072697665725C7372635C686333325F6C8F
:100E40006C5F65666D2E6300000401404C83204298
:100E500010B50446002C06D0012C04D040F25111EC
:100E600007A0FFF76FFF11480068012804D04FF476
:100E7000A97103A0FFF766FF0D48046010BD0000D4
:100E80002E2E5C647269766572735C686333325FC0
:100E90006C6C5F6472697665725C7372635C6863C4
:100EA00033325F6C6C5F65666D2E63000004014039
:100EB0004483204210B50446002C06D0012C04D0F7
:100EC00040F25F1107A0FFF73DFF114800680128BD
:100ED00004D04FF4B07103A0FFF734FF0D48046055
:100EE00010BD00002E2E5C647269766572735C68BA
:100EF0006333325F6C6C5F6472697665725C7372C7
:100F0000635C686333325F6C6C5F65666D2E630093
:100F1000000401404083204210B50446002C06D056
:100F2000012C04D040F2431107A0FFF70BFF11483A
:100F30000068012804D04FF4A27103A0FFF702FF5C
:100F40000D48046010BD00002E2E5C647269766549
:100F500072735C686333325F6C6C5F647269766570
:100F6000725C7372635C686333325F6C6C5F65667E
:100F70006D2E6300000401404883204270B5054691
:100F800000241A480068012804D040F2211118A05A
:100F9000FFF7D8FE0F2D04D94FF4917114A0FFF77D
:100FA000D1FE1E48016865F303010160016801F08C
:100FB0000F01A94218D01B49194A44F62063096859
:100FC000641CD2F820C0CCF3026C21FA0CFCBCFBF0
:100FD000F3FCA44502D26FF0070070BDD0F800C04A
:100FE0000CF00F0CAC45EBD1002070BD00040140AB
:100FF0002E2E5C647269766572735C686333325F4F
:101000006C6C5F6472697665725C7372635C686352
:1010100033325F6C6C5F65666D2E630018040140AF
:1010200000400540A0C2FF1F70B504460D4615489C
:1010300084421CD01448844219D01448844216D0EB
:101040001348844213D01348844210D0124884427B
:101050000DD0124884420AD01148844207D011486A
:10106000844204D040F283310FA0FFF76BFE15B12C
:101070001848054204D04FF461710BA0FFF762FEDF
:10108000256170BD008603402086034040860340F2
:101090006086034080860340A0860340C0860340EC
:1010A000E0860340008703402E2E5C6472697665FB
:1010B00072735C686333325F6C6C5F64726976650F
:1010C000725C7372635C686333325F6C6C5F656D16
:1010D000622E6300F1E007F82DE9F0412A4D40F659
:1010E0000401284600F062F801284BD12748016826
:1010F00041F0010101602648016841F001010160F1
:101100002448016841F0010101600421284600F0F3
:101110004DF80124204E214F01280DD120480470A4
:1011200004212846FFF780FF04213046FFF77CFFAB
:1011300004213846FFF778FF4FF40061284600F09D
:1011400035F801281ED1174A1078401CC1B2117021
:10115000022901D9032010701078022801D9124801
:1011600004704FF400612846FFF75EFF4FF4006102
:101170003046FFF759FF3846BDE8F0414FF40061B3
:10118000FFF752BFBDE8F081008603404886034068
:10119000088603406886034040860340608603401B
:1011A00018C1FF1F35C1FF1F19C1FF1F70B50446CD
:1011B0000D46184884421CD01748844219D017485D
:1011C000844216D01648844213D01648844210D068
:1011D000154884420DD0154884420AD014488442F0
:1011E00007D01448844204D04FF4657112A0FFF771
:1011F000A9FD15B11B48054204D040F295310EA05F
:10120000FFF7A0FDE068284201D0012070BD00205A
:1012100070BD0000008603402086034040860340E6
:101220006086034080860340A0860340C08603405A
:10123000E0860340008703402E2E5C647269766569
:1012400072735C686333325F6C6C5F64726976657D
:10125000725C7372635C686333325F6C6C5F656D84
:10126000622E6300112000F870B504460D46164644
:101270001E4884421CD01E48844219D01D48844216
:1012800016D01D48844213D01C48844210D01C48FC
:1012900084420DD01B4884420AD01B48844207D0A8
:1012A0001A48844204D040F26B3119A0FFF74AFD7E
:1012B00025B125F4877030F4F05004D04FF45B7101
:1012C00013A0FFF73FFD36B1012E04D040F26D317F
:1012D0000FA0FFF737FD012E03D06069A8436061BE
:1012E00070BD60692843606170BD000000860340E6
:1012F000208603404086034060860340808603408A
:10130000A0860340C0860340E08603400087034078
:101310002E2E5C647269766572735C686333325F2B
:101320006C6C5F6472697665725C7372635C68632F
:1013300033325F6C6C5F656D622E630070B504467E
:101340000D4616461D4884421CD01D48844219D0C3
:101350001C48844216D01C48844213D01B48844247
:1013600010D01B4884420DD01A4884420AD01A4833
:10137000844207D01948844204D040F2BA3118A000
:10138000FFF7E0FC25B125F4877030F4F05004D06D
:1013900040F2BB3112A0FFF7D5FC36B1012E04D0CC
:1013A0004FF46F710EA0FFF7CDFC1EB1A06928436A
:1013B000A06170BDA069A843A06170BD0086034014
:1013C00020860340408603406086034080860340B9
:1013D000A0860340C0860340E086034000870340A8
:1013E0002E2E5C647269766572735C686333325F5B
:1013F0006C6C5F6472697665725C7372635C68635F
:1014000033325F6C6C5F656D622E630010B582B025
:101410000121C80300F0F6F8304C2F482060304915
:101420000A8842F005020A80091D088840F005027A
:101430000A80012240F604012046FFF715FF012231
:1014400091022046FFF77AFF012208212046FFF78C
:1014500075FF002204212046FFF770FF0022E114EF
:101460002046FFF76BFF0020ADF80200DC20ADF84E
:1014700000001C480190684602F062F9BDF90200C4
:10148000F021002804DB00F1E02080F8001405E0E2
:1014900000F00F0000F1E02080F8141DBDF90200FB
:1014A0000121002809DB00F01F0201FA02F24009C5
:1014B000800000F1E020C0F88022BDF90200002881
:1014C00008DB00F01F0291404009800000F1E0209D
:1014D000C0F8001102B010BD14000C820086034059
:1014E000023C0540D910000010B50121C80300F0EE
:1014F00089F80D4C0B492160012291022046FFF72B
:101500001DFF012208212046FFF718FF00220421B9
:101510002046FFF713FF0022E1142046BDE81040EB
:10152000FFF70CBF14000C824086034010B5012168
:10153000C80300F067F80D4C0B49216001229102AD
:101540002046FFF7FBFE002204212046FFF7F6FEAF
:10155000012208212046FFF7F1FE0022E114204677
:10156000BDE81040FFF7EABE14000C82608603401D
:1015700010B5FFF74BFFFFF7B7FFBDE81040FFF7CF
:10158000D5BF000070B504460D46002C02D01048AF
:10159000044203D071210FA0FFF7D4FB2DB1012D20
:1015A00003D072210BA0FFF7CDFB154E306910F070
:1015B000010F03D1732107A0FFF7C4FB012D03D056
:1015C00030682043306070BD3068A043306070BD2B
:1015D000EEB378FF2E2E5C647269766572735C6878
:1015E0006333325F6C6C5F6472697665725C7372D0
:1015F000635C686333325F6C6C5F6663672E6300A5
:101600000080044070B504460D46002C02D00C4802
:10161000044203D096210BA0FFF794FB2DB1012DBE
:1016200003D0972107A0FFF78DFB1148012D03D0B0
:1016300081682143816070BD8168A143816070BD74
:1016400000480FFE2E2E5C647269766572735C68CA
:101650006333325F6C6C5F6472697665725C73725F
:10166000635C686333325F6C6C5F6663672E630034
:101670000080044070B504460D46002C02D00C4892
:10168000044203D0A8210BA0FFF75CFB2DB1012D74
:1016900003D0A92107A0FFF755FB1148012D03D066
:1016A000C1682143C16070BDC168A143C16070BD04
:1016B000C8FC0FFF2E2E5C647269766572735C68DD
:1016C0006333325F6C6C5F6472697665725C7372EF
:1016D000635C686333325F6C6C5F6663672E6300C4
:1016E0000080044070B505460C4616461E4800882A
:1016F00010F0010F04D140F2A7211CA0FFF722FB3C
:1017000065B1012D0AD0022D08D0032D06D0052D7C
:1017100004D04FF42A7115A0FFF714FB24B940F24E
:10172000A92112A0FFF70EFB00211C4AAB0114F007
:10173000010F0AD003EB81001044012E0DD0B0F848
:1017400000C0CCF30E0CA0F800C06408002C03D03D
:10175000481CC1B21029EAD370BDB0F800C04CF4E7
:10176000004CA0F800C0F0E7FC3B05402E2E5C6466
:101770007269766572735C686333325F6C6C5F6448
:1017800072697665725C7372635C686333325F6C36
:101790006C5F6770696F2E6300000000003C0540BD
:1017A0002DE9F04106460D4614460027002C05D0D1
:1017B0006548008810F0010F09D103E06FF00207BF
:1017C00000F0BEB840F20F1160A0FFF7BBFA66B19F
:1017D000012E0AD0022E08D0032E06D0052E04D0EA
:1017E0004FF4887159A0FFF7ADFA25B940F21111F5
:1017F00056A0FFF7A7FA208830B1012804D04FF493
:10180000897152A0FFF79EFA608830B1022804D097
:1018100040F213114DA0FFF795FAA08830B10428CB
:1018200004D04FF48A7149A0FFF78CFAE08840B1E8
:10183000102806D0202804D040F2151143A0FFF74D
:1018400081FA208938B1B0F5804F04D04FF48B7104
:101850003EA0FFF777FA608930B1402804D040F20B
:1018600017113AA0FFF76EFAA08930B1802804D092
:101870004FF48C7135A0FFF765FAE08938B1B0F507
:10188000005F04D040F2191130A0FFF75BFA208A04
:1018900038B1B0F5007F04D04FF48D712BA0FFF765
:1018A00051FA608A38B1B0F5805F04D040F21B1164
:1018B00026A0FFF747FAA08A38B1B0F5806F04D0B0
:1018C0004FF48E7121A0FFF73DFAE08A38B1B0F5F0
:1018D000004F04D040F21D111CA0FFF733FA002185
:1018E0004FEA861C254E15F0010F23D02088628810
:1018F000E3881043A2881A43104362891043228A66
:101900001043628A104322891043E28A1043A2895D
:10191000E3891A431043A28A02434FF2F7630CEBA8
:1019200081003044B0F800801A4028EA030848EAF1
:10193000020202806D081DB1481CC1B21029D2D329
:101940003846BDE8F0810000FC3B05402E2E5C646B
:101950007269766572735C686333325F6C6C5F6466
:1019600072697665725C7372635C686333325F6C54
:101970006C5F6770696F2E6300000000003C0540DB
:101980001F484AF2015101801E4840F2DF71016098
:101990001D48018841F030010180001D018841F09F
:1019A00030010180001D018841F03001018017489D
:1019B000018841F030010180001D018841F03001B3
:1019C0000180001D018841F030010180001D018867
:1019D00041F0300101800E48018841F03001018062
:1019E000001D018841F030010180001D018841F097
:1019F00030010180001D018841F0300101807047F5
:101A0000FC3B0540F03B0540983C0540703C0540E0
:101A1000203C054070B504460D46002C0CD0012C2E
:101A20000AD0022C08D0032C06D0052C04D04FF489
:101A30001C7108A0FFF786F925B940F2712105A0B5
:101A4000FFF780F90F4800EB04100188294301805B
:101A500070BD00002E2E5C647269766572735C68DE
:101A60006333325F6C6C5F6472697665725C73724B
:101A7000635C686333325F6C6C5F6770696F2E63A1
:101A8000000000000A38054070B505460C461646B1
:101A9000002D0CD0012D0AD0022D08D0032D06D028
:101AA000052D04D04FF4CA711BA0FFF74BF924B9E0
:101AB00040F2951118A0FFF745F9112E0BD9A6F1A8
:101AC0001400062807D90C38192804D94FF4CB7113
:101AD00011A0FFF737F91C48008810F0010F04D15E
:101AE00040F297110CA0FFF72DF90021DFF85CC040
:101AF000AA0114F0010F06D002EB810060440388B4
:101B000066F3050303806408002C03D0481CC1B2AF
:101B10001029EED370BD00002E2E5C6472697665CC
:101B200072735C686333325F6C6C5F647269766594
:101B3000725C7372635C686333325F6C6C5F677096
:101B4000696F2E6300000000FC3B0540023C05402D
:101B500010B50446002C19D0B4F5805F16D0B4F54A
:101B6000005F13D0B4F5405F10D0B4F5804F0DD0B6
:101B7000B4F5A04F0AD0B4F5C04F07D0B4F5E04F8C
:101B800004D04FF4F9710BA0FFF7DCF8154800887A
:101B900010F0010F04D140F2F31106A0FFF7D2F8C4
:101BA0001148018804F4E04221F4E041114301802E
:101BB00010BD00002E2E5C647269766572735C68DD
:101BC0006333325F6C6C5F6472697665725C7372EA
:101BD000635C686333325F6C6C5F6770696F2E6340
:101BE00000000000FC3B0540F83B054000220028B7
:101BF0000ED0002101804180C180C1828181C181DC
:101C00000181418101824182818081821046704739
:101C10006FF00202FAE7000070B586B06846FFF781
:101C2000E5FF0024ADF800400225ADF80250202663
:101C3000ADF806606A4629020220FFF7B1FD6A4648
:101C400080210220FFF7ACFD6A46A9020220FFF7BF
:101C5000A7FD7548018821F400410180411502204B
:101C6000FFF7D8FE6846FFF7C1FFADF80040ADF8BA
:101C70000250ADF806606A4604210020FFF790FD8F
:101C800004210020FFF7C6FE6846FFF7AFFFADF85E
:101C90000040ADF80250ADF806606846FFF7A6FFB9
:101CA000ADF80040ADF80250ADF806606A46A902F2
:101CB0000220FFF775FD6A46E9020020FFF770FD7C
:101CC0006A46A9020020FFF76BFD5849A802088068
:101CD000574A41001180911E08806846FFF786FF31
:101CE000ADF80040ADF80250ADF806606A4601213B
:101CF0000320FFF755FD6846FFF778FFADF8004079
:101D0000ADF80250ADF806606A4604210220FFF7E4
:101D100047FD6846FFF76AFFADF80040ADF8025096
:101D2000ADF806606A4620210020FFF739FD6846BD
:101D3000FFF75CFFADF80040ADF80250ADF806606B
:101D40006846FFF753FFADF80040ADF80240802031
:101D5000ADF80C0001026A460020FFF721FD6A463B
:101D600080210120FFF71CFD6A4640210120FFF77A
:101D700017FD6A4629020120FFF712FD6A4620215D
:101D80000120FFF70DFD6A4610210120FFF708FD35
:101D90006A46E9010120FFF703FD6A460821012098
:101DA000FFF7FEFC6A4604210320FFF7F9FC214CF3
:101DB000208820F0080020800522A9030020FFF7DA
:101DC00063FE062280210120FFF75EFE06224021ED
:101DD0000120FFF759FE062261150120FFF754FE8E
:101DE000062220210120FFF74FFE208820F010005E
:101DF0002080062210210120FFF746FE0622A115B1
:101E00000120FFF741FE208820F0040020800622F8
:101E100008210120FFF738FE062204210320FFF7E6
:101E200033FE06B070BD0000A43C05402A380540D2
:101E30000A380540F43B054002490A6822EA0000DE
:101E400008607047FCC2034003490968014201D0A1
:101E50000120704700207047FCC20340024801681F
:101E600021F0020101607047FCC2034008B51A4826
:101E7000006A1A49C0F30260096821FA00F04FF4C1
:101E80007A71B0FBF1F00090002300F029F8FFF721
:101E9000E5FF4FF44070FFF7CFFF00F029F84FF453
:101EA0008070FFF7D1FF60B90099481E009002D200
:101EB0006FF0070305E04FF48070FFF7C5FF0028BF
:101EC000F2D033B94FF40070FFF7BEFF012800D104
:101ED000831E184608BD000000400540A0C2FF1F39
:101EE0000248016821F0010101607047FCC2034013
:101EF0000248016841F0010101607047FCC20340E3
:101F000010B50446A4F18040B0F570301CD0A4F1A7
:101F10008040B0F5713017D0A4F18040B0F5723038
:101F200012D0A4F18040B0F573300DD0A4F1804000
:101F3000B0F5743008D0A4F18040B0F5753003D00E
:101F4000B1214AA0FEF7FEFE0020C4F84001206047
:101F50006060524921646164C4F88010C4F8841040
:101F6000C4F88810C4F88C10C4F89010C4F8941009
:101F7000C4F89810C4F89C10C4F8C010C4F8C41079
:101F8000C4F8C810C4F8CC10C4F80011C4F8041187
:101F9000C4F80811C4F80C11C4F84401C4F848018D
:101FA000C4F84C01C4F85401C4F85801C4F86001E5
:101FB0004906C4F86411C4F86801C4F88001C4F883
:101FC0008801C4F89001C4F89401C4F89801C4F8D9
:101FD0009C01C4F800023249C4F80412C4F8081283
:101FE000C4F81002C4F818024FF48002C4F820228A
:101FF000C4F82422C4F82822C4F82C22C4F83002E1
:10200000C4F83402C4F83812C4F83C12C4F84002D0
:10201000C4F84402C4F84802C4F84C02C4F85002A0
:10202000C4F85412C4F85812C4F85C12C4F8601210
:10203000C4F86402C4F86802C4F8A002C4F8A40298
:102040001848C4F8B402C4F8B802C4F8BC02C4F812
:10205000C002C4F8C402C4F8C802C4F8CC02C4F870
:10206000D002C4F8D402C4F8D80210BD2E2E5C648D
:102070007269766572735C686333325F6C6C5F643F
:1020800072697665725C7372635C686333325F6C2D
:102090006C5F687270776D2E63000000C0FF3F00B8
:1020A000AAAA0A00C0FF7F0070B504460D466FF073
:1020B0000200002D43D0A4F18040B0F570301CD058
:1020C000A4F18040B0F5713017D0A4F18040B0F594
:1020D000723012D0A4F18040B0F573300DD0A4F16D
:1020E0008040B0F5743008D0A4F18040B0F5753070
:1020F00003D09C2112A0FEF725FE286828B10428F1
:1021000003D09D210EA0FEF71DFEA86830B1B0F5EA
:10211000807F03D09E210AA0FEF714FE6868144950
:10212000C138884203D99F2105A0FEF70BFE6868DD
:102130002064A96828680843C4F84001002070BDE5
:102140002E2E5C647269766572735C686333325FED
:102150006C6C5F6472697665725C7372635C6863F1
:1021600033325F6C6C5F687270776D2E63000000B5
:10217000FFFE3F006FF00201002812D00A49016003
:10218000002141608160C160016141618161C16183
:10219000016241628162C162016341638163C16323
:1021A0000164084670470000C0FF3F002DE9F04F72
:1021B00095B001214FF47C70FFF724FAFE4E3046B3
:1021C000FFF79EFEFD4C2046FFF79AFEFC4F384677
:1021D000FFF796FEDFF8EC834046FFF791FEFA4DDD
:1021E0002846FFF78DFEDFF8E4934846FFF788FEA8
:1021F000FFF73CFE00B1FEE7D6F8A00240F0080071
:10220000C6F8A002F2480068F14940F008000860F2
:10221000F0480068EF4940F008000860EE480068A8
:10222000ED4940F008000860D5F8A002EB4940F005
:1022300008000860EA480068E94940F008000860C2
:102240000020129014904FF4C830139012A9304619
:10225000FFF72AFF12A92046FFF726FF12A93846EA
:10226000FFF722FF12A94046FFF71EFF12A9D6482A
:10227000FFF71AFF12A94846FFF716FF01A8FFF75C
:1022800079FFD6F8540120F00300C6F85401D6F8BF
:10229000540120F00C00C6F85401D6F8540120F087
:1022A0003000C6F85401D6F8540120F0C000C6F83A
:1022B0005401D6F8540120F44070C6F85401D6F801
:1022C000540140F40060C6F85401D6F8540120F4DB
:1022D0004050C6F85401D6F8540140F48050C6F876
:1022E0005401D6F8540140F40040C6F85401D6F821
:1022F000580120F00300C6F85801D6F8580120F024
:102300000C00C6F85801D6F8580120F03000C6F885
:102310005801D6F8580120F0C000C6F85801D6F888
:10232000580120F44070C6F85801D6F8580140F41E
:102330000060C6F85801D6F8580120F44050C6F89D
:102340005801D6F8580140F40040C6F85801D6F8B4
:10235000380240F40010C6F83802D6F8380240F4CB
:102360000000C6F83802D6F83C0240F40010C6F867
:102370003C02D6F83C0240F40000C6F83C02D6F815
:10238000040240F40010C6F80402D6F8040240F437
:102390000000C6F80402D6F8080220F44010C6F87F
:1023A0000802D6F8080220F44000C6F80802D6F861
:1023B000080240F48000C6F80802D6F8040240F093
:1023C0000060C6F80402D6F8040240F00070C6F8B7
:1023D0000402D6F8380240F00060C6F83802D6F899
:1023E000380240F00070C6F83802D6F8080240F013
:1023F0000060C6F80802D6F8080240F00070C6F87F
:102400000802D6F83C0240F00060C6F83C02D6F85C
:102410003C0240F00070C6F83C0272480068714906
:1024200020F0030008600846006820F00C000860F7
:102430000846006820F030016A4801600068694978
:1024400020F0C00008600846006820F44070086072
:102450000846006840F4006008600846006820F400
:1024600040516048016000685E4940F48050086057
:102470000846006840F400415A48016000F1040E2B
:10248000DEF8000020F00300CEF80000DEF80000C7
:1024900020F00C00CEF80000DEF8000020F0300044
:1024A000CEF80000DEF8000020F0C000CEF80000FA
:1024B000DEF8000020F44070CEF80000DEF80000E6
:1024C00040F40060CEF80000DEF8000020F4405038
:1024D000CEF80000DEF8000040F40040CEF8000026
:1024E0004149086840F400100860086840F40000A2
:1024F00008600A1D106840F400101060106840F475
:10250000000010603948036843F400130360036857
:1025100043F40003036000F1040BDBF8003023F404
:102520004013CBF80030DBF8003023F44003CBF845
:102530000030DBF8003043F48003CBF80030036850
:1025400043F000630360036843F0007303600868AE
:1025500040F000600860086840F000700860DBF838
:10256000000040F00060CBF80000DBF8000040F015
:102570000070CBF80000106840F000601060106838
:1025800040F0007010601A48016821F003010160FA
:10259000016821F00C010160016821F03001016047
:1025A000016841F020010160016821F0C001016073
:1025B000016841F040011DE000C0034000C4034039
:1025C00000C8034000CC034000D0034000D40340C7
:1025D000A0C60340A0CA0340A0CE0340A0D203403F
:1025E000A0D6034054C5034038C6034004C6034088
:1025F00054C9034001600068FF4920F4407008603E
:102600000846006840F4006008600846006840F42E
:10261000005008600846006840F400400860F74831
:102620000068F64940F4001008600846006840F46D
:102630000001F24801600068F04940F00070086055
:102640000846006840F000600860ED48016841F409
:1026500000110160016841F400010160016841F06E
:1026600000710160016841F000610160E54F386868
:1026700020F003003860386840F0020038603868A5
:1026800020F00C003860386840F008003860386886
:1026900020F030003860386840F02000386038683A
:1026A00020F0C0003860386840F08000386038683A
:1026B00020F440703860386840F400703860386842
:1026C00040F400603860386840F400503860386882
:1026D00040F400403860CC48016841F400110160CA
:1026E000016841F400010160016841F0007101607E
:1026F000016841F000610160C448016841F40011C3
:102700000160016841F400010160016841F000715D
:102710000160016841F000610160DFF8F492D9F8CE
:10272000000020F00300C9F80000D9F8000020F0F4
:102730000C00C9F80000D9F8000020F03000C9F8FA
:102740000000D9F8000040F02000C9F80000D9F8D6
:10275000000020F0C000C9F80000D9F8000040F0E7
:102760004000C9F80000D9F8000020F44070C9F812
:102770000000D9F8000040F40060C9F80000D9F862
:10278000000040F40050C9F80000D9F8000040F4FF
:102790000040C9F800009F48016841F40011016041
:1027A000016841F400010160016841F000710160BD
:1027B000016841F0006101609748016841F400112F
:1027C0000160016841F400010160016841F000719D
:1027D0000160016841F00061016009F10408D8F866
:1027E000000020F00300C8F80000D8F8000040F016
:1027F0000200C8F80000D8F8000020F00C00C8F86B
:102800000000D8F8000040F00800C8F80000D8F830
:10281000000020F03000C8F80000D8F8000040F0B8
:102820002000C8F80000D8F8000020F0C000C8F868
:102830000000D8F8000040F04000C8F80000D8F8C8
:10284000000020F44070C8F80000D8F8000040F400
:102850000070C8F80000D8F8000040F40060C8F824
:102860000000D8F8000020F44050C8F80000D8F864
:10287000000040F40040C8F800006848016841F4D6
:1028800000110160016841F400010160016841F03C
:1028900000710160016841F00061016060480168F9
:1028A00041F400110160016841F400010160016818
:1028B00041F000710160016841F000610160D5F8EC
:1028C000540120F00300C5F85401D5F8540140F03C
:1028D0000200C5F85401D5F8540120F00C00C5F8E9
:1028E0005401D5F8540140F00800C5F85401D5F85A
:1028F000540120F03000C5F85401D5F8540140F0DF
:102900002000C5F85401D5F8540120F0C000C5F8E6
:102910005401D5F8540140F08000C5F85401D5F8B1
:10292000540120F44070C5F85401D5F8540140F426
:102930000060C5F85401D5F8540120F44050C5F8A2
:102940005401D5F8540140F48050C5F85401D5F82D
:10295000540140F40040C5F85401D5F8040240F495
:102960000010C5F80402D5F8040240F40000C5F8D0
:102970000402D5F8040240F00070C5F80402D5F84E
:10298000040240F00060C5F80402D5F8380240F4B3
:102990000010C5F83802D5F8380240F40000C5F838
:1029A0003802D5F8380240F00070C5F83802D5F882
:1029B000380240F00060C5F83802D5F8580120F020
:1029C0000300C5F85801D5F8580140F00200C5F8D9
:1029D0005801D5F8580120F00C00C5F85801D5F879
:1029E000580140F00800C5F85801D5F8580120F00A
:1029F0003000C5F8580115E054C9034004CA03402B
:102A000038CA034058C9034008CA03403CCA0340BF
:102A100054CD034004CE034038CE034008CE0340DB
:102A20003CCE0340D5F8580140F02000C5F85801CD
:102A3000D5F8580120F0C000C5F85801D5F8580164
:102A400040F08000C5F85801D5F8580120F44070D6
:102A5000C5F85801D5F8580140F40070C5F8580180
:102A6000D5F8580140F40060C5F85801D5F8580170
:102A700040F40050C5F85801D5F8580140F4004022
:102A8000C5F85801D5F8080220F44010C5F808022E
:102A9000D5F8080220F44000C5F80802D5F808026D
:102AA00040F48000C5F80802D5F8080240F0007034
:102AB000C5F80802D5F8080240F00060C5F8080221
:102AC000D5F83C0240F40010C5F83C02D5F83C02B1
:102AD00040F40000C5F83C02D5F83C0240F000701C
:102AE000C5F83C02D5F83C0240F00060C5F83C0255
:102AF000FE48016821F003010160016821F00C012A
:102B00000160016821F030010160016841F020019D
:102B10000160016821F0C0010160016841F04001DD
:102B20000160016821F440710160016841F40061B5
:102B30000160016841F400510160016841F4004105
:102B40000160EB48016841F400110160016841F443
:102B500000010160016841F000710160016841F00D
:102B600000610160E348016841F4001101600168FF
:102B700041F400010160016841F0007101600168E9
:102B800041F000610160DC48016821F0030101604F
:102B9000016841F002010160016821F00C0101604F
:102BA000016841F008010160016821F03001016015
:102BB000016841F020010160016821F0C00101605D
:102BC000016841F080010160016821F440710160F9
:102BD000016841F400710160016841F40061016025
:102BE000016841F400510160016841F40041016055
:102BF000C248016841F400110160016841F400011C
:102C00000160016841F000710160016841F00061FC
:102C10000160BB48016841F400110160016841F4A2
:102C200000010160016841F000710160016841F03C
:102C3000006101604FF4A9203064B2494864B24990
:102C40004BF680330B60AF49C1F888304FF47062A7
:102C5000C1F88420AD490A60AA49DFF8B4C2C1F8BE
:102C600090C0C1F898C04CF68C54C1F89440A94962
:102C70000C60DFF890A2A849CAF8C010CAF8C810C2
:102C8000CAF8C410CAF8CC10DFF890A2CAF8000045
:102C90000AF1040ACAF80000A1480360A1480360D1
:102CA000001F0260A0480260001DC0F800C09F48DD
:102CB000C0F800C0001F04609D4804609D4801608A
:102CC0009D480160001F01609C4801609C4B49F2D7
:102CD0003D6018601B1D18609A4B44F29B301860D1
:102CE000994B18601B1F4FF47A501860974B18606F
:102CF0001B1D4FF481401860954B18601B1F9548B1
:102D00001860954B1860954B44F272701860944BA4
:102D100018601B1F45F2BC501860924B1860924B14
:102D200043F6184018601B1D1860904B41F2586024
:102D300018608F4B18601B1F18608E4B18601B1D8E
:102D40004FF4814018608C4B18601B1F814818603D
:102D50008A4B18608A4B44F272701860894B186075
:102D60001B1F45F2BC501860874B18604FF4A92018
:102D700028646864C5F88020C5F88820C5F88420D8
:102D8000C5F88C20C5F89020C5F89820C5F8942087
:102D9000C5F89C20C5F8C010C5F8C810C5F8C41007
:102DA000C5F8CC10794998140860091D0860784965
:102DB0000020086077490860091F086076490860AC
:102DC000091D086075490860091F0860744908609A
:102DD0007449086074490860091F086073490860F5
:102DE00041F20C20C6F80001C6F8080170490860DD
:102DF000704908607049086070490860704908604F
:102E000070490860C5F80001C5F808016E490860FE
:102E10006E490860D6F8480140F48070C6F8480151
:102E2000D6F8480140F00100C6F84801D6F848013C
:102E300040F01000C6F84801D6F8480140F4803050
:102E4000C6F84801D6F8480140F48010C6F8480199
:102E5000D6F8480140F00400C6F84801D6F8480109
:102E600040F04000C6F84801D6F8480140F48060C0
:102E7000C6F84801D6F8480140F48000C6F8480179
:102E8000D6F8480140F00100C6F84801D6F84801DC
:102E900040F01000C6F84801D6F8480140F48070B0
:102EA000C6F84801D6F8480140F48010C6F8480139
:102EB000D6F8000240F00100C6F80002D6F8000281
:102EC00040F00200C6F80002D6F8000240F0080008
:102ED000C6F80002D6F8000240F01000C6F8000262
:102EE000D6F8B40340F0010072E0000054D503406E
:102EF00004D6034038D6034058D5034008D60340D3
:102F00003CD6034000C0034080C003408CC0034057
:102F1000FA3E05009CC003400053070040C4034034
:102F200080C4034088C403408CC4034098C4034059
:102F30009CC40340C0C40340C8C40340CCC4034085
:102F400040C8034080C8034088C803408CC8034081
:102F500098C80340FE8C01009CC80340C0C80340D1
:102F6000C8C80340CCC8034040CC034080CC0340D9
:102F700088CC03408CCC034098CC03409CCC0340CD
:102F8000C0CC0340C8CC0340CCCC034040D4034069
:102F900080D4034088D403408CD4034098D40340A9
:102FA0009CD40340C0D40340C8D40340CCD40340D5
:102FB00000C5034008C5034000C9034008C90340D9
:102FC00000CD034008CD034000D5034008D50340A1
:102FD000C6F8B403D6F8440240F48010C6F84402A0
:102FE000FE48016841F480710160016841F001010F
:102FF0000160016841F010010160016841F00401C5
:103000000160016841F040010160016841F48061A4
:103010000160016841F480010160016841F0010133
:103020000160016841F010010160016841F48071A4
:103030000160016841F480110160E948016841F0D4
:1030400001010160016841F002010160016841F085
:1030500008010160016841F010010160D6F8B40375
:1030600040F00200C6F8B403DE49086840F480105E
:103070000860DD48026842F480720260026842F033
:1030800001020260026842F010020260D6F8B40346
:1030900040F00400C6F8B403D4480068D34A40F4B2
:1030A00080101060D248026842F4807202600268A8
:1030B00042F001020260026842F010020260D6F89B
:1030C000B42342F00802C6F8B423026842F00402B6
:1030D0000260026842F040020260026842F48062CC
:1030E0000260026842F001020260026842F01002CF
:1030F0000260026842F480720260D5F8480140F430
:103100008070C5F84801D5F8480140F00100C5F8C5
:103110004801D5F8480140F01000C5F84801D5F83D
:103120004C0140F01000C5F84C01D5F84C0140F0BE
:103130002000C5F84C01D5F8480140F00400C5F85E
:103140004801D5F8480140F04000C5F84801D5F8DD
:10315000480140F48060C5F84801D5F8480140F0C6
:103160000100C5F84801D5F8480140F01000C5F845
:103170004801D5F8480140F48070C5F84801D5F8F9
:10318000480140F48000C5F84801D5F8480140F4F2
:103190008010C5F84801D6F8B40340F00200C6F824
:1031A000B403D5F8440240F48010C5F844029148B5
:1031B000026842F480720260026842F0010202601A
:1031C000026842F010020260D6F8B42342F0040212
:1031D000C6F8B423884A1268874B42F480121A60FA
:1031E000026842F004020260026842F0400202609B
:1031F000026842F480620260026842F001020260EA
:10320000026842F010020260026842F480720260BA
:10321000D6F8D80320F04070C6F8D803D6F8DC03FF
:1032200020F00300C6F8DC03D6F8DC0320F0C00071
:10323000C6F8DC03D6F8DC0320F04070C6F8DC03E7
:10324000D6F8D80320F0C050C6F8D803D6F8DC036F
:1032500020F01800C6F8DC03D6F8DC0320F4C060C8
:10326000C6F8DC03D6F8DC0320F0C050C6F8DC0357
:10327000D6F8040220F44070C6F80402D6F808021A
:1032800020F44020C6F80802D6F89C0140F008005F
:10329000C6F89C01D6F8980140F04000C6F89801A5
:1032A000D6F8980140F48060C6F89801D6F89C01E1
:1032B00040F48060C6F89C01D6F8180240F0400047
:1032C000C6F81802D6F8180240F48000C6F81802B2
:1032D000D6F8880140F08000C6F88801D6F844028C
:1032E00040F04000C6F84402D6F8440240F08000A6
:1032F000C6F84402D6F8440240F00400C6F844027E
:10330000D6F8440240F48020C6F84402D6F82002E1
:1033100040F48000C6F82002D6F8200240F4406055
:10332000C6F82002D6F8240240F48000C6F8240231
:10333000D6F8240240F44060C6F82402D6F82802E9
:1033400040F48000C6F82802D6F82C0240F4800031
:10335000C6F82C02D6F828024CF6BC221043C6F858
:103360002802D6F82C021043C6F82C02D6F83002F8
:1033700040F08040C6F83002D6F8300240F080605D
:10338000C6F83002D6F8340240F4C070C6F83402F1
:10339000D6F8340240F0C060C6F83402D6F83402E1
:1033A00040F00600C6F8340214480068134A40F0A2
:1033B000080010601046006840F4000010601048DB
:1033C00000680F4A40F080001060D6F8DC0320F45B
:1033D0004050C6F8DC03D6F8D80313E048C50340D4
:1033E00000C6034044C6034048C9034044CA0340E2
:1033F00048CD034048D5034044D6034018C6034097
:1034000088C5034020F44050C6F8D803D6F8D80346
:1034100020F44020C6F8D803D6F8DC0320F440207E
:10342000C6F8DC03D6F8DC0320F4C030C6F8DC03B1
:10343000D6F8D80320F4C030C6F8D803D6F8D8039D
:1034400020F4C000C6F8D803D6F8DC0320F4C0008E
:10345000C6F8DC03ABF104000068ABF1040220F411
:1034600040301060DBF80000121D20F44040106076
:10347000086840F040000860086840F0800008607C
:10348000086840F004000860086840F48020086084
:10349000A648016841F480010160016841F440617F
:1034A0000160001D0068A24940F440600860081DEA
:1034B000016841F48001016001684CF6BC221143AF
:1034C0000160001D0068114608439A490860081D04
:1034D000016841F080410160011D0A6842F48012D8
:1034E0000A60016841F4C0410160016841F4C041D3
:1034F0000160016841F4C0110160D6F8540120F068
:10350000E060C6F85401D6F8540120F44000C6F833
:103510005401D6F8540140F48000C6F85401D6F89E
:10352000540140F40010C6F85401D6F8580120F0B8
:10353000E060C6F85801D6F8580120F44000C6F8FB
:103540005801D6F8580140F48000C6F85801D6F862
:10355000580140F40010C6F85801AEF104000068AC
:10356000AEF1040120F0E06008600846006840F019
:10357000007008600846006820F4400008600846B3
:10358000006840F4800008600846006840F40010BD
:103590000860DEF80000724620F0E060CEF800001F
:1035A000106840F000701060106820F44000106057
:1035B000106840F480001060106840F40010106043
:1035C000D5F8540120F0E060C5F85401D5F8540155
:1035D00040F04070C5F85401D5F8540140F4800023
:1035E000C5F85401D5F8540140F40010C5F8540151
:1035F000D5F8580120F0E060C5F85801D5F8580119
:1036000040F04070C5F85801D5F8580140F48000EA
:10361000C5F85801D5F8580140F40010C5F8580114
:10362000D6F8540120F08050C6F85401D6F858015D
:1036300020F08050C6F858010846006820F08050FD
:103640000860106820F0805010603B1F186820F060
:1036500080501860386820F080503860D9F8000039
:1036600020F08050C9F80000D8F8000020F0805009
:10367000C8F80000D5F8540120F08050C5F8540176
:10368000D5F8580120F08050C5F858012A4C206820
:1036900020F080502060201D016821F080510160E1
:1036A0003020C6F8B00340F2DF70C6F8A803FEF77A
:1036B00067F9D6F8540140F08050C6F85401D6F8A6
:1036C000580140F08050C6F858011C4800681B495A
:1036D00040F080500860106840F08050106018681A
:1036E00040F080501860386840F080503860D9F859
:1036F000000040F08050C9F80000D8F8000040F009
:103700008050C8F80000D5F8540140F08050C5F84A
:103710005401D5F8580140F08050C5F85801206890
:1037200040F08050206015B0BDE8F08F20C6034007
:1037300024C603402CC6034054D5034054C503405F
:1037400070B504460025002C0ED02088B0F5007F0F
:1037500003D3C42115A0FDF7F5FAB4F902100F291F
:1037600005DD6FF002051FE06FF002051CE01C484C
:1037700000EB8100026840F2FF139343194A09D01D
:1037800023880068C0F3080083420BD1606842F8C8
:10379000210009E021880160B4F90210606842F854
:1037A000210001E06FF00105284670BD2E2E5C64FB
:1037B0007269766572735C686333325F6C6C5F64E8
:1037C00072697665725C7372635C686333325F6CD6
:1037D0006C5F696E74657272757074732E6300002D
:1037E0005C10054098C1FF1F10B503480068804772
:1037F000BFF34F8F10BD000098C1FF1F10B50348E5
:1038000040688047BFF34F8F10BD000098C1FF1F75
:1038100010B5034880688047BFF34F8F10BD00008C
:1038200098C1FF1F10B50348C0688047BFF34F8F92
:1038300010BD000098C1FF1F10B503480069804704
:10384000BFF34F8F10BD000098C1FF1F10B5034894
:1038500040698047BFF34F8F10BD000098C1FF1F24
:1038600010B5034880698047BFF34F8F10BD00003B
:1038700098C1FF1F10B50348C0698047BFF34F8F41
:1038800010BD000098C1FF1F10B50348006A8047B3
:10389000BFF34F8F10BD000098C1FF1F10B5034844
:1038A000406A8047BFF34F8F10BD000098C1FF1FD3
:1038B00010B50348806A8047BFF34F8F10BD0000EA
:1038C00098C1FF1F10B50348C06A8047BFF34F8FF0
:1038D00010BD000098C1FF1F10B50348006B804762
:1038E000BFF34F8F10BD000098C1FF1F10B50348F4
:1038F000406B8047BFF34F8F10BD000098C1FF1F82
:1039000010B50348806B8047BFF34F8F10BD000098
:1039100098C1FF1F10B50348C06B8047BFF34F8F9E
:1039200010BD000098C1FF1F10B55A48C16821F0B2
:103930000101C16001214804FDF724FE56484AF206
:103940000251A0F8FE13018A01824FF42543A0F82A
:10395000FE33524800220270418821F0B0014180BC
:10396000418821F007014180818821F00401818094
:10397000418941F001014181418941F0800141814A
:10398000DFF81CC16421CCF80010C16840F6FF7C50
:1039900041EA0C01C160103001680260DFF804C127
:1039A000591CACF8001040490C8844F400440C80C9
:1039B0003E490C8844F400440C80091D0C8844F4F2
:1039C00000440C80018D21F00F0141F00E010185B2
:1039D000018D41F0F0010185018D21F4706141F408
:1039E00010610185018DC1F30B0141F46041018536
:1039F000418D41F00F014185418D21F0F00141F0F1
:103A000090014185418D21F4706141F460614185EF
:103A1000418DC1F30B0141F470414185818D21F04D
:103A20000F0141F009018185818D21F0F00141F004
:103A3000E0018185818D41F470618185818DC1F3C3
:103A40000B0141F410418185017C11210174447CFA
:103A50004174847C8174C47CC174047D0175447D8F
:103A60004175847D8175C47DC175047E0176447E77
:103A70004176847E8176C47EC176047F0177447F5F
:103A80004177847F8177C47FC177ACF8003080F8BC
:103A9000352010BD00800440004005400000044077
:103AA00068080140FC3B0540443C0540903C054013
:103AB00010F0010F06D0184940F223120A6043F2B9
:103AC00010220A6010F0020F02D0154A134911614A
:103AD00010F0040F03D0134A4AF201511180124A28
:103AE00010F0100F06D04AF20851B2F8FE33194315
:103AF000A2F8FE1310F0400F06D04AF20351B2F8BC
:103B0000FE331943A2F8FE1310F0800F02D00749CC
:103B10007720086070470000000401400100A5A55F
:103B200000800440FC3B0540004005400C08054077
:103B300010F0010F02D0194A0021116010F0020F9D
:103B400002D01849164A0A6110F0040F03D0164A31
:103B50004FF425411180154910F0100F09D0B1F82C
:103B6000FE2322F4A16222F4204242F42542A1F86D
:103B7000FE2310F0400F09D0B1F8FE2322F003021B
:103B800022F4254242F42542A1F8FE2310F0800FD2
:103B900002D0074976200860704700000004014009
:103BA0000000A5A500800440FC3B05400040054006
:103BB0000C08054010B504460B48008810F0080FAB
:103BC00004D140F2652109A0FDF7BCF8022C06D013
:103BD000202C04D040F2662104A0FDF7B3F80E4972
:103BE0000220A043087010BDFE4305402E2E5C64E9
:103BF0007269766572735C686333325F6C6C5F64A4
:103C000072697665725C7372635C686333325F6C91
:103C10006C5F7077632E6300C4CC04402DE9F047DD
:103C200006460C464FF00008002C05D06D48008871
:103C300010F0080F09D103E06FF0020800F0CEB8D1
:103C40004FF4CF7168A0FDF77DF836B1012E04D096
:103C500040F29F1164A0FDF775F82068202805D078
:103C600020B14FF4D07160A0FDF76CF8A06860B18E
:103C7000A0F58071013908D0012806D0032804D0AE
:103C800040F2A11158A0FDF75DF86068042805D046
:103C900020B14FF4D17154A0FDF754F8E06830B171
:103CA000012804D040F2A3114FA0FDF74BF8206982
:103CB000042809D0022807D030B1062804D04FF4D8
:103CC000D27149A0FDF73EF8616991B1012910D088
:103CD00002290ED003290CD004290AD0052908D0C6
:103CE000062906D0072904D040F2A5113EA0FDF711
:103CF00029F8A06940B1022806D0042804D04FF466
:103D0000D37139A0FDF71EF8DFF8089199F800107B
:103D1000B500012000FA05F741EA070089F8000024
:103D20003D490A782020B04023788243B3401840B0
:103D3000104308700A20FDF729F899F800100720B1
:103D4000A84021EA0002217B237C1943A9400140BD
:103D5000114389F8001009F104010A78237D824398
:103D6000AB401840104308702C4A11780620A84038
:103D7000237E8143AB40184008431070A9F1040131
:103D80000B780420A84094F804C083430CFA05FC87
:103D90000CEA0000184308700B780220A84023EAC0
:103DA000000C237AAB4003404CEA03030B701378FA
:103DB00023EA070C23891B0AAB403B404CEA030370
:103DC0001370121D137823EA00001070087820EA9F
:103DD0000702207AA8403840104308704046BDE8EA
:103DE000F0870000FE4305402E2E5C647269766504
:103DF00072735C686333325F6C6C5F6472697665A2
:103E0000725C7372635C686333325F6C6C5F707793
:103E1000632E63001CCC044014CC0440C0CC04408E
:103E2000002200280BD00021016041608160012345
:103E3000C3600623036141618161104670476FF0E2
:103E40000202FAE700B587B04AF2085011490A8821
:103E5000104308800220FFF7ADFE2020FFF7AAFEE6
:103E60006846FFF7DDFF202000900420019000212C
:103E700002910590069069460020FFF7CFFE64206E
:103E8000FCF784FF0220FFF795FE2020FFF792FE4B
:103E900007B000BDFE4305402DE9F04184B0054662
:103EA0000C460026774F3868039078680290B8680F
:103EB0000190F868009014F0E06F18D004F0E06111
:103EC000B1F1807F13D0B1F1007F10D0B1F1407F0C
:103ED0000DD0B1F1806F0AD0B1F1A06F07D0B1F170
:103EE000C06F04D040F22E2167A0FCF72BFF14F026
:103EF000700F12D004F0700110290ED020290CD0C0
:103F000030290AD0402908D0502906D0602904D091
:103F100040F22F215CA0FCF715FF14F4E02F18D01D
:103F200004F4E021B1F5803F13D0B1F5003F10D08B
:103F3000B1F5403F0DD0B1F5802F0AD0B1F5A02FDB
:103F400007D0B1F5C02F04D04FF40C714EA0FCF790
:103F5000F9FE14F0070F12D004F0070101290ED06A
:103F600002290CD003290AD0042908D0052906D03B
:103F7000062904D040F2312143A0FCF7E3FE14F4FB
:103F8000E06F18D004F4E060B0F5807F13D0B0F596
:103F9000007F10D0B0F5407F0DD0B0F5806F0AD013
:103FA000B0F5A06F07D0B0F5C06F04D040F2322159
:103FB00035A0FCF7C7FE14F4E04F18D004F4E0403D
:103FC000B0F5805F13D0B0F5005F10D0B0F5405F62
:103FD0000DD0B0F5804F0AD0B0F5A04F07D0B0F5A6
:103FE000C04F04D040F2332127A0FCF7ABFE31488C
:103FF000054204D14FF40D7123A0FCF7A3FEDFF8B6
:10400000B880B8F8FE0310F0010F04D140F235215A
:104010001DA0FCF797FE98F8260000F00700052881
:1040200012D10126386910F0010F04D14FF40F713D
:1040300015A0FCF787FE21483860C0127860B86090
:10404000F8601E20FCF7A2FED8F8200004EA050163
:10405000A8430843C8F820001E20FCF797FE012E55
:104060000DD103983860029878600198B860009884
:10407000F86004B01E20BDE8F041FCF787BE04B034
:10408000BDE8F081008004402E2E5C647269766584
:1040900072735C686333325F6C6C5F6472697665FF
:1040A000725C7372635C686333325F6C6C5F636C09
:1040B0006B2E630077770707004005400EFAFFFF7D
:1040C000F0B585B0044600252B4E3068049070682A
:1040D0000390B0680290F0680190002C0ED0012C83
:1040E0000CD0022C0AD0032C08D0042C06D0052CAE
:1040F00004D04FF4E37121A0FCF724FE2A4FB7F857
:10410000FE0310F0010F04D140F2C7111BA0FCF711
:1041100019FE97F8260000F00700052801D0052CAD
:1041200012D10125306910F0010F04D140F2CF11F6
:1041300012A0FCF707FE1D483060C0127060B0602E
:10414000F0601E20FCF722FE87F826401E20FCF7B8
:104150001DFE012D0DD10498306003987060029807
:10416000B0600198F06005B01E20BDE8F040FCF79B
:104170000DBE05B0F0BD0000008004402E2E5C6432
:104180007269766572735C686333325F6C6C5F640E
:1041900072697665725C7372635C686333325F6CFC
:1041A0006C5F636C6B2E6300004005400EFAFFFFEE
:1041B000F6EE000A60EE200A10EE100A1049A1EB9C
:1041C000600000EE100AB7EE081A20EE802AF0EE2A
:1041D000411A42EE401A21EE800AF0EE411A20EE1A
:1041E000802A42EE401A21EE800A60EE800A00EE3C
:1041F000C01A61EE000AB7EE001A81EE200A70477D
:10420000865A375F10B42348006810F0010F224827
:1042100002D02249416001E021494160DFF884C0B9
:104220009CF8261001F007021F494FF40043062AAC
:1042300006D2DFE802F003070A0D1013416801609F
:1042400010BC7047016010BC7047036010BC704721
:10425000016010BC7047036010BC7047DCF800219F
:10426000C2F30822DCF800311B0FDCF800C10CF0AF
:104270001F0C0E4CE46904B141680CF1010CB1FB58
:10428000FCF1521C51435A1CB1FBF2F1016010BC0D
:104290007047000084060140A0C2FF1F0024F40004
:1042A000002D31010040054000127A000020A84294
:1042B00000B50548016841F470010160FFF7A2FFF5
:1042C00002490020086000BD88ED00E008ED00E034
:1042D00070B52DED088B5048016821F00101016097
:1042E000C6144E4806804E480188C288114482890F
:1042F000438A1A4411444B4A890811804288038931
:104300001A44C389B0F814C063441A44464B920857
:104310001A80DFF818C1DCF80030A3EB93031A44CD
:10432000CCF80020DFF808C1DCF80030A3EB9303E1
:104330001944CCF800103F4B92081A803E4A890875
:104340001180818842891144028AC08A104408443D
:1043500085083A48058000EE105A394CB8EE40BA4C
:1043600084ED05BA206902F0F7F994ED0A1B53ECCD
:10437000112B02F009F841EC190BE06802F0ECF99E
:1043800094ED088B53EC182B01F0FEFF94ED000A1E
:10439000D4ED06BAD4ED010A2BEE000A94ED021A10
:1043A00041EC1A0B0BEEE00AD4ED070A00EE810A8D
:1043B00010EE100A02F0D0F953EC1A2B01F00EFFA8
:1043C00053EC192B02F0DEF841EC100B84ED0C0BD2
:1043D000C4ED07BA84ED06BA84ED0A8B84ED080BB0
:1043E00051EC100B01F0A2FF164908804FF4532046
:1043F00015496843000C088014490868A0EB502058
:10440000284408601249400A088000F031FA114837
:104410000680BDEC088B70BD14440240283805406E
:104420005000044016C1FF1F14C1FF1F0CC1FF1F25
:1044300010C1FF1F2EC0FF1F30C0FF1F2CC0FF1F69
:10444000F8C1FF1F52C1FF1F1CC1FF1F04C1FF1F86
:1044500008C1FF1F2A38054070B504460E461546B0
:10446000A4F18040B0F5103009D0A4F18040B0F53F
:10447000113004D040F2372111A0FCF763FC36B1B3
:10448000012E04D04FF40E710DA0FCF75BFC35B18A
:10449000012D04D040F2392109A0FCF753FC300172
:1044A0004FF4005101FA00F0012D04D0216921EAF6
:1044B0000000206170BD21690843206170BD0000CB
:1044C0002E2E5C647269766572735C686333325F4A
:1044D0006C6C5F6472697665725C7372635C68634E
:1044E00033325F6C6C5F746D72302E6300000000BD
:1044F0002DE9F04105460E4614464FF00008002C09
:1045000073D0A5F18040B0F5103008D0A5F18040FF
:10451000B0F5113003D0F62135A0FCF713FC2EB115
:10452000012E03D0F72132A0FCF70CFC206860B10B
:10453000B0F5007F09D0B0F5807F06D0B0F5A06F50
:1045400003D0F8212AA0FCF7FDFB6368BBB1102B58
:1045500015D0202B13D0302B11D0402B0FD0502B47
:104560000DD0602B0BD0702B09D0802B07D0902B57
:1045700005D0A02B03D0F9211DA0FCF7E3FBA06818
:1045800038B1A0F50041023903D0FA2118A0FCF798
:10459000D9FB05EB8607002038603146284600F03D
:1045A000D5F807F10800A18901603146284600F0DE
:1045B000CDF82A69D4F804C02368300143EA0C031B
:1045C00048F2F271D4F808C0814043EA0C0303FAC0
:1045D00000F08A430840104328613146284600F025
:1045E000B5F84046BDE8F081FFE76FF00208F8E754
:1045F0002E2E5C647269766572735C686333325F19
:104600006C6C5F6472697665725C7372635C68631C
:1046100033325F6C6C5F746D72302E63000000008B
:1046200070B504460D461646A4F18040B0F5103032
:1046300009D0A4F18040B0F5113004D040F26921D6
:104640000EA0FCF77FFB15B135F00C1004D040F242
:104650006A210AA0FCF776FB36B1012E04D040F2A5
:104660006B2106A0FCF76EFB012E03D02069A84346
:10467000206170BD20692843206170BD2E2E5C64CE
:104680007269766572735C686333325F6C6C5F6409
:1046900072697665725C7372635C686333325F6CF7
:1046A0006C5F746D72302E630000000070B50446BC
:1046B0000D46A4F18040B0F5103009D0A4F180403F
:1046C000B0F5113004D04FF497710CA0FCF73AFB11
:1046D00035B1012D04D040F22F1108A0FCF732FBB8
:1046E00020692901012202FA01F1084320612946CB
:1046F0002046BDE8704000F029B800002E2E5C6412
:104700007269766572735C686333325F6C6C5F6488
:1047100072697665725C7372635C686333325F6C76
:104720006C5F746D72302E63000000000021002861
:1047300008D000220260426082604FF6FF728281E0
:10474000084670476FF00201FAE7000010B4134A00
:10475000126A134BC2F302621B6823FA02F2D20BF5
:1047600002EB8202D2024FF0000C002906D04FF07B
:104770008073194604691C4205D10CE04FF4807324
:104780001946F7E700BF521E02D043690B42F9D029
:104790000AB96FF0070C10BC604670470040054036
:1047A000A0C2FF1F30B585B001210803FCF72AFF26
:1047B00001214803FCF726FF6846FFF7B7FF0024F6
:1047C0000094019402944EF66020ADF80C00244D44
:1047D0006A4600212846FFF78BFE0120FCF7B4FA59
:1047E000012200212846FFF737FE0120FCF7ACFA32
:1047F000012204212846FFF713FF6846FFF796FFC2
:1048000000940194029440F2EC40ADF80C00154C79
:104810006A4600212046FFF76BFE0120FCF794FA60
:10482000012200212046FFF717FE0120FCF78CFA39
:10483000012204212046FFF7F3FE0B4A4FF40051FA
:10484000C2F8FC11094820230370D16700212846D3
:10485000FFF72CFF00212046FFF728FF05B030BDF1
:10486000004002400044024088E000E02DE400E007
:104870002DE9F04F2DED028B81B0FE48DFF8FCA34F
:1048800000240188FC484FF00109008800F27B12E7
:10489000914205D9FA4880F800908AF800900DE01E
:1048A00000F20912914202D98AF8009006E098308D
:1048B000814203D28AF80040F1480470F14A10782E
:1048C000401CC0B21070642801D964201070EE48FA
:1048D000B0F860C0ED4BA3F800C0B0F854C0EC488D
:1048E000A0F800C01278EB4D642A04D1DA88B0F940
:1048F0000000101A2860DFF8A0C303208CF8000025
:104900009CF80000421E33F8126023F81060D0B209
:104910008CF800000028F3D12868E04A0A2804DD5A
:10492000DF4880F80090147005E0002803DADC48C6
:10493000047082F80090DB48DC4DDFF874C3028815
:10494000D948DC4E038803F11E00824210D92C7036
:10495000D01A80B23080F12802D98CF8009001E0A2
:104960008CF800405A281AD2D34880F8009016E0FC
:1049700002F11E0083420FD98CF80040981A80B2D1
:104980003080F12802D985F8009000E02C705A2878
:1049900005D2C948047002E02C708CF800403088C1
:1049A0005A2805D2C54E378847F02007378004E0E3
:1049B000C34E378847F0200737809CF80060DFF847
:1049C0000CC3DFF80083DFF800B3BCF800C04FF47D
:1049D000706756B1CBF80070D32802D2BCF1160F25
:1049E00005D3BB4EC6F8008001E0B94E37602D7884
:1049F0004DB1B74D2F60D32802D2BCF1160F04D3AE
:104A0000CBF8008001E0CBF80070B24D45432E0C8E
:104A1000B14D2E80B14E3568A5EB15350544356096
:104A2000AF4EC5F30F353580DFF8B882D8F8006097
:104A3000A6EB16163544C8F80050AB4E2D0935606C
:104A4000DFF8A8E2DFF8A882B1F53E7F10D2BEF809
:104A500000506E1EAEF8006005D22125AEF8005061
:104A6000A44D85F800904FF46165A8F8005011E05E
:104A7000B1F5777F0ED9B8F800506E1EA8F8006027
:104A800005D24FF46165A8F800509A4D2C7021258D
:104A9000AEF8005040F2551545435FEAD52801D0E5
:104AA000ED0A00E00025DFF85082A8F80050B5F5C7
:104AB000C87F03D94FF4C875A8F800508F4DB8F8D7
:104AC000008055F828808E4DC5F800808D4E3080CE
:104AD0008D4D2980B0F5177F03D24FF41778A6F8D3
:104AE0000080B6F800E040F67218C64501D9A6F875
:104AF000008040F27448414501D2A5F80080B5F825
:104B0000008040F65C51884500D929803688A9216B
:104B100071434FF01808B8EB113F02D2090B183956
:104B200000E00021DFF8E481C9B288F800102D8888
:104B30004FF0260805EB0515B8EB552F02D26D0A8C
:104B4000263D00E00025DFF8C881EDB288F800506E
:104B500001EB410808EB0111DFF8B88105EB810199
:104B6000A8F8001041F28F65A94201D9A8F80050B9
:104B700040F2531141434FEAD12867494D4DA1F806
:104B80000080B8F59B7F03D94FF49B78A1F8008093
:104B9000DFF88C81DFF884E1BCF1EE0F98F800803B
:104BA0002AD9B8F1000F0FD0DFF878C1B1F8008032
:104BB0003CF818C0844502D2A0EB0C0C01E04FF089
:104BC000000CAEF800C00EE0DFF85CC1B1F8008068
:104BD0003CF818C0844502D2A0EB0C0C01E04FF069
:104BE000000CAEF800C0DFF844C109885CF821C0B1
:104BF0004F49C1F800C015E0B8F1000F08D0DFF848
:104C000034C109883CF811100144AEF8001007E0E7
:104C1000DFF824C109883CF811100144AEF80010F7
:104C200043490C60BEF80010B1F5805F03D94FF422
:104C30008051AEF8001041490860BEF8001040F203
:104C40004B5C01FB0CF1DFF8F8C009EB5131ACF81B
:104C50000010B1F5C87F03D340F28F11ACF80010FB
:104C6000DFF8E080BCF80010DFF8DCC058F82180E5
:104C70006CE000002CC0FF1F4AC0FF1F1CC0FF1FBC
:104C80001DC0FF1F4CC1FF1F0000044040C1FF1F9B
:104C90001AC0FF1F48C1FF1F90C1FF1F1FC0FF1F89
:104CA0001EC0FF1F2EC0FF1F30C0FF1F32C0FF1FDE
:104CB00033C0FF1F28C0FF1F1AC1FF1F083805405F
:104CC0000A380540004C05005CC1FF1FCCC0FF1F27
:104CD00058C1FF1F00AA10001EC1FF1F5CC0FF1FAC
:104CE00060C0FF1F90C0FF1F8CC0FF1F16C0FF1FBA
:104CF00018C0FF1F3CC0FF1FECC0FF1F880401004D
:104D0000A4C0FF1FEEC0FF1FF0C0FF1FF5C0FF1FB4
:104D1000F4C0FF1FF2C0FF1F50C1FF1F4EC1FF1F95
:104D200054C0FF1F562001007A1B010030140100FF
:104D30003CC1FF1FE81D01000C19010088D403408D
:104D4000FEC0FF1FF00D010098C0FF1FCCF80080CF
:104D5000DFF808C40CEB810C9CED000ADFF800C4FE
:104D60008CED000ADFF8FCC30CEB810C9CED000A13
:104D7000DFF8F4C38CED000ADFF8F0C30CEB810C14
:104D80009CED000ADFF8E8C38CED000ADFF8E4C30D
:104D90000CEB810191ED000AF74981ED000A40F228
:104DA0004B5171435FEA513C01D0490B00E00021B7
:104DB000DFF8C8C3ACF80010B1F5C87F03D94FF4D1
:104DC000C871ACF80010EE49BCF800C031F81C10F6
:104DD000DFF8B0C3ACF80010EB4E41F24C1CA6F863
:104DE00000C0DFF8A8C3CCF800100CF1040CCCF81C
:104DF0000010B0F5967F12D89A4208D94FF41B7074
:104E0000FBF7F8FA40F22260FBF794FF07E040F26C
:104E10002260FBF7EFFA4FF41B70FBF78BFFDC48C7
:104E2000DFF870C30178042049B1BCF8001096295E
:104E300007D9D9490880D94880F8009001E0D849BD
:104E40000880D848298802680A440260D64B18882E
:104E5000401C80B2188040F2A255DFF85083D44E37
:104E6000A84203D1347088F8004001E03C2924D2E4
:104E7000DFF834E350282ED9337863BBA84201D23F
:104E800088F80090B2FBF0F293B2CA4ADFF81483BC
:104E90001380C94D2A68A2EBD2021A442A60C74B7C
:104EA000D2081A80ACF80040C54A1080C8F800400B
:104EB000AEF8004086F800900DE078290BD93470E8
:104EC000BCF80000401C80B2ACF80000BE2802D93B
:104ED000BE20ACF80000BB4A1088B0F5BE6F02D20D
:104EE0004FF4BE601080138840F67240834200D9B0
:104EF0001080B548DFF8D482B54D0078002800F066
:104F0000FD82B448B44B007800B318881288DFF8EB
:104F1000CCC290420DD29CF8002002F10102D2B224
:104F20008CF80020422A11D9401C18808CF80040CF
:104F30000CE00BD99CF80020521CD2B28CF8002057
:104F4000422A03D9401E18808CF80040A44A2868E1
:104F50001060A4481A88A44B0088101A1860511ACF
:104F6000002900DC0021A14A1180002801DA414219
:104F700000E001469E4A89B21180B1F5987F02D9BE
:104F80004FF49871118011889A4B41438A1100EBBC
:104F9000C00002EBA0021A600092974A136803EB6C
:104FA000A11101EBA00010609449884200DD11605E
:104FB0001068002800DA146091490888DFF844E29C
:104FC00000EB401000F5001000F5E220CEF80000E4
:104FD00009888D4B01EB411101F5001101F5E2212A
:104FE0001960DFF828C2604501D9CEF800C06145DC
:104FF00001D9C3F800C09AF80000DFF814C2A8B1C4
:105000008448007890B91168DEF80000814201D927
:10501000081A00E000201060DCF8000019688842DF
:1050200001D9401A00E00020CCF800007A4800784E
:1050300010B11460CCF80040106878498012086004
:105040000099084476490860DCF80010A1EBA11132
:105050000844CCF80000002801DACCF80040DCF865
:10506000000070498011086042F21072904200DD29
:105070000A6008886C4980B208806C4A012111805E
:105080006B4951F820106B48016000686A4908605C
:105090006A490988C22901D0C12908D168490C7020
:1050A0006849654A0968884200D908461060DFF8F7
:1050B000909199F800109FED640A6448B5EE001ACB
:1050C0009FED638ADFF88CA1F1B35A49096800EEBD
:1050D000901AF8EE600A20EE800AF0EE000A60EE08
:1050E000200AC0ED000A204860EEA01A90ED000AE8
:1050F0001B4820EE800A01EE810A90ED001A1C4840
:1051000000EEC10A90ED001A1B4830EE010A90ED46
:10511000001A00EE810AFFF74BF84F4820EE080A0C
:1051200080ED000ABCEEC00A424910EE100A096880
:10513000A0EB5101494800680144002909DD3D4ABE
:1051400010EE101A126800E08AE0A1EB5201084448
:1051500000E00020CAF80000C3E00000C422010003
:1051600064C1FF1F0429010068C1FF1F442F010013
:105170006CC1FF1F8435010070C1FF1FF6C0FF1F07
:10518000CC0A0100F8C0FF1FFAC0FF1F88CC034003
:10519000E8C0FF1FD8C0FF1F08380540E9C0FF1F47
:1051A0000A380540C8C0FF1FCCC0FF1FCEC0FF1F7C
:1051B000CFC0FF1F2AC0FF1FD0C0FF1FD4C0FF1FDA
:1051C000D6C0FF1F58C0FF1F3DC0FF1FBCC0FF1F40
:1051D000C0C0FF1F3FC0FF1F40C0FF1F62C0FF1FB6
:1051E00038C1FF1F52C1FF1F64C0FF1F76C0FF1FE1
:1051F00074C0FF1F6CC0FF1F04C0FF1F00409C0055
:1052000000C1FF1F20C0FF1F24C0FF1F00204E0051
:1052100050C0FF1F1EC0FF1F1DC0FF1F68C0FF1F23
:1052200070C0FF1F80C0FF1FC4C0FF1F84C0FF1FCE
:105230004468000088C0FF1F94C0FF1F36C0FF1FD6
:1052400054C0FF1F9CC0FF1F728808397CC1FF1F1C
:105250000000F04578C1FF1F74C1FF1F98C0FF1FF9
:10526000FE49096800EE901AF8EE600A60EE800AC6
:10527000C0ED000AFA4860EEA01A90ED000AF94865
:1052800020EE800A01EE810A90ED001AF64800EE49
:10529000C10A90ED001AF54830EE010A90ED001AAF
:1052A00000EE810AFEF784FFF14820EE080A80ED47
:1052B000000ABCEEC00AE94910EE100A0968A0EB2A
:1052C0005101EC4800680144002907DDE34A10EE73
:1052D000101A1268A1EB5201084400E00020CAF83D
:1052E0000000E548007800287ED0DC480168E34AE9
:1052F0001268914203D2012189F8001006E001688A
:10530000DF4A1268914201D989F800400268DD49FC
:10531000B2F57A6F03D232780AB101220A700068BE
:1053200041F20722904202D9307800B10C70D64881
:105330000978DFF85CC30078D64E0843D349097872
:1053400050EA010207D1D44B32781B7802F00102F7
:1053500052EA030E20D0DCF8000040F00100CCF847
:105360000000CE48016841F001010160CC480168AD
:1053700041F001010160307810F0010F2FD0C948D1
:105380000470BD480470C8480470C8480460C84828
:105390000470C848047022E0104320D1F9B9F3B971
:1053A000BF48016821F00101016099F8000058B17F
:1053B000BA48016821F001010160DCF8000040F00A
:1053C0000100CCF800000AE0DCF8000020F0010049
:1053D000CCF80000B148016821F001010160B64934
:1053E0000868B64A106000E079E04968B44A116084
:1053F000B44A40081060401AB3490860002801DA36
:10540000414200E00146B14A1160B1F5207F00D26F
:105410001460AF4E1168AF4B32685143090A01EB7B
:105420004101C90A1960002801DA49421960AA49F4
:105430004FF4106CC1F800C01968002900DA494225
:10544000DFF898E2CEF80010B1F5106F06D9002809
:1054500002DDC3F800C001E0A148186099F800100F
:1054600069B141F60C60C8F80000500030609D4AF8
:105470001268904200D932603068286016E099487E
:105480000068824200D9306030682860C8F80000A7
:105490001A68A0EB6203002B00DC00232B6000EBFA
:1054A0006200002800DC0020C8F8000041B1286834
:1054B000DAF8001001448C4800680844286022E0B3
:1054C0002868DAF8001042188748006802442A6009
:1054D000D8F8002011440844C8F8000013E07C48C4
:1054E000824900680968884200D90846DAF8001045
:1054F000084428600844C8F8000004E04CF28370B7
:105500002860C8F800007A4829682E46814200D9F0
:105510003060D8F80010814201D9C8F80000754801
:1055200000881E2803D274490F60CBF80070DFF8A2
:10553000CC91DFF8CCA1112817D2316843F21300C7
:10554000814200D93060D8F80010814201D9C8F8F2
:105550000000316841F20C200144C9F80010D8F86D
:1055600000100844CAF800002CE0152816D265483F
:105570003168814200D93060D8F80010814201D9E9
:10558000C8F80000316844F21F200144C9F8001037
:10559000D8F800100844CAF8000013E0B0F5E47F22
:1055A0000BD3316841F20C200144C9F80010D8F83F
:1055B00000100844CAF8000004E05348C9F800008D
:1055C000CAF80000514805885148078807F57A70E5
:1055D000854211D9E81B00EE100AB8EEC01A00EEA1
:1055E000105AB8EE400AC0EE010A96ED000AB8EE75
:1055F000400A20EE800A01E09FED460A10EE100AF4
:1056000001F0AAF841EC100B434880ED000B51EC7F
:10561000100B00F08BFE414A00F540310C31116057
:10562000BD4204D94CF68C531844430801E04FF4B2
:1056300029333B4803603B484460DFF8ECC0CCF8BA
:1056400000303A4B994201D93949116031681368E9
:1056500041F20C1C8C44634571D26CE088C0FF1F82
:1056600068C1FF1F64C1FF1F6CC1FF1F70C1FF1F16
:1056700074C1FF1F98C0FF1F3FC0FF1F84C1FF1FE1
:1056800088C1FF1F80C1FF1F1DC0FF1F18C1FF1F62
:105690004886034034C0FF1F19C1FF1F088603401E
:1056A000688603403EC0FF1F3DC0FF1F08C0FF1FAC
:1056B000E8C0FF1FE9C0FF1FD0C00340A8C0FF1F04
:1056C000B0C0FF1FACC0FF1F78C0FF1F94C1FF1FF9
:1056D00094C0FF1F7CC0FF1FB4C0FF1FB8C0FF1FD6
:1056E00000F7FFFFA4C0FF1F3CC1FF1F9CC0FF1FAE
:1056F000B8C20100CCC0FF1F58C1FF1F54C1FF1F1B
:1057000060C1FF1F7B2C0100FA3E05001CC1FF1F7A
:105710001EC1FF1F0000A94828C1FF1F20C1FF1F95
:1057200030C1FF1F00C0034004C403400047050010
:105730000049050003E041F20C330B4413608F4B2A
:10574000DFF83CC28F4F1B78DFF83CE214260CF1E7
:1057500004057BB13C709EF800305B1CDBB28EF818
:105760000030142B01D98EF800609EF80030012B18
:105770005BD0A9E08EF800403B785B1CDBB23B704D
:10578000142B00D93E703B78012B4DD140F20443DD
:10579000C0F89C314FF48463C0F898317B4BC0F85B
:1057A00018327C4B7A4C1C607B4BC0F844327B4CEB
:1057B00023607B4BC0F834324FF0C063C0F8303206
:1057C000784C4FF4C3132360774B4FF4C2141C6022
:1057D000D0F8043243F40073C0F80432D0F8083231
:1057E00043F40023C0F80832D0F8043223F44023F5
:1057F000C0F80432D0F8083223F44073C0F80832FD
:10580000DCF8003043F40033CCF800302B6843F46C
:1058100000432B60DCF8003023F44043CCF8003028
:105820002B6823F440332B604EE04FF48163C0F8C3
:105830009C314FF48863C0F898314FF04013C0F8A2
:105840001832544B594C1C60594BC0F84432534CDD
:1058500023604FF08063C0F83032564BC0F83432CA
:10586000514B4FF483141C604E4C4FF4C313236010
:10587000D0F8043223F44073C0F80432D0F8083270
:1058800023F44023C0F80832D0F8043243F4002354
:10589000C0F80432D0F8083243F40073C0F808327C
:1058A000DCF8003023F44033CCF800302B6823F4CC
:1058B00040432B60DCF8003043F40043CCF8003068
:1058C0002B6843F400332B60D0F8B8334FF0130C3F
:1058D0003CEA030340F04D80D0F8B83323F01303C3
:1058E000C0F8B833D0F8B43323F01303C0F8B4339E
:1058F000C0F8881041F20C2C01EB0C03C0F89C306E
:10590000D9F80030C0F898302B4CD8F8003023601C
:105910002A4C9C44C4F800C0241FDAF800C0C4F824
:1059200000C01268C0F8CC20DFF894C0CCF800208A
:10593000244AD2F800C0244AC2F888C0DBF800C06C
:10594000C2F898C041F60C62114441F48001C0F8DD
:105950002C1299181D4A41F4800111601C49C0F8AD
:1059600024121C4A1160D0F8B41341F01301C0F89E
:10597000B41301B0BDEC028BBDE8F08F1AC1FF1F5C
:1059800004C6034091C1FF1F92C1FF1F20004000C9
:105990000400800018C60340C000140044C6034041
:1059A0008601000430C6034034C60340080080006E
:1059B000C40014008601000688C403409CC4034050
:1059C000CCC4034058C1FF1F00D003402CC6034085
:1059D000000C400024C6034010B58AB001214802E3
:1059E000FBF748FE6846FCF701F94FF40040ADF8BC
:1059F000160001116A460120FBF7D2FE06A8FBF74C
:105A00008BF90120ADF818000820ADF81A0000202D
:105A1000ADF81C001020ADF81E000620ADF82000E7
:105A20000220ADF82200054C06A92046FBF7C2F87B
:105A300001212046FBF75EF80AB010BD00B003401C
:105A40000F4AD36823F01003D3600E4A138843F43F
:105A5000004313800C4A10805180908BC0F30E00DD
:105A600040F400409083908840F00100908090883E
:105A700040F004009080908840F0020090807047D1
:105A800000800440103C0540001004400A49CA68E8
:105A900022F02002CA6009490A8842F400420A80C2
:105AA00007490880081D018841F001010180018833
:105AB00041F002010180704700800440183C05401D
:105AC00000140440C720FDF7F3FFFAF7EFFCFEF7E0
:105AD00069FEFCF7A1F8FEF7B5F9FBF779F9FBF7DA
:105AE0002FF9FBF745FDFCF761FBDFF8ECA3DAF8D3
:105AF000000040F00100CAF80000F84D286840F0AE
:105B000001002860F64C206840F001002060FAF7A0
:105B10002BFDFAF766FC3C200026F2490860832042
:105B2000FEF706F8DFF8C083DFF8C093F04D0127D9
:105B3000F048416911F0010FFBD0416921F00101EA
:105B40004161ED4C2088C22860D005DCC02807D018
:105B5000C12840F0C48023E0C32840F0C080A8E002
:105B6000E649088818B1401E088000F0B8B8C12086
:105B700020804AF20850DFF888B3BBF8FE130843D0
:105B8000ABF8FE030220FEF715F8BBF8FE0320F485
:105B9000A16020F4204040F42540ABF8FE039EE0D5
:105BA000D04803214160C1600160CC48016821F008
:105BB00001010160CA48016821F001010160DAF8C1
:105BC000000020F00100CAF80000CE480770CE485F
:105BD000CE490088723080B2088040F6724290420E
:105BE00000D90A800A8840F27440824200D20880BC
:105BF000C2202080C6493220088089F80070C5483C
:105C00000168C5480160C548067068E0C448C549D8
:105C1000006809680844C0490860BC4840F6724200
:105C20000388934200D90280038840F27442934271
:105C300000D2028099F80000002850D0B44A1088A1
:105C400008B1401E10801088002848D1B8F8000024
:105C5000B54AE4381060B5480660B54A42F20E40D5
:105C60001060B4480670B44A4FF47A701080B3489C
:105C70000860B3480770B348007880B3B249087829
:105C8000401CC0B20870132829D90E70C320208090
:105C90009248016821F0010101609148016821F0FA
:105CA00001010160DAF8000020F00100CAF80000EC
:105CB00015E0A149088808B1401E0880088830B165
:105CC000A248B8F8001000882639884207DDA048AD
:105CD000B8F8001001809F480770CC2020809E4AB1
:105CE0001088401C80B2108040F6B831884200D93C
:105CF00011801088884206D2984999480B880088FC
:105D0000834200D208802088C12803D17F490B88B4
:105D10008F490B80C32801D0C22814D1DFF830C2CC
:105D2000B8F80010BCF8000088420CD27E488D4BB9
:105D300000681968884202D9C81C186000E0186021
:105D40001888ACF800008849884B08681B88A0EBCD
:105D50001010184408608649C0F30F10088042F202
:105D60008D03B3FBF0F1DFF80CC2ACF8001001FBBF
:105D70001033DFF804B29BB2ABF80030B3EB500F36
:105D800002D9481CACF80000BCF80000FA2802D97F
:105D9000FA20ACF80000BCF80000052802D205206B
:105DA000ACF80000BCF80000192809D27349087843
:105DB000401CC0B2087064280DD9642008700AE045
:105DC000232808D96D490878401EC0B208700A28F7
:105DD00001D20A20087069480078502801D9684922
:105DE0000F70142801D2664806706648006866493C
:105DF00048436649000C0880088800EE100AB8EE97
:105E0000400ADFED630A634B20EE200ABCEEC00AB5
:105E100010EE100A80B2D880DFF87CC1CCF8000008
:105E2000B0F5256F03D94FF42560CCF80000DCF8FD
:105E30000000B0F5DC6F03D24FF4DC60CCF800005A
:105E4000DCF8000040F63D4C00FB0CF0DFF84CB1F4
:105E50004BF24C7CACEB102CCBF800C04BF64E5CFC
:105E6000ACEB1020DFF838C1CCF8000026484FF426
:105E7000A83C008800FB0CF0000CD881088840F694
:105E8000E213984204D8088840F2AA53984221D2DB
:105E9000DFF810C1BCF80000431EACF8003014D28B
:105EA0002120ACF80000088840F6C413984206D9B7
:105EB000287820F0330040F01000287005E02878A2
:105EC00020F0330040F020002870374B4FF4616021
:105ED000188079E06AE00000688603404886034045
:105EE00008860340F0C303404AC0FF1F48C0FF1F9D
:105EF00010C0FF1F0040024036C0FF1F3AC0FF1F06
:105F0000004005403DC0FF1F08C1FF1F42C0FF1FEA
:105F100044C0FF1FA4C0FF1F9CC0FF1F38C0FF1F4D
:105F2000A0C0FF1F78C1FF1F0CC0FF1F04C0FF1FD0
:105F300050C0FF1F54C0FF1F46C0FF1FDD1C0200E2
:105F4000E8C0FF1FE9C0FF1FEAC0FF1F2CC0FF1FF2
:105F500040C0FF1F3FC0FF1F56C0FF1F58C0FF1F9C
:105F60004CC0FF1F08C0FF1FDCC0FF1FD6C0FF1FB3
:105F7000E4C0FF1FE0C0FF1FE2C0FF1FE6C0FF1F1D
:105F8000E7C0FF1F8CC0FF1FA0AA010000C1FF1FB8
:105F9000CDCC8C3FD8C1FF1F8CC1FF1F84C1FF1F18
:105FA00088C1FF1F12C0FF1F14C0FF1F088840F2E6
:105FB000D253984204D9088840F6C413984214D3A7
:105FC000287810F0330F10D0287810F0330F4ED00F
:105FD000098840F2DA73994241D96B4B998821F0D4
:105FE000040141F00801998048E0684B1888B0F13D
:105FF000010CA3F800C02ED24FF46160188008880D
:1060000040F69213984204D8088840F20E639842F2
:1060100012D20B8840F2DA70834206D9287820F039
:10602000330040F00100287015E0287820F033009C
:1060300040F0020028700EE0287810F0300F07D1F1
:106040000B88B3F5C86F06D90B88B3F5166F02D26B
:1060500020F0330028704E4B21201880B4E74A4BC3
:10606000998821F0080141F00401998006E0464B2F
:10607000998821F0080121F004019980454900F038
:10608000300309780B432DD089F80060424BB3F8F8
:1060900000C04CF0010CA3F800C0404B1F701680EC
:1060A0003F4B04221A803F4A136843F001031360F8
:1060B0003D4A136843F001031360DAF8002042F010
:1060C0000102CAF80020394A1770394A1368394A60
:1060D0001360394B4DF289321A60384A1670384ACB
:1060E000167017E089F800702C4B1A7892B1354A77
:1060F00012783AB9DFF8D0C04FF4FA72ACF8002049
:10610000C0222280244AB2F800C02CF0010CA2F870
:1061100000C01E7010F0300F0AD1012908D02B4AA0
:106120001278012A04D02A494FF480500880FFE4F5
:1061300010F0300F05D027484FF47A7202805210C9
:10614000428022480078084305D022484FF4FA7173
:106150000180FA21418020490888401C80B20880D3
:106160001C4A1388984205D90E8019494FF4805073
:106170000880DDE4518888427FF6DAAC08494FF4A4
:1061800080500880D4E40000E8C1FF1F14C0FF1F46
:1061900012C0FF1F18C1FF1F34C0FF1F49C0FF1FDF
:1061A0000A380540488603400886034034C1FF1F73
:1061B000A4C0FF1F9CC0FF1FC0C0FF1FE8C0FF1F7F
:1061C000E9C0FF1F3FC0FF1F3AC0FF1F19C1FF1FDB
:1061D0000838054000C0FF1FFCC0FF1F10B591EA42
:1061E000030F48BF83F0004300F1D481841A71EBA0
:1061F000030C05D2121943EB0C03001B61EB0C01DD
:10620000DFF824E14FEA1154A4EB135C1EEA430FBC
:1062100018BF9EEA445F73D023EA0E03DCF1200E20
:1062200021EA045143F4801332D322FA0CFE10EB1E
:106230000E0023FA0CFE41EB0E01CCF1200E03FA06
:106240000EFE10EB0E0051F10001B1F5801FCCF1F4
:10625000200E32D201EB045112FA0EF2BDE81040CA
:1062600058BF7047401C38BF5FEA420218BF7047F2
:10627000002814BF20F0010041F100014FEA410362
:1062800013F5001F38BF7047A1F1C04100F074B989
:10629000012A43EB0302ACF1200CDCF11F0E32BFEC
:1062A0004FF0000E23FA0CF310EB030041EB045106
:1062B000B4EB115FD0D0A1EB045101F58011490876
:1062C0005FEA300001EB04510ED350F1000038BFFB
:1062D00012FA0EFE08D1BDE81040C9E7401C38BFD5
:1062E0005FEA4202CAD1C3E7BDE810404FEA41036A
:1062F00013F5001F38BF7047A1F1C04100F03CB951
:106300009EEA445F08D011EA5E0FBDE8104004BF6A
:1063100001F0004100207047BDE8104070B500F06A
:10632000DDF800BF64FBBE3E0000E0FF4FEA115302
:10633000A3F58063D3F11E03A8BFD3F1200C08DBC3
:106340004FF0004242EAC12252EA505232FA03F0C0
:10635000704709420BD4102BC4BF0020704703F5CF
:10636000787CBCF1FF3F05D04FF0FF3070474FF015
:106370000000704770B500F0B1F800BF499224806A
:1063800000207047F0E70000DFF848C170B51CEA54
:10639000111E1EBF1CEA13159EEA0C0F95EA0C0F86
:1063A00000F06F8081EA030423EA4C134EEAD47EA6
:1063B00021EA4C1141F4801143F48013AE44A1FB57
:1063C000024CA0FB0365AEF17F7E361955EB0C0540
:1063D000A1FB034C4CF10003A0FB021C16EB0C06C6
:1063E000654153F10003094218BF46F0010613F45A
:1063F000007F0BD14FEA03314FEA0530340341EA05
:10640000155140EA16506FF003020AE04FEAC3212B
:106410004FEAC520F40241EA555140EA56506FF068
:10642000020202EB2E4201EB025585EACE710AD040
:106430005FEA440C18BF24F0004450F1000041F121
:10644000000120EAD47040F2FE7C624500D270BDAB
:10645000A84214BF4FF080444FF04044002E08BFC4
:106460000024BEF1806FA8BFA1F1C041BDE870401B
:1064700080F282804FF0000001F1C04101F0004144
:1064800070479EEA0C0F0CEA131518BF95EA0C0F23
:1064900006D04FF0000081EA030E0EF0004170BDFF
:1064A00000F01CF88900013E00F007B800F009B8C0
:1064B0004FEA430C5FEA5C5C08D081EA030100F01C
:1064C0005BB84FEA410C5FEA5C5CF6D14FF000002C
:1064D000014970470000FF070000F87F0EF1020E2F
:1064E0002EF0030E5EF8046B364205D4012A43EB0E
:1064F000030515F5001F12D8012841EB010C1CF50E
:10650000001F0CD80ED14FEAD17C15F5001F0CEB03
:106510004C0C0CF1020C08BF4CEBD37C04E04FF0A8
:10652000080C01E04FEAD37C0CEB4C0526FA05F68B
:1065300006F00706B6F1040C06D20EEB860CBDE899
:1065400070404CF0010C6047DFE80CF0090B0202D0
:106550004FF000414FF00000A1F5002170BD194639
:106560001046012851EB010418BFD4F5001484BF74
:10657000002001F0004170BD0808A0F500114FEAAD
:106580003101704710B591EA030F48BF83F0004313
:106590003FF52CAE841A71EB030C07D212198CF064
:1065A000004C43EB0C03001B61EB0C01DFF8A4E192
:1065B0004FEA1154A4EB135C1EEA430F18BF9EEA86
:1065C000445F00F0B08023EA6E03524221EA045196
:1065D000C3EB6E0338BF5B1EDCF1200E25D322FA1D
:1065E0000CFE10EB0E0043FA0CFE41EB0E01CCF159
:1065F000200E03FA0EFE10EB0E0051F10001CCF15B
:10660000200E29D412FA0EF201EB0451BDE810401D
:1066100058BF7047401C1CBFB2F1004F70470028A4
:106620000CBF491C20F00100704712EB020E43EB37
:10663000030218BF4FF0010E4EEA4202ACF1200CEB
:10664000DCF11E0E54D943FA0CFE10EB0E0051F192
:10665000FF31CCF11E0ED5D50EF1010E12FA0EFE51
:10666000404141EB010101EB445C5FEA5C5C10D905
:1066700010EBDE7001EB045138BFBEF1004FBDE8F6
:10668000104018BF704700280CBF491C20F00100C3
:10669000704730D24FEAD42C11F5001124F4006475
:1066A0001BD0B1FA81F20B3AA41AA41ED2F1200336
:1066B000914030FA03F31943904001EBCC71002C68
:1066C00001EB0451BDE81040A8BF704701F1C04183
:1066D0004FF0000001F000417047B0FA80F310FA6B
:1066E00003F100D110BDE41A173C4805C90AE4E7DC
:1066F00001EB045110BD491001EB0451BDE81040FD
:106700004FEA300002E04FF0000170474A0008BF36
:106710000042F8D0B2F5001F28BF704701F00041D9
:106720004FF0000070479EEA445F07D011EA5E0F09
:10673000BDE8104004BF002100207047BDE81040B4
:1067400070B5FFF7CBFE00BF40DFF63E83F000419F
:10675000104670470000E0FF43004FEAD30C4FEAB9
:106760003C0C43401FBF40070CF1605113F0FE4F3B
:1067700070471CF0006F03D100200CF000417047FF
:106780000CF0004343EA507010B540EACC0000F032
:106790000EF800BF000000924FEA0001FFF7ECBEC8
:1067A0004FF000414FF00000A1F5002170470EF1BD
:1067B000020E2EF0030E5EF8044B244204D44FEA7E
:1067C0004102B2F17F4F11D84FEA4003B3F17F4F3E
:1067D0000CD80ED14FEAD07CB2F17F4F0CEB4C0CB1
:1067E0000CF1020C08BF4CEBD17C04E04FF0080C1C
:1067F00001E04FEAD17C0CEB4C0324FA03F404F0E3
:106800000704B4F1040C06D20EEB840CBDE8104072
:106810004CF0010C6047DFE80CF0070802024FF073
:106820000040A0F5800010BD0846420018BFD2F11C
:10683000807288BF00F0004010BD4FF04070E1EE64
:10684000100A7047000F00000C0F0000180F000026
:10685000240F0000300F00003C0F0000480F000024
:10686000540F0000600F00006C0F0000780F000054
:10687000840F0000900F00009C0F0000A80F000084
:10688000B40F0000C00F0000CC0F0000D80F0000B4
:10689000E40F0000F00F0000FC0F000008100000E3
:1068A00014100000201000002C1000003810000010
:1068B00044100000501000005C1000006810000040
:1068C00074100000801000008C1000009810000070
:1068D000A4100000B0100000BC100000C8100000A0
:1068E000D4100000E0100000EC100000F8100000D0
:1068F00004110000101100001C11000028110000FC
:1069000034110000401100004C110000581100002B
:1069100064110000701100007C110000881100005B
:1069200094110000A0110000AC110000B81100008B
:10693000C4110000D0110000DC110000E8110000BB
:10694000F4110000001200000C12000018120000E8
:1069500024120000301200003C1200004812000017
:1069600054120000601200006C1200007812000047
:1069700084120000901200009C120000A812000077
:10698000B4120000C0120000CC120000D8120000A7
:10699000E4120000F0120000FC12000008130000D6
:1069A00014130000201300002C1300003813000003
:1069B00044130000501300005C1300006813000033
:1069C00074130000801300008C1300009813000063
:1069D000A4130000B0130000BC130000C813000093
:1069E000D4130000E0130000EC130000F8130000C3
:1069F00004140000101400001C14000028140000EF
:106A000034140000401400004C140000581400001E
:106A100064140000701400007C140000881400004E
:106A200094140000A0140000AC140000B81400007E
:106A3000C4140000D0140000DC140000E8140000AE
:106A4000F4140000001500000C15000018150000DB
:106A500024150000301500003C150000481500000A
:106A600054150000601500006C150000781500003A
:106A700084150000901500009C150000A81500006A
:106A8000B4150000C0150000CC150000D81500009A
:106A9000E4150000F0150000FC15000008160000C9
:106AA00014160000201600002C16000038160000F6
:106AB00044160000501600005C1600006816000026
:106AC00074160000801600008C1600009816000056
:106AD000A4160000B0160000BC160000C816000086
:106AE000D4160000E0160000EC160000F8160000B6
:106AF00004170000101700001C17000028170000E2
:106B000034170000401700004C1700005817000011
:106B100064170000701700007C1700008817000041
:106B200094170000A0170000AC170000B817000071
:106B3000C4170000D0170000DC170000E8170000A1
:106B4000F4170000001800000C18000018180000CE
:106B500024180000301800003C18000048180000FD
:106B600054180000601800006C180000781800002D
:106B700084180000901800009C180000A81800005D
:106B8000B4180000C0180000CC180000D81800008D
:106B9000E4180000F0180000FC18000008190000BC
:106BA00014190000201900002C19000038190000E9
:106BB00044190000501900005C1900006819000019
:106BC00074190000801900008C1900009819000049
:106BD000A4190000B0190000BC190000C819000079
:106BE000D4190000E0190000EC190000F8190000A9
:106BF000041A0000101A00001C1A0000281A0000D5
:106C0000341A0000401A00004C1A0000581A000004
:106C1000641A0000701A00007C1A0000881A000034
:106C2000941A0000A01A0000AC1A0000B81A000064
:106C3000C41A0000D01A0000DC1A0000E81A000094
:106C4000F41A0000001B00000C1B0000181B0000C1
:106C5000241B0000301B00003C1B0000481B0000F0
:106C6000541B0000601B00006C1B0000781B000020
:106C7000841B0000901B00009C1B0000A81B000050
:106C8000B41B0000C01B0000CC1B0000D81B000080
:106C9000E41B0000F01B0000FC1B0000081C0000AF
:106CA000141C0000201C00002C1C0000381C0000DC
:106CB000441C0000501C00005C1C0000681C00000C
:106CC000741C0000801C00008C1C0000981C00003C
:106CD000A41C0000B01C0000BC1C0000C81C00006C
:106CE000D41C0000E01C0000EC1C0000F81C00009C
:106CF000041D0000101D00001C1D0000281D0000C8
:106D0000341D0000401D00004C1D0000581D0000F7
:106D1000641D0000701D00007C1D0000881D000027
:106D2000941D0000A01D0000AC1D0000B81D000057
:106D3000C41D0000D01D0000DC1D0000E81D000087
:106D4000F41D0000001E00000C1E0000181E0000B4
:106D5000241E0000301E00003C1E0000481E0000E3
:106D6000541E0000601E00006C1E0000781E000013
:106D7000841E0000901E00009C1E0000A81E000043
:106D8000B41E0000C01E0000CC1E0000D81E000073
:106D9000E41E0000F01E0000FC1E0000081F0000A2
:106DA000141F0000201F00002C1F0000381F0000CF
:106DB000441F0000501F00005C1F0000681F0000FF
:106DC000741F0000801F00008C1F0000981F00002F
:106DD000A41F0000B01F0000BC1F0000C81F00005F
:106DE000D41F0000E01F0000EC1F0000F81F00008F
:106DF00004200000102000001C20000028200000BB
:106E000034200000402000004C20000058200000EA
:106E100064200000702000007C200000882000001A
:106E200094200000A0200000AC200000B82000004A
:106E3000C4200000D0200000DC200000E82000007A
:106E4000F4200000002100000C21000018210000A7
:106E500024210000302100003C21000048210000D6
:106E600054210000602100006C2100007821000006
:106E700084210000902100009C210000A821000036
:106E8000B4210000C0210000CC210000D821000066
:106E9000E4210000F0210000FC2100000822000095
:106EA00014220000202200002C22000038220000C2
:106EB00044220000502200005C22000068220000F2
:106EC00074220000802200008C2200009822000022
:106ED000A4220000B0220000BC220000C822000052
:106EE000D4220000E0220000EC220000F822000082
:106EF00004230000102300001C23000028230000AE
:106F000034230000402300004C23000058230000DD
:106F100064230000702300007C230000882300000D
:106F200094230000A0230000AC230000B82300003D
:106F3000C4230000D0230000DC230000E82300006D
:106F4000F4230000002400000C240000182400009A
:106F500024240000302400003C24000048240000C9
:106F600054240000602400006C24000078240000F9
:106F700084240000902400009C240000A824000029
:106F8000B4240000C0240000CC240000D824000059
:106F9000E4240000F0240000FC2400000825000088
:106FA00014250000202500002C25000038250000B5
:106FB00044250000502500005C25000068250000E5
:106FC00074250000802500008C2500009825000015
:106FD000A4250000B0250000BC250000C825000045
:106FE000D4250000E0250000EC250000F825000075
:106FF00004260000102600001C26000028260000A1
:1070000034260000402600004C26000058260000D0
:1070100064260000702600007C2600008826000000
:1070200094260000A0260000AC260000B826000030
:10703000C4260000D0260000DC260000E826000060
:10704000F4260000002700000C270000182700008D
:1070500024270000302700003C27000048270000BC
:1070600054270000602700006C27000078270000EC
:1070700084270000902700009C270000A82700001C
:10708000B4270000C0270000CC270000D82700004C
:10709000E4270000F0270000FC270000082800007B
:1070A00014280000202800002C28000038280000A8
:1070B00044280000502800005C28000068280000D8
:1070C00074280000802800008C2800009828000008
:1070D000A4280000B0280000BC280000C828000038
:1070E000D4280000E0280000EC280000F828000068
:1070F00004290000102900001C2900002829000094
:1071000034290000402900004C29000058290000C3
:1071100064290000702900007C29000088290000F3
:1071200094290000A0290000AC290000B829000023
:10713000C4290000D0290000DC290000E829000053
:10714000F4290000002A00000C2A0000182A000080
:10715000242A0000302A00003C2A0000482A0000AF
:10716000542A0000602A00006C2A0000782A0000DF
:10717000842A0000902A00009C2A0000A82A00000F
:10718000B42A0000C02A0000CC2A0000D82A00003F
:10719000E42A0000F02A0000FC2A0000082B00006E
:1071A000142B0000202B00002C2B0000382B00009B
:1071B000442B0000502B00005C2B0000682B0000CB
:1071C000742B0000802B00008C2B0000982B0000FB
:1071D000A42B0000B02B0000BC2B0000C82B00002B
:1071E000D42B0000E02B0000EC2B0000F82B00005B
:1071F000042C0000102C00001C2C0000282C000087
:10720000342C0000402C00004C2C0000582C0000B6
:10721000642C0000702C00007C2C0000882C0000E6
:10722000942C0000A02C0000AC2C0000B82C000016
:10723000C42C0000D02C0000DC2C0000E82C000046
:10724000F42C0000002D00000C2D0000182D000073
:10725000242D0000302D00003C2D0000482D0000A2
:10726000542D0000602D00006C2D0000782D0000D2
:10727000842D0000902D00009C2D0000A82D000002
:10728000B42D0000C02D0000CC2D0000D82D000032
:10729000E42D0000F02D0000FC2D0000082E000061
:1072A000142E0000202E00002C2E0000382E00008E
:1072B000442E0000502E00005C2E0000682E0000BE
:1072C000742E0000802E00008C2E0000982E0000EE
:1072D000A42E0000B02E0000BC2E0000C82E00001E
:1072E000D42E0000E02E0000EC2E0000F82E00004E
:1072F000042F0000102F00001C2F0000282F00007A
:10730000342F0000402F00004C2F0000582F0000A9
:10731000642F0000702F00007C2F0000882F0000D9
:10732000942F0000A02F0000AC2F0000B82F000009
:10733000C42F0000D02F0000DC2F0000E82F000039
:10734000F42F0000003000000C3000001830000066
:1073500024300000303000003C3000004830000095
:1073600054300000603000006C30000078300000C5
:1073700084300000903000009C300000A8300000F5
:10738000B4300000C0300000CC300000D830000025
:10739000E4300000F0300000FC3000000831000054
:1073A00014310000203100002C3100003831000081
:1073B00044310000503100005C31000068310000B1
:1073C00074310000803100008C31000098310000E1
:1073D000A4310000B0310000BC310000C831000011
:1073E000D4310000E0310000EC310000F831000041
:1073F00004320000103200001C320000283200006D
:1074000034320000403200004C320000583200009C
:1074100064320000703200007C32000088320000CC
:1074200094320000A0320000AC320000B8320000FC
:10743000C4320000D0320000DC320000E83200002C
:10744000F4320000003300000C3300001833000059
:1074500024330000303300003C3300004833000088
:1074600054330000603300006C33000078330000B8
:1074700084330000903300009C330000A8330000E8
:10748000B4330000C0330000CC330000D833000018
:10749000E4330000F0330000FC3300000834000047
:1074A00014340000203400002C3400003834000074
:1074B00044340000503400005C34000068340000A4
:1074C00074340000803400008C34000098340000D4
:1074D000A4340000B0340000BC340000C834000004
:1074E000D4340000E0340000EC340000F834000034
:1074F00004350000103500001C3500002835000060
:1075000034350000403500004C350000583500008F
:1075100064350000703500007C35000088350000BF
:1075200094350000A0350000AC350000B8350000EF
:10753000C4350000D0350000DC350000E83500001F
:10754000F4350000003600000C360000183600004C
:1075500024360000303600003C360000483600007B
:1075600054360000603600006C36000078360000AB
:1075700084360000903600009C360000A8360000DB
:10758000B4360000C0360000CC360000D83600000B
:10759000E4360000F0360000FC360000083700003A
:1075A00014370000203700002C3700003837000067
:1075B00044370000503700005C3700006837000097
:1075C00074370000803700008C37000098370000C7
:1075D000A4370000B0370000BC370000C8370000F7
:1075E000D4370000E0370000EC370000F837000027
:1075F00004380000103800001C3800002838000053
:1076000034380000403800004C3800005838000082
:1076100064380000703800007C38000088380000B2
:1076200094380000A0380000AC380000B8380000E2
:10763000C4380000D0380000DC380000E838000012
:10764000F4380000003900000C390000183900003F
:1076500024390000303900003C390000483900006E
:1076600054390000603900006C390000783900009E
:1076700084390000903900009C390000A8390000CE
:10768000B4390000C0390000CC390000D8390000FE
:10769000E4390000F0390000FC390000083A00002D
:1076A000143A0000203A00002C3A0000383A00005A
:1076B000443A0000503A00005C3A0000683A00008A
:1076C000743A0000803A00008C3A0000983A0000BA
:1076D000A43A0000B03A0000BC3A0000C83A0000EA
:1076E000D43A0000E03A0000EC3A0000F83A00001A
:1076F000043B0000103B00001C3B0000283B000046
:10770000343B0000403B00004C3B0000583B000075
:10771000643B0000703B00007C3B0000883B0000A5
:10772000943B0000A03B0000AC3B0000B83B0000D5
:10773000C43B0000D03B0000DC3B0000E83B000005
:10774000F43B0000003C00000C3C0000183C000032
:10775000243C0000303C00003C3C0000483C000061
:10776000543C0000603C00006C3C0000783C000091
:10777000843C0000903C00009C3C0000A83C0000C1
:10778000B43C0000C03C0000CC3C0000D83C0000F1
:10779000E43C0000F03C0000FC3C0000083D000020
:1077A000143D0000203D00002C3D0000383D00004D
:1077B000443D0000503D00005C3D0000683D00007D
:1077C000743D0000803D00008C3D0000983D0000AD
:1077D000A43D0000B03D0000BC3D0000C83D0000DD
:1077E000D43D0000E03D0000EC3D0000F83D00000D
:1077F000043E0000103E00001C3E0000283E000039
:10780000343E0000403E00004C3E0000583E000068
:10781000643E0000703E00007C3E0000883E000098
:10782000943E0000A03E0000AC3E0000B83E0000C8
:10783000C43E0000D03E0000DC3E0000E83E0000F8
:10784000F43E0000003F00000C3F0000183F000025
:10785000243F0000303F00003C3F0000483F000054
:10786000543F0000603F00006C3F0000783F000084
:10787000843F0000903F00009C3F0000A83F0000B4
:10788000B43F0000C03F0000CC3F0000D83F0000E4
:10789000E43F0000F03F0000FC3F00000840000013
:1078A00014400000204000002C4000003840000040
:1078B00044400000504000005C4000006840000070
:1078C00074400000804000008C40000098400000A0
:1078D000A4400000B0400000BC400000C8400000D0
:1078E000D4400000E0400000EC400000F840000000
:1078F00004410000104100001C410000284100002C
:1079000034410000404100004C410000584100005B
:1079100064410000704100007C410000884100008B
:1079200094410000A0410000AC410000B8410000BB
:10793000C4410000D0410000DC410000E8410000EB
:10794000F4410000004200000C4200001842000018
:1079500024420000304200003C4200004842000047
:1079600054420000604200006C4200007842000077
:1079700084420000904200009C420000A8420000A7
:10798000B4420000C0420000CC420000D8420000D7
:10799000E4420000F0420000FC4200000843000006
:1079A00014430000204300002C4300003843000033
:1079B00044430000504300005C4300006843000063
:1079C00074430000804300008C4300009843000093
:1079D000A4430000B0430000BC430000C8430000C3
:1079E000D4430000E0430000EC430000F8430000F3
:1079F00004440000104400001C440000284400001F
:107A000034440000404400004C440000584400004E
:107A100064440000704400007C440000884400007E
:107A200094440000A0440000AC440000B8440000AE
:107A3000C4440000D0440000DC440000E8440000DE
:107A4000F4440000004500000C450000184500000B
:107A500024450000304500003C450000484500003A
:107A600054450000604500006C450000784500006A
:107A700084450000904500009C450000A84500009A
:107A8000B4450000C0450000CC450000D8450000CA
:107A9000E4450000F0450000FC45000008460000F9
:107AA00014460000204600002C4600003846000026
:107AB00044460000504600005C4600006846000056
:107AC00074460000804600008C4600009846000086
:107AD000A4460000B0460000BC460000C8460000B6
:107AE000D4460000E0460000EC460000F8460000E6
:107AF00004470000104700001C4700002847000012
:107B000034470000404700004C4700005847000041
:107B100064470000704700007C4700008847000071
:107B200094470000A0470000AC470000B8470000A1
:107B3000C4470000D0470000DC470000E8470000D1
:107B4000F4470000004800000C48000018480000FE
:107B500024480000304800003C480000484800002D
:107B600054480000604800006C480000784800005D
:107B700084480000904800009C480000A84800008D
:107B8000B4480000C0480000CC480000D8480000BD
:107B9000E4480000F0480000FC48000008490000EC
:107BA00014490000204900002C4900003849000019
:107BB00044490000504900005C4900006849000049
:107BC00074490000804900008C4900009849000079
:107BD000A4490000B0490000BC490000C8490000A9
:107BE000D4490000E0490000EC490000F8490000D9
:107BF000044A0000104A00001C4A0000284A000005
:107C0000344A0000404A00004C4A0000584A000034
:107C1000644A0000704A00007C4A0000884A000064
:107C2000944A0000A04A0000AC4A0000B84A000094
:107C3000C44A0000D04A0000DC4A0000E84A0000C4
:107C4000F44A0000004B00000C4B0000184B0000F1
:107C5000244B0000304B00003C4B0000484B000020
:107C6000544B0000604B00006C4B0000784B000050
:107C7000844B0000904B00009C4B0000A84B000080
:107C8000B44B0000C04B0000CC4B0000D84B0000B0
:107C9000E44B0000F04B0000FC4B0000084C0000DF
:107CA000144C0000204C00002C4C0000384C00000C
:107CB000444C0000504C00005C4C0000684C00003C
:107CC000744C0000804C00008C4C0000984C00006C
:107CD000A44C0000B04C0000BC4C0000C84C00009C
:107CE000D44C0000E04C0000EC4C0000F84C0000CC
:107CF000044D0000104D00001C4D0000284D0000F8
:107D0000344D0000404D00004C4D0000584D000027
:107D1000644D0000704D00007C4D0000884D000057
:107D2000944D0000A04D0000AC4D0000B84D000087
:107D3000C44D0000D04D0000DC4D0000E84D0000B7
:107D4000F44D0000004E00000C4E0000184E0000E4
:107D5000244E0000304E00003C4E0000484E000013
:107D6000544E0000604E00006C4E0000784E000043
:107D7000844E0000904E00009C4E0000A84E000073
:107D8000B44E0000C04E0000CC4E0000D84E0000A3
:107D9000E44E0000F04E0000FC4E0000084F0000D2
:107DA000144F0000204F00002C4F0000384F0000FF
:107DB000444F0000504F00005C4F0000684F00002F
:107DC000744F0000804F00008C4F0000984F00005F
:107DD000A44F0000B04F0000BC4F0000C84F00008F
:107DE000D44F0000E04F0000EC4F0000F84F0000BF
:107DF00004500000105000001C50000028500000EB
:107E000034500000405000004C500000585000001A
:107E100064500000705000007C500000885000004A
:107E200094500000A0500000AC500000B85000007A
:107E3000C4500000D0500000DC500000E8500000AA
:107E4000F4500000005100000C51000018510000D7
:107E500024510000305100003C5100004851000006
:107E600054510000605100006C5100007851000036
:107E700084510000905100009C510000A851000066
:107E8000B4510000C0510000CC510000D851000096
:107E9000E4510000F0510000FC51000008520000C5
:107EA00014520000205200002C52000038520000F2
:107EB00044520000505200005C5200006852000022
:107EC00074520000805200008C5200009852000052
:107ED000A4520000B0520000BC520000C852000082
:107EE000D4520000E0520000EC520000F8520000B2
:107EF00004530000105300001C53000028530000DE
:107F000034530000405300004C530000585300000D
:107F100064530000705300007C530000885300003D
:107F200094530000A0530000AC530000B85300006D
:107F3000C4530000D0530000DC530000E85300009D
:107F4000F4530000005400000C54000018540000CA
:107F500024540000305400003C54000048540000F9
:107F600054540000605400006C5400007854000029
:107F700084540000905400009C540000A854000059
:107F8000B4540000C0540000CC540000D854000089
:107F9000E4540000F0540000FC54000008550000B8
:107FA00014550000205500002C55000038550000E5
:107FB00044550000505500005C5500006855000015
:107FC00074550000805500008C5500009855000045
:107FD000A4550000B0550000BC550000C855000075
:107FE000D4550000E0550000EC550000F8550000A5
:107FF00004560000105600001C56000028560000D1
:1080000034560000405600004C5600005856000000
:1080100064560000705600007C5600008856000030
:1080200094560000A0560000AC560000B856000060
:10803000C4560000D0560000DC560000E856000090
:10804000F4560000005700000C57000018570000BD
:1080500024570000305700003C57000048570000EC
:1080600054570000605700006C570000785700001C
:1080700084570000905700009C570000A85700004C
:10808000B4570000C0570000CC570000D85700007C
:10809000E4570000F0570000FC57000008580000AB
:1080A00014580000205800002C58000038580000D8
:1080B00044580000505800005C5800006858000008
:1080C00074580000805800008C5800009858000038
:1080D000A4580000B0580000BC580000C858000068
:1080E000D4580000E0580000EC580000F858000098
:1080F00004590000105900001C59000028590000C4
:1081000034590000405900004C59000058590000F3
:1081100064590000705900007C5900008859000023
:1081200094590000A0590000AC590000B859000053
:10813000C4590000D0590000DC590000E859000083
:10814000F4590000005A00000C5A0000185A0000B0
:10815000245A0000305A00003C5A0000485A0000DF
:10816000545A0000605A00006C5A0000785A00000F
:10817000845A0000905A00009C5A0000A85A00003F
:10818000B45A0000C05A0000CC5A0000D85A00006F
:10819000E45A0000F05A0000FC5A0000085B00009E
:1081A000145B0000205B00002C5B0000385B0000CB
:1081B000445B0000505B00005C5B0000685B0000FB
:1081C000745B0000805B00008C5B0000985B00002B
:1081D000A45B0000B05B0000BC5B0000C85B00005B
:1081E000D45B0000E05B0000EC5B0000F85B00008B
:1081F000045C0000105C00001C5C0000285C0000B7
:10820000345C0000405C00004C5C0000585C0000E6
:10821000645C0000705C00007C5C0000885C000016
:10822000945C0000A05C0000AC5C0000B85C000046
:10823000C45C0000D05C0000DC5C0000E85C000076
:10824000F45C0000005D00000C5D0000185D0000A3
:10825000245D0000305D00003C5D0000485D0000D2
:10826000545D0000605D00006C5D0000785D000002
:10827000845D0000905D00009C5D0000A85D000032
:10828000B45D0000C05D0000CC5D0000D85D000062
:10829000E45D0000F05D0000FC5D0000085E000091
:1082A000145E0000205E00002C5E0000385E0000BE
:1082B000445E0000505E00005C5E0000685E0000EE
:1082C000745E0000805E00008C5E0000985E00001E
:1082D000A45E0000B05E0000BC5E0000C85E00004E
:1082E000D45E0000E05E0000EC5E0000F85E00007E
:1082F000045F0000105F00001C5F0000285F0000AA
:10830000345F0000405F00004C5F0000585F0000D9
:10831000645F0000705F00007C5F0000885F000009
:10832000945F0000A05F0000AC5F0000B85F000039
:10833000C45F0000D05F0000DC5F0000E85F000069
:10834000F45F0000006000000C6000001860000096
:1083500024600000306000003C60000048600000C5
:1083600054600000606000006C60000078600000F5
:1083700084600000906000009C600000A860000025
:10838000B4600000C0600000CC600000D860000055
:10839000E4600000F0600000FC6000000861000084
:1083A00014610000206100002C61000038610000B1
:1083B00044610000506100005C61000068610000E1
:1083C00074610000806100008C6100009861000011
:1083D000A4610000B0610000BC610000C861000041
:1083E000D4610000E0610000EC610000F861000071
:1083F00004620000106200001C620000286200009D
:1084000034620000406200004C62000058620000CC
:1084100064620000706200007C62000088620000FC
:1084200094620000A0620000AC620000B86200002C
:10843000C4620000D0620000DC620000E86200005C
:10844000F4620000006300000C6300001863000089
:1084500024630000306300003C63000048630000B8
:1084600054630000606300006C63000078630000E8
:1084700084630000906300009C630000A863000018
:10848000B4630000C0630000CC630000D863000048
:10849000E4630000F0630000FC6300000864000077
:1084A00014640000206400002C64000038640000A4
:1084B00044640000506400005C64000068640000D4
:1084C00074640000806400008C6400009864000004
:1084D000A4640000B0640000BC640000C864000034
:1084E000D4640000E0640000EC640000F864000064
:1084F00004650000106500001C6500002865000090
:1085000034650000406500004C65000058650000BF
:1085100064650000706500007C65000088650000EF
:1085200094650000A0650000AC650000B86500001F
:10853000C4650000D0650000DC650000E86500004F
:10854000F4650000006600000C660000186600007C
:1085500024660000306600003C66000048660000AB
:1085600054660000606600006C66000078660000DB
:1085700084660000906600009C660000A86600000B
:10858000B4660000C0660000CC660000D86600003B
:10859000E4660000F0660000FC660000086700006A
:1085A00014670000206700002C6700003867000097
:1085B00044670000506700005C67000068670000C7
:1085C00074670000806700008C67000098670000F7
:1085D000A4670000B0670000BC670000C867000027
:1085E000D4670000E0670000EC670000F867000057
:1085F00004680000106800001C6800002868000083
:1086000034680000406800004C68000058680000B2
:1086100064680000706800007C68000088680000E2
:1086200094680000A0680000AC680000B868000012
:10863000C4680000D0680000DC680000E868000042
:10864000F4680000006900000C690000186900006F
:1086500024690000306900003C690000486900009E
:1086600054690000606900006C69000078690000CE
:1086700084690000906900009C690000A8690000FE
:10868000B4690000C0690000CC690000D86900002E
:10869000E4690000F0690000FC690000086A00005D
:1086A000146A0000206A00002C6A0000386A00008A
:1086B000446A0000506A00005C6A0000686A0000BA
:1086C000746A0000806A00008C6A0000986A0000EA
:1086D000A46A0000B06A0000BC6A0000C86A00001A
:1086E000D46A0000E06A0000EC6A0000F86A00004A
:1086F000046B0000106B00001C6B0000286B000076
:10870000346B0000406B00004C6B0000586B0000A5
:10871000646B0000706B00007C6B0000886B0000D5
:10872000946B0000A06B0000AC6B0000B86B000005
:10873000C46B0000D06B0000DC6B0000E86B000035
:10874000F46B0000006C00000C6C0000186C000062
:10875000246C0000306C00003C6C0000486C000091
:10876000546C0000606C00006C6C0000786C0000C1
:10877000846C0000906C00009C6C0000A86C0000F1
:10878000B46C0000C06C0000CC6C0000D86C000021
:10879000E46C0000F06C0000FC6C0000086D000050
:1087A000146D0000206D00002C6D0000386D00007D
:1087B000446D0000506D00005C6D0000686D0000AD
:1087C000746D0000806D00008C6D0000986D0000DD
:1087D000A46D0000B06D0000BC6D0000C86D00000D
:1087E000D46D0000E06D0000EC6D0000F86D00003D
:1087F000046E0000106E00001C6E0000286E000069
:10880000346E0000406E00004C6E0000586E000098
:10881000646E0000706E00007C6E0000886E0000C8
:10882000946E0000A06E0000AC6E0000B86E0000F8
:10883000C46E0000D06E0000DC6E0000E86E000028
:10884000F46E0000006F00000C6F0000186F000055
:10885000246F0000306F00003C6F0000486F000084
:10886000546F0000606F00006C6F0000786F0000B4
:10887000846F0000906F00009C6F0000A86F0000E4
:10888000B46F0000C06F0000CC6F0000D86F000014
:10889000E46F0000F06F0000FC6F00000870000043
:1088A00014700000207000002C7000003870000070
:1088B00044700000507000005C70000068700000A0
:1088C00074700000807000008C70000098700000D0
:1088D000A4700000B0700000BC700000C870000000
:1088E000D4700000E0700000EC700000F870000030
:1088F00004710000107100001C710000287100005C
:1089000034710000407100004C710000587100008B
:1089100064710000707100007C71000088710000BB
:1089200094710000A0710000AC710000B8710000EB
:10893000C4710000D0710000DC710000E87100001B
:10894000F4710000007200000C7200001872000048
:1089500024720000307200003C7200004872000077
:1089600054720000607200006C72000078720000A7
:1089700084720000907200009C720000A8720000D7
:10898000B4720000C0720000CC720000D872000007
:10899000E4720000F0720000FC7200000873000036
:1089A00014730000207300002C7300003873000063
:1089B00044730000507300005C7300006873000093
:1089C00074730000807300008C73000098730000C3
:1089D000A4730000B0730000BC730000C8730000F3
:1089E000D4730000E0730000EC730000F873000023
:1089F00004740000107400001C740000287400004F
:108A000034740000407400004C740000587400007E
:108A100064740000707400007C74000088740000AE
:108A200094740000A0740000AC740000B8740000DE
:108A3000C4740000D0740000DC740000E87400000E
:108A4000F4740000007500000C750000187500003B
:108A500024750000307500003C750000487500006A
:108A600054750000607500006C750000787500009A
:108A700084750000907500009C750000A8750000CA
:108A8000B4750000C0750000CC750000D8750000FA
:108A9000E4750000F0750000FC7500000876000029
:108AA00014760000207600002C7600003876000056
:108AB00044760000507600005C7600006876000086
:108AC00074760000807600008C76000098760000B6
:108AD000A4760000B0760000BC760000C8760000E6
:108AE000D4760000E0760000EC760000F876000016
:108AF00004770000107700001C7700002877000042
:108B000034770000407700004C7700005877000071
:108B100064770000707700007C77000088770000A1
:108B200094770000A0770000AC770000B8770000D1
:108B3000C4770000D0770000DC770000E877000001
:108B4000F4770000007800000C780000187800002E
:108B500024780000307800003C780000487800005D
:108B600054780000607800006C780000787800008D
:108B700084780000907800009C780000A8780000BD
:108B8000B4780000C0780000CC780000D8780000ED
:108B9000E4780000F0780000FC780000087900001C
:108BA00014790000207900002C7900003879000049
:108BB00044790000507900005C7900006879000079
:108BC00074790000807900008C79000098790000A9
:108BD000A4790000B0790000BC790000C8790000D9
:108BE000D4790000E0790000EC790000F879000009
:108BF000047A0000107A00001C7A0000287A000035
:108C0000347A0000407A00004C7A0000587A000064
:108C1000647A0000707A00007C7A0000887A000094
:108C2000947A0000A07A0000AC7A0000B87A0000C4
:108C3000C47A0000D07A0000DC7A0000E87A0000F4
:108C4000F47A0000007B00000C7B0000187B000021
:108C5000247B0000307B00003C7B0000487B000050
:108C6000547B0000607B00006C7B0000787B000080
:108C7000847B0000907B00009C7B0000A87B0000B0
:108C8000B47B0000C07B0000CC7B0000D87B0000E0
:108C9000E47B0000F07B0000FC7B0000087C00000F
:108CA000147C0000207C00002C7C0000387C00003C
:108CB000447C0000507C00005C7C0000687C00006C
:108CC000747C0000807C00008C7C0000987C00009C
:108CD000A47C0000B07C0000BC7C0000C87C0000CC
:108CE000D47C0000E07C0000EC7C0000F87C0000FC
:108CF000047D0000107D00001C7D0000287D000028
:108D0000347D0000407D00004C7D0000587D000057
:108D1000647D0000707D00007C7D0000887D000087
:108D2000947D0000A07D0000AC7D0000B87D0000B7
:108D3000C47D0000D07D0000DC7D0000E87D0000E7
:108D4000F47D0000007E00000C7E0000187E000014
:108D5000247E0000307E00003C7E0000487E000043
:108D6000547E0000607E00006C7E0000787E000073
:108D7000847E0000907E00009C7E0000A87E0000A3
:108D8000B47E0000C07E0000CC7E0000D87E0000D3
:108D9000E47E0000F07E0000FC7E0000087F000002
:108DA000147F0000207F00002C7F0000387F00002F
:108DB000447F0000507F00005C7F0000687F00005F
:108DC000747F0000807F00008C7F0000987F00008F
:108DD000A47F0000B07F0000BC7F0000C87F0000BF
:108DE000D47F0000E07F0000EC7F0000F87F0000EF
:108DF00004800000108000001C800000288000001B
:108E000034800000408000004C800000588000004A
:108E100064800000708000007C800000888000007A
:108E200094800000A0800000AC800000B8800000AA
:108E3000C4800000D0800000DC800000E8800000DA
:108E4000F4800000008100000C8100001881000007
:108E500024810000308100003C8100004881000036
:108E600054810000608100006C8100007881000066
:108E700084810000908100009C810000A881000096
:108E8000B4810000C0810000CC810000D8810000C6
:108E9000E4810000F0810000FC81000008820000F5
:108EA00014820000208200002C8200003882000022
:108EB00044820000508200005C8200006882000052
:108EC00074820000808200008C8200009882000082
:108ED000A4820000B0820000BC820000C8820000B2
:108EE000D4820000E0820000EC820000F8820000E2
:108EF00004830000108300001C830000288300000E
:108F000034830000408300004C830000588300003D
:108F100064830000708300007C830000888300006D
:108F200094830000A0830000AC830000B88300009D
:108F3000C4830000D0830000DC830000E8830000CD
:108F4000F4830000008400000C84000018840000FA
:108F500024840000308400003C8400004884000029
:108F600054840000608400006C8400007884000059
:108F700084840000908400009C840000A884000089
:108F8000B4840000C0840000CC840000D8840000B9
:108F9000E4840000F0840000FC84000008850000E8
:108FA00014850000208500002C8500003885000015
:108FB00044850000508500005C8500006885000045
:108FC00074850000808500008C8500009885000075
:108FD000A4850000B0850000BC850000C8850000A5
:108FE000D4850000E0850000EC850000F8850000D5
:108FF00004860000108600001C8600002886000001
:1090000034860000408600004C8600005886000030
:1090100064860000708600007C8600008886000060
:1090200094860000A0860000AC860000B886000090
:10903000C4860000D0860000DC860000E8860000C0
:10904000F4860000008700000C87000018870000ED
:1090500024870000308700003C870000488700001C
:1090600054870000608700006C870000788700004C
:1090700084870000908700009C870000A88700007C
:10908000B4870000C0870000CC870000D8870000AC
:10909000E4870000F0870000FC87000008880000DB
:1090A00014880000208800002C8800003888000008
:1090B00044880000508800005C8800006888000038
:1090C00074880000808800008C8800009888000068
:1090D000A4880000B0880000BC880000C888000098
:1090E000D4880000E0880000EC880000F8880000C8
:1090F00004890000108900001C89000028890000F4
:1091000034890000408900004C8900005889000023
:1091100064890000708900007C8900008889000053
:1091200094890000A0890000AC890000B889000083
:10913000C4890000D0890000DC890000E8890000B3
:10914000F4890000008A00000C8A0000188A0000E0
:10915000248A0000308A00003C8A0000488A00000F
:10916000548A0000608A00006C8A0000788A00003F
:10917000848A0000908A00009C8A0000A88A00006F
:10918000B48A0000C08A0000CC8A0000D88A00009F
:10919000E48A0000F08A0000FC8A0000088B0000CE
:1091A000148B0000208B00002C8B0000388B0000FB
:1091B000448B0000508B00005C8B0000688B00002B
:1091C000748B0000808B00008C8B0000988B00005B
:1091D000A48B0000B08B0000BC8B0000C88B00008B
:1091E000D48B0000E08B0000EC8B0000F88B0000BB
:1091F000048C0000108C00001C8C0000288C0000E7
:10920000348C0000408C00004C8C0000588C000016
:10921000648C0000708C00007C8C0000888C000046
:10922000948C0000A08C0000AC8C0000B88C000076
:10923000C48C0000D08C0000DC8C0000E88C0000A6
:10924000F48C0000008D00000C8D0000188D0000D3
:10925000248D0000308D00003C8D0000488D000002
:10926000548D0000608D00006C8D0000788D000032
:10927000848D0000908D00009C8D0000A88D000062
:10928000B48D0000C08D0000CC8D0000D88D000092
:10929000E48D0000F08D0000FC8D0000088E0000C1
:1092A000148E0000208E00002C8E0000388E0000EE
:1092B000448E0000508E00005C8E0000688E00001E
:1092C000748E0000808E00008C8E0000988E00004E
:1092D000A48E0000B08E0000BC8E0000C88E00007E
:1092E000D48E0000E08E0000EC8E0000F88E0000AE
:1092F000048F0000108F00001C8F0000288F0000DA
:10930000348F0000408F00004C8F0000588F000009
:10931000648F0000708F00007C8F0000888F000039
:10932000948F0000A08F0000AC8F0000B88F000069
:10933000C48F0000D08F0000DC8F0000E88F000099
:10934000F48F0000009000000C90000018900000C6
:1093500024900000309000003C90000048900000F5
:1093600054900000609000006C9000007890000025
:1093700084900000909000009C900000A890000055
:10938000B4900000C0900000CC900000D890000085
:10939000E4900000F0900000FC90000008910000B4
:1093A00014910000209100002C91000038910000E1
:1093B00044910000509100005C9100006891000011
:1093C00074910000809100008C9100009891000041
:1093D000A4910000B0910000BC910000C891000071
:1093E000D4910000E0910000EC910000F8910000A1
:1093F00004920000109200001C92000028920000CD
:1094000034920000409200004C92000058920000FC
:1094100064920000709200007C920000889200002C
:1094200094920000A0920000AC920000B89200005C
:10943000C4920000D0920000DC920000E89200008C
:10944000F4920000009300000C93000018930000B9
:1094500024930000309300003C93000048930000E8
:1094600054930000609300006C9300007893000018
:1094700084930000909300009C930000A893000048
:10948000B4930000C0930000CC930000D893000078
:10949000E4930000F0930000FC93000008940000A7
:1094A00014940000209400002C94000038940000D4
:1094B00044940000509400005C9400006894000004
:1094C00074940000809400008C9400009894000034
:1094D000A4940000B0940000BC940000C894000064
:1094E000D4940000E0940000EC940000F894000094
:1094F00004950000109500001C95000028950000C0
:1095000034950000409500004C95000058950000EF
:1095100064950000709500007C950000889500001F
:1095200094950000A0950000AC950000B89500004F
:10953000C4950000D0950000DC950000E89500007F
:10954000F4950000009600000C96000018960000AC
:1095500024960000309600003C96000048960000DB
:1095600054960000609600006C960000789600000B
:1095700084960000909600009C960000A89600003B
:10958000B4960000C0960000CC960000D89600006B
:10959000E4960000F0960000FC960000089700009A
:1095A00014970000209700002C97000038970000C7
:1095B00044970000509700005C97000068970000F7
:1095C00074970000809700008C9700009897000027
:1095D000A4970000B0970000BC970000C897000057
:1095E000D4970000E0970000EC970000F897000087
:1095F00004980000109800001C98000028980000B3
:1096000034980000409800004C98000058980000E2
:1096100064980000709800007C9800008898000012
:1096200094980000A0980000AC980000B898000042
:10963000C4980000D0980000DC980000E898000072
:10964000F4980000009900000C990000189900009F
:1096500024990000309900003C99000048990000CE
:1096600054990000609900006C99000078990000FE
:1096700084990000909900009C990000A89900002E
:10968000B4990000C0990000CC990000D89900005E
:10969000E4990000F0990000FC990000089A00008D
:1096A000149A0000209A00002C9A0000389A0000BA
:1096B000449A0000509A00005C9A0000689A0000EA
:1096C000749A0000809A00008C9A0000989A00001A
:1096D000A49A0000B09A0000BC9A0000C89A00004A
:1096E000D49A0000E09A0000EC9A0000F89A00007A
:1096F000049B0000109B00001C9B0000289B0000A6
:10970000349B0000409B00004C9B0000589B0000D5
:10971000649B0000709B00007C9B0000889B000005
:10972000949B0000A09B0000AC9B0000B89B000035
:10973000C49B0000D09B0000DC9B0000E89B000065
:10974000F49B0000009C00000C9C0000189C000092
:10975000249C0000309C00003C9C0000489C0000C1
:10976000549C0000609C00006C9C0000789C0000F1
:10977000849C0000909C00009C9C0000A89C000021
:10978000B49C0000C09C0000CC9C0000D89C000051
:10979000E49C0000F09C0000FC9C0000089D000080
:1097A000149D0000209D00002C9D0000389D0000AD
:1097B000449D0000509D00005C9D0000689D0000DD
:1097C000749D0000809D00008C9D0000989D00000D
:1097D000A49D0000B09D0000BC9D0000C89D00003D
:1097E000D49D0000E09D0000EC9D0000F89D00006D
:1097F000049E0000109E00001C9E0000289E000099
:10980000349E0000409E00004C9E0000589E0000C8
:10981000649E0000709E00007C9E0000889E0000F8
:10982000949E0000A09E0000AC9E0000B89E000028
:10983000C49E0000D09E0000DC9E0000E89E000058
:10984000F49E0000009F00000C9F0000189F000085
:10985000249F0000309F00003C9F0000489F0000B4
:10986000549F0000609F00006C9F0000789F0000E4
:10987000849F0000909F00009C9F0000A89F000014
:10988000B49F0000C09F0000CC9F0000D89F000044
:10989000E49F0000F09F0000FC9F000008A0000073
:1098A00014A0000020A000002CA0000038A00000A0
:1098B00044A0000050A000005CA0000068A00000D0
:1098C00074A0000080A000008CA0000098A0000000
:1098D000A4A00000B0A00000BCA00000C8A0000030
:1098E000D4A00000E0A00000ECA00000F8A0000060
:1098F00004A1000010A100001CA1000028A100008C
:1099000034A1000040A100004CA1000058A10000BB
:1099100064A1000070A100007CA1000088A10000EB
:1099200094A10000A0A10000ACA10000B8A100001B
:10993000C4A10000D0A10000DCA10000E8A100004B
:10994000F4A1000000A200000CA2000018A2000078
:1099500024A2000030A200003CA2000048A20000A7
:1099600054A2000060A200006CA2000078A20000D7
:1099700084A2000090A200009CA20000A8A2000007
:10998000B4A20000C0A20000CCA20000D8A2000037
:10999000E4A20000F0A20000FCA2000008A3000066
:1099A00014A3000020A300002CA3000038A3000093
:1099B00044A3000050A300005CA3000068A30000C3
:1099C00074A3000080A300008CA3000098A30000F3
:1099D000A4A30000B0A30000BCA30000C8A3000023
:1099E000D4A30000E0A30000ECA30000F8A3000053
:1099F00004A4000010A400001CA4000028A400007F
:109A000034A4000040A400004CA4000058A40000AE
:109A100064A4000070A400007CA4000088A40000DE
:109A200094A40000A0A40000ACA40000B8A400000E
:109A3000C4A40000D0A40000DCA40000E8A400003E
:109A4000F4A4000000A500000CA5000018A500006B
:109A500024A5000030A500003CA5000048A500009A
:109A600054A5000060A500006CA5000078A50000CA
:109A700084A5000090A500009CA50000A8A50000FA
:109A8000B4A50000C0A50000CCA50000D8A500002A
:109A9000E4A50000F0A50000FCA5000008A6000059
:109AA00014A6000020A600002CA6000038A6000086
:109AB00044A6000050A600005CA6000068A60000B6
:109AC00074A6000080A600008CA6000098A60000E6
:109AD000A4A60000B0A60000BCA60000C8A6000016
:109AE000D4A60000E0A60000ECA60000F8A6000046
:109AF00004A7000010A700001CA7000028A7000072
:109B000034A7000040A700004CA7000058A70000A1
:109B100064A7000070A700007CA7000088A70000D1
:109B200094A70000A0A70000ACA70000B8A7000001
:109B3000C4A70000D0A70000DCA70000E8A7000031
:109B4000F4A7000000A800000CA8000018A800005E
:109B500024A8000030A800003CA8000048A800008D
:109B600054A8000060A800006CA8000078A80000BD
:109B700084A8000090A800009CA80000A8A80000ED
:109B8000B4A80000C0A80000CCA80000D8A800001D
:109B9000E4A80000F0A80000FCA8000008A900004C
:109BA00014A9000020A900002CA9000038A9000079
:109BB00044A9000050A900005CA9000068A90000A9
:109BC00074A9000080A900008CA9000098A90000D9
:109BD000A4A90000B0A90000BCA90000C8A9000009
:109BE000D4A90000E0A90000ECA90000F8A9000039
:109BF00004AA000010AA00001CAA000028AA000065
:109C000034AA000040AA00004CAA000058AA000094
:109C100064AA000070AA00007CAA000088AA0000C4
:109C200094AA0000A0AA0000ACAA0000B8AA0000F4
:109C3000C4AA0000D0AA0000DCAA0000E8AA000024
:109C4000F4AA000000AB00000CAB000018AB000051
:109C500024AB000030AB00003CAB000048AB000080
:109C600054AB000060AB00006CAB000078AB0000B0
:109C700084AB000090AB00009CAB0000A8AB0000E0
:109C8000B4AB0000C0AB0000CCAB0000D8AB000010
:109C9000E4AB0000F0AB0000FCAB000008AC00003F
:109CA00014AC000020AC00002CAC000038AC00006C
:109CB00044AC000050AC00005CAC000068AC00009C
:109CC00074AC000080AC00008CAC000098AC0000CC
:109CD000A4AC0000B0AC0000BCAC0000C8AC0000FC
:109CE000D4AC0000E0AC0000ECAC0000F8AC00002C
:109CF00004AD000010AD00001CAD000028AD000058
:109D000034AD000040AD00004CAD000058AD000087
:109D100064AD000070AD00007CAD000088AD0000B7
:109D200094AD0000A0AD0000ACAD0000B8AD0000E7
:109D3000C4AD0000D0AD0000DCAD0000E8AD000017
:109D4000F4AD000000AE00000CAE000018AE000044
:109D500024AE000030AE00003CAE000048AE000073
:109D600054AE000060AE00006CAE000078AE0000A3
:109D700084AE000090AE00009CAE0000A8AE0000D3
:109D8000B4AE0000C0AE0000CCAE0000D8AE000003
:109D9000E4AE0000F0AE0000FCAE000008AF000032
:109DA00014AF000020AF00002CAF000038AF00005F
:109DB00044AF000050AF00005CAF000068AF00008F
:109DC00074AF000080AF00008CAF000098AF0000BF
:109DD000A4AF0000B0AF0000BCAF0000C8AF0000EF
:109DE000D4AF0000E0AF0000ECAF0000F8AF00001F
:109DF00004B0000010B000001CB0000028B000004B
:109E000034B0000040B000004CB0000058B000007A
:109E100064B0000070B000007CB0000088B00000AA
:109E200094B00000A0B00000ACB00000B8B00000DA
:109E3000C4B00000D0B00000DCB00000E8B000000A
:109E4000F4B0000000B100000CB1000018B1000037
:109E500024B1000030B100003CB1000048B1000066
:109E600054B1000060B100006CB1000078B1000096
:109E700084B1000090B100009CB10000A8B10000C6
:109E8000B4B10000C0B10000CCB10000D8B10000F6
:109E9000E4B10000F0B10000FCB1000008B2000025
:109EA00014B2000020B200002CB2000038B2000052
:109EB00044B2000050B200005CB2000068B2000082
:109EC00074B2000080B200008CB2000098B20000B2
:109ED000A4B20000B0B20000BCB20000C8B20000E2
:109EE000D4B20000E0B20000ECB20000F8B2000012
:109EF00004B3000010B300001CB3000028B300003E
:109F000034B3000040B300004CB3000058B300006D
:109F100064B3000070B300007CB3000088B300009D
:109F200094B30000A0B30000ACB30000B8B30000CD
:109F3000C4B30000D0B30000DCB30000E8B30000FD
:109F4000F4B3000000B400000CB4000018B400002A
:109F500024B4000030B400003CB4000048B4000059
:109F600054B4000060B400006CB4000078B4000089
:109F700084B4000090B400009CB40000A8B40000B9
:109F8000B4B40000C0B40000CCB40000D8B40000E9
:109F9000E4B40000F0B40000FCB4000008B5000018
:109FA00014B5000020B500002CB5000038B5000045
:109FB00044B5000050B500005CB5000068B5000075
:109FC00074B5000080B500008CB5000098B50000A5
:109FD000A4B50000B0B50000BCB50000C8B50000D5
:109FE000D4B50000E0B50000ECB50000F8B5000005
:109FF00004B6000010B600001CB6000028B6000031
:10A0000034B6000040B600004CB6000058B6000060
:10A0100064B6000070B600007CB6000088B6000090
:10A0200094B60000A0B60000ACB60000B8B60000C0
:10A03000C4B60000D0B60000DCB60000E8B60000F0
:10A04000F4B6000000B700000CB7000018B700001D
:10A0500024B7000030B700003CB7000048B700004C
:10A0600054B7000060B700006CB7000078B700007C
:10A0700084B7000090B700009CB70000A8B70000AC
:10A08000B4B70000C0B70000CCB70000D8B70000DC
:10A09000E4B70000F0B70000FCB7000008B800000B
:10A0A00014B8000020B800002CB8000038B8000038
:10A0B00044B8000050B800005CB8000068B8000068
:10A0C00074B8000080B800008CB8000098B8000098
:10A0D000A4B80000B0B80000BCB80000C8B80000C8
:10A0E000D4B80000E0B80000ECB80000F8B80000F8
:10A0F00004B9000010B900001CB9000028B9000024
:10A1000034B9000040B900004CB9000058B9000053
:10A1100064B9000070B900007CB9000088B9000083
:10A1200094B90000A0B90000ACB90000B8B90000B3
:10A13000C4B90000D0B90000DCB90000E8B90000E3
:10A14000F4B9000000BA00000CBA000018BA000010
:10A1500024BA000030BA00003CBA000048BA00003F
:10A1600054BA000060BA00006CBA000078BA00006F
:10A1700084BA000090BA00009CBA0000A8BA00009F
:10A18000B4BA0000C0BA0000CCBA0000D8BA0000CF
:10A19000E4BA0000F0BA0000FCBA000008BB0000FE
:10A1A00014BB000020BB00002CBB000038BB00002B
:10A1B00044BB000050BB00005CBB000068BB00005B
:10A1C00074BB000080BB00008CBB000098BB00008B
:10A1D000A4BB0000B0BB0000BCBB0000C8BB0000BB
:10A1E000D4BB0000E0BB0000ECBB0000F8BB0000EB
:10A1F00004BC000010BC00001CBC000028BC000017
:10A2000034BC000040BC00004CBC000058BC000046
:10A2100064BC000070BC00007CBC000088BC000076
:10A2200094BC0000A0BC0000ACBC0000B8BC0000A6
:10A23000C4BC0000D0BC0000DCBC0000E8BC0000D6
:10A24000F4BC000000BD00000CBD000018BD000003
:10A2500024BD000030BD00003CBD000048BD000032
:10A2600054BD000060BD00006CBD000078BD000062
:10A2700084BD000090BD00009CBD0000A8BD000092
:10A28000B4BD0000C0BD0000CCBD0000D8BD0000C2
:10A29000E4BD0000F0BD0000FCBD000008BE0000F1
:10A2A00014BE000020BE00002CBE000038BE00001E
:10A2B00044BE000050BE00005CBE000068BE00004E
:10A2C00074BE000080BE00008CBE000098BE00007E
:10A2D000A4BE0000B0BE0000BCBE0000C8BE0000AE
:10A2E000D4BE0000E0BE0000ECBE0000F8BE0000DE
:10A2F00004BF000010BF00001CBF000028BF00000A
:10A3000034BF000040BF00004CBF000058BF000039
:10A3100064BF000070BF00007CBF000088BF000069
:10A3200094BF0000A0BF0000ACBF0000B8BF000099
:10A33000C4BF0000D0BF0000DCBF0000E8BF0000C9
:10A34000F4BF000000C000000CC0000018C00000F6
:10A3500024C0000030C000003CC0000048C0000025
:10A3600054C0000060C000006CC0000078C0000055
:10A3700084C0000090C000009CC00000A8C0000085
:10A38000B4C00000C0C00000CCC00000D8C00000B5
:10A39000E4C00000F0C00000FCC0000008C10000E4
:10A3A00014C1000020C100002CC1000038C1000011
:10A3B00044C1000050C100005CC1000068C1000041
:10A3C00074C1000080C100008CC1000098C1000071
:10A3D000A4C10000B0C10000BCC10000C8C10000A1
:10A3E000D4C10000E0C10000ECC10000F8C10000D1
:10A3F00004C2000010C200001CC2000028C20000FD
:10A4000034C2000040C200004CC2000058C200002C
:10A4100064C2000070C200007CC2000088C200005C
:10A4200094C20000A0C20000ACC20000B8C200008C
:10A43000C4C20000D0C20000DCC20000E8C20000BC
:10A44000F4C2000000C300000CC3000018C30000E9
:10A4500024C3000030C300003CC3000048C3000018
:10A4600054C3000060C300006CC3000078C3000048
:10A4700084C3000090C300009CC30000A8C3000078
:10A48000B4C30000C0C30000CCC30000D8C30000A8
:10A49000E4C30000F0C30000FCC3000008C40000D7
:10A4A00014C4000020C400002CC4000038C4000004
:10A4B00044C4000050C400005CC4000068C4000034
:10A4C00074C4000080C400008CC4000098C4000064
:10A4D000A4C40000B0C40000BCC40000C8C4000094
:10A4E000D4C40000E0C40000ECC40000F8C40000C4
:10A4F00004C5000010C500001CC5000028C50000F0
:10A5000034C5000040C500004CC5000058C500001F
:10A5100064C5000070C500007CC5000088C500004F
:10A5200094C50000A0C50000ACC50000B8C500007F
:10A53000C4C50000D0C50000DCC50000E8C50000AF
:10A54000F4C5000000C600000CC6000018C60000DC
:10A5500024C6000030C600003CC6000048C600000B
:10A5600054C6000060C600006CC6000078C600003B
:10A5700084C6000090C600009CC60000A8C600006B
:10A58000B4C60000C0C60000CCC60000D8C600009B
:10A59000E4C60000F0C60000FCC6000008C70000CA
:10A5A00014C7000020C700002CC7000038C70000F7
:10A5B00044C7000050C700005CC7000068C7000027
:10A5C00074C7000080C700008CC7000098C7000057
:10A5D000A4C70000B0C70000BCC70000C8C7000087
:10A5E000D4C70000E0C70000ECC70000F8C70000B7
:10A5F00004C8000010C800001CC8000028C80000E3
:10A6000034C8000040C800004CC8000058C8000012
:10A6100064C8000070C800007CC8000088C8000042
:10A6200094C80000A0C80000ACC80000B8C8000072
:10A63000C4C80000D0C80000DCC80000E8C80000A2
:10A64000F4C8000000C900000CC9000018C90000CF
:10A6500024C9000030C900003CC9000048C90000FE
:10A6600054C9000060C900006CC9000078C900002E
:10A6700084C9000090C900009CC90000A8C900005E
:10A68000B4C90000C0C90000CCC90000D8C900008E
:10A69000E4C90000F0C90000FCC9000008CA0000BD
:10A6A00014CA000020CA00002CCA000038CA0000EA
:10A6B00044CA000050CA00005CCA000068CA00001A
:10A6C00074CA000080CA00008CCA000098CA00004A
:10A6D000A4CA0000B0CA0000BCCA0000C8CA00007A
:10A6E000D4CA0000E0CA0000ECCA0000F8CA0000AA
:10A6F00004CB000010CB00001CCB000028CB0000D6
:10A7000034CB000040CB00004CCB000058CB000005
:10A7100064CB000070CB00007CCB000088CB000035
:10A7200094CB0000A0CB0000ACCB0000B8CB000065
:10A73000C4CB0000D0CB0000DCCB0000E8CB000095
:10A74000F4CB000000CC00000CCC000018CC0000C2
:10A7500024CC000030CC00003CCC000048CC0000F1
:10A7600054CC000060CC00006CCC000078CC000021
:10A7700084CC000090CC00009CCC0000A8CC000051
:10A78000B4CC0000C0CC0000CCCC0000D8CC000081
:10A79000E4CC0000F0CC0000FCCC000008CD0000B0
:10A7A00014CD000020CD00002CCD000038CD0000DD
:10A7B00044CD000050CD00005CCD000068CD00000D
:10A7C00074CD000080CD00008CCD000098CD00003D
:10A7D000A4CD0000B0CD0000BCCD0000C8CD00006D
:10A7E000D4CD0000E0CD0000ECCD0000F8CD00009D
:10A7F00004CE000010CE00001CCE000028CE0000C9
:10A8000034CE000040CE00004CCE000058CE0000F8
:10A8100064CE000070CE00007CCE000088CE000028
:10A8200094CE0000A0CE0000ACCE0000B8CE000058
:10A83000C4CE0000D0CE0000DCCE0000E8CE000088
:10A84000F4CE000000CF00000CCF000018CF0000B5
:10A8500024CF000030CF00003CCF000048CF0000E4
:10A8600054CF000060CF00006CCF000078CF000014
:10A8700084CF000090CF00009CCF0000A8CF000044
:10A88000B4CF0000C0CF0000CCCF0000D8CF000074
:10A89000E4CF0000F0CF0000FCCF000008D00000A3
:10A8A00014D0000020D000002CD0000038D00000D0
:10A8B00044D0000050D000005CD0000068D0000000
:10A8C00074D0000080D000008CD0000098D0000030
:10A8D000A4D00000B0D00000BCD00000C8D0000060
:10A8E000D4D00000E0D00000ECD00000F8D0000090
:10A8F00004D1000010D100001CD1000028D10000BC
:10A9000034D1000040D100004CD1000058D10000EB
:10A9100064D1000070D100007CD1000088D100001B
:10A9200094D10000A0D10000ACD10000B8D100004B
:10A93000C4D10000D0D10000DCD10000E8D100007B
:10A94000F4D1000000D200000CD2000018D20000A8
:10A9500024D2000030D200003CD2000048D20000D7
:10A9600054D2000060D200006CD2000078D2000007
:10A9700084D2000090D200009CD20000A8D2000037
:10A98000B4D20000C0D20000CCD20000D8D2000067
:10A99000E4D20000F0D20000FCD2000008D3000096
:10A9A00014D3000020D300002CD3000038D30000C3
:10A9B00044D3000050D300005CD3000068D30000F3
:10A9C00074D3000080D300008CD3000098D3000023
:10A9D000A4D30000B0D30000BCD30000C8D3000053
:10A9E000D4D30000E0D30000ECD30000F8D3000083
:10A9F00004D4000010D400001CD4000028D40000AF
:10AA000034D4000040D400004CD4000058D40000DE
:10AA100064D4000070D400007CD4000088D400000E
:10AA200094D40000A0D40000ACD40000B8D400003E
:10AA3000C4D40000D0D40000DCD40000E8D400006E
:10AA4000F4D4000000D500000CD5000018D500009B
:10AA500024D5000030D500003CD5000048D50000CA
:10AA600054D5000060D500006CD5000078D50000FA
:10AA700084D5000090D500009CD50000A8D500002A
:10AA8000B4D50000C0D50000CCD50000D8D500005A
:10AA9000E4D50000F0D50000FCD5000008D6000089
:10AAA00014D6000020D600002CD6000038D60000B6
:10AAB00044D6000050D600005CD6000068D60000E6
:10AAC00074D6000080D600008CD6000098D6000016
:10AAD000A4D60000B0D60000BCD60000C8D6000046
:10AAE000D4D60000E0D60000ECD60000F8D6000076
:10AAF00004D7000010D700001CD7000028D70000A2
:10AB000034D7000040D700004CD7000058D70000D1
:10AB100064D7000070D700007CD7000088D7000001
:10AB200094D70000A0D70000ACD70000B8D7000031
:10AB3000C4D70000D0D70000DCD70000E8D7000061
:10AB4000F4D7000000D800000CD8000018D800008E
:10AB500024D8000030D800003CD8000048D80000BD
:10AB600054D8000060D800006CD8000078D80000ED
:10AB700084D8000090D800009CD80000A8D800001D
:10AB8000B4D80000C0D80000CCD80000D8D800004D
:10AB9000E4D80000F0D80000FCD8000008D900007C
:10ABA00014D9000020D900002CD9000038D90000A9
:10ABB00044D9000050D900005CD9000068D90000D9
:10ABC00074D9000080D900008CD9000098D9000009
:10ABD000A4D90000B0D90000BCD90000C8D9000039
:10ABE000D4D90000E0D90000ECD90000F8D9000069
:10ABF00004DA000010DA00001CDA000028DA000095
:10AC000034DA000040DA00004CDA000058DA0000C4
:10AC100064DA000070DA00007CDA000088DA0000F4
:10AC200094DA0000A0DA0000ACDA0000B8DA000024
:10AC3000C4DA0000D0DA0000DCDA0000E8DA000054
:10AC4000F4DA000000DB00000CDB000018DB000081
:10AC500024DB000030DB00003CDB000048DB0000B0
:10AC600054DB000060DB00006CDB000078DB0000E0
:10AC700084DB000090DB00009CDB0000A8DB000010
:10AC8000B4DB0000C0DB0000CCDB0000D8DB000040
:10AC9000E4DB0000F0DB0000FCDB000008DC00006F
:10ACA00014DC000020DC00002CDC000038DC00009C
:10ACB00044DC000050DC00005CDC000068DC0000CC
:10ACC00074DC000080DC00008CDC000098DC0000FC
:10ACD000A4DC0000B0DC0000BCDC0000C8DC00002C
:10ACE000D4DC0000E0DC0000ECDC0000F8DC00005C
:10ACF00004DD000010DD00001CDD000028DD000088
:10AD000034DD000040DD00004CDD000058DD0000B7
:10AD100064DD000070DD00007CDD000088DD0000E7
:10AD200094DD0000A0DD0000ACDD0000B8DD000017
:10AD3000C4DD0000D0DD0000DCDD0000E8DD000047
:10AD4000F4DD000000DE00000CDE000018DE000074
:10AD500024DE000030DE00003CDE000048DE0000A3
:10AD600054DE000060DE00006CDE000078DE0000D3
:10AD700084DE000090DE00009CDE0000A8DE000003
:10AD8000B4DE0000C0DE0000CCDE0000D8DE000033
:10AD9000E4DE0000F0DE0000FCDE000008DF000062
:10ADA00014DF000020DF00002CDF000038DF00008F
:10ADB00044DF000050DF00005CDF000068DF0000BF
:10ADC00074DF000080DF00008CDF000098DF0000EF
:10ADD000A4DF0000B0DF0000BCDF0000C8DF00001F
:10ADE000D4DF0000E0DF0000ECDF0000F8DF00004F
:10ADF00004E0000010E000001CE0000028E000007B
:10AE000034E0000040E000004CE0000058E00000AA
:10AE100064E0000070E000007CE0000088E00000DA
:10AE200094E00000A0E00000ACE00000B8E000000A
:10AE3000C4E00000D0E00000DCE00000E8E000003A
:10AE4000F4E0000000E100000CE1000018E1000067
:10AE500024E1000030E100003CE1000048E1000096
:10AE600054E1000060E100006CE1000078E10000C6
:10AE700084E1000090E100009CE10000A8E10000F6
:10AE8000B4E10000C0E10000CCE10000D8E1000026
:10AE9000E4E10000F0E10000FCE1000008E2000055
:10AEA00014E2000020E200002CE2000038E2000082
:10AEB00044E2000050E200005CE2000068E20000B2
:10AEC00074E2000080E200008CE2000098E20000E2
:10AED000A4E20000B0E20000BCE20000C8E2000012
:10AEE000D4E20000E0E20000ECE20000F8E2000042
:10AEF00004E3000010E300001CE3000028E300006E
:10AF000034E3000040E300004CE3000058E300009D
:10AF100064E3000070E300007CE3000088E30000CD
:10AF200094E30000A0E30000ACE30000B8E30000FD
:10AF3000C4E30000D0E30000DCE30000E8E300002D
:10AF4000F4E3000000E400000CE4000018E400005A
:10AF500024E4000030E400003CE4000048E4000089
:10AF600054E4000060E400006CE4000078E40000B9
:10AF700084E4000090E400009CE40000A8E40000E9
:10AF8000B4E40000C0E40000CCE40000D8E4000019
:10AF9000E4E40000F0E40000FCE4000008E5000048
:10AFA00014E5000020E500002CE5000038E5000075
:10AFB00044E5000050E500005CE5000068E50000A5
:10AFC00074E5000080E500008CE5000098E50000D5
:10AFD000A4E50000B0E50000BCE50000C8E5000005
:10AFE000D4E50000E0E50000ECE50000F8E5000035
:10AFF00004E6000010E600001CE6000028E6000061
:10B0000034E6000040E600004CE6000058E6000090
:10B0100064E6000070E600007CE6000088E60000C0
:10B0200094E60000A0E60000ACE60000B8E60000F0
:10B03000C4E60000D0E60000DCE60000E8E6000020
:10B04000F4E6000000E700000CE7000018E700004D
:10B0500024E7000030E700003CE7000048E700007C
:10B0600054E7000060E700006CE7000078E70000AC
:10B0700084E7000090E700009CE70000A8E70000DC
:10B08000B4E70000C0E70000CCE70000D8E700000C
:10B09000E4E70000F0E70000FCE7000008E800003B
:10B0A00014E8000020E800002CE8000038E8000068
:10B0B00044E8000050E800005CE8000068E8000098
:10B0C00074E8000080E800008CE8000098E80000C8
:10B0D000A4E80000B0E80000BCE80000C8E80000F8
:10B0E000D4E80000E0E80000ECE80000F8E8000028
:10B0F00004E9000010E900001CE9000028E9000054
:10B1000034E9000040E900004CE9000058E9000083
:10B1100064E9000070E900007CE9000088E90000B3
:10B1200094E90000A0E90000ACE90000B8E90000E3
:10B13000C4E90000D0E90000DCE90000E8E9000013
:10B14000F4E9000000EA00000CEA000018EA000040
:10B1500024EA000030EA00003CEA000048EA00006F
:10B1600054EA000060EA00006CEA000078EA00009F
:10B1700084EA000090EA00009CEA0000A8EA0000CF
:10B18000B4EA0000C0EA0000CCEA0000D8EA0000FF
:10B19000E4EA0000F0EA0000FCEA000008EB00002E
:10B1A00014EB000020EB00002CEB000038EB00005B
:10B1B00044EB000050EB00005CEB000068EB00008B
:10B1C00074EB000080EB00008CEB000098EB0000BB
:10B1D000A4EB0000B0EB0000BCEB0000C8EB0000EB
:10B1E000D4EB0000E0EB0000ECEB0000F8EB00001B
:10B1F00004EC000010EC00001CEC000028EC000047
:10B2000034EC000040EC00004CEC000058EC000076
:10B2100064EC000070EC00007CEC000088EC0000A6
:10B2200094EC0000A0EC0000ACEC0000B8EC0000D6
:10B23000C4EC0000D0EC0000DCEC0000E8EC000006
:10B24000F4EC000000ED00000CED000018ED000033
:10B2500024ED000030ED00003CED000048ED000062
:10B2600054ED000060ED00006CED000078ED000092
:10B2700084ED000090ED00009CED0000A8ED0000C2
:10B28000B4ED0000C0ED0000CCED0000D8ED0000F2
:10B29000E4ED0000F0ED0000FCED000008EE000021
:10B2A00014EE000020EE00002CEE000038EE00004E
:10B2B00044EE000050EE00005CEE000068EE00007E
:10B2C00074EE000080EE00008CEE000098EE0000AE
:10B2D000A4EE0000B0EE0000BCEE0000C8EE0000DE
:10B2E000D4EE0000E0EE0000ECEE0000F8EE00000E
:10B2F00004EF000010EF00001CEF000028EF00003A
:10B3000034EF000040EF00004CEF000058EF000069
:10B3100064EF000070EF00007CEF000088EF000099
:10B3200094EF0000A0EF0000ACEF0000B8EF0000C9
:10B33000C4EF0000D0EF0000DCEF0000E8EF0000F9
:10B34000F4EF000000F000000CF0000018F0000026
:10B3500024F0000030F000003CF0000048F0000055
:10B3600054F0000060F000006CF0000078F0000085
:10B3700084F0000090F000009CF00000A8F00000B5
:10B38000B4F00000C0F00000CCF00000D8F00000E5
:10B39000E4F00000F0F00000FCF0000008F1000014
:10B3A00014F1000020F100002CF1000038F1000041
:10B3B00044F1000050F100005CF1000068F1000071
:10B3C00074F1000080F100008CF1000098F10000A1
:10B3D000A4F10000B0F10000BCF10000C8F10000D1
:10B3E000D4F10000E0F10000ECF10000F8F1000001
:10B3F00004F2000010F200001CF2000028F200002D
:10B4000034F2000040F200004CF2000058F200005C
:10B4100064F2000070F200007CF2000088F200008C
:10B4200094F20000A0F20000ACF20000B8F20000BC
:10B43000C4F20000D0F20000DCF20000E8F20000EC
:10B44000F4F2000000F300000CF3000018F3000019
:10B4500024F3000030F300003CF3000048F3000048
:10B4600054F3000060F300006CF3000078F3000078
:10B4700084F3000090F300009CF30000A8F30000A8
:10B48000B4F30000C0F30000CCF30000D8F30000D8
:10B49000E4F30000F0F30000FCF3000008F4000007
:10B4A00014F4000020F400002CF4000038F4000034
:10B4B00044F4000050F400005CF4000068F4000064
:10B4C00074F4000080F400008CF4000098F4000094
:10B4D000A4F40000B0F40000BCF40000C8F40000C4
:10B4E000D4F40000E0F40000ECF40000F8F40000F4
:10B4F00004F5000010F500001CF5000028F5000020
:10B5000034F5000040F500004CF5000058F500004F
:10B5100064F5000070F500007CF5000088F500007F
:10B5200094F50000A0F50000ACF50000B8F50000AF
:10B53000C4F50000D0F50000DCF50000E8F50000DF
:10B54000F4F5000000F600000CF6000018F600000C
:10B5500024F6000030F600003CF6000048F600003B
:10B5600054F6000060F600006CF6000078F600006B
:10B5700084F6000090F600009CF60000A8F600009B
:10B58000B4F60000C0F60000CCF60000D8F60000CB
:10B59000E4F60000F0F60000FCF6000008F70000FA
:10B5A00014F7000020F700002CF7000038F7000027
:10B5B00044F7000050F700005CF7000068F7000057
:10B5C00074F7000080F700008CF7000098F7000087
:10B5D000A4F70000B0F70000BCF70000C8F70000B7
:10B5E000D4F70000E0F70000ECF70000F8F70000E7
:10B5F00004F8000010F800001CF8000028F8000013
:10B6000034F8000040F800004CF8000058F8000042
:10B6100064F8000070F800007CF8000088F8000072
:10B6200094F80000A0F80000ACF80000B8F80000A2
:10B63000C4F80000D0F80000DCF80000E8F80000D2
:10B64000F4F8000000F900000CF9000018F90000FF
:10B6500024F9000030F900003CF9000048F900002E
:10B6600054F9000060F900006CF9000078F900005E
:10B6700084F9000090F900009CF90000A8F900008E
:10B68000B4F90000C0F90000CCF90000D8F90000BE
:10B69000E4F90000F0F90000FCF9000008FA0000ED
:10B6A00014FA000020FA00002CFA000038FA00001A
:10B6B00044FA000050FA00005CFA000068FA00004A
:10B6C00074FA000080FA00008CFA000098FA00007A
:10B6D000A4FA0000B0FA0000BCFA0000C8FA0000AA
:10B6E000D4FA0000E0FA0000ECFA0000F8FA0000DA
:10B6F00004FB000010FB00001CFB000028FB000006
:10B7000034FB000040FB00004CFB000058FB000035
:10B7100064FB000070FB00007CFB000088FB000065
:10B7200094FB0000A0FB0000ACFB0000B8FB000095
:10B73000C4FB0000D0FB0000DCFB0000E8FB0000C5
:10B74000F4FB000000FC00000CFC000018FC0000F2
:10B7500024FC000030FC00003CFC000048FC000021
:10B7600054FC000060FC00006CFC000078FC000051
:10B7700084FC000090FC00009CFC0000A8FC000081
:10B78000B4FC0000C0FC0000CCFC0000D8FC0000B1
:10B79000E4FC0000F0FC0000FCFC000008FD0000E0
:10B7A00014FD000020FD00002CFD000038FD00000D
:10B7B00044FD000050FD00005CFD000068FD00003D
:10B7C00074FD000080FD00008CFD000098FD00006D
:10B7D000A4FD0000B0FD0000BCFD0000C8FD00009D
:10B7E000D4FD0000E0FD0000ECFD0000F8FD0000CD
:10B7F00004FE000010FE00001CFE000028FE0000F9
:10B8000034FE000040FE00004CFE000058FE000028
:10B8100064FE000070FE00007CFE000088FE000058
:10B8200094FE0000A0FE0000ACFE0000B8FE000088
:10B83000C4FE0000D0FE0000DCFE0000E8FE0000B8
:10B84000F4FE000000FF00000CFF000018FF0000E5
:10B8500024FF000030FF00003CFF000048FF000014
:10B8600054FF000060FF00006CFF000078FF000044
:10B8700084FF000090FF00009CFF0000A8FF000074
:10B88000B4FF0000C0FF0000CCFF0000D8FF0000A4
:10B89000E4FF0000F0FF0000FCFF000008000100D2
:10B8A00014000100200001002C00010038000100FC
:10B8B00044000100500001005C000100680001002C
:10B8C00074000100800001008C000100980001005C
:10B8D000A4000100B0000100BC000100C80001008C
:10B8E000D4000100E0000100EC000100F8000100BC
:10B8F00004010100100101001C01010028010100E8
:10B9000034010100400101004C0101005801010017
:10B9100064010100700101007C0101008801010047
:10B9200094010100A0010100AC010100B801010077
:10B93000C4010100D0010100DC010100E8010100A7
:10B94000F4010100000201000C02010018020100D4
:10B9500024020100300201003C0201004802010003
:10B9600054020100600201006C0201007802010033
:10B9700084020100900201009C020100A802010063
:10B98000B4020100C0020100CC020100D802010093
:10B99000E4020100F0020100FC02010008030100C2
:10B9A00014030100200301002C03010038030100EF
:10B9B00044030100500301005C030100680301001F
:10B9C00074030100800301008C030100980301004F
:10B9D000A4030100B0030100BC030100C80301007F
:10B9E000D4030100E0030100EC030100F8030100AF
:10B9F00004040100100401001C04010028040100DB
:10BA000034040100400401004C040100580401000A
:10BA100064040100700401007C040100880401003A
:10BA200094040100A0040100AC040100B80401006A
:10BA3000C4040100D0040100DC040100E80401009A
:10BA4000F4040100000501000C05010018050100C7
:10BA500024050100300501003C05010048050100F6
:10BA600054050100600501006C0501007805010026
:10BA700084050100900501009C050100A805010056
:10BA8000B4050100C0050100CC050100D805010086
:10BA9000E4050100F0050100FC05010008060100B5
:10BAA00014060100200601002C06010038060100E2
:10BAB00044060100500601005C0601006806010012
:10BAC00074060100800601008C0601009806010042
:10BAD000A4060100B0060100BC060100C806010072
:10BAE000D4060100E0060100EC060100F8060100A2
:10BAF00004070100100701001C07010028070100CE
:10BB000034070100400701004C07010058070100FD
:10BB100064070100700701007C070100880701002D
:10BB200094070100A0070100AC070100B80701005D
:10BB3000C4070100D0070100DC070100E80701008D
:10BB4000F4070100000801000C08010018080100BA
:10BB500024080100300801003C08010048080100E9
:10BB600054080100600801006C0801007808010019
:10BB700084080100900801009C080100A808010049
:10BB8000B4080100C0080100CC080100D808010079
:10BB9000E4080100F0080100FC08010008090100A8
:10BBA00014090100200901002C09010038090100D5
:10BBB00044090100500901005C0901006809010005
:10BBC00074090100800901008C0901009809010035
:10BBD000A4090100B0090100BC090100C809010065
:10BBE000D4090100E0090100EC090100F809010095
:10BBF000040A0100100A01001C0A0100280A0100C1
:10BC0000340A0100400A01004C0A0100580A0100F0
:10BC1000640A0100700A01007C0A0100880A010020
:10BC2000940A0100A00A0100AC0A0100B80A010050
:10BC3000C40A0100D00A0100DC0A0100E80A010080
:10BC4000F40A0100000B01000C0B0100180B0100AD
:10BC5000240B0100300B01003C0B0100480B0100DC
:10BC6000540B0100600B01006C0B0100780B01000C
:10BC7000840B0100900B01009C0B0100A80B01003C
:10BC8000B40B0100C00B0100CC0B0100D80B01006C
:10BC9000E40B0100F00B0100FC0B0100080C01009B
:10BCA000140C0100200C01002C0C0100380C0100C8
:10BCB000440C0100500C01005C0C0100680C0100F8
:10BCC000740C0100800C01008C0C0100980C010028
:10BCD000A40C0100B00C0100BC0C0100C80C010058
:10BCE000D40C0100E00C0100EC0C0100F80C010088
:10BCF000040D0100100D01001C0D0100280D0100B4
:10BD0000340D0100400D01004C0D0100580D0100E3
:10BD1000640D0100700D01007C0D0100880D010013
:10BD2000940D0100A00D0100AC0D0100B80D010043
:10BD3000C40D0100D00D0100DC0D0100E80D010073
:10BD4000F40D0100000E01000C0E0100180E0100A0
:10BD5000240E0100300E01003C0E0100480E0100CF
:10BD6000540E0100600E01006C0E0100780E0100FF
:10BD7000840E0100900E01009C0E0100A80E01002F
:10BD8000B40E0100C00E0100CC0E0100D80E01005F
:10BD9000E40E0100F00E0100FC0E0100080F01008E
:10BDA000140F0100200F01002C0F0100380F0100BB
:10BDB000440F0100500F01005C0F0100680F0100EB
:10BDC000740F0100800F01008C0F0100980F01001B
:10BDD000A40F0100B00F0100BC0F0100C80F01004B
:10BDE000D40F0100E00F0100EC0F0100F80F01007B
:10BDF00004100100101001001C10010028100100A7
:10BE000034100100401001004C10010058100100D6
:10BE100064100100701001007C1001008810010006
:10BE200094100100A0100100AC100100B810010036
:10BE3000C4100100D0100100DC100100E810010066
:10BE4000F4100100001101000C1101001811010093
:10BE500024110100301101003C11010048110100C2
:10BE600054110100601101006C11010078110100F2
:10BE700084110100901101009C110100A811010022
:10BE8000B4110100C0110100CC110100D811010052
:10BE9000E4110100F0110100FC1101000812010081
:10BEA00014120100201201002C12010038120100AE
:10BEB00044120100501201005C12010068120100DE
:10BEC00074120100801201008C120100981201000E
:10BED000A4120100B0120100BC120100C81201003E
:10BEE000D4120100E0120100EC120100F81201006E
:10BEF00004130100101301001C130100281301009A
:10BF000034130100401301004C13010058130100C9
:10BF100064130100701301007C13010088130100F9
:10BF200094130100A0130100AC130100B813010029
:10BF3000C4130100D0130100DC130100E813010059
:10BF4000F4130100001401000C1401001814010086
:10BF500024140100301401003C14010048140100B5
:10BF600054140100601401006C14010078140100E5
:10BF700084140100901401009C140100A814010015
:10BF8000B4140100C0140100CC140100D814010045
:10BF9000E4140100F0140100FC1401000815010074
:10BFA00014150100201501002C15010038150100A1
:10BFB00044150100501501005C15010068150100D1
:10BFC00074150100801501008C1501009815010001
:10BFD000A4150100B0150100BC150100C815010031
:10BFE000D4150100E0150100EC150100F815010061
:10BFF00004160100101601001C160100281601008D
:10C0000034160100401601004C16010058160100BC
:10C0100064160100701601007C16010088160100EC
:10C0200094160100A0160100AC160100B81601001C
:10C03000C4160100D0160100DC160100E81601004C
:10C04000F4160100001701000C1701001817010079
:10C0500024170100301701003C17010048170100A8
:10C0600054170100601701006C17010078170100D8
:10C0700084170100901701009C170100A817010008
:10C08000B4170100C0170100CC170100D817010038
:10C09000E4170100F0170100FC1701000818010067
:10C0A00014180100201801002C1801003818010094
:10C0B00044180100501801005C18010068180100C4
:10C0C00074180100801801008C18010098180100F4
:10C0D000A4180100B0180100BC180100C818010024
:10C0E000D4180100E0180100EC180100F818010054
:10C0F00004190100101901001C1901002819010080
:10C1000034190100401901004C19010058190100AF
:10C1100064190100701901007C19010088190100DF
:10C1200094190100A0190100AC190100B81901000F
:10C13000C4190100D0190100DC190100E81901003F
:10C14000F4190100001A01000C1A0100181A01006C
:10C15000241A0100301A01003C1A0100481A01009B
:10C16000541A0100601A01006C1A0100781A0100CB
:10C17000841A0100901A01009C1A0100A81A0100FB
:10C18000B41A0100C01A0100CC1A0100D81A01002B
:10C19000E41A0100F01A0100FC1A0100081B01005A
:10C1A000141B0100201B01002C1B0100381B010087
:10C1B000441B0100501B01005C1B0100681B0100B7
:10C1C000741B0100801B01008C1B0100981B0100E7
:10C1D000A41B0100B01B0100BC1B0100C81B010017
:10C1E000D41B0100E01B0100EC1B0100F81B010047
:10C1F000041C0100101C01001C1C0100281C010073
:10C20000341C0100401C01004C1C0100581C0100A2
:10C21000641C0100701C01007C1C0100881C0100D2
:10C22000941C0100A01C0100AC1C0100B81C010002
:10C23000C41C0100D01C0100DC1C0100E81C010032
:10C24000F41C0100001D01000C1D0100181D01005F
:10C25000241D0100301D01003C1D0100481D01008E
:10C26000541D0100601D01006C1D0100781D0100BE
:10C27000841D0100901D01009C1D0100A81D0100EE
:10C28000B41D0100C01D0100CC1D0100D81D01001E
:10C29000E41D0100F01D0100FC1D0100081E01004D
:10C2A000141E0100201E01002C1E0100381E01007A
:10C2B000441E0100501E01005C1E0100681E0100AA
:10C2C000741E0100801E01008C1E0100981E0100DA
:10C2D000A41E0100B01E0100BC1E0100C81E01000A
:10C2E000D41E0100E01E0100EC1E0100F81E01003A
:10C2F000041F0100101F01001C1F0100281F010066
:10C30000341F0100401F01004C1F0100581F010095
:10C31000641F0100701F01007C1F0100881F0100C5
:10C32000941F0100A01F0100AC1F0100B81F0100F5
:10C33000C41F0100D01F0100DC1F0100E81F010025
:10C34000F41F0100002001000C2001001820010052
:10C3500024200100302001003C2001004820010081
:10C3600054200100602001006C20010078200100B1
:10C3700084200100902001009C200100A8200100E1
:10C38000B4200100C0200100CC200100D820010011
:10C39000E4200100F0200100FC2001000821010040
:10C3A00014210100202101002C210100382101006D
:10C3B00044210100502101005C210100682101009D
:10C3C00074210100802101008C21010098210100CD
:10C3D000A4210100B0210100BC210100C8210100FD
:10C3E000D4210100E0210100EC210100F82101002D
:10C3F00004220100102201001C2201002822010059
:10C4000034220100402201004C2201005822010088
:10C4100064220100702201007C22010088220100B8
:10C4200094220100A0220100AC220100B8220100E8
:10C43000C4220100D0220100DC220100E822010018
:10C44000F4220100002301000C2301001823010045
:10C4500024230100302301003C2301004823010074
:10C4600054230100602301006C23010078230100A4
:10C4700084230100902301009C230100A8230100D4
:10C48000B4230100C0230100CC230100D823010004
:10C49000E4230100F0230100FC2301000824010033
:10C4A00014240100202401002C2401003824010060
:10C4B00044240100502401005C2401006824010090
:10C4C00074240100802401008C24010098240100C0
:10C4D000A4240100B0240100BC240100C8240100F0
:10C4E000D4240100E0240100EC240100F824010020
:10C4F00004250100102501001C250100282501004C
:10C5000034250100402501004C250100582501007B
:10C5100064250100702501007C25010088250100AB
:10C5200094250100A0250100AC250100B8250100DB
:10C53000C4250100D0250100DC250100E82501000B
:10C54000F4250100002601000C2601001826010038
:10C5500024260100302601003C2601004826010067
:10C5600054260100602601006C2601007826010097
:10C5700084260100902601009C260100A8260100C7
:10C58000B4260100C0260100CC260100D8260100F7
:10C59000E4260100F0260100FC2601000827010026
:10C5A00014270100202701002C2701003827010053
:10C5B00044270100502701005C2701006827010083
:10C5C00074270100802701008C27010098270100B3
:10C5D000A4270100B0270100BC270100C8270100E3
:10C5E000D4270100E0270100EC270100F827010013
:10C5F00004280100102801001C280100282801003F
:10C6000034280100402801004C280100582801006E
:10C6100064280100702801007C280100882801009E
:10C6200094280100A0280100AC280100B8280100CE
:10C63000C4280100D0280100DC280100E8280100FE
:10C64000F4280100002901000C290100182901002B
:10C6500024290100302901003C290100482901005A
:10C6600054290100602901006C290100782901008A
:10C6700084290100902901009C290100A8290100BA
:10C68000B4290100C0290100CC290100D8290100EA
:10C69000E4290100F0290100FC290100082A010019
:10C6A000142A0100202A01002C2A0100382A010046
:10C6B000442A0100502A01005C2A0100682A010076
:10C6C000742A0100802A01008C2A0100982A0100A6
:10C6D000A42A0100B02A0100BC2A0100C82A0100D6
:10C6E000D42A0100E02A0100EC2A0100F82A010006
:10C6F000042B0100102B01001C2B0100282B010032
:10C70000342B0100402B01004C2B0100582B010061
:10C71000642B0100702B01007C2B0100882B010091
:10C72000942B0100A02B0100AC2B0100B82B0100C1
:10C73000C42B0100D02B0100DC2B0100E82B0100F1
:10C74000F42B0100002C01000C2C0100182C01001E
:10C75000242C0100302C01003C2C0100482C01004D
:10C76000542C0100602C01006C2C0100782C01007D
:10C77000842C0100902C01009C2C0100A82C0100AD
:10C78000B42C0100C02C0100CC2C0100D82C0100DD
:10C79000E42C0100F02C0100FC2C0100082D01000C
:10C7A000142D0100202D01002C2D0100382D010039
:10C7B000442D0100502D01005C2D0100682D010069
:10C7C000742D0100802D01008C2D0100982D010099
:10C7D000A42D0100B02D0100BC2D0100C82D0100C9
:10C7E000D42D0100E02D0100EC2D0100F82D0100F9
:10C7F000042E0100102E01001C2E0100282E010025
:10C80000342E0100402E01004C2E0100582E010054
:10C81000642E0100702E01007C2E0100882E010084
:10C82000942E0100A02E0100AC2E0100B82E0100B4
:10C83000C42E0100D02E0100DC2E0100E82E0100E4
:10C84000F42E0100002F01000C2F0100182F010011
:10C85000242F0100302F01003C2F0100482F010040
:10C86000542F0100602F01006C2F0100782F010070
:10C87000842F0100902F01009C2F0100A82F0100A0
:10C88000B42F0100C02F0100CC2F0100D82F0100D0
:10C89000E42F0100F02F0100FC2F010008300100FF
:10C8A00014300100203001002C300100383001002C
:10C8B00044300100503001005C300100683001005C
:10C8C00074300100803001008C300100983001008C
:10C8D000A4300100B0300100BC300100C8300100BC
:10C8E000D4300100E0300100EC300100F8300100EC
:10C8F00004310100103101001C3101002831010018
:10C9000034310100403101004C3101005831010047
:10C9100064310100703101007C3101008831010077
:10C9200094310100A0310100AC310100B8310100A7
:10C93000C4310100D0310100DC310100E8310100D7
:10C94000F4310100003201000C3201001832010004
:10C9500024320100303201003C3201004832010033
:10C9600054320100603201006C3201007832010063
:10C9700084320100903201009C320100A832010093
:10C98000B4320100C0320100CC320100D8320100C3
:10C99000E4320100F0320100FC32010008330100F2
:10C9A00014330100203301002C330100383301001F
:10C9B00044330100503301005C330100683301004F
:10C9C00074330100803301008C330100983301007F
:10C9D000A4330100B0330100BC330100C8330100AF
:10C9E000D4330100E0330100EC330100F8330100DF
:10C9F00004340100103401001C340100283401000B
:10CA000034340100403401004C340100583401003A
:10CA100064340100703401007C340100883401006A
:10CA200094340100A0340100AC340100B83401009A
:10CA3000C4340100D0340100DC340100E8340100CA
:10CA4000F4340100003501000C35010018350100F7
:10CA500024350100303501003C3501004835010026
:10CA600054350100603501006C3501007835010056
:10CA700084350100903501009C350100A835010086
:10CA8000B4350100C0350100CC350100D8350100B6
:10CA9000E4350100F0350100FC35010008360100E5
:10CAA00014360100203601002C3601003836010012
:10CAB00044360100503601005C3601006836010042
:10CAC00074360100803601008C3601009836010072
:10CAD000A4360100B0360100BC360100C8360100A2
:10CAE000D4360100E0360100EC360100F8360100D2
:10CAF00004370100103701001C37010028370100FE
:10CB000034370100403701004C370100583701002D
:10CB100064370100703701007C370100883701005D
:10CB200094370100A0370100AC370100B83701008D
:10CB3000C4370100D0370100DC370100E8370100BD
:10CB4000F4370100003801000C38010018380100EA
:10CB500024380100303801003C3801004838010019
:10CB600054380100603801006C3801007838010049
:10CB700084380100903801009C380100A838010079
:10CB8000B4380100C0380100CC380100D8380100A9
:10CB9000E4380100F0380100FC38010008390100D8
:10CBA00014390100203901002C3901003839010005
:10CBB00044390100503901005C3901006839010035
:10CBC00074390100803901008C3901009839010065
:10CBD000A4390100B0390100BC390100C839010095
:10CBE000D4390100E0390100EC390100F8390100C5
:10CBF000043A0100103A01001C3A0100283A0100F1
:10CC0000343A0100403A01004C3A0100583A010020
:10CC1000643A0100703A01007C3A0100883A010050
:10CC2000943A0100A03A0100AC3A0100B83A010080
:10CC3000C43A0100D03A0100DC3A0100E83A0100B0
:10CC4000F43A0100003B01000C3B0100183B0100DD
:10CC5000243B0100303B01003C3B0100483B01000C
:10CC6000543B0100603B01006C3B0100783B01003C
:10CC7000843B0100903B01009C3B0100A83B01006C
:10CC8000B43B0100C03B0100CC3B0100D83B01009C
:10CC9000E43B0100F03B0100FC3B0100083C0100CB
:10CCA000143C0100203C01002C3C0100383C0100F8
:10CCB000443C0100503C01005C3C0100683C010028
:10CCC000743C0100803C01008C3C0100983C010058
:10CCD000A43C0100B03C0100BC3C0100C83C010088
:10CCE000D43C0100E03C0100EC3C0100F83C0100B8
:10CCF000043D0100103D01001C3D0100283D0100E4
:10CD0000343D0100403D01004C3D0100583D010013
:10CD1000643D0100703D01007C3D0100883D010043
:10CD2000943D0100A03D0100AC3D0100B83D010073
:10CD3000C43D0100D03D0100DC3D0100E83D0100A3
:10CD4000F43D0100003E01000C3E0100183E0100D0
:10CD5000243E0100303E01003C3E0100483E0100FF
:10CD6000543E0100603E01006C3E0100783E01002F
:10CD7000843E0100903E01009C3E0100A83E01005F
:10CD8000B43E0100C03E0100CC3E0100D83E01008F
:10CD9000E43E0100F03E0100FC3E0100083F0100BE
:10CDA000143F0100203F01002C3F0100383F0100EB
:10CDB000443F0100503F01005C3F0100683F01001B
:10CDC000743F0100803F01008C3F0100983F01004B
:10CDD000A43F0100B03F0100BC3F0100C83F01007B
:10CDE000D43F0100E03F0100EC3F0100F83F0100AB
:10CDF00004400100104001001C40010028400100D7
:10CE000034400100404001004C4001005840010006
:10CE100064400100704001007C4001008840010036
:10CE200094400100A0400100AC400100B840010066
:10CE3000C4400100D0400100DC400100E840010096
:10CE4000F4400100004101000C41010018410100C3
:10CE500024410100304101003C41010048410100F2
:10CE600054410100604101006C4101007841010022
:10CE700084410100904101009C410100A841010052
:10CE8000B4410100C0410100CC410100D841010082
:10CE9000E4410100F0410100FC41010008420100B1
:10CEA00014420100204201002C42010038420100DE
:10CEB00044420100504201005C420100684201000E
:10CEC00074420100804201008C420100984201003E
:10CED000A4420100B0420100BC420100C84201006E
:10CEE000D4420100E0420100EC420100F84201009E
:10CEF00004430100104301001C43010028430100CA
:10CF000034430100404301004C43010058430100F9
:10CF100064430100704301007C4301008843010029
:10CF200094430100A0430100AC430100B843010059
:10CF3000C4430100D0430100DC430100E843010089
:10CF4000F4430100004401000C44010018440100B6
:10CF500024440100304401003C44010048440100E5
:10CF600054440100604401006C4401007844010015
:10CF700084440100904401009C440100A844010045
:10CF8000B4440100C0440100CC440100D844010075
:10CF9000E4440100F0440100FC44010008450100A4
:10CFA00014450100204501002C45010038450100D1
:10CFB00044450100504501005C4501006845010001
:10CFC00074450100804501008C4501009845010031
:10CFD000A4450100B0450100BC450100C845010061
:10CFE000D4450100E0450100EC450100F845010091
:10CFF00004460100104601001C46010028460100BD
:10D0000034460100404601004C46010058460100EC
:10D0100064460100704601007C460100884601001C
:10D0200094460100A0460100AC460100B84601004C
:10D03000C4460100D0460100DC460100E84601007C
:10D04000F4460100004701000C47010018470100A9
:10D0500024470100304701003C47010048470100D8
:10D0600054470100604701006C4701007847010008
:10D0700084470100904701009C470100A847010038
:10D08000B4470100C0470100CC470100D847010068
:10D09000E4470100F0470100FC4701000848010097
:10D0A00014480100204801002C48010038480100C4
:10D0B00044480100504801005C48010068480100F4
:10D0C00074480100804801008C4801009848010024
:10D0D000A4480100B0480100BC480100C848010054
:10D0E000D4480100E0480100EC480100F848010084
:10D0F00004490100104901001C49010028490100B0
:10D1000034490100404901004C49010058490100DF
:10D1100064490100704901007C490100884901000F
:10D1200094490100A0490100AC490100B84901003F
:10D13000C4490100D0490100DC490100E84901006F
:10D14000F4490100004A01000C4A0100184A01009C
:10D15000244A0100304A01003C4A0100484A0100CB
:10D16000544A0100604A01006C4A0100784A0100FB
:10D17000844A0100904A01009C4A0100A84A01002B
:10D18000B44A0100C04A0100CC4A0100D84A01005B
:10D19000E44A0100F04A0100FC4A0100084B01008A
:10D1A000144B0100204B01002C4B0100384B0100B7
:10D1B000444B0100504B01005C4B0100684B0100E7
:10D1C000744B0100804B01008C4B0100984B010017
:10D1D000A44B0100B04B0100BC4B0100C84B010047
:10D1E000D44B0100E04B0100EC4B0100F84B010077
:10D1F000044C0100104C01001C4C0100284C0100A3
:10D20000344C0100404C01004C4C0100584C0100D2
:10D21000644C0100704C01007C4C0100884C010002
:10D22000944C0100A04C0100AC4C0100B84C010032
:10D23000C44C0100D04C0100DC4C0100E84C010062
:10D24000F44C0100004D01000C4D0100184D01008F
:10D25000244D0100304D01003C4D0100484D0100BE
:10D26000544D0100604D01006C4D0100784D0100EE
:10D27000844D0100904D01009C4D0100A84D01001E
:10D28000B44D0100C04D0100CC4D0100D84D01004E
:10D29000E44D0100F04D0100FC4D0100084E01007D
:10D2A000144E0100204E01002C4E0100384E0100AA
:10D2B000444E0100504E01005C4E0100684E0100DA
:10D2C000744E0100804E01008C4E0100984E01000A
:10D2D000A44E0100B04E0100BC4E0100C84E01003A
:10D2E000D44E0100E04E0100EC4E0100F84E01006A
:10D2F000044F0100104F01001C4F0100284F010096
:10D30000344F0100404F01004C4F0100584F0100C5
:10D31000644F0100704F01007C4F0100884F0100F5
:10D32000944F0100A04F0100AC4F0100B84F010025
:10D33000C44F0100D04F0100DC4F0100E84F010055
:10D34000F44F0100005001000C5001001850010082
:10D3500024500100305001003C50010048500100B1
:10D3600054500100605001006C50010078500100E1
:10D3700084500100905001009C500100A850010011
:10D38000B4500100C0500100CC500100D850010041
:10D39000E4500100F0500100FC5001000851010070
:10D3A00014510100205101002C510100385101009D
:10D3B00044510100505101005C51010068510100CD
:10D3C00074510100805101008C51010098510100FD
:10D3D000A4510100B0510100BC510100C85101002D
:10D3E000D4510100E0510100EC510100F85101005D
:10D3F00004520100105201001C5201002852010089
:10D4000034520100405201004C52010058520100B8
:10D4100064520100705201007C52010088520100E8
:10D4200094520100A0520100AC520100B852010018
:10D43000C4520100D0520100DC520100E852010048
:10D44000F4520100005301000C5301001853010075
:10D4500024530100305301003C53010048530100A4
:10D4600054530100605301006C53010078530100D4
:10D4700084530100905301009C530100A853010004
:10D48000B4530100C0530100CC530100D853010034
:10D49000E4530100F0530100FC5301000854010063
:10D4A00014540100205401002C5401003854010090
:10D4B00044540100505401005C54010068540100C0
:10D4C00074540100805401008C54010098540100F0
:10D4D000A4540100B0540100BC540100C854010020
:10D4E000D4540100E0540100EC540100F854010050
:10D4F00004550100105501001C550100285501007C
:10D5000034550100405501004C55010058550100AB
:10D5100064550100705501007C55010088550100DB
:10D5200094550100A0550100AC550100B85501000B
:10D53000C4550100D0550100DC550100E85501003B
:10D54000F4550100005601000C5601001856010068
:10D5500024560100305601003C5601004856010097
:10D5600054560100605601006C56010078560100C7
:10D5700084560100905601009C560100A8560100F7
:10D58000B4560100C0560100CC560100D856010027
:10D59000E4560100F0560100FC5601000857010056
:10D5A00014570100205701002C5701003857010083
:10D5B00044570100505701005C57010068570100B3
:10D5C00074570100805701008C57010098570100E3
:10D5D000A4570100B0570100BC570100C857010013
:10D5E000D4570100E0570100EC570100F857010043
:10D5F00004580100105801001C580100285801006F
:10D6000034580100405801004C580100585801009E
:10D6100064580100705801007C58010088580100CE
:10D6200094580100A0580100AC580100B8580100FE
:10D63000C4580100D0580100DC580100E85801002E
:10D64000F4580100005901000C590100185901005B
:10D6500024590100305901003C590100485901008A
:10D6600054590100605901006C59010078590100BA
:10D6700084590100905901009C590100A8590100EA
:10D68000B4590100C0590100CC590100D85901001A
:10D69000E4590100F0590100FC590100085A010049
:10D6A000145A0100205A01002C5A0100385A010076
:10D6B000445A0100505A01005C5A0100685A0100A6
:10D6C000745A0100805A01008C5A0100985A0100D6
:10D6D000A45A0100B05A0100BC5A0100C85A010006
:10D6E000D45A0100E05A0100EC5A0100F85A010036
:10D6F000045B0100105B01001C5B0100285B010062
:10D70000345B0100405B01004C5B0100585B010091
:10D71000645B0100705B01007C5B0100885B0100C1
:10D72000945B0100A05B0100AC5B0100B85B0100F1
:10D73000C45B0100D05B0100DC5B0100E85B010021
:10D74000F45B0100005C01000C5C0100185C01004E
:10D75000245C0100305C01003C5C0100485C01007D
:10D76000545C0100605C01006C5C0100785C0100AD
:10D77000845C0100905C01009C5C0100A85C0100DD
:10D78000B45C0100C05C0100CC5C0100D85C01000D
:10D79000E45C0100F05C0100FC5C0100085D01003C
:10D7A000145D0100205D01002C5D0100385D010069
:10D7B000445D0100505D01005C5D0100685D010099
:10D7C000745D0100805D01008C5D0100985D0100C9
:10D7D000A45D0100B05D0100BC5D0100C85D0100F9
:10D7E000D45D0100E05D0100EC5D0100F85D010029
:10D7F000045E0100105E01001C5E0100285E010055
:10D80000345E0100405E01004C5E0100585E010084
:10D81000645E0100705E01007C5E0100885E0100B4
:10D82000945E0100A05E0100AC5E0100B85E0100E4
:10D83000C45E0100D05E0100DC5E0100E85E010014
:10D84000F45E0100005F01000C5F0100185F010041
:10D85000245F0100305F01003C5F0100485F010070
:10D86000545F0100605F01006C5F0100785F0100A0
:10D87000845F0100905F01009C5F0100A85F0100D0
:10D88000B45F0100C05F0100CC5F0100D85F010000
:10D89000E45F0100F05F0100FC5F0100086001002F
:10D8A00014600100206001002C600100386001005C
:10D8B00044600100506001005C600100686001008C
:10D8C00074600100806001008C60010098600100BC
:10D8D000A4600100B0600100BC600100C8600100EC
:10D8E000D4600100E0600100EC600100F86001001C
:10D8F00004610100106101001C6101002861010048
:10D9000034610100406101004C6101005861010077
:10D9100064610100706101007C61010088610100A7
:10D9200094610100A0610100AC610100B8610100D7
:10D93000C4610100D0610100DC610100E861010007
:10D94000F4610100006201000C6201001862010034
:10D9500024620100306201003C6201004862010063
:10D9600054620100606201006C6201007862010093
:10D9700084620100906201009C620100A8620100C3
:10D98000B4620100C0620100CC620100D8620100F3
:10D99000E4620100F0620100FC6201000863010022
:10D9A00014630100206301002C630100386301004F
:10D9B00044630100506301005C630100686301007F
:10D9C00074630100806301008C63010098630100AF
:10D9D000A4630100B0630100BC630100C8630100DF
:10D9E000D4630100E0630100EC630100F86301000F
:10D9F00004640100106401001C640100286401003B
:10DA000034640100406401004C640100586401006A
:10DA100064640100706401007C640100886401009A
:10DA200094640100A0640100AC640100B8640100CA
:10DA3000C4640100D0640100DC640100E8640100FA
:10DA4000F4640100006501000C6501001865010027
:10DA500024650100306501003C6501004865010056
:10DA600054650100606501006C6501007865010086
:10DA700084650100906501009C650100A8650100B6
:10DA8000B4650100C0650100CC650100D8650100E6
:10DA9000E4650100F0650100FC6501000866010015
:10DAA00014660100206601002C6601003866010042
:10DAB00044660100506601005C6601006866010072
:10DAC00074660100806601008C66010098660100A2
:10DAD000A4660100B0660100BC660100C8660100D2
:10DAE000D4660100E0660100EC660100F866010002
:10DAF00004670100106701001C670100286701002E
:10DB000034670100406701004C670100586701005D
:10DB100064670100706701007C670100886701008D
:10DB200094670100A0670100AC670100B8670100BD
:10DB3000C4670100D0670100DC670100E8670100ED
:10DB4000F4670100006801000C680100186801001A
:10DB500024680100306801003C6801004868010049
:10DB600054680100606801006C6801007868010079
:10DB700084680100906801009C680100A8680100A9
:10DB8000B4680100C0680100CC680100D8680100D9
:10DB9000E4680100F0680100FC6801000869010008
:10DBA00014690100206901002C6901003869010035
:10DBB00044690100506901005C6901006869010065
:10DBC00074690100806901008C6901009869010095
:10DBD000A4690100B0690100BC690100C8690100C5
:10DBE000D4690100E0690100EC690100F8690100F5
:10DBF000046A0100106A01001C6A0100286A010021
:10DC0000346A0100406A01004C6A0100586A010050
:10DC1000646A0100706A01007C6A0100886A010080
:10DC2000946A0100A06A0100AC6A0100B86A0100B0
:10DC3000C46A0100D06A0100DC6A0100E86A0100E0
:10DC4000F46A0100006B01000C6B0100186B01000D
:10DC5000246B0100306B01003C6B0100486B01003C
:10DC6000546B0100606B01006C6B0100786B01006C
:10DC7000846B0100906B01009C6B0100A86B01009C
:10DC8000B46B0100C06B0100CC6B0100D86B0100CC
:10DC9000E46B0100F06B0100FC6B0100086C0100FB
:10DCA000146C0100206C01002C6C0100386C010028
:10DCB000446C0100506C01005C6C0100686C010058
:10DCC000746C0100806C01008C6C0100986C010088
:10DCD000A46C0100B06C0100BC6C0100C86C0100B8
:10DCE000D46C0100E06C0100EC6C0100F86C0100E8
:10DCF000046D0100106D01001C6D0100286D010014
:10DD0000346D0100406D01004C6D0100586D010043
:10DD1000646D0100706D01007C6D0100886D010073
:10DD2000946D0100A06D0100AC6D0100B86D0100A3
:10DD3000C46D0100D06D0100DC6D0100E86D0100D3
:10DD4000F46D0100006E01000C6E0100186E010000
:10DD5000246E0100306E01003C6E0100486E01002F
:10DD6000546E0100606E01006C6E0100786E01005F
:10DD7000846E0100906E01009C6E0100A86E01008F
:10DD8000B46E0100C06E0100CC6E0100D86E0100BF
:10DD9000E46E0100F06E0100FC6E0100086F0100EE
:10DDA000146F0100206F01002C6F0100386F01001B
:10DDB000446F0100506F01005C6F0100686F01004B
:10DDC000746F0100806F01008C6F0100986F01007B
:10DDD000A46F0100B06F0100BC6F0100C86F0100AB
:10DDE000D46F0100E06F0100EC6F0100F86F0100DB
:10DDF00004700100107001001C7001002870010007
:10DE000034700100407001004C7001005870010036
:10DE100064700100707001007C7001008870010066
:10DE200094700100A0700100AC700100B870010096
:10DE3000C4700100D0700100DC700100E8700100C6
:10DE4000F4700100007101000C71010018710100F3
:10DE500024710100307101003C7101004871010022
:10DE600054710100607101006C7101007871010052
:10DE700084710100907101009C710100A871010082
:10DE8000B4710100C0710100CC710100D8710100B2
:10DE9000E4710100F0710100FC71010008720100E1
:10DEA00014720100207201002C720100387201000E
:10DEB00044720100507201005C720100687201003E
:10DEC00074720100807201008C720100987201006E
:10DED000A4720100B0720100BC720100C87201009E
:10DEE000D4720100E0720100EC720100F8720100CE
:10DEF00004730100107301001C73010028730100FA
:10DF000034730100407301004C7301005873010029
:10DF100064730100707301007C7301008873010059
:10DF200094730100A0730100AC730100B873010089
:10DF3000C4730100D0730100DC730100E8730100B9
:10DF4000F4730100007401000C74010018740100E6
:10DF500024740100307401003C7401004874010015
:10DF600054740100607401006C7401007874010045
:10DF700084740100907401009C740100A874010075
:10DF8000B4740100C0740100CC740100D8740100A5
:10DF9000E4740100F0740100FC74010008750100D4
:10DFA00014750100207501002C7501003875010001
:10DFB00044750100507501005C7501006875010031
:10DFC00074750100807501008C7501009875010061
:10DFD000A4750100B0750100BC750100C875010091
:10DFE000D4750100E0750100EC750100F8750100C1
:10DFF00004760100107601001C76010028760100ED
:10E0000034760100407601004C760100587601001C
:10E0100064760100707601007C760100887601004C
:10E0200094760100A0760100AC760100B87601007C
:10E03000C4760100D0760100DC760100E8760100AC
:10E04000F4760100007701000C77010018770100D9
:10E0500024770100307701003C7701004877010008
:10E0600054770100607701006C7701007877010038
:10E0700084770100907701009C770100A877010068
:10E08000B4770100C0770100CC770100D877010098
:10E09000E4770100F0770100FC77010008780100C7
:10E0A00014780100207801002C78010038780100F4
:10E0B00044780100507801005C7801006878010024
:10E0C00074780100807801008C7801009878010054
:10E0D000A4780100B0780100BC780100C878010084
:10E0E000D4780100E0780100EC780100F8780100B4
:10E0F00004790100107901001C79010028790100E0
:10E1000034790100407901004C790100587901000F
:10E1100064790100707901007C790100887901003F
:10E1200094790100A0790100AC790100B87901006F
:10E13000C4790100D0790100DC790100E87901009F
:10E14000F4790100007A01000C7A0100187A0100CC
:10E15000247A0100307A01003C7A0100487A0100FB
:10E16000547A0100607A01006C7A0100787A01002B
:10E17000847A0100907A01009C7A0100A87A01005B
:10E18000B47A0100C07A0100CC7A0100D87A01008B
:10E19000E47A0100F07A0100FC7A0100087B0100BA
:10E1A000147B0100207B01002C7B0100387B0100E7
:10E1B000447B0100507B01005C7B0100687B010017
:10E1C000747B0100807B01008C7B0100987B010047
:10E1D000A47B0100B07B0100BC7B0100C87B010077
:10E1E000D47B0100E07B0100EC7B0100F87B0100A7
:10E1F000047C0100107C01001C7C0100287C0100D3
:10E20000347C0100407C01004C7C0100587C010002
:10E21000647C0100707C01007C7C0100887C010032
:10E22000947C0100A07C0100AC7C0100B87C010062
:10E23000C47C0100D07C0100DC7C0100E87C010092
:10E24000F47C0100007D01000C7D0100187D0100BF
:10E25000247D0100307D01003C7D0100487D0100EE
:10E26000547D0100607D01006C7D0100787D01001E
:10E27000847D0100907D01009C7D0100A87D01004E
:10E28000B47D0100C07D0100CC7D0100D87D01007E
:10E29000E47D0100F07D0100FC7D0100087E0100AD
:10E2A000147E0100207E01002C7E0100387E0100DA
:10E2B000447E0100507E01005C7E0100687E01000A
:10E2C000747E0100807E01008C7E0100987E01003A
:10E2D000A47E0100B07E0100BC7E0100C87E01006A
:10E2E000D47E0100E07E0100EC7E0100F87E01009A
:10E2F000047F0100107F01001C7F0100287F0100C6
:10E30000347F0100407F01004C7F0100587F0100F5
:10E31000647F0100707F01007C7F0100887F010025
:10E32000947F0100A07F0100AC7F0100B87F010055
:10E33000C47F0100D07F0100DC7F0100E87F010085
:10E34000F47F0100008001000C80010018800100B2
:10E3500024800100308001003C80010048800100E1
:10E3600054800100608001006C8001007880010011
:10E3700084800100908001009C800100A880010041
:10E38000B4800100C0800100CC800100D880010071
:10E39000E4800100F0800100FC80010008810100A0
:10E3A00014810100208101002C81010038810100CD
:10E3B00044810100508101005C81010068810100FD
:10E3C00074810100808101008C810100988101002D
:10E3D000A4810100B0810100BC810100C88101005D
:10E3E000D4810100E0810100EC810100F88101008D
:10E3F00004820100108201001C82010028820100B9
:10E4000034820100408201004C82010058820100E8
:10E4100064820100708201007C8201008882010018
:10E4200094820100A0820100AC820100B882010048
:10E43000C4820100D0820100DC820100E882010078
:10E44000F4820100008301000C83010018830100A5
:10E4500024830100308301003C83010048830100D4
:10E4600054830100608301006C8301007883010004
:10E4700084830100908301009C830100A883010034
:10E48000B4830100C0830100CC830100D883010064
:10E49000E4830100F0830100FC8301000884010093
:10E4A00014840100208401002C84010038840100C0
:10E4B00044840100508401005C84010068840100F0
:10E4C00074840100808401008C8401009884010020
:10E4D000A4840100B0840100BC840100C884010050
:10E4E000D4840100E0840100EC840100F884010080
:10E4F00004850100108501001C85010028850100AC
:10E5000034850100408501004C85010058850100DB
:10E5100064850100708501007C850100888501000B
:10E5200094850100A0850100AC850100B88501003B
:10E53000C4850100D0850100DC850100E88501006B
:10E54000F4850100008601000C8601001886010098
:10E5500024860100308601003C86010048860100C7
:10E5600054860100608601006C86010078860100F7
:10E5700084860100908601009C860100A886010027
:10E58000B4860100C0860100CC860100D886010057
:10E59000E4860100F0860100FC8601000887010086
:10E5A00014870100208701002C87010038870100B3
:10E5B00044870100508701005C87010068870100E3
:10E5C00074870100808701008C8701009887010013
:10E5D000A4870100B0870100BC870100C887010043
:10E5E000D4870100E0870100EC870100F887010073
:10E5F00004880100108801001C880100288801009F
:10E6000034880100408801004C88010058880100CE
:10E6100064880100708801007C88010088880100FE
:10E6200094880100A0880100AC880100B88801002E
:10E63000C4880100D0880100DC880100E88801005E
:10E64000F4880100008901000C890100188901008B
:10E6500024890100308901003C89010048890100BA
:10E6600054890100608901006C89010078890100EA
:10E6700084890100908901009C890100A88901001A
:10E68000B4890100C0890100CC890100D88901004A
:10E69000E4890100F0890100FC890100088A010079
:10E6A000148A0100208A01002C8A0100388A0100A6
:10E6B000448A0100508A01005C8A0100688A0100D6
:10E6C000748A0100808A01008C8A0100988A010006
:10E6D000A48A0100B08A0100BC8A0100C88A010036
:10E6E000D48A0100E08A0100EC8A0100F88A010066
:10E6F000048B0100108B01001C8B0100288B010092
:10E70000348B0100408B01004C8B0100588B0100C1
:10E71000648B0100708B01007C8B0100888B0100F1
:10E72000948B0100A08B0100AC8B0100B88B010021
:10E73000C48B0100D08B0100DC8B0100E88B010051
:10E74000F48B0100008C01000C8C0100188C01007E
:10E75000248C0100308C01003C8C0100488C0100AD
:10E76000548C0100608C01006C8C0100788C0100DD
:10E77000848C0100908C01009C8C0100A88C01000D
:10E78000B48C0100C08C0100CC8C0100D88C01003D
:10E79000E48C0100F08C0100FC8C0100088D01006C
:10E7A000148D0100208D01002C8D0100388D010099
:10E7B000448D0100508D01005C8D0100688D0100C9
:10E7C000748D0100808D01008C8D0100988D0100F9
:10E7D000A48D0100B08D0100BC8D0100C88D010029
:10E7E000D48D0100E08D0100EC8D0100F88D010059
:10E7F000048E0100108E01001C8E0100288E010085
:10E80000348E0100408E01004C8E0100588E0100B4
:10E81000648E0100708E01007C8E0100888E0100E4
:10E82000948E0100A08E0100AC8E0100B88E010014
:10E83000C48E0100D08E0100DC8E0100E88E010044
:10E84000F48E0100008F01000C8F0100188F010071
:10E85000248F0100308F01003C8F0100488F0100A0
:10E86000548F0100608F01006C8F0100788F0100D0
:10E87000848F0100908F01009C8F0100A88F010000
:10E88000B48F0100C08F0100CC8F0100D88F010030
:10E89000E48F0100F08F0100FC8F0100089001005F
:10E8A00014900100209001002C900100389001008C
:10E8B00044900100509001005C90010068900100BC
:10E8C00074900100809001008C90010098900100EC
:10E8D000A4900100B0900100BC900100C89001001C
:10E8E000D4900100E0900100EC900100F89001004C
:10E8F00004910100109101001C9101002891010078
:10E9000034910100409101004C91010058910100A7
:10E9100064910100709101007C91010088910100D7
:10E9200094910100A0910100AC910100B891010007
:10E93000C4910100D0910100DC910100E891010037
:10E94000F4910100009201000C9201001892010064
:10E9500024920100309201003C9201004892010093
:10E9600054920100609201006C92010078920100C3
:10E9700084920100909201009C920100A8920100F3
:10E98000B4920100C0920100CC920100D892010023
:10E99000E4920100F0920100FC9201000893010052
:10E9A00014930100209301002C930100389301007F
:10E9B00044930100509301005C93010068930100AF
:10E9C00074930100809301008C93010098930100DF
:10E9D000A4930100B0930100BC930100C89301000F
:10E9E000D4930100E0930100EC930100F89301003F
:10E9F00004940100109401001C940100289401006B
:10EA000034940100409401004C940100589401009A
:10EA100064940100709401007C94010088940100CA
:10EA200094940100A0940100AC940100B8940100FA
:10EA3000C4940100D0940100DC940100E89401002A
:10EA4000F4940100009501000C9501001895010057
:10EA500024950100309501003C9501004895010086
:10EA600054950100609501006C95010078950100B6
:10EA700084950100909501009C950100A8950100E6
:10EA8000B4950100C0950100CC950100D895010016
:10EA9000E4950100F0950100FC9501000896010045
:10EAA00014960100209601002C9601003896010072
:10EAB00044960100509601005C96010068960100A2
:10EAC00074960100809601008C96010098960100D2
:10EAD000A4960100B0960100BC960100C896010002
:10EAE000D4960100E0960100EC960100F896010032
:10EAF00004970100109701001C970100289701005E
:10EB000034970100409701004C970100589701008D
:10EB100064970100709701007C97010088970100BD
:10EB200094970100A0970100AC970100B8970100ED
:10EB3000C4970100D0970100DC970100E89701001D
:10EB4000F4970100009801000C980100189801004A
:10EB500024980100309801003C9801004898010079
:10EB600054980100609801006C98010078980100A9
:10EB700084980100909801009C980100A8980100D9
:10EB8000B4980100C0980100CC980100D898010009
:10EB9000E4980100F0980100FC9801000899010038
:10EBA00014990100209901002C9901003899010065
:10EBB00044990100509901005C9901006899010095
:10EBC00074990100809901008C99010098990100C5
:10EBD000A4990100B0990100BC990100C8990100F5
:10EBE000D4990100E0990100EC990100F899010025
:10EBF000049A0100109A01001C9A0100289A010051
:10EC0000349A0100409A01004C9A0100589A010080
:10EC1000649A0100709A01007C9A0100889A0100B0
:10EC2000949A0100A09A0100AC9A0100B89A0100E0
:10EC3000C49A0100D09A0100DC9A0100E89A010010
:10EC4000F49A0100009B01000C9B0100189B01003D
:10EC5000249B0100309B01003C9B0100489B01006C
:10EC6000549B0100609B01006C9B0100789B01009C
:10EC7000849B0100909B01009C9B0100A89B0100CC
:10EC8000B49B0100C09B0100CC9B0100D89B0100FC
:10EC9000E49B0100F09B0100FC9B0100089C01002B
:10ECA000149C0100209C01002C9C0100389C010058
:10ECB000449C0100509C01005C9C0100689C010088
:10ECC000749C0100809C01008C9C0100989C0100B8
:10ECD000A49C0100B09C0100BC9C0100C89C0100E8
:10ECE000D49C0100E09C0100EC9C0100F89C010018
:10ECF000049D0100109D01001C9D0100289D010044
:10ED0000349D0100409D01004C9D0100589D010073
:10ED1000649D0100709D01007C9D0100889D0100A3
:10ED2000949D0100A09D0100AC9D0100B89D0100D3
:10ED3000C49D0100D09D0100DC9D0100E89D010003
:10ED4000F49D0100009E01000C9E0100189E010030
:10ED5000249E0100309E01003C9E0100489E01005F
:10ED6000549E0100609E01006C9E0100789E01008F
:10ED7000849E0100909E01009C9E0100A89E0100BF
:10ED8000B49E0100C09E0100CC9E0100D89E0100EF
:10ED9000E49E0100F09E0100FC9E0100089F01001E
:10EDA000149F0100209F01002C9F0100389F01004B
:10EDB000449F0100509F01005C9F0100689F01007B
:10EDC000749F0100809F01008C9F0100989F0100AB
:10EDD000A49F0100B09F0100BC9F0100C89F0100DB
:10EDE000D49F0100E09F0100EC9F0100F89F01000B
:10EDF00004A0010010A001001CA0010028A0010037
:10EE000034A0010040A001004CA0010058A0010066
:10EE100064A0010070A001007CA0010088A0010096
:10EE200094A00100A0A00100ACA00100B8A00100C6
:10EE3000C4A00100D0A00100DCA00100E8A00100F6
:10EE4000F4A0010000A101000CA1010018A1010023
:10EE500024A1010030A101003CA1010048A1010052
:10EE600054A1010060A101006CA1010078A1010082
:10EE700084A1010090A101009CA10100A8A10100B2
:10EE8000B4A10100C0A10100CCA10100D8A10100E2
:10EE9000E4A10100F0A10100FCA1010008A2010011
:10EEA00014A2010020A201002CA2010038A201003E
:10EEB00044A2010050A201005CA2010068A201006E
:10EEC00074A2010080A201008CA2010098A201009E
:10EED000A4A20100B0A20100BCA20100C8A20100CE
:10EEE000D4A20100E0A20100ECA20100F8A20100FE
:10EEF00004A3010010A301001CA3010028A301002A
:10EF000034A3010040A301004CA3010058A3010059
:10EF100064A3010070A301007CA3010088A3010089
:10EF200094A30100A0A30100ACA30100B8A30100B9
:10EF3000C4A30100D0A30100DCA30100E8A30100E9
:10EF4000F4A3010000A401000CA4010018A4010016
:10EF500024A4010030A401003CA4010048A4010045
:10EF600054A4010060A401006CA4010078A4010075
:10EF700084A4010090A401009CA40100A8A40100A5
:10EF8000B4A40100C0A40100CCA40100D8A40100D5
:10EF9000E4A40100F0A40100FCA4010008A5010004
:10EFA00014A5010020A501002CA5010038A5010031
:10EFB00044A5010050A501005CA5010068A5010061
:10EFC00074A5010080A501008CA5010098A5010091
:10EFD000A4A50100B0A50100BCA50100C8A50100C1
:10EFE000D4A50100E0A50100ECA50100F8A50100F1
:10EFF00004A6010010A601001CA6010028A601001D
:10F0000034A6010040A601004CA6010058A601004C
:10F0100064A6010070A601007CA6010088A601007C
:10F0200094A60100A0A60100ACA60100B8A60100AC
:10F03000C4A60100D0A60100DCA60100E8A60100DC
:10F04000F4A6010000A701000CA7010018A7010009
:10F0500024A7010030A701003CA7010048A7010038
:10F0600054A7010060A701006CA7010078A7010068
:10F0700084A7010090A701009CA70100A8A7010098
:10F08000B4A70100C0A70100CCA70100D8A70100C8
:10F09000E4A70100F0A70100FCA7010008A80100F7
:10F0A00014A8010020A801002CA8010038A8010024
:10F0B00044A8010050A801005CA8010068A8010054
:10F0C00074A8010080A801008CA8010098A8010084
:10F0D000A4A80100B0A80100BCA80100C8A80100B4
:10F0E000D4A80100E0A80100ECA80100F8A80100E4
:10F0F00004A9010010A901001CA9010028A9010010
:10F1000034A9010040A901004CA9010058A901003F
:10F1100064A9010070A901007CA9010088A901006F
:10F1200094A90100A0A90100ACA90100B8A901009F
:10F13000C4A90100D0A90100DCA90100E8A90100CF
:10F14000F4A9010000AA01000CAA010018AA0100FC
:10F1500024AA010030AA01003CAA010048AA01002B
:10F1600054AA010060AA01006CAA010078AA01005B
:10F1700084AA010090AA01009CAA0100A8AA01008B
:10F18000B4AA0100C0AA0100CCAA0100D8AA0100BB
:10F19000E4AA0100F0AA0100FCAA010008AB0100EA
:10F1A00014AB010020AB01002CAB010038AB010017
:10F1B00044AB010050AB01005CAB010068AB010047
:10F1C00074AB010080AB01008CAB010098AB010077
:10F1D000A4AB0100B0AB0100BCAB0100C8AB0100A7
:10F1E000D4AB0100E0AB0100ECAB0100F8AB0100D7
:10F1F00004AC010010AC01001CAC010028AC010003
:10F2000034AC010040AC01004CAC010058AC010032
:10F2100064AC010070AC01007CAC010088AC010062
:10F2200094AC0100A0AC0100ACAC0100B8AC010092
:10F23000C4AC0100D0AC0100DCAC0100E8AC0100C2
:10F24000F4AC010000AD01000CAD010018AD0100EF
:10F2500024AD010030AD01003CAD010048AD01001E
:10F2600054AD010060AD01006CAD010078AD01004E
:10F2700084AD010090AD01009CAD0100A8AD01007E
:10F28000B4AD0100C0AD0100CCAD0100D8AD0100AE
:10F29000E4AD0100F0AD0100FCAD010008AE0100DD
:10F2A00014AE010020AE01002CAE010038AE01000A
:10F2B00044AE010050AE01005CAE010068AE01003A
:10F2C00074AE010080AE01008CAE010098AE01006A
:10F2D000A4AE0100B0AE0100BCAE0100C8AE01009A
:10F2E000D4AE0100E0AE0100ECAE0100F8AE0100CA
:10F2F00004AF010010AF01001CAF010028AF0100F6
:10F3000034AF010040AF01004CAF010058AF010025
:10F3100064AF010070AF01007CAF010088AF010055
:10F3200094AF0100A0AF0100ACAF0100B8AF010085
:10F33000C4AF0100D0AF0100DCAF0100E8AF0100B5
:10F34000F4AF010000B001000CB0010018B00100E2
:10F3500024B0010030B001003CB0010048B0010011
:10F3600054B0010060B001006CB0010078B0010041
:10F3700084B0010090B001009CB00100A8B0010071
:10F38000B4B00100C0B00100CCB00100D8B00100A1
:10F39000E4B00100F0B00100FCB0010008B10100D0
:10F3A00014B1010020B101002CB1010038B10100FD
:10F3B00044B1010050B101005CB1010068B101002D
:10F3C00074B1010080B101008CB1010098B101005D
:10F3D000A4B10100B0B10100BCB10100C8B101008D
:10F3E000D4B10100E0B10100ECB10100F8B10100BD
:10F3F00004B2010010B201001CB2010028B20100E9
:10F4000034B2010040B201004CB2010058B2010018
:10F4100064B2010070B201007CB2010088B2010048
:10F4200094B20100A0B20100ACB20100B8B2010078
:10F43000C4B20100D0B20100DCB20100E8B20100A8
:10F44000F4B2010000B301000CB3010018B30100D5
:10F4500024B3010030B301003CB3010048B3010004
:10F4600054B3010060B301006CB3010078B3010034
:10F4700084B3010090B301009CB30100A8B3010064
:10F48000B4B30100C0B30100CCB30100D8B3010094
:10F49000E4B30100F0B30100FCB3010008B40100C3
:10F4A00014B4010020B401002CB4010038B40100F0
:10F4B00044B4010050B401005CB4010068B4010020
:10F4C00074B4010080B401008CB4010098B4010050
:10F4D000A4B40100B0B40100BCB40100C8B4010080
:10F4E000D4B40100E0B40100ECB40100F8B40100B0
:10F4F00004B5010010B501001CB5010028B50100DC
:10F5000034B5010040B501004CB5010058B501000B
:10F5100064B5010070B501007CB5010088B501003B
:10F5200094B50100A0B50100ACB50100B8B501006B
:10F53000C4B50100D0B50100DCB50100E8B501009B
:10F54000F4B5010000B601000CB6010018B60100C8
:10F5500024B6010030B601003CB6010048B60100F7
:10F5600054B6010060B601006CB6010078B6010027
:10F5700084B6010090B601009CB60100A8B6010057
:10F58000B4B60100C0B60100CCB60100D8B6010087
:10F59000E4B60100F0B60100FCB6010008B70100B6
:10F5A00014B7010020B701002CB7010038B70100E3
:10F5B00044B7010050B701005CB7010068B7010013
:10F5C00074B7010080B701008CB7010098B7010043
:10F5D000A4B70100B0B70100BCB70100C8B7010073
:10F5E000D4B70100E0B70100ECB70100F8B70100A3
:10F5F00004B8010010B801001CB8010028B80100CF
:10F6000034B8010040B801004CB8010058B80100FE
:10F6100064B8010070B801007CB8010088B801002E
:10F6200094B80100A0B80100ACB80100B8B801005E
:10F63000C4B80100D0B80100DCB80100E8B801008E
:10F64000F4B8010000B901000CB9010018B90100BB
:10F6500024B9010030B901003CB9010048B90100EA
:10F6600054B9010060B901006CB9010078B901001A
:10F6700084B9010090B901009CB90100A8B901004A
:10F68000B4B90100C0B90100CCB90100D8B901007A
:10F69000E4B90100F0B90100FCB9010008BA0100A9
:10F6A00014BA010020BA01002CBA010038BA0100D6
:10F6B00044BA010050BA01005CBA010068BA010006
:10F6C00074BA010080BA01008CBA010098BA010036
:10F6D000A4BA0100B0BA0100BCBA0100C8BA010066
:10F6E000D4BA0100E0BA0100ECBA0100F8BA010096
:10F6F00004BB010010BB01001CBB010028BB0100C2
:10F7000034BB010040BB01004CBB010058BB0100F1
:10F7100064BB010070BB01007CBB010088BB010021
:10F7200094BB0100A0BB0100ACBB0100B8BB010051
:10F73000C4BB0100D0BB0100DCBB0100E8BB010081
:10F74000F4BB010000BC01000CBC010018BC0100AE
:10F7500024BC010030BC01003CBC010048BC0100DD
:10F7600054BC010060BC01006CBC010078BC01000D
:10F7700084BC010090BC01009CBC0100A8BC01003D
:10F78000B4BC0100C0BC0100CCBC0100D8BC01006D
:10F79000E4BC0100F0BC0100FCBC010008BD01009C
:10F7A00014BD010020BD01002CBD010038BD0100C9
:10F7B00044BD010050BD01005CBD010068BD0100F9
:10F7C00074BD010080BD01008CBD010098BD010029
:10F7D000A4BD0100B0BD0100BCBD0100C8BD010059
:10F7E000D4BD0100E0BD0100ECBD0100F8BD010089
:10F7F00004BE010010BE01001CBE010028BE0100B5
:10F8000034BE010040BE01004CBE010058BE0100E4
:10F8100064BE010070BE01007CBE010088BE010014
:10F8200094BE0100A0BE0100ACBE0100B8BE010044
:10F83000C4BE0100D0BE0100DCBE0100E8BE010074
:10F84000F4BE010000BF01000CBF010018BF0100A1
:10F8500024BF010030BF01003CBF010048BF0100D0
:10F8600054BF010060BF01006CBF010078BF010000
:10F8700084BF010090BF01009CBF0100A8BF010030
:10F88000B4BF0100C0BF0100CCBF0100D8BF010060
:10F89000E4BF0100F0BF0100FCBF010008C001008F
:10F8A00014C0010020C001002CC0010038C00100BC
:10F8B00044C0010050C001005CC0010068C00100EC
:10F8C00074C0010080C001008CC0010098C001001C
:10F8D000A4C00100B0C00100BCC00100C8C001004C
:10F8E000D4C00100E0C00100ECC00100F8C001007C
:10F8F00004C1010010C101001CC1010028C10100A8
:10F9000034C1010040C101004CC1010058C10100D7
:10F9100064C1010070C101007CC1010088C1010007
:10F9200094C10100A0C10100ACC10100B8C1010037
:10F93000C4C10100D0C10100DCC10100E8C1010067
:10F94000F4C1010000C201000CC2010018C2010094
:10F9500024C2010030C201003CC2010048C20100C3
:10F9600054C2010060C201006CC2010078C20100F3
:10F9700084C2010090C201009CC20100A8C2010023
:10F98000B4C20100C0C20100CCC20100D8C2010053
:10F99000E4C20100F0C20100FCC2010008C3010082
:10F9A00014C3010020C301002CC3010038C30100AF
:10F9B00044C3010050C301005CC3010068C30100DF
:10F9C00074C3010080C301008CC3010098C301000F
:10F9D000A4C30100B0C30100BCC30100C8C301003F
:10F9E000D4C30100E0C30100ECC30100F8C301006F
:10F9F00004C4010010C401001CC4010028C401009B
:10FA000034C4010040C401004CC4010058C40100CA
:10FA100064C4010070C401007CC4010088C40100FA
:10FA200094C40100A0C40100ACC40100B8C401002A
:10FA3000C4C40100D0C40100DCC40100E8C401005A
:10FA4000F4C4010000C501000CC5010018C5010087
:10FA500024C5010030C501003CC5010048C50100B6
:10FA600054C5010060C501006CC5010078C50100E6
:10FA700084C5010090C501009CC50100A8C5010016
:10FA8000B4C50100C0C50100CCC50100D8C5010046
:10FA9000E4C50100F0C50100FCC5010008C6010075
:10FAA00014C6010020C601002CC6010038C60100A2
:10FAB00044C6010050C601005CC6010068C60100D2
:10FAC00074C6010080C601008CC6010098C6010002
:10FAD000A4C60100B0C60100BCC60100C8C6010032
:10FAE000D4C60100E0C60100ECC60100F8C6010062
:10FAF00004C7010010C701001CC7010028C701008E
:10FB000034C7010040C701004CC7010058C70100BD
:10FB100064C7010070C701007CC7010088C70100ED
:10FB200094C70100A0C70100ACC70100B8C701001D
:10FB3000C4C70100D0C70100DCC70100E8C701004D
:10FB4000F4C7010000C801000CC8010018C801007A
:10FB500024C8010030C801003CC8010048C80100A9
:10FB600054C8010060C801006CC8010078C80100D9
:10FB700084C8010090C801009CC80100A8C8010009
:10FB8000B4C80100C0C80100CCC80100D8C8010039
:10FB9000E4C80100F0C80100FCC8010008C9010068
:10FBA00014C9010020C901002CC9010038C9010095
:10FBB00044C9010050C901005CC9010068C90100C5
:10FBC00074C9010080C901008CC9010098C90100F5
:10FBD000A4C90100B0C90100BCC90100C8C9010025
:10FBE000D4C90100E0C90100ECC90100F8C9010055
:10FBF00004CA010010CA01001CCA010028CA010081
:10FC000034CA010040CA01004CCA010058CA0100B0
:10FC100064CA010070CA01007CCA010088CA0100E0
:10FC200094CA0100A0CA0100ACCA0100B8CA010010
:10FC3000C4CA0100D0CA0100DCCA0100E8CA010040
:10FC4000F4CA010000CB01000CCB010018CB01006D
:10FC500024CB010030CB01003CCB010048CB01009C
:10FC600054CB010060CB01006CCB010078CB0100CC
:10FC700084CB010090CB01009CCB0100A8CB0100FC
:10FC8000B4CB0100C0CB0100CCCB0100D8CB01002C
:10FC9000E4CB0100F0CB0100FCCB010008CC01005B
:10FCA00014CC010020CC01002CCC010038CC010088
:10FCB00044CC010050CC01005CCC010068CC0100B8
:10FCC00074CC010080CC01008CCC010098CC0100E8
:10FCD000A4CC0100B0CC0100BCCC0100C8CC010018
:10FCE000D4CC0100E0CC0100ECCC0100F8CC010048
:10FCF00004CD010010CD01001CCD010028CD010074
:10FD000034CD010040CD01004CCD010058CD0100A3
:10FD100064CD010070CD01007CCD010088CD0100D3
:10FD200094CD0100A0CD0100ACCD0100B8CD010003
:10FD3000C4CD0100D0CD0100DCCD0100E8CD010033
:10FD4000F4CD010000CE01000CCE010018CE010060
:10FD500024CE010030CE01003CCE010048CE01008F
:10FD600054CE010060CE01006CCE010078CE0100BF
:10FD700084CE010090CE01009CCE0100A8CE0100EF
:10FD8000B4CE0100C0CE0100CCCE0100D8CE01001F
:10FD9000E4CE0100F0CE0100FCCE010008CF01004E
:10FDA00014CF010020CF01002CCF010038CF01007B
:10FDB00044CF010050CF01005CCF010068CF0100AB
:10FDC00074CF010080CF01008CCF010098CF0100DB
:10FDD000A4CF0100B0CF0100BCCF0100C8CF01000B
:10FDE000D4CF0100E0CF0100ECCF0100F8CF01003B
:10FDF00004D0010010D001001CD0010028D0010067
:10FE000034D0010040D001004CD0010058D0010096
:10FE100064D0010070D001007CD0010088D00100C6
:10FE200094D00100A0D00100ACD00100B8D00100F6
:10FE3000C4D00100D0D00100DCD00100E8D0010026
:10FE4000F4D0010000D101000CD1010018D1010053
:10FE500024D1010030D101003CD1010048D1010082
:10FE600054D1010060D101006CD1010078D10100B2
:10FE700084D1010090D101009CD10100A8D10100E2
:10FE8000B4D10100C0D10100CCD10100D8D1010012
:10FE9000E4D10100F0D10100FCD1010008D2010041
:10FEA00014D2010020D201002CD2010038D201006E
:10FEB00044D2010050D201005CD2010068D201009E
:10FEC00074D2010080D201008CD2010098D20100CE
:10FED000A4D20100B0D20100BCD20100C8D20100FE
:10FEE000D4D20100E0D20100ECD20100F8D201002E
:10FEF00004D3010010D301001CD3010028D301005A
:10FF000034D3010040D301004CD3010058D3010089
:10FF100064D3010070D301007CD3010088D30100B9
:10FF200094D30100A0D30100ACD30100B8D30100E9
:10FF3000C4D30100D0D30100DCD30100E8D3010019
:10FF4000F4D3010000D401000CD4010018D4010046
:10FF500024D4010030D401003CD4010048D4010075
:10FF600054D4010060D401006CD4010078D40100A5
:10FF700084D4010090D401009CD40100A8D40100D5
:10FF8000B4D40100C0D40100CCD40100D8D4010005
:10FF9000E4D40100F0D40100FCD4010008D5010034
:10FFA00014D5010020D501002CD5010038D5010061
:10FFB00044D5010050D501005CD5010068D5010091
:10FFC00074D5010080D501008CD5010098D50100C1
:10FFD000A4D50100B0D50100BCD50100C8D50100F1
:10FFE000D4D50100E0D50100ECD50100F8D5010021
:10FFF00004D6010010D601001CD6010028D601004D
:020000040001F9
:1000000034D6010040D601004CD6010058D601007C
:1000100064D6010070D601007CD6010088D60100AC
:1000200094D60100A0D60100ACD60100B8D60100DC
:10003000C4D60100D0D60100DCD60100E8D601000C
:10004000F4D6010000D701000CD7010018D7010039
:1000500024D7010030D701003CD7010048D7010068
:1000600054D7010060D701006CD7010078D7010098
:1000700084D7010090D701009CD70100A8D70100C8
:10008000B4D70100C0D70100CCD70100D8D70100F8
:10009000E4D70100F0D70100FCD7010008D8010027
:1000A00014D8010020D801002CD8010038D8010054
:1000B00044D8010050D801005CD8010068D8010084
:1000C00074D8010080D801008CD8010098D80100B4
:1000D000A4D80100B0D80100BCD80100C8D80100E4
:1000E000D4D80100E0D80100ECD80100F8D8010014
:1000F00004D9010010D901001CD9010028D9010040
:1001000034D9010040D901004CD9010058D901006F
:1001100064D9010070D901007CD9010088D901009F
:1001200094D90100A0D90100ACD90100B8D90100CF
:10013000C4D90100D0D90100DCD90100E8D90100FF
:10014000F4D9010000DA01000CDA010018DA01002C
:1001500024DA010030DA01003CDA010048DA01005B
:1001600054DA010060DA01006CDA010078DA01008B
:1001700084DA010090DA01009CDA0100A8DA0100BB
:10018000B4DA0100C0DA0100CCDA0100D8DA0100EB
:10019000E4DA0100F0DA0100FCDA010008DB01001A
:1001A00014DB010020DB01002CDB010038DB010047
:1001B00044DB010050DB01005CDB010068DB010077
:1001C00074DB010080DB01008CDB010098DB0100A7
:1001D000A4DB0100B0DB0100BCDB0100C8DB0100D7
:1001E000D4DB0100E0DB0100ECDB0100F8DB010007
:1001F00004DC010010DC01001CDC010028DC010033
:1002000034DC010040DC01004CDC010058DC010062
:1002100064DC010070DC01007CDC010088DC010092
:1002200094DC0100A0DC0100ACDC0100B8DC0100C2
:10023000C4DC0100D0DC0100DCDC0100E8DC0100F2
:10024000F4DC010000DD01000CDD010018DD01001F
:1002500024DD010030DD01003CDD010048DD01004E
:1002600054DD010060DD01006CDD010078DD01007E
:1002700084DD010090DD01009CDD0100A8DD0100AE
:10028000B4DD0100C0DD0100CCDD0100D8DD0100DE
:10029000E4DD0100F0DD0100FCDD010008DE01000D
:1002A00014DE010020DE01002CDE010038DE01003A
:1002B00044DE010050DE01005CDE010068DE01006A
:1002C00074DE010080DE01008CDE010098DE01009A
:1002D000A4DE0100B0DE0100BCDE0100C8DE0100CA
:1002E000D4DE0100E0DE0100ECDE0100F8DE0100FA
:1002F00004DF010010DF01001CDF010028DF010026
:1003000034DF010040DF01004CDF010058DF010055
:1003100064DF010070DF01007CDF010088DF010085
:1003200094DF0100A0DF0100ACDF0100B8DF0100B5
:10033000C4DF0100D0DF0100DCDF0100E8DF0100E5
:10034000F4DF010000E001000CE0010018E0010012
:1003500024E0010030E001003CE0010048E0010041
:1003600054E0010060E001006CE0010078E0010071
:1003700084E0010090E001009CE00100A8E00100A1
:10038000B4E00100C0E00100CCE00100D8E00100D1
:10039000E4E00100F0E00100FCE0010008E1010000
:1003A00014E1010020E101002CE1010038E101002D
:1003B00044E1010050E101005CE1010068E101005D
:1003C00074E1010080E101008CE1010098E101008D
:1003D000A4E10100B0E10100BCE10100C8E10100BD
:1003E000D4E10100E0E10100ECE10100F8E10100ED
:1003F00004E2010010E201001CE2010028E2010019
:1004000034E2010040E201004CE2010058E2010048
:1004100064E2010070E201007CE2010088E2010078
:1004200094E20100A0E20100ACE20100B8E20100A8
:10043000C4E20100D0E20100DCE20100E8E20100D8
:10044000F4E2010000E301000CE3010018E3010005
:1004500024E3010030E301003CE3010048E3010034
:1004600054E3010060E301006CE3010078E3010064
:1004700084E3010090E301009CE30100A8E3010094
:10048000B4E30100C0E30100D3750400D375040098
:10049000D3750400D3750400D3750400D37504002C
:1004A000D3750400D3750400D3750400D37504001C
:1004B000D3750400D3750400D3750400D37504000C
:1004C000D3750400D3750400D3750400D3750400FC
:1004D000D3750400D3750400D3750400D3750400EC
:1004E000D3750400D3750400D3750400D3750400DC
:1004F000D3750400D3750400D3750400D3750400CC
:10050000D3750400D3750400D3750400D3750400BB
:10051000D3750400D3750400D3750400D3750400AB
:10052000D3750400D3750400D3750400D37504009B
:10053000D3750400D3750400D3750400D37504008B
:10054000D3750400D3750400D3750400D37504007B
:10055000D3750400D3750400D3750400D37504006B
:10056000D3750400D3750400D3750400D37504005B
:10057000D3750400D3750400D3750400D37504004B
:10058000D3750400D3750400D3750400D37504003B
:10059000D3750400D3750400D3750400D37504002B
:1005A000D3750400D3750400D3750400D37504001B
:1005B000D3750400D3750400D3750400D37504000B
:1005C000D3750400D3750400D3750400D3750400FB
:1005D000D3750400D3750400D3750400D3750400EB
:1005E000D3750400D3750400D3750400D3750400DB
:1005F000D3750400D3750400D3750400D3750400CB
:10060000D3750400D3750400D3750400D3750400BA
:10061000D3750400D3750400D3750400D3750400AA
:10062000D3750400D3750400D3750400D37504009A
:10063000D3750400D3750400D27204005D68040011
:10064000165E040005540400234A04006E400400B2
:10065000E0360400802D040046240400331B04000F
:100660004E12040088090400F000040077F803002B
:100670001CF00300F0E70300DBDF0300ECD703000E
:100680001CD003006BC80300E0C003006CB903007A
:1006900018B20300DAAA0300C2A30300BA9C030045
:1006A000D99503000E8F03005B880300BF81030010
:1006B000397B0300D3740300846E03004468030095
:1006C00022620300105C03001D5603003250030039
:1006D000654A0300A8440300023F03007339030086
:1006E000F3330300832E030022290300D8230300E1
:1006F000A51E03007A19030066140300620F0300AD
:100700006C0A030087050300B0000300E9FB020048
:1007100031F7020089F20200F0ED020067E9020001
:10072000E5E402007AE0020017DC0200C3D7020011
:1007300077D302003BCF02000DCB0200F0C60200CF
:10074000D9C20200CBBE0200CCBA0200DCB6020065
:10075000F4B202001CAF02004BAB020081A7020002
:10076000C8A3020015A002006B9C0200D0980200F2
:100770003C950200B1910200348E0200C08A020052
:1007800053870200EE83020090800200427D020047
:10079000F4790200B57602007E7302004F70020009
:1007A000276D0200076A0200F6660200E663020097
:1007B000DD600200DC5D0200E25A0200F057020038
:1007C0000655020024520200494F0200764C0200F6
:1007D000AA490200E74602002344020067410200E2
:1007E000BA3E02000E3C020069390200C436020023
:1007F0002E340200993102000B2F0200852C0200DA
:10080000FF2902008827020011250200A22202000F
:10081000332002006C1B0200B41602000C1202000E
:10082000730D0200E208020068040200FDFF0100EF
:10083000A1FB01004EF7010011F30100DCEE010005
:10084000B7EA010099E6010092E2010093DE01009F
:100850009CDA0100BBD60100DBD2010012CF0100FF
:1008600050CB010096C70100ECC3010051C001004C
:10087000BDBC010032B90100B5B5010041B20100B3
:10088000D4AE010076AB010020A80100D2A4010083
:1008900094A101005C9E01002D9B010005980100C0
:1008A000ED940100D5910100CC8E0100CB8B0100AD
:1008B000D1880100E7850100FD820100228001004E
:1008C000477D01007C7A0100B0770100F4740100DB
:1008D000387201008C6F0100DF6C0100426A010078
:1008E000A56701001765010089620100036001002E
:1008F000845D01000E5B01009F580100305601002D
:10090000D053010070510100184F0100C84C010084
:100910007F4A01003E480100FD450100C44301003B
:1009200093410100613F01003F3D01001D3B01007B
:10093000FB380100E8360100D5340100CA3201005D
:10094000BF300100BC2E0100C02C0100CC2A0100E8
:10095000D8280100EC260100FF2401001B23010020
:100960003E210100611F01008C1D0100B61B01002A
:10097000E91901001B180100551601009714010028
:10098000D9120100231101006C0F0100BD0D0100FF
:100990000F0C0100680A0100C808010021070100CE
:1009A00089050100F20301005A020100CA0001009A
:1009B0003AFF0000B2FD000029FC0000A9FA000087
:1009C00028F90000A8F700002FF60000BDF4000091
:1009D0004CF30000DBF1000071F0000008EF0000B4
:1009E0009EED00003CEC0000E2EA000088E9000017
:1009F0002EE80000D4E6000081E500002FE40000AE
:100A0000E4E2000099E100004FE000000CDF00008C
:100A1000C8DD00008DDC000052DB000016DA0000AB
:100A2000DBD80000A7D7000074D6000048D500002E
:100A30001CD40000F0D20000C4D100009FD0000000
:100A40007BCF00005ECE00003ACD00001DCC000040
:100A500008CB0000ECC90000D7C80000C2C70000E6
:100A6000B5C60000A8C500009AC400008DC30000F0
:100A700088C2000082C100007CC0000077BF000077
:100A800079BE00007BBD00007DBC000080BB000083
:100A900089BA000093B900009DB80000AFB700000C
:100AA000B8B60000CAB50000E3B40000F5B300001A
:100AB0000EB3000020B2000040B100005AB00000A8
:100AC00073AF000094AE0000B5AD00000508090842
:100AD0000C081008140817081B081F08230826080C
:100AE0002A082E083208350839083D08410844080C
:100AF00048084C084F08530857085B085E0862080E
:100B000066086A086D087108750879087C0880080D
:100B1000840887088B088F08930896089A089E080F
:100B2000A208A508A908AD08B108B408B808BC080F
:100B3000BF08C308C708CB08CE08D208D608DA0811
:100B4000DD08E108E508E908EC08F008F408F70812
:100B5000FB08FF08030906090A090E09120915090D
:100B600019091D092109240928092C092F0933090C
:100B700037093B093E09420946094A094D0951090D
:100B8000550959095C096009640967096B096F090E
:100B9000730976097A097E098209850989098D090F
:100BA0009109940998099C099F09A309A709AB0910
:100BB000AE09B209B609BA09BD09C109C509C90911
:100BC000CC09D009D409D709DB09DF09E309E60913
:100BD000EA09EE09F209F509F909FD09010A040A11
:100BE000080A0C0A0F0A130A170A1B0A1E0A220A0D
:100BF000260A2A0A2D0A310A350A390A3C0A400A0D
:100C0000440A470A4B0A4F0A530A560A5A0A5E0A0E
:100C1000620A650A690A6D0A710A740A780A7C0A0E
:100C20007F0A830A870A8B0A8E0A920A960A9A0A10
:100C30009D0AA10AA50AA90AAC0AB00AB40AB70A11
:100C4000BB0ABF0AC30AC60ACA0ACE0AD20AD50A12
:100C5000D90ADD0AE10AE40AA70EA70EA70EA70E1D
:100C6000A70EA70EA70EA70EA70EA70EA70EA70EDC
:100C7000A70EDD0EF30E040F120F1F0F2B0F350FF3
:100C80003F0F480F510F590F610F690F700F770F0A
:100C90007E0F850F8B0F910F970F9D0FA30FA90F3D
:100CA000AE0FB40FB90FBE0FC30FC80FCD0FD20FC9
:100CB000D70FDC0FE00FE50FEA0FEE0FF20FF70F83
:100CC000FB0FFF0F031008100C1010101410181059
:100CD0001B101F10231027102B102E10321036104F
:100CE00039103D104010441047104B104E10521058
:100CF000551058105C105F106210661069106C106F
:100D00006F107210751079107C107F108210851092
:100D100088108B108E109110941097109A109C10C0
:100D20009F10A210A510A810AB10AD10B010B310FA
:100D3000B610B910BB10BE10C110C310C610C91038
:100D4000CB10CE10D110D310D610D810DB10DD1080
:100D5000E010E310E510E810EA10ED10EF10F210CB
:100D6000F410F610F910FB10FE100011031105111C
:100D700007110A110C110E1111111311151118116F
:100D80001A111C111F1121112311251128112A11CB
:100D90002C112E1131113311351137113A113C112B
:100DA0003E11401142114411471149114B114D118F
:100DB0004F1151115311551158115A115C115E11F7
:100DC000601162116411661168116A116C116E1163
:100DD000701172117411761178117A117C117E11D3
:100DE000801182118411861188118A118C110000E2
:100DF000C8210300CD210300D2210300D621030026
:100E0000DB210300E0210300E521030094AC020094
:100E10009A5402002E10020070D90100A9AC010002
:100E200059870100C6670100B74C01004535010034
:100E3000C1200100A80E010092FE00002EF000006B
:100E40003BE3000084D70000DECC000025C3000097
:100E50003DBA00000BB200007AAA00007AA300009D
:100E6000FB9C0000ED96000048910000008C000003
:100E70000E87000067820000087E0000E97900000C
:100E80000376000055720000D96E00008A6B0000E6
:100E9000666800006A65000091620000DC5F000087
:100EA000465D0000CD5A0000705800002E5600002C
:100EB00004540000EF510000F14F0000084E000004
:100EC000304C00006B4A0000B74800001347000098
:100ED0007E450000F84300007E4200001341000000
:100EE000B33F0000603E0000163D0000D83B00000C
:100EF000A43A00007939000058380000403700005B
:100F00002F36000027350000273400002D33000065
:100F10003B320000503100006B3000008C2F00008D
:100F2000B42E0000E12D0000132D00004B2C00001A
:100F3000892B0000CA2A0000112A00005D29000048
:100F4000AC2800000028000059270000B42600004B
:100F50001426000078250000E02400004A24000048
:100F6000B82300002A2300009D2200001522000063
:100F7000902100000C2100008C2000000F200000B8
:100F8000941F00001C1F0000A71E0000341E00005C
:100F9000C21D0000531D0000E71C00007C1C000067
:100FA000131C0000AD1B0000481B0000E61A0000E7
:100FB000851A0000261A0000C91900006D190000EA
:100FC00014190000BB18000065180000101800007C
:100FD000BB1700006A17000019170000C9160000AF
:100FE0007B1600002F160000E31500009915000085
:100FF0005015000008150000C21400007D14000008
:1010000039140000F5130000B31300007213000040
:1010100032130000F3120000B51200007712000036
:101020003C12000001120000C61100008D110000EA
:10103000541100001D110000E5100000AF10000069
:101040007A1000004510000012100000DF0F0000B1
:10105000AC0F00007B0F00004A0F00001A0F0000C9
:10106000EA0E0000BC0E00008E0E0000600E0000B4
:10107000330E0000070E0000DB0D0000B00D000075
:10108000860D00005B0D0000320D00000A0D00000F
:10109000E10C0000B90C0000920C00006B0C000089
:1010A000450C0000200C0000FB0B0000D50B0000DD
:1010B000B10B00008E0B00006A0B0000470B000014
:1010C000250B0000020B0000E10A0000C00A00002E
:1010D0009F0A00007F0A00005F0A0000400A00002B
:1010E000200A0000010A0000E3090000C409000012
:1010F000A70900008A0900006C09000050090000DF
:101100003409000017090000FC080000E108000095
:10111000C6080000AB080000910800007708000036
:101120005D080000450B00006E0C0000D30C0000B1
:10113000190D00004E0D0000780D00009A0D000002
:10114000B70D0000CE0D0000E30D0000F50D00000E
:10115000040E00000F0E00001A0E0000230E000007
:101160002A0E0000300E0000350E0000380E000080
:101170003B0E00003D0E00003D0E00003D0E000045
:101180003D0E00003C0E00003A0E0000380E00003C
:10119000350E0000310E00002E0E00002A0E000059
:1011A000250E0000210E00001C0E0000160E00008F
:1011B000110E00000B0E0000050E0000FE0D0000D9
:1011C000F80D0000F20D0000EA0D0000E30D000034
:1011D000DC0D0000D40D0000CD0D0000C60D000098
:1011E000BD0D0000B60D0000AE0D0000A50D000005
:1011F0009E0D0000960D00008E0D0000850D000074
:101200007C0D0000740D00006B0D0000630D0000EC
:101210005A0D0000510D0000490D0000400D000066
:10122000370D00002E0D0000260D00001D0D0000E2
:10123000130D00000B0D0000020D0000F90C000062
:10124000F00C0000E70C0000DE0C0000D50C0000E4
:10125000CD0C0000C30C0000BA0C0000B20C000062
:10126000A90C0000A00C0000970C00008E0C0000E0
:10127000850C00007C0C0000740C00006A0C00005F
:10128000620C0000590C0000500C0000480C0000DB
:101290003F0C0000360C00002E0C0000250C000056
:1012A0001D0C0000140C00000C0C0000030C0000CE
:1012B000FA0B0000F20B0000EA0B0000E10B00004B
:1012C000D90B0000D10B0000C80B0000C00B0000C0
:1012D000B80B0000B00B0000A70B00009F0B000034
:1012E000980B00008F0B0000870B0000800B0000A4
:1012F000770B00006F0B0000680B00005F0B000015
:10130000580B0000500B0000490B0000410B00007F
:10131000390B0000320B00002A0B0000220B0000EA
:101320001B0B0000130B00000C0B0000050B000052
:10133000FD0A0000F60A0000EF0A0000E70A0000BC
:10134000E00A0000D90A0000D20A0000CB0A00001F
:10135000C40A0000BD0A0000B50A0000AF0A000080
:10136000A80A0000A10A00009A0A0000940A0000DE
:101370008C0A0000860A00007F0A0000790A00003B
:10138000720A00006C0A0000650A00005E0A000094
:10139000580A0000520A00004B0A0000450A0000EB
:1013A0003F0A0000380A0000320A00002C0A000040
:1013B000260A0000200A00001A0A0000140A000091
:1013C0000D0A0000080A0000020A0000FC090000E3
:1013D000F6090000F0090000EA090000E509000034
:1013E000DF090000D9090000D3090000CE09000080
:1013F000C9090000C3090000BD090000B8090000C8
:10140000B2090000AD090000A8090000A20900000F
:101410009D09000098090000920900008D09000054
:1014200088090000840900007E0900007909000095
:10143000D90A0000D90A0000D90A0000D90A000020
:10144000D90A0000D90A0000D90A0000D90A000010
:10145000D90A0000D80A0000D80A0000D80A000003
:10146000D80A0000D70A0000D70A0000D70A0000F7
:10147000D60A0000D60A0000D60A0000D50A0000ED
:10148000D50A0000D40A0000D40A0000D40A0000E3
:10149000D20A0000D10A0000D10A0000D00A0000E0
:1014A000D00A0000CF0A0000CF0A0000CE0A0000D8
:1014B000CD0A0000CC0A0000CC0A0000CB0A0000D4
:1014C000CA0A0000C90A0000C90A0000C70A0000D1
:1014D000C60A0000C50A0000C40A0000C30A0000D2
:1014E000C20A0000C10A0000C00A0000BF0A0000D2
:1014F000BE0A0000BC0A0000BB0A0000BA0A0000D5
:10150000B90A0000B80A0000B70A0000B60A0000D5
:10151000B40A0000B30A0000B10A0000B00A0000DB
:10152000AF0A0000AD0A0000AC0A0000AB0A0000E0
:10153000A90A0000A80A0000A50A0000A40A0000E9
:10154000A30A0000A10A0000A00A00009E0A0000F1
:101550009D0A00009A0A0000980A0000970A0000FD
:10156000950A0000940A0000920A00008F0A000009
:101570008E0A00008C0A00008A0A0000880A000017
:10158000870A0000840A0000820A0000800A000026
:101590007E0A00007C0A00007A0A0000780A000037
:1015A000760A0000740A0000720A00006F0A000048
:1015B0006D0A00006B0A0000690A0000670A00005B
:1015C000640A0000610A00005F0A00005D0A000072
:1015D0005B0A0000580A0000560A0000530A000087
:1015E000510A00004E0A00004B0A0000490A0000A0
:1015F000470A0000430A0000410A00003F0A0000B9
:101600003C0A00003A0A0000360A0000340A0000D2
:10161000310A00002F0A00002B0A0000290A0000EE
:10162000260A0000240A0000200A00001D0A00000B
:101630001B0A0000170A0000150A0000120A000029
:101640000F0A00000B0A0000090A0000060A000049
:10165000030A0000FF090000FC090000FA0900006D
:10166000F6090000F3090000F0090000ED09000090
:10167000E9090000E6090000E3090000DF090000B5
:10168000DC090000D9090000D5090000D2090000DA
:10169000CF090000CC090000C8090000C4090000FF
:1016A000C1090000BD090000BA090000B709000027
:1016B000B3090000AF090000AC090000A809000050
:1016C000A4090000A10900009D090000990900007B
:1016D00096090000920900008E0900008B090000A5
:1016E0008609000083090000800900007B090000D2
:1016F00078090000740900006F0900006C090000FF
:101700006709000064090000600900005C0900002E
:101710005809000054090000500900004C0900005D
:101720004809000043090000400900003B0900008F
:1017300037090000330900002F0900002B090000C1
:1017400027090000220900001E09000019090000F5
:1017500016090000120900000D0900000909000027
:101760000409000000090000FC080000F708000060
:10177000F3080000EE080000EA080000E608000098
:10178000E1080000DD080000D8080000D3080000D0
:10179000CF080000CA080000C6080000C108000009
:1017A000BD080000B7080000B3080000AF08000043
:1017B000AA080000A6080000A00800009C0800007D
:1017C00098080000920800008E08000089080000B8
:1017D000840800007F0800007B08000075080000F6
:1017E000710800006C080000670800006308000032
:1017F0005D08000059080000530800004F08000071
:101800004908000045080000400800003B080000AF
:1018100036080000300800002C08000026080000F0
:10182000220800001C080000170800001208000031
:101830000D0800000908000003080000FE07000072
:10184000F8070000F4070000EE070000E9070000B9
:10185000E4070000DF070000D9070000D4070000FC
:10186000CE070000CA070000C4070000BF07000041
:10187000B9070000B4070000AF070000AA07000086
:10188000A40700009F0700009907000094070000CC
:101890008E07000089070000830700007E07000014
:1018A00078070000730700006F0700006907000059
:1018B000640700005E07000059070000520700009F
:1018C0004C07000047070000410700003C070000EC
:1018D00036070000310700002B0700002607000034
:1018E000200700001B07000015070000100700007C
:1018F0000907000004070000FE060000F9060000CA
:10190000F3060000EE060000E70600008C008B00E6
:101910008B008B008B008B008B008B008B008B006F
:101920008B008B008B008B008B008B008B008B005F
:101930008B008B008B008B008B008B008A008A0051
:101940008A008A008A008A008A008A008A008A0047
:101950008900890089008900890089008900880040
:101960008800880088008800880088008700870039
:101970008700870087008600860086008600860034
:101980008500850085008500850084008400840032
:10199000840084008300830083008300820082002F
:1019A0008200820081008100810080008000800030
:1019B00080007F007F007F007E007E007E007E0032
:1019C0007D007D007D007C007C007C007B007B0036
:1019D0007B007A007A007A0079007900790078003B
:1019E0007800770077007700760076007600750043
:1019F000750074007400740073007300720072004C
:101A0000720071007100700070006F006F006F0055
:101A10006E006E006D006D006C006C006C006B0061
:101A20006B006A006A00690069006800680067006E
:101A3000670066006600650065006400640063007E
:101A400063006200620061006100600060005F008E
:101A50005F005E005E005D005D005C005C005B009E
:101A60005B005A005A0059005900580057005700AF
:101A700056005600550055005400540053005200C3
:101A800052005100510050004F004F004E004E00D8
:101A90004D004D004C004B004B004A004A004900ED
:101AA0004800480047004700460045004500440004
:101AB00043004300420042004100400040003F001C
:101AC0003E003E003D003D003C003B003B003A0034
:101AD000390039003800370037003600350035004E
:101AE00034003300330032003100310030002F0069
:101AF0002F002E002D002D002C002B002B002A0083
:101B0000290029002800270027002600250025009D
:101B100024002300230022002100210020001F00B8
:101B20001E001E001D001C001C001B001A001A00D5
:101B300019001800180017001600150015001400F1
:101B40001300130012001100100010000F000E000F
:101B50000E000D000C000C000B000A00090009002B
:101B60000800070007000600050004000400030049
:101B700002000200010000000000A0009F009E0083
:101B80009D009C009B009B009A0099009800970084
:101B900097009600950094009300930092009100A6
:101BA00090008F008F008E008D008C008B008A00CB
:101BB0008A008900880087008600860085008400EE
:101BC000830082008200810080007F007E007E0012
:101BD0007D007C007B007B007A0079007800770034
:101BE0007700760075007400730073007200710056
:101BF000700070006F006E006D006D006C006B0077
