:020000040800F2
:1000000000E40020F90100087D6500105165001032
:100010007565001081620010716D00100000000015
:100020000000000000000000000000001766001043
:100030009762001000000000016600101D660010AD
:10004000596500105B650010000000006968001031
:10005000016900105D690010116600101366001040
:100060004F65001045650010036600107D6D00109F
:100070009D620010956200108962001047650010B3
:10008000496500104B6500104D6500107962001045
:1000900000000000196600102D660010AD6600100B
:1000A000ED6600102D670010000000000B660010C8
:1000B0000566001007660010096600100D66001046
:1000C0000F6600106B6500105D6500105F65001025
:1000D00061650010D1620010D3620010D56200107B
:1000E00015660010C5620010C7620010C9620010DA
:1000F000CB620010CD620010CF6200109962001038
:10010000636500108F62001091620010936200100E
:100110008B6200107B6200107D6200107F62001015
:100120008D620010796D00106D670010A9670010D6
:10013000E9670010296800109B620010DFF810D0FA
:1001400000F008F800480047ED010008AFF3008018
:1001500000E40020064C074D06E0E06840F0010393
:1001600094E8070098471034AC42F6D3FFF7EAFF53
:1001700098060008D806000870B58C1810F8015BC6
:1001800015F0070301D110F8013B2A1106D110F830
:10019000012B03E010F8016B01F8016B5B1EF9D134
:1001A0002B0705D40023521E0DD401F8013BFAE7BA
:1001B00010F8013BCB1A921C03E013F8015B01F825
:1001C000015B521EF9D5A142D8D3002070BD4AF27E
:1001D000697CC1F2000C604748F6E50CC1F2000CE6
:1001E000604746F2871CC1F2000C604710B5FFF76C
:1001F000EEFFFFF7F1FF10BDFFF7A0FF00BFFEE726
:100200000FB4054B10B503A9044A029800F018F882
:1002100010BC5DF814FB0000C9740010D40000206D
:1002200002E008C8121F08C1002AFAD170477047BF
:10023000002001E001C1121F002AFBD1704700001D
:100240002DE9FF4F8DB00F460546002606E0252814
:100250000BD0DDE90F1290476D1C761C2878002822
:10026000F5D111B03046BDE8F08F0024A246A1467A
:100270000122E94900E0044315F8013F203B02FA5E
:1002800003F00842F7D128782A2810D06FF02F0207
:100290002878A0F13001092914D80AEB8A0102EB71
:1002A000410144F0020400EB010A6D1CF0E701CFAC
:1002B0005FEA000A03D544F40054CAF1000A44F08E
:1002C00002046D1C28782E2817D115F8010F44F070
:1002D00004042A280ED06FF02F022878A0F13001F4
:1002E00009290AD809EB890102EB410100EB010958
:1002F0006D1CF2E757F8049B6D1C28786C280FD012
:1003000006DC4C2817D068280DD06A2814D104E0E8
:10031000742810D07A280FD10DE044F400140AE0BC
:1003200044F4801401E044F440146978814202D11D
:1003300004F580146D1C6D1C28786E281ED00CDC12
:10034000632830D004DC00288BD0582811D19FE0DE
:10035000642867D069280CD164E073282DD004DCB0
:100360006F2872D0702804D194E075286ED0782858
:100370006DD0DDE90F129047761C4BE1C4F30250BB
:10038000022806D0032809D0042801CF09D006602E
:1003900040E101CFF117C0E900613BE101CF0680E8
:1003A00038E1067036E117F8040B8DF800000020E4
:1003B0008DF80100EB46012003E057F804BB4FF035
:1003C000FF3061074FF0000102D40DE008F1010198
:1003D000884649450FDA8045F8DB1BF808100029EC
:1003E000F4D108E008F1010188468142FADB1BF8EC
:1003F00008100029F6D1DDE90F23AAEB0800814699
:10040000214600F031F9304400EB080604E0DDE954
:100410000F121BF8010B9047B8F10108F7D22146E3
:100420004846F2E00A21C4F302524FF0000B089153
:10043000022A04D001CFC117032A09D00AE0FF1D08
:1004400027F00707F7E8020108E02CE01EE01FE0B4
:1004500000B2C117042A01D140B2C117021E71F1C6
:10046000000206DA0023D0EB030063EB01012D222A
:1004700002E0220504D52B228DF82420012203E07E
:10048000E20701D02022F7E7904653E00A210BE073
:10049000102109E010214FF0000B44F004044FF04C
:1004A0000809089103E008214FF0000B0891C4F3FC
:1004B0000252022A04D001CF0021032A06D006E00E
:1004C000FF1D27F00707F7E8020103E080B2042AC6
:1004D00000D1C0B24FF0000822072BD52A78702A2D
:1004E00007D0DDF820C08CF0100C5CEA0B0C05D0B6
:1004F0000EE040228DF82420012208E050EA01039A
:1005000006D030238DF824308DF825200222904625
:10051000089B83F0080353EA0B030BD150EA010256
:1005200001D1620706D530228DF824204FF0010852
:10053000A9F101092A78582A04D038A20B9208AAF6
:100540000A920BE03AA2F9E75B46089AFFF749FEE8
:100550000B9B9B5C0A9A521E0A92137050EA01028E
:10056000F2D10A98ADEB000000F1200B600702D534
:1005700024F4803401E04FF00109D94502DDA9EBF4
:100580000B0000E0002000EB0B0141440890AAEBB7
:10059000010AE00306D4DDE90F232146504600F0AE
:1005A00063F806444FF0000908E009A911F80900B2
:1005B000DDE90F12904709F10109761CC145F4DB12
:1005C000E0030CD5DDE90F232146504600F04CF83E
:1005D000064404E0DDE90F1230209047761C0899AC
:1005E000481E08900029F5DC08E00A980A9900786E
:1005F000491C0A91DDE90F129047761CBBF10001FE
:10060000ABF1010BF1DC21465046DDE90F2300F090
:1006100019F806446D1C21E60928010030313233F7
:10062000343536373839616263646566000000002E
:100630003031323334353637383941424344454618
:10064000000000002DE9F041044600251E46174633
:10065000880404D405E039462020B0476D1C641E90
:10066000F9D52846BDE8F0812DE9F0410446002582
:100670001E469046C80301D5302700E02027880495
:1006800004D505E041463846B0476D1C641EF9D5D7
:100690002846BDE8F0810000D80600080060001080
:1006A0008001000078010008DC060008806100106D
:1006B000944A000020020008705100080000002049
:1006C0000001000020020008705200080001002014
:1006D000005F00003002000801FF0181401EFDD2D2
:1006E00070472DE9F05F0546002092469B468846FC
:1006F0000646814640241BE028464146474622469E
:1007000000F053F853465A46C01A914110D311468F
:100710001846224600F03AF82D1A67EB01084F46BA
:1007200022460120002100F031F817EB00094E416C
:10073000201EA4F10104DFDC484631462A46434628
:10074000BDE8F09F40EA01039B0703D009E008C918
:10075000121F08C0042AFAD203E011F8013B00F886
:10076000013B521EF9D27047D2B201E000F8012BD2
:10077000491EFBD270470022F6E710B513460A4621
:1007800004461946FFF7F0FF204610BD202A04DB7F
:10079000203A00FA02F1002070479140C2F1200394
:1007A00020FA03F3194390407047202A04DB203AD3
:1007B00021FA02F00021704721FA02F3D040C2F181
:1007C0002002914008431946704740F2012CC0F6C0
:1007D000000C6047704770477047704700F0F2FDAB
:1007E00000BFFEE77047704770477047704770471B
:1007F00070477047704770470849496988B2074990
:10080000C96889B249B140B100BF0449496941EAA8
:100810000041024A516100BF00BF704700700340B1
:100820007047704770477047704770477047704710
:1008300070472DE9F04107460E4614464FF0000878
:10084000002500BF09E0705D611E491B715C715598
:10085000611E491B7054681C85B204EBD471B5EB62
:10086000610FF0DB224631463846FFF76BFFA046AA
:100870004046BDE8F08100002DE9F043C1B00646D6
:100880000F4690461C464FF0000968208DF8040082
:100890002048D0F80610CDF805104089ADF80900C1
:1008A00068208DF80B008DF80C60E0B28DF80D001B
:1008B0008DF80E70002507E018F8051005F10B0003
:1008C00001AA1154681C85B2601EA842F4DC0B30EA
:1008D00081B201A804F040F9814604F10A0001A99F
:1008E00001F800901621401C01AA1154401C82B24C
:1008F00001A90948FFF79DFF04F10C000749A1F881
:100900004E05012006494870064802F051FA41B0F0
:10091000BDE8F0835A16002034150020E8100020AE
:10092000AF000020003000402DE9F047C0B006467F
:100930000F4690469946489C4FF0000A68208DF873
:1009400000002448D0F80610CDF801104089ADF819
:10095000050068208DF807008DF80870A4F10A00E2
:10096000C0B28DF809008DF80A801A48D0F8061038
:10097000CDF80B10807A8DF80F008DF810600025EF
:1009800007E005F1110019F800100DF80010681CBF
:1009900085B2601EA842F4DC2146684604F0DCF80B
:1009A00082460DF804A01621601C0DF80010A01C52
:1009B00082B269460848FFF73CFFA01C0749A1F82E
:1009C0004E05012006494870064802F0F1F940B092
:1009D000BDE8F0875A16002034150020E8100020EA
:1009E000AF000020003000402DE9F043C1B00646C2
:1009F0000F4690461C464FF0000968208DF8040011
:100A00002248D0F80610CDF805104089ADF809004D
:100A100068208DF80B008DF80C6000208DF80D001B
:100A2000E0B28DF80E008DF80F70002507E018F881
:100A3000051005F10C0001AA1154681C85B2601E56
:100A4000A842F4DC0C3081B201A804F085F881469C
:100A500004F10B0001A901F800901621401C01AA25
:100A60001154401C82B201A90948FFF7E2FE04F1CB
:100A70000D000849A1F84E050120074948700748B4
:100A800002F096F941B0BDE8F08300005A1600204C
:100A900034150020E8100020AF0000200030004096
:100AA00070477047704770477047704700F08AFC86
:100AB00000BFFEE77047704770477047704700F00F
:100AC00081FC00BFFEE7704701E003F079FFFCE71F
:100AD00000F078FC00BFFEE700F074FC00BFFEE70A
:100AE00070B5002100230722C4782CB3184C246869
:100AF00004F4E064C4F5E064210A032902D34478D5
:100B0000610109E0C1F10303CA40447804FA03F12A
:100B100084781440214349010E4C0678A15504788D
:100B200004F01F050124AC4005786D11AD0005F1FE
:100B3000E025C5F8004109E0047804F01F05012410
:100B4000AC40054D0678761145F8264070BD000092
:100B50000CED00E000E400E080E100E07047704749
:100B600070477047704770477047704770477047CD
:100B7000704770477047000002480068401C0149F8
:100B800008607047E800002010B51C48006800F4B9
:100B9000005028B31948006800F4004000B317481B
:100BA00001F0F9FC04F044FA15480068401C1449AF
:100BB000086008460068B0F57A6F03D90020086025
:100BC00002F0CCFA0F480088401C0E490880084605
:100BD0000088B0F5C87F03DD0020088002F0E4FD46
:100BE0000648006800F4805038B10448006800F4FA
:100BF000804010B1014801F0C9FC10BD0050014017
:100C0000000000206600002010B50E48006900F4C6
:100C1000005040B10B48006900F4004018B1094889
:100C2000103001F0B8FC0748006900F4805040B172
:100C30000448006900F4804018B10248103001F007
:100C4000A5FC10BD0050014010B50E48006A00F42C
:100C5000005040B10B48006A00F4004018B1094848
:100C6000203001F098FC0748006A00F4805040B141
:100C70000448006A00F4804018B10248203001F0B6
:100C800085FC10BD0050014010B50E48006B00F40B
:100C9000005040B10B48006B00F4004018B1094807
:100CA000303001F078FC0748006B00F4805040B110
:100CB0000448006B00F4804018B10248303001F065
:100CC00065FC10BD0050014010B50D48006800F4EF
:100CD000005038B10A48006800F4004010B10848DC
:100CE00001F059FC0648006800F4805038B104480F
:100CF000006800F4804010B1014801F047FC10BDCD
:100D000000D0004010B50E48006900F4005040B11A
:100D10000B48006900F4004018B10948103001F098
:100D20003AFC0748006900F4805040B1044800696B
:100D300000F4804018B10248103001F027FC10BDCB
:100D400000D0004010B50E48006A00F4005040B1D9
:100D50000B48006A00F4004018B10948203001F047
:100D60001AFC0748006A00F4805040B10448006A49
:100D700000F4804018B10248203001F007FC10BD9B
:100D800000D0004010B50E48006B00F4005040B198
:100D90000B48006B00F4004018B10948303001F0F6
:100DA000FAFB0748006B00F4805040B10448006B28
:100DB00000F4804018B10248303001F0E7FB10BD6C
:100DC00000D0004010B52348806800F00F0421488F
:100DD000406800F00100B8B104F00400A0B11D4962
:100DE0000968C8B201211C4A82F84B151146B1F8B6
:100DF0004C1550541146B1F84C15491CA2F84C152D
:100E00000A21C2F8581500BF1248406800F00400DB
:100E100028B104F0060010B10E4801F091FF0D4812
:100E2000406800F0020020B104F0020008B103F0B5
:100E300065FE04F0070010B1064801F07BFF05488D
:100E4000406800F0080020B1002010B1014801F016
:100E500074FF10BD00300040E810002010B54FF0C6
:100E60004020806800F00F044FF0402040684FF0B1
:100E70004020406800F0040030B104F0060018B1D2
:100E80004FF0402001F05CFF4FF04020406804F03C
:100E9000070018B14FF0402001F04CFF4FF0402008
:100EA000406800F0080028B1002018B14FF0402041
:100EB00001F043FF10BD000010B52848806800F025
:100EC0000F04062C2DD006DC002C3BD0022C31D098
:100ED000042C40D104E0072C2FD00C2C3BD130E067
:100EE0001E48406800F00100D0B113E01B480068C4
:100EF0001B491C4A128888541A480088401C19490A
:100F0000088008460088032804DD02F07DFB0020ED
:100F1000144908801148406900F001000028E5D11B
:100F20001AE00E48406800F0040010B10B4801F0D0
:100F300007FF11E0094840680EE0084801F0FAFE9A
:100F40000AE009E00548406800F0080010B10348D5
:100F500001F0F3FE00E000BF00BF10BD00500040F4
:100F6000F40E0020AA000020F8B506460D461446EF
:100F7000EF2D1ED006DC502D22D0512D77D0532DD1
:100F800076D1F0E0F02D02D0F12DF9D106E0012369
:100F9000CB4AF0210420FFF76FFC8FE1C9480078AD
:100FA000C749087002230A46F1210420FFF764FCB8
:100FB00084E10123C24AEF210420FFF75DFC7DE1BB
:100FC00000200AE0C04951F824100F310A5C00F1FA
:100FD0001101BB4B5A54411CC8B20828F2DBBA4875
:100FE00050F8240090F84900B5494876B64850F8C2
:100FF00024008078887600200AE0B34951F8241054
:1010000038310A5C00F11B01AD4B5A54411CC8B287
:101010000428F2DB00200AE0AB4951F824103C31EF
:101020000A5C00F11F01A64B5A54411CC8B20428A7
:10103000F2DB00200AE0A44951F8241022310A5CB6
:1010400000F123019E4B5A54411CC8B20228F2DB26
:101050009D4850F824000079994981F825009A4864
:1010600050F82400C07881F8260000200CE02BE026
:1010700023E1954951F82410491D0A5C00F127012C
:101080008F4B5A54411CC8B20428F2DB8E4850F8EA
:10109000240040788A4981F82B002C208A4900904E
:1010A00051F824100878864B50220421FFF73CFCAD
:1010B000002006E00022844951F824100F310A5420
:1010C000401C0828F6DBF9E07F4850F824004078FF
:1010D0007B4948747C4850F82400007988747A4829
:1010E00050F82400C078C874774850F8240090F86D
:1010F0002700087500200AE0734951F824102831B0
:101100000A5C00F115016E4B5A54411CC8B202280A
:10111000F2DB00200AE06C4951F824102C310A5C03
:1011200000F11701664B5A54411CC8B20428F2DB87
:1011300000200AE0644951F8241032310A5C00F1C1
:101140001B015F4B5A54411CC8B20428F2DB1F201C
:101150005D49009051F824100878594B5122042120
:10116000FFF7E2FBAAE000200AE0574951F82410FB
:101170000F310A5C00F11101514B5A54411CC8B2A5
:101180000828F2DB68204E4948764F4850F8240082
:1011900090F82700887600200AE04B4951F8241087
:1011A00028310A5C00F11B01454B5A54411CC8B25E
:1011B0000228F2DB00200AE0434951F824102C31C8
:1011C0000A5C00F11D013E4B5A54411CC8B2042870
:1011D000F2DB00200AE03C4951F8241032310A5C6D
:1011E00000F12101364B5A54411CC8B20428F2DBED
:1011F00000200AE0344951F8241038310A5C00F12B
:1012000025012F4B5A54411CC8B20428F2DB0020A0
:101210000AE02D4951F824103C310A5C00F1290103
:10122000274B5A54411CC8B20428F2DB00200AE0C4
:10123000254951F8241022310A5C00F12D01204B80
:101240005A54411CC8B20228F2DB00200AE01E49B1
:1012500051F8241044310A5C00F12F01184B5A5404
:10126000411CC8B20228F2DB00200AE0164951F8FE
:10127000241046310A5C00F13101114B5A54411CD3
:10128000C8B20228F2DB104850F8240090F8480059
:101290000B4981F833000C4850F82400407881F85D
:1012A000340035200849009051F824100878044B88
:1012B00053220421FFF738FB00E000BF00BFF8BD58
:1012C000761700201B0000202400002000F07AF890
:1012D00000BFFEE77047000000BF0548406940F0CE
:1012E00001000349486100BF00F06CF800BFFEE751
:1012F00000300140EFF310807047EFF3108070472B
:1013000000200EE0084931F81010CAB207490A540B
:10131000054A811D32F81110CAB20449891D0A54C8
:10132000401C0628EEDB7047CC0E00206016002023
:101330000A490870022803D109490A4A11600BE0E2
:10134000032804D14FF04021064A116004E004282C
:1013500002D10549034A116070470000E0000020F7
:1013600000300040E40000200050004070B504460A
:1013700000F008FD05466CB14FF47A70B5FBF0F053
:10138000604308380321B0FBF1F0A0F12D06304690
:10139000FFF7A4F970BD000070B504466CB10748B2
:1013A00060430749B0FBF1F008380321B0FBF1F0CE
:1013B000A0F10D052846FFF791F970BDA0D9EA0408
:1013C00040420F0070B503F002FC644806686348B1
:1013D00020300468001D0068050C61A0FFF7F5F9D6
:1013E00061A0FFF7F2F906F4800008B160A000E008
:1013F00060A0014661A0FFF7E8F9C6F3083167A0D5
:10140000FFF7E3F9C6F308016CA0FFF7DEF973A05C
:10141000FFF7DBF9514814300078010972A0FFF79B
:10142000D4F94E48001F407E010974A0FFF7CDF9A2
:101430004A48001F807E010975A0FFF7C6F947489A
:10144000001FC07F010978A0FFF7BFF9434814309F
:10145000007A010978A0FFF7B8F940481430807A83
:1014600001097BA0FFF7B1F93C481430C07A0109AB
:101470007BA0FFF7AAF97FA0FFF7A7F9C4F380418B
:101480007FA0FFF7A2F9C4F3404184A0FFF79DF9C4
:10149000C4F3004187A0FFF798F93FA0FFF795F943
:1014A000C4F3C03189A0FFF790F9C4F380318DA057
:1014B000FFF78BF9C4F3403190A0FFF786F9C4F32E
:1014C000003194A0FFF781F933A0FFF77EF9C4F350
:1014D000C02197A0FFF779F9C4F380219AA0FFF704
:1014E00074F9C4F300219EA0FFF76FF9C4F3C01193
:1014F000A1A0FFF76AF9C4F3C001A5A0FFF765F941
:10150000C4F34001A9A0FFF760F904F00101ADA008
:10151000FFF75BF9B1A0FFF758F9C5F34021B1A07F
:10152000FFF753F9C5F30021B4A0FFF74EF9C5F357
:10153000C001B9A0FFF749F9C5F38001BCA0FFF7CE
:1015400044F9C5F34001C0A0FFF73FF905F00101E0
:10155000CAA0FFF73AF900BE70BD000004ED00E03C
:101560005E5F5E27270D0A00494353523A0D0A0079
:101570006973000069736E277400000009207468A5
:1015800065726520257320696E746572727570745A
:101590002070656E64696E670D0A00000920706531
:1015A0006E64696E6720657863657074696F6E201C
:1015B0006E756D6265723A25750D0A0009206163CA
:1015C0007469766520657863657074696F6E206EE6
:1015D000756D6265723A25750D0A000053485052C8
:1015E000783A0D0A0000000009204D656D204D611C
:1015F0006E6167653A256868640D0A0009204275C6
:1016000073204661756C743A256868640D0A0000A1
:1016100009205573616765204661756C743A2568C9
:1016200068640D0A0000000009205356433A2568FB
:1016300068640D0A00000000092044656275672097
:101640004D6F6E69746F723A256868640D0A000008
:10165000092050656E6453563A256868640D0A0087
:1016600009205379735469636B3A256868640D0ADD
:101670000000000053484353523A0D0A0000000096
:1016800009205573616765204661756C7420656E2D
:1016900061626C653A25750D0A00000009204275EB
:1016A00073204661756C7420656E61626C653A25C5
:1016B000750D0A0009204D656D204661756C74201A
:1016C000656E61626C653A25750D0A0009205356F6
:1016D00043616C6C2070656E6465643A25750D0A13
:1016E000000000000920427573204661756C74206B
:1016F00070656E6465643A25750D0A0009204D65B4
:101700006D204661756C742070656E6465643A2561
:10171000750D0A0009205573616765204661756C77
:10172000742070656E6465643A25750D0A000000CA
:1017300009205379735469636B206163746976651A
:101740003A25750D0A000000092050656E64535655
:10175000206163746976653A25750D0A0000000002
:1017600009204D6F6E69746F7220616374697665CC
:101770003A25750D0A0000000920535643616C6C30
:10178000206163746976653A25750D0A00000000D2
:1017900009205573616765204661756C742061632B
:1017A000746976653A25750D0A00000009204275B6
:1017B00073204661756C74206163746976653A259F
:1017C000750D0A0009204D656D204661756C742009
:1017D0006163746976653A25750D0A005546535262
:1017E0003A0D0A000920446976696465206279200F
:1017F0007A65726F3A2025640D0A00000920556E43
:10180000616C69676E6564206163636573733A2018
:1018100025640D0A0000000009204E6F20636F70E0
:10182000726F636573736F723A2025640D0A00004E
:101830000920496E7661696C64205043206C6F61A9
:10184000643A2025640D0A000920496E7661696CAE
:101850006420737461746528617474656D7074209C
:10186000746F20656E7472792041524D20737461DB
:101870007465293A2025640D0A0000000920556E80
:10188000646566696E656420696E737472756374ED
:10189000696F6E3A2025640D0A0000002DE9F041C1
:1018A00004460D4600270026C4F34F27012000EB15
:1018B00055201FFA80F800BF08E03946064800F0BE
:1018C000CBFC054800F0A8FD701C86B24645F4DB51
:1018D0000020BDE8F08100000010034070B5034611
:1018E0001C46114800EB4220104D28600020104D8E
:1018F000286012E00E48006854F820000B4D2D6857
:101900000B4E366855F82650A84201D0012070BD14
:1019100007480068401C064D28600548006888425A
:10192000E8D30020F3E7000000E00108C000002039
:10193000B800002030B503460C4C04EB42240C4D9B
:101940002C6000240B4D2C600BE0094C2468094DE1
:101950002D6854F8254010C3064C2468641C054DBE
:101960002C60044C24688C42EFD330BD00E00108A9
:10197000C0000020B80000202DE9F0410446884650
:1019800016460027002500BF12E0E578A07800EB9E
:101990000525607800EB0525207800EB05252A4613
:1019A0004146074800F0F4FC08F10408241D3F1DDF
:1019B000B742EAD3024800F02FFD0020BDE8F081D5
:1019C000001003402DE9F04104460D461646274617
:1019D000104800EB46201049086000200F490860BD
:1019E00011E00E48006857F820200B4800680B4BA8
:1019F0001B6800EB83010A4800F0CAFC0748006836
:101A0000401C0649086005480068A842E9D3BDE8C3
:101A1000F081000000E00108BC000020B8000020B8
:101A20000010034010B50B461649097801290BDD5B
:101A3000154CC2B2216800BF00BFCC6F04F0020495
:101A4000002CFAD00A601BE00E490978012917D151
:101A500001460E4A126802F001027AB10B4A803A3E
:101A6000126802F001024AB100E000BF4FF060428C
:101A70001268002AF9D04FF06044217000BF00BF07
:101A800010BD0000E0000020E4000020800E00E017
:101A90002DE9F04706460F4634464FF0000906E0B0
:101AA0002078682800D104E0641C09F10109B945D7
:101AB000F6D300BF2078682805D0E079682802D0E6
:101AC0000020BDE8F087207A052812D1607A0D2128
:101AD00001EB0020A17A4518A81E81B2204603F030
:101AE0003BF88046601910F8021C414504D00020E4
:101AF000E7E7607A00F10C05F019001BA84201D05D
:101B00000020DEE7601910F8010C162801D0002033
:101B1000D7E72046D5E7000010B54948006880782F
:101B2000022804D10221474800F08DFC03E0022185
:101B3000444800F082FC424840688078022804D182
:101B40000103404800F07FFC04E04FF400513D48A1
:101B500000F073FC3A4880688078022804D10121A3
:101B6000384800F070FC03E00121364800F065FCC5
:101B70003348C0688078022804D14103314800F01E
:101B800062FC04E04FF480412E4800F056FC2C48E3
:101B900000698078022804D181032B4800F053FCAF
:101BA00004E04FF40041284800F047FC2448406915
:101BB0008078022804D18103224800F044FC04E02C
:101BC0004FF400411F4800F038FC1D4880698078C0
:101BD000022804D141031C4800F035FC04E04FF416
:101BE0008041194800F029FC1548C0698078022816
:101BF00004D10821134800F026FC03E00821114815
:101C000000F01BFC0E48006A8078022804D1010312
:101C10000D4800F018FC04E04FF400510A4800F0B1
:101C20000CFC0748406A8078022804D1042105484A
:101C300000F009FC03E00421024800F0FEFB10BDA7
:101C400024000020005002400040024070B50446CD
:101C500000BFFFF74FFB08B9012000E00020064657
:101C600006B172B61E481F49886500BF1D48456809
:101C700000201C49886506B162B600BF05F07F45AB
:101C80006078FF2801D1FE2000E06078C1B22078A2
:101C9000FF2801D1FE2000E0207861F31F20A17809
:101CA000FF2901D1FE2100E06178C9B240EA01407C
:101CB000054300BFFFF71EFB08B9012000E000202C
:101CC000064606B172B606480649886500BF054853
:101CD000456000200349886506B162B600BF70BD4B
:101CE000E487AC3F0060024070B50446092C19D16E
:101CF00000BFFFF702FB08B9012000E00020054605
:101D000005B172B615481649886500BF1448406988
:101D10000121A1400843124948610020886505B1AE
:101D200062B619E000BFFFF7E8FA08B9012000E049
:101D30000020054605B172B608480949886500BF0C
:101D4000074800690121A1400843054908610020B6
:101D5000886505B162B600BF70BD0000E487AC3F86
:101D60000060024008B508E01A21009102E00099E5
:101D7000491E009100990029F9D1011EA0F101002E
:101D8000F2D108BDF0B516480068C0F3C12010B10B
:101D9000012804D101E0134903E0134901E00021C7
:101DA00000BF00BF114883680024406800252D044F
:101DB00045EA104543EA00432C4300201D46A5FB9D
:101DC000017C04FB01C603FB0060450445EAD732F1
:101DD0000348806800F00F00401CB2FBF0F0F0BD3B
:101DE0000060024080BA8C0100127A0000C00140FD
:101DF0002DE9F04F87B00646884600200390401E2C
:101E00000290002736E0AE4850F827004008B0FBAB
:101E1000F6FAAB4850F827004008B0FBF6F106FB95
:101E200011000490BAF10F0F09D94FF00F0AA4481E
:101E300050F827000F2101FB160004900BE0BAF1C7
:101E40000F0F08D20498B0EB560F04D90498301A3B
:101E500004900AF1010A02990498884209D2049870
:101E600002900397AAF1010005900AFB06F04FEAE1
:101E7000400B7F1C042FC6D3B8F1000F03D0B8F17C
:101E8000010F06D102E0DFF83C9205E0DFF838925E
:101E900002E0DFF8389200BF00BF0020800340EA74
:101EA0009B404FEA8B314A460023CDE9001008469B
:101EB0000199FEF716FC04460D468548C06BC0F339
:101EC0004101039881424DD182484068210C41EA8A
:101ED00005412B0C4840184344D17E4880680022BD
:101EE000A1B205EA020348405A4010433AD178486B
:101EF000006800F00300022834D17548806800F0C3
:101F00000F01059881422DD17148C06B00F001008E
:101F100040B36F480068C0F3C120404522D1B8F1FA
:101F2000000F03D0B8F1010F1AD10DE06848006C22
:101F300000F0010038B16648C06B00F0807010B945
:101F400007B0BDE8F08F0CE06148C06B00F0807016
:101F500028B15F48006C00F4803000B1F0E700E089
:101F600000BF00BFB8F1000F03D0B8F1010F51D18D
:101F700025E000BFFFF7BEF908B9012000E000200E
:101F80000190019800B172B653485149886500BF6D
:101F90004F48006820F4C0504D4908600846C06BA7
:101FA00020F08070C8630846006C40F001000864AF
:101FB00000208865019800B162B600BF2BE000BF29
:101FC000FFF798F908B9012000E00020019001987E
:101FD00000B172B640483E49886500BF3C48006C7D
:101FE00040F480303A4908640846006820F4C05044
:101FF00008600846006840F4006008600846C06B4E
:1020000040F08070C86300208865019800B162B616
:1020100000BF00E000BF00BF00BFFFF76BF908B9C9
:10202000012000E000200190019800B172B62A481A
:102030002749886500BF2648006820F0030024492E
:1020400008600846C06B20F00600C8630846C16BF4
:10205000039800F0030041EA40001D49C8630846A8
:10206000806820F00F00886008468068059901F0BC
:102070000F01084316498860200C40EA05401549C5
:102080004860A0B288600020C86008600120086035
:102090000F48C06B40F001000D49C8630120FFF7F5
:1020A00061FE0B48006820F00300801C08490860AE
:1020B00000208865019800B162B600BF00BF3FE70D
:1020C00020AB001080BA8C0100127A0040420F0051
:1020D0000060024000C00140E487AC3F70B5054697
:1020E0000C461E48854200D103E063211CA002F08B
:1020F000F1FE2A496068884201D2002008E02749A1
:102100006068B0FBF1F01C301D21B0FBF1F0401E07
:10211000064606F00F0040F48C5040F480302863EF
:10212000207B08B1802000E0002040F44030617A3C
:1021300009B1202100E00021084340F01000217A7D
:1021400009B1082100E000210843E17A09B1012129
:1021500000E000210843286070BD0000001003402B
:102160002E2E5C2E2E5C2E2E5C2E2E5C4C69627206
:1021700061726965735C4472697665725C736F75D0
:102180007263655C4C4C5C74785F7068655F6C6C06
:102190005F65666C6173682E6300000040420F004B
:1021A0002DE9FC4104460D4616461B48844200D1E9
:1021B00003E0EB2119A002F08DFEEC2017A1CDE980
:1021C0000010B100A80003234FF4003202F0A2FD7A
:1021D000206800F0010737B100BF206820F001003F
:1021E000206000BF00BF284666F31F40A0654FF087
:1021F0000420606000BFA06800F480600028FAD06E
:1022000037B100BF206840F00100206000BF00BF70
:10221000E06DBDE8FC810000001003402E2E5C2E16
:102220002E5C2E2E5C2E2E5C4C696272617269658A
:10223000735C4472697665725C736F757263655C1A
:102240004C4C5C74785F7068655F6C6C5F65666C45
:102250006173682E6300000070B504460D460F4898
:10226000844200D103E09E210DA002F033FEFF2D39
:1022700000DC03E09F210AA002F02CFE00BFA06852
:1022800000F001000028FAD00021204600F078F884
:10229000C5F3080040F08040206270BD001003408C
:1022A0002E2E5C2E2E5C2E2E5C2E2E5C4C696272C5
:1022B00061726965735C4472697665725C736F758F
:1022C0007263655C4C4C5C74785F7068655F6C6CC5
:1022D0005F65666C6173682E630000002DE9F04154
:1022E00004460F461448844200D103E0482113A05D
:1022F00002F0F0FD0120FFF7F7FC072500BF00BF4B
:10230000FEF7FBFF08B9012000E00020064606B1F9
:1023100072B619481949886500BF1848006A01213A
:10232000A9400843154908620020886506B162B6D5
:1023300000BF00BFBDE8F081001003402E2E5C2ED0
:102340002E5C2E2E5C2E2E5C4C6962726172696569
:10235000735C4472697665725C736F757263655CF9
:102360004C4C5C74785F7068655F6C6C5F65666C24
:102370006173682E63000000E487AC3F0060024098
:1023800009B1002200E0014A42657047300217207F
:1023900070B504460D4616460F48844200D103E04E
:1023A000B1210EA002F096FD05F0030000B903E094
:1023B000B2210AA002F08EFD00BFA06800F040002C
:1023C0000028FAD000212046FFF7DAFF05F100606F
:1023D0002061A66170BD0000001003402E2E5C2E0F
:1023E0002E5C2E2E5C2E2E5C4C69627261726965C9
:1023F000735C4472697665725C736F757263655C59
:102400004C4C5C74785F7068655F6C6C5F65666C83
:102410006173682E6300000000BF816801F07301E2
:102420007329FAD1704700BF816801F001010029CA
:10243000FAD070478AB2826370478AB2826370476B
:102440000A04826370470A048263704770B50446C9
:102450000D4616460D48844208D00D48844205D0EA
:102460000C48844202D00C48844200D103E04E2143
:102470000AA002F02FFD1EB96068A843606004E066
:10248000012E02D160682843606070BD00200240C8
:102490000040024000500240007002402E2E5C2E90
:1024A0002E5C2E2E5C2E2E5C4C6962726172696508
:1024B000735C4472697665725C736F757263655C98
:1024C0004C4C5C74785F7068655F6C6C5F677069BA
:1024D0006F2E630070B504460D46164619488442B7
:1024E00008D01948844205D01848844202D01848C0
:1024F000844200D103E0622116A002F0EBFC06F05A
:10250000800018B1E06A2843E06202E0E06AA84374
:10251000E06206F0010030B1E068A843E060A06925
:10252000A843A0610CE006F0020018B1E06828435F
:10253000E06005E006F0040010B1A0692843A06146
:1025400070BD0000002002400040024000500240E8
:10255000007002402E2E5C2E2E5C2E2E5C2E2E5CE9
:102560004C69627261726965735C44726976657206
:102570005C736F757263655C4C4C5C74785F7068FB
:10258000655F6C6C5F6770696F2E6300016841F472
:10259000804101607047016841F40041016070476B
:1025A00070B504460D4626681F4884421AD01E485E
:1025B0001030844216D01C482030844212D01A4871
:1025C000303084420ED0194884420BD01748103066
:1025D000844207D015482030844203D0134830305D
:1025E000844200D104E040F2911111A002F072FC8B
:1025F0002946204600F084F846F44046A87900F0C9
:10260000070046EA0026E87900F0030046EA801653
:10261000687A00F0070006436888A0602888606038
:10262000A888E060266070BD0050014000D00040E6
:102630002E2E5C2E2E5C2E2E5C2E2E5C4C69627231
:1026400061726965735C4472697665725C736F75FB
:102650007263655C4C4C5C74785F7068655F6C6C31
:102660005F74696D65722E630000000070B50446EA
:102670000D46124884421AD010481030844216D0B9
:102680000E482030844212D00C48303084420ED0A4
:102690000B4884420BD00A481030844207D00848C7
:1026A0002030844203D006483030844200D103E019
:1026B000782104A002F00EFC70BD00000050014023
:1026C00000D000402E2E5C2E2E5C2E2E5C2E2E5C1A
:1026D0004C69627261726965735C44726976657295
:1026E0005C736F757263655C4C4C5C74785F70688A
:1026F000655F6C6C5F74696D65722E63000000002D
:1027000070B504460E460025CC4884421AD0CB480A
:102710001030844216D0C9482030844212D0C748B5
:10272000303084420ED0C64884420BD0C4481030AA
:10273000844207D0C2482030844203D0C0483030A1
:10274000844200D103E0DD21BEA002F0C3FBBC48FF
:1027500084420BD0BA481030844207D0B8482030A9
:10276000844203D0B6483030844207D1B07A022880
:1027700000DA03E0EA21B3A002F0ACFB02F07AFA3F
:10278000BF48C0498865AD48844201D1002527E093
:10279000AA481030844201D1012521E0A748203009
:1027A000844201D102251BE0A4483030844201D18B
:1027B000032515E0A248844201D1002510E0A0487D
:1027C0001030844201D101250AE09D482030844226
:1027D00001D1022504E09A483030844200D103251B
:1027E000964884420BD095481030844207D09348D5
:1027F0002030844203D09148303084427ED1690039
:10280000012088406900491C01228A401043690068
:10281000083101228A4010436900093101228A40AF
:1028200010439849896C814396488164307A022824
:102830001BD1B07A00F0010040B19248806C690071
:10284000083101228A4010438E498864B07A00F032
:102850000200002808D08B48806C690009310122F1
:102860008A40104387498864E1E0307A012802D029
:10287000307A0328F8D1B07A00F00100E8B181483D
:10288000806C6A000121914008437E4988640846B3
:10289000006820F4003008600846006840F480209A
:1028A00008600846C06820F0FF00C8600846406A1B
:1028B0000121A940084373494862B07A00F0020040
:1028C0000028D1D06F48806C6900491C01228A40E1
:1028D00010436C498864022D1ADA0846006820F417
:1028E000000008600846006840F0807008600846F4
:1028F000C06820F07F40C860084600E022E0816A9E
:1029000005F114000122824011435E4881628EE08D
:102910005C48006820F400105A49086008460068C6
:1029200040F4800008600846C06820F47F00C8605A
:102930000846806AC5F1110101228A4010435149BD
:10294000886274E03E4884420BD03D481030844297
:1029500007D03B482030844203D03948303084428D
:1029600065D105F11000012101FA00F005F1140113
:1029700001228A4010434349896C81434148816464
:10298000307A02280DD1B07A00F00100A8B33D489A
:10299000806C05F1140101228A4010433949886492
:1029A00045E0307A012802D0307A03283FD1B07A4E
:1029B00000F0010008B33348806C05F110010122DA
:1029C0008A4010432F498864022D17DA08460068B0
:1029D00020F4003008600846006840F48020086059
:1029E0000846C06820F0FF00C8600846406A291DFC
:1029F00001228A4010432349486218E021480068B8
:102A000020F400101F4908600846006840F4800068
:102A100008600846C06820F47F00C8600846806AE5
:102A2000C5F10F0101228A40104316498862002037
:102A30001449886502F032F970BD00000050014071
:102A400000D000402E2E5C2E2E5C2E2E5C2E2E5C96
:102A50004C69627261726965735C44726976657211
:102A60005C736F757263655C4C4C5C74785F706806
:102A7000655F6C6C5F74696D65722E6300000000A9
:102A8000E487AC3F00600240024610680B7813B147
:102A900040F4005301E020F4005318464B7813B182
:102AA00040F4805301E020F48053184610607047D2
:102AB00070B504460D46154884421AD013481030AC
:102AC000844216D011482030844212D00F48303052
:102AD00084420ED00E4884420BD00D481030844200
:102AE00007D00B482030844203D00948303084425C
:102AF00000D104E04FF4DF7106A002F0EBF920688A
:102B000005F0030140EA0110206070BD0050014053
:102B100000D000402E2E5C2E2E5C2E2E5C2E2E5CC5
:102B20004C69627261726965735C44726976657240
:102B30005C736F757263655C4C4C5C74785F706835
:102B4000655F6C6C5F74696D65722E6300000000D8
:102B50002DE9F04104460D461F48844205D0B4F1EA
:102B6000402F02D01D48844200D103E0DE211CA08A
:102B700002F0B0F9002700262946204600F04EF862
:102B8000687800F003000743287808B1042000E0CB
:102B900000200743A87800F0030047EAC00746F08A
:102BA0000706287900F0030046EA0016E87800F0EE
:102BB000030046EA8016002020618020E060A879AA
:102BC0002060E888000A6060E06820F08000E06033
:102BD000E760A660BDE8F081003000400050004092
:102BE0002E2E5C2E2E5C2E2E5C2E2E5C4C6962727C
:102BF00061726965735C4472697665725C736F7546
:102C00007263655C4C4C5C74785F7068655F6C6C7B
:102C10005F75736172742E630000000070B5044626
:102C20000D463048844205D0B4F1402F02D02E48E2
:102C3000844200D103E088212CA002F04BF92948FE
:102C4000844202D0B4F1402F07D1287A022800DA5A
:102C500003E08C2125A002F03DF902F00BF8324888
:102C6000324988651F4884420AD10846406C20F4E6
:102C7000804048640846406C40F0100048642BE0F7
:102C8000B4F1402F0BD12948406C20F40040274973
:102C900048640846406C40F0200048641CE012483C
:102CA000844219D12148406C214908401F49486499
:102CB000287A00F0010028B10846406C40F040003E
:102CC000486409E0287A00F0020028B11748406CF7
:102CD00040F080701549486400201449886501F06F
:102CE000DDFF70BD00300040005000402E2E5C2EF5
:102CF0002E5C2E2E5C2E2E5C4C69627261726965B0
:102D0000735C4472697665725C736F757263655C3F
:102D10004C4C5C74785F7068655F6C6C5F75736158
:102D200072742E6300000000E487AC3F0060024034
:102D3000BFFFFEFEC16FC167704781698161704747
:102D4000416941617047000070B504460D4607486F
:102D5000844205D0B4F1402F02D00548844200D10E
:102D600003E04F2103A002F0B5F870BD0030004031
:102D7000005000402E2E5C2E2E5C2E2E5C2E2E5CE3
:102D80004C69627261726965735C447269766572DE
:102D90005C736F757263655C4C4C5C74785F7068D3
:102DA000655F6C6C5F75736172742E630000000068
:102DB000024600200B790BB1802300E0002318436A
:102DC000CB780BB1082300E0002318438B780BB1BC
:102DD000042300E0002318434B780BB1022300E0EA
:102DE000002318430B780BB1012300E000231843A4
:102DF000C3B253607047000010B5024600230021A3
:102E000008E05B1C505CFF2803D1062B01D1012098
:102E100010BD491C0629F4D300210AE0505CAA2801
:102E200006D0545C0548405C844201D00020EFE7A6
:102E3000491C0629F2D30120EAE7000060160020B1
:102E400010B562B60020C04981F84B000122022172
:102E5000BE48FFF7FBFA01220221BC48FFF73AFB0C
:102E60000221BA48FFF7ECFA01220421B748FFF724
:102E7000EDFA01220421B548FFF72CFB0421B348E9
:102E8000FFF7DEFA01221021B148FFF7DFFA012235
:102E90001021AF48FFF71EFB01229102AC48FFF75B
:102EA000D5FA01229102AA48FFF714FB0122D102B0
:102EB000A748FFF7CBFA0122D102A548FFF70AFB8A
:102EC00001221103A248FFF7C1FA01221103A04811
:102ED000FFF700FB9F48406B40F008009D494863A6
:102EE000012208219B48FFF7B1FA012208219948E5
:102EF000FFF7F0FA9748406B40F01000954948639F
:102F0000012210219348FFF7A1FA012210219148D4
:102F1000FFF7E0FA8F48406B40F020008D4948638E
:102F2000012220218B48FFF791FA012220218948B4
:102F3000FFF7D0FA8748406B40F04000854948636E
:102F4000012240218348FFF781FA01224021814874
:102F5000FFF7C0FA7E48406B40F002007C494863AE
:102F6000012202217A48FFF771FA012202217848F2
:102F7000FFF7B0FA02217648FFF75CFA7448406B1D
:102F800040F4005072494863012251037048FFF732
:102F90005DFA012251036E48FFF79CFA4FF400518D
:102FA0006B48FFF747FA6A48406B40F001006849F8
:102FB0004863012211466648FFF748FA012211468C
:102FC0006348FFF787FA01216148FFF733FA604849
:102FD000406B40F480405E494863012291035C48A5
:102FE000FFF734FA012291035948FFF773FA4FF4BF
:102FF00080415748FFF71EFA5648406B40F40040A6
:10300000544948630122D1035248FFF71FFA0122B5
:10301000D1035048FFF75EFA4FF400414D48FFF7E7
:1030200009FA4B48406B40F400404949486301228B
:10303000D1034748FFF70AFA0122D1034448FFF7BA
:1030400049FA4FF400414248FFF7F4F94148406B18
:1030500040F480403F494863012291033D48FFF717
:10306000F5F9012291033B48FFF734FA4FF4804110
:103070003848FFF7DFF93648406B40F00800344924
:103080004863012208213248FFF7E0F901220821B4
:103090002F48FFF71FFA08212D48FFF7CBF92D48DD
:1030A000406B40F400502B494863012251032948EA
:1030B000FFF7CCF9012251032648FFF70BFA4FF432
:1030C00000512448FFF7B6F92148406B40F0040056
:1030D0001F494863012204211D48FFF7B7F9012267
:1030E00004211B48FFF7F6F904211948FFF7A2F95C
:1030F0004FF480511648FFF79DF94FF400611448D2
:10310000FFF798F94FF480611148FFF793F94FF4F6
:1031100000710F48FFF78EF901200F49087000F089
:10312000B3FB01F06BFF01F041FF01F0C5FC01F0C2
:1031300099FC01F097FF01F021FF01F0EDFEFDF792
:10314000C3FC002010BD000034010020002002401C
:1031500000500240004002409600002010B501F0EF
:103160002FFC00F059FDFEF7D7FCFE4800893C28F3
:1031700009DDFC4800894D2805DAFA48007A3C3818
:10318000F949087002E01020F749087000BF762066
:10319000F649C86000BFF6480088401CF449088022
:1031A000F4480088401CF3490880F3480088401C1C
:1031B000F1490880F1480088401CF0490880F04837
:1031C000007818B90120EE49087002E00020EC49AF
:1031D0000870EB48007801280DD1EA4800880328E0
:1031E00003D0E9480088032805D14FF48051E7480F
:1031F000FFF720F904E04FF48051E448FFF720F98D
:10320000E348007828B94FF40061E048FFF712F96D
:1032100004E04FF40061DD48FFF712F9DD48008853
:1032200000281BDDD7480088032803D0D648008833
:10323000032813D1D7480088012804D10122512145
:103240000420FDF791FED3480088401CD149088036
:1032500008460088AF2801DD01200880C5480088A5
:103260001E2861DD0020C3490880CB48007806286D
:103270001BD1002415E0C94850F8240080780228AA
:1032800004D1224653210420FDF76EFE0020C349DD
:1032900051F82410C870C14951F824108870601C7E
:1032A000C4B2B14800788442E5DBBB48007800280E
:1032B00004DDB9480078401EB7490870B44800786A
:1032C00001282CD1B648007848BBB348007830BB01
:1032D0000022F1210420FDF747FEB2480078401C8F
:1032E000B04908700846007805281DDD0020A8496F
:1032F0000870AD490870AB49087000BF0AE00021B2
:10330000A64A52F82020D170A44A52F82020917089
:10331000411CC8B2944909788842F0DB04E04FF4BC
:1033200000719A48FFF786F8934800880B284CDD17
:1033300000209149088096480078012837D19848A4
:103340000078A0BB9448007888BB944897490988C6
:1033500050F821008078022805D194480278532142
:103360000420FDF701FE8D489049098850F821009E
:10337000807804281BD189488C49098850F821009D
:10338000C078042813D18948027851210420FDF720
:10339000EBFD00218148854A128850F82200817097
:1033A00000207E49814A128851F82210C8707F4857
:1033B0000088401C7D490880084600886A490978D1
:1033C000884202DB0020794908806C480088032885
:1033D00027DD00206949088070487549097850F850
:1033E00021008078022806D172480078012802D195
:1033F0007149087002E000206F4908705A4800784F
:10340000401E6B490978884202DC00206949087037
:1034100068480078012804D165480078401C644958
:1034200008705B480078A8B95B48007890B9634899
:10343000007820B90022F0210420FDF795FD5F48B7
:103440000078401C5D49087008460078052801DDB9
:10345000002008704E480078022804D10022EF2195
:103460000420FDF781FD4748008801282AD1002467
:1034700053480478494850F82400807802280FD136
:103480000420464951F8241088700120434951F81E
:10349000241081F84900224650210420FDF764FDE4
:1034A00047480088401C4649088008460088032891
:1034B00007DD0020088003203249088001203549BB
:1034C000088000BF2F480088032811D100200BE09E
:1034D0000121324A52F82020D17004212F4A52F89B
:1034E00020209170411CC8B21F4909788842EFDB47
:1034F00025480088032811D100200BE00221274A2B
:1035000052F82020D1700421244A52F820209170D2
:10351000411CC8B2144909788842EFDB1A48008878
:1035200001285BD10024264804781C4850F8240068
:10353000807802280FD10420184951F8241088708F
:103540000120164951F8241081F8490022465021E3
:103550000420FDF709FD1A480088401C184908801E
:1035600008462FE00001002021000020003001402B
:1035700004000020080000200A00002006000020AF
:103580001000002090000020920000200050024017
:10359000190000200E000020A400002024000020BC
:1035A000940000201C0000201B0000200C000020C4
:1035B0009700002096000020980000201A000020AC
:1035C0008E0000200088032807DD002008800320EB
:1035D0000849088001200849088000BF0748007892
:1035E00010B90020064908800020044908700549E8
:1035F000087010BD920000200E00002095000020F1
:10360000660000209400002010B5624B1B78624CCD
:10361000247823445F4C647823445E4CA47823448C
:10362000DBB283F0FF025B4BDB7893427ED15A4BD7
:103630001B78162B14D1574B1C785B7804EB0324B2
:10364000544B9B7804EB034141F62C73B1FBF3F32D
:10365000524C238140F21E33B1FBF3F3504C2380D4
:103660004D4B1B780C2B2BDB4B4B1B78152B27DC86
:10367000494B1B780C3BD8B2464B1C785B7804EB6B
:103680000324444B9B7804EB03410C23B1FBF3F37D
:10369000444C54F820402386424B53F820301B8E74
:1036A0001B12404C54F8204084F82C303D4B53F80A
:1036B000203093F830403B4B53F8203083F82D40B6
:1036C000354B1B78222B30DB334B1B782B2B2CDC20
:1036D000314B1B78223BD8B22E4B1C785B7804EB25
:1036E00003242C4B9B7804EB03414CF2503399425A
:1036F00000D900211823B1FBF3F32A4C54F82040E1
:10370000E386284B53F82030DB8E1B12254C54F8EF
:10371000204084F83230234B53F8203093F8364061
:10372000204B53F8203083F8334000E030E01A4B50
:103730001B782F2B2CD1184B1B78382B28DC164BE1
:103740001B782F3BD8B2134B1C785B7804EB032417
:10375000104B9B7804EB034157234B435B0B114CFD
:1037600054F8204023640F4B53F82030B3F8403016
:103770001B0A0C4C54F8204084F83830094B53F89D
:10378000203093F84040074B53F8203083F83940FD
:1037900010BD0000F40E0020CC00002028080020FE
:1037A00088000020240000200EB500202F4908804A
:1037B0002F4801782F480078401C814203D12E48C1
:1037C00000782B4908702A4801782B4800780A3085
:1037D000814203D12948007825490870244801789E
:1037E000264800780A30814203D1254800782049D4
:1037F00008701F480178224800780A30814203D1BE
:103800001C4800781A49087019480078401C18496B
:10381000087000BF00BF00BF1A48C06F00F004006E
:103820000028F9D000BF1748406900F04000002888
:10383000F9D000BF35208DF800000D4800788DF8D4
:103840000100002108460EE01DF8001000BF00BF77
:103850000C4AD26F02F00202002AF9D0094A116024
:1038600000BF411C08460228EEDB0EBDAA00002066
:10387000CC000020CE000020CF000020CD00002092
:10388000D00000200050004010B5002008E0FF21CB
:10389000944A22F810101346811D23F81100401C91
:1038A0000628F4DBFDF72CFD28208F4948804C20AA
:1038B000088140F6B83008804FF4487048810846C7
:1038C0004088DC2148434FF47A7190FBF1F086493F
:1038D00088814FF4E160C88040F6C41088800846B3
:1038E00000893C2809DD084600894D2805DA08468C
:1038F000007A3C387D49087002E010207B4908704E
:10390000002007E05A217A4A52F8202082F8481015
:10391000411CC8B21028F5DB00200DE00021744ADC
:1039200052F8202082F846103222714951F82010B6
:1039300081F84720411CC8B21028EFDB002009E0C5
:103940006B4A52F8202050708121694A52F8202099
:103950001170401C0828F3DB08200BE0A0F10801DF
:10396000634A52F8202051708221614A52F8202087
:103970001170401C1028F1DB002010E000215C4A8F
:1039800052F82020D1700022594951F820100A71B4
:103990000021574A52F820209170411CC8B2534967
:1039A00009788842EADB514908780BE00221504A45
:1039B00052F82020D17004214D4A52F820209170F5
:1039C000411CC8B21028F1DBC8214A4800F0FCFFB6
:1039D000484800884AF2A551884273D1002006E089
:1039E000444A411C12F8112043490A54401C06283D
:1039F000F6DB4048C08A3C4948803E48008B08813D
:103A00003C48408B08803B48808B48813948C08BBC
:103A1000C8803848008C8880002026E0002106E01D
:103A20000023334A52F820200F325354491C0829EE
:103A3000F6DB002106E000232D4A52F82020223236
:103A40005354491C0229F6DB002106E00023284AD2
:103A500052F820201E325354491C0229F6DB002163
:103A6000234A52F820209170401C1028D6DB1E48B3
:103A700000893C2809DD1C4800894D2805DA1A48D0
:103A8000007A3C381949087002E010201749087084
:103A9000002010E00021164A52F82020D1700022A8
:103AA000134951F820100A710021114A52F82020C0
:103AB0009170411CC8B20D4909788842EADB0B4974
:103AC00008780CE00DE00221094A52F82020D1705C
:103AD0000421074A52F820209170411CC8B21028D6
:103AE000F1DB10BDCC0E00200001002021000020E1
:103AF000240000201C0A00206016002010B54AF2A5
:103B0000A5503E4908803E484088C8823C4800890C
:103B100008833B480088488339484089888338486F
:103B2000C088C883364880880884002006E035496C
:103B30000A5C324B411C23F81120401C0628F6DB9E
:103B4000002053E000210DE02F4A52F820200F32D0
:103B5000535C421C02EB820201EB8202274C24F8E8
:103B60001230491C0829EFDB00210EE0264A52F8EA
:103B700020202232535C421C02EB820201EB8202C3
:103B80000E321E4C24F81230491C0229EEDB0021B3
:103B90000EE01D4A52F820201E32535C421C02EBFC
:103BA000820201EB82021032144C24F81230491CBC
:103BB0000229EEDB144951F820108A78411C01EBF0
:103BC0008101122303EB81010C4B23F811200F4AD2
:103BD00010800D4951F82010897F0D4A11800A4943
:103BE00051F82010C97F0B4A1180401C1028A9DB16
:103BF000C821024800F0F8FE10BD00001C0A002099
:103C00000001002060160020240000209A000020FF
:103C10009C0000209E00002010B5002010E0B64956
:103C200009880912B54A52F8202082F82810B249B2
:103C30000A78B24951F8201081F82920411CC8B2F5
:103C40001028ECDBAE488088AB490988884220DA2E
:103C5000AC480088052816DD0020AA490880AA483B
:103C6000008810B90120A8490880002006E0012141
:103C7000A24A52F82020D170411CC8B2A349097849
:103C80008842F4DB08E09F480088401C9D4908807A
:103C900002E000209B4908809948C088964909881D
:103CA000884220DD9A480088052816DD00209849C2
:103CB00008809848008810B90120964908800020A3
:103CC00006E002218D4A52F82020D170411CC8B272
:103CD0008E4909788842F4DB08E08D480088401C52
:103CE0008B49088002E00020894908808448C08808
:103CF00032308149098888422ADA814880883238FE
:103D00007D490988884223DD7F480088032803D045
:103D10008048008803281BD100207B4908807D490A
:103D20000880784908807A4908807B49088000BF6C
:103D30000AE00021714A52F82020D1706F4A52F8EF
:103D400020209170411CC8B2704909788842F0DB8C
:103D50000024CCE0694850F824008078022870D113
:103D6000664850F82400808C401C644951F82410A7
:103D70008884624850F82400808C604951F82410EF
:103D8000098C884227DB5D4850F82400008C00280D
:103D900021DD0020594951F824108870042057492A
:103DA00051F8241081F8490022465021FDF7DCF833
:103DB0000020524951F824108884504951F82410A9
:103DC000088400214D4850F82400C17700204B4959
:103DD00051F824108877494850F82400C08E48498B
:103DE000898988422EDA454850F8240080780228D4
:103DF00028D1424850F8240090F84B00401C3F491D
:103E000051F8241081F84B003C4850F8240090F8F9
:103E10004B003C281CDD0020384951F8241081F863
:103E20004B00364951F8241088700220334951F86C
:103E3000241081F84900224650210420FDF794F80F
:103E400006E04BE000202D4951F8241081F84B008A
:103E50002A4850F82400008E3049088028480088FD
:103E6000098888423BDA254850F8240080780228E7
:103E700035D1224850F8240090F84C00401C1F49CE
:103E800051F8241081F84C001C4850F8240090F898
:103E90004C00012829DD0020184951F8241081F830
:103EA0004C000420154951F8241088700120134952
:103EB00051F8241081F849000420104951F82410C9
:103EC000C87022465021FDF74FF800200B4951F8E9
:103ED00024108870094951F82410C87005E00020AA
:103EE000064951F8241081F84C00601CC4B2102C13
:103EF000FFF630AF10BD0000880000202400002035
:103F0000000100208A0000209000002021000020F5
:103F10008C000020920000200E000020860000206F
:103F20002DE9F84F0025FE4EFE4890F84B0500287D
:103F300074D1FC48B0F84C0500286FDDF948D0F882
:103F400058050028F4D1F748B0F84C55B0F84C2586
:103F500001463046FCF7F6FB0020F249A1F84C057B
:103F600029463046FDF794FD04460CB9BDE8F88FAC
:103F7000601CFEF741FF00B9F8E7207A05287BD1E5
:103F80000620E9490870A07A617A00EB01201FFA47
:103F900080FBE07AA03806286FD2DFE800F0031338
:103FA000406F76840820E14908700120487018208D
:103FB00088700020C87005230A46A0218520FCF7E0
:103FC00013FDA1E0277B94F80D8094F80E9094F8EF
:103FD0000FA0380600EB084000EB09205044D449FC
:103FE000086008460168D348FDF758FC277C94F820
:103FF000118094F8129094F813A0380600EB084052
:1040000000EB09205044CA494860CA48C8600123EF
:10401000C64AA1218520FCF7E7FC75E0FEE3617B41
:10402000207B01EB0020C2490883E17BA07B01EBF0
:104030000020BF494883ABF1050048610846408B2A
:10404000401EBC4901EB8020B949C860084642695E
:10405000C16804F11000FDF78FFC0123B34AA221CF
:104060008520FCF7C1FC4FF48062B249B248FEF7EC
:1040700097F8AF49C86147E048E044E00123AB4A04
:10408000A3218520FCF7B0FC3EE0A948A9490268BD
:10409000A948FEF785F800900123A44AA4218520B1
:1040A000FCF7A2FC30E00421A448FDF7F7FB042252
:1040B000A2499F48FDF760FC01239C4AA521852069
:1040C000FCF792FCC820FDF751F900BF00BF00BF0C
:1040D00000BF00BFBFF34F8F00BF00BF00BF9848B5
:1040E000006800F4E06097490843001D94490860A7
:1040F00000BF00BF00BFBFF34F8F00BF00BF00BFB6
:1041000000BF00BFFDE700BF00BF87E3A07A5128D2
:1041100072D012DC202870D008DC01286ED0102864
:104120006DD011286CD013286BD1D6E0212869D02E
:104130004A2844D05028F7D1FDE3E22863D006DCBA
:10414000532871D08C2871D0E128EDD120E0EF28E0
:104150000BD0F02802D0F128E6D10AE0E07A01285D
:1041600002D10220784908707EE201207649087069
:10417000FAE776480078401C7449087008460078D1
:10418000FF2801DD00200870002071490870EBE76E
:10419000002006E004F10B010A5C6E490A54411C40
:1041A000C8B20628F6DB01206049087002230A46DF
:1041B000E1218020FCF760FBFFF7A0FCF4E3012085
:1041C0005A4908704870202088700220C870032067
:1041D000087102204871222088710520C8711220C0
:1041E000087201204872002088720C230A464A2176
:1041F0008020FCF741FBD7E3D1E336E21DE0D6E0B7
:1042000031E1D0E30FE3002005E05249095C474A61
:104210001154411CC8B20628F7DB0D23434AE221A2
:104220008020FCF729FBBFE3BBE3FFE708233F4AFD
:104230008C218020FCF720FBB6E3A17C607C01EBA5
:10424000002045494880E07C0881617D207D01EBAC
:10425000002041490880E17DA07D01EB00203E491E
:104260004881A17F607F01EB00203B49C88020206E
:10427000015DE07F01EB00203749888001202B4958
:1042800008702120005D4870002008E000F117014F
:1042900004F10B02525C811C244B5A54401C04282C
:1042A000F4DB0723214A01218020FCF7E5FA2A48A4
:1042B00040882A49C88228480089088326480088FF
:1042C00048832548408988832348C088C88322487A
:1042D00080880884FFF712FC66E3002005E004F103
:1042E0000B01095C114A1154401C0628F7DB1A48DF
:1042F000408800120D49887117488078C8711648A7
:10430000007A087214480088001248721248007837
:104310008872114840890012C8720F48807A1FE0E5
:104320006C160020E8100020A40000207617002062
:1043300010010020001801080010034000FC0108D3
:104340000CED00E00000FA05190000201B00002021
:104350001C00002060160020000100201C0A002024
:104360000873F748C08800128874F5488079C874CB
:10437000F348808800120875F14800794875607C20
:104380008875002007E0C11D04F10B02525C10315A
:10439000EC4B5A54401C0428F5DB0120E949C8764F
:1043A0001D230A4613218020FCF766FAFCE2617C9B
:1043B000207C401E01EBC000E349087000200BE0A8
:1043C000C11D04F10B02525CE049DF4B1B7851F830
:1043D00023100B310A54401C0428F1DBDB48DA4976
:1043E000097850F821008078D649487400208874F4
:1043F000C874D648D449097850F821000079D149C9
:104400000875D248D049097850F82100C078CD49C4
:104410004875CE48CC49097850F821004078C94900
:10442000887500200CE0C949C74A127851F822105B
:104430000B310A5C00F11701C24B5A54411CC8B23F
:104440000428F0DB0120BF49C8761C20BF49BE4AC2
:104450000090127851F822100878BA4B102280216F
:10446000FCF762FAA0E2617C207C401E01EBC000F8
:10447000B549087000200BE0C11D04F10B02525C2D
:10448000B249B14B1B7851F823100B310A54401C30
:104490000428F1DB00200CE0AC49AB4A127851F85B
:1044A00022100F310A5C00F11101A64B5A54411C35
:1044B000C8B20828F0DB0020A2494876A348A249E8
:1044C000097850F8210090F827009E49887600204E
:1044D0000CE09E499C4A127851F8221028310A5C5F
:1044E00000F11B01974B5A54411CC8B20228F0DB63
:1044F00000200CE09549944A127851F822102C3192
:104500000A5C00F11D018F4B5A54411CC8B20428AB
:10451000F0DB00200CE08D498B4A127851F8221014
:1045200032310A5C00F12101864B5A54411CC8B259
:104530000428F0DB00200CE08449834A127851F80B
:10454000221038310A5C00F125017E4B5A54411C7F
:10455000C8B20428F0DB00200CE07C497A4A1278CB
:1045600051F822103C310A5C00F12901754B5A5474
:10457000411CC8B20428F0DB00200CE07349724AE9
:10458000127851F8221022310A5C00F12D016D4B96
:104590005A54411CC8B20228F0DB00200CE06B49E1
:1045A000694A127851F8221044310A5C00F12F0157
:1045B000644B5A54411CC8B20228F0DB00200CE0C6
:1045C0006249614A127851F8221046310A5C00F1C2
:1045D00031015C4B5A54411CC8B20228F0DB5B48E5
:1045E0005949097850F8210090F84800554981F858
:1045F0003300002006E0002200F13401514B5A54F0
:10460000411CC8B20628F6DB50484F49097850F8DB
:10461000210040784B4981F83A0000200CE04B49DA
:10462000494A127851F822100B310A5C00F13B0123
:10463000444B5A54411CC8B20428F0DB4348424959
:10464000097850F82100407F3E4981F83F00312031
:104650003E493D4A0090127851F822100878394BB3
:1046600011228021FCF760F99EE1217F207C401E11
:1046700001EBC0003449087002203449324A1278F4
:1046800051F82210887000200CE000F1120104F1B2
:104690000B02525C2D492C4B1B7851F823100B3127
:1046A0000A54401C0428F0DB00200BE0811D04F1BB
:1046B0000B02525C2549244B1B7851F823100F3113
:1046C0000A54401C0828F1DBE07C20491E4A12787D
:1046D00051F8221081F8260000200CE000F10F01B3
:1046E00004F10B02525C1949174B1B7851F8231047
:1046F0001E310A54401C0228F0DB14481249097884
:1047000050F82100C17F11480F4A127850F822005A
:10471000807F01EB0020C0EB00104FF6FF7101EA33
:1047200080000A49084A127851F8221008840121B1
:104730000648054A127850F822004177002016E01A
:1047400000010020761700201E0000202400002019
:104750009749984A127851F8221038310A5C9449E6
:10476000944B1B7851F823103C310A54401C042808
:10477000EEDB00200CE08E498E4A127851F82210B0
:104780000F310A5C00F111018B4B5A54411CC8B225
:104790000828F0DB00208849487685488549097853
:1047A00050F8210000798449887681488149097848
:1047B00050F82100C0788049C8767D487D49097845
:1047C00050F8210040787C49087700200CE07849B7
:1047D000784A127851F822100B310A5C00F11D0161
:1047E000754B5A54411CC8B20428F0DB704871491B
:1047F000097850F82100407F6F4981F821006D4809
:1048000000786E490870222069496A4A009012783F
:1048100051F822100878684B202200E0C5E0802182
:10482000FCF782F8C0E0617E207C401E01EBC000F6
:104830006049087000205E495E4A127851F82210E3
:10484000887000BF0BE0811D04F10B02525C5849D7
:10485000584B1B7851F823100F310A54401C08287C
:10486000F1DB00200CE000F10F0104F10B02525CBF
:104870004F49504B1B7851F823100B310A54401C00
:104880000428F0DB01214A484A4A127850F82200F5
:10489000417700200CE04649464A127851F8221030
:1048A0000F310A5C00F11101434B5A54411CC8B24C
:1048B0000828F0DB00204049487600BF0CE03C4966
:1048C0003C4A127851F8221038310A5C00F11A0182
:1048D000394B5A54411CC8B20428F0DB00200CE0CC
:1048E0003349344A127851F822103C310A5C00F105
:1048F0001E01314B5A54411CC8B20428F0DB002081
:104900000CE02B492B4A127851F8221022310A5C14
:1049100000F12201284B5A54411CC8B20228F0DB96
:1049200023482449097850F821004078224981F829
:10493000240000200DE030E01D491E4A127851F895
:1049400022100B310A5C00F125011B4B5A54411C0B
:10495000C8B20428F0DB16481649097850F821003F
:10496000407F154981F829002A201149114A0090F9
:10497000127851F8221008780F4B21228021FBF782
:10498000D3FF03200A490B4A127851F8221081F80C
:104990004900C820FCF7EAFC06E000BF04E000BFC5
:1049A00002E000BF00E000BF00BF00BFFFF7DEBABB
:1049B000240000201E000020761700208400002024
:1049C00010B5FFF7ADFA10BD30B504460D460348EB
:1049D000027829462046FCF7ADFF30BDB400002028
:1049E00010B500F0F3F810BD2DE9F04104460D4676
:1049F000002600271448027829462046FCF76EFF5F
:104A00000646012E1CD110480078052802DD002042
:104A10000D4908700C480178F0310C48FDF71CFC7A
:104A20000A48FDF700FD0848027829462046FCF7B1
:104A3000C9FF0548027829462046FCF74FFF074684
:104A40003846BDE8F0810000B400002000100340AB
:104A500010B540F25C510248FBF78DFE10BD00001E
:104A6000E810002010B5FFF7F3FF104800210160A7
:104A7000416001810E480160017101200C490871FB
:104A80000870002048700B48FEF792F92C20074967
:104A9000C88003204870002088700870C8700871B2
:104AA000012008720348FEF753F810BD4416002099
:104AB000AF000020003000401CB503208DF800003E
:104AC00005208DF8010000208DF8020001208DF8EE
:104AD00003006846FCF704F80020019001A9024891
:104AE000FEF732F91CBD00000030004000BFC26F6D
:104AF00002F00202002AFAD00160704710B5114896
:104B0000B0F84E0540B900200F4948700F48FEF735
:104B10004FF900200E4908700A48B0F84E050028E9
:104B20000FDD0848B0F84E05401E0A4A115C0748E0
:104B3000FFF7DCFF0348B0F84E05401E0149A1F81D
:104B40004E0510BDE8100020AF00002000300040EE
:104B5000940000203415002010B50246002003E028
:104B600012F8014B2318D8B20B1EA1F10104A1B217
:104B7000F6D110BD1FB50020009001900290039067
:104B80008DF80B0003208DF80000094801900020EB
:104B90008DF809008DF80A0001208DF8080000202A
:104BA0008DF80C0069460348FDF798FA1FBD000018
:104BB000A0D9EA040010034008B50020009069461F
:104BC0000148FDF78BFB08BD00100340704770479C
:104BD00000BF00BFEFF3108109B9012100E00021FF
:104BE000084600B172B60949094A916500BF0949F2
:104BF00049686FF30B01074A51600749044A516540
:104C00000021916500B162B600BF7047E487AC3FF8
:104C1000006002400040024053A3570010B5FFF768
:104C2000CBFFFFF7A7FF00BF00BFEFF3108008B96D
:104C3000012000E00020044604B172B60B480C4984
:104C4000886500BF00200A49C861FF200862012072
:104C5000FCF7A2FB1F200649C8614FF0FF30086235
:104C60000020886504B162B600BF10BDE487AC3F88
:104C70000060024000BFEFF31081C8B272B6054970
:104C8000096809B90449087002490968491C014AC0
:104C900011607047EC000020F00000200748006819
:104CA00058B106480068401E04490860084600687C
:104CB00018B90348007800B962B67047EC000020CC
:104CC000F000002008B5FFF7A9FF00210D48FDF70F
:104CD0008FF800208DF800008DF801008DF802009B
:104CE0006846FCF7B3FFFFF773FFFFF779FE4FF459
:104CF000C07205490548FBF725FD044804490860D2
:104D000008BD0000A0D9EA040000000800600010FF
:104D100008ED00E02DE9FF5F04460F4698460025A8
:104D20000026A946AA46AB4637B935A0DDE90E12E2
:104D3000FBF74BFDBDE8FF9FE019A0F1010B04EA72
:104D4000080030B108F1010139A0DDE90E23FBF7BD
:104D50003CFD47484068A04204D84548D0F8D400FC
:104D600058450FD24248D0F8DC00A04204D8404851
:104D7000D0F8E000584505D23EA0DDE90E12FBF761
:104D800024FDD7E700250CE005EB4500384901EB91
:104D900080004068A04202D9681EC5B203E0681CCA
:104DA000C5B2132DF0DB00BF2E460AE006EB46002D
:104DB0002F4901EB80008068584500D303E0701C48
:104DC000C6B2132EF2DB00BFA9460AE009EB490088
:104DD000274951F8200040EA0A0A09F1010000F0D1
:104DE000FF09B145F2DD02980AEA0000504504D0FF
:104DF0002AA0DDE90E12FBF7E8FC00BF9AE70000ED
:104E0000427566666572206C656E2063616E6E6FBA
:104E10007420626520303A2066696C652025732015
:104E20006F6E206C696E652025640D0A000000001D
:104E30005468652062756666657220616464726597
:104E4000737320697320616C69676E656420627991
:104E500020256420627974652E3A2066696C65208D
:104E60002573206F6E206C696E652025640D0A0025
:104E700030AB0010496E76616C69642061646472C5
:104E80006573733A2066696C65202573206F6E2008
:104E90006C696E652025640D0A0000005468652069
:104EA0005352414D2061646472657373206861736D
:104EB000206E6F206163636573733A2066696C6569
:104EC000202573206F6E206C696E652025640D0AA5
:104ED0000000000070B504460D462A46214602A097
:104EE000FBF773FC70BD000057726F6E6720706136
:104EF00072616D65746572732076616C75653A20B8
:104F000066696C65202573206F6E206C696E652064
:104F100025640D0A0000000000B585B00020029055
:104F2000039004900090019001208DF804008DF80A
:104F300000008DF8010069460F48FDF739FF40F287
:104F40003240ADF80E0003208DF8090000208DF8E6
:104F50000A008DF808008DF80B008DF80C00012078
:104F60008DF8100002A90448FDF7F2FD0420FCF7BB
:104F7000DFF905B000BD0000005000401CB5052061
:104F80008DF8000000208DF801008DF8020001204E
:104F90008DF803006846FBF7A3FD0020019001A9EE
:104FA0000148FDF7D1FE1CBD0050004008B5114876
:104FB00000210160416081600020009001208DF897
:104FC000000000208DF8010069460B48FDF75CFDEC
:104FD00001200849087204204872052088714FF4A6
:104FE0002170088000204880888088720248FDF780
:104FF000D7FA08BD4E160020005001401CB51620FF
:105000008DF8000004208DF8010000208DF80200CA
:1050100001208DF803006846FBF762FD0020019037
:1050200001A90248FDF722FB1CBD00000050014011
:105030000B4890F84B0588B10948D0F8580538B1AD
:105040000748D0F85805401E0549C1F8580505E045
:105050000020034981F84B05C1F85805704700004E
:10506000E810002010B50348017A0348FDF720FD41
:1050700010BD00004E1600200050014000BE9812E6
:10508000007B9A178098C61B0092FE1E000002004B
:1050900000000008FFFF01080100000000000020E0
:1050A000FF7F00200200000000800020FFFF0020A2
:1050B0000400000000000120FF1F01200800000084
:1050C00000200120FF3F01201000000000400120CF
:1050D000FF5F01202000000000600120FF67012029
:1050E0004000000000680120FF6F012080000000E8
:1050F00000700120FF7701200001000000780120EE
:10510000FF7F01200002000000800120FF870120B6
:105110000004000000880120FF8F0120000800002B
:1051200000900120FF97012000100000009801204E
:10513000FF9F01200020000000A00120FFA7012008
:105140000040000000A80120FFAF01200080000007
:1051500000B00120FFB701200000010000B80120CD
:10516000FFBF01200000040000C0012000C001209A
:10517000000000000000000000000000000000002F
:1051800000000000000000006400000000000000BB
:10519000000000003401002084010020D401002020
:1051A0002402002074020020C40200201403002006
:1051B00064030020B40300200404002054040020F1
:1051C000A4040020F40400204405002094050020DD
:1051D000E4050020000000000000000000000000C6
:1051E00000000000000000000000000000000000BF
:1051F00000000000000000000000000000000000AF
:10520000000000000000000000000000000000009E
:10521000000000000000000000000000010000008D
:10522000000000000000000000000000000000007E
:105230000000000000000000000000001621150B17
:105240002E00000000000000000000000000000030
:1052500000000000003000400000000000000000DE
:105260000000000000D6010000E000007000000017
:04000005080001F9F5
:00000001FF
